{"contracts/CErc20Delegator.sol":{"CErc20Delegator":{"abi":[{"inputs":[{"internalType":"address","name":"underlying_","type":"address"},{"internalType":"contract ComptrollerInterface","name":"comptroller_","type":"address"},{"internalType":"contract InterestRateModel","name":"interestRateModel_","type":"address"},{"internalType":"uint256","name":"initialExchangeRateMantissa_","type":"uint256"},{"internalType":"string","name":"name_","type":"string"},{"internalType":"string","name":"symbol_","type":"string"},{"internalType":"uint8","name":"decimals_","type":"uint8"},{"internalType":"bool","name":"isGLP_","type":"bool"},{"internalType":"address payable","name":"admin_","type":"address"},{"internalType":"address","name":"implementation_","type":"address"},{"internalType":"bytes","name":"becomeImplementationData","type":"bytes"}],"stateMutability":"nonpayable","type":"constructor"},{"anonymous":false,"inputs":[{"indexed":false,"internalType":"uint256","name":"cashPrior","type":"uint256"},{"indexed":false,"internalType":"uint256","name":"interestAccumulated","type":"uint256"},{"indexed":false,"internalType":"uint256","name":"borrowIndex","type":"uint256"},{"indexed":false,"internalType":"uint256","name":"totalBorrows","type":"uint256"}],"name":"AccrueInterest","type":"event"},{"anonymous":false,"inputs":[{"indexed":true,"internalType":"address","name":"owner","type":"address"},{"indexed":true,"internalType":"address","name":"spender","type":"address"},{"indexed":false,"internalType":"uint256","name":"amount","type":"uint256"}],"name":"Approval","type":"event"},{"anonymous":false,"inputs":[{"indexed":false,"internalType":"address","name":"borrower","type":"address"},{"indexed":false,"internalType":"uint256","name":"borrowAmount","type":"uint256"},{"indexed":false,"internalType":"uint256","name":"accountBorrows","type":"uint256"},{"indexed":false,"internalType":"uint256","name":"totalBorrows","type":"uint256"}],"name":"Borrow","type":"event"},{"anonymous":false,"inputs":[{"indexed":false,"internalType":"address","name":"liquidator","type":"address"},{"indexed":false,"internalType":"address","name":"borrower","type":"address"},{"indexed":false,"internalType":"uint256","name":"repayAmount","type":"uint256"},{"indexed":false,"internalType":"address","name":"cTokenCollateral","type":"address"},{"indexed":false,"internalType":"uint256","name":"seizeTokens","type":"uint256"}],"name":"LiquidateBorrow","type":"event"},{"anonymous":false,"inputs":[{"indexed":false,"internalType":"address","name":"minter","type":"address"},{"indexed":false,"internalType":"uint256","name":"mintAmount","type":"uint256"},{"indexed":false,"internalType":"uint256","name":"mintTokens","type":"uint256"}],"name":"Mint","type":"event"},{"anonymous":false,"inputs":[{"indexed":false,"internalType":"address","name":"oldAdmin","type":"address"},{"indexed":false,"internalType":"address","name":"newAdmin","type":"address"}],"name":"NewAdmin","type":"event"},{"anonymous":false,"inputs":[{"indexed":false,"internalType":"contract ComptrollerInterface","name":"oldComptroller","type":"address"},{"indexed":false,"internalType":"contract ComptrollerInterface","name":"newComptroller","type":"address"}],"name":"NewComptroller","type":"event"},{"anonymous":false,"inputs":[{"indexed":false,"internalType":"address","name":"oldImplementation","type":"address"},{"indexed":false,"internalType":"address","name":"newImplementation","type":"address"}],"name":"NewImplementation","type":"event"},{"anonymous":false,"inputs":[{"indexed":false,"internalType":"contract InterestRateModel","name":"oldInterestRateModel","type":"address"},{"indexed":false,"internalType":"contract InterestRateModel","name":"newInterestRateModel","type":"address"}],"name":"NewMarketInterestRateModel","type":"event"},{"anonymous":false,"inputs":[{"indexed":false,"internalType":"address","name":"oldPendingAdmin","type":"address"},{"indexed":false,"internalType":"address","name":"newPendingAdmin","type":"address"}],"name":"NewPendingAdmin","type":"event"},{"anonymous":false,"inputs":[{"indexed":false,"internalType":"uint256","name":"oldReserveFactorMantissa","type":"uint256"},{"indexed":false,"internalType":"uint256","name":"newReserveFactorMantissa","type":"uint256"}],"name":"NewReserveFactor","type":"event"},{"anonymous":false,"inputs":[{"indexed":false,"internalType":"address","name":"redeemer","type":"address"},{"indexed":false,"internalType":"uint256","name":"redeemAmount","type":"uint256"},{"indexed":false,"internalType":"uint256","name":"redeemTokens","type":"uint256"}],"name":"Redeem","type":"event"},{"anonymous":false,"inputs":[{"indexed":false,"internalType":"address","name":"payer","type":"address"},{"indexed":false,"internalType":"address","name":"borrower","type":"address"},{"indexed":false,"internalType":"uint256","name":"repayAmount","type":"uint256"},{"indexed":false,"internalType":"uint256","name":"accountBorrows","type":"uint256"},{"indexed":false,"internalType":"uint256","name":"totalBorrows","type":"uint256"}],"name":"RepayBorrow","type":"event"},{"anonymous":false,"inputs":[{"indexed":false,"internalType":"address","name":"benefactor","type":"address"},{"indexed":false,"internalType":"uint256","name":"addAmount","type":"uint256"},{"indexed":false,"internalType":"uint256","name":"newTotalReserves","type":"uint256"}],"name":"ReservesAdded","type":"event"},{"anonymous":false,"inputs":[{"indexed":false,"internalType":"address","name":"admin","type":"address"},{"indexed":false,"internalType":"uint256","name":"reduceAmount","type":"uint256"},{"indexed":false,"internalType":"uint256","name":"newTotalReserves","type":"uint256"}],"name":"ReservesReduced","type":"event"},{"anonymous":false,"inputs":[{"indexed":true,"internalType":"address","name":"from","type":"address"},{"indexed":true,"internalType":"address","name":"to","type":"address"},{"indexed":false,"internalType":"uint256","name":"amount","type":"uint256"}],"name":"Transfer","type":"event"},{"stateMutability":"payable","type":"fallback"},{"inputs":[],"name":"WETH","outputs":[{"internalType":"address","name":"","type":"address"}],"stateMutability":"view","type":"function"},{"inputs":[],"name":"_acceptAdmin","outputs":[{"internalType":"uint256","name":"","type":"uint256"}],"stateMutability":"nonpayable","type":"function"},{"inputs":[{"internalType":"uint256","name":"addAmount","type":"uint256"}],"name":"_addReserves","outputs":[{"internalType":"uint256","name":"","type":"uint256"}],"stateMutability":"nonpayable","type":"function"},{"inputs":[{"internalType":"uint256","name":"reduceAmount","type":"uint256"}],"name":"_reduceReserves","outputs":[{"internalType":"uint256","name":"","type":"uint256"}],"stateMutability":"nonpayable","type":"function"},{"inputs":[{"internalType":"bool","name":"autocompound_","type":"bool"}],"name":"_setAutocompoundRewards","outputs":[{"internalType":"uint256","name":"","type":"uint256"}],"stateMutability":"nonpayable","type":"function"},{"inputs":[{"internalType":"contract ComptrollerInterface","name":"newComptroller","type":"address"}],"name":"_setComptroller","outputs":[{"internalType":"uint256","name":"","type":"uint256"}],"stateMutability":"nonpayable","type":"function"},{"inputs":[{"internalType":"contract IStakedGlp","name":"stakedGLP_","type":"address"},{"internalType":"contract IGmxRewardRouter","name":"glpRewardRouter_","type":"address"},{"internalType":"address","name":"glpManager_","type":"address"}],"name":"_setGlpAddresses","outputs":[{"internalType":"uint256","name":"","type":"uint256"}],"stateMutability":"nonpayable","type":"function"},{"inputs":[{"internalType":"address","name":"implementation_","type":"address"},{"internalType":"bool","name":"allowResign","type":"bool"},{"internalType":"bytes","name":"becomeImplementationData","type":"bytes"}],"name":"_setImplementation","outputs":[],"stateMutability":"nonpayable","type":"function"},{"inputs":[{"internalType":"contract InterestRateModel","name":"newInterestRateModel","type":"address"}],"name":"_setInterestRateModel","outputs":[{"internalType":"uint256","name":"","type":"uint256"}],"stateMutability":"nonpayable","type":"function"},{"inputs":[{"internalType":"address payable","name":"newPendingAdmin","type":"address"}],"name":"_setPendingAdmin","outputs":[{"internalType":"uint256","name":"","type":"uint256"}],"stateMutability":"nonpayable","type":"function"},{"inputs":[{"internalType":"uint256","name":"newReserveFactorMantissa","type":"uint256"}],"name":"_setReserveFactor","outputs":[{"internalType":"uint256","name":"","type":"uint256"}],"stateMutability":"nonpayable","type":"function"},{"inputs":[{"internalType":"address","name":"recipient","type":"address"}],"name":"_signalTransfer","outputs":[{"internalType":"uint256","name":"","type":"uint256"}],"stateMutability":"nonpayable","type":"function"},{"inputs":[],"name":"accrualBlockNumber","outputs":[{"internalType":"uint256","name":"","type":"uint256"}],"stateMutability":"view","type":"function"},{"inputs":[],"name":"accrueInterest","outputs":[{"internalType":"uint256","name":"","type":"uint256"}],"stateMutability":"nonpayable","type":"function"},{"inputs":[],"name":"admin","outputs":[{"internalType":"address payable","name":"","type":"address"}],"stateMutability":"view","type":"function"},{"inputs":[{"internalType":"address","name":"owner","type":"address"},{"internalType":"address","name":"spender","type":"address"}],"name":"allowance","outputs":[{"internalType":"uint256","name":"","type":"uint256"}],"stateMutability":"view","type":"function"},{"inputs":[{"internalType":"address","name":"spender","type":"address"},{"internalType":"uint256","name":"amount","type":"uint256"}],"name":"approve","outputs":[{"internalType":"bool","name":"","type":"bool"}],"stateMutability":"nonpayable","type":"function"},{"inputs":[],"name":"approveGlpRewardRouterWETHSpending","outputs":[],"stateMutability":"nonpayable","type":"function"},{"inputs":[],"name":"autocompound","outputs":[{"internalType":"bool","name":"","type":"bool"}],"stateMutability":"view","type":"function"},{"inputs":[{"internalType":"address","name":"owner","type":"address"}],"name":"balanceOf","outputs":[{"internalType":"uint256","name":"","type":"uint256"}],"stateMutability":"view","type":"function"},{"inputs":[{"internalType":"address","name":"owner","type":"address"}],"name":"balanceOfUnderlying","outputs":[{"internalType":"uint256","name":"","type":"uint256"}],"stateMutability":"nonpayable","type":"function"},{"inputs":[{"internalType":"uint256","name":"borrowAmount","type":"uint256"}],"name":"borrow","outputs":[{"internalType":"uint256","name":"","type":"uint256"}],"stateMutability":"nonpayable","type":"function"},{"inputs":[{"internalType":"address","name":"account","type":"address"}],"name":"borrowBalanceCurrent","outputs":[{"internalType":"uint256","name":"","type":"uint256"}],"stateMutability":"nonpayable","type":"function"},{"inputs":[{"internalType":"address","name":"account","type":"address"}],"name":"borrowBalanceStored","outputs":[{"internalType":"uint256","name":"","type":"uint256"}],"stateMutability":"view","type":"function"},{"inputs":[],"name":"borrowIndex","outputs":[{"internalType":"uint256","name":"","type":"uint256"}],"stateMutability":"view","type":"function"},{"inputs":[],"name":"borrowRatePerBlock","outputs":[{"internalType":"uint256","name":"","type":"uint256"}],"stateMutability":"view","type":"function"},{"inputs":[],"name":"comptroller","outputs":[{"internalType":"contract ComptrollerInterface","name":"","type":"address"}],"stateMutability":"view","type":"function"},{"inputs":[],"name":"decimals","outputs":[{"internalType":"uint8","name":"","type":"uint8"}],"stateMutability":"view","type":"function"},{"inputs":[{"internalType":"bytes","name":"data","type":"bytes"}],"name":"delegateToImplementation","outputs":[{"internalType":"bytes","name":"","type":"bytes"}],"stateMutability":"nonpayable","type":"function"},{"inputs":[{"internalType":"bytes","name":"data","type":"bytes"}],"name":"delegateToViewImplementation","outputs":[{"internalType":"bytes","name":"","type":"bytes"}],"stateMutability":"view","type":"function"},{"inputs":[{"internalType":"address","name":"_NFTAddress","type":"address"},{"internalType":"uint256","name":"_TokenID","type":"uint256"}],"name":"depositNFT","outputs":[],"stateMutability":"nonpayable","type":"function"},{"inputs":[],"name":"exchangeRateCurrent","outputs":[{"internalType":"uint256","name":"","type":"uint256"}],"stateMutability":"nonpayable","type":"function"},{"inputs":[],"name":"exchangeRateStored","outputs":[{"internalType":"uint256","name":"","type":"uint256"}],"stateMutability":"view","type":"function"},{"inputs":[{"internalType":"address","name":"account","type":"address"}],"name":"getAccountSnapshot","outputs":[{"internalType":"uint256","name":"","type":"uint256"},{"internalType":"uint256","name":"","type":"uint256"},{"internalType":"uint256","name":"","type":"uint256"},{"internalType":"uint256","name":"","type":"uint256"}],"stateMutability":"view","type":"function"},{"inputs":[],"name":"getCash","outputs":[{"internalType":"uint256","name":"","type":"uint256"}],"stateMutability":"view","type":"function"},{"inputs":[],"name":"glpManager","outputs":[{"internalType":"address","name":"","type":"address"}],"stateMutability":"view","type":"function"},{"inputs":[],"name":"glpRewardRouter","outputs":[{"internalType":"contract IGmxRewardRouter","name":"","type":"address"}],"stateMutability":"view","type":"function"},{"inputs":[],"name":"gmxToken","outputs":[{"internalType":"address","name":"","type":"address"}],"stateMutability":"view","type":"function"},{"inputs":[],"name":"implementation","outputs":[{"internalType":"address","name":"","type":"address"}],"stateMutability":"view","type":"function"},{"inputs":[],"name":"interestRateModel","outputs":[{"internalType":"contract InterestRateModel","name":"","type":"address"}],"stateMutability":"view","type":"function"},{"inputs":[],"name":"isCToken","outputs":[{"internalType":"bool","name":"","type":"bool"}],"stateMutability":"view","type":"function"},{"inputs":[],"name":"isGLP","outputs":[{"internalType":"bool","name":"","type":"bool"}],"stateMutability":"view","type":"function"},{"inputs":[{"internalType":"address","name":"borrower","type":"address"},{"internalType":"uint256","name":"repayAmount","type":"uint256"},{"internalType":"contract CTokenInterface","name":"cTokenCollateral","type":"address"}],"name":"liquidateBorrow","outputs":[{"internalType":"uint256","name":"","type":"uint256"}],"stateMutability":"nonpayable","type":"function"},{"inputs":[{"internalType":"uint256","name":"mintAmount","type":"uint256"}],"name":"mint","outputs":[{"internalType":"uint256","name":"","type":"uint256"}],"stateMutability":"nonpayable","type":"function"},{"inputs":[],"name":"name","outputs":[{"internalType":"string","name":"","type":"string"}],"stateMutability":"view","type":"function"},{"inputs":[],"name":"pendingAdmin","outputs":[{"internalType":"address payable","name":"","type":"address"}],"stateMutability":"view","type":"function"},{"inputs":[],"name":"protocolSeizeShareMantissa","outputs":[{"internalType":"uint256","name":"","type":"uint256"}],"stateMutability":"view","type":"function"},{"inputs":[],"name":"proxyType","outputs":[{"internalType":"uint256","name":"proxyTypeId","type":"uint256"}],"stateMutability":"pure","type":"function"},{"inputs":[{"internalType":"uint256","name":"redeemTokens","type":"uint256"}],"name":"redeem","outputs":[{"internalType":"uint256","name":"","type":"uint256"}],"stateMutability":"nonpayable","type":"function"},{"inputs":[{"internalType":"uint256","name":"redeemAmount","type":"uint256"}],"name":"redeemUnderlying","outputs":[{"internalType":"uint256","name":"","type":"uint256"}],"stateMutability":"nonpayable","type":"function"},{"inputs":[{"internalType":"uint256","name":"repayAmount","type":"uint256"}],"name":"repayBorrow","outputs":[{"internalType":"uint256","name":"","type":"uint256"}],"stateMutability":"nonpayable","type":"function"},{"inputs":[{"internalType":"address","name":"borrower","type":"address"},{"internalType":"uint256","name":"repayAmount","type":"uint256"}],"name":"repayBorrowBehalf","outputs":[{"internalType":"uint256","name":"","type":"uint256"}],"stateMutability":"nonpayable","type":"function"},{"inputs":[],"name":"reserveFactorMantissa","outputs":[{"internalType":"uint256","name":"","type":"uint256"}],"stateMutability":"view","type":"function"},{"inputs":[],"name":"sbfGMX","outputs":[{"internalType":"address","name":"","type":"address"}],"stateMutability":"view","type":"function"},{"inputs":[{"internalType":"address","name":"liquidator","type":"address"},{"internalType":"address","name":"borrower","type":"address"},{"internalType":"uint256","name":"seizeTokens","type":"uint256"}],"name":"seize","outputs":[{"internalType":"uint256","name":"","type":"uint256"}],"stateMutability":"nonpayable","type":"function"},{"inputs":[],"name":"stakedGLP","outputs":[{"internalType":"contract IStakedGlp","name":"","type":"address"}],"stateMutability":"view","type":"function"},{"inputs":[],"name":"stakedGmxTracker","outputs":[{"internalType":"contract IRewardTracker","name":"","type":"address"}],"stateMutability":"view","type":"function"},{"inputs":[],"name":"supplyRatePerBlock","outputs":[{"internalType":"uint256","name":"","type":"uint256"}],"stateMutability":"view","type":"function"},{"inputs":[{"internalType":"contract EIP20NonStandardInterface","name":"token","type":"address"}],"name":"sweepToken","outputs":[],"stateMutability":"nonpayable","type":"function"},{"inputs":[],"name":"symbol","outputs":[{"internalType":"string","name":"","type":"string"}],"stateMutability":"view","type":"function"},{"inputs":[],"name":"totalBorrows","outputs":[{"internalType":"uint256","name":"","type":"uint256"}],"stateMutability":"view","type":"function"},{"inputs":[],"name":"totalBorrowsCurrent","outputs":[{"internalType":"uint256","name":"","type":"uint256"}],"stateMutability":"nonpayable","type":"function"},{"inputs":[],"name":"totalReserves","outputs":[{"internalType":"uint256","name":"","type":"uint256"}],"stateMutability":"view","type":"function"},{"inputs":[],"name":"totalSupply","outputs":[{"internalType":"uint256","name":"","type":"uint256"}],"stateMutability":"view","type":"function"},{"inputs":[{"internalType":"address","name":"dst","type":"address"},{"internalType":"uint256","name":"amount","type":"uint256"}],"name":"transfer","outputs":[{"internalType":"bool","name":"","type":"bool"}],"stateMutability":"nonpayable","type":"function"},{"inputs":[{"internalType":"address","name":"src","type":"address"},{"internalType":"address","name":"dst","type":"address"},{"internalType":"uint256","name":"amount","type":"uint256"}],"name":"transferFrom","outputs":[{"internalType":"bool","name":"","type":"bool"}],"stateMutability":"nonpayable","type":"function"},{"inputs":[],"name":"underlying","outputs":[{"internalType":"address","name":"","type":"address"}],"stateMutability":"view","type":"function"},{"inputs":[{"internalType":"address","name":"_NFTAddress","type":"address"},{"internalType":"uint256","name":"_TokenID","type":"uint256"}],"name":"withdrawNFT","outputs":[],"stateMutability":"nonpayable","type":"function"}],"evm":{"bytecode":{"linkReferences":{},"object":"60a06040526000805476a906f338cb21815cbc4bc87ace9e68c87ef8d8f10000006301000000600160b81b0319909116179055600180546001600160a01b0319908116732f546ad4edd93b956c8999be404cdcafde3e89ae1790915560028054821673fc5a1a6eb076a2c7ad06ed22c90d7e710e35ad0a17905560038054821673908c4d94d34924765f1edc22a1dd098397c59dd417905560048054821673d2d1162512f927a7e282ef43a362659e4f2a728f1790557382af49447d8a07e3bd95bd0d56f35241523fbab16080526005805490911673321f653eed006ad1c29d174e17d96351bde22649179055348015620000f957600080fd5b5060405162002921380380620029218339810160408190526200011c9162000516565b60088054610100600160a81b03191633610100021790556040516200018f9083906200015b908e908e908e908e908e908e908e908e9060240162000673565b60408051601f198184030181529190526020810180516001600160e01b0390811663ceeb027960e01b17909152620001d516565b506200019e8260008362000254565b5050600880546001600160a01b0390921661010002610100600160a81b031990921691909117905550620007219650505050505050565b6060600080846001600160a01b031684604051620001f49190620006e7565b600060405180830381855af49150503d806000811462000231576040519150601f19603f3d011682016040523d82523d6000602084013e62000236565b606091505b509150915060008214156200024c573d60208201fd5b949350505050565b60085461010090046001600160a01b03163314620002de5760405162461bcd60e51b815260206004820152603960248201527f43457263323044656c656761746f723a3a5f736574496d706c656d656e74617460448201527f696f6e3a2043616c6c6572206d7573742062652061646d696e00000000000000606482015260840160405180910390fd5b811562000320576040805160048152602481019091526020810180516001600160e01b0390811663153ab50560e01b179091526200031e9190620003db16565b505b601780546001600160a01b038581166001600160a01b03198316179092556040519116906200038d906200035990849060240162000705565b60408051601f198184030181529190526020810180516001600160e01b03908116630adccee560e31b17909152620003db16565b50601754604080516001600160a01b03808516825290921660208301527fd604de94d45953f9138079ec1b82d533cb2160c906d1076d1f7ed54befbca97a910160405180910390a150505050565b601754606090620003f6906001600160a01b031683620001d5565b92915050565b80516001600160a01b03811681146200041457600080fd5b919050565b634e487b7160e01b600052604160045260246000fd5b60005b838110156200044c57818101518382015260200162000432565b838111156200045c576000848401525b50505050565b600082601f8301126200047457600080fd5b81516001600160401b038082111562000491576200049162000419565b604051601f8301601f19908116603f01168101908282118183101715620004bc57620004bc62000419565b81604052838152866020858801011115620004d657600080fd5b620004e98460208301602089016200042f565b9695505050505050565b805160ff811681146200041457600080fd5b805180151581146200041457600080fd5b60008060008060008060008060008060006101608c8e0312156200053957600080fd5b620005448c620003fc565b9a506200055460208d01620003fc565b99506200056460408d01620003fc565b60608d015160808e0151919a5098506001600160401b038111156200058857600080fd5b620005968e828f0162000462565b60a08e015190985090506001600160401b03811115620005b557600080fd5b620005c38e828f0162000462565b965050620005d460c08d01620004f3565b9450620005e460e08d0162000505565b9350620005f56101008d01620003fc565b9250620006066101208d01620003fc565b6101408d01519092506001600160401b038111156200062457600080fd5b620006328e828f0162000462565b9150509295989b509295989b9093969950565b600081518084526200065f8160208601602086016200042f565b601f01601f19169290920160200192915050565b6001600160a01b0389811682528881166020830152871660408201526060810186905261010060808201819052600090620006b18382018862000645565b905082810360a0840152620006c7818762000645565b60ff9590951660c0840152505090151560e0909101529695505050505050565b60008251620006fb8184602087016200042f565b9190910192915050565b6020815260006200071a602083018462000645565b9392505050565b6080516121dd6200074460003960008181610a820152611c1901526121dd6000f3fe6080604052600436106103ef5760003560e01c806370a0823111610208578063bc3b7a1811610118578063f3fdb15a116100ab578063fa6db1bc1161007a578063fa6db1bc14610c9d578063fca7820b14610cbd578063fe9c44ae14610cdd578063ff503ed214610cf2578063ff5b0cb414610d12576103ef565b8063f3fdb15a14610c23578063f5e3c46214610c43578063f851a44014610c63578063f8f9da2814610c88576103ef565b8063db006a75116100e7578063db006a7514610bae578063dd62ed3e14610bce578063e9c714f214610bee578063f2b3abbd14610c03576103ef565b8063bc3b7a1814610b19578063bd6d894d14610b39578063c37f68e214610b4e578063c5ebeaec14610b8e576103ef565b8063a0712d681161019b578063ad5c46481161016a578063ad5c464814610a70578063ae9d70b014610aa4578063b2a02ff114610ab9578063b71d1a0c14610ad9578063bae49e9914610af9576103ef565b8063a0712d6814610a05578063a6afed9514610a25578063a9059cbb14610a3a578063aa5af0fd14610a5a576103ef565b80638f840ddd116101d75780638f840ddd1461099a57806395d89b41146109b057806395dd9193146109c55780639b5b9b18146109e5576103ef565b806370a082311461092657806373acee9814610946578063842e11eb1461095b578063852a12e31461097a576103ef565b80633af9e669116103035780635b30cf55116102965780636088e93a116102655780636088e93a1461088e5780636752e702146108ae57806368672231146108c95780636c540baf146108f05780636f307dc314610906576103ef565b80635b30cf551461080e5780635c60da1b1461082e5780635fe3b5671461084e578063601a0bf11461086e576103ef565b80634555d5c9116102d25780634555d5c9146107a45780634576b5db146107b857806347bd3718146107d8578063555bcc40146107ee576103ef565b80633af9e6691461072f5780633b1d21a21461074f5780633e941010146107645780634487152f14610784576103ef565b806318160ddd116103865780632608f818116103555780632608f8181461068357806326782247146106a357806326d9687c146106c3578063313ce567146106e357806336818b011461070f576103ef565b806318160ddd14610616578063182df0f51461062c5780631be195601461064157806323b872dd14610663576103ef565b80630ce4018a116103c25780630ce4018a146105925780630e752702146105b2578063173b9904146105e057806317bfdfbc146105f6576103ef565b806306dd74e5146104e357806306fdde03146105205780630933c1ed14610542578063095ea7b314610562575b34156104685760405162461bcd60e51b815260206004820152603760248201527f43457263323044656c656761746f723a66616c6c6261636b3a2063616e6e6f7460448201527f2073656e642076616c756520746f2066616c6c6261636b00000000000000000060648201526084015b60405180910390fd5b6017546040516000916001600160a01b0316906104889083903690611cfd565b600060405180830381855af49150503d80600081146104c3576040519150601f19603f3d011682016040523d82523d6000602084013e6104c8565b606091505b505090506040513d6000823e8180156104df573d82f35b3d82fd5b3480156104ef57600080fd5b50600454610503906001600160a01b031681565b6040516001600160a01b0390911681526020015b60405180910390f35b34801561052c57600080fd5b50610535610d27565b6040516105179190611d69565b34801561054e57600080fd5b5061053561055d366004611e41565b610db5565b34801561056e57600080fd5b5061058261057d366004611e8b565b610dd4565b6040519015158152602001610517565b34801561059e57600080fd5b50600354610503906001600160a01b031681565b3480156105be57600080fd5b506105d26105cd366004611eb7565b610e46565b604051908152602001610517565b3480156105ec57600080fd5b506105d2600d5481565b34801561060257600080fd5b506105d2610611366004611ed0565b610eab565b34801561062257600080fd5b506105d260125481565b34801561063857600080fd5b506105d2610ef8565b34801561064d57600080fd5b5061066161065c366004611ed0565b610f4b565b005b34801561066f57600080fd5b5061058261067e366004611eed565b610f96565b34801561068f57600080fd5b506105d261069e366004611e8b565b611011565b3480156106af57600080fd5b50600954610503906001600160a01b031681565b3480156106cf57600080fd5b506000546105829062010000900460ff1681565b3480156106ef57600080fd5b506008546106fd9060ff1681565b60405160ff9091168152602001610517565b34801561071b57600080fd5b506105d261072a366004611ed0565b61107b565b34801561073b57600080fd5b506105d261074a366004611ed0565b6110c8565b34801561075b57600080fd5b506105d2611115565b34801561077057600080fd5b506105d261077f366004611eb7565b61114c565b34801561079057600080fd5b5061053561079f366004611e41565b611194565b3480156107b057600080fd5b5060026105d2565b3480156107c457600080fd5b506105d26107d3366004611ed0565b611252565b3480156107e457600080fd5b506105d260105481565b3480156107fa57600080fd5b50610661610809366004611f3c565b61129f565b34801561081a57600080fd5b50600154610503906001600160a01b031681565b34801561083a57600080fd5b50601754610503906001600160a01b031681565b34801561085a57600080fd5b50600a54610503906001600160a01b031681565b34801561087a57600080fd5b506105d2610889366004611eb7565b611411565b34801561089a57600080fd5b506106616108a9366004611e8b565b611459565b3480156108ba57600080fd5b506105d2666379da05b6000081565b3480156108d557600080fd5b5060005461050390630100000090046001600160a01b031681565b3480156108fc57600080fd5b506105d2600e5481565b34801561091257600080fd5b50601654610503906001600160a01b031681565b34801561093257600080fd5b506105d2610941366004611ed0565b6114ad565b34801561095257600080fd5b506105d26114fa565b34801561096757600080fd5b5060005461058290610100900460ff1681565b34801561098657600080fd5b506105d2610995366004611eb7565b611531565b3480156109a657600080fd5b506105d260115481565b3480156109bc57600080fd5b50610535611579565b3480156109d157600080fd5b506105d26109e0366004611ed0565b611586565b3480156109f157600080fd5b50610661610a00366004611e8b565b6115d3565b348015610a1157600080fd5b506105d2610a20366004611eb7565b611622565b348015610a3157600080fd5b506105d261166a565b348015610a4657600080fd5b50610582610a55366004611e8b565b6116a1565b348015610a6657600080fd5b506105d2600f5481565b348015610a7c57600080fd5b506105037f000000000000000000000000000000000000000000000000000000000000000081565b348015610ab057600080fd5b506105d26116f5565b348015610ac557600080fd5b506105d2610ad4366004611eed565b61172c565b348015610ae557600080fd5b506105d2610af4366004611ed0565b61179e565b348015610b0557600080fd5b50600254610503906001600160a01b031681565b348015610b2557600080fd5b506105d2610b34366004611f9e565b6117eb565b348015610b4557600080fd5b506105d2611835565b348015610b5a57600080fd5b50610b6e610b69366004611ed0565b61186c565b604080519485526020850193909352918301526060820152608001610517565b348015610b9a57600080fd5b506105d2610ba9366004611eb7565b6118ec565b348015610bba57600080fd5b506105d2610bc9366004611eb7565b611934565b348015610bda57600080fd5b506105d2610be9366004611fbb565b61197c565b348015610bfa57600080fd5b506105d26119d1565b348015610c0f57600080fd5b506105d2610c1e366004611ed0565b611a08565b348015610c2f57600080fd5b50600b54610503906001600160a01b031681565b348015610c4f57600080fd5b506105d2610c5e366004611ff4565b611a55565b348015610c6f57600080fd5b506008546105039061010090046001600160a01b031681565b348015610c9457600080fd5b506105d2611ab1565b348015610ca957600080fd5b50600554610503906001600160a01b031681565b348015610cc957600080fd5b506105d2610cd8366004611eb7565b611ae8565b348015610ce957600080fd5b50610582600181565b348015610cfe57600080fd5b506105d2610d0d366004612036565b611b30565b348015610d1e57600080fd5b50610661611b90565b60068054610d3490612076565b80601f0160208091040260200160405190810160405280929190818152602001828054610d6090612076565b8015610dad5780601f10610d8257610100808354040283529160200191610dad565b820191906000526020600020905b815481529060010190602001808311610d9057829003601f168201915b505050505081565b601754606090610dce906001600160a01b031683611c8b565b92915050565b6040516001600160a01b0383166024820152604481018290526000908190610e289060640160408051601f198184030181529190526020810180516001600160e01b031663095ea7b360e01b179052610db5565b905080806020019051810190610e3e91906120b1565b949350505050565b600080610e8e83604051602401610e5f91815260200190565b60408051601f198184030181529190526020810180516001600160e01b031663073a938160e11b179052610db5565b905080806020019051810190610ea491906120ce565b9392505050565b6040516001600160a01b03821660248201526000908190610e8e9060440160408051601f198184030181529190526020810180516001600160e01b03166305eff7ef60e21b179052610db5565b6040805160048152602481019091526020810180516001600160e01b031663182df0f560e01b1790526000908190610f2f90611194565b905080806020019051810190610f4591906120ce565b91505090565b6040516001600160a01b0382166024820152610f929060440160408051601f198184030181529190526020810180516001600160e01b031662df0cab60e51b179052610db5565b5050565b6040516001600160a01b03808516602483015283166044820152606481018290526000908190610ff29060840160408051601f198184030181529190526020810180516001600160e01b03166323b872dd60e01b179052610db5565b90508080602001905181019061100891906120b1565b95945050505050565b6040516001600160a01b03831660248201526044810182905260009081906110659060640160408051601f198184030181529190526020810180516001600160e01b03166304c11f0360e31b179052610db5565b905080806020019051810190610e3e91906120ce565b6040516001600160a01b03821660248201526000908190610e8e9060440160408051601f198184030181529190526020810180516001600160e01b03166336818b0160e01b179052610db5565b6040516001600160a01b03821660248201526000908190610e8e9060440160408051601f198184030181529190526020810180516001600160e01b0316633af9e66960e01b179052610db5565b6040805160048152602481019091526020810180516001600160e01b0316631d8e90d160e11b1790526000908190610f2f90611194565b600080610e8e8360405160240161116591815260200190565b60408051601f198184030181529190526020810180516001600160e01b03166303e9410160e41b179052610db5565b6060600080306001600160a01b0316846040516024016111b49190611d69565b60408051601f198184030181529181526020820180516001600160e01b0316630933c1ed60e01b179052516111e991906120e7565b600060405180830381855afa9150503d8060008114611224576040519150601f19603f3d011682016040523d82523d6000602084013e611229565b606091505b5091509150600082141561123e573d60208201fd5b80806020019051810190610e3e9190612103565b6040516001600160a01b03821660248201526000908190610e8e9060440160408051601f198184030181529190526020810180516001600160e01b0316634576b5db60e01b179052610db5565b60085461010090046001600160a01b031633146113245760405162461bcd60e51b815260206004820152603960248201527f43457263323044656c656761746f723a3a5f736574496d706c656d656e74617460448201527f696f6e3a2043616c6c6572206d7573742062652061646d696e00000000000000606482015260840161045f565b811561135e576040805160048152602481019091526020810180516001600160e01b031663153ab50560e01b17905261135c90610db5565b505b601780546001600160a01b038581166001600160a01b03198316179092556040519116906113c390611394908490602401611d69565b60408051601f198184030181529190526020810180516001600160e01b0316630adccee560e31b179052610db5565b50601754604080516001600160a01b03808516825290921660208301527fd604de94d45953f9138079ec1b82d533cb2160c906d1076d1f7ed54befbca97a910160405180910390a150505050565b600080610e8e8360405160240161142a91815260200190565b60408051601f198184030181529190526020810180516001600160e01b031663601a0bf160e01b179052610db5565b6040516001600160a01b0383166024820152604481018290526114a89060640160408051601f198184030181529190526020810180516001600160e01b0316633044749d60e11b179052610db5565b505050565b6040516001600160a01b03821660248201526000908190610e8e9060440160408051601f198184030181529190526020810180516001600160e01b03166370a0823160e01b179052611194565b6040805160048152602481019091526020810180516001600160e01b0316630e759dd360e31b1790526000908190610f2f90610db5565b600080610e8e8360405160240161154a91815260200190565b60408051601f198184030181529190526020810180516001600160e01b031663852a12e360e01b179052610db5565b60078054610d3490612076565b6040516001600160a01b03821660248201526000908190610e8e9060440160408051601f198184030181529190526020810180516001600160e01b03166395dd919360e01b179052611194565b6040516001600160a01b0383166024820152604481018290526114a89060640160408051601f198184030181529190526020810180516001600160e01b031663136b736360e31b179052610db5565b600080610e8e8360405160240161163b91815260200190565b60408051601f198184030181529190526020810180516001600160e01b031663140e25ad60e31b179052610db5565b6040805160048152602481019091526020810180516001600160e01b031663a6afed9560e01b1790526000908190610f2f90610db5565b6040516001600160a01b0383166024820152604481018290526000908190610e289060640160408051601f198184030181529190526020810180516001600160e01b031663a9059cbb60e01b179052610db5565b6040805160048152602481019091526020810180516001600160e01b0316630ae9d70b60e41b1790526000908190610f2f90611194565b6040516001600160a01b038085166024830152831660448201526064810182905260009081906117889060840160408051601f198184030181529190526020810180516001600160e01b031663b2a02ff160e01b179052610db5565b90508080602001905181019061100891906120ce565b6040516001600160a01b03821660248201526000908190610e8e9060440160408051601f198184030181529190526020810180516001600160e01b0316632dc7468360e21b179052610db5565b600080610e8e83604051602401611806911515815260200190565b60408051601f198184030181529190526020810180516001600160e01b03166317876f4360e31b179052610db5565b6040805160048152602481019091526020810180516001600160e01b031663bd6d894d60e01b1790526000908190610f2f90610db5565b60008060008060006118c68660405160240161189791906001600160a01b0391909116815260200190565b60408051601f198184030181529190526020810180516001600160e01b03166361bfb47160e11b179052611194565b9050808060200190518101906118dc9190612171565b9450945094509450509193509193565b600080610e8e8360405160240161190591815260200190565b60408051601f198184030181529190526020810180516001600160e01b031663317afabb60e21b179052610db5565b600080610e8e8360405160240161194d91815260200190565b60408051601f198184030181529190526020810180516001600160e01b031663db006a7560e01b179052610db5565b6040516001600160a01b0380841660248301528216604482015260009081906110659060640160408051601f198184030181529190526020810180516001600160e01b0316636eb1769f60e11b179052611194565b6040805160048152602481019091526020810180516001600160e01b03166374e38a7960e11b1790526000908190610f2f90610db5565b6040516001600160a01b03821660248201526000908190610e8e9060440160408051601f198184030181529190526020810180516001600160e01b031663f2b3abbd60e01b179052610db5565b6040516001600160a01b038085166024830152604482018490528216606482015260009081906117889060840160408051601f198184030181529190526020810180516001600160e01b0316637af1e23160e11b179052610db5565b6040805160048152602481019091526020810180516001600160e01b0316631f1f3b4560e31b1790526000908190610f2f90611194565b600080610e8e83604051602401611b0191815260200190565b60408051601f198184030181529190526020810180516001600160e01b031663fca7820b60e01b179052610db5565b6040516001600160a01b03808516602483015280841660448301528216606482015260009081906117889060840160408051601f198184030181529190526020810180516001600160e01b031660016257e09760e11b0319179052610db5565b60085461010090046001600160a01b03163314611bef5760405162461bcd60e51b815260206004820152601b60248201527f6f6e6c792061646d696e2063616e2063616c6c20617070726f76650000000000604482015260640161045f565b60055460405163095ea7b360e01b81526001600160a01b03918216600482015260001960248201527f00000000000000000000000000000000000000000000000000000000000000009091169063095ea7b3906044016020604051808303816000875af1158015611c64573d6000803e3d6000fd5b505050506040513d601f19601f82011682018060405250810190611c8891906120b1565b50565b6060600080846001600160a01b031684604051611ca891906120e7565b600060405180830381855af49150503d8060008114611ce3576040519150601f19603f3d011682016040523d82523d6000602084013e611ce8565b606091505b50915091506000821415610e3e573d60208201fd5b8183823760009101908152919050565b60005b83811015611d28578181015183820152602001611d10565b83811115611d37576000848401525b50505050565b60008151808452611d55816020860160208601611d0d565b601f01601f19169290920160200192915050565b602081526000610ea46020830184611d3d565b634e487b7160e01b600052604160045260246000fd5b604051601f8201601f1916810167ffffffffffffffff81118282101715611dbb57611dbb611d7c565b604052919050565b600067ffffffffffffffff821115611ddd57611ddd611d7c565b50601f01601f191660200190565b600082601f830112611dfc57600080fd5b8135611e0f611e0a82611dc3565b611d92565b818152846020838601011115611e2457600080fd5b816020850160208301376000918101602001919091529392505050565b600060208284031215611e5357600080fd5b813567ffffffffffffffff811115611e6a57600080fd5b610e3e84828501611deb565b6001600160a01b0381168114611c8857600080fd5b60008060408385031215611e9e57600080fd5b8235611ea981611e76565b946020939093013593505050565b600060208284031215611ec957600080fd5b5035919050565b600060208284031215611ee257600080fd5b8135610ea481611e76565b600080600060608486031215611f0257600080fd5b8335611f0d81611e76565b92506020840135611f1d81611e76565b929592945050506040919091013590565b8015158114611c8857600080fd5b600080600060608486031215611f5157600080fd5b8335611f5c81611e76565b92506020840135611f6c81611f2e565b9150604084013567ffffffffffffffff811115611f8857600080fd5b611f9486828701611deb565b9150509250925092565b600060208284031215611fb057600080fd5b8135610ea481611f2e565b60008060408385031215611fce57600080fd5b8235611fd981611e76565b91506020830135611fe981611e76565b809150509250929050565b60008060006060848603121561200957600080fd5b833561201481611e76565b925060208401359150604084013561202b81611e76565b809150509250925092565b60008060006060848603121561204b57600080fd5b833561205681611e76565b9250602084013561206681611e76565b9150604084013561202b81611e76565b600181811c9082168061208a57607f821691505b602082108114156120ab57634e487b7160e01b600052602260045260246000fd5b50919050565b6000602082840312156120c357600080fd5b8151610ea481611f2e565b6000602082840312156120e057600080fd5b5051919050565b600082516120f9818460208701611d0d565b9190910192915050565b60006020828403121561211557600080fd5b815167ffffffffffffffff81111561212c57600080fd5b8201601f8101841361213d57600080fd5b805161214b611e0a82611dc3565b81815285602083850101111561216057600080fd5b611008826020830160208601611d0d565b6000806000806080858703121561218757600080fd5b50508251602084015160408501516060909501519196909550909250905056fea26469706673582212209cf8e565af27948c9f94732928e46dca75bbd09bd028c87380d6eb2e95349c1364736f6c634300080a0033","opcodes":"PUSH1 0xA0 PUSH1 0x40 MSTORE PUSH1 0x0 DUP1 SLOAD PUSH23 0xA906F338CB21815CBC4BC87ACE9E68C87EF8D8F1000000 PUSH4 0x1000000 PUSH1 0x1 PUSH1 0xB8 SHL SUB NOT SWAP1 SWAP2 AND OR SWAP1 SSTORE PUSH1 0x1 DUP1 SLOAD PUSH1 0x1 PUSH1 0x1 PUSH1 0xA0 SHL SUB NOT SWAP1 DUP2 AND PUSH20 0x2F546AD4EDD93B956C8999BE404CDCAFDE3E89AE OR SWAP1 SWAP2 SSTORE PUSH1 0x2 DUP1 SLOAD DUP3 AND PUSH20 0xFC5A1A6EB076A2C7AD06ED22C90D7E710E35AD0A OR SWAP1 SSTORE PUSH1 0x3 DUP1 SLOAD DUP3 AND PUSH20 0x908C4D94D34924765F1EDC22A1DD098397C59DD4 OR SWAP1 SSTORE PUSH1 0x4 DUP1 SLOAD DUP3 AND PUSH20 0xD2D1162512F927A7E282EF43A362659E4F2A728F OR SWAP1 SSTORE PUSH20 0x82AF49447D8A07E3BD95BD0D56F35241523FBAB1 PUSH1 0x80 MSTORE PUSH1 0x5 DUP1 SLOAD SWAP1 SWAP2 AND PUSH20 0x321F653EED006AD1C29D174E17D96351BDE22649 OR SWAP1 SSTORE CALLVALUE DUP1 ISZERO PUSH3 0xF9 JUMPI PUSH1 0x0 DUP1 REVERT JUMPDEST POP PUSH1 0x40 MLOAD PUSH3 0x2921 CODESIZE SUB DUP1 PUSH3 0x2921 DUP4 CODECOPY DUP2 ADD PUSH1 0x40 DUP2 SWAP1 MSTORE PUSH3 0x11C SWAP2 PUSH3 0x516 JUMP JUMPDEST PUSH1 0x8 DUP1 SLOAD PUSH2 0x100 PUSH1 0x1 PUSH1 0xA8 SHL SUB NOT AND CALLER PUSH2 0x100 MUL OR SWAP1 SSTORE PUSH1 0x40 MLOAD PUSH3 0x18F SWAP1 DUP4 SWAP1 PUSH3 0x15B SWAP1 DUP15 SWAP1 DUP15 SWAP1 DUP15 SWAP1 DUP15 SWAP1 DUP15 SWAP1 DUP15 SWAP1 DUP15 SWAP1 DUP15 SWAP1 PUSH1 0x24 ADD PUSH3 0x673 JUMP JUMPDEST PUSH1 0x40 DUP1 MLOAD PUSH1 0x1F NOT DUP2 DUP5 SUB ADD DUP2 MSTORE SWAP2 SWAP1 MSTORE PUSH1 0x20 DUP2 ADD DUP1 MLOAD PUSH1 0x1 PUSH1 0x1 PUSH1 0xE0 SHL SUB SWAP1 DUP2 AND PUSH4 0xCEEB0279 PUSH1 0xE0 SHL OR SWAP1 SWAP2 MSTORE PUSH3 0x1D5 AND JUMP JUMPDEST POP PUSH3 0x19E DUP3 PUSH1 0x0 DUP4 PUSH3 0x254 JUMP JUMPDEST POP POP PUSH1 0x8 DUP1 SLOAD PUSH1 0x1 PUSH1 0x1 PUSH1 0xA0 SHL SUB SWAP1 SWAP3 AND PUSH2 0x100 MUL PUSH2 0x100 PUSH1 0x1 PUSH1 0xA8 SHL SUB NOT SWAP1 SWAP3 AND SWAP2 SWAP1 SWAP2 OR SWAP1 SSTORE POP PUSH3 0x721 SWAP7 POP POP POP POP POP POP POP JUMP JUMPDEST PUSH1 0x60 PUSH1 0x0 DUP1 DUP5 PUSH1 0x1 PUSH1 0x1 PUSH1 0xA0 SHL SUB AND DUP5 PUSH1 0x40 MLOAD PUSH3 0x1F4 SWAP2 SWAP1 PUSH3 0x6E7 JUMP JUMPDEST PUSH1 0x0 PUSH1 0x40 MLOAD DUP1 DUP4 SUB DUP2 DUP6 GAS DELEGATECALL SWAP2 POP POP RETURNDATASIZE DUP1 PUSH1 0x0 DUP2 EQ PUSH3 0x231 JUMPI PUSH1 0x40 MLOAD SWAP2 POP PUSH1 0x1F NOT PUSH1 0x3F RETURNDATASIZE ADD AND DUP3 ADD PUSH1 0x40 MSTORE RETURNDATASIZE DUP3 MSTORE RETURNDATASIZE PUSH1 0x0 PUSH1 0x20 DUP5 ADD RETURNDATACOPY PUSH3 0x236 JUMP JUMPDEST PUSH1 0x60 SWAP2 POP JUMPDEST POP SWAP2 POP SWAP2 POP PUSH1 0x0 DUP3 EQ ISZERO PUSH3 0x24C JUMPI RETURNDATASIZE PUSH1 0x20 DUP3 ADD REVERT JUMPDEST SWAP5 SWAP4 POP POP POP POP JUMP JUMPDEST PUSH1 0x8 SLOAD PUSH2 0x100 SWAP1 DIV PUSH1 0x1 PUSH1 0x1 PUSH1 0xA0 SHL SUB AND CALLER EQ PUSH3 0x2DE JUMPI PUSH1 0x40 MLOAD PUSH3 0x461BCD PUSH1 0xE5 SHL DUP2 MSTORE PUSH1 0x20 PUSH1 0x4 DUP3 ADD MSTORE PUSH1 0x39 PUSH1 0x24 DUP3 ADD MSTORE PUSH32 0x43457263323044656C656761746F723A3A5F736574496D706C656D656E746174 PUSH1 0x44 DUP3 ADD MSTORE PUSH32 0x696F6E3A2043616C6C6572206D7573742062652061646D696E00000000000000 PUSH1 0x64 DUP3 ADD MSTORE PUSH1 0x84 ADD PUSH1 0x40 MLOAD DUP1 SWAP2 SUB SWAP1 REVERT JUMPDEST DUP2 ISZERO PUSH3 0x320 JUMPI PUSH1 0x40 DUP1 MLOAD PUSH1 0x4 DUP2 MSTORE PUSH1 0x24 DUP2 ADD SWAP1 SWAP2 MSTORE PUSH1 0x20 DUP2 ADD DUP1 MLOAD PUSH1 0x1 PUSH1 0x1 PUSH1 0xE0 SHL SUB SWAP1 DUP2 AND PUSH4 0x153AB505 PUSH1 0xE0 SHL OR SWAP1 SWAP2 MSTORE PUSH3 0x31E SWAP2 SWAP1 PUSH3 0x3DB AND JUMP JUMPDEST POP JUMPDEST PUSH1 0x17 DUP1 SLOAD PUSH1 0x1 PUSH1 0x1 PUSH1 0xA0 SHL SUB DUP6 DUP2 AND PUSH1 0x1 PUSH1 0x1 PUSH1 0xA0 SHL SUB NOT DUP4 AND OR SWAP1 SWAP3 SSTORE PUSH1 0x40 MLOAD SWAP2 AND SWAP1 PUSH3 0x38D SWAP1 PUSH3 0x359 SWAP1 DUP5 SWAP1 PUSH1 0x24 ADD PUSH3 0x705 JUMP JUMPDEST PUSH1 0x40 DUP1 MLOAD PUSH1 0x1F NOT DUP2 DUP5 SUB ADD DUP2 MSTORE SWAP2 SWAP1 MSTORE PUSH1 0x20 DUP2 ADD DUP1 MLOAD PUSH1 0x1 PUSH1 0x1 PUSH1 0xE0 SHL SUB SWAP1 DUP2 AND PUSH4 0xADCCEE5 PUSH1 0xE3 SHL OR SWAP1 SWAP2 MSTORE PUSH3 0x3DB AND JUMP JUMPDEST POP PUSH1 0x17 SLOAD PUSH1 0x40 DUP1 MLOAD PUSH1 0x1 PUSH1 0x1 PUSH1 0xA0 SHL SUB DUP1 DUP6 AND DUP3 MSTORE SWAP1 SWAP3 AND PUSH1 0x20 DUP4 ADD MSTORE PUSH32 0xD604DE94D45953F9138079EC1B82D533CB2160C906D1076D1F7ED54BEFBCA97A SWAP2 ADD PUSH1 0x40 MLOAD DUP1 SWAP2 SUB SWAP1 LOG1 POP POP POP POP JUMP JUMPDEST PUSH1 0x17 SLOAD PUSH1 0x60 SWAP1 PUSH3 0x3F6 SWAP1 PUSH1 0x1 PUSH1 0x1 PUSH1 0xA0 SHL SUB AND DUP4 PUSH3 0x1D5 JUMP JUMPDEST SWAP3 SWAP2 POP POP JUMP JUMPDEST DUP1 MLOAD PUSH1 0x1 PUSH1 0x1 PUSH1 0xA0 SHL SUB DUP2 AND DUP2 EQ PUSH3 0x414 JUMPI PUSH1 0x0 DUP1 REVERT JUMPDEST SWAP2 SWAP1 POP JUMP JUMPDEST PUSH4 0x4E487B71 PUSH1 0xE0 SHL PUSH1 0x0 MSTORE PUSH1 0x41 PUSH1 0x4 MSTORE PUSH1 0x24 PUSH1 0x0 REVERT JUMPDEST PUSH1 0x0 JUMPDEST DUP4 DUP2 LT ISZERO PUSH3 0x44C JUMPI DUP2 DUP2 ADD MLOAD DUP4 DUP3 ADD MSTORE PUSH1 0x20 ADD PUSH3 0x432 JUMP JUMPDEST DUP4 DUP2 GT ISZERO PUSH3 0x45C JUMPI PUSH1 0x0 DUP5 DUP5 ADD MSTORE JUMPDEST POP POP POP POP JUMP JUMPDEST PUSH1 0x0 DUP3 PUSH1 0x1F DUP4 ADD SLT PUSH3 0x474 JUMPI PUSH1 0x0 DUP1 REVERT JUMPDEST DUP2 MLOAD PUSH1 0x1 PUSH1 0x1 PUSH1 0x40 SHL SUB DUP1 DUP3 GT ISZERO PUSH3 0x491 JUMPI PUSH3 0x491 PUSH3 0x419 JUMP JUMPDEST PUSH1 0x40 MLOAD PUSH1 0x1F DUP4 ADD PUSH1 0x1F NOT SWAP1 DUP2 AND PUSH1 0x3F ADD AND DUP2 ADD SWAP1 DUP3 DUP3 GT DUP2 DUP4 LT OR ISZERO PUSH3 0x4BC JUMPI PUSH3 0x4BC PUSH3 0x419 JUMP JUMPDEST DUP2 PUSH1 0x40 MSTORE DUP4 DUP2 MSTORE DUP7 PUSH1 0x20 DUP6 DUP9 ADD ADD GT ISZERO PUSH3 0x4D6 JUMPI PUSH1 0x0 DUP1 REVERT JUMPDEST PUSH3 0x4E9 DUP5 PUSH1 0x20 DUP4 ADD PUSH1 0x20 DUP10 ADD PUSH3 0x42F JUMP JUMPDEST SWAP7 SWAP6 POP POP POP POP POP POP JUMP JUMPDEST DUP1 MLOAD PUSH1 0xFF DUP2 AND DUP2 EQ PUSH3 0x414 JUMPI PUSH1 0x0 DUP1 REVERT JUMPDEST DUP1 MLOAD DUP1 ISZERO ISZERO DUP2 EQ PUSH3 0x414 JUMPI PUSH1 0x0 DUP1 REVERT JUMPDEST PUSH1 0x0 DUP1 PUSH1 0x0 DUP1 PUSH1 0x0 DUP1 PUSH1 0x0 DUP1 PUSH1 0x0 DUP1 PUSH1 0x0 PUSH2 0x160 DUP13 DUP15 SUB SLT ISZERO PUSH3 0x539 JUMPI PUSH1 0x0 DUP1 REVERT JUMPDEST PUSH3 0x544 DUP13 PUSH3 0x3FC JUMP JUMPDEST SWAP11 POP PUSH3 0x554 PUSH1 0x20 DUP14 ADD PUSH3 0x3FC JUMP JUMPDEST SWAP10 POP PUSH3 0x564 PUSH1 0x40 DUP14 ADD PUSH3 0x3FC JUMP JUMPDEST PUSH1 0x60 DUP14 ADD MLOAD PUSH1 0x80 DUP15 ADD MLOAD SWAP2 SWAP11 POP SWAP9 POP PUSH1 0x1 PUSH1 0x1 PUSH1 0x40 SHL SUB DUP2 GT ISZERO PUSH3 0x588 JUMPI PUSH1 0x0 DUP1 REVERT JUMPDEST PUSH3 0x596 DUP15 DUP3 DUP16 ADD PUSH3 0x462 JUMP JUMPDEST PUSH1 0xA0 DUP15 ADD MLOAD SWAP1 SWAP9 POP SWAP1 POP PUSH1 0x1 PUSH1 0x1 PUSH1 0x40 SHL SUB DUP2 GT ISZERO PUSH3 0x5B5 JUMPI PUSH1 0x0 DUP1 REVERT JUMPDEST PUSH3 0x5C3 DUP15 DUP3 DUP16 ADD PUSH3 0x462 JUMP JUMPDEST SWAP7 POP POP PUSH3 0x5D4 PUSH1 0xC0 DUP14 ADD PUSH3 0x4F3 JUMP JUMPDEST SWAP5 POP PUSH3 0x5E4 PUSH1 0xE0 DUP14 ADD PUSH3 0x505 JUMP JUMPDEST SWAP4 POP PUSH3 0x5F5 PUSH2 0x100 DUP14 ADD PUSH3 0x3FC JUMP JUMPDEST SWAP3 POP PUSH3 0x606 PUSH2 0x120 DUP14 ADD PUSH3 0x3FC JUMP JUMPDEST PUSH2 0x140 DUP14 ADD MLOAD SWAP1 SWAP3 POP PUSH1 0x1 PUSH1 0x1 PUSH1 0x40 SHL SUB DUP2 GT ISZERO PUSH3 0x624 JUMPI PUSH1 0x0 DUP1 REVERT JUMPDEST PUSH3 0x632 DUP15 DUP3 DUP16 ADD PUSH3 0x462 JUMP JUMPDEST SWAP2 POP POP SWAP3 SWAP6 SWAP9 SWAP12 POP SWAP3 SWAP6 SWAP9 SWAP12 SWAP1 SWAP4 SWAP7 SWAP10 POP JUMP JUMPDEST PUSH1 0x0 DUP2 MLOAD DUP1 DUP5 MSTORE PUSH3 0x65F DUP2 PUSH1 0x20 DUP7 ADD PUSH1 0x20 DUP7 ADD PUSH3 0x42F JUMP JUMPDEST PUSH1 0x1F ADD PUSH1 0x1F NOT AND SWAP3 SWAP1 SWAP3 ADD PUSH1 0x20 ADD SWAP3 SWAP2 POP POP JUMP JUMPDEST PUSH1 0x1 PUSH1 0x1 PUSH1 0xA0 SHL SUB DUP10 DUP2 AND DUP3 MSTORE DUP9 DUP2 AND PUSH1 0x20 DUP4 ADD MSTORE DUP8 AND PUSH1 0x40 DUP3 ADD MSTORE PUSH1 0x60 DUP2 ADD DUP7 SWAP1 MSTORE PUSH2 0x100 PUSH1 0x80 DUP3 ADD DUP2 SWAP1 MSTORE PUSH1 0x0 SWAP1 PUSH3 0x6B1 DUP4 DUP3 ADD DUP9 PUSH3 0x645 JUMP JUMPDEST SWAP1 POP DUP3 DUP2 SUB PUSH1 0xA0 DUP5 ADD MSTORE PUSH3 0x6C7 DUP2 DUP8 PUSH3 0x645 JUMP JUMPDEST PUSH1 0xFF SWAP6 SWAP1 SWAP6 AND PUSH1 0xC0 DUP5 ADD MSTORE POP POP SWAP1 ISZERO ISZERO PUSH1 0xE0 SWAP1 SWAP2 ADD MSTORE SWAP7 SWAP6 POP POP POP POP POP POP JUMP JUMPDEST PUSH1 0x0 DUP3 MLOAD PUSH3 0x6FB DUP2 DUP5 PUSH1 0x20 DUP8 ADD PUSH3 0x42F JUMP JUMPDEST SWAP2 SWAP1 SWAP2 ADD SWAP3 SWAP2 POP POP JUMP JUMPDEST PUSH1 0x20 DUP2 MSTORE PUSH1 0x0 PUSH3 0x71A PUSH1 0x20 DUP4 ADD DUP5 PUSH3 0x645 JUMP JUMPDEST SWAP4 SWAP3 POP POP POP JUMP JUMPDEST PUSH1 0x80 MLOAD PUSH2 0x21DD PUSH3 0x744 PUSH1 0x0 CODECOPY PUSH1 0x0 DUP2 DUP2 PUSH2 0xA82 ADD MSTORE PUSH2 0x1C19 ADD MSTORE PUSH2 0x21DD PUSH1 0x0 RETURN INVALID PUSH1 0x80 PUSH1 0x40 MSTORE PUSH1 0x4 CALLDATASIZE LT PUSH2 0x3EF JUMPI PUSH1 0x0 CALLDATALOAD PUSH1 0xE0 SHR DUP1 PUSH4 0x70A08231 GT PUSH2 0x208 JUMPI DUP1 PUSH4 0xBC3B7A18 GT PUSH2 0x118 JUMPI DUP1 PUSH4 0xF3FDB15A GT PUSH2 0xAB JUMPI DUP1 PUSH4 0xFA6DB1BC GT PUSH2 0x7A JUMPI DUP1 PUSH4 0xFA6DB1BC EQ PUSH2 0xC9D JUMPI DUP1 PUSH4 0xFCA7820B EQ PUSH2 0xCBD JUMPI DUP1 PUSH4 0xFE9C44AE EQ PUSH2 0xCDD JUMPI DUP1 PUSH4 0xFF503ED2 EQ PUSH2 0xCF2 JUMPI DUP1 PUSH4 0xFF5B0CB4 EQ PUSH2 0xD12 JUMPI PUSH2 0x3EF JUMP JUMPDEST DUP1 PUSH4 0xF3FDB15A EQ PUSH2 0xC23 JUMPI DUP1 PUSH4 0xF5E3C462 EQ PUSH2 0xC43 JUMPI DUP1 PUSH4 0xF851A440 EQ PUSH2 0xC63 JUMPI DUP1 PUSH4 0xF8F9DA28 EQ PUSH2 0xC88 JUMPI PUSH2 0x3EF JUMP JUMPDEST DUP1 PUSH4 0xDB006A75 GT PUSH2 0xE7 JUMPI DUP1 PUSH4 0xDB006A75 EQ PUSH2 0xBAE JUMPI DUP1 PUSH4 0xDD62ED3E EQ PUSH2 0xBCE JUMPI DUP1 PUSH4 0xE9C714F2 EQ PUSH2 0xBEE JUMPI DUP1 PUSH4 0xF2B3ABBD EQ PUSH2 0xC03 JUMPI PUSH2 0x3EF JUMP JUMPDEST DUP1 PUSH4 0xBC3B7A18 EQ PUSH2 0xB19 JUMPI DUP1 PUSH4 0xBD6D894D EQ PUSH2 0xB39 JUMPI DUP1 PUSH4 0xC37F68E2 EQ PUSH2 0xB4E JUMPI DUP1 PUSH4 0xC5EBEAEC EQ PUSH2 0xB8E JUMPI PUSH2 0x3EF JUMP JUMPDEST DUP1 PUSH4 0xA0712D68 GT PUSH2 0x19B JUMPI DUP1 PUSH4 0xAD5C4648 GT PUSH2 0x16A JUMPI DUP1 PUSH4 0xAD5C4648 EQ PUSH2 0xA70 JUMPI DUP1 PUSH4 0xAE9D70B0 EQ PUSH2 0xAA4 JUMPI DUP1 PUSH4 0xB2A02FF1 EQ PUSH2 0xAB9 JUMPI DUP1 PUSH4 0xB71D1A0C EQ PUSH2 0xAD9 JUMPI DUP1 PUSH4 0xBAE49E99 EQ PUSH2 0xAF9 JUMPI PUSH2 0x3EF JUMP JUMPDEST DUP1 PUSH4 0xA0712D68 EQ PUSH2 0xA05 JUMPI DUP1 PUSH4 0xA6AFED95 EQ PUSH2 0xA25 JUMPI DUP1 PUSH4 0xA9059CBB EQ PUSH2 0xA3A JUMPI DUP1 PUSH4 0xAA5AF0FD EQ PUSH2 0xA5A JUMPI PUSH2 0x3EF JUMP JUMPDEST DUP1 PUSH4 0x8F840DDD GT PUSH2 0x1D7 JUMPI DUP1 PUSH4 0x8F840DDD EQ PUSH2 0x99A JUMPI DUP1 PUSH4 0x95D89B41 EQ PUSH2 0x9B0 JUMPI DUP1 PUSH4 0x95DD9193 EQ PUSH2 0x9C5 JUMPI DUP1 PUSH4 0x9B5B9B18 EQ PUSH2 0x9E5 JUMPI PUSH2 0x3EF JUMP JUMPDEST DUP1 PUSH4 0x70A08231 EQ PUSH2 0x926 JUMPI DUP1 PUSH4 0x73ACEE98 EQ PUSH2 0x946 JUMPI DUP1 PUSH4 0x842E11EB EQ PUSH2 0x95B JUMPI DUP1 PUSH4 0x852A12E3 EQ PUSH2 0x97A JUMPI PUSH2 0x3EF JUMP JUMPDEST DUP1 PUSH4 0x3AF9E669 GT PUSH2 0x303 JUMPI DUP1 PUSH4 0x5B30CF55 GT PUSH2 0x296 JUMPI DUP1 PUSH4 0x6088E93A GT PUSH2 0x265 JUMPI DUP1 PUSH4 0x6088E93A EQ PUSH2 0x88E JUMPI DUP1 PUSH4 0x6752E702 EQ PUSH2 0x8AE JUMPI DUP1 PUSH4 0x68672231 EQ PUSH2 0x8C9 JUMPI DUP1 PUSH4 0x6C540BAF EQ PUSH2 0x8F0 JUMPI DUP1 PUSH4 0x6F307DC3 EQ PUSH2 0x906 JUMPI PUSH2 0x3EF JUMP JUMPDEST DUP1 PUSH4 0x5B30CF55 EQ PUSH2 0x80E JUMPI DUP1 PUSH4 0x5C60DA1B EQ PUSH2 0x82E JUMPI DUP1 PUSH4 0x5FE3B567 EQ PUSH2 0x84E JUMPI DUP1 PUSH4 0x601A0BF1 EQ PUSH2 0x86E JUMPI PUSH2 0x3EF JUMP JUMPDEST DUP1 PUSH4 0x4555D5C9 GT PUSH2 0x2D2 JUMPI DUP1 PUSH4 0x4555D5C9 EQ PUSH2 0x7A4 JUMPI DUP1 PUSH4 0x4576B5DB EQ PUSH2 0x7B8 JUMPI DUP1 PUSH4 0x47BD3718 EQ PUSH2 0x7D8 JUMPI DUP1 PUSH4 0x555BCC40 EQ PUSH2 0x7EE JUMPI PUSH2 0x3EF JUMP JUMPDEST DUP1 PUSH4 0x3AF9E669 EQ PUSH2 0x72F JUMPI DUP1 PUSH4 0x3B1D21A2 EQ PUSH2 0x74F JUMPI DUP1 PUSH4 0x3E941010 EQ PUSH2 0x764 JUMPI DUP1 PUSH4 0x4487152F EQ PUSH2 0x784 JUMPI PUSH2 0x3EF JUMP JUMPDEST DUP1 PUSH4 0x18160DDD GT PUSH2 0x386 JUMPI DUP1 PUSH4 0x2608F818 GT PUSH2 0x355 JUMPI DUP1 PUSH4 0x2608F818 EQ PUSH2 0x683 JUMPI DUP1 PUSH4 0x26782247 EQ PUSH2 0x6A3 JUMPI DUP1 PUSH4 0x26D9687C EQ PUSH2 0x6C3 JUMPI DUP1 PUSH4 0x313CE567 EQ PUSH2 0x6E3 JUMPI DUP1 PUSH4 0x36818B01 EQ PUSH2 0x70F JUMPI PUSH2 0x3EF JUMP JUMPDEST DUP1 PUSH4 0x18160DDD EQ PUSH2 0x616 JUMPI DUP1 PUSH4 0x182DF0F5 EQ PUSH2 0x62C JUMPI DUP1 PUSH4 0x1BE19560 EQ PUSH2 0x641 JUMPI DUP1 PUSH4 0x23B872DD EQ PUSH2 0x663 JUMPI PUSH2 0x3EF JUMP JUMPDEST DUP1 PUSH4 0xCE4018A GT PUSH2 0x3C2 JUMPI DUP1 PUSH4 0xCE4018A EQ PUSH2 0x592 JUMPI DUP1 PUSH4 0xE752702 EQ PUSH2 0x5B2 JUMPI DUP1 PUSH4 0x173B9904 EQ PUSH2 0x5E0 JUMPI DUP1 PUSH4 0x17BFDFBC EQ PUSH2 0x5F6 JUMPI PUSH2 0x3EF JUMP JUMPDEST DUP1 PUSH4 0x6DD74E5 EQ PUSH2 0x4E3 JUMPI DUP1 PUSH4 0x6FDDE03 EQ PUSH2 0x520 JUMPI DUP1 PUSH4 0x933C1ED EQ PUSH2 0x542 JUMPI DUP1 PUSH4 0x95EA7B3 EQ PUSH2 0x562 JUMPI JUMPDEST CALLVALUE ISZERO PUSH2 0x468 JUMPI PUSH1 0x40 MLOAD PUSH3 0x461BCD PUSH1 0xE5 SHL DUP2 MSTORE PUSH1 0x20 PUSH1 0x4 DUP3 ADD MSTORE PUSH1 0x37 PUSH1 0x24 DUP3 ADD MSTORE PUSH32 0x43457263323044656C656761746F723A66616C6C6261636B3A2063616E6E6F74 PUSH1 0x44 DUP3 ADD MSTORE PUSH32 0x2073656E642076616C756520746F2066616C6C6261636B000000000000000000 PUSH1 0x64 DUP3 ADD MSTORE PUSH1 0x84 ADD JUMPDEST PUSH1 0x40 MLOAD DUP1 SWAP2 SUB SWAP1 REVERT JUMPDEST PUSH1 0x17 SLOAD PUSH1 0x40 MLOAD PUSH1 0x0 SWAP2 PUSH1 0x1 PUSH1 0x1 PUSH1 0xA0 SHL SUB AND SWAP1 PUSH2 0x488 SWAP1 DUP4 SWAP1 CALLDATASIZE SWAP1 PUSH2 0x1CFD JUMP JUMPDEST PUSH1 0x0 PUSH1 0x40 MLOAD DUP1 DUP4 SUB DUP2 DUP6 GAS DELEGATECALL SWAP2 POP POP RETURNDATASIZE DUP1 PUSH1 0x0 DUP2 EQ PUSH2 0x4C3 JUMPI PUSH1 0x40 MLOAD SWAP2 POP PUSH1 0x1F NOT PUSH1 0x3F RETURNDATASIZE ADD AND DUP3 ADD PUSH1 0x40 MSTORE RETURNDATASIZE DUP3 MSTORE RETURNDATASIZE PUSH1 0x0 PUSH1 0x20 DUP5 ADD RETURNDATACOPY PUSH2 0x4C8 JUMP JUMPDEST PUSH1 0x60 SWAP2 POP JUMPDEST POP POP SWAP1 POP PUSH1 0x40 MLOAD RETURNDATASIZE PUSH1 0x0 DUP3 RETURNDATACOPY DUP2 DUP1 ISZERO PUSH2 0x4DF JUMPI RETURNDATASIZE DUP3 RETURN JUMPDEST RETURNDATASIZE DUP3 REVERT JUMPDEST CALLVALUE DUP1 ISZERO PUSH2 0x4EF JUMPI PUSH1 0x0 DUP1 REVERT JUMPDEST POP PUSH1 0x4 SLOAD PUSH2 0x503 SWAP1 PUSH1 0x1 PUSH1 0x1 PUSH1 0xA0 SHL SUB AND DUP2 JUMP JUMPDEST PUSH1 0x40 MLOAD PUSH1 0x1 PUSH1 0x1 PUSH1 0xA0 SHL SUB SWAP1 SWAP2 AND DUP2 MSTORE PUSH1 0x20 ADD JUMPDEST PUSH1 0x40 MLOAD DUP1 SWAP2 SUB SWAP1 RETURN JUMPDEST CALLVALUE DUP1 ISZERO PUSH2 0x52C JUMPI PUSH1 0x0 DUP1 REVERT JUMPDEST POP PUSH2 0x535 PUSH2 0xD27 JUMP JUMPDEST PUSH1 0x40 MLOAD PUSH2 0x517 SWAP2 SWAP1 PUSH2 0x1D69 JUMP JUMPDEST CALLVALUE DUP1 ISZERO PUSH2 0x54E JUMPI PUSH1 0x0 DUP1 REVERT JUMPDEST POP PUSH2 0x535 PUSH2 0x55D CALLDATASIZE PUSH1 0x4 PUSH2 0x1E41 JUMP JUMPDEST PUSH2 0xDB5 JUMP JUMPDEST CALLVALUE DUP1 ISZERO PUSH2 0x56E JUMPI PUSH1 0x0 DUP1 REVERT JUMPDEST POP PUSH2 0x582 PUSH2 0x57D CALLDATASIZE PUSH1 0x4 PUSH2 0x1E8B JUMP JUMPDEST PUSH2 0xDD4 JUMP JUMPDEST PUSH1 0x40 MLOAD SWAP1 ISZERO ISZERO DUP2 MSTORE PUSH1 0x20 ADD PUSH2 0x517 JUMP JUMPDEST CALLVALUE DUP1 ISZERO PUSH2 0x59E JUMPI PUSH1 0x0 DUP1 REVERT JUMPDEST POP PUSH1 0x3 SLOAD PUSH2 0x503 SWAP1 PUSH1 0x1 PUSH1 0x1 PUSH1 0xA0 SHL SUB AND DUP2 JUMP JUMPDEST CALLVALUE DUP1 ISZERO PUSH2 0x5BE JUMPI PUSH1 0x0 DUP1 REVERT JUMPDEST POP PUSH2 0x5D2 PUSH2 0x5CD CALLDATASIZE PUSH1 0x4 PUSH2 0x1EB7 JUMP JUMPDEST PUSH2 0xE46 JUMP JUMPDEST PUSH1 0x40 MLOAD SWAP1 DUP2 MSTORE PUSH1 0x20 ADD PUSH2 0x517 JUMP JUMPDEST CALLVALUE DUP1 ISZERO PUSH2 0x5EC JUMPI PUSH1 0x0 DUP1 REVERT JUMPDEST POP PUSH2 0x5D2 PUSH1 0xD SLOAD DUP2 JUMP JUMPDEST CALLVALUE DUP1 ISZERO PUSH2 0x602 JUMPI PUSH1 0x0 DUP1 REVERT JUMPDEST POP PUSH2 0x5D2 PUSH2 0x611 CALLDATASIZE PUSH1 0x4 PUSH2 0x1ED0 JUMP JUMPDEST PUSH2 0xEAB JUMP JUMPDEST CALLVALUE DUP1 ISZERO PUSH2 0x622 JUMPI PUSH1 0x0 DUP1 REVERT JUMPDEST POP PUSH2 0x5D2 PUSH1 0x12 SLOAD DUP2 JUMP JUMPDEST CALLVALUE DUP1 ISZERO PUSH2 0x638 JUMPI PUSH1 0x0 DUP1 REVERT JUMPDEST POP PUSH2 0x5D2 PUSH2 0xEF8 JUMP JUMPDEST CALLVALUE DUP1 ISZERO PUSH2 0x64D JUMPI PUSH1 0x0 DUP1 REVERT JUMPDEST POP PUSH2 0x661 PUSH2 0x65C CALLDATASIZE PUSH1 0x4 PUSH2 0x1ED0 JUMP JUMPDEST PUSH2 0xF4B JUMP JUMPDEST STOP JUMPDEST CALLVALUE DUP1 ISZERO PUSH2 0x66F JUMPI PUSH1 0x0 DUP1 REVERT JUMPDEST POP PUSH2 0x582 PUSH2 0x67E CALLDATASIZE PUSH1 0x4 PUSH2 0x1EED JUMP JUMPDEST PUSH2 0xF96 JUMP JUMPDEST CALLVALUE DUP1 ISZERO PUSH2 0x68F JUMPI PUSH1 0x0 DUP1 REVERT JUMPDEST POP PUSH2 0x5D2 PUSH2 0x69E CALLDATASIZE PUSH1 0x4 PUSH2 0x1E8B JUMP JUMPDEST PUSH2 0x1011 JUMP JUMPDEST CALLVALUE DUP1 ISZERO PUSH2 0x6AF JUMPI PUSH1 0x0 DUP1 REVERT JUMPDEST POP PUSH1 0x9 SLOAD PUSH2 0x503 SWAP1 PUSH1 0x1 PUSH1 0x1 PUSH1 0xA0 SHL SUB AND DUP2 JUMP JUMPDEST CALLVALUE DUP1 ISZERO PUSH2 0x6CF JUMPI PUSH1 0x0 DUP1 REVERT JUMPDEST POP PUSH1 0x0 SLOAD PUSH2 0x582 SWAP1 PUSH3 0x10000 SWAP1 DIV PUSH1 0xFF AND DUP2 JUMP JUMPDEST CALLVALUE DUP1 ISZERO PUSH2 0x6EF JUMPI PUSH1 0x0 DUP1 REVERT JUMPDEST POP PUSH1 0x8 SLOAD PUSH2 0x6FD SWAP1 PUSH1 0xFF AND DUP2 JUMP JUMPDEST PUSH1 0x40 MLOAD PUSH1 0xFF SWAP1 SWAP2 AND DUP2 MSTORE PUSH1 0x20 ADD PUSH2 0x517 JUMP JUMPDEST CALLVALUE DUP1 ISZERO PUSH2 0x71B JUMPI PUSH1 0x0 DUP1 REVERT JUMPDEST POP PUSH2 0x5D2 PUSH2 0x72A CALLDATASIZE PUSH1 0x4 PUSH2 0x1ED0 JUMP JUMPDEST PUSH2 0x107B JUMP JUMPDEST CALLVALUE DUP1 ISZERO PUSH2 0x73B JUMPI PUSH1 0x0 DUP1 REVERT JUMPDEST POP PUSH2 0x5D2 PUSH2 0x74A CALLDATASIZE PUSH1 0x4 PUSH2 0x1ED0 JUMP JUMPDEST PUSH2 0x10C8 JUMP JUMPDEST CALLVALUE DUP1 ISZERO PUSH2 0x75B JUMPI PUSH1 0x0 DUP1 REVERT JUMPDEST POP PUSH2 0x5D2 PUSH2 0x1115 JUMP JUMPDEST CALLVALUE DUP1 ISZERO PUSH2 0x770 JUMPI PUSH1 0x0 DUP1 REVERT JUMPDEST POP PUSH2 0x5D2 PUSH2 0x77F CALLDATASIZE PUSH1 0x4 PUSH2 0x1EB7 JUMP JUMPDEST PUSH2 0x114C JUMP JUMPDEST CALLVALUE DUP1 ISZERO PUSH2 0x790 JUMPI PUSH1 0x0 DUP1 REVERT JUMPDEST POP PUSH2 0x535 PUSH2 0x79F CALLDATASIZE PUSH1 0x4 PUSH2 0x1E41 JUMP JUMPDEST PUSH2 0x1194 JUMP JUMPDEST CALLVALUE DUP1 ISZERO PUSH2 0x7B0 JUMPI PUSH1 0x0 DUP1 REVERT JUMPDEST POP PUSH1 0x2 PUSH2 0x5D2 JUMP JUMPDEST CALLVALUE DUP1 ISZERO PUSH2 0x7C4 JUMPI PUSH1 0x0 DUP1 REVERT JUMPDEST POP PUSH2 0x5D2 PUSH2 0x7D3 CALLDATASIZE PUSH1 0x4 PUSH2 0x1ED0 JUMP JUMPDEST PUSH2 0x1252 JUMP JUMPDEST CALLVALUE DUP1 ISZERO PUSH2 0x7E4 JUMPI PUSH1 0x0 DUP1 REVERT JUMPDEST POP PUSH2 0x5D2 PUSH1 0x10 SLOAD DUP2 JUMP JUMPDEST CALLVALUE DUP1 ISZERO PUSH2 0x7FA JUMPI PUSH1 0x0 DUP1 REVERT JUMPDEST POP PUSH2 0x661 PUSH2 0x809 CALLDATASIZE PUSH1 0x4 PUSH2 0x1F3C JUMP JUMPDEST PUSH2 0x129F JUMP JUMPDEST CALLVALUE DUP1 ISZERO PUSH2 0x81A JUMPI PUSH1 0x0 DUP1 REVERT JUMPDEST POP PUSH1 0x1 SLOAD PUSH2 0x503 SWAP1 PUSH1 0x1 PUSH1 0x1 PUSH1 0xA0 SHL SUB AND DUP2 JUMP JUMPDEST CALLVALUE DUP1 ISZERO PUSH2 0x83A JUMPI PUSH1 0x0 DUP1 REVERT JUMPDEST POP PUSH1 0x17 SLOAD PUSH2 0x503 SWAP1 PUSH1 0x1 PUSH1 0x1 PUSH1 0xA0 SHL SUB AND DUP2 JUMP JUMPDEST CALLVALUE DUP1 ISZERO PUSH2 0x85A JUMPI PUSH1 0x0 DUP1 REVERT JUMPDEST POP PUSH1 0xA SLOAD PUSH2 0x503 SWAP1 PUSH1 0x1 PUSH1 0x1 PUSH1 0xA0 SHL SUB AND DUP2 JUMP JUMPDEST CALLVALUE DUP1 ISZERO PUSH2 0x87A JUMPI PUSH1 0x0 DUP1 REVERT JUMPDEST POP PUSH2 0x5D2 PUSH2 0x889 CALLDATASIZE PUSH1 0x4 PUSH2 0x1EB7 JUMP JUMPDEST PUSH2 0x1411 JUMP JUMPDEST CALLVALUE DUP1 ISZERO PUSH2 0x89A JUMPI PUSH1 0x0 DUP1 REVERT JUMPDEST POP PUSH2 0x661 PUSH2 0x8A9 CALLDATASIZE PUSH1 0x4 PUSH2 0x1E8B JUMP JUMPDEST PUSH2 0x1459 JUMP JUMPDEST CALLVALUE DUP1 ISZERO PUSH2 0x8BA JUMPI PUSH1 0x0 DUP1 REVERT JUMPDEST POP PUSH2 0x5D2 PUSH7 0x6379DA05B60000 DUP2 JUMP JUMPDEST CALLVALUE DUP1 ISZERO PUSH2 0x8D5 JUMPI PUSH1 0x0 DUP1 REVERT JUMPDEST POP PUSH1 0x0 SLOAD PUSH2 0x503 SWAP1 PUSH4 0x1000000 SWAP1 DIV PUSH1 0x1 PUSH1 0x1 PUSH1 0xA0 SHL SUB AND DUP2 JUMP JUMPDEST CALLVALUE DUP1 ISZERO PUSH2 0x8FC JUMPI PUSH1 0x0 DUP1 REVERT JUMPDEST POP PUSH2 0x5D2 PUSH1 0xE SLOAD DUP2 JUMP JUMPDEST CALLVALUE DUP1 ISZERO PUSH2 0x912 JUMPI PUSH1 0x0 DUP1 REVERT JUMPDEST POP PUSH1 0x16 SLOAD PUSH2 0x503 SWAP1 PUSH1 0x1 PUSH1 0x1 PUSH1 0xA0 SHL SUB AND DUP2 JUMP JUMPDEST CALLVALUE DUP1 ISZERO PUSH2 0x932 JUMPI PUSH1 0x0 DUP1 REVERT JUMPDEST POP PUSH2 0x5D2 PUSH2 0x941 CALLDATASIZE PUSH1 0x4 PUSH2 0x1ED0 JUMP JUMPDEST PUSH2 0x14AD JUMP JUMPDEST CALLVALUE DUP1 ISZERO PUSH2 0x952 JUMPI PUSH1 0x0 DUP1 REVERT JUMPDEST POP PUSH2 0x5D2 PUSH2 0x14FA JUMP JUMPDEST CALLVALUE DUP1 ISZERO PUSH2 0x967 JUMPI PUSH1 0x0 DUP1 REVERT JUMPDEST POP PUSH1 0x0 SLOAD PUSH2 0x582 SWAP1 PUSH2 0x100 SWAP1 DIV PUSH1 0xFF AND DUP2 JUMP JUMPDEST CALLVALUE DUP1 ISZERO PUSH2 0x986 JUMPI PUSH1 0x0 DUP1 REVERT JUMPDEST POP PUSH2 0x5D2 PUSH2 0x995 CALLDATASIZE PUSH1 0x4 PUSH2 0x1EB7 JUMP JUMPDEST PUSH2 0x1531 JUMP JUMPDEST CALLVALUE DUP1 ISZERO PUSH2 0x9A6 JUMPI PUSH1 0x0 DUP1 REVERT JUMPDEST POP PUSH2 0x5D2 PUSH1 0x11 SLOAD DUP2 JUMP JUMPDEST CALLVALUE DUP1 ISZERO PUSH2 0x9BC JUMPI PUSH1 0x0 DUP1 REVERT JUMPDEST POP PUSH2 0x535 PUSH2 0x1579 JUMP JUMPDEST CALLVALUE DUP1 ISZERO PUSH2 0x9D1 JUMPI PUSH1 0x0 DUP1 REVERT JUMPDEST POP PUSH2 0x5D2 PUSH2 0x9E0 CALLDATASIZE PUSH1 0x4 PUSH2 0x1ED0 JUMP JUMPDEST PUSH2 0x1586 JUMP JUMPDEST CALLVALUE DUP1 ISZERO PUSH2 0x9F1 JUMPI PUSH1 0x0 DUP1 REVERT JUMPDEST POP PUSH2 0x661 PUSH2 0xA00 CALLDATASIZE PUSH1 0x4 PUSH2 0x1E8B JUMP JUMPDEST PUSH2 0x15D3 JUMP JUMPDEST CALLVALUE DUP1 ISZERO PUSH2 0xA11 JUMPI PUSH1 0x0 DUP1 REVERT JUMPDEST POP PUSH2 0x5D2 PUSH2 0xA20 CALLDATASIZE PUSH1 0x4 PUSH2 0x1EB7 JUMP JUMPDEST PUSH2 0x1622 JUMP JUMPDEST CALLVALUE DUP1 ISZERO PUSH2 0xA31 JUMPI PUSH1 0x0 DUP1 REVERT JUMPDEST POP PUSH2 0x5D2 PUSH2 0x166A JUMP JUMPDEST CALLVALUE DUP1 ISZERO PUSH2 0xA46 JUMPI PUSH1 0x0 DUP1 REVERT JUMPDEST POP PUSH2 0x582 PUSH2 0xA55 CALLDATASIZE PUSH1 0x4 PUSH2 0x1E8B JUMP JUMPDEST PUSH2 0x16A1 JUMP JUMPDEST CALLVALUE DUP1 ISZERO PUSH2 0xA66 JUMPI PUSH1 0x0 DUP1 REVERT JUMPDEST POP PUSH2 0x5D2 PUSH1 0xF SLOAD DUP2 JUMP JUMPDEST CALLVALUE DUP1 ISZERO PUSH2 0xA7C JUMPI PUSH1 0x0 DUP1 REVERT JUMPDEST POP PUSH2 0x503 PUSH32 0x0 DUP2 JUMP JUMPDEST CALLVALUE DUP1 ISZERO PUSH2 0xAB0 JUMPI PUSH1 0x0 DUP1 REVERT JUMPDEST POP PUSH2 0x5D2 PUSH2 0x16F5 JUMP JUMPDEST CALLVALUE DUP1 ISZERO PUSH2 0xAC5 JUMPI PUSH1 0x0 DUP1 REVERT JUMPDEST POP PUSH2 0x5D2 PUSH2 0xAD4 CALLDATASIZE PUSH1 0x4 PUSH2 0x1EED JUMP JUMPDEST PUSH2 0x172C JUMP JUMPDEST CALLVALUE DUP1 ISZERO PUSH2 0xAE5 JUMPI PUSH1 0x0 DUP1 REVERT JUMPDEST POP PUSH2 0x5D2 PUSH2 0xAF4 CALLDATASIZE PUSH1 0x4 PUSH2 0x1ED0 JUMP JUMPDEST PUSH2 0x179E JUMP JUMPDEST CALLVALUE DUP1 ISZERO PUSH2 0xB05 JUMPI PUSH1 0x0 DUP1 REVERT JUMPDEST POP PUSH1 0x2 SLOAD PUSH2 0x503 SWAP1 PUSH1 0x1 PUSH1 0x1 PUSH1 0xA0 SHL SUB AND DUP2 JUMP JUMPDEST CALLVALUE DUP1 ISZERO PUSH2 0xB25 JUMPI PUSH1 0x0 DUP1 REVERT JUMPDEST POP PUSH2 0x5D2 PUSH2 0xB34 CALLDATASIZE PUSH1 0x4 PUSH2 0x1F9E JUMP JUMPDEST PUSH2 0x17EB JUMP JUMPDEST CALLVALUE DUP1 ISZERO PUSH2 0xB45 JUMPI PUSH1 0x0 DUP1 REVERT JUMPDEST POP PUSH2 0x5D2 PUSH2 0x1835 JUMP JUMPDEST CALLVALUE DUP1 ISZERO PUSH2 0xB5A JUMPI PUSH1 0x0 DUP1 REVERT JUMPDEST POP PUSH2 0xB6E PUSH2 0xB69 CALLDATASIZE PUSH1 0x4 PUSH2 0x1ED0 JUMP JUMPDEST PUSH2 0x186C JUMP JUMPDEST PUSH1 0x40 DUP1 MLOAD SWAP5 DUP6 MSTORE PUSH1 0x20 DUP6 ADD SWAP4 SWAP1 SWAP4 MSTORE SWAP2 DUP4 ADD MSTORE PUSH1 0x60 DUP3 ADD MSTORE PUSH1 0x80 ADD PUSH2 0x517 JUMP JUMPDEST CALLVALUE DUP1 ISZERO PUSH2 0xB9A JUMPI PUSH1 0x0 DUP1 REVERT JUMPDEST POP PUSH2 0x5D2 PUSH2 0xBA9 CALLDATASIZE PUSH1 0x4 PUSH2 0x1EB7 JUMP JUMPDEST PUSH2 0x18EC JUMP JUMPDEST CALLVALUE DUP1 ISZERO PUSH2 0xBBA JUMPI PUSH1 0x0 DUP1 REVERT JUMPDEST POP PUSH2 0x5D2 PUSH2 0xBC9 CALLDATASIZE PUSH1 0x4 PUSH2 0x1EB7 JUMP JUMPDEST PUSH2 0x1934 JUMP JUMPDEST CALLVALUE DUP1 ISZERO PUSH2 0xBDA JUMPI PUSH1 0x0 DUP1 REVERT JUMPDEST POP PUSH2 0x5D2 PUSH2 0xBE9 CALLDATASIZE PUSH1 0x4 PUSH2 0x1FBB JUMP JUMPDEST PUSH2 0x197C JUMP JUMPDEST CALLVALUE DUP1 ISZERO PUSH2 0xBFA JUMPI PUSH1 0x0 DUP1 REVERT JUMPDEST POP PUSH2 0x5D2 PUSH2 0x19D1 JUMP JUMPDEST CALLVALUE DUP1 ISZERO PUSH2 0xC0F JUMPI PUSH1 0x0 DUP1 REVERT JUMPDEST POP PUSH2 0x5D2 PUSH2 0xC1E CALLDATASIZE PUSH1 0x4 PUSH2 0x1ED0 JUMP JUMPDEST PUSH2 0x1A08 JUMP JUMPDEST CALLVALUE DUP1 ISZERO PUSH2 0xC2F JUMPI PUSH1 0x0 DUP1 REVERT JUMPDEST POP PUSH1 0xB SLOAD PUSH2 0x503 SWAP1 PUSH1 0x1 PUSH1 0x1 PUSH1 0xA0 SHL SUB AND DUP2 JUMP JUMPDEST CALLVALUE DUP1 ISZERO PUSH2 0xC4F JUMPI PUSH1 0x0 DUP1 REVERT JUMPDEST POP PUSH2 0x5D2 PUSH2 0xC5E CALLDATASIZE PUSH1 0x4 PUSH2 0x1FF4 JUMP JUMPDEST PUSH2 0x1A55 JUMP JUMPDEST CALLVALUE DUP1 ISZERO PUSH2 0xC6F JUMPI PUSH1 0x0 DUP1 REVERT JUMPDEST POP PUSH1 0x8 SLOAD PUSH2 0x503 SWAP1 PUSH2 0x100 SWAP1 DIV PUSH1 0x1 PUSH1 0x1 PUSH1 0xA0 SHL SUB AND DUP2 JUMP JUMPDEST CALLVALUE DUP1 ISZERO PUSH2 0xC94 JUMPI PUSH1 0x0 DUP1 REVERT JUMPDEST POP PUSH2 0x5D2 PUSH2 0x1AB1 JUMP JUMPDEST CALLVALUE DUP1 ISZERO PUSH2 0xCA9 JUMPI PUSH1 0x0 DUP1 REVERT JUMPDEST POP PUSH1 0x5 SLOAD PUSH2 0x503 SWAP1 PUSH1 0x1 PUSH1 0x1 PUSH1 0xA0 SHL SUB AND DUP2 JUMP JUMPDEST CALLVALUE DUP1 ISZERO PUSH2 0xCC9 JUMPI PUSH1 0x0 DUP1 REVERT JUMPDEST POP PUSH2 0x5D2 PUSH2 0xCD8 CALLDATASIZE PUSH1 0x4 PUSH2 0x1EB7 JUMP JUMPDEST PUSH2 0x1AE8 JUMP JUMPDEST CALLVALUE DUP1 ISZERO PUSH2 0xCE9 JUMPI PUSH1 0x0 DUP1 REVERT JUMPDEST POP PUSH2 0x582 PUSH1 0x1 DUP2 JUMP JUMPDEST CALLVALUE DUP1 ISZERO PUSH2 0xCFE JUMPI PUSH1 0x0 DUP1 REVERT JUMPDEST POP PUSH2 0x5D2 PUSH2 0xD0D CALLDATASIZE PUSH1 0x4 PUSH2 0x2036 JUMP JUMPDEST PUSH2 0x1B30 JUMP JUMPDEST CALLVALUE DUP1 ISZERO PUSH2 0xD1E JUMPI PUSH1 0x0 DUP1 REVERT JUMPDEST POP PUSH2 0x661 PUSH2 0x1B90 JUMP JUMPDEST PUSH1 0x6 DUP1 SLOAD PUSH2 0xD34 SWAP1 PUSH2 0x2076 JUMP JUMPDEST DUP1 PUSH1 0x1F ADD PUSH1 0x20 DUP1 SWAP2 DIV MUL PUSH1 0x20 ADD PUSH1 0x40 MLOAD SWAP1 DUP2 ADD PUSH1 0x40 MSTORE DUP1 SWAP3 SWAP2 SWAP1 DUP2 DUP2 MSTORE PUSH1 0x20 ADD DUP3 DUP1 SLOAD PUSH2 0xD60 SWAP1 PUSH2 0x2076 JUMP JUMPDEST DUP1 ISZERO PUSH2 0xDAD JUMPI DUP1 PUSH1 0x1F LT PUSH2 0xD82 JUMPI PUSH2 0x100 DUP1 DUP4 SLOAD DIV MUL DUP4 MSTORE SWAP2 PUSH1 0x20 ADD SWAP2 PUSH2 0xDAD JUMP JUMPDEST DUP3 ADD SWAP2 SWAP1 PUSH1 0x0 MSTORE PUSH1 0x20 PUSH1 0x0 KECCAK256 SWAP1 JUMPDEST DUP2 SLOAD DUP2 MSTORE SWAP1 PUSH1 0x1 ADD SWAP1 PUSH1 0x20 ADD DUP1 DUP4 GT PUSH2 0xD90 JUMPI DUP3 SWAP1 SUB PUSH1 0x1F AND DUP3 ADD SWAP2 JUMPDEST POP POP POP POP POP DUP2 JUMP JUMPDEST PUSH1 0x17 SLOAD PUSH1 0x60 SWAP1 PUSH2 0xDCE SWAP1 PUSH1 0x1 PUSH1 0x1 PUSH1 0xA0 SHL SUB AND DUP4 PUSH2 0x1C8B JUMP JUMPDEST SWAP3 SWAP2 POP POP JUMP JUMPDEST PUSH1 0x40 MLOAD PUSH1 0x1 PUSH1 0x1 PUSH1 0xA0 SHL SUB DUP4 AND PUSH1 0x24 DUP3 ADD MSTORE PUSH1 0x44 DUP2 ADD DUP3 SWAP1 MSTORE PUSH1 0x0 SWAP1 DUP2 SWAP1 PUSH2 0xE28 SWAP1 PUSH1 0x64 ADD PUSH1 0x40 DUP1 MLOAD PUSH1 0x1F NOT DUP2 DUP5 SUB ADD DUP2 MSTORE SWAP2 SWAP1 MSTORE PUSH1 0x20 DUP2 ADD DUP1 MLOAD PUSH1 0x1 PUSH1 0x1 PUSH1 0xE0 SHL SUB AND PUSH4 0x95EA7B3 PUSH1 0xE0 SHL OR SWAP1 MSTORE PUSH2 0xDB5 JUMP JUMPDEST SWAP1 POP DUP1 DUP1 PUSH1 0x20 ADD SWAP1 MLOAD DUP2 ADD SWAP1 PUSH2 0xE3E SWAP2 SWAP1 PUSH2 0x20B1 JUMP JUMPDEST SWAP5 SWAP4 POP POP POP POP JUMP JUMPDEST PUSH1 0x0 DUP1 PUSH2 0xE8E DUP4 PUSH1 0x40 MLOAD PUSH1 0x24 ADD PUSH2 0xE5F SWAP2 DUP2 MSTORE PUSH1 0x20 ADD SWAP1 JUMP JUMPDEST PUSH1 0x40 DUP1 MLOAD PUSH1 0x1F NOT DUP2 DUP5 SUB ADD DUP2 MSTORE SWAP2 SWAP1 MSTORE PUSH1 0x20 DUP2 ADD DUP1 MLOAD PUSH1 0x1 PUSH1 0x1 PUSH1 0xE0 SHL SUB AND PUSH4 0x73A9381 PUSH1 0xE1 SHL OR SWAP1 MSTORE PUSH2 0xDB5 JUMP JUMPDEST SWAP1 POP DUP1 DUP1 PUSH1 0x20 ADD SWAP1 MLOAD DUP2 ADD SWAP1 PUSH2 0xEA4 SWAP2 SWAP1 PUSH2 0x20CE JUMP JUMPDEST SWAP4 SWAP3 POP POP POP JUMP JUMPDEST PUSH1 0x40 MLOAD PUSH1 0x1 PUSH1 0x1 PUSH1 0xA0 SHL SUB DUP3 AND PUSH1 0x24 DUP3 ADD MSTORE PUSH1 0x0 SWAP1 DUP2 SWAP1 PUSH2 0xE8E SWAP1 PUSH1 0x44 ADD PUSH1 0x40 DUP1 MLOAD PUSH1 0x1F NOT DUP2 DUP5 SUB ADD DUP2 MSTORE SWAP2 SWAP1 MSTORE PUSH1 0x20 DUP2 ADD DUP1 MLOAD PUSH1 0x1 PUSH1 0x1 PUSH1 0xE0 SHL SUB AND PUSH4 0x5EFF7EF PUSH1 0xE2 SHL OR SWAP1 MSTORE PUSH2 0xDB5 JUMP JUMPDEST PUSH1 0x40 DUP1 MLOAD PUSH1 0x4 DUP2 MSTORE PUSH1 0x24 DUP2 ADD SWAP1 SWAP2 MSTORE PUSH1 0x20 DUP2 ADD DUP1 MLOAD PUSH1 0x1 PUSH1 0x1 PUSH1 0xE0 SHL SUB AND PUSH4 0x182DF0F5 PUSH1 0xE0 SHL OR SWAP1 MSTORE PUSH1 0x0 SWAP1 DUP2 SWAP1 PUSH2 0xF2F SWAP1 PUSH2 0x1194 JUMP JUMPDEST SWAP1 POP DUP1 DUP1 PUSH1 0x20 ADD SWAP1 MLOAD DUP2 ADD SWAP1 PUSH2 0xF45 SWAP2 SWAP1 PUSH2 0x20CE JUMP JUMPDEST SWAP2 POP POP SWAP1 JUMP JUMPDEST PUSH1 0x40 MLOAD PUSH1 0x1 PUSH1 0x1 PUSH1 0xA0 SHL SUB DUP3 AND PUSH1 0x24 DUP3 ADD MSTORE PUSH2 0xF92 SWAP1 PUSH1 0x44 ADD PUSH1 0x40 DUP1 MLOAD PUSH1 0x1F NOT DUP2 DUP5 SUB ADD DUP2 MSTORE SWAP2 SWAP1 MSTORE PUSH1 0x20 DUP2 ADD DUP1 MLOAD PUSH1 0x1 PUSH1 0x1 PUSH1 0xE0 SHL SUB AND PUSH3 0xDF0CAB PUSH1 0xE5 SHL OR SWAP1 MSTORE PUSH2 0xDB5 JUMP JUMPDEST POP POP JUMP JUMPDEST PUSH1 0x40 MLOAD PUSH1 0x1 PUSH1 0x1 PUSH1 0xA0 SHL SUB DUP1 DUP6 AND PUSH1 0x24 DUP4 ADD MSTORE DUP4 AND PUSH1 0x44 DUP3 ADD MSTORE PUSH1 0x64 DUP2 ADD DUP3 SWAP1 MSTORE PUSH1 0x0 SWAP1 DUP2 SWAP1 PUSH2 0xFF2 SWAP1 PUSH1 0x84 ADD PUSH1 0x40 DUP1 MLOAD PUSH1 0x1F NOT DUP2 DUP5 SUB ADD DUP2 MSTORE SWAP2 SWAP1 MSTORE PUSH1 0x20 DUP2 ADD DUP1 MLOAD PUSH1 0x1 PUSH1 0x1 PUSH1 0xE0 SHL SUB AND PUSH4 0x23B872DD PUSH1 0xE0 SHL OR SWAP1 MSTORE PUSH2 0xDB5 JUMP JUMPDEST SWAP1 POP DUP1 DUP1 PUSH1 0x20 ADD SWAP1 MLOAD DUP2 ADD SWAP1 PUSH2 0x1008 SWAP2 SWAP1 PUSH2 0x20B1 JUMP JUMPDEST SWAP6 SWAP5 POP POP POP POP POP JUMP JUMPDEST PUSH1 0x40 MLOAD PUSH1 0x1 PUSH1 0x1 PUSH1 0xA0 SHL SUB DUP4 AND PUSH1 0x24 DUP3 ADD MSTORE PUSH1 0x44 DUP2 ADD DUP3 SWAP1 MSTORE PUSH1 0x0 SWAP1 DUP2 SWAP1 PUSH2 0x1065 SWAP1 PUSH1 0x64 ADD PUSH1 0x40 DUP1 MLOAD PUSH1 0x1F NOT DUP2 DUP5 SUB ADD DUP2 MSTORE SWAP2 SWAP1 MSTORE PUSH1 0x20 DUP2 ADD DUP1 MLOAD PUSH1 0x1 PUSH1 0x1 PUSH1 0xE0 SHL SUB AND PUSH4 0x4C11F03 PUSH1 0xE3 SHL OR SWAP1 MSTORE PUSH2 0xDB5 JUMP JUMPDEST SWAP1 POP DUP1 DUP1 PUSH1 0x20 ADD SWAP1 MLOAD DUP2 ADD SWAP1 PUSH2 0xE3E SWAP2 SWAP1 PUSH2 0x20CE JUMP JUMPDEST PUSH1 0x40 MLOAD PUSH1 0x1 PUSH1 0x1 PUSH1 0xA0 SHL SUB DUP3 AND PUSH1 0x24 DUP3 ADD MSTORE PUSH1 0x0 SWAP1 DUP2 SWAP1 PUSH2 0xE8E SWAP1 PUSH1 0x44 ADD PUSH1 0x40 DUP1 MLOAD PUSH1 0x1F NOT DUP2 DUP5 SUB ADD DUP2 MSTORE SWAP2 SWAP1 MSTORE PUSH1 0x20 DUP2 ADD DUP1 MLOAD PUSH1 0x1 PUSH1 0x1 PUSH1 0xE0 SHL SUB AND PUSH4 0x36818B01 PUSH1 0xE0 SHL OR SWAP1 MSTORE PUSH2 0xDB5 JUMP JUMPDEST PUSH1 0x40 MLOAD PUSH1 0x1 PUSH1 0x1 PUSH1 0xA0 SHL SUB DUP3 AND PUSH1 0x24 DUP3 ADD MSTORE PUSH1 0x0 SWAP1 DUP2 SWAP1 PUSH2 0xE8E SWAP1 PUSH1 0x44 ADD PUSH1 0x40 DUP1 MLOAD PUSH1 0x1F NOT DUP2 DUP5 SUB ADD DUP2 MSTORE SWAP2 SWAP1 MSTORE PUSH1 0x20 DUP2 ADD DUP1 MLOAD PUSH1 0x1 PUSH1 0x1 PUSH1 0xE0 SHL SUB AND PUSH4 0x3AF9E669 PUSH1 0xE0 SHL OR SWAP1 MSTORE PUSH2 0xDB5 JUMP JUMPDEST PUSH1 0x40 DUP1 MLOAD PUSH1 0x4 DUP2 MSTORE PUSH1 0x24 DUP2 ADD SWAP1 SWAP2 MSTORE PUSH1 0x20 DUP2 ADD DUP1 MLOAD PUSH1 0x1 PUSH1 0x1 PUSH1 0xE0 SHL SUB AND PUSH4 0x1D8E90D1 PUSH1 0xE1 SHL OR SWAP1 MSTORE PUSH1 0x0 SWAP1 DUP2 SWAP1 PUSH2 0xF2F SWAP1 PUSH2 0x1194 JUMP JUMPDEST PUSH1 0x0 DUP1 PUSH2 0xE8E DUP4 PUSH1 0x40 MLOAD PUSH1 0x24 ADD PUSH2 0x1165 SWAP2 DUP2 MSTORE PUSH1 0x20 ADD SWAP1 JUMP JUMPDEST PUSH1 0x40 DUP1 MLOAD PUSH1 0x1F NOT DUP2 DUP5 SUB ADD DUP2 MSTORE SWAP2 SWAP1 MSTORE PUSH1 0x20 DUP2 ADD DUP1 MLOAD PUSH1 0x1 PUSH1 0x1 PUSH1 0xE0 SHL SUB AND PUSH4 0x3E94101 PUSH1 0xE4 SHL OR SWAP1 MSTORE PUSH2 0xDB5 JUMP JUMPDEST PUSH1 0x60 PUSH1 0x0 DUP1 ADDRESS PUSH1 0x1 PUSH1 0x1 PUSH1 0xA0 SHL SUB AND DUP5 PUSH1 0x40 MLOAD PUSH1 0x24 ADD PUSH2 0x11B4 SWAP2 SWAP1 PUSH2 0x1D69 JUMP JUMPDEST PUSH1 0x40 DUP1 MLOAD PUSH1 0x1F NOT DUP2 DUP5 SUB ADD DUP2 MSTORE SWAP2 DUP2 MSTORE PUSH1 0x20 DUP3 ADD DUP1 MLOAD PUSH1 0x1 PUSH1 0x1 PUSH1 0xE0 SHL SUB AND PUSH4 0x933C1ED PUSH1 0xE0 SHL OR SWAP1 MSTORE MLOAD PUSH2 0x11E9 SWAP2 SWAP1 PUSH2 0x20E7 JUMP JUMPDEST PUSH1 0x0 PUSH1 0x40 MLOAD DUP1 DUP4 SUB DUP2 DUP6 GAS STATICCALL SWAP2 POP POP RETURNDATASIZE DUP1 PUSH1 0x0 DUP2 EQ PUSH2 0x1224 JUMPI PUSH1 0x40 MLOAD SWAP2 POP PUSH1 0x1F NOT PUSH1 0x3F RETURNDATASIZE ADD AND DUP3 ADD PUSH1 0x40 MSTORE RETURNDATASIZE DUP3 MSTORE RETURNDATASIZE PUSH1 0x0 PUSH1 0x20 DUP5 ADD RETURNDATACOPY PUSH2 0x1229 JUMP JUMPDEST PUSH1 0x60 SWAP2 POP JUMPDEST POP SWAP2 POP SWAP2 POP PUSH1 0x0 DUP3 EQ ISZERO PUSH2 0x123E JUMPI RETURNDATASIZE PUSH1 0x20 DUP3 ADD REVERT JUMPDEST DUP1 DUP1 PUSH1 0x20 ADD SWAP1 MLOAD DUP2 ADD SWAP1 PUSH2 0xE3E SWAP2 SWAP1 PUSH2 0x2103 JUMP JUMPDEST PUSH1 0x40 MLOAD PUSH1 0x1 PUSH1 0x1 PUSH1 0xA0 SHL SUB DUP3 AND PUSH1 0x24 DUP3 ADD MSTORE PUSH1 0x0 SWAP1 DUP2 SWAP1 PUSH2 0xE8E SWAP1 PUSH1 0x44 ADD PUSH1 0x40 DUP1 MLOAD PUSH1 0x1F NOT DUP2 DUP5 SUB ADD DUP2 MSTORE SWAP2 SWAP1 MSTORE PUSH1 0x20 DUP2 ADD DUP1 MLOAD PUSH1 0x1 PUSH1 0x1 PUSH1 0xE0 SHL SUB AND PUSH4 0x4576B5DB PUSH1 0xE0 SHL OR SWAP1 MSTORE PUSH2 0xDB5 JUMP JUMPDEST PUSH1 0x8 SLOAD PUSH2 0x100 SWAP1 DIV PUSH1 0x1 PUSH1 0x1 PUSH1 0xA0 SHL SUB AND CALLER EQ PUSH2 0x1324 JUMPI PUSH1 0x40 MLOAD PUSH3 0x461BCD PUSH1 0xE5 SHL DUP2 MSTORE PUSH1 0x20 PUSH1 0x4 DUP3 ADD MSTORE PUSH1 0x39 PUSH1 0x24 DUP3 ADD MSTORE PUSH32 0x43457263323044656C656761746F723A3A5F736574496D706C656D656E746174 PUSH1 0x44 DUP3 ADD MSTORE PUSH32 0x696F6E3A2043616C6C6572206D7573742062652061646D696E00000000000000 PUSH1 0x64 DUP3 ADD MSTORE PUSH1 0x84 ADD PUSH2 0x45F JUMP JUMPDEST DUP2 ISZERO PUSH2 0x135E JUMPI PUSH1 0x40 DUP1 MLOAD PUSH1 0x4 DUP2 MSTORE PUSH1 0x24 DUP2 ADD SWAP1 SWAP2 MSTORE PUSH1 0x20 DUP2 ADD DUP1 MLOAD PUSH1 0x1 PUSH1 0x1 PUSH1 0xE0 SHL SUB AND PUSH4 0x153AB505 PUSH1 0xE0 SHL OR SWAP1 MSTORE PUSH2 0x135C SWAP1 PUSH2 0xDB5 JUMP JUMPDEST POP JUMPDEST PUSH1 0x17 DUP1 SLOAD PUSH1 0x1 PUSH1 0x1 PUSH1 0xA0 SHL SUB DUP6 DUP2 AND PUSH1 0x1 PUSH1 0x1 PUSH1 0xA0 SHL SUB NOT DUP4 AND OR SWAP1 SWAP3 SSTORE PUSH1 0x40 MLOAD SWAP2 AND SWAP1 PUSH2 0x13C3 SWAP1 PUSH2 0x1394 SWAP1 DUP5 SWAP1 PUSH1 0x24 ADD PUSH2 0x1D69 JUMP JUMPDEST PUSH1 0x40 DUP1 MLOAD PUSH1 0x1F NOT DUP2 DUP5 SUB ADD DUP2 MSTORE SWAP2 SWAP1 MSTORE PUSH1 0x20 DUP2 ADD DUP1 MLOAD PUSH1 0x1 PUSH1 0x1 PUSH1 0xE0 SHL SUB AND PUSH4 0xADCCEE5 PUSH1 0xE3 SHL OR SWAP1 MSTORE PUSH2 0xDB5 JUMP JUMPDEST POP PUSH1 0x17 SLOAD PUSH1 0x40 DUP1 MLOAD PUSH1 0x1 PUSH1 0x1 PUSH1 0xA0 SHL SUB DUP1 DUP6 AND DUP3 MSTORE SWAP1 SWAP3 AND PUSH1 0x20 DUP4 ADD MSTORE PUSH32 0xD604DE94D45953F9138079EC1B82D533CB2160C906D1076D1F7ED54BEFBCA97A SWAP2 ADD PUSH1 0x40 MLOAD DUP1 SWAP2 SUB SWAP1 LOG1 POP POP POP POP JUMP JUMPDEST PUSH1 0x0 DUP1 PUSH2 0xE8E DUP4 PUSH1 0x40 MLOAD PUSH1 0x24 ADD PUSH2 0x142A SWAP2 DUP2 MSTORE PUSH1 0x20 ADD SWAP1 JUMP JUMPDEST PUSH1 0x40 DUP1 MLOAD PUSH1 0x1F NOT DUP2 DUP5 SUB ADD DUP2 MSTORE SWAP2 SWAP1 MSTORE PUSH1 0x20 DUP2 ADD DUP1 MLOAD PUSH1 0x1 PUSH1 0x1 PUSH1 0xE0 SHL SUB AND PUSH4 0x601A0BF1 PUSH1 0xE0 SHL OR SWAP1 MSTORE PUSH2 0xDB5 JUMP JUMPDEST PUSH1 0x40 MLOAD PUSH1 0x1 PUSH1 0x1 PUSH1 0xA0 SHL SUB DUP4 AND PUSH1 0x24 DUP3 ADD MSTORE PUSH1 0x44 DUP2 ADD DUP3 SWAP1 MSTORE PUSH2 0x14A8 SWAP1 PUSH1 0x64 ADD PUSH1 0x40 DUP1 MLOAD PUSH1 0x1F NOT DUP2 DUP5 SUB ADD DUP2 MSTORE SWAP2 SWAP1 MSTORE PUSH1 0x20 DUP2 ADD DUP1 MLOAD PUSH1 0x1 PUSH1 0x1 PUSH1 0xE0 SHL SUB AND PUSH4 0x3044749D PUSH1 0xE1 SHL OR SWAP1 MSTORE PUSH2 0xDB5 JUMP JUMPDEST POP POP POP JUMP JUMPDEST PUSH1 0x40 MLOAD PUSH1 0x1 PUSH1 0x1 PUSH1 0xA0 SHL SUB DUP3 AND PUSH1 0x24 DUP3 ADD MSTORE PUSH1 0x0 SWAP1 DUP2 SWAP1 PUSH2 0xE8E SWAP1 PUSH1 0x44 ADD PUSH1 0x40 DUP1 MLOAD PUSH1 0x1F NOT DUP2 DUP5 SUB ADD DUP2 MSTORE SWAP2 SWAP1 MSTORE PUSH1 0x20 DUP2 ADD DUP1 MLOAD PUSH1 0x1 PUSH1 0x1 PUSH1 0xE0 SHL SUB AND PUSH4 0x70A08231 PUSH1 0xE0 SHL OR SWAP1 MSTORE PUSH2 0x1194 JUMP JUMPDEST PUSH1 0x40 DUP1 MLOAD PUSH1 0x4 DUP2 MSTORE PUSH1 0x24 DUP2 ADD SWAP1 SWAP2 MSTORE PUSH1 0x20 DUP2 ADD DUP1 MLOAD PUSH1 0x1 PUSH1 0x1 PUSH1 0xE0 SHL SUB AND PUSH4 0xE759DD3 PUSH1 0xE3 SHL OR SWAP1 MSTORE PUSH1 0x0 SWAP1 DUP2 SWAP1 PUSH2 0xF2F SWAP1 PUSH2 0xDB5 JUMP JUMPDEST PUSH1 0x0 DUP1 PUSH2 0xE8E DUP4 PUSH1 0x40 MLOAD PUSH1 0x24 ADD PUSH2 0x154A SWAP2 DUP2 MSTORE PUSH1 0x20 ADD SWAP1 JUMP JUMPDEST PUSH1 0x40 DUP1 MLOAD PUSH1 0x1F NOT DUP2 DUP5 SUB ADD DUP2 MSTORE SWAP2 SWAP1 MSTORE PUSH1 0x20 DUP2 ADD DUP1 MLOAD PUSH1 0x1 PUSH1 0x1 PUSH1 0xE0 SHL SUB AND PUSH4 0x852A12E3 PUSH1 0xE0 SHL OR SWAP1 MSTORE PUSH2 0xDB5 JUMP JUMPDEST PUSH1 0x7 DUP1 SLOAD PUSH2 0xD34 SWAP1 PUSH2 0x2076 JUMP JUMPDEST PUSH1 0x40 MLOAD PUSH1 0x1 PUSH1 0x1 PUSH1 0xA0 SHL SUB DUP3 AND PUSH1 0x24 DUP3 ADD MSTORE PUSH1 0x0 SWAP1 DUP2 SWAP1 PUSH2 0xE8E SWAP1 PUSH1 0x44 ADD PUSH1 0x40 DUP1 MLOAD PUSH1 0x1F NOT DUP2 DUP5 SUB ADD DUP2 MSTORE SWAP2 SWAP1 MSTORE PUSH1 0x20 DUP2 ADD DUP1 MLOAD PUSH1 0x1 PUSH1 0x1 PUSH1 0xE0 SHL SUB AND PUSH4 0x95DD9193 PUSH1 0xE0 SHL OR SWAP1 MSTORE PUSH2 0x1194 JUMP JUMPDEST PUSH1 0x40 MLOAD PUSH1 0x1 PUSH1 0x1 PUSH1 0xA0 SHL SUB DUP4 AND PUSH1 0x24 DUP3 ADD MSTORE PUSH1 0x44 DUP2 ADD DUP3 SWAP1 MSTORE PUSH2 0x14A8 SWAP1 PUSH1 0x64 ADD PUSH1 0x40 DUP1 MLOAD PUSH1 0x1F NOT DUP2 DUP5 SUB ADD DUP2 MSTORE SWAP2 SWAP1 MSTORE PUSH1 0x20 DUP2 ADD DUP1 MLOAD PUSH1 0x1 PUSH1 0x1 PUSH1 0xE0 SHL SUB AND PUSH4 0x136B7363 PUSH1 0xE3 SHL OR SWAP1 MSTORE PUSH2 0xDB5 JUMP JUMPDEST PUSH1 0x0 DUP1 PUSH2 0xE8E DUP4 PUSH1 0x40 MLOAD PUSH1 0x24 ADD PUSH2 0x163B SWAP2 DUP2 MSTORE PUSH1 0x20 ADD SWAP1 JUMP JUMPDEST PUSH1 0x40 DUP1 MLOAD PUSH1 0x1F NOT DUP2 DUP5 SUB ADD DUP2 MSTORE SWAP2 SWAP1 MSTORE PUSH1 0x20 DUP2 ADD DUP1 MLOAD PUSH1 0x1 PUSH1 0x1 PUSH1 0xE0 SHL SUB AND PUSH4 0x140E25AD PUSH1 0xE3 SHL OR SWAP1 MSTORE PUSH2 0xDB5 JUMP JUMPDEST PUSH1 0x40 DUP1 MLOAD PUSH1 0x4 DUP2 MSTORE PUSH1 0x24 DUP2 ADD SWAP1 SWAP2 MSTORE PUSH1 0x20 DUP2 ADD DUP1 MLOAD PUSH1 0x1 PUSH1 0x1 PUSH1 0xE0 SHL SUB AND PUSH4 0xA6AFED95 PUSH1 0xE0 SHL OR SWAP1 MSTORE PUSH1 0x0 SWAP1 DUP2 SWAP1 PUSH2 0xF2F SWAP1 PUSH2 0xDB5 JUMP JUMPDEST PUSH1 0x40 MLOAD PUSH1 0x1 PUSH1 0x1 PUSH1 0xA0 SHL SUB DUP4 AND PUSH1 0x24 DUP3 ADD MSTORE PUSH1 0x44 DUP2 ADD DUP3 SWAP1 MSTORE PUSH1 0x0 SWAP1 DUP2 SWAP1 PUSH2 0xE28 SWAP1 PUSH1 0x64 ADD PUSH1 0x40 DUP1 MLOAD PUSH1 0x1F NOT DUP2 DUP5 SUB ADD DUP2 MSTORE SWAP2 SWAP1 MSTORE PUSH1 0x20 DUP2 ADD DUP1 MLOAD PUSH1 0x1 PUSH1 0x1 PUSH1 0xE0 SHL SUB AND PUSH4 0xA9059CBB PUSH1 0xE0 SHL OR SWAP1 MSTORE PUSH2 0xDB5 JUMP JUMPDEST PUSH1 0x40 DUP1 MLOAD PUSH1 0x4 DUP2 MSTORE PUSH1 0x24 DUP2 ADD SWAP1 SWAP2 MSTORE PUSH1 0x20 DUP2 ADD DUP1 MLOAD PUSH1 0x1 PUSH1 0x1 PUSH1 0xE0 SHL SUB AND PUSH4 0xAE9D70B PUSH1 0xE4 SHL OR SWAP1 MSTORE PUSH1 0x0 SWAP1 DUP2 SWAP1 PUSH2 0xF2F SWAP1 PUSH2 0x1194 JUMP JUMPDEST PUSH1 0x40 MLOAD PUSH1 0x1 PUSH1 0x1 PUSH1 0xA0 SHL SUB DUP1 DUP6 AND PUSH1 0x24 DUP4 ADD MSTORE DUP4 AND PUSH1 0x44 DUP3 ADD MSTORE PUSH1 0x64 DUP2 ADD DUP3 SWAP1 MSTORE PUSH1 0x0 SWAP1 DUP2 SWAP1 PUSH2 0x1788 SWAP1 PUSH1 0x84 ADD PUSH1 0x40 DUP1 MLOAD PUSH1 0x1F NOT DUP2 DUP5 SUB ADD DUP2 MSTORE SWAP2 SWAP1 MSTORE PUSH1 0x20 DUP2 ADD DUP1 MLOAD PUSH1 0x1 PUSH1 0x1 PUSH1 0xE0 SHL SUB AND PUSH4 0xB2A02FF1 PUSH1 0xE0 SHL OR SWAP1 MSTORE PUSH2 0xDB5 JUMP JUMPDEST SWAP1 POP DUP1 DUP1 PUSH1 0x20 ADD SWAP1 MLOAD DUP2 ADD SWAP1 PUSH2 0x1008 SWAP2 SWAP1 PUSH2 0x20CE JUMP JUMPDEST PUSH1 0x40 MLOAD PUSH1 0x1 PUSH1 0x1 PUSH1 0xA0 SHL SUB DUP3 AND PUSH1 0x24 DUP3 ADD MSTORE PUSH1 0x0 SWAP1 DUP2 SWAP1 PUSH2 0xE8E SWAP1 PUSH1 0x44 ADD PUSH1 0x40 DUP1 MLOAD PUSH1 0x1F NOT DUP2 DUP5 SUB ADD DUP2 MSTORE SWAP2 SWAP1 MSTORE PUSH1 0x20 DUP2 ADD DUP1 MLOAD PUSH1 0x1 PUSH1 0x1 PUSH1 0xE0 SHL SUB AND PUSH4 0x2DC74683 PUSH1 0xE2 SHL OR SWAP1 MSTORE PUSH2 0xDB5 JUMP JUMPDEST PUSH1 0x0 DUP1 PUSH2 0xE8E DUP4 PUSH1 0x40 MLOAD PUSH1 0x24 ADD PUSH2 0x1806 SWAP2 ISZERO ISZERO DUP2 MSTORE PUSH1 0x20 ADD SWAP1 JUMP JUMPDEST PUSH1 0x40 DUP1 MLOAD PUSH1 0x1F NOT DUP2 DUP5 SUB ADD DUP2 MSTORE SWAP2 SWAP1 MSTORE PUSH1 0x20 DUP2 ADD DUP1 MLOAD PUSH1 0x1 PUSH1 0x1 PUSH1 0xE0 SHL SUB AND PUSH4 0x17876F43 PUSH1 0xE3 SHL OR SWAP1 MSTORE PUSH2 0xDB5 JUMP JUMPDEST PUSH1 0x40 DUP1 MLOAD PUSH1 0x4 DUP2 MSTORE PUSH1 0x24 DUP2 ADD SWAP1 SWAP2 MSTORE PUSH1 0x20 DUP2 ADD DUP1 MLOAD PUSH1 0x1 PUSH1 0x1 PUSH1 0xE0 SHL SUB AND PUSH4 0xBD6D894D PUSH1 0xE0 SHL OR SWAP1 MSTORE PUSH1 0x0 SWAP1 DUP2 SWAP1 PUSH2 0xF2F SWAP1 PUSH2 0xDB5 JUMP JUMPDEST PUSH1 0x0 DUP1 PUSH1 0x0 DUP1 PUSH1 0x0 PUSH2 0x18C6 DUP7 PUSH1 0x40 MLOAD PUSH1 0x24 ADD PUSH2 0x1897 SWAP2 SWAP1 PUSH1 0x1 PUSH1 0x1 PUSH1 0xA0 SHL SUB SWAP2 SWAP1 SWAP2 AND DUP2 MSTORE PUSH1 0x20 ADD SWAP1 JUMP JUMPDEST PUSH1 0x40 DUP1 MLOAD PUSH1 0x1F NOT DUP2 DUP5 SUB ADD DUP2 MSTORE SWAP2 SWAP1 MSTORE PUSH1 0x20 DUP2 ADD DUP1 MLOAD PUSH1 0x1 PUSH1 0x1 PUSH1 0xE0 SHL SUB AND PUSH4 0x61BFB471 PUSH1 0xE1 SHL OR SWAP1 MSTORE PUSH2 0x1194 JUMP JUMPDEST SWAP1 POP DUP1 DUP1 PUSH1 0x20 ADD SWAP1 MLOAD DUP2 ADD SWAP1 PUSH2 0x18DC SWAP2 SWAP1 PUSH2 0x2171 JUMP JUMPDEST SWAP5 POP SWAP5 POP SWAP5 POP SWAP5 POP POP SWAP2 SWAP4 POP SWAP2 SWAP4 JUMP JUMPDEST PUSH1 0x0 DUP1 PUSH2 0xE8E DUP4 PUSH1 0x40 MLOAD PUSH1 0x24 ADD PUSH2 0x1905 SWAP2 DUP2 MSTORE PUSH1 0x20 ADD SWAP1 JUMP JUMPDEST PUSH1 0x40 DUP1 MLOAD PUSH1 0x1F NOT DUP2 DUP5 SUB ADD DUP2 MSTORE SWAP2 SWAP1 MSTORE PUSH1 0x20 DUP2 ADD DUP1 MLOAD PUSH1 0x1 PUSH1 0x1 PUSH1 0xE0 SHL SUB AND PUSH4 0x317AFABB PUSH1 0xE2 SHL OR SWAP1 MSTORE PUSH2 0xDB5 JUMP JUMPDEST PUSH1 0x0 DUP1 PUSH2 0xE8E DUP4 PUSH1 0x40 MLOAD PUSH1 0x24 ADD PUSH2 0x194D SWAP2 DUP2 MSTORE PUSH1 0x20 ADD SWAP1 JUMP JUMPDEST PUSH1 0x40 DUP1 MLOAD PUSH1 0x1F NOT DUP2 DUP5 SUB ADD DUP2 MSTORE SWAP2 SWAP1 MSTORE PUSH1 0x20 DUP2 ADD DUP1 MLOAD PUSH1 0x1 PUSH1 0x1 PUSH1 0xE0 SHL SUB AND PUSH4 0xDB006A75 PUSH1 0xE0 SHL OR SWAP1 MSTORE PUSH2 0xDB5 JUMP JUMPDEST PUSH1 0x40 MLOAD PUSH1 0x1 PUSH1 0x1 PUSH1 0xA0 SHL SUB DUP1 DUP5 AND PUSH1 0x24 DUP4 ADD MSTORE DUP3 AND PUSH1 0x44 DUP3 ADD MSTORE PUSH1 0x0 SWAP1 DUP2 SWAP1 PUSH2 0x1065 SWAP1 PUSH1 0x64 ADD PUSH1 0x40 DUP1 MLOAD PUSH1 0x1F NOT DUP2 DUP5 SUB ADD DUP2 MSTORE SWAP2 SWAP1 MSTORE PUSH1 0x20 DUP2 ADD DUP1 MLOAD PUSH1 0x1 PUSH1 0x1 PUSH1 0xE0 SHL SUB AND PUSH4 0x6EB1769F PUSH1 0xE1 SHL OR SWAP1 MSTORE PUSH2 0x1194 JUMP JUMPDEST PUSH1 0x40 DUP1 MLOAD PUSH1 0x4 DUP2 MSTORE PUSH1 0x24 DUP2 ADD SWAP1 SWAP2 MSTORE PUSH1 0x20 DUP2 ADD DUP1 MLOAD PUSH1 0x1 PUSH1 0x1 PUSH1 0xE0 SHL SUB AND PUSH4 0x74E38A79 PUSH1 0xE1 SHL OR SWAP1 MSTORE PUSH1 0x0 SWAP1 DUP2 SWAP1 PUSH2 0xF2F SWAP1 PUSH2 0xDB5 JUMP JUMPDEST PUSH1 0x40 MLOAD PUSH1 0x1 PUSH1 0x1 PUSH1 0xA0 SHL SUB DUP3 AND PUSH1 0x24 DUP3 ADD MSTORE PUSH1 0x0 SWAP1 DUP2 SWAP1 PUSH2 0xE8E SWAP1 PUSH1 0x44 ADD PUSH1 0x40 DUP1 MLOAD PUSH1 0x1F NOT DUP2 DUP5 SUB ADD DUP2 MSTORE SWAP2 SWAP1 MSTORE PUSH1 0x20 DUP2 ADD DUP1 MLOAD PUSH1 0x1 PUSH1 0x1 PUSH1 0xE0 SHL SUB AND PUSH4 0xF2B3ABBD PUSH1 0xE0 SHL OR SWAP1 MSTORE PUSH2 0xDB5 JUMP JUMPDEST PUSH1 0x40 MLOAD PUSH1 0x1 PUSH1 0x1 PUSH1 0xA0 SHL SUB DUP1 DUP6 AND PUSH1 0x24 DUP4 ADD MSTORE PUSH1 0x44 DUP3 ADD DUP5 SWAP1 MSTORE DUP3 AND PUSH1 0x64 DUP3 ADD MSTORE PUSH1 0x0 SWAP1 DUP2 SWAP1 PUSH2 0x1788 SWAP1 PUSH1 0x84 ADD PUSH1 0x40 DUP1 MLOAD PUSH1 0x1F NOT DUP2 DUP5 SUB ADD DUP2 MSTORE SWAP2 SWAP1 MSTORE PUSH1 0x20 DUP2 ADD DUP1 MLOAD PUSH1 0x1 PUSH1 0x1 PUSH1 0xE0 SHL SUB AND PUSH4 0x7AF1E231 PUSH1 0xE1 SHL OR SWAP1 MSTORE PUSH2 0xDB5 JUMP JUMPDEST PUSH1 0x40 DUP1 MLOAD PUSH1 0x4 DUP2 MSTORE PUSH1 0x24 DUP2 ADD SWAP1 SWAP2 MSTORE PUSH1 0x20 DUP2 ADD DUP1 MLOAD PUSH1 0x1 PUSH1 0x1 PUSH1 0xE0 SHL SUB AND PUSH4 0x1F1F3B45 PUSH1 0xE3 SHL OR SWAP1 MSTORE PUSH1 0x0 SWAP1 DUP2 SWAP1 PUSH2 0xF2F SWAP1 PUSH2 0x1194 JUMP JUMPDEST PUSH1 0x0 DUP1 PUSH2 0xE8E DUP4 PUSH1 0x40 MLOAD PUSH1 0x24 ADD PUSH2 0x1B01 SWAP2 DUP2 MSTORE PUSH1 0x20 ADD SWAP1 JUMP JUMPDEST PUSH1 0x40 DUP1 MLOAD PUSH1 0x1F NOT DUP2 DUP5 SUB ADD DUP2 MSTORE SWAP2 SWAP1 MSTORE PUSH1 0x20 DUP2 ADD DUP1 MLOAD PUSH1 0x1 PUSH1 0x1 PUSH1 0xE0 SHL SUB AND PUSH4 0xFCA7820B PUSH1 0xE0 SHL OR SWAP1 MSTORE PUSH2 0xDB5 JUMP JUMPDEST PUSH1 0x40 MLOAD PUSH1 0x1 PUSH1 0x1 PUSH1 0xA0 SHL SUB DUP1 DUP6 AND PUSH1 0x24 DUP4 ADD MSTORE DUP1 DUP5 AND PUSH1 0x44 DUP4 ADD MSTORE DUP3 AND PUSH1 0x64 DUP3 ADD MSTORE PUSH1 0x0 SWAP1 DUP2 SWAP1 PUSH2 0x1788 SWAP1 PUSH1 0x84 ADD PUSH1 0x40 DUP1 MLOAD PUSH1 0x1F NOT DUP2 DUP5 SUB ADD DUP2 MSTORE SWAP2 SWAP1 MSTORE PUSH1 0x20 DUP2 ADD DUP1 MLOAD PUSH1 0x1 PUSH1 0x1 PUSH1 0xE0 SHL SUB AND PUSH1 0x1 PUSH3 0x57E097 PUSH1 0xE1 SHL SUB NOT OR SWAP1 MSTORE PUSH2 0xDB5 JUMP JUMPDEST PUSH1 0x8 SLOAD PUSH2 0x100 SWAP1 DIV PUSH1 0x1 PUSH1 0x1 PUSH1 0xA0 SHL SUB AND CALLER EQ PUSH2 0x1BEF JUMPI PUSH1 0x40 MLOAD PUSH3 0x461BCD PUSH1 0xE5 SHL DUP2 MSTORE PUSH1 0x20 PUSH1 0x4 DUP3 ADD MSTORE PUSH1 0x1B PUSH1 0x24 DUP3 ADD MSTORE PUSH32 0x6F6E6C792061646D696E2063616E2063616C6C20617070726F76650000000000 PUSH1 0x44 DUP3 ADD MSTORE PUSH1 0x64 ADD PUSH2 0x45F JUMP JUMPDEST PUSH1 0x5 SLOAD PUSH1 0x40 MLOAD PUSH4 0x95EA7B3 PUSH1 0xE0 SHL DUP2 MSTORE PUSH1 0x1 PUSH1 0x1 PUSH1 0xA0 SHL SUB SWAP2 DUP3 AND PUSH1 0x4 DUP3 ADD MSTORE PUSH1 0x0 NOT PUSH1 0x24 DUP3 ADD MSTORE PUSH32 0x0 SWAP1 SWAP2 AND SWAP1 PUSH4 0x95EA7B3 SWAP1 PUSH1 0x44 ADD PUSH1 0x20 PUSH1 0x40 MLOAD DUP1 DUP4 SUB DUP2 PUSH1 0x0 DUP8 GAS CALL ISZERO DUP1 ISZERO PUSH2 0x1C64 JUMPI RETURNDATASIZE PUSH1 0x0 DUP1 RETURNDATACOPY RETURNDATASIZE PUSH1 0x0 REVERT JUMPDEST POP POP POP POP PUSH1 0x40 MLOAD RETURNDATASIZE PUSH1 0x1F NOT PUSH1 0x1F DUP3 ADD AND DUP3 ADD DUP1 PUSH1 0x40 MSTORE POP DUP2 ADD SWAP1 PUSH2 0x1C88 SWAP2 SWAP1 PUSH2 0x20B1 JUMP JUMPDEST POP JUMP JUMPDEST PUSH1 0x60 PUSH1 0x0 DUP1 DUP5 PUSH1 0x1 PUSH1 0x1 PUSH1 0xA0 SHL SUB AND DUP5 PUSH1 0x40 MLOAD PUSH2 0x1CA8 SWAP2 SWAP1 PUSH2 0x20E7 JUMP JUMPDEST PUSH1 0x0 PUSH1 0x40 MLOAD DUP1 DUP4 SUB DUP2 DUP6 GAS DELEGATECALL SWAP2 POP POP RETURNDATASIZE DUP1 PUSH1 0x0 DUP2 EQ PUSH2 0x1CE3 JUMPI PUSH1 0x40 MLOAD SWAP2 POP PUSH1 0x1F NOT PUSH1 0x3F RETURNDATASIZE ADD AND DUP3 ADD PUSH1 0x40 MSTORE RETURNDATASIZE DUP3 MSTORE RETURNDATASIZE PUSH1 0x0 PUSH1 0x20 DUP5 ADD RETURNDATACOPY PUSH2 0x1CE8 JUMP JUMPDEST PUSH1 0x60 SWAP2 POP JUMPDEST POP SWAP2 POP SWAP2 POP PUSH1 0x0 DUP3 EQ ISZERO PUSH2 0xE3E JUMPI RETURNDATASIZE PUSH1 0x20 DUP3 ADD REVERT JUMPDEST DUP2 DUP4 DUP3 CALLDATACOPY PUSH1 0x0 SWAP2 ADD SWAP1 DUP2 MSTORE SWAP2 SWAP1 POP JUMP JUMPDEST PUSH1 0x0 JUMPDEST DUP4 DUP2 LT ISZERO PUSH2 0x1D28 JUMPI DUP2 DUP2 ADD MLOAD DUP4 DUP3 ADD MSTORE PUSH1 0x20 ADD PUSH2 0x1D10 JUMP JUMPDEST DUP4 DUP2 GT ISZERO PUSH2 0x1D37 JUMPI PUSH1 0x0 DUP5 DUP5 ADD MSTORE JUMPDEST POP POP POP POP JUMP JUMPDEST PUSH1 0x0 DUP2 MLOAD DUP1 DUP5 MSTORE PUSH2 0x1D55 DUP2 PUSH1 0x20 DUP7 ADD PUSH1 0x20 DUP7 ADD PUSH2 0x1D0D JUMP JUMPDEST PUSH1 0x1F ADD PUSH1 0x1F NOT AND SWAP3 SWAP1 SWAP3 ADD PUSH1 0x20 ADD SWAP3 SWAP2 POP POP JUMP JUMPDEST PUSH1 0x20 DUP2 MSTORE PUSH1 0x0 PUSH2 0xEA4 PUSH1 0x20 DUP4 ADD DUP5 PUSH2 0x1D3D JUMP JUMPDEST PUSH4 0x4E487B71 PUSH1 0xE0 SHL PUSH1 0x0 MSTORE PUSH1 0x41 PUSH1 0x4 MSTORE PUSH1 0x24 PUSH1 0x0 REVERT JUMPDEST PUSH1 0x40 MLOAD PUSH1 0x1F DUP3 ADD PUSH1 0x1F NOT AND DUP2 ADD PUSH8 0xFFFFFFFFFFFFFFFF DUP2 GT DUP3 DUP3 LT OR ISZERO PUSH2 0x1DBB JUMPI PUSH2 0x1DBB PUSH2 0x1D7C JUMP JUMPDEST PUSH1 0x40 MSTORE SWAP2 SWAP1 POP JUMP JUMPDEST PUSH1 0x0 PUSH8 0xFFFFFFFFFFFFFFFF DUP3 GT ISZERO PUSH2 0x1DDD JUMPI PUSH2 0x1DDD PUSH2 0x1D7C JUMP JUMPDEST POP PUSH1 0x1F ADD PUSH1 0x1F NOT AND PUSH1 0x20 ADD SWAP1 JUMP JUMPDEST PUSH1 0x0 DUP3 PUSH1 0x1F DUP4 ADD SLT PUSH2 0x1DFC JUMPI PUSH1 0x0 DUP1 REVERT JUMPDEST DUP2 CALLDATALOAD PUSH2 0x1E0F PUSH2 0x1E0A DUP3 PUSH2 0x1DC3 JUMP JUMPDEST PUSH2 0x1D92 JUMP JUMPDEST DUP2 DUP2 MSTORE DUP5 PUSH1 0x20 DUP4 DUP7 ADD ADD GT ISZERO PUSH2 0x1E24 JUMPI PUSH1 0x0 DUP1 REVERT JUMPDEST DUP2 PUSH1 0x20 DUP6 ADD PUSH1 0x20 DUP4 ADD CALLDATACOPY PUSH1 0x0 SWAP2 DUP2 ADD PUSH1 0x20 ADD SWAP2 SWAP1 SWAP2 MSTORE SWAP4 SWAP3 POP POP POP JUMP JUMPDEST PUSH1 0x0 PUSH1 0x20 DUP3 DUP5 SUB SLT ISZERO PUSH2 0x1E53 JUMPI PUSH1 0x0 DUP1 REVERT JUMPDEST DUP2 CALLDATALOAD PUSH8 0xFFFFFFFFFFFFFFFF DUP2 GT ISZERO PUSH2 0x1E6A JUMPI PUSH1 0x0 DUP1 REVERT JUMPDEST PUSH2 0xE3E DUP5 DUP3 DUP6 ADD PUSH2 0x1DEB JUMP JUMPDEST PUSH1 0x1 PUSH1 0x1 PUSH1 0xA0 SHL SUB DUP2 AND DUP2 EQ PUSH2 0x1C88 JUMPI PUSH1 0x0 DUP1 REVERT JUMPDEST PUSH1 0x0 DUP1 PUSH1 0x40 DUP4 DUP6 SUB SLT ISZERO PUSH2 0x1E9E JUMPI PUSH1 0x0 DUP1 REVERT JUMPDEST DUP3 CALLDATALOAD PUSH2 0x1EA9 DUP2 PUSH2 0x1E76 JUMP JUMPDEST SWAP5 PUSH1 0x20 SWAP4 SWAP1 SWAP4 ADD CALLDATALOAD SWAP4 POP POP POP JUMP JUMPDEST PUSH1 0x0 PUSH1 0x20 DUP3 DUP5 SUB SLT ISZERO PUSH2 0x1EC9 JUMPI PUSH1 0x0 DUP1 REVERT JUMPDEST POP CALLDATALOAD SWAP2 SWAP1 POP JUMP JUMPDEST PUSH1 0x0 PUSH1 0x20 DUP3 DUP5 SUB SLT ISZERO PUSH2 0x1EE2 JUMPI PUSH1 0x0 DUP1 REVERT JUMPDEST DUP2 CALLDATALOAD PUSH2 0xEA4 DUP2 PUSH2 0x1E76 JUMP JUMPDEST PUSH1 0x0 DUP1 PUSH1 0x0 PUSH1 0x60 DUP5 DUP7 SUB SLT ISZERO PUSH2 0x1F02 JUMPI PUSH1 0x0 DUP1 REVERT JUMPDEST DUP4 CALLDATALOAD PUSH2 0x1F0D DUP2 PUSH2 0x1E76 JUMP JUMPDEST SWAP3 POP PUSH1 0x20 DUP5 ADD CALLDATALOAD PUSH2 0x1F1D DUP2 PUSH2 0x1E76 JUMP JUMPDEST SWAP3 SWAP6 SWAP3 SWAP5 POP POP POP PUSH1 0x40 SWAP2 SWAP1 SWAP2 ADD CALLDATALOAD SWAP1 JUMP JUMPDEST DUP1 ISZERO ISZERO DUP2 EQ PUSH2 0x1C88 JUMPI PUSH1 0x0 DUP1 REVERT JUMPDEST PUSH1 0x0 DUP1 PUSH1 0x0 PUSH1 0x60 DUP5 DUP7 SUB SLT ISZERO PUSH2 0x1F51 JUMPI PUSH1 0x0 DUP1 REVERT JUMPDEST DUP4 CALLDATALOAD PUSH2 0x1F5C DUP2 PUSH2 0x1E76 JUMP JUMPDEST SWAP3 POP PUSH1 0x20 DUP5 ADD CALLDATALOAD PUSH2 0x1F6C DUP2 PUSH2 0x1F2E JUMP JUMPDEST SWAP2 POP PUSH1 0x40 DUP5 ADD CALLDATALOAD PUSH8 0xFFFFFFFFFFFFFFFF DUP2 GT ISZERO PUSH2 0x1F88 JUMPI PUSH1 0x0 DUP1 REVERT JUMPDEST PUSH2 0x1F94 DUP7 DUP3 DUP8 ADD PUSH2 0x1DEB JUMP JUMPDEST SWAP2 POP POP SWAP3 POP SWAP3 POP SWAP3 JUMP JUMPDEST PUSH1 0x0 PUSH1 0x20 DUP3 DUP5 SUB SLT ISZERO PUSH2 0x1FB0 JUMPI PUSH1 0x0 DUP1 REVERT JUMPDEST DUP2 CALLDATALOAD PUSH2 0xEA4 DUP2 PUSH2 0x1F2E JUMP JUMPDEST PUSH1 0x0 DUP1 PUSH1 0x40 DUP4 DUP6 SUB SLT ISZERO PUSH2 0x1FCE JUMPI PUSH1 0x0 DUP1 REVERT JUMPDEST DUP3 CALLDATALOAD PUSH2 0x1FD9 DUP2 PUSH2 0x1E76 JUMP JUMPDEST SWAP2 POP PUSH1 0x20 DUP4 ADD CALLDATALOAD PUSH2 0x1FE9 DUP2 PUSH2 0x1E76 JUMP JUMPDEST DUP1 SWAP2 POP POP SWAP3 POP SWAP3 SWAP1 POP JUMP JUMPDEST PUSH1 0x0 DUP1 PUSH1 0x0 PUSH1 0x60 DUP5 DUP7 SUB SLT ISZERO PUSH2 0x2009 JUMPI PUSH1 0x0 DUP1 REVERT JUMPDEST DUP4 CALLDATALOAD PUSH2 0x2014 DUP2 PUSH2 0x1E76 JUMP JUMPDEST SWAP3 POP PUSH1 0x20 DUP5 ADD CALLDATALOAD SWAP2 POP PUSH1 0x40 DUP5 ADD CALLDATALOAD PUSH2 0x202B DUP2 PUSH2 0x1E76 JUMP JUMPDEST DUP1 SWAP2 POP POP SWAP3 POP SWAP3 POP SWAP3 JUMP JUMPDEST PUSH1 0x0 DUP1 PUSH1 0x0 PUSH1 0x60 DUP5 DUP7 SUB SLT ISZERO PUSH2 0x204B JUMPI PUSH1 0x0 DUP1 REVERT JUMPDEST DUP4 CALLDATALOAD PUSH2 0x2056 DUP2 PUSH2 0x1E76 JUMP JUMPDEST SWAP3 POP PUSH1 0x20 DUP5 ADD CALLDATALOAD PUSH2 0x2066 DUP2 PUSH2 0x1E76 JUMP JUMPDEST SWAP2 POP PUSH1 0x40 DUP5 ADD CALLDATALOAD PUSH2 0x202B DUP2 PUSH2 0x1E76 JUMP JUMPDEST PUSH1 0x1 DUP2 DUP2 SHR SWAP1 DUP3 AND DUP1 PUSH2 0x208A JUMPI PUSH1 0x7F DUP3 AND SWAP2 POP JUMPDEST PUSH1 0x20 DUP3 LT DUP2 EQ ISZERO PUSH2 0x20AB JUMPI PUSH4 0x4E487B71 PUSH1 0xE0 SHL PUSH1 0x0 MSTORE PUSH1 0x22 PUSH1 0x4 MSTORE PUSH1 0x24 PUSH1 0x0 REVERT JUMPDEST POP SWAP2 SWAP1 POP JUMP JUMPDEST PUSH1 0x0 PUSH1 0x20 DUP3 DUP5 SUB SLT ISZERO PUSH2 0x20C3 JUMPI PUSH1 0x0 DUP1 REVERT JUMPDEST DUP2 MLOAD PUSH2 0xEA4 DUP2 PUSH2 0x1F2E JUMP JUMPDEST PUSH1 0x0 PUSH1 0x20 DUP3 DUP5 SUB SLT ISZERO PUSH2 0x20E0 JUMPI PUSH1 0x0 DUP1 REVERT JUMPDEST POP MLOAD SWAP2 SWAP1 POP JUMP JUMPDEST PUSH1 0x0 DUP3 MLOAD PUSH2 0x20F9 DUP2 DUP5 PUSH1 0x20 DUP8 ADD PUSH2 0x1D0D JUMP JUMPDEST SWAP2 SWAP1 SWAP2 ADD SWAP3 SWAP2 POP POP JUMP JUMPDEST PUSH1 0x0 PUSH1 0x20 DUP3 DUP5 SUB SLT ISZERO PUSH2 0x2115 JUMPI PUSH1 0x0 DUP1 REVERT JUMPDEST DUP2 MLOAD PUSH8 0xFFFFFFFFFFFFFFFF DUP2 GT ISZERO PUSH2 0x212C JUMPI PUSH1 0x0 DUP1 REVERT JUMPDEST DUP3 ADD PUSH1 0x1F DUP2 ADD DUP5 SGT PUSH2 0x213D JUMPI PUSH1 0x0 DUP1 REVERT JUMPDEST DUP1 MLOAD PUSH2 0x214B PUSH2 0x1E0A DUP3 PUSH2 0x1DC3 JUMP JUMPDEST DUP2 DUP2 MSTORE DUP6 PUSH1 0x20 DUP4 DUP6 ADD ADD GT ISZERO PUSH2 0x2160 JUMPI PUSH1 0x0 DUP1 REVERT JUMPDEST PUSH2 0x1008 DUP3 PUSH1 0x20 DUP4 ADD PUSH1 0x20 DUP7 ADD PUSH2 0x1D0D JUMP JUMPDEST PUSH1 0x0 DUP1 PUSH1 0x0 DUP1 PUSH1 0x80 DUP6 DUP8 SUB SLT ISZERO PUSH2 0x2187 JUMPI PUSH1 0x0 DUP1 REVERT JUMPDEST POP POP DUP3 MLOAD PUSH1 0x20 DUP5 ADD MLOAD PUSH1 0x40 DUP6 ADD MLOAD PUSH1 0x60 SWAP1 SWAP6 ADD MLOAD SWAP2 SWAP7 SWAP1 SWAP6 POP SWAP1 SWAP3 POP SWAP1 POP JUMP INVALID LOG2 PUSH5 0x6970667358 0x22 SLT KECCAK256 SWAP13 0xF8 0xE5 PUSH6 0xAF27948C9F94 PUSH20 0x2928E46DCA75BBD09BD028C87380D6EB2E95349C SGT PUSH5 0x736F6C6343 STOP ADDMOD EXP STOP CALLER "},"methodIdentifiers":{"WETH()":"ad5c4648","_acceptAdmin()":"e9c714f2","_addReserves(uint256)":"3e941010","_reduceReserves(uint256)":"601a0bf1","_setAutocompoundRewards(bool)":"bc3b7a18","_setComptroller(address)":"4576b5db","_setGlpAddresses(address,address,address)":"ff503ed2","_setImplementation(address,bool,bytes)":"555bcc40","_setInterestRateModel(address)":"f2b3abbd","_setPendingAdmin(address)":"b71d1a0c","_setReserveFactor(uint256)":"fca7820b","_signalTransfer(address)":"36818b01","accrualBlockNumber()":"6c540baf","accrueInterest()":"a6afed95","admin()":"f851a440","allowance(address,address)":"dd62ed3e","approve(address,uint256)":"095ea7b3","approveGlpRewardRouterWETHSpending()":"ff5b0cb4","autocompound()":"26d9687c","balanceOf(address)":"70a08231","balanceOfUnderlying(address)":"3af9e669","borrow(uint256)":"c5ebeaec","borrowBalanceCurrent(address)":"17bfdfbc","borrowBalanceStored(address)":"95dd9193","borrowIndex()":"aa5af0fd","borrowRatePerBlock()":"f8f9da28","comptroller()":"5fe3b567","decimals()":"313ce567","delegateToImplementation(bytes)":"0933c1ed","delegateToViewImplementation(bytes)":"4487152f","depositNFT(address,uint256)":"9b5b9b18","exchangeRateCurrent()":"bd6d894d","exchangeRateStored()":"182df0f5","getAccountSnapshot(address)":"c37f68e2","getCash()":"3b1d21a2","glpManager()":"fa6db1bc","glpRewardRouter()":"68672231","gmxToken()":"bae49e99","implementation()":"5c60da1b","interestRateModel()":"f3fdb15a","isCToken()":"fe9c44ae","isGLP()":"842e11eb","liquidateBorrow(address,uint256,address)":"f5e3c462","mint(uint256)":"a0712d68","name()":"06fdde03","pendingAdmin()":"26782247","protocolSeizeShareMantissa()":"6752e702","proxyType()":"4555d5c9","redeem(uint256)":"db006a75","redeemUnderlying(uint256)":"852a12e3","repayBorrow(uint256)":"0e752702","repayBorrowBehalf(address,uint256)":"2608f818","reserveFactorMantissa()":"173b9904","sbfGMX()":"06dd74e5","seize(address,address,uint256)":"b2a02ff1","stakedGLP()":"5b30cf55","stakedGmxTracker()":"0ce4018a","supplyRatePerBlock()":"ae9d70b0","sweepToken(address)":"1be19560","symbol()":"95d89b41","totalBorrows()":"47bd3718","totalBorrowsCurrent()":"73acee98","totalReserves()":"8f840ddd","totalSupply()":"18160ddd","transfer(address,uint256)":"a9059cbb","transferFrom(address,address,uint256)":"23b872dd","underlying()":"6f307dc3","withdrawNFT(address,uint256)":"6088e93a"}},"storageLayout":{"storage":[{"astId":2614,"contract":"contracts/CErc20Delegator.sol:CErc20Delegator","label":"_notEntered","offset":0,"slot":"0","type":"t_bool"},{"astId":2617,"contract":"contracts/CErc20Delegator.sol:CErc20Delegator","label":"isGLP","offset":1,"slot":"0","type":"t_bool"},{"astId":2620,"contract":"contracts/CErc20Delegator.sol:CErc20Delegator","label":"autocompound","offset":2,"slot":"0","type":"t_bool"},{"astId":2627,"contract":"contracts/CErc20Delegator.sol:CErc20Delegator","label":"glpRewardRouter","offset":3,"slot":"0","type":"t_contract(IGmxRewardRouter)3888"},{"astId":2634,"contract":"contracts/CErc20Delegator.sol:CErc20Delegator","label":"stakedGLP","offset":0,"slot":"1","type":"t_contract(IStakedGlp)4041"},{"astId":2638,"contract":"contracts/CErc20Delegator.sol:CErc20Delegator","label":"gmxToken","offset":0,"slot":"2","type":"t_address"},{"astId":2645,"contract":"contracts/CErc20Delegator.sol:CErc20Delegator","label":"stakedGmxTracker","offset":0,"slot":"3","type":"t_contract(IRewardTracker)3988"},{"astId":2649,"contract":"contracts/CErc20Delegator.sol:CErc20Delegator","label":"sbfGMX","offset":0,"slot":"4","type":"t_address"},{"astId":2657,"contract":"contracts/CErc20Delegator.sol:CErc20Delegator","label":"glpManager","offset":0,"slot":"5","type":"t_address"},{"astId":2660,"contract":"contracts/CErc20Delegator.sol:CErc20Delegator","label":"name","offset":0,"slot":"6","type":"t_string_storage"},{"astId":2663,"contract":"contracts/CErc20Delegator.sol:CErc20Delegator","label":"symbol","offset":0,"slot":"7","type":"t_string_storage"},{"astId":2666,"contract":"contracts/CErc20Delegator.sol:CErc20Delegator","label":"decimals","offset":0,"slot":"8","type":"t_uint8"},{"astId":2675,"contract":"contracts/CErc20Delegator.sol:CErc20Delegator","label":"admin","offset":1,"slot":"8","type":"t_address_payable"},{"astId":2678,"contract":"contracts/CErc20Delegator.sol:CErc20Delegator","label":"pendingAdmin","offset":0,"slot":"9","type":"t_address_payable"},{"astId":2682,"contract":"contracts/CErc20Delegator.sol:CErc20Delegator","label":"comptroller","offset":0,"slot":"10","type":"t_contract(ComptrollerInterface)3415"},{"astId":2686,"contract":"contracts/CErc20Delegator.sol:CErc20Delegator","label":"interestRateModel","offset":0,"slot":"11","type":"t_contract(InterestRateModel)4075"},{"astId":2688,"contract":"contracts/CErc20Delegator.sol:CErc20Delegator","label":"initialExchangeRateMantissa","offset":0,"slot":"12","type":"t_uint256"},{"astId":2691,"contract":"contracts/CErc20Delegator.sol:CErc20Delegator","label":"reserveFactorMantissa","offset":0,"slot":"13","type":"t_uint256"},{"astId":2694,"contract":"contracts/CErc20Delegator.sol:CErc20Delegator","label":"accrualBlockNumber","offset":0,"slot":"14","type":"t_uint256"},{"astId":2697,"contract":"contracts/CErc20Delegator.sol:CErc20Delegator","label":"borrowIndex","offset":0,"slot":"15","type":"t_uint256"},{"astId":2700,"contract":"contracts/CErc20Delegator.sol:CErc20Delegator","label":"totalBorrows","offset":0,"slot":"16","type":"t_uint256"},{"astId":2703,"contract":"contracts/CErc20Delegator.sol:CErc20Delegator","label":"totalReserves","offset":0,"slot":"17","type":"t_uint256"},{"astId":2706,"contract":"contracts/CErc20Delegator.sol:CErc20Delegator","label":"totalSupply","offset":0,"slot":"18","type":"t_uint256"},{"astId":2710,"contract":"contracts/CErc20Delegator.sol:CErc20Delegator","label":"accountTokens","offset":0,"slot":"19","type":"t_mapping(t_address,t_uint256)"},{"astId":2716,"contract":"contracts/CErc20Delegator.sol:CErc20Delegator","label":"transferAllowances","offset":0,"slot":"20","type":"t_mapping(t_address,t_mapping(t_address,t_uint256))"},{"astId":2726,"contract":"contracts/CErc20Delegator.sol:CErc20Delegator","label":"accountBorrows","offset":0,"slot":"21","type":"t_mapping(t_address,t_struct(BorrowSnapshot)2721_storage)"},{"astId":3076,"contract":"contracts/CErc20Delegator.sol:CErc20Delegator","label":"underlying","offset":0,"slot":"22","type":"t_address"},{"astId":3166,"contract":"contracts/CErc20Delegator.sol:CErc20Delegator","label":"implementation","offset":0,"slot":"23","type":"t_address"}],"types":{"t_address":{"encoding":"inplace","label":"address","numberOfBytes":"20"},"t_address_payable":{"encoding":"inplace","label":"address payable","numberOfBytes":"20"},"t_bool":{"encoding":"inplace","label":"bool","numberOfBytes":"1"},"t_contract(ComptrollerInterface)3415":{"encoding":"inplace","label":"contract ComptrollerInterface","numberOfBytes":"20"},"t_contract(IGmxRewardRouter)3888":{"encoding":"inplace","label":"contract IGmxRewardRouter","numberOfBytes":"20"},"t_contract(IRewardTracker)3988":{"encoding":"inplace","label":"contract IRewardTracker","numberOfBytes":"20"},"t_contract(IStakedGlp)4041":{"encoding":"inplace","label":"contract IStakedGlp","numberOfBytes":"20"},"t_contract(InterestRateModel)4075":{"encoding":"inplace","label":"contract InterestRateModel","numberOfBytes":"20"},"t_mapping(t_address,t_mapping(t_address,t_uint256))":{"encoding":"mapping","key":"t_address","label":"mapping(address => mapping(address => uint256))","numberOfBytes":"32","value":"t_mapping(t_address,t_uint256)"},"t_mapping(t_address,t_struct(BorrowSnapshot)2721_storage)":{"encoding":"mapping","key":"t_address","label":"mapping(address => struct CTokenStorage.BorrowSnapshot)","numberOfBytes":"32","value":"t_struct(BorrowSnapshot)2721_storage"},"t_mapping(t_address,t_uint256)":{"encoding":"mapping","key":"t_address","label":"mapping(address => uint256)","numberOfBytes":"32","value":"t_uint256"},"t_string_storage":{"encoding":"bytes","label":"string","numberOfBytes":"32"},"t_struct(BorrowSnapshot)2721_storage":{"encoding":"inplace","label":"struct CTokenStorage.BorrowSnapshot","members":[{"astId":2718,"contract":"contracts/CErc20Delegator.sol:CErc20Delegator","label":"principal","offset":0,"slot":"0","type":"t_uint256"},{"astId":2720,"contract":"contracts/CErc20Delegator.sol:CErc20Delegator","label":"interestIndex","offset":0,"slot":"1","type":"t_uint256"}],"numberOfBytes":"64"},"t_uint256":{"encoding":"inplace","label":"uint256","numberOfBytes":"32"},"t_uint8":{"encoding":"inplace","label":"uint8","numberOfBytes":"1"}}}}}}