{"contracts/CTokenInterfaces.sol":{"CTokenStorage":{"abi":[{"inputs":[],"name":"WETH","outputs":[{"internalType":"address","name":"","type":"address"}],"stateMutability":"view","type":"function"},{"inputs":[],"name":"accrualBlockNumber","outputs":[{"internalType":"uint256","name":"","type":"uint256"}],"stateMutability":"view","type":"function"},{"inputs":[],"name":"admin","outputs":[{"internalType":"address payable","name":"","type":"address"}],"stateMutability":"view","type":"function"},{"inputs":[],"name":"autocompound","outputs":[{"internalType":"bool","name":"","type":"bool"}],"stateMutability":"view","type":"function"},{"inputs":[],"name":"borrowIndex","outputs":[{"internalType":"uint256","name":"","type":"uint256"}],"stateMutability":"view","type":"function"},{"inputs":[],"name":"comptroller","outputs":[{"internalType":"contract ComptrollerInterface","name":"","type":"address"}],"stateMutability":"view","type":"function"},{"inputs":[],"name":"decimals","outputs":[{"internalType":"uint8","name":"","type":"uint8"}],"stateMutability":"view","type":"function"},{"inputs":[],"name":"glpManager","outputs":[{"internalType":"address","name":"","type":"address"}],"stateMutability":"view","type":"function"},{"inputs":[],"name":"glpRewardRouter","outputs":[{"internalType":"contract IGmxRewardRouter","name":"","type":"address"}],"stateMutability":"view","type":"function"},{"inputs":[],"name":"gmxToken","outputs":[{"internalType":"address","name":"","type":"address"}],"stateMutability":"view","type":"function"},{"inputs":[],"name":"interestRateModel","outputs":[{"internalType":"contract InterestRateModel","name":"","type":"address"}],"stateMutability":"view","type":"function"},{"inputs":[],"name":"isGLP","outputs":[{"internalType":"bool","name":"","type":"bool"}],"stateMutability":"view","type":"function"},{"inputs":[],"name":"name","outputs":[{"internalType":"string","name":"","type":"string"}],"stateMutability":"view","type":"function"},{"inputs":[],"name":"pendingAdmin","outputs":[{"internalType":"address payable","name":"","type":"address"}],"stateMutability":"view","type":"function"},{"inputs":[],"name":"protocolSeizeShareMantissa","outputs":[{"internalType":"uint256","name":"","type":"uint256"}],"stateMutability":"view","type":"function"},{"inputs":[],"name":"reserveFactorMantissa","outputs":[{"internalType":"uint256","name":"","type":"uint256"}],"stateMutability":"view","type":"function"},{"inputs":[],"name":"sbfGMX","outputs":[{"internalType":"address","name":"","type":"address"}],"stateMutability":"view","type":"function"},{"inputs":[],"name":"stakedGLP","outputs":[{"internalType":"contract IStakedGlp","name":"","type":"address"}],"stateMutability":"view","type":"function"},{"inputs":[],"name":"stakedGmxTracker","outputs":[{"internalType":"contract IRewardTracker","name":"","type":"address"}],"stateMutability":"view","type":"function"},{"inputs":[],"name":"symbol","outputs":[{"internalType":"string","name":"","type":"string"}],"stateMutability":"view","type":"function"},{"inputs":[],"name":"totalBorrows","outputs":[{"internalType":"uint256","name":"","type":"uint256"}],"stateMutability":"view","type":"function"},{"inputs":[],"name":"totalReserves","outputs":[{"internalType":"uint256","name":"","type":"uint256"}],"stateMutability":"view","type":"function"},{"inputs":[],"name":"totalSupply","outputs":[{"internalType":"uint256","name":"","type":"uint256"}],"stateMutability":"view","type":"function"}],"evm":{"bytecode":{"linkReferences":{},"object":"60a06040526000805476a906f338cb21815cbc4bc87ace9e68c87ef8d8f10000006301000000600160b81b0319909116179055600180546001600160a01b0319908116732f546ad4edd93b956c8999be404cdcafde3e89ae1790915560028054821673fc5a1a6eb076a2c7ad06ed22c90d7e710e35ad0a17905560038054821673908c4d94d34924765f1edc22a1dd098397c59dd417905560048054821673d2d1162512f927a7e282ef43a362659e4f2a728f1790557382af49447d8a07e3bd95bd0d56f35241523fbab16080526005805490911673321f653eed006ad1c29d174e17d96351bde226491790553480156100f857600080fd5b5060805161048461011460003960006102b001526104846000f3fe608060405234801561001057600080fd5b506004361061014d5760003560e01c80636752e702116100c3578063aa5af0fd1161007c578063aa5af0fd146102a2578063ad5c4648146102ab578063bae49e99146102d2578063f3fdb15a146102e5578063f851a440146102f8578063fa6db1bc1461031057600080fd5b80636752e7021461024e578063686722311461025c5780636c540baf14610276578063842e11eb1461027f5780638f840ddd1461029157806395d89b411461029a57600080fd5b8063267822471161011557806326782247146101ca57806326d9687c146101dd578063313ce5671461020057806347bd37181461021f5780635b30cf55146102285780635fe3b5671461023b57600080fd5b806306dd74e51461015257806306fdde03146101825780630ce4018a14610197578063173b9904146101aa57806318160ddd146101c1575b600080fd5b600454610165906001600160a01b031681565b6040516001600160a01b0390911681526020015b60405180910390f35b61018a610323565b60405161017991906103be565b600354610165906001600160a01b031681565b6101b3600d5481565b604051908152602001610179565b6101b360125481565b600954610165906001600160a01b031681565b6000546101f09062010000900460ff1681565b6040519015158152602001610179565b60085461020d9060ff1681565b60405160ff9091168152602001610179565b6101b360105481565b600154610165906001600160a01b031681565b600a54610165906001600160a01b031681565b6101b3666379da05b6000081565b60005461016590630100000090046001600160a01b031681565b6101b3600e5481565b6000546101f090610100900460ff1681565b6101b360115481565b61018a6103b1565b6101b3600f5481565b6101657f000000000000000000000000000000000000000000000000000000000000000081565b600254610165906001600160a01b031681565b600b54610165906001600160a01b031681565b6008546101659061010090046001600160a01b031681565b600554610165906001600160a01b031681565b6006805461033090610413565b80601f016020809104026020016040519081016040528092919081815260200182805461035c90610413565b80156103a95780601f1061037e576101008083540402835291602001916103a9565b820191906000526020600020905b81548152906001019060200180831161038c57829003601f168201915b505050505081565b6007805461033090610413565b600060208083528351808285015260005b818110156103eb578581018301518582016040015282016103cf565b818111156103fd576000604083870101525b50601f01601f1916929092016040019392505050565b600181811c9082168061042757607f821691505b6020821081141561044857634e487b7160e01b600052602260045260246000fd5b5091905056fea2646970667358221220c12771f08d284bcfe6b332ffc9e8c39b9841fb786606ab461a189bab0516515e64736f6c634300080a0033","opcodes":"PUSH1 0xA0 PUSH1 0x40 MSTORE PUSH1 0x0 DUP1 SLOAD PUSH23 0xA906F338CB21815CBC4BC87ACE9E68C87EF8D8F1000000 PUSH4 0x1000000 PUSH1 0x1 PUSH1 0xB8 SHL SUB NOT SWAP1 SWAP2 AND OR SWAP1 SSTORE PUSH1 0x1 DUP1 SLOAD PUSH1 0x1 PUSH1 0x1 PUSH1 0xA0 SHL SUB NOT SWAP1 DUP2 AND PUSH20 0x2F546AD4EDD93B956C8999BE404CDCAFDE3E89AE OR SWAP1 SWAP2 SSTORE PUSH1 0x2 DUP1 SLOAD DUP3 AND PUSH20 0xFC5A1A6EB076A2C7AD06ED22C90D7E710E35AD0A OR SWAP1 SSTORE PUSH1 0x3 DUP1 SLOAD DUP3 AND PUSH20 0x908C4D94D34924765F1EDC22A1DD098397C59DD4 OR SWAP1 SSTORE PUSH1 0x4 DUP1 SLOAD DUP3 AND PUSH20 0xD2D1162512F927A7E282EF43A362659E4F2A728F OR SWAP1 SSTORE PUSH20 0x82AF49447D8A07E3BD95BD0D56F35241523FBAB1 PUSH1 0x80 MSTORE PUSH1 0x5 DUP1 SLOAD SWAP1 SWAP2 AND PUSH20 0x321F653EED006AD1C29D174E17D96351BDE22649 OR SWAP1 SSTORE CALLVALUE DUP1 ISZERO PUSH2 0xF8 JUMPI PUSH1 0x0 DUP1 REVERT JUMPDEST POP PUSH1 0x80 MLOAD PUSH2 0x484 PUSH2 0x114 PUSH1 0x0 CODECOPY PUSH1 0x0 PUSH2 0x2B0 ADD MSTORE PUSH2 0x484 PUSH1 0x0 RETURN INVALID PUSH1 0x80 PUSH1 0x40 MSTORE CALLVALUE DUP1 ISZERO PUSH2 0x10 JUMPI PUSH1 0x0 DUP1 REVERT JUMPDEST POP PUSH1 0x4 CALLDATASIZE LT PUSH2 0x14D JUMPI PUSH1 0x0 CALLDATALOAD PUSH1 0xE0 SHR DUP1 PUSH4 0x6752E702 GT PUSH2 0xC3 JUMPI DUP1 PUSH4 0xAA5AF0FD GT PUSH2 0x7C JUMPI DUP1 PUSH4 0xAA5AF0FD EQ PUSH2 0x2A2 JUMPI DUP1 PUSH4 0xAD5C4648 EQ PUSH2 0x2AB JUMPI DUP1 PUSH4 0xBAE49E99 EQ PUSH2 0x2D2 JUMPI DUP1 PUSH4 0xF3FDB15A EQ PUSH2 0x2E5 JUMPI DUP1 PUSH4 0xF851A440 EQ PUSH2 0x2F8 JUMPI DUP1 PUSH4 0xFA6DB1BC EQ PUSH2 0x310 JUMPI PUSH1 0x0 DUP1 REVERT JUMPDEST DUP1 PUSH4 0x6752E702 EQ PUSH2 0x24E JUMPI DUP1 PUSH4 0x68672231 EQ PUSH2 0x25C JUMPI DUP1 PUSH4 0x6C540BAF EQ PUSH2 0x276 JUMPI DUP1 PUSH4 0x842E11EB EQ PUSH2 0x27F JUMPI DUP1 PUSH4 0x8F840DDD EQ PUSH2 0x291 JUMPI DUP1 PUSH4 0x95D89B41 EQ PUSH2 0x29A JUMPI PUSH1 0x0 DUP1 REVERT JUMPDEST DUP1 PUSH4 0x26782247 GT PUSH2 0x115 JUMPI DUP1 PUSH4 0x26782247 EQ PUSH2 0x1CA JUMPI DUP1 PUSH4 0x26D9687C EQ PUSH2 0x1DD JUMPI DUP1 PUSH4 0x313CE567 EQ PUSH2 0x200 JUMPI DUP1 PUSH4 0x47BD3718 EQ PUSH2 0x21F JUMPI DUP1 PUSH4 0x5B30CF55 EQ PUSH2 0x228 JUMPI DUP1 PUSH4 0x5FE3B567 EQ PUSH2 0x23B JUMPI PUSH1 0x0 DUP1 REVERT JUMPDEST DUP1 PUSH4 0x6DD74E5 EQ PUSH2 0x152 JUMPI DUP1 PUSH4 0x6FDDE03 EQ PUSH2 0x182 JUMPI DUP1 PUSH4 0xCE4018A EQ PUSH2 0x197 JUMPI DUP1 PUSH4 0x173B9904 EQ PUSH2 0x1AA JUMPI DUP1 PUSH4 0x18160DDD EQ PUSH2 0x1C1 JUMPI JUMPDEST PUSH1 0x0 DUP1 REVERT JUMPDEST PUSH1 0x4 SLOAD PUSH2 0x165 SWAP1 PUSH1 0x1 PUSH1 0x1 PUSH1 0xA0 SHL SUB AND DUP2 JUMP JUMPDEST PUSH1 0x40 MLOAD PUSH1 0x1 PUSH1 0x1 PUSH1 0xA0 SHL SUB SWAP1 SWAP2 AND DUP2 MSTORE PUSH1 0x20 ADD JUMPDEST PUSH1 0x40 MLOAD DUP1 SWAP2 SUB SWAP1 RETURN JUMPDEST PUSH2 0x18A PUSH2 0x323 JUMP JUMPDEST PUSH1 0x40 MLOAD PUSH2 0x179 SWAP2 SWAP1 PUSH2 0x3BE JUMP JUMPDEST PUSH1 0x3 SLOAD PUSH2 0x165 SWAP1 PUSH1 0x1 PUSH1 0x1 PUSH1 0xA0 SHL SUB AND DUP2 JUMP JUMPDEST PUSH2 0x1B3 PUSH1 0xD SLOAD DUP2 JUMP JUMPDEST PUSH1 0x40 MLOAD SWAP1 DUP2 MSTORE PUSH1 0x20 ADD PUSH2 0x179 JUMP JUMPDEST PUSH2 0x1B3 PUSH1 0x12 SLOAD DUP2 JUMP JUMPDEST PUSH1 0x9 SLOAD PUSH2 0x165 SWAP1 PUSH1 0x1 PUSH1 0x1 PUSH1 0xA0 SHL SUB AND DUP2 JUMP JUMPDEST PUSH1 0x0 SLOAD PUSH2 0x1F0 SWAP1 PUSH3 0x10000 SWAP1 DIV PUSH1 0xFF AND DUP2 JUMP JUMPDEST PUSH1 0x40 MLOAD SWAP1 ISZERO ISZERO DUP2 MSTORE PUSH1 0x20 ADD PUSH2 0x179 JUMP JUMPDEST PUSH1 0x8 SLOAD PUSH2 0x20D SWAP1 PUSH1 0xFF AND DUP2 JUMP JUMPDEST PUSH1 0x40 MLOAD PUSH1 0xFF SWAP1 SWAP2 AND DUP2 MSTORE PUSH1 0x20 ADD PUSH2 0x179 JUMP JUMPDEST PUSH2 0x1B3 PUSH1 0x10 SLOAD DUP2 JUMP JUMPDEST PUSH1 0x1 SLOAD PUSH2 0x165 SWAP1 PUSH1 0x1 PUSH1 0x1 PUSH1 0xA0 SHL SUB AND DUP2 JUMP JUMPDEST PUSH1 0xA SLOAD PUSH2 0x165 SWAP1 PUSH1 0x1 PUSH1 0x1 PUSH1 0xA0 SHL SUB AND DUP2 JUMP JUMPDEST PUSH2 0x1B3 PUSH7 0x6379DA05B60000 DUP2 JUMP JUMPDEST PUSH1 0x0 SLOAD PUSH2 0x165 SWAP1 PUSH4 0x1000000 SWAP1 DIV PUSH1 0x1 PUSH1 0x1 PUSH1 0xA0 SHL SUB AND DUP2 JUMP JUMPDEST PUSH2 0x1B3 PUSH1 0xE SLOAD DUP2 JUMP JUMPDEST PUSH1 0x0 SLOAD PUSH2 0x1F0 SWAP1 PUSH2 0x100 SWAP1 DIV PUSH1 0xFF AND DUP2 JUMP JUMPDEST PUSH2 0x1B3 PUSH1 0x11 SLOAD DUP2 JUMP JUMPDEST PUSH2 0x18A PUSH2 0x3B1 JUMP JUMPDEST PUSH2 0x1B3 PUSH1 0xF SLOAD DUP2 JUMP JUMPDEST PUSH2 0x165 PUSH32 0x0 DUP2 JUMP JUMPDEST PUSH1 0x2 SLOAD PUSH2 0x165 SWAP1 PUSH1 0x1 PUSH1 0x1 PUSH1 0xA0 SHL SUB AND DUP2 JUMP JUMPDEST PUSH1 0xB SLOAD PUSH2 0x165 SWAP1 PUSH1 0x1 PUSH1 0x1 PUSH1 0xA0 SHL SUB AND DUP2 JUMP JUMPDEST PUSH1 0x8 SLOAD PUSH2 0x165 SWAP1 PUSH2 0x100 SWAP1 DIV PUSH1 0x1 PUSH1 0x1 PUSH1 0xA0 SHL SUB AND DUP2 JUMP JUMPDEST PUSH1 0x5 SLOAD PUSH2 0x165 SWAP1 PUSH1 0x1 PUSH1 0x1 PUSH1 0xA0 SHL SUB AND DUP2 JUMP JUMPDEST PUSH1 0x6 DUP1 SLOAD PUSH2 0x330 SWAP1 PUSH2 0x413 JUMP JUMPDEST DUP1 PUSH1 0x1F ADD PUSH1 0x20 DUP1 SWAP2 DIV MUL PUSH1 0x20 ADD PUSH1 0x40 MLOAD SWAP1 DUP2 ADD PUSH1 0x40 MSTORE DUP1 SWAP3 SWAP2 SWAP1 DUP2 DUP2 MSTORE PUSH1 0x20 ADD DUP3 DUP1 SLOAD PUSH2 0x35C SWAP1 PUSH2 0x413 JUMP JUMPDEST DUP1 ISZERO PUSH2 0x3A9 JUMPI DUP1 PUSH1 0x1F LT PUSH2 0x37E JUMPI PUSH2 0x100 DUP1 DUP4 SLOAD DIV MUL DUP4 MSTORE SWAP2 PUSH1 0x20 ADD SWAP2 PUSH2 0x3A9 JUMP JUMPDEST DUP3 ADD SWAP2 SWAP1 PUSH1 0x0 MSTORE PUSH1 0x20 PUSH1 0x0 KECCAK256 SWAP1 JUMPDEST DUP2 SLOAD DUP2 MSTORE SWAP1 PUSH1 0x1 ADD SWAP1 PUSH1 0x20 ADD DUP1 DUP4 GT PUSH2 0x38C JUMPI DUP3 SWAP1 SUB PUSH1 0x1F AND DUP3 ADD SWAP2 JUMPDEST POP POP POP POP POP DUP2 JUMP JUMPDEST PUSH1 0x7 DUP1 SLOAD PUSH2 0x330 SWAP1 PUSH2 0x413 JUMP JUMPDEST PUSH1 0x0 PUSH1 0x20 DUP1 DUP4 MSTORE DUP4 MLOAD DUP1 DUP3 DUP6 ADD MSTORE PUSH1 0x0 JUMPDEST DUP2 DUP2 LT ISZERO PUSH2 0x3EB JUMPI DUP6 DUP2 ADD DUP4 ADD MLOAD DUP6 DUP3 ADD PUSH1 0x40 ADD MSTORE DUP3 ADD PUSH2 0x3CF JUMP JUMPDEST DUP2 DUP2 GT ISZERO PUSH2 0x3FD JUMPI PUSH1 0x0 PUSH1 0x40 DUP4 DUP8 ADD ADD MSTORE JUMPDEST POP PUSH1 0x1F ADD PUSH1 0x1F NOT AND SWAP3 SWAP1 SWAP3 ADD PUSH1 0x40 ADD SWAP4 SWAP3 POP POP POP JUMP JUMPDEST PUSH1 0x1 DUP2 DUP2 SHR SWAP1 DUP3 AND DUP1 PUSH2 0x427 JUMPI PUSH1 0x7F DUP3 AND SWAP2 POP JUMPDEST PUSH1 0x20 DUP3 LT DUP2 EQ ISZERO PUSH2 0x448 JUMPI PUSH4 0x4E487B71 PUSH1 0xE0 SHL PUSH1 0x0 MSTORE PUSH1 0x22 PUSH1 0x4 MSTORE PUSH1 0x24 PUSH1 0x0 REVERT JUMPDEST POP SWAP2 SWAP1 POP JUMP INVALID LOG2 PUSH5 0x6970667358 0x22 SLT KECCAK256 0xC1 0x27 PUSH18 0xF08D284BCFE6B332FFC9E8C39B9841FB7866 MOD 0xAB CHAINID BYTE XOR SWAP12 0xAB SDIV AND MLOAD 0x5E PUSH5 0x736F6C6343 STOP ADDMOD EXP STOP CALLER "},"methodIdentifiers":{"WETH()":"ad5c4648","accrualBlockNumber()":"6c540baf","admin()":"f851a440","autocompound()":"26d9687c","borrowIndex()":"aa5af0fd","comptroller()":"5fe3b567","decimals()":"313ce567","glpManager()":"fa6db1bc","glpRewardRouter()":"68672231","gmxToken()":"bae49e99","interestRateModel()":"f3fdb15a","isGLP()":"842e11eb","name()":"06fdde03","pendingAdmin()":"26782247","protocolSeizeShareMantissa()":"6752e702","reserveFactorMantissa()":"173b9904","sbfGMX()":"06dd74e5","stakedGLP()":"5b30cf55","stakedGmxTracker()":"0ce4018a","symbol()":"95d89b41","totalBorrows()":"47bd3718","totalReserves()":"8f840ddd","totalSupply()":"18160ddd"}},"storageLayout":{"storage":[{"astId":2614,"contract":"contracts/CTokenInterfaces.sol:CTokenStorage","label":"_notEntered","offset":0,"slot":"0","type":"t_bool"},{"astId":2617,"contract":"contracts/CTokenInterfaces.sol:CTokenStorage","label":"isGLP","offset":1,"slot":"0","type":"t_bool"},{"astId":2620,"contract":"contracts/CTokenInterfaces.sol:CTokenStorage","label":"autocompound","offset":2,"slot":"0","type":"t_bool"},{"astId":2627,"contract":"contracts/CTokenInterfaces.sol:CTokenStorage","label":"glpRewardRouter","offset":3,"slot":"0","type":"t_contract(IGmxRewardRouter)3888"},{"astId":2634,"contract":"contracts/CTokenInterfaces.sol:CTokenStorage","label":"stakedGLP","offset":0,"slot":"1","type":"t_contract(IStakedGlp)4041"},{"astId":2638,"contract":"contracts/CTokenInterfaces.sol:CTokenStorage","label":"gmxToken","offset":0,"slot":"2","type":"t_address"},{"astId":2645,"contract":"contracts/CTokenInterfaces.sol:CTokenStorage","label":"stakedGmxTracker","offset":0,"slot":"3","type":"t_contract(IRewardTracker)3988"},{"astId":2649,"contract":"contracts/CTokenInterfaces.sol:CTokenStorage","label":"sbfGMX","offset":0,"slot":"4","type":"t_address"},{"astId":2657,"contract":"contracts/CTokenInterfaces.sol:CTokenStorage","label":"glpManager","offset":0,"slot":"5","type":"t_address"},{"astId":2660,"contract":"contracts/CTokenInterfaces.sol:CTokenStorage","label":"name","offset":0,"slot":"6","type":"t_string_storage"},{"astId":2663,"contract":"contracts/CTokenInterfaces.sol:CTokenStorage","label":"symbol","offset":0,"slot":"7","type":"t_string_storage"},{"astId":2666,"contract":"contracts/CTokenInterfaces.sol:CTokenStorage","label":"decimals","offset":0,"slot":"8","type":"t_uint8"},{"astId":2675,"contract":"contracts/CTokenInterfaces.sol:CTokenStorage","label":"admin","offset":1,"slot":"8","type":"t_address_payable"},{"astId":2678,"contract":"contracts/CTokenInterfaces.sol:CTokenStorage","label":"pendingAdmin","offset":0,"slot":"9","type":"t_address_payable"},{"astId":2682,"contract":"contracts/CTokenInterfaces.sol:CTokenStorage","label":"comptroller","offset":0,"slot":"10","type":"t_contract(ComptrollerInterface)3415"},{"astId":2686,"contract":"contracts/CTokenInterfaces.sol:CTokenStorage","label":"interestRateModel","offset":0,"slot":"11","type":"t_contract(InterestRateModel)4075"},{"astId":2688,"contract":"contracts/CTokenInterfaces.sol:CTokenStorage","label":"initialExchangeRateMantissa","offset":0,"slot":"12","type":"t_uint256"},{"astId":2691,"contract":"contracts/CTokenInterfaces.sol:CTokenStorage","label":"reserveFactorMantissa","offset":0,"slot":"13","type":"t_uint256"},{"astId":2694,"contract":"contracts/CTokenInterfaces.sol:CTokenStorage","label":"accrualBlockNumber","offset":0,"slot":"14","type":"t_uint256"},{"astId":2697,"contract":"contracts/CTokenInterfaces.sol:CTokenStorage","label":"borrowIndex","offset":0,"slot":"15","type":"t_uint256"},{"astId":2700,"contract":"contracts/CTokenInterfaces.sol:CTokenStorage","label":"totalBorrows","offset":0,"slot":"16","type":"t_uint256"},{"astId":2703,"contract":"contracts/CTokenInterfaces.sol:CTokenStorage","label":"totalReserves","offset":0,"slot":"17","type":"t_uint256"},{"astId":2706,"contract":"contracts/CTokenInterfaces.sol:CTokenStorage","label":"totalSupply","offset":0,"slot":"18","type":"t_uint256"},{"astId":2710,"contract":"contracts/CTokenInterfaces.sol:CTokenStorage","label":"accountTokens","offset":0,"slot":"19","type":"t_mapping(t_address,t_uint256)"},{"astId":2716,"contract":"contracts/CTokenInterfaces.sol:CTokenStorage","label":"transferAllowances","offset":0,"slot":"20","type":"t_mapping(t_address,t_mapping(t_address,t_uint256))"},{"astId":2726,"contract":"contracts/CTokenInterfaces.sol:CTokenStorage","label":"accountBorrows","offset":0,"slot":"21","type":"t_mapping(t_address,t_struct(BorrowSnapshot)2721_storage)"}],"types":{"t_address":{"encoding":"inplace","label":"address","numberOfBytes":"20"},"t_address_payable":{"encoding":"inplace","label":"address payable","numberOfBytes":"20"},"t_bool":{"encoding":"inplace","label":"bool","numberOfBytes":"1"},"t_contract(ComptrollerInterface)3415":{"encoding":"inplace","label":"contract ComptrollerInterface","numberOfBytes":"20"},"t_contract(IGmxRewardRouter)3888":{"encoding":"inplace","label":"contract IGmxRewardRouter","numberOfBytes":"20"},"t_contract(IRewardTracker)3988":{"encoding":"inplace","label":"contract IRewardTracker","numberOfBytes":"20"},"t_contract(IStakedGlp)4041":{"encoding":"inplace","label":"contract IStakedGlp","numberOfBytes":"20"},"t_contract(InterestRateModel)4075":{"encoding":"inplace","label":"contract InterestRateModel","numberOfBytes":"20"},"t_mapping(t_address,t_mapping(t_address,t_uint256))":{"encoding":"mapping","key":"t_address","label":"mapping(address => mapping(address => uint256))","numberOfBytes":"32","value":"t_mapping(t_address,t_uint256)"},"t_mapping(t_address,t_struct(BorrowSnapshot)2721_storage)":{"encoding":"mapping","key":"t_address","label":"mapping(address => struct CTokenStorage.BorrowSnapshot)","numberOfBytes":"32","value":"t_struct(BorrowSnapshot)2721_storage"},"t_mapping(t_address,t_uint256)":{"encoding":"mapping","key":"t_address","label":"mapping(address => uint256)","numberOfBytes":"32","value":"t_uint256"},"t_string_storage":{"encoding":"bytes","label":"string","numberOfBytes":"32"},"t_struct(BorrowSnapshot)2721_storage":{"encoding":"inplace","label":"struct CTokenStorage.BorrowSnapshot","members":[{"astId":2718,"contract":"contracts/CTokenInterfaces.sol:CTokenStorage","label":"principal","offset":0,"slot":"0","type":"t_uint256"},{"astId":2720,"contract":"contracts/CTokenInterfaces.sol:CTokenStorage","label":"interestIndex","offset":0,"slot":"1","type":"t_uint256"}],"numberOfBytes":"64"},"t_uint256":{"encoding":"inplace","label":"uint256","numberOfBytes":"32"},"t_uint8":{"encoding":"inplace","label":"uint8","numberOfBytes":"1"}}}}}}