{"contracts/ErrorReporter.sol":{"TokenErrorReporter":{"abi":[{"inputs":[],"name":"AcceptAdminPendingAdminCheck","type":"error"},{"inputs":[{"internalType":"uint256","name":"actualAddAmount","type":"uint256"}],"name":"AddReservesFactorFreshCheck","type":"error"},{"inputs":[],"name":"BorrowCashNotAvailable","type":"error"},{"inputs":[{"internalType":"uint256","name":"errorCode","type":"uint256"}],"name":"BorrowComptrollerRejection","type":"error"},{"inputs":[],"name":"BorrowFreshnessCheck","type":"error"},{"inputs":[{"internalType":"uint256","name":"errorCode","type":"uint256"}],"name":"LiquidateAccrueBorrowInterestFailed","type":"error"},{"inputs":[{"internalType":"uint256","name":"errorCode","type":"uint256"}],"name":"LiquidateAccrueCollateralInterestFailed","type":"error"},{"inputs":[],"name":"LiquidateCloseAmountIsUintMax","type":"error"},{"inputs":[],"name":"LiquidateCloseAmountIsZero","type":"error"},{"inputs":[],"name":"LiquidateCollateralFreshnessCheck","type":"error"},{"inputs":[{"internalType":"uint256","name":"errorCode","type":"uint256"}],"name":"LiquidateComptrollerRejection","type":"error"},{"inputs":[],"name":"LiquidateFreshnessCheck","type":"error"},{"inputs":[],"name":"LiquidateLiquidatorIsBorrower","type":"error"},{"inputs":[{"internalType":"uint256","name":"errorCode","type":"uint256"}],"name":"LiquidateRepayBorrowFreshFailed","type":"error"},{"inputs":[{"internalType":"uint256","name":"errorCode","type":"uint256"}],"name":"LiquidateSeizeComptrollerRejection","type":"error"},{"inputs":[],"name":"LiquidateSeizeLiquidatorIsBorrower","type":"error"},{"inputs":[{"internalType":"uint256","name":"errorCode","type":"uint256"}],"name":"MintComptrollerRejection","type":"error"},{"inputs":[],"name":"MintFreshnessCheck","type":"error"},{"inputs":[{"internalType":"uint256","name":"errorCode","type":"uint256"}],"name":"RedeemComptrollerRejection","type":"error"},{"inputs":[],"name":"RedeemFreshnessCheck","type":"error"},{"inputs":[],"name":"RedeemTransferOutNotPossible","type":"error"},{"inputs":[],"name":"ReduceReservesAdminCheck","type":"error"},{"inputs":[],"name":"ReduceReservesCashNotAvailable","type":"error"},{"inputs":[],"name":"ReduceReservesCashValidation","type":"error"},{"inputs":[],"name":"ReduceReservesFreshCheck","type":"error"},{"inputs":[{"internalType":"uint256","name":"errorCode","type":"uint256"}],"name":"RepayBorrowComptrollerRejection","type":"error"},{"inputs":[],"name":"RepayBorrowFreshnessCheck","type":"error"},{"inputs":[],"name":"SetAutoCompoundOwnerCheck","type":"error"},{"inputs":[],"name":"SetComptrollerOwnerCheck","type":"error"},{"inputs":[],"name":"SetInterestRateModelFreshCheck","type":"error"},{"inputs":[],"name":"SetInterestRateModelOwnerCheck","type":"error"},{"inputs":[],"name":"SetPendingAdminOwnerCheck","type":"error"},{"inputs":[],"name":"SetReserveFactorAdminCheck","type":"error"},{"inputs":[],"name":"SetReserveFactorBoundsCheck","type":"error"},{"inputs":[],"name":"SetReserveFactorFreshCheck","type":"error"},{"inputs":[],"name":"SetStakedGlpAddressOwnerCheck","type":"error"},{"inputs":[],"name":"SignalTransferOwnerCheck","type":"error"},{"inputs":[{"internalType":"uint256","name":"errorCode","type":"uint256"}],"name":"TransferComptrollerRejection","type":"error"},{"inputs":[],"name":"TransferNotAllowed","type":"error"},{"inputs":[],"name":"TransferNotEnough","type":"error"},{"inputs":[],"name":"TransferTooMuch","type":"error"},{"inputs":[],"name":"NO_ERROR","outputs":[{"internalType":"uint256","name":"","type":"uint256"}],"stateMutability":"view","type":"function"}],"evm":{"bytecode":{"linkReferences":{},"object":"6080604052348015600f57600080fd5b50607c8061001e6000396000f3fe6080604052348015600f57600080fd5b506004361060285760003560e01c806369ab325014602d575b600080fd5b6034600081565b60405190815260200160405180910390f3fea2646970667358221220bb95d456cad8401f76de34504a4dae4944c6a2541e4d4286578ba89604afe55864736f6c634300080a0033","opcodes":"PUSH1 0x80 PUSH1 0x40 MSTORE CALLVALUE DUP1 ISZERO PUSH1 0xF JUMPI PUSH1 0x0 DUP1 REVERT JUMPDEST POP PUSH1 0x7C DUP1 PUSH2 0x1E PUSH1 0x0 CODECOPY PUSH1 0x0 RETURN INVALID PUSH1 0x80 PUSH1 0x40 MSTORE CALLVALUE DUP1 ISZERO PUSH1 0xF JUMPI PUSH1 0x0 DUP1 REVERT JUMPDEST POP PUSH1 0x4 CALLDATASIZE LT PUSH1 0x28 JUMPI PUSH1 0x0 CALLDATALOAD PUSH1 0xE0 SHR DUP1 PUSH4 0x69AB3250 EQ PUSH1 0x2D JUMPI JUMPDEST PUSH1 0x0 DUP1 REVERT JUMPDEST PUSH1 0x34 PUSH1 0x0 DUP2 JUMP JUMPDEST PUSH1 0x40 MLOAD SWAP1 DUP2 MSTORE PUSH1 0x20 ADD PUSH1 0x40 MLOAD DUP1 SWAP2 SUB SWAP1 RETURN INVALID LOG2 PUSH5 0x6970667358 0x22 SLT KECCAK256 0xBB SWAP6 0xD4 JUMP 0xCA 0xD8 BLOCKHASH 0x1F PUSH23 0xDE34504A4DAE4944C6A2541E4D4286578BA89604AFE558 PUSH5 0x736F6C6343 STOP ADDMOD EXP STOP CALLER "},"methodIdentifiers":{"NO_ERROR()":"69ab3250"}},"storageLayout":{"storage":[],"types":null}}}}