{"contracts/Governance/GovernorBravoInterfaces.sol":{"GovernorBravoDelegateStorageV2":{"abi":[{"constant":true,"inputs":[],"name":"admin","outputs":[{"internalType":"address","name":"","type":"address"}],"payable":false,"stateMutability":"view","type":"function"},{"constant":true,"inputs":[],"name":"comp","outputs":[{"internalType":"contract CompInterface","name":"","type":"address"}],"payable":false,"stateMutability":"view","type":"function"},{"constant":true,"inputs":[],"name":"implementation","outputs":[{"internalType":"address","name":"","type":"address"}],"payable":false,"stateMutability":"view","type":"function"},{"constant":true,"inputs":[],"name":"initialProposalId","outputs":[{"internalType":"uint256","name":"","type":"uint256"}],"payable":false,"stateMutability":"view","type":"function"},{"constant":true,"inputs":[{"internalType":"address","name":"","type":"address"}],"name":"latestProposalIds","outputs":[{"internalType":"uint256","name":"","type":"uint256"}],"payable":false,"stateMutability":"view","type":"function"},{"constant":true,"inputs":[],"name":"pendingAdmin","outputs":[{"internalType":"address","name":"","type":"address"}],"payable":false,"stateMutability":"view","type":"function"},{"constant":true,"inputs":[],"name":"proposalCount","outputs":[{"internalType":"uint256","name":"","type":"uint256"}],"payable":false,"stateMutability":"view","type":"function"},{"constant":true,"inputs":[],"name":"proposalThreshold","outputs":[{"internalType":"uint256","name":"","type":"uint256"}],"payable":false,"stateMutability":"view","type":"function"},{"constant":true,"inputs":[{"internalType":"uint256","name":"","type":"uint256"}],"name":"proposals","outputs":[{"internalType":"uint256","name":"id","type":"uint256"},{"internalType":"address","name":"proposer","type":"address"},{"internalType":"uint256","name":"eta","type":"uint256"},{"internalType":"uint256","name":"startBlock","type":"uint256"},{"internalType":"uint256","name":"endBlock","type":"uint256"},{"internalType":"uint256","name":"forVotes","type":"uint256"},{"internalType":"uint256","name":"againstVotes","type":"uint256"},{"internalType":"uint256","name":"abstainVotes","type":"uint256"},{"internalType":"bool","name":"canceled","type":"bool"},{"internalType":"bool","name":"executed","type":"bool"}],"payable":false,"stateMutability":"view","type":"function"},{"constant":true,"inputs":[],"name":"timelock","outputs":[{"internalType":"contract TimelockInterface","name":"","type":"address"}],"payable":false,"stateMutability":"view","type":"function"},{"constant":true,"inputs":[],"name":"votingDelay","outputs":[{"internalType":"uint256","name":"","type":"uint256"}],"payable":false,"stateMutability":"view","type":"function"},{"constant":true,"inputs":[],"name":"votingPeriod","outputs":[{"internalType":"uint256","name":"","type":"uint256"}],"payable":false,"stateMutability":"view","type":"function"},{"constant":true,"inputs":[{"internalType":"address","name":"","type":"address"}],"name":"whitelistAccountExpirations","outputs":[{"internalType":"uint256","name":"","type":"uint256"}],"payable":false,"stateMutability":"view","type":"function"},{"constant":true,"inputs":[],"name":"whitelistGuardian","outputs":[{"internalType":"address","name":"","type":"address"}],"payable":false,"stateMutability":"view","type":"function"}],"devdoc":{"methods":{}},"evm":{"bytecode":{"linkReferences":{},"object":"608060405234801561001057600080fd5b5061049b806100206000396000f3fe608060405234801561001057600080fd5b50600436106100ea5760003560e01c80635c60da1b1161008c578063d33219b411610066578063d33219b4146101a6578063da35c664146101ae578063f851a440146101b6578063fc4eee42146101be576100ea565b80635c60da1b1461018e578063b58131b014610196578063c5a8425d1461019e576100ea565b806317977c61116100c857806317977c611461014b578063267822471461015e57806338bd0dda146101735780633932abb114610186576100ea565b8063013cf08b146100ef57806302a251a314610121578063109d0af814610136575b600080fd5b6101026100fd366004610307565b6101c6565b6040516101189a99989796959493929190610379565b60405180910390f35b610129610229565b604051610118919061036b565b61013e61022f565b604051610118919061035d565b6101296101593660046102e1565b61023e565b610166610250565b604051610118919061034f565b6101296101813660046102e1565b61025f565b610129610271565b610166610277565b610129610286565b61016661028c565b61013e61029b565b6101296102aa565b6101666102b0565b6101296102bf565b600a60208190526000918252604090912080546001820154600283015460078401546008850154600986015496860154600b870154600c9097015495976001600160a01b0390951696939592949193919290919060ff808216916101009004168a565b60045481565b6009546001600160a01b031681565b600b6020526000908152604090205481565b6001546001600160a01b031681565b600c6020526000908152604090205481565b60035481565b6002546001600160a01b031681565b60055481565b600d546001600160a01b031681565b6008546001600160a01b031681565b60075481565b6000546001600160a01b031681565b60065481565b80356102d081610438565b92915050565b80356102d08161044f565b6000602082840312156102f357600080fd5b60006102ff84846102c5565b949350505050565b60006020828403121561031957600080fd5b60006102ff84846102d6565b61032e8161040e565b82525050565b61032e81610419565b61032e8161042d565b61032e8161042a565b602081016102d08284610325565b602081016102d0828461033d565b602081016102d08284610346565b6101408101610388828d610346565b610395602083018c610325565b6103a2604083018b610346565b6103af606083018a610346565b6103bc6080830189610346565b6103c960a0830188610346565b6103d660c0830187610346565b6103e360e0830186610346565b6103f1610100830185610334565b6103ff610120830184610334565b9b9a5050505050505050505050565b60006102d08261041e565b151590565b6001600160a01b031690565b90565b60006102d08261040e565b6104418161040e565b811461044c57600080fd5b50565b6104418161042a56fea365627a7a723158208fc9a3ffbf47c50450cb370e491f179603330414182cae3ea485790bb9147ec26c6578706572696d656e74616cf564736f6c63430005100040","opcodes":"PUSH1 0x80 PUSH1 0x40 MSTORE CALLVALUE DUP1 ISZERO PUSH2 0x10 JUMPI PUSH1 0x0 DUP1 REVERT JUMPDEST POP PUSH2 0x49B DUP1 PUSH2 0x20 PUSH1 0x0 CODECOPY PUSH1 0x0 RETURN INVALID PUSH1 0x80 PUSH1 0x40 MSTORE CALLVALUE DUP1 ISZERO PUSH2 0x10 JUMPI PUSH1 0x0 DUP1 REVERT JUMPDEST POP PUSH1 0x4 CALLDATASIZE LT PUSH2 0xEA JUMPI PUSH1 0x0 CALLDATALOAD PUSH1 0xE0 SHR DUP1 PUSH4 0x5C60DA1B GT PUSH2 0x8C JUMPI DUP1 PUSH4 0xD33219B4 GT PUSH2 0x66 JUMPI DUP1 PUSH4 0xD33219B4 EQ PUSH2 0x1A6 JUMPI DUP1 PUSH4 0xDA35C664 EQ PUSH2 0x1AE JUMPI DUP1 PUSH4 0xF851A440 EQ PUSH2 0x1B6 JUMPI DUP1 PUSH4 0xFC4EEE42 EQ PUSH2 0x1BE JUMPI PUSH2 0xEA JUMP JUMPDEST DUP1 PUSH4 0x5C60DA1B EQ PUSH2 0x18E JUMPI DUP1 PUSH4 0xB58131B0 EQ PUSH2 0x196 JUMPI DUP1 PUSH4 0xC5A8425D EQ PUSH2 0x19E JUMPI PUSH2 0xEA JUMP JUMPDEST DUP1 PUSH4 0x17977C61 GT PUSH2 0xC8 JUMPI DUP1 PUSH4 0x17977C61 EQ PUSH2 0x14B JUMPI DUP1 PUSH4 0x26782247 EQ PUSH2 0x15E JUMPI DUP1 PUSH4 0x38BD0DDA EQ PUSH2 0x173 JUMPI DUP1 PUSH4 0x3932ABB1 EQ PUSH2 0x186 JUMPI PUSH2 0xEA JUMP JUMPDEST DUP1 PUSH4 0x13CF08B EQ PUSH2 0xEF JUMPI DUP1 PUSH4 0x2A251A3 EQ PUSH2 0x121 JUMPI DUP1 PUSH4 0x109D0AF8 EQ PUSH2 0x136 JUMPI JUMPDEST PUSH1 0x0 DUP1 REVERT JUMPDEST PUSH2 0x102 PUSH2 0xFD CALLDATASIZE PUSH1 0x4 PUSH2 0x307 JUMP JUMPDEST PUSH2 0x1C6 JUMP JUMPDEST PUSH1 0x40 MLOAD PUSH2 0x118 SWAP11 SWAP10 SWAP9 SWAP8 SWAP7 SWAP6 SWAP5 SWAP4 SWAP3 SWAP2 SWAP1 PUSH2 0x379 JUMP JUMPDEST PUSH1 0x40 MLOAD DUP1 SWAP2 SUB SWAP1 RETURN JUMPDEST PUSH2 0x129 PUSH2 0x229 JUMP JUMPDEST PUSH1 0x40 MLOAD PUSH2 0x118 SWAP2 SWAP1 PUSH2 0x36B JUMP JUMPDEST PUSH2 0x13E PUSH2 0x22F JUMP JUMPDEST PUSH1 0x40 MLOAD PUSH2 0x118 SWAP2 SWAP1 PUSH2 0x35D JUMP JUMPDEST PUSH2 0x129 PUSH2 0x159 CALLDATASIZE PUSH1 0x4 PUSH2 0x2E1 JUMP JUMPDEST PUSH2 0x23E JUMP JUMPDEST PUSH2 0x166 PUSH2 0x250 JUMP JUMPDEST PUSH1 0x40 MLOAD PUSH2 0x118 SWAP2 SWAP1 PUSH2 0x34F JUMP JUMPDEST PUSH2 0x129 PUSH2 0x181 CALLDATASIZE PUSH1 0x4 PUSH2 0x2E1 JUMP JUMPDEST PUSH2 0x25F JUMP JUMPDEST PUSH2 0x129 PUSH2 0x271 JUMP JUMPDEST PUSH2 0x166 PUSH2 0x277 JUMP JUMPDEST PUSH2 0x129 PUSH2 0x286 JUMP JUMPDEST PUSH2 0x166 PUSH2 0x28C JUMP JUMPDEST PUSH2 0x13E PUSH2 0x29B JUMP JUMPDEST PUSH2 0x129 PUSH2 0x2AA JUMP JUMPDEST PUSH2 0x166 PUSH2 0x2B0 JUMP JUMPDEST PUSH2 0x129 PUSH2 0x2BF JUMP JUMPDEST PUSH1 0xA PUSH1 0x20 DUP2 SWAP1 MSTORE PUSH1 0x0 SWAP2 DUP3 MSTORE PUSH1 0x40 SWAP1 SWAP2 KECCAK256 DUP1 SLOAD PUSH1 0x1 DUP3 ADD SLOAD PUSH1 0x2 DUP4 ADD SLOAD PUSH1 0x7 DUP5 ADD SLOAD PUSH1 0x8 DUP6 ADD SLOAD PUSH1 0x9 DUP7 ADD SLOAD SWAP7 DUP7 ADD SLOAD PUSH1 0xB DUP8 ADD SLOAD PUSH1 0xC SWAP1 SWAP8 ADD SLOAD SWAP6 SWAP8 PUSH1 0x1 PUSH1 0x1 PUSH1 0xA0 SHL SUB SWAP1 SWAP6 AND SWAP7 SWAP4 SWAP6 SWAP3 SWAP5 SWAP2 SWAP4 SWAP2 SWAP3 SWAP1 SWAP2 SWAP1 PUSH1 0xFF DUP1 DUP3 AND SWAP2 PUSH2 0x100 SWAP1 DIV AND DUP11 JUMP JUMPDEST PUSH1 0x4 SLOAD DUP2 JUMP JUMPDEST PUSH1 0x9 SLOAD PUSH1 0x1 PUSH1 0x1 PUSH1 0xA0 SHL SUB AND DUP2 JUMP JUMPDEST PUSH1 0xB PUSH1 0x20 MSTORE PUSH1 0x0 SWAP1 DUP2 MSTORE PUSH1 0x40 SWAP1 KECCAK256 SLOAD DUP2 JUMP JUMPDEST PUSH1 0x1 SLOAD PUSH1 0x1 PUSH1 0x1 PUSH1 0xA0 SHL SUB AND DUP2 JUMP JUMPDEST PUSH1 0xC PUSH1 0x20 MSTORE PUSH1 0x0 SWAP1 DUP2 MSTORE PUSH1 0x40 SWAP1 KECCAK256 SLOAD DUP2 JUMP JUMPDEST PUSH1 0x3 SLOAD DUP2 JUMP JUMPDEST PUSH1 0x2 SLOAD PUSH1 0x1 PUSH1 0x1 PUSH1 0xA0 SHL SUB AND DUP2 JUMP JUMPDEST PUSH1 0x5 SLOAD DUP2 JUMP JUMPDEST PUSH1 0xD SLOAD PUSH1 0x1 PUSH1 0x1 PUSH1 0xA0 SHL SUB AND DUP2 JUMP JUMPDEST PUSH1 0x8 SLOAD PUSH1 0x1 PUSH1 0x1 PUSH1 0xA0 SHL SUB AND DUP2 JUMP JUMPDEST PUSH1 0x7 SLOAD DUP2 JUMP JUMPDEST PUSH1 0x0 SLOAD PUSH1 0x1 PUSH1 0x1 PUSH1 0xA0 SHL SUB AND DUP2 JUMP JUMPDEST PUSH1 0x6 SLOAD DUP2 JUMP JUMPDEST DUP1 CALLDATALOAD PUSH2 0x2D0 DUP2 PUSH2 0x438 JUMP JUMPDEST SWAP3 SWAP2 POP POP JUMP JUMPDEST DUP1 CALLDATALOAD PUSH2 0x2D0 DUP2 PUSH2 0x44F JUMP JUMPDEST PUSH1 0x0 PUSH1 0x20 DUP3 DUP5 SUB SLT ISZERO PUSH2 0x2F3 JUMPI PUSH1 0x0 DUP1 REVERT JUMPDEST PUSH1 0x0 PUSH2 0x2FF DUP5 DUP5 PUSH2 0x2C5 JUMP JUMPDEST SWAP5 SWAP4 POP POP POP POP JUMP JUMPDEST PUSH1 0x0 PUSH1 0x20 DUP3 DUP5 SUB SLT ISZERO PUSH2 0x319 JUMPI PUSH1 0x0 DUP1 REVERT JUMPDEST PUSH1 0x0 PUSH2 0x2FF DUP5 DUP5 PUSH2 0x2D6 JUMP JUMPDEST PUSH2 0x32E DUP2 PUSH2 0x40E JUMP JUMPDEST DUP3 MSTORE POP POP JUMP JUMPDEST PUSH2 0x32E DUP2 PUSH2 0x419 JUMP JUMPDEST PUSH2 0x32E DUP2 PUSH2 0x42D JUMP JUMPDEST PUSH2 0x32E DUP2 PUSH2 0x42A JUMP JUMPDEST PUSH1 0x20 DUP2 ADD PUSH2 0x2D0 DUP3 DUP5 PUSH2 0x325 JUMP JUMPDEST PUSH1 0x20 DUP2 ADD PUSH2 0x2D0 DUP3 DUP5 PUSH2 0x33D JUMP JUMPDEST PUSH1 0x20 DUP2 ADD PUSH2 0x2D0 DUP3 DUP5 PUSH2 0x346 JUMP JUMPDEST PUSH2 0x140 DUP2 ADD PUSH2 0x388 DUP3 DUP14 PUSH2 0x346 JUMP JUMPDEST PUSH2 0x395 PUSH1 0x20 DUP4 ADD DUP13 PUSH2 0x325 JUMP JUMPDEST PUSH2 0x3A2 PUSH1 0x40 DUP4 ADD DUP12 PUSH2 0x346 JUMP JUMPDEST PUSH2 0x3AF PUSH1 0x60 DUP4 ADD DUP11 PUSH2 0x346 JUMP JUMPDEST PUSH2 0x3BC PUSH1 0x80 DUP4 ADD DUP10 PUSH2 0x346 JUMP JUMPDEST PUSH2 0x3C9 PUSH1 0xA0 DUP4 ADD DUP9 PUSH2 0x346 JUMP JUMPDEST PUSH2 0x3D6 PUSH1 0xC0 DUP4 ADD DUP8 PUSH2 0x346 JUMP JUMPDEST PUSH2 0x3E3 PUSH1 0xE0 DUP4 ADD DUP7 PUSH2 0x346 JUMP JUMPDEST PUSH2 0x3F1 PUSH2 0x100 DUP4 ADD DUP6 PUSH2 0x334 JUMP JUMPDEST PUSH2 0x3FF PUSH2 0x120 DUP4 ADD DUP5 PUSH2 0x334 JUMP JUMPDEST SWAP12 SWAP11 POP POP POP POP POP POP POP POP POP POP POP JUMP JUMPDEST PUSH1 0x0 PUSH2 0x2D0 DUP3 PUSH2 0x41E JUMP JUMPDEST ISZERO ISZERO SWAP1 JUMP JUMPDEST PUSH1 0x1 PUSH1 0x1 PUSH1 0xA0 SHL SUB AND SWAP1 JUMP JUMPDEST SWAP1 JUMP JUMPDEST PUSH1 0x0 PUSH2 0x2D0 DUP3 PUSH2 0x40E JUMP JUMPDEST PUSH2 0x441 DUP2 PUSH2 0x40E JUMP JUMPDEST DUP2 EQ PUSH2 0x44C JUMPI PUSH1 0x0 DUP1 REVERT JUMPDEST POP JUMP JUMPDEST PUSH2 0x441 DUP2 PUSH2 0x42A JUMP INVALID LOG3 PUSH6 0x627A7A723158 KECCAK256 DUP16 0xC9 LOG3 SELFDESTRUCT 0xBF SELFBALANCE 0xC5 DIV POP 0xCB CALLDATACOPY 0xE 0x49 0x1F OR SWAP7 SUB CALLER DIV EQ XOR 0x2C 0xAE RETURNDATACOPY LOG4 DUP6 PUSH26 0xBB9147EC26C6578706572696D656E74616CF564736F6C634300 SDIV LT STOP BLOCKHASH "},"gasEstimates":{"creation":{"codeDepositCost":"235800","executionCost":"275","totalCost":"236075"},"external":{"admin()":"infinite","comp()":"infinite","implementation()":"infinite","initialProposalId()":"1187","latestProposalIds(address)":"infinite","pendingAdmin()":"infinite","proposalCount()":"1143","proposalThreshold()":"1144","proposals(uint256)":"infinite","timelock()":"infinite","votingDelay()":"1188","votingPeriod()":"1145","whitelistAccountExpirations(address)":"infinite","whitelistGuardian()":"infinite"}},"methodIdentifiers":{"admin()":"f851a440","comp()":"109d0af8","implementation()":"5c60da1b","initialProposalId()":"fc4eee42","latestProposalIds(address)":"17977c61","pendingAdmin()":"26782247","proposalCount()":"da35c664","proposalThreshold()":"b58131b0","proposals(uint256)":"013cf08b","timelock()":"d33219b4","votingDelay()":"3932abb1","votingPeriod()":"02a251a3","whitelistAccountExpirations(address)":"38bd0dda","whitelistGuardian()":"c5a8425d"}},"storageLayout":{"storage":[{"astId":4540,"contract":"contracts/Governance/GovernorBravoInterfaces.sol:GovernorBravoDelegateStorageV2","label":"admin","offset":0,"slot":"0","type":"t_address"},{"astId":4542,"contract":"contracts/Governance/GovernorBravoInterfaces.sol:GovernorBravoDelegateStorageV2","label":"pendingAdmin","offset":0,"slot":"1","type":"t_address"},{"astId":4544,"contract":"contracts/Governance/GovernorBravoInterfaces.sol:GovernorBravoDelegateStorageV2","label":"implementation","offset":0,"slot":"2","type":"t_address"},{"astId":4549,"contract":"contracts/Governance/GovernorBravoInterfaces.sol:GovernorBravoDelegateStorageV2","label":"votingDelay","offset":0,"slot":"3","type":"t_uint256"},{"astId":4551,"contract":"contracts/Governance/GovernorBravoInterfaces.sol:GovernorBravoDelegateStorageV2","label":"votingPeriod","offset":0,"slot":"4","type":"t_uint256"},{"astId":4553,"contract":"contracts/Governance/GovernorBravoInterfaces.sol:GovernorBravoDelegateStorageV2","label":"proposalThreshold","offset":0,"slot":"5","type":"t_uint256"},{"astId":4555,"contract":"contracts/Governance/GovernorBravoInterfaces.sol:GovernorBravoDelegateStorageV2","label":"initialProposalId","offset":0,"slot":"6","type":"t_uint256"},{"astId":4557,"contract":"contracts/Governance/GovernorBravoInterfaces.sol:GovernorBravoDelegateStorageV2","label":"proposalCount","offset":0,"slot":"7","type":"t_uint256"},{"astId":4559,"contract":"contracts/Governance/GovernorBravoInterfaces.sol:GovernorBravoDelegateStorageV2","label":"timelock","offset":0,"slot":"8","type":"t_contract(TimelockInterface)4696"},{"astId":4561,"contract":"contracts/Governance/GovernorBravoInterfaces.sol:GovernorBravoDelegateStorageV2","label":"comp","offset":0,"slot":"9","type":"t_contract(CompInterface)4706"},{"astId":4565,"contract":"contracts/Governance/GovernorBravoInterfaces.sol:GovernorBravoDelegateStorageV2","label":"proposals","offset":0,"slot":"10","type":"t_mapping(t_uint256,t_struct(Proposal)4606_storage)"},{"astId":4569,"contract":"contracts/Governance/GovernorBravoInterfaces.sol:GovernorBravoDelegateStorageV2","label":"latestProposalIds","offset":0,"slot":"11","type":"t_mapping(t_address,t_uint256)"},{"astId":4629,"contract":"contracts/Governance/GovernorBravoInterfaces.sol:GovernorBravoDelegateStorageV2","label":"whitelistAccountExpirations","offset":0,"slot":"12","type":"t_mapping(t_address,t_uint256)"},{"astId":4631,"contract":"contracts/Governance/GovernorBravoInterfaces.sol:GovernorBravoDelegateStorageV2","label":"whitelistGuardian","offset":0,"slot":"13","type":"t_address"}],"types":{"t_address":{"encoding":"inplace","label":"address","numberOfBytes":"20"},"t_array(t_address)dyn_storage":{"base":"t_address","encoding":"dynamic_array","label":"address[]","numberOfBytes":"32"},"t_array(t_bytes_storage)dyn_storage":{"base":"t_bytes_storage","encoding":"dynamic_array","label":"bytes[]","numberOfBytes":"32"},"t_array(t_string_storage)dyn_storage":{"base":"t_string_storage","encoding":"dynamic_array","label":"string[]","numberOfBytes":"32"},"t_array(t_uint256)dyn_storage":{"base":"t_uint256","encoding":"dynamic_array","label":"uint256[]","numberOfBytes":"32"},"t_bool":{"encoding":"inplace","label":"bool","numberOfBytes":"1"},"t_bytes_storage":{"encoding":"bytes","label":"bytes","numberOfBytes":"32"},"t_contract(CompInterface)4706":{"encoding":"inplace","label":"contract CompInterface","numberOfBytes":"20"},"t_contract(TimelockInterface)4696":{"encoding":"inplace","label":"contract TimelockInterface","numberOfBytes":"20"},"t_mapping(t_address,t_struct(Receipt)4613_storage)":{"encoding":"mapping","key":"t_address","label":"mapping(address => struct GovernorBravoDelegateStorageV1.Receipt)","numberOfBytes":"32","value":"t_struct(Receipt)4613_storage"},"t_mapping(t_address,t_uint256)":{"encoding":"mapping","key":"t_address","label":"mapping(address => uint256)","numberOfBytes":"32","value":"t_uint256"},"t_mapping(t_uint256,t_struct(Proposal)4606_storage)":{"encoding":"mapping","key":"t_uint256","label":"mapping(uint256 => struct GovernorBravoDelegateStorageV1.Proposal)","numberOfBytes":"32","value":"t_struct(Proposal)4606_storage"},"t_string_storage":{"encoding":"bytes","label":"string","numberOfBytes":"32"},"t_struct(Proposal)4606_storage":{"encoding":"inplace","label":"struct GovernorBravoDelegateStorageV1.Proposal","members":[{"astId":4571,"contract":"contracts/Governance/GovernorBravoInterfaces.sol:GovernorBravoDelegateStorageV2","label":"id","offset":0,"slot":"0","type":"t_uint256"},{"astId":4573,"contract":"contracts/Governance/GovernorBravoInterfaces.sol:GovernorBravoDelegateStorageV2","label":"proposer","offset":0,"slot":"1","type":"t_address"},{"astId":4575,"contract":"contracts/Governance/GovernorBravoInterfaces.sol:GovernorBravoDelegateStorageV2","label":"eta","offset":0,"slot":"2","type":"t_uint256"},{"astId":4578,"contract":"contracts/Governance/GovernorBravoInterfaces.sol:GovernorBravoDelegateStorageV2","label":"targets","offset":0,"slot":"3","type":"t_array(t_address)dyn_storage"},{"astId":4581,"contract":"contracts/Governance/GovernorBravoInterfaces.sol:GovernorBravoDelegateStorageV2","label":"values","offset":0,"slot":"4","type":"t_array(t_uint256)dyn_storage"},{"astId":4584,"contract":"contracts/Governance/GovernorBravoInterfaces.sol:GovernorBravoDelegateStorageV2","label":"signatures","offset":0,"slot":"5","type":"t_array(t_string_storage)dyn_storage"},{"astId":4587,"contract":"contracts/Governance/GovernorBravoInterfaces.sol:GovernorBravoDelegateStorageV2","label":"calldatas","offset":0,"slot":"6","type":"t_array(t_bytes_storage)dyn_storage"},{"astId":4589,"contract":"contracts/Governance/GovernorBravoInterfaces.sol:GovernorBravoDelegateStorageV2","label":"startBlock","offset":0,"slot":"7","type":"t_uint256"},{"astId":4591,"contract":"contracts/Governance/GovernorBravoInterfaces.sol:GovernorBravoDelegateStorageV2","label":"endBlock","offset":0,"slot":"8","type":"t_uint256"},{"astId":4593,"contract":"contracts/Governance/GovernorBravoInterfaces.sol:GovernorBravoDelegateStorageV2","label":"forVotes","offset":0,"slot":"9","type":"t_uint256"},{"astId":4595,"contract":"contracts/Governance/GovernorBravoInterfaces.sol:GovernorBravoDelegateStorageV2","label":"againstVotes","offset":0,"slot":"10","type":"t_uint256"},{"astId":4597,"contract":"contracts/Governance/GovernorBravoInterfaces.sol:GovernorBravoDelegateStorageV2","label":"abstainVotes","offset":0,"slot":"11","type":"t_uint256"},{"astId":4599,"contract":"contracts/Governance/GovernorBravoInterfaces.sol:GovernorBravoDelegateStorageV2","label":"canceled","offset":0,"slot":"12","type":"t_bool"},{"astId":4601,"contract":"contracts/Governance/GovernorBravoInterfaces.sol:GovernorBravoDelegateStorageV2","label":"executed","offset":1,"slot":"12","type":"t_bool"},{"astId":4605,"contract":"contracts/Governance/GovernorBravoInterfaces.sol:GovernorBravoDelegateStorageV2","label":"receipts","offset":0,"slot":"13","type":"t_mapping(t_address,t_struct(Receipt)4613_storage)"}],"numberOfBytes":"448"},"t_struct(Receipt)4613_storage":{"encoding":"inplace","label":"struct GovernorBravoDelegateStorageV1.Receipt","members":[{"astId":4608,"contract":"contracts/Governance/GovernorBravoInterfaces.sol:GovernorBravoDelegateStorageV2","label":"hasVoted","offset":0,"slot":"0","type":"t_bool"},{"astId":4610,"contract":"contracts/Governance/GovernorBravoInterfaces.sol:GovernorBravoDelegateStorageV2","label":"support","offset":1,"slot":"0","type":"t_uint8"},{"astId":4612,"contract":"contracts/Governance/GovernorBravoInterfaces.sol:GovernorBravoDelegateStorageV2","label":"votes","offset":2,"slot":"0","type":"t_uint96"}],"numberOfBytes":"32"},"t_uint256":{"encoding":"inplace","label":"uint256","numberOfBytes":"32"},"t_uint8":{"encoding":"inplace","label":"uint8","numberOfBytes":"1"},"t_uint96":{"encoding":"inplace","label":"uint96","numberOfBytes":"12"}}},"userdoc":{"methods":{}}}}}