{"contracts/Governance/GovernorBravoDelegator.sol":{"GovernorBravoDelegator":{"abi":[{"inputs":[{"internalType":"address","name":"timelock_","type":"address"},{"internalType":"address","name":"comp_","type":"address"},{"internalType":"address","name":"admin_","type":"address"},{"internalType":"address","name":"implementation_","type":"address"},{"internalType":"uint256","name":"votingPeriod_","type":"uint256"},{"internalType":"uint256","name":"votingDelay_","type":"uint256"},{"internalType":"uint256","name":"proposalThreshold_","type":"uint256"}],"payable":false,"stateMutability":"nonpayable","type":"constructor"},{"anonymous":false,"inputs":[{"indexed":false,"internalType":"address","name":"oldAdmin","type":"address"},{"indexed":false,"internalType":"address","name":"newAdmin","type":"address"}],"name":"NewAdmin","type":"event"},{"anonymous":false,"inputs":[{"indexed":false,"internalType":"address","name":"oldImplementation","type":"address"},{"indexed":false,"internalType":"address","name":"newImplementation","type":"address"}],"name":"NewImplementation","type":"event"},{"anonymous":false,"inputs":[{"indexed":false,"internalType":"address","name":"oldPendingAdmin","type":"address"},{"indexed":false,"internalType":"address","name":"newPendingAdmin","type":"address"}],"name":"NewPendingAdmin","type":"event"},{"anonymous":false,"inputs":[{"indexed":false,"internalType":"uint256","name":"id","type":"uint256"}],"name":"ProposalCanceled","type":"event"},{"anonymous":false,"inputs":[{"indexed":false,"internalType":"uint256","name":"id","type":"uint256"},{"indexed":false,"internalType":"address","name":"proposer","type":"address"},{"indexed":false,"internalType":"address[]","name":"targets","type":"address[]"},{"indexed":false,"internalType":"uint256[]","name":"values","type":"uint256[]"},{"indexed":false,"internalType":"string[]","name":"signatures","type":"string[]"},{"indexed":false,"internalType":"bytes[]","name":"calldatas","type":"bytes[]"},{"indexed":false,"internalType":"uint256","name":"startBlock","type":"uint256"},{"indexed":false,"internalType":"uint256","name":"endBlock","type":"uint256"},{"indexed":false,"internalType":"string","name":"description","type":"string"}],"name":"ProposalCreated","type":"event"},{"anonymous":false,"inputs":[{"indexed":false,"internalType":"uint256","name":"id","type":"uint256"}],"name":"ProposalExecuted","type":"event"},{"anonymous":false,"inputs":[{"indexed":false,"internalType":"uint256","name":"id","type":"uint256"},{"indexed":false,"internalType":"uint256","name":"eta","type":"uint256"}],"name":"ProposalQueued","type":"event"},{"anonymous":false,"inputs":[{"indexed":false,"internalType":"uint256","name":"oldProposalThreshold","type":"uint256"},{"indexed":false,"internalType":"uint256","name":"newProposalThreshold","type":"uint256"}],"name":"ProposalThresholdSet","type":"event"},{"anonymous":false,"inputs":[{"indexed":true,"internalType":"address","name":"voter","type":"address"},{"indexed":false,"internalType":"uint256","name":"proposalId","type":"uint256"},{"indexed":false,"internalType":"uint8","name":"support","type":"uint8"},{"indexed":false,"internalType":"uint256","name":"votes","type":"uint256"},{"indexed":false,"internalType":"string","name":"reason","type":"string"}],"name":"VoteCast","type":"event"},{"anonymous":false,"inputs":[{"indexed":false,"internalType":"uint256","name":"oldVotingDelay","type":"uint256"},{"indexed":false,"internalType":"uint256","name":"newVotingDelay","type":"uint256"}],"name":"VotingDelaySet","type":"event"},{"anonymous":false,"inputs":[{"indexed":false,"internalType":"uint256","name":"oldVotingPeriod","type":"uint256"},{"indexed":false,"internalType":"uint256","name":"newVotingPeriod","type":"uint256"}],"name":"VotingPeriodSet","type":"event"},{"anonymous":false,"inputs":[{"indexed":false,"internalType":"address","name":"account","type":"address"},{"indexed":false,"internalType":"uint256","name":"expiration","type":"uint256"}],"name":"WhitelistAccountExpirationSet","type":"event"},{"anonymous":false,"inputs":[{"indexed":false,"internalType":"address","name":"oldGuardian","type":"address"},{"indexed":false,"internalType":"address","name":"newGuardian","type":"address"}],"name":"WhitelistGuardianSet","type":"event"},{"payable":true,"stateMutability":"payable","type":"fallback"},{"constant":false,"inputs":[{"internalType":"address","name":"implementation_","type":"address"}],"name":"_setImplementation","outputs":[],"payable":false,"stateMutability":"nonpayable","type":"function"},{"constant":true,"inputs":[],"name":"admin","outputs":[{"internalType":"address","name":"","type":"address"}],"payable":false,"stateMutability":"view","type":"function"},{"constant":true,"inputs":[],"name":"implementation","outputs":[{"internalType":"address","name":"","type":"address"}],"payable":false,"stateMutability":"view","type":"function"},{"constant":true,"inputs":[],"name":"pendingAdmin","outputs":[{"internalType":"address","name":"","type":"address"}],"payable":false,"stateMutability":"view","type":"function"}],"devdoc":{"methods":{"_setImplementation(address)":{"params":{"implementation_":"The address of the new implementation for delegation"}}}},"evm":{"bytecode":{"linkReferences":{},"object":"60806040523480156200001157600080fd5b506040516200096d3803806200096d83398101604081905262000034916200023c565b600080546001600160a01b031916331790556040516200009c90859062000068908a908a908890889088906024016200041f565b60408051601f198184030181529190526020810180516001600160e01b0390811663344fe42d60e21b17909152620000de16565b620000b0846001600160e01b036200015a16565b5050600080546001600160a01b0319166001600160a01b039490941693909317909255506200051492505050565b60006060836001600160a01b031683604051620000fc9190620003eb565b600060405180830381855af49150503d806000811462000139576040519150601f19603f3d011682016040523d82523d6000602084013e6200013e565b606091505b5091509150600082141562000154573d60208201fd5b50505050565b6000546001600160a01b03163314620001905760405162461bcd60e51b8152600401620001879062000487565b60405180910390fd5b6001600160a01b038116620001b95760405162461bcd60e51b8152600401620001879062000475565b600280546001600160a01b038381166001600160a01b031983161792839055604051918116927fd604de94d45953f9138079ec1b82d533cb2160c906d1076d1f7ed54befbca97a9262000210928592169062000400565b60405180910390a15050565b80516200022981620004ef565b92915050565b8051620002298162000509565b600080600080600080600060e0888a0312156200025857600080fd5b6000620002668a8a6200021c565b9750506020620002798a828b016200021c565b96505060406200028c8a828b016200021c565b95505060606200029f8a828b016200021c565b9450506080620002b28a828b016200022f565b93505060a0620002c58a828b016200022f565b92505060c0620002d88a828b016200022f565b91505092959891949750929550565b620002f281620004ab565b82525050565b6000620003058262000499565b6200031181856200049d565b935062000323818560208601620004c0565b9290920192915050565b60006200033c604a83620004a2565b6000805160206200094d83398151915281527f656d656e746174696f6e3a20696e76616c696420696d706c656d656e746174696020820152696f6e206164647265737360b01b604082015260600192915050565b60006200039f603683620004a2565b6000805160206200094d83398151915281527f656d656e746174696f6e3a2061646d696e206f6e6c7900000000000000000000602082015260400192915050565b620002f281620004bd565b6000620003f98284620002f8565b9392505050565b60408101620004108285620002e7565b620003f96020830184620002e7565b60a081016200042f8288620002e7565b6200043e6020830187620002e7565b6200044d6040830186620003e0565b6200045c6060830185620003e0565b6200046b6080830184620003e0565b9695505050505050565b6020808252810162000229816200032d565b60208082528101620002298162000390565b5190565b919050565b90815260200190565b60006001600160a01b03821662000229565b90565b60005b83811015620004dd578181015183820152602001620004c3565b83811115620001545750506000910152565b620004fa81620004ab565b81146200050657600080fd5b50565b620004fa81620004bd565b61042980620005246000396000f3fe60806040526004361061003f5760003560e01c806326782247146100ba5780635c60da1b146100e5578063bb913f41146100fa578063f851a4401461011c575b6002546040516000916001600160a01b03169061005f9083903690610347565b600060405180830381855af49150503d806000811461009a576040519150601f19603f3d011682016040523d82523d6000602084013e61009f565b606091505b505090506040513d6000823e8180156100b6573d82f35b3d82fd5b3480156100c657600080fd5b506100cf610131565b6040516100dc9190610354565b60405180910390f35b3480156100f157600080fd5b506100cf610140565b34801561010657600080fd5b5061011a610115366004610229565b61014f565b005b34801561012857600080fd5b506100cf610209565b6001546001600160a01b031681565b6002546001600160a01b031681565b6000546001600160a01b031633146101825760405162461bcd60e51b815260040161017990610394565b60405180910390fd5b6001600160a01b0381166101a85760405162461bcd60e51b815260040161017990610384565b600280546001600160a01b038381166001600160a01b031983161792839055604051918116927fd604de94d45953f9138079ec1b82d533cb2160c906d1076d1f7ed54befbca97a926101fd9285921690610362565b60405180910390a15050565b6000546001600160a01b031681565b8035610223816103cf565b92915050565b60006020828403121561023b57600080fd5b60006102478484610218565b949350505050565b610258816103b2565b82525050565b600061026a83856103a4565b93506102778385846103c3565b50500190565b600061028a604a836103a9565b7f476f7665726e6f72427261766f44656c656761746f723a3a5f736574496d706c81527f656d656e746174696f6e3a20696e76616c696420696d706c656d656e746174696020820152696f6e206164647265737360b01b604082015260600192915050565b60006102fc6036836103a9565b7f476f7665726e6f72427261766f44656c656761746f723a3a5f736574496d706c815275656d656e746174696f6e3a2061646d696e206f6e6c7960501b602082015260400192915050565b600061024782848661025e565b60208101610223828461024f565b60408101610370828561024f565b61037d602083018461024f565b9392505050565b602080825281016102238161027d565b60208082528101610223816102ef565b919050565b90815260200190565b60006001600160a01b038216610223565b82818337506000910152565b6103d8816103b2565b81146103e357600080fd5b5056fea365627a7a72315820b359202edb4833ba0cb5ad4a1c51282b3326c8ceadcc9a2e9b9ec05fc4b5759e6c6578706572696d656e74616cf564736f6c63430005100040476f7665726e6f72427261766f44656c656761746f723a3a5f736574496d706c","opcodes":"PUSH1 0x80 PUSH1 0x40 MSTORE CALLVALUE DUP1 ISZERO PUSH3 0x11 JUMPI PUSH1 0x0 DUP1 REVERT JUMPDEST POP PUSH1 0x40 MLOAD PUSH3 0x96D CODESIZE SUB DUP1 PUSH3 0x96D DUP4 CODECOPY DUP2 ADD PUSH1 0x40 DUP2 SWAP1 MSTORE PUSH3 0x34 SWAP2 PUSH3 0x23C JUMP JUMPDEST PUSH1 0x0 DUP1 SLOAD PUSH1 0x1 PUSH1 0x1 PUSH1 0xA0 SHL SUB NOT AND CALLER OR SWAP1 SSTORE PUSH1 0x40 MLOAD PUSH3 0x9C SWAP1 DUP6 SWAP1 PUSH3 0x68 SWAP1 DUP11 SWAP1 DUP11 SWAP1 DUP9 SWAP1 DUP9 SWAP1 DUP9 SWAP1 PUSH1 0x24 ADD PUSH3 0x41F JUMP JUMPDEST PUSH1 0x40 DUP1 MLOAD PUSH1 0x1F NOT DUP2 DUP5 SUB ADD DUP2 MSTORE SWAP2 SWAP1 MSTORE PUSH1 0x20 DUP2 ADD DUP1 MLOAD PUSH1 0x1 PUSH1 0x1 PUSH1 0xE0 SHL SUB SWAP1 DUP2 AND PUSH4 0x344FE42D PUSH1 0xE2 SHL OR SWAP1 SWAP2 MSTORE PUSH3 0xDE AND JUMP JUMPDEST PUSH3 0xB0 DUP5 PUSH1 0x1 PUSH1 0x1 PUSH1 0xE0 SHL SUB PUSH3 0x15A AND JUMP JUMPDEST POP POP PUSH1 0x0 DUP1 SLOAD PUSH1 0x1 PUSH1 0x1 PUSH1 0xA0 SHL SUB NOT AND PUSH1 0x1 PUSH1 0x1 PUSH1 0xA0 SHL SUB SWAP5 SWAP1 SWAP5 AND SWAP4 SWAP1 SWAP4 OR SWAP1 SWAP3 SSTORE POP PUSH3 0x514 SWAP3 POP POP POP JUMP JUMPDEST PUSH1 0x0 PUSH1 0x60 DUP4 PUSH1 0x1 PUSH1 0x1 PUSH1 0xA0 SHL SUB AND DUP4 PUSH1 0x40 MLOAD PUSH3 0xFC SWAP2 SWAP1 PUSH3 0x3EB JUMP JUMPDEST PUSH1 0x0 PUSH1 0x40 MLOAD DUP1 DUP4 SUB DUP2 DUP6 GAS DELEGATECALL SWAP2 POP POP RETURNDATASIZE DUP1 PUSH1 0x0 DUP2 EQ PUSH3 0x139 JUMPI PUSH1 0x40 MLOAD SWAP2 POP PUSH1 0x1F NOT PUSH1 0x3F RETURNDATASIZE ADD AND DUP3 ADD PUSH1 0x40 MSTORE RETURNDATASIZE DUP3 MSTORE RETURNDATASIZE PUSH1 0x0 PUSH1 0x20 DUP5 ADD RETURNDATACOPY PUSH3 0x13E JUMP JUMPDEST PUSH1 0x60 SWAP2 POP JUMPDEST POP SWAP2 POP SWAP2 POP PUSH1 0x0 DUP3 EQ ISZERO PUSH3 0x154 JUMPI RETURNDATASIZE PUSH1 0x20 DUP3 ADD REVERT JUMPDEST POP POP POP POP JUMP JUMPDEST PUSH1 0x0 SLOAD PUSH1 0x1 PUSH1 0x1 PUSH1 0xA0 SHL SUB AND CALLER EQ PUSH3 0x190 JUMPI PUSH1 0x40 MLOAD PUSH3 0x461BCD PUSH1 0xE5 SHL DUP2 MSTORE PUSH1 0x4 ADD PUSH3 0x187 SWAP1 PUSH3 0x487 JUMP JUMPDEST PUSH1 0x40 MLOAD DUP1 SWAP2 SUB SWAP1 REVERT JUMPDEST PUSH1 0x1 PUSH1 0x1 PUSH1 0xA0 SHL SUB DUP2 AND PUSH3 0x1B9 JUMPI PUSH1 0x40 MLOAD PUSH3 0x461BCD PUSH1 0xE5 SHL DUP2 MSTORE PUSH1 0x4 ADD PUSH3 0x187 SWAP1 PUSH3 0x475 JUMP JUMPDEST PUSH1 0x2 DUP1 SLOAD PUSH1 0x1 PUSH1 0x1 PUSH1 0xA0 SHL SUB DUP4 DUP2 AND PUSH1 0x1 PUSH1 0x1 PUSH1 0xA0 SHL SUB NOT DUP4 AND OR SWAP3 DUP4 SWAP1 SSTORE PUSH1 0x40 MLOAD SWAP2 DUP2 AND SWAP3 PUSH32 0xD604DE94D45953F9138079EC1B82D533CB2160C906D1076D1F7ED54BEFBCA97A SWAP3 PUSH3 0x210 SWAP3 DUP6 SWAP3 AND SWAP1 PUSH3 0x400 JUMP JUMPDEST PUSH1 0x40 MLOAD DUP1 SWAP2 SUB SWAP1 LOG1 POP POP JUMP JUMPDEST DUP1 MLOAD PUSH3 0x229 DUP2 PUSH3 0x4EF JUMP JUMPDEST SWAP3 SWAP2 POP POP JUMP JUMPDEST DUP1 MLOAD PUSH3 0x229 DUP2 PUSH3 0x509 JUMP JUMPDEST PUSH1 0x0 DUP1 PUSH1 0x0 DUP1 PUSH1 0x0 DUP1 PUSH1 0x0 PUSH1 0xE0 DUP9 DUP11 SUB SLT ISZERO PUSH3 0x258 JUMPI PUSH1 0x0 DUP1 REVERT JUMPDEST PUSH1 0x0 PUSH3 0x266 DUP11 DUP11 PUSH3 0x21C JUMP JUMPDEST SWAP8 POP POP PUSH1 0x20 PUSH3 0x279 DUP11 DUP3 DUP12 ADD PUSH3 0x21C JUMP JUMPDEST SWAP7 POP POP PUSH1 0x40 PUSH3 0x28C DUP11 DUP3 DUP12 ADD PUSH3 0x21C JUMP JUMPDEST SWAP6 POP POP PUSH1 0x60 PUSH3 0x29F DUP11 DUP3 DUP12 ADD PUSH3 0x21C JUMP JUMPDEST SWAP5 POP POP PUSH1 0x80 PUSH3 0x2B2 DUP11 DUP3 DUP12 ADD PUSH3 0x22F JUMP JUMPDEST SWAP4 POP POP PUSH1 0xA0 PUSH3 0x2C5 DUP11 DUP3 DUP12 ADD PUSH3 0x22F JUMP JUMPDEST SWAP3 POP POP PUSH1 0xC0 PUSH3 0x2D8 DUP11 DUP3 DUP12 ADD PUSH3 0x22F JUMP JUMPDEST SWAP2 POP POP SWAP3 SWAP6 SWAP9 SWAP2 SWAP5 SWAP8 POP SWAP3 SWAP6 POP JUMP JUMPDEST PUSH3 0x2F2 DUP2 PUSH3 0x4AB JUMP JUMPDEST DUP3 MSTORE POP POP JUMP JUMPDEST PUSH1 0x0 PUSH3 0x305 DUP3 PUSH3 0x499 JUMP JUMPDEST PUSH3 0x311 DUP2 DUP6 PUSH3 0x49D JUMP JUMPDEST SWAP4 POP PUSH3 0x323 DUP2 DUP6 PUSH1 0x20 DUP7 ADD PUSH3 0x4C0 JUMP JUMPDEST SWAP3 SWAP1 SWAP3 ADD SWAP3 SWAP2 POP POP JUMP JUMPDEST PUSH1 0x0 PUSH3 0x33C PUSH1 0x4A DUP4 PUSH3 0x4A2 JUMP JUMPDEST PUSH1 0x0 DUP1 MLOAD PUSH1 0x20 PUSH3 0x94D DUP4 CODECOPY DUP2 MLOAD SWAP2 MSTORE DUP2 MSTORE PUSH32 0x656D656E746174696F6E3A20696E76616C696420696D706C656D656E74617469 PUSH1 0x20 DUP3 ADD MSTORE PUSH10 0x6F6E2061646472657373 PUSH1 0xB0 SHL PUSH1 0x40 DUP3 ADD MSTORE PUSH1 0x60 ADD SWAP3 SWAP2 POP POP JUMP JUMPDEST PUSH1 0x0 PUSH3 0x39F PUSH1 0x36 DUP4 PUSH3 0x4A2 JUMP JUMPDEST PUSH1 0x0 DUP1 MLOAD PUSH1 0x20 PUSH3 0x94D DUP4 CODECOPY DUP2 MLOAD SWAP2 MSTORE DUP2 MSTORE PUSH32 0x656D656E746174696F6E3A2061646D696E206F6E6C7900000000000000000000 PUSH1 0x20 DUP3 ADD MSTORE PUSH1 0x40 ADD SWAP3 SWAP2 POP POP JUMP JUMPDEST PUSH3 0x2F2 DUP2 PUSH3 0x4BD JUMP JUMPDEST PUSH1 0x0 PUSH3 0x3F9 DUP3 DUP5 PUSH3 0x2F8 JUMP JUMPDEST SWAP4 SWAP3 POP POP POP JUMP JUMPDEST PUSH1 0x40 DUP2 ADD PUSH3 0x410 DUP3 DUP6 PUSH3 0x2E7 JUMP JUMPDEST PUSH3 0x3F9 PUSH1 0x20 DUP4 ADD DUP5 PUSH3 0x2E7 JUMP JUMPDEST PUSH1 0xA0 DUP2 ADD PUSH3 0x42F DUP3 DUP9 PUSH3 0x2E7 JUMP JUMPDEST PUSH3 0x43E PUSH1 0x20 DUP4 ADD DUP8 PUSH3 0x2E7 JUMP JUMPDEST PUSH3 0x44D PUSH1 0x40 DUP4 ADD DUP7 PUSH3 0x3E0 JUMP JUMPDEST PUSH3 0x45C PUSH1 0x60 DUP4 ADD DUP6 PUSH3 0x3E0 JUMP JUMPDEST PUSH3 0x46B PUSH1 0x80 DUP4 ADD DUP5 PUSH3 0x3E0 JUMP JUMPDEST SWAP7 SWAP6 POP POP POP POP POP POP JUMP JUMPDEST PUSH1 0x20 DUP1 DUP3 MSTORE DUP2 ADD PUSH3 0x229 DUP2 PUSH3 0x32D JUMP JUMPDEST PUSH1 0x20 DUP1 DUP3 MSTORE DUP2 ADD PUSH3 0x229 DUP2 PUSH3 0x390 JUMP JUMPDEST MLOAD SWAP1 JUMP JUMPDEST SWAP2 SWAP1 POP JUMP JUMPDEST SWAP1 DUP2 MSTORE PUSH1 0x20 ADD SWAP1 JUMP JUMPDEST PUSH1 0x0 PUSH1 0x1 PUSH1 0x1 PUSH1 0xA0 SHL SUB DUP3 AND PUSH3 0x229 JUMP JUMPDEST SWAP1 JUMP JUMPDEST PUSH1 0x0 JUMPDEST DUP4 DUP2 LT ISZERO PUSH3 0x4DD JUMPI DUP2 DUP2 ADD MLOAD DUP4 DUP3 ADD MSTORE PUSH1 0x20 ADD PUSH3 0x4C3 JUMP JUMPDEST DUP4 DUP2 GT ISZERO PUSH3 0x154 JUMPI POP POP PUSH1 0x0 SWAP2 ADD MSTORE JUMP JUMPDEST PUSH3 0x4FA DUP2 PUSH3 0x4AB JUMP JUMPDEST DUP2 EQ PUSH3 0x506 JUMPI PUSH1 0x0 DUP1 REVERT JUMPDEST POP JUMP JUMPDEST PUSH3 0x4FA DUP2 PUSH3 0x4BD JUMP JUMPDEST PUSH2 0x429 DUP1 PUSH3 0x524 PUSH1 0x0 CODECOPY PUSH1 0x0 RETURN INVALID PUSH1 0x80 PUSH1 0x40 MSTORE PUSH1 0x4 CALLDATASIZE LT PUSH2 0x3F JUMPI PUSH1 0x0 CALLDATALOAD PUSH1 0xE0 SHR DUP1 PUSH4 0x26782247 EQ PUSH2 0xBA JUMPI DUP1 PUSH4 0x5C60DA1B EQ PUSH2 0xE5 JUMPI DUP1 PUSH4 0xBB913F41 EQ PUSH2 0xFA JUMPI DUP1 PUSH4 0xF851A440 EQ PUSH2 0x11C JUMPI JUMPDEST PUSH1 0x2 SLOAD PUSH1 0x40 MLOAD PUSH1 0x0 SWAP2 PUSH1 0x1 PUSH1 0x1 PUSH1 0xA0 SHL SUB AND SWAP1 PUSH2 0x5F SWAP1 DUP4 SWAP1 CALLDATASIZE SWAP1 PUSH2 0x347 JUMP JUMPDEST PUSH1 0x0 PUSH1 0x40 MLOAD DUP1 DUP4 SUB DUP2 DUP6 GAS DELEGATECALL SWAP2 POP POP RETURNDATASIZE DUP1 PUSH1 0x0 DUP2 EQ PUSH2 0x9A JUMPI PUSH1 0x40 MLOAD SWAP2 POP PUSH1 0x1F NOT PUSH1 0x3F RETURNDATASIZE ADD AND DUP3 ADD PUSH1 0x40 MSTORE RETURNDATASIZE DUP3 MSTORE RETURNDATASIZE PUSH1 0x0 PUSH1 0x20 DUP5 ADD RETURNDATACOPY PUSH2 0x9F JUMP JUMPDEST PUSH1 0x60 SWAP2 POP JUMPDEST POP POP SWAP1 POP PUSH1 0x40 MLOAD RETURNDATASIZE PUSH1 0x0 DUP3 RETURNDATACOPY DUP2 DUP1 ISZERO PUSH2 0xB6 JUMPI RETURNDATASIZE DUP3 RETURN JUMPDEST RETURNDATASIZE DUP3 REVERT JUMPDEST CALLVALUE DUP1 ISZERO PUSH2 0xC6 JUMPI PUSH1 0x0 DUP1 REVERT JUMPDEST POP PUSH2 0xCF PUSH2 0x131 JUMP JUMPDEST PUSH1 0x40 MLOAD PUSH2 0xDC SWAP2 SWAP1 PUSH2 0x354 JUMP JUMPDEST PUSH1 0x40 MLOAD DUP1 SWAP2 SUB SWAP1 RETURN JUMPDEST CALLVALUE DUP1 ISZERO PUSH2 0xF1 JUMPI PUSH1 0x0 DUP1 REVERT JUMPDEST POP PUSH2 0xCF PUSH2 0x140 JUMP JUMPDEST CALLVALUE DUP1 ISZERO PUSH2 0x106 JUMPI PUSH1 0x0 DUP1 REVERT JUMPDEST POP PUSH2 0x11A PUSH2 0x115 CALLDATASIZE PUSH1 0x4 PUSH2 0x229 JUMP JUMPDEST PUSH2 0x14F JUMP JUMPDEST STOP JUMPDEST CALLVALUE DUP1 ISZERO PUSH2 0x128 JUMPI PUSH1 0x0 DUP1 REVERT JUMPDEST POP PUSH2 0xCF PUSH2 0x209 JUMP JUMPDEST PUSH1 0x1 SLOAD PUSH1 0x1 PUSH1 0x1 PUSH1 0xA0 SHL SUB AND DUP2 JUMP JUMPDEST PUSH1 0x2 SLOAD PUSH1 0x1 PUSH1 0x1 PUSH1 0xA0 SHL SUB AND DUP2 JUMP JUMPDEST PUSH1 0x0 SLOAD PUSH1 0x1 PUSH1 0x1 PUSH1 0xA0 SHL SUB AND CALLER EQ PUSH2 0x182 JUMPI PUSH1 0x40 MLOAD PUSH3 0x461BCD PUSH1 0xE5 SHL DUP2 MSTORE PUSH1 0x4 ADD PUSH2 0x179 SWAP1 PUSH2 0x394 JUMP JUMPDEST PUSH1 0x40 MLOAD DUP1 SWAP2 SUB SWAP1 REVERT JUMPDEST PUSH1 0x1 PUSH1 0x1 PUSH1 0xA0 SHL SUB DUP2 AND PUSH2 0x1A8 JUMPI PUSH1 0x40 MLOAD PUSH3 0x461BCD PUSH1 0xE5 SHL DUP2 MSTORE PUSH1 0x4 ADD PUSH2 0x179 SWAP1 PUSH2 0x384 JUMP JUMPDEST PUSH1 0x2 DUP1 SLOAD PUSH1 0x1 PUSH1 0x1 PUSH1 0xA0 SHL SUB DUP4 DUP2 AND PUSH1 0x1 PUSH1 0x1 PUSH1 0xA0 SHL SUB NOT DUP4 AND OR SWAP3 DUP4 SWAP1 SSTORE PUSH1 0x40 MLOAD SWAP2 DUP2 AND SWAP3 PUSH32 0xD604DE94D45953F9138079EC1B82D533CB2160C906D1076D1F7ED54BEFBCA97A SWAP3 PUSH2 0x1FD SWAP3 DUP6 SWAP3 AND SWAP1 PUSH2 0x362 JUMP JUMPDEST PUSH1 0x40 MLOAD DUP1 SWAP2 SUB SWAP1 LOG1 POP POP JUMP JUMPDEST PUSH1 0x0 SLOAD PUSH1 0x1 PUSH1 0x1 PUSH1 0xA0 SHL SUB AND DUP2 JUMP JUMPDEST DUP1 CALLDATALOAD PUSH2 0x223 DUP2 PUSH2 0x3CF JUMP JUMPDEST SWAP3 SWAP2 POP POP JUMP JUMPDEST PUSH1 0x0 PUSH1 0x20 DUP3 DUP5 SUB SLT ISZERO PUSH2 0x23B JUMPI PUSH1 0x0 DUP1 REVERT JUMPDEST PUSH1 0x0 PUSH2 0x247 DUP5 DUP5 PUSH2 0x218 JUMP JUMPDEST SWAP5 SWAP4 POP POP POP POP JUMP JUMPDEST PUSH2 0x258 DUP2 PUSH2 0x3B2 JUMP JUMPDEST DUP3 MSTORE POP POP JUMP JUMPDEST PUSH1 0x0 PUSH2 0x26A DUP4 DUP6 PUSH2 0x3A4 JUMP JUMPDEST SWAP4 POP PUSH2 0x277 DUP4 DUP6 DUP5 PUSH2 0x3C3 JUMP JUMPDEST POP POP ADD SWAP1 JUMP JUMPDEST PUSH1 0x0 PUSH2 0x28A PUSH1 0x4A DUP4 PUSH2 0x3A9 JUMP JUMPDEST PUSH32 0x476F7665726E6F72427261766F44656C656761746F723A3A5F736574496D706C DUP2 MSTORE PUSH32 0x656D656E746174696F6E3A20696E76616C696420696D706C656D656E74617469 PUSH1 0x20 DUP3 ADD MSTORE PUSH10 0x6F6E2061646472657373 PUSH1 0xB0 SHL PUSH1 0x40 DUP3 ADD MSTORE PUSH1 0x60 ADD SWAP3 SWAP2 POP POP JUMP JUMPDEST PUSH1 0x0 PUSH2 0x2FC PUSH1 0x36 DUP4 PUSH2 0x3A9 JUMP JUMPDEST PUSH32 0x476F7665726E6F72427261766F44656C656761746F723A3A5F736574496D706C DUP2 MSTORE PUSH22 0x656D656E746174696F6E3A2061646D696E206F6E6C79 PUSH1 0x50 SHL PUSH1 0x20 DUP3 ADD MSTORE PUSH1 0x40 ADD SWAP3 SWAP2 POP POP JUMP JUMPDEST PUSH1 0x0 PUSH2 0x247 DUP3 DUP5 DUP7 PUSH2 0x25E JUMP JUMPDEST PUSH1 0x20 DUP2 ADD PUSH2 0x223 DUP3 DUP5 PUSH2 0x24F JUMP JUMPDEST PUSH1 0x40 DUP2 ADD PUSH2 0x370 DUP3 DUP6 PUSH2 0x24F JUMP JUMPDEST PUSH2 0x37D PUSH1 0x20 DUP4 ADD DUP5 PUSH2 0x24F JUMP JUMPDEST SWAP4 SWAP3 POP POP POP JUMP JUMPDEST PUSH1 0x20 DUP1 DUP3 MSTORE DUP2 ADD PUSH2 0x223 DUP2 PUSH2 0x27D JUMP JUMPDEST PUSH1 0x20 DUP1 DUP3 MSTORE DUP2 ADD PUSH2 0x223 DUP2 PUSH2 0x2EF JUMP JUMPDEST SWAP2 SWAP1 POP JUMP JUMPDEST SWAP1 DUP2 MSTORE PUSH1 0x20 ADD SWAP1 JUMP JUMPDEST PUSH1 0x0 PUSH1 0x1 PUSH1 0x1 PUSH1 0xA0 SHL SUB DUP3 AND PUSH2 0x223 JUMP JUMPDEST DUP3 DUP2 DUP4 CALLDATACOPY POP PUSH1 0x0 SWAP2 ADD MSTORE JUMP JUMPDEST PUSH2 0x3D8 DUP2 PUSH2 0x3B2 JUMP JUMPDEST DUP2 EQ PUSH2 0x3E3 JUMPI PUSH1 0x0 DUP1 REVERT JUMPDEST POP JUMP INVALID LOG3 PUSH6 0x627A7A723158 KECCAK256 0xB3 MSIZE KECCAK256 0x2E 0xDB 0x48 CALLER 0xBA 0xC 0xB5 0xAD 0x4A SHR MLOAD 0x28 0x2B CALLER 0x26 0xC8 0xCE 0xAD 0xCC SWAP11 0x2E SWAP12 SWAP15 0xC0 0x5F 0xC4 0xB5 PUSH22 0x9E6C6578706572696D656E74616CF564736F6C634300 SDIV LT STOP BLOCKHASH SELFBALANCE PUSH16 0x7665726E6F72427261766F44656C6567 PUSH2 0x746F PUSH19 0x3A3A5F736574496D706C000000000000000000 "},"gasEstimates":{"creation":{"codeDepositCost":"213000","executionCost":"infinite","totalCost":"infinite"},"external":{"":"infinite","_setImplementation(address)":"infinite","admin()":"infinite","implementation()":"infinite","pendingAdmin()":"infinite"},"internal":{"delegateTo(address,bytes memory)":"infinite"}},"methodIdentifiers":{"_setImplementation(address)":"bb913f41","admin()":"f851a440","implementation()":"5c60da1b","pendingAdmin()":"26782247"}},"storageLayout":{"storage":[{"astId":4540,"contract":"contracts/Governance/GovernorBravoDelegator.sol:GovernorBravoDelegator","label":"admin","offset":0,"slot":"0","type":"t_address"},{"astId":4542,"contract":"contracts/Governance/GovernorBravoDelegator.sol:GovernorBravoDelegator","label":"pendingAdmin","offset":0,"slot":"1","type":"t_address"},{"astId":4544,"contract":"contracts/Governance/GovernorBravoDelegator.sol:GovernorBravoDelegator","label":"implementation","offset":0,"slot":"2","type":"t_address"}],"types":{"t_address":{"encoding":"inplace","label":"address","numberOfBytes":"20"}}},"userdoc":{"methods":{"_setImplementation(address)":{"notice":"Called by the admin to update the implementation of the delegator"}}}}}}