{"contracts/Governance/GovernorBravoDelegateG1.sol":{"GovernorBravoDelegate":{"abi":[{"anonymous":false,"inputs":[{"indexed":false,"internalType":"address","name":"oldAdmin","type":"address"},{"indexed":false,"internalType":"address","name":"newAdmin","type":"address"}],"name":"NewAdmin","type":"event"},{"anonymous":false,"inputs":[{"indexed":false,"internalType":"address","name":"oldImplementation","type":"address"},{"indexed":false,"internalType":"address","name":"newImplementation","type":"address"}],"name":"NewImplementation","type":"event"},{"anonymous":false,"inputs":[{"indexed":false,"internalType":"address","name":"oldPendingAdmin","type":"address"},{"indexed":false,"internalType":"address","name":"newPendingAdmin","type":"address"}],"name":"NewPendingAdmin","type":"event"},{"anonymous":false,"inputs":[{"indexed":false,"internalType":"uint256","name":"id","type":"uint256"}],"name":"ProposalCanceled","type":"event"},{"anonymous":false,"inputs":[{"indexed":false,"internalType":"uint256","name":"id","type":"uint256"},{"indexed":false,"internalType":"address","name":"proposer","type":"address"},{"indexed":false,"internalType":"address[]","name":"targets","type":"address[]"},{"indexed":false,"internalType":"uint256[]","name":"values","type":"uint256[]"},{"indexed":false,"internalType":"string[]","name":"signatures","type":"string[]"},{"indexed":false,"internalType":"bytes[]","name":"calldatas","type":"bytes[]"},{"indexed":false,"internalType":"uint256","name":"startBlock","type":"uint256"},{"indexed":false,"internalType":"uint256","name":"endBlock","type":"uint256"},{"indexed":false,"internalType":"string","name":"description","type":"string"}],"name":"ProposalCreated","type":"event"},{"anonymous":false,"inputs":[{"indexed":false,"internalType":"uint256","name":"id","type":"uint256"}],"name":"ProposalExecuted","type":"event"},{"anonymous":false,"inputs":[{"indexed":false,"internalType":"uint256","name":"id","type":"uint256"},{"indexed":false,"internalType":"uint256","name":"eta","type":"uint256"}],"name":"ProposalQueued","type":"event"},{"anonymous":false,"inputs":[{"indexed":false,"internalType":"uint256","name":"oldProposalThreshold","type":"uint256"},{"indexed":false,"internalType":"uint256","name":"newProposalThreshold","type":"uint256"}],"name":"ProposalThresholdSet","type":"event"},{"anonymous":false,"inputs":[{"indexed":true,"internalType":"address","name":"voter","type":"address"},{"indexed":false,"internalType":"uint256","name":"proposalId","type":"uint256"},{"indexed":false,"internalType":"uint8","name":"support","type":"uint8"},{"indexed":false,"internalType":"uint256","name":"votes","type":"uint256"},{"indexed":false,"internalType":"string","name":"reason","type":"string"}],"name":"VoteCast","type":"event"},{"anonymous":false,"inputs":[{"indexed":false,"internalType":"uint256","name":"oldVotingDelay","type":"uint256"},{"indexed":false,"internalType":"uint256","name":"newVotingDelay","type":"uint256"}],"name":"VotingDelaySet","type":"event"},{"anonymous":false,"inputs":[{"indexed":false,"internalType":"uint256","name":"oldVotingPeriod","type":"uint256"},{"indexed":false,"internalType":"uint256","name":"newVotingPeriod","type":"uint256"}],"name":"VotingPeriodSet","type":"event"},{"anonymous":false,"inputs":[{"indexed":false,"internalType":"address","name":"account","type":"address"},{"indexed":false,"internalType":"uint256","name":"expiration","type":"uint256"}],"name":"WhitelistAccountExpirationSet","type":"event"},{"anonymous":false,"inputs":[{"indexed":false,"internalType":"address","name":"oldGuardian","type":"address"},{"indexed":false,"internalType":"address","name":"newGuardian","type":"address"}],"name":"WhitelistGuardianSet","type":"event"},{"constant":true,"inputs":[],"name":"BALLOT_TYPEHASH","outputs":[{"internalType":"bytes32","name":"","type":"bytes32"}],"payable":false,"stateMutability":"view","type":"function"},{"constant":true,"inputs":[],"name":"DOMAIN_TYPEHASH","outputs":[{"internalType":"bytes32","name":"","type":"bytes32"}],"payable":false,"stateMutability":"view","type":"function"},{"constant":true,"inputs":[],"name":"MAX_PROPOSAL_THRESHOLD","outputs":[{"internalType":"uint256","name":"","type":"uint256"}],"payable":false,"stateMutability":"view","type":"function"},{"constant":true,"inputs":[],"name":"MAX_VOTING_DELAY","outputs":[{"internalType":"uint256","name":"","type":"uint256"}],"payable":false,"stateMutability":"view","type":"function"},{"constant":true,"inputs":[],"name":"MAX_VOTING_PERIOD","outputs":[{"internalType":"uint256","name":"","type":"uint256"}],"payable":false,"stateMutability":"view","type":"function"},{"constant":true,"inputs":[],"name":"MIN_PROPOSAL_THRESHOLD","outputs":[{"internalType":"uint256","name":"","type":"uint256"}],"payable":false,"stateMutability":"view","type":"function"},{"constant":true,"inputs":[],"name":"MIN_VOTING_DELAY","outputs":[{"internalType":"uint256","name":"","type":"uint256"}],"payable":false,"stateMutability":"view","type":"function"},{"constant":true,"inputs":[],"name":"MIN_VOTING_PERIOD","outputs":[{"internalType":"uint256","name":"","type":"uint256"}],"payable":false,"stateMutability":"view","type":"function"},{"constant":false,"inputs":[],"name":"_acceptAdmin","outputs":[],"payable":false,"stateMutability":"nonpayable","type":"function"},{"constant":false,"inputs":[{"internalType":"address","name":"governorAlpha","type":"address"}],"name":"_initiate","outputs":[],"payable":false,"stateMutability":"nonpayable","type":"function"},{"constant":false,"inputs":[{"internalType":"address","name":"newPendingAdmin","type":"address"}],"name":"_setPendingAdmin","outputs":[],"payable":false,"stateMutability":"nonpayable","type":"function"},{"constant":false,"inputs":[{"internalType":"uint256","name":"newProposalThreshold","type":"uint256"}],"name":"_setProposalThreshold","outputs":[],"payable":false,"stateMutability":"nonpayable","type":"function"},{"constant":false,"inputs":[{"internalType":"uint256","name":"newVotingDelay","type":"uint256"}],"name":"_setVotingDelay","outputs":[],"payable":false,"stateMutability":"nonpayable","type":"function"},{"constant":false,"inputs":[{"internalType":"uint256","name":"newVotingPeriod","type":"uint256"}],"name":"_setVotingPeriod","outputs":[],"payable":false,"stateMutability":"nonpayable","type":"function"},{"constant":true,"inputs":[],"name":"admin","outputs":[{"internalType":"address","name":"","type":"address"}],"payable":false,"stateMutability":"view","type":"function"},{"constant":false,"inputs":[{"internalType":"uint256","name":"proposalId","type":"uint256"}],"name":"cancel","outputs":[],"payable":false,"stateMutability":"nonpayable","type":"function"},{"constant":false,"inputs":[{"internalType":"uint256","name":"proposalId","type":"uint256"},{"internalType":"uint8","name":"support","type":"uint8"}],"name":"castVote","outputs":[],"payable":false,"stateMutability":"nonpayable","type":"function"},{"constant":false,"inputs":[{"internalType":"uint256","name":"proposalId","type":"uint256"},{"internalType":"uint8","name":"support","type":"uint8"},{"internalType":"uint8","name":"v","type":"uint8"},{"internalType":"bytes32","name":"r","type":"bytes32"},{"internalType":"bytes32","name":"s","type":"bytes32"}],"name":"castVoteBySig","outputs":[],"payable":false,"stateMutability":"nonpayable","type":"function"},{"constant":false,"inputs":[{"internalType":"uint256","name":"proposalId","type":"uint256"},{"internalType":"uint8","name":"support","type":"uint8"},{"internalType":"string","name":"reason","type":"string"}],"name":"castVoteWithReason","outputs":[],"payable":false,"stateMutability":"nonpayable","type":"function"},{"constant":true,"inputs":[],"name":"comp","outputs":[{"internalType":"contract CompInterface","name":"","type":"address"}],"payable":false,"stateMutability":"view","type":"function"},{"constant":false,"inputs":[{"internalType":"uint256","name":"proposalId","type":"uint256"}],"name":"execute","outputs":[],"payable":true,"stateMutability":"payable","type":"function"},{"constant":true,"inputs":[{"internalType":"uint256","name":"proposalId","type":"uint256"}],"name":"getActions","outputs":[{"internalType":"address[]","name":"targets","type":"address[]"},{"internalType":"uint256[]","name":"values","type":"uint256[]"},{"internalType":"string[]","name":"signatures","type":"string[]"},{"internalType":"bytes[]","name":"calldatas","type":"bytes[]"}],"payable":false,"stateMutability":"view","type":"function"},{"constant":true,"inputs":[{"internalType":"uint256","name":"proposalId","type":"uint256"},{"internalType":"address","name":"voter","type":"address"}],"name":"getReceipt","outputs":[{"components":[{"internalType":"bool","name":"hasVoted","type":"bool"},{"internalType":"uint8","name":"support","type":"uint8"},{"internalType":"uint96","name":"votes","type":"uint96"}],"internalType":"struct GovernorBravoDelegateStorageV1.Receipt","name":"","type":"tuple"}],"payable":false,"stateMutability":"view","type":"function"},{"constant":true,"inputs":[],"name":"implementation","outputs":[{"internalType":"address","name":"","type":"address"}],"payable":false,"stateMutability":"view","type":"function"},{"constant":true,"inputs":[],"name":"initialProposalId","outputs":[{"internalType":"uint256","name":"","type":"uint256"}],"payable":false,"stateMutability":"view","type":"function"},{"constant":false,"inputs":[{"internalType":"address","name":"timelock_","type":"address"},{"internalType":"address","name":"comp_","type":"address"},{"internalType":"uint256","name":"votingPeriod_","type":"uint256"},{"internalType":"uint256","name":"votingDelay_","type":"uint256"},{"internalType":"uint256","name":"proposalThreshold_","type":"uint256"}],"name":"initialize","outputs":[],"payable":false,"stateMutability":"nonpayable","type":"function"},{"constant":true,"inputs":[{"internalType":"address","name":"","type":"address"}],"name":"latestProposalIds","outputs":[{"internalType":"uint256","name":"","type":"uint256"}],"payable":false,"stateMutability":"view","type":"function"},{"constant":true,"inputs":[],"name":"name","outputs":[{"internalType":"string","name":"","type":"string"}],"payable":false,"stateMutability":"view","type":"function"},{"constant":true,"inputs":[],"name":"pendingAdmin","outputs":[{"internalType":"address","name":"","type":"address"}],"payable":false,"stateMutability":"view","type":"function"},{"constant":true,"inputs":[],"name":"proposalCount","outputs":[{"internalType":"uint256","name":"","type":"uint256"}],"payable":false,"stateMutability":"view","type":"function"},{"constant":true,"inputs":[],"name":"proposalMaxOperations","outputs":[{"internalType":"uint256","name":"","type":"uint256"}],"payable":false,"stateMutability":"view","type":"function"},{"constant":true,"inputs":[],"name":"proposalThreshold","outputs":[{"internalType":"uint256","name":"","type":"uint256"}],"payable":false,"stateMutability":"view","type":"function"},{"constant":true,"inputs":[{"internalType":"uint256","name":"","type":"uint256"}],"name":"proposals","outputs":[{"internalType":"uint256","name":"id","type":"uint256"},{"internalType":"address","name":"proposer","type":"address"},{"internalType":"uint256","name":"eta","type":"uint256"},{"internalType":"uint256","name":"startBlock","type":"uint256"},{"internalType":"uint256","name":"endBlock","type":"uint256"},{"internalType":"uint256","name":"forVotes","type":"uint256"},{"internalType":"uint256","name":"againstVotes","type":"uint256"},{"internalType":"uint256","name":"abstainVotes","type":"uint256"},{"internalType":"bool","name":"canceled","type":"bool"},{"internalType":"bool","name":"executed","type":"bool"}],"payable":false,"stateMutability":"view","type":"function"},{"constant":false,"inputs":[{"internalType":"address[]","name":"targets","type":"address[]"},{"internalType":"uint256[]","name":"values","type":"uint256[]"},{"internalType":"string[]","name":"signatures","type":"string[]"},{"internalType":"bytes[]","name":"calldatas","type":"bytes[]"},{"internalType":"string","name":"description","type":"string"}],"name":"propose","outputs":[{"internalType":"uint256","name":"","type":"uint256"}],"payable":false,"stateMutability":"nonpayable","type":"function"},{"constant":false,"inputs":[{"internalType":"uint256","name":"proposalId","type":"uint256"}],"name":"queue","outputs":[],"payable":false,"stateMutability":"nonpayable","type":"function"},{"constant":true,"inputs":[],"name":"quorumVotes","outputs":[{"internalType":"uint256","name":"","type":"uint256"}],"payable":false,"stateMutability":"view","type":"function"},{"constant":true,"inputs":[{"internalType":"uint256","name":"proposalId","type":"uint256"}],"name":"state","outputs":[{"internalType":"enum GovernorBravoDelegateStorageV1.ProposalState","name":"","type":"uint8"}],"payable":false,"stateMutability":"view","type":"function"},{"constant":true,"inputs":[],"name":"timelock","outputs":[{"internalType":"contract TimelockInterface","name":"","type":"address"}],"payable":false,"stateMutability":"view","type":"function"},{"constant":true,"inputs":[],"name":"votingDelay","outputs":[{"internalType":"uint256","name":"","type":"uint256"}],"payable":false,"stateMutability":"view","type":"function"},{"constant":true,"inputs":[],"name":"votingPeriod","outputs":[{"internalType":"uint256","name":"","type":"uint256"}],"payable":false,"stateMutability":"view","type":"function"}],"devdoc":{"methods":{"_acceptAdmin()":{"details":"Admin function for pending admin to accept role and update admin"},"_initiate(address)":{"details":"Admin only. Sets initial proposal id which initiates the contract, ensuring a continuous proposal id count","params":{"governorAlpha":"The address for the Governor to continue the proposal id count from"}},"_setPendingAdmin(address)":{"details":"Admin function to begin change of admin. The newPendingAdmin must call `_acceptAdmin` to finalize the transfer.","params":{"newPendingAdmin":"New pending admin."}},"_setProposalThreshold(uint256)":{"details":"newProposalThreshold must be greater than the hardcoded min","params":{"newProposalThreshold":"new proposal threshold"}},"_setVotingDelay(uint256)":{"params":{"newVotingDelay":"new voting delay, in blocks"}},"_setVotingPeriod(uint256)":{"params":{"newVotingPeriod":"new voting period, in blocks"}},"cancel(uint256)":{"params":{"proposalId":"The id of the proposal to cancel"}},"castVote(uint256,uint8)":{"params":{"proposalId":"The id of the proposal to vote on","support":"The support value for the vote. 0=against, 1=for, 2=abstain"}},"castVoteBySig(uint256,uint8,uint8,bytes32,bytes32)":{"details":"External function that accepts EIP-712 signatures for voting on proposals."},"castVoteWithReason(uint256,uint8,string)":{"params":{"proposalId":"The id of the proposal to vote on","reason":"The reason given for the vote by the voter","support":"The support value for the vote. 0=against, 1=for, 2=abstain"}},"execute(uint256)":{"params":{"proposalId":"The id of the proposal to execute"}},"getActions(uint256)":{"params":{"proposalId":"the id of the proposal"},"return":"targets of the proposal actionsvalues of the proposal actionssignatures of the proposal actionscalldatas of the proposal actions"},"getReceipt(uint256,address)":{"params":{"proposalId":"the id of proposal","voter":"The address of the voter"},"return":"The voting receipt"},"initialize(address,address,uint256,uint256,uint256)":{"params":{"comp_":"The address of the COMP token","proposalThreshold_":"The initial proposal threshold","timelock_":"The address of the Timelock","votingDelay_":"The initial voting delay","votingPeriod_":"The initial voting period"}},"propose(address[],uint256[],string[],bytes[],string)":{"params":{"calldatas":"Calldatas for proposal calls","description":"String description of the proposal","signatures":"Function signatures for proposal calls","targets":"Target addresses for proposal calls","values":"Eth values for proposal calls"},"return":"Proposal id of new proposal"},"queue(uint256)":{"params":{"proposalId":"The id of the proposal to queue"}},"state(uint256)":{"params":{"proposalId":"The id of the proposal"},"return":"Proposal state"}}},"evm":{"bytecode":{"linkReferences":{},"object":"608060405234801561001057600080fd5b506143ff806100206000396000f3fe60806040526004361061023b5760003560e01c8063791f5d231161012e578063da95691a116100ab578063e9c714f21161006f578063e9c714f21461064e578063f851a44014610663578063f9d28b8014610678578063fc4eee4214610698578063fe0d94c1146106ad5761023b565b8063da95691a146105b7578063ddf0b009146105d7578063deaaa7cc146105f7578063e23a9a521461060c578063e48083fe146106395761023b565b8063b58131b0116100f2578063b58131b014610538578063b71d1a0c1461054d578063d13f90b41461056d578063d33219b41461058d578063da35c664146105a25761023b565b8063791f5d23146104c45780637b3c71d3146104d95780637bdbe4d0146104f9578063a64e024a1461050e578063b1126263146105235761023b565b806324bc1a64116101bc5780633bccf4fd116101805780633bccf4fd146104225780633e4f49e61461044257806340e58ee51461046f578063567813881461048f5780635c60da1b146104af5761023b565b806324bc1a641461039157806325fd935a146103a657806326782247146103bb578063328dd982146103dd5780633932abb11461040d5761023b565b806317977c611161020357806317977c611461030757806317ba1b8b146103275780631dfb1b5a1461034757806320606b7014610367578063215809ca1461037c5761023b565b8063013cf08b1461024057806302a251a31461027f57806306fdde03146102a15780630ea2d98c146102c3578063109d0af8146102e5575b600080fd5b34801561024c57600080fd5b5061026061025b366004612a52565b6106c0565b6040516102769a99989796959493929190614116565b60405180910390f35b34801561028b57600080fd5b50610294610723565b6040516102769190613d43565b3480156102ad57600080fd5b506102b6610729565b6040516102769190613dff565b3480156102cf57600080fd5b506102e36102de366004612a52565b61075c565b005b3480156102f157600080fd5b506102fa610806565b6040516102769190613de3565b34801561031357600080fd5b50610294610322366004612867565b610815565b34801561033357600080fd5b506102e3610342366004612a52565b610827565b34801561035357600080fd5b506102e3610362366004612a52565b6108cb565b34801561037357600080fd5b5061029461095e565b34801561038857600080fd5b50610294610975565b34801561039d57600080fd5b5061029461097b565b3480156103b257600080fd5b50610294610989565b3480156103c757600080fd5b506103d0610997565b6040516102769190613c09565b3480156103e957600080fd5b506103fd6103f8366004612a52565b6109a6565b6040516102769493929190613cf6565b34801561041957600080fd5b50610294610c35565b34801561042e57600080fd5b506102e361043d366004612b42565b610c3b565b34801561044e57600080fd5b5061046261045d366004612a52565b610e16565b6040516102769190613df1565b34801561047b57600080fd5b506102e361048a366004612a52565b610f9c565b34801561049b57600080fd5b506102e36104aa366004612aaa565b6111f0565b3480156104bb57600080fd5b506103d061123a565b3480156104d057600080fd5b50610294611249565b3480156104e557600080fd5b506102e36104f4366004612ada565b611257565b34801561050557600080fd5b506102946112a7565b34801561051a57600080fd5b506102946112ac565b34801561052f57600080fd5b506102946112b3565b34801561054457600080fd5b506102946112b9565b34801561055957600080fd5b506102e3610568366004612867565b6112bf565b34801561057957600080fd5b506102e361058836600461288d565b61133c565b34801561059957600080fd5b506102fa6114b9565b3480156105ae57600080fd5b506102946114c8565b3480156105c357600080fd5b506102946105d2366004612902565b6114ce565b3480156105e357600080fd5b506102e36105f2366004612a52565b61187a565b34801561060357600080fd5b50610294611af6565b34801561061857600080fd5b5061062c610627366004612a70565b611b02565b6040516102769190614060565b34801561064557600080fd5b50610294611b6f565b34801561065a57600080fd5b506102e3611b74565b34801561066f57600080fd5b506103d0611c52565b34801561068457600080fd5b506102e3610693366004612867565b611c61565b3480156106a457600080fd5b50610294611d87565b6102e36106bb366004612a52565b611d8d565b600a60208190526000918252604090912080546001820154600283015460078401546008850154600986015496860154600b870154600c9097015495976001600160a01b0390951696939592949193919290919060ff808216916101009004168a565b60045481565b60405180604001604052806017815260200176436f6d706f756e6420476f7665726e6f7220427261766f60481b81525081565b6000546001600160a01b0316331461078f5760405162461bcd60e51b815260040161078690613e50565b60405180910390fd5b61168081101580156107a4575062013b008111155b6107c05760405162461bcd60e51b815260040161078690613e90565b60048054908290556040517f7e3f7f0708a84de9203036abaa450dccc85ad5ff52f78c170f3edb55cf5e8828906107fa908390859061419c565b60405180910390a15050565b6009546001600160a01b031681565b600b6020526000908152604090205481565b6000546001600160a01b031633146108515760405162461bcd60e51b815260040161078690614020565b690a968163f0a57b4000008110158015610875575069152d02c7e14af68000008111155b6108915760405162461bcd60e51b815260040161078690613f40565b60058054908290556040517fccb45da8d5717e6c4544694297c4ba5cf151d455c9bb0ed4fc7a38411bc05461906107fa908390859061419c565b6000546001600160a01b031633146108f55760405162461bcd60e51b815260040161078690613e70565b600181101580156109085750619d808111155b6109245760405162461bcd60e51b815260040161078690613ec0565b60038054908290556040517fc565b045403dc03c2eea82b81a0465edad9e2e7fc4d97e11421c209da93d7a93906107fa908390859061419c565b60405161096a90613bfe565b604051809103902081565b61168081565b6954b40b1f852bda00000081565b69152d02c7e14af680000081565b6001546001600160a01b031681565b6060806060806000600a600087815260200190815260200160002090508060030181600401826005018360060183805480602002602001604051908101604052809291908181526020018280548015610a2857602002820191906000526020600020905b81546001600160a01b03168152600190910190602001808311610a0a575b5050505050935082805480602002602001604051908101604052809291908181526020018280548015610a7a57602002820191906000526020600020905b815481526020019060010190808311610a66575b5050505050925081805480602002602001604051908101604052809291908181526020016000905b82821015610b4d5760008481526020908190208301805460408051601f6002600019610100600187161502019094169390930492830185900485028101850190915281815292830182828015610b395780601f10610b0e57610100808354040283529160200191610b39565b820191906000526020600020905b815481529060010190602001808311610b1c57829003601f168201915b505050505081526020019060010190610aa2565b50505050915080805480602002602001604051908101604052809291908181526020016000905b82821015610c1f5760008481526020908190208301805460408051601f6002600019610100600187161502019094169390930492830185900485028101850190915281815292830182828015610c0b5780601f10610be057610100808354040283529160200191610c0b565b820191906000526020600020905b815481529060010190602001808311610bee57829003601f168201915b505050505081526020019060010190610b74565b5050505090509450945094509450509193509193565b60035481565b6000604051610c4990613bfe565b604080519182900382208282019091526017825276436f6d706f756e6420476f7665726e6f7220427261766f60481b6020909201919091527f3d9e905142ff365fb68ce863f26a44f5583cf7ec11bcde450555f50b7e1b5614610caa611f46565b30604051602001610cbe9493929190613d51565b6040516020818303038152906040528051906020012090506000604051610ce490613bc2565b604051908190038120610cfd9189908990602001613d86565b60405160208183030381529060405280519060200120905060008282604051602001610d2a929190613bcd565b604051602081830303815290604052805190602001209050600060018288888860405160008152602001604052604051610d679493929190613dae565b6020604051602081039080840390855afa158015610d89573d6000803e3d6000fd5b5050604051601f1901519150506001600160a01b038116610dbc5760405162461bcd60e51b815260040161078690613f00565b806001600160a01b03167fb8e138887d0aa13bab447e82de9d5c1777041ecd21ca36ba824ff1e6c07ddda48a8a610df4858e8e611f4b565b604051610e03939291906141f0565b60405180910390a2505050505050505050565b60008160075410158015610e2b575060065482115b610e475760405162461bcd60e51b815260040161078690614030565b6000828152600a60205260409020600c81015460ff1615610e6c576002915050610f97565b80600701544311610e81576000915050610f97565b80600801544311610e96576001915050610f97565b80600a01548160090154111580610eba57506954b40b1f852bda0000008160090154105b15610ec9576003915050610f97565b6002810154610edc576004915050610f97565b600c810154610100900460ff1615610ef8576007915050610f97565b6002810154600854604080516360d143f160e11b81529051610f8193926001600160a01b03169163c1a287e2916004808301926020929190829003018186803b158015610f4457600080fd5b505afa158015610f58573d6000803e3d6000fd5b505050506040513d601f19601f82011682018060405250610f7c91908101906129ff565b61213c565b4210610f91576006915050610f97565b60059150505b919050565b6007610fa782610e16565b6007811115610fb257fe5b1415610fd05760405162461bcd60e51b815260040161078690614010565b6000818152600a6020526040902060018101546001600160a01b031633148061109857506005546009546001838101546001600160a01b039283169263782d6fe192911690611020904390612161565b6040518363ffffffff1660e01b815260040161103d929190613c4d565b60206040518083038186803b15801561105557600080fd5b505afa158015611069573d6000803e3d6000fd5b505050506040513d601f19601f8201168201806040525061108d9190810190612b88565b6001600160601b0316105b6110b45760405162461bcd60e51b815260040161078690613fb0565b600c8101805460ff1916600117905560005b60038201548110156111c0576008546003830180546001600160a01b039092169163591fcdfe9190849081106110f857fe5b6000918252602090912001546004850180546001600160a01b03909216918590811061112057fe5b906000526020600020015485600501858154811061113a57fe5b9060005260206000200186600601868154811061115357fe5b9060005260206000200187600201546040518663ffffffff1660e01b8152600401611182959493929190613cb5565b600060405180830381600087803b15801561119c57600080fd5b505af11580156111b0573d6000803e3d6000fd5b5050600190920191506110c69050565b507f789cf55be980739dad1d0699b93b58e806b51c9d96619bfa8fe0a28abaa7b30c826040516107fa9190613d43565b337fb8e138887d0aa13bab447e82de9d5c1777041ecd21ca36ba824ff1e6c07ddda4838361121f848383611f4b565b60405161122e939291906141f0565b60405180910390a25050565b6002546001600160a01b031681565b690a968163f0a57b40000081565b337fb8e138887d0aa13bab447e82de9d5c1777041ecd21ca36ba824ff1e6c07ddda48585611286848383611f4b565b86866040516112999594939291906141aa565b60405180910390a250505050565b600a81565b62013b0081565b619d8081565b60055481565b6000546001600160a01b031633146112e95760405162461bcd60e51b815260040161078690613e30565b600180546001600160a01b038381166001600160a01b03198316179092556040519116907fca4f2f25d0898edd99413412fb94012f9e54ec8142f9b093e7720646a95b16a9906107fa9083908590613c32565b6008546001600160a01b0316156113655760405162461bcd60e51b815260040161078690613e20565b6000546001600160a01b0316331461138f5760405162461bcd60e51b815260040161078690613f30565b6001600160a01b0385166113b55760405162461bcd60e51b815260040161078690613e60565b6001600160a01b0384166113db5760405162461bcd60e51b815260040161078690613fa0565b61168083101580156113f0575062013b008311155b61140c5760405162461bcd60e51b815260040161078690614040565b6001821015801561141f5750619d808211155b61143b5760405162461bcd60e51b815260040161078690613f10565b690a968163f0a57b400000811015801561145f575069152d02c7e14af68000008111155b61147b5760405162461bcd60e51b815260040161078690613ed0565b600880546001600160a01b039687166001600160a01b0319918216179091556009805495909616941693909317909355600455600391909155600555565b6008546001600160a01b031681565b60075481565b6000600654600014156114f35760405162461bcd60e51b815260040161078690613e80565b6005546009546001600160a01b031663782d6fe133611513436001612161565b6040518363ffffffff1660e01b8152600401611530929190613c17565b60206040518083038186803b15801561154857600080fd5b505afa15801561155c573d6000803e3d6000fd5b505050506040513d601f19601f820116820180604052506115809190810190612b88565b6001600160601b0316116115a65760405162461bcd60e51b815260040161078690614000565b845186511480156115b8575083518651145b80156115c5575082518651145b6115e15760405162461bcd60e51b815260040161078690613f20565b85516115ff5760405162461bcd60e51b815260040161078690613f80565b600a865111156116215760405162461bcd60e51b815260040161078690613fc0565b336000908152600b6020526040902054801561169e57600061164282610e16565b9050600181600781111561165257fe5b14156116705760405162461bcd60e51b815260040161078690613fe0565b600081600781111561167e57fe5b141561169c5760405162461bcd60e51b815260040161078690613fd0565b505b60006116ac4360035461213c565b905060006116bc8260045461213c565b60078054600101908190556000908152600a60205260409020805491925090156116f85760405162461bcd60e51b815260040161078690613ee0565b60075481556001810180546001600160a01b0319163317905560006002820155895161172d90600383019060208d01906122e8565b50885161174390600483019060208c019061234d565b50875161175990600583019060208b0190612394565b50865161176f90600683019060208a01906123ed565b5082816007018190555081816008018190555060008160090181905550600081600a0181905550600081600b0181905550600081600c0160006101000a81548160ff021916908315150217905550600081600c0160016101000a81548160ff0219169083151502179055508060000154600b60008360010160009054906101000a90046001600160a01b03166001600160a01b03166001600160a01b03168152602001908152602001600020819055507f7d84a6263ae0d98d3329bd7b46bb4e8d6f98cd35a7adb45c274c8b7fd5ebd5e08160000154338c8c8c8c89898e6040516118629998979695949392919061406e565b60405180910390a15493505050505b95945050505050565b600461188582610e16565b600781111561189057fe5b146118ad5760405162461bcd60e51b815260040161078690613f50565b6000818152600a602090815260408083206008548251630d48571f60e31b815292519194936119079342936001600160a01b0390931692636a42b8f892600480840193919291829003018186803b158015610f4457600080fd5b905060005b6003830154811015611aaf57611aa783600301828154811061192a57fe5b6000918252602090912001546004850180546001600160a01b03909216918490811061195257fe5b906000526020600020015485600501848154811061196c57fe5b600091825260209182902001805460408051601f60026000196101006001871615020190941693909304928301859004850281018501909152818152928301828280156119fa5780601f106119cf576101008083540402835291602001916119fa565b820191906000526020600020905b8154815290600101906020018083116119dd57829003601f168201915b5050505050866006018581548110611a0e57fe5b600091825260209182902001805460408051601f6002600019610100600187161502019094169390930492830185900485028101850190915281815292830182828015611a9c5780601f10611a7157610100808354040283529160200191611a9c565b820191906000526020600020905b815481529060010190602001808311611a7f57829003601f168201915b505050505086612189565b60010161190c565b50600282018190556040517f9a2e42fd6722813d69113e7d0079d3d940171428df7373df9c7f7617cfda289290611ae9908590849061419c565b60405180910390a1505050565b60405161096a90613bc2565b611b0a612446565b506000828152600a602090815260408083206001600160a01b0385168452600d018252918290208251606081018452905460ff8082161515835261010082041692820192909252620100009091046001600160601b0316918101919091525b92915050565b600181565b6001546001600160a01b031633148015611b8d57503315155b611ba95760405162461bcd60e51b815260040161078690613f90565b60008054600180546001600160a01b038082166001600160a01b03198086168217968790559092169092556040519282169390927ff9ffabca9c8276e99321725bcb43fb076a6c66a54b7f21c4e8146d8519b417dc92611c0d928692911690613c32565b60405180910390a16001546040517fca4f2f25d0898edd99413412fb94012f9e54ec8142f9b093e7720646a95b16a9916107fa9184916001600160a01b031690613c32565b6000546001600160a01b031681565b6000546001600160a01b03163314611c8b5760405162461bcd60e51b815260040161078690613ff0565b60065415611cab5760405162461bcd60e51b815260040161078690613f70565b806001600160a01b031663da35c6646040518163ffffffff1660e01b8152600401602060405180830381600087803b158015611ce657600080fd5b505af1158015611cfa573d6000803e3d6000fd5b505050506040513d601f19601f82011682018060405250611d1e91908101906129ff565b600781905560065560085460408051630e18b68160e01b815290516001600160a01b0390921691630e18b6819160048082019260009290919082900301818387803b158015611d6c57600080fd5b505af1158015611d80573d6000803e3d6000fd5b5050505050565b60065481565b6005611d9882610e16565b6007811115611da357fe5b14611dc05760405162461bcd60e51b815260040161078690613ef0565b6000818152600a60205260408120600c8101805461ff001916610100179055905b6003820154811015611f16576008546004830180546001600160a01b0390921691630825f38f919084908110611e1357fe5b9060005260206000200154846003018481548110611e2d57fe5b6000918252602090912001546004860180546001600160a01b039092169186908110611e5557fe5b9060005260206000200154866005018681548110611e6f57fe5b90600052602060002001876006018781548110611e8857fe5b9060005260206000200188600201546040518763ffffffff1660e01b8152600401611eb7959493929190613cb5565b6000604051808303818588803b158015611ed057600080fd5b505af1158015611ee4573d6000803e3d6000fd5b50505050506040513d6000823e601f3d908101601f19168201604052611f0d9190810190612a1d565b50600101611de1565b507f712ae1383f79ac853f8d882153778e0260ef8f03b504e2866e0593e04d2b291f826040516107fa9190613d43565b465b90565b60006001611f5884610e16565b6007811115611f6357fe5b14611f805760405162461bcd60e51b815260040161078690613ea0565b60028260ff161115611fa45760405162461bcd60e51b815260040161078690613e10565b6000838152600a602090815260408083206001600160a01b0388168452600d8101909252909120805460ff1615611fed5760405162461bcd60e51b815260040161078690613eb0565b600954600783015460405163782d6fe160e01b81526000926001600160a01b03169163782d6fe191612023918b91600401613c4d565b60206040518083038186803b15801561203b57600080fd5b505afa15801561204f573d6000803e3d6000fd5b505050506040513d601f19601f820116820180604052506120739190810190612b88565b905060ff851661209e5761209483600a0154826001600160601b031661213c565b600a8401556120f4565b8460ff16600114156120cb576120c18360090154826001600160601b031661213c565b60098401556120f4565b8460ff16600214156120f4576120ee83600b0154826001600160601b031661213c565b600b8401555b8154600160ff199091161761ff00191661010060ff871602176dffffffffffffffffffffffff00001916620100006001600160601b03831602179091559150505b9392505050565b6000828201838110156121355760405162461bcd60e51b815260040161078690613f60565b6000828211156121835760405162461bcd60e51b815260040161078690614050565b50900390565b6008546040516001600160a01b039091169063f2b06537906121b79088908890889088908890602001613c5b565b604051602081830303815290604052805190602001206040518263ffffffff1660e01b81526004016121e99190613d43565b60206040518083038186803b15801561220157600080fd5b505afa158015612215573d6000803e3d6000fd5b505050506040513d601f19601f8201168201806040525061223991908101906129e1565b156122565760405162461bcd60e51b815260040161078690613e40565b600854604051633a66f90160e01b81526001600160a01b0390911690633a66f9019061228e9088908890889088908890600401613c5b565b602060405180830381600087803b1580156122a857600080fd5b505af11580156122bc573d6000803e3d6000fd5b505050506040513d601f19601f820116820180604052506122e091908101906129ff565b505050505050565b82805482825590600052602060002090810192821561233d579160200282015b8281111561233d57825182546001600160a01b0319166001600160a01b03909116178255602090920191600190910190612308565b50612349929150612466565b5090565b828054828255906000526020600020908101928215612388579160200282015b8281111561238857825182559160200191906001019061236d565b5061234992915061248a565b8280548282559060005260206000209081019282156123e1579160200282015b828111156123e157825180516123d19184916020909101906124a4565b50916020019190600101906123b4565b50612349929150612511565b82805482825590600052602060002090810192821561243a579160200282015b8281111561243a578251805161242a9184916020909101906124a4565b509160200191906001019061240d565b50612349929150612534565b604080516060810182526000808252602082018190529181019190915290565b611f4891905b808211156123495780546001600160a01b031916815560010161246c565b611f4891905b808211156123495760008155600101612490565b828054600181600116156101000203166002900490600052602060002090601f016020900481019282601f106124e557805160ff1916838001178555612388565b82800160010185558215612388579182018281111561238857825182559160200191906001019061236d565b611f4891905b8082111561234957600061252b8282612557565b50600101612517565b611f4891905b8082111561234957600061254e8282612557565b5060010161253a565b50805460018160011615610100020316600290046000825580601f1061257d575061259b565b601f01602090049060005260206000209081019061259b919061248a565b50565b8035611b6981614364565b600082601f8301126125ba57600080fd5b81356125cd6125c882614250565b614229565b915081818352602084019350602081019050838560208402820111156125f257600080fd5b60005b8381101561261e5781612608888261259e565b84525060209283019291909101906001016125f5565b5050505092915050565b600082601f83011261263957600080fd5b81356126476125c882614250565b81815260209384019390925082018360005b8381101561261e578135860161266f8882612773565b8452506020928301929190910190600101612659565b600082601f83011261269657600080fd5b81356126a46125c882614250565b81815260209384019390925082018360005b8381101561261e57813586016126cc8882612773565b84525060209283019291909101906001016126b6565b600082601f8301126126f357600080fd5b81356127016125c882614250565b9150818183526020840193506020810190508385602084028201111561272657600080fd5b60005b8381101561261e578161273c888261275d565b8452506020928301929190910190600101612729565b8051611b6981614378565b8035611b6981614381565b8051611b6981614381565b600082601f83011261278457600080fd5b81356127926125c882614271565b915080825260208301602083018583830111156127ae57600080fd5b6127b9838284614318565b50505092915050565b600082601f8301126127d357600080fd5b81516127e16125c882614271565b915080825260208301602083018583830111156127fd57600080fd5b6127b9838284614324565b60008083601f84011261281a57600080fd5b50813567ffffffffffffffff81111561283257600080fd5b60208301915083600182028301111561284a57600080fd5b9250929050565b8035611b698161438a565b8051611b6981614393565b60006020828403121561287957600080fd5b6000612885848461259e565b949350505050565b600080600080600060a086880312156128a557600080fd5b60006128b1888861259e565b95505060206128c28882890161259e565b94505060406128d38882890161275d565b93505060606128e48882890161275d565b92505060806128f58882890161275d565b9150509295509295909350565b600080600080600060a0868803121561291a57600080fd5b853567ffffffffffffffff81111561293157600080fd5b61293d888289016125a9565b955050602086013567ffffffffffffffff81111561295a57600080fd5b612966888289016126e2565b945050604086013567ffffffffffffffff81111561298357600080fd5b61298f88828901612685565b935050606086013567ffffffffffffffff8111156129ac57600080fd5b6129b888828901612628565b925050608086013567ffffffffffffffff8111156129d557600080fd5b6128f588828901612773565b6000602082840312156129f357600080fd5b60006128858484612752565b600060208284031215612a1157600080fd5b60006128858484612768565b600060208284031215612a2f57600080fd5b815167ffffffffffffffff811115612a4657600080fd5b612885848285016127c2565b600060208284031215612a6457600080fd5b6000612885848461275d565b60008060408385031215612a8357600080fd5b6000612a8f858561275d565b9250506020612aa08582860161259e565b9150509250929050565b60008060408385031215612abd57600080fd5b6000612ac9858561275d565b9250506020612aa085828601612851565b60008060008060608587031215612af057600080fd5b6000612afc878761275d565b9450506020612b0d87828801612851565b935050604085013567ffffffffffffffff811115612b2a57600080fd5b612b3687828801612808565b95989497509550505050565b600080600080600060a08688031215612b5a57600080fd5b6000612b66888861275d565b9550506020612b7788828901612851565b94505060406128d388828901612851565b600060208284031215612b9a57600080fd5b6000612885848461285c565b6000612bb28383612be1565b505060200190565b60006121358383612d83565b6000612bb28383612d69565b612bdb816142f0565b82525050565b612bdb816142b8565b6000612bf5826142ab565b612bff81856142af565b9350612c0a83614299565b8060005b83811015612c38578151612c228882612ba6565b9750612c2d83614299565b925050600101612c0e565b509495945050505050565b6000612c4e826142ab565b612c5881856142af565b935083602082028501612c6a85614299565b8060005b85811015612ca45784840389528151612c878582612bba565b9450612c9283614299565b60209a909a0199925050600101612c6e565b5091979650505050505050565b6000612cbc826142ab565b612cc681856142af565b935083602082028501612cd885614299565b8060005b85811015612ca45784840389528151612cf58582612bba565b9450612d0083614299565b60209a909a0199925050600101612cdc565b6000612d1d826142ab565b612d2781856142af565b9350612d3283614299565b8060005b83811015612c38578151612d4a8882612bc6565b9750612d5583614299565b925050600101612d36565b612bdb816142c3565b612bdb81611f48565b612bdb612d7e82611f48565b611f48565b6000612d8e826142ab565b612d9881856142af565b9350612da8818560208601614324565b612db181614350565b9093019392505050565b600081546001811660008114612dd85760018114612dfe57612e3d565b607f6002830416612de981876142af565b60ff1984168152955050602085019250612e3d565b60028204612e0c81876142af565b9550612e178561429f565b60005b82811015612e3657815488820152600190910190602001612e1a565b8701945050505b505092915050565b612bdb816142f7565b612bdb81614302565b6000612e6383856142af565b9350612e70838584614318565b612db183614350565b6000612e866032836142af565b7f476f7665726e6f72427261766f3a3a63617374566f7465496e7465726e616c3a81527120696e76616c696420766f7465207479706560701b602082015260400192915050565b6000612eda602883610f97565b7f42616c6c6f742875696e743235362070726f706f73616c49642c75696e743820815267737570706f72742960c01b602082015260280192915050565b6000612f246033836142af565b7f476f7665726e6f72427261766f3a3a696e697469616c697a653a2063616e206f8152726e6c7920696e697469616c697a65206f6e636560681b602082015260400192915050565b6000612f79602a836142af565b7f476f7665726e6f72427261766f3a5f73657450656e64696e6741646d696e3a2081526961646d696e206f6e6c7960b01b602082015260400192915050565b6000612fc56055836142af565b7f476f7665726e6f72427261766f3a3a71756575654f72526576657274496e746581527f726e616c3a206964656e746963616c2070726f706f73616c20616374696f6e20602082015274616c7265616479207175657565642061742065746160581b604082015260600192915050565b6000613042602b836142af565b7f476f7665726e6f72427261766f3a3a5f736574566f74696e67506572696f643a81526a2061646d696e206f6e6c7960a81b602082015260400192915050565b600061308f6033836142af565b60008051602061439d83398151915281527269642074696d656c6f636b206164647265737360681b602082015260400192915050565b60006130d2602a836142af565b7f476f7665726e6f72427261766f3a3a5f736574566f74696e6744656c61793a2081526961646d696e206f6e6c7960b01b602082015260400192915050565b600061311e6031836142af565b7f476f7665726e6f72427261766f3a3a70726f706f73653a20476f7665726e6f7281527020427261766f206e6f742061637469766560781b602082015260400192915050565b6000613171600283610f97565b61190160f01b815260020192915050565b600061318f6036836142af565b7f476f7665726e6f72427261766f3a3a5f736574566f74696e67506572696f643a815275081a5b9d985b1a59081d9bdd1a5b99c81c195c9a5bd960521b602082015260400192915050565b60006131e76031836142af565b7f476f7665726e6f72427261766f3a3a63617374566f7465496e7465726e616c3a815270081d9bdd1a5b99c81a5cc818db1bdcd959607a1b602082015260400192915050565b600061323a6034836142af565b7f476f7665726e6f72427261766f3a3a63617374566f7465496e7465726e616c3a815273081d9bdd195c88185b1c9958591e481d9bdd195960621b602082015260400192915050565b60006132906034836142af565b7f476f7665726e6f72427261766f3a3a5f736574566f74696e6744656c61793a20815273696e76616c696420766f74696e672064656c617960601b602082015260400192915050565b60006132e66035836142af565b60008051602061439d8339815191528152741a59081c1c9bdc1bdcd85b081d1a1c995cda1bdb19605a1b602082015260400192915050565b600061332b602b836142af565b7f476f7665726e6f72427261766f3a3a70726f706f73653a2050726f706f73616c81526a24a21031b7b63639b4b7b760a91b602082015260400192915050565b60006133786045836142af565b7f476f7665726e6f72427261766f3a3a657865637574653a2070726f706f73616c81527f2063616e206f6e6c7920626520657865637574656420696620697420697320716020820152641d595d595960da1b604082015260600192915050565b60006133e5602f836142af565b7f476f7665726e6f72427261766f3a3a63617374566f746542795369673a20696e81526e76616c6964207369676e617475726560881b602082015260400192915050565b6000613436602f836142af565b60008051602061439d83398151915281526e696420766f74696e672064656c617960881b602082015260400192915050565b60006134756044836142af565b7f476f7665726e6f72427261766f3a3a70726f706f73653a2070726f706f73616c81527f2066756e6374696f6e20696e666f726d6174696f6e206172697479206d69736d6020820152630c2e8c6d60e31b604082015260600192915050565b60006134e16025836142af565b7f476f7665726e6f72427261766f3a3a696e697469616c697a653a2061646d696e815264206f6e6c7960d81b602082015260400192915050565b60006135286040836142af565b7f476f7665726e6f72427261766f3a3a5f73657450726f706f73616c546872657381527f686f6c643a20696e76616c69642070726f706f73616c207468726573686f6c64602082015260400192915050565b60006135876044836142af565b7f476f7665726e6f72427261766f3a3a71756575653a2070726f706f73616c206381527f616e206f6e6c79206265207175657565642069662069742069732073756363656020820152631959195960e21b604082015260600192915050565b60006135f36011836142af565b706164646974696f6e206f766572666c6f7760781b815260200192915050565b6000613620604383610f97565b7f454950373132446f6d61696e28737472696e67206e616d652c75696e7432353681527f20636861696e49642c6164647265737320766572696679696e67436f6e74726160208201526263742960e81b604082015260430192915050565b600061368b6030836142af565b7f476f7665726e6f72427261766f3a3a5f696e6974696174653a2063616e206f6e81526f6c7920696e697469617465206f6e636560801b602082015260400192915050565b60006136dd602c836142af565b7f476f7665726e6f72427261766f3a3a70726f706f73653a206d7573742070726f81526b7669646520616374696f6e7360a01b602082015260400192915050565b600061372b602e836142af565b7f476f7665726e6f72427261766f3a5f61636365707441646d696e3a2070656e6481526d696e672061646d696e206f6e6c7960901b602082015260400192915050565b600061377b602f836142af565b60008051602061439d83398151915281526e696420636f6d70206164647265737360881b602082015260400192915050565b60006137ba602f836142af565b7f476f7665726e6f72427261766f3a3a63616e63656c3a2070726f706f7365722081526e18589bdd99481d1a1c995cda1bdb19608a1b602082015260400192915050565b600061380b6028836142af565b7f476f7665726e6f72427261766f3a3a70726f706f73653a20746f6f206d616e7981526720616374696f6e7360c01b602082015260400192915050565b60006138556059836142af565b7f476f7665726e6f72427261766f3a3a70726f706f73653a206f6e65206c69766581527f2070726f706f73616c207065722070726f706f7365722c20666f756e6420616e60208201527f20616c72656164792070656e64696e672070726f706f73616c00000000000000604082015260600192915050565b60006138da6058836142af565b7f476f7665726e6f72427261766f3a3a70726f706f73653a206f6e65206c69766581527f2070726f706f73616c207065722070726f706f7365722c20666f756e6420616e60208201527f20616c7265616479206163746976652070726f706f73616c0000000000000000604082015260600192915050565b6000611b696000836142af565b600061396c6024836142af565b7f476f7665726e6f72427261766f3a3a5f696e6974696174653a2061646d696e208152636f6e6c7960e01b602082015260400192915050565b60006139b2603f836142af565b7f476f7665726e6f72427261766f3a3a70726f706f73653a2070726f706f73657281527f20766f7465732062656c6f772070726f706f73616c207468726573686f6c6400602082015260400192915050565b6000613a116036836142af565b7f476f7665726e6f72427261766f3a3a63616e63656c3a2063616e6e6f742063618152751b98d95b08195e1958dd5d1959081c1c9bdc1bdcd85b60521b602082015260400192915050565b6000613a696030836142af565b7f476f7665726e6f72427261766f3a3a5f73657450726f706f73616c546872657381526f686f6c643a2061646d696e206f6e6c7960801b602082015260400192915050565b6000613abb6029836142af565b7f476f7665726e6f72427261766f3a3a73746174653a20696e76616c69642070728152681bdc1bdcd85b081a5960ba1b602082015260400192915050565b6000613b066030836142af565b60008051602061439d83398151915281526f1a59081d9bdd1a5b99c81c195c9a5bd960821b602082015260400192915050565b6000613b466015836142af565b747375627472616374696f6e20756e646572666c6f7760581b815260200192915050565b80516060830190613b7b8482612d60565b506020820151613b8e6020850182613ba7565b506040820151613ba16040850182613bb9565b50505050565b612bdb816142de565b612bdb8161430d565b612bdb816142e4565b6000611b6982612ecd565b6000613bd882613164565b9150613be48285612d72565b602082019150613bf48284612d72565b5060200192915050565b6000611b6982613613565b60208101611b698284612be1565b60408101613c258285612bd2565b6121356020830184612d69565b60408101613c408285612be1565b6121356020830184612be1565b60408101613c258285612be1565b60a08101613c698288612be1565b613c766020830187612d69565b8181036040830152613c888186612d83565b90508181036060830152613c9c8185612d83565b9050613cab6080830184612d69565b9695505050505050565b60a08101613cc38288612be1565b613cd06020830187612d69565b8181036040830152613ce28186612dbb565b90508181036060830152613c9c8185612dbb565b60808082528101613d078187612bea565b90508181036020830152613d1b8186612d12565b90508181036040830152613d2f8185612cb1565b90508181036060830152613cab8184612c43565b60208101611b698284612d69565b60808101613d5f8287612d69565b613d6c6020830186612d69565b613d796040830185612d69565b6118716060830184612be1565b60608101613d948286612d69565b613da16020830185612d69565b6128856040830184613ba7565b60808101613dbc8287612d69565b613dc96020830186613ba7565b613dd66040830185612d69565b6118716060830184612d69565b60208101611b698284612e45565b60208101611b698284612e4e565b602080825281016121358184612d83565b60208082528101611b6981612e79565b60208082528101611b6981612f17565b60208082528101611b6981612f6c565b60208082528101611b6981612fb8565b60208082528101611b6981613035565b60208082528101611b6981613082565b60208082528101611b69816130c5565b60208082528101611b6981613111565b60208082528101611b6981613182565b60208082528101611b69816131da565b60208082528101611b698161322d565b60208082528101611b6981613283565b60208082528101611b69816132d9565b60208082528101611b698161331e565b60208082528101611b698161336b565b60208082528101611b69816133d8565b60208082528101611b6981613429565b60208082528101611b6981613468565b60208082528101611b69816134d4565b60208082528101611b698161351b565b60208082528101611b698161357a565b60208082528101611b69816135e6565b60208082528101611b698161367e565b60208082528101611b69816136d0565b60208082528101611b698161371e565b60208082528101611b698161376e565b60208082528101611b69816137ad565b60208082528101611b69816137fe565b60208082528101611b6981613848565b60208082528101611b69816138cd565b60208082528101611b698161395f565b60208082528101611b69816139a5565b60208082528101611b6981613a04565b60208082528101611b6981613a5c565b60208082528101611b6981613aae565b60208082528101611b6981613af9565b60208082528101611b6981613b39565b60608101611b698284613b6a565b610120810161407d828c612d69565b61408a602083018b612bd2565b818103604083015261409c818a612bea565b905081810360608301526140b08189612d12565b905081810360808301526140c48188612cb1565b905081810360a08301526140d88187612c43565b90506140e760c0830186612d69565b6140f460e0830185612d69565b8181036101008301526141078184612d83565b9b9a5050505050505050505050565b6101408101614125828d612d69565b614132602083018c612be1565b61413f604083018b612d69565b61414c606083018a612d69565b6141596080830189612d69565b61416660a0830188612d69565b61417360c0830187612d69565b61418060e0830186612d69565b61418e610100830185612d60565b614107610120830184612d60565b60408101613c258285612d69565b608081016141b88288612d69565b6141c56020830187613ba7565b6141d26040830186613bb0565b81810360608301526141e5818486612e57565b979650505050505050565b608081016141fe8286612d69565b61420b6020830185613ba7565b6142186040830184613bb0565b818103606083015261187181613952565b60405181810167ffffffffffffffff8111828210171561424857600080fd5b604052919050565b600067ffffffffffffffff82111561426757600080fd5b5060209081020190565b600067ffffffffffffffff82111561428857600080fd5b506020601f91909101601f19160190565b60200190565b60009081526020902090565b5190565b90815260200190565b6000611b69826142d2565b151590565b80610f978161435a565b6001600160a01b031690565b60ff1690565b6001600160601b031690565b6000611b69825b6000611b69826142b8565b6000611b69826142c8565b6000611b69826142e4565b82818337506000910152565b60005b8381101561433f578181015183820152602001614327565b83811115613ba15750506000910152565b601f01601f191690565b6008811061259b57fe5b61436d816142b8565b811461259b57600080fd5b61436d816142c3565b61436d81611f48565b61436d816142de565b61436d816142e456fe476f7665726e6f72427261766f3a3a696e697469616c697a653a20696e76616ca365627a7a72315820c24910deedcec1064162efe22dfa06c8d883da5005f45c82945430b39ae50af26c6578706572696d656e74616cf564736f6c63430005100040","opcodes":"PUSH1 0x80 PUSH1 0x40 MSTORE CALLVALUE DUP1 ISZERO PUSH2 0x10 JUMPI PUSH1 0x0 DUP1 REVERT JUMPDEST POP PUSH2 0x43FF DUP1 PUSH2 0x20 PUSH1 0x0 CODECOPY PUSH1 0x0 RETURN INVALID PUSH1 0x80 PUSH1 0x40 MSTORE PUSH1 0x4 CALLDATASIZE LT PUSH2 0x23B JUMPI PUSH1 0x0 CALLDATALOAD PUSH1 0xE0 SHR DUP1 PUSH4 0x791F5D23 GT PUSH2 0x12E JUMPI DUP1 PUSH4 0xDA95691A GT PUSH2 0xAB JUMPI DUP1 PUSH4 0xE9C714F2 GT PUSH2 0x6F JUMPI DUP1 PUSH4 0xE9C714F2 EQ PUSH2 0x64E JUMPI DUP1 PUSH4 0xF851A440 EQ PUSH2 0x663 JUMPI DUP1 PUSH4 0xF9D28B80 EQ PUSH2 0x678 JUMPI DUP1 PUSH4 0xFC4EEE42 EQ PUSH2 0x698 JUMPI DUP1 PUSH4 0xFE0D94C1 EQ PUSH2 0x6AD JUMPI PUSH2 0x23B JUMP JUMPDEST DUP1 PUSH4 0xDA95691A EQ PUSH2 0x5B7 JUMPI DUP1 PUSH4 0xDDF0B009 EQ PUSH2 0x5D7 JUMPI DUP1 PUSH4 0xDEAAA7CC EQ PUSH2 0x5F7 JUMPI DUP1 PUSH4 0xE23A9A52 EQ PUSH2 0x60C JUMPI DUP1 PUSH4 0xE48083FE EQ PUSH2 0x639 JUMPI PUSH2 0x23B JUMP JUMPDEST DUP1 PUSH4 0xB58131B0 GT PUSH2 0xF2 JUMPI DUP1 PUSH4 0xB58131B0 EQ PUSH2 0x538 JUMPI DUP1 PUSH4 0xB71D1A0C EQ PUSH2 0x54D JUMPI DUP1 PUSH4 0xD13F90B4 EQ PUSH2 0x56D JUMPI DUP1 PUSH4 0xD33219B4 EQ PUSH2 0x58D JUMPI DUP1 PUSH4 0xDA35C664 EQ PUSH2 0x5A2 JUMPI PUSH2 0x23B JUMP JUMPDEST DUP1 PUSH4 0x791F5D23 EQ PUSH2 0x4C4 JUMPI DUP1 PUSH4 0x7B3C71D3 EQ PUSH2 0x4D9 JUMPI DUP1 PUSH4 0x7BDBE4D0 EQ PUSH2 0x4F9 JUMPI DUP1 PUSH4 0xA64E024A EQ PUSH2 0x50E JUMPI DUP1 PUSH4 0xB1126263 EQ PUSH2 0x523 JUMPI PUSH2 0x23B JUMP JUMPDEST DUP1 PUSH4 0x24BC1A64 GT PUSH2 0x1BC JUMPI DUP1 PUSH4 0x3BCCF4FD GT PUSH2 0x180 JUMPI DUP1 PUSH4 0x3BCCF4FD EQ PUSH2 0x422 JUMPI DUP1 PUSH4 0x3E4F49E6 EQ PUSH2 0x442 JUMPI DUP1 PUSH4 0x40E58EE5 EQ PUSH2 0x46F JUMPI DUP1 PUSH4 0x56781388 EQ PUSH2 0x48F JUMPI DUP1 PUSH4 0x5C60DA1B EQ PUSH2 0x4AF JUMPI PUSH2 0x23B JUMP JUMPDEST DUP1 PUSH4 0x24BC1A64 EQ PUSH2 0x391 JUMPI DUP1 PUSH4 0x25FD935A EQ PUSH2 0x3A6 JUMPI DUP1 PUSH4 0x26782247 EQ PUSH2 0x3BB JUMPI DUP1 PUSH4 0x328DD982 EQ PUSH2 0x3DD JUMPI DUP1 PUSH4 0x3932ABB1 EQ PUSH2 0x40D JUMPI PUSH2 0x23B JUMP JUMPDEST DUP1 PUSH4 0x17977C61 GT PUSH2 0x203 JUMPI DUP1 PUSH4 0x17977C61 EQ PUSH2 0x307 JUMPI DUP1 PUSH4 0x17BA1B8B EQ PUSH2 0x327 JUMPI DUP1 PUSH4 0x1DFB1B5A EQ PUSH2 0x347 JUMPI DUP1 PUSH4 0x20606B70 EQ PUSH2 0x367 JUMPI DUP1 PUSH4 0x215809CA EQ PUSH2 0x37C JUMPI PUSH2 0x23B JUMP JUMPDEST DUP1 PUSH4 0x13CF08B EQ PUSH2 0x240 JUMPI DUP1 PUSH4 0x2A251A3 EQ PUSH2 0x27F JUMPI DUP1 PUSH4 0x6FDDE03 EQ PUSH2 0x2A1 JUMPI DUP1 PUSH4 0xEA2D98C EQ PUSH2 0x2C3 JUMPI DUP1 PUSH4 0x109D0AF8 EQ PUSH2 0x2E5 JUMPI JUMPDEST PUSH1 0x0 DUP1 REVERT JUMPDEST CALLVALUE DUP1 ISZERO PUSH2 0x24C JUMPI PUSH1 0x0 DUP1 REVERT JUMPDEST POP PUSH2 0x260 PUSH2 0x25B CALLDATASIZE PUSH1 0x4 PUSH2 0x2A52 JUMP JUMPDEST PUSH2 0x6C0 JUMP JUMPDEST PUSH1 0x40 MLOAD PUSH2 0x276 SWAP11 SWAP10 SWAP9 SWAP8 SWAP7 SWAP6 SWAP5 SWAP4 SWAP3 SWAP2 SWAP1 PUSH2 0x4116 JUMP JUMPDEST PUSH1 0x40 MLOAD DUP1 SWAP2 SUB SWAP1 RETURN JUMPDEST CALLVALUE DUP1 ISZERO PUSH2 0x28B JUMPI PUSH1 0x0 DUP1 REVERT JUMPDEST POP PUSH2 0x294 PUSH2 0x723 JUMP JUMPDEST PUSH1 0x40 MLOAD PUSH2 0x276 SWAP2 SWAP1 PUSH2 0x3D43 JUMP JUMPDEST CALLVALUE DUP1 ISZERO PUSH2 0x2AD JUMPI PUSH1 0x0 DUP1 REVERT JUMPDEST POP PUSH2 0x2B6 PUSH2 0x729 JUMP JUMPDEST PUSH1 0x40 MLOAD PUSH2 0x276 SWAP2 SWAP1 PUSH2 0x3DFF JUMP JUMPDEST CALLVALUE DUP1 ISZERO PUSH2 0x2CF JUMPI PUSH1 0x0 DUP1 REVERT JUMPDEST POP PUSH2 0x2E3 PUSH2 0x2DE CALLDATASIZE PUSH1 0x4 PUSH2 0x2A52 JUMP JUMPDEST PUSH2 0x75C JUMP JUMPDEST STOP JUMPDEST CALLVALUE DUP1 ISZERO PUSH2 0x2F1 JUMPI PUSH1 0x0 DUP1 REVERT JUMPDEST POP PUSH2 0x2FA PUSH2 0x806 JUMP JUMPDEST PUSH1 0x40 MLOAD PUSH2 0x276 SWAP2 SWAP1 PUSH2 0x3DE3 JUMP JUMPDEST CALLVALUE DUP1 ISZERO PUSH2 0x313 JUMPI PUSH1 0x0 DUP1 REVERT JUMPDEST POP PUSH2 0x294 PUSH2 0x322 CALLDATASIZE PUSH1 0x4 PUSH2 0x2867 JUMP JUMPDEST PUSH2 0x815 JUMP JUMPDEST CALLVALUE DUP1 ISZERO PUSH2 0x333 JUMPI PUSH1 0x0 DUP1 REVERT JUMPDEST POP PUSH2 0x2E3 PUSH2 0x342 CALLDATASIZE PUSH1 0x4 PUSH2 0x2A52 JUMP JUMPDEST PUSH2 0x827 JUMP JUMPDEST CALLVALUE DUP1 ISZERO PUSH2 0x353 JUMPI PUSH1 0x0 DUP1 REVERT JUMPDEST POP PUSH2 0x2E3 PUSH2 0x362 CALLDATASIZE PUSH1 0x4 PUSH2 0x2A52 JUMP JUMPDEST PUSH2 0x8CB JUMP JUMPDEST CALLVALUE DUP1 ISZERO PUSH2 0x373 JUMPI PUSH1 0x0 DUP1 REVERT JUMPDEST POP PUSH2 0x294 PUSH2 0x95E JUMP JUMPDEST CALLVALUE DUP1 ISZERO PUSH2 0x388 JUMPI PUSH1 0x0 DUP1 REVERT JUMPDEST POP PUSH2 0x294 PUSH2 0x975 JUMP JUMPDEST CALLVALUE DUP1 ISZERO PUSH2 0x39D JUMPI PUSH1 0x0 DUP1 REVERT JUMPDEST POP PUSH2 0x294 PUSH2 0x97B JUMP JUMPDEST CALLVALUE DUP1 ISZERO PUSH2 0x3B2 JUMPI PUSH1 0x0 DUP1 REVERT JUMPDEST POP PUSH2 0x294 PUSH2 0x989 JUMP JUMPDEST CALLVALUE DUP1 ISZERO PUSH2 0x3C7 JUMPI PUSH1 0x0 DUP1 REVERT JUMPDEST POP PUSH2 0x3D0 PUSH2 0x997 JUMP JUMPDEST PUSH1 0x40 MLOAD PUSH2 0x276 SWAP2 SWAP1 PUSH2 0x3C09 JUMP JUMPDEST CALLVALUE DUP1 ISZERO PUSH2 0x3E9 JUMPI PUSH1 0x0 DUP1 REVERT JUMPDEST POP PUSH2 0x3FD PUSH2 0x3F8 CALLDATASIZE PUSH1 0x4 PUSH2 0x2A52 JUMP JUMPDEST PUSH2 0x9A6 JUMP JUMPDEST PUSH1 0x40 MLOAD PUSH2 0x276 SWAP5 SWAP4 SWAP3 SWAP2 SWAP1 PUSH2 0x3CF6 JUMP JUMPDEST CALLVALUE DUP1 ISZERO PUSH2 0x419 JUMPI PUSH1 0x0 DUP1 REVERT JUMPDEST POP PUSH2 0x294 PUSH2 0xC35 JUMP JUMPDEST CALLVALUE DUP1 ISZERO PUSH2 0x42E JUMPI PUSH1 0x0 DUP1 REVERT JUMPDEST POP PUSH2 0x2E3 PUSH2 0x43D CALLDATASIZE PUSH1 0x4 PUSH2 0x2B42 JUMP JUMPDEST PUSH2 0xC3B JUMP JUMPDEST CALLVALUE DUP1 ISZERO PUSH2 0x44E JUMPI PUSH1 0x0 DUP1 REVERT JUMPDEST POP PUSH2 0x462 PUSH2 0x45D CALLDATASIZE PUSH1 0x4 PUSH2 0x2A52 JUMP JUMPDEST PUSH2 0xE16 JUMP JUMPDEST PUSH1 0x40 MLOAD PUSH2 0x276 SWAP2 SWAP1 PUSH2 0x3DF1 JUMP JUMPDEST CALLVALUE DUP1 ISZERO PUSH2 0x47B JUMPI PUSH1 0x0 DUP1 REVERT JUMPDEST POP PUSH2 0x2E3 PUSH2 0x48A CALLDATASIZE PUSH1 0x4 PUSH2 0x2A52 JUMP JUMPDEST PUSH2 0xF9C JUMP JUMPDEST CALLVALUE DUP1 ISZERO PUSH2 0x49B JUMPI PUSH1 0x0 DUP1 REVERT JUMPDEST POP PUSH2 0x2E3 PUSH2 0x4AA CALLDATASIZE PUSH1 0x4 PUSH2 0x2AAA JUMP JUMPDEST PUSH2 0x11F0 JUMP JUMPDEST CALLVALUE DUP1 ISZERO PUSH2 0x4BB JUMPI PUSH1 0x0 DUP1 REVERT JUMPDEST POP PUSH2 0x3D0 PUSH2 0x123A JUMP JUMPDEST CALLVALUE DUP1 ISZERO PUSH2 0x4D0 JUMPI PUSH1 0x0 DUP1 REVERT JUMPDEST POP PUSH2 0x294 PUSH2 0x1249 JUMP JUMPDEST CALLVALUE DUP1 ISZERO PUSH2 0x4E5 JUMPI PUSH1 0x0 DUP1 REVERT JUMPDEST POP PUSH2 0x2E3 PUSH2 0x4F4 CALLDATASIZE PUSH1 0x4 PUSH2 0x2ADA JUMP JUMPDEST PUSH2 0x1257 JUMP JUMPDEST CALLVALUE DUP1 ISZERO PUSH2 0x505 JUMPI PUSH1 0x0 DUP1 REVERT JUMPDEST POP PUSH2 0x294 PUSH2 0x12A7 JUMP JUMPDEST CALLVALUE DUP1 ISZERO PUSH2 0x51A JUMPI PUSH1 0x0 DUP1 REVERT JUMPDEST POP PUSH2 0x294 PUSH2 0x12AC JUMP JUMPDEST CALLVALUE DUP1 ISZERO PUSH2 0x52F JUMPI PUSH1 0x0 DUP1 REVERT JUMPDEST POP PUSH2 0x294 PUSH2 0x12B3 JUMP JUMPDEST CALLVALUE DUP1 ISZERO PUSH2 0x544 JUMPI PUSH1 0x0 DUP1 REVERT JUMPDEST POP PUSH2 0x294 PUSH2 0x12B9 JUMP JUMPDEST CALLVALUE DUP1 ISZERO PUSH2 0x559 JUMPI PUSH1 0x0 DUP1 REVERT JUMPDEST POP PUSH2 0x2E3 PUSH2 0x568 CALLDATASIZE PUSH1 0x4 PUSH2 0x2867 JUMP JUMPDEST PUSH2 0x12BF JUMP JUMPDEST CALLVALUE DUP1 ISZERO PUSH2 0x579 JUMPI PUSH1 0x0 DUP1 REVERT JUMPDEST POP PUSH2 0x2E3 PUSH2 0x588 CALLDATASIZE PUSH1 0x4 PUSH2 0x288D JUMP JUMPDEST PUSH2 0x133C JUMP JUMPDEST CALLVALUE DUP1 ISZERO PUSH2 0x599 JUMPI PUSH1 0x0 DUP1 REVERT JUMPDEST POP PUSH2 0x2FA PUSH2 0x14B9 JUMP JUMPDEST CALLVALUE DUP1 ISZERO PUSH2 0x5AE JUMPI PUSH1 0x0 DUP1 REVERT JUMPDEST POP PUSH2 0x294 PUSH2 0x14C8 JUMP JUMPDEST CALLVALUE DUP1 ISZERO PUSH2 0x5C3 JUMPI PUSH1 0x0 DUP1 REVERT JUMPDEST POP PUSH2 0x294 PUSH2 0x5D2 CALLDATASIZE PUSH1 0x4 PUSH2 0x2902 JUMP JUMPDEST PUSH2 0x14CE JUMP JUMPDEST CALLVALUE DUP1 ISZERO PUSH2 0x5E3 JUMPI PUSH1 0x0 DUP1 REVERT JUMPDEST POP PUSH2 0x2E3 PUSH2 0x5F2 CALLDATASIZE PUSH1 0x4 PUSH2 0x2A52 JUMP JUMPDEST PUSH2 0x187A JUMP JUMPDEST CALLVALUE DUP1 ISZERO PUSH2 0x603 JUMPI PUSH1 0x0 DUP1 REVERT JUMPDEST POP PUSH2 0x294 PUSH2 0x1AF6 JUMP JUMPDEST CALLVALUE DUP1 ISZERO PUSH2 0x618 JUMPI PUSH1 0x0 DUP1 REVERT JUMPDEST POP PUSH2 0x62C PUSH2 0x627 CALLDATASIZE PUSH1 0x4 PUSH2 0x2A70 JUMP JUMPDEST PUSH2 0x1B02 JUMP JUMPDEST PUSH1 0x40 MLOAD PUSH2 0x276 SWAP2 SWAP1 PUSH2 0x4060 JUMP JUMPDEST CALLVALUE DUP1 ISZERO PUSH2 0x645 JUMPI PUSH1 0x0 DUP1 REVERT JUMPDEST POP PUSH2 0x294 PUSH2 0x1B6F JUMP JUMPDEST CALLVALUE DUP1 ISZERO PUSH2 0x65A JUMPI PUSH1 0x0 DUP1 REVERT JUMPDEST POP PUSH2 0x2E3 PUSH2 0x1B74 JUMP JUMPDEST CALLVALUE DUP1 ISZERO PUSH2 0x66F JUMPI PUSH1 0x0 DUP1 REVERT JUMPDEST POP PUSH2 0x3D0 PUSH2 0x1C52 JUMP JUMPDEST CALLVALUE DUP1 ISZERO PUSH2 0x684 JUMPI PUSH1 0x0 DUP1 REVERT JUMPDEST POP PUSH2 0x2E3 PUSH2 0x693 CALLDATASIZE PUSH1 0x4 PUSH2 0x2867 JUMP JUMPDEST PUSH2 0x1C61 JUMP JUMPDEST CALLVALUE DUP1 ISZERO PUSH2 0x6A4 JUMPI PUSH1 0x0 DUP1 REVERT JUMPDEST POP PUSH2 0x294 PUSH2 0x1D87 JUMP JUMPDEST PUSH2 0x2E3 PUSH2 0x6BB CALLDATASIZE PUSH1 0x4 PUSH2 0x2A52 JUMP JUMPDEST PUSH2 0x1D8D JUMP JUMPDEST PUSH1 0xA PUSH1 0x20 DUP2 SWAP1 MSTORE PUSH1 0x0 SWAP2 DUP3 MSTORE PUSH1 0x40 SWAP1 SWAP2 KECCAK256 DUP1 SLOAD PUSH1 0x1 DUP3 ADD SLOAD PUSH1 0x2 DUP4 ADD SLOAD PUSH1 0x7 DUP5 ADD SLOAD PUSH1 0x8 DUP6 ADD SLOAD PUSH1 0x9 DUP7 ADD SLOAD SWAP7 DUP7 ADD SLOAD PUSH1 0xB DUP8 ADD SLOAD PUSH1 0xC SWAP1 SWAP8 ADD SLOAD SWAP6 SWAP8 PUSH1 0x1 PUSH1 0x1 PUSH1 0xA0 SHL SUB SWAP1 SWAP6 AND SWAP7 SWAP4 SWAP6 SWAP3 SWAP5 SWAP2 SWAP4 SWAP2 SWAP3 SWAP1 SWAP2 SWAP1 PUSH1 0xFF DUP1 DUP3 AND SWAP2 PUSH2 0x100 SWAP1 DIV AND DUP11 JUMP JUMPDEST PUSH1 0x4 SLOAD DUP2 JUMP JUMPDEST PUSH1 0x40 MLOAD DUP1 PUSH1 0x40 ADD PUSH1 0x40 MSTORE DUP1 PUSH1 0x17 DUP2 MSTORE PUSH1 0x20 ADD PUSH23 0x436F6D706F756E6420476F7665726E6F7220427261766F PUSH1 0x48 SHL DUP2 MSTORE POP DUP2 JUMP JUMPDEST PUSH1 0x0 SLOAD PUSH1 0x1 PUSH1 0x1 PUSH1 0xA0 SHL SUB AND CALLER EQ PUSH2 0x78F JUMPI PUSH1 0x40 MLOAD PUSH3 0x461BCD PUSH1 0xE5 SHL DUP2 MSTORE PUSH1 0x4 ADD PUSH2 0x786 SWAP1 PUSH2 0x3E50 JUMP JUMPDEST PUSH1 0x40 MLOAD DUP1 SWAP2 SUB SWAP1 REVERT JUMPDEST PUSH2 0x1680 DUP2 LT ISZERO DUP1 ISZERO PUSH2 0x7A4 JUMPI POP PUSH3 0x13B00 DUP2 GT ISZERO JUMPDEST PUSH2 0x7C0 JUMPI PUSH1 0x40 MLOAD PUSH3 0x461BCD PUSH1 0xE5 SHL DUP2 MSTORE PUSH1 0x4 ADD PUSH2 0x786 SWAP1 PUSH2 0x3E90 JUMP JUMPDEST PUSH1 0x4 DUP1 SLOAD SWAP1 DUP3 SWAP1 SSTORE PUSH1 0x40 MLOAD PUSH32 0x7E3F7F0708A84DE9203036ABAA450DCCC85AD5FF52F78C170F3EDB55CF5E8828 SWAP1 PUSH2 0x7FA SWAP1 DUP4 SWAP1 DUP6 SWAP1 PUSH2 0x419C JUMP JUMPDEST PUSH1 0x40 MLOAD DUP1 SWAP2 SUB SWAP1 LOG1 POP POP JUMP JUMPDEST PUSH1 0x9 SLOAD PUSH1 0x1 PUSH1 0x1 PUSH1 0xA0 SHL SUB AND DUP2 JUMP JUMPDEST PUSH1 0xB PUSH1 0x20 MSTORE PUSH1 0x0 SWAP1 DUP2 MSTORE PUSH1 0x40 SWAP1 KECCAK256 SLOAD DUP2 JUMP JUMPDEST PUSH1 0x0 SLOAD PUSH1 0x1 PUSH1 0x1 PUSH1 0xA0 SHL SUB AND CALLER EQ PUSH2 0x851 JUMPI PUSH1 0x40 MLOAD PUSH3 0x461BCD PUSH1 0xE5 SHL DUP2 MSTORE PUSH1 0x4 ADD PUSH2 0x786 SWAP1 PUSH2 0x4020 JUMP JUMPDEST PUSH10 0xA968163F0A57B400000 DUP2 LT ISZERO DUP1 ISZERO PUSH2 0x875 JUMPI POP PUSH10 0x152D02C7E14AF6800000 DUP2 GT ISZERO JUMPDEST PUSH2 0x891 JUMPI PUSH1 0x40 MLOAD PUSH3 0x461BCD PUSH1 0xE5 SHL DUP2 MSTORE PUSH1 0x4 ADD PUSH2 0x786 SWAP1 PUSH2 0x3F40 JUMP JUMPDEST PUSH1 0x5 DUP1 SLOAD SWAP1 DUP3 SWAP1 SSTORE PUSH1 0x40 MLOAD PUSH32 0xCCB45DA8D5717E6C4544694297C4BA5CF151D455C9BB0ED4FC7A38411BC05461 SWAP1 PUSH2 0x7FA SWAP1 DUP4 SWAP1 DUP6 SWAP1 PUSH2 0x419C JUMP JUMPDEST PUSH1 0x0 SLOAD PUSH1 0x1 PUSH1 0x1 PUSH1 0xA0 SHL SUB AND CALLER EQ PUSH2 0x8F5 JUMPI PUSH1 0x40 MLOAD PUSH3 0x461BCD PUSH1 0xE5 SHL DUP2 MSTORE PUSH1 0x4 ADD PUSH2 0x786 SWAP1 PUSH2 0x3E70 JUMP JUMPDEST PUSH1 0x1 DUP2 LT ISZERO DUP1 ISZERO PUSH2 0x908 JUMPI POP PUSH2 0x9D80 DUP2 GT ISZERO JUMPDEST PUSH2 0x924 JUMPI PUSH1 0x40 MLOAD PUSH3 0x461BCD PUSH1 0xE5 SHL DUP2 MSTORE PUSH1 0x4 ADD PUSH2 0x786 SWAP1 PUSH2 0x3EC0 JUMP JUMPDEST PUSH1 0x3 DUP1 SLOAD SWAP1 DUP3 SWAP1 SSTORE PUSH1 0x40 MLOAD PUSH32 0xC565B045403DC03C2EEA82B81A0465EDAD9E2E7FC4D97E11421C209DA93D7A93 SWAP1 PUSH2 0x7FA SWAP1 DUP4 SWAP1 DUP6 SWAP1 PUSH2 0x419C JUMP JUMPDEST PUSH1 0x40 MLOAD PUSH2 0x96A SWAP1 PUSH2 0x3BFE JUMP JUMPDEST PUSH1 0x40 MLOAD DUP1 SWAP2 SUB SWAP1 KECCAK256 DUP2 JUMP JUMPDEST PUSH2 0x1680 DUP2 JUMP JUMPDEST PUSH10 0x54B40B1F852BDA000000 DUP2 JUMP JUMPDEST PUSH10 0x152D02C7E14AF6800000 DUP2 JUMP JUMPDEST PUSH1 0x1 SLOAD PUSH1 0x1 PUSH1 0x1 PUSH1 0xA0 SHL SUB AND DUP2 JUMP JUMPDEST PUSH1 0x60 DUP1 PUSH1 0x60 DUP1 PUSH1 0x0 PUSH1 0xA PUSH1 0x0 DUP8 DUP2 MSTORE PUSH1 0x20 ADD SWAP1 DUP2 MSTORE PUSH1 0x20 ADD PUSH1 0x0 KECCAK256 SWAP1 POP DUP1 PUSH1 0x3 ADD DUP2 PUSH1 0x4 ADD DUP3 PUSH1 0x5 ADD DUP4 PUSH1 0x6 ADD DUP4 DUP1 SLOAD DUP1 PUSH1 0x20 MUL PUSH1 0x20 ADD PUSH1 0x40 MLOAD SWAP1 DUP2 ADD PUSH1 0x40 MSTORE DUP1 SWAP3 SWAP2 SWAP1 DUP2 DUP2 MSTORE PUSH1 0x20 ADD DUP3 DUP1 SLOAD DUP1 ISZERO PUSH2 0xA28 JUMPI PUSH1 0x20 MUL DUP3 ADD SWAP2 SWAP1 PUSH1 0x0 MSTORE PUSH1 0x20 PUSH1 0x0 KECCAK256 SWAP1 JUMPDEST DUP2 SLOAD PUSH1 0x1 PUSH1 0x1 PUSH1 0xA0 SHL SUB AND DUP2 MSTORE PUSH1 0x1 SWAP1 SWAP2 ADD SWAP1 PUSH1 0x20 ADD DUP1 DUP4 GT PUSH2 0xA0A JUMPI JUMPDEST POP POP POP POP POP SWAP4 POP DUP3 DUP1 SLOAD DUP1 PUSH1 0x20 MUL PUSH1 0x20 ADD PUSH1 0x40 MLOAD SWAP1 DUP2 ADD PUSH1 0x40 MSTORE DUP1 SWAP3 SWAP2 SWAP1 DUP2 DUP2 MSTORE PUSH1 0x20 ADD DUP3 DUP1 SLOAD DUP1 ISZERO PUSH2 0xA7A JUMPI PUSH1 0x20 MUL DUP3 ADD SWAP2 SWAP1 PUSH1 0x0 MSTORE PUSH1 0x20 PUSH1 0x0 KECCAK256 SWAP1 JUMPDEST DUP2 SLOAD DUP2 MSTORE PUSH1 0x20 ADD SWAP1 PUSH1 0x1 ADD SWAP1 DUP1 DUP4 GT PUSH2 0xA66 JUMPI JUMPDEST POP POP POP POP POP SWAP3 POP DUP2 DUP1 SLOAD DUP1 PUSH1 0x20 MUL PUSH1 0x20 ADD PUSH1 0x40 MLOAD SWAP1 DUP2 ADD PUSH1 0x40 MSTORE DUP1 SWAP3 SWAP2 SWAP1 DUP2 DUP2 MSTORE PUSH1 0x20 ADD PUSH1 0x0 SWAP1 JUMPDEST DUP3 DUP3 LT ISZERO PUSH2 0xB4D JUMPI PUSH1 0x0 DUP5 DUP2 MSTORE PUSH1 0x20 SWAP1 DUP2 SWAP1 KECCAK256 DUP4 ADD DUP1 SLOAD PUSH1 0x40 DUP1 MLOAD PUSH1 0x1F PUSH1 0x2 PUSH1 0x0 NOT PUSH2 0x100 PUSH1 0x1 DUP8 AND ISZERO MUL ADD SWAP1 SWAP5 AND SWAP4 SWAP1 SWAP4 DIV SWAP3 DUP4 ADD DUP6 SWAP1 DIV DUP6 MUL DUP2 ADD DUP6 ADD SWAP1 SWAP2 MSTORE DUP2 DUP2 MSTORE SWAP3 DUP4 ADD DUP3 DUP3 DUP1 ISZERO PUSH2 0xB39 JUMPI DUP1 PUSH1 0x1F LT PUSH2 0xB0E JUMPI PUSH2 0x100 DUP1 DUP4 SLOAD DIV MUL DUP4 MSTORE SWAP2 PUSH1 0x20 ADD SWAP2 PUSH2 0xB39 JUMP JUMPDEST DUP3 ADD SWAP2 SWAP1 PUSH1 0x0 MSTORE PUSH1 0x20 PUSH1 0x0 KECCAK256 SWAP1 JUMPDEST DUP2 SLOAD DUP2 MSTORE SWAP1 PUSH1 0x1 ADD SWAP1 PUSH1 0x20 ADD DUP1 DUP4 GT PUSH2 0xB1C JUMPI DUP3 SWAP1 SUB PUSH1 0x1F AND DUP3 ADD SWAP2 JUMPDEST POP POP POP POP POP DUP2 MSTORE PUSH1 0x20 ADD SWAP1 PUSH1 0x1 ADD SWAP1 PUSH2 0xAA2 JUMP JUMPDEST POP POP POP POP SWAP2 POP DUP1 DUP1 SLOAD DUP1 PUSH1 0x20 MUL PUSH1 0x20 ADD PUSH1 0x40 MLOAD SWAP1 DUP2 ADD PUSH1 0x40 MSTORE DUP1 SWAP3 SWAP2 SWAP1 DUP2 DUP2 MSTORE PUSH1 0x20 ADD PUSH1 0x0 SWAP1 JUMPDEST DUP3 DUP3 LT ISZERO PUSH2 0xC1F JUMPI PUSH1 0x0 DUP5 DUP2 MSTORE PUSH1 0x20 SWAP1 DUP2 SWAP1 KECCAK256 DUP4 ADD DUP1 SLOAD PUSH1 0x40 DUP1 MLOAD PUSH1 0x1F PUSH1 0x2 PUSH1 0x0 NOT PUSH2 0x100 PUSH1 0x1 DUP8 AND ISZERO MUL ADD SWAP1 SWAP5 AND SWAP4 SWAP1 SWAP4 DIV SWAP3 DUP4 ADD DUP6 SWAP1 DIV DUP6 MUL DUP2 ADD DUP6 ADD SWAP1 SWAP2 MSTORE DUP2 DUP2 MSTORE SWAP3 DUP4 ADD DUP3 DUP3 DUP1 ISZERO PUSH2 0xC0B JUMPI DUP1 PUSH1 0x1F LT PUSH2 0xBE0 JUMPI PUSH2 0x100 DUP1 DUP4 SLOAD DIV MUL DUP4 MSTORE SWAP2 PUSH1 0x20 ADD SWAP2 PUSH2 0xC0B JUMP JUMPDEST DUP3 ADD SWAP2 SWAP1 PUSH1 0x0 MSTORE PUSH1 0x20 PUSH1 0x0 KECCAK256 SWAP1 JUMPDEST DUP2 SLOAD DUP2 MSTORE SWAP1 PUSH1 0x1 ADD SWAP1 PUSH1 0x20 ADD DUP1 DUP4 GT PUSH2 0xBEE JUMPI DUP3 SWAP1 SUB PUSH1 0x1F AND DUP3 ADD SWAP2 JUMPDEST POP POP POP POP POP DUP2 MSTORE PUSH1 0x20 ADD SWAP1 PUSH1 0x1 ADD SWAP1 PUSH2 0xB74 JUMP JUMPDEST POP POP POP POP SWAP1 POP SWAP5 POP SWAP5 POP SWAP5 POP SWAP5 POP POP SWAP2 SWAP4 POP SWAP2 SWAP4 JUMP JUMPDEST PUSH1 0x3 SLOAD DUP2 JUMP JUMPDEST PUSH1 0x0 PUSH1 0x40 MLOAD PUSH2 0xC49 SWAP1 PUSH2 0x3BFE JUMP JUMPDEST PUSH1 0x40 DUP1 MLOAD SWAP2 DUP3 SWAP1 SUB DUP3 KECCAK256 DUP3 DUP3 ADD SWAP1 SWAP2 MSTORE PUSH1 0x17 DUP3 MSTORE PUSH23 0x436F6D706F756E6420476F7665726E6F7220427261766F PUSH1 0x48 SHL PUSH1 0x20 SWAP1 SWAP3 ADD SWAP2 SWAP1 SWAP2 MSTORE PUSH32 0x3D9E905142FF365FB68CE863F26A44F5583CF7EC11BCDE450555F50B7E1B5614 PUSH2 0xCAA PUSH2 0x1F46 JUMP JUMPDEST ADDRESS PUSH1 0x40 MLOAD PUSH1 0x20 ADD PUSH2 0xCBE SWAP5 SWAP4 SWAP3 SWAP2 SWAP1 PUSH2 0x3D51 JUMP JUMPDEST PUSH1 0x40 MLOAD PUSH1 0x20 DUP2 DUP4 SUB SUB DUP2 MSTORE SWAP1 PUSH1 0x40 MSTORE DUP1 MLOAD SWAP1 PUSH1 0x20 ADD KECCAK256 SWAP1 POP PUSH1 0x0 PUSH1 0x40 MLOAD PUSH2 0xCE4 SWAP1 PUSH2 0x3BC2 JUMP JUMPDEST PUSH1 0x40 MLOAD SWAP1 DUP2 SWAP1 SUB DUP2 KECCAK256 PUSH2 0xCFD SWAP2 DUP10 SWAP1 DUP10 SWAP1 PUSH1 0x20 ADD PUSH2 0x3D86 JUMP JUMPDEST PUSH1 0x40 MLOAD PUSH1 0x20 DUP2 DUP4 SUB SUB DUP2 MSTORE SWAP1 PUSH1 0x40 MSTORE DUP1 MLOAD SWAP1 PUSH1 0x20 ADD KECCAK256 SWAP1 POP PUSH1 0x0 DUP3 DUP3 PUSH1 0x40 MLOAD PUSH1 0x20 ADD PUSH2 0xD2A SWAP3 SWAP2 SWAP1 PUSH2 0x3BCD JUMP JUMPDEST PUSH1 0x40 MLOAD PUSH1 0x20 DUP2 DUP4 SUB SUB DUP2 MSTORE SWAP1 PUSH1 0x40 MSTORE DUP1 MLOAD SWAP1 PUSH1 0x20 ADD KECCAK256 SWAP1 POP PUSH1 0x0 PUSH1 0x1 DUP3 DUP9 DUP9 DUP9 PUSH1 0x40 MLOAD PUSH1 0x0 DUP2 MSTORE PUSH1 0x20 ADD PUSH1 0x40 MSTORE PUSH1 0x40 MLOAD PUSH2 0xD67 SWAP5 SWAP4 SWAP3 SWAP2 SWAP1 PUSH2 0x3DAE JUMP JUMPDEST PUSH1 0x20 PUSH1 0x40 MLOAD PUSH1 0x20 DUP2 SUB SWAP1 DUP1 DUP5 SUB SWAP1 DUP6 GAS STATICCALL ISZERO DUP1 ISZERO PUSH2 0xD89 JUMPI RETURNDATASIZE PUSH1 0x0 DUP1 RETURNDATACOPY RETURNDATASIZE PUSH1 0x0 REVERT JUMPDEST POP POP PUSH1 0x40 MLOAD PUSH1 0x1F NOT ADD MLOAD SWAP2 POP POP PUSH1 0x1 PUSH1 0x1 PUSH1 0xA0 SHL SUB DUP2 AND PUSH2 0xDBC JUMPI PUSH1 0x40 MLOAD PUSH3 0x461BCD PUSH1 0xE5 SHL DUP2 MSTORE PUSH1 0x4 ADD PUSH2 0x786 SWAP1 PUSH2 0x3F00 JUMP JUMPDEST DUP1 PUSH1 0x1 PUSH1 0x1 PUSH1 0xA0 SHL SUB AND PUSH32 0xB8E138887D0AA13BAB447E82DE9D5C1777041ECD21CA36BA824FF1E6C07DDDA4 DUP11 DUP11 PUSH2 0xDF4 DUP6 DUP15 DUP15 PUSH2 0x1F4B JUMP JUMPDEST PUSH1 0x40 MLOAD PUSH2 0xE03 SWAP4 SWAP3 SWAP2 SWAP1 PUSH2 0x41F0 JUMP JUMPDEST PUSH1 0x40 MLOAD DUP1 SWAP2 SUB SWAP1 LOG2 POP POP POP POP POP POP POP POP POP JUMP JUMPDEST PUSH1 0x0 DUP2 PUSH1 0x7 SLOAD LT ISZERO DUP1 ISZERO PUSH2 0xE2B JUMPI POP PUSH1 0x6 SLOAD DUP3 GT JUMPDEST PUSH2 0xE47 JUMPI PUSH1 0x40 MLOAD PUSH3 0x461BCD PUSH1 0xE5 SHL DUP2 MSTORE PUSH1 0x4 ADD PUSH2 0x786 SWAP1 PUSH2 0x4030 JUMP JUMPDEST PUSH1 0x0 DUP3 DUP2 MSTORE PUSH1 0xA PUSH1 0x20 MSTORE PUSH1 0x40 SWAP1 KECCAK256 PUSH1 0xC DUP2 ADD SLOAD PUSH1 0xFF AND ISZERO PUSH2 0xE6C JUMPI PUSH1 0x2 SWAP2 POP POP PUSH2 0xF97 JUMP JUMPDEST DUP1 PUSH1 0x7 ADD SLOAD NUMBER GT PUSH2 0xE81 JUMPI PUSH1 0x0 SWAP2 POP POP PUSH2 0xF97 JUMP JUMPDEST DUP1 PUSH1 0x8 ADD SLOAD NUMBER GT PUSH2 0xE96 JUMPI PUSH1 0x1 SWAP2 POP POP PUSH2 0xF97 JUMP JUMPDEST DUP1 PUSH1 0xA ADD SLOAD DUP2 PUSH1 0x9 ADD SLOAD GT ISZERO DUP1 PUSH2 0xEBA JUMPI POP PUSH10 0x54B40B1F852BDA000000 DUP2 PUSH1 0x9 ADD SLOAD LT JUMPDEST ISZERO PUSH2 0xEC9 JUMPI PUSH1 0x3 SWAP2 POP POP PUSH2 0xF97 JUMP JUMPDEST PUSH1 0x2 DUP2 ADD SLOAD PUSH2 0xEDC JUMPI PUSH1 0x4 SWAP2 POP POP PUSH2 0xF97 JUMP JUMPDEST PUSH1 0xC DUP2 ADD SLOAD PUSH2 0x100 SWAP1 DIV PUSH1 0xFF AND ISZERO PUSH2 0xEF8 JUMPI PUSH1 0x7 SWAP2 POP POP PUSH2 0xF97 JUMP JUMPDEST PUSH1 0x2 DUP2 ADD SLOAD PUSH1 0x8 SLOAD PUSH1 0x40 DUP1 MLOAD PUSH4 0x60D143F1 PUSH1 0xE1 SHL DUP2 MSTORE SWAP1 MLOAD PUSH2 0xF81 SWAP4 SWAP3 PUSH1 0x1 PUSH1 0x1 PUSH1 0xA0 SHL SUB AND SWAP2 PUSH4 0xC1A287E2 SWAP2 PUSH1 0x4 DUP1 DUP4 ADD SWAP3 PUSH1 0x20 SWAP3 SWAP2 SWAP1 DUP3 SWAP1 SUB ADD DUP2 DUP7 DUP1 EXTCODESIZE ISZERO DUP1 ISZERO PUSH2 0xF44 JUMPI PUSH1 0x0 DUP1 REVERT JUMPDEST POP GAS STATICCALL ISZERO DUP1 ISZERO PUSH2 0xF58 JUMPI RETURNDATASIZE PUSH1 0x0 DUP1 RETURNDATACOPY RETURNDATASIZE PUSH1 0x0 REVERT JUMPDEST POP POP POP POP PUSH1 0x40 MLOAD RETURNDATASIZE PUSH1 0x1F NOT PUSH1 0x1F DUP3 ADD AND DUP3 ADD DUP1 PUSH1 0x40 MSTORE POP PUSH2 0xF7C SWAP2 SWAP1 DUP2 ADD SWAP1 PUSH2 0x29FF JUMP JUMPDEST PUSH2 0x213C JUMP JUMPDEST TIMESTAMP LT PUSH2 0xF91 JUMPI PUSH1 0x6 SWAP2 POP POP PUSH2 0xF97 JUMP JUMPDEST PUSH1 0x5 SWAP2 POP POP JUMPDEST SWAP2 SWAP1 POP JUMP JUMPDEST PUSH1 0x7 PUSH2 0xFA7 DUP3 PUSH2 0xE16 JUMP JUMPDEST PUSH1 0x7 DUP2 GT ISZERO PUSH2 0xFB2 JUMPI INVALID JUMPDEST EQ ISZERO PUSH2 0xFD0 JUMPI PUSH1 0x40 MLOAD PUSH3 0x461BCD PUSH1 0xE5 SHL DUP2 MSTORE PUSH1 0x4 ADD PUSH2 0x786 SWAP1 PUSH2 0x4010 JUMP JUMPDEST PUSH1 0x0 DUP2 DUP2 MSTORE PUSH1 0xA PUSH1 0x20 MSTORE PUSH1 0x40 SWAP1 KECCAK256 PUSH1 0x1 DUP2 ADD SLOAD PUSH1 0x1 PUSH1 0x1 PUSH1 0xA0 SHL SUB AND CALLER EQ DUP1 PUSH2 0x1098 JUMPI POP PUSH1 0x5 SLOAD PUSH1 0x9 SLOAD PUSH1 0x1 DUP4 DUP2 ADD SLOAD PUSH1 0x1 PUSH1 0x1 PUSH1 0xA0 SHL SUB SWAP3 DUP4 AND SWAP3 PUSH4 0x782D6FE1 SWAP3 SWAP2 AND SWAP1 PUSH2 0x1020 SWAP1 NUMBER SWAP1 PUSH2 0x2161 JUMP JUMPDEST PUSH1 0x40 MLOAD DUP4 PUSH4 0xFFFFFFFF AND PUSH1 0xE0 SHL DUP2 MSTORE PUSH1 0x4 ADD PUSH2 0x103D SWAP3 SWAP2 SWAP1 PUSH2 0x3C4D JUMP JUMPDEST PUSH1 0x20 PUSH1 0x40 MLOAD DUP1 DUP4 SUB DUP2 DUP7 DUP1 EXTCODESIZE ISZERO DUP1 ISZERO PUSH2 0x1055 JUMPI PUSH1 0x0 DUP1 REVERT JUMPDEST POP GAS STATICCALL ISZERO DUP1 ISZERO PUSH2 0x1069 JUMPI RETURNDATASIZE PUSH1 0x0 DUP1 RETURNDATACOPY RETURNDATASIZE PUSH1 0x0 REVERT JUMPDEST POP POP POP POP PUSH1 0x40 MLOAD RETURNDATASIZE PUSH1 0x1F NOT PUSH1 0x1F DUP3 ADD AND DUP3 ADD DUP1 PUSH1 0x40 MSTORE POP PUSH2 0x108D SWAP2 SWAP1 DUP2 ADD SWAP1 PUSH2 0x2B88 JUMP JUMPDEST PUSH1 0x1 PUSH1 0x1 PUSH1 0x60 SHL SUB AND LT JUMPDEST PUSH2 0x10B4 JUMPI PUSH1 0x40 MLOAD PUSH3 0x461BCD PUSH1 0xE5 SHL DUP2 MSTORE PUSH1 0x4 ADD PUSH2 0x786 SWAP1 PUSH2 0x3FB0 JUMP JUMPDEST PUSH1 0xC DUP2 ADD DUP1 SLOAD PUSH1 0xFF NOT AND PUSH1 0x1 OR SWAP1 SSTORE PUSH1 0x0 JUMPDEST PUSH1 0x3 DUP3 ADD SLOAD DUP2 LT ISZERO PUSH2 0x11C0 JUMPI PUSH1 0x8 SLOAD PUSH1 0x3 DUP4 ADD DUP1 SLOAD PUSH1 0x1 PUSH1 0x1 PUSH1 0xA0 SHL SUB SWAP1 SWAP3 AND SWAP2 PUSH4 0x591FCDFE SWAP2 SWAP1 DUP5 SWAP1 DUP2 LT PUSH2 0x10F8 JUMPI INVALID JUMPDEST PUSH1 0x0 SWAP2 DUP3 MSTORE PUSH1 0x20 SWAP1 SWAP2 KECCAK256 ADD SLOAD PUSH1 0x4 DUP6 ADD DUP1 SLOAD PUSH1 0x1 PUSH1 0x1 PUSH1 0xA0 SHL SUB SWAP1 SWAP3 AND SWAP2 DUP6 SWAP1 DUP2 LT PUSH2 0x1120 JUMPI INVALID JUMPDEST SWAP1 PUSH1 0x0 MSTORE PUSH1 0x20 PUSH1 0x0 KECCAK256 ADD SLOAD DUP6 PUSH1 0x5 ADD DUP6 DUP2 SLOAD DUP2 LT PUSH2 0x113A JUMPI INVALID JUMPDEST SWAP1 PUSH1 0x0 MSTORE PUSH1 0x20 PUSH1 0x0 KECCAK256 ADD DUP7 PUSH1 0x6 ADD DUP7 DUP2 SLOAD DUP2 LT PUSH2 0x1153 JUMPI INVALID JUMPDEST SWAP1 PUSH1 0x0 MSTORE PUSH1 0x20 PUSH1 0x0 KECCAK256 ADD DUP8 PUSH1 0x2 ADD SLOAD PUSH1 0x40 MLOAD DUP7 PUSH4 0xFFFFFFFF AND PUSH1 0xE0 SHL DUP2 MSTORE PUSH1 0x4 ADD PUSH2 0x1182 SWAP6 SWAP5 SWAP4 SWAP3 SWAP2 SWAP1 PUSH2 0x3CB5 JUMP JUMPDEST PUSH1 0x0 PUSH1 0x40 MLOAD DUP1 DUP4 SUB DUP2 PUSH1 0x0 DUP8 DUP1 EXTCODESIZE ISZERO DUP1 ISZERO PUSH2 0x119C JUMPI PUSH1 0x0 DUP1 REVERT JUMPDEST POP GAS CALL ISZERO DUP1 ISZERO PUSH2 0x11B0 JUMPI RETURNDATASIZE PUSH1 0x0 DUP1 RETURNDATACOPY RETURNDATASIZE PUSH1 0x0 REVERT JUMPDEST POP POP PUSH1 0x1 SWAP1 SWAP3 ADD SWAP2 POP PUSH2 0x10C6 SWAP1 POP JUMP JUMPDEST POP PUSH32 0x789CF55BE980739DAD1D0699B93B58E806B51C9D96619BFA8FE0A28ABAA7B30C DUP3 PUSH1 0x40 MLOAD PUSH2 0x7FA SWAP2 SWAP1 PUSH2 0x3D43 JUMP JUMPDEST CALLER PUSH32 0xB8E138887D0AA13BAB447E82DE9D5C1777041ECD21CA36BA824FF1E6C07DDDA4 DUP4 DUP4 PUSH2 0x121F DUP5 DUP4 DUP4 PUSH2 0x1F4B JUMP JUMPDEST PUSH1 0x40 MLOAD PUSH2 0x122E SWAP4 SWAP3 SWAP2 SWAP1 PUSH2 0x41F0 JUMP JUMPDEST PUSH1 0x40 MLOAD DUP1 SWAP2 SUB SWAP1 LOG2 POP POP JUMP JUMPDEST PUSH1 0x2 SLOAD PUSH1 0x1 PUSH1 0x1 PUSH1 0xA0 SHL SUB AND DUP2 JUMP JUMPDEST PUSH10 0xA968163F0A57B400000 DUP2 JUMP JUMPDEST CALLER PUSH32 0xB8E138887D0AA13BAB447E82DE9D5C1777041ECD21CA36BA824FF1E6C07DDDA4 DUP6 DUP6 PUSH2 0x1286 DUP5 DUP4 DUP4 PUSH2 0x1F4B JUMP JUMPDEST DUP7 DUP7 PUSH1 0x40 MLOAD PUSH2 0x1299 SWAP6 SWAP5 SWAP4 SWAP3 SWAP2 SWAP1 PUSH2 0x41AA JUMP JUMPDEST PUSH1 0x40 MLOAD DUP1 SWAP2 SUB SWAP1 LOG2 POP POP POP POP JUMP JUMPDEST PUSH1 0xA DUP2 JUMP JUMPDEST PUSH3 0x13B00 DUP2 JUMP JUMPDEST PUSH2 0x9D80 DUP2 JUMP JUMPDEST PUSH1 0x5 SLOAD DUP2 JUMP JUMPDEST PUSH1 0x0 SLOAD PUSH1 0x1 PUSH1 0x1 PUSH1 0xA0 SHL SUB AND CALLER EQ PUSH2 0x12E9 JUMPI PUSH1 0x40 MLOAD PUSH3 0x461BCD PUSH1 0xE5 SHL DUP2 MSTORE PUSH1 0x4 ADD PUSH2 0x786 SWAP1 PUSH2 0x3E30 JUMP JUMPDEST PUSH1 0x1 DUP1 SLOAD PUSH1 0x1 PUSH1 0x1 PUSH1 0xA0 SHL SUB DUP4 DUP2 AND PUSH1 0x1 PUSH1 0x1 PUSH1 0xA0 SHL SUB NOT DUP4 AND OR SWAP1 SWAP3 SSTORE PUSH1 0x40 MLOAD SWAP2 AND SWAP1 PUSH32 0xCA4F2F25D0898EDD99413412FB94012F9E54EC8142F9B093E7720646A95B16A9 SWAP1 PUSH2 0x7FA SWAP1 DUP4 SWAP1 DUP6 SWAP1 PUSH2 0x3C32 JUMP JUMPDEST PUSH1 0x8 SLOAD PUSH1 0x1 PUSH1 0x1 PUSH1 0xA0 SHL SUB AND ISZERO PUSH2 0x1365 JUMPI PUSH1 0x40 MLOAD PUSH3 0x461BCD PUSH1 0xE5 SHL DUP2 MSTORE PUSH1 0x4 ADD PUSH2 0x786 SWAP1 PUSH2 0x3E20 JUMP JUMPDEST PUSH1 0x0 SLOAD PUSH1 0x1 PUSH1 0x1 PUSH1 0xA0 SHL SUB AND CALLER EQ PUSH2 0x138F JUMPI PUSH1 0x40 MLOAD PUSH3 0x461BCD PUSH1 0xE5 SHL DUP2 MSTORE PUSH1 0x4 ADD PUSH2 0x786 SWAP1 PUSH2 0x3F30 JUMP JUMPDEST PUSH1 0x1 PUSH1 0x1 PUSH1 0xA0 SHL SUB DUP6 AND PUSH2 0x13B5 JUMPI PUSH1 0x40 MLOAD PUSH3 0x461BCD PUSH1 0xE5 SHL DUP2 MSTORE PUSH1 0x4 ADD PUSH2 0x786 SWAP1 PUSH2 0x3E60 JUMP JUMPDEST PUSH1 0x1 PUSH1 0x1 PUSH1 0xA0 SHL SUB DUP5 AND PUSH2 0x13DB JUMPI PUSH1 0x40 MLOAD PUSH3 0x461BCD PUSH1 0xE5 SHL DUP2 MSTORE PUSH1 0x4 ADD PUSH2 0x786 SWAP1 PUSH2 0x3FA0 JUMP JUMPDEST PUSH2 0x1680 DUP4 LT ISZERO DUP1 ISZERO PUSH2 0x13F0 JUMPI POP PUSH3 0x13B00 DUP4 GT ISZERO JUMPDEST PUSH2 0x140C JUMPI PUSH1 0x40 MLOAD PUSH3 0x461BCD PUSH1 0xE5 SHL DUP2 MSTORE PUSH1 0x4 ADD PUSH2 0x786 SWAP1 PUSH2 0x4040 JUMP JUMPDEST PUSH1 0x1 DUP3 LT ISZERO DUP1 ISZERO PUSH2 0x141F JUMPI POP PUSH2 0x9D80 DUP3 GT ISZERO JUMPDEST PUSH2 0x143B JUMPI PUSH1 0x40 MLOAD PUSH3 0x461BCD PUSH1 0xE5 SHL DUP2 MSTORE PUSH1 0x4 ADD PUSH2 0x786 SWAP1 PUSH2 0x3F10 JUMP JUMPDEST PUSH10 0xA968163F0A57B400000 DUP2 LT ISZERO DUP1 ISZERO PUSH2 0x145F JUMPI POP PUSH10 0x152D02C7E14AF6800000 DUP2 GT ISZERO JUMPDEST PUSH2 0x147B JUMPI PUSH1 0x40 MLOAD PUSH3 0x461BCD PUSH1 0xE5 SHL DUP2 MSTORE PUSH1 0x4 ADD PUSH2 0x786 SWAP1 PUSH2 0x3ED0 JUMP JUMPDEST PUSH1 0x8 DUP1 SLOAD PUSH1 0x1 PUSH1 0x1 PUSH1 0xA0 SHL SUB SWAP7 DUP8 AND PUSH1 0x1 PUSH1 0x1 PUSH1 0xA0 SHL SUB NOT SWAP2 DUP3 AND OR SWAP1 SWAP2 SSTORE PUSH1 0x9 DUP1 SLOAD SWAP6 SWAP1 SWAP7 AND SWAP5 AND SWAP4 SWAP1 SWAP4 OR SWAP1 SWAP4 SSTORE PUSH1 0x4 SSTORE PUSH1 0x3 SWAP2 SWAP1 SWAP2 SSTORE PUSH1 0x5 SSTORE JUMP JUMPDEST PUSH1 0x8 SLOAD PUSH1 0x1 PUSH1 0x1 PUSH1 0xA0 SHL SUB AND DUP2 JUMP JUMPDEST PUSH1 0x7 SLOAD DUP2 JUMP JUMPDEST PUSH1 0x0 PUSH1 0x6 SLOAD PUSH1 0x0 EQ ISZERO PUSH2 0x14F3 JUMPI PUSH1 0x40 MLOAD PUSH3 0x461BCD PUSH1 0xE5 SHL DUP2 MSTORE PUSH1 0x4 ADD PUSH2 0x786 SWAP1 PUSH2 0x3E80 JUMP JUMPDEST PUSH1 0x5 SLOAD PUSH1 0x9 SLOAD PUSH1 0x1 PUSH1 0x1 PUSH1 0xA0 SHL SUB AND PUSH4 0x782D6FE1 CALLER PUSH2 0x1513 NUMBER PUSH1 0x1 PUSH2 0x2161 JUMP JUMPDEST PUSH1 0x40 MLOAD DUP4 PUSH4 0xFFFFFFFF AND PUSH1 0xE0 SHL DUP2 MSTORE PUSH1 0x4 ADD PUSH2 0x1530 SWAP3 SWAP2 SWAP1 PUSH2 0x3C17 JUMP JUMPDEST PUSH1 0x20 PUSH1 0x40 MLOAD DUP1 DUP4 SUB DUP2 DUP7 DUP1 EXTCODESIZE ISZERO DUP1 ISZERO PUSH2 0x1548 JUMPI PUSH1 0x0 DUP1 REVERT JUMPDEST POP GAS STATICCALL ISZERO DUP1 ISZERO PUSH2 0x155C JUMPI RETURNDATASIZE PUSH1 0x0 DUP1 RETURNDATACOPY RETURNDATASIZE PUSH1 0x0 REVERT JUMPDEST POP POP POP POP PUSH1 0x40 MLOAD RETURNDATASIZE PUSH1 0x1F NOT PUSH1 0x1F DUP3 ADD AND DUP3 ADD DUP1 PUSH1 0x40 MSTORE POP PUSH2 0x1580 SWAP2 SWAP1 DUP2 ADD SWAP1 PUSH2 0x2B88 JUMP JUMPDEST PUSH1 0x1 PUSH1 0x1 PUSH1 0x60 SHL SUB AND GT PUSH2 0x15A6 JUMPI PUSH1 0x40 MLOAD PUSH3 0x461BCD PUSH1 0xE5 SHL DUP2 MSTORE PUSH1 0x4 ADD PUSH2 0x786 SWAP1 PUSH2 0x4000 JUMP JUMPDEST DUP5 MLOAD DUP7 MLOAD EQ DUP1 ISZERO PUSH2 0x15B8 JUMPI POP DUP4 MLOAD DUP7 MLOAD EQ JUMPDEST DUP1 ISZERO PUSH2 0x15C5 JUMPI POP DUP3 MLOAD DUP7 MLOAD EQ JUMPDEST PUSH2 0x15E1 JUMPI PUSH1 0x40 MLOAD PUSH3 0x461BCD PUSH1 0xE5 SHL DUP2 MSTORE PUSH1 0x4 ADD PUSH2 0x786 SWAP1 PUSH2 0x3F20 JUMP JUMPDEST DUP6 MLOAD PUSH2 0x15FF JUMPI PUSH1 0x40 MLOAD PUSH3 0x461BCD PUSH1 0xE5 SHL DUP2 MSTORE PUSH1 0x4 ADD PUSH2 0x786 SWAP1 PUSH2 0x3F80 JUMP JUMPDEST PUSH1 0xA DUP7 MLOAD GT ISZERO PUSH2 0x1621 JUMPI PUSH1 0x40 MLOAD PUSH3 0x461BCD PUSH1 0xE5 SHL DUP2 MSTORE PUSH1 0x4 ADD PUSH2 0x786 SWAP1 PUSH2 0x3FC0 JUMP JUMPDEST CALLER PUSH1 0x0 SWAP1 DUP2 MSTORE PUSH1 0xB PUSH1 0x20 MSTORE PUSH1 0x40 SWAP1 KECCAK256 SLOAD DUP1 ISZERO PUSH2 0x169E JUMPI PUSH1 0x0 PUSH2 0x1642 DUP3 PUSH2 0xE16 JUMP JUMPDEST SWAP1 POP PUSH1 0x1 DUP2 PUSH1 0x7 DUP2 GT ISZERO PUSH2 0x1652 JUMPI INVALID JUMPDEST EQ ISZERO PUSH2 0x1670 JUMPI PUSH1 0x40 MLOAD PUSH3 0x461BCD PUSH1 0xE5 SHL DUP2 MSTORE PUSH1 0x4 ADD PUSH2 0x786 SWAP1 PUSH2 0x3FE0 JUMP JUMPDEST PUSH1 0x0 DUP2 PUSH1 0x7 DUP2 GT ISZERO PUSH2 0x167E JUMPI INVALID JUMPDEST EQ ISZERO PUSH2 0x169C JUMPI PUSH1 0x40 MLOAD PUSH3 0x461BCD PUSH1 0xE5 SHL DUP2 MSTORE PUSH1 0x4 ADD PUSH2 0x786 SWAP1 PUSH2 0x3FD0 JUMP JUMPDEST POP JUMPDEST PUSH1 0x0 PUSH2 0x16AC NUMBER PUSH1 0x3 SLOAD PUSH2 0x213C JUMP JUMPDEST SWAP1 POP PUSH1 0x0 PUSH2 0x16BC DUP3 PUSH1 0x4 SLOAD PUSH2 0x213C JUMP JUMPDEST PUSH1 0x7 DUP1 SLOAD PUSH1 0x1 ADD SWAP1 DUP2 SWAP1 SSTORE PUSH1 0x0 SWAP1 DUP2 MSTORE PUSH1 0xA PUSH1 0x20 MSTORE PUSH1 0x40 SWAP1 KECCAK256 DUP1 SLOAD SWAP2 SWAP3 POP SWAP1 ISZERO PUSH2 0x16F8 JUMPI PUSH1 0x40 MLOAD PUSH3 0x461BCD PUSH1 0xE5 SHL DUP2 MSTORE PUSH1 0x4 ADD PUSH2 0x786 SWAP1 PUSH2 0x3EE0 JUMP JUMPDEST PUSH1 0x7 SLOAD DUP2 SSTORE PUSH1 0x1 DUP2 ADD DUP1 SLOAD PUSH1 0x1 PUSH1 0x1 PUSH1 0xA0 SHL SUB NOT AND CALLER OR SWAP1 SSTORE PUSH1 0x0 PUSH1 0x2 DUP3 ADD SSTORE DUP10 MLOAD PUSH2 0x172D SWAP1 PUSH1 0x3 DUP4 ADD SWAP1 PUSH1 0x20 DUP14 ADD SWAP1 PUSH2 0x22E8 JUMP JUMPDEST POP DUP9 MLOAD PUSH2 0x1743 SWAP1 PUSH1 0x4 DUP4 ADD SWAP1 PUSH1 0x20 DUP13 ADD SWAP1 PUSH2 0x234D JUMP JUMPDEST POP DUP8 MLOAD PUSH2 0x1759 SWAP1 PUSH1 0x5 DUP4 ADD SWAP1 PUSH1 0x20 DUP12 ADD SWAP1 PUSH2 0x2394 JUMP JUMPDEST POP DUP7 MLOAD PUSH2 0x176F SWAP1 PUSH1 0x6 DUP4 ADD SWAP1 PUSH1 0x20 DUP11 ADD SWAP1 PUSH2 0x23ED JUMP JUMPDEST POP DUP3 DUP2 PUSH1 0x7 ADD DUP2 SWAP1 SSTORE POP DUP2 DUP2 PUSH1 0x8 ADD DUP2 SWAP1 SSTORE POP PUSH1 0x0 DUP2 PUSH1 0x9 ADD DUP2 SWAP1 SSTORE POP PUSH1 0x0 DUP2 PUSH1 0xA ADD DUP2 SWAP1 SSTORE POP PUSH1 0x0 DUP2 PUSH1 0xB ADD DUP2 SWAP1 SSTORE POP PUSH1 0x0 DUP2 PUSH1 0xC ADD PUSH1 0x0 PUSH2 0x100 EXP DUP2 SLOAD DUP2 PUSH1 0xFF MUL NOT AND SWAP1 DUP4 ISZERO ISZERO MUL OR SWAP1 SSTORE POP PUSH1 0x0 DUP2 PUSH1 0xC ADD PUSH1 0x1 PUSH2 0x100 EXP DUP2 SLOAD DUP2 PUSH1 0xFF MUL NOT AND SWAP1 DUP4 ISZERO ISZERO MUL OR SWAP1 SSTORE POP DUP1 PUSH1 0x0 ADD SLOAD PUSH1 0xB PUSH1 0x0 DUP4 PUSH1 0x1 ADD PUSH1 0x0 SWAP1 SLOAD SWAP1 PUSH2 0x100 EXP SWAP1 DIV PUSH1 0x1 PUSH1 0x1 PUSH1 0xA0 SHL SUB AND PUSH1 0x1 PUSH1 0x1 PUSH1 0xA0 SHL SUB AND PUSH1 0x1 PUSH1 0x1 PUSH1 0xA0 SHL SUB AND DUP2 MSTORE PUSH1 0x20 ADD SWAP1 DUP2 MSTORE PUSH1 0x20 ADD PUSH1 0x0 KECCAK256 DUP2 SWAP1 SSTORE POP PUSH32 0x7D84A6263AE0D98D3329BD7B46BB4E8D6F98CD35A7ADB45C274C8B7FD5EBD5E0 DUP2 PUSH1 0x0 ADD SLOAD CALLER DUP13 DUP13 DUP13 DUP13 DUP10 DUP10 DUP15 PUSH1 0x40 MLOAD PUSH2 0x1862 SWAP10 SWAP9 SWAP8 SWAP7 SWAP6 SWAP5 SWAP4 SWAP3 SWAP2 SWAP1 PUSH2 0x406E JUMP JUMPDEST PUSH1 0x40 MLOAD DUP1 SWAP2 SUB SWAP1 LOG1 SLOAD SWAP4 POP POP POP POP JUMPDEST SWAP6 SWAP5 POP POP POP POP POP JUMP JUMPDEST PUSH1 0x4 PUSH2 0x1885 DUP3 PUSH2 0xE16 JUMP JUMPDEST PUSH1 0x7 DUP2 GT ISZERO PUSH2 0x1890 JUMPI INVALID JUMPDEST EQ PUSH2 0x18AD JUMPI PUSH1 0x40 MLOAD PUSH3 0x461BCD PUSH1 0xE5 SHL DUP2 MSTORE PUSH1 0x4 ADD PUSH2 0x786 SWAP1 PUSH2 0x3F50 JUMP JUMPDEST PUSH1 0x0 DUP2 DUP2 MSTORE PUSH1 0xA PUSH1 0x20 SWAP1 DUP2 MSTORE PUSH1 0x40 DUP1 DUP4 KECCAK256 PUSH1 0x8 SLOAD DUP3 MLOAD PUSH4 0xD48571F PUSH1 0xE3 SHL DUP2 MSTORE SWAP3 MLOAD SWAP2 SWAP5 SWAP4 PUSH2 0x1907 SWAP4 TIMESTAMP SWAP4 PUSH1 0x1 PUSH1 0x1 PUSH1 0xA0 SHL SUB SWAP1 SWAP4 AND SWAP3 PUSH4 0x6A42B8F8 SWAP3 PUSH1 0x4 DUP1 DUP5 ADD SWAP4 SWAP2 SWAP3 SWAP2 DUP3 SWAP1 SUB ADD DUP2 DUP7 DUP1 EXTCODESIZE ISZERO DUP1 ISZERO PUSH2 0xF44 JUMPI PUSH1 0x0 DUP1 REVERT JUMPDEST SWAP1 POP PUSH1 0x0 JUMPDEST PUSH1 0x3 DUP4 ADD SLOAD DUP2 LT ISZERO PUSH2 0x1AAF JUMPI PUSH2 0x1AA7 DUP4 PUSH1 0x3 ADD DUP3 DUP2 SLOAD DUP2 LT PUSH2 0x192A JUMPI INVALID JUMPDEST PUSH1 0x0 SWAP2 DUP3 MSTORE PUSH1 0x20 SWAP1 SWAP2 KECCAK256 ADD SLOAD PUSH1 0x4 DUP6 ADD DUP1 SLOAD PUSH1 0x1 PUSH1 0x1 PUSH1 0xA0 SHL SUB SWAP1 SWAP3 AND SWAP2 DUP5 SWAP1 DUP2 LT PUSH2 0x1952 JUMPI INVALID JUMPDEST SWAP1 PUSH1 0x0 MSTORE PUSH1 0x20 PUSH1 0x0 KECCAK256 ADD SLOAD DUP6 PUSH1 0x5 ADD DUP5 DUP2 SLOAD DUP2 LT PUSH2 0x196C JUMPI INVALID JUMPDEST PUSH1 0x0 SWAP2 DUP3 MSTORE PUSH1 0x20 SWAP2 DUP3 SWAP1 KECCAK256 ADD DUP1 SLOAD PUSH1 0x40 DUP1 MLOAD PUSH1 0x1F PUSH1 0x2 PUSH1 0x0 NOT PUSH2 0x100 PUSH1 0x1 DUP8 AND ISZERO MUL ADD SWAP1 SWAP5 AND SWAP4 SWAP1 SWAP4 DIV SWAP3 DUP4 ADD DUP6 SWAP1 DIV DUP6 MUL DUP2 ADD DUP6 ADD SWAP1 SWAP2 MSTORE DUP2 DUP2 MSTORE SWAP3 DUP4 ADD DUP3 DUP3 DUP1 ISZERO PUSH2 0x19FA JUMPI DUP1 PUSH1 0x1F LT PUSH2 0x19CF JUMPI PUSH2 0x100 DUP1 DUP4 SLOAD DIV MUL DUP4 MSTORE SWAP2 PUSH1 0x20 ADD SWAP2 PUSH2 0x19FA JUMP JUMPDEST DUP3 ADD SWAP2 SWAP1 PUSH1 0x0 MSTORE PUSH1 0x20 PUSH1 0x0 KECCAK256 SWAP1 JUMPDEST DUP2 SLOAD DUP2 MSTORE SWAP1 PUSH1 0x1 ADD SWAP1 PUSH1 0x20 ADD DUP1 DUP4 GT PUSH2 0x19DD JUMPI DUP3 SWAP1 SUB PUSH1 0x1F AND DUP3 ADD SWAP2 JUMPDEST POP POP POP POP POP DUP7 PUSH1 0x6 ADD DUP6 DUP2 SLOAD DUP2 LT PUSH2 0x1A0E JUMPI INVALID JUMPDEST PUSH1 0x0 SWAP2 DUP3 MSTORE PUSH1 0x20 SWAP2 DUP3 SWAP1 KECCAK256 ADD DUP1 SLOAD PUSH1 0x40 DUP1 MLOAD PUSH1 0x1F PUSH1 0x2 PUSH1 0x0 NOT PUSH2 0x100 PUSH1 0x1 DUP8 AND ISZERO MUL ADD SWAP1 SWAP5 AND SWAP4 SWAP1 SWAP4 DIV SWAP3 DUP4 ADD DUP6 SWAP1 DIV DUP6 MUL DUP2 ADD DUP6 ADD SWAP1 SWAP2 MSTORE DUP2 DUP2 MSTORE SWAP3 DUP4 ADD DUP3 DUP3 DUP1 ISZERO PUSH2 0x1A9C JUMPI DUP1 PUSH1 0x1F LT PUSH2 0x1A71 JUMPI PUSH2 0x100 DUP1 DUP4 SLOAD DIV MUL DUP4 MSTORE SWAP2 PUSH1 0x20 ADD SWAP2 PUSH2 0x1A9C JUMP JUMPDEST DUP3 ADD SWAP2 SWAP1 PUSH1 0x0 MSTORE PUSH1 0x20 PUSH1 0x0 KECCAK256 SWAP1 JUMPDEST DUP2 SLOAD DUP2 MSTORE SWAP1 PUSH1 0x1 ADD SWAP1 PUSH1 0x20 ADD DUP1 DUP4 GT PUSH2 0x1A7F JUMPI DUP3 SWAP1 SUB PUSH1 0x1F AND DUP3 ADD SWAP2 JUMPDEST POP POP POP POP POP DUP7 PUSH2 0x2189 JUMP JUMPDEST PUSH1 0x1 ADD PUSH2 0x190C JUMP JUMPDEST POP PUSH1 0x2 DUP3 ADD DUP2 SWAP1 SSTORE PUSH1 0x40 MLOAD PUSH32 0x9A2E42FD6722813D69113E7D0079D3D940171428DF7373DF9C7F7617CFDA2892 SWAP1 PUSH2 0x1AE9 SWAP1 DUP6 SWAP1 DUP5 SWAP1 PUSH2 0x419C JUMP JUMPDEST PUSH1 0x40 MLOAD DUP1 SWAP2 SUB SWAP1 LOG1 POP POP POP JUMP JUMPDEST PUSH1 0x40 MLOAD PUSH2 0x96A SWAP1 PUSH2 0x3BC2 JUMP JUMPDEST PUSH2 0x1B0A PUSH2 0x2446 JUMP JUMPDEST POP PUSH1 0x0 DUP3 DUP2 MSTORE PUSH1 0xA PUSH1 0x20 SWAP1 DUP2 MSTORE PUSH1 0x40 DUP1 DUP4 KECCAK256 PUSH1 0x1 PUSH1 0x1 PUSH1 0xA0 SHL SUB DUP6 AND DUP5 MSTORE PUSH1 0xD ADD DUP3 MSTORE SWAP2 DUP3 SWAP1 KECCAK256 DUP3 MLOAD PUSH1 0x60 DUP2 ADD DUP5 MSTORE SWAP1 SLOAD PUSH1 0xFF DUP1 DUP3 AND ISZERO ISZERO DUP4 MSTORE PUSH2 0x100 DUP3 DIV AND SWAP3 DUP3 ADD SWAP3 SWAP1 SWAP3 MSTORE PUSH3 0x10000 SWAP1 SWAP2 DIV PUSH1 0x1 PUSH1 0x1 PUSH1 0x60 SHL SUB AND SWAP2 DUP2 ADD SWAP2 SWAP1 SWAP2 MSTORE JUMPDEST SWAP3 SWAP2 POP POP JUMP JUMPDEST PUSH1 0x1 DUP2 JUMP JUMPDEST PUSH1 0x1 SLOAD PUSH1 0x1 PUSH1 0x1 PUSH1 0xA0 SHL SUB AND CALLER EQ DUP1 ISZERO PUSH2 0x1B8D JUMPI POP CALLER ISZERO ISZERO JUMPDEST PUSH2 0x1BA9 JUMPI PUSH1 0x40 MLOAD PUSH3 0x461BCD PUSH1 0xE5 SHL DUP2 MSTORE PUSH1 0x4 ADD PUSH2 0x786 SWAP1 PUSH2 0x3F90 JUMP JUMPDEST PUSH1 0x0 DUP1 SLOAD PUSH1 0x1 DUP1 SLOAD PUSH1 0x1 PUSH1 0x1 PUSH1 0xA0 SHL SUB DUP1 DUP3 AND PUSH1 0x1 PUSH1 0x1 PUSH1 0xA0 SHL SUB NOT DUP1 DUP7 AND DUP3 OR SWAP7 DUP8 SWAP1 SSTORE SWAP1 SWAP3 AND SWAP1 SWAP3 SSTORE PUSH1 0x40 MLOAD SWAP3 DUP3 AND SWAP4 SWAP1 SWAP3 PUSH32 0xF9FFABCA9C8276E99321725BCB43FB076A6C66A54B7F21C4E8146D8519B417DC SWAP3 PUSH2 0x1C0D SWAP3 DUP7 SWAP3 SWAP2 AND SWAP1 PUSH2 0x3C32 JUMP JUMPDEST PUSH1 0x40 MLOAD DUP1 SWAP2 SUB SWAP1 LOG1 PUSH1 0x1 SLOAD PUSH1 0x40 MLOAD PUSH32 0xCA4F2F25D0898EDD99413412FB94012F9E54EC8142F9B093E7720646A95B16A9 SWAP2 PUSH2 0x7FA SWAP2 DUP5 SWAP2 PUSH1 0x1 PUSH1 0x1 PUSH1 0xA0 SHL SUB AND SWAP1 PUSH2 0x3C32 JUMP JUMPDEST PUSH1 0x0 SLOAD PUSH1 0x1 PUSH1 0x1 PUSH1 0xA0 SHL SUB AND DUP2 JUMP JUMPDEST PUSH1 0x0 SLOAD PUSH1 0x1 PUSH1 0x1 PUSH1 0xA0 SHL SUB AND CALLER EQ PUSH2 0x1C8B JUMPI PUSH1 0x40 MLOAD PUSH3 0x461BCD PUSH1 0xE5 SHL DUP2 MSTORE PUSH1 0x4 ADD PUSH2 0x786 SWAP1 PUSH2 0x3FF0 JUMP JUMPDEST PUSH1 0x6 SLOAD ISZERO PUSH2 0x1CAB JUMPI PUSH1 0x40 MLOAD PUSH3 0x461BCD PUSH1 0xE5 SHL DUP2 MSTORE PUSH1 0x4 ADD PUSH2 0x786 SWAP1 PUSH2 0x3F70 JUMP JUMPDEST DUP1 PUSH1 0x1 PUSH1 0x1 PUSH1 0xA0 SHL SUB AND PUSH4 0xDA35C664 PUSH1 0x40 MLOAD DUP2 PUSH4 0xFFFFFFFF AND PUSH1 0xE0 SHL DUP2 MSTORE PUSH1 0x4 ADD PUSH1 0x20 PUSH1 0x40 MLOAD DUP1 DUP4 SUB DUP2 PUSH1 0x0 DUP8 DUP1 EXTCODESIZE ISZERO DUP1 ISZERO PUSH2 0x1CE6 JUMPI PUSH1 0x0 DUP1 REVERT JUMPDEST POP GAS CALL ISZERO DUP1 ISZERO PUSH2 0x1CFA JUMPI RETURNDATASIZE PUSH1 0x0 DUP1 RETURNDATACOPY RETURNDATASIZE PUSH1 0x0 REVERT JUMPDEST POP POP POP POP PUSH1 0x40 MLOAD RETURNDATASIZE PUSH1 0x1F NOT PUSH1 0x1F DUP3 ADD AND DUP3 ADD DUP1 PUSH1 0x40 MSTORE POP PUSH2 0x1D1E SWAP2 SWAP1 DUP2 ADD SWAP1 PUSH2 0x29FF JUMP JUMPDEST PUSH1 0x7 DUP2 SWAP1 SSTORE PUSH1 0x6 SSTORE PUSH1 0x8 SLOAD PUSH1 0x40 DUP1 MLOAD PUSH4 0xE18B681 PUSH1 0xE0 SHL DUP2 MSTORE SWAP1 MLOAD PUSH1 0x1 PUSH1 0x1 PUSH1 0xA0 SHL SUB SWAP1 SWAP3 AND SWAP2 PUSH4 0xE18B681 SWAP2 PUSH1 0x4 DUP1 DUP3 ADD SWAP3 PUSH1 0x0 SWAP3 SWAP1 SWAP2 SWAP1 DUP3 SWAP1 SUB ADD DUP2 DUP4 DUP8 DUP1 EXTCODESIZE ISZERO DUP1 ISZERO PUSH2 0x1D6C JUMPI PUSH1 0x0 DUP1 REVERT JUMPDEST POP GAS CALL ISZERO DUP1 ISZERO PUSH2 0x1D80 JUMPI RETURNDATASIZE PUSH1 0x0 DUP1 RETURNDATACOPY RETURNDATASIZE PUSH1 0x0 REVERT JUMPDEST POP POP POP POP POP JUMP JUMPDEST PUSH1 0x6 SLOAD DUP2 JUMP JUMPDEST PUSH1 0x5 PUSH2 0x1D98 DUP3 PUSH2 0xE16 JUMP JUMPDEST PUSH1 0x7 DUP2 GT ISZERO PUSH2 0x1DA3 JUMPI INVALID JUMPDEST EQ PUSH2 0x1DC0 JUMPI PUSH1 0x40 MLOAD PUSH3 0x461BCD PUSH1 0xE5 SHL DUP2 MSTORE PUSH1 0x4 ADD PUSH2 0x786 SWAP1 PUSH2 0x3EF0 JUMP JUMPDEST PUSH1 0x0 DUP2 DUP2 MSTORE PUSH1 0xA PUSH1 0x20 MSTORE PUSH1 0x40 DUP2 KECCAK256 PUSH1 0xC DUP2 ADD DUP1 SLOAD PUSH2 0xFF00 NOT AND PUSH2 0x100 OR SWAP1 SSTORE SWAP1 JUMPDEST PUSH1 0x3 DUP3 ADD SLOAD DUP2 LT ISZERO PUSH2 0x1F16 JUMPI PUSH1 0x8 SLOAD PUSH1 0x4 DUP4 ADD DUP1 SLOAD PUSH1 0x1 PUSH1 0x1 PUSH1 0xA0 SHL SUB SWAP1 SWAP3 AND SWAP2 PUSH4 0x825F38F SWAP2 SWAP1 DUP5 SWAP1 DUP2 LT PUSH2 0x1E13 JUMPI INVALID JUMPDEST SWAP1 PUSH1 0x0 MSTORE PUSH1 0x20 PUSH1 0x0 KECCAK256 ADD SLOAD DUP5 PUSH1 0x3 ADD DUP5 DUP2 SLOAD DUP2 LT PUSH2 0x1E2D JUMPI INVALID JUMPDEST PUSH1 0x0 SWAP2 DUP3 MSTORE PUSH1 0x20 SWAP1 SWAP2 KECCAK256 ADD SLOAD PUSH1 0x4 DUP7 ADD DUP1 SLOAD PUSH1 0x1 PUSH1 0x1 PUSH1 0xA0 SHL SUB SWAP1 SWAP3 AND SWAP2 DUP7 SWAP1 DUP2 LT PUSH2 0x1E55 JUMPI INVALID JUMPDEST SWAP1 PUSH1 0x0 MSTORE PUSH1 0x20 PUSH1 0x0 KECCAK256 ADD SLOAD DUP7 PUSH1 0x5 ADD DUP7 DUP2 SLOAD DUP2 LT PUSH2 0x1E6F JUMPI INVALID JUMPDEST SWAP1 PUSH1 0x0 MSTORE PUSH1 0x20 PUSH1 0x0 KECCAK256 ADD DUP8 PUSH1 0x6 ADD DUP8 DUP2 SLOAD DUP2 LT PUSH2 0x1E88 JUMPI INVALID JUMPDEST SWAP1 PUSH1 0x0 MSTORE PUSH1 0x20 PUSH1 0x0 KECCAK256 ADD DUP9 PUSH1 0x2 ADD SLOAD PUSH1 0x40 MLOAD DUP8 PUSH4 0xFFFFFFFF AND PUSH1 0xE0 SHL DUP2 MSTORE PUSH1 0x4 ADD PUSH2 0x1EB7 SWAP6 SWAP5 SWAP4 SWAP3 SWAP2 SWAP1 PUSH2 0x3CB5 JUMP JUMPDEST PUSH1 0x0 PUSH1 0x40 MLOAD DUP1 DUP4 SUB DUP2 DUP6 DUP9 DUP1 EXTCODESIZE ISZERO DUP1 ISZERO PUSH2 0x1ED0 JUMPI PUSH1 0x0 DUP1 REVERT JUMPDEST POP GAS CALL ISZERO DUP1 ISZERO PUSH2 0x1EE4 JUMPI RETURNDATASIZE PUSH1 0x0 DUP1 RETURNDATACOPY RETURNDATASIZE PUSH1 0x0 REVERT JUMPDEST POP POP POP POP POP PUSH1 0x40 MLOAD RETURNDATASIZE PUSH1 0x0 DUP3 RETURNDATACOPY PUSH1 0x1F RETURNDATASIZE SWAP1 DUP2 ADD PUSH1 0x1F NOT AND DUP3 ADD PUSH1 0x40 MSTORE PUSH2 0x1F0D SWAP2 SWAP1 DUP2 ADD SWAP1 PUSH2 0x2A1D JUMP JUMPDEST POP PUSH1 0x1 ADD PUSH2 0x1DE1 JUMP JUMPDEST POP PUSH32 0x712AE1383F79AC853F8D882153778E0260EF8F03B504E2866E0593E04D2B291F DUP3 PUSH1 0x40 MLOAD PUSH2 0x7FA SWAP2 SWAP1 PUSH2 0x3D43 JUMP JUMPDEST CHAINID JUMPDEST SWAP1 JUMP JUMPDEST PUSH1 0x0 PUSH1 0x1 PUSH2 0x1F58 DUP5 PUSH2 0xE16 JUMP JUMPDEST PUSH1 0x7 DUP2 GT ISZERO PUSH2 0x1F63 JUMPI INVALID JUMPDEST EQ PUSH2 0x1F80 JUMPI PUSH1 0x40 MLOAD PUSH3 0x461BCD PUSH1 0xE5 SHL DUP2 MSTORE PUSH1 0x4 ADD PUSH2 0x786 SWAP1 PUSH2 0x3EA0 JUMP JUMPDEST PUSH1 0x2 DUP3 PUSH1 0xFF AND GT ISZERO PUSH2 0x1FA4 JUMPI PUSH1 0x40 MLOAD PUSH3 0x461BCD PUSH1 0xE5 SHL DUP2 MSTORE PUSH1 0x4 ADD PUSH2 0x786 SWAP1 PUSH2 0x3E10 JUMP JUMPDEST PUSH1 0x0 DUP4 DUP2 MSTORE PUSH1 0xA PUSH1 0x20 SWAP1 DUP2 MSTORE PUSH1 0x40 DUP1 DUP4 KECCAK256 PUSH1 0x1 PUSH1 0x1 PUSH1 0xA0 SHL SUB DUP9 AND DUP5 MSTORE PUSH1 0xD DUP2 ADD SWAP1 SWAP3 MSTORE SWAP1 SWAP2 KECCAK256 DUP1 SLOAD PUSH1 0xFF AND ISZERO PUSH2 0x1FED JUMPI PUSH1 0x40 MLOAD PUSH3 0x461BCD PUSH1 0xE5 SHL DUP2 MSTORE PUSH1 0x4 ADD PUSH2 0x786 SWAP1 PUSH2 0x3EB0 JUMP JUMPDEST PUSH1 0x9 SLOAD PUSH1 0x7 DUP4 ADD SLOAD PUSH1 0x40 MLOAD PUSH4 0x782D6FE1 PUSH1 0xE0 SHL DUP2 MSTORE PUSH1 0x0 SWAP3 PUSH1 0x1 PUSH1 0x1 PUSH1 0xA0 SHL SUB AND SWAP2 PUSH4 0x782D6FE1 SWAP2 PUSH2 0x2023 SWAP2 DUP12 SWAP2 PUSH1 0x4 ADD PUSH2 0x3C4D JUMP JUMPDEST PUSH1 0x20 PUSH1 0x40 MLOAD DUP1 DUP4 SUB DUP2 DUP7 DUP1 EXTCODESIZE ISZERO DUP1 ISZERO PUSH2 0x203B JUMPI PUSH1 0x0 DUP1 REVERT JUMPDEST POP GAS STATICCALL ISZERO DUP1 ISZERO PUSH2 0x204F JUMPI RETURNDATASIZE PUSH1 0x0 DUP1 RETURNDATACOPY RETURNDATASIZE PUSH1 0x0 REVERT JUMPDEST POP POP POP POP PUSH1 0x40 MLOAD RETURNDATASIZE PUSH1 0x1F NOT PUSH1 0x1F DUP3 ADD AND DUP3 ADD DUP1 PUSH1 0x40 MSTORE POP PUSH2 0x2073 SWAP2 SWAP1 DUP2 ADD SWAP1 PUSH2 0x2B88 JUMP JUMPDEST SWAP1 POP PUSH1 0xFF DUP6 AND PUSH2 0x209E JUMPI PUSH2 0x2094 DUP4 PUSH1 0xA ADD SLOAD DUP3 PUSH1 0x1 PUSH1 0x1 PUSH1 0x60 SHL SUB AND PUSH2 0x213C JUMP JUMPDEST PUSH1 0xA DUP5 ADD SSTORE PUSH2 0x20F4 JUMP JUMPDEST DUP5 PUSH1 0xFF AND PUSH1 0x1 EQ ISZERO PUSH2 0x20CB JUMPI PUSH2 0x20C1 DUP4 PUSH1 0x9 ADD SLOAD DUP3 PUSH1 0x1 PUSH1 0x1 PUSH1 0x60 SHL SUB AND PUSH2 0x213C JUMP JUMPDEST PUSH1 0x9 DUP5 ADD SSTORE PUSH2 0x20F4 JUMP JUMPDEST DUP5 PUSH1 0xFF AND PUSH1 0x2 EQ ISZERO PUSH2 0x20F4 JUMPI PUSH2 0x20EE DUP4 PUSH1 0xB ADD SLOAD DUP3 PUSH1 0x1 PUSH1 0x1 PUSH1 0x60 SHL SUB AND PUSH2 0x213C JUMP JUMPDEST PUSH1 0xB DUP5 ADD SSTORE JUMPDEST DUP2 SLOAD PUSH1 0x1 PUSH1 0xFF NOT SWAP1 SWAP2 AND OR PUSH2 0xFF00 NOT AND PUSH2 0x100 PUSH1 0xFF DUP8 AND MUL OR PUSH14 0xFFFFFFFFFFFFFFFFFFFFFFFF0000 NOT AND PUSH3 0x10000 PUSH1 0x1 PUSH1 0x1 PUSH1 0x60 SHL SUB DUP4 AND MUL OR SWAP1 SWAP2 SSTORE SWAP2 POP POP JUMPDEST SWAP4 SWAP3 POP POP POP JUMP JUMPDEST PUSH1 0x0 DUP3 DUP3 ADD DUP4 DUP2 LT ISZERO PUSH2 0x2135 JUMPI PUSH1 0x40 MLOAD PUSH3 0x461BCD PUSH1 0xE5 SHL DUP2 MSTORE PUSH1 0x4 ADD PUSH2 0x786 SWAP1 PUSH2 0x3F60 JUMP JUMPDEST PUSH1 0x0 DUP3 DUP3 GT ISZERO PUSH2 0x2183 JUMPI PUSH1 0x40 MLOAD PUSH3 0x461BCD PUSH1 0xE5 SHL DUP2 MSTORE PUSH1 0x4 ADD PUSH2 0x786 SWAP1 PUSH2 0x4050 JUMP JUMPDEST POP SWAP1 SUB SWAP1 JUMP JUMPDEST PUSH1 0x8 SLOAD PUSH1 0x40 MLOAD PUSH1 0x1 PUSH1 0x1 PUSH1 0xA0 SHL SUB SWAP1 SWAP2 AND SWAP1 PUSH4 0xF2B06537 SWAP1 PUSH2 0x21B7 SWAP1 DUP9 SWAP1 DUP9 SWAP1 DUP9 SWAP1 DUP9 SWAP1 DUP9 SWAP1 PUSH1 0x20 ADD PUSH2 0x3C5B JUMP JUMPDEST PUSH1 0x40 MLOAD PUSH1 0x20 DUP2 DUP4 SUB SUB DUP2 MSTORE SWAP1 PUSH1 0x40 MSTORE DUP1 MLOAD SWAP1 PUSH1 0x20 ADD KECCAK256 PUSH1 0x40 MLOAD DUP3 PUSH4 0xFFFFFFFF AND PUSH1 0xE0 SHL DUP2 MSTORE PUSH1 0x4 ADD PUSH2 0x21E9 SWAP2 SWAP1 PUSH2 0x3D43 JUMP JUMPDEST PUSH1 0x20 PUSH1 0x40 MLOAD DUP1 DUP4 SUB DUP2 DUP7 DUP1 EXTCODESIZE ISZERO DUP1 ISZERO PUSH2 0x2201 JUMPI PUSH1 0x0 DUP1 REVERT JUMPDEST POP GAS STATICCALL ISZERO DUP1 ISZERO PUSH2 0x2215 JUMPI RETURNDATASIZE PUSH1 0x0 DUP1 RETURNDATACOPY RETURNDATASIZE PUSH1 0x0 REVERT JUMPDEST POP POP POP POP PUSH1 0x40 MLOAD RETURNDATASIZE PUSH1 0x1F NOT PUSH1 0x1F DUP3 ADD AND DUP3 ADD DUP1 PUSH1 0x40 MSTORE POP PUSH2 0x2239 SWAP2 SWAP1 DUP2 ADD SWAP1 PUSH2 0x29E1 JUMP JUMPDEST ISZERO PUSH2 0x2256 JUMPI PUSH1 0x40 MLOAD PUSH3 0x461BCD PUSH1 0xE5 SHL DUP2 MSTORE PUSH1 0x4 ADD PUSH2 0x786 SWAP1 PUSH2 0x3E40 JUMP JUMPDEST PUSH1 0x8 SLOAD PUSH1 0x40 MLOAD PUSH4 0x3A66F901 PUSH1 0xE0 SHL DUP2 MSTORE PUSH1 0x1 PUSH1 0x1 PUSH1 0xA0 SHL SUB SWAP1 SWAP2 AND SWAP1 PUSH4 0x3A66F901 SWAP1 PUSH2 0x228E SWAP1 DUP9 SWAP1 DUP9 SWAP1 DUP9 SWAP1 DUP9 SWAP1 DUP9 SWAP1 PUSH1 0x4 ADD PUSH2 0x3C5B JUMP JUMPDEST PUSH1 0x20 PUSH1 0x40 MLOAD DUP1 DUP4 SUB DUP2 PUSH1 0x0 DUP8 DUP1 EXTCODESIZE ISZERO DUP1 ISZERO PUSH2 0x22A8 JUMPI PUSH1 0x0 DUP1 REVERT JUMPDEST POP GAS CALL ISZERO DUP1 ISZERO PUSH2 0x22BC JUMPI RETURNDATASIZE PUSH1 0x0 DUP1 RETURNDATACOPY RETURNDATASIZE PUSH1 0x0 REVERT JUMPDEST POP POP POP POP PUSH1 0x40 MLOAD RETURNDATASIZE PUSH1 0x1F NOT PUSH1 0x1F DUP3 ADD AND DUP3 ADD DUP1 PUSH1 0x40 MSTORE POP PUSH2 0x22E0 SWAP2 SWAP1 DUP2 ADD SWAP1 PUSH2 0x29FF JUMP JUMPDEST POP POP POP POP POP POP JUMP JUMPDEST DUP3 DUP1 SLOAD DUP3 DUP3 SSTORE SWAP1 PUSH1 0x0 MSTORE PUSH1 0x20 PUSH1 0x0 KECCAK256 SWAP1 DUP2 ADD SWAP3 DUP3 ISZERO PUSH2 0x233D JUMPI SWAP2 PUSH1 0x20 MUL DUP3 ADD JUMPDEST DUP3 DUP2 GT ISZERO PUSH2 0x233D JUMPI DUP3 MLOAD DUP3 SLOAD PUSH1 0x1 PUSH1 0x1 PUSH1 0xA0 SHL SUB NOT AND PUSH1 0x1 PUSH1 0x1 PUSH1 0xA0 SHL SUB SWAP1 SWAP2 AND OR DUP3 SSTORE PUSH1 0x20 SWAP1 SWAP3 ADD SWAP2 PUSH1 0x1 SWAP1 SWAP2 ADD SWAP1 PUSH2 0x2308 JUMP JUMPDEST POP PUSH2 0x2349 SWAP3 SWAP2 POP PUSH2 0x2466 JUMP JUMPDEST POP SWAP1 JUMP JUMPDEST DUP3 DUP1 SLOAD DUP3 DUP3 SSTORE SWAP1 PUSH1 0x0 MSTORE PUSH1 0x20 PUSH1 0x0 KECCAK256 SWAP1 DUP2 ADD SWAP3 DUP3 ISZERO PUSH2 0x2388 JUMPI SWAP2 PUSH1 0x20 MUL DUP3 ADD JUMPDEST DUP3 DUP2 GT ISZERO PUSH2 0x2388 JUMPI DUP3 MLOAD DUP3 SSTORE SWAP2 PUSH1 0x20 ADD SWAP2 SWAP1 PUSH1 0x1 ADD SWAP1 PUSH2 0x236D JUMP JUMPDEST POP PUSH2 0x2349 SWAP3 SWAP2 POP PUSH2 0x248A JUMP JUMPDEST DUP3 DUP1 SLOAD DUP3 DUP3 SSTORE SWAP1 PUSH1 0x0 MSTORE PUSH1 0x20 PUSH1 0x0 KECCAK256 SWAP1 DUP2 ADD SWAP3 DUP3 ISZERO PUSH2 0x23E1 JUMPI SWAP2 PUSH1 0x20 MUL DUP3 ADD JUMPDEST DUP3 DUP2 GT ISZERO PUSH2 0x23E1 JUMPI DUP3 MLOAD DUP1 MLOAD PUSH2 0x23D1 SWAP2 DUP5 SWAP2 PUSH1 0x20 SWAP1 SWAP2 ADD SWAP1 PUSH2 0x24A4 JUMP JUMPDEST POP SWAP2 PUSH1 0x20 ADD SWAP2 SWAP1 PUSH1 0x1 ADD SWAP1 PUSH2 0x23B4 JUMP JUMPDEST POP PUSH2 0x2349 SWAP3 SWAP2 POP PUSH2 0x2511 JUMP JUMPDEST DUP3 DUP1 SLOAD DUP3 DUP3 SSTORE SWAP1 PUSH1 0x0 MSTORE PUSH1 0x20 PUSH1 0x0 KECCAK256 SWAP1 DUP2 ADD SWAP3 DUP3 ISZERO PUSH2 0x243A JUMPI SWAP2 PUSH1 0x20 MUL DUP3 ADD JUMPDEST DUP3 DUP2 GT ISZERO PUSH2 0x243A JUMPI DUP3 MLOAD DUP1 MLOAD PUSH2 0x242A SWAP2 DUP5 SWAP2 PUSH1 0x20 SWAP1 SWAP2 ADD SWAP1 PUSH2 0x24A4 JUMP JUMPDEST POP SWAP2 PUSH1 0x20 ADD SWAP2 SWAP1 PUSH1 0x1 ADD SWAP1 PUSH2 0x240D JUMP JUMPDEST POP PUSH2 0x2349 SWAP3 SWAP2 POP PUSH2 0x2534 JUMP JUMPDEST PUSH1 0x40 DUP1 MLOAD PUSH1 0x60 DUP2 ADD DUP3 MSTORE PUSH1 0x0 DUP1 DUP3 MSTORE PUSH1 0x20 DUP3 ADD DUP2 SWAP1 MSTORE SWAP2 DUP2 ADD SWAP2 SWAP1 SWAP2 MSTORE SWAP1 JUMP JUMPDEST PUSH2 0x1F48 SWAP2 SWAP1 JUMPDEST DUP1 DUP3 GT ISZERO PUSH2 0x2349 JUMPI DUP1 SLOAD PUSH1 0x1 PUSH1 0x1 PUSH1 0xA0 SHL SUB NOT AND DUP2 SSTORE PUSH1 0x1 ADD PUSH2 0x246C JUMP JUMPDEST PUSH2 0x1F48 SWAP2 SWAP1 JUMPDEST DUP1 DUP3 GT ISZERO PUSH2 0x2349 JUMPI PUSH1 0x0 DUP2 SSTORE PUSH1 0x1 ADD PUSH2 0x2490 JUMP JUMPDEST DUP3 DUP1 SLOAD PUSH1 0x1 DUP2 PUSH1 0x1 AND ISZERO PUSH2 0x100 MUL SUB AND PUSH1 0x2 SWAP1 DIV SWAP1 PUSH1 0x0 MSTORE PUSH1 0x20 PUSH1 0x0 KECCAK256 SWAP1 PUSH1 0x1F ADD PUSH1 0x20 SWAP1 DIV DUP2 ADD SWAP3 DUP3 PUSH1 0x1F LT PUSH2 0x24E5 JUMPI DUP1 MLOAD PUSH1 0xFF NOT AND DUP4 DUP1 ADD OR DUP6 SSTORE PUSH2 0x2388 JUMP JUMPDEST DUP3 DUP1 ADD PUSH1 0x1 ADD DUP6 SSTORE DUP3 ISZERO PUSH2 0x2388 JUMPI SWAP2 DUP3 ADD DUP3 DUP2 GT ISZERO PUSH2 0x2388 JUMPI DUP3 MLOAD DUP3 SSTORE SWAP2 PUSH1 0x20 ADD SWAP2 SWAP1 PUSH1 0x1 ADD SWAP1 PUSH2 0x236D JUMP JUMPDEST PUSH2 0x1F48 SWAP2 SWAP1 JUMPDEST DUP1 DUP3 GT ISZERO PUSH2 0x2349 JUMPI PUSH1 0x0 PUSH2 0x252B DUP3 DUP3 PUSH2 0x2557 JUMP JUMPDEST POP PUSH1 0x1 ADD PUSH2 0x2517 JUMP JUMPDEST PUSH2 0x1F48 SWAP2 SWAP1 JUMPDEST DUP1 DUP3 GT ISZERO PUSH2 0x2349 JUMPI PUSH1 0x0 PUSH2 0x254E DUP3 DUP3 PUSH2 0x2557 JUMP JUMPDEST POP PUSH1 0x1 ADD PUSH2 0x253A JUMP JUMPDEST POP DUP1 SLOAD PUSH1 0x1 DUP2 PUSH1 0x1 AND ISZERO PUSH2 0x100 MUL SUB AND PUSH1 0x2 SWAP1 DIV PUSH1 0x0 DUP3 SSTORE DUP1 PUSH1 0x1F LT PUSH2 0x257D JUMPI POP PUSH2 0x259B JUMP JUMPDEST PUSH1 0x1F ADD PUSH1 0x20 SWAP1 DIV SWAP1 PUSH1 0x0 MSTORE PUSH1 0x20 PUSH1 0x0 KECCAK256 SWAP1 DUP2 ADD SWAP1 PUSH2 0x259B SWAP2 SWAP1 PUSH2 0x248A JUMP JUMPDEST POP JUMP JUMPDEST DUP1 CALLDATALOAD PUSH2 0x1B69 DUP2 PUSH2 0x4364 JUMP JUMPDEST PUSH1 0x0 DUP3 PUSH1 0x1F DUP4 ADD SLT PUSH2 0x25BA JUMPI PUSH1 0x0 DUP1 REVERT JUMPDEST DUP2 CALLDATALOAD PUSH2 0x25CD PUSH2 0x25C8 DUP3 PUSH2 0x4250 JUMP JUMPDEST PUSH2 0x4229 JUMP JUMPDEST SWAP2 POP DUP2 DUP2 DUP4 MSTORE PUSH1 0x20 DUP5 ADD SWAP4 POP PUSH1 0x20 DUP2 ADD SWAP1 POP DUP4 DUP6 PUSH1 0x20 DUP5 MUL DUP3 ADD GT ISZERO PUSH2 0x25F2 JUMPI PUSH1 0x0 DUP1 REVERT JUMPDEST PUSH1 0x0 JUMPDEST DUP4 DUP2 LT ISZERO PUSH2 0x261E JUMPI DUP2 PUSH2 0x2608 DUP9 DUP3 PUSH2 0x259E JUMP JUMPDEST DUP5 MSTORE POP PUSH1 0x20 SWAP3 DUP4 ADD SWAP3 SWAP2 SWAP1 SWAP2 ADD SWAP1 PUSH1 0x1 ADD PUSH2 0x25F5 JUMP JUMPDEST POP POP POP POP SWAP3 SWAP2 POP POP JUMP JUMPDEST PUSH1 0x0 DUP3 PUSH1 0x1F DUP4 ADD SLT PUSH2 0x2639 JUMPI PUSH1 0x0 DUP1 REVERT JUMPDEST DUP2 CALLDATALOAD PUSH2 0x2647 PUSH2 0x25C8 DUP3 PUSH2 0x4250 JUMP JUMPDEST DUP2 DUP2 MSTORE PUSH1 0x20 SWAP4 DUP5 ADD SWAP4 SWAP1 SWAP3 POP DUP3 ADD DUP4 PUSH1 0x0 JUMPDEST DUP4 DUP2 LT ISZERO PUSH2 0x261E JUMPI DUP2 CALLDATALOAD DUP7 ADD PUSH2 0x266F DUP9 DUP3 PUSH2 0x2773 JUMP JUMPDEST DUP5 MSTORE POP PUSH1 0x20 SWAP3 DUP4 ADD SWAP3 SWAP2 SWAP1 SWAP2 ADD SWAP1 PUSH1 0x1 ADD PUSH2 0x2659 JUMP JUMPDEST PUSH1 0x0 DUP3 PUSH1 0x1F DUP4 ADD SLT PUSH2 0x2696 JUMPI PUSH1 0x0 DUP1 REVERT JUMPDEST DUP2 CALLDATALOAD PUSH2 0x26A4 PUSH2 0x25C8 DUP3 PUSH2 0x4250 JUMP JUMPDEST DUP2 DUP2 MSTORE PUSH1 0x20 SWAP4 DUP5 ADD SWAP4 SWAP1 SWAP3 POP DUP3 ADD DUP4 PUSH1 0x0 JUMPDEST DUP4 DUP2 LT ISZERO PUSH2 0x261E JUMPI DUP2 CALLDATALOAD DUP7 ADD PUSH2 0x26CC DUP9 DUP3 PUSH2 0x2773 JUMP JUMPDEST DUP5 MSTORE POP PUSH1 0x20 SWAP3 DUP4 ADD SWAP3 SWAP2 SWAP1 SWAP2 ADD SWAP1 PUSH1 0x1 ADD PUSH2 0x26B6 JUMP JUMPDEST PUSH1 0x0 DUP3 PUSH1 0x1F DUP4 ADD SLT PUSH2 0x26F3 JUMPI PUSH1 0x0 DUP1 REVERT JUMPDEST DUP2 CALLDATALOAD PUSH2 0x2701 PUSH2 0x25C8 DUP3 PUSH2 0x4250 JUMP JUMPDEST SWAP2 POP DUP2 DUP2 DUP4 MSTORE PUSH1 0x20 DUP5 ADD SWAP4 POP PUSH1 0x20 DUP2 ADD SWAP1 POP DUP4 DUP6 PUSH1 0x20 DUP5 MUL DUP3 ADD GT ISZERO PUSH2 0x2726 JUMPI PUSH1 0x0 DUP1 REVERT JUMPDEST PUSH1 0x0 JUMPDEST DUP4 DUP2 LT ISZERO PUSH2 0x261E JUMPI DUP2 PUSH2 0x273C DUP9 DUP3 PUSH2 0x275D JUMP JUMPDEST DUP5 MSTORE POP PUSH1 0x20 SWAP3 DUP4 ADD SWAP3 SWAP2 SWAP1 SWAP2 ADD SWAP1 PUSH1 0x1 ADD PUSH2 0x2729 JUMP JUMPDEST DUP1 MLOAD PUSH2 0x1B69 DUP2 PUSH2 0x4378 JUMP JUMPDEST DUP1 CALLDATALOAD PUSH2 0x1B69 DUP2 PUSH2 0x4381 JUMP JUMPDEST DUP1 MLOAD PUSH2 0x1B69 DUP2 PUSH2 0x4381 JUMP JUMPDEST PUSH1 0x0 DUP3 PUSH1 0x1F DUP4 ADD SLT PUSH2 0x2784 JUMPI PUSH1 0x0 DUP1 REVERT JUMPDEST DUP2 CALLDATALOAD PUSH2 0x2792 PUSH2 0x25C8 DUP3 PUSH2 0x4271 JUMP JUMPDEST SWAP2 POP DUP1 DUP3 MSTORE PUSH1 0x20 DUP4 ADD PUSH1 0x20 DUP4 ADD DUP6 DUP4 DUP4 ADD GT ISZERO PUSH2 0x27AE JUMPI PUSH1 0x0 DUP1 REVERT JUMPDEST PUSH2 0x27B9 DUP4 DUP3 DUP5 PUSH2 0x4318 JUMP JUMPDEST POP POP POP SWAP3 SWAP2 POP POP JUMP JUMPDEST PUSH1 0x0 DUP3 PUSH1 0x1F DUP4 ADD SLT PUSH2 0x27D3 JUMPI PUSH1 0x0 DUP1 REVERT JUMPDEST DUP2 MLOAD PUSH2 0x27E1 PUSH2 0x25C8 DUP3 PUSH2 0x4271 JUMP JUMPDEST SWAP2 POP DUP1 DUP3 MSTORE PUSH1 0x20 DUP4 ADD PUSH1 0x20 DUP4 ADD DUP6 DUP4 DUP4 ADD GT ISZERO PUSH2 0x27FD JUMPI PUSH1 0x0 DUP1 REVERT JUMPDEST PUSH2 0x27B9 DUP4 DUP3 DUP5 PUSH2 0x4324 JUMP JUMPDEST PUSH1 0x0 DUP1 DUP4 PUSH1 0x1F DUP5 ADD SLT PUSH2 0x281A JUMPI PUSH1 0x0 DUP1 REVERT JUMPDEST POP DUP2 CALLDATALOAD PUSH8 0xFFFFFFFFFFFFFFFF DUP2 GT ISZERO PUSH2 0x2832 JUMPI PUSH1 0x0 DUP1 REVERT JUMPDEST PUSH1 0x20 DUP4 ADD SWAP2 POP DUP4 PUSH1 0x1 DUP3 MUL DUP4 ADD GT ISZERO PUSH2 0x284A JUMPI PUSH1 0x0 DUP1 REVERT JUMPDEST SWAP3 POP SWAP3 SWAP1 POP JUMP JUMPDEST DUP1 CALLDATALOAD PUSH2 0x1B69 DUP2 PUSH2 0x438A JUMP JUMPDEST DUP1 MLOAD PUSH2 0x1B69 DUP2 PUSH2 0x4393 JUMP JUMPDEST PUSH1 0x0 PUSH1 0x20 DUP3 DUP5 SUB SLT ISZERO PUSH2 0x2879 JUMPI PUSH1 0x0 DUP1 REVERT JUMPDEST PUSH1 0x0 PUSH2 0x2885 DUP5 DUP5 PUSH2 0x259E JUMP JUMPDEST SWAP5 SWAP4 POP POP POP POP JUMP JUMPDEST PUSH1 0x0 DUP1 PUSH1 0x0 DUP1 PUSH1 0x0 PUSH1 0xA0 DUP7 DUP9 SUB SLT ISZERO PUSH2 0x28A5 JUMPI PUSH1 0x0 DUP1 REVERT JUMPDEST PUSH1 0x0 PUSH2 0x28B1 DUP9 DUP9 PUSH2 0x259E JUMP JUMPDEST SWAP6 POP POP PUSH1 0x20 PUSH2 0x28C2 DUP9 DUP3 DUP10 ADD PUSH2 0x259E JUMP JUMPDEST SWAP5 POP POP PUSH1 0x40 PUSH2 0x28D3 DUP9 DUP3 DUP10 ADD PUSH2 0x275D JUMP JUMPDEST SWAP4 POP POP PUSH1 0x60 PUSH2 0x28E4 DUP9 DUP3 DUP10 ADD PUSH2 0x275D JUMP JUMPDEST SWAP3 POP POP PUSH1 0x80 PUSH2 0x28F5 DUP9 DUP3 DUP10 ADD PUSH2 0x275D JUMP JUMPDEST SWAP2 POP POP SWAP3 SWAP6 POP SWAP3 SWAP6 SWAP1 SWAP4 POP JUMP JUMPDEST PUSH1 0x0 DUP1 PUSH1 0x0 DUP1 PUSH1 0x0 PUSH1 0xA0 DUP7 DUP9 SUB SLT ISZERO PUSH2 0x291A JUMPI PUSH1 0x0 DUP1 REVERT JUMPDEST DUP6 CALLDATALOAD PUSH8 0xFFFFFFFFFFFFFFFF DUP2 GT ISZERO PUSH2 0x2931 JUMPI PUSH1 0x0 DUP1 REVERT JUMPDEST PUSH2 0x293D DUP9 DUP3 DUP10 ADD PUSH2 0x25A9 JUMP JUMPDEST SWAP6 POP POP PUSH1 0x20 DUP7 ADD CALLDATALOAD PUSH8 0xFFFFFFFFFFFFFFFF DUP2 GT ISZERO PUSH2 0x295A JUMPI PUSH1 0x0 DUP1 REVERT JUMPDEST PUSH2 0x2966 DUP9 DUP3 DUP10 ADD PUSH2 0x26E2 JUMP JUMPDEST SWAP5 POP POP PUSH1 0x40 DUP7 ADD CALLDATALOAD PUSH8 0xFFFFFFFFFFFFFFFF DUP2 GT ISZERO PUSH2 0x2983 JUMPI PUSH1 0x0 DUP1 REVERT JUMPDEST PUSH2 0x298F DUP9 DUP3 DUP10 ADD PUSH2 0x2685 JUMP JUMPDEST SWAP4 POP POP PUSH1 0x60 DUP7 ADD CALLDATALOAD PUSH8 0xFFFFFFFFFFFFFFFF DUP2 GT ISZERO PUSH2 0x29AC JUMPI PUSH1 0x0 DUP1 REVERT JUMPDEST PUSH2 0x29B8 DUP9 DUP3 DUP10 ADD PUSH2 0x2628 JUMP JUMPDEST SWAP3 POP POP PUSH1 0x80 DUP7 ADD CALLDATALOAD PUSH8 0xFFFFFFFFFFFFFFFF DUP2 GT ISZERO PUSH2 0x29D5 JUMPI PUSH1 0x0 DUP1 REVERT JUMPDEST PUSH2 0x28F5 DUP9 DUP3 DUP10 ADD PUSH2 0x2773 JUMP JUMPDEST PUSH1 0x0 PUSH1 0x20 DUP3 DUP5 SUB SLT ISZERO PUSH2 0x29F3 JUMPI PUSH1 0x0 DUP1 REVERT JUMPDEST PUSH1 0x0 PUSH2 0x2885 DUP5 DUP5 PUSH2 0x2752 JUMP JUMPDEST PUSH1 0x0 PUSH1 0x20 DUP3 DUP5 SUB SLT ISZERO PUSH2 0x2A11 JUMPI PUSH1 0x0 DUP1 REVERT JUMPDEST PUSH1 0x0 PUSH2 0x2885 DUP5 DUP5 PUSH2 0x2768 JUMP JUMPDEST PUSH1 0x0 PUSH1 0x20 DUP3 DUP5 SUB SLT ISZERO PUSH2 0x2A2F JUMPI PUSH1 0x0 DUP1 REVERT JUMPDEST DUP2 MLOAD PUSH8 0xFFFFFFFFFFFFFFFF DUP2 GT ISZERO PUSH2 0x2A46 JUMPI PUSH1 0x0 DUP1 REVERT JUMPDEST PUSH2 0x2885 DUP5 DUP3 DUP6 ADD PUSH2 0x27C2 JUMP JUMPDEST PUSH1 0x0 PUSH1 0x20 DUP3 DUP5 SUB SLT ISZERO PUSH2 0x2A64 JUMPI PUSH1 0x0 DUP1 REVERT JUMPDEST PUSH1 0x0 PUSH2 0x2885 DUP5 DUP5 PUSH2 0x275D JUMP JUMPDEST PUSH1 0x0 DUP1 PUSH1 0x40 DUP4 DUP6 SUB SLT ISZERO PUSH2 0x2A83 JUMPI PUSH1 0x0 DUP1 REVERT JUMPDEST PUSH1 0x0 PUSH2 0x2A8F DUP6 DUP6 PUSH2 0x275D JUMP JUMPDEST SWAP3 POP POP PUSH1 0x20 PUSH2 0x2AA0 DUP6 DUP3 DUP7 ADD PUSH2 0x259E JUMP JUMPDEST SWAP2 POP POP SWAP3 POP SWAP3 SWAP1 POP JUMP JUMPDEST PUSH1 0x0 DUP1 PUSH1 0x40 DUP4 DUP6 SUB SLT ISZERO PUSH2 0x2ABD JUMPI PUSH1 0x0 DUP1 REVERT JUMPDEST PUSH1 0x0 PUSH2 0x2AC9 DUP6 DUP6 PUSH2 0x275D JUMP JUMPDEST SWAP3 POP POP PUSH1 0x20 PUSH2 0x2AA0 DUP6 DUP3 DUP7 ADD PUSH2 0x2851 JUMP JUMPDEST PUSH1 0x0 DUP1 PUSH1 0x0 DUP1 PUSH1 0x60 DUP6 DUP8 SUB SLT ISZERO PUSH2 0x2AF0 JUMPI PUSH1 0x0 DUP1 REVERT JUMPDEST PUSH1 0x0 PUSH2 0x2AFC DUP8 DUP8 PUSH2 0x275D JUMP JUMPDEST SWAP5 POP POP PUSH1 0x20 PUSH2 0x2B0D DUP8 DUP3 DUP9 ADD PUSH2 0x2851 JUMP JUMPDEST SWAP4 POP POP PUSH1 0x40 DUP6 ADD CALLDATALOAD PUSH8 0xFFFFFFFFFFFFFFFF DUP2 GT ISZERO PUSH2 0x2B2A JUMPI PUSH1 0x0 DUP1 REVERT JUMPDEST PUSH2 0x2B36 DUP8 DUP3 DUP9 ADD PUSH2 0x2808 JUMP JUMPDEST SWAP6 SWAP9 SWAP5 SWAP8 POP SWAP6 POP POP POP POP JUMP JUMPDEST PUSH1 0x0 DUP1 PUSH1 0x0 DUP1 PUSH1 0x0 PUSH1 0xA0 DUP7 DUP9 SUB SLT ISZERO PUSH2 0x2B5A JUMPI PUSH1 0x0 DUP1 REVERT JUMPDEST PUSH1 0x0 PUSH2 0x2B66 DUP9 DUP9 PUSH2 0x275D JUMP JUMPDEST SWAP6 POP POP PUSH1 0x20 PUSH2 0x2B77 DUP9 DUP3 DUP10 ADD PUSH2 0x2851 JUMP JUMPDEST SWAP5 POP POP PUSH1 0x40 PUSH2 0x28D3 DUP9 DUP3 DUP10 ADD PUSH2 0x2851 JUMP JUMPDEST PUSH1 0x0 PUSH1 0x20 DUP3 DUP5 SUB SLT ISZERO PUSH2 0x2B9A JUMPI PUSH1 0x0 DUP1 REVERT JUMPDEST PUSH1 0x0 PUSH2 0x2885 DUP5 DUP5 PUSH2 0x285C JUMP JUMPDEST PUSH1 0x0 PUSH2 0x2BB2 DUP4 DUP4 PUSH2 0x2BE1 JUMP JUMPDEST POP POP PUSH1 0x20 ADD SWAP1 JUMP JUMPDEST PUSH1 0x0 PUSH2 0x2135 DUP4 DUP4 PUSH2 0x2D83 JUMP JUMPDEST PUSH1 0x0 PUSH2 0x2BB2 DUP4 DUP4 PUSH2 0x2D69 JUMP JUMPDEST PUSH2 0x2BDB DUP2 PUSH2 0x42F0 JUMP JUMPDEST DUP3 MSTORE POP POP JUMP JUMPDEST PUSH2 0x2BDB DUP2 PUSH2 0x42B8 JUMP JUMPDEST PUSH1 0x0 PUSH2 0x2BF5 DUP3 PUSH2 0x42AB JUMP JUMPDEST PUSH2 0x2BFF DUP2 DUP6 PUSH2 0x42AF JUMP JUMPDEST SWAP4 POP PUSH2 0x2C0A DUP4 PUSH2 0x4299 JUMP JUMPDEST DUP1 PUSH1 0x0 JUMPDEST DUP4 DUP2 LT ISZERO PUSH2 0x2C38 JUMPI DUP2 MLOAD PUSH2 0x2C22 DUP9 DUP3 PUSH2 0x2BA6 JUMP JUMPDEST SWAP8 POP PUSH2 0x2C2D DUP4 PUSH2 0x4299 JUMP JUMPDEST SWAP3 POP POP PUSH1 0x1 ADD PUSH2 0x2C0E JUMP JUMPDEST POP SWAP5 SWAP6 SWAP5 POP POP POP POP POP JUMP JUMPDEST PUSH1 0x0 PUSH2 0x2C4E DUP3 PUSH2 0x42AB JUMP JUMPDEST PUSH2 0x2C58 DUP2 DUP6 PUSH2 0x42AF JUMP JUMPDEST SWAP4 POP DUP4 PUSH1 0x20 DUP3 MUL DUP6 ADD PUSH2 0x2C6A DUP6 PUSH2 0x4299 JUMP JUMPDEST DUP1 PUSH1 0x0 JUMPDEST DUP6 DUP2 LT ISZERO PUSH2 0x2CA4 JUMPI DUP5 DUP5 SUB DUP10 MSTORE DUP2 MLOAD PUSH2 0x2C87 DUP6 DUP3 PUSH2 0x2BBA JUMP JUMPDEST SWAP5 POP PUSH2 0x2C92 DUP4 PUSH2 0x4299 JUMP JUMPDEST PUSH1 0x20 SWAP11 SWAP1 SWAP11 ADD SWAP10 SWAP3 POP POP PUSH1 0x1 ADD PUSH2 0x2C6E JUMP JUMPDEST POP SWAP2 SWAP8 SWAP7 POP POP POP POP POP POP POP JUMP JUMPDEST PUSH1 0x0 PUSH2 0x2CBC DUP3 PUSH2 0x42AB JUMP JUMPDEST PUSH2 0x2CC6 DUP2 DUP6 PUSH2 0x42AF JUMP JUMPDEST SWAP4 POP DUP4 PUSH1 0x20 DUP3 MUL DUP6 ADD PUSH2 0x2CD8 DUP6 PUSH2 0x4299 JUMP JUMPDEST DUP1 PUSH1 0x0 JUMPDEST DUP6 DUP2 LT ISZERO PUSH2 0x2CA4 JUMPI DUP5 DUP5 SUB DUP10 MSTORE DUP2 MLOAD PUSH2 0x2CF5 DUP6 DUP3 PUSH2 0x2BBA JUMP JUMPDEST SWAP5 POP PUSH2 0x2D00 DUP4 PUSH2 0x4299 JUMP JUMPDEST PUSH1 0x20 SWAP11 SWAP1 SWAP11 ADD SWAP10 SWAP3 POP POP PUSH1 0x1 ADD PUSH2 0x2CDC JUMP JUMPDEST PUSH1 0x0 PUSH2 0x2D1D DUP3 PUSH2 0x42AB JUMP JUMPDEST PUSH2 0x2D27 DUP2 DUP6 PUSH2 0x42AF JUMP JUMPDEST SWAP4 POP PUSH2 0x2D32 DUP4 PUSH2 0x4299 JUMP JUMPDEST DUP1 PUSH1 0x0 JUMPDEST DUP4 DUP2 LT ISZERO PUSH2 0x2C38 JUMPI DUP2 MLOAD PUSH2 0x2D4A DUP9 DUP3 PUSH2 0x2BC6 JUMP JUMPDEST SWAP8 POP PUSH2 0x2D55 DUP4 PUSH2 0x4299 JUMP JUMPDEST SWAP3 POP POP PUSH1 0x1 ADD PUSH2 0x2D36 JUMP JUMPDEST PUSH2 0x2BDB DUP2 PUSH2 0x42C3 JUMP JUMPDEST PUSH2 0x2BDB DUP2 PUSH2 0x1F48 JUMP JUMPDEST PUSH2 0x2BDB PUSH2 0x2D7E DUP3 PUSH2 0x1F48 JUMP JUMPDEST PUSH2 0x1F48 JUMP JUMPDEST PUSH1 0x0 PUSH2 0x2D8E DUP3 PUSH2 0x42AB JUMP JUMPDEST PUSH2 0x2D98 DUP2 DUP6 PUSH2 0x42AF JUMP JUMPDEST SWAP4 POP PUSH2 0x2DA8 DUP2 DUP6 PUSH1 0x20 DUP7 ADD PUSH2 0x4324 JUMP JUMPDEST PUSH2 0x2DB1 DUP2 PUSH2 0x4350 JUMP JUMPDEST SWAP1 SWAP4 ADD SWAP4 SWAP3 POP POP POP JUMP JUMPDEST PUSH1 0x0 DUP2 SLOAD PUSH1 0x1 DUP2 AND PUSH1 0x0 DUP2 EQ PUSH2 0x2DD8 JUMPI PUSH1 0x1 DUP2 EQ PUSH2 0x2DFE JUMPI PUSH2 0x2E3D JUMP JUMPDEST PUSH1 0x7F PUSH1 0x2 DUP4 DIV AND PUSH2 0x2DE9 DUP2 DUP8 PUSH2 0x42AF JUMP JUMPDEST PUSH1 0xFF NOT DUP5 AND DUP2 MSTORE SWAP6 POP POP PUSH1 0x20 DUP6 ADD SWAP3 POP PUSH2 0x2E3D JUMP JUMPDEST PUSH1 0x2 DUP3 DIV PUSH2 0x2E0C DUP2 DUP8 PUSH2 0x42AF JUMP JUMPDEST SWAP6 POP PUSH2 0x2E17 DUP6 PUSH2 0x429F JUMP JUMPDEST PUSH1 0x0 JUMPDEST DUP3 DUP2 LT ISZERO PUSH2 0x2E36 JUMPI DUP2 SLOAD DUP9 DUP3 ADD MSTORE PUSH1 0x1 SWAP1 SWAP2 ADD SWAP1 PUSH1 0x20 ADD PUSH2 0x2E1A JUMP JUMPDEST DUP8 ADD SWAP5 POP POP POP JUMPDEST POP POP SWAP3 SWAP2 POP POP JUMP JUMPDEST PUSH2 0x2BDB DUP2 PUSH2 0x42F7 JUMP JUMPDEST PUSH2 0x2BDB DUP2 PUSH2 0x4302 JUMP JUMPDEST PUSH1 0x0 PUSH2 0x2E63 DUP4 DUP6 PUSH2 0x42AF JUMP JUMPDEST SWAP4 POP PUSH2 0x2E70 DUP4 DUP6 DUP5 PUSH2 0x4318 JUMP JUMPDEST PUSH2 0x2DB1 DUP4 PUSH2 0x4350 JUMP JUMPDEST PUSH1 0x0 PUSH2 0x2E86 PUSH1 0x32 DUP4 PUSH2 0x42AF JUMP JUMPDEST PUSH32 0x476F7665726E6F72427261766F3A3A63617374566F7465496E7465726E616C3A DUP2 MSTORE PUSH18 0x20696E76616C696420766F74652074797065 PUSH1 0x70 SHL PUSH1 0x20 DUP3 ADD MSTORE PUSH1 0x40 ADD SWAP3 SWAP2 POP POP JUMP JUMPDEST PUSH1 0x0 PUSH2 0x2EDA PUSH1 0x28 DUP4 PUSH2 0xF97 JUMP JUMPDEST PUSH32 0x42616C6C6F742875696E743235362070726F706F73616C49642C75696E743820 DUP2 MSTORE PUSH8 0x737570706F727429 PUSH1 0xC0 SHL PUSH1 0x20 DUP3 ADD MSTORE PUSH1 0x28 ADD SWAP3 SWAP2 POP POP JUMP JUMPDEST PUSH1 0x0 PUSH2 0x2F24 PUSH1 0x33 DUP4 PUSH2 0x42AF JUMP JUMPDEST PUSH32 0x476F7665726E6F72427261766F3A3A696E697469616C697A653A2063616E206F DUP2 MSTORE PUSH19 0x6E6C7920696E697469616C697A65206F6E6365 PUSH1 0x68 SHL PUSH1 0x20 DUP3 ADD MSTORE PUSH1 0x40 ADD SWAP3 SWAP2 POP POP JUMP JUMPDEST PUSH1 0x0 PUSH2 0x2F79 PUSH1 0x2A DUP4 PUSH2 0x42AF JUMP JUMPDEST PUSH32 0x476F7665726E6F72427261766F3A5F73657450656E64696E6741646D696E3A20 DUP2 MSTORE PUSH10 0x61646D696E206F6E6C79 PUSH1 0xB0 SHL PUSH1 0x20 DUP3 ADD MSTORE PUSH1 0x40 ADD SWAP3 SWAP2 POP POP JUMP JUMPDEST PUSH1 0x0 PUSH2 0x2FC5 PUSH1 0x55 DUP4 PUSH2 0x42AF JUMP JUMPDEST PUSH32 0x476F7665726E6F72427261766F3A3A71756575654F72526576657274496E7465 DUP2 MSTORE PUSH32 0x726E616C3A206964656E746963616C2070726F706F73616C20616374696F6E20 PUSH1 0x20 DUP3 ADD MSTORE PUSH21 0x616C72656164792071756575656420617420657461 PUSH1 0x58 SHL PUSH1 0x40 DUP3 ADD MSTORE PUSH1 0x60 ADD SWAP3 SWAP2 POP POP JUMP JUMPDEST PUSH1 0x0 PUSH2 0x3042 PUSH1 0x2B DUP4 PUSH2 0x42AF JUMP JUMPDEST PUSH32 0x476F7665726E6F72427261766F3A3A5F736574566F74696E67506572696F643A DUP2 MSTORE PUSH11 0x2061646D696E206F6E6C79 PUSH1 0xA8 SHL PUSH1 0x20 DUP3 ADD MSTORE PUSH1 0x40 ADD SWAP3 SWAP2 POP POP JUMP JUMPDEST PUSH1 0x0 PUSH2 0x308F PUSH1 0x33 DUP4 PUSH2 0x42AF JUMP JUMPDEST PUSH1 0x0 DUP1 MLOAD PUSH1 0x20 PUSH2 0x439D DUP4 CODECOPY DUP2 MLOAD SWAP2 MSTORE DUP2 MSTORE PUSH19 0x69642074696D656C6F636B2061646472657373 PUSH1 0x68 SHL PUSH1 0x20 DUP3 ADD MSTORE PUSH1 0x40 ADD SWAP3 SWAP2 POP POP JUMP JUMPDEST PUSH1 0x0 PUSH2 0x30D2 PUSH1 0x2A DUP4 PUSH2 0x42AF JUMP JUMPDEST PUSH32 0x476F7665726E6F72427261766F3A3A5F736574566F74696E6744656C61793A20 DUP2 MSTORE PUSH10 0x61646D696E206F6E6C79 PUSH1 0xB0 SHL PUSH1 0x20 DUP3 ADD MSTORE PUSH1 0x40 ADD SWAP3 SWAP2 POP POP JUMP JUMPDEST PUSH1 0x0 PUSH2 0x311E PUSH1 0x31 DUP4 PUSH2 0x42AF JUMP JUMPDEST PUSH32 0x476F7665726E6F72427261766F3A3A70726F706F73653A20476F7665726E6F72 DUP2 MSTORE PUSH17 0x20427261766F206E6F7420616374697665 PUSH1 0x78 SHL PUSH1 0x20 DUP3 ADD MSTORE PUSH1 0x40 ADD SWAP3 SWAP2 POP POP JUMP JUMPDEST PUSH1 0x0 PUSH2 0x3171 PUSH1 0x2 DUP4 PUSH2 0xF97 JUMP JUMPDEST PUSH2 0x1901 PUSH1 0xF0 SHL DUP2 MSTORE PUSH1 0x2 ADD SWAP3 SWAP2 POP POP JUMP JUMPDEST PUSH1 0x0 PUSH2 0x318F PUSH1 0x36 DUP4 PUSH2 0x42AF JUMP JUMPDEST PUSH32 0x476F7665726E6F72427261766F3A3A5F736574566F74696E67506572696F643A DUP2 MSTORE PUSH22 0x81A5B9D985B1A59081D9BDD1A5B99C81C195C9A5BD9 PUSH1 0x52 SHL PUSH1 0x20 DUP3 ADD MSTORE PUSH1 0x40 ADD SWAP3 SWAP2 POP POP JUMP JUMPDEST PUSH1 0x0 PUSH2 0x31E7 PUSH1 0x31 DUP4 PUSH2 0x42AF JUMP JUMPDEST PUSH32 0x476F7665726E6F72427261766F3A3A63617374566F7465496E7465726E616C3A DUP2 MSTORE PUSH17 0x81D9BDD1A5B99C81A5CC818DB1BDCD959 PUSH1 0x7A SHL PUSH1 0x20 DUP3 ADD MSTORE PUSH1 0x40 ADD SWAP3 SWAP2 POP POP JUMP JUMPDEST PUSH1 0x0 PUSH2 0x323A PUSH1 0x34 DUP4 PUSH2 0x42AF JUMP JUMPDEST PUSH32 0x476F7665726E6F72427261766F3A3A63617374566F7465496E7465726E616C3A DUP2 MSTORE PUSH20 0x81D9BDD195C88185B1C9958591E481D9BDD1959 PUSH1 0x62 SHL PUSH1 0x20 DUP3 ADD MSTORE PUSH1 0x40 ADD SWAP3 SWAP2 POP POP JUMP JUMPDEST PUSH1 0x0 PUSH2 0x3290 PUSH1 0x34 DUP4 PUSH2 0x42AF JUMP JUMPDEST PUSH32 0x476F7665726E6F72427261766F3A3A5F736574566F74696E6744656C61793A20 DUP2 MSTORE PUSH20 0x696E76616C696420766F74696E672064656C6179 PUSH1 0x60 SHL PUSH1 0x20 DUP3 ADD MSTORE PUSH1 0x40 ADD SWAP3 SWAP2 POP POP JUMP JUMPDEST PUSH1 0x0 PUSH2 0x32E6 PUSH1 0x35 DUP4 PUSH2 0x42AF JUMP JUMPDEST PUSH1 0x0 DUP1 MLOAD PUSH1 0x20 PUSH2 0x439D DUP4 CODECOPY DUP2 MLOAD SWAP2 MSTORE DUP2 MSTORE PUSH21 0x1A59081C1C9BDC1BDCD85B081D1A1C995CDA1BDB19 PUSH1 0x5A SHL PUSH1 0x20 DUP3 ADD MSTORE PUSH1 0x40 ADD SWAP3 SWAP2 POP POP JUMP JUMPDEST PUSH1 0x0 PUSH2 0x332B PUSH1 0x2B DUP4 PUSH2 0x42AF JUMP JUMPDEST PUSH32 0x476F7665726E6F72427261766F3A3A70726F706F73653A2050726F706F73616C DUP2 MSTORE PUSH11 0x24A21031B7B63639B4B7B7 PUSH1 0xA9 SHL PUSH1 0x20 DUP3 ADD MSTORE PUSH1 0x40 ADD SWAP3 SWAP2 POP POP JUMP JUMPDEST PUSH1 0x0 PUSH2 0x3378 PUSH1 0x45 DUP4 PUSH2 0x42AF JUMP JUMPDEST PUSH32 0x476F7665726E6F72427261766F3A3A657865637574653A2070726F706F73616C DUP2 MSTORE PUSH32 0x2063616E206F6E6C792062652065786563757465642069662069742069732071 PUSH1 0x20 DUP3 ADD MSTORE PUSH5 0x1D595D5959 PUSH1 0xDA SHL PUSH1 0x40 DUP3 ADD MSTORE PUSH1 0x60 ADD SWAP3 SWAP2 POP POP JUMP JUMPDEST PUSH1 0x0 PUSH2 0x33E5 PUSH1 0x2F DUP4 PUSH2 0x42AF JUMP JUMPDEST PUSH32 0x476F7665726E6F72427261766F3A3A63617374566F746542795369673A20696E DUP2 MSTORE PUSH15 0x76616C6964207369676E6174757265 PUSH1 0x88 SHL PUSH1 0x20 DUP3 ADD MSTORE PUSH1 0x40 ADD SWAP3 SWAP2 POP POP JUMP JUMPDEST PUSH1 0x0 PUSH2 0x3436 PUSH1 0x2F DUP4 PUSH2 0x42AF JUMP JUMPDEST PUSH1 0x0 DUP1 MLOAD PUSH1 0x20 PUSH2 0x439D DUP4 CODECOPY DUP2 MLOAD SWAP2 MSTORE DUP2 MSTORE PUSH15 0x696420766F74696E672064656C6179 PUSH1 0x88 SHL PUSH1 0x20 DUP3 ADD MSTORE PUSH1 0x40 ADD SWAP3 SWAP2 POP POP JUMP JUMPDEST PUSH1 0x0 PUSH2 0x3475 PUSH1 0x44 DUP4 PUSH2 0x42AF JUMP JUMPDEST PUSH32 0x476F7665726E6F72427261766F3A3A70726F706F73653A2070726F706F73616C DUP2 MSTORE PUSH32 0x2066756E6374696F6E20696E666F726D6174696F6E206172697479206D69736D PUSH1 0x20 DUP3 ADD MSTORE PUSH4 0xC2E8C6D PUSH1 0xE3 SHL PUSH1 0x40 DUP3 ADD MSTORE PUSH1 0x60 ADD SWAP3 SWAP2 POP POP JUMP JUMPDEST PUSH1 0x0 PUSH2 0x34E1 PUSH1 0x25 DUP4 PUSH2 0x42AF JUMP JUMPDEST PUSH32 0x476F7665726E6F72427261766F3A3A696E697469616C697A653A2061646D696E DUP2 MSTORE PUSH5 0x206F6E6C79 PUSH1 0xD8 SHL PUSH1 0x20 DUP3 ADD MSTORE PUSH1 0x40 ADD SWAP3 SWAP2 POP POP JUMP JUMPDEST PUSH1 0x0 PUSH2 0x3528 PUSH1 0x40 DUP4 PUSH2 0x42AF JUMP JUMPDEST PUSH32 0x476F7665726E6F72427261766F3A3A5F73657450726F706F73616C5468726573 DUP2 MSTORE PUSH32 0x686F6C643A20696E76616C69642070726F706F73616C207468726573686F6C64 PUSH1 0x20 DUP3 ADD MSTORE PUSH1 0x40 ADD SWAP3 SWAP2 POP POP JUMP JUMPDEST PUSH1 0x0 PUSH2 0x3587 PUSH1 0x44 DUP4 PUSH2 0x42AF JUMP JUMPDEST PUSH32 0x476F7665726E6F72427261766F3A3A71756575653A2070726F706F73616C2063 DUP2 MSTORE PUSH32 0x616E206F6E6C7920626520717565756564206966206974206973207375636365 PUSH1 0x20 DUP3 ADD MSTORE PUSH4 0x19591959 PUSH1 0xE2 SHL PUSH1 0x40 DUP3 ADD MSTORE PUSH1 0x60 ADD SWAP3 SWAP2 POP POP JUMP JUMPDEST PUSH1 0x0 PUSH2 0x35F3 PUSH1 0x11 DUP4 PUSH2 0x42AF JUMP JUMPDEST PUSH17 0x6164646974696F6E206F766572666C6F77 PUSH1 0x78 SHL DUP2 MSTORE PUSH1 0x20 ADD SWAP3 SWAP2 POP POP JUMP JUMPDEST PUSH1 0x0 PUSH2 0x3620 PUSH1 0x43 DUP4 PUSH2 0xF97 JUMP JUMPDEST PUSH32 0x454950373132446F6D61696E28737472696E67206E616D652C75696E74323536 DUP2 MSTORE PUSH32 0x20636861696E49642C6164647265737320766572696679696E67436F6E747261 PUSH1 0x20 DUP3 ADD MSTORE PUSH3 0x637429 PUSH1 0xE8 SHL PUSH1 0x40 DUP3 ADD MSTORE PUSH1 0x43 ADD SWAP3 SWAP2 POP POP JUMP JUMPDEST PUSH1 0x0 PUSH2 0x368B PUSH1 0x30 DUP4 PUSH2 0x42AF JUMP JUMPDEST PUSH32 0x476F7665726E6F72427261766F3A3A5F696E6974696174653A2063616E206F6E DUP2 MSTORE PUSH16 0x6C7920696E697469617465206F6E6365 PUSH1 0x80 SHL PUSH1 0x20 DUP3 ADD MSTORE PUSH1 0x40 ADD SWAP3 SWAP2 POP POP JUMP JUMPDEST PUSH1 0x0 PUSH2 0x36DD PUSH1 0x2C DUP4 PUSH2 0x42AF JUMP JUMPDEST PUSH32 0x476F7665726E6F72427261766F3A3A70726F706F73653A206D7573742070726F DUP2 MSTORE PUSH12 0x7669646520616374696F6E73 PUSH1 0xA0 SHL PUSH1 0x20 DUP3 ADD MSTORE PUSH1 0x40 ADD SWAP3 SWAP2 POP POP JUMP JUMPDEST PUSH1 0x0 PUSH2 0x372B PUSH1 0x2E DUP4 PUSH2 0x42AF JUMP JUMPDEST PUSH32 0x476F7665726E6F72427261766F3A5F61636365707441646D696E3A2070656E64 DUP2 MSTORE PUSH14 0x696E672061646D696E206F6E6C79 PUSH1 0x90 SHL PUSH1 0x20 DUP3 ADD MSTORE PUSH1 0x40 ADD SWAP3 SWAP2 POP POP JUMP JUMPDEST PUSH1 0x0 PUSH2 0x377B PUSH1 0x2F DUP4 PUSH2 0x42AF JUMP JUMPDEST PUSH1 0x0 DUP1 MLOAD PUSH1 0x20 PUSH2 0x439D DUP4 CODECOPY DUP2 MLOAD SWAP2 MSTORE DUP2 MSTORE PUSH15 0x696420636F6D702061646472657373 PUSH1 0x88 SHL PUSH1 0x20 DUP3 ADD MSTORE PUSH1 0x40 ADD SWAP3 SWAP2 POP POP JUMP JUMPDEST PUSH1 0x0 PUSH2 0x37BA PUSH1 0x2F DUP4 PUSH2 0x42AF JUMP JUMPDEST PUSH32 0x476F7665726E6F72427261766F3A3A63616E63656C3A2070726F706F73657220 DUP2 MSTORE PUSH15 0x18589BDD99481D1A1C995CDA1BDB19 PUSH1 0x8A SHL PUSH1 0x20 DUP3 ADD MSTORE PUSH1 0x40 ADD SWAP3 SWAP2 POP POP JUMP JUMPDEST PUSH1 0x0 PUSH2 0x380B PUSH1 0x28 DUP4 PUSH2 0x42AF JUMP JUMPDEST PUSH32 0x476F7665726E6F72427261766F3A3A70726F706F73653A20746F6F206D616E79 DUP2 MSTORE PUSH8 0x20616374696F6E73 PUSH1 0xC0 SHL PUSH1 0x20 DUP3 ADD MSTORE PUSH1 0x40 ADD SWAP3 SWAP2 POP POP JUMP JUMPDEST PUSH1 0x0 PUSH2 0x3855 PUSH1 0x59 DUP4 PUSH2 0x42AF JUMP JUMPDEST PUSH32 0x476F7665726E6F72427261766F3A3A70726F706F73653A206F6E65206C697665 DUP2 MSTORE PUSH32 0x2070726F706F73616C207065722070726F706F7365722C20666F756E6420616E PUSH1 0x20 DUP3 ADD MSTORE PUSH32 0x20616C72656164792070656E64696E672070726F706F73616C00000000000000 PUSH1 0x40 DUP3 ADD MSTORE PUSH1 0x60 ADD SWAP3 SWAP2 POP POP JUMP JUMPDEST PUSH1 0x0 PUSH2 0x38DA PUSH1 0x58 DUP4 PUSH2 0x42AF JUMP JUMPDEST PUSH32 0x476F7665726E6F72427261766F3A3A70726F706F73653A206F6E65206C697665 DUP2 MSTORE PUSH32 0x2070726F706F73616C207065722070726F706F7365722C20666F756E6420616E PUSH1 0x20 DUP3 ADD MSTORE PUSH32 0x20616C7265616479206163746976652070726F706F73616C0000000000000000 PUSH1 0x40 DUP3 ADD MSTORE PUSH1 0x60 ADD SWAP3 SWAP2 POP POP JUMP JUMPDEST PUSH1 0x0 PUSH2 0x1B69 PUSH1 0x0 DUP4 PUSH2 0x42AF JUMP JUMPDEST PUSH1 0x0 PUSH2 0x396C PUSH1 0x24 DUP4 PUSH2 0x42AF JUMP JUMPDEST PUSH32 0x476F7665726E6F72427261766F3A3A5F696E6974696174653A2061646D696E20 DUP2 MSTORE PUSH4 0x6F6E6C79 PUSH1 0xE0 SHL PUSH1 0x20 DUP3 ADD MSTORE PUSH1 0x40 ADD SWAP3 SWAP2 POP POP JUMP JUMPDEST PUSH1 0x0 PUSH2 0x39B2 PUSH1 0x3F DUP4 PUSH2 0x42AF JUMP JUMPDEST PUSH32 0x476F7665726E6F72427261766F3A3A70726F706F73653A2070726F706F736572 DUP2 MSTORE PUSH32 0x20766F7465732062656C6F772070726F706F73616C207468726573686F6C6400 PUSH1 0x20 DUP3 ADD MSTORE PUSH1 0x40 ADD SWAP3 SWAP2 POP POP JUMP JUMPDEST PUSH1 0x0 PUSH2 0x3A11 PUSH1 0x36 DUP4 PUSH2 0x42AF JUMP JUMPDEST PUSH32 0x476F7665726E6F72427261766F3A3A63616E63656C3A2063616E6E6F74206361 DUP2 MSTORE PUSH22 0x1B98D95B08195E1958DD5D1959081C1C9BDC1BDCD85B PUSH1 0x52 SHL PUSH1 0x20 DUP3 ADD MSTORE PUSH1 0x40 ADD SWAP3 SWAP2 POP POP JUMP JUMPDEST PUSH1 0x0 PUSH2 0x3A69 PUSH1 0x30 DUP4 PUSH2 0x42AF JUMP JUMPDEST PUSH32 0x476F7665726E6F72427261766F3A3A5F73657450726F706F73616C5468726573 DUP2 MSTORE PUSH16 0x686F6C643A2061646D696E206F6E6C79 PUSH1 0x80 SHL PUSH1 0x20 DUP3 ADD MSTORE PUSH1 0x40 ADD SWAP3 SWAP2 POP POP JUMP JUMPDEST PUSH1 0x0 PUSH2 0x3ABB PUSH1 0x29 DUP4 PUSH2 0x42AF JUMP JUMPDEST PUSH32 0x476F7665726E6F72427261766F3A3A73746174653A20696E76616C6964207072 DUP2 MSTORE PUSH9 0x1BDC1BDCD85B081A59 PUSH1 0xBA SHL PUSH1 0x20 DUP3 ADD MSTORE PUSH1 0x40 ADD SWAP3 SWAP2 POP POP JUMP JUMPDEST PUSH1 0x0 PUSH2 0x3B06 PUSH1 0x30 DUP4 PUSH2 0x42AF JUMP JUMPDEST PUSH1 0x0 DUP1 MLOAD PUSH1 0x20 PUSH2 0x439D DUP4 CODECOPY DUP2 MLOAD SWAP2 MSTORE DUP2 MSTORE PUSH16 0x1A59081D9BDD1A5B99C81C195C9A5BD9 PUSH1 0x82 SHL PUSH1 0x20 DUP3 ADD MSTORE PUSH1 0x40 ADD SWAP3 SWAP2 POP POP JUMP JUMPDEST PUSH1 0x0 PUSH2 0x3B46 PUSH1 0x15 DUP4 PUSH2 0x42AF JUMP JUMPDEST PUSH21 0x7375627472616374696F6E20756E646572666C6F77 PUSH1 0x58 SHL DUP2 MSTORE PUSH1 0x20 ADD SWAP3 SWAP2 POP POP JUMP JUMPDEST DUP1 MLOAD PUSH1 0x60 DUP4 ADD SWAP1 PUSH2 0x3B7B DUP5 DUP3 PUSH2 0x2D60 JUMP JUMPDEST POP PUSH1 0x20 DUP3 ADD MLOAD PUSH2 0x3B8E PUSH1 0x20 DUP6 ADD DUP3 PUSH2 0x3BA7 JUMP JUMPDEST POP PUSH1 0x40 DUP3 ADD MLOAD PUSH2 0x3BA1 PUSH1 0x40 DUP6 ADD DUP3 PUSH2 0x3BB9 JUMP JUMPDEST POP POP POP POP JUMP JUMPDEST PUSH2 0x2BDB DUP2 PUSH2 0x42DE JUMP JUMPDEST PUSH2 0x2BDB DUP2 PUSH2 0x430D JUMP JUMPDEST PUSH2 0x2BDB DUP2 PUSH2 0x42E4 JUMP JUMPDEST PUSH1 0x0 PUSH2 0x1B69 DUP3 PUSH2 0x2ECD JUMP JUMPDEST PUSH1 0x0 PUSH2 0x3BD8 DUP3 PUSH2 0x3164 JUMP JUMPDEST SWAP2 POP PUSH2 0x3BE4 DUP3 DUP6 PUSH2 0x2D72 JUMP JUMPDEST PUSH1 0x20 DUP3 ADD SWAP2 POP PUSH2 0x3BF4 DUP3 DUP5 PUSH2 0x2D72 JUMP JUMPDEST POP PUSH1 0x20 ADD SWAP3 SWAP2 POP POP JUMP JUMPDEST PUSH1 0x0 PUSH2 0x1B69 DUP3 PUSH2 0x3613 JUMP JUMPDEST PUSH1 0x20 DUP2 ADD PUSH2 0x1B69 DUP3 DUP5 PUSH2 0x2BE1 JUMP JUMPDEST PUSH1 0x40 DUP2 ADD PUSH2 0x3C25 DUP3 DUP6 PUSH2 0x2BD2 JUMP JUMPDEST PUSH2 0x2135 PUSH1 0x20 DUP4 ADD DUP5 PUSH2 0x2D69 JUMP JUMPDEST PUSH1 0x40 DUP2 ADD PUSH2 0x3C40 DUP3 DUP6 PUSH2 0x2BE1 JUMP JUMPDEST PUSH2 0x2135 PUSH1 0x20 DUP4 ADD DUP5 PUSH2 0x2BE1 JUMP JUMPDEST PUSH1 0x40 DUP2 ADD PUSH2 0x3C25 DUP3 DUP6 PUSH2 0x2BE1 JUMP JUMPDEST PUSH1 0xA0 DUP2 ADD PUSH2 0x3C69 DUP3 DUP9 PUSH2 0x2BE1 JUMP JUMPDEST PUSH2 0x3C76 PUSH1 0x20 DUP4 ADD DUP8 PUSH2 0x2D69 JUMP JUMPDEST DUP2 DUP2 SUB PUSH1 0x40 DUP4 ADD MSTORE PUSH2 0x3C88 DUP2 DUP7 PUSH2 0x2D83 JUMP JUMPDEST SWAP1 POP DUP2 DUP2 SUB PUSH1 0x60 DUP4 ADD MSTORE PUSH2 0x3C9C DUP2 DUP6 PUSH2 0x2D83 JUMP JUMPDEST SWAP1 POP PUSH2 0x3CAB PUSH1 0x80 DUP4 ADD DUP5 PUSH2 0x2D69 JUMP JUMPDEST SWAP7 SWAP6 POP POP POP POP POP POP JUMP JUMPDEST PUSH1 0xA0 DUP2 ADD PUSH2 0x3CC3 DUP3 DUP9 PUSH2 0x2BE1 JUMP JUMPDEST PUSH2 0x3CD0 PUSH1 0x20 DUP4 ADD DUP8 PUSH2 0x2D69 JUMP JUMPDEST DUP2 DUP2 SUB PUSH1 0x40 DUP4 ADD MSTORE PUSH2 0x3CE2 DUP2 DUP7 PUSH2 0x2DBB JUMP JUMPDEST SWAP1 POP DUP2 DUP2 SUB PUSH1 0x60 DUP4 ADD MSTORE PUSH2 0x3C9C DUP2 DUP6 PUSH2 0x2DBB JUMP JUMPDEST PUSH1 0x80 DUP1 DUP3 MSTORE DUP2 ADD PUSH2 0x3D07 DUP2 DUP8 PUSH2 0x2BEA JUMP JUMPDEST SWAP1 POP DUP2 DUP2 SUB PUSH1 0x20 DUP4 ADD MSTORE PUSH2 0x3D1B DUP2 DUP7 PUSH2 0x2D12 JUMP JUMPDEST SWAP1 POP DUP2 DUP2 SUB PUSH1 0x40 DUP4 ADD MSTORE PUSH2 0x3D2F DUP2 DUP6 PUSH2 0x2CB1 JUMP JUMPDEST SWAP1 POP DUP2 DUP2 SUB PUSH1 0x60 DUP4 ADD MSTORE PUSH2 0x3CAB DUP2 DUP5 PUSH2 0x2C43 JUMP JUMPDEST PUSH1 0x20 DUP2 ADD PUSH2 0x1B69 DUP3 DUP5 PUSH2 0x2D69 JUMP JUMPDEST PUSH1 0x80 DUP2 ADD PUSH2 0x3D5F DUP3 DUP8 PUSH2 0x2D69 JUMP JUMPDEST PUSH2 0x3D6C PUSH1 0x20 DUP4 ADD DUP7 PUSH2 0x2D69 JUMP JUMPDEST PUSH2 0x3D79 PUSH1 0x40 DUP4 ADD DUP6 PUSH2 0x2D69 JUMP JUMPDEST PUSH2 0x1871 PUSH1 0x60 DUP4 ADD DUP5 PUSH2 0x2BE1 JUMP JUMPDEST PUSH1 0x60 DUP2 ADD PUSH2 0x3D94 DUP3 DUP7 PUSH2 0x2D69 JUMP JUMPDEST PUSH2 0x3DA1 PUSH1 0x20 DUP4 ADD DUP6 PUSH2 0x2D69 JUMP JUMPDEST PUSH2 0x2885 PUSH1 0x40 DUP4 ADD DUP5 PUSH2 0x3BA7 JUMP JUMPDEST PUSH1 0x80 DUP2 ADD PUSH2 0x3DBC DUP3 DUP8 PUSH2 0x2D69 JUMP JUMPDEST PUSH2 0x3DC9 PUSH1 0x20 DUP4 ADD DUP7 PUSH2 0x3BA7 JUMP JUMPDEST PUSH2 0x3DD6 PUSH1 0x40 DUP4 ADD DUP6 PUSH2 0x2D69 JUMP JUMPDEST PUSH2 0x1871 PUSH1 0x60 DUP4 ADD DUP5 PUSH2 0x2D69 JUMP JUMPDEST PUSH1 0x20 DUP2 ADD PUSH2 0x1B69 DUP3 DUP5 PUSH2 0x2E45 JUMP JUMPDEST PUSH1 0x20 DUP2 ADD PUSH2 0x1B69 DUP3 DUP5 PUSH2 0x2E4E JUMP JUMPDEST PUSH1 0x20 DUP1 DUP3 MSTORE DUP2 ADD PUSH2 0x2135 DUP2 DUP5 PUSH2 0x2D83 JUMP JUMPDEST PUSH1 0x20 DUP1 DUP3 MSTORE DUP2 ADD PUSH2 0x1B69 DUP2 PUSH2 0x2E79 JUMP JUMPDEST PUSH1 0x20 DUP1 DUP3 MSTORE DUP2 ADD PUSH2 0x1B69 DUP2 PUSH2 0x2F17 JUMP JUMPDEST PUSH1 0x20 DUP1 DUP3 MSTORE DUP2 ADD PUSH2 0x1B69 DUP2 PUSH2 0x2F6C JUMP JUMPDEST PUSH1 0x20 DUP1 DUP3 MSTORE DUP2 ADD PUSH2 0x1B69 DUP2 PUSH2 0x2FB8 JUMP JUMPDEST PUSH1 0x20 DUP1 DUP3 MSTORE DUP2 ADD PUSH2 0x1B69 DUP2 PUSH2 0x3035 JUMP JUMPDEST PUSH1 0x20 DUP1 DUP3 MSTORE DUP2 ADD PUSH2 0x1B69 DUP2 PUSH2 0x3082 JUMP JUMPDEST PUSH1 0x20 DUP1 DUP3 MSTORE DUP2 ADD PUSH2 0x1B69 DUP2 PUSH2 0x30C5 JUMP JUMPDEST PUSH1 0x20 DUP1 DUP3 MSTORE DUP2 ADD PUSH2 0x1B69 DUP2 PUSH2 0x3111 JUMP JUMPDEST PUSH1 0x20 DUP1 DUP3 MSTORE DUP2 ADD PUSH2 0x1B69 DUP2 PUSH2 0x3182 JUMP JUMPDEST PUSH1 0x20 DUP1 DUP3 MSTORE DUP2 ADD PUSH2 0x1B69 DUP2 PUSH2 0x31DA JUMP JUMPDEST PUSH1 0x20 DUP1 DUP3 MSTORE DUP2 ADD PUSH2 0x1B69 DUP2 PUSH2 0x322D JUMP JUMPDEST PUSH1 0x20 DUP1 DUP3 MSTORE DUP2 ADD PUSH2 0x1B69 DUP2 PUSH2 0x3283 JUMP JUMPDEST PUSH1 0x20 DUP1 DUP3 MSTORE DUP2 ADD PUSH2 0x1B69 DUP2 PUSH2 0x32D9 JUMP JUMPDEST PUSH1 0x20 DUP1 DUP3 MSTORE DUP2 ADD PUSH2 0x1B69 DUP2 PUSH2 0x331E JUMP JUMPDEST PUSH1 0x20 DUP1 DUP3 MSTORE DUP2 ADD PUSH2 0x1B69 DUP2 PUSH2 0x336B JUMP JUMPDEST PUSH1 0x20 DUP1 DUP3 MSTORE DUP2 ADD PUSH2 0x1B69 DUP2 PUSH2 0x33D8 JUMP JUMPDEST PUSH1 0x20 DUP1 DUP3 MSTORE DUP2 ADD PUSH2 0x1B69 DUP2 PUSH2 0x3429 JUMP JUMPDEST PUSH1 0x20 DUP1 DUP3 MSTORE DUP2 ADD PUSH2 0x1B69 DUP2 PUSH2 0x3468 JUMP JUMPDEST PUSH1 0x20 DUP1 DUP3 MSTORE DUP2 ADD PUSH2 0x1B69 DUP2 PUSH2 0x34D4 JUMP JUMPDEST PUSH1 0x20 DUP1 DUP3 MSTORE DUP2 ADD PUSH2 0x1B69 DUP2 PUSH2 0x351B JUMP JUMPDEST PUSH1 0x20 DUP1 DUP3 MSTORE DUP2 ADD PUSH2 0x1B69 DUP2 PUSH2 0x357A JUMP JUMPDEST PUSH1 0x20 DUP1 DUP3 MSTORE DUP2 ADD PUSH2 0x1B69 DUP2 PUSH2 0x35E6 JUMP JUMPDEST PUSH1 0x20 DUP1 DUP3 MSTORE DUP2 ADD PUSH2 0x1B69 DUP2 PUSH2 0x367E JUMP JUMPDEST PUSH1 0x20 DUP1 DUP3 MSTORE DUP2 ADD PUSH2 0x1B69 DUP2 PUSH2 0x36D0 JUMP JUMPDEST PUSH1 0x20 DUP1 DUP3 MSTORE DUP2 ADD PUSH2 0x1B69 DUP2 PUSH2 0x371E JUMP JUMPDEST PUSH1 0x20 DUP1 DUP3 MSTORE DUP2 ADD PUSH2 0x1B69 DUP2 PUSH2 0x376E JUMP JUMPDEST PUSH1 0x20 DUP1 DUP3 MSTORE DUP2 ADD PUSH2 0x1B69 DUP2 PUSH2 0x37AD JUMP JUMPDEST PUSH1 0x20 DUP1 DUP3 MSTORE DUP2 ADD PUSH2 0x1B69 DUP2 PUSH2 0x37FE JUMP JUMPDEST PUSH1 0x20 DUP1 DUP3 MSTORE DUP2 ADD PUSH2 0x1B69 DUP2 PUSH2 0x3848 JUMP JUMPDEST PUSH1 0x20 DUP1 DUP3 MSTORE DUP2 ADD PUSH2 0x1B69 DUP2 PUSH2 0x38CD JUMP JUMPDEST PUSH1 0x20 DUP1 DUP3 MSTORE DUP2 ADD PUSH2 0x1B69 DUP2 PUSH2 0x395F JUMP JUMPDEST PUSH1 0x20 DUP1 DUP3 MSTORE DUP2 ADD PUSH2 0x1B69 DUP2 PUSH2 0x39A5 JUMP JUMPDEST PUSH1 0x20 DUP1 DUP3 MSTORE DUP2 ADD PUSH2 0x1B69 DUP2 PUSH2 0x3A04 JUMP JUMPDEST PUSH1 0x20 DUP1 DUP3 MSTORE DUP2 ADD PUSH2 0x1B69 DUP2 PUSH2 0x3A5C JUMP JUMPDEST PUSH1 0x20 DUP1 DUP3 MSTORE DUP2 ADD PUSH2 0x1B69 DUP2 PUSH2 0x3AAE JUMP JUMPDEST PUSH1 0x20 DUP1 DUP3 MSTORE DUP2 ADD PUSH2 0x1B69 DUP2 PUSH2 0x3AF9 JUMP JUMPDEST PUSH1 0x20 DUP1 DUP3 MSTORE DUP2 ADD PUSH2 0x1B69 DUP2 PUSH2 0x3B39 JUMP JUMPDEST PUSH1 0x60 DUP2 ADD PUSH2 0x1B69 DUP3 DUP5 PUSH2 0x3B6A JUMP JUMPDEST PUSH2 0x120 DUP2 ADD PUSH2 0x407D DUP3 DUP13 PUSH2 0x2D69 JUMP JUMPDEST PUSH2 0x408A PUSH1 0x20 DUP4 ADD DUP12 PUSH2 0x2BD2 JUMP JUMPDEST DUP2 DUP2 SUB PUSH1 0x40 DUP4 ADD MSTORE PUSH2 0x409C DUP2 DUP11 PUSH2 0x2BEA JUMP JUMPDEST SWAP1 POP DUP2 DUP2 SUB PUSH1 0x60 DUP4 ADD MSTORE PUSH2 0x40B0 DUP2 DUP10 PUSH2 0x2D12 JUMP JUMPDEST SWAP1 POP DUP2 DUP2 SUB PUSH1 0x80 DUP4 ADD MSTORE PUSH2 0x40C4 DUP2 DUP9 PUSH2 0x2CB1 JUMP JUMPDEST SWAP1 POP DUP2 DUP2 SUB PUSH1 0xA0 DUP4 ADD MSTORE PUSH2 0x40D8 DUP2 DUP8 PUSH2 0x2C43 JUMP JUMPDEST SWAP1 POP PUSH2 0x40E7 PUSH1 0xC0 DUP4 ADD DUP7 PUSH2 0x2D69 JUMP JUMPDEST PUSH2 0x40F4 PUSH1 0xE0 DUP4 ADD DUP6 PUSH2 0x2D69 JUMP JUMPDEST DUP2 DUP2 SUB PUSH2 0x100 DUP4 ADD MSTORE PUSH2 0x4107 DUP2 DUP5 PUSH2 0x2D83 JUMP JUMPDEST SWAP12 SWAP11 POP POP POP POP POP POP POP POP POP POP POP JUMP JUMPDEST PUSH2 0x140 DUP2 ADD PUSH2 0x4125 DUP3 DUP14 PUSH2 0x2D69 JUMP JUMPDEST PUSH2 0x4132 PUSH1 0x20 DUP4 ADD DUP13 PUSH2 0x2BE1 JUMP JUMPDEST PUSH2 0x413F PUSH1 0x40 DUP4 ADD DUP12 PUSH2 0x2D69 JUMP JUMPDEST PUSH2 0x414C PUSH1 0x60 DUP4 ADD DUP11 PUSH2 0x2D69 JUMP JUMPDEST PUSH2 0x4159 PUSH1 0x80 DUP4 ADD DUP10 PUSH2 0x2D69 JUMP JUMPDEST PUSH2 0x4166 PUSH1 0xA0 DUP4 ADD DUP9 PUSH2 0x2D69 JUMP JUMPDEST PUSH2 0x4173 PUSH1 0xC0 DUP4 ADD DUP8 PUSH2 0x2D69 JUMP JUMPDEST PUSH2 0x4180 PUSH1 0xE0 DUP4 ADD DUP7 PUSH2 0x2D69 JUMP JUMPDEST PUSH2 0x418E PUSH2 0x100 DUP4 ADD DUP6 PUSH2 0x2D60 JUMP JUMPDEST PUSH2 0x4107 PUSH2 0x120 DUP4 ADD DUP5 PUSH2 0x2D60 JUMP JUMPDEST PUSH1 0x40 DUP2 ADD PUSH2 0x3C25 DUP3 DUP6 PUSH2 0x2D69 JUMP JUMPDEST PUSH1 0x80 DUP2 ADD PUSH2 0x41B8 DUP3 DUP9 PUSH2 0x2D69 JUMP JUMPDEST PUSH2 0x41C5 PUSH1 0x20 DUP4 ADD DUP8 PUSH2 0x3BA7 JUMP JUMPDEST PUSH2 0x41D2 PUSH1 0x40 DUP4 ADD DUP7 PUSH2 0x3BB0 JUMP JUMPDEST DUP2 DUP2 SUB PUSH1 0x60 DUP4 ADD MSTORE PUSH2 0x41E5 DUP2 DUP5 DUP7 PUSH2 0x2E57 JUMP JUMPDEST SWAP8 SWAP7 POP POP POP POP POP POP POP JUMP JUMPDEST PUSH1 0x80 DUP2 ADD PUSH2 0x41FE DUP3 DUP7 PUSH2 0x2D69 JUMP JUMPDEST PUSH2 0x420B PUSH1 0x20 DUP4 ADD DUP6 PUSH2 0x3BA7 JUMP JUMPDEST PUSH2 0x4218 PUSH1 0x40 DUP4 ADD DUP5 PUSH2 0x3BB0 JUMP JUMPDEST DUP2 DUP2 SUB PUSH1 0x60 DUP4 ADD MSTORE PUSH2 0x1871 DUP2 PUSH2 0x3952 JUMP JUMPDEST PUSH1 0x40 MLOAD DUP2 DUP2 ADD PUSH8 0xFFFFFFFFFFFFFFFF DUP2 GT DUP3 DUP3 LT OR ISZERO PUSH2 0x4248 JUMPI PUSH1 0x0 DUP1 REVERT JUMPDEST PUSH1 0x40 MSTORE SWAP2 SWAP1 POP JUMP JUMPDEST PUSH1 0x0 PUSH8 0xFFFFFFFFFFFFFFFF DUP3 GT ISZERO PUSH2 0x4267 JUMPI PUSH1 0x0 DUP1 REVERT JUMPDEST POP PUSH1 0x20 SWAP1 DUP2 MUL ADD SWAP1 JUMP JUMPDEST PUSH1 0x0 PUSH8 0xFFFFFFFFFFFFFFFF DUP3 GT ISZERO PUSH2 0x4288 JUMPI PUSH1 0x0 DUP1 REVERT JUMPDEST POP PUSH1 0x20 PUSH1 0x1F SWAP2 SWAP1 SWAP2 ADD PUSH1 0x1F NOT AND ADD SWAP1 JUMP JUMPDEST PUSH1 0x20 ADD SWAP1 JUMP JUMPDEST PUSH1 0x0 SWAP1 DUP2 MSTORE PUSH1 0x20 SWAP1 KECCAK256 SWAP1 JUMP JUMPDEST MLOAD SWAP1 JUMP JUMPDEST SWAP1 DUP2 MSTORE PUSH1 0x20 ADD SWAP1 JUMP JUMPDEST PUSH1 0x0 PUSH2 0x1B69 DUP3 PUSH2 0x42D2 JUMP JUMPDEST ISZERO ISZERO SWAP1 JUMP JUMPDEST DUP1 PUSH2 0xF97 DUP2 PUSH2 0x435A JUMP JUMPDEST PUSH1 0x1 PUSH1 0x1 PUSH1 0xA0 SHL SUB AND SWAP1 JUMP JUMPDEST PUSH1 0xFF AND SWAP1 JUMP JUMPDEST PUSH1 0x1 PUSH1 0x1 PUSH1 0x60 SHL SUB AND SWAP1 JUMP JUMPDEST PUSH1 0x0 PUSH2 0x1B69 DUP3 JUMPDEST PUSH1 0x0 PUSH2 0x1B69 DUP3 PUSH2 0x42B8 JUMP JUMPDEST PUSH1 0x0 PUSH2 0x1B69 DUP3 PUSH2 0x42C8 JUMP JUMPDEST PUSH1 0x0 PUSH2 0x1B69 DUP3 PUSH2 0x42E4 JUMP JUMPDEST DUP3 DUP2 DUP4 CALLDATACOPY POP PUSH1 0x0 SWAP2 ADD MSTORE JUMP JUMPDEST PUSH1 0x0 JUMPDEST DUP4 DUP2 LT ISZERO PUSH2 0x433F JUMPI DUP2 DUP2 ADD MLOAD DUP4 DUP3 ADD MSTORE PUSH1 0x20 ADD PUSH2 0x4327 JUMP JUMPDEST DUP4 DUP2 GT ISZERO PUSH2 0x3BA1 JUMPI POP POP PUSH1 0x0 SWAP2 ADD MSTORE JUMP JUMPDEST PUSH1 0x1F ADD PUSH1 0x1F NOT AND SWAP1 JUMP JUMPDEST PUSH1 0x8 DUP2 LT PUSH2 0x259B JUMPI INVALID JUMPDEST PUSH2 0x436D DUP2 PUSH2 0x42B8 JUMP JUMPDEST DUP2 EQ PUSH2 0x259B JUMPI PUSH1 0x0 DUP1 REVERT JUMPDEST PUSH2 0x436D DUP2 PUSH2 0x42C3 JUMP JUMPDEST PUSH2 0x436D DUP2 PUSH2 0x1F48 JUMP JUMPDEST PUSH2 0x436D DUP2 PUSH2 0x42DE JUMP JUMPDEST PUSH2 0x436D DUP2 PUSH2 0x42E4 JUMP INVALID SELFBALANCE PUSH16 0x7665726E6F72427261766F3A3A696E69 PUSH21 0x69616C697A653A20696E76616CA365627A7A723158 KECCAK256 0xC2 0x49 LT 0xDE 0xED 0xCE 0xC1 MOD COINBASE PUSH3 0xEFE22D STATICCALL MOD 0xC8 0xD8 DUP4 0xDA POP SDIV DELEGATECALL 0x5C DUP3 SWAP5 SLOAD ADDRESS 0xB3 SWAP11 0xE5 EXP CALLCODE PUSH13 0x6578706572696D656E74616CF5 PUSH5 0x736F6C6343 STOP SDIV LT STOP BLOCKHASH "},"gasEstimates":{"creation":{"codeDepositCost":"3481400","executionCost":"3893","totalCost":"3485293"},"external":{"BALLOT_TYPEHASH()":"infinite","DOMAIN_TYPEHASH()":"infinite","MAX_PROPOSAL_THRESHOLD()":"367","MAX_VOTING_DELAY()":"433","MAX_VOTING_PERIOD()":"411","MIN_PROPOSAL_THRESHOLD()":"345","MIN_VOTING_DELAY()":"432","MIN_VOTING_PERIOD()":"433","_acceptAdmin()":"infinite","_initiate(address)":"infinite","_setPendingAdmin(address)":"infinite","_setProposalThreshold(uint256)":"infinite","_setVotingDelay(uint256)":"infinite","_setVotingPeriod(uint256)":"infinite","admin()":"infinite","cancel(uint256)":"infinite","castVote(uint256,uint8)":"infinite","castVoteBySig(uint256,uint8,uint8,bytes32,bytes32)":"infinite","castVoteWithReason(uint256,uint8,string)":"infinite","comp()":"infinite","execute(uint256)":"infinite","getActions(uint256)":"infinite","getReceipt(uint256,address)":"infinite","implementation()":"infinite","initialProposalId()":"1209","initialize(address,address,uint256,uint256,uint256)":"infinite","latestProposalIds(address)":"infinite","name()":"infinite","pendingAdmin()":"infinite","proposalCount()":"1232","proposalMaxOperations()":"389","proposalThreshold()":"1144","proposals(uint256)":"infinite","propose(address[],uint256[],string[],bytes[],string)":"infinite","queue(uint256)":"infinite","quorumVotes()":"345","state(uint256)":"infinite","timelock()":"infinite","votingDelay()":"1233","votingPeriod()":"1168"},"internal":{"add256(uint256,uint256)":"infinite","castVoteInternal(address,uint256,uint8)":"infinite","getChainIdInternal()":"15","queueOrRevertInternal(address,uint256,string memory,bytes memory,uint256)":"infinite","sub256(uint256,uint256)":"infinite"}},"methodIdentifiers":{"BALLOT_TYPEHASH()":"deaaa7cc","DOMAIN_TYPEHASH()":"20606b70","MAX_PROPOSAL_THRESHOLD()":"25fd935a","MAX_VOTING_DELAY()":"b1126263","MAX_VOTING_PERIOD()":"a64e024a","MIN_PROPOSAL_THRESHOLD()":"791f5d23","MIN_VOTING_DELAY()":"e48083fe","MIN_VOTING_PERIOD()":"215809ca","_acceptAdmin()":"e9c714f2","_initiate(address)":"f9d28b80","_setPendingAdmin(address)":"b71d1a0c","_setProposalThreshold(uint256)":"17ba1b8b","_setVotingDelay(uint256)":"1dfb1b5a","_setVotingPeriod(uint256)":"0ea2d98c","admin()":"f851a440","cancel(uint256)":"40e58ee5","castVote(uint256,uint8)":"56781388","castVoteBySig(uint256,uint8,uint8,bytes32,bytes32)":"3bccf4fd","castVoteWithReason(uint256,uint8,string)":"7b3c71d3","comp()":"109d0af8","execute(uint256)":"fe0d94c1","getActions(uint256)":"328dd982","getReceipt(uint256,address)":"e23a9a52","implementation()":"5c60da1b","initialProposalId()":"fc4eee42","initialize(address,address,uint256,uint256,uint256)":"d13f90b4","latestProposalIds(address)":"17977c61","name()":"06fdde03","pendingAdmin()":"26782247","proposalCount()":"da35c664","proposalMaxOperations()":"7bdbe4d0","proposalThreshold()":"b58131b0","proposals(uint256)":"013cf08b","propose(address[],uint256[],string[],bytes[],string)":"da95691a","queue(uint256)":"ddf0b009","quorumVotes()":"24bc1a64","state(uint256)":"3e4f49e6","timelock()":"d33219b4","votingDelay()":"3932abb1","votingPeriod()":"02a251a3"}},"storageLayout":{"storage":[{"astId":4540,"contract":"contracts/Governance/GovernorBravoDelegateG1.sol:GovernorBravoDelegate","label":"admin","offset":0,"slot":"0","type":"t_address"},{"astId":4542,"contract":"contracts/Governance/GovernorBravoDelegateG1.sol:GovernorBravoDelegate","label":"pendingAdmin","offset":0,"slot":"1","type":"t_address"},{"astId":4544,"contract":"contracts/Governance/GovernorBravoDelegateG1.sol:GovernorBravoDelegate","label":"implementation","offset":0,"slot":"2","type":"t_address"},{"astId":4549,"contract":"contracts/Governance/GovernorBravoDelegateG1.sol:GovernorBravoDelegate","label":"votingDelay","offset":0,"slot":"3","type":"t_uint256"},{"astId":4551,"contract":"contracts/Governance/GovernorBravoDelegateG1.sol:GovernorBravoDelegate","label":"votingPeriod","offset":0,"slot":"4","type":"t_uint256"},{"astId":4553,"contract":"contracts/Governance/GovernorBravoDelegateG1.sol:GovernorBravoDelegate","label":"proposalThreshold","offset":0,"slot":"5","type":"t_uint256"},{"astId":4555,"contract":"contracts/Governance/GovernorBravoDelegateG1.sol:GovernorBravoDelegate","label":"initialProposalId","offset":0,"slot":"6","type":"t_uint256"},{"astId":4557,"contract":"contracts/Governance/GovernorBravoDelegateG1.sol:GovernorBravoDelegate","label":"proposalCount","offset":0,"slot":"7","type":"t_uint256"},{"astId":4559,"contract":"contracts/Governance/GovernorBravoDelegateG1.sol:GovernorBravoDelegate","label":"timelock","offset":0,"slot":"8","type":"t_contract(TimelockInterface)4696"},{"astId":4561,"contract":"contracts/Governance/GovernorBravoDelegateG1.sol:GovernorBravoDelegate","label":"comp","offset":0,"slot":"9","type":"t_contract(CompInterface)4706"},{"astId":4565,"contract":"contracts/Governance/GovernorBravoDelegateG1.sol:GovernorBravoDelegate","label":"proposals","offset":0,"slot":"10","type":"t_mapping(t_uint256,t_struct(Proposal)4606_storage)"},{"astId":4569,"contract":"contracts/Governance/GovernorBravoDelegateG1.sol:GovernorBravoDelegate","label":"latestProposalIds","offset":0,"slot":"11","type":"t_mapping(t_address,t_uint256)"}],"types":{"t_address":{"encoding":"inplace","label":"address","numberOfBytes":"20"},"t_array(t_address)dyn_storage":{"base":"t_address","encoding":"dynamic_array","label":"address[]","numberOfBytes":"32"},"t_array(t_bytes_storage)dyn_storage":{"base":"t_bytes_storage","encoding":"dynamic_array","label":"bytes[]","numberOfBytes":"32"},"t_array(t_string_storage)dyn_storage":{"base":"t_string_storage","encoding":"dynamic_array","label":"string[]","numberOfBytes":"32"},"t_array(t_uint256)dyn_storage":{"base":"t_uint256","encoding":"dynamic_array","label":"uint256[]","numberOfBytes":"32"},"t_bool":{"encoding":"inplace","label":"bool","numberOfBytes":"1"},"t_bytes_storage":{"encoding":"bytes","label":"bytes","numberOfBytes":"32"},"t_contract(CompInterface)4706":{"encoding":"inplace","label":"contract CompInterface","numberOfBytes":"20"},"t_contract(TimelockInterface)4696":{"encoding":"inplace","label":"contract TimelockInterface","numberOfBytes":"20"},"t_mapping(t_address,t_struct(Receipt)4613_storage)":{"encoding":"mapping","key":"t_address","label":"mapping(address => struct GovernorBravoDelegateStorageV1.Receipt)","numberOfBytes":"32","value":"t_struct(Receipt)4613_storage"},"t_mapping(t_address,t_uint256)":{"encoding":"mapping","key":"t_address","label":"mapping(address => uint256)","numberOfBytes":"32","value":"t_uint256"},"t_mapping(t_uint256,t_struct(Proposal)4606_storage)":{"encoding":"mapping","key":"t_uint256","label":"mapping(uint256 => struct GovernorBravoDelegateStorageV1.Proposal)","numberOfBytes":"32","value":"t_struct(Proposal)4606_storage"},"t_string_storage":{"encoding":"bytes","label":"string","numberOfBytes":"32"},"t_struct(Proposal)4606_storage":{"encoding":"inplace","label":"struct GovernorBravoDelegateStorageV1.Proposal","members":[{"astId":4571,"contract":"contracts/Governance/GovernorBravoDelegateG1.sol:GovernorBravoDelegate","label":"id","offset":0,"slot":"0","type":"t_uint256"},{"astId":4573,"contract":"contracts/Governance/GovernorBravoDelegateG1.sol:GovernorBravoDelegate","label":"proposer","offset":0,"slot":"1","type":"t_address"},{"astId":4575,"contract":"contracts/Governance/GovernorBravoDelegateG1.sol:GovernorBravoDelegate","label":"eta","offset":0,"slot":"2","type":"t_uint256"},{"astId":4578,"contract":"contracts/Governance/GovernorBravoDelegateG1.sol:GovernorBravoDelegate","label":"targets","offset":0,"slot":"3","type":"t_array(t_address)dyn_storage"},{"astId":4581,"contract":"contracts/Governance/GovernorBravoDelegateG1.sol:GovernorBravoDelegate","label":"values","offset":0,"slot":"4","type":"t_array(t_uint256)dyn_storage"},{"astId":4584,"contract":"contracts/Governance/GovernorBravoDelegateG1.sol:GovernorBravoDelegate","label":"signatures","offset":0,"slot":"5","type":"t_array(t_string_storage)dyn_storage"},{"astId":4587,"contract":"contracts/Governance/GovernorBravoDelegateG1.sol:GovernorBravoDelegate","label":"calldatas","offset":0,"slot":"6","type":"t_array(t_bytes_storage)dyn_storage"},{"astId":4589,"contract":"contracts/Governance/GovernorBravoDelegateG1.sol:GovernorBravoDelegate","label":"startBlock","offset":0,"slot":"7","type":"t_uint256"},{"astId":4591,"contract":"contracts/Governance/GovernorBravoDelegateG1.sol:GovernorBravoDelegate","label":"endBlock","offset":0,"slot":"8","type":"t_uint256"},{"astId":4593,"contract":"contracts/Governance/GovernorBravoDelegateG1.sol:GovernorBravoDelegate","label":"forVotes","offset":0,"slot":"9","type":"t_uint256"},{"astId":4595,"contract":"contracts/Governance/GovernorBravoDelegateG1.sol:GovernorBravoDelegate","label":"againstVotes","offset":0,"slot":"10","type":"t_uint256"},{"astId":4597,"contract":"contracts/Governance/GovernorBravoDelegateG1.sol:GovernorBravoDelegate","label":"abstainVotes","offset":0,"slot":"11","type":"t_uint256"},{"astId":4599,"contract":"contracts/Governance/GovernorBravoDelegateG1.sol:GovernorBravoDelegate","label":"canceled","offset":0,"slot":"12","type":"t_bool"},{"astId":4601,"contract":"contracts/Governance/GovernorBravoDelegateG1.sol:GovernorBravoDelegate","label":"executed","offset":1,"slot":"12","type":"t_bool"},{"astId":4605,"contract":"contracts/Governance/GovernorBravoDelegateG1.sol:GovernorBravoDelegate","label":"receipts","offset":0,"slot":"13","type":"t_mapping(t_address,t_struct(Receipt)4613_storage)"}],"numberOfBytes":"448"},"t_struct(Receipt)4613_storage":{"encoding":"inplace","label":"struct GovernorBravoDelegateStorageV1.Receipt","members":[{"astId":4608,"contract":"contracts/Governance/GovernorBravoDelegateG1.sol:GovernorBravoDelegate","label":"hasVoted","offset":0,"slot":"0","type":"t_bool"},{"astId":4610,"contract":"contracts/Governance/GovernorBravoDelegateG1.sol:GovernorBravoDelegate","label":"support","offset":1,"slot":"0","type":"t_uint8"},{"astId":4612,"contract":"contracts/Governance/GovernorBravoDelegateG1.sol:GovernorBravoDelegate","label":"votes","offset":2,"slot":"0","type":"t_uint96"}],"numberOfBytes":"32"},"t_uint256":{"encoding":"inplace","label":"uint256","numberOfBytes":"32"},"t_uint8":{"encoding":"inplace","label":"uint8","numberOfBytes":"1"},"t_uint96":{"encoding":"inplace","label":"uint96","numberOfBytes":"12"}}},"userdoc":{"methods":{"_acceptAdmin()":{"notice":"Accepts transfer of admin rights. msg.sender must be pendingAdmin"},"_initiate(address)":{"notice":"Initiate the GovernorBravo contract"},"_setPendingAdmin(address)":{"notice":"Begins transfer of admin rights. The newPendingAdmin must call `_acceptAdmin` to finalize the transfer."},"_setProposalThreshold(uint256)":{"notice":"Admin function for setting the proposal threshold"},"_setVotingDelay(uint256)":{"notice":"Admin function for setting the voting delay"},"_setVotingPeriod(uint256)":{"notice":"Admin function for setting the voting period"},"cancel(uint256)":{"notice":"Cancels a proposal only if sender is the proposer, or proposer delegates dropped below proposal threshold"},"castVote(uint256,uint8)":{"notice":"Cast a vote for a proposal"},"castVoteBySig(uint256,uint8,uint8,bytes32,bytes32)":{"notice":"Cast a vote for a proposal by signature"},"castVoteWithReason(uint256,uint8,string)":{"notice":"Cast a vote for a proposal with a reason"},"execute(uint256)":{"notice":"Executes a queued proposal if eta has passed"},"getActions(uint256)":{"notice":"Gets actions of a proposal"},"getReceipt(uint256,address)":{"notice":"Gets the receipt for a voter on a given proposal"},"initialize(address,address,uint256,uint256,uint256)":{"notice":"Used to initialize the contract during delegator constructor"},"propose(address[],uint256[],string[],bytes[],string)":{"notice":"Function used to propose a new proposal. Sender must have delegates above the proposal threshold"},"queue(uint256)":{"notice":"Queues a proposal of state succeeded"},"state(uint256)":{"notice":"Gets the state of a proposal"}}}}}}