{"contracts/Governance/GovernorBravoDelegate.sol":{"GovernorBravoDelegate":{"abi":[{"anonymous":false,"inputs":[{"indexed":false,"internalType":"address","name":"oldAdmin","type":"address"},{"indexed":false,"internalType":"address","name":"newAdmin","type":"address"}],"name":"NewAdmin","type":"event"},{"anonymous":false,"inputs":[{"indexed":false,"internalType":"address","name":"oldImplementation","type":"address"},{"indexed":false,"internalType":"address","name":"newImplementation","type":"address"}],"name":"NewImplementation","type":"event"},{"anonymous":false,"inputs":[{"indexed":false,"internalType":"address","name":"oldPendingAdmin","type":"address"},{"indexed":false,"internalType":"address","name":"newPendingAdmin","type":"address"}],"name":"NewPendingAdmin","type":"event"},{"anonymous":false,"inputs":[{"indexed":false,"internalType":"uint256","name":"id","type":"uint256"}],"name":"ProposalCanceled","type":"event"},{"anonymous":false,"inputs":[{"indexed":false,"internalType":"uint256","name":"id","type":"uint256"},{"indexed":false,"internalType":"address","name":"proposer","type":"address"},{"indexed":false,"internalType":"address[]","name":"targets","type":"address[]"},{"indexed":false,"internalType":"uint256[]","name":"values","type":"uint256[]"},{"indexed":false,"internalType":"string[]","name":"signatures","type":"string[]"},{"indexed":false,"internalType":"bytes[]","name":"calldatas","type":"bytes[]"},{"indexed":false,"internalType":"uint256","name":"startBlock","type":"uint256"},{"indexed":false,"internalType":"uint256","name":"endBlock","type":"uint256"},{"indexed":false,"internalType":"string","name":"description","type":"string"}],"name":"ProposalCreated","type":"event"},{"anonymous":false,"inputs":[{"indexed":false,"internalType":"uint256","name":"id","type":"uint256"}],"name":"ProposalExecuted","type":"event"},{"anonymous":false,"inputs":[{"indexed":false,"internalType":"uint256","name":"id","type":"uint256"},{"indexed":false,"internalType":"uint256","name":"eta","type":"uint256"}],"name":"ProposalQueued","type":"event"},{"anonymous":false,"inputs":[{"indexed":false,"internalType":"uint256","name":"oldProposalThreshold","type":"uint256"},{"indexed":false,"internalType":"uint256","name":"newProposalThreshold","type":"uint256"}],"name":"ProposalThresholdSet","type":"event"},{"anonymous":false,"inputs":[{"indexed":true,"internalType":"address","name":"voter","type":"address"},{"indexed":false,"internalType":"uint256","name":"proposalId","type":"uint256"},{"indexed":false,"internalType":"uint8","name":"support","type":"uint8"},{"indexed":false,"internalType":"uint256","name":"votes","type":"uint256"},{"indexed":false,"internalType":"string","name":"reason","type":"string"}],"name":"VoteCast","type":"event"},{"anonymous":false,"inputs":[{"indexed":false,"internalType":"uint256","name":"oldVotingDelay","type":"uint256"},{"indexed":false,"internalType":"uint256","name":"newVotingDelay","type":"uint256"}],"name":"VotingDelaySet","type":"event"},{"anonymous":false,"inputs":[{"indexed":false,"internalType":"uint256","name":"oldVotingPeriod","type":"uint256"},{"indexed":false,"internalType":"uint256","name":"newVotingPeriod","type":"uint256"}],"name":"VotingPeriodSet","type":"event"},{"anonymous":false,"inputs":[{"indexed":false,"internalType":"address","name":"account","type":"address"},{"indexed":false,"internalType":"uint256","name":"expiration","type":"uint256"}],"name":"WhitelistAccountExpirationSet","type":"event"},{"anonymous":false,"inputs":[{"indexed":false,"internalType":"address","name":"oldGuardian","type":"address"},{"indexed":false,"internalType":"address","name":"newGuardian","type":"address"}],"name":"WhitelistGuardianSet","type":"event"},{"constant":true,"inputs":[],"name":"BALLOT_TYPEHASH","outputs":[{"internalType":"bytes32","name":"","type":"bytes32"}],"payable":false,"stateMutability":"view","type":"function"},{"constant":true,"inputs":[],"name":"DOMAIN_TYPEHASH","outputs":[{"internalType":"bytes32","name":"","type":"bytes32"}],"payable":false,"stateMutability":"view","type":"function"},{"constant":true,"inputs":[],"name":"MAX_PROPOSAL_THRESHOLD","outputs":[{"internalType":"uint256","name":"","type":"uint256"}],"payable":false,"stateMutability":"view","type":"function"},{"constant":true,"inputs":[],"name":"MAX_VOTING_DELAY","outputs":[{"internalType":"uint256","name":"","type":"uint256"}],"payable":false,"stateMutability":"view","type":"function"},{"constant":true,"inputs":[],"name":"MAX_VOTING_PERIOD","outputs":[{"internalType":"uint256","name":"","type":"uint256"}],"payable":false,"stateMutability":"view","type":"function"},{"constant":true,"inputs":[],"name":"MIN_PROPOSAL_THRESHOLD","outputs":[{"internalType":"uint256","name":"","type":"uint256"}],"payable":false,"stateMutability":"view","type":"function"},{"constant":true,"inputs":[],"name":"MIN_VOTING_DELAY","outputs":[{"internalType":"uint256","name":"","type":"uint256"}],"payable":false,"stateMutability":"view","type":"function"},{"constant":true,"inputs":[],"name":"MIN_VOTING_PERIOD","outputs":[{"internalType":"uint256","name":"","type":"uint256"}],"payable":false,"stateMutability":"view","type":"function"},{"constant":false,"inputs":[],"name":"_acceptAdmin","outputs":[],"payable":false,"stateMutability":"nonpayable","type":"function"},{"constant":false,"inputs":[{"internalType":"address","name":"governorAlpha","type":"address"}],"name":"_initiate","outputs":[],"payable":false,"stateMutability":"nonpayable","type":"function"},{"constant":false,"inputs":[{"internalType":"address","name":"newPendingAdmin","type":"address"}],"name":"_setPendingAdmin","outputs":[],"payable":false,"stateMutability":"nonpayable","type":"function"},{"constant":false,"inputs":[{"internalType":"uint256","name":"newProposalThreshold","type":"uint256"}],"name":"_setProposalThreshold","outputs":[],"payable":false,"stateMutability":"nonpayable","type":"function"},{"constant":false,"inputs":[{"internalType":"uint256","name":"newVotingDelay","type":"uint256"}],"name":"_setVotingDelay","outputs":[],"payable":false,"stateMutability":"nonpayable","type":"function"},{"constant":false,"inputs":[{"internalType":"uint256","name":"newVotingPeriod","type":"uint256"}],"name":"_setVotingPeriod","outputs":[],"payable":false,"stateMutability":"nonpayable","type":"function"},{"constant":false,"inputs":[{"internalType":"address","name":"account","type":"address"},{"internalType":"uint256","name":"expiration","type":"uint256"}],"name":"_setWhitelistAccountExpiration","outputs":[],"payable":false,"stateMutability":"nonpayable","type":"function"},{"constant":false,"inputs":[{"internalType":"address","name":"account","type":"address"}],"name":"_setWhitelistGuardian","outputs":[],"payable":false,"stateMutability":"nonpayable","type":"function"},{"constant":true,"inputs":[],"name":"admin","outputs":[{"internalType":"address","name":"","type":"address"}],"payable":false,"stateMutability":"view","type":"function"},{"constant":false,"inputs":[{"internalType":"uint256","name":"proposalId","type":"uint256"}],"name":"cancel","outputs":[],"payable":false,"stateMutability":"nonpayable","type":"function"},{"constant":false,"inputs":[{"internalType":"uint256","name":"proposalId","type":"uint256"},{"internalType":"uint8","name":"support","type":"uint8"}],"name":"castVote","outputs":[],"payable":false,"stateMutability":"nonpayable","type":"function"},{"constant":false,"inputs":[{"internalType":"uint256","name":"proposalId","type":"uint256"},{"internalType":"uint8","name":"support","type":"uint8"},{"internalType":"uint8","name":"v","type":"uint8"},{"internalType":"bytes32","name":"r","type":"bytes32"},{"internalType":"bytes32","name":"s","type":"bytes32"}],"name":"castVoteBySig","outputs":[],"payable":false,"stateMutability":"nonpayable","type":"function"},{"constant":false,"inputs":[{"internalType":"uint256","name":"proposalId","type":"uint256"},{"internalType":"uint8","name":"support","type":"uint8"},{"internalType":"string","name":"reason","type":"string"}],"name":"castVoteWithReason","outputs":[],"payable":false,"stateMutability":"nonpayable","type":"function"},{"constant":true,"inputs":[],"name":"comp","outputs":[{"internalType":"contract CompInterface","name":"","type":"address"}],"payable":false,"stateMutability":"view","type":"function"},{"constant":false,"inputs":[{"internalType":"uint256","name":"proposalId","type":"uint256"}],"name":"execute","outputs":[],"payable":true,"stateMutability":"payable","type":"function"},{"constant":true,"inputs":[{"internalType":"uint256","name":"proposalId","type":"uint256"}],"name":"getActions","outputs":[{"internalType":"address[]","name":"targets","type":"address[]"},{"internalType":"uint256[]","name":"values","type":"uint256[]"},{"internalType":"string[]","name":"signatures","type":"string[]"},{"internalType":"bytes[]","name":"calldatas","type":"bytes[]"}],"payable":false,"stateMutability":"view","type":"function"},{"constant":true,"inputs":[{"internalType":"uint256","name":"proposalId","type":"uint256"},{"internalType":"address","name":"voter","type":"address"}],"name":"getReceipt","outputs":[{"components":[{"internalType":"bool","name":"hasVoted","type":"bool"},{"internalType":"uint8","name":"support","type":"uint8"},{"internalType":"uint96","name":"votes","type":"uint96"}],"internalType":"struct GovernorBravoDelegateStorageV1.Receipt","name":"","type":"tuple"}],"payable":false,"stateMutability":"view","type":"function"},{"constant":true,"inputs":[],"name":"implementation","outputs":[{"internalType":"address","name":"","type":"address"}],"payable":false,"stateMutability":"view","type":"function"},{"constant":true,"inputs":[],"name":"initialProposalId","outputs":[{"internalType":"uint256","name":"","type":"uint256"}],"payable":false,"stateMutability":"view","type":"function"},{"constant":false,"inputs":[{"internalType":"address","name":"timelock_","type":"address"},{"internalType":"address","name":"comp_","type":"address"},{"internalType":"uint256","name":"votingPeriod_","type":"uint256"},{"internalType":"uint256","name":"votingDelay_","type":"uint256"},{"internalType":"uint256","name":"proposalThreshold_","type":"uint256"}],"name":"initialize","outputs":[],"payable":false,"stateMutability":"nonpayable","type":"function"},{"constant":true,"inputs":[{"internalType":"address","name":"account","type":"address"}],"name":"isWhitelisted","outputs":[{"internalType":"bool","name":"","type":"bool"}],"payable":false,"stateMutability":"view","type":"function"},{"constant":true,"inputs":[{"internalType":"address","name":"","type":"address"}],"name":"latestProposalIds","outputs":[{"internalType":"uint256","name":"","type":"uint256"}],"payable":false,"stateMutability":"view","type":"function"},{"constant":true,"inputs":[],"name":"name","outputs":[{"internalType":"string","name":"","type":"string"}],"payable":false,"stateMutability":"view","type":"function"},{"constant":true,"inputs":[],"name":"pendingAdmin","outputs":[{"internalType":"address","name":"","type":"address"}],"payable":false,"stateMutability":"view","type":"function"},{"constant":true,"inputs":[],"name":"proposalCount","outputs":[{"internalType":"uint256","name":"","type":"uint256"}],"payable":false,"stateMutability":"view","type":"function"},{"constant":true,"inputs":[],"name":"proposalMaxOperations","outputs":[{"internalType":"uint256","name":"","type":"uint256"}],"payable":false,"stateMutability":"view","type":"function"},{"constant":true,"inputs":[],"name":"proposalThreshold","outputs":[{"internalType":"uint256","name":"","type":"uint256"}],"payable":false,"stateMutability":"view","type":"function"},{"constant":true,"inputs":[{"internalType":"uint256","name":"","type":"uint256"}],"name":"proposals","outputs":[{"internalType":"uint256","name":"id","type":"uint256"},{"internalType":"address","name":"proposer","type":"address"},{"internalType":"uint256","name":"eta","type":"uint256"},{"internalType":"uint256","name":"startBlock","type":"uint256"},{"internalType":"uint256","name":"endBlock","type":"uint256"},{"internalType":"uint256","name":"forVotes","type":"uint256"},{"internalType":"uint256","name":"againstVotes","type":"uint256"},{"internalType":"uint256","name":"abstainVotes","type":"uint256"},{"internalType":"bool","name":"canceled","type":"bool"},{"internalType":"bool","name":"executed","type":"bool"}],"payable":false,"stateMutability":"view","type":"function"},{"constant":false,"inputs":[{"internalType":"address[]","name":"targets","type":"address[]"},{"internalType":"uint256[]","name":"values","type":"uint256[]"},{"internalType":"string[]","name":"signatures","type":"string[]"},{"internalType":"bytes[]","name":"calldatas","type":"bytes[]"},{"internalType":"string","name":"description","type":"string"}],"name":"propose","outputs":[{"internalType":"uint256","name":"","type":"uint256"}],"payable":false,"stateMutability":"nonpayable","type":"function"},{"constant":false,"inputs":[{"internalType":"uint256","name":"proposalId","type":"uint256"}],"name":"queue","outputs":[],"payable":false,"stateMutability":"nonpayable","type":"function"},{"constant":true,"inputs":[],"name":"quorumVotes","outputs":[{"internalType":"uint256","name":"","type":"uint256"}],"payable":false,"stateMutability":"view","type":"function"},{"constant":true,"inputs":[{"internalType":"uint256","name":"proposalId","type":"uint256"}],"name":"state","outputs":[{"internalType":"enum GovernorBravoDelegateStorageV1.ProposalState","name":"","type":"uint8"}],"payable":false,"stateMutability":"view","type":"function"},{"constant":true,"inputs":[],"name":"timelock","outputs":[{"internalType":"contract TimelockInterface","name":"","type":"address"}],"payable":false,"stateMutability":"view","type":"function"},{"constant":true,"inputs":[],"name":"votingDelay","outputs":[{"internalType":"uint256","name":"","type":"uint256"}],"payable":false,"stateMutability":"view","type":"function"},{"constant":true,"inputs":[],"name":"votingPeriod","outputs":[{"internalType":"uint256","name":"","type":"uint256"}],"payable":false,"stateMutability":"view","type":"function"},{"constant":true,"inputs":[{"internalType":"address","name":"","type":"address"}],"name":"whitelistAccountExpirations","outputs":[{"internalType":"uint256","name":"","type":"uint256"}],"payable":false,"stateMutability":"view","type":"function"},{"constant":true,"inputs":[],"name":"whitelistGuardian","outputs":[{"internalType":"address","name":"","type":"address"}],"payable":false,"stateMutability":"view","type":"function"}],"devdoc":{"methods":{"_acceptAdmin()":{"details":"Admin function for pending admin to accept role and update admin"},"_initiate(address)":{"details":"Admin only. Sets initial proposal id which initiates the contract, ensuring a continuous proposal id count","params":{"governorAlpha":"The address for the Governor to continue the proposal id count from"}},"_setPendingAdmin(address)":{"details":"Admin function to begin change of admin. The newPendingAdmin must call `_acceptAdmin` to finalize the transfer.","params":{"newPendingAdmin":"New pending admin."}},"_setProposalThreshold(uint256)":{"details":"newProposalThreshold must be greater than the hardcoded min","params":{"newProposalThreshold":"new proposal threshold"}},"_setVotingDelay(uint256)":{"params":{"newVotingDelay":"new voting delay, in blocks"}},"_setVotingPeriod(uint256)":{"params":{"newVotingPeriod":"new voting period, in blocks"}},"_setWhitelistAccountExpiration(address,uint256)":{"params":{"account":"Account address to set whitelist expiration for","expiration":"Expiration for account whitelist status as timestamp (if now < expiration, whitelisted)"}},"_setWhitelistGuardian(address)":{"params":{"account":"Account to set whitelistGuardian to (0x0 to remove whitelistGuardian)"}},"cancel(uint256)":{"params":{"proposalId":"The id of the proposal to cancel"}},"castVote(uint256,uint8)":{"params":{"proposalId":"The id of the proposal to vote on","support":"The support value for the vote. 0=against, 1=for, 2=abstain"}},"castVoteBySig(uint256,uint8,uint8,bytes32,bytes32)":{"details":"External function that accepts EIP-712 signatures for voting on proposals."},"castVoteWithReason(uint256,uint8,string)":{"params":{"proposalId":"The id of the proposal to vote on","reason":"The reason given for the vote by the voter","support":"The support value for the vote. 0=against, 1=for, 2=abstain"}},"execute(uint256)":{"params":{"proposalId":"The id of the proposal to execute"}},"getActions(uint256)":{"params":{"proposalId":"the id of the proposal"},"return":"targets of the proposal actionsvalues of the proposal actionssignatures of the proposal actionscalldatas of the proposal actions"},"getReceipt(uint256,address)":{"params":{"proposalId":"the id of proposal","voter":"The address of the voter"},"return":"The voting receipt"},"initialize(address,address,uint256,uint256,uint256)":{"params":{"comp_":"The address of the COMP token","proposalThreshold_":"The initial proposal threshold","timelock_":"The address of the Timelock","votingDelay_":"The initial voting delay","votingPeriod_":"The initial voting period"}},"isWhitelisted(address)":{"params":{"account":"Account to check white list status of"},"return":"If the account is whitelisted"},"propose(address[],uint256[],string[],bytes[],string)":{"params":{"calldatas":"Calldatas for proposal calls","description":"String description of the proposal","signatures":"Function signatures for proposal calls","targets":"Target addresses for proposal calls","values":"Eth values for proposal calls"},"return":"Proposal id of new proposal"},"queue(uint256)":{"params":{"proposalId":"The id of the proposal to queue"}},"state(uint256)":{"params":{"proposalId":"The id of the proposal"},"return":"Proposal state"}}},"evm":{"bytecode":{"linkReferences":{},"object":"608060405234801561001057600080fd5b5061488f806100206000396000f3fe6080604052600436106102725760003560e01c80635c60da1b1161014f578063d33219b4116100c1578063e48083fe1161007a578063e48083fe14610712578063e9c714f214610727578063f851a4401461073c578063f9d28b8014610751578063fc4eee4214610771578063fe0d94c11461078657610272565b8063d33219b414610666578063da35c6641461067b578063da95691a14610690578063ddf0b009146106b0578063deaaa7cc146106d0578063e23a9a52146106e557610272565b8063a64e024a11610113578063a64e024a146105d2578063b1126263146105e7578063b58131b0146105fc578063b71d1a0c14610611578063c5a8425d14610631578063d13f90b41461064657610272565b80635c60da1b14610553578063791f5d23146105685780637b3c71d31461057d5780637bdbe4d01461059d57806399533365146105b257610272565b806325fd935a116101e85780633af32abf116101ac5780633af32abf146104795780633bccf4fd146104a65780633e4f49e6146104c657806340e58ee5146104f35780634d6733d214610513578063567813881461053357610272565b806325fd935a146103dd57806326782247146103f2578063328dd9821461041457806338bd0dda146104445780633932abb11461046457610272565b806317977c611161023a57806317977c611461033e57806317ba1b8b1461035e5780631dfb1b5a1461037e57806320606b701461039e578063215809ca146103b357806324bc1a64146103c857610272565b8063013cf08b1461027757806302a251a3146102b657806306fdde03146102d85780630ea2d98c146102fa578063109d0af81461031c575b600080fd5b34801561028357600080fd5b50610297610292366004612db0565b610799565b6040516102ad9a999897969594939291906145a6565b60405180910390f35b3480156102c257600080fd5b506102cb6107fc565b6040516102ad91906141a3565b3480156102e457600080fd5b506102ed610802565b6040516102ad919061425f565b34801561030657600080fd5b5061031a610315366004612db0565b610835565b005b34801561032857600080fd5b506103316108df565b6040516102ad9190614243565b34801561034a57600080fd5b506102cb610359366004612b8b565b6108ee565b34801561036a57600080fd5b5061031a610379366004612db0565b610900565b34801561038a57600080fd5b5061031a610399366004612db0565b6109a3565b3480156103aa57600080fd5b506102cb610a36565b3480156103bf57600080fd5b506102cb610a4d565b3480156103d457600080fd5b506102cb610a53565b3480156103e957600080fd5b506102cb610a61565b3480156103fe57600080fd5b50610407610a6f565b6040516102ad919061405b565b34801561042057600080fd5b5061043461042f366004612db0565b610a7e565b6040516102ad9493929190614148565b34801561045057600080fd5b506102cb61045f366004612b8b565b610d0d565b34801561047057600080fd5b506102cb610d1f565b34801561048557600080fd5b50610499610494366004612b8b565b610d25565b6040516102ad9190614195565b3480156104b257600080fd5b5061031a6104c1366004612e96565b610d46565b3480156104d257600080fd5b506104e66104e1366004612db0565b610f21565b6040516102ad9190614251565b3480156104ff57600080fd5b5061031a61050e366004612db0565b6110a6565b34801561051f57600080fd5b5061031a61052e366004612c26565b6113ed565b34801561053f57600080fd5b5061031a61054e366004612dfe565b611479565b34801561055f57600080fd5b506104076114c3565b34801561057457600080fd5b506102cb6114d2565b34801561058957600080fd5b5061031a610598366004612e2e565b6114df565b3480156105a957600080fd5b506102cb61152f565b3480156105be57600080fd5b5061031a6105cd366004612b8b565b611534565b3480156105de57600080fd5b506102cb6115b3565b3480156105f357600080fd5b506102cb6115ba565b34801561060857600080fd5b506102cb6115c0565b34801561061d57600080fd5b5061031a61062c366004612b8b565b6115c6565b34801561063d57600080fd5b50610407611643565b34801561065257600080fd5b5061031a610661366004612bb1565b611652565b34801561067257600080fd5b506103316117ce565b34801561068757600080fd5b506102cb6117dd565b34801561069c57600080fd5b506102cb6106ab366004612c60565b6117e3565b3480156106bc57600080fd5b5061031a6106cb366004612db0565b611b9e565b3480156106dc57600080fd5b506102cb611e1a565b3480156106f157600080fd5b50610705610700366004612dce565b611e26565b6040516102ad91906144f0565b34801561071e57600080fd5b506102cb611e93565b34801561073357600080fd5b5061031a611e98565b34801561074857600080fd5b50610407611f76565b34801561075d57600080fd5b5061031a61076c366004612b8b565b611f85565b34801561077d57600080fd5b506102cb6120ab565b61031a610794366004612db0565b6120b1565b600a60208190526000918252604090912080546001820154600283015460078401546008850154600986015496860154600b870154600c9097015495976001600160a01b0390951696939592949193919290919060ff808216916101009004168a565b60045481565b60405180604001604052806017815260200176436f6d706f756e6420476f7665726e6f7220427261766f60481b81525081565b6000546001600160a01b031633146108685760405162461bcd60e51b815260040161085f906142b0565b60405180910390fd5b611680811015801561087d575062013b008111155b6108995760405162461bcd60e51b815260040161085f906142f0565b60048054908290556040517f7e3f7f0708a84de9203036abaa450dccc85ad5ff52f78c170f3edb55cf5e8828906108d3908390859061462c565b60405180910390a15050565b6009546001600160a01b031681565b600b6020526000908152604090205481565b6000546001600160a01b0316331461092a5760405162461bcd60e51b815260040161085f906144a0565b683635c9adc5dea00000811015801561094d575069152d02c7e14af68000008111155b6109695760405162461bcd60e51b815260040161085f906143b0565b60058054908290556040517fccb45da8d5717e6c4544694297c4ba5cf151d455c9bb0ed4fc7a38411bc05461906108d3908390859061462c565b6000546001600160a01b031633146109cd5760405162461bcd60e51b815260040161085f906142d0565b600181101580156109e05750619d808111155b6109fc5760405162461bcd60e51b815260040161085f90614320565b60038054908290556040517fc565b045403dc03c2eea82b81a0465edad9e2e7fc4d97e11421c209da93d7a93906108d3908390859061462c565b604051610a4290614050565b604051809103902081565b61168081565b6954b40b1f852bda00000081565b69152d02c7e14af680000081565b6001546001600160a01b031681565b6060806060806000600a600087815260200190815260200160002090508060030181600401826005018360060183805480602002602001604051908101604052809291908181526020018280548015610b0057602002820191906000526020600020905b81546001600160a01b03168152600190910190602001808311610ae2575b5050505050935082805480602002602001604051908101604052809291908181526020018280548015610b5257602002820191906000526020600020905b815481526020019060010190808311610b3e575b5050505050925081805480602002602001604051908101604052809291908181526020016000905b82821015610c255760008481526020908190208301805460408051601f6002600019610100600187161502019094169390930492830185900485028101850190915281815292830182828015610c115780601f10610be657610100808354040283529160200191610c11565b820191906000526020600020905b815481529060010190602001808311610bf457829003601f168201915b505050505081526020019060010190610b7a565b50505050915080805480602002602001604051908101604052809291908181526020016000905b82821015610cf75760008481526020908190208301805460408051601f6002600019610100600187161502019094169390930492830185900485028101850190915281815292830182828015610ce35780601f10610cb857610100808354040283529160200191610ce3565b820191906000526020600020905b815481529060010190602001808311610cc657829003601f168201915b505050505081526020019060010190610c4c565b5050505090509450945094509450509193509193565b600c6020526000908152604090205481565b60035481565b6001600160a01b0381166000908152600c602052604090205442105b919050565b6000604051610d5490614050565b604080519182900382208282019091526017825276436f6d706f756e6420476f7665726e6f7220427261766f60481b6020909201919091527f3d9e905142ff365fb68ce863f26a44f5583cf7ec11bcde450555f50b7e1b5614610db561226a565b30604051602001610dc994939291906141b1565b6040516020818303038152906040528051906020012090506000604051610def90614014565b604051908190038120610e0891899089906020016141e6565b60405160208183030381529060405280519060200120905060008282604051602001610e3592919061401f565b604051602081830303815290604052805190602001209050600060018288888860405160008152602001604052604051610e72949392919061420e565b6020604051602081039080840390855afa158015610e94573d6000803e3d6000fd5b5050604051601f1901519150506001600160a01b038116610ec75760405162461bcd60e51b815260040161085f90614360565b806001600160a01b03167fb8e138887d0aa13bab447e82de9d5c1777041ecd21ca36ba824ff1e6c07ddda48a8a610eff858e8e61226f565b604051610f0e93929190614680565b60405180910390a2505050505050505050565b60008160075410158015610f36575060065482115b610f525760405162461bcd60e51b815260040161085f906144b0565b6000828152600a60205260409020600c81015460ff1615610f77576002915050610d41565b80600701544311610f8c576000915050610d41565b80600801544311610fa1576001915050610d41565b80600a01548160090154111580610fc557506954b40b1f852bda0000008160090154105b15610fd4576003915050610d41565b6002810154610fe7576004915050610d41565b600c810154610100900460ff1615611003576007915050610d41565b6002810154600854604080516360d143f160e11b8152905161108c93926001600160a01b03169163c1a287e2916004808301926020929190829003018186803b15801561104f57600080fd5b505afa158015611063573d6000803e3d6000fd5b505050506040513d601f19601f820116820180604052506110879190810190612d5d565b612460565b421061109c576006915050610d41565b6005915050610d41565b60076110b182610f21565b60078111156110bc57fe5b14156110da5760405162461bcd60e51b815260040161085f90614490565b6000818152600a6020526040902060018101546001600160a01b031633146112b1576001810154611113906001600160a01b0316610d25565b156111f2576005546009546001838101546001600160a01b039283169263782d6fe192911690611144904390612485565b6040518363ffffffff1660e01b815260040161116192919061409f565b60206040518083038186803b15801561117957600080fd5b505afa15801561118d573d6000803e3d6000fd5b505050506040513d601f19601f820116820180604052506111b19190810190612edc565b6001600160601b03161080156111d15750600d546001600160a01b031633145b6111ed5760405162461bcd60e51b815260040161085f906144e0565b6112b1565b6005546009546001838101546001600160a01b039283169263782d6fe19291169061121e904390612485565b6040518363ffffffff1660e01b815260040161123b92919061409f565b60206040518083038186803b15801561125357600080fd5b505afa158015611267573d6000803e3d6000fd5b505050506040513d601f19601f8201168201806040525061128b9190810190612edc565b6001600160601b0316106112b15760405162461bcd60e51b815260040161085f90614420565b600c8101805460ff1916600117905560005b60038201548110156113bd576008546003830180546001600160a01b039092169163591fcdfe9190849081106112f557fe5b6000918252602090912001546004850180546001600160a01b03909216918590811061131d57fe5b906000526020600020015485600501858154811061133757fe5b9060005260206000200186600601868154811061135057fe5b9060005260206000200187600201546040518663ffffffff1660e01b815260040161137f959493929190614107565b600060405180830381600087803b15801561139957600080fd5b505af11580156113ad573d6000803e3d6000fd5b5050600190920191506112c39050565b507f789cf55be980739dad1d0699b93b58e806b51c9d96619bfa8fe0a28abaa7b30c826040516108d391906141a3565b6000546001600160a01b03163314806114105750600d546001600160a01b031633145b61142c5760405162461bcd60e51b815260040161085f90614480565b6001600160a01b0382166000908152600c602052604090819020829055517f4e7b7545bc5744d0e30425959f4687475774b6c7edad77d24cb51c7d967d4515906108d3908490849061409f565b337fb8e138887d0aa13bab447e82de9d5c1777041ecd21ca36ba824ff1e6c07ddda483836114a884838361226f565b6040516114b793929190614680565b60405180910390a25050565b6002546001600160a01b031681565b683635c9adc5dea0000081565b337fb8e138887d0aa13bab447e82de9d5c1777041ecd21ca36ba824ff1e6c07ddda4858561150e84838361226f565b868660405161152195949392919061463a565b60405180910390a250505050565b600a81565b6000546001600160a01b0316331461155e5760405162461bcd60e51b815260040161085f90614380565b600d80546001600160a01b038381166001600160a01b031983161792839055604051918116927f80a07e73e552148844a9c216d9724212d609cfa54e9c1a2e97203bdd2c4ad341926108d39285921690614084565b62013b0081565b619d8081565b60055481565b6000546001600160a01b031633146115f05760405162461bcd60e51b815260040161085f90614290565b600180546001600160a01b038381166001600160a01b03198316179092556040519116907fca4f2f25d0898edd99413412fb94012f9e54ec8142f9b093e7720646a95b16a9906108d39083908590614084565b600d546001600160a01b031681565b6008546001600160a01b03161561167b5760405162461bcd60e51b815260040161085f90614280565b6000546001600160a01b031633146116a55760405162461bcd60e51b815260040161085f906143a0565b6001600160a01b0385166116cb5760405162461bcd60e51b815260040161085f906142c0565b6001600160a01b0384166116f15760405162461bcd60e51b815260040161085f90614410565b6116808310158015611706575062013b008311155b6117225760405162461bcd60e51b815260040161085f906144c0565b600182101580156117355750619d808211155b6117515760405162461bcd60e51b815260040161085f90614370565b683635c9adc5dea000008110158015611774575069152d02c7e14af68000008111155b6117905760405162461bcd60e51b815260040161085f90614330565b600880546001600160a01b039687166001600160a01b0319918216179091556009805495909616941693909317909355600455600391909155600555565b6008546001600160a01b031681565b60075481565b6000600654600014156118085760405162461bcd60e51b815260040161085f906142e0565b6005546009546001600160a01b031663782d6fe133611828436001612485565b6040518363ffffffff1660e01b8152600401611845929190614069565b60206040518083038186803b15801561185d57600080fd5b505afa158015611871573d6000803e3d6000fd5b505050506040513d601f19601f820116820180604052506118959190810190612edc565b6001600160601b031611806118ae57506118ae33610d25565b6118ca5760405162461bcd60e51b815260040161085f90614470565b845186511480156118dc575083518651145b80156118e9575082518651145b6119055760405162461bcd60e51b815260040161085f90614390565b85516119235760405162461bcd60e51b815260040161085f906143f0565b600a865111156119455760405162461bcd60e51b815260040161085f90614430565b336000908152600b602052604090205480156119c257600061196682610f21565b9050600181600781111561197657fe5b14156119945760405162461bcd60e51b815260040161085f90614450565b60008160078111156119a257fe5b14156119c05760405162461bcd60e51b815260040161085f90614440565b505b60006119d043600354612460565b905060006119e082600454612460565b60078054600101908190556000818152600a602052604090208054929350909115611a1d5760405162461bcd60e51b815260040161085f90614340565b8181556001810180546001600160a01b03191633179055600060028201558a51611a5090600383019060208e019061260c565b508951611a6690600483019060208d0190612671565b508851611a7c90600583019060208c01906126b8565b508751611a9290600683019060208b0190612711565b5083816007018190555082816008018190555060008160090181905550600081600a0181905550600081600b0181905550600081600c0160006101000a81548160ff021916908315150217905550600081600c0160016101000a81548160ff0219169083151502179055508060000154600b60008360010160009054906101000a90046001600160a01b03166001600160a01b03166001600160a01b03168152602001908152602001600020819055507f7d84a6263ae0d98d3329bd7b46bb4e8d6f98cd35a7adb45c274c8b7fd5ebd5e08160000154338d8d8d8d8a8a8f604051611b85999897969594939291906144fe565b60405180910390a1549450505050505b95945050505050565b6004611ba982610f21565b6007811115611bb457fe5b14611bd15760405162461bcd60e51b815260040161085f906143c0565b6000818152600a602090815260408083206008548251630d48571f60e31b81529251919493611c2b9342936001600160a01b0390931692636a42b8f892600480840193919291829003018186803b15801561104f57600080fd5b905060005b6003830154811015611dd357611dcb836003018281548110611c4e57fe5b6000918252602090912001546004850180546001600160a01b039092169184908110611c7657fe5b9060005260206000200154856005018481548110611c9057fe5b600091825260209182902001805460408051601f6002600019610100600187161502019094169390930492830185900485028101850190915281815292830182828015611d1e5780601f10611cf357610100808354040283529160200191611d1e565b820191906000526020600020905b815481529060010190602001808311611d0157829003601f168201915b5050505050866006018581548110611d3257fe5b600091825260209182902001805460408051601f6002600019610100600187161502019094169390930492830185900485028101850190915281815292830182828015611dc05780601f10611d9557610100808354040283529160200191611dc0565b820191906000526020600020905b815481529060010190602001808311611da357829003601f168201915b5050505050866124ad565b600101611c30565b50600282018190556040517f9a2e42fd6722813d69113e7d0079d3d940171428df7373df9c7f7617cfda289290611e0d908590849061462c565b60405180910390a1505050565b604051610a4290614014565b611e2e61276a565b506000828152600a602090815260408083206001600160a01b0385168452600d018252918290208251606081018452905460ff8082161515835261010082041692820192909252620100009091046001600160601b0316918101919091525b92915050565b600181565b6001546001600160a01b031633148015611eb157503315155b611ecd5760405162461bcd60e51b815260040161085f90614400565b60008054600180546001600160a01b038082166001600160a01b03198086168217968790559092169092556040519282169390927ff9ffabca9c8276e99321725bcb43fb076a6c66a54b7f21c4e8146d8519b417dc92611f31928692911690614084565b60405180910390a16001546040517fca4f2f25d0898edd99413412fb94012f9e54ec8142f9b093e7720646a95b16a9916108d39184916001600160a01b031690614084565b6000546001600160a01b031681565b6000546001600160a01b03163314611faf5760405162461bcd60e51b815260040161085f90614460565b60065415611fcf5760405162461bcd60e51b815260040161085f906143e0565b806001600160a01b031663da35c6646040518163ffffffff1660e01b8152600401602060405180830381600087803b15801561200a57600080fd5b505af115801561201e573d6000803e3d6000fd5b505050506040513d601f19601f820116820180604052506120429190810190612d5d565b600781905560065560085460408051630e18b68160e01b815290516001600160a01b0390921691630e18b6819160048082019260009290919082900301818387803b15801561209057600080fd5b505af11580156120a4573d6000803e3d6000fd5b5050505050565b60065481565b60056120bc82610f21565b60078111156120c757fe5b146120e45760405162461bcd60e51b815260040161085f90614350565b6000818152600a60205260408120600c8101805461ff001916610100179055905b600382015481101561223a576008546004830180546001600160a01b0390921691630825f38f91908490811061213757fe5b906000526020600020015484600301848154811061215157fe5b6000918252602090912001546004860180546001600160a01b03909216918690811061217957fe5b906000526020600020015486600501868154811061219357fe5b906000526020600020018760060187815481106121ac57fe5b9060005260206000200188600201546040518763ffffffff1660e01b81526004016121db959493929190614107565b6000604051808303818588803b1580156121f457600080fd5b505af1158015612208573d6000803e3d6000fd5b50505050506040513d6000823e601f3d908101601f191682016040526122319190810190612d7b565b50600101612105565b507f712ae1383f79ac853f8d882153778e0260ef8f03b504e2866e0593e04d2b291f826040516108d391906141a3565b465b90565b6000600161227c84610f21565b600781111561228757fe5b146122a45760405162461bcd60e51b815260040161085f90614300565b60028260ff1611156122c85760405162461bcd60e51b815260040161085f90614270565b6000838152600a602090815260408083206001600160a01b0388168452600d8101909252909120805460ff16156123115760405162461bcd60e51b815260040161085f90614310565b600954600783015460405163782d6fe160e01b81526000926001600160a01b03169163782d6fe191612347918b9160040161409f565b60206040518083038186803b15801561235f57600080fd5b505afa158015612373573d6000803e3d6000fd5b505050506040513d601f19601f820116820180604052506123979190810190612edc565b905060ff85166123c2576123b883600a0154826001600160601b0316612460565b600a840155612418565b8460ff16600114156123ef576123e58360090154826001600160601b0316612460565b6009840155612418565b8460ff16600214156124185761241283600b0154826001600160601b0316612460565b600b8401555b8154600160ff199091161761ff00191661010060ff871602176dffffffffffffffffffffffff00001916620100006001600160601b03831602179091559150505b9392505050565b6000828201838110156124595760405162461bcd60e51b815260040161085f906143d0565b6000828211156124a75760405162461bcd60e51b815260040161085f906144d0565b50900390565b6008546040516001600160a01b039091169063f2b06537906124db90889088908890889088906020016140ad565b604051602081830303815290604052805190602001206040518263ffffffff1660e01b815260040161250d91906141a3565b60206040518083038186803b15801561252557600080fd5b505afa158015612539573d6000803e3d6000fd5b505050506040513d601f19601f8201168201806040525061255d9190810190612d3f565b1561257a5760405162461bcd60e51b815260040161085f906142a0565b600854604051633a66f90160e01b81526001600160a01b0390911690633a66f901906125b290889088908890889088906004016140ad565b602060405180830381600087803b1580156125cc57600080fd5b505af11580156125e0573d6000803e3d6000fd5b505050506040513d601f19601f820116820180604052506126049190810190612d5d565b505050505050565b828054828255906000526020600020908101928215612661579160200282015b8281111561266157825182546001600160a01b0319166001600160a01b0390911617825560209092019160019091019061262c565b5061266d92915061278a565b5090565b8280548282559060005260206000209081019282156126ac579160200282015b828111156126ac578251825591602001919060010190612691565b5061266d9291506127ae565b828054828255906000526020600020908101928215612705579160200282015b8281111561270557825180516126f59184916020909101906127c8565b50916020019190600101906126d8565b5061266d929150612835565b82805482825590600052602060002090810192821561275e579160200282015b8281111561275e578251805161274e9184916020909101906127c8565b5091602001919060010190612731565b5061266d929150612858565b604080516060810182526000808252602082018190529181019190915290565b61226c91905b8082111561266d5780546001600160a01b0319168155600101612790565b61226c91905b8082111561266d57600081556001016127b4565b828054600181600116156101000203166002900490600052602060002090601f016020900481019282601f1061280957805160ff19168380011785556126ac565b828001600101855582156126ac57918201828111156126ac578251825591602001919060010190612691565b61226c91905b8082111561266d57600061284f828261287b565b5060010161283b565b61226c91905b8082111561266d576000612872828261287b565b5060010161285e565b50805460018160011615610100020316600290046000825580601f106128a157506128bf565b601f0160209004906000526020600020908101906128bf91906127ae565b50565b8035611e8d816147f4565b600082601f8301126128de57600080fd5b81356128f16128ec826146e0565b6146b9565b9150818183526020840193506020810190508385602084028201111561291657600080fd5b60005b83811015612942578161292c88826128c2565b8452506020928301929190910190600101612919565b5050505092915050565b600082601f83011261295d57600080fd5b813561296b6128ec826146e0565b81815260209384019390925082018360005b8381101561294257813586016129938882612a97565b845250602092830192919091019060010161297d565b600082601f8301126129ba57600080fd5b81356129c86128ec826146e0565b81815260209384019390925082018360005b8381101561294257813586016129f08882612a97565b84525060209283019291909101906001016129da565b600082601f830112612a1757600080fd5b8135612a256128ec826146e0565b91508181835260208401935060208101905083856020840282011115612a4a57600080fd5b60005b838110156129425781612a608882612a81565b8452506020928301929190910190600101612a4d565b8051611e8d81614808565b8035611e8d81614811565b8051611e8d81614811565b600082601f830112612aa857600080fd5b8135612ab66128ec82614701565b91508082526020830160208301858383011115612ad257600080fd5b612add8382846147a8565b50505092915050565b600082601f830112612af757600080fd5b8151612b056128ec82614701565b91508082526020830160208301858383011115612b2157600080fd5b612add8382846147b4565b60008083601f840112612b3e57600080fd5b50813567ffffffffffffffff811115612b5657600080fd5b602083019150836001820283011115612b6e57600080fd5b9250929050565b8035611e8d8161481a565b8051611e8d81614823565b600060208284031215612b9d57600080fd5b6000612ba984846128c2565b949350505050565b600080600080600060a08688031215612bc957600080fd5b6000612bd588886128c2565b9550506020612be6888289016128c2565b9450506040612bf788828901612a81565b9350506060612c0888828901612a81565b9250506080612c1988828901612a81565b9150509295509295909350565b60008060408385031215612c3957600080fd5b6000612c4585856128c2565b9250506020612c5685828601612a81565b9150509250929050565b600080600080600060a08688031215612c7857600080fd5b853567ffffffffffffffff811115612c8f57600080fd5b612c9b888289016128cd565b955050602086013567ffffffffffffffff811115612cb857600080fd5b612cc488828901612a06565b945050604086013567ffffffffffffffff811115612ce157600080fd5b612ced888289016129a9565b935050606086013567ffffffffffffffff811115612d0a57600080fd5b612d168882890161294c565b925050608086013567ffffffffffffffff811115612d3357600080fd5b612c1988828901612a97565b600060208284031215612d5157600080fd5b6000612ba98484612a76565b600060208284031215612d6f57600080fd5b6000612ba98484612a8c565b600060208284031215612d8d57600080fd5b815167ffffffffffffffff811115612da457600080fd5b612ba984828501612ae6565b600060208284031215612dc257600080fd5b6000612ba98484612a81565b60008060408385031215612de157600080fd5b6000612ded8585612a81565b9250506020612c56858286016128c2565b60008060408385031215612e1157600080fd5b6000612e1d8585612a81565b9250506020612c5685828601612b75565b60008060008060608587031215612e4457600080fd5b6000612e508787612a81565b9450506020612e6187828801612b75565b935050604085013567ffffffffffffffff811115612e7e57600080fd5b612e8a87828801612b2c565b95989497509550505050565b600080600080600060a08688031215612eae57600080fd5b6000612eba8888612a81565b9550506020612ecb88828901612b75565b9450506040612bf788828901612b75565b600060208284031215612eee57600080fd5b6000612ba98484612b80565b6000612f068383612f35565b505060200190565b600061245983836130d7565b6000612f0683836130bd565b612f2f81614780565b82525050565b612f2f81614748565b6000612f498261473b565b612f53818561473f565b9350612f5e83614729565b8060005b83811015612f8c578151612f768882612efa565b9750612f8183614729565b925050600101612f62565b509495945050505050565b6000612fa28261473b565b612fac818561473f565b935083602082028501612fbe85614729565b8060005b85811015612ff85784840389528151612fdb8582612f0e565b9450612fe683614729565b60209a909a0199925050600101612fc2565b5091979650505050505050565b60006130108261473b565b61301a818561473f565b93508360208202850161302c85614729565b8060005b85811015612ff857848403895281516130498582612f0e565b945061305483614729565b60209a909a0199925050600101613030565b60006130718261473b565b61307b818561473f565b935061308683614729565b8060005b83811015612f8c57815161309e8882612f1a565b97506130a983614729565b92505060010161308a565b612f2f81614753565b612f2f8161226c565b612f2f6130d28261226c565b61226c565b60006130e28261473b565b6130ec818561473f565b93506130fc8185602086016147b4565b613105816147e0565b9093019392505050565b60008154600181166000811461312c576001811461315257613191565b607f600283041661313d818761473f565b60ff1984168152955050602085019250613191565b60028204613160818761473f565b955061316b8561472f565b60005b8281101561318a5781548882015260019091019060200161316e565b8701945050505b505092915050565b612f2f81614787565b612f2f81614792565b60006131b7838561473f565b93506131c48385846147a8565b613105836147e0565b60006131da60328361473f565b7f476f7665726e6f72427261766f3a3a63617374566f7465496e7465726e616c3a81527120696e76616c696420766f7465207479706560701b602082015260400192915050565b600061322e602883610d41565b7f42616c6c6f742875696e743235362070726f706f73616c49642c75696e743820815267737570706f72742960c01b602082015260280192915050565b600061327860338361473f565b7f476f7665726e6f72427261766f3a3a696e697469616c697a653a2063616e206f8152726e6c7920696e697469616c697a65206f6e636560681b602082015260400192915050565b60006132cd602a8361473f565b7f476f7665726e6f72427261766f3a5f73657450656e64696e6741646d696e3a2081526961646d696e206f6e6c7960b01b602082015260400192915050565b600061331960558361473f565b7f476f7665726e6f72427261766f3a3a71756575654f72526576657274496e746581527f726e616c3a206964656e746963616c2070726f706f73616c20616374696f6e20602082015274616c7265616479207175657565642061742065746160581b604082015260600192915050565b6000613396602b8361473f565b7f476f7665726e6f72427261766f3a3a5f736574566f74696e67506572696f643a81526a2061646d696e206f6e6c7960a81b602082015260400192915050565b60006133e360338361473f565b60008051602061482d83398151915281527269642074696d656c6f636b206164647265737360681b602082015260400192915050565b6000613426602a8361473f565b7f476f7665726e6f72427261766f3a3a5f736574566f74696e6744656c61793a2081526961646d696e206f6e6c7960b01b602082015260400192915050565b600061347260318361473f565b7f476f7665726e6f72427261766f3a3a70726f706f73653a20476f7665726e6f7281527020427261766f206e6f742061637469766560781b602082015260400192915050565b60006134c5600283610d41565b61190160f01b815260020192915050565b60006134e360368361473f565b7f476f7665726e6f72427261766f3a3a5f736574566f74696e67506572696f643a815275081a5b9d985b1a59081d9bdd1a5b99c81c195c9a5bd960521b602082015260400192915050565b600061353b60318361473f565b7f476f7665726e6f72427261766f3a3a63617374566f7465496e7465726e616c3a815270081d9bdd1a5b99c81a5cc818db1bdcd959607a1b602082015260400192915050565b600061358e60348361473f565b7f476f7665726e6f72427261766f3a3a63617374566f7465496e7465726e616c3a815273081d9bdd195c88185b1c9958591e481d9bdd195960621b602082015260400192915050565b60006135e460348361473f565b7f476f7665726e6f72427261766f3a3a5f736574566f74696e6744656c61793a20815273696e76616c696420766f74696e672064656c617960601b602082015260400192915050565b600061363a60358361473f565b60008051602061482d8339815191528152741a59081c1c9bdc1bdcd85b081d1a1c995cda1bdb19605a1b602082015260400192915050565b600061367f602b8361473f565b7f476f7665726e6f72427261766f3a3a70726f706f73653a2050726f706f73616c81526a24a21031b7b63639b4b7b760a91b602082015260400192915050565b60006136cc60458361473f565b7f476f7665726e6f72427261766f3a3a657865637574653a2070726f706f73616c81527f2063616e206f6e6c7920626520657865637574656420696620697420697320716020820152641d595d595960da1b604082015260600192915050565b6000613739602f8361473f565b7f476f7665726e6f72427261766f3a3a63617374566f746542795369673a20696e81526e76616c6964207369676e617475726560881b602082015260400192915050565b600061378a602f8361473f565b60008051602061482d83398151915281526e696420766f74696e672064656c617960881b602082015260400192915050565b60006137c960308361473f565b7f476f7665726e6f72427261766f3a3a5f73657457686974656c6973744775617281526f6469616e3a2061646d696e206f6e6c7960801b602082015260400192915050565b600061381b60448361473f565b7f476f7665726e6f72427261766f3a3a70726f706f73653a2070726f706f73616c81527f2066756e6374696f6e20696e666f726d6174696f6e206172697479206d69736d6020820152630c2e8c6d60e31b604082015260600192915050565b600061388760258361473f565b7f476f7665726e6f72427261766f3a3a696e697469616c697a653a2061646d696e815264206f6e6c7960d81b602082015260400192915050565b60006138ce60408361473f565b7f476f7665726e6f72427261766f3a3a5f73657450726f706f73616c546872657381527f686f6c643a20696e76616c69642070726f706f73616c207468726573686f6c64602082015260400192915050565b600061392d60448361473f565b7f476f7665726e6f72427261766f3a3a71756575653a2070726f706f73616c206381527f616e206f6e6c79206265207175657565642069662069742069732073756363656020820152631959195960e21b604082015260600192915050565b600061399960118361473f565b706164646974696f6e206f766572666c6f7760781b815260200192915050565b60006139c6604383610d41565b7f454950373132446f6d61696e28737472696e67206e616d652c75696e7432353681527f20636861696e49642c6164647265737320766572696679696e67436f6e74726160208201526263742960e81b604082015260430192915050565b6000613a3160308361473f565b7f476f7665726e6f72427261766f3a3a5f696e6974696174653a2063616e206f6e81526f6c7920696e697469617465206f6e636560801b602082015260400192915050565b6000613a83602c8361473f565b7f476f7665726e6f72427261766f3a3a70726f706f73653a206d7573742070726f81526b7669646520616374696f6e7360a01b602082015260400192915050565b6000613ad1602e8361473f565b7f476f7665726e6f72427261766f3a5f61636365707441646d696e3a2070656e6481526d696e672061646d696e206f6e6c7960901b602082015260400192915050565b6000613b21602f8361473f565b60008051602061482d83398151915281526e696420636f6d70206164647265737360881b602082015260400192915050565b6000613b60602f8361473f565b7f476f7665726e6f72427261766f3a3a63616e63656c3a2070726f706f7365722081526e18589bdd99481d1a1c995cda1bdb19608a1b602082015260400192915050565b6000613bb160288361473f565b7f476f7665726e6f72427261766f3a3a70726f706f73653a20746f6f206d616e7981526720616374696f6e7360c01b602082015260400192915050565b6000613bfb60598361473f565b7f476f7665726e6f72427261766f3a3a70726f706f73653a206f6e65206c69766581527f2070726f706f73616c207065722070726f706f7365722c20666f756e6420616e60208201527f20616c72656164792070656e64696e672070726f706f73616c00000000000000604082015260600192915050565b6000613c8060588361473f565b7f476f7665726e6f72427261766f3a3a70726f706f73653a206f6e65206c69766581527f2070726f706f73616c207065722070726f706f7365722c20666f756e6420616e60208201527f20616c7265616479206163746976652070726f706f73616c0000000000000000604082015260600192915050565b6000611e8d60008361473f565b6000613d1260248361473f565b7f476f7665726e6f72427261766f3a3a5f696e6974696174653a2061646d696e208152636f6e6c7960e01b602082015260400192915050565b6000613d58603f8361473f565b7f476f7665726e6f72427261766f3a3a70726f706f73653a2070726f706f73657281527f20766f7465732062656c6f772070726f706f73616c207468726573686f6c6400602082015260400192915050565b6000613db760398361473f565b7f476f7665726e6f72427261766f3a3a5f73657457686974656c6973744163636f81527f756e7445787069726174696f6e3a2061646d696e206f6e6c7900000000000000602082015260400192915050565b6000613e1660368361473f565b7f476f7665726e6f72427261766f3a3a63616e63656c3a2063616e6e6f742063618152751b98d95b08195e1958dd5d1959081c1c9bdc1bdcd85b60521b602082015260400192915050565b6000613e6e60308361473f565b7f476f7665726e6f72427261766f3a3a5f73657450726f706f73616c546872657381526f686f6c643a2061646d696e206f6e6c7960801b602082015260400192915050565b6000613ec060298361473f565b7f476f7665726e6f72427261766f3a3a73746174653a20696e76616c69642070728152681bdc1bdcd85b081a5960ba1b602082015260400192915050565b6000613f0b60308361473f565b60008051602061482d83398151915281526f1a59081d9bdd1a5b99c81c195c9a5bd960821b602082015260400192915050565b6000613f4b60158361473f565b747375627472616374696f6e20756e646572666c6f7760581b815260200192915050565b6000613f7c602b8361473f565b7f476f7665726e6f72427261766f3a3a63616e63656c3a2077686974656c69737481526a32b210383937b837b9b2b960a91b602082015260400192915050565b80516060830190613fcd84826130b4565b506020820151613fe06020850182613ff9565b506040820151613ff3604085018261400b565b50505050565b612f2f8161476e565b612f2f8161479d565b612f2f81614774565b6000611e8d82613221565b600061402a826134b8565b915061403682856130c6565b60208201915061404682846130c6565b5060200192915050565b6000611e8d826139b9565b60208101611e8d8284612f35565b604081016140778285612f26565b61245960208301846130bd565b604081016140928285612f35565b6124596020830184612f35565b604081016140778285612f35565b60a081016140bb8288612f35565b6140c860208301876130bd565b81810360408301526140da81866130d7565b905081810360608301526140ee81856130d7565b90506140fd60808301846130bd565b9695505050505050565b60a081016141158288612f35565b61412260208301876130bd565b8181036040830152614134818661310f565b905081810360608301526140ee818561310f565b608080825281016141598187612f3e565b9050818103602083015261416d8186613066565b905081810360408301526141818185613005565b905081810360608301526140fd8184612f97565b60208101611e8d82846130b4565b60208101611e8d82846130bd565b608081016141bf82876130bd565b6141cc60208301866130bd565b6141d960408301856130bd565b611b956060830184612f35565b606081016141f482866130bd565b61420160208301856130bd565b612ba96040830184613ff9565b6080810161421c82876130bd565b6142296020830186613ff9565b61423660408301856130bd565b611b9560608301846130bd565b60208101611e8d8284613199565b60208101611e8d82846131a2565b6020808252810161245981846130d7565b60208082528101611e8d816131cd565b60208082528101611e8d8161326b565b60208082528101611e8d816132c0565b60208082528101611e8d8161330c565b60208082528101611e8d81613389565b60208082528101611e8d816133d6565b60208082528101611e8d81613419565b60208082528101611e8d81613465565b60208082528101611e8d816134d6565b60208082528101611e8d8161352e565b60208082528101611e8d81613581565b60208082528101611e8d816135d7565b60208082528101611e8d8161362d565b60208082528101611e8d81613672565b60208082528101611e8d816136bf565b60208082528101611e8d8161372c565b60208082528101611e8d8161377d565b60208082528101611e8d816137bc565b60208082528101611e8d8161380e565b60208082528101611e8d8161387a565b60208082528101611e8d816138c1565b60208082528101611e8d81613920565b60208082528101611e8d8161398c565b60208082528101611e8d81613a24565b60208082528101611e8d81613a76565b60208082528101611e8d81613ac4565b60208082528101611e8d81613b14565b60208082528101611e8d81613b53565b60208082528101611e8d81613ba4565b60208082528101611e8d81613bee565b60208082528101611e8d81613c73565b60208082528101611e8d81613d05565b60208082528101611e8d81613d4b565b60208082528101611e8d81613daa565b60208082528101611e8d81613e09565b60208082528101611e8d81613e61565b60208082528101611e8d81613eb3565b60208082528101611e8d81613efe565b60208082528101611e8d81613f3e565b60208082528101611e8d81613f6f565b60608101611e8d8284613fbc565b610120810161450d828c6130bd565b61451a602083018b612f26565b818103604083015261452c818a612f3e565b905081810360608301526145408189613066565b905081810360808301526145548188613005565b905081810360a08301526145688187612f97565b905061457760c08301866130bd565b61458460e08301856130bd565b81810361010083015261459781846130d7565b9b9a5050505050505050505050565b61014081016145b5828d6130bd565b6145c2602083018c612f35565b6145cf604083018b6130bd565b6145dc606083018a6130bd565b6145e960808301896130bd565b6145f660a08301886130bd565b61460360c08301876130bd565b61461060e08301866130bd565b61461e6101008301856130b4565b6145976101208301846130b4565b6040810161407782856130bd565b6080810161464882886130bd565b6146556020830187613ff9565b6146626040830186614002565b81810360608301526146758184866131ab565b979650505050505050565b6080810161468e82866130bd565b61469b6020830185613ff9565b6146a86040830184614002565b8181036060830152611b9581613cf8565b60405181810167ffffffffffffffff811182821017156146d857600080fd5b604052919050565b600067ffffffffffffffff8211156146f757600080fd5b5060209081020190565b600067ffffffffffffffff82111561471857600080fd5b506020601f91909101601f19160190565b60200190565b60009081526020902090565b5190565b90815260200190565b6000611e8d82614762565b151590565b80610d41816147ea565b6001600160a01b031690565b60ff1690565b6001600160601b031690565b6000611e8d825b6000611e8d82614748565b6000611e8d82614758565b6000611e8d82614774565b82818337506000910152565b60005b838110156147cf5781810151838201526020016147b7565b83811115613ff35750506000910152565b601f01601f191690565b600881106128bf57fe5b6147fd81614748565b81146128bf57600080fd5b6147fd81614753565b6147fd8161226c565b6147fd8161476e565b6147fd8161477456fe476f7665726e6f72427261766f3a3a696e697469616c697a653a20696e76616ca365627a7a72315820dd3a5527845f6059ba9f6ca480a722118ec274be97d6e5984aa4d2c547b9c0796c6578706572696d656e74616cf564736f6c63430005100040","opcodes":"PUSH1 0x80 PUSH1 0x40 MSTORE CALLVALUE DUP1 ISZERO PUSH2 0x10 JUMPI PUSH1 0x0 DUP1 REVERT JUMPDEST POP PUSH2 0x488F DUP1 PUSH2 0x20 PUSH1 0x0 CODECOPY PUSH1 0x0 RETURN INVALID PUSH1 0x80 PUSH1 0x40 MSTORE PUSH1 0x4 CALLDATASIZE LT PUSH2 0x272 JUMPI PUSH1 0x0 CALLDATALOAD PUSH1 0xE0 SHR DUP1 PUSH4 0x5C60DA1B GT PUSH2 0x14F JUMPI DUP1 PUSH4 0xD33219B4 GT PUSH2 0xC1 JUMPI DUP1 PUSH4 0xE48083FE GT PUSH2 0x7A JUMPI DUP1 PUSH4 0xE48083FE EQ PUSH2 0x712 JUMPI DUP1 PUSH4 0xE9C714F2 EQ PUSH2 0x727 JUMPI DUP1 PUSH4 0xF851A440 EQ PUSH2 0x73C JUMPI DUP1 PUSH4 0xF9D28B80 EQ PUSH2 0x751 JUMPI DUP1 PUSH4 0xFC4EEE42 EQ PUSH2 0x771 JUMPI DUP1 PUSH4 0xFE0D94C1 EQ PUSH2 0x786 JUMPI PUSH2 0x272 JUMP JUMPDEST DUP1 PUSH4 0xD33219B4 EQ PUSH2 0x666 JUMPI DUP1 PUSH4 0xDA35C664 EQ PUSH2 0x67B JUMPI DUP1 PUSH4 0xDA95691A EQ PUSH2 0x690 JUMPI DUP1 PUSH4 0xDDF0B009 EQ PUSH2 0x6B0 JUMPI DUP1 PUSH4 0xDEAAA7CC EQ PUSH2 0x6D0 JUMPI DUP1 PUSH4 0xE23A9A52 EQ PUSH2 0x6E5 JUMPI PUSH2 0x272 JUMP JUMPDEST DUP1 PUSH4 0xA64E024A GT PUSH2 0x113 JUMPI DUP1 PUSH4 0xA64E024A EQ PUSH2 0x5D2 JUMPI DUP1 PUSH4 0xB1126263 EQ PUSH2 0x5E7 JUMPI DUP1 PUSH4 0xB58131B0 EQ PUSH2 0x5FC JUMPI DUP1 PUSH4 0xB71D1A0C EQ PUSH2 0x611 JUMPI DUP1 PUSH4 0xC5A8425D EQ PUSH2 0x631 JUMPI DUP1 PUSH4 0xD13F90B4 EQ PUSH2 0x646 JUMPI PUSH2 0x272 JUMP JUMPDEST DUP1 PUSH4 0x5C60DA1B EQ PUSH2 0x553 JUMPI DUP1 PUSH4 0x791F5D23 EQ PUSH2 0x568 JUMPI DUP1 PUSH4 0x7B3C71D3 EQ PUSH2 0x57D JUMPI DUP1 PUSH4 0x7BDBE4D0 EQ PUSH2 0x59D JUMPI DUP1 PUSH4 0x99533365 EQ PUSH2 0x5B2 JUMPI PUSH2 0x272 JUMP JUMPDEST DUP1 PUSH4 0x25FD935A GT PUSH2 0x1E8 JUMPI DUP1 PUSH4 0x3AF32ABF GT PUSH2 0x1AC JUMPI DUP1 PUSH4 0x3AF32ABF EQ PUSH2 0x479 JUMPI DUP1 PUSH4 0x3BCCF4FD EQ PUSH2 0x4A6 JUMPI DUP1 PUSH4 0x3E4F49E6 EQ PUSH2 0x4C6 JUMPI DUP1 PUSH4 0x40E58EE5 EQ PUSH2 0x4F3 JUMPI DUP1 PUSH4 0x4D6733D2 EQ PUSH2 0x513 JUMPI DUP1 PUSH4 0x56781388 EQ PUSH2 0x533 JUMPI PUSH2 0x272 JUMP JUMPDEST DUP1 PUSH4 0x25FD935A EQ PUSH2 0x3DD JUMPI DUP1 PUSH4 0x26782247 EQ PUSH2 0x3F2 JUMPI DUP1 PUSH4 0x328DD982 EQ PUSH2 0x414 JUMPI DUP1 PUSH4 0x38BD0DDA EQ PUSH2 0x444 JUMPI DUP1 PUSH4 0x3932ABB1 EQ PUSH2 0x464 JUMPI PUSH2 0x272 JUMP JUMPDEST DUP1 PUSH4 0x17977C61 GT PUSH2 0x23A JUMPI DUP1 PUSH4 0x17977C61 EQ PUSH2 0x33E JUMPI DUP1 PUSH4 0x17BA1B8B EQ PUSH2 0x35E JUMPI DUP1 PUSH4 0x1DFB1B5A EQ PUSH2 0x37E JUMPI DUP1 PUSH4 0x20606B70 EQ PUSH2 0x39E JUMPI DUP1 PUSH4 0x215809CA EQ PUSH2 0x3B3 JUMPI DUP1 PUSH4 0x24BC1A64 EQ PUSH2 0x3C8 JUMPI PUSH2 0x272 JUMP JUMPDEST DUP1 PUSH4 0x13CF08B EQ PUSH2 0x277 JUMPI DUP1 PUSH4 0x2A251A3 EQ PUSH2 0x2B6 JUMPI DUP1 PUSH4 0x6FDDE03 EQ PUSH2 0x2D8 JUMPI DUP1 PUSH4 0xEA2D98C EQ PUSH2 0x2FA JUMPI DUP1 PUSH4 0x109D0AF8 EQ PUSH2 0x31C JUMPI JUMPDEST PUSH1 0x0 DUP1 REVERT JUMPDEST CALLVALUE DUP1 ISZERO PUSH2 0x283 JUMPI PUSH1 0x0 DUP1 REVERT JUMPDEST POP PUSH2 0x297 PUSH2 0x292 CALLDATASIZE PUSH1 0x4 PUSH2 0x2DB0 JUMP JUMPDEST PUSH2 0x799 JUMP JUMPDEST PUSH1 0x40 MLOAD PUSH2 0x2AD SWAP11 SWAP10 SWAP9 SWAP8 SWAP7 SWAP6 SWAP5 SWAP4 SWAP3 SWAP2 SWAP1 PUSH2 0x45A6 JUMP JUMPDEST PUSH1 0x40 MLOAD DUP1 SWAP2 SUB SWAP1 RETURN JUMPDEST CALLVALUE DUP1 ISZERO PUSH2 0x2C2 JUMPI PUSH1 0x0 DUP1 REVERT JUMPDEST POP PUSH2 0x2CB PUSH2 0x7FC JUMP JUMPDEST PUSH1 0x40 MLOAD PUSH2 0x2AD SWAP2 SWAP1 PUSH2 0x41A3 JUMP JUMPDEST CALLVALUE DUP1 ISZERO PUSH2 0x2E4 JUMPI PUSH1 0x0 DUP1 REVERT JUMPDEST POP PUSH2 0x2ED PUSH2 0x802 JUMP JUMPDEST PUSH1 0x40 MLOAD PUSH2 0x2AD SWAP2 SWAP1 PUSH2 0x425F JUMP JUMPDEST CALLVALUE DUP1 ISZERO PUSH2 0x306 JUMPI PUSH1 0x0 DUP1 REVERT JUMPDEST POP PUSH2 0x31A PUSH2 0x315 CALLDATASIZE PUSH1 0x4 PUSH2 0x2DB0 JUMP JUMPDEST PUSH2 0x835 JUMP JUMPDEST STOP JUMPDEST CALLVALUE DUP1 ISZERO PUSH2 0x328 JUMPI PUSH1 0x0 DUP1 REVERT JUMPDEST POP PUSH2 0x331 PUSH2 0x8DF JUMP JUMPDEST PUSH1 0x40 MLOAD PUSH2 0x2AD SWAP2 SWAP1 PUSH2 0x4243 JUMP JUMPDEST CALLVALUE DUP1 ISZERO PUSH2 0x34A JUMPI PUSH1 0x0 DUP1 REVERT JUMPDEST POP PUSH2 0x2CB PUSH2 0x359 CALLDATASIZE PUSH1 0x4 PUSH2 0x2B8B JUMP JUMPDEST PUSH2 0x8EE JUMP JUMPDEST CALLVALUE DUP1 ISZERO PUSH2 0x36A JUMPI PUSH1 0x0 DUP1 REVERT JUMPDEST POP PUSH2 0x31A PUSH2 0x379 CALLDATASIZE PUSH1 0x4 PUSH2 0x2DB0 JUMP JUMPDEST PUSH2 0x900 JUMP JUMPDEST CALLVALUE DUP1 ISZERO PUSH2 0x38A JUMPI PUSH1 0x0 DUP1 REVERT JUMPDEST POP PUSH2 0x31A PUSH2 0x399 CALLDATASIZE PUSH1 0x4 PUSH2 0x2DB0 JUMP JUMPDEST PUSH2 0x9A3 JUMP JUMPDEST CALLVALUE DUP1 ISZERO PUSH2 0x3AA JUMPI PUSH1 0x0 DUP1 REVERT JUMPDEST POP PUSH2 0x2CB PUSH2 0xA36 JUMP JUMPDEST CALLVALUE DUP1 ISZERO PUSH2 0x3BF JUMPI PUSH1 0x0 DUP1 REVERT JUMPDEST POP PUSH2 0x2CB PUSH2 0xA4D JUMP JUMPDEST CALLVALUE DUP1 ISZERO PUSH2 0x3D4 JUMPI PUSH1 0x0 DUP1 REVERT JUMPDEST POP PUSH2 0x2CB PUSH2 0xA53 JUMP JUMPDEST CALLVALUE DUP1 ISZERO PUSH2 0x3E9 JUMPI PUSH1 0x0 DUP1 REVERT JUMPDEST POP PUSH2 0x2CB PUSH2 0xA61 JUMP JUMPDEST CALLVALUE DUP1 ISZERO PUSH2 0x3FE JUMPI PUSH1 0x0 DUP1 REVERT JUMPDEST POP PUSH2 0x407 PUSH2 0xA6F JUMP JUMPDEST PUSH1 0x40 MLOAD PUSH2 0x2AD SWAP2 SWAP1 PUSH2 0x405B JUMP JUMPDEST CALLVALUE DUP1 ISZERO PUSH2 0x420 JUMPI PUSH1 0x0 DUP1 REVERT JUMPDEST POP PUSH2 0x434 PUSH2 0x42F CALLDATASIZE PUSH1 0x4 PUSH2 0x2DB0 JUMP JUMPDEST PUSH2 0xA7E JUMP JUMPDEST PUSH1 0x40 MLOAD PUSH2 0x2AD SWAP5 SWAP4 SWAP3 SWAP2 SWAP1 PUSH2 0x4148 JUMP JUMPDEST CALLVALUE DUP1 ISZERO PUSH2 0x450 JUMPI PUSH1 0x0 DUP1 REVERT JUMPDEST POP PUSH2 0x2CB PUSH2 0x45F CALLDATASIZE PUSH1 0x4 PUSH2 0x2B8B JUMP JUMPDEST PUSH2 0xD0D JUMP JUMPDEST CALLVALUE DUP1 ISZERO PUSH2 0x470 JUMPI PUSH1 0x0 DUP1 REVERT JUMPDEST POP PUSH2 0x2CB PUSH2 0xD1F JUMP JUMPDEST CALLVALUE DUP1 ISZERO PUSH2 0x485 JUMPI PUSH1 0x0 DUP1 REVERT JUMPDEST POP PUSH2 0x499 PUSH2 0x494 CALLDATASIZE PUSH1 0x4 PUSH2 0x2B8B JUMP JUMPDEST PUSH2 0xD25 JUMP JUMPDEST PUSH1 0x40 MLOAD PUSH2 0x2AD SWAP2 SWAP1 PUSH2 0x4195 JUMP JUMPDEST CALLVALUE DUP1 ISZERO PUSH2 0x4B2 JUMPI PUSH1 0x0 DUP1 REVERT JUMPDEST POP PUSH2 0x31A PUSH2 0x4C1 CALLDATASIZE PUSH1 0x4 PUSH2 0x2E96 JUMP JUMPDEST PUSH2 0xD46 JUMP JUMPDEST CALLVALUE DUP1 ISZERO PUSH2 0x4D2 JUMPI PUSH1 0x0 DUP1 REVERT JUMPDEST POP PUSH2 0x4E6 PUSH2 0x4E1 CALLDATASIZE PUSH1 0x4 PUSH2 0x2DB0 JUMP JUMPDEST PUSH2 0xF21 JUMP JUMPDEST PUSH1 0x40 MLOAD PUSH2 0x2AD SWAP2 SWAP1 PUSH2 0x4251 JUMP JUMPDEST CALLVALUE DUP1 ISZERO PUSH2 0x4FF JUMPI PUSH1 0x0 DUP1 REVERT JUMPDEST POP PUSH2 0x31A PUSH2 0x50E CALLDATASIZE PUSH1 0x4 PUSH2 0x2DB0 JUMP JUMPDEST PUSH2 0x10A6 JUMP JUMPDEST CALLVALUE DUP1 ISZERO PUSH2 0x51F JUMPI PUSH1 0x0 DUP1 REVERT JUMPDEST POP PUSH2 0x31A PUSH2 0x52E CALLDATASIZE PUSH1 0x4 PUSH2 0x2C26 JUMP JUMPDEST PUSH2 0x13ED JUMP JUMPDEST CALLVALUE DUP1 ISZERO PUSH2 0x53F JUMPI PUSH1 0x0 DUP1 REVERT JUMPDEST POP PUSH2 0x31A PUSH2 0x54E CALLDATASIZE PUSH1 0x4 PUSH2 0x2DFE JUMP JUMPDEST PUSH2 0x1479 JUMP JUMPDEST CALLVALUE DUP1 ISZERO PUSH2 0x55F JUMPI PUSH1 0x0 DUP1 REVERT JUMPDEST POP PUSH2 0x407 PUSH2 0x14C3 JUMP JUMPDEST CALLVALUE DUP1 ISZERO PUSH2 0x574 JUMPI PUSH1 0x0 DUP1 REVERT JUMPDEST POP PUSH2 0x2CB PUSH2 0x14D2 JUMP JUMPDEST CALLVALUE DUP1 ISZERO PUSH2 0x589 JUMPI PUSH1 0x0 DUP1 REVERT JUMPDEST POP PUSH2 0x31A PUSH2 0x598 CALLDATASIZE PUSH1 0x4 PUSH2 0x2E2E JUMP JUMPDEST PUSH2 0x14DF JUMP JUMPDEST CALLVALUE DUP1 ISZERO PUSH2 0x5A9 JUMPI PUSH1 0x0 DUP1 REVERT JUMPDEST POP PUSH2 0x2CB PUSH2 0x152F JUMP JUMPDEST CALLVALUE DUP1 ISZERO PUSH2 0x5BE JUMPI PUSH1 0x0 DUP1 REVERT JUMPDEST POP PUSH2 0x31A PUSH2 0x5CD CALLDATASIZE PUSH1 0x4 PUSH2 0x2B8B JUMP JUMPDEST PUSH2 0x1534 JUMP JUMPDEST CALLVALUE DUP1 ISZERO PUSH2 0x5DE JUMPI PUSH1 0x0 DUP1 REVERT JUMPDEST POP PUSH2 0x2CB PUSH2 0x15B3 JUMP JUMPDEST CALLVALUE DUP1 ISZERO PUSH2 0x5F3 JUMPI PUSH1 0x0 DUP1 REVERT JUMPDEST POP PUSH2 0x2CB PUSH2 0x15BA JUMP JUMPDEST CALLVALUE DUP1 ISZERO PUSH2 0x608 JUMPI PUSH1 0x0 DUP1 REVERT JUMPDEST POP PUSH2 0x2CB PUSH2 0x15C0 JUMP JUMPDEST CALLVALUE DUP1 ISZERO PUSH2 0x61D JUMPI PUSH1 0x0 DUP1 REVERT JUMPDEST POP PUSH2 0x31A PUSH2 0x62C CALLDATASIZE PUSH1 0x4 PUSH2 0x2B8B JUMP JUMPDEST PUSH2 0x15C6 JUMP JUMPDEST CALLVALUE DUP1 ISZERO PUSH2 0x63D JUMPI PUSH1 0x0 DUP1 REVERT JUMPDEST POP PUSH2 0x407 PUSH2 0x1643 JUMP JUMPDEST CALLVALUE DUP1 ISZERO PUSH2 0x652 JUMPI PUSH1 0x0 DUP1 REVERT JUMPDEST POP PUSH2 0x31A PUSH2 0x661 CALLDATASIZE PUSH1 0x4 PUSH2 0x2BB1 JUMP JUMPDEST PUSH2 0x1652 JUMP JUMPDEST CALLVALUE DUP1 ISZERO PUSH2 0x672 JUMPI PUSH1 0x0 DUP1 REVERT JUMPDEST POP PUSH2 0x331 PUSH2 0x17CE JUMP JUMPDEST CALLVALUE DUP1 ISZERO PUSH2 0x687 JUMPI PUSH1 0x0 DUP1 REVERT JUMPDEST POP PUSH2 0x2CB PUSH2 0x17DD JUMP JUMPDEST CALLVALUE DUP1 ISZERO PUSH2 0x69C JUMPI PUSH1 0x0 DUP1 REVERT JUMPDEST POP PUSH2 0x2CB PUSH2 0x6AB CALLDATASIZE PUSH1 0x4 PUSH2 0x2C60 JUMP JUMPDEST PUSH2 0x17E3 JUMP JUMPDEST CALLVALUE DUP1 ISZERO PUSH2 0x6BC JUMPI PUSH1 0x0 DUP1 REVERT JUMPDEST POP PUSH2 0x31A PUSH2 0x6CB CALLDATASIZE PUSH1 0x4 PUSH2 0x2DB0 JUMP JUMPDEST PUSH2 0x1B9E JUMP JUMPDEST CALLVALUE DUP1 ISZERO PUSH2 0x6DC JUMPI PUSH1 0x0 DUP1 REVERT JUMPDEST POP PUSH2 0x2CB PUSH2 0x1E1A JUMP JUMPDEST CALLVALUE DUP1 ISZERO PUSH2 0x6F1 JUMPI PUSH1 0x0 DUP1 REVERT JUMPDEST POP PUSH2 0x705 PUSH2 0x700 CALLDATASIZE PUSH1 0x4 PUSH2 0x2DCE JUMP JUMPDEST PUSH2 0x1E26 JUMP JUMPDEST PUSH1 0x40 MLOAD PUSH2 0x2AD SWAP2 SWAP1 PUSH2 0x44F0 JUMP JUMPDEST CALLVALUE DUP1 ISZERO PUSH2 0x71E JUMPI PUSH1 0x0 DUP1 REVERT JUMPDEST POP PUSH2 0x2CB PUSH2 0x1E93 JUMP JUMPDEST CALLVALUE DUP1 ISZERO PUSH2 0x733 JUMPI PUSH1 0x0 DUP1 REVERT JUMPDEST POP PUSH2 0x31A PUSH2 0x1E98 JUMP JUMPDEST CALLVALUE DUP1 ISZERO PUSH2 0x748 JUMPI PUSH1 0x0 DUP1 REVERT JUMPDEST POP PUSH2 0x407 PUSH2 0x1F76 JUMP JUMPDEST CALLVALUE DUP1 ISZERO PUSH2 0x75D JUMPI PUSH1 0x0 DUP1 REVERT JUMPDEST POP PUSH2 0x31A PUSH2 0x76C CALLDATASIZE PUSH1 0x4 PUSH2 0x2B8B JUMP JUMPDEST PUSH2 0x1F85 JUMP JUMPDEST CALLVALUE DUP1 ISZERO PUSH2 0x77D JUMPI PUSH1 0x0 DUP1 REVERT JUMPDEST POP PUSH2 0x2CB PUSH2 0x20AB JUMP JUMPDEST PUSH2 0x31A PUSH2 0x794 CALLDATASIZE PUSH1 0x4 PUSH2 0x2DB0 JUMP JUMPDEST PUSH2 0x20B1 JUMP JUMPDEST PUSH1 0xA PUSH1 0x20 DUP2 SWAP1 MSTORE PUSH1 0x0 SWAP2 DUP3 MSTORE PUSH1 0x40 SWAP1 SWAP2 KECCAK256 DUP1 SLOAD PUSH1 0x1 DUP3 ADD SLOAD PUSH1 0x2 DUP4 ADD SLOAD PUSH1 0x7 DUP5 ADD SLOAD PUSH1 0x8 DUP6 ADD SLOAD PUSH1 0x9 DUP7 ADD SLOAD SWAP7 DUP7 ADD SLOAD PUSH1 0xB DUP8 ADD SLOAD PUSH1 0xC SWAP1 SWAP8 ADD SLOAD SWAP6 SWAP8 PUSH1 0x1 PUSH1 0x1 PUSH1 0xA0 SHL SUB SWAP1 SWAP6 AND SWAP7 SWAP4 SWAP6 SWAP3 SWAP5 SWAP2 SWAP4 SWAP2 SWAP3 SWAP1 SWAP2 SWAP1 PUSH1 0xFF DUP1 DUP3 AND SWAP2 PUSH2 0x100 SWAP1 DIV AND DUP11 JUMP JUMPDEST PUSH1 0x4 SLOAD DUP2 JUMP JUMPDEST PUSH1 0x40 MLOAD DUP1 PUSH1 0x40 ADD PUSH1 0x40 MSTORE DUP1 PUSH1 0x17 DUP2 MSTORE PUSH1 0x20 ADD PUSH23 0x436F6D706F756E6420476F7665726E6F7220427261766F PUSH1 0x48 SHL DUP2 MSTORE POP DUP2 JUMP JUMPDEST PUSH1 0x0 SLOAD PUSH1 0x1 PUSH1 0x1 PUSH1 0xA0 SHL SUB AND CALLER EQ PUSH2 0x868 JUMPI PUSH1 0x40 MLOAD PUSH3 0x461BCD PUSH1 0xE5 SHL DUP2 MSTORE PUSH1 0x4 ADD PUSH2 0x85F SWAP1 PUSH2 0x42B0 JUMP JUMPDEST PUSH1 0x40 MLOAD DUP1 SWAP2 SUB SWAP1 REVERT JUMPDEST PUSH2 0x1680 DUP2 LT ISZERO DUP1 ISZERO PUSH2 0x87D JUMPI POP PUSH3 0x13B00 DUP2 GT ISZERO JUMPDEST PUSH2 0x899 JUMPI PUSH1 0x40 MLOAD PUSH3 0x461BCD PUSH1 0xE5 SHL DUP2 MSTORE PUSH1 0x4 ADD PUSH2 0x85F SWAP1 PUSH2 0x42F0 JUMP JUMPDEST PUSH1 0x4 DUP1 SLOAD SWAP1 DUP3 SWAP1 SSTORE PUSH1 0x40 MLOAD PUSH32 0x7E3F7F0708A84DE9203036ABAA450DCCC85AD5FF52F78C170F3EDB55CF5E8828 SWAP1 PUSH2 0x8D3 SWAP1 DUP4 SWAP1 DUP6 SWAP1 PUSH2 0x462C JUMP JUMPDEST PUSH1 0x40 MLOAD DUP1 SWAP2 SUB SWAP1 LOG1 POP POP JUMP JUMPDEST PUSH1 0x9 SLOAD PUSH1 0x1 PUSH1 0x1 PUSH1 0xA0 SHL SUB AND DUP2 JUMP JUMPDEST PUSH1 0xB PUSH1 0x20 MSTORE PUSH1 0x0 SWAP1 DUP2 MSTORE PUSH1 0x40 SWAP1 KECCAK256 SLOAD DUP2 JUMP JUMPDEST PUSH1 0x0 SLOAD PUSH1 0x1 PUSH1 0x1 PUSH1 0xA0 SHL SUB AND CALLER EQ PUSH2 0x92A JUMPI PUSH1 0x40 MLOAD PUSH3 0x461BCD PUSH1 0xE5 SHL DUP2 MSTORE PUSH1 0x4 ADD PUSH2 0x85F SWAP1 PUSH2 0x44A0 JUMP JUMPDEST PUSH9 0x3635C9ADC5DEA00000 DUP2 LT ISZERO DUP1 ISZERO PUSH2 0x94D JUMPI POP PUSH10 0x152D02C7E14AF6800000 DUP2 GT ISZERO JUMPDEST PUSH2 0x969 JUMPI PUSH1 0x40 MLOAD PUSH3 0x461BCD PUSH1 0xE5 SHL DUP2 MSTORE PUSH1 0x4 ADD PUSH2 0x85F SWAP1 PUSH2 0x43B0 JUMP JUMPDEST PUSH1 0x5 DUP1 SLOAD SWAP1 DUP3 SWAP1 SSTORE PUSH1 0x40 MLOAD PUSH32 0xCCB45DA8D5717E6C4544694297C4BA5CF151D455C9BB0ED4FC7A38411BC05461 SWAP1 PUSH2 0x8D3 SWAP1 DUP4 SWAP1 DUP6 SWAP1 PUSH2 0x462C JUMP JUMPDEST PUSH1 0x0 SLOAD PUSH1 0x1 PUSH1 0x1 PUSH1 0xA0 SHL SUB AND CALLER EQ PUSH2 0x9CD JUMPI PUSH1 0x40 MLOAD PUSH3 0x461BCD PUSH1 0xE5 SHL DUP2 MSTORE PUSH1 0x4 ADD PUSH2 0x85F SWAP1 PUSH2 0x42D0 JUMP JUMPDEST PUSH1 0x1 DUP2 LT ISZERO DUP1 ISZERO PUSH2 0x9E0 JUMPI POP PUSH2 0x9D80 DUP2 GT ISZERO JUMPDEST PUSH2 0x9FC JUMPI PUSH1 0x40 MLOAD PUSH3 0x461BCD PUSH1 0xE5 SHL DUP2 MSTORE PUSH1 0x4 ADD PUSH2 0x85F SWAP1 PUSH2 0x4320 JUMP JUMPDEST PUSH1 0x3 DUP1 SLOAD SWAP1 DUP3 SWAP1 SSTORE PUSH1 0x40 MLOAD PUSH32 0xC565B045403DC03C2EEA82B81A0465EDAD9E2E7FC4D97E11421C209DA93D7A93 SWAP1 PUSH2 0x8D3 SWAP1 DUP4 SWAP1 DUP6 SWAP1 PUSH2 0x462C JUMP JUMPDEST PUSH1 0x40 MLOAD PUSH2 0xA42 SWAP1 PUSH2 0x4050 JUMP JUMPDEST PUSH1 0x40 MLOAD DUP1 SWAP2 SUB SWAP1 KECCAK256 DUP2 JUMP JUMPDEST PUSH2 0x1680 DUP2 JUMP JUMPDEST PUSH10 0x54B40B1F852BDA000000 DUP2 JUMP JUMPDEST PUSH10 0x152D02C7E14AF6800000 DUP2 JUMP JUMPDEST PUSH1 0x1 SLOAD PUSH1 0x1 PUSH1 0x1 PUSH1 0xA0 SHL SUB AND DUP2 JUMP JUMPDEST PUSH1 0x60 DUP1 PUSH1 0x60 DUP1 PUSH1 0x0 PUSH1 0xA PUSH1 0x0 DUP8 DUP2 MSTORE PUSH1 0x20 ADD SWAP1 DUP2 MSTORE PUSH1 0x20 ADD PUSH1 0x0 KECCAK256 SWAP1 POP DUP1 PUSH1 0x3 ADD DUP2 PUSH1 0x4 ADD DUP3 PUSH1 0x5 ADD DUP4 PUSH1 0x6 ADD DUP4 DUP1 SLOAD DUP1 PUSH1 0x20 MUL PUSH1 0x20 ADD PUSH1 0x40 MLOAD SWAP1 DUP2 ADD PUSH1 0x40 MSTORE DUP1 SWAP3 SWAP2 SWAP1 DUP2 DUP2 MSTORE PUSH1 0x20 ADD DUP3 DUP1 SLOAD DUP1 ISZERO PUSH2 0xB00 JUMPI PUSH1 0x20 MUL DUP3 ADD SWAP2 SWAP1 PUSH1 0x0 MSTORE PUSH1 0x20 PUSH1 0x0 KECCAK256 SWAP1 JUMPDEST DUP2 SLOAD PUSH1 0x1 PUSH1 0x1 PUSH1 0xA0 SHL SUB AND DUP2 MSTORE PUSH1 0x1 SWAP1 SWAP2 ADD SWAP1 PUSH1 0x20 ADD DUP1 DUP4 GT PUSH2 0xAE2 JUMPI JUMPDEST POP POP POP POP POP SWAP4 POP DUP3 DUP1 SLOAD DUP1 PUSH1 0x20 MUL PUSH1 0x20 ADD PUSH1 0x40 MLOAD SWAP1 DUP2 ADD PUSH1 0x40 MSTORE DUP1 SWAP3 SWAP2 SWAP1 DUP2 DUP2 MSTORE PUSH1 0x20 ADD DUP3 DUP1 SLOAD DUP1 ISZERO PUSH2 0xB52 JUMPI PUSH1 0x20 MUL DUP3 ADD SWAP2 SWAP1 PUSH1 0x0 MSTORE PUSH1 0x20 PUSH1 0x0 KECCAK256 SWAP1 JUMPDEST DUP2 SLOAD DUP2 MSTORE PUSH1 0x20 ADD SWAP1 PUSH1 0x1 ADD SWAP1 DUP1 DUP4 GT PUSH2 0xB3E JUMPI JUMPDEST POP POP POP POP POP SWAP3 POP DUP2 DUP1 SLOAD DUP1 PUSH1 0x20 MUL PUSH1 0x20 ADD PUSH1 0x40 MLOAD SWAP1 DUP2 ADD PUSH1 0x40 MSTORE DUP1 SWAP3 SWAP2 SWAP1 DUP2 DUP2 MSTORE PUSH1 0x20 ADD PUSH1 0x0 SWAP1 JUMPDEST DUP3 DUP3 LT ISZERO PUSH2 0xC25 JUMPI PUSH1 0x0 DUP5 DUP2 MSTORE PUSH1 0x20 SWAP1 DUP2 SWAP1 KECCAK256 DUP4 ADD DUP1 SLOAD PUSH1 0x40 DUP1 MLOAD PUSH1 0x1F PUSH1 0x2 PUSH1 0x0 NOT PUSH2 0x100 PUSH1 0x1 DUP8 AND ISZERO MUL ADD SWAP1 SWAP5 AND SWAP4 SWAP1 SWAP4 DIV SWAP3 DUP4 ADD DUP6 SWAP1 DIV DUP6 MUL DUP2 ADD DUP6 ADD SWAP1 SWAP2 MSTORE DUP2 DUP2 MSTORE SWAP3 DUP4 ADD DUP3 DUP3 DUP1 ISZERO PUSH2 0xC11 JUMPI DUP1 PUSH1 0x1F LT PUSH2 0xBE6 JUMPI PUSH2 0x100 DUP1 DUP4 SLOAD DIV MUL DUP4 MSTORE SWAP2 PUSH1 0x20 ADD SWAP2 PUSH2 0xC11 JUMP JUMPDEST DUP3 ADD SWAP2 SWAP1 PUSH1 0x0 MSTORE PUSH1 0x20 PUSH1 0x0 KECCAK256 SWAP1 JUMPDEST DUP2 SLOAD DUP2 MSTORE SWAP1 PUSH1 0x1 ADD SWAP1 PUSH1 0x20 ADD DUP1 DUP4 GT PUSH2 0xBF4 JUMPI DUP3 SWAP1 SUB PUSH1 0x1F AND DUP3 ADD SWAP2 JUMPDEST POP POP POP POP POP DUP2 MSTORE PUSH1 0x20 ADD SWAP1 PUSH1 0x1 ADD SWAP1 PUSH2 0xB7A JUMP JUMPDEST POP POP POP POP SWAP2 POP DUP1 DUP1 SLOAD DUP1 PUSH1 0x20 MUL PUSH1 0x20 ADD PUSH1 0x40 MLOAD SWAP1 DUP2 ADD PUSH1 0x40 MSTORE DUP1 SWAP3 SWAP2 SWAP1 DUP2 DUP2 MSTORE PUSH1 0x20 ADD PUSH1 0x0 SWAP1 JUMPDEST DUP3 DUP3 LT ISZERO PUSH2 0xCF7 JUMPI PUSH1 0x0 DUP5 DUP2 MSTORE PUSH1 0x20 SWAP1 DUP2 SWAP1 KECCAK256 DUP4 ADD DUP1 SLOAD PUSH1 0x40 DUP1 MLOAD PUSH1 0x1F PUSH1 0x2 PUSH1 0x0 NOT PUSH2 0x100 PUSH1 0x1 DUP8 AND ISZERO MUL ADD SWAP1 SWAP5 AND SWAP4 SWAP1 SWAP4 DIV SWAP3 DUP4 ADD DUP6 SWAP1 DIV DUP6 MUL DUP2 ADD DUP6 ADD SWAP1 SWAP2 MSTORE DUP2 DUP2 MSTORE SWAP3 DUP4 ADD DUP3 DUP3 DUP1 ISZERO PUSH2 0xCE3 JUMPI DUP1 PUSH1 0x1F LT PUSH2 0xCB8 JUMPI PUSH2 0x100 DUP1 DUP4 SLOAD DIV MUL DUP4 MSTORE SWAP2 PUSH1 0x20 ADD SWAP2 PUSH2 0xCE3 JUMP JUMPDEST DUP3 ADD SWAP2 SWAP1 PUSH1 0x0 MSTORE PUSH1 0x20 PUSH1 0x0 KECCAK256 SWAP1 JUMPDEST DUP2 SLOAD DUP2 MSTORE SWAP1 PUSH1 0x1 ADD SWAP1 PUSH1 0x20 ADD DUP1 DUP4 GT PUSH2 0xCC6 JUMPI DUP3 SWAP1 SUB PUSH1 0x1F AND DUP3 ADD SWAP2 JUMPDEST POP POP POP POP POP DUP2 MSTORE PUSH1 0x20 ADD SWAP1 PUSH1 0x1 ADD SWAP1 PUSH2 0xC4C JUMP JUMPDEST POP POP POP POP SWAP1 POP SWAP5 POP SWAP5 POP SWAP5 POP SWAP5 POP POP SWAP2 SWAP4 POP SWAP2 SWAP4 JUMP JUMPDEST PUSH1 0xC PUSH1 0x20 MSTORE PUSH1 0x0 SWAP1 DUP2 MSTORE PUSH1 0x40 SWAP1 KECCAK256 SLOAD DUP2 JUMP JUMPDEST PUSH1 0x3 SLOAD DUP2 JUMP JUMPDEST PUSH1 0x1 PUSH1 0x1 PUSH1 0xA0 SHL SUB DUP2 AND PUSH1 0x0 SWAP1 DUP2 MSTORE PUSH1 0xC PUSH1 0x20 MSTORE PUSH1 0x40 SWAP1 KECCAK256 SLOAD TIMESTAMP LT JUMPDEST SWAP2 SWAP1 POP JUMP JUMPDEST PUSH1 0x0 PUSH1 0x40 MLOAD PUSH2 0xD54 SWAP1 PUSH2 0x4050 JUMP JUMPDEST PUSH1 0x40 DUP1 MLOAD SWAP2 DUP3 SWAP1 SUB DUP3 KECCAK256 DUP3 DUP3 ADD SWAP1 SWAP2 MSTORE PUSH1 0x17 DUP3 MSTORE PUSH23 0x436F6D706F756E6420476F7665726E6F7220427261766F PUSH1 0x48 SHL PUSH1 0x20 SWAP1 SWAP3 ADD SWAP2 SWAP1 SWAP2 MSTORE PUSH32 0x3D9E905142FF365FB68CE863F26A44F5583CF7EC11BCDE450555F50B7E1B5614 PUSH2 0xDB5 PUSH2 0x226A JUMP JUMPDEST ADDRESS PUSH1 0x40 MLOAD PUSH1 0x20 ADD PUSH2 0xDC9 SWAP5 SWAP4 SWAP3 SWAP2 SWAP1 PUSH2 0x41B1 JUMP JUMPDEST PUSH1 0x40 MLOAD PUSH1 0x20 DUP2 DUP4 SUB SUB DUP2 MSTORE SWAP1 PUSH1 0x40 MSTORE DUP1 MLOAD SWAP1 PUSH1 0x20 ADD KECCAK256 SWAP1 POP PUSH1 0x0 PUSH1 0x40 MLOAD PUSH2 0xDEF SWAP1 PUSH2 0x4014 JUMP JUMPDEST PUSH1 0x40 MLOAD SWAP1 DUP2 SWAP1 SUB DUP2 KECCAK256 PUSH2 0xE08 SWAP2 DUP10 SWAP1 DUP10 SWAP1 PUSH1 0x20 ADD PUSH2 0x41E6 JUMP JUMPDEST PUSH1 0x40 MLOAD PUSH1 0x20 DUP2 DUP4 SUB SUB DUP2 MSTORE SWAP1 PUSH1 0x40 MSTORE DUP1 MLOAD SWAP1 PUSH1 0x20 ADD KECCAK256 SWAP1 POP PUSH1 0x0 DUP3 DUP3 PUSH1 0x40 MLOAD PUSH1 0x20 ADD PUSH2 0xE35 SWAP3 SWAP2 SWAP1 PUSH2 0x401F JUMP JUMPDEST PUSH1 0x40 MLOAD PUSH1 0x20 DUP2 DUP4 SUB SUB DUP2 MSTORE SWAP1 PUSH1 0x40 MSTORE DUP1 MLOAD SWAP1 PUSH1 0x20 ADD KECCAK256 SWAP1 POP PUSH1 0x0 PUSH1 0x1 DUP3 DUP9 DUP9 DUP9 PUSH1 0x40 MLOAD PUSH1 0x0 DUP2 MSTORE PUSH1 0x20 ADD PUSH1 0x40 MSTORE PUSH1 0x40 MLOAD PUSH2 0xE72 SWAP5 SWAP4 SWAP3 SWAP2 SWAP1 PUSH2 0x420E JUMP JUMPDEST PUSH1 0x20 PUSH1 0x40 MLOAD PUSH1 0x20 DUP2 SUB SWAP1 DUP1 DUP5 SUB SWAP1 DUP6 GAS STATICCALL ISZERO DUP1 ISZERO PUSH2 0xE94 JUMPI RETURNDATASIZE PUSH1 0x0 DUP1 RETURNDATACOPY RETURNDATASIZE PUSH1 0x0 REVERT JUMPDEST POP POP PUSH1 0x40 MLOAD PUSH1 0x1F NOT ADD MLOAD SWAP2 POP POP PUSH1 0x1 PUSH1 0x1 PUSH1 0xA0 SHL SUB DUP2 AND PUSH2 0xEC7 JUMPI PUSH1 0x40 MLOAD PUSH3 0x461BCD PUSH1 0xE5 SHL DUP2 MSTORE PUSH1 0x4 ADD PUSH2 0x85F SWAP1 PUSH2 0x4360 JUMP JUMPDEST DUP1 PUSH1 0x1 PUSH1 0x1 PUSH1 0xA0 SHL SUB AND PUSH32 0xB8E138887D0AA13BAB447E82DE9D5C1777041ECD21CA36BA824FF1E6C07DDDA4 DUP11 DUP11 PUSH2 0xEFF DUP6 DUP15 DUP15 PUSH2 0x226F JUMP JUMPDEST PUSH1 0x40 MLOAD PUSH2 0xF0E SWAP4 SWAP3 SWAP2 SWAP1 PUSH2 0x4680 JUMP JUMPDEST PUSH1 0x40 MLOAD DUP1 SWAP2 SUB SWAP1 LOG2 POP POP POP POP POP POP POP POP POP JUMP JUMPDEST PUSH1 0x0 DUP2 PUSH1 0x7 SLOAD LT ISZERO DUP1 ISZERO PUSH2 0xF36 JUMPI POP PUSH1 0x6 SLOAD DUP3 GT JUMPDEST PUSH2 0xF52 JUMPI PUSH1 0x40 MLOAD PUSH3 0x461BCD PUSH1 0xE5 SHL DUP2 MSTORE PUSH1 0x4 ADD PUSH2 0x85F SWAP1 PUSH2 0x44B0 JUMP JUMPDEST PUSH1 0x0 DUP3 DUP2 MSTORE PUSH1 0xA PUSH1 0x20 MSTORE PUSH1 0x40 SWAP1 KECCAK256 PUSH1 0xC DUP2 ADD SLOAD PUSH1 0xFF AND ISZERO PUSH2 0xF77 JUMPI PUSH1 0x2 SWAP2 POP POP PUSH2 0xD41 JUMP JUMPDEST DUP1 PUSH1 0x7 ADD SLOAD NUMBER GT PUSH2 0xF8C JUMPI PUSH1 0x0 SWAP2 POP POP PUSH2 0xD41 JUMP JUMPDEST DUP1 PUSH1 0x8 ADD SLOAD NUMBER GT PUSH2 0xFA1 JUMPI PUSH1 0x1 SWAP2 POP POP PUSH2 0xD41 JUMP JUMPDEST DUP1 PUSH1 0xA ADD SLOAD DUP2 PUSH1 0x9 ADD SLOAD GT ISZERO DUP1 PUSH2 0xFC5 JUMPI POP PUSH10 0x54B40B1F852BDA000000 DUP2 PUSH1 0x9 ADD SLOAD LT JUMPDEST ISZERO PUSH2 0xFD4 JUMPI PUSH1 0x3 SWAP2 POP POP PUSH2 0xD41 JUMP JUMPDEST PUSH1 0x2 DUP2 ADD SLOAD PUSH2 0xFE7 JUMPI PUSH1 0x4 SWAP2 POP POP PUSH2 0xD41 JUMP JUMPDEST PUSH1 0xC DUP2 ADD SLOAD PUSH2 0x100 SWAP1 DIV PUSH1 0xFF AND ISZERO PUSH2 0x1003 JUMPI PUSH1 0x7 SWAP2 POP POP PUSH2 0xD41 JUMP JUMPDEST PUSH1 0x2 DUP2 ADD SLOAD PUSH1 0x8 SLOAD PUSH1 0x40 DUP1 MLOAD PUSH4 0x60D143F1 PUSH1 0xE1 SHL DUP2 MSTORE SWAP1 MLOAD PUSH2 0x108C SWAP4 SWAP3 PUSH1 0x1 PUSH1 0x1 PUSH1 0xA0 SHL SUB AND SWAP2 PUSH4 0xC1A287E2 SWAP2 PUSH1 0x4 DUP1 DUP4 ADD SWAP3 PUSH1 0x20 SWAP3 SWAP2 SWAP1 DUP3 SWAP1 SUB ADD DUP2 DUP7 DUP1 EXTCODESIZE ISZERO DUP1 ISZERO PUSH2 0x104F JUMPI PUSH1 0x0 DUP1 REVERT JUMPDEST POP GAS STATICCALL ISZERO DUP1 ISZERO PUSH2 0x1063 JUMPI RETURNDATASIZE PUSH1 0x0 DUP1 RETURNDATACOPY RETURNDATASIZE PUSH1 0x0 REVERT JUMPDEST POP POP POP POP PUSH1 0x40 MLOAD RETURNDATASIZE PUSH1 0x1F NOT PUSH1 0x1F DUP3 ADD AND DUP3 ADD DUP1 PUSH1 0x40 MSTORE POP PUSH2 0x1087 SWAP2 SWAP1 DUP2 ADD SWAP1 PUSH2 0x2D5D JUMP JUMPDEST PUSH2 0x2460 JUMP JUMPDEST TIMESTAMP LT PUSH2 0x109C JUMPI PUSH1 0x6 SWAP2 POP POP PUSH2 0xD41 JUMP JUMPDEST PUSH1 0x5 SWAP2 POP POP PUSH2 0xD41 JUMP JUMPDEST PUSH1 0x7 PUSH2 0x10B1 DUP3 PUSH2 0xF21 JUMP JUMPDEST PUSH1 0x7 DUP2 GT ISZERO PUSH2 0x10BC JUMPI INVALID JUMPDEST EQ ISZERO PUSH2 0x10DA JUMPI PUSH1 0x40 MLOAD PUSH3 0x461BCD PUSH1 0xE5 SHL DUP2 MSTORE PUSH1 0x4 ADD PUSH2 0x85F SWAP1 PUSH2 0x4490 JUMP JUMPDEST PUSH1 0x0 DUP2 DUP2 MSTORE PUSH1 0xA PUSH1 0x20 MSTORE PUSH1 0x40 SWAP1 KECCAK256 PUSH1 0x1 DUP2 ADD SLOAD PUSH1 0x1 PUSH1 0x1 PUSH1 0xA0 SHL SUB AND CALLER EQ PUSH2 0x12B1 JUMPI PUSH1 0x1 DUP2 ADD SLOAD PUSH2 0x1113 SWAP1 PUSH1 0x1 PUSH1 0x1 PUSH1 0xA0 SHL SUB AND PUSH2 0xD25 JUMP JUMPDEST ISZERO PUSH2 0x11F2 JUMPI PUSH1 0x5 SLOAD PUSH1 0x9 SLOAD PUSH1 0x1 DUP4 DUP2 ADD SLOAD PUSH1 0x1 PUSH1 0x1 PUSH1 0xA0 SHL SUB SWAP3 DUP4 AND SWAP3 PUSH4 0x782D6FE1 SWAP3 SWAP2 AND SWAP1 PUSH2 0x1144 SWAP1 NUMBER SWAP1 PUSH2 0x2485 JUMP JUMPDEST PUSH1 0x40 MLOAD DUP4 PUSH4 0xFFFFFFFF AND PUSH1 0xE0 SHL DUP2 MSTORE PUSH1 0x4 ADD PUSH2 0x1161 SWAP3 SWAP2 SWAP1 PUSH2 0x409F JUMP JUMPDEST PUSH1 0x20 PUSH1 0x40 MLOAD DUP1 DUP4 SUB DUP2 DUP7 DUP1 EXTCODESIZE ISZERO DUP1 ISZERO PUSH2 0x1179 JUMPI PUSH1 0x0 DUP1 REVERT JUMPDEST POP GAS STATICCALL ISZERO DUP1 ISZERO PUSH2 0x118D JUMPI RETURNDATASIZE PUSH1 0x0 DUP1 RETURNDATACOPY RETURNDATASIZE PUSH1 0x0 REVERT JUMPDEST POP POP POP POP PUSH1 0x40 MLOAD RETURNDATASIZE PUSH1 0x1F NOT PUSH1 0x1F DUP3 ADD AND DUP3 ADD DUP1 PUSH1 0x40 MSTORE POP PUSH2 0x11B1 SWAP2 SWAP1 DUP2 ADD SWAP1 PUSH2 0x2EDC JUMP JUMPDEST PUSH1 0x1 PUSH1 0x1 PUSH1 0x60 SHL SUB AND LT DUP1 ISZERO PUSH2 0x11D1 JUMPI POP PUSH1 0xD SLOAD PUSH1 0x1 PUSH1 0x1 PUSH1 0xA0 SHL SUB AND CALLER EQ JUMPDEST PUSH2 0x11ED JUMPI PUSH1 0x40 MLOAD PUSH3 0x461BCD PUSH1 0xE5 SHL DUP2 MSTORE PUSH1 0x4 ADD PUSH2 0x85F SWAP1 PUSH2 0x44E0 JUMP JUMPDEST PUSH2 0x12B1 JUMP JUMPDEST PUSH1 0x5 SLOAD PUSH1 0x9 SLOAD PUSH1 0x1 DUP4 DUP2 ADD SLOAD PUSH1 0x1 PUSH1 0x1 PUSH1 0xA0 SHL SUB SWAP3 DUP4 AND SWAP3 PUSH4 0x782D6FE1 SWAP3 SWAP2 AND SWAP1 PUSH2 0x121E SWAP1 NUMBER SWAP1 PUSH2 0x2485 JUMP JUMPDEST PUSH1 0x40 MLOAD DUP4 PUSH4 0xFFFFFFFF AND PUSH1 0xE0 SHL DUP2 MSTORE PUSH1 0x4 ADD PUSH2 0x123B SWAP3 SWAP2 SWAP1 PUSH2 0x409F JUMP JUMPDEST PUSH1 0x20 PUSH1 0x40 MLOAD DUP1 DUP4 SUB DUP2 DUP7 DUP1 EXTCODESIZE ISZERO DUP1 ISZERO PUSH2 0x1253 JUMPI PUSH1 0x0 DUP1 REVERT JUMPDEST POP GAS STATICCALL ISZERO DUP1 ISZERO PUSH2 0x1267 JUMPI RETURNDATASIZE PUSH1 0x0 DUP1 RETURNDATACOPY RETURNDATASIZE PUSH1 0x0 REVERT JUMPDEST POP POP POP POP PUSH1 0x40 MLOAD RETURNDATASIZE PUSH1 0x1F NOT PUSH1 0x1F DUP3 ADD AND DUP3 ADD DUP1 PUSH1 0x40 MSTORE POP PUSH2 0x128B SWAP2 SWAP1 DUP2 ADD SWAP1 PUSH2 0x2EDC JUMP JUMPDEST PUSH1 0x1 PUSH1 0x1 PUSH1 0x60 SHL SUB AND LT PUSH2 0x12B1 JUMPI PUSH1 0x40 MLOAD PUSH3 0x461BCD PUSH1 0xE5 SHL DUP2 MSTORE PUSH1 0x4 ADD PUSH2 0x85F SWAP1 PUSH2 0x4420 JUMP JUMPDEST PUSH1 0xC DUP2 ADD DUP1 SLOAD PUSH1 0xFF NOT AND PUSH1 0x1 OR SWAP1 SSTORE PUSH1 0x0 JUMPDEST PUSH1 0x3 DUP3 ADD SLOAD DUP2 LT ISZERO PUSH2 0x13BD JUMPI PUSH1 0x8 SLOAD PUSH1 0x3 DUP4 ADD DUP1 SLOAD PUSH1 0x1 PUSH1 0x1 PUSH1 0xA0 SHL SUB SWAP1 SWAP3 AND SWAP2 PUSH4 0x591FCDFE SWAP2 SWAP1 DUP5 SWAP1 DUP2 LT PUSH2 0x12F5 JUMPI INVALID JUMPDEST PUSH1 0x0 SWAP2 DUP3 MSTORE PUSH1 0x20 SWAP1 SWAP2 KECCAK256 ADD SLOAD PUSH1 0x4 DUP6 ADD DUP1 SLOAD PUSH1 0x1 PUSH1 0x1 PUSH1 0xA0 SHL SUB SWAP1 SWAP3 AND SWAP2 DUP6 SWAP1 DUP2 LT PUSH2 0x131D JUMPI INVALID JUMPDEST SWAP1 PUSH1 0x0 MSTORE PUSH1 0x20 PUSH1 0x0 KECCAK256 ADD SLOAD DUP6 PUSH1 0x5 ADD DUP6 DUP2 SLOAD DUP2 LT PUSH2 0x1337 JUMPI INVALID JUMPDEST SWAP1 PUSH1 0x0 MSTORE PUSH1 0x20 PUSH1 0x0 KECCAK256 ADD DUP7 PUSH1 0x6 ADD DUP7 DUP2 SLOAD DUP2 LT PUSH2 0x1350 JUMPI INVALID JUMPDEST SWAP1 PUSH1 0x0 MSTORE PUSH1 0x20 PUSH1 0x0 KECCAK256 ADD DUP8 PUSH1 0x2 ADD SLOAD PUSH1 0x40 MLOAD DUP7 PUSH4 0xFFFFFFFF AND PUSH1 0xE0 SHL DUP2 MSTORE PUSH1 0x4 ADD PUSH2 0x137F SWAP6 SWAP5 SWAP4 SWAP3 SWAP2 SWAP1 PUSH2 0x4107 JUMP JUMPDEST PUSH1 0x0 PUSH1 0x40 MLOAD DUP1 DUP4 SUB DUP2 PUSH1 0x0 DUP8 DUP1 EXTCODESIZE ISZERO DUP1 ISZERO PUSH2 0x1399 JUMPI PUSH1 0x0 DUP1 REVERT JUMPDEST POP GAS CALL ISZERO DUP1 ISZERO PUSH2 0x13AD JUMPI RETURNDATASIZE PUSH1 0x0 DUP1 RETURNDATACOPY RETURNDATASIZE PUSH1 0x0 REVERT JUMPDEST POP POP PUSH1 0x1 SWAP1 SWAP3 ADD SWAP2 POP PUSH2 0x12C3 SWAP1 POP JUMP JUMPDEST POP PUSH32 0x789CF55BE980739DAD1D0699B93B58E806B51C9D96619BFA8FE0A28ABAA7B30C DUP3 PUSH1 0x40 MLOAD PUSH2 0x8D3 SWAP2 SWAP1 PUSH2 0x41A3 JUMP JUMPDEST PUSH1 0x0 SLOAD PUSH1 0x1 PUSH1 0x1 PUSH1 0xA0 SHL SUB AND CALLER EQ DUP1 PUSH2 0x1410 JUMPI POP PUSH1 0xD SLOAD PUSH1 0x1 PUSH1 0x1 PUSH1 0xA0 SHL SUB AND CALLER EQ JUMPDEST PUSH2 0x142C JUMPI PUSH1 0x40 MLOAD PUSH3 0x461BCD PUSH1 0xE5 SHL DUP2 MSTORE PUSH1 0x4 ADD PUSH2 0x85F SWAP1 PUSH2 0x4480 JUMP JUMPDEST PUSH1 0x1 PUSH1 0x1 PUSH1 0xA0 SHL SUB DUP3 AND PUSH1 0x0 SWAP1 DUP2 MSTORE PUSH1 0xC PUSH1 0x20 MSTORE PUSH1 0x40 SWAP1 DUP2 SWAP1 KECCAK256 DUP3 SWAP1 SSTORE MLOAD PUSH32 0x4E7B7545BC5744D0E30425959F4687475774B6C7EDAD77D24CB51C7D967D4515 SWAP1 PUSH2 0x8D3 SWAP1 DUP5 SWAP1 DUP5 SWAP1 PUSH2 0x409F JUMP JUMPDEST CALLER PUSH32 0xB8E138887D0AA13BAB447E82DE9D5C1777041ECD21CA36BA824FF1E6C07DDDA4 DUP4 DUP4 PUSH2 0x14A8 DUP5 DUP4 DUP4 PUSH2 0x226F JUMP JUMPDEST PUSH1 0x40 MLOAD PUSH2 0x14B7 SWAP4 SWAP3 SWAP2 SWAP1 PUSH2 0x4680 JUMP JUMPDEST PUSH1 0x40 MLOAD DUP1 SWAP2 SUB SWAP1 LOG2 POP POP JUMP JUMPDEST PUSH1 0x2 SLOAD PUSH1 0x1 PUSH1 0x1 PUSH1 0xA0 SHL SUB AND DUP2 JUMP JUMPDEST PUSH9 0x3635C9ADC5DEA00000 DUP2 JUMP JUMPDEST CALLER PUSH32 0xB8E138887D0AA13BAB447E82DE9D5C1777041ECD21CA36BA824FF1E6C07DDDA4 DUP6 DUP6 PUSH2 0x150E DUP5 DUP4 DUP4 PUSH2 0x226F JUMP JUMPDEST DUP7 DUP7 PUSH1 0x40 MLOAD PUSH2 0x1521 SWAP6 SWAP5 SWAP4 SWAP3 SWAP2 SWAP1 PUSH2 0x463A JUMP JUMPDEST PUSH1 0x40 MLOAD DUP1 SWAP2 SUB SWAP1 LOG2 POP POP POP POP JUMP JUMPDEST PUSH1 0xA DUP2 JUMP JUMPDEST PUSH1 0x0 SLOAD PUSH1 0x1 PUSH1 0x1 PUSH1 0xA0 SHL SUB AND CALLER EQ PUSH2 0x155E JUMPI PUSH1 0x40 MLOAD PUSH3 0x461BCD PUSH1 0xE5 SHL DUP2 MSTORE PUSH1 0x4 ADD PUSH2 0x85F SWAP1 PUSH2 0x4380 JUMP JUMPDEST PUSH1 0xD DUP1 SLOAD PUSH1 0x1 PUSH1 0x1 PUSH1 0xA0 SHL SUB DUP4 DUP2 AND PUSH1 0x1 PUSH1 0x1 PUSH1 0xA0 SHL SUB NOT DUP4 AND OR SWAP3 DUP4 SWAP1 SSTORE PUSH1 0x40 MLOAD SWAP2 DUP2 AND SWAP3 PUSH32 0x80A07E73E552148844A9C216D9724212D609CFA54E9C1A2E97203BDD2C4AD341 SWAP3 PUSH2 0x8D3 SWAP3 DUP6 SWAP3 AND SWAP1 PUSH2 0x4084 JUMP JUMPDEST PUSH3 0x13B00 DUP2 JUMP JUMPDEST PUSH2 0x9D80 DUP2 JUMP JUMPDEST PUSH1 0x5 SLOAD DUP2 JUMP JUMPDEST PUSH1 0x0 SLOAD PUSH1 0x1 PUSH1 0x1 PUSH1 0xA0 SHL SUB AND CALLER EQ PUSH2 0x15F0 JUMPI PUSH1 0x40 MLOAD PUSH3 0x461BCD PUSH1 0xE5 SHL DUP2 MSTORE PUSH1 0x4 ADD PUSH2 0x85F SWAP1 PUSH2 0x4290 JUMP JUMPDEST PUSH1 0x1 DUP1 SLOAD PUSH1 0x1 PUSH1 0x1 PUSH1 0xA0 SHL SUB DUP4 DUP2 AND PUSH1 0x1 PUSH1 0x1 PUSH1 0xA0 SHL SUB NOT DUP4 AND OR SWAP1 SWAP3 SSTORE PUSH1 0x40 MLOAD SWAP2 AND SWAP1 PUSH32 0xCA4F2F25D0898EDD99413412FB94012F9E54EC8142F9B093E7720646A95B16A9 SWAP1 PUSH2 0x8D3 SWAP1 DUP4 SWAP1 DUP6 SWAP1 PUSH2 0x4084 JUMP JUMPDEST PUSH1 0xD SLOAD PUSH1 0x1 PUSH1 0x1 PUSH1 0xA0 SHL SUB AND DUP2 JUMP JUMPDEST PUSH1 0x8 SLOAD PUSH1 0x1 PUSH1 0x1 PUSH1 0xA0 SHL SUB AND ISZERO PUSH2 0x167B JUMPI PUSH1 0x40 MLOAD PUSH3 0x461BCD PUSH1 0xE5 SHL DUP2 MSTORE PUSH1 0x4 ADD PUSH2 0x85F SWAP1 PUSH2 0x4280 JUMP JUMPDEST PUSH1 0x0 SLOAD PUSH1 0x1 PUSH1 0x1 PUSH1 0xA0 SHL SUB AND CALLER EQ PUSH2 0x16A5 JUMPI PUSH1 0x40 MLOAD PUSH3 0x461BCD PUSH1 0xE5 SHL DUP2 MSTORE PUSH1 0x4 ADD PUSH2 0x85F SWAP1 PUSH2 0x43A0 JUMP JUMPDEST PUSH1 0x1 PUSH1 0x1 PUSH1 0xA0 SHL SUB DUP6 AND PUSH2 0x16CB JUMPI PUSH1 0x40 MLOAD PUSH3 0x461BCD PUSH1 0xE5 SHL DUP2 MSTORE PUSH1 0x4 ADD PUSH2 0x85F SWAP1 PUSH2 0x42C0 JUMP JUMPDEST PUSH1 0x1 PUSH1 0x1 PUSH1 0xA0 SHL SUB DUP5 AND PUSH2 0x16F1 JUMPI PUSH1 0x40 MLOAD PUSH3 0x461BCD PUSH1 0xE5 SHL DUP2 MSTORE PUSH1 0x4 ADD PUSH2 0x85F SWAP1 PUSH2 0x4410 JUMP JUMPDEST PUSH2 0x1680 DUP4 LT ISZERO DUP1 ISZERO PUSH2 0x1706 JUMPI POP PUSH3 0x13B00 DUP4 GT ISZERO JUMPDEST PUSH2 0x1722 JUMPI PUSH1 0x40 MLOAD PUSH3 0x461BCD PUSH1 0xE5 SHL DUP2 MSTORE PUSH1 0x4 ADD PUSH2 0x85F SWAP1 PUSH2 0x44C0 JUMP JUMPDEST PUSH1 0x1 DUP3 LT ISZERO DUP1 ISZERO PUSH2 0x1735 JUMPI POP PUSH2 0x9D80 DUP3 GT ISZERO JUMPDEST PUSH2 0x1751 JUMPI PUSH1 0x40 MLOAD PUSH3 0x461BCD PUSH1 0xE5 SHL DUP2 MSTORE PUSH1 0x4 ADD PUSH2 0x85F SWAP1 PUSH2 0x4370 JUMP JUMPDEST PUSH9 0x3635C9ADC5DEA00000 DUP2 LT ISZERO DUP1 ISZERO PUSH2 0x1774 JUMPI POP PUSH10 0x152D02C7E14AF6800000 DUP2 GT ISZERO JUMPDEST PUSH2 0x1790 JUMPI PUSH1 0x40 MLOAD PUSH3 0x461BCD PUSH1 0xE5 SHL DUP2 MSTORE PUSH1 0x4 ADD PUSH2 0x85F SWAP1 PUSH2 0x4330 JUMP JUMPDEST PUSH1 0x8 DUP1 SLOAD PUSH1 0x1 PUSH1 0x1 PUSH1 0xA0 SHL SUB SWAP7 DUP8 AND PUSH1 0x1 PUSH1 0x1 PUSH1 0xA0 SHL SUB NOT SWAP2 DUP3 AND OR SWAP1 SWAP2 SSTORE PUSH1 0x9 DUP1 SLOAD SWAP6 SWAP1 SWAP7 AND SWAP5 AND SWAP4 SWAP1 SWAP4 OR SWAP1 SWAP4 SSTORE PUSH1 0x4 SSTORE PUSH1 0x3 SWAP2 SWAP1 SWAP2 SSTORE PUSH1 0x5 SSTORE JUMP JUMPDEST PUSH1 0x8 SLOAD PUSH1 0x1 PUSH1 0x1 PUSH1 0xA0 SHL SUB AND DUP2 JUMP JUMPDEST PUSH1 0x7 SLOAD DUP2 JUMP JUMPDEST PUSH1 0x0 PUSH1 0x6 SLOAD PUSH1 0x0 EQ ISZERO PUSH2 0x1808 JUMPI PUSH1 0x40 MLOAD PUSH3 0x461BCD PUSH1 0xE5 SHL DUP2 MSTORE PUSH1 0x4 ADD PUSH2 0x85F SWAP1 PUSH2 0x42E0 JUMP JUMPDEST PUSH1 0x5 SLOAD PUSH1 0x9 SLOAD PUSH1 0x1 PUSH1 0x1 PUSH1 0xA0 SHL SUB AND PUSH4 0x782D6FE1 CALLER PUSH2 0x1828 NUMBER PUSH1 0x1 PUSH2 0x2485 JUMP JUMPDEST PUSH1 0x40 MLOAD DUP4 PUSH4 0xFFFFFFFF AND PUSH1 0xE0 SHL DUP2 MSTORE PUSH1 0x4 ADD PUSH2 0x1845 SWAP3 SWAP2 SWAP1 PUSH2 0x4069 JUMP JUMPDEST PUSH1 0x20 PUSH1 0x40 MLOAD DUP1 DUP4 SUB DUP2 DUP7 DUP1 EXTCODESIZE ISZERO DUP1 ISZERO PUSH2 0x185D JUMPI PUSH1 0x0 DUP1 REVERT JUMPDEST POP GAS STATICCALL ISZERO DUP1 ISZERO PUSH2 0x1871 JUMPI RETURNDATASIZE PUSH1 0x0 DUP1 RETURNDATACOPY RETURNDATASIZE PUSH1 0x0 REVERT JUMPDEST POP POP POP POP PUSH1 0x40 MLOAD RETURNDATASIZE PUSH1 0x1F NOT PUSH1 0x1F DUP3 ADD AND DUP3 ADD DUP1 PUSH1 0x40 MSTORE POP PUSH2 0x1895 SWAP2 SWAP1 DUP2 ADD SWAP1 PUSH2 0x2EDC JUMP JUMPDEST PUSH1 0x1 PUSH1 0x1 PUSH1 0x60 SHL SUB AND GT DUP1 PUSH2 0x18AE JUMPI POP PUSH2 0x18AE CALLER PUSH2 0xD25 JUMP JUMPDEST PUSH2 0x18CA JUMPI PUSH1 0x40 MLOAD PUSH3 0x461BCD PUSH1 0xE5 SHL DUP2 MSTORE PUSH1 0x4 ADD PUSH2 0x85F SWAP1 PUSH2 0x4470 JUMP JUMPDEST DUP5 MLOAD DUP7 MLOAD EQ DUP1 ISZERO PUSH2 0x18DC JUMPI POP DUP4 MLOAD DUP7 MLOAD EQ JUMPDEST DUP1 ISZERO PUSH2 0x18E9 JUMPI POP DUP3 MLOAD DUP7 MLOAD EQ JUMPDEST PUSH2 0x1905 JUMPI PUSH1 0x40 MLOAD PUSH3 0x461BCD PUSH1 0xE5 SHL DUP2 MSTORE PUSH1 0x4 ADD PUSH2 0x85F SWAP1 PUSH2 0x4390 JUMP JUMPDEST DUP6 MLOAD PUSH2 0x1923 JUMPI PUSH1 0x40 MLOAD PUSH3 0x461BCD PUSH1 0xE5 SHL DUP2 MSTORE PUSH1 0x4 ADD PUSH2 0x85F SWAP1 PUSH2 0x43F0 JUMP JUMPDEST PUSH1 0xA DUP7 MLOAD GT ISZERO PUSH2 0x1945 JUMPI PUSH1 0x40 MLOAD PUSH3 0x461BCD PUSH1 0xE5 SHL DUP2 MSTORE PUSH1 0x4 ADD PUSH2 0x85F SWAP1 PUSH2 0x4430 JUMP JUMPDEST CALLER PUSH1 0x0 SWAP1 DUP2 MSTORE PUSH1 0xB PUSH1 0x20 MSTORE PUSH1 0x40 SWAP1 KECCAK256 SLOAD DUP1 ISZERO PUSH2 0x19C2 JUMPI PUSH1 0x0 PUSH2 0x1966 DUP3 PUSH2 0xF21 JUMP JUMPDEST SWAP1 POP PUSH1 0x1 DUP2 PUSH1 0x7 DUP2 GT ISZERO PUSH2 0x1976 JUMPI INVALID JUMPDEST EQ ISZERO PUSH2 0x1994 JUMPI PUSH1 0x40 MLOAD PUSH3 0x461BCD PUSH1 0xE5 SHL DUP2 MSTORE PUSH1 0x4 ADD PUSH2 0x85F SWAP1 PUSH2 0x4450 JUMP JUMPDEST PUSH1 0x0 DUP2 PUSH1 0x7 DUP2 GT ISZERO PUSH2 0x19A2 JUMPI INVALID JUMPDEST EQ ISZERO PUSH2 0x19C0 JUMPI PUSH1 0x40 MLOAD PUSH3 0x461BCD PUSH1 0xE5 SHL DUP2 MSTORE PUSH1 0x4 ADD PUSH2 0x85F SWAP1 PUSH2 0x4440 JUMP JUMPDEST POP JUMPDEST PUSH1 0x0 PUSH2 0x19D0 NUMBER PUSH1 0x3 SLOAD PUSH2 0x2460 JUMP JUMPDEST SWAP1 POP PUSH1 0x0 PUSH2 0x19E0 DUP3 PUSH1 0x4 SLOAD PUSH2 0x2460 JUMP JUMPDEST PUSH1 0x7 DUP1 SLOAD PUSH1 0x1 ADD SWAP1 DUP2 SWAP1 SSTORE PUSH1 0x0 DUP2 DUP2 MSTORE PUSH1 0xA PUSH1 0x20 MSTORE PUSH1 0x40 SWAP1 KECCAK256 DUP1 SLOAD SWAP3 SWAP4 POP SWAP1 SWAP2 ISZERO PUSH2 0x1A1D JUMPI PUSH1 0x40 MLOAD PUSH3 0x461BCD PUSH1 0xE5 SHL DUP2 MSTORE PUSH1 0x4 ADD PUSH2 0x85F SWAP1 PUSH2 0x4340 JUMP JUMPDEST DUP2 DUP2 SSTORE PUSH1 0x1 DUP2 ADD DUP1 SLOAD PUSH1 0x1 PUSH1 0x1 PUSH1 0xA0 SHL SUB NOT AND CALLER OR SWAP1 SSTORE PUSH1 0x0 PUSH1 0x2 DUP3 ADD SSTORE DUP11 MLOAD PUSH2 0x1A50 SWAP1 PUSH1 0x3 DUP4 ADD SWAP1 PUSH1 0x20 DUP15 ADD SWAP1 PUSH2 0x260C JUMP JUMPDEST POP DUP10 MLOAD PUSH2 0x1A66 SWAP1 PUSH1 0x4 DUP4 ADD SWAP1 PUSH1 0x20 DUP14 ADD SWAP1 PUSH2 0x2671 JUMP JUMPDEST POP DUP9 MLOAD PUSH2 0x1A7C SWAP1 PUSH1 0x5 DUP4 ADD SWAP1 PUSH1 0x20 DUP13 ADD SWAP1 PUSH2 0x26B8 JUMP JUMPDEST POP DUP8 MLOAD PUSH2 0x1A92 SWAP1 PUSH1 0x6 DUP4 ADD SWAP1 PUSH1 0x20 DUP12 ADD SWAP1 PUSH2 0x2711 JUMP JUMPDEST POP DUP4 DUP2 PUSH1 0x7 ADD DUP2 SWAP1 SSTORE POP DUP3 DUP2 PUSH1 0x8 ADD DUP2 SWAP1 SSTORE POP PUSH1 0x0 DUP2 PUSH1 0x9 ADD DUP2 SWAP1 SSTORE POP PUSH1 0x0 DUP2 PUSH1 0xA ADD DUP2 SWAP1 SSTORE POP PUSH1 0x0 DUP2 PUSH1 0xB ADD DUP2 SWAP1 SSTORE POP PUSH1 0x0 DUP2 PUSH1 0xC ADD PUSH1 0x0 PUSH2 0x100 EXP DUP2 SLOAD DUP2 PUSH1 0xFF MUL NOT AND SWAP1 DUP4 ISZERO ISZERO MUL OR SWAP1 SSTORE POP PUSH1 0x0 DUP2 PUSH1 0xC ADD PUSH1 0x1 PUSH2 0x100 EXP DUP2 SLOAD DUP2 PUSH1 0xFF MUL NOT AND SWAP1 DUP4 ISZERO ISZERO MUL OR SWAP1 SSTORE POP DUP1 PUSH1 0x0 ADD SLOAD PUSH1 0xB PUSH1 0x0 DUP4 PUSH1 0x1 ADD PUSH1 0x0 SWAP1 SLOAD SWAP1 PUSH2 0x100 EXP SWAP1 DIV PUSH1 0x1 PUSH1 0x1 PUSH1 0xA0 SHL SUB AND PUSH1 0x1 PUSH1 0x1 PUSH1 0xA0 SHL SUB AND PUSH1 0x1 PUSH1 0x1 PUSH1 0xA0 SHL SUB AND DUP2 MSTORE PUSH1 0x20 ADD SWAP1 DUP2 MSTORE PUSH1 0x20 ADD PUSH1 0x0 KECCAK256 DUP2 SWAP1 SSTORE POP PUSH32 0x7D84A6263AE0D98D3329BD7B46BB4E8D6F98CD35A7ADB45C274C8B7FD5EBD5E0 DUP2 PUSH1 0x0 ADD SLOAD CALLER DUP14 DUP14 DUP14 DUP14 DUP11 DUP11 DUP16 PUSH1 0x40 MLOAD PUSH2 0x1B85 SWAP10 SWAP9 SWAP8 SWAP7 SWAP6 SWAP5 SWAP4 SWAP3 SWAP2 SWAP1 PUSH2 0x44FE JUMP JUMPDEST PUSH1 0x40 MLOAD DUP1 SWAP2 SUB SWAP1 LOG1 SLOAD SWAP5 POP POP POP POP POP JUMPDEST SWAP6 SWAP5 POP POP POP POP POP JUMP JUMPDEST PUSH1 0x4 PUSH2 0x1BA9 DUP3 PUSH2 0xF21 JUMP JUMPDEST PUSH1 0x7 DUP2 GT ISZERO PUSH2 0x1BB4 JUMPI INVALID JUMPDEST EQ PUSH2 0x1BD1 JUMPI PUSH1 0x40 MLOAD PUSH3 0x461BCD PUSH1 0xE5 SHL DUP2 MSTORE PUSH1 0x4 ADD PUSH2 0x85F SWAP1 PUSH2 0x43C0 JUMP JUMPDEST PUSH1 0x0 DUP2 DUP2 MSTORE PUSH1 0xA PUSH1 0x20 SWAP1 DUP2 MSTORE PUSH1 0x40 DUP1 DUP4 KECCAK256 PUSH1 0x8 SLOAD DUP3 MLOAD PUSH4 0xD48571F PUSH1 0xE3 SHL DUP2 MSTORE SWAP3 MLOAD SWAP2 SWAP5 SWAP4 PUSH2 0x1C2B SWAP4 TIMESTAMP SWAP4 PUSH1 0x1 PUSH1 0x1 PUSH1 0xA0 SHL SUB SWAP1 SWAP4 AND SWAP3 PUSH4 0x6A42B8F8 SWAP3 PUSH1 0x4 DUP1 DUP5 ADD SWAP4 SWAP2 SWAP3 SWAP2 DUP3 SWAP1 SUB ADD DUP2 DUP7 DUP1 EXTCODESIZE ISZERO DUP1 ISZERO PUSH2 0x104F JUMPI PUSH1 0x0 DUP1 REVERT JUMPDEST SWAP1 POP PUSH1 0x0 JUMPDEST PUSH1 0x3 DUP4 ADD SLOAD DUP2 LT ISZERO PUSH2 0x1DD3 JUMPI PUSH2 0x1DCB DUP4 PUSH1 0x3 ADD DUP3 DUP2 SLOAD DUP2 LT PUSH2 0x1C4E JUMPI INVALID JUMPDEST PUSH1 0x0 SWAP2 DUP3 MSTORE PUSH1 0x20 SWAP1 SWAP2 KECCAK256 ADD SLOAD PUSH1 0x4 DUP6 ADD DUP1 SLOAD PUSH1 0x1 PUSH1 0x1 PUSH1 0xA0 SHL SUB SWAP1 SWAP3 AND SWAP2 DUP5 SWAP1 DUP2 LT PUSH2 0x1C76 JUMPI INVALID JUMPDEST SWAP1 PUSH1 0x0 MSTORE PUSH1 0x20 PUSH1 0x0 KECCAK256 ADD SLOAD DUP6 PUSH1 0x5 ADD DUP5 DUP2 SLOAD DUP2 LT PUSH2 0x1C90 JUMPI INVALID JUMPDEST PUSH1 0x0 SWAP2 DUP3 MSTORE PUSH1 0x20 SWAP2 DUP3 SWAP1 KECCAK256 ADD DUP1 SLOAD PUSH1 0x40 DUP1 MLOAD PUSH1 0x1F PUSH1 0x2 PUSH1 0x0 NOT PUSH2 0x100 PUSH1 0x1 DUP8 AND ISZERO MUL ADD SWAP1 SWAP5 AND SWAP4 SWAP1 SWAP4 DIV SWAP3 DUP4 ADD DUP6 SWAP1 DIV DUP6 MUL DUP2 ADD DUP6 ADD SWAP1 SWAP2 MSTORE DUP2 DUP2 MSTORE SWAP3 DUP4 ADD DUP3 DUP3 DUP1 ISZERO PUSH2 0x1D1E JUMPI DUP1 PUSH1 0x1F LT PUSH2 0x1CF3 JUMPI PUSH2 0x100 DUP1 DUP4 SLOAD DIV MUL DUP4 MSTORE SWAP2 PUSH1 0x20 ADD SWAP2 PUSH2 0x1D1E JUMP JUMPDEST DUP3 ADD SWAP2 SWAP1 PUSH1 0x0 MSTORE PUSH1 0x20 PUSH1 0x0 KECCAK256 SWAP1 JUMPDEST DUP2 SLOAD DUP2 MSTORE SWAP1 PUSH1 0x1 ADD SWAP1 PUSH1 0x20 ADD DUP1 DUP4 GT PUSH2 0x1D01 JUMPI DUP3 SWAP1 SUB PUSH1 0x1F AND DUP3 ADD SWAP2 JUMPDEST POP POP POP POP POP DUP7 PUSH1 0x6 ADD DUP6 DUP2 SLOAD DUP2 LT PUSH2 0x1D32 JUMPI INVALID JUMPDEST PUSH1 0x0 SWAP2 DUP3 MSTORE PUSH1 0x20 SWAP2 DUP3 SWAP1 KECCAK256 ADD DUP1 SLOAD PUSH1 0x40 DUP1 MLOAD PUSH1 0x1F PUSH1 0x2 PUSH1 0x0 NOT PUSH2 0x100 PUSH1 0x1 DUP8 AND ISZERO MUL ADD SWAP1 SWAP5 AND SWAP4 SWAP1 SWAP4 DIV SWAP3 DUP4 ADD DUP6 SWAP1 DIV DUP6 MUL DUP2 ADD DUP6 ADD SWAP1 SWAP2 MSTORE DUP2 DUP2 MSTORE SWAP3 DUP4 ADD DUP3 DUP3 DUP1 ISZERO PUSH2 0x1DC0 JUMPI DUP1 PUSH1 0x1F LT PUSH2 0x1D95 JUMPI PUSH2 0x100 DUP1 DUP4 SLOAD DIV MUL DUP4 MSTORE SWAP2 PUSH1 0x20 ADD SWAP2 PUSH2 0x1DC0 JUMP JUMPDEST DUP3 ADD SWAP2 SWAP1 PUSH1 0x0 MSTORE PUSH1 0x20 PUSH1 0x0 KECCAK256 SWAP1 JUMPDEST DUP2 SLOAD DUP2 MSTORE SWAP1 PUSH1 0x1 ADD SWAP1 PUSH1 0x20 ADD DUP1 DUP4 GT PUSH2 0x1DA3 JUMPI DUP3 SWAP1 SUB PUSH1 0x1F AND DUP3 ADD SWAP2 JUMPDEST POP POP POP POP POP DUP7 PUSH2 0x24AD JUMP JUMPDEST PUSH1 0x1 ADD PUSH2 0x1C30 JUMP JUMPDEST POP PUSH1 0x2 DUP3 ADD DUP2 SWAP1 SSTORE PUSH1 0x40 MLOAD PUSH32 0x9A2E42FD6722813D69113E7D0079D3D940171428DF7373DF9C7F7617CFDA2892 SWAP1 PUSH2 0x1E0D SWAP1 DUP6 SWAP1 DUP5 SWAP1 PUSH2 0x462C JUMP JUMPDEST PUSH1 0x40 MLOAD DUP1 SWAP2 SUB SWAP1 LOG1 POP POP POP JUMP JUMPDEST PUSH1 0x40 MLOAD PUSH2 0xA42 SWAP1 PUSH2 0x4014 JUMP JUMPDEST PUSH2 0x1E2E PUSH2 0x276A JUMP JUMPDEST POP PUSH1 0x0 DUP3 DUP2 MSTORE PUSH1 0xA PUSH1 0x20 SWAP1 DUP2 MSTORE PUSH1 0x40 DUP1 DUP4 KECCAK256 PUSH1 0x1 PUSH1 0x1 PUSH1 0xA0 SHL SUB DUP6 AND DUP5 MSTORE PUSH1 0xD ADD DUP3 MSTORE SWAP2 DUP3 SWAP1 KECCAK256 DUP3 MLOAD PUSH1 0x60 DUP2 ADD DUP5 MSTORE SWAP1 SLOAD PUSH1 0xFF DUP1 DUP3 AND ISZERO ISZERO DUP4 MSTORE PUSH2 0x100 DUP3 DIV AND SWAP3 DUP3 ADD SWAP3 SWAP1 SWAP3 MSTORE PUSH3 0x10000 SWAP1 SWAP2 DIV PUSH1 0x1 PUSH1 0x1 PUSH1 0x60 SHL SUB AND SWAP2 DUP2 ADD SWAP2 SWAP1 SWAP2 MSTORE JUMPDEST SWAP3 SWAP2 POP POP JUMP JUMPDEST PUSH1 0x1 DUP2 JUMP JUMPDEST PUSH1 0x1 SLOAD PUSH1 0x1 PUSH1 0x1 PUSH1 0xA0 SHL SUB AND CALLER EQ DUP1 ISZERO PUSH2 0x1EB1 JUMPI POP CALLER ISZERO ISZERO JUMPDEST PUSH2 0x1ECD JUMPI PUSH1 0x40 MLOAD PUSH3 0x461BCD PUSH1 0xE5 SHL DUP2 MSTORE PUSH1 0x4 ADD PUSH2 0x85F SWAP1 PUSH2 0x4400 JUMP JUMPDEST PUSH1 0x0 DUP1 SLOAD PUSH1 0x1 DUP1 SLOAD PUSH1 0x1 PUSH1 0x1 PUSH1 0xA0 SHL SUB DUP1 DUP3 AND PUSH1 0x1 PUSH1 0x1 PUSH1 0xA0 SHL SUB NOT DUP1 DUP7 AND DUP3 OR SWAP7 DUP8 SWAP1 SSTORE SWAP1 SWAP3 AND SWAP1 SWAP3 SSTORE PUSH1 0x40 MLOAD SWAP3 DUP3 AND SWAP4 SWAP1 SWAP3 PUSH32 0xF9FFABCA9C8276E99321725BCB43FB076A6C66A54B7F21C4E8146D8519B417DC SWAP3 PUSH2 0x1F31 SWAP3 DUP7 SWAP3 SWAP2 AND SWAP1 PUSH2 0x4084 JUMP JUMPDEST PUSH1 0x40 MLOAD DUP1 SWAP2 SUB SWAP1 LOG1 PUSH1 0x1 SLOAD PUSH1 0x40 MLOAD PUSH32 0xCA4F2F25D0898EDD99413412FB94012F9E54EC8142F9B093E7720646A95B16A9 SWAP2 PUSH2 0x8D3 SWAP2 DUP5 SWAP2 PUSH1 0x1 PUSH1 0x1 PUSH1 0xA0 SHL SUB AND SWAP1 PUSH2 0x4084 JUMP JUMPDEST PUSH1 0x0 SLOAD PUSH1 0x1 PUSH1 0x1 PUSH1 0xA0 SHL SUB AND DUP2 JUMP JUMPDEST PUSH1 0x0 SLOAD PUSH1 0x1 PUSH1 0x1 PUSH1 0xA0 SHL SUB AND CALLER EQ PUSH2 0x1FAF JUMPI PUSH1 0x40 MLOAD PUSH3 0x461BCD PUSH1 0xE5 SHL DUP2 MSTORE PUSH1 0x4 ADD PUSH2 0x85F SWAP1 PUSH2 0x4460 JUMP JUMPDEST PUSH1 0x6 SLOAD ISZERO PUSH2 0x1FCF JUMPI PUSH1 0x40 MLOAD PUSH3 0x461BCD PUSH1 0xE5 SHL DUP2 MSTORE PUSH1 0x4 ADD PUSH2 0x85F SWAP1 PUSH2 0x43E0 JUMP JUMPDEST DUP1 PUSH1 0x1 PUSH1 0x1 PUSH1 0xA0 SHL SUB AND PUSH4 0xDA35C664 PUSH1 0x40 MLOAD DUP2 PUSH4 0xFFFFFFFF AND PUSH1 0xE0 SHL DUP2 MSTORE PUSH1 0x4 ADD PUSH1 0x20 PUSH1 0x40 MLOAD DUP1 DUP4 SUB DUP2 PUSH1 0x0 DUP8 DUP1 EXTCODESIZE ISZERO DUP1 ISZERO PUSH2 0x200A JUMPI PUSH1 0x0 DUP1 REVERT JUMPDEST POP GAS CALL ISZERO DUP1 ISZERO PUSH2 0x201E JUMPI RETURNDATASIZE PUSH1 0x0 DUP1 RETURNDATACOPY RETURNDATASIZE PUSH1 0x0 REVERT JUMPDEST POP POP POP POP PUSH1 0x40 MLOAD RETURNDATASIZE PUSH1 0x1F NOT PUSH1 0x1F DUP3 ADD AND DUP3 ADD DUP1 PUSH1 0x40 MSTORE POP PUSH2 0x2042 SWAP2 SWAP1 DUP2 ADD SWAP1 PUSH2 0x2D5D JUMP JUMPDEST PUSH1 0x7 DUP2 SWAP1 SSTORE PUSH1 0x6 SSTORE PUSH1 0x8 SLOAD PUSH1 0x40 DUP1 MLOAD PUSH4 0xE18B681 PUSH1 0xE0 SHL DUP2 MSTORE SWAP1 MLOAD PUSH1 0x1 PUSH1 0x1 PUSH1 0xA0 SHL SUB SWAP1 SWAP3 AND SWAP2 PUSH4 0xE18B681 SWAP2 PUSH1 0x4 DUP1 DUP3 ADD SWAP3 PUSH1 0x0 SWAP3 SWAP1 SWAP2 SWAP1 DUP3 SWAP1 SUB ADD DUP2 DUP4 DUP8 DUP1 EXTCODESIZE ISZERO DUP1 ISZERO PUSH2 0x2090 JUMPI PUSH1 0x0 DUP1 REVERT JUMPDEST POP GAS CALL ISZERO DUP1 ISZERO PUSH2 0x20A4 JUMPI RETURNDATASIZE PUSH1 0x0 DUP1 RETURNDATACOPY RETURNDATASIZE PUSH1 0x0 REVERT JUMPDEST POP POP POP POP POP JUMP JUMPDEST PUSH1 0x6 SLOAD DUP2 JUMP JUMPDEST PUSH1 0x5 PUSH2 0x20BC DUP3 PUSH2 0xF21 JUMP JUMPDEST PUSH1 0x7 DUP2 GT ISZERO PUSH2 0x20C7 JUMPI INVALID JUMPDEST EQ PUSH2 0x20E4 JUMPI PUSH1 0x40 MLOAD PUSH3 0x461BCD PUSH1 0xE5 SHL DUP2 MSTORE PUSH1 0x4 ADD PUSH2 0x85F SWAP1 PUSH2 0x4350 JUMP JUMPDEST PUSH1 0x0 DUP2 DUP2 MSTORE PUSH1 0xA PUSH1 0x20 MSTORE PUSH1 0x40 DUP2 KECCAK256 PUSH1 0xC DUP2 ADD DUP1 SLOAD PUSH2 0xFF00 NOT AND PUSH2 0x100 OR SWAP1 SSTORE SWAP1 JUMPDEST PUSH1 0x3 DUP3 ADD SLOAD DUP2 LT ISZERO PUSH2 0x223A JUMPI PUSH1 0x8 SLOAD PUSH1 0x4 DUP4 ADD DUP1 SLOAD PUSH1 0x1 PUSH1 0x1 PUSH1 0xA0 SHL SUB SWAP1 SWAP3 AND SWAP2 PUSH4 0x825F38F SWAP2 SWAP1 DUP5 SWAP1 DUP2 LT PUSH2 0x2137 JUMPI INVALID JUMPDEST SWAP1 PUSH1 0x0 MSTORE PUSH1 0x20 PUSH1 0x0 KECCAK256 ADD SLOAD DUP5 PUSH1 0x3 ADD DUP5 DUP2 SLOAD DUP2 LT PUSH2 0x2151 JUMPI INVALID JUMPDEST PUSH1 0x0 SWAP2 DUP3 MSTORE PUSH1 0x20 SWAP1 SWAP2 KECCAK256 ADD SLOAD PUSH1 0x4 DUP7 ADD DUP1 SLOAD PUSH1 0x1 PUSH1 0x1 PUSH1 0xA0 SHL SUB SWAP1 SWAP3 AND SWAP2 DUP7 SWAP1 DUP2 LT PUSH2 0x2179 JUMPI INVALID JUMPDEST SWAP1 PUSH1 0x0 MSTORE PUSH1 0x20 PUSH1 0x0 KECCAK256 ADD SLOAD DUP7 PUSH1 0x5 ADD DUP7 DUP2 SLOAD DUP2 LT PUSH2 0x2193 JUMPI INVALID JUMPDEST SWAP1 PUSH1 0x0 MSTORE PUSH1 0x20 PUSH1 0x0 KECCAK256 ADD DUP8 PUSH1 0x6 ADD DUP8 DUP2 SLOAD DUP2 LT PUSH2 0x21AC JUMPI INVALID JUMPDEST SWAP1 PUSH1 0x0 MSTORE PUSH1 0x20 PUSH1 0x0 KECCAK256 ADD DUP9 PUSH1 0x2 ADD SLOAD PUSH1 0x40 MLOAD DUP8 PUSH4 0xFFFFFFFF AND PUSH1 0xE0 SHL DUP2 MSTORE PUSH1 0x4 ADD PUSH2 0x21DB SWAP6 SWAP5 SWAP4 SWAP3 SWAP2 SWAP1 PUSH2 0x4107 JUMP JUMPDEST PUSH1 0x0 PUSH1 0x40 MLOAD DUP1 DUP4 SUB DUP2 DUP6 DUP9 DUP1 EXTCODESIZE ISZERO DUP1 ISZERO PUSH2 0x21F4 JUMPI PUSH1 0x0 DUP1 REVERT JUMPDEST POP GAS CALL ISZERO DUP1 ISZERO PUSH2 0x2208 JUMPI RETURNDATASIZE PUSH1 0x0 DUP1 RETURNDATACOPY RETURNDATASIZE PUSH1 0x0 REVERT JUMPDEST POP POP POP POP POP PUSH1 0x40 MLOAD RETURNDATASIZE PUSH1 0x0 DUP3 RETURNDATACOPY PUSH1 0x1F RETURNDATASIZE SWAP1 DUP2 ADD PUSH1 0x1F NOT AND DUP3 ADD PUSH1 0x40 MSTORE PUSH2 0x2231 SWAP2 SWAP1 DUP2 ADD SWAP1 PUSH2 0x2D7B JUMP JUMPDEST POP PUSH1 0x1 ADD PUSH2 0x2105 JUMP JUMPDEST POP PUSH32 0x712AE1383F79AC853F8D882153778E0260EF8F03B504E2866E0593E04D2B291F DUP3 PUSH1 0x40 MLOAD PUSH2 0x8D3 SWAP2 SWAP1 PUSH2 0x41A3 JUMP JUMPDEST CHAINID JUMPDEST SWAP1 JUMP JUMPDEST PUSH1 0x0 PUSH1 0x1 PUSH2 0x227C DUP5 PUSH2 0xF21 JUMP JUMPDEST PUSH1 0x7 DUP2 GT ISZERO PUSH2 0x2287 JUMPI INVALID JUMPDEST EQ PUSH2 0x22A4 JUMPI PUSH1 0x40 MLOAD PUSH3 0x461BCD PUSH1 0xE5 SHL DUP2 MSTORE PUSH1 0x4 ADD PUSH2 0x85F SWAP1 PUSH2 0x4300 JUMP JUMPDEST PUSH1 0x2 DUP3 PUSH1 0xFF AND GT ISZERO PUSH2 0x22C8 JUMPI PUSH1 0x40 MLOAD PUSH3 0x461BCD PUSH1 0xE5 SHL DUP2 MSTORE PUSH1 0x4 ADD PUSH2 0x85F SWAP1 PUSH2 0x4270 JUMP JUMPDEST PUSH1 0x0 DUP4 DUP2 MSTORE PUSH1 0xA PUSH1 0x20 SWAP1 DUP2 MSTORE PUSH1 0x40 DUP1 DUP4 KECCAK256 PUSH1 0x1 PUSH1 0x1 PUSH1 0xA0 SHL SUB DUP9 AND DUP5 MSTORE PUSH1 0xD DUP2 ADD SWAP1 SWAP3 MSTORE SWAP1 SWAP2 KECCAK256 DUP1 SLOAD PUSH1 0xFF AND ISZERO PUSH2 0x2311 JUMPI PUSH1 0x40 MLOAD PUSH3 0x461BCD PUSH1 0xE5 SHL DUP2 MSTORE PUSH1 0x4 ADD PUSH2 0x85F SWAP1 PUSH2 0x4310 JUMP JUMPDEST PUSH1 0x9 SLOAD PUSH1 0x7 DUP4 ADD SLOAD PUSH1 0x40 MLOAD PUSH4 0x782D6FE1 PUSH1 0xE0 SHL DUP2 MSTORE PUSH1 0x0 SWAP3 PUSH1 0x1 PUSH1 0x1 PUSH1 0xA0 SHL SUB AND SWAP2 PUSH4 0x782D6FE1 SWAP2 PUSH2 0x2347 SWAP2 DUP12 SWAP2 PUSH1 0x4 ADD PUSH2 0x409F JUMP JUMPDEST PUSH1 0x20 PUSH1 0x40 MLOAD DUP1 DUP4 SUB DUP2 DUP7 DUP1 EXTCODESIZE ISZERO DUP1 ISZERO PUSH2 0x235F JUMPI PUSH1 0x0 DUP1 REVERT JUMPDEST POP GAS STATICCALL ISZERO DUP1 ISZERO PUSH2 0x2373 JUMPI RETURNDATASIZE PUSH1 0x0 DUP1 RETURNDATACOPY RETURNDATASIZE PUSH1 0x0 REVERT JUMPDEST POP POP POP POP PUSH1 0x40 MLOAD RETURNDATASIZE PUSH1 0x1F NOT PUSH1 0x1F DUP3 ADD AND DUP3 ADD DUP1 PUSH1 0x40 MSTORE POP PUSH2 0x2397 SWAP2 SWAP1 DUP2 ADD SWAP1 PUSH2 0x2EDC JUMP JUMPDEST SWAP1 POP PUSH1 0xFF DUP6 AND PUSH2 0x23C2 JUMPI PUSH2 0x23B8 DUP4 PUSH1 0xA ADD SLOAD DUP3 PUSH1 0x1 PUSH1 0x1 PUSH1 0x60 SHL SUB AND PUSH2 0x2460 JUMP JUMPDEST PUSH1 0xA DUP5 ADD SSTORE PUSH2 0x2418 JUMP JUMPDEST DUP5 PUSH1 0xFF AND PUSH1 0x1 EQ ISZERO PUSH2 0x23EF JUMPI PUSH2 0x23E5 DUP4 PUSH1 0x9 ADD SLOAD DUP3 PUSH1 0x1 PUSH1 0x1 PUSH1 0x60 SHL SUB AND PUSH2 0x2460 JUMP JUMPDEST PUSH1 0x9 DUP5 ADD SSTORE PUSH2 0x2418 JUMP JUMPDEST DUP5 PUSH1 0xFF AND PUSH1 0x2 EQ ISZERO PUSH2 0x2418 JUMPI PUSH2 0x2412 DUP4 PUSH1 0xB ADD SLOAD DUP3 PUSH1 0x1 PUSH1 0x1 PUSH1 0x60 SHL SUB AND PUSH2 0x2460 JUMP JUMPDEST PUSH1 0xB DUP5 ADD SSTORE JUMPDEST DUP2 SLOAD PUSH1 0x1 PUSH1 0xFF NOT SWAP1 SWAP2 AND OR PUSH2 0xFF00 NOT AND PUSH2 0x100 PUSH1 0xFF DUP8 AND MUL OR PUSH14 0xFFFFFFFFFFFFFFFFFFFFFFFF0000 NOT AND PUSH3 0x10000 PUSH1 0x1 PUSH1 0x1 PUSH1 0x60 SHL SUB DUP4 AND MUL OR SWAP1 SWAP2 SSTORE SWAP2 POP POP JUMPDEST SWAP4 SWAP3 POP POP POP JUMP JUMPDEST PUSH1 0x0 DUP3 DUP3 ADD DUP4 DUP2 LT ISZERO PUSH2 0x2459 JUMPI PUSH1 0x40 MLOAD PUSH3 0x461BCD PUSH1 0xE5 SHL DUP2 MSTORE PUSH1 0x4 ADD PUSH2 0x85F SWAP1 PUSH2 0x43D0 JUMP JUMPDEST PUSH1 0x0 DUP3 DUP3 GT ISZERO PUSH2 0x24A7 JUMPI PUSH1 0x40 MLOAD PUSH3 0x461BCD PUSH1 0xE5 SHL DUP2 MSTORE PUSH1 0x4 ADD PUSH2 0x85F SWAP1 PUSH2 0x44D0 JUMP JUMPDEST POP SWAP1 SUB SWAP1 JUMP JUMPDEST PUSH1 0x8 SLOAD PUSH1 0x40 MLOAD PUSH1 0x1 PUSH1 0x1 PUSH1 0xA0 SHL SUB SWAP1 SWAP2 AND SWAP1 PUSH4 0xF2B06537 SWAP1 PUSH2 0x24DB SWAP1 DUP9 SWAP1 DUP9 SWAP1 DUP9 SWAP1 DUP9 SWAP1 DUP9 SWAP1 PUSH1 0x20 ADD PUSH2 0x40AD JUMP JUMPDEST PUSH1 0x40 MLOAD PUSH1 0x20 DUP2 DUP4 SUB SUB DUP2 MSTORE SWAP1 PUSH1 0x40 MSTORE DUP1 MLOAD SWAP1 PUSH1 0x20 ADD KECCAK256 PUSH1 0x40 MLOAD DUP3 PUSH4 0xFFFFFFFF AND PUSH1 0xE0 SHL DUP2 MSTORE PUSH1 0x4 ADD PUSH2 0x250D SWAP2 SWAP1 PUSH2 0x41A3 JUMP JUMPDEST PUSH1 0x20 PUSH1 0x40 MLOAD DUP1 DUP4 SUB DUP2 DUP7 DUP1 EXTCODESIZE ISZERO DUP1 ISZERO PUSH2 0x2525 JUMPI PUSH1 0x0 DUP1 REVERT JUMPDEST POP GAS STATICCALL ISZERO DUP1 ISZERO PUSH2 0x2539 JUMPI RETURNDATASIZE PUSH1 0x0 DUP1 RETURNDATACOPY RETURNDATASIZE PUSH1 0x0 REVERT JUMPDEST POP POP POP POP PUSH1 0x40 MLOAD RETURNDATASIZE PUSH1 0x1F NOT PUSH1 0x1F DUP3 ADD AND DUP3 ADD DUP1 PUSH1 0x40 MSTORE POP PUSH2 0x255D SWAP2 SWAP1 DUP2 ADD SWAP1 PUSH2 0x2D3F JUMP JUMPDEST ISZERO PUSH2 0x257A JUMPI PUSH1 0x40 MLOAD PUSH3 0x461BCD PUSH1 0xE5 SHL DUP2 MSTORE PUSH1 0x4 ADD PUSH2 0x85F SWAP1 PUSH2 0x42A0 JUMP JUMPDEST PUSH1 0x8 SLOAD PUSH1 0x40 MLOAD PUSH4 0x3A66F901 PUSH1 0xE0 SHL DUP2 MSTORE PUSH1 0x1 PUSH1 0x1 PUSH1 0xA0 SHL SUB SWAP1 SWAP2 AND SWAP1 PUSH4 0x3A66F901 SWAP1 PUSH2 0x25B2 SWAP1 DUP9 SWAP1 DUP9 SWAP1 DUP9 SWAP1 DUP9 SWAP1 DUP9 SWAP1 PUSH1 0x4 ADD PUSH2 0x40AD JUMP JUMPDEST PUSH1 0x20 PUSH1 0x40 MLOAD DUP1 DUP4 SUB DUP2 PUSH1 0x0 DUP8 DUP1 EXTCODESIZE ISZERO DUP1 ISZERO PUSH2 0x25CC JUMPI PUSH1 0x0 DUP1 REVERT JUMPDEST POP GAS CALL ISZERO DUP1 ISZERO PUSH2 0x25E0 JUMPI RETURNDATASIZE PUSH1 0x0 DUP1 RETURNDATACOPY RETURNDATASIZE PUSH1 0x0 REVERT JUMPDEST POP POP POP POP PUSH1 0x40 MLOAD RETURNDATASIZE PUSH1 0x1F NOT PUSH1 0x1F DUP3 ADD AND DUP3 ADD DUP1 PUSH1 0x40 MSTORE POP PUSH2 0x2604 SWAP2 SWAP1 DUP2 ADD SWAP1 PUSH2 0x2D5D JUMP JUMPDEST POP POP POP POP POP POP JUMP JUMPDEST DUP3 DUP1 SLOAD DUP3 DUP3 SSTORE SWAP1 PUSH1 0x0 MSTORE PUSH1 0x20 PUSH1 0x0 KECCAK256 SWAP1 DUP2 ADD SWAP3 DUP3 ISZERO PUSH2 0x2661 JUMPI SWAP2 PUSH1 0x20 MUL DUP3 ADD JUMPDEST DUP3 DUP2 GT ISZERO PUSH2 0x2661 JUMPI DUP3 MLOAD DUP3 SLOAD PUSH1 0x1 PUSH1 0x1 PUSH1 0xA0 SHL SUB NOT AND PUSH1 0x1 PUSH1 0x1 PUSH1 0xA0 SHL SUB SWAP1 SWAP2 AND OR DUP3 SSTORE PUSH1 0x20 SWAP1 SWAP3 ADD SWAP2 PUSH1 0x1 SWAP1 SWAP2 ADD SWAP1 PUSH2 0x262C JUMP JUMPDEST POP PUSH2 0x266D SWAP3 SWAP2 POP PUSH2 0x278A JUMP JUMPDEST POP SWAP1 JUMP JUMPDEST DUP3 DUP1 SLOAD DUP3 DUP3 SSTORE SWAP1 PUSH1 0x0 MSTORE PUSH1 0x20 PUSH1 0x0 KECCAK256 SWAP1 DUP2 ADD SWAP3 DUP3 ISZERO PUSH2 0x26AC JUMPI SWAP2 PUSH1 0x20 MUL DUP3 ADD JUMPDEST DUP3 DUP2 GT ISZERO PUSH2 0x26AC JUMPI DUP3 MLOAD DUP3 SSTORE SWAP2 PUSH1 0x20 ADD SWAP2 SWAP1 PUSH1 0x1 ADD SWAP1 PUSH2 0x2691 JUMP JUMPDEST POP PUSH2 0x266D SWAP3 SWAP2 POP PUSH2 0x27AE JUMP JUMPDEST DUP3 DUP1 SLOAD DUP3 DUP3 SSTORE SWAP1 PUSH1 0x0 MSTORE PUSH1 0x20 PUSH1 0x0 KECCAK256 SWAP1 DUP2 ADD SWAP3 DUP3 ISZERO PUSH2 0x2705 JUMPI SWAP2 PUSH1 0x20 MUL DUP3 ADD JUMPDEST DUP3 DUP2 GT ISZERO PUSH2 0x2705 JUMPI DUP3 MLOAD DUP1 MLOAD PUSH2 0x26F5 SWAP2 DUP5 SWAP2 PUSH1 0x20 SWAP1 SWAP2 ADD SWAP1 PUSH2 0x27C8 JUMP JUMPDEST POP SWAP2 PUSH1 0x20 ADD SWAP2 SWAP1 PUSH1 0x1 ADD SWAP1 PUSH2 0x26D8 JUMP JUMPDEST POP PUSH2 0x266D SWAP3 SWAP2 POP PUSH2 0x2835 JUMP JUMPDEST DUP3 DUP1 SLOAD DUP3 DUP3 SSTORE SWAP1 PUSH1 0x0 MSTORE PUSH1 0x20 PUSH1 0x0 KECCAK256 SWAP1 DUP2 ADD SWAP3 DUP3 ISZERO PUSH2 0x275E JUMPI SWAP2 PUSH1 0x20 MUL DUP3 ADD JUMPDEST DUP3 DUP2 GT ISZERO PUSH2 0x275E JUMPI DUP3 MLOAD DUP1 MLOAD PUSH2 0x274E SWAP2 DUP5 SWAP2 PUSH1 0x20 SWAP1 SWAP2 ADD SWAP1 PUSH2 0x27C8 JUMP JUMPDEST POP SWAP2 PUSH1 0x20 ADD SWAP2 SWAP1 PUSH1 0x1 ADD SWAP1 PUSH2 0x2731 JUMP JUMPDEST POP PUSH2 0x266D SWAP3 SWAP2 POP PUSH2 0x2858 JUMP JUMPDEST PUSH1 0x40 DUP1 MLOAD PUSH1 0x60 DUP2 ADD DUP3 MSTORE PUSH1 0x0 DUP1 DUP3 MSTORE PUSH1 0x20 DUP3 ADD DUP2 SWAP1 MSTORE SWAP2 DUP2 ADD SWAP2 SWAP1 SWAP2 MSTORE SWAP1 JUMP JUMPDEST PUSH2 0x226C SWAP2 SWAP1 JUMPDEST DUP1 DUP3 GT ISZERO PUSH2 0x266D JUMPI DUP1 SLOAD PUSH1 0x1 PUSH1 0x1 PUSH1 0xA0 SHL SUB NOT AND DUP2 SSTORE PUSH1 0x1 ADD PUSH2 0x2790 JUMP JUMPDEST PUSH2 0x226C SWAP2 SWAP1 JUMPDEST DUP1 DUP3 GT ISZERO PUSH2 0x266D JUMPI PUSH1 0x0 DUP2 SSTORE PUSH1 0x1 ADD PUSH2 0x27B4 JUMP JUMPDEST DUP3 DUP1 SLOAD PUSH1 0x1 DUP2 PUSH1 0x1 AND ISZERO PUSH2 0x100 MUL SUB AND PUSH1 0x2 SWAP1 DIV SWAP1 PUSH1 0x0 MSTORE PUSH1 0x20 PUSH1 0x0 KECCAK256 SWAP1 PUSH1 0x1F ADD PUSH1 0x20 SWAP1 DIV DUP2 ADD SWAP3 DUP3 PUSH1 0x1F LT PUSH2 0x2809 JUMPI DUP1 MLOAD PUSH1 0xFF NOT AND DUP4 DUP1 ADD OR DUP6 SSTORE PUSH2 0x26AC JUMP JUMPDEST DUP3 DUP1 ADD PUSH1 0x1 ADD DUP6 SSTORE DUP3 ISZERO PUSH2 0x26AC JUMPI SWAP2 DUP3 ADD DUP3 DUP2 GT ISZERO PUSH2 0x26AC JUMPI DUP3 MLOAD DUP3 SSTORE SWAP2 PUSH1 0x20 ADD SWAP2 SWAP1 PUSH1 0x1 ADD SWAP1 PUSH2 0x2691 JUMP JUMPDEST PUSH2 0x226C SWAP2 SWAP1 JUMPDEST DUP1 DUP3 GT ISZERO PUSH2 0x266D JUMPI PUSH1 0x0 PUSH2 0x284F DUP3 DUP3 PUSH2 0x287B JUMP JUMPDEST POP PUSH1 0x1 ADD PUSH2 0x283B JUMP JUMPDEST PUSH2 0x226C SWAP2 SWAP1 JUMPDEST DUP1 DUP3 GT ISZERO PUSH2 0x266D JUMPI PUSH1 0x0 PUSH2 0x2872 DUP3 DUP3 PUSH2 0x287B JUMP JUMPDEST POP PUSH1 0x1 ADD PUSH2 0x285E JUMP JUMPDEST POP DUP1 SLOAD PUSH1 0x1 DUP2 PUSH1 0x1 AND ISZERO PUSH2 0x100 MUL SUB AND PUSH1 0x2 SWAP1 DIV PUSH1 0x0 DUP3 SSTORE DUP1 PUSH1 0x1F LT PUSH2 0x28A1 JUMPI POP PUSH2 0x28BF JUMP JUMPDEST PUSH1 0x1F ADD PUSH1 0x20 SWAP1 DIV SWAP1 PUSH1 0x0 MSTORE PUSH1 0x20 PUSH1 0x0 KECCAK256 SWAP1 DUP2 ADD SWAP1 PUSH2 0x28BF SWAP2 SWAP1 PUSH2 0x27AE JUMP JUMPDEST POP JUMP JUMPDEST DUP1 CALLDATALOAD PUSH2 0x1E8D DUP2 PUSH2 0x47F4 JUMP JUMPDEST PUSH1 0x0 DUP3 PUSH1 0x1F DUP4 ADD SLT PUSH2 0x28DE JUMPI PUSH1 0x0 DUP1 REVERT JUMPDEST DUP2 CALLDATALOAD PUSH2 0x28F1 PUSH2 0x28EC DUP3 PUSH2 0x46E0 JUMP JUMPDEST PUSH2 0x46B9 JUMP JUMPDEST SWAP2 POP DUP2 DUP2 DUP4 MSTORE PUSH1 0x20 DUP5 ADD SWAP4 POP PUSH1 0x20 DUP2 ADD SWAP1 POP DUP4 DUP6 PUSH1 0x20 DUP5 MUL DUP3 ADD GT ISZERO PUSH2 0x2916 JUMPI PUSH1 0x0 DUP1 REVERT JUMPDEST PUSH1 0x0 JUMPDEST DUP4 DUP2 LT ISZERO PUSH2 0x2942 JUMPI DUP2 PUSH2 0x292C DUP9 DUP3 PUSH2 0x28C2 JUMP JUMPDEST DUP5 MSTORE POP PUSH1 0x20 SWAP3 DUP4 ADD SWAP3 SWAP2 SWAP1 SWAP2 ADD SWAP1 PUSH1 0x1 ADD PUSH2 0x2919 JUMP JUMPDEST POP POP POP POP SWAP3 SWAP2 POP POP JUMP JUMPDEST PUSH1 0x0 DUP3 PUSH1 0x1F DUP4 ADD SLT PUSH2 0x295D JUMPI PUSH1 0x0 DUP1 REVERT JUMPDEST DUP2 CALLDATALOAD PUSH2 0x296B PUSH2 0x28EC DUP3 PUSH2 0x46E0 JUMP JUMPDEST DUP2 DUP2 MSTORE PUSH1 0x20 SWAP4 DUP5 ADD SWAP4 SWAP1 SWAP3 POP DUP3 ADD DUP4 PUSH1 0x0 JUMPDEST DUP4 DUP2 LT ISZERO PUSH2 0x2942 JUMPI DUP2 CALLDATALOAD DUP7 ADD PUSH2 0x2993 DUP9 DUP3 PUSH2 0x2A97 JUMP JUMPDEST DUP5 MSTORE POP PUSH1 0x20 SWAP3 DUP4 ADD SWAP3 SWAP2 SWAP1 SWAP2 ADD SWAP1 PUSH1 0x1 ADD PUSH2 0x297D JUMP JUMPDEST PUSH1 0x0 DUP3 PUSH1 0x1F DUP4 ADD SLT PUSH2 0x29BA JUMPI PUSH1 0x0 DUP1 REVERT JUMPDEST DUP2 CALLDATALOAD PUSH2 0x29C8 PUSH2 0x28EC DUP3 PUSH2 0x46E0 JUMP JUMPDEST DUP2 DUP2 MSTORE PUSH1 0x20 SWAP4 DUP5 ADD SWAP4 SWAP1 SWAP3 POP DUP3 ADD DUP4 PUSH1 0x0 JUMPDEST DUP4 DUP2 LT ISZERO PUSH2 0x2942 JUMPI DUP2 CALLDATALOAD DUP7 ADD PUSH2 0x29F0 DUP9 DUP3 PUSH2 0x2A97 JUMP JUMPDEST DUP5 MSTORE POP PUSH1 0x20 SWAP3 DUP4 ADD SWAP3 SWAP2 SWAP1 SWAP2 ADD SWAP1 PUSH1 0x1 ADD PUSH2 0x29DA JUMP JUMPDEST PUSH1 0x0 DUP3 PUSH1 0x1F DUP4 ADD SLT PUSH2 0x2A17 JUMPI PUSH1 0x0 DUP1 REVERT JUMPDEST DUP2 CALLDATALOAD PUSH2 0x2A25 PUSH2 0x28EC DUP3 PUSH2 0x46E0 JUMP JUMPDEST SWAP2 POP DUP2 DUP2 DUP4 MSTORE PUSH1 0x20 DUP5 ADD SWAP4 POP PUSH1 0x20 DUP2 ADD SWAP1 POP DUP4 DUP6 PUSH1 0x20 DUP5 MUL DUP3 ADD GT ISZERO PUSH2 0x2A4A JUMPI PUSH1 0x0 DUP1 REVERT JUMPDEST PUSH1 0x0 JUMPDEST DUP4 DUP2 LT ISZERO PUSH2 0x2942 JUMPI DUP2 PUSH2 0x2A60 DUP9 DUP3 PUSH2 0x2A81 JUMP JUMPDEST DUP5 MSTORE POP PUSH1 0x20 SWAP3 DUP4 ADD SWAP3 SWAP2 SWAP1 SWAP2 ADD SWAP1 PUSH1 0x1 ADD PUSH2 0x2A4D JUMP JUMPDEST DUP1 MLOAD PUSH2 0x1E8D DUP2 PUSH2 0x4808 JUMP JUMPDEST DUP1 CALLDATALOAD PUSH2 0x1E8D DUP2 PUSH2 0x4811 JUMP JUMPDEST DUP1 MLOAD PUSH2 0x1E8D DUP2 PUSH2 0x4811 JUMP JUMPDEST PUSH1 0x0 DUP3 PUSH1 0x1F DUP4 ADD SLT PUSH2 0x2AA8 JUMPI PUSH1 0x0 DUP1 REVERT JUMPDEST DUP2 CALLDATALOAD PUSH2 0x2AB6 PUSH2 0x28EC DUP3 PUSH2 0x4701 JUMP JUMPDEST SWAP2 POP DUP1 DUP3 MSTORE PUSH1 0x20 DUP4 ADD PUSH1 0x20 DUP4 ADD DUP6 DUP4 DUP4 ADD GT ISZERO PUSH2 0x2AD2 JUMPI PUSH1 0x0 DUP1 REVERT JUMPDEST PUSH2 0x2ADD DUP4 DUP3 DUP5 PUSH2 0x47A8 JUMP JUMPDEST POP POP POP SWAP3 SWAP2 POP POP JUMP JUMPDEST PUSH1 0x0 DUP3 PUSH1 0x1F DUP4 ADD SLT PUSH2 0x2AF7 JUMPI PUSH1 0x0 DUP1 REVERT JUMPDEST DUP2 MLOAD PUSH2 0x2B05 PUSH2 0x28EC DUP3 PUSH2 0x4701 JUMP JUMPDEST SWAP2 POP DUP1 DUP3 MSTORE PUSH1 0x20 DUP4 ADD PUSH1 0x20 DUP4 ADD DUP6 DUP4 DUP4 ADD GT ISZERO PUSH2 0x2B21 JUMPI PUSH1 0x0 DUP1 REVERT JUMPDEST PUSH2 0x2ADD DUP4 DUP3 DUP5 PUSH2 0x47B4 JUMP JUMPDEST PUSH1 0x0 DUP1 DUP4 PUSH1 0x1F DUP5 ADD SLT PUSH2 0x2B3E JUMPI PUSH1 0x0 DUP1 REVERT JUMPDEST POP DUP2 CALLDATALOAD PUSH8 0xFFFFFFFFFFFFFFFF DUP2 GT ISZERO PUSH2 0x2B56 JUMPI PUSH1 0x0 DUP1 REVERT JUMPDEST PUSH1 0x20 DUP4 ADD SWAP2 POP DUP4 PUSH1 0x1 DUP3 MUL DUP4 ADD GT ISZERO PUSH2 0x2B6E JUMPI PUSH1 0x0 DUP1 REVERT JUMPDEST SWAP3 POP SWAP3 SWAP1 POP JUMP JUMPDEST DUP1 CALLDATALOAD PUSH2 0x1E8D DUP2 PUSH2 0x481A JUMP JUMPDEST DUP1 MLOAD PUSH2 0x1E8D DUP2 PUSH2 0x4823 JUMP JUMPDEST PUSH1 0x0 PUSH1 0x20 DUP3 DUP5 SUB SLT ISZERO PUSH2 0x2B9D JUMPI PUSH1 0x0 DUP1 REVERT JUMPDEST PUSH1 0x0 PUSH2 0x2BA9 DUP5 DUP5 PUSH2 0x28C2 JUMP JUMPDEST SWAP5 SWAP4 POP POP POP POP JUMP JUMPDEST PUSH1 0x0 DUP1 PUSH1 0x0 DUP1 PUSH1 0x0 PUSH1 0xA0 DUP7 DUP9 SUB SLT ISZERO PUSH2 0x2BC9 JUMPI PUSH1 0x0 DUP1 REVERT JUMPDEST PUSH1 0x0 PUSH2 0x2BD5 DUP9 DUP9 PUSH2 0x28C2 JUMP JUMPDEST SWAP6 POP POP PUSH1 0x20 PUSH2 0x2BE6 DUP9 DUP3 DUP10 ADD PUSH2 0x28C2 JUMP JUMPDEST SWAP5 POP POP PUSH1 0x40 PUSH2 0x2BF7 DUP9 DUP3 DUP10 ADD PUSH2 0x2A81 JUMP JUMPDEST SWAP4 POP POP PUSH1 0x60 PUSH2 0x2C08 DUP9 DUP3 DUP10 ADD PUSH2 0x2A81 JUMP JUMPDEST SWAP3 POP POP PUSH1 0x80 PUSH2 0x2C19 DUP9 DUP3 DUP10 ADD PUSH2 0x2A81 JUMP JUMPDEST SWAP2 POP POP SWAP3 SWAP6 POP SWAP3 SWAP6 SWAP1 SWAP4 POP JUMP JUMPDEST PUSH1 0x0 DUP1 PUSH1 0x40 DUP4 DUP6 SUB SLT ISZERO PUSH2 0x2C39 JUMPI PUSH1 0x0 DUP1 REVERT JUMPDEST PUSH1 0x0 PUSH2 0x2C45 DUP6 DUP6 PUSH2 0x28C2 JUMP JUMPDEST SWAP3 POP POP PUSH1 0x20 PUSH2 0x2C56 DUP6 DUP3 DUP7 ADD PUSH2 0x2A81 JUMP JUMPDEST SWAP2 POP POP SWAP3 POP SWAP3 SWAP1 POP JUMP JUMPDEST PUSH1 0x0 DUP1 PUSH1 0x0 DUP1 PUSH1 0x0 PUSH1 0xA0 DUP7 DUP9 SUB SLT ISZERO PUSH2 0x2C78 JUMPI PUSH1 0x0 DUP1 REVERT JUMPDEST DUP6 CALLDATALOAD PUSH8 0xFFFFFFFFFFFFFFFF DUP2 GT ISZERO PUSH2 0x2C8F JUMPI PUSH1 0x0 DUP1 REVERT JUMPDEST PUSH2 0x2C9B DUP9 DUP3 DUP10 ADD PUSH2 0x28CD JUMP JUMPDEST SWAP6 POP POP PUSH1 0x20 DUP7 ADD CALLDATALOAD PUSH8 0xFFFFFFFFFFFFFFFF DUP2 GT ISZERO PUSH2 0x2CB8 JUMPI PUSH1 0x0 DUP1 REVERT JUMPDEST PUSH2 0x2CC4 DUP9 DUP3 DUP10 ADD PUSH2 0x2A06 JUMP JUMPDEST SWAP5 POP POP PUSH1 0x40 DUP7 ADD CALLDATALOAD PUSH8 0xFFFFFFFFFFFFFFFF DUP2 GT ISZERO PUSH2 0x2CE1 JUMPI PUSH1 0x0 DUP1 REVERT JUMPDEST PUSH2 0x2CED DUP9 DUP3 DUP10 ADD PUSH2 0x29A9 JUMP JUMPDEST SWAP4 POP POP PUSH1 0x60 DUP7 ADD CALLDATALOAD PUSH8 0xFFFFFFFFFFFFFFFF DUP2 GT ISZERO PUSH2 0x2D0A JUMPI PUSH1 0x0 DUP1 REVERT JUMPDEST PUSH2 0x2D16 DUP9 DUP3 DUP10 ADD PUSH2 0x294C JUMP JUMPDEST SWAP3 POP POP PUSH1 0x80 DUP7 ADD CALLDATALOAD PUSH8 0xFFFFFFFFFFFFFFFF DUP2 GT ISZERO PUSH2 0x2D33 JUMPI PUSH1 0x0 DUP1 REVERT JUMPDEST PUSH2 0x2C19 DUP9 DUP3 DUP10 ADD PUSH2 0x2A97 JUMP JUMPDEST PUSH1 0x0 PUSH1 0x20 DUP3 DUP5 SUB SLT ISZERO PUSH2 0x2D51 JUMPI PUSH1 0x0 DUP1 REVERT JUMPDEST PUSH1 0x0 PUSH2 0x2BA9 DUP5 DUP5 PUSH2 0x2A76 JUMP JUMPDEST PUSH1 0x0 PUSH1 0x20 DUP3 DUP5 SUB SLT ISZERO PUSH2 0x2D6F JUMPI PUSH1 0x0 DUP1 REVERT JUMPDEST PUSH1 0x0 PUSH2 0x2BA9 DUP5 DUP5 PUSH2 0x2A8C JUMP JUMPDEST PUSH1 0x0 PUSH1 0x20 DUP3 DUP5 SUB SLT ISZERO PUSH2 0x2D8D JUMPI PUSH1 0x0 DUP1 REVERT JUMPDEST DUP2 MLOAD PUSH8 0xFFFFFFFFFFFFFFFF DUP2 GT ISZERO PUSH2 0x2DA4 JUMPI PUSH1 0x0 DUP1 REVERT JUMPDEST PUSH2 0x2BA9 DUP5 DUP3 DUP6 ADD PUSH2 0x2AE6 JUMP JUMPDEST PUSH1 0x0 PUSH1 0x20 DUP3 DUP5 SUB SLT ISZERO PUSH2 0x2DC2 JUMPI PUSH1 0x0 DUP1 REVERT JUMPDEST PUSH1 0x0 PUSH2 0x2BA9 DUP5 DUP5 PUSH2 0x2A81 JUMP JUMPDEST PUSH1 0x0 DUP1 PUSH1 0x40 DUP4 DUP6 SUB SLT ISZERO PUSH2 0x2DE1 JUMPI PUSH1 0x0 DUP1 REVERT JUMPDEST PUSH1 0x0 PUSH2 0x2DED DUP6 DUP6 PUSH2 0x2A81 JUMP JUMPDEST SWAP3 POP POP PUSH1 0x20 PUSH2 0x2C56 DUP6 DUP3 DUP7 ADD PUSH2 0x28C2 JUMP JUMPDEST PUSH1 0x0 DUP1 PUSH1 0x40 DUP4 DUP6 SUB SLT ISZERO PUSH2 0x2E11 JUMPI PUSH1 0x0 DUP1 REVERT JUMPDEST PUSH1 0x0 PUSH2 0x2E1D DUP6 DUP6 PUSH2 0x2A81 JUMP JUMPDEST SWAP3 POP POP PUSH1 0x20 PUSH2 0x2C56 DUP6 DUP3 DUP7 ADD PUSH2 0x2B75 JUMP JUMPDEST PUSH1 0x0 DUP1 PUSH1 0x0 DUP1 PUSH1 0x60 DUP6 DUP8 SUB SLT ISZERO PUSH2 0x2E44 JUMPI PUSH1 0x0 DUP1 REVERT JUMPDEST PUSH1 0x0 PUSH2 0x2E50 DUP8 DUP8 PUSH2 0x2A81 JUMP JUMPDEST SWAP5 POP POP PUSH1 0x20 PUSH2 0x2E61 DUP8 DUP3 DUP9 ADD PUSH2 0x2B75 JUMP JUMPDEST SWAP4 POP POP PUSH1 0x40 DUP6 ADD CALLDATALOAD PUSH8 0xFFFFFFFFFFFFFFFF DUP2 GT ISZERO PUSH2 0x2E7E JUMPI PUSH1 0x0 DUP1 REVERT JUMPDEST PUSH2 0x2E8A DUP8 DUP3 DUP9 ADD PUSH2 0x2B2C JUMP JUMPDEST SWAP6 SWAP9 SWAP5 SWAP8 POP SWAP6 POP POP POP POP JUMP JUMPDEST PUSH1 0x0 DUP1 PUSH1 0x0 DUP1 PUSH1 0x0 PUSH1 0xA0 DUP7 DUP9 SUB SLT ISZERO PUSH2 0x2EAE JUMPI PUSH1 0x0 DUP1 REVERT JUMPDEST PUSH1 0x0 PUSH2 0x2EBA DUP9 DUP9 PUSH2 0x2A81 JUMP JUMPDEST SWAP6 POP POP PUSH1 0x20 PUSH2 0x2ECB DUP9 DUP3 DUP10 ADD PUSH2 0x2B75 JUMP JUMPDEST SWAP5 POP POP PUSH1 0x40 PUSH2 0x2BF7 DUP9 DUP3 DUP10 ADD PUSH2 0x2B75 JUMP JUMPDEST PUSH1 0x0 PUSH1 0x20 DUP3 DUP5 SUB SLT ISZERO PUSH2 0x2EEE JUMPI PUSH1 0x0 DUP1 REVERT JUMPDEST PUSH1 0x0 PUSH2 0x2BA9 DUP5 DUP5 PUSH2 0x2B80 JUMP JUMPDEST PUSH1 0x0 PUSH2 0x2F06 DUP4 DUP4 PUSH2 0x2F35 JUMP JUMPDEST POP POP PUSH1 0x20 ADD SWAP1 JUMP JUMPDEST PUSH1 0x0 PUSH2 0x2459 DUP4 DUP4 PUSH2 0x30D7 JUMP JUMPDEST PUSH1 0x0 PUSH2 0x2F06 DUP4 DUP4 PUSH2 0x30BD JUMP JUMPDEST PUSH2 0x2F2F DUP2 PUSH2 0x4780 JUMP JUMPDEST DUP3 MSTORE POP POP JUMP JUMPDEST PUSH2 0x2F2F DUP2 PUSH2 0x4748 JUMP JUMPDEST PUSH1 0x0 PUSH2 0x2F49 DUP3 PUSH2 0x473B JUMP JUMPDEST PUSH2 0x2F53 DUP2 DUP6 PUSH2 0x473F JUMP JUMPDEST SWAP4 POP PUSH2 0x2F5E DUP4 PUSH2 0x4729 JUMP JUMPDEST DUP1 PUSH1 0x0 JUMPDEST DUP4 DUP2 LT ISZERO PUSH2 0x2F8C JUMPI DUP2 MLOAD PUSH2 0x2F76 DUP9 DUP3 PUSH2 0x2EFA JUMP JUMPDEST SWAP8 POP PUSH2 0x2F81 DUP4 PUSH2 0x4729 JUMP JUMPDEST SWAP3 POP POP PUSH1 0x1 ADD PUSH2 0x2F62 JUMP JUMPDEST POP SWAP5 SWAP6 SWAP5 POP POP POP POP POP JUMP JUMPDEST PUSH1 0x0 PUSH2 0x2FA2 DUP3 PUSH2 0x473B JUMP JUMPDEST PUSH2 0x2FAC DUP2 DUP6 PUSH2 0x473F JUMP JUMPDEST SWAP4 POP DUP4 PUSH1 0x20 DUP3 MUL DUP6 ADD PUSH2 0x2FBE DUP6 PUSH2 0x4729 JUMP JUMPDEST DUP1 PUSH1 0x0 JUMPDEST DUP6 DUP2 LT ISZERO PUSH2 0x2FF8 JUMPI DUP5 DUP5 SUB DUP10 MSTORE DUP2 MLOAD PUSH2 0x2FDB DUP6 DUP3 PUSH2 0x2F0E JUMP JUMPDEST SWAP5 POP PUSH2 0x2FE6 DUP4 PUSH2 0x4729 JUMP JUMPDEST PUSH1 0x20 SWAP11 SWAP1 SWAP11 ADD SWAP10 SWAP3 POP POP PUSH1 0x1 ADD PUSH2 0x2FC2 JUMP JUMPDEST POP SWAP2 SWAP8 SWAP7 POP POP POP POP POP POP POP JUMP JUMPDEST PUSH1 0x0 PUSH2 0x3010 DUP3 PUSH2 0x473B JUMP JUMPDEST PUSH2 0x301A DUP2 DUP6 PUSH2 0x473F JUMP JUMPDEST SWAP4 POP DUP4 PUSH1 0x20 DUP3 MUL DUP6 ADD PUSH2 0x302C DUP6 PUSH2 0x4729 JUMP JUMPDEST DUP1 PUSH1 0x0 JUMPDEST DUP6 DUP2 LT ISZERO PUSH2 0x2FF8 JUMPI DUP5 DUP5 SUB DUP10 MSTORE DUP2 MLOAD PUSH2 0x3049 DUP6 DUP3 PUSH2 0x2F0E JUMP JUMPDEST SWAP5 POP PUSH2 0x3054 DUP4 PUSH2 0x4729 JUMP JUMPDEST PUSH1 0x20 SWAP11 SWAP1 SWAP11 ADD SWAP10 SWAP3 POP POP PUSH1 0x1 ADD PUSH2 0x3030 JUMP JUMPDEST PUSH1 0x0 PUSH2 0x3071 DUP3 PUSH2 0x473B JUMP JUMPDEST PUSH2 0x307B DUP2 DUP6 PUSH2 0x473F JUMP JUMPDEST SWAP4 POP PUSH2 0x3086 DUP4 PUSH2 0x4729 JUMP JUMPDEST DUP1 PUSH1 0x0 JUMPDEST DUP4 DUP2 LT ISZERO PUSH2 0x2F8C JUMPI DUP2 MLOAD PUSH2 0x309E DUP9 DUP3 PUSH2 0x2F1A JUMP JUMPDEST SWAP8 POP PUSH2 0x30A9 DUP4 PUSH2 0x4729 JUMP JUMPDEST SWAP3 POP POP PUSH1 0x1 ADD PUSH2 0x308A JUMP JUMPDEST PUSH2 0x2F2F DUP2 PUSH2 0x4753 JUMP JUMPDEST PUSH2 0x2F2F DUP2 PUSH2 0x226C JUMP JUMPDEST PUSH2 0x2F2F PUSH2 0x30D2 DUP3 PUSH2 0x226C JUMP JUMPDEST PUSH2 0x226C JUMP JUMPDEST PUSH1 0x0 PUSH2 0x30E2 DUP3 PUSH2 0x473B JUMP JUMPDEST PUSH2 0x30EC DUP2 DUP6 PUSH2 0x473F JUMP JUMPDEST SWAP4 POP PUSH2 0x30FC DUP2 DUP6 PUSH1 0x20 DUP7 ADD PUSH2 0x47B4 JUMP JUMPDEST PUSH2 0x3105 DUP2 PUSH2 0x47E0 JUMP JUMPDEST SWAP1 SWAP4 ADD SWAP4 SWAP3 POP POP POP JUMP JUMPDEST PUSH1 0x0 DUP2 SLOAD PUSH1 0x1 DUP2 AND PUSH1 0x0 DUP2 EQ PUSH2 0x312C JUMPI PUSH1 0x1 DUP2 EQ PUSH2 0x3152 JUMPI PUSH2 0x3191 JUMP JUMPDEST PUSH1 0x7F PUSH1 0x2 DUP4 DIV AND PUSH2 0x313D DUP2 DUP8 PUSH2 0x473F JUMP JUMPDEST PUSH1 0xFF NOT DUP5 AND DUP2 MSTORE SWAP6 POP POP PUSH1 0x20 DUP6 ADD SWAP3 POP PUSH2 0x3191 JUMP JUMPDEST PUSH1 0x2 DUP3 DIV PUSH2 0x3160 DUP2 DUP8 PUSH2 0x473F JUMP JUMPDEST SWAP6 POP PUSH2 0x316B DUP6 PUSH2 0x472F JUMP JUMPDEST PUSH1 0x0 JUMPDEST DUP3 DUP2 LT ISZERO PUSH2 0x318A JUMPI DUP2 SLOAD DUP9 DUP3 ADD MSTORE PUSH1 0x1 SWAP1 SWAP2 ADD SWAP1 PUSH1 0x20 ADD PUSH2 0x316E JUMP JUMPDEST DUP8 ADD SWAP5 POP POP POP JUMPDEST POP POP SWAP3 SWAP2 POP POP JUMP JUMPDEST PUSH2 0x2F2F DUP2 PUSH2 0x4787 JUMP JUMPDEST PUSH2 0x2F2F DUP2 PUSH2 0x4792 JUMP JUMPDEST PUSH1 0x0 PUSH2 0x31B7 DUP4 DUP6 PUSH2 0x473F JUMP JUMPDEST SWAP4 POP PUSH2 0x31C4 DUP4 DUP6 DUP5 PUSH2 0x47A8 JUMP JUMPDEST PUSH2 0x3105 DUP4 PUSH2 0x47E0 JUMP JUMPDEST PUSH1 0x0 PUSH2 0x31DA PUSH1 0x32 DUP4 PUSH2 0x473F JUMP JUMPDEST PUSH32 0x476F7665726E6F72427261766F3A3A63617374566F7465496E7465726E616C3A DUP2 MSTORE PUSH18 0x20696E76616C696420766F74652074797065 PUSH1 0x70 SHL PUSH1 0x20 DUP3 ADD MSTORE PUSH1 0x40 ADD SWAP3 SWAP2 POP POP JUMP JUMPDEST PUSH1 0x0 PUSH2 0x322E PUSH1 0x28 DUP4 PUSH2 0xD41 JUMP JUMPDEST PUSH32 0x42616C6C6F742875696E743235362070726F706F73616C49642C75696E743820 DUP2 MSTORE PUSH8 0x737570706F727429 PUSH1 0xC0 SHL PUSH1 0x20 DUP3 ADD MSTORE PUSH1 0x28 ADD SWAP3 SWAP2 POP POP JUMP JUMPDEST PUSH1 0x0 PUSH2 0x3278 PUSH1 0x33 DUP4 PUSH2 0x473F JUMP JUMPDEST PUSH32 0x476F7665726E6F72427261766F3A3A696E697469616C697A653A2063616E206F DUP2 MSTORE PUSH19 0x6E6C7920696E697469616C697A65206F6E6365 PUSH1 0x68 SHL PUSH1 0x20 DUP3 ADD MSTORE PUSH1 0x40 ADD SWAP3 SWAP2 POP POP JUMP JUMPDEST PUSH1 0x0 PUSH2 0x32CD PUSH1 0x2A DUP4 PUSH2 0x473F JUMP JUMPDEST PUSH32 0x476F7665726E6F72427261766F3A5F73657450656E64696E6741646D696E3A20 DUP2 MSTORE PUSH10 0x61646D696E206F6E6C79 PUSH1 0xB0 SHL PUSH1 0x20 DUP3 ADD MSTORE PUSH1 0x40 ADD SWAP3 SWAP2 POP POP JUMP JUMPDEST PUSH1 0x0 PUSH2 0x3319 PUSH1 0x55 DUP4 PUSH2 0x473F JUMP JUMPDEST PUSH32 0x476F7665726E6F72427261766F3A3A71756575654F72526576657274496E7465 DUP2 MSTORE PUSH32 0x726E616C3A206964656E746963616C2070726F706F73616C20616374696F6E20 PUSH1 0x20 DUP3 ADD MSTORE PUSH21 0x616C72656164792071756575656420617420657461 PUSH1 0x58 SHL PUSH1 0x40 DUP3 ADD MSTORE PUSH1 0x60 ADD SWAP3 SWAP2 POP POP JUMP JUMPDEST PUSH1 0x0 PUSH2 0x3396 PUSH1 0x2B DUP4 PUSH2 0x473F JUMP JUMPDEST PUSH32 0x476F7665726E6F72427261766F3A3A5F736574566F74696E67506572696F643A DUP2 MSTORE PUSH11 0x2061646D696E206F6E6C79 PUSH1 0xA8 SHL PUSH1 0x20 DUP3 ADD MSTORE PUSH1 0x40 ADD SWAP3 SWAP2 POP POP JUMP JUMPDEST PUSH1 0x0 PUSH2 0x33E3 PUSH1 0x33 DUP4 PUSH2 0x473F JUMP JUMPDEST PUSH1 0x0 DUP1 MLOAD PUSH1 0x20 PUSH2 0x482D DUP4 CODECOPY DUP2 MLOAD SWAP2 MSTORE DUP2 MSTORE PUSH19 0x69642074696D656C6F636B2061646472657373 PUSH1 0x68 SHL PUSH1 0x20 DUP3 ADD MSTORE PUSH1 0x40 ADD SWAP3 SWAP2 POP POP JUMP JUMPDEST PUSH1 0x0 PUSH2 0x3426 PUSH1 0x2A DUP4 PUSH2 0x473F JUMP JUMPDEST PUSH32 0x476F7665726E6F72427261766F3A3A5F736574566F74696E6744656C61793A20 DUP2 MSTORE PUSH10 0x61646D696E206F6E6C79 PUSH1 0xB0 SHL PUSH1 0x20 DUP3 ADD MSTORE PUSH1 0x40 ADD SWAP3 SWAP2 POP POP JUMP JUMPDEST PUSH1 0x0 PUSH2 0x3472 PUSH1 0x31 DUP4 PUSH2 0x473F JUMP JUMPDEST PUSH32 0x476F7665726E6F72427261766F3A3A70726F706F73653A20476F7665726E6F72 DUP2 MSTORE PUSH17 0x20427261766F206E6F7420616374697665 PUSH1 0x78 SHL PUSH1 0x20 DUP3 ADD MSTORE PUSH1 0x40 ADD SWAP3 SWAP2 POP POP JUMP JUMPDEST PUSH1 0x0 PUSH2 0x34C5 PUSH1 0x2 DUP4 PUSH2 0xD41 JUMP JUMPDEST PUSH2 0x1901 PUSH1 0xF0 SHL DUP2 MSTORE PUSH1 0x2 ADD SWAP3 SWAP2 POP POP JUMP JUMPDEST PUSH1 0x0 PUSH2 0x34E3 PUSH1 0x36 DUP4 PUSH2 0x473F JUMP JUMPDEST PUSH32 0x476F7665726E6F72427261766F3A3A5F736574566F74696E67506572696F643A DUP2 MSTORE PUSH22 0x81A5B9D985B1A59081D9BDD1A5B99C81C195C9A5BD9 PUSH1 0x52 SHL PUSH1 0x20 DUP3 ADD MSTORE PUSH1 0x40 ADD SWAP3 SWAP2 POP POP JUMP JUMPDEST PUSH1 0x0 PUSH2 0x353B PUSH1 0x31 DUP4 PUSH2 0x473F JUMP JUMPDEST PUSH32 0x476F7665726E6F72427261766F3A3A63617374566F7465496E7465726E616C3A DUP2 MSTORE PUSH17 0x81D9BDD1A5B99C81A5CC818DB1BDCD959 PUSH1 0x7A SHL PUSH1 0x20 DUP3 ADD MSTORE PUSH1 0x40 ADD SWAP3 SWAP2 POP POP JUMP JUMPDEST PUSH1 0x0 PUSH2 0x358E PUSH1 0x34 DUP4 PUSH2 0x473F JUMP JUMPDEST PUSH32 0x476F7665726E6F72427261766F3A3A63617374566F7465496E7465726E616C3A DUP2 MSTORE PUSH20 0x81D9BDD195C88185B1C9958591E481D9BDD1959 PUSH1 0x62 SHL PUSH1 0x20 DUP3 ADD MSTORE PUSH1 0x40 ADD SWAP3 SWAP2 POP POP JUMP JUMPDEST PUSH1 0x0 PUSH2 0x35E4 PUSH1 0x34 DUP4 PUSH2 0x473F JUMP JUMPDEST PUSH32 0x476F7665726E6F72427261766F3A3A5F736574566F74696E6744656C61793A20 DUP2 MSTORE PUSH20 0x696E76616C696420766F74696E672064656C6179 PUSH1 0x60 SHL PUSH1 0x20 DUP3 ADD MSTORE PUSH1 0x40 ADD SWAP3 SWAP2 POP POP JUMP JUMPDEST PUSH1 0x0 PUSH2 0x363A PUSH1 0x35 DUP4 PUSH2 0x473F JUMP JUMPDEST PUSH1 0x0 DUP1 MLOAD PUSH1 0x20 PUSH2 0x482D DUP4 CODECOPY DUP2 MLOAD SWAP2 MSTORE DUP2 MSTORE PUSH21 0x1A59081C1C9BDC1BDCD85B081D1A1C995CDA1BDB19 PUSH1 0x5A SHL PUSH1 0x20 DUP3 ADD MSTORE PUSH1 0x40 ADD SWAP3 SWAP2 POP POP JUMP JUMPDEST PUSH1 0x0 PUSH2 0x367F PUSH1 0x2B DUP4 PUSH2 0x473F JUMP JUMPDEST PUSH32 0x476F7665726E6F72427261766F3A3A70726F706F73653A2050726F706F73616C DUP2 MSTORE PUSH11 0x24A21031B7B63639B4B7B7 PUSH1 0xA9 SHL PUSH1 0x20 DUP3 ADD MSTORE PUSH1 0x40 ADD SWAP3 SWAP2 POP POP JUMP JUMPDEST PUSH1 0x0 PUSH2 0x36CC PUSH1 0x45 DUP4 PUSH2 0x473F JUMP JUMPDEST PUSH32 0x476F7665726E6F72427261766F3A3A657865637574653A2070726F706F73616C DUP2 MSTORE PUSH32 0x2063616E206F6E6C792062652065786563757465642069662069742069732071 PUSH1 0x20 DUP3 ADD MSTORE PUSH5 0x1D595D5959 PUSH1 0xDA SHL PUSH1 0x40 DUP3 ADD MSTORE PUSH1 0x60 ADD SWAP3 SWAP2 POP POP JUMP JUMPDEST PUSH1 0x0 PUSH2 0x3739 PUSH1 0x2F DUP4 PUSH2 0x473F JUMP JUMPDEST PUSH32 0x476F7665726E6F72427261766F3A3A63617374566F746542795369673A20696E DUP2 MSTORE PUSH15 0x76616C6964207369676E6174757265 PUSH1 0x88 SHL PUSH1 0x20 DUP3 ADD MSTORE PUSH1 0x40 ADD SWAP3 SWAP2 POP POP JUMP JUMPDEST PUSH1 0x0 PUSH2 0x378A PUSH1 0x2F DUP4 PUSH2 0x473F JUMP JUMPDEST PUSH1 0x0 DUP1 MLOAD PUSH1 0x20 PUSH2 0x482D DUP4 CODECOPY DUP2 MLOAD SWAP2 MSTORE DUP2 MSTORE PUSH15 0x696420766F74696E672064656C6179 PUSH1 0x88 SHL PUSH1 0x20 DUP3 ADD MSTORE PUSH1 0x40 ADD SWAP3 SWAP2 POP POP JUMP JUMPDEST PUSH1 0x0 PUSH2 0x37C9 PUSH1 0x30 DUP4 PUSH2 0x473F JUMP JUMPDEST PUSH32 0x476F7665726E6F72427261766F3A3A5F73657457686974656C69737447756172 DUP2 MSTORE PUSH16 0x6469616E3A2061646D696E206F6E6C79 PUSH1 0x80 SHL PUSH1 0x20 DUP3 ADD MSTORE PUSH1 0x40 ADD SWAP3 SWAP2 POP POP JUMP JUMPDEST PUSH1 0x0 PUSH2 0x381B PUSH1 0x44 DUP4 PUSH2 0x473F JUMP JUMPDEST PUSH32 0x476F7665726E6F72427261766F3A3A70726F706F73653A2070726F706F73616C DUP2 MSTORE PUSH32 0x2066756E6374696F6E20696E666F726D6174696F6E206172697479206D69736D PUSH1 0x20 DUP3 ADD MSTORE PUSH4 0xC2E8C6D PUSH1 0xE3 SHL PUSH1 0x40 DUP3 ADD MSTORE PUSH1 0x60 ADD SWAP3 SWAP2 POP POP JUMP JUMPDEST PUSH1 0x0 PUSH2 0x3887 PUSH1 0x25 DUP4 PUSH2 0x473F JUMP JUMPDEST PUSH32 0x476F7665726E6F72427261766F3A3A696E697469616C697A653A2061646D696E DUP2 MSTORE PUSH5 0x206F6E6C79 PUSH1 0xD8 SHL PUSH1 0x20 DUP3 ADD MSTORE PUSH1 0x40 ADD SWAP3 SWAP2 POP POP JUMP JUMPDEST PUSH1 0x0 PUSH2 0x38CE PUSH1 0x40 DUP4 PUSH2 0x473F JUMP JUMPDEST PUSH32 0x476F7665726E6F72427261766F3A3A5F73657450726F706F73616C5468726573 DUP2 MSTORE PUSH32 0x686F6C643A20696E76616C69642070726F706F73616C207468726573686F6C64 PUSH1 0x20 DUP3 ADD MSTORE PUSH1 0x40 ADD SWAP3 SWAP2 POP POP JUMP JUMPDEST PUSH1 0x0 PUSH2 0x392D PUSH1 0x44 DUP4 PUSH2 0x473F JUMP JUMPDEST PUSH32 0x476F7665726E6F72427261766F3A3A71756575653A2070726F706F73616C2063 DUP2 MSTORE PUSH32 0x616E206F6E6C7920626520717565756564206966206974206973207375636365 PUSH1 0x20 DUP3 ADD MSTORE PUSH4 0x19591959 PUSH1 0xE2 SHL PUSH1 0x40 DUP3 ADD MSTORE PUSH1 0x60 ADD SWAP3 SWAP2 POP POP JUMP JUMPDEST PUSH1 0x0 PUSH2 0x3999 PUSH1 0x11 DUP4 PUSH2 0x473F JUMP JUMPDEST PUSH17 0x6164646974696F6E206F766572666C6F77 PUSH1 0x78 SHL DUP2 MSTORE PUSH1 0x20 ADD SWAP3 SWAP2 POP POP JUMP JUMPDEST PUSH1 0x0 PUSH2 0x39C6 PUSH1 0x43 DUP4 PUSH2 0xD41 JUMP JUMPDEST PUSH32 0x454950373132446F6D61696E28737472696E67206E616D652C75696E74323536 DUP2 MSTORE PUSH32 0x20636861696E49642C6164647265737320766572696679696E67436F6E747261 PUSH1 0x20 DUP3 ADD MSTORE PUSH3 0x637429 PUSH1 0xE8 SHL PUSH1 0x40 DUP3 ADD MSTORE PUSH1 0x43 ADD SWAP3 SWAP2 POP POP JUMP JUMPDEST PUSH1 0x0 PUSH2 0x3A31 PUSH1 0x30 DUP4 PUSH2 0x473F JUMP JUMPDEST PUSH32 0x476F7665726E6F72427261766F3A3A5F696E6974696174653A2063616E206F6E DUP2 MSTORE PUSH16 0x6C7920696E697469617465206F6E6365 PUSH1 0x80 SHL PUSH1 0x20 DUP3 ADD MSTORE PUSH1 0x40 ADD SWAP3 SWAP2 POP POP JUMP JUMPDEST PUSH1 0x0 PUSH2 0x3A83 PUSH1 0x2C DUP4 PUSH2 0x473F JUMP JUMPDEST PUSH32 0x476F7665726E6F72427261766F3A3A70726F706F73653A206D7573742070726F DUP2 MSTORE PUSH12 0x7669646520616374696F6E73 PUSH1 0xA0 SHL PUSH1 0x20 DUP3 ADD MSTORE PUSH1 0x40 ADD SWAP3 SWAP2 POP POP JUMP JUMPDEST PUSH1 0x0 PUSH2 0x3AD1 PUSH1 0x2E DUP4 PUSH2 0x473F JUMP JUMPDEST PUSH32 0x476F7665726E6F72427261766F3A5F61636365707441646D696E3A2070656E64 DUP2 MSTORE PUSH14 0x696E672061646D696E206F6E6C79 PUSH1 0x90 SHL PUSH1 0x20 DUP3 ADD MSTORE PUSH1 0x40 ADD SWAP3 SWAP2 POP POP JUMP JUMPDEST PUSH1 0x0 PUSH2 0x3B21 PUSH1 0x2F DUP4 PUSH2 0x473F JUMP JUMPDEST PUSH1 0x0 DUP1 MLOAD PUSH1 0x20 PUSH2 0x482D DUP4 CODECOPY DUP2 MLOAD SWAP2 MSTORE DUP2 MSTORE PUSH15 0x696420636F6D702061646472657373 PUSH1 0x88 SHL PUSH1 0x20 DUP3 ADD MSTORE PUSH1 0x40 ADD SWAP3 SWAP2 POP POP JUMP JUMPDEST PUSH1 0x0 PUSH2 0x3B60 PUSH1 0x2F DUP4 PUSH2 0x473F JUMP JUMPDEST PUSH32 0x476F7665726E6F72427261766F3A3A63616E63656C3A2070726F706F73657220 DUP2 MSTORE PUSH15 0x18589BDD99481D1A1C995CDA1BDB19 PUSH1 0x8A SHL PUSH1 0x20 DUP3 ADD MSTORE PUSH1 0x40 ADD SWAP3 SWAP2 POP POP JUMP JUMPDEST PUSH1 0x0 PUSH2 0x3BB1 PUSH1 0x28 DUP4 PUSH2 0x473F JUMP JUMPDEST PUSH32 0x476F7665726E6F72427261766F3A3A70726F706F73653A20746F6F206D616E79 DUP2 MSTORE PUSH8 0x20616374696F6E73 PUSH1 0xC0 SHL PUSH1 0x20 DUP3 ADD MSTORE PUSH1 0x40 ADD SWAP3 SWAP2 POP POP JUMP JUMPDEST PUSH1 0x0 PUSH2 0x3BFB PUSH1 0x59 DUP4 PUSH2 0x473F JUMP JUMPDEST PUSH32 0x476F7665726E6F72427261766F3A3A70726F706F73653A206F6E65206C697665 DUP2 MSTORE PUSH32 0x2070726F706F73616C207065722070726F706F7365722C20666F756E6420616E PUSH1 0x20 DUP3 ADD MSTORE PUSH32 0x20616C72656164792070656E64696E672070726F706F73616C00000000000000 PUSH1 0x40 DUP3 ADD MSTORE PUSH1 0x60 ADD SWAP3 SWAP2 POP POP JUMP JUMPDEST PUSH1 0x0 PUSH2 0x3C80 PUSH1 0x58 DUP4 PUSH2 0x473F JUMP JUMPDEST PUSH32 0x476F7665726E6F72427261766F3A3A70726F706F73653A206F6E65206C697665 DUP2 MSTORE PUSH32 0x2070726F706F73616C207065722070726F706F7365722C20666F756E6420616E PUSH1 0x20 DUP3 ADD MSTORE PUSH32 0x20616C7265616479206163746976652070726F706F73616C0000000000000000 PUSH1 0x40 DUP3 ADD MSTORE PUSH1 0x60 ADD SWAP3 SWAP2 POP POP JUMP JUMPDEST PUSH1 0x0 PUSH2 0x1E8D PUSH1 0x0 DUP4 PUSH2 0x473F JUMP JUMPDEST PUSH1 0x0 PUSH2 0x3D12 PUSH1 0x24 DUP4 PUSH2 0x473F JUMP JUMPDEST PUSH32 0x476F7665726E6F72427261766F3A3A5F696E6974696174653A2061646D696E20 DUP2 MSTORE PUSH4 0x6F6E6C79 PUSH1 0xE0 SHL PUSH1 0x20 DUP3 ADD MSTORE PUSH1 0x40 ADD SWAP3 SWAP2 POP POP JUMP JUMPDEST PUSH1 0x0 PUSH2 0x3D58 PUSH1 0x3F DUP4 PUSH2 0x473F JUMP JUMPDEST PUSH32 0x476F7665726E6F72427261766F3A3A70726F706F73653A2070726F706F736572 DUP2 MSTORE PUSH32 0x20766F7465732062656C6F772070726F706F73616C207468726573686F6C6400 PUSH1 0x20 DUP3 ADD MSTORE PUSH1 0x40 ADD SWAP3 SWAP2 POP POP JUMP JUMPDEST PUSH1 0x0 PUSH2 0x3DB7 PUSH1 0x39 DUP4 PUSH2 0x473F JUMP JUMPDEST PUSH32 0x476F7665726E6F72427261766F3A3A5F73657457686974656C6973744163636F DUP2 MSTORE PUSH32 0x756E7445787069726174696F6E3A2061646D696E206F6E6C7900000000000000 PUSH1 0x20 DUP3 ADD MSTORE PUSH1 0x40 ADD SWAP3 SWAP2 POP POP JUMP JUMPDEST PUSH1 0x0 PUSH2 0x3E16 PUSH1 0x36 DUP4 PUSH2 0x473F JUMP JUMPDEST PUSH32 0x476F7665726E6F72427261766F3A3A63616E63656C3A2063616E6E6F74206361 DUP2 MSTORE PUSH22 0x1B98D95B08195E1958DD5D1959081C1C9BDC1BDCD85B PUSH1 0x52 SHL PUSH1 0x20 DUP3 ADD MSTORE PUSH1 0x40 ADD SWAP3 SWAP2 POP POP JUMP JUMPDEST PUSH1 0x0 PUSH2 0x3E6E PUSH1 0x30 DUP4 PUSH2 0x473F JUMP JUMPDEST PUSH32 0x476F7665726E6F72427261766F3A3A5F73657450726F706F73616C5468726573 DUP2 MSTORE PUSH16 0x686F6C643A2061646D696E206F6E6C79 PUSH1 0x80 SHL PUSH1 0x20 DUP3 ADD MSTORE PUSH1 0x40 ADD SWAP3 SWAP2 POP POP JUMP JUMPDEST PUSH1 0x0 PUSH2 0x3EC0 PUSH1 0x29 DUP4 PUSH2 0x473F JUMP JUMPDEST PUSH32 0x476F7665726E6F72427261766F3A3A73746174653A20696E76616C6964207072 DUP2 MSTORE PUSH9 0x1BDC1BDCD85B081A59 PUSH1 0xBA SHL PUSH1 0x20 DUP3 ADD MSTORE PUSH1 0x40 ADD SWAP3 SWAP2 POP POP JUMP JUMPDEST PUSH1 0x0 PUSH2 0x3F0B PUSH1 0x30 DUP4 PUSH2 0x473F JUMP JUMPDEST PUSH1 0x0 DUP1 MLOAD PUSH1 0x20 PUSH2 0x482D DUP4 CODECOPY DUP2 MLOAD SWAP2 MSTORE DUP2 MSTORE PUSH16 0x1A59081D9BDD1A5B99C81C195C9A5BD9 PUSH1 0x82 SHL PUSH1 0x20 DUP3 ADD MSTORE PUSH1 0x40 ADD SWAP3 SWAP2 POP POP JUMP JUMPDEST PUSH1 0x0 PUSH2 0x3F4B PUSH1 0x15 DUP4 PUSH2 0x473F JUMP JUMPDEST PUSH21 0x7375627472616374696F6E20756E646572666C6F77 PUSH1 0x58 SHL DUP2 MSTORE PUSH1 0x20 ADD SWAP3 SWAP2 POP POP JUMP JUMPDEST PUSH1 0x0 PUSH2 0x3F7C PUSH1 0x2B DUP4 PUSH2 0x473F JUMP JUMPDEST PUSH32 0x476F7665726E6F72427261766F3A3A63616E63656C3A2077686974656C697374 DUP2 MSTORE PUSH11 0x32B210383937B837B9B2B9 PUSH1 0xA9 SHL PUSH1 0x20 DUP3 ADD MSTORE PUSH1 0x40 ADD SWAP3 SWAP2 POP POP JUMP JUMPDEST DUP1 MLOAD PUSH1 0x60 DUP4 ADD SWAP1 PUSH2 0x3FCD DUP5 DUP3 PUSH2 0x30B4 JUMP JUMPDEST POP PUSH1 0x20 DUP3 ADD MLOAD PUSH2 0x3FE0 PUSH1 0x20 DUP6 ADD DUP3 PUSH2 0x3FF9 JUMP JUMPDEST POP PUSH1 0x40 DUP3 ADD MLOAD PUSH2 0x3FF3 PUSH1 0x40 DUP6 ADD DUP3 PUSH2 0x400B JUMP JUMPDEST POP POP POP POP JUMP JUMPDEST PUSH2 0x2F2F DUP2 PUSH2 0x476E JUMP JUMPDEST PUSH2 0x2F2F DUP2 PUSH2 0x479D JUMP JUMPDEST PUSH2 0x2F2F DUP2 PUSH2 0x4774 JUMP JUMPDEST PUSH1 0x0 PUSH2 0x1E8D DUP3 PUSH2 0x3221 JUMP JUMPDEST PUSH1 0x0 PUSH2 0x402A DUP3 PUSH2 0x34B8 JUMP JUMPDEST SWAP2 POP PUSH2 0x4036 DUP3 DUP6 PUSH2 0x30C6 JUMP JUMPDEST PUSH1 0x20 DUP3 ADD SWAP2 POP PUSH2 0x4046 DUP3 DUP5 PUSH2 0x30C6 JUMP JUMPDEST POP PUSH1 0x20 ADD SWAP3 SWAP2 POP POP JUMP JUMPDEST PUSH1 0x0 PUSH2 0x1E8D DUP3 PUSH2 0x39B9 JUMP JUMPDEST PUSH1 0x20 DUP2 ADD PUSH2 0x1E8D DUP3 DUP5 PUSH2 0x2F35 JUMP JUMPDEST PUSH1 0x40 DUP2 ADD PUSH2 0x4077 DUP3 DUP6 PUSH2 0x2F26 JUMP JUMPDEST PUSH2 0x2459 PUSH1 0x20 DUP4 ADD DUP5 PUSH2 0x30BD JUMP JUMPDEST PUSH1 0x40 DUP2 ADD PUSH2 0x4092 DUP3 DUP6 PUSH2 0x2F35 JUMP JUMPDEST PUSH2 0x2459 PUSH1 0x20 DUP4 ADD DUP5 PUSH2 0x2F35 JUMP JUMPDEST PUSH1 0x40 DUP2 ADD PUSH2 0x4077 DUP3 DUP6 PUSH2 0x2F35 JUMP JUMPDEST PUSH1 0xA0 DUP2 ADD PUSH2 0x40BB DUP3 DUP9 PUSH2 0x2F35 JUMP JUMPDEST PUSH2 0x40C8 PUSH1 0x20 DUP4 ADD DUP8 PUSH2 0x30BD JUMP JUMPDEST DUP2 DUP2 SUB PUSH1 0x40 DUP4 ADD MSTORE PUSH2 0x40DA DUP2 DUP7 PUSH2 0x30D7 JUMP JUMPDEST SWAP1 POP DUP2 DUP2 SUB PUSH1 0x60 DUP4 ADD MSTORE PUSH2 0x40EE DUP2 DUP6 PUSH2 0x30D7 JUMP JUMPDEST SWAP1 POP PUSH2 0x40FD PUSH1 0x80 DUP4 ADD DUP5 PUSH2 0x30BD JUMP JUMPDEST SWAP7 SWAP6 POP POP POP POP POP POP JUMP JUMPDEST PUSH1 0xA0 DUP2 ADD PUSH2 0x4115 DUP3 DUP9 PUSH2 0x2F35 JUMP JUMPDEST PUSH2 0x4122 PUSH1 0x20 DUP4 ADD DUP8 PUSH2 0x30BD JUMP JUMPDEST DUP2 DUP2 SUB PUSH1 0x40 DUP4 ADD MSTORE PUSH2 0x4134 DUP2 DUP7 PUSH2 0x310F JUMP JUMPDEST SWAP1 POP DUP2 DUP2 SUB PUSH1 0x60 DUP4 ADD MSTORE PUSH2 0x40EE DUP2 DUP6 PUSH2 0x310F JUMP JUMPDEST PUSH1 0x80 DUP1 DUP3 MSTORE DUP2 ADD PUSH2 0x4159 DUP2 DUP8 PUSH2 0x2F3E JUMP JUMPDEST SWAP1 POP DUP2 DUP2 SUB PUSH1 0x20 DUP4 ADD MSTORE PUSH2 0x416D DUP2 DUP7 PUSH2 0x3066 JUMP JUMPDEST SWAP1 POP DUP2 DUP2 SUB PUSH1 0x40 DUP4 ADD MSTORE PUSH2 0x4181 DUP2 DUP6 PUSH2 0x3005 JUMP JUMPDEST SWAP1 POP DUP2 DUP2 SUB PUSH1 0x60 DUP4 ADD MSTORE PUSH2 0x40FD DUP2 DUP5 PUSH2 0x2F97 JUMP JUMPDEST PUSH1 0x20 DUP2 ADD PUSH2 0x1E8D DUP3 DUP5 PUSH2 0x30B4 JUMP JUMPDEST PUSH1 0x20 DUP2 ADD PUSH2 0x1E8D DUP3 DUP5 PUSH2 0x30BD JUMP JUMPDEST PUSH1 0x80 DUP2 ADD PUSH2 0x41BF DUP3 DUP8 PUSH2 0x30BD JUMP JUMPDEST PUSH2 0x41CC PUSH1 0x20 DUP4 ADD DUP7 PUSH2 0x30BD JUMP JUMPDEST PUSH2 0x41D9 PUSH1 0x40 DUP4 ADD DUP6 PUSH2 0x30BD JUMP JUMPDEST PUSH2 0x1B95 PUSH1 0x60 DUP4 ADD DUP5 PUSH2 0x2F35 JUMP JUMPDEST PUSH1 0x60 DUP2 ADD PUSH2 0x41F4 DUP3 DUP7 PUSH2 0x30BD JUMP JUMPDEST PUSH2 0x4201 PUSH1 0x20 DUP4 ADD DUP6 PUSH2 0x30BD JUMP JUMPDEST PUSH2 0x2BA9 PUSH1 0x40 DUP4 ADD DUP5 PUSH2 0x3FF9 JUMP JUMPDEST PUSH1 0x80 DUP2 ADD PUSH2 0x421C DUP3 DUP8 PUSH2 0x30BD JUMP JUMPDEST PUSH2 0x4229 PUSH1 0x20 DUP4 ADD DUP7 PUSH2 0x3FF9 JUMP JUMPDEST PUSH2 0x4236 PUSH1 0x40 DUP4 ADD DUP6 PUSH2 0x30BD JUMP JUMPDEST PUSH2 0x1B95 PUSH1 0x60 DUP4 ADD DUP5 PUSH2 0x30BD JUMP JUMPDEST PUSH1 0x20 DUP2 ADD PUSH2 0x1E8D DUP3 DUP5 PUSH2 0x3199 JUMP JUMPDEST PUSH1 0x20 DUP2 ADD PUSH2 0x1E8D DUP3 DUP5 PUSH2 0x31A2 JUMP JUMPDEST PUSH1 0x20 DUP1 DUP3 MSTORE DUP2 ADD PUSH2 0x2459 DUP2 DUP5 PUSH2 0x30D7 JUMP JUMPDEST PUSH1 0x20 DUP1 DUP3 MSTORE DUP2 ADD PUSH2 0x1E8D DUP2 PUSH2 0x31CD JUMP JUMPDEST PUSH1 0x20 DUP1 DUP3 MSTORE DUP2 ADD PUSH2 0x1E8D DUP2 PUSH2 0x326B JUMP JUMPDEST PUSH1 0x20 DUP1 DUP3 MSTORE DUP2 ADD PUSH2 0x1E8D DUP2 PUSH2 0x32C0 JUMP JUMPDEST PUSH1 0x20 DUP1 DUP3 MSTORE DUP2 ADD PUSH2 0x1E8D DUP2 PUSH2 0x330C JUMP JUMPDEST PUSH1 0x20 DUP1 DUP3 MSTORE DUP2 ADD PUSH2 0x1E8D DUP2 PUSH2 0x3389 JUMP JUMPDEST PUSH1 0x20 DUP1 DUP3 MSTORE DUP2 ADD PUSH2 0x1E8D DUP2 PUSH2 0x33D6 JUMP JUMPDEST PUSH1 0x20 DUP1 DUP3 MSTORE DUP2 ADD PUSH2 0x1E8D DUP2 PUSH2 0x3419 JUMP JUMPDEST PUSH1 0x20 DUP1 DUP3 MSTORE DUP2 ADD PUSH2 0x1E8D DUP2 PUSH2 0x3465 JUMP JUMPDEST PUSH1 0x20 DUP1 DUP3 MSTORE DUP2 ADD PUSH2 0x1E8D DUP2 PUSH2 0x34D6 JUMP JUMPDEST PUSH1 0x20 DUP1 DUP3 MSTORE DUP2 ADD PUSH2 0x1E8D DUP2 PUSH2 0x352E JUMP JUMPDEST PUSH1 0x20 DUP1 DUP3 MSTORE DUP2 ADD PUSH2 0x1E8D DUP2 PUSH2 0x3581 JUMP JUMPDEST PUSH1 0x20 DUP1 DUP3 MSTORE DUP2 ADD PUSH2 0x1E8D DUP2 PUSH2 0x35D7 JUMP JUMPDEST PUSH1 0x20 DUP1 DUP3 MSTORE DUP2 ADD PUSH2 0x1E8D DUP2 PUSH2 0x362D JUMP JUMPDEST PUSH1 0x20 DUP1 DUP3 MSTORE DUP2 ADD PUSH2 0x1E8D DUP2 PUSH2 0x3672 JUMP JUMPDEST PUSH1 0x20 DUP1 DUP3 MSTORE DUP2 ADD PUSH2 0x1E8D DUP2 PUSH2 0x36BF JUMP JUMPDEST PUSH1 0x20 DUP1 DUP3 MSTORE DUP2 ADD PUSH2 0x1E8D DUP2 PUSH2 0x372C JUMP JUMPDEST PUSH1 0x20 DUP1 DUP3 MSTORE DUP2 ADD PUSH2 0x1E8D DUP2 PUSH2 0x377D JUMP JUMPDEST PUSH1 0x20 DUP1 DUP3 MSTORE DUP2 ADD PUSH2 0x1E8D DUP2 PUSH2 0x37BC JUMP JUMPDEST PUSH1 0x20 DUP1 DUP3 MSTORE DUP2 ADD PUSH2 0x1E8D DUP2 PUSH2 0x380E JUMP JUMPDEST PUSH1 0x20 DUP1 DUP3 MSTORE DUP2 ADD PUSH2 0x1E8D DUP2 PUSH2 0x387A JUMP JUMPDEST PUSH1 0x20 DUP1 DUP3 MSTORE DUP2 ADD PUSH2 0x1E8D DUP2 PUSH2 0x38C1 JUMP JUMPDEST PUSH1 0x20 DUP1 DUP3 MSTORE DUP2 ADD PUSH2 0x1E8D DUP2 PUSH2 0x3920 JUMP JUMPDEST PUSH1 0x20 DUP1 DUP3 MSTORE DUP2 ADD PUSH2 0x1E8D DUP2 PUSH2 0x398C JUMP JUMPDEST PUSH1 0x20 DUP1 DUP3 MSTORE DUP2 ADD PUSH2 0x1E8D DUP2 PUSH2 0x3A24 JUMP JUMPDEST PUSH1 0x20 DUP1 DUP3 MSTORE DUP2 ADD PUSH2 0x1E8D DUP2 PUSH2 0x3A76 JUMP JUMPDEST PUSH1 0x20 DUP1 DUP3 MSTORE DUP2 ADD PUSH2 0x1E8D DUP2 PUSH2 0x3AC4 JUMP JUMPDEST PUSH1 0x20 DUP1 DUP3 MSTORE DUP2 ADD PUSH2 0x1E8D DUP2 PUSH2 0x3B14 JUMP JUMPDEST PUSH1 0x20 DUP1 DUP3 MSTORE DUP2 ADD PUSH2 0x1E8D DUP2 PUSH2 0x3B53 JUMP JUMPDEST PUSH1 0x20 DUP1 DUP3 MSTORE DUP2 ADD PUSH2 0x1E8D DUP2 PUSH2 0x3BA4 JUMP JUMPDEST PUSH1 0x20 DUP1 DUP3 MSTORE DUP2 ADD PUSH2 0x1E8D DUP2 PUSH2 0x3BEE JUMP JUMPDEST PUSH1 0x20 DUP1 DUP3 MSTORE DUP2 ADD PUSH2 0x1E8D DUP2 PUSH2 0x3C73 JUMP JUMPDEST PUSH1 0x20 DUP1 DUP3 MSTORE DUP2 ADD PUSH2 0x1E8D DUP2 PUSH2 0x3D05 JUMP JUMPDEST PUSH1 0x20 DUP1 DUP3 MSTORE DUP2 ADD PUSH2 0x1E8D DUP2 PUSH2 0x3D4B JUMP JUMPDEST PUSH1 0x20 DUP1 DUP3 MSTORE DUP2 ADD PUSH2 0x1E8D DUP2 PUSH2 0x3DAA JUMP JUMPDEST PUSH1 0x20 DUP1 DUP3 MSTORE DUP2 ADD PUSH2 0x1E8D DUP2 PUSH2 0x3E09 JUMP JUMPDEST PUSH1 0x20 DUP1 DUP3 MSTORE DUP2 ADD PUSH2 0x1E8D DUP2 PUSH2 0x3E61 JUMP JUMPDEST PUSH1 0x20 DUP1 DUP3 MSTORE DUP2 ADD PUSH2 0x1E8D DUP2 PUSH2 0x3EB3 JUMP JUMPDEST PUSH1 0x20 DUP1 DUP3 MSTORE DUP2 ADD PUSH2 0x1E8D DUP2 PUSH2 0x3EFE JUMP JUMPDEST PUSH1 0x20 DUP1 DUP3 MSTORE DUP2 ADD PUSH2 0x1E8D DUP2 PUSH2 0x3F3E JUMP JUMPDEST PUSH1 0x20 DUP1 DUP3 MSTORE DUP2 ADD PUSH2 0x1E8D DUP2 PUSH2 0x3F6F JUMP JUMPDEST PUSH1 0x60 DUP2 ADD PUSH2 0x1E8D DUP3 DUP5 PUSH2 0x3FBC JUMP JUMPDEST PUSH2 0x120 DUP2 ADD PUSH2 0x450D DUP3 DUP13 PUSH2 0x30BD JUMP JUMPDEST PUSH2 0x451A PUSH1 0x20 DUP4 ADD DUP12 PUSH2 0x2F26 JUMP JUMPDEST DUP2 DUP2 SUB PUSH1 0x40 DUP4 ADD MSTORE PUSH2 0x452C DUP2 DUP11 PUSH2 0x2F3E JUMP JUMPDEST SWAP1 POP DUP2 DUP2 SUB PUSH1 0x60 DUP4 ADD MSTORE PUSH2 0x4540 DUP2 DUP10 PUSH2 0x3066 JUMP JUMPDEST SWAP1 POP DUP2 DUP2 SUB PUSH1 0x80 DUP4 ADD MSTORE PUSH2 0x4554 DUP2 DUP9 PUSH2 0x3005 JUMP JUMPDEST SWAP1 POP DUP2 DUP2 SUB PUSH1 0xA0 DUP4 ADD MSTORE PUSH2 0x4568 DUP2 DUP8 PUSH2 0x2F97 JUMP JUMPDEST SWAP1 POP PUSH2 0x4577 PUSH1 0xC0 DUP4 ADD DUP7 PUSH2 0x30BD JUMP JUMPDEST PUSH2 0x4584 PUSH1 0xE0 DUP4 ADD DUP6 PUSH2 0x30BD JUMP JUMPDEST DUP2 DUP2 SUB PUSH2 0x100 DUP4 ADD MSTORE PUSH2 0x4597 DUP2 DUP5 PUSH2 0x30D7 JUMP JUMPDEST SWAP12 SWAP11 POP POP POP POP POP POP POP POP POP POP POP JUMP JUMPDEST PUSH2 0x140 DUP2 ADD PUSH2 0x45B5 DUP3 DUP14 PUSH2 0x30BD JUMP JUMPDEST PUSH2 0x45C2 PUSH1 0x20 DUP4 ADD DUP13 PUSH2 0x2F35 JUMP JUMPDEST PUSH2 0x45CF PUSH1 0x40 DUP4 ADD DUP12 PUSH2 0x30BD JUMP JUMPDEST PUSH2 0x45DC PUSH1 0x60 DUP4 ADD DUP11 PUSH2 0x30BD JUMP JUMPDEST PUSH2 0x45E9 PUSH1 0x80 DUP4 ADD DUP10 PUSH2 0x30BD JUMP JUMPDEST PUSH2 0x45F6 PUSH1 0xA0 DUP4 ADD DUP9 PUSH2 0x30BD JUMP JUMPDEST PUSH2 0x4603 PUSH1 0xC0 DUP4 ADD DUP8 PUSH2 0x30BD JUMP JUMPDEST PUSH2 0x4610 PUSH1 0xE0 DUP4 ADD DUP7 PUSH2 0x30BD JUMP JUMPDEST PUSH2 0x461E PUSH2 0x100 DUP4 ADD DUP6 PUSH2 0x30B4 JUMP JUMPDEST PUSH2 0x4597 PUSH2 0x120 DUP4 ADD DUP5 PUSH2 0x30B4 JUMP JUMPDEST PUSH1 0x40 DUP2 ADD PUSH2 0x4077 DUP3 DUP6 PUSH2 0x30BD JUMP JUMPDEST PUSH1 0x80 DUP2 ADD PUSH2 0x4648 DUP3 DUP9 PUSH2 0x30BD JUMP JUMPDEST PUSH2 0x4655 PUSH1 0x20 DUP4 ADD DUP8 PUSH2 0x3FF9 JUMP JUMPDEST PUSH2 0x4662 PUSH1 0x40 DUP4 ADD DUP7 PUSH2 0x4002 JUMP JUMPDEST DUP2 DUP2 SUB PUSH1 0x60 DUP4 ADD MSTORE PUSH2 0x4675 DUP2 DUP5 DUP7 PUSH2 0x31AB JUMP JUMPDEST SWAP8 SWAP7 POP POP POP POP POP POP POP JUMP JUMPDEST PUSH1 0x80 DUP2 ADD PUSH2 0x468E DUP3 DUP7 PUSH2 0x30BD JUMP JUMPDEST PUSH2 0x469B PUSH1 0x20 DUP4 ADD DUP6 PUSH2 0x3FF9 JUMP JUMPDEST PUSH2 0x46A8 PUSH1 0x40 DUP4 ADD DUP5 PUSH2 0x4002 JUMP JUMPDEST DUP2 DUP2 SUB PUSH1 0x60 DUP4 ADD MSTORE PUSH2 0x1B95 DUP2 PUSH2 0x3CF8 JUMP JUMPDEST PUSH1 0x40 MLOAD DUP2 DUP2 ADD PUSH8 0xFFFFFFFFFFFFFFFF DUP2 GT DUP3 DUP3 LT OR ISZERO PUSH2 0x46D8 JUMPI PUSH1 0x0 DUP1 REVERT JUMPDEST PUSH1 0x40 MSTORE SWAP2 SWAP1 POP JUMP JUMPDEST PUSH1 0x0 PUSH8 0xFFFFFFFFFFFFFFFF DUP3 GT ISZERO PUSH2 0x46F7 JUMPI PUSH1 0x0 DUP1 REVERT JUMPDEST POP PUSH1 0x20 SWAP1 DUP2 MUL ADD SWAP1 JUMP JUMPDEST PUSH1 0x0 PUSH8 0xFFFFFFFFFFFFFFFF DUP3 GT ISZERO PUSH2 0x4718 JUMPI PUSH1 0x0 DUP1 REVERT JUMPDEST POP PUSH1 0x20 PUSH1 0x1F SWAP2 SWAP1 SWAP2 ADD PUSH1 0x1F NOT AND ADD SWAP1 JUMP JUMPDEST PUSH1 0x20 ADD SWAP1 JUMP JUMPDEST PUSH1 0x0 SWAP1 DUP2 MSTORE PUSH1 0x20 SWAP1 KECCAK256 SWAP1 JUMP JUMPDEST MLOAD SWAP1 JUMP JUMPDEST SWAP1 DUP2 MSTORE PUSH1 0x20 ADD SWAP1 JUMP JUMPDEST PUSH1 0x0 PUSH2 0x1E8D DUP3 PUSH2 0x4762 JUMP JUMPDEST ISZERO ISZERO SWAP1 JUMP JUMPDEST DUP1 PUSH2 0xD41 DUP2 PUSH2 0x47EA JUMP JUMPDEST PUSH1 0x1 PUSH1 0x1 PUSH1 0xA0 SHL SUB AND SWAP1 JUMP JUMPDEST PUSH1 0xFF AND SWAP1 JUMP JUMPDEST PUSH1 0x1 PUSH1 0x1 PUSH1 0x60 SHL SUB AND SWAP1 JUMP JUMPDEST PUSH1 0x0 PUSH2 0x1E8D DUP3 JUMPDEST PUSH1 0x0 PUSH2 0x1E8D DUP3 PUSH2 0x4748 JUMP JUMPDEST PUSH1 0x0 PUSH2 0x1E8D DUP3 PUSH2 0x4758 JUMP JUMPDEST PUSH1 0x0 PUSH2 0x1E8D DUP3 PUSH2 0x4774 JUMP JUMPDEST DUP3 DUP2 DUP4 CALLDATACOPY POP PUSH1 0x0 SWAP2 ADD MSTORE JUMP JUMPDEST PUSH1 0x0 JUMPDEST DUP4 DUP2 LT ISZERO PUSH2 0x47CF JUMPI DUP2 DUP2 ADD MLOAD DUP4 DUP3 ADD MSTORE PUSH1 0x20 ADD PUSH2 0x47B7 JUMP JUMPDEST DUP4 DUP2 GT ISZERO PUSH2 0x3FF3 JUMPI POP POP PUSH1 0x0 SWAP2 ADD MSTORE JUMP JUMPDEST PUSH1 0x1F ADD PUSH1 0x1F NOT AND SWAP1 JUMP JUMPDEST PUSH1 0x8 DUP2 LT PUSH2 0x28BF JUMPI INVALID JUMPDEST PUSH2 0x47FD DUP2 PUSH2 0x4748 JUMP JUMPDEST DUP2 EQ PUSH2 0x28BF JUMPI PUSH1 0x0 DUP1 REVERT JUMPDEST PUSH2 0x47FD DUP2 PUSH2 0x4753 JUMP JUMPDEST PUSH2 0x47FD DUP2 PUSH2 0x226C JUMP JUMPDEST PUSH2 0x47FD DUP2 PUSH2 0x476E JUMP JUMPDEST PUSH2 0x47FD DUP2 PUSH2 0x4774 JUMP INVALID SELFBALANCE PUSH16 0x7665726E6F72427261766F3A3A696E69 PUSH21 0x69616C697A653A20696E76616CA365627A7A723158 KECCAK256 0xDD GASPRICE SSTORE 0x27 DUP5 0x5F PUSH1 0x59 0xBA SWAP16 PUSH13 0xA480A722118EC274BE97D6E598 0x4A LOG4 0xD2 0xC5 SELFBALANCE 0xB9 0xC0 PUSH26 0x6C6578706572696D656E74616CF564736F6C6343000510004000 "},"gasEstimates":{"creation":{"codeDepositCost":"3715000","executionCost":"4196","totalCost":"3719196"},"external":{"BALLOT_TYPEHASH()":"infinite","DOMAIN_TYPEHASH()":"infinite","MAX_PROPOSAL_THRESHOLD()":"345","MAX_VOTING_DELAY()":"366","MAX_VOTING_PERIOD()":"344","MIN_PROPOSAL_THRESHOLD()":"367","MIN_VOTING_DELAY()":"343","MIN_VOTING_PERIOD()":"433","_acceptAdmin()":"infinite","_initiate(address)":"infinite","_setPendingAdmin(address)":"infinite","_setProposalThreshold(uint256)":"infinite","_setVotingDelay(uint256)":"infinite","_setVotingPeriod(uint256)":"infinite","_setWhitelistAccountExpiration(address,uint256)":"infinite","_setWhitelistGuardian(address)":"infinite","admin()":"infinite","cancel(uint256)":"infinite","castVote(uint256,uint8)":"infinite","castVoteBySig(uint256,uint8,uint8,bytes32,bytes32)":"infinite","castVoteWithReason(uint256,uint8,string)":"infinite","comp()":"infinite","execute(uint256)":"infinite","getActions(uint256)":"infinite","getReceipt(uint256,address)":"infinite","implementation()":"infinite","initialProposalId()":"1231","initialize(address,address,uint256,uint256,uint256)":"infinite","isWhitelisted(address)":"infinite","latestProposalIds(address)":"infinite","name()":"infinite","pendingAdmin()":"infinite","proposalCount()":"1166","proposalMaxOperations()":"411","proposalThreshold()":"1188","proposals(uint256)":"infinite","propose(address[],uint256[],string[],bytes[],string)":"infinite","queue(uint256)":"infinite","quorumVotes()":"455","state(uint256)":"infinite","timelock()":"infinite","votingDelay()":"1233","votingPeriod()":"1168","whitelistAccountExpirations(address)":"infinite","whitelistGuardian()":"infinite"},"internal":{"add256(uint256,uint256)":"infinite","castVoteInternal(address,uint256,uint8)":"infinite","getChainIdInternal()":"15","queueOrRevertInternal(address,uint256,string memory,bytes memory,uint256)":"infinite","sub256(uint256,uint256)":"infinite"}},"methodIdentifiers":{"BALLOT_TYPEHASH()":"deaaa7cc","DOMAIN_TYPEHASH()":"20606b70","MAX_PROPOSAL_THRESHOLD()":"25fd935a","MAX_VOTING_DELAY()":"b1126263","MAX_VOTING_PERIOD()":"a64e024a","MIN_PROPOSAL_THRESHOLD()":"791f5d23","MIN_VOTING_DELAY()":"e48083fe","MIN_VOTING_PERIOD()":"215809ca","_acceptAdmin()":"e9c714f2","_initiate(address)":"f9d28b80","_setPendingAdmin(address)":"b71d1a0c","_setProposalThreshold(uint256)":"17ba1b8b","_setVotingDelay(uint256)":"1dfb1b5a","_setVotingPeriod(uint256)":"0ea2d98c","_setWhitelistAccountExpiration(address,uint256)":"4d6733d2","_setWhitelistGuardian(address)":"99533365","admin()":"f851a440","cancel(uint256)":"40e58ee5","castVote(uint256,uint8)":"56781388","castVoteBySig(uint256,uint8,uint8,bytes32,bytes32)":"3bccf4fd","castVoteWithReason(uint256,uint8,string)":"7b3c71d3","comp()":"109d0af8","execute(uint256)":"fe0d94c1","getActions(uint256)":"328dd982","getReceipt(uint256,address)":"e23a9a52","implementation()":"5c60da1b","initialProposalId()":"fc4eee42","initialize(address,address,uint256,uint256,uint256)":"d13f90b4","isWhitelisted(address)":"3af32abf","latestProposalIds(address)":"17977c61","name()":"06fdde03","pendingAdmin()":"26782247","proposalCount()":"da35c664","proposalMaxOperations()":"7bdbe4d0","proposalThreshold()":"b58131b0","proposals(uint256)":"013cf08b","propose(address[],uint256[],string[],bytes[],string)":"da95691a","queue(uint256)":"ddf0b009","quorumVotes()":"24bc1a64","state(uint256)":"3e4f49e6","timelock()":"d33219b4","votingDelay()":"3932abb1","votingPeriod()":"02a251a3","whitelistAccountExpirations(address)":"38bd0dda","whitelistGuardian()":"c5a8425d"}},"storageLayout":{"storage":[{"astId":4540,"contract":"contracts/Governance/GovernorBravoDelegate.sol:GovernorBravoDelegate","label":"admin","offset":0,"slot":"0","type":"t_address"},{"astId":4542,"contract":"contracts/Governance/GovernorBravoDelegate.sol:GovernorBravoDelegate","label":"pendingAdmin","offset":0,"slot":"1","type":"t_address"},{"astId":4544,"contract":"contracts/Governance/GovernorBravoDelegate.sol:GovernorBravoDelegate","label":"implementation","offset":0,"slot":"2","type":"t_address"},{"astId":4549,"contract":"contracts/Governance/GovernorBravoDelegate.sol:GovernorBravoDelegate","label":"votingDelay","offset":0,"slot":"3","type":"t_uint256"},{"astId":4551,"contract":"contracts/Governance/GovernorBravoDelegate.sol:GovernorBravoDelegate","label":"votingPeriod","offset":0,"slot":"4","type":"t_uint256"},{"astId":4553,"contract":"contracts/Governance/GovernorBravoDelegate.sol:GovernorBravoDelegate","label":"proposalThreshold","offset":0,"slot":"5","type":"t_uint256"},{"astId":4555,"contract":"contracts/Governance/GovernorBravoDelegate.sol:GovernorBravoDelegate","label":"initialProposalId","offset":0,"slot":"6","type":"t_uint256"},{"astId":4557,"contract":"contracts/Governance/GovernorBravoDelegate.sol:GovernorBravoDelegate","label":"proposalCount","offset":0,"slot":"7","type":"t_uint256"},{"astId":4559,"contract":"contracts/Governance/GovernorBravoDelegate.sol:GovernorBravoDelegate","label":"timelock","offset":0,"slot":"8","type":"t_contract(TimelockInterface)4696"},{"astId":4561,"contract":"contracts/Governance/GovernorBravoDelegate.sol:GovernorBravoDelegate","label":"comp","offset":0,"slot":"9","type":"t_contract(CompInterface)4706"},{"astId":4565,"contract":"contracts/Governance/GovernorBravoDelegate.sol:GovernorBravoDelegate","label":"proposals","offset":0,"slot":"10","type":"t_mapping(t_uint256,t_struct(Proposal)4606_storage)"},{"astId":4569,"contract":"contracts/Governance/GovernorBravoDelegate.sol:GovernorBravoDelegate","label":"latestProposalIds","offset":0,"slot":"11","type":"t_mapping(t_address,t_uint256)"},{"astId":4629,"contract":"contracts/Governance/GovernorBravoDelegate.sol:GovernorBravoDelegate","label":"whitelistAccountExpirations","offset":0,"slot":"12","type":"t_mapping(t_address,t_uint256)"},{"astId":4631,"contract":"contracts/Governance/GovernorBravoDelegate.sol:GovernorBravoDelegate","label":"whitelistGuardian","offset":0,"slot":"13","type":"t_address"}],"types":{"t_address":{"encoding":"inplace","label":"address","numberOfBytes":"20"},"t_array(t_address)dyn_storage":{"base":"t_address","encoding":"dynamic_array","label":"address[]","numberOfBytes":"32"},"t_array(t_bytes_storage)dyn_storage":{"base":"t_bytes_storage","encoding":"dynamic_array","label":"bytes[]","numberOfBytes":"32"},"t_array(t_string_storage)dyn_storage":{"base":"t_string_storage","encoding":"dynamic_array","label":"string[]","numberOfBytes":"32"},"t_array(t_uint256)dyn_storage":{"base":"t_uint256","encoding":"dynamic_array","label":"uint256[]","numberOfBytes":"32"},"t_bool":{"encoding":"inplace","label":"bool","numberOfBytes":"1"},"t_bytes_storage":{"encoding":"bytes","label":"bytes","numberOfBytes":"32"},"t_contract(CompInterface)4706":{"encoding":"inplace","label":"contract CompInterface","numberOfBytes":"20"},"t_contract(TimelockInterface)4696":{"encoding":"inplace","label":"contract TimelockInterface","numberOfBytes":"20"},"t_mapping(t_address,t_struct(Receipt)4613_storage)":{"encoding":"mapping","key":"t_address","label":"mapping(address => struct GovernorBravoDelegateStorageV1.Receipt)","numberOfBytes":"32","value":"t_struct(Receipt)4613_storage"},"t_mapping(t_address,t_uint256)":{"encoding":"mapping","key":"t_address","label":"mapping(address => uint256)","numberOfBytes":"32","value":"t_uint256"},"t_mapping(t_uint256,t_struct(Proposal)4606_storage)":{"encoding":"mapping","key":"t_uint256","label":"mapping(uint256 => struct GovernorBravoDelegateStorageV1.Proposal)","numberOfBytes":"32","value":"t_struct(Proposal)4606_storage"},"t_string_storage":{"encoding":"bytes","label":"string","numberOfBytes":"32"},"t_struct(Proposal)4606_storage":{"encoding":"inplace","label":"struct GovernorBravoDelegateStorageV1.Proposal","members":[{"astId":4571,"contract":"contracts/Governance/GovernorBravoDelegate.sol:GovernorBravoDelegate","label":"id","offset":0,"slot":"0","type":"t_uint256"},{"astId":4573,"contract":"contracts/Governance/GovernorBravoDelegate.sol:GovernorBravoDelegate","label":"proposer","offset":0,"slot":"1","type":"t_address"},{"astId":4575,"contract":"contracts/Governance/GovernorBravoDelegate.sol:GovernorBravoDelegate","label":"eta","offset":0,"slot":"2","type":"t_uint256"},{"astId":4578,"contract":"contracts/Governance/GovernorBravoDelegate.sol:GovernorBravoDelegate","label":"targets","offset":0,"slot":"3","type":"t_array(t_address)dyn_storage"},{"astId":4581,"contract":"contracts/Governance/GovernorBravoDelegate.sol:GovernorBravoDelegate","label":"values","offset":0,"slot":"4","type":"t_array(t_uint256)dyn_storage"},{"astId":4584,"contract":"contracts/Governance/GovernorBravoDelegate.sol:GovernorBravoDelegate","label":"signatures","offset":0,"slot":"5","type":"t_array(t_string_storage)dyn_storage"},{"astId":4587,"contract":"contracts/Governance/GovernorBravoDelegate.sol:GovernorBravoDelegate","label":"calldatas","offset":0,"slot":"6","type":"t_array(t_bytes_storage)dyn_storage"},{"astId":4589,"contract":"contracts/Governance/GovernorBravoDelegate.sol:GovernorBravoDelegate","label":"startBlock","offset":0,"slot":"7","type":"t_uint256"},{"astId":4591,"contract":"contracts/Governance/GovernorBravoDelegate.sol:GovernorBravoDelegate","label":"endBlock","offset":0,"slot":"8","type":"t_uint256"},{"astId":4593,"contract":"contracts/Governance/GovernorBravoDelegate.sol:GovernorBravoDelegate","label":"forVotes","offset":0,"slot":"9","type":"t_uint256"},{"astId":4595,"contract":"contracts/Governance/GovernorBravoDelegate.sol:GovernorBravoDelegate","label":"againstVotes","offset":0,"slot":"10","type":"t_uint256"},{"astId":4597,"contract":"contracts/Governance/GovernorBravoDelegate.sol:GovernorBravoDelegate","label":"abstainVotes","offset":0,"slot":"11","type":"t_uint256"},{"astId":4599,"contract":"contracts/Governance/GovernorBravoDelegate.sol:GovernorBravoDelegate","label":"canceled","offset":0,"slot":"12","type":"t_bool"},{"astId":4601,"contract":"contracts/Governance/GovernorBravoDelegate.sol:GovernorBravoDelegate","label":"executed","offset":1,"slot":"12","type":"t_bool"},{"astId":4605,"contract":"contracts/Governance/GovernorBravoDelegate.sol:GovernorBravoDelegate","label":"receipts","offset":0,"slot":"13","type":"t_mapping(t_address,t_struct(Receipt)4613_storage)"}],"numberOfBytes":"448"},"t_struct(Receipt)4613_storage":{"encoding":"inplace","label":"struct GovernorBravoDelegateStorageV1.Receipt","members":[{"astId":4608,"contract":"contracts/Governance/GovernorBravoDelegate.sol:GovernorBravoDelegate","label":"hasVoted","offset":0,"slot":"0","type":"t_bool"},{"astId":4610,"contract":"contracts/Governance/GovernorBravoDelegate.sol:GovernorBravoDelegate","label":"support","offset":1,"slot":"0","type":"t_uint8"},{"astId":4612,"contract":"contracts/Governance/GovernorBravoDelegate.sol:GovernorBravoDelegate","label":"votes","offset":2,"slot":"0","type":"t_uint96"}],"numberOfBytes":"32"},"t_uint256":{"encoding":"inplace","label":"uint256","numberOfBytes":"32"},"t_uint8":{"encoding":"inplace","label":"uint8","numberOfBytes":"1"},"t_uint96":{"encoding":"inplace","label":"uint96","numberOfBytes":"12"}}},"userdoc":{"methods":{"_acceptAdmin()":{"notice":"Accepts transfer of admin rights. msg.sender must be pendingAdmin"},"_initiate(address)":{"notice":"Initiate the GovernorBravo contract"},"_setPendingAdmin(address)":{"notice":"Begins transfer of admin rights. The newPendingAdmin must call `_acceptAdmin` to finalize the transfer."},"_setProposalThreshold(uint256)":{"notice":"Admin function for setting the proposal threshold"},"_setVotingDelay(uint256)":{"notice":"Admin function for setting the voting delay"},"_setVotingPeriod(uint256)":{"notice":"Admin function for setting the voting period"},"_setWhitelistAccountExpiration(address,uint256)":{"notice":"Admin function for setting the whitelist expiration as a timestamp for an account. Whitelist status allows accounts to propose without meeting threshold"},"_setWhitelistGuardian(address)":{"notice":"Admin function for setting the whitelistGuardian. WhitelistGuardian can cancel proposals from whitelisted addresses"},"cancel(uint256)":{"notice":"Cancels a proposal only if sender is the proposer, or proposer delegates dropped below proposal threshold"},"castVote(uint256,uint8)":{"notice":"Cast a vote for a proposal"},"castVoteBySig(uint256,uint8,uint8,bytes32,bytes32)":{"notice":"Cast a vote for a proposal by signature"},"castVoteWithReason(uint256,uint8,string)":{"notice":"Cast a vote for a proposal with a reason"},"execute(uint256)":{"notice":"Executes a queued proposal if eta has passed"},"getActions(uint256)":{"notice":"Gets actions of a proposal"},"getReceipt(uint256,address)":{"notice":"Gets the receipt for a voter on a given proposal"},"initialize(address,address,uint256,uint256,uint256)":{"notice":"Used to initialize the contract during delegator constructor"},"isWhitelisted(address)":{"notice":"View function which returns if an account is whitelisted"},"propose(address[],uint256[],string[],bytes[],string)":{"notice":"Function used to propose a new proposal. Sender must have delegates above the proposal threshold"},"queue(uint256)":{"notice":"Queues a proposal of state succeeded"},"state(uint256)":{"notice":"Gets the state of a proposal"}}}}}}