{"contracts/Governance/GovernorBravoDelegateG2.sol":{"GovernorBravoDelegate":{"abi":[{"anonymous":false,"inputs":[{"indexed":false,"internalType":"address","name":"oldAdmin","type":"address"},{"indexed":false,"internalType":"address","name":"newAdmin","type":"address"}],"name":"NewAdmin","type":"event"},{"anonymous":false,"inputs":[{"indexed":false,"internalType":"address","name":"oldImplementation","type":"address"},{"indexed":false,"internalType":"address","name":"newImplementation","type":"address"}],"name":"NewImplementation","type":"event"},{"anonymous":false,"inputs":[{"indexed":false,"internalType":"address","name":"oldPendingAdmin","type":"address"},{"indexed":false,"internalType":"address","name":"newPendingAdmin","type":"address"}],"name":"NewPendingAdmin","type":"event"},{"anonymous":false,"inputs":[{"indexed":false,"internalType":"uint256","name":"id","type":"uint256"}],"name":"ProposalCanceled","type":"event"},{"anonymous":false,"inputs":[{"indexed":false,"internalType":"uint256","name":"id","type":"uint256"},{"indexed":false,"internalType":"address","name":"proposer","type":"address"},{"indexed":false,"internalType":"address[]","name":"targets","type":"address[]"},{"indexed":false,"internalType":"uint256[]","name":"values","type":"uint256[]"},{"indexed":false,"internalType":"string[]","name":"signatures","type":"string[]"},{"indexed":false,"internalType":"bytes[]","name":"calldatas","type":"bytes[]"},{"indexed":false,"internalType":"uint256","name":"startBlock","type":"uint256"},{"indexed":false,"internalType":"uint256","name":"endBlock","type":"uint256"},{"indexed":false,"internalType":"string","name":"description","type":"string"}],"name":"ProposalCreated","type":"event"},{"anonymous":false,"inputs":[{"indexed":false,"internalType":"uint256","name":"id","type":"uint256"}],"name":"ProposalExecuted","type":"event"},{"anonymous":false,"inputs":[{"indexed":false,"internalType":"uint256","name":"id","type":"uint256"},{"indexed":false,"internalType":"uint256","name":"eta","type":"uint256"}],"name":"ProposalQueued","type":"event"},{"anonymous":false,"inputs":[{"indexed":false,"internalType":"uint256","name":"oldProposalThreshold","type":"uint256"},{"indexed":false,"internalType":"uint256","name":"newProposalThreshold","type":"uint256"}],"name":"ProposalThresholdSet","type":"event"},{"anonymous":false,"inputs":[{"indexed":true,"internalType":"address","name":"voter","type":"address"},{"indexed":false,"internalType":"uint256","name":"proposalId","type":"uint256"},{"indexed":false,"internalType":"uint8","name":"support","type":"uint8"},{"indexed":false,"internalType":"uint256","name":"votes","type":"uint256"},{"indexed":false,"internalType":"string","name":"reason","type":"string"}],"name":"VoteCast","type":"event"},{"anonymous":false,"inputs":[{"indexed":false,"internalType":"uint256","name":"oldVotingDelay","type":"uint256"},{"indexed":false,"internalType":"uint256","name":"newVotingDelay","type":"uint256"}],"name":"VotingDelaySet","type":"event"},{"anonymous":false,"inputs":[{"indexed":false,"internalType":"uint256","name":"oldVotingPeriod","type":"uint256"},{"indexed":false,"internalType":"uint256","name":"newVotingPeriod","type":"uint256"}],"name":"VotingPeriodSet","type":"event"},{"anonymous":false,"inputs":[{"indexed":false,"internalType":"address","name":"account","type":"address"},{"indexed":false,"internalType":"uint256","name":"expiration","type":"uint256"}],"name":"WhitelistAccountExpirationSet","type":"event"},{"anonymous":false,"inputs":[{"indexed":false,"internalType":"address","name":"oldGuardian","type":"address"},{"indexed":false,"internalType":"address","name":"newGuardian","type":"address"}],"name":"WhitelistGuardianSet","type":"event"},{"constant":true,"inputs":[],"name":"BALLOT_TYPEHASH","outputs":[{"internalType":"bytes32","name":"","type":"bytes32"}],"payable":false,"stateMutability":"view","type":"function"},{"constant":true,"inputs":[],"name":"DOMAIN_TYPEHASH","outputs":[{"internalType":"bytes32","name":"","type":"bytes32"}],"payable":false,"stateMutability":"view","type":"function"},{"constant":true,"inputs":[],"name":"MAX_PROPOSAL_THRESHOLD","outputs":[{"internalType":"uint256","name":"","type":"uint256"}],"payable":false,"stateMutability":"view","type":"function"},{"constant":true,"inputs":[],"name":"MAX_VOTING_DELAY","outputs":[{"internalType":"uint256","name":"","type":"uint256"}],"payable":false,"stateMutability":"view","type":"function"},{"constant":true,"inputs":[],"name":"MAX_VOTING_PERIOD","outputs":[{"internalType":"uint256","name":"","type":"uint256"}],"payable":false,"stateMutability":"view","type":"function"},{"constant":true,"inputs":[],"name":"MIN_PROPOSAL_THRESHOLD","outputs":[{"internalType":"uint256","name":"","type":"uint256"}],"payable":false,"stateMutability":"view","type":"function"},{"constant":true,"inputs":[],"name":"MIN_VOTING_DELAY","outputs":[{"internalType":"uint256","name":"","type":"uint256"}],"payable":false,"stateMutability":"view","type":"function"},{"constant":true,"inputs":[],"name":"MIN_VOTING_PERIOD","outputs":[{"internalType":"uint256","name":"","type":"uint256"}],"payable":false,"stateMutability":"view","type":"function"},{"constant":false,"inputs":[],"name":"_acceptAdmin","outputs":[],"payable":false,"stateMutability":"nonpayable","type":"function"},{"constant":false,"inputs":[{"internalType":"address","name":"governorAlpha","type":"address"}],"name":"_initiate","outputs":[],"payable":false,"stateMutability":"nonpayable","type":"function"},{"constant":false,"inputs":[{"internalType":"address","name":"newPendingAdmin","type":"address"}],"name":"_setPendingAdmin","outputs":[],"payable":false,"stateMutability":"nonpayable","type":"function"},{"constant":false,"inputs":[{"internalType":"uint256","name":"newProposalThreshold","type":"uint256"}],"name":"_setProposalThreshold","outputs":[],"payable":false,"stateMutability":"nonpayable","type":"function"},{"constant":false,"inputs":[{"internalType":"uint256","name":"newVotingDelay","type":"uint256"}],"name":"_setVotingDelay","outputs":[],"payable":false,"stateMutability":"nonpayable","type":"function"},{"constant":false,"inputs":[{"internalType":"uint256","name":"newVotingPeriod","type":"uint256"}],"name":"_setVotingPeriod","outputs":[],"payable":false,"stateMutability":"nonpayable","type":"function"},{"constant":false,"inputs":[{"internalType":"address","name":"account","type":"address"},{"internalType":"uint256","name":"expiration","type":"uint256"}],"name":"_setWhitelistAccountExpiration","outputs":[],"payable":false,"stateMutability":"nonpayable","type":"function"},{"constant":false,"inputs":[{"internalType":"address","name":"account","type":"address"}],"name":"_setWhitelistGuardian","outputs":[],"payable":false,"stateMutability":"nonpayable","type":"function"},{"constant":true,"inputs":[],"name":"admin","outputs":[{"internalType":"address","name":"","type":"address"}],"payable":false,"stateMutability":"view","type":"function"},{"constant":false,"inputs":[{"internalType":"uint256","name":"proposalId","type":"uint256"}],"name":"cancel","outputs":[],"payable":false,"stateMutability":"nonpayable","type":"function"},{"constant":false,"inputs":[{"internalType":"uint256","name":"proposalId","type":"uint256"},{"internalType":"uint8","name":"support","type":"uint8"}],"name":"castVote","outputs":[],"payable":false,"stateMutability":"nonpayable","type":"function"},{"constant":false,"inputs":[{"internalType":"uint256","name":"proposalId","type":"uint256"},{"internalType":"uint8","name":"support","type":"uint8"},{"internalType":"uint8","name":"v","type":"uint8"},{"internalType":"bytes32","name":"r","type":"bytes32"},{"internalType":"bytes32","name":"s","type":"bytes32"}],"name":"castVoteBySig","outputs":[],"payable":false,"stateMutability":"nonpayable","type":"function"},{"constant":false,"inputs":[{"internalType":"uint256","name":"proposalId","type":"uint256"},{"internalType":"uint8","name":"support","type":"uint8"},{"internalType":"string","name":"reason","type":"string"}],"name":"castVoteWithReason","outputs":[],"payable":false,"stateMutability":"nonpayable","type":"function"},{"constant":true,"inputs":[],"name":"comp","outputs":[{"internalType":"contract CompInterface","name":"","type":"address"}],"payable":false,"stateMutability":"view","type":"function"},{"constant":false,"inputs":[{"internalType":"uint256","name":"proposalId","type":"uint256"}],"name":"execute","outputs":[],"payable":true,"stateMutability":"payable","type":"function"},{"constant":true,"inputs":[{"internalType":"uint256","name":"proposalId","type":"uint256"}],"name":"getActions","outputs":[{"internalType":"address[]","name":"targets","type":"address[]"},{"internalType":"uint256[]","name":"values","type":"uint256[]"},{"internalType":"string[]","name":"signatures","type":"string[]"},{"internalType":"bytes[]","name":"calldatas","type":"bytes[]"}],"payable":false,"stateMutability":"view","type":"function"},{"constant":true,"inputs":[{"internalType":"uint256","name":"proposalId","type":"uint256"},{"internalType":"address","name":"voter","type":"address"}],"name":"getReceipt","outputs":[{"components":[{"internalType":"bool","name":"hasVoted","type":"bool"},{"internalType":"uint8","name":"support","type":"uint8"},{"internalType":"uint96","name":"votes","type":"uint96"}],"internalType":"struct GovernorBravoDelegateStorageV1.Receipt","name":"","type":"tuple"}],"payable":false,"stateMutability":"view","type":"function"},{"constant":true,"inputs":[],"name":"implementation","outputs":[{"internalType":"address","name":"","type":"address"}],"payable":false,"stateMutability":"view","type":"function"},{"constant":true,"inputs":[],"name":"initialProposalId","outputs":[{"internalType":"uint256","name":"","type":"uint256"}],"payable":false,"stateMutability":"view","type":"function"},{"constant":false,"inputs":[{"internalType":"address","name":"timelock_","type":"address"},{"internalType":"address","name":"comp_","type":"address"},{"internalType":"uint256","name":"votingPeriod_","type":"uint256"},{"internalType":"uint256","name":"votingDelay_","type":"uint256"},{"internalType":"uint256","name":"proposalThreshold_","type":"uint256"}],"name":"initialize","outputs":[],"payable":false,"stateMutability":"nonpayable","type":"function"},{"constant":true,"inputs":[{"internalType":"address","name":"account","type":"address"}],"name":"isWhitelisted","outputs":[{"internalType":"bool","name":"","type":"bool"}],"payable":false,"stateMutability":"view","type":"function"},{"constant":true,"inputs":[{"internalType":"address","name":"","type":"address"}],"name":"latestProposalIds","outputs":[{"internalType":"uint256","name":"","type":"uint256"}],"payable":false,"stateMutability":"view","type":"function"},{"constant":true,"inputs":[],"name":"name","outputs":[{"internalType":"string","name":"","type":"string"}],"payable":false,"stateMutability":"view","type":"function"},{"constant":true,"inputs":[],"name":"pendingAdmin","outputs":[{"internalType":"address","name":"","type":"address"}],"payable":false,"stateMutability":"view","type":"function"},{"constant":true,"inputs":[],"name":"proposalCount","outputs":[{"internalType":"uint256","name":"","type":"uint256"}],"payable":false,"stateMutability":"view","type":"function"},{"constant":true,"inputs":[],"name":"proposalMaxOperations","outputs":[{"internalType":"uint256","name":"","type":"uint256"}],"payable":false,"stateMutability":"view","type":"function"},{"constant":true,"inputs":[],"name":"proposalThreshold","outputs":[{"internalType":"uint256","name":"","type":"uint256"}],"payable":false,"stateMutability":"view","type":"function"},{"constant":true,"inputs":[{"internalType":"uint256","name":"","type":"uint256"}],"name":"proposals","outputs":[{"internalType":"uint256","name":"id","type":"uint256"},{"internalType":"address","name":"proposer","type":"address"},{"internalType":"uint256","name":"eta","type":"uint256"},{"internalType":"uint256","name":"startBlock","type":"uint256"},{"internalType":"uint256","name":"endBlock","type":"uint256"},{"internalType":"uint256","name":"forVotes","type":"uint256"},{"internalType":"uint256","name":"againstVotes","type":"uint256"},{"internalType":"uint256","name":"abstainVotes","type":"uint256"},{"internalType":"bool","name":"canceled","type":"bool"},{"internalType":"bool","name":"executed","type":"bool"}],"payable":false,"stateMutability":"view","type":"function"},{"constant":false,"inputs":[{"internalType":"address[]","name":"targets","type":"address[]"},{"internalType":"uint256[]","name":"values","type":"uint256[]"},{"internalType":"string[]","name":"signatures","type":"string[]"},{"internalType":"bytes[]","name":"calldatas","type":"bytes[]"},{"internalType":"string","name":"description","type":"string"}],"name":"propose","outputs":[{"internalType":"uint256","name":"","type":"uint256"}],"payable":false,"stateMutability":"nonpayable","type":"function"},{"constant":false,"inputs":[{"internalType":"uint256","name":"proposalId","type":"uint256"}],"name":"queue","outputs":[],"payable":false,"stateMutability":"nonpayable","type":"function"},{"constant":true,"inputs":[],"name":"quorumVotes","outputs":[{"internalType":"uint256","name":"","type":"uint256"}],"payable":false,"stateMutability":"view","type":"function"},{"constant":true,"inputs":[{"internalType":"uint256","name":"proposalId","type":"uint256"}],"name":"state","outputs":[{"internalType":"enum GovernorBravoDelegateStorageV1.ProposalState","name":"","type":"uint8"}],"payable":false,"stateMutability":"view","type":"function"},{"constant":true,"inputs":[],"name":"timelock","outputs":[{"internalType":"contract TimelockInterface","name":"","type":"address"}],"payable":false,"stateMutability":"view","type":"function"},{"constant":true,"inputs":[],"name":"votingDelay","outputs":[{"internalType":"uint256","name":"","type":"uint256"}],"payable":false,"stateMutability":"view","type":"function"},{"constant":true,"inputs":[],"name":"votingPeriod","outputs":[{"internalType":"uint256","name":"","type":"uint256"}],"payable":false,"stateMutability":"view","type":"function"},{"constant":true,"inputs":[{"internalType":"address","name":"","type":"address"}],"name":"whitelistAccountExpirations","outputs":[{"internalType":"uint256","name":"","type":"uint256"}],"payable":false,"stateMutability":"view","type":"function"},{"constant":true,"inputs":[],"name":"whitelistGuardian","outputs":[{"internalType":"address","name":"","type":"address"}],"payable":false,"stateMutability":"view","type":"function"}],"devdoc":{"methods":{"_acceptAdmin()":{"details":"Admin function for pending admin to accept role and update admin"},"_initiate(address)":{"details":"Admin only. Sets initial proposal id which initiates the contract, ensuring a continuous proposal id count","params":{"governorAlpha":"The address for the Governor to continue the proposal id count from"}},"_setPendingAdmin(address)":{"details":"Admin function to begin change of admin. The newPendingAdmin must call `_acceptAdmin` to finalize the transfer.","params":{"newPendingAdmin":"New pending admin."}},"_setProposalThreshold(uint256)":{"details":"newProposalThreshold must be greater than the hardcoded min","params":{"newProposalThreshold":"new proposal threshold"}},"_setVotingDelay(uint256)":{"params":{"newVotingDelay":"new voting delay, in blocks"}},"_setVotingPeriod(uint256)":{"params":{"newVotingPeriod":"new voting period, in blocks"}},"_setWhitelistAccountExpiration(address,uint256)":{"params":{"account":"Account address to set whitelist expiration for","expiration":"Expiration for account whitelist status as timestamp (if now < expiration, whitelisted)"}},"_setWhitelistGuardian(address)":{"params":{"account":"Account to set whitelistGuardian to (0x0 to remove whitelistGuardian)"}},"cancel(uint256)":{"params":{"proposalId":"The id of the proposal to cancel"}},"castVote(uint256,uint8)":{"params":{"proposalId":"The id of the proposal to vote on","support":"The support value for the vote. 0=against, 1=for, 2=abstain"}},"castVoteBySig(uint256,uint8,uint8,bytes32,bytes32)":{"details":"External function that accepts EIP-712 signatures for voting on proposals."},"castVoteWithReason(uint256,uint8,string)":{"params":{"proposalId":"The id of the proposal to vote on","reason":"The reason given for the vote by the voter","support":"The support value for the vote. 0=against, 1=for, 2=abstain"}},"execute(uint256)":{"params":{"proposalId":"The id of the proposal to execute"}},"getActions(uint256)":{"params":{"proposalId":"the id of the proposal"},"return":"Targets, values, signatures, and calldatas of the proposal actions"},"getReceipt(uint256,address)":{"params":{"proposalId":"the id of proposal","voter":"The address of the voter"},"return":"The voting receipt"},"initialize(address,address,uint256,uint256,uint256)":{"params":{"comp_":"The address of the COMP token","proposalThreshold_":"The initial proposal threshold","timelock_":"The address of the Timelock","votingDelay_":"The initial voting delay","votingPeriod_":"The initial voting period"}},"isWhitelisted(address)":{"params":{"account":"Account to check white list status of"},"return":"If the account is whitelisted"},"propose(address[],uint256[],string[],bytes[],string)":{"params":{"calldatas":"Calldatas for proposal calls","description":"String description of the proposal","signatures":"Function signatures for proposal calls","targets":"Target addresses for proposal calls","values":"Eth values for proposal calls"},"return":"Proposal id of new proposal"},"queue(uint256)":{"params":{"proposalId":"The id of the proposal to queue"}},"state(uint256)":{"params":{"proposalId":"The id of the proposal"},"return":"Proposal state"}}},"evm":{"bytecode":{"linkReferences":{},"object":"608060405234801561001057600080fd5b5061494d806100206000396000f3fe6080604052600436106102725760003560e01c80635c60da1b1161014f578063d33219b4116100c1578063e48083fe1161007a578063e48083fe14610712578063e9c714f214610727578063f851a4401461073c578063f9d28b8014610751578063fc4eee4214610771578063fe0d94c11461078657610272565b8063d33219b414610666578063da35c6641461067b578063da95691a14610690578063ddf0b009146106b0578063deaaa7cc146106d0578063e23a9a52146106e557610272565b8063a64e024a11610113578063a64e024a146105d2578063b1126263146105e7578063b58131b0146105fc578063b71d1a0c14610611578063c5a8425d14610631578063d13f90b41461064657610272565b80635c60da1b14610553578063791f5d23146105685780637b3c71d31461057d5780637bdbe4d01461059d57806399533365146105b257610272565b806325fd935a116101e85780633af32abf116101ac5780633af32abf146104795780633bccf4fd146104a65780633e4f49e6146104c657806340e58ee5146104f35780634d6733d214610513578063567813881461053357610272565b806325fd935a146103dd57806326782247146103f2578063328dd9821461041457806338bd0dda146104445780633932abb11461046457610272565b806317977c611161023a57806317977c611461033e57806317ba1b8b1461035e5780631dfb1b5a1461037e57806320606b701461039e578063215809ca146103b357806324bc1a64146103c857610272565b8063013cf08b1461027757806302a251a3146102b657806306fdde03146102d85780630ea2d98c146102fa578063109d0af81461031c575b600080fd5b34801561028357600080fd5b50610297610292366004612ecb565b610799565b6040516102ad9a99989796959493929190614664565b60405180910390f35b3480156102c257600080fd5b506102cb6107fc565b6040516102ad9190614271565b3480156102e457600080fd5b506102ed610802565b6040516102ad919061432d565b34801561030657600080fd5b5061031a610315366004612ecb565b610835565b005b34801561032857600080fd5b506103316108df565b6040516102ad9190614311565b34801561034a57600080fd5b506102cb610359366004612ca6565b6108ee565b34801561036a57600080fd5b5061031a610379366004612ecb565b610900565b34801561038a57600080fd5b5061031a610399366004612ecb565b6109a4565b3480156103aa57600080fd5b506102cb610a37565b3480156103bf57600080fd5b506102cb610a4e565b3480156103d457600080fd5b506102cb610a54565b3480156103e957600080fd5b506102cb610a62565b3480156103fe57600080fd5b50610407610a70565b6040516102ad9190614129565b34801561042057600080fd5b5061043461042f366004612ecb565b610a7f565b6040516102ad9493929190614216565b34801561045057600080fd5b506102cb61045f366004612ca6565b610d0e565b34801561047057600080fd5b506102cb610d20565b34801561048557600080fd5b50610499610494366004612ca6565b610d26565b6040516102ad9190614263565b3480156104b257600080fd5b5061031a6104c1366004612fb1565b610d47565b3480156104d257600080fd5b506104e66104e1366004612ecb565b610f22565b6040516102ad919061431f565b3480156104ff57600080fd5b5061031a61050e366004612ecb565b6110a7565b34801561051f57600080fd5b5061031a61052e366004612d41565b6113ee565b34801561053f57600080fd5b5061031a61054e366004612f19565b61147a565b34801561055f57600080fd5b506104076114c4565b34801561057457600080fd5b506102cb6114d3565b34801561058957600080fd5b5061031a610598366004612f49565b6114e1565b3480156105a957600080fd5b506102cb611531565b3480156105be57600080fd5b5061031a6105cd366004612ca6565b611536565b3480156105de57600080fd5b506102cb6115b5565b3480156105f357600080fd5b506102cb6115bc565b34801561060857600080fd5b506102cb6115c2565b34801561061d57600080fd5b5061031a61062c366004612ca6565b6115c8565b34801561063d57600080fd5b50610407611645565b34801561065257600080fd5b5061031a610661366004612ccc565b611654565b34801561067257600080fd5b506103316117d1565b34801561068757600080fd5b506102cb6117e0565b34801561069c57600080fd5b506102cb6106ab366004612d7b565b6117e6565b3480156106bc57600080fd5b5061031a6106cb366004612ecb565b611c3d565b3480156106dc57600080fd5b506102cb611eb9565b3480156106f157600080fd5b50610705610700366004612ee9565b611ec5565b6040516102ad91906145ae565b34801561071e57600080fd5b506102cb611f32565b34801561073357600080fd5b5061031a611f37565b34801561074857600080fd5b50610407612015565b34801561075d57600080fd5b5061031a61076c366004612ca6565b612024565b34801561077d57600080fd5b506102cb61214a565b61031a610794366004612ecb565b612150565b600a60208190526000918252604090912080546001820154600283015460078401546008850154600986015496860154600b870154600c9097015495976001600160a01b0390951696939592949193919290919060ff808216916101009004168a565b60045481565b60405180604001604052806017815260200176436f6d706f756e6420476f7665726e6f7220427261766f60481b81525081565b6000546001600160a01b031633146108685760405162461bcd60e51b815260040161085f9061437e565b60405180910390fd5b611680811015801561087d575062013b008111155b6108995760405162461bcd60e51b815260040161085f906143be565b60048054908290556040517f7e3f7f0708a84de9203036abaa450dccc85ad5ff52f78c170f3edb55cf5e8828906108d390839085906146ea565b60405180910390a15050565b6009546001600160a01b031681565b600b6020526000908152604090205481565b6000546001600160a01b0316331461092a5760405162461bcd60e51b815260040161085f9061455e565b690a968163f0a57b400000811015801561094e575069152d02c7e14af68000008111155b61096a5760405162461bcd60e51b815260040161085f9061446e565b60058054908290556040517fccb45da8d5717e6c4544694297c4ba5cf151d455c9bb0ed4fc7a38411bc05461906108d390839085906146ea565b6000546001600160a01b031633146109ce5760405162461bcd60e51b815260040161085f9061439e565b600181101580156109e15750619d808111155b6109fd5760405162461bcd60e51b815260040161085f906143ee565b60038054908290556040517fc565b045403dc03c2eea82b81a0465edad9e2e7fc4d97e11421c209da93d7a93906108d390839085906146ea565b604051610a439061411e565b604051809103902081565b61168081565b6954b40b1f852bda00000081565b69152d02c7e14af680000081565b6001546001600160a01b031681565b6060806060806000600a600087815260200190815260200160002090508060030181600401826005018360060183805480602002602001604051908101604052809291908181526020018280548015610b0157602002820191906000526020600020905b81546001600160a01b03168152600190910190602001808311610ae3575b5050505050935082805480602002602001604051908101604052809291908181526020018280548015610b5357602002820191906000526020600020905b815481526020019060010190808311610b3f575b5050505050925081805480602002602001604051908101604052809291908181526020016000905b82821015610c265760008481526020908190208301805460408051601f6002600019610100600187161502019094169390930492830185900485028101850190915281815292830182828015610c125780601f10610be757610100808354040283529160200191610c12565b820191906000526020600020905b815481529060010190602001808311610bf557829003601f168201915b505050505081526020019060010190610b7b565b50505050915080805480602002602001604051908101604052809291908181526020016000905b82821015610cf85760008481526020908190208301805460408051601f6002600019610100600187161502019094169390930492830185900485028101850190915281815292830182828015610ce45780601f10610cb957610100808354040283529160200191610ce4565b820191906000526020600020905b815481529060010190602001808311610cc757829003601f168201915b505050505081526020019060010190610c4d565b5050505090509450945094509450509193509193565b600c6020526000908152604090205481565b60035481565b6001600160a01b0381166000908152600c602052604090205442105b919050565b6000604051610d559061411e565b604080519182900382208282019091526017825276436f6d706f756e6420476f7665726e6f7220427261766f60481b6020909201919091527f3d9e905142ff365fb68ce863f26a44f5583cf7ec11bcde450555f50b7e1b5614610db6612309565b30604051602001610dca949392919061427f565b6040516020818303038152906040528051906020012090506000604051610df0906140e2565b604051908190038120610e0991899089906020016142b4565b60405160208183030381529060405280519060200120905060008282604051602001610e369291906140ed565b604051602081830303815290604052805190602001209050600060018288888860405160008152602001604052604051610e7394939291906142dc565b6020604051602081039080840390855afa158015610e95573d6000803e3d6000fd5b5050604051601f1901519150506001600160a01b038116610ec85760405162461bcd60e51b815260040161085f9061441e565b806001600160a01b03167fb8e138887d0aa13bab447e82de9d5c1777041ecd21ca36ba824ff1e6c07ddda48a8a610f00858e8e61230e565b604051610f0f9392919061473e565b60405180910390a2505050505050505050565b60008160075410158015610f37575060065482115b610f535760405162461bcd60e51b815260040161085f9061456e565b6000828152600a60205260409020600c81015460ff1615610f78576002915050610d42565b80600701544311610f8d576000915050610d42565b80600801544311610fa2576001915050610d42565b80600a01548160090154111580610fc657506954b40b1f852bda0000008160090154105b15610fd5576003915050610d42565b6002810154610fe8576004915050610d42565b600c810154610100900460ff1615611004576007915050610d42565b6002810154600854604080516360d143f160e11b8152905161108d93926001600160a01b03169163c1a287e2916004808301926020929190829003018186803b15801561105057600080fd5b505afa158015611064573d6000803e3d6000fd5b505050506040513d601f19601f820116820180604052506110889190810190612e78565b6124ff565b421061109d576006915050610d42565b6005915050610d42565b60076110b282610f22565b60078111156110bd57fe5b14156110db5760405162461bcd60e51b815260040161085f9061454e565b6000818152600a6020526040902060018101546001600160a01b031633146112b2576001810154611114906001600160a01b0316610d26565b156111f3576005546009546001838101546001600160a01b039283169263782d6fe192911690611145904390612524565b6040518363ffffffff1660e01b815260040161116292919061416d565b60206040518083038186803b15801561117a57600080fd5b505afa15801561118e573d6000803e3d6000fd5b505050506040513d601f19601f820116820180604052506111b29190810190612ff7565b6001600160601b03161080156111d25750600d546001600160a01b031633145b6111ee5760405162461bcd60e51b815260040161085f9061459e565b6112b2565b6005546009546001838101546001600160a01b039283169263782d6fe19291169061121f904390612524565b6040518363ffffffff1660e01b815260040161123c92919061416d565b60206040518083038186803b15801561125457600080fd5b505afa158015611268573d6000803e3d6000fd5b505050506040513d601f19601f8201168201806040525061128c9190810190612ff7565b6001600160601b0316106112b25760405162461bcd60e51b815260040161085f906144de565b600c8101805460ff1916600117905560005b60038201548110156113be576008546003830180546001600160a01b039092169163591fcdfe9190849081106112f657fe5b6000918252602090912001546004850180546001600160a01b03909216918590811061131e57fe5b906000526020600020015485600501858154811061133857fe5b9060005260206000200186600601868154811061135157fe5b9060005260206000200187600201546040518663ffffffff1660e01b81526004016113809594939291906141d5565b600060405180830381600087803b15801561139a57600080fd5b505af11580156113ae573d6000803e3d6000fd5b5050600190920191506112c49050565b507f789cf55be980739dad1d0699b93b58e806b51c9d96619bfa8fe0a28abaa7b30c826040516108d39190614271565b6000546001600160a01b03163314806114115750600d546001600160a01b031633145b61142d5760405162461bcd60e51b815260040161085f9061453e565b6001600160a01b0382166000908152600c602052604090819020829055517f4e7b7545bc5744d0e30425959f4687475774b6c7edad77d24cb51c7d967d4515906108d3908490849061416d565b337fb8e138887d0aa13bab447e82de9d5c1777041ecd21ca36ba824ff1e6c07ddda483836114a984838361230e565b6040516114b89392919061473e565b60405180910390a25050565b6002546001600160a01b031681565b690a968163f0a57b40000081565b337fb8e138887d0aa13bab447e82de9d5c1777041ecd21ca36ba824ff1e6c07ddda4858561151084838361230e565b86866040516115239594939291906146f8565b60405180910390a250505050565b600a81565b6000546001600160a01b031633146115605760405162461bcd60e51b815260040161085f9061443e565b600d80546001600160a01b038381166001600160a01b031983161792839055604051918116927f80a07e73e552148844a9c216d9724212d609cfa54e9c1a2e97203bdd2c4ad341926108d39285921690614152565b62013b0081565b619d8081565b60055481565b6000546001600160a01b031633146115f25760405162461bcd60e51b815260040161085f9061435e565b600180546001600160a01b038381166001600160a01b03198316179092556040519116907fca4f2f25d0898edd99413412fb94012f9e54ec8142f9b093e7720646a95b16a9906108d39083908590614152565b600d546001600160a01b031681565b6008546001600160a01b03161561167d5760405162461bcd60e51b815260040161085f9061434e565b6000546001600160a01b031633146116a75760405162461bcd60e51b815260040161085f9061445e565b6001600160a01b0385166116cd5760405162461bcd60e51b815260040161085f9061438e565b6001600160a01b0384166116f35760405162461bcd60e51b815260040161085f906144ce565b6116808310158015611708575062013b008311155b6117245760405162461bcd60e51b815260040161085f9061457e565b600182101580156117375750619d808211155b6117535760405162461bcd60e51b815260040161085f9061442e565b690a968163f0a57b4000008110158015611777575069152d02c7e14af68000008111155b6117935760405162461bcd60e51b815260040161085f906143fe565b600880546001600160a01b039687166001600160a01b0319918216179091556009805495909616941693909317909355600455600391909155600555565b6008546001600160a01b031681565b60075481565b60006006546000141561180b5760405162461bcd60e51b815260040161085f906143ae565b6005546009546001600160a01b031663782d6fe13361182b436001612524565b6040518363ffffffff1660e01b8152600401611848929190614137565b60206040518083038186803b15801561186057600080fd5b505afa158015611874573d6000803e3d6000fd5b505050506040513d601f19601f820116820180604052506118989190810190612ff7565b6001600160601b031611806118b157506118b133610d26565b6118cd5760405162461bcd60e51b815260040161085f9061452e565b845186511480156118df575083518651145b80156118ec575082518651145b6119085760405162461bcd60e51b815260040161085f9061444e565b85516119265760405162461bcd60e51b815260040161085f906144ae565b600a865111156119485760405162461bcd60e51b815260040161085f906144ee565b336000908152600b602052604090205480156119c557600061196982610f22565b9050600181600781111561197957fe5b14156119975760405162461bcd60e51b815260040161085f9061450e565b60008160078111156119a557fe5b14156119c35760405162461bcd60e51b815260040161085f906144fe565b505b60006119d3436003546124ff565b905060006119e3826004546124ff565b60078054600101905590506119f66126ab565b604051806101c001604052806007548152602001336001600160a01b03168152602001600081526020018b81526020018a815260200189815260200188815260200184815260200183815260200160008152602001600081526020016000815260200160001515815260200160001515815250905080600a6000836000015181526020019081526020016000206000820151816000015560208201518160010160006101000a8154816001600160a01b0302191690836001600160a01b03160217905550604082015181600201556060820151816003019080519060200190611ae0929190612727565b5060808201518051611afc91600484019160209091019061278c565b5060a08201518051611b189160058401916020909101906127d3565b5060c08201518051611b3491600684019160209091019061282c565b5060e082015181600701556101008201518160080155610120820151816009015561014082015181600a015561016082015181600b015561018082015181600c0160006101000a81548160ff0219169083151502179055506101a082015181600c0160016101000a81548160ff0219169083151502179055509050508060000151600b600083602001516001600160a01b03166001600160a01b03168152602001908152602001600020819055507f7d84a6263ae0d98d3329bd7b46bb4e8d6f98cd35a7adb45c274c8b7fd5ebd5e08160000151338c8c8c8c89898e604051611c25999897969594939291906145bc565b60405180910390a15193505050505b95945050505050565b6004611c4882610f22565b6007811115611c5357fe5b14611c705760405162461bcd60e51b815260040161085f9061447e565b6000818152600a602090815260408083206008548251630d48571f60e31b81529251919493611cca9342936001600160a01b0390931692636a42b8f892600480840193919291829003018186803b15801561105057600080fd5b905060005b6003830154811015611e7257611e6a836003018281548110611ced57fe5b6000918252602090912001546004850180546001600160a01b039092169184908110611d1557fe5b9060005260206000200154856005018481548110611d2f57fe5b600091825260209182902001805460408051601f6002600019610100600187161502019094169390930492830185900485028101850190915281815292830182828015611dbd5780601f10611d9257610100808354040283529160200191611dbd565b820191906000526020600020905b815481529060010190602001808311611da057829003601f168201915b5050505050866006018581548110611dd157fe5b600091825260209182902001805460408051601f6002600019610100600187161502019094169390930492830185900485028101850190915281815292830182828015611e5f5780601f10611e3457610100808354040283529160200191611e5f565b820191906000526020600020905b815481529060010190602001808311611e4257829003601f168201915b50505050508661254c565b600101611ccf565b50600282018190556040517f9a2e42fd6722813d69113e7d0079d3d940171428df7373df9c7f7617cfda289290611eac90859084906146ea565b60405180910390a1505050565b604051610a43906140e2565b611ecd612885565b506000828152600a602090815260408083206001600160a01b0385168452600d018252918290208251606081018452905460ff8082161515835261010082041692820192909252620100009091046001600160601b0316918101919091525b92915050565b600181565b6001546001600160a01b031633148015611f5057503315155b611f6c5760405162461bcd60e51b815260040161085f906144be565b60008054600180546001600160a01b038082166001600160a01b03198086168217968790559092169092556040519282169390927ff9ffabca9c8276e99321725bcb43fb076a6c66a54b7f21c4e8146d8519b417dc92611fd0928692911690614152565b60405180910390a16001546040517fca4f2f25d0898edd99413412fb94012f9e54ec8142f9b093e7720646a95b16a9916108d39184916001600160a01b031690614152565b6000546001600160a01b031681565b6000546001600160a01b0316331461204e5760405162461bcd60e51b815260040161085f9061451e565b6006541561206e5760405162461bcd60e51b815260040161085f9061449e565b806001600160a01b031663da35c6646040518163ffffffff1660e01b8152600401602060405180830381600087803b1580156120a957600080fd5b505af11580156120bd573d6000803e3d6000fd5b505050506040513d601f19601f820116820180604052506120e19190810190612e78565b600781905560065560085460408051630e18b68160e01b815290516001600160a01b0390921691630e18b6819160048082019260009290919082900301818387803b15801561212f57600080fd5b505af1158015612143573d6000803e3d6000fd5b5050505050565b60065481565b600561215b82610f22565b600781111561216657fe5b146121835760405162461bcd60e51b815260040161085f9061440e565b6000818152600a60205260408120600c8101805461ff001916610100179055905b60038201548110156122d9576008546004830180546001600160a01b0390921691630825f38f9190849081106121d657fe5b90600052602060002001548460030184815481106121f057fe5b6000918252602090912001546004860180546001600160a01b03909216918690811061221857fe5b906000526020600020015486600501868154811061223257fe5b9060005260206000200187600601878154811061224b57fe5b9060005260206000200188600201546040518763ffffffff1660e01b815260040161227a9594939291906141d5565b6000604051808303818588803b15801561229357600080fd5b505af11580156122a7573d6000803e3d6000fd5b50505050506040513d6000823e601f3d908101601f191682016040526122d09190810190612e96565b506001016121a4565b507f712ae1383f79ac853f8d882153778e0260ef8f03b504e2866e0593e04d2b291f826040516108d39190614271565b465b90565b6000600161231b84610f22565b600781111561232657fe5b146123435760405162461bcd60e51b815260040161085f906143ce565b60028260ff1611156123675760405162461bcd60e51b815260040161085f9061433e565b6000838152600a602090815260408083206001600160a01b0388168452600d8101909252909120805460ff16156123b05760405162461bcd60e51b815260040161085f906143de565b600954600783015460405163782d6fe160e01b81526000926001600160a01b03169163782d6fe1916123e6918b9160040161416d565b60206040518083038186803b1580156123fe57600080fd5b505afa158015612412573d6000803e3d6000fd5b505050506040513d601f19601f820116820180604052506124369190810190612ff7565b905060ff85166124615761245783600a0154826001600160601b03166124ff565b600a8401556124b7565b8460ff166001141561248e576124848360090154826001600160601b03166124ff565b60098401556124b7565b8460ff16600214156124b7576124b183600b0154826001600160601b03166124ff565b600b8401555b8154600160ff199091161761ff00191661010060ff871602176dffffffffffffffffffffffff00001916620100006001600160601b03831602179091559150505b9392505050565b6000828201838110156124f85760405162461bcd60e51b815260040161085f9061448e565b6000828211156125465760405162461bcd60e51b815260040161085f9061458e565b50900390565b6008546040516001600160a01b039091169063f2b065379061257a908890889088908890889060200161417b565b604051602081830303815290604052805190602001206040518263ffffffff1660e01b81526004016125ac9190614271565b60206040518083038186803b1580156125c457600080fd5b505afa1580156125d8573d6000803e3d6000fd5b505050506040513d601f19601f820116820180604052506125fc9190810190612e5a565b156126195760405162461bcd60e51b815260040161085f9061436e565b600854604051633a66f90160e01b81526001600160a01b0390911690633a66f90190612651908890889088908890889060040161417b565b602060405180830381600087803b15801561266b57600080fd5b505af115801561267f573d6000803e3d6000fd5b505050506040513d601f19601f820116820180604052506126a39190810190612e78565b505050505050565b604051806101c001604052806000815260200160006001600160a01b03168152602001600081526020016060815260200160608152602001606081526020016060815260200160008152602001600081526020016000815260200160008152602001600081526020016000151581526020016000151581525090565b82805482825590600052602060002090810192821561277c579160200282015b8281111561277c57825182546001600160a01b0319166001600160a01b03909116178255602090920191600190910190612747565b506127889291506128a5565b5090565b8280548282559060005260206000209081019282156127c7579160200282015b828111156127c75782518255916020019190600101906127ac565b506127889291506128c9565b828054828255906000526020600020908101928215612820579160200282015b8281111561282057825180516128109184916020909101906128e3565b50916020019190600101906127f3565b50612788929150612950565b828054828255906000526020600020908101928215612879579160200282015b8281111561287957825180516128699184916020909101906128e3565b509160200191906001019061284c565b50612788929150612973565b604080516060810182526000808252602082018190529181019190915290565b61230b91905b808211156127885780546001600160a01b03191681556001016128ab565b61230b91905b8082111561278857600081556001016128cf565b828054600181600116156101000203166002900490600052602060002090601f016020900481019282601f1061292457805160ff19168380011785556127c7565b828001600101855582156127c757918201828111156127c75782518255916020019190600101906127ac565b61230b91905b8082111561278857600061296a8282612996565b50600101612956565b61230b91905b8082111561278857600061298d8282612996565b50600101612979565b50805460018160011615610100020316600290046000825580601f106129bc57506129da565b601f0160209004906000526020600020908101906129da91906128c9565b50565b8035611f2c816148b2565b600082601f8301126129f957600080fd5b8135612a0c612a078261479e565b614777565b91508181835260208401935060208101905083856020840282011115612a3157600080fd5b60005b83811015612a5d5781612a4788826129dd565b8452506020928301929190910190600101612a34565b5050505092915050565b600082601f830112612a7857600080fd5b8135612a86612a078261479e565b81815260209384019390925082018360005b83811015612a5d5781358601612aae8882612bb2565b8452506020928301929190910190600101612a98565b600082601f830112612ad557600080fd5b8135612ae3612a078261479e565b81815260209384019390925082018360005b83811015612a5d5781358601612b0b8882612bb2565b8452506020928301929190910190600101612af5565b600082601f830112612b3257600080fd5b8135612b40612a078261479e565b91508181835260208401935060208101905083856020840282011115612b6557600080fd5b60005b83811015612a5d5781612b7b8882612b9c565b8452506020928301929190910190600101612b68565b8051611f2c816148c6565b8035611f2c816148cf565b8051611f2c816148cf565b600082601f830112612bc357600080fd5b8135612bd1612a07826147bf565b91508082526020830160208301858383011115612bed57600080fd5b612bf8838284614866565b50505092915050565b600082601f830112612c1257600080fd5b8151612c20612a07826147bf565b91508082526020830160208301858383011115612c3c57600080fd5b612bf8838284614872565b60008083601f840112612c5957600080fd5b50813567ffffffffffffffff811115612c7157600080fd5b602083019150836001820283011115612c8957600080fd5b9250929050565b8035611f2c816148d8565b8051611f2c816148e1565b600060208284031215612cb857600080fd5b6000612cc484846129dd565b949350505050565b600080600080600060a08688031215612ce457600080fd5b6000612cf088886129dd565b9550506020612d01888289016129dd565b9450506040612d1288828901612b9c565b9350506060612d2388828901612b9c565b9250506080612d3488828901612b9c565b9150509295509295909350565b60008060408385031215612d5457600080fd5b6000612d6085856129dd565b9250506020612d7185828601612b9c565b9150509250929050565b600080600080600060a08688031215612d9357600080fd5b853567ffffffffffffffff811115612daa57600080fd5b612db6888289016129e8565b955050602086013567ffffffffffffffff811115612dd357600080fd5b612ddf88828901612b21565b945050604086013567ffffffffffffffff811115612dfc57600080fd5b612e0888828901612ac4565b935050606086013567ffffffffffffffff811115612e2557600080fd5b612e3188828901612a67565b925050608086013567ffffffffffffffff811115612e4e57600080fd5b612d3488828901612bb2565b600060208284031215612e6c57600080fd5b6000612cc48484612b91565b600060208284031215612e8a57600080fd5b6000612cc48484612ba7565b600060208284031215612ea857600080fd5b815167ffffffffffffffff811115612ebf57600080fd5b612cc484828501612c01565b600060208284031215612edd57600080fd5b6000612cc48484612b9c565b60008060408385031215612efc57600080fd5b6000612f088585612b9c565b9250506020612d71858286016129dd565b60008060408385031215612f2c57600080fd5b6000612f388585612b9c565b9250506020612d7185828601612c90565b60008060008060608587031215612f5f57600080fd5b6000612f6b8787612b9c565b9450506020612f7c87828801612c90565b935050604085013567ffffffffffffffff811115612f9957600080fd5b612fa587828801612c47565b95989497509550505050565b600080600080600060a08688031215612fc957600080fd5b6000612fd58888612b9c565b9550506020612fe688828901612c90565b9450506040612d1288828901612c90565b60006020828403121561300957600080fd5b6000612cc48484612c9b565b60006130218383613050565b505060200190565b60006124f883836131f2565b600061302183836131d8565b61304a8161483e565b82525050565b61304a81614806565b6000613064826147f9565b61306e81856147fd565b9350613079836147e7565b8060005b838110156130a75781516130918882613015565b975061309c836147e7565b92505060010161307d565b509495945050505050565b60006130bd826147f9565b6130c781856147fd565b9350836020820285016130d9856147e7565b8060005b8581101561311357848403895281516130f68582613029565b9450613101836147e7565b60209a909a01999250506001016130dd565b5091979650505050505050565b600061312b826147f9565b61313581856147fd565b935083602082028501613147856147e7565b8060005b8581101561311357848403895281516131648582613029565b945061316f836147e7565b60209a909a019992505060010161314b565b600061318c826147f9565b61319681856147fd565b93506131a1836147e7565b8060005b838110156130a75781516131b98882613035565b97506131c4836147e7565b9250506001016131a5565b61304a81614811565b61304a8161230b565b61304a6131ed8261230b565b61230b565b60006131fd826147f9565b61320781856147fd565b9350613217818560208601614872565b6132208161489e565b9093019392505050565b600081546001811660008114613247576001811461326d576132ac565b607f600283041661325881876147fd565b60ff19841681529550506020850192506132ac565b6002820461327b81876147fd565b9550613286856147ed565b60005b828110156132a557815488820152600190910190602001613289565b8701945050505b505092915050565b61304a81614845565b61304a81614850565b60006132d283856147fd565b93506132df838584614866565b6132208361489e565b60006132f56032836147fd565b7f476f7665726e6f72427261766f3a3a63617374566f7465496e7465726e616c3a81527120696e76616c696420766f7465207479706560701b602082015260400192915050565b6000613349602883610d42565b7f42616c6c6f742875696e743235362070726f706f73616c49642c75696e743820815267737570706f72742960c01b602082015260280192915050565b60006133936033836147fd565b7f476f7665726e6f72427261766f3a3a696e697469616c697a653a2063616e206f8152726e6c7920696e697469616c697a65206f6e636560681b602082015260400192915050565b60006133e8602a836147fd565b7f476f7665726e6f72427261766f3a5f73657450656e64696e6741646d696e3a2081526961646d696e206f6e6c7960b01b602082015260400192915050565b60006134346055836147fd565b7f476f7665726e6f72427261766f3a3a71756575654f72526576657274496e746581527f726e616c3a206964656e746963616c2070726f706f73616c20616374696f6e20602082015274616c7265616479207175657565642061742065746160581b604082015260600192915050565b60006134b1602b836147fd565b7f476f7665726e6f72427261766f3a3a5f736574566f74696e67506572696f643a81526a2061646d696e206f6e6c7960a81b602082015260400192915050565b60006134fe6033836147fd565b6000805160206148eb83398151915281527269642074696d656c6f636b206164647265737360681b602082015260400192915050565b6000613541602a836147fd565b7f476f7665726e6f72427261766f3a3a5f736574566f74696e6744656c61793a2081526961646d696e206f6e6c7960b01b602082015260400192915050565b600061358d6031836147fd565b7f476f7665726e6f72427261766f3a3a70726f706f73653a20476f7665726e6f7281527020427261766f206e6f742061637469766560781b602082015260400192915050565b60006135e0600283610d42565b61190160f01b815260020192915050565b60006135fe6036836147fd565b7f476f7665726e6f72427261766f3a3a5f736574566f74696e67506572696f643a815275081a5b9d985b1a59081d9bdd1a5b99c81c195c9a5bd960521b602082015260400192915050565b60006136566031836147fd565b7f476f7665726e6f72427261766f3a3a63617374566f7465496e7465726e616c3a815270081d9bdd1a5b99c81a5cc818db1bdcd959607a1b602082015260400192915050565b60006136a96034836147fd565b7f476f7665726e6f72427261766f3a3a63617374566f7465496e7465726e616c3a815273081d9bdd195c88185b1c9958591e481d9bdd195960621b602082015260400192915050565b60006136ff6034836147fd565b7f476f7665726e6f72427261766f3a3a5f736574566f74696e6744656c61793a20815273696e76616c696420766f74696e672064656c617960601b602082015260400192915050565b60006137556035836147fd565b6000805160206148eb8339815191528152741a59081c1c9bdc1bdcd85b081d1a1c995cda1bdb19605a1b602082015260400192915050565b600061379a6045836147fd565b7f476f7665726e6f72427261766f3a3a657865637574653a2070726f706f73616c81527f2063616e206f6e6c7920626520657865637574656420696620697420697320716020820152641d595d595960da1b604082015260600192915050565b6000613807602f836147fd565b7f476f7665726e6f72427261766f3a3a63617374566f746542795369673a20696e81526e76616c6964207369676e617475726560881b602082015260400192915050565b6000613858602f836147fd565b6000805160206148eb83398151915281526e696420766f74696e672064656c617960881b602082015260400192915050565b60006138976030836147fd565b7f476f7665726e6f72427261766f3a3a5f73657457686974656c6973744775617281526f6469616e3a2061646d696e206f6e6c7960801b602082015260400192915050565b60006138e96044836147fd565b7f476f7665726e6f72427261766f3a3a70726f706f73653a2070726f706f73616c81527f2066756e6374696f6e20696e666f726d6174696f6e206172697479206d69736d6020820152630c2e8c6d60e31b604082015260600192915050565b60006139556025836147fd565b7f476f7665726e6f72427261766f3a3a696e697469616c697a653a2061646d696e815264206f6e6c7960d81b602082015260400192915050565b600061399c6040836147fd565b7f476f7665726e6f72427261766f3a3a5f73657450726f706f73616c546872657381527f686f6c643a20696e76616c69642070726f706f73616c207468726573686f6c64602082015260400192915050565b60006139fb6044836147fd565b7f476f7665726e6f72427261766f3a3a71756575653a2070726f706f73616c206381527f616e206f6e6c79206265207175657565642069662069742069732073756363656020820152631959195960e21b604082015260600192915050565b6000613a676011836147fd565b706164646974696f6e206f766572666c6f7760781b815260200192915050565b6000613a94604383610d42565b7f454950373132446f6d61696e28737472696e67206e616d652c75696e7432353681527f20636861696e49642c6164647265737320766572696679696e67436f6e74726160208201526263742960e81b604082015260430192915050565b6000613aff6030836147fd565b7f476f7665726e6f72427261766f3a3a5f696e6974696174653a2063616e206f6e81526f6c7920696e697469617465206f6e636560801b602082015260400192915050565b6000613b51602c836147fd565b7f476f7665726e6f72427261766f3a3a70726f706f73653a206d7573742070726f81526b7669646520616374696f6e7360a01b602082015260400192915050565b6000613b9f602e836147fd565b7f476f7665726e6f72427261766f3a5f61636365707441646d696e3a2070656e6481526d696e672061646d696e206f6e6c7960901b602082015260400192915050565b6000613bef602f836147fd565b6000805160206148eb83398151915281526e696420636f6d70206164647265737360881b602082015260400192915050565b6000613c2e602f836147fd565b7f476f7665726e6f72427261766f3a3a63616e63656c3a2070726f706f7365722081526e18589bdd99481d1a1c995cda1bdb19608a1b602082015260400192915050565b6000613c7f6028836147fd565b7f476f7665726e6f72427261766f3a3a70726f706f73653a20746f6f206d616e7981526720616374696f6e7360c01b602082015260400192915050565b6000613cc96059836147fd565b7f476f7665726e6f72427261766f3a3a70726f706f73653a206f6e65206c69766581527f2070726f706f73616c207065722070726f706f7365722c20666f756e6420616e60208201527f20616c72656164792070656e64696e672070726f706f73616c00000000000000604082015260600192915050565b6000613d4e6058836147fd565b7f476f7665726e6f72427261766f3a3a70726f706f73653a206f6e65206c69766581527f2070726f706f73616c207065722070726f706f7365722c20666f756e6420616e60208201527f20616c7265616479206163746976652070726f706f73616c0000000000000000604082015260600192915050565b6000611f2c6000836147fd565b6000613de06024836147fd565b7f476f7665726e6f72427261766f3a3a5f696e6974696174653a2061646d696e208152636f6e6c7960e01b602082015260400192915050565b6000613e26603f836147fd565b7f476f7665726e6f72427261766f3a3a70726f706f73653a2070726f706f73657281527f20766f7465732062656c6f772070726f706f73616c207468726573686f6c6400602082015260400192915050565b6000613e856039836147fd565b7f476f7665726e6f72427261766f3a3a5f73657457686974656c6973744163636f81527f756e7445787069726174696f6e3a2061646d696e206f6e6c7900000000000000602082015260400192915050565b6000613ee46036836147fd565b7f476f7665726e6f72427261766f3a3a63616e63656c3a2063616e6e6f742063618152751b98d95b08195e1958dd5d1959081c1c9bdc1bdcd85b60521b602082015260400192915050565b6000613f3c6030836147fd565b7f476f7665726e6f72427261766f3a3a5f73657450726f706f73616c546872657381526f686f6c643a2061646d696e206f6e6c7960801b602082015260400192915050565b6000613f8e6029836147fd565b7f476f7665726e6f72427261766f3a3a73746174653a20696e76616c69642070728152681bdc1bdcd85b081a5960ba1b602082015260400192915050565b6000613fd96030836147fd565b6000805160206148eb83398151915281526f1a59081d9bdd1a5b99c81c195c9a5bd960821b602082015260400192915050565b60006140196015836147fd565b747375627472616374696f6e20756e646572666c6f7760581b815260200192915050565b600061404a602b836147fd565b7f476f7665726e6f72427261766f3a3a63616e63656c3a2077686974656c69737481526a32b210383937b837b9b2b960a91b602082015260400192915050565b8051606083019061409b84826131cf565b5060208201516140ae60208501826140c7565b5060408201516140c160408501826140d9565b50505050565b61304a8161482c565b61304a8161485b565b61304a81614832565b6000611f2c8261333c565b60006140f8826135d3565b915061410482856131e1565b60208201915061411482846131e1565b5060200192915050565b6000611f2c82613a87565b60208101611f2c8284613050565b604081016141458285613041565b6124f860208301846131d8565b604081016141608285613050565b6124f86020830184613050565b604081016141458285613050565b60a081016141898288613050565b61419660208301876131d8565b81810360408301526141a881866131f2565b905081810360608301526141bc81856131f2565b90506141cb60808301846131d8565b9695505050505050565b60a081016141e38288613050565b6141f060208301876131d8565b8181036040830152614202818661322a565b905081810360608301526141bc818561322a565b608080825281016142278187613059565b9050818103602083015261423b8186613181565b9050818103604083015261424f8185613120565b905081810360608301526141cb81846130b2565b60208101611f2c82846131cf565b60208101611f2c82846131d8565b6080810161428d82876131d8565b61429a60208301866131d8565b6142a760408301856131d8565b611c346060830184613050565b606081016142c282866131d8565b6142cf60208301856131d8565b612cc460408301846140c7565b608081016142ea82876131d8565b6142f760208301866140c7565b61430460408301856131d8565b611c3460608301846131d8565b60208101611f2c82846132b4565b60208101611f2c82846132bd565b602080825281016124f881846131f2565b60208082528101611f2c816132e8565b60208082528101611f2c81613386565b60208082528101611f2c816133db565b60208082528101611f2c81613427565b60208082528101611f2c816134a4565b60208082528101611f2c816134f1565b60208082528101611f2c81613534565b60208082528101611f2c81613580565b60208082528101611f2c816135f1565b60208082528101611f2c81613649565b60208082528101611f2c8161369c565b60208082528101611f2c816136f2565b60208082528101611f2c81613748565b60208082528101611f2c8161378d565b60208082528101611f2c816137fa565b60208082528101611f2c8161384b565b60208082528101611f2c8161388a565b60208082528101611f2c816138dc565b60208082528101611f2c81613948565b60208082528101611f2c8161398f565b60208082528101611f2c816139ee565b60208082528101611f2c81613a5a565b60208082528101611f2c81613af2565b60208082528101611f2c81613b44565b60208082528101611f2c81613b92565b60208082528101611f2c81613be2565b60208082528101611f2c81613c21565b60208082528101611f2c81613c72565b60208082528101611f2c81613cbc565b60208082528101611f2c81613d41565b60208082528101611f2c81613dd3565b60208082528101611f2c81613e19565b60208082528101611f2c81613e78565b60208082528101611f2c81613ed7565b60208082528101611f2c81613f2f565b60208082528101611f2c81613f81565b60208082528101611f2c81613fcc565b60208082528101611f2c8161400c565b60208082528101611f2c8161403d565b60608101611f2c828461408a565b61012081016145cb828c6131d8565b6145d8602083018b613041565b81810360408301526145ea818a613059565b905081810360608301526145fe8189613181565b905081810360808301526146128188613120565b905081810360a083015261462681876130b2565b905061463560c08301866131d8565b61464260e08301856131d8565b81810361010083015261465581846131f2565b9b9a5050505050505050505050565b6101408101614673828d6131d8565b614680602083018c613050565b61468d604083018b6131d8565b61469a606083018a6131d8565b6146a760808301896131d8565b6146b460a08301886131d8565b6146c160c08301876131d8565b6146ce60e08301866131d8565b6146dc6101008301856131cf565b6146556101208301846131cf565b6040810161414582856131d8565b6080810161470682886131d8565b61471360208301876140c7565b61472060408301866140d0565b81810360608301526147338184866132c6565b979650505050505050565b6080810161474c82866131d8565b61475960208301856140c7565b61476660408301846140d0565b8181036060830152611c3481613dc6565b60405181810167ffffffffffffffff8111828210171561479657600080fd5b604052919050565b600067ffffffffffffffff8211156147b557600080fd5b5060209081020190565b600067ffffffffffffffff8211156147d657600080fd5b506020601f91909101601f19160190565b60200190565b60009081526020902090565b5190565b90815260200190565b6000611f2c82614820565b151590565b80610d42816148a8565b6001600160a01b031690565b60ff1690565b6001600160601b031690565b6000611f2c825b6000611f2c82614806565b6000611f2c82614816565b6000611f2c82614832565b82818337506000910152565b60005b8381101561488d578181015183820152602001614875565b838111156140c15750506000910152565b601f01601f191690565b600881106129da57fe5b6148bb81614806565b81146129da57600080fd5b6148bb81614811565b6148bb8161230b565b6148bb8161482c565b6148bb8161483256fe476f7665726e6f72427261766f3a3a696e697469616c697a653a20696e76616ca365627a7a72315820a1feb2df8dd2cbc2800aa27be5d4ab63580677acad909653c480c7831d7943806c6578706572696d656e74616cf564736f6c63430005100040","opcodes":"PUSH1 0x80 PUSH1 0x40 MSTORE CALLVALUE DUP1 ISZERO PUSH2 0x10 JUMPI PUSH1 0x0 DUP1 REVERT JUMPDEST POP PUSH2 0x494D DUP1 PUSH2 0x20 PUSH1 0x0 CODECOPY PUSH1 0x0 RETURN INVALID PUSH1 0x80 PUSH1 0x40 MSTORE PUSH1 0x4 CALLDATASIZE LT PUSH2 0x272 JUMPI PUSH1 0x0 CALLDATALOAD PUSH1 0xE0 SHR DUP1 PUSH4 0x5C60DA1B GT PUSH2 0x14F JUMPI DUP1 PUSH4 0xD33219B4 GT PUSH2 0xC1 JUMPI DUP1 PUSH4 0xE48083FE GT PUSH2 0x7A JUMPI DUP1 PUSH4 0xE48083FE EQ PUSH2 0x712 JUMPI DUP1 PUSH4 0xE9C714F2 EQ PUSH2 0x727 JUMPI DUP1 PUSH4 0xF851A440 EQ PUSH2 0x73C JUMPI DUP1 PUSH4 0xF9D28B80 EQ PUSH2 0x751 JUMPI DUP1 PUSH4 0xFC4EEE42 EQ PUSH2 0x771 JUMPI DUP1 PUSH4 0xFE0D94C1 EQ PUSH2 0x786 JUMPI PUSH2 0x272 JUMP JUMPDEST DUP1 PUSH4 0xD33219B4 EQ PUSH2 0x666 JUMPI DUP1 PUSH4 0xDA35C664 EQ PUSH2 0x67B JUMPI DUP1 PUSH4 0xDA95691A EQ PUSH2 0x690 JUMPI DUP1 PUSH4 0xDDF0B009 EQ PUSH2 0x6B0 JUMPI DUP1 PUSH4 0xDEAAA7CC EQ PUSH2 0x6D0 JUMPI DUP1 PUSH4 0xE23A9A52 EQ PUSH2 0x6E5 JUMPI PUSH2 0x272 JUMP JUMPDEST DUP1 PUSH4 0xA64E024A GT PUSH2 0x113 JUMPI DUP1 PUSH4 0xA64E024A EQ PUSH2 0x5D2 JUMPI DUP1 PUSH4 0xB1126263 EQ PUSH2 0x5E7 JUMPI DUP1 PUSH4 0xB58131B0 EQ PUSH2 0x5FC JUMPI DUP1 PUSH4 0xB71D1A0C EQ PUSH2 0x611 JUMPI DUP1 PUSH4 0xC5A8425D EQ PUSH2 0x631 JUMPI DUP1 PUSH4 0xD13F90B4 EQ PUSH2 0x646 JUMPI PUSH2 0x272 JUMP JUMPDEST DUP1 PUSH4 0x5C60DA1B EQ PUSH2 0x553 JUMPI DUP1 PUSH4 0x791F5D23 EQ PUSH2 0x568 JUMPI DUP1 PUSH4 0x7B3C71D3 EQ PUSH2 0x57D JUMPI DUP1 PUSH4 0x7BDBE4D0 EQ PUSH2 0x59D JUMPI DUP1 PUSH4 0x99533365 EQ PUSH2 0x5B2 JUMPI PUSH2 0x272 JUMP JUMPDEST DUP1 PUSH4 0x25FD935A GT PUSH2 0x1E8 JUMPI DUP1 PUSH4 0x3AF32ABF GT PUSH2 0x1AC JUMPI DUP1 PUSH4 0x3AF32ABF EQ PUSH2 0x479 JUMPI DUP1 PUSH4 0x3BCCF4FD EQ PUSH2 0x4A6 JUMPI DUP1 PUSH4 0x3E4F49E6 EQ PUSH2 0x4C6 JUMPI DUP1 PUSH4 0x40E58EE5 EQ PUSH2 0x4F3 JUMPI DUP1 PUSH4 0x4D6733D2 EQ PUSH2 0x513 JUMPI DUP1 PUSH4 0x56781388 EQ PUSH2 0x533 JUMPI PUSH2 0x272 JUMP JUMPDEST DUP1 PUSH4 0x25FD935A EQ PUSH2 0x3DD JUMPI DUP1 PUSH4 0x26782247 EQ PUSH2 0x3F2 JUMPI DUP1 PUSH4 0x328DD982 EQ PUSH2 0x414 JUMPI DUP1 PUSH4 0x38BD0DDA EQ PUSH2 0x444 JUMPI DUP1 PUSH4 0x3932ABB1 EQ PUSH2 0x464 JUMPI PUSH2 0x272 JUMP JUMPDEST DUP1 PUSH4 0x17977C61 GT PUSH2 0x23A JUMPI DUP1 PUSH4 0x17977C61 EQ PUSH2 0x33E JUMPI DUP1 PUSH4 0x17BA1B8B EQ PUSH2 0x35E JUMPI DUP1 PUSH4 0x1DFB1B5A EQ PUSH2 0x37E JUMPI DUP1 PUSH4 0x20606B70 EQ PUSH2 0x39E JUMPI DUP1 PUSH4 0x215809CA EQ PUSH2 0x3B3 JUMPI DUP1 PUSH4 0x24BC1A64 EQ PUSH2 0x3C8 JUMPI PUSH2 0x272 JUMP JUMPDEST DUP1 PUSH4 0x13CF08B EQ PUSH2 0x277 JUMPI DUP1 PUSH4 0x2A251A3 EQ PUSH2 0x2B6 JUMPI DUP1 PUSH4 0x6FDDE03 EQ PUSH2 0x2D8 JUMPI DUP1 PUSH4 0xEA2D98C EQ PUSH2 0x2FA JUMPI DUP1 PUSH4 0x109D0AF8 EQ PUSH2 0x31C JUMPI JUMPDEST PUSH1 0x0 DUP1 REVERT JUMPDEST CALLVALUE DUP1 ISZERO PUSH2 0x283 JUMPI PUSH1 0x0 DUP1 REVERT JUMPDEST POP PUSH2 0x297 PUSH2 0x292 CALLDATASIZE PUSH1 0x4 PUSH2 0x2ECB JUMP JUMPDEST PUSH2 0x799 JUMP JUMPDEST PUSH1 0x40 MLOAD PUSH2 0x2AD SWAP11 SWAP10 SWAP9 SWAP8 SWAP7 SWAP6 SWAP5 SWAP4 SWAP3 SWAP2 SWAP1 PUSH2 0x4664 JUMP JUMPDEST PUSH1 0x40 MLOAD DUP1 SWAP2 SUB SWAP1 RETURN JUMPDEST CALLVALUE DUP1 ISZERO PUSH2 0x2C2 JUMPI PUSH1 0x0 DUP1 REVERT JUMPDEST POP PUSH2 0x2CB PUSH2 0x7FC JUMP JUMPDEST PUSH1 0x40 MLOAD PUSH2 0x2AD SWAP2 SWAP1 PUSH2 0x4271 JUMP JUMPDEST CALLVALUE DUP1 ISZERO PUSH2 0x2E4 JUMPI PUSH1 0x0 DUP1 REVERT JUMPDEST POP PUSH2 0x2ED PUSH2 0x802 JUMP JUMPDEST PUSH1 0x40 MLOAD PUSH2 0x2AD SWAP2 SWAP1 PUSH2 0x432D JUMP JUMPDEST CALLVALUE DUP1 ISZERO PUSH2 0x306 JUMPI PUSH1 0x0 DUP1 REVERT JUMPDEST POP PUSH2 0x31A PUSH2 0x315 CALLDATASIZE PUSH1 0x4 PUSH2 0x2ECB JUMP JUMPDEST PUSH2 0x835 JUMP JUMPDEST STOP JUMPDEST CALLVALUE DUP1 ISZERO PUSH2 0x328 JUMPI PUSH1 0x0 DUP1 REVERT JUMPDEST POP PUSH2 0x331 PUSH2 0x8DF JUMP JUMPDEST PUSH1 0x40 MLOAD PUSH2 0x2AD SWAP2 SWAP1 PUSH2 0x4311 JUMP JUMPDEST CALLVALUE DUP1 ISZERO PUSH2 0x34A JUMPI PUSH1 0x0 DUP1 REVERT JUMPDEST POP PUSH2 0x2CB PUSH2 0x359 CALLDATASIZE PUSH1 0x4 PUSH2 0x2CA6 JUMP JUMPDEST PUSH2 0x8EE JUMP JUMPDEST CALLVALUE DUP1 ISZERO PUSH2 0x36A JUMPI PUSH1 0x0 DUP1 REVERT JUMPDEST POP PUSH2 0x31A PUSH2 0x379 CALLDATASIZE PUSH1 0x4 PUSH2 0x2ECB JUMP JUMPDEST PUSH2 0x900 JUMP JUMPDEST CALLVALUE DUP1 ISZERO PUSH2 0x38A JUMPI PUSH1 0x0 DUP1 REVERT JUMPDEST POP PUSH2 0x31A PUSH2 0x399 CALLDATASIZE PUSH1 0x4 PUSH2 0x2ECB JUMP JUMPDEST PUSH2 0x9A4 JUMP JUMPDEST CALLVALUE DUP1 ISZERO PUSH2 0x3AA JUMPI PUSH1 0x0 DUP1 REVERT JUMPDEST POP PUSH2 0x2CB PUSH2 0xA37 JUMP JUMPDEST CALLVALUE DUP1 ISZERO PUSH2 0x3BF JUMPI PUSH1 0x0 DUP1 REVERT JUMPDEST POP PUSH2 0x2CB PUSH2 0xA4E JUMP JUMPDEST CALLVALUE DUP1 ISZERO PUSH2 0x3D4 JUMPI PUSH1 0x0 DUP1 REVERT JUMPDEST POP PUSH2 0x2CB PUSH2 0xA54 JUMP JUMPDEST CALLVALUE DUP1 ISZERO PUSH2 0x3E9 JUMPI PUSH1 0x0 DUP1 REVERT JUMPDEST POP PUSH2 0x2CB PUSH2 0xA62 JUMP JUMPDEST CALLVALUE DUP1 ISZERO PUSH2 0x3FE JUMPI PUSH1 0x0 DUP1 REVERT JUMPDEST POP PUSH2 0x407 PUSH2 0xA70 JUMP JUMPDEST PUSH1 0x40 MLOAD PUSH2 0x2AD SWAP2 SWAP1 PUSH2 0x4129 JUMP JUMPDEST CALLVALUE DUP1 ISZERO PUSH2 0x420 JUMPI PUSH1 0x0 DUP1 REVERT JUMPDEST POP PUSH2 0x434 PUSH2 0x42F CALLDATASIZE PUSH1 0x4 PUSH2 0x2ECB JUMP JUMPDEST PUSH2 0xA7F JUMP JUMPDEST PUSH1 0x40 MLOAD PUSH2 0x2AD SWAP5 SWAP4 SWAP3 SWAP2 SWAP1 PUSH2 0x4216 JUMP JUMPDEST CALLVALUE DUP1 ISZERO PUSH2 0x450 JUMPI PUSH1 0x0 DUP1 REVERT JUMPDEST POP PUSH2 0x2CB PUSH2 0x45F CALLDATASIZE PUSH1 0x4 PUSH2 0x2CA6 JUMP JUMPDEST PUSH2 0xD0E JUMP JUMPDEST CALLVALUE DUP1 ISZERO PUSH2 0x470 JUMPI PUSH1 0x0 DUP1 REVERT JUMPDEST POP PUSH2 0x2CB PUSH2 0xD20 JUMP JUMPDEST CALLVALUE DUP1 ISZERO PUSH2 0x485 JUMPI PUSH1 0x0 DUP1 REVERT JUMPDEST POP PUSH2 0x499 PUSH2 0x494 CALLDATASIZE PUSH1 0x4 PUSH2 0x2CA6 JUMP JUMPDEST PUSH2 0xD26 JUMP JUMPDEST PUSH1 0x40 MLOAD PUSH2 0x2AD SWAP2 SWAP1 PUSH2 0x4263 JUMP JUMPDEST CALLVALUE DUP1 ISZERO PUSH2 0x4B2 JUMPI PUSH1 0x0 DUP1 REVERT JUMPDEST POP PUSH2 0x31A PUSH2 0x4C1 CALLDATASIZE PUSH1 0x4 PUSH2 0x2FB1 JUMP JUMPDEST PUSH2 0xD47 JUMP JUMPDEST CALLVALUE DUP1 ISZERO PUSH2 0x4D2 JUMPI PUSH1 0x0 DUP1 REVERT JUMPDEST POP PUSH2 0x4E6 PUSH2 0x4E1 CALLDATASIZE PUSH1 0x4 PUSH2 0x2ECB JUMP JUMPDEST PUSH2 0xF22 JUMP JUMPDEST PUSH1 0x40 MLOAD PUSH2 0x2AD SWAP2 SWAP1 PUSH2 0x431F JUMP JUMPDEST CALLVALUE DUP1 ISZERO PUSH2 0x4FF JUMPI PUSH1 0x0 DUP1 REVERT JUMPDEST POP PUSH2 0x31A PUSH2 0x50E CALLDATASIZE PUSH1 0x4 PUSH2 0x2ECB JUMP JUMPDEST PUSH2 0x10A7 JUMP JUMPDEST CALLVALUE DUP1 ISZERO PUSH2 0x51F JUMPI PUSH1 0x0 DUP1 REVERT JUMPDEST POP PUSH2 0x31A PUSH2 0x52E CALLDATASIZE PUSH1 0x4 PUSH2 0x2D41 JUMP JUMPDEST PUSH2 0x13EE JUMP JUMPDEST CALLVALUE DUP1 ISZERO PUSH2 0x53F JUMPI PUSH1 0x0 DUP1 REVERT JUMPDEST POP PUSH2 0x31A PUSH2 0x54E CALLDATASIZE PUSH1 0x4 PUSH2 0x2F19 JUMP JUMPDEST PUSH2 0x147A JUMP JUMPDEST CALLVALUE DUP1 ISZERO PUSH2 0x55F JUMPI PUSH1 0x0 DUP1 REVERT JUMPDEST POP PUSH2 0x407 PUSH2 0x14C4 JUMP JUMPDEST CALLVALUE DUP1 ISZERO PUSH2 0x574 JUMPI PUSH1 0x0 DUP1 REVERT JUMPDEST POP PUSH2 0x2CB PUSH2 0x14D3 JUMP JUMPDEST CALLVALUE DUP1 ISZERO PUSH2 0x589 JUMPI PUSH1 0x0 DUP1 REVERT JUMPDEST POP PUSH2 0x31A PUSH2 0x598 CALLDATASIZE PUSH1 0x4 PUSH2 0x2F49 JUMP JUMPDEST PUSH2 0x14E1 JUMP JUMPDEST CALLVALUE DUP1 ISZERO PUSH2 0x5A9 JUMPI PUSH1 0x0 DUP1 REVERT JUMPDEST POP PUSH2 0x2CB PUSH2 0x1531 JUMP JUMPDEST CALLVALUE DUP1 ISZERO PUSH2 0x5BE JUMPI PUSH1 0x0 DUP1 REVERT JUMPDEST POP PUSH2 0x31A PUSH2 0x5CD CALLDATASIZE PUSH1 0x4 PUSH2 0x2CA6 JUMP JUMPDEST PUSH2 0x1536 JUMP JUMPDEST CALLVALUE DUP1 ISZERO PUSH2 0x5DE JUMPI PUSH1 0x0 DUP1 REVERT JUMPDEST POP PUSH2 0x2CB PUSH2 0x15B5 JUMP JUMPDEST CALLVALUE DUP1 ISZERO PUSH2 0x5F3 JUMPI PUSH1 0x0 DUP1 REVERT JUMPDEST POP PUSH2 0x2CB PUSH2 0x15BC JUMP JUMPDEST CALLVALUE DUP1 ISZERO PUSH2 0x608 JUMPI PUSH1 0x0 DUP1 REVERT JUMPDEST POP PUSH2 0x2CB PUSH2 0x15C2 JUMP JUMPDEST CALLVALUE DUP1 ISZERO PUSH2 0x61D JUMPI PUSH1 0x0 DUP1 REVERT JUMPDEST POP PUSH2 0x31A PUSH2 0x62C CALLDATASIZE PUSH1 0x4 PUSH2 0x2CA6 JUMP JUMPDEST PUSH2 0x15C8 JUMP JUMPDEST CALLVALUE DUP1 ISZERO PUSH2 0x63D JUMPI PUSH1 0x0 DUP1 REVERT JUMPDEST POP PUSH2 0x407 PUSH2 0x1645 JUMP JUMPDEST CALLVALUE DUP1 ISZERO PUSH2 0x652 JUMPI PUSH1 0x0 DUP1 REVERT JUMPDEST POP PUSH2 0x31A PUSH2 0x661 CALLDATASIZE PUSH1 0x4 PUSH2 0x2CCC JUMP JUMPDEST PUSH2 0x1654 JUMP JUMPDEST CALLVALUE DUP1 ISZERO PUSH2 0x672 JUMPI PUSH1 0x0 DUP1 REVERT JUMPDEST POP PUSH2 0x331 PUSH2 0x17D1 JUMP JUMPDEST CALLVALUE DUP1 ISZERO PUSH2 0x687 JUMPI PUSH1 0x0 DUP1 REVERT JUMPDEST POP PUSH2 0x2CB PUSH2 0x17E0 JUMP JUMPDEST CALLVALUE DUP1 ISZERO PUSH2 0x69C JUMPI PUSH1 0x0 DUP1 REVERT JUMPDEST POP PUSH2 0x2CB PUSH2 0x6AB CALLDATASIZE PUSH1 0x4 PUSH2 0x2D7B JUMP JUMPDEST PUSH2 0x17E6 JUMP JUMPDEST CALLVALUE DUP1 ISZERO PUSH2 0x6BC JUMPI PUSH1 0x0 DUP1 REVERT JUMPDEST POP PUSH2 0x31A PUSH2 0x6CB CALLDATASIZE PUSH1 0x4 PUSH2 0x2ECB JUMP JUMPDEST PUSH2 0x1C3D JUMP JUMPDEST CALLVALUE DUP1 ISZERO PUSH2 0x6DC JUMPI PUSH1 0x0 DUP1 REVERT JUMPDEST POP PUSH2 0x2CB PUSH2 0x1EB9 JUMP JUMPDEST CALLVALUE DUP1 ISZERO PUSH2 0x6F1 JUMPI PUSH1 0x0 DUP1 REVERT JUMPDEST POP PUSH2 0x705 PUSH2 0x700 CALLDATASIZE PUSH1 0x4 PUSH2 0x2EE9 JUMP JUMPDEST PUSH2 0x1EC5 JUMP JUMPDEST PUSH1 0x40 MLOAD PUSH2 0x2AD SWAP2 SWAP1 PUSH2 0x45AE JUMP JUMPDEST CALLVALUE DUP1 ISZERO PUSH2 0x71E JUMPI PUSH1 0x0 DUP1 REVERT JUMPDEST POP PUSH2 0x2CB PUSH2 0x1F32 JUMP JUMPDEST CALLVALUE DUP1 ISZERO PUSH2 0x733 JUMPI PUSH1 0x0 DUP1 REVERT JUMPDEST POP PUSH2 0x31A PUSH2 0x1F37 JUMP JUMPDEST CALLVALUE DUP1 ISZERO PUSH2 0x748 JUMPI PUSH1 0x0 DUP1 REVERT JUMPDEST POP PUSH2 0x407 PUSH2 0x2015 JUMP JUMPDEST CALLVALUE DUP1 ISZERO PUSH2 0x75D JUMPI PUSH1 0x0 DUP1 REVERT JUMPDEST POP PUSH2 0x31A PUSH2 0x76C CALLDATASIZE PUSH1 0x4 PUSH2 0x2CA6 JUMP JUMPDEST PUSH2 0x2024 JUMP JUMPDEST CALLVALUE DUP1 ISZERO PUSH2 0x77D JUMPI PUSH1 0x0 DUP1 REVERT JUMPDEST POP PUSH2 0x2CB PUSH2 0x214A JUMP JUMPDEST PUSH2 0x31A PUSH2 0x794 CALLDATASIZE PUSH1 0x4 PUSH2 0x2ECB JUMP JUMPDEST PUSH2 0x2150 JUMP JUMPDEST PUSH1 0xA PUSH1 0x20 DUP2 SWAP1 MSTORE PUSH1 0x0 SWAP2 DUP3 MSTORE PUSH1 0x40 SWAP1 SWAP2 KECCAK256 DUP1 SLOAD PUSH1 0x1 DUP3 ADD SLOAD PUSH1 0x2 DUP4 ADD SLOAD PUSH1 0x7 DUP5 ADD SLOAD PUSH1 0x8 DUP6 ADD SLOAD PUSH1 0x9 DUP7 ADD SLOAD SWAP7 DUP7 ADD SLOAD PUSH1 0xB DUP8 ADD SLOAD PUSH1 0xC SWAP1 SWAP8 ADD SLOAD SWAP6 SWAP8 PUSH1 0x1 PUSH1 0x1 PUSH1 0xA0 SHL SUB SWAP1 SWAP6 AND SWAP7 SWAP4 SWAP6 SWAP3 SWAP5 SWAP2 SWAP4 SWAP2 SWAP3 SWAP1 SWAP2 SWAP1 PUSH1 0xFF DUP1 DUP3 AND SWAP2 PUSH2 0x100 SWAP1 DIV AND DUP11 JUMP JUMPDEST PUSH1 0x4 SLOAD DUP2 JUMP JUMPDEST PUSH1 0x40 MLOAD DUP1 PUSH1 0x40 ADD PUSH1 0x40 MSTORE DUP1 PUSH1 0x17 DUP2 MSTORE PUSH1 0x20 ADD PUSH23 0x436F6D706F756E6420476F7665726E6F7220427261766F PUSH1 0x48 SHL DUP2 MSTORE POP DUP2 JUMP JUMPDEST PUSH1 0x0 SLOAD PUSH1 0x1 PUSH1 0x1 PUSH1 0xA0 SHL SUB AND CALLER EQ PUSH2 0x868 JUMPI PUSH1 0x40 MLOAD PUSH3 0x461BCD PUSH1 0xE5 SHL DUP2 MSTORE PUSH1 0x4 ADD PUSH2 0x85F SWAP1 PUSH2 0x437E JUMP JUMPDEST PUSH1 0x40 MLOAD DUP1 SWAP2 SUB SWAP1 REVERT JUMPDEST PUSH2 0x1680 DUP2 LT ISZERO DUP1 ISZERO PUSH2 0x87D JUMPI POP PUSH3 0x13B00 DUP2 GT ISZERO JUMPDEST PUSH2 0x899 JUMPI PUSH1 0x40 MLOAD PUSH3 0x461BCD PUSH1 0xE5 SHL DUP2 MSTORE PUSH1 0x4 ADD PUSH2 0x85F SWAP1 PUSH2 0x43BE JUMP JUMPDEST PUSH1 0x4 DUP1 SLOAD SWAP1 DUP3 SWAP1 SSTORE PUSH1 0x40 MLOAD PUSH32 0x7E3F7F0708A84DE9203036ABAA450DCCC85AD5FF52F78C170F3EDB55CF5E8828 SWAP1 PUSH2 0x8D3 SWAP1 DUP4 SWAP1 DUP6 SWAP1 PUSH2 0x46EA JUMP JUMPDEST PUSH1 0x40 MLOAD DUP1 SWAP2 SUB SWAP1 LOG1 POP POP JUMP JUMPDEST PUSH1 0x9 SLOAD PUSH1 0x1 PUSH1 0x1 PUSH1 0xA0 SHL SUB AND DUP2 JUMP JUMPDEST PUSH1 0xB PUSH1 0x20 MSTORE PUSH1 0x0 SWAP1 DUP2 MSTORE PUSH1 0x40 SWAP1 KECCAK256 SLOAD DUP2 JUMP JUMPDEST PUSH1 0x0 SLOAD PUSH1 0x1 PUSH1 0x1 PUSH1 0xA0 SHL SUB AND CALLER EQ PUSH2 0x92A JUMPI PUSH1 0x40 MLOAD PUSH3 0x461BCD PUSH1 0xE5 SHL DUP2 MSTORE PUSH1 0x4 ADD PUSH2 0x85F SWAP1 PUSH2 0x455E JUMP JUMPDEST PUSH10 0xA968163F0A57B400000 DUP2 LT ISZERO DUP1 ISZERO PUSH2 0x94E JUMPI POP PUSH10 0x152D02C7E14AF6800000 DUP2 GT ISZERO JUMPDEST PUSH2 0x96A JUMPI PUSH1 0x40 MLOAD PUSH3 0x461BCD PUSH1 0xE5 SHL DUP2 MSTORE PUSH1 0x4 ADD PUSH2 0x85F SWAP1 PUSH2 0x446E JUMP JUMPDEST PUSH1 0x5 DUP1 SLOAD SWAP1 DUP3 SWAP1 SSTORE PUSH1 0x40 MLOAD PUSH32 0xCCB45DA8D5717E6C4544694297C4BA5CF151D455C9BB0ED4FC7A38411BC05461 SWAP1 PUSH2 0x8D3 SWAP1 DUP4 SWAP1 DUP6 SWAP1 PUSH2 0x46EA JUMP JUMPDEST PUSH1 0x0 SLOAD PUSH1 0x1 PUSH1 0x1 PUSH1 0xA0 SHL SUB AND CALLER EQ PUSH2 0x9CE JUMPI PUSH1 0x40 MLOAD PUSH3 0x461BCD PUSH1 0xE5 SHL DUP2 MSTORE PUSH1 0x4 ADD PUSH2 0x85F SWAP1 PUSH2 0x439E JUMP JUMPDEST PUSH1 0x1 DUP2 LT ISZERO DUP1 ISZERO PUSH2 0x9E1 JUMPI POP PUSH2 0x9D80 DUP2 GT ISZERO JUMPDEST PUSH2 0x9FD JUMPI PUSH1 0x40 MLOAD PUSH3 0x461BCD PUSH1 0xE5 SHL DUP2 MSTORE PUSH1 0x4 ADD PUSH2 0x85F SWAP1 PUSH2 0x43EE JUMP JUMPDEST PUSH1 0x3 DUP1 SLOAD SWAP1 DUP3 SWAP1 SSTORE PUSH1 0x40 MLOAD PUSH32 0xC565B045403DC03C2EEA82B81A0465EDAD9E2E7FC4D97E11421C209DA93D7A93 SWAP1 PUSH2 0x8D3 SWAP1 DUP4 SWAP1 DUP6 SWAP1 PUSH2 0x46EA JUMP JUMPDEST PUSH1 0x40 MLOAD PUSH2 0xA43 SWAP1 PUSH2 0x411E JUMP JUMPDEST PUSH1 0x40 MLOAD DUP1 SWAP2 SUB SWAP1 KECCAK256 DUP2 JUMP JUMPDEST PUSH2 0x1680 DUP2 JUMP JUMPDEST PUSH10 0x54B40B1F852BDA000000 DUP2 JUMP JUMPDEST PUSH10 0x152D02C7E14AF6800000 DUP2 JUMP JUMPDEST PUSH1 0x1 SLOAD PUSH1 0x1 PUSH1 0x1 PUSH1 0xA0 SHL SUB AND DUP2 JUMP JUMPDEST PUSH1 0x60 DUP1 PUSH1 0x60 DUP1 PUSH1 0x0 PUSH1 0xA PUSH1 0x0 DUP8 DUP2 MSTORE PUSH1 0x20 ADD SWAP1 DUP2 MSTORE PUSH1 0x20 ADD PUSH1 0x0 KECCAK256 SWAP1 POP DUP1 PUSH1 0x3 ADD DUP2 PUSH1 0x4 ADD DUP3 PUSH1 0x5 ADD DUP4 PUSH1 0x6 ADD DUP4 DUP1 SLOAD DUP1 PUSH1 0x20 MUL PUSH1 0x20 ADD PUSH1 0x40 MLOAD SWAP1 DUP2 ADD PUSH1 0x40 MSTORE DUP1 SWAP3 SWAP2 SWAP1 DUP2 DUP2 MSTORE PUSH1 0x20 ADD DUP3 DUP1 SLOAD DUP1 ISZERO PUSH2 0xB01 JUMPI PUSH1 0x20 MUL DUP3 ADD SWAP2 SWAP1 PUSH1 0x0 MSTORE PUSH1 0x20 PUSH1 0x0 KECCAK256 SWAP1 JUMPDEST DUP2 SLOAD PUSH1 0x1 PUSH1 0x1 PUSH1 0xA0 SHL SUB AND DUP2 MSTORE PUSH1 0x1 SWAP1 SWAP2 ADD SWAP1 PUSH1 0x20 ADD DUP1 DUP4 GT PUSH2 0xAE3 JUMPI JUMPDEST POP POP POP POP POP SWAP4 POP DUP3 DUP1 SLOAD DUP1 PUSH1 0x20 MUL PUSH1 0x20 ADD PUSH1 0x40 MLOAD SWAP1 DUP2 ADD PUSH1 0x40 MSTORE DUP1 SWAP3 SWAP2 SWAP1 DUP2 DUP2 MSTORE PUSH1 0x20 ADD DUP3 DUP1 SLOAD DUP1 ISZERO PUSH2 0xB53 JUMPI PUSH1 0x20 MUL DUP3 ADD SWAP2 SWAP1 PUSH1 0x0 MSTORE PUSH1 0x20 PUSH1 0x0 KECCAK256 SWAP1 JUMPDEST DUP2 SLOAD DUP2 MSTORE PUSH1 0x20 ADD SWAP1 PUSH1 0x1 ADD SWAP1 DUP1 DUP4 GT PUSH2 0xB3F JUMPI JUMPDEST POP POP POP POP POP SWAP3 POP DUP2 DUP1 SLOAD DUP1 PUSH1 0x20 MUL PUSH1 0x20 ADD PUSH1 0x40 MLOAD SWAP1 DUP2 ADD PUSH1 0x40 MSTORE DUP1 SWAP3 SWAP2 SWAP1 DUP2 DUP2 MSTORE PUSH1 0x20 ADD PUSH1 0x0 SWAP1 JUMPDEST DUP3 DUP3 LT ISZERO PUSH2 0xC26 JUMPI PUSH1 0x0 DUP5 DUP2 MSTORE PUSH1 0x20 SWAP1 DUP2 SWAP1 KECCAK256 DUP4 ADD DUP1 SLOAD PUSH1 0x40 DUP1 MLOAD PUSH1 0x1F PUSH1 0x2 PUSH1 0x0 NOT PUSH2 0x100 PUSH1 0x1 DUP8 AND ISZERO MUL ADD SWAP1 SWAP5 AND SWAP4 SWAP1 SWAP4 DIV SWAP3 DUP4 ADD DUP6 SWAP1 DIV DUP6 MUL DUP2 ADD DUP6 ADD SWAP1 SWAP2 MSTORE DUP2 DUP2 MSTORE SWAP3 DUP4 ADD DUP3 DUP3 DUP1 ISZERO PUSH2 0xC12 JUMPI DUP1 PUSH1 0x1F LT PUSH2 0xBE7 JUMPI PUSH2 0x100 DUP1 DUP4 SLOAD DIV MUL DUP4 MSTORE SWAP2 PUSH1 0x20 ADD SWAP2 PUSH2 0xC12 JUMP JUMPDEST DUP3 ADD SWAP2 SWAP1 PUSH1 0x0 MSTORE PUSH1 0x20 PUSH1 0x0 KECCAK256 SWAP1 JUMPDEST DUP2 SLOAD DUP2 MSTORE SWAP1 PUSH1 0x1 ADD SWAP1 PUSH1 0x20 ADD DUP1 DUP4 GT PUSH2 0xBF5 JUMPI DUP3 SWAP1 SUB PUSH1 0x1F AND DUP3 ADD SWAP2 JUMPDEST POP POP POP POP POP DUP2 MSTORE PUSH1 0x20 ADD SWAP1 PUSH1 0x1 ADD SWAP1 PUSH2 0xB7B JUMP JUMPDEST POP POP POP POP SWAP2 POP DUP1 DUP1 SLOAD DUP1 PUSH1 0x20 MUL PUSH1 0x20 ADD PUSH1 0x40 MLOAD SWAP1 DUP2 ADD PUSH1 0x40 MSTORE DUP1 SWAP3 SWAP2 SWAP1 DUP2 DUP2 MSTORE PUSH1 0x20 ADD PUSH1 0x0 SWAP1 JUMPDEST DUP3 DUP3 LT ISZERO PUSH2 0xCF8 JUMPI PUSH1 0x0 DUP5 DUP2 MSTORE PUSH1 0x20 SWAP1 DUP2 SWAP1 KECCAK256 DUP4 ADD DUP1 SLOAD PUSH1 0x40 DUP1 MLOAD PUSH1 0x1F PUSH1 0x2 PUSH1 0x0 NOT PUSH2 0x100 PUSH1 0x1 DUP8 AND ISZERO MUL ADD SWAP1 SWAP5 AND SWAP4 SWAP1 SWAP4 DIV SWAP3 DUP4 ADD DUP6 SWAP1 DIV DUP6 MUL DUP2 ADD DUP6 ADD SWAP1 SWAP2 MSTORE DUP2 DUP2 MSTORE SWAP3 DUP4 ADD DUP3 DUP3 DUP1 ISZERO PUSH2 0xCE4 JUMPI DUP1 PUSH1 0x1F LT PUSH2 0xCB9 JUMPI PUSH2 0x100 DUP1 DUP4 SLOAD DIV MUL DUP4 MSTORE SWAP2 PUSH1 0x20 ADD SWAP2 PUSH2 0xCE4 JUMP JUMPDEST DUP3 ADD SWAP2 SWAP1 PUSH1 0x0 MSTORE PUSH1 0x20 PUSH1 0x0 KECCAK256 SWAP1 JUMPDEST DUP2 SLOAD DUP2 MSTORE SWAP1 PUSH1 0x1 ADD SWAP1 PUSH1 0x20 ADD DUP1 DUP4 GT PUSH2 0xCC7 JUMPI DUP3 SWAP1 SUB PUSH1 0x1F AND DUP3 ADD SWAP2 JUMPDEST POP POP POP POP POP DUP2 MSTORE PUSH1 0x20 ADD SWAP1 PUSH1 0x1 ADD SWAP1 PUSH2 0xC4D JUMP JUMPDEST POP POP POP POP SWAP1 POP SWAP5 POP SWAP5 POP SWAP5 POP SWAP5 POP POP SWAP2 SWAP4 POP SWAP2 SWAP4 JUMP JUMPDEST PUSH1 0xC PUSH1 0x20 MSTORE PUSH1 0x0 SWAP1 DUP2 MSTORE PUSH1 0x40 SWAP1 KECCAK256 SLOAD DUP2 JUMP JUMPDEST PUSH1 0x3 SLOAD DUP2 JUMP JUMPDEST PUSH1 0x1 PUSH1 0x1 PUSH1 0xA0 SHL SUB DUP2 AND PUSH1 0x0 SWAP1 DUP2 MSTORE PUSH1 0xC PUSH1 0x20 MSTORE PUSH1 0x40 SWAP1 KECCAK256 SLOAD TIMESTAMP LT JUMPDEST SWAP2 SWAP1 POP JUMP JUMPDEST PUSH1 0x0 PUSH1 0x40 MLOAD PUSH2 0xD55 SWAP1 PUSH2 0x411E JUMP JUMPDEST PUSH1 0x40 DUP1 MLOAD SWAP2 DUP3 SWAP1 SUB DUP3 KECCAK256 DUP3 DUP3 ADD SWAP1 SWAP2 MSTORE PUSH1 0x17 DUP3 MSTORE PUSH23 0x436F6D706F756E6420476F7665726E6F7220427261766F PUSH1 0x48 SHL PUSH1 0x20 SWAP1 SWAP3 ADD SWAP2 SWAP1 SWAP2 MSTORE PUSH32 0x3D9E905142FF365FB68CE863F26A44F5583CF7EC11BCDE450555F50B7E1B5614 PUSH2 0xDB6 PUSH2 0x2309 JUMP JUMPDEST ADDRESS PUSH1 0x40 MLOAD PUSH1 0x20 ADD PUSH2 0xDCA SWAP5 SWAP4 SWAP3 SWAP2 SWAP1 PUSH2 0x427F JUMP JUMPDEST PUSH1 0x40 MLOAD PUSH1 0x20 DUP2 DUP4 SUB SUB DUP2 MSTORE SWAP1 PUSH1 0x40 MSTORE DUP1 MLOAD SWAP1 PUSH1 0x20 ADD KECCAK256 SWAP1 POP PUSH1 0x0 PUSH1 0x40 MLOAD PUSH2 0xDF0 SWAP1 PUSH2 0x40E2 JUMP JUMPDEST PUSH1 0x40 MLOAD SWAP1 DUP2 SWAP1 SUB DUP2 KECCAK256 PUSH2 0xE09 SWAP2 DUP10 SWAP1 DUP10 SWAP1 PUSH1 0x20 ADD PUSH2 0x42B4 JUMP JUMPDEST PUSH1 0x40 MLOAD PUSH1 0x20 DUP2 DUP4 SUB SUB DUP2 MSTORE SWAP1 PUSH1 0x40 MSTORE DUP1 MLOAD SWAP1 PUSH1 0x20 ADD KECCAK256 SWAP1 POP PUSH1 0x0 DUP3 DUP3 PUSH1 0x40 MLOAD PUSH1 0x20 ADD PUSH2 0xE36 SWAP3 SWAP2 SWAP1 PUSH2 0x40ED JUMP JUMPDEST PUSH1 0x40 MLOAD PUSH1 0x20 DUP2 DUP4 SUB SUB DUP2 MSTORE SWAP1 PUSH1 0x40 MSTORE DUP1 MLOAD SWAP1 PUSH1 0x20 ADD KECCAK256 SWAP1 POP PUSH1 0x0 PUSH1 0x1 DUP3 DUP9 DUP9 DUP9 PUSH1 0x40 MLOAD PUSH1 0x0 DUP2 MSTORE PUSH1 0x20 ADD PUSH1 0x40 MSTORE PUSH1 0x40 MLOAD PUSH2 0xE73 SWAP5 SWAP4 SWAP3 SWAP2 SWAP1 PUSH2 0x42DC JUMP JUMPDEST PUSH1 0x20 PUSH1 0x40 MLOAD PUSH1 0x20 DUP2 SUB SWAP1 DUP1 DUP5 SUB SWAP1 DUP6 GAS STATICCALL ISZERO DUP1 ISZERO PUSH2 0xE95 JUMPI RETURNDATASIZE PUSH1 0x0 DUP1 RETURNDATACOPY RETURNDATASIZE PUSH1 0x0 REVERT JUMPDEST POP POP PUSH1 0x40 MLOAD PUSH1 0x1F NOT ADD MLOAD SWAP2 POP POP PUSH1 0x1 PUSH1 0x1 PUSH1 0xA0 SHL SUB DUP2 AND PUSH2 0xEC8 JUMPI PUSH1 0x40 MLOAD PUSH3 0x461BCD PUSH1 0xE5 SHL DUP2 MSTORE PUSH1 0x4 ADD PUSH2 0x85F SWAP1 PUSH2 0x441E JUMP JUMPDEST DUP1 PUSH1 0x1 PUSH1 0x1 PUSH1 0xA0 SHL SUB AND PUSH32 0xB8E138887D0AA13BAB447E82DE9D5C1777041ECD21CA36BA824FF1E6C07DDDA4 DUP11 DUP11 PUSH2 0xF00 DUP6 DUP15 DUP15 PUSH2 0x230E JUMP JUMPDEST PUSH1 0x40 MLOAD PUSH2 0xF0F SWAP4 SWAP3 SWAP2 SWAP1 PUSH2 0x473E JUMP JUMPDEST PUSH1 0x40 MLOAD DUP1 SWAP2 SUB SWAP1 LOG2 POP POP POP POP POP POP POP POP POP JUMP JUMPDEST PUSH1 0x0 DUP2 PUSH1 0x7 SLOAD LT ISZERO DUP1 ISZERO PUSH2 0xF37 JUMPI POP PUSH1 0x6 SLOAD DUP3 GT JUMPDEST PUSH2 0xF53 JUMPI PUSH1 0x40 MLOAD PUSH3 0x461BCD PUSH1 0xE5 SHL DUP2 MSTORE PUSH1 0x4 ADD PUSH2 0x85F SWAP1 PUSH2 0x456E JUMP JUMPDEST PUSH1 0x0 DUP3 DUP2 MSTORE PUSH1 0xA PUSH1 0x20 MSTORE PUSH1 0x40 SWAP1 KECCAK256 PUSH1 0xC DUP2 ADD SLOAD PUSH1 0xFF AND ISZERO PUSH2 0xF78 JUMPI PUSH1 0x2 SWAP2 POP POP PUSH2 0xD42 JUMP JUMPDEST DUP1 PUSH1 0x7 ADD SLOAD NUMBER GT PUSH2 0xF8D JUMPI PUSH1 0x0 SWAP2 POP POP PUSH2 0xD42 JUMP JUMPDEST DUP1 PUSH1 0x8 ADD SLOAD NUMBER GT PUSH2 0xFA2 JUMPI PUSH1 0x1 SWAP2 POP POP PUSH2 0xD42 JUMP JUMPDEST DUP1 PUSH1 0xA ADD SLOAD DUP2 PUSH1 0x9 ADD SLOAD GT ISZERO DUP1 PUSH2 0xFC6 JUMPI POP PUSH10 0x54B40B1F852BDA000000 DUP2 PUSH1 0x9 ADD SLOAD LT JUMPDEST ISZERO PUSH2 0xFD5 JUMPI PUSH1 0x3 SWAP2 POP POP PUSH2 0xD42 JUMP JUMPDEST PUSH1 0x2 DUP2 ADD SLOAD PUSH2 0xFE8 JUMPI PUSH1 0x4 SWAP2 POP POP PUSH2 0xD42 JUMP JUMPDEST PUSH1 0xC DUP2 ADD SLOAD PUSH2 0x100 SWAP1 DIV PUSH1 0xFF AND ISZERO PUSH2 0x1004 JUMPI PUSH1 0x7 SWAP2 POP POP PUSH2 0xD42 JUMP JUMPDEST PUSH1 0x2 DUP2 ADD SLOAD PUSH1 0x8 SLOAD PUSH1 0x40 DUP1 MLOAD PUSH4 0x60D143F1 PUSH1 0xE1 SHL DUP2 MSTORE SWAP1 MLOAD PUSH2 0x108D SWAP4 SWAP3 PUSH1 0x1 PUSH1 0x1 PUSH1 0xA0 SHL SUB AND SWAP2 PUSH4 0xC1A287E2 SWAP2 PUSH1 0x4 DUP1 DUP4 ADD SWAP3 PUSH1 0x20 SWAP3 SWAP2 SWAP1 DUP3 SWAP1 SUB ADD DUP2 DUP7 DUP1 EXTCODESIZE ISZERO DUP1 ISZERO PUSH2 0x1050 JUMPI PUSH1 0x0 DUP1 REVERT JUMPDEST POP GAS STATICCALL ISZERO DUP1 ISZERO PUSH2 0x1064 JUMPI RETURNDATASIZE PUSH1 0x0 DUP1 RETURNDATACOPY RETURNDATASIZE PUSH1 0x0 REVERT JUMPDEST POP POP POP POP PUSH1 0x40 MLOAD RETURNDATASIZE PUSH1 0x1F NOT PUSH1 0x1F DUP3 ADD AND DUP3 ADD DUP1 PUSH1 0x40 MSTORE POP PUSH2 0x1088 SWAP2 SWAP1 DUP2 ADD SWAP1 PUSH2 0x2E78 JUMP JUMPDEST PUSH2 0x24FF JUMP JUMPDEST TIMESTAMP LT PUSH2 0x109D JUMPI PUSH1 0x6 SWAP2 POP POP PUSH2 0xD42 JUMP JUMPDEST PUSH1 0x5 SWAP2 POP POP PUSH2 0xD42 JUMP JUMPDEST PUSH1 0x7 PUSH2 0x10B2 DUP3 PUSH2 0xF22 JUMP JUMPDEST PUSH1 0x7 DUP2 GT ISZERO PUSH2 0x10BD JUMPI INVALID JUMPDEST EQ ISZERO PUSH2 0x10DB JUMPI PUSH1 0x40 MLOAD PUSH3 0x461BCD PUSH1 0xE5 SHL DUP2 MSTORE PUSH1 0x4 ADD PUSH2 0x85F SWAP1 PUSH2 0x454E JUMP JUMPDEST PUSH1 0x0 DUP2 DUP2 MSTORE PUSH1 0xA PUSH1 0x20 MSTORE PUSH1 0x40 SWAP1 KECCAK256 PUSH1 0x1 DUP2 ADD SLOAD PUSH1 0x1 PUSH1 0x1 PUSH1 0xA0 SHL SUB AND CALLER EQ PUSH2 0x12B2 JUMPI PUSH1 0x1 DUP2 ADD SLOAD PUSH2 0x1114 SWAP1 PUSH1 0x1 PUSH1 0x1 PUSH1 0xA0 SHL SUB AND PUSH2 0xD26 JUMP JUMPDEST ISZERO PUSH2 0x11F3 JUMPI PUSH1 0x5 SLOAD PUSH1 0x9 SLOAD PUSH1 0x1 DUP4 DUP2 ADD SLOAD PUSH1 0x1 PUSH1 0x1 PUSH1 0xA0 SHL SUB SWAP3 DUP4 AND SWAP3 PUSH4 0x782D6FE1 SWAP3 SWAP2 AND SWAP1 PUSH2 0x1145 SWAP1 NUMBER SWAP1 PUSH2 0x2524 JUMP JUMPDEST PUSH1 0x40 MLOAD DUP4 PUSH4 0xFFFFFFFF AND PUSH1 0xE0 SHL DUP2 MSTORE PUSH1 0x4 ADD PUSH2 0x1162 SWAP3 SWAP2 SWAP1 PUSH2 0x416D JUMP JUMPDEST PUSH1 0x20 PUSH1 0x40 MLOAD DUP1 DUP4 SUB DUP2 DUP7 DUP1 EXTCODESIZE ISZERO DUP1 ISZERO PUSH2 0x117A JUMPI PUSH1 0x0 DUP1 REVERT JUMPDEST POP GAS STATICCALL ISZERO DUP1 ISZERO PUSH2 0x118E JUMPI RETURNDATASIZE PUSH1 0x0 DUP1 RETURNDATACOPY RETURNDATASIZE PUSH1 0x0 REVERT JUMPDEST POP POP POP POP PUSH1 0x40 MLOAD RETURNDATASIZE PUSH1 0x1F NOT PUSH1 0x1F DUP3 ADD AND DUP3 ADD DUP1 PUSH1 0x40 MSTORE POP PUSH2 0x11B2 SWAP2 SWAP1 DUP2 ADD SWAP1 PUSH2 0x2FF7 JUMP JUMPDEST PUSH1 0x1 PUSH1 0x1 PUSH1 0x60 SHL SUB AND LT DUP1 ISZERO PUSH2 0x11D2 JUMPI POP PUSH1 0xD SLOAD PUSH1 0x1 PUSH1 0x1 PUSH1 0xA0 SHL SUB AND CALLER EQ JUMPDEST PUSH2 0x11EE JUMPI PUSH1 0x40 MLOAD PUSH3 0x461BCD PUSH1 0xE5 SHL DUP2 MSTORE PUSH1 0x4 ADD PUSH2 0x85F SWAP1 PUSH2 0x459E JUMP JUMPDEST PUSH2 0x12B2 JUMP JUMPDEST PUSH1 0x5 SLOAD PUSH1 0x9 SLOAD PUSH1 0x1 DUP4 DUP2 ADD SLOAD PUSH1 0x1 PUSH1 0x1 PUSH1 0xA0 SHL SUB SWAP3 DUP4 AND SWAP3 PUSH4 0x782D6FE1 SWAP3 SWAP2 AND SWAP1 PUSH2 0x121F SWAP1 NUMBER SWAP1 PUSH2 0x2524 JUMP JUMPDEST PUSH1 0x40 MLOAD DUP4 PUSH4 0xFFFFFFFF AND PUSH1 0xE0 SHL DUP2 MSTORE PUSH1 0x4 ADD PUSH2 0x123C SWAP3 SWAP2 SWAP1 PUSH2 0x416D JUMP JUMPDEST PUSH1 0x20 PUSH1 0x40 MLOAD DUP1 DUP4 SUB DUP2 DUP7 DUP1 EXTCODESIZE ISZERO DUP1 ISZERO PUSH2 0x1254 JUMPI PUSH1 0x0 DUP1 REVERT JUMPDEST POP GAS STATICCALL ISZERO DUP1 ISZERO PUSH2 0x1268 JUMPI RETURNDATASIZE PUSH1 0x0 DUP1 RETURNDATACOPY RETURNDATASIZE PUSH1 0x0 REVERT JUMPDEST POP POP POP POP PUSH1 0x40 MLOAD RETURNDATASIZE PUSH1 0x1F NOT PUSH1 0x1F DUP3 ADD AND DUP3 ADD DUP1 PUSH1 0x40 MSTORE POP PUSH2 0x128C SWAP2 SWAP1 DUP2 ADD SWAP1 PUSH2 0x2FF7 JUMP JUMPDEST PUSH1 0x1 PUSH1 0x1 PUSH1 0x60 SHL SUB AND LT PUSH2 0x12B2 JUMPI PUSH1 0x40 MLOAD PUSH3 0x461BCD PUSH1 0xE5 SHL DUP2 MSTORE PUSH1 0x4 ADD PUSH2 0x85F SWAP1 PUSH2 0x44DE JUMP JUMPDEST PUSH1 0xC DUP2 ADD DUP1 SLOAD PUSH1 0xFF NOT AND PUSH1 0x1 OR SWAP1 SSTORE PUSH1 0x0 JUMPDEST PUSH1 0x3 DUP3 ADD SLOAD DUP2 LT ISZERO PUSH2 0x13BE JUMPI PUSH1 0x8 SLOAD PUSH1 0x3 DUP4 ADD DUP1 SLOAD PUSH1 0x1 PUSH1 0x1 PUSH1 0xA0 SHL SUB SWAP1 SWAP3 AND SWAP2 PUSH4 0x591FCDFE SWAP2 SWAP1 DUP5 SWAP1 DUP2 LT PUSH2 0x12F6 JUMPI INVALID JUMPDEST PUSH1 0x0 SWAP2 DUP3 MSTORE PUSH1 0x20 SWAP1 SWAP2 KECCAK256 ADD SLOAD PUSH1 0x4 DUP6 ADD DUP1 SLOAD PUSH1 0x1 PUSH1 0x1 PUSH1 0xA0 SHL SUB SWAP1 SWAP3 AND SWAP2 DUP6 SWAP1 DUP2 LT PUSH2 0x131E JUMPI INVALID JUMPDEST SWAP1 PUSH1 0x0 MSTORE PUSH1 0x20 PUSH1 0x0 KECCAK256 ADD SLOAD DUP6 PUSH1 0x5 ADD DUP6 DUP2 SLOAD DUP2 LT PUSH2 0x1338 JUMPI INVALID JUMPDEST SWAP1 PUSH1 0x0 MSTORE PUSH1 0x20 PUSH1 0x0 KECCAK256 ADD DUP7 PUSH1 0x6 ADD DUP7 DUP2 SLOAD DUP2 LT PUSH2 0x1351 JUMPI INVALID JUMPDEST SWAP1 PUSH1 0x0 MSTORE PUSH1 0x20 PUSH1 0x0 KECCAK256 ADD DUP8 PUSH1 0x2 ADD SLOAD PUSH1 0x40 MLOAD DUP7 PUSH4 0xFFFFFFFF AND PUSH1 0xE0 SHL DUP2 MSTORE PUSH1 0x4 ADD PUSH2 0x1380 SWAP6 SWAP5 SWAP4 SWAP3 SWAP2 SWAP1 PUSH2 0x41D5 JUMP JUMPDEST PUSH1 0x0 PUSH1 0x40 MLOAD DUP1 DUP4 SUB DUP2 PUSH1 0x0 DUP8 DUP1 EXTCODESIZE ISZERO DUP1 ISZERO PUSH2 0x139A JUMPI PUSH1 0x0 DUP1 REVERT JUMPDEST POP GAS CALL ISZERO DUP1 ISZERO PUSH2 0x13AE JUMPI RETURNDATASIZE PUSH1 0x0 DUP1 RETURNDATACOPY RETURNDATASIZE PUSH1 0x0 REVERT JUMPDEST POP POP PUSH1 0x1 SWAP1 SWAP3 ADD SWAP2 POP PUSH2 0x12C4 SWAP1 POP JUMP JUMPDEST POP PUSH32 0x789CF55BE980739DAD1D0699B93B58E806B51C9D96619BFA8FE0A28ABAA7B30C DUP3 PUSH1 0x40 MLOAD PUSH2 0x8D3 SWAP2 SWAP1 PUSH2 0x4271 JUMP JUMPDEST PUSH1 0x0 SLOAD PUSH1 0x1 PUSH1 0x1 PUSH1 0xA0 SHL SUB AND CALLER EQ DUP1 PUSH2 0x1411 JUMPI POP PUSH1 0xD SLOAD PUSH1 0x1 PUSH1 0x1 PUSH1 0xA0 SHL SUB AND CALLER EQ JUMPDEST PUSH2 0x142D JUMPI PUSH1 0x40 MLOAD PUSH3 0x461BCD PUSH1 0xE5 SHL DUP2 MSTORE PUSH1 0x4 ADD PUSH2 0x85F SWAP1 PUSH2 0x453E JUMP JUMPDEST PUSH1 0x1 PUSH1 0x1 PUSH1 0xA0 SHL SUB DUP3 AND PUSH1 0x0 SWAP1 DUP2 MSTORE PUSH1 0xC PUSH1 0x20 MSTORE PUSH1 0x40 SWAP1 DUP2 SWAP1 KECCAK256 DUP3 SWAP1 SSTORE MLOAD PUSH32 0x4E7B7545BC5744D0E30425959F4687475774B6C7EDAD77D24CB51C7D967D4515 SWAP1 PUSH2 0x8D3 SWAP1 DUP5 SWAP1 DUP5 SWAP1 PUSH2 0x416D JUMP JUMPDEST CALLER PUSH32 0xB8E138887D0AA13BAB447E82DE9D5C1777041ECD21CA36BA824FF1E6C07DDDA4 DUP4 DUP4 PUSH2 0x14A9 DUP5 DUP4 DUP4 PUSH2 0x230E JUMP JUMPDEST PUSH1 0x40 MLOAD PUSH2 0x14B8 SWAP4 SWAP3 SWAP2 SWAP1 PUSH2 0x473E JUMP JUMPDEST PUSH1 0x40 MLOAD DUP1 SWAP2 SUB SWAP1 LOG2 POP POP JUMP JUMPDEST PUSH1 0x2 SLOAD PUSH1 0x1 PUSH1 0x1 PUSH1 0xA0 SHL SUB AND DUP2 JUMP JUMPDEST PUSH10 0xA968163F0A57B400000 DUP2 JUMP JUMPDEST CALLER PUSH32 0xB8E138887D0AA13BAB447E82DE9D5C1777041ECD21CA36BA824FF1E6C07DDDA4 DUP6 DUP6 PUSH2 0x1510 DUP5 DUP4 DUP4 PUSH2 0x230E JUMP JUMPDEST DUP7 DUP7 PUSH1 0x40 MLOAD PUSH2 0x1523 SWAP6 SWAP5 SWAP4 SWAP3 SWAP2 SWAP1 PUSH2 0x46F8 JUMP JUMPDEST PUSH1 0x40 MLOAD DUP1 SWAP2 SUB SWAP1 LOG2 POP POP POP POP JUMP JUMPDEST PUSH1 0xA DUP2 JUMP JUMPDEST PUSH1 0x0 SLOAD PUSH1 0x1 PUSH1 0x1 PUSH1 0xA0 SHL SUB AND CALLER EQ PUSH2 0x1560 JUMPI PUSH1 0x40 MLOAD PUSH3 0x461BCD PUSH1 0xE5 SHL DUP2 MSTORE PUSH1 0x4 ADD PUSH2 0x85F SWAP1 PUSH2 0x443E JUMP JUMPDEST PUSH1 0xD DUP1 SLOAD PUSH1 0x1 PUSH1 0x1 PUSH1 0xA0 SHL SUB DUP4 DUP2 AND PUSH1 0x1 PUSH1 0x1 PUSH1 0xA0 SHL SUB NOT DUP4 AND OR SWAP3 DUP4 SWAP1 SSTORE PUSH1 0x40 MLOAD SWAP2 DUP2 AND SWAP3 PUSH32 0x80A07E73E552148844A9C216D9724212D609CFA54E9C1A2E97203BDD2C4AD341 SWAP3 PUSH2 0x8D3 SWAP3 DUP6 SWAP3 AND SWAP1 PUSH2 0x4152 JUMP JUMPDEST PUSH3 0x13B00 DUP2 JUMP JUMPDEST PUSH2 0x9D80 DUP2 JUMP JUMPDEST PUSH1 0x5 SLOAD DUP2 JUMP JUMPDEST PUSH1 0x0 SLOAD PUSH1 0x1 PUSH1 0x1 PUSH1 0xA0 SHL SUB AND CALLER EQ PUSH2 0x15F2 JUMPI PUSH1 0x40 MLOAD PUSH3 0x461BCD PUSH1 0xE5 SHL DUP2 MSTORE PUSH1 0x4 ADD PUSH2 0x85F SWAP1 PUSH2 0x435E JUMP JUMPDEST PUSH1 0x1 DUP1 SLOAD PUSH1 0x1 PUSH1 0x1 PUSH1 0xA0 SHL SUB DUP4 DUP2 AND PUSH1 0x1 PUSH1 0x1 PUSH1 0xA0 SHL SUB NOT DUP4 AND OR SWAP1 SWAP3 SSTORE PUSH1 0x40 MLOAD SWAP2 AND SWAP1 PUSH32 0xCA4F2F25D0898EDD99413412FB94012F9E54EC8142F9B093E7720646A95B16A9 SWAP1 PUSH2 0x8D3 SWAP1 DUP4 SWAP1 DUP6 SWAP1 PUSH2 0x4152 JUMP JUMPDEST PUSH1 0xD SLOAD PUSH1 0x1 PUSH1 0x1 PUSH1 0xA0 SHL SUB AND DUP2 JUMP JUMPDEST PUSH1 0x8 SLOAD PUSH1 0x1 PUSH1 0x1 PUSH1 0xA0 SHL SUB AND ISZERO PUSH2 0x167D JUMPI PUSH1 0x40 MLOAD PUSH3 0x461BCD PUSH1 0xE5 SHL DUP2 MSTORE PUSH1 0x4 ADD PUSH2 0x85F SWAP1 PUSH2 0x434E JUMP JUMPDEST PUSH1 0x0 SLOAD PUSH1 0x1 PUSH1 0x1 PUSH1 0xA0 SHL SUB AND CALLER EQ PUSH2 0x16A7 JUMPI PUSH1 0x40 MLOAD PUSH3 0x461BCD PUSH1 0xE5 SHL DUP2 MSTORE PUSH1 0x4 ADD PUSH2 0x85F SWAP1 PUSH2 0x445E JUMP JUMPDEST PUSH1 0x1 PUSH1 0x1 PUSH1 0xA0 SHL SUB DUP6 AND PUSH2 0x16CD JUMPI PUSH1 0x40 MLOAD PUSH3 0x461BCD PUSH1 0xE5 SHL DUP2 MSTORE PUSH1 0x4 ADD PUSH2 0x85F SWAP1 PUSH2 0x438E JUMP JUMPDEST PUSH1 0x1 PUSH1 0x1 PUSH1 0xA0 SHL SUB DUP5 AND PUSH2 0x16F3 JUMPI PUSH1 0x40 MLOAD PUSH3 0x461BCD PUSH1 0xE5 SHL DUP2 MSTORE PUSH1 0x4 ADD PUSH2 0x85F SWAP1 PUSH2 0x44CE JUMP JUMPDEST PUSH2 0x1680 DUP4 LT ISZERO DUP1 ISZERO PUSH2 0x1708 JUMPI POP PUSH3 0x13B00 DUP4 GT ISZERO JUMPDEST PUSH2 0x1724 JUMPI PUSH1 0x40 MLOAD PUSH3 0x461BCD PUSH1 0xE5 SHL DUP2 MSTORE PUSH1 0x4 ADD PUSH2 0x85F SWAP1 PUSH2 0x457E JUMP JUMPDEST PUSH1 0x1 DUP3 LT ISZERO DUP1 ISZERO PUSH2 0x1737 JUMPI POP PUSH2 0x9D80 DUP3 GT ISZERO JUMPDEST PUSH2 0x1753 JUMPI PUSH1 0x40 MLOAD PUSH3 0x461BCD PUSH1 0xE5 SHL DUP2 MSTORE PUSH1 0x4 ADD PUSH2 0x85F SWAP1 PUSH2 0x442E JUMP JUMPDEST PUSH10 0xA968163F0A57B400000 DUP2 LT ISZERO DUP1 ISZERO PUSH2 0x1777 JUMPI POP PUSH10 0x152D02C7E14AF6800000 DUP2 GT ISZERO JUMPDEST PUSH2 0x1793 JUMPI PUSH1 0x40 MLOAD PUSH3 0x461BCD PUSH1 0xE5 SHL DUP2 MSTORE PUSH1 0x4 ADD PUSH2 0x85F SWAP1 PUSH2 0x43FE JUMP JUMPDEST PUSH1 0x8 DUP1 SLOAD PUSH1 0x1 PUSH1 0x1 PUSH1 0xA0 SHL SUB SWAP7 DUP8 AND PUSH1 0x1 PUSH1 0x1 PUSH1 0xA0 SHL SUB NOT SWAP2 DUP3 AND OR SWAP1 SWAP2 SSTORE PUSH1 0x9 DUP1 SLOAD SWAP6 SWAP1 SWAP7 AND SWAP5 AND SWAP4 SWAP1 SWAP4 OR SWAP1 SWAP4 SSTORE PUSH1 0x4 SSTORE PUSH1 0x3 SWAP2 SWAP1 SWAP2 SSTORE PUSH1 0x5 SSTORE JUMP JUMPDEST PUSH1 0x8 SLOAD PUSH1 0x1 PUSH1 0x1 PUSH1 0xA0 SHL SUB AND DUP2 JUMP JUMPDEST PUSH1 0x7 SLOAD DUP2 JUMP JUMPDEST PUSH1 0x0 PUSH1 0x6 SLOAD PUSH1 0x0 EQ ISZERO PUSH2 0x180B JUMPI PUSH1 0x40 MLOAD PUSH3 0x461BCD PUSH1 0xE5 SHL DUP2 MSTORE PUSH1 0x4 ADD PUSH2 0x85F SWAP1 PUSH2 0x43AE JUMP JUMPDEST PUSH1 0x5 SLOAD PUSH1 0x9 SLOAD PUSH1 0x1 PUSH1 0x1 PUSH1 0xA0 SHL SUB AND PUSH4 0x782D6FE1 CALLER PUSH2 0x182B NUMBER PUSH1 0x1 PUSH2 0x2524 JUMP JUMPDEST PUSH1 0x40 MLOAD DUP4 PUSH4 0xFFFFFFFF AND PUSH1 0xE0 SHL DUP2 MSTORE PUSH1 0x4 ADD PUSH2 0x1848 SWAP3 SWAP2 SWAP1 PUSH2 0x4137 JUMP JUMPDEST PUSH1 0x20 PUSH1 0x40 MLOAD DUP1 DUP4 SUB DUP2 DUP7 DUP1 EXTCODESIZE ISZERO DUP1 ISZERO PUSH2 0x1860 JUMPI PUSH1 0x0 DUP1 REVERT JUMPDEST POP GAS STATICCALL ISZERO DUP1 ISZERO PUSH2 0x1874 JUMPI RETURNDATASIZE PUSH1 0x0 DUP1 RETURNDATACOPY RETURNDATASIZE PUSH1 0x0 REVERT JUMPDEST POP POP POP POP PUSH1 0x40 MLOAD RETURNDATASIZE PUSH1 0x1F NOT PUSH1 0x1F DUP3 ADD AND DUP3 ADD DUP1 PUSH1 0x40 MSTORE POP PUSH2 0x1898 SWAP2 SWAP1 DUP2 ADD SWAP1 PUSH2 0x2FF7 JUMP JUMPDEST PUSH1 0x1 PUSH1 0x1 PUSH1 0x60 SHL SUB AND GT DUP1 PUSH2 0x18B1 JUMPI POP PUSH2 0x18B1 CALLER PUSH2 0xD26 JUMP JUMPDEST PUSH2 0x18CD JUMPI PUSH1 0x40 MLOAD PUSH3 0x461BCD PUSH1 0xE5 SHL DUP2 MSTORE PUSH1 0x4 ADD PUSH2 0x85F SWAP1 PUSH2 0x452E JUMP JUMPDEST DUP5 MLOAD DUP7 MLOAD EQ DUP1 ISZERO PUSH2 0x18DF JUMPI POP DUP4 MLOAD DUP7 MLOAD EQ JUMPDEST DUP1 ISZERO PUSH2 0x18EC JUMPI POP DUP3 MLOAD DUP7 MLOAD EQ JUMPDEST PUSH2 0x1908 JUMPI PUSH1 0x40 MLOAD PUSH3 0x461BCD PUSH1 0xE5 SHL DUP2 MSTORE PUSH1 0x4 ADD PUSH2 0x85F SWAP1 PUSH2 0x444E JUMP JUMPDEST DUP6 MLOAD PUSH2 0x1926 JUMPI PUSH1 0x40 MLOAD PUSH3 0x461BCD PUSH1 0xE5 SHL DUP2 MSTORE PUSH1 0x4 ADD PUSH2 0x85F SWAP1 PUSH2 0x44AE JUMP JUMPDEST PUSH1 0xA DUP7 MLOAD GT ISZERO PUSH2 0x1948 JUMPI PUSH1 0x40 MLOAD PUSH3 0x461BCD PUSH1 0xE5 SHL DUP2 MSTORE PUSH1 0x4 ADD PUSH2 0x85F SWAP1 PUSH2 0x44EE JUMP JUMPDEST CALLER PUSH1 0x0 SWAP1 DUP2 MSTORE PUSH1 0xB PUSH1 0x20 MSTORE PUSH1 0x40 SWAP1 KECCAK256 SLOAD DUP1 ISZERO PUSH2 0x19C5 JUMPI PUSH1 0x0 PUSH2 0x1969 DUP3 PUSH2 0xF22 JUMP JUMPDEST SWAP1 POP PUSH1 0x1 DUP2 PUSH1 0x7 DUP2 GT ISZERO PUSH2 0x1979 JUMPI INVALID JUMPDEST EQ ISZERO PUSH2 0x1997 JUMPI PUSH1 0x40 MLOAD PUSH3 0x461BCD PUSH1 0xE5 SHL DUP2 MSTORE PUSH1 0x4 ADD PUSH2 0x85F SWAP1 PUSH2 0x450E JUMP JUMPDEST PUSH1 0x0 DUP2 PUSH1 0x7 DUP2 GT ISZERO PUSH2 0x19A5 JUMPI INVALID JUMPDEST EQ ISZERO PUSH2 0x19C3 JUMPI PUSH1 0x40 MLOAD PUSH3 0x461BCD PUSH1 0xE5 SHL DUP2 MSTORE PUSH1 0x4 ADD PUSH2 0x85F SWAP1 PUSH2 0x44FE JUMP JUMPDEST POP JUMPDEST PUSH1 0x0 PUSH2 0x19D3 NUMBER PUSH1 0x3 SLOAD PUSH2 0x24FF JUMP JUMPDEST SWAP1 POP PUSH1 0x0 PUSH2 0x19E3 DUP3 PUSH1 0x4 SLOAD PUSH2 0x24FF JUMP JUMPDEST PUSH1 0x7 DUP1 SLOAD PUSH1 0x1 ADD SWAP1 SSTORE SWAP1 POP PUSH2 0x19F6 PUSH2 0x26AB JUMP JUMPDEST PUSH1 0x40 MLOAD DUP1 PUSH2 0x1C0 ADD PUSH1 0x40 MSTORE DUP1 PUSH1 0x7 SLOAD DUP2 MSTORE PUSH1 0x20 ADD CALLER PUSH1 0x1 PUSH1 0x1 PUSH1 0xA0 SHL SUB AND DUP2 MSTORE PUSH1 0x20 ADD PUSH1 0x0 DUP2 MSTORE PUSH1 0x20 ADD DUP12 DUP2 MSTORE PUSH1 0x20 ADD DUP11 DUP2 MSTORE PUSH1 0x20 ADD DUP10 DUP2 MSTORE PUSH1 0x20 ADD DUP9 DUP2 MSTORE PUSH1 0x20 ADD DUP5 DUP2 MSTORE PUSH1 0x20 ADD DUP4 DUP2 MSTORE PUSH1 0x20 ADD PUSH1 0x0 DUP2 MSTORE PUSH1 0x20 ADD PUSH1 0x0 DUP2 MSTORE PUSH1 0x20 ADD PUSH1 0x0 DUP2 MSTORE PUSH1 0x20 ADD PUSH1 0x0 ISZERO ISZERO DUP2 MSTORE PUSH1 0x20 ADD PUSH1 0x0 ISZERO ISZERO DUP2 MSTORE POP SWAP1 POP DUP1 PUSH1 0xA PUSH1 0x0 DUP4 PUSH1 0x0 ADD MLOAD DUP2 MSTORE PUSH1 0x20 ADD SWAP1 DUP2 MSTORE PUSH1 0x20 ADD PUSH1 0x0 KECCAK256 PUSH1 0x0 DUP3 ADD MLOAD DUP2 PUSH1 0x0 ADD SSTORE PUSH1 0x20 DUP3 ADD MLOAD DUP2 PUSH1 0x1 ADD PUSH1 0x0 PUSH2 0x100 EXP DUP2 SLOAD DUP2 PUSH1 0x1 PUSH1 0x1 PUSH1 0xA0 SHL SUB MUL NOT AND SWAP1 DUP4 PUSH1 0x1 PUSH1 0x1 PUSH1 0xA0 SHL SUB AND MUL OR SWAP1 SSTORE POP PUSH1 0x40 DUP3 ADD MLOAD DUP2 PUSH1 0x2 ADD SSTORE PUSH1 0x60 DUP3 ADD MLOAD DUP2 PUSH1 0x3 ADD SWAP1 DUP1 MLOAD SWAP1 PUSH1 0x20 ADD SWAP1 PUSH2 0x1AE0 SWAP3 SWAP2 SWAP1 PUSH2 0x2727 JUMP JUMPDEST POP PUSH1 0x80 DUP3 ADD MLOAD DUP1 MLOAD PUSH2 0x1AFC SWAP2 PUSH1 0x4 DUP5 ADD SWAP2 PUSH1 0x20 SWAP1 SWAP2 ADD SWAP1 PUSH2 0x278C JUMP JUMPDEST POP PUSH1 0xA0 DUP3 ADD MLOAD DUP1 MLOAD PUSH2 0x1B18 SWAP2 PUSH1 0x5 DUP5 ADD SWAP2 PUSH1 0x20 SWAP1 SWAP2 ADD SWAP1 PUSH2 0x27D3 JUMP JUMPDEST POP PUSH1 0xC0 DUP3 ADD MLOAD DUP1 MLOAD PUSH2 0x1B34 SWAP2 PUSH1 0x6 DUP5 ADD SWAP2 PUSH1 0x20 SWAP1 SWAP2 ADD SWAP1 PUSH2 0x282C JUMP JUMPDEST POP PUSH1 0xE0 DUP3 ADD MLOAD DUP2 PUSH1 0x7 ADD SSTORE PUSH2 0x100 DUP3 ADD MLOAD DUP2 PUSH1 0x8 ADD SSTORE PUSH2 0x120 DUP3 ADD MLOAD DUP2 PUSH1 0x9 ADD SSTORE PUSH2 0x140 DUP3 ADD MLOAD DUP2 PUSH1 0xA ADD SSTORE PUSH2 0x160 DUP3 ADD MLOAD DUP2 PUSH1 0xB ADD SSTORE PUSH2 0x180 DUP3 ADD MLOAD DUP2 PUSH1 0xC ADD PUSH1 0x0 PUSH2 0x100 EXP DUP2 SLOAD DUP2 PUSH1 0xFF MUL NOT AND SWAP1 DUP4 ISZERO ISZERO MUL OR SWAP1 SSTORE POP PUSH2 0x1A0 DUP3 ADD MLOAD DUP2 PUSH1 0xC ADD PUSH1 0x1 PUSH2 0x100 EXP DUP2 SLOAD DUP2 PUSH1 0xFF MUL NOT AND SWAP1 DUP4 ISZERO ISZERO MUL OR SWAP1 SSTORE POP SWAP1 POP POP DUP1 PUSH1 0x0 ADD MLOAD PUSH1 0xB PUSH1 0x0 DUP4 PUSH1 0x20 ADD MLOAD PUSH1 0x1 PUSH1 0x1 PUSH1 0xA0 SHL SUB AND PUSH1 0x1 PUSH1 0x1 PUSH1 0xA0 SHL SUB AND DUP2 MSTORE PUSH1 0x20 ADD SWAP1 DUP2 MSTORE PUSH1 0x20 ADD PUSH1 0x0 KECCAK256 DUP2 SWAP1 SSTORE POP PUSH32 0x7D84A6263AE0D98D3329BD7B46BB4E8D6F98CD35A7ADB45C274C8B7FD5EBD5E0 DUP2 PUSH1 0x0 ADD MLOAD CALLER DUP13 DUP13 DUP13 DUP13 DUP10 DUP10 DUP15 PUSH1 0x40 MLOAD PUSH2 0x1C25 SWAP10 SWAP9 SWAP8 SWAP7 SWAP6 SWAP5 SWAP4 SWAP3 SWAP2 SWAP1 PUSH2 0x45BC JUMP JUMPDEST PUSH1 0x40 MLOAD DUP1 SWAP2 SUB SWAP1 LOG1 MLOAD SWAP4 POP POP POP POP JUMPDEST SWAP6 SWAP5 POP POP POP POP POP JUMP JUMPDEST PUSH1 0x4 PUSH2 0x1C48 DUP3 PUSH2 0xF22 JUMP JUMPDEST PUSH1 0x7 DUP2 GT ISZERO PUSH2 0x1C53 JUMPI INVALID JUMPDEST EQ PUSH2 0x1C70 JUMPI PUSH1 0x40 MLOAD PUSH3 0x461BCD PUSH1 0xE5 SHL DUP2 MSTORE PUSH1 0x4 ADD PUSH2 0x85F SWAP1 PUSH2 0x447E JUMP JUMPDEST PUSH1 0x0 DUP2 DUP2 MSTORE PUSH1 0xA PUSH1 0x20 SWAP1 DUP2 MSTORE PUSH1 0x40 DUP1 DUP4 KECCAK256 PUSH1 0x8 SLOAD DUP3 MLOAD PUSH4 0xD48571F PUSH1 0xE3 SHL DUP2 MSTORE SWAP3 MLOAD SWAP2 SWAP5 SWAP4 PUSH2 0x1CCA SWAP4 TIMESTAMP SWAP4 PUSH1 0x1 PUSH1 0x1 PUSH1 0xA0 SHL SUB SWAP1 SWAP4 AND SWAP3 PUSH4 0x6A42B8F8 SWAP3 PUSH1 0x4 DUP1 DUP5 ADD SWAP4 SWAP2 SWAP3 SWAP2 DUP3 SWAP1 SUB ADD DUP2 DUP7 DUP1 EXTCODESIZE ISZERO DUP1 ISZERO PUSH2 0x1050 JUMPI PUSH1 0x0 DUP1 REVERT JUMPDEST SWAP1 POP PUSH1 0x0 JUMPDEST PUSH1 0x3 DUP4 ADD SLOAD DUP2 LT ISZERO PUSH2 0x1E72 JUMPI PUSH2 0x1E6A DUP4 PUSH1 0x3 ADD DUP3 DUP2 SLOAD DUP2 LT PUSH2 0x1CED JUMPI INVALID JUMPDEST PUSH1 0x0 SWAP2 DUP3 MSTORE PUSH1 0x20 SWAP1 SWAP2 KECCAK256 ADD SLOAD PUSH1 0x4 DUP6 ADD DUP1 SLOAD PUSH1 0x1 PUSH1 0x1 PUSH1 0xA0 SHL SUB SWAP1 SWAP3 AND SWAP2 DUP5 SWAP1 DUP2 LT PUSH2 0x1D15 JUMPI INVALID JUMPDEST SWAP1 PUSH1 0x0 MSTORE PUSH1 0x20 PUSH1 0x0 KECCAK256 ADD SLOAD DUP6 PUSH1 0x5 ADD DUP5 DUP2 SLOAD DUP2 LT PUSH2 0x1D2F JUMPI INVALID JUMPDEST PUSH1 0x0 SWAP2 DUP3 MSTORE PUSH1 0x20 SWAP2 DUP3 SWAP1 KECCAK256 ADD DUP1 SLOAD PUSH1 0x40 DUP1 MLOAD PUSH1 0x1F PUSH1 0x2 PUSH1 0x0 NOT PUSH2 0x100 PUSH1 0x1 DUP8 AND ISZERO MUL ADD SWAP1 SWAP5 AND SWAP4 SWAP1 SWAP4 DIV SWAP3 DUP4 ADD DUP6 SWAP1 DIV DUP6 MUL DUP2 ADD DUP6 ADD SWAP1 SWAP2 MSTORE DUP2 DUP2 MSTORE SWAP3 DUP4 ADD DUP3 DUP3 DUP1 ISZERO PUSH2 0x1DBD JUMPI DUP1 PUSH1 0x1F LT PUSH2 0x1D92 JUMPI PUSH2 0x100 DUP1 DUP4 SLOAD DIV MUL DUP4 MSTORE SWAP2 PUSH1 0x20 ADD SWAP2 PUSH2 0x1DBD JUMP JUMPDEST DUP3 ADD SWAP2 SWAP1 PUSH1 0x0 MSTORE PUSH1 0x20 PUSH1 0x0 KECCAK256 SWAP1 JUMPDEST DUP2 SLOAD DUP2 MSTORE SWAP1 PUSH1 0x1 ADD SWAP1 PUSH1 0x20 ADD DUP1 DUP4 GT PUSH2 0x1DA0 JUMPI DUP3 SWAP1 SUB PUSH1 0x1F AND DUP3 ADD SWAP2 JUMPDEST POP POP POP POP POP DUP7 PUSH1 0x6 ADD DUP6 DUP2 SLOAD DUP2 LT PUSH2 0x1DD1 JUMPI INVALID JUMPDEST PUSH1 0x0 SWAP2 DUP3 MSTORE PUSH1 0x20 SWAP2 DUP3 SWAP1 KECCAK256 ADD DUP1 SLOAD PUSH1 0x40 DUP1 MLOAD PUSH1 0x1F PUSH1 0x2 PUSH1 0x0 NOT PUSH2 0x100 PUSH1 0x1 DUP8 AND ISZERO MUL ADD SWAP1 SWAP5 AND SWAP4 SWAP1 SWAP4 DIV SWAP3 DUP4 ADD DUP6 SWAP1 DIV DUP6 MUL DUP2 ADD DUP6 ADD SWAP1 SWAP2 MSTORE DUP2 DUP2 MSTORE SWAP3 DUP4 ADD DUP3 DUP3 DUP1 ISZERO PUSH2 0x1E5F JUMPI DUP1 PUSH1 0x1F LT PUSH2 0x1E34 JUMPI PUSH2 0x100 DUP1 DUP4 SLOAD DIV MUL DUP4 MSTORE SWAP2 PUSH1 0x20 ADD SWAP2 PUSH2 0x1E5F JUMP JUMPDEST DUP3 ADD SWAP2 SWAP1 PUSH1 0x0 MSTORE PUSH1 0x20 PUSH1 0x0 KECCAK256 SWAP1 JUMPDEST DUP2 SLOAD DUP2 MSTORE SWAP1 PUSH1 0x1 ADD SWAP1 PUSH1 0x20 ADD DUP1 DUP4 GT PUSH2 0x1E42 JUMPI DUP3 SWAP1 SUB PUSH1 0x1F AND DUP3 ADD SWAP2 JUMPDEST POP POP POP POP POP DUP7 PUSH2 0x254C JUMP JUMPDEST PUSH1 0x1 ADD PUSH2 0x1CCF JUMP JUMPDEST POP PUSH1 0x2 DUP3 ADD DUP2 SWAP1 SSTORE PUSH1 0x40 MLOAD PUSH32 0x9A2E42FD6722813D69113E7D0079D3D940171428DF7373DF9C7F7617CFDA2892 SWAP1 PUSH2 0x1EAC SWAP1 DUP6 SWAP1 DUP5 SWAP1 PUSH2 0x46EA JUMP JUMPDEST PUSH1 0x40 MLOAD DUP1 SWAP2 SUB SWAP1 LOG1 POP POP POP JUMP JUMPDEST PUSH1 0x40 MLOAD PUSH2 0xA43 SWAP1 PUSH2 0x40E2 JUMP JUMPDEST PUSH2 0x1ECD PUSH2 0x2885 JUMP JUMPDEST POP PUSH1 0x0 DUP3 DUP2 MSTORE PUSH1 0xA PUSH1 0x20 SWAP1 DUP2 MSTORE PUSH1 0x40 DUP1 DUP4 KECCAK256 PUSH1 0x1 PUSH1 0x1 PUSH1 0xA0 SHL SUB DUP6 AND DUP5 MSTORE PUSH1 0xD ADD DUP3 MSTORE SWAP2 DUP3 SWAP1 KECCAK256 DUP3 MLOAD PUSH1 0x60 DUP2 ADD DUP5 MSTORE SWAP1 SLOAD PUSH1 0xFF DUP1 DUP3 AND ISZERO ISZERO DUP4 MSTORE PUSH2 0x100 DUP3 DIV AND SWAP3 DUP3 ADD SWAP3 SWAP1 SWAP3 MSTORE PUSH3 0x10000 SWAP1 SWAP2 DIV PUSH1 0x1 PUSH1 0x1 PUSH1 0x60 SHL SUB AND SWAP2 DUP2 ADD SWAP2 SWAP1 SWAP2 MSTORE JUMPDEST SWAP3 SWAP2 POP POP JUMP JUMPDEST PUSH1 0x1 DUP2 JUMP JUMPDEST PUSH1 0x1 SLOAD PUSH1 0x1 PUSH1 0x1 PUSH1 0xA0 SHL SUB AND CALLER EQ DUP1 ISZERO PUSH2 0x1F50 JUMPI POP CALLER ISZERO ISZERO JUMPDEST PUSH2 0x1F6C JUMPI PUSH1 0x40 MLOAD PUSH3 0x461BCD PUSH1 0xE5 SHL DUP2 MSTORE PUSH1 0x4 ADD PUSH2 0x85F SWAP1 PUSH2 0x44BE JUMP JUMPDEST PUSH1 0x0 DUP1 SLOAD PUSH1 0x1 DUP1 SLOAD PUSH1 0x1 PUSH1 0x1 PUSH1 0xA0 SHL SUB DUP1 DUP3 AND PUSH1 0x1 PUSH1 0x1 PUSH1 0xA0 SHL SUB NOT DUP1 DUP7 AND DUP3 OR SWAP7 DUP8 SWAP1 SSTORE SWAP1 SWAP3 AND SWAP1 SWAP3 SSTORE PUSH1 0x40 MLOAD SWAP3 DUP3 AND SWAP4 SWAP1 SWAP3 PUSH32 0xF9FFABCA9C8276E99321725BCB43FB076A6C66A54B7F21C4E8146D8519B417DC SWAP3 PUSH2 0x1FD0 SWAP3 DUP7 SWAP3 SWAP2 AND SWAP1 PUSH2 0x4152 JUMP JUMPDEST PUSH1 0x40 MLOAD DUP1 SWAP2 SUB SWAP1 LOG1 PUSH1 0x1 SLOAD PUSH1 0x40 MLOAD PUSH32 0xCA4F2F25D0898EDD99413412FB94012F9E54EC8142F9B093E7720646A95B16A9 SWAP2 PUSH2 0x8D3 SWAP2 DUP5 SWAP2 PUSH1 0x1 PUSH1 0x1 PUSH1 0xA0 SHL SUB AND SWAP1 PUSH2 0x4152 JUMP JUMPDEST PUSH1 0x0 SLOAD PUSH1 0x1 PUSH1 0x1 PUSH1 0xA0 SHL SUB AND DUP2 JUMP JUMPDEST PUSH1 0x0 SLOAD PUSH1 0x1 PUSH1 0x1 PUSH1 0xA0 SHL SUB AND CALLER EQ PUSH2 0x204E JUMPI PUSH1 0x40 MLOAD PUSH3 0x461BCD PUSH1 0xE5 SHL DUP2 MSTORE PUSH1 0x4 ADD PUSH2 0x85F SWAP1 PUSH2 0x451E JUMP JUMPDEST PUSH1 0x6 SLOAD ISZERO PUSH2 0x206E JUMPI PUSH1 0x40 MLOAD PUSH3 0x461BCD PUSH1 0xE5 SHL DUP2 MSTORE PUSH1 0x4 ADD PUSH2 0x85F SWAP1 PUSH2 0x449E JUMP JUMPDEST DUP1 PUSH1 0x1 PUSH1 0x1 PUSH1 0xA0 SHL SUB AND PUSH4 0xDA35C664 PUSH1 0x40 MLOAD DUP2 PUSH4 0xFFFFFFFF AND PUSH1 0xE0 SHL DUP2 MSTORE PUSH1 0x4 ADD PUSH1 0x20 PUSH1 0x40 MLOAD DUP1 DUP4 SUB DUP2 PUSH1 0x0 DUP8 DUP1 EXTCODESIZE ISZERO DUP1 ISZERO PUSH2 0x20A9 JUMPI PUSH1 0x0 DUP1 REVERT JUMPDEST POP GAS CALL ISZERO DUP1 ISZERO PUSH2 0x20BD JUMPI RETURNDATASIZE PUSH1 0x0 DUP1 RETURNDATACOPY RETURNDATASIZE PUSH1 0x0 REVERT JUMPDEST POP POP POP POP PUSH1 0x40 MLOAD RETURNDATASIZE PUSH1 0x1F NOT PUSH1 0x1F DUP3 ADD AND DUP3 ADD DUP1 PUSH1 0x40 MSTORE POP PUSH2 0x20E1 SWAP2 SWAP1 DUP2 ADD SWAP1 PUSH2 0x2E78 JUMP JUMPDEST PUSH1 0x7 DUP2 SWAP1 SSTORE PUSH1 0x6 SSTORE PUSH1 0x8 SLOAD PUSH1 0x40 DUP1 MLOAD PUSH4 0xE18B681 PUSH1 0xE0 SHL DUP2 MSTORE SWAP1 MLOAD PUSH1 0x1 PUSH1 0x1 PUSH1 0xA0 SHL SUB SWAP1 SWAP3 AND SWAP2 PUSH4 0xE18B681 SWAP2 PUSH1 0x4 DUP1 DUP3 ADD SWAP3 PUSH1 0x0 SWAP3 SWAP1 SWAP2 SWAP1 DUP3 SWAP1 SUB ADD DUP2 DUP4 DUP8 DUP1 EXTCODESIZE ISZERO DUP1 ISZERO PUSH2 0x212F JUMPI PUSH1 0x0 DUP1 REVERT JUMPDEST POP GAS CALL ISZERO DUP1 ISZERO PUSH2 0x2143 JUMPI RETURNDATASIZE PUSH1 0x0 DUP1 RETURNDATACOPY RETURNDATASIZE PUSH1 0x0 REVERT JUMPDEST POP POP POP POP POP JUMP JUMPDEST PUSH1 0x6 SLOAD DUP2 JUMP JUMPDEST PUSH1 0x5 PUSH2 0x215B DUP3 PUSH2 0xF22 JUMP JUMPDEST PUSH1 0x7 DUP2 GT ISZERO PUSH2 0x2166 JUMPI INVALID JUMPDEST EQ PUSH2 0x2183 JUMPI PUSH1 0x40 MLOAD PUSH3 0x461BCD PUSH1 0xE5 SHL DUP2 MSTORE PUSH1 0x4 ADD PUSH2 0x85F SWAP1 PUSH2 0x440E JUMP JUMPDEST PUSH1 0x0 DUP2 DUP2 MSTORE PUSH1 0xA PUSH1 0x20 MSTORE PUSH1 0x40 DUP2 KECCAK256 PUSH1 0xC DUP2 ADD DUP1 SLOAD PUSH2 0xFF00 NOT AND PUSH2 0x100 OR SWAP1 SSTORE SWAP1 JUMPDEST PUSH1 0x3 DUP3 ADD SLOAD DUP2 LT ISZERO PUSH2 0x22D9 JUMPI PUSH1 0x8 SLOAD PUSH1 0x4 DUP4 ADD DUP1 SLOAD PUSH1 0x1 PUSH1 0x1 PUSH1 0xA0 SHL SUB SWAP1 SWAP3 AND SWAP2 PUSH4 0x825F38F SWAP2 SWAP1 DUP5 SWAP1 DUP2 LT PUSH2 0x21D6 JUMPI INVALID JUMPDEST SWAP1 PUSH1 0x0 MSTORE PUSH1 0x20 PUSH1 0x0 KECCAK256 ADD SLOAD DUP5 PUSH1 0x3 ADD DUP5 DUP2 SLOAD DUP2 LT PUSH2 0x21F0 JUMPI INVALID JUMPDEST PUSH1 0x0 SWAP2 DUP3 MSTORE PUSH1 0x20 SWAP1 SWAP2 KECCAK256 ADD SLOAD PUSH1 0x4 DUP7 ADD DUP1 SLOAD PUSH1 0x1 PUSH1 0x1 PUSH1 0xA0 SHL SUB SWAP1 SWAP3 AND SWAP2 DUP7 SWAP1 DUP2 LT PUSH2 0x2218 JUMPI INVALID JUMPDEST SWAP1 PUSH1 0x0 MSTORE PUSH1 0x20 PUSH1 0x0 KECCAK256 ADD SLOAD DUP7 PUSH1 0x5 ADD DUP7 DUP2 SLOAD DUP2 LT PUSH2 0x2232 JUMPI INVALID JUMPDEST SWAP1 PUSH1 0x0 MSTORE PUSH1 0x20 PUSH1 0x0 KECCAK256 ADD DUP8 PUSH1 0x6 ADD DUP8 DUP2 SLOAD DUP2 LT PUSH2 0x224B JUMPI INVALID JUMPDEST SWAP1 PUSH1 0x0 MSTORE PUSH1 0x20 PUSH1 0x0 KECCAK256 ADD DUP9 PUSH1 0x2 ADD SLOAD PUSH1 0x40 MLOAD DUP8 PUSH4 0xFFFFFFFF AND PUSH1 0xE0 SHL DUP2 MSTORE PUSH1 0x4 ADD PUSH2 0x227A SWAP6 SWAP5 SWAP4 SWAP3 SWAP2 SWAP1 PUSH2 0x41D5 JUMP JUMPDEST PUSH1 0x0 PUSH1 0x40 MLOAD DUP1 DUP4 SUB DUP2 DUP6 DUP9 DUP1 EXTCODESIZE ISZERO DUP1 ISZERO PUSH2 0x2293 JUMPI PUSH1 0x0 DUP1 REVERT JUMPDEST POP GAS CALL ISZERO DUP1 ISZERO PUSH2 0x22A7 JUMPI RETURNDATASIZE PUSH1 0x0 DUP1 RETURNDATACOPY RETURNDATASIZE PUSH1 0x0 REVERT JUMPDEST POP POP POP POP POP PUSH1 0x40 MLOAD RETURNDATASIZE PUSH1 0x0 DUP3 RETURNDATACOPY PUSH1 0x1F RETURNDATASIZE SWAP1 DUP2 ADD PUSH1 0x1F NOT AND DUP3 ADD PUSH1 0x40 MSTORE PUSH2 0x22D0 SWAP2 SWAP1 DUP2 ADD SWAP1 PUSH2 0x2E96 JUMP JUMPDEST POP PUSH1 0x1 ADD PUSH2 0x21A4 JUMP JUMPDEST POP PUSH32 0x712AE1383F79AC853F8D882153778E0260EF8F03B504E2866E0593E04D2B291F DUP3 PUSH1 0x40 MLOAD PUSH2 0x8D3 SWAP2 SWAP1 PUSH2 0x4271 JUMP JUMPDEST CHAINID JUMPDEST SWAP1 JUMP JUMPDEST PUSH1 0x0 PUSH1 0x1 PUSH2 0x231B DUP5 PUSH2 0xF22 JUMP JUMPDEST PUSH1 0x7 DUP2 GT ISZERO PUSH2 0x2326 JUMPI INVALID JUMPDEST EQ PUSH2 0x2343 JUMPI PUSH1 0x40 MLOAD PUSH3 0x461BCD PUSH1 0xE5 SHL DUP2 MSTORE PUSH1 0x4 ADD PUSH2 0x85F SWAP1 PUSH2 0x43CE JUMP JUMPDEST PUSH1 0x2 DUP3 PUSH1 0xFF AND GT ISZERO PUSH2 0x2367 JUMPI PUSH1 0x40 MLOAD PUSH3 0x461BCD PUSH1 0xE5 SHL DUP2 MSTORE PUSH1 0x4 ADD PUSH2 0x85F SWAP1 PUSH2 0x433E JUMP JUMPDEST PUSH1 0x0 DUP4 DUP2 MSTORE PUSH1 0xA PUSH1 0x20 SWAP1 DUP2 MSTORE PUSH1 0x40 DUP1 DUP4 KECCAK256 PUSH1 0x1 PUSH1 0x1 PUSH1 0xA0 SHL SUB DUP9 AND DUP5 MSTORE PUSH1 0xD DUP2 ADD SWAP1 SWAP3 MSTORE SWAP1 SWAP2 KECCAK256 DUP1 SLOAD PUSH1 0xFF AND ISZERO PUSH2 0x23B0 JUMPI PUSH1 0x40 MLOAD PUSH3 0x461BCD PUSH1 0xE5 SHL DUP2 MSTORE PUSH1 0x4 ADD PUSH2 0x85F SWAP1 PUSH2 0x43DE JUMP JUMPDEST PUSH1 0x9 SLOAD PUSH1 0x7 DUP4 ADD SLOAD PUSH1 0x40 MLOAD PUSH4 0x782D6FE1 PUSH1 0xE0 SHL DUP2 MSTORE PUSH1 0x0 SWAP3 PUSH1 0x1 PUSH1 0x1 PUSH1 0xA0 SHL SUB AND SWAP2 PUSH4 0x782D6FE1 SWAP2 PUSH2 0x23E6 SWAP2 DUP12 SWAP2 PUSH1 0x4 ADD PUSH2 0x416D JUMP JUMPDEST PUSH1 0x20 PUSH1 0x40 MLOAD DUP1 DUP4 SUB DUP2 DUP7 DUP1 EXTCODESIZE ISZERO DUP1 ISZERO PUSH2 0x23FE JUMPI PUSH1 0x0 DUP1 REVERT JUMPDEST POP GAS STATICCALL ISZERO DUP1 ISZERO PUSH2 0x2412 JUMPI RETURNDATASIZE PUSH1 0x0 DUP1 RETURNDATACOPY RETURNDATASIZE PUSH1 0x0 REVERT JUMPDEST POP POP POP POP PUSH1 0x40 MLOAD RETURNDATASIZE PUSH1 0x1F NOT PUSH1 0x1F DUP3 ADD AND DUP3 ADD DUP1 PUSH1 0x40 MSTORE POP PUSH2 0x2436 SWAP2 SWAP1 DUP2 ADD SWAP1 PUSH2 0x2FF7 JUMP JUMPDEST SWAP1 POP PUSH1 0xFF DUP6 AND PUSH2 0x2461 JUMPI PUSH2 0x2457 DUP4 PUSH1 0xA ADD SLOAD DUP3 PUSH1 0x1 PUSH1 0x1 PUSH1 0x60 SHL SUB AND PUSH2 0x24FF JUMP JUMPDEST PUSH1 0xA DUP5 ADD SSTORE PUSH2 0x24B7 JUMP JUMPDEST DUP5 PUSH1 0xFF AND PUSH1 0x1 EQ ISZERO PUSH2 0x248E JUMPI PUSH2 0x2484 DUP4 PUSH1 0x9 ADD SLOAD DUP3 PUSH1 0x1 PUSH1 0x1 PUSH1 0x60 SHL SUB AND PUSH2 0x24FF JUMP JUMPDEST PUSH1 0x9 DUP5 ADD SSTORE PUSH2 0x24B7 JUMP JUMPDEST DUP5 PUSH1 0xFF AND PUSH1 0x2 EQ ISZERO PUSH2 0x24B7 JUMPI PUSH2 0x24B1 DUP4 PUSH1 0xB ADD SLOAD DUP3 PUSH1 0x1 PUSH1 0x1 PUSH1 0x60 SHL SUB AND PUSH2 0x24FF JUMP JUMPDEST PUSH1 0xB DUP5 ADD SSTORE JUMPDEST DUP2 SLOAD PUSH1 0x1 PUSH1 0xFF NOT SWAP1 SWAP2 AND OR PUSH2 0xFF00 NOT AND PUSH2 0x100 PUSH1 0xFF DUP8 AND MUL OR PUSH14 0xFFFFFFFFFFFFFFFFFFFFFFFF0000 NOT AND PUSH3 0x10000 PUSH1 0x1 PUSH1 0x1 PUSH1 0x60 SHL SUB DUP4 AND MUL OR SWAP1 SWAP2 SSTORE SWAP2 POP POP JUMPDEST SWAP4 SWAP3 POP POP POP JUMP JUMPDEST PUSH1 0x0 DUP3 DUP3 ADD DUP4 DUP2 LT ISZERO PUSH2 0x24F8 JUMPI PUSH1 0x40 MLOAD PUSH3 0x461BCD PUSH1 0xE5 SHL DUP2 MSTORE PUSH1 0x4 ADD PUSH2 0x85F SWAP1 PUSH2 0x448E JUMP JUMPDEST PUSH1 0x0 DUP3 DUP3 GT ISZERO PUSH2 0x2546 JUMPI PUSH1 0x40 MLOAD PUSH3 0x461BCD PUSH1 0xE5 SHL DUP2 MSTORE PUSH1 0x4 ADD PUSH2 0x85F SWAP1 PUSH2 0x458E JUMP JUMPDEST POP SWAP1 SUB SWAP1 JUMP JUMPDEST PUSH1 0x8 SLOAD PUSH1 0x40 MLOAD PUSH1 0x1 PUSH1 0x1 PUSH1 0xA0 SHL SUB SWAP1 SWAP2 AND SWAP1 PUSH4 0xF2B06537 SWAP1 PUSH2 0x257A SWAP1 DUP9 SWAP1 DUP9 SWAP1 DUP9 SWAP1 DUP9 SWAP1 DUP9 SWAP1 PUSH1 0x20 ADD PUSH2 0x417B JUMP JUMPDEST PUSH1 0x40 MLOAD PUSH1 0x20 DUP2 DUP4 SUB SUB DUP2 MSTORE SWAP1 PUSH1 0x40 MSTORE DUP1 MLOAD SWAP1 PUSH1 0x20 ADD KECCAK256 PUSH1 0x40 MLOAD DUP3 PUSH4 0xFFFFFFFF AND PUSH1 0xE0 SHL DUP2 MSTORE PUSH1 0x4 ADD PUSH2 0x25AC SWAP2 SWAP1 PUSH2 0x4271 JUMP JUMPDEST PUSH1 0x20 PUSH1 0x40 MLOAD DUP1 DUP4 SUB DUP2 DUP7 DUP1 EXTCODESIZE ISZERO DUP1 ISZERO PUSH2 0x25C4 JUMPI PUSH1 0x0 DUP1 REVERT JUMPDEST POP GAS STATICCALL ISZERO DUP1 ISZERO PUSH2 0x25D8 JUMPI RETURNDATASIZE PUSH1 0x0 DUP1 RETURNDATACOPY RETURNDATASIZE PUSH1 0x0 REVERT JUMPDEST POP POP POP POP PUSH1 0x40 MLOAD RETURNDATASIZE PUSH1 0x1F NOT PUSH1 0x1F DUP3 ADD AND DUP3 ADD DUP1 PUSH1 0x40 MSTORE POP PUSH2 0x25FC SWAP2 SWAP1 DUP2 ADD SWAP1 PUSH2 0x2E5A JUMP JUMPDEST ISZERO PUSH2 0x2619 JUMPI PUSH1 0x40 MLOAD PUSH3 0x461BCD PUSH1 0xE5 SHL DUP2 MSTORE PUSH1 0x4 ADD PUSH2 0x85F SWAP1 PUSH2 0x436E JUMP JUMPDEST PUSH1 0x8 SLOAD PUSH1 0x40 MLOAD PUSH4 0x3A66F901 PUSH1 0xE0 SHL DUP2 MSTORE PUSH1 0x1 PUSH1 0x1 PUSH1 0xA0 SHL SUB SWAP1 SWAP2 AND SWAP1 PUSH4 0x3A66F901 SWAP1 PUSH2 0x2651 SWAP1 DUP9 SWAP1 DUP9 SWAP1 DUP9 SWAP1 DUP9 SWAP1 DUP9 SWAP1 PUSH1 0x4 ADD PUSH2 0x417B JUMP JUMPDEST PUSH1 0x20 PUSH1 0x40 MLOAD DUP1 DUP4 SUB DUP2 PUSH1 0x0 DUP8 DUP1 EXTCODESIZE ISZERO DUP1 ISZERO PUSH2 0x266B JUMPI PUSH1 0x0 DUP1 REVERT JUMPDEST POP GAS CALL ISZERO DUP1 ISZERO PUSH2 0x267F JUMPI RETURNDATASIZE PUSH1 0x0 DUP1 RETURNDATACOPY RETURNDATASIZE PUSH1 0x0 REVERT JUMPDEST POP POP POP POP PUSH1 0x40 MLOAD RETURNDATASIZE PUSH1 0x1F NOT PUSH1 0x1F DUP3 ADD AND DUP3 ADD DUP1 PUSH1 0x40 MSTORE POP PUSH2 0x26A3 SWAP2 SWAP1 DUP2 ADD SWAP1 PUSH2 0x2E78 JUMP JUMPDEST POP POP POP POP POP POP JUMP JUMPDEST PUSH1 0x40 MLOAD DUP1 PUSH2 0x1C0 ADD PUSH1 0x40 MSTORE DUP1 PUSH1 0x0 DUP2 MSTORE PUSH1 0x20 ADD PUSH1 0x0 PUSH1 0x1 PUSH1 0x1 PUSH1 0xA0 SHL SUB AND DUP2 MSTORE PUSH1 0x20 ADD PUSH1 0x0 DUP2 MSTORE PUSH1 0x20 ADD PUSH1 0x60 DUP2 MSTORE PUSH1 0x20 ADD PUSH1 0x60 DUP2 MSTORE PUSH1 0x20 ADD PUSH1 0x60 DUP2 MSTORE PUSH1 0x20 ADD PUSH1 0x60 DUP2 MSTORE PUSH1 0x20 ADD PUSH1 0x0 DUP2 MSTORE PUSH1 0x20 ADD PUSH1 0x0 DUP2 MSTORE PUSH1 0x20 ADD PUSH1 0x0 DUP2 MSTORE PUSH1 0x20 ADD PUSH1 0x0 DUP2 MSTORE PUSH1 0x20 ADD PUSH1 0x0 DUP2 MSTORE PUSH1 0x20 ADD PUSH1 0x0 ISZERO ISZERO DUP2 MSTORE PUSH1 0x20 ADD PUSH1 0x0 ISZERO ISZERO DUP2 MSTORE POP SWAP1 JUMP JUMPDEST DUP3 DUP1 SLOAD DUP3 DUP3 SSTORE SWAP1 PUSH1 0x0 MSTORE PUSH1 0x20 PUSH1 0x0 KECCAK256 SWAP1 DUP2 ADD SWAP3 DUP3 ISZERO PUSH2 0x277C JUMPI SWAP2 PUSH1 0x20 MUL DUP3 ADD JUMPDEST DUP3 DUP2 GT ISZERO PUSH2 0x277C JUMPI DUP3 MLOAD DUP3 SLOAD PUSH1 0x1 PUSH1 0x1 PUSH1 0xA0 SHL SUB NOT AND PUSH1 0x1 PUSH1 0x1 PUSH1 0xA0 SHL SUB SWAP1 SWAP2 AND OR DUP3 SSTORE PUSH1 0x20 SWAP1 SWAP3 ADD SWAP2 PUSH1 0x1 SWAP1 SWAP2 ADD SWAP1 PUSH2 0x2747 JUMP JUMPDEST POP PUSH2 0x2788 SWAP3 SWAP2 POP PUSH2 0x28A5 JUMP JUMPDEST POP SWAP1 JUMP JUMPDEST DUP3 DUP1 SLOAD DUP3 DUP3 SSTORE SWAP1 PUSH1 0x0 MSTORE PUSH1 0x20 PUSH1 0x0 KECCAK256 SWAP1 DUP2 ADD SWAP3 DUP3 ISZERO PUSH2 0x27C7 JUMPI SWAP2 PUSH1 0x20 MUL DUP3 ADD JUMPDEST DUP3 DUP2 GT ISZERO PUSH2 0x27C7 JUMPI DUP3 MLOAD DUP3 SSTORE SWAP2 PUSH1 0x20 ADD SWAP2 SWAP1 PUSH1 0x1 ADD SWAP1 PUSH2 0x27AC JUMP JUMPDEST POP PUSH2 0x2788 SWAP3 SWAP2 POP PUSH2 0x28C9 JUMP JUMPDEST DUP3 DUP1 SLOAD DUP3 DUP3 SSTORE SWAP1 PUSH1 0x0 MSTORE PUSH1 0x20 PUSH1 0x0 KECCAK256 SWAP1 DUP2 ADD SWAP3 DUP3 ISZERO PUSH2 0x2820 JUMPI SWAP2 PUSH1 0x20 MUL DUP3 ADD JUMPDEST DUP3 DUP2 GT ISZERO PUSH2 0x2820 JUMPI DUP3 MLOAD DUP1 MLOAD PUSH2 0x2810 SWAP2 DUP5 SWAP2 PUSH1 0x20 SWAP1 SWAP2 ADD SWAP1 PUSH2 0x28E3 JUMP JUMPDEST POP SWAP2 PUSH1 0x20 ADD SWAP2 SWAP1 PUSH1 0x1 ADD SWAP1 PUSH2 0x27F3 JUMP JUMPDEST POP PUSH2 0x2788 SWAP3 SWAP2 POP PUSH2 0x2950 JUMP JUMPDEST DUP3 DUP1 SLOAD DUP3 DUP3 SSTORE SWAP1 PUSH1 0x0 MSTORE PUSH1 0x20 PUSH1 0x0 KECCAK256 SWAP1 DUP2 ADD SWAP3 DUP3 ISZERO PUSH2 0x2879 JUMPI SWAP2 PUSH1 0x20 MUL DUP3 ADD JUMPDEST DUP3 DUP2 GT ISZERO PUSH2 0x2879 JUMPI DUP3 MLOAD DUP1 MLOAD PUSH2 0x2869 SWAP2 DUP5 SWAP2 PUSH1 0x20 SWAP1 SWAP2 ADD SWAP1 PUSH2 0x28E3 JUMP JUMPDEST POP SWAP2 PUSH1 0x20 ADD SWAP2 SWAP1 PUSH1 0x1 ADD SWAP1 PUSH2 0x284C JUMP JUMPDEST POP PUSH2 0x2788 SWAP3 SWAP2 POP PUSH2 0x2973 JUMP JUMPDEST PUSH1 0x40 DUP1 MLOAD PUSH1 0x60 DUP2 ADD DUP3 MSTORE PUSH1 0x0 DUP1 DUP3 MSTORE PUSH1 0x20 DUP3 ADD DUP2 SWAP1 MSTORE SWAP2 DUP2 ADD SWAP2 SWAP1 SWAP2 MSTORE SWAP1 JUMP JUMPDEST PUSH2 0x230B SWAP2 SWAP1 JUMPDEST DUP1 DUP3 GT ISZERO PUSH2 0x2788 JUMPI DUP1 SLOAD PUSH1 0x1 PUSH1 0x1 PUSH1 0xA0 SHL SUB NOT AND DUP2 SSTORE PUSH1 0x1 ADD PUSH2 0x28AB JUMP JUMPDEST PUSH2 0x230B SWAP2 SWAP1 JUMPDEST DUP1 DUP3 GT ISZERO PUSH2 0x2788 JUMPI PUSH1 0x0 DUP2 SSTORE PUSH1 0x1 ADD PUSH2 0x28CF JUMP JUMPDEST DUP3 DUP1 SLOAD PUSH1 0x1 DUP2 PUSH1 0x1 AND ISZERO PUSH2 0x100 MUL SUB AND PUSH1 0x2 SWAP1 DIV SWAP1 PUSH1 0x0 MSTORE PUSH1 0x20 PUSH1 0x0 KECCAK256 SWAP1 PUSH1 0x1F ADD PUSH1 0x20 SWAP1 DIV DUP2 ADD SWAP3 DUP3 PUSH1 0x1F LT PUSH2 0x2924 JUMPI DUP1 MLOAD PUSH1 0xFF NOT AND DUP4 DUP1 ADD OR DUP6 SSTORE PUSH2 0x27C7 JUMP JUMPDEST DUP3 DUP1 ADD PUSH1 0x1 ADD DUP6 SSTORE DUP3 ISZERO PUSH2 0x27C7 JUMPI SWAP2 DUP3 ADD DUP3 DUP2 GT ISZERO PUSH2 0x27C7 JUMPI DUP3 MLOAD DUP3 SSTORE SWAP2 PUSH1 0x20 ADD SWAP2 SWAP1 PUSH1 0x1 ADD SWAP1 PUSH2 0x27AC JUMP JUMPDEST PUSH2 0x230B SWAP2 SWAP1 JUMPDEST DUP1 DUP3 GT ISZERO PUSH2 0x2788 JUMPI PUSH1 0x0 PUSH2 0x296A DUP3 DUP3 PUSH2 0x2996 JUMP JUMPDEST POP PUSH1 0x1 ADD PUSH2 0x2956 JUMP JUMPDEST PUSH2 0x230B SWAP2 SWAP1 JUMPDEST DUP1 DUP3 GT ISZERO PUSH2 0x2788 JUMPI PUSH1 0x0 PUSH2 0x298D DUP3 DUP3 PUSH2 0x2996 JUMP JUMPDEST POP PUSH1 0x1 ADD PUSH2 0x2979 JUMP JUMPDEST POP DUP1 SLOAD PUSH1 0x1 DUP2 PUSH1 0x1 AND ISZERO PUSH2 0x100 MUL SUB AND PUSH1 0x2 SWAP1 DIV PUSH1 0x0 DUP3 SSTORE DUP1 PUSH1 0x1F LT PUSH2 0x29BC JUMPI POP PUSH2 0x29DA JUMP JUMPDEST PUSH1 0x1F ADD PUSH1 0x20 SWAP1 DIV SWAP1 PUSH1 0x0 MSTORE PUSH1 0x20 PUSH1 0x0 KECCAK256 SWAP1 DUP2 ADD SWAP1 PUSH2 0x29DA SWAP2 SWAP1 PUSH2 0x28C9 JUMP JUMPDEST POP JUMP JUMPDEST DUP1 CALLDATALOAD PUSH2 0x1F2C DUP2 PUSH2 0x48B2 JUMP JUMPDEST PUSH1 0x0 DUP3 PUSH1 0x1F DUP4 ADD SLT PUSH2 0x29F9 JUMPI PUSH1 0x0 DUP1 REVERT JUMPDEST DUP2 CALLDATALOAD PUSH2 0x2A0C PUSH2 0x2A07 DUP3 PUSH2 0x479E JUMP JUMPDEST PUSH2 0x4777 JUMP JUMPDEST SWAP2 POP DUP2 DUP2 DUP4 MSTORE PUSH1 0x20 DUP5 ADD SWAP4 POP PUSH1 0x20 DUP2 ADD SWAP1 POP DUP4 DUP6 PUSH1 0x20 DUP5 MUL DUP3 ADD GT ISZERO PUSH2 0x2A31 JUMPI PUSH1 0x0 DUP1 REVERT JUMPDEST PUSH1 0x0 JUMPDEST DUP4 DUP2 LT ISZERO PUSH2 0x2A5D JUMPI DUP2 PUSH2 0x2A47 DUP9 DUP3 PUSH2 0x29DD JUMP JUMPDEST DUP5 MSTORE POP PUSH1 0x20 SWAP3 DUP4 ADD SWAP3 SWAP2 SWAP1 SWAP2 ADD SWAP1 PUSH1 0x1 ADD PUSH2 0x2A34 JUMP JUMPDEST POP POP POP POP SWAP3 SWAP2 POP POP JUMP JUMPDEST PUSH1 0x0 DUP3 PUSH1 0x1F DUP4 ADD SLT PUSH2 0x2A78 JUMPI PUSH1 0x0 DUP1 REVERT JUMPDEST DUP2 CALLDATALOAD PUSH2 0x2A86 PUSH2 0x2A07 DUP3 PUSH2 0x479E JUMP JUMPDEST DUP2 DUP2 MSTORE PUSH1 0x20 SWAP4 DUP5 ADD SWAP4 SWAP1 SWAP3 POP DUP3 ADD DUP4 PUSH1 0x0 JUMPDEST DUP4 DUP2 LT ISZERO PUSH2 0x2A5D JUMPI DUP2 CALLDATALOAD DUP7 ADD PUSH2 0x2AAE DUP9 DUP3 PUSH2 0x2BB2 JUMP JUMPDEST DUP5 MSTORE POP PUSH1 0x20 SWAP3 DUP4 ADD SWAP3 SWAP2 SWAP1 SWAP2 ADD SWAP1 PUSH1 0x1 ADD PUSH2 0x2A98 JUMP JUMPDEST PUSH1 0x0 DUP3 PUSH1 0x1F DUP4 ADD SLT PUSH2 0x2AD5 JUMPI PUSH1 0x0 DUP1 REVERT JUMPDEST DUP2 CALLDATALOAD PUSH2 0x2AE3 PUSH2 0x2A07 DUP3 PUSH2 0x479E JUMP JUMPDEST DUP2 DUP2 MSTORE PUSH1 0x20 SWAP4 DUP5 ADD SWAP4 SWAP1 SWAP3 POP DUP3 ADD DUP4 PUSH1 0x0 JUMPDEST DUP4 DUP2 LT ISZERO PUSH2 0x2A5D JUMPI DUP2 CALLDATALOAD DUP7 ADD PUSH2 0x2B0B DUP9 DUP3 PUSH2 0x2BB2 JUMP JUMPDEST DUP5 MSTORE POP PUSH1 0x20 SWAP3 DUP4 ADD SWAP3 SWAP2 SWAP1 SWAP2 ADD SWAP1 PUSH1 0x1 ADD PUSH2 0x2AF5 JUMP JUMPDEST PUSH1 0x0 DUP3 PUSH1 0x1F DUP4 ADD SLT PUSH2 0x2B32 JUMPI PUSH1 0x0 DUP1 REVERT JUMPDEST DUP2 CALLDATALOAD PUSH2 0x2B40 PUSH2 0x2A07 DUP3 PUSH2 0x479E JUMP JUMPDEST SWAP2 POP DUP2 DUP2 DUP4 MSTORE PUSH1 0x20 DUP5 ADD SWAP4 POP PUSH1 0x20 DUP2 ADD SWAP1 POP DUP4 DUP6 PUSH1 0x20 DUP5 MUL DUP3 ADD GT ISZERO PUSH2 0x2B65 JUMPI PUSH1 0x0 DUP1 REVERT JUMPDEST PUSH1 0x0 JUMPDEST DUP4 DUP2 LT ISZERO PUSH2 0x2A5D JUMPI DUP2 PUSH2 0x2B7B DUP9 DUP3 PUSH2 0x2B9C JUMP JUMPDEST DUP5 MSTORE POP PUSH1 0x20 SWAP3 DUP4 ADD SWAP3 SWAP2 SWAP1 SWAP2 ADD SWAP1 PUSH1 0x1 ADD PUSH2 0x2B68 JUMP JUMPDEST DUP1 MLOAD PUSH2 0x1F2C DUP2 PUSH2 0x48C6 JUMP JUMPDEST DUP1 CALLDATALOAD PUSH2 0x1F2C DUP2 PUSH2 0x48CF JUMP JUMPDEST DUP1 MLOAD PUSH2 0x1F2C DUP2 PUSH2 0x48CF JUMP JUMPDEST PUSH1 0x0 DUP3 PUSH1 0x1F DUP4 ADD SLT PUSH2 0x2BC3 JUMPI PUSH1 0x0 DUP1 REVERT JUMPDEST DUP2 CALLDATALOAD PUSH2 0x2BD1 PUSH2 0x2A07 DUP3 PUSH2 0x47BF JUMP JUMPDEST SWAP2 POP DUP1 DUP3 MSTORE PUSH1 0x20 DUP4 ADD PUSH1 0x20 DUP4 ADD DUP6 DUP4 DUP4 ADD GT ISZERO PUSH2 0x2BED JUMPI PUSH1 0x0 DUP1 REVERT JUMPDEST PUSH2 0x2BF8 DUP4 DUP3 DUP5 PUSH2 0x4866 JUMP JUMPDEST POP POP POP SWAP3 SWAP2 POP POP JUMP JUMPDEST PUSH1 0x0 DUP3 PUSH1 0x1F DUP4 ADD SLT PUSH2 0x2C12 JUMPI PUSH1 0x0 DUP1 REVERT JUMPDEST DUP2 MLOAD PUSH2 0x2C20 PUSH2 0x2A07 DUP3 PUSH2 0x47BF JUMP JUMPDEST SWAP2 POP DUP1 DUP3 MSTORE PUSH1 0x20 DUP4 ADD PUSH1 0x20 DUP4 ADD DUP6 DUP4 DUP4 ADD GT ISZERO PUSH2 0x2C3C JUMPI PUSH1 0x0 DUP1 REVERT JUMPDEST PUSH2 0x2BF8 DUP4 DUP3 DUP5 PUSH2 0x4872 JUMP JUMPDEST PUSH1 0x0 DUP1 DUP4 PUSH1 0x1F DUP5 ADD SLT PUSH2 0x2C59 JUMPI PUSH1 0x0 DUP1 REVERT JUMPDEST POP DUP2 CALLDATALOAD PUSH8 0xFFFFFFFFFFFFFFFF DUP2 GT ISZERO PUSH2 0x2C71 JUMPI PUSH1 0x0 DUP1 REVERT JUMPDEST PUSH1 0x20 DUP4 ADD SWAP2 POP DUP4 PUSH1 0x1 DUP3 MUL DUP4 ADD GT ISZERO PUSH2 0x2C89 JUMPI PUSH1 0x0 DUP1 REVERT JUMPDEST SWAP3 POP SWAP3 SWAP1 POP JUMP JUMPDEST DUP1 CALLDATALOAD PUSH2 0x1F2C DUP2 PUSH2 0x48D8 JUMP JUMPDEST DUP1 MLOAD PUSH2 0x1F2C DUP2 PUSH2 0x48E1 JUMP JUMPDEST PUSH1 0x0 PUSH1 0x20 DUP3 DUP5 SUB SLT ISZERO PUSH2 0x2CB8 JUMPI PUSH1 0x0 DUP1 REVERT JUMPDEST PUSH1 0x0 PUSH2 0x2CC4 DUP5 DUP5 PUSH2 0x29DD JUMP JUMPDEST SWAP5 SWAP4 POP POP POP POP JUMP JUMPDEST PUSH1 0x0 DUP1 PUSH1 0x0 DUP1 PUSH1 0x0 PUSH1 0xA0 DUP7 DUP9 SUB SLT ISZERO PUSH2 0x2CE4 JUMPI PUSH1 0x0 DUP1 REVERT JUMPDEST PUSH1 0x0 PUSH2 0x2CF0 DUP9 DUP9 PUSH2 0x29DD JUMP JUMPDEST SWAP6 POP POP PUSH1 0x20 PUSH2 0x2D01 DUP9 DUP3 DUP10 ADD PUSH2 0x29DD JUMP JUMPDEST SWAP5 POP POP PUSH1 0x40 PUSH2 0x2D12 DUP9 DUP3 DUP10 ADD PUSH2 0x2B9C JUMP JUMPDEST SWAP4 POP POP PUSH1 0x60 PUSH2 0x2D23 DUP9 DUP3 DUP10 ADD PUSH2 0x2B9C JUMP JUMPDEST SWAP3 POP POP PUSH1 0x80 PUSH2 0x2D34 DUP9 DUP3 DUP10 ADD PUSH2 0x2B9C JUMP JUMPDEST SWAP2 POP POP SWAP3 SWAP6 POP SWAP3 SWAP6 SWAP1 SWAP4 POP JUMP JUMPDEST PUSH1 0x0 DUP1 PUSH1 0x40 DUP4 DUP6 SUB SLT ISZERO PUSH2 0x2D54 JUMPI PUSH1 0x0 DUP1 REVERT JUMPDEST PUSH1 0x0 PUSH2 0x2D60 DUP6 DUP6 PUSH2 0x29DD JUMP JUMPDEST SWAP3 POP POP PUSH1 0x20 PUSH2 0x2D71 DUP6 DUP3 DUP7 ADD PUSH2 0x2B9C JUMP JUMPDEST SWAP2 POP POP SWAP3 POP SWAP3 SWAP1 POP JUMP JUMPDEST PUSH1 0x0 DUP1 PUSH1 0x0 DUP1 PUSH1 0x0 PUSH1 0xA0 DUP7 DUP9 SUB SLT ISZERO PUSH2 0x2D93 JUMPI PUSH1 0x0 DUP1 REVERT JUMPDEST DUP6 CALLDATALOAD PUSH8 0xFFFFFFFFFFFFFFFF DUP2 GT ISZERO PUSH2 0x2DAA JUMPI PUSH1 0x0 DUP1 REVERT JUMPDEST PUSH2 0x2DB6 DUP9 DUP3 DUP10 ADD PUSH2 0x29E8 JUMP JUMPDEST SWAP6 POP POP PUSH1 0x20 DUP7 ADD CALLDATALOAD PUSH8 0xFFFFFFFFFFFFFFFF DUP2 GT ISZERO PUSH2 0x2DD3 JUMPI PUSH1 0x0 DUP1 REVERT JUMPDEST PUSH2 0x2DDF DUP9 DUP3 DUP10 ADD PUSH2 0x2B21 JUMP JUMPDEST SWAP5 POP POP PUSH1 0x40 DUP7 ADD CALLDATALOAD PUSH8 0xFFFFFFFFFFFFFFFF DUP2 GT ISZERO PUSH2 0x2DFC JUMPI PUSH1 0x0 DUP1 REVERT JUMPDEST PUSH2 0x2E08 DUP9 DUP3 DUP10 ADD PUSH2 0x2AC4 JUMP JUMPDEST SWAP4 POP POP PUSH1 0x60 DUP7 ADD CALLDATALOAD PUSH8 0xFFFFFFFFFFFFFFFF DUP2 GT ISZERO PUSH2 0x2E25 JUMPI PUSH1 0x0 DUP1 REVERT JUMPDEST PUSH2 0x2E31 DUP9 DUP3 DUP10 ADD PUSH2 0x2A67 JUMP JUMPDEST SWAP3 POP POP PUSH1 0x80 DUP7 ADD CALLDATALOAD PUSH8 0xFFFFFFFFFFFFFFFF DUP2 GT ISZERO PUSH2 0x2E4E JUMPI PUSH1 0x0 DUP1 REVERT JUMPDEST PUSH2 0x2D34 DUP9 DUP3 DUP10 ADD PUSH2 0x2BB2 JUMP JUMPDEST PUSH1 0x0 PUSH1 0x20 DUP3 DUP5 SUB SLT ISZERO PUSH2 0x2E6C JUMPI PUSH1 0x0 DUP1 REVERT JUMPDEST PUSH1 0x0 PUSH2 0x2CC4 DUP5 DUP5 PUSH2 0x2B91 JUMP JUMPDEST PUSH1 0x0 PUSH1 0x20 DUP3 DUP5 SUB SLT ISZERO PUSH2 0x2E8A JUMPI PUSH1 0x0 DUP1 REVERT JUMPDEST PUSH1 0x0 PUSH2 0x2CC4 DUP5 DUP5 PUSH2 0x2BA7 JUMP JUMPDEST PUSH1 0x0 PUSH1 0x20 DUP3 DUP5 SUB SLT ISZERO PUSH2 0x2EA8 JUMPI PUSH1 0x0 DUP1 REVERT JUMPDEST DUP2 MLOAD PUSH8 0xFFFFFFFFFFFFFFFF DUP2 GT ISZERO PUSH2 0x2EBF JUMPI PUSH1 0x0 DUP1 REVERT JUMPDEST PUSH2 0x2CC4 DUP5 DUP3 DUP6 ADD PUSH2 0x2C01 JUMP JUMPDEST PUSH1 0x0 PUSH1 0x20 DUP3 DUP5 SUB SLT ISZERO PUSH2 0x2EDD JUMPI PUSH1 0x0 DUP1 REVERT JUMPDEST PUSH1 0x0 PUSH2 0x2CC4 DUP5 DUP5 PUSH2 0x2B9C JUMP JUMPDEST PUSH1 0x0 DUP1 PUSH1 0x40 DUP4 DUP6 SUB SLT ISZERO PUSH2 0x2EFC JUMPI PUSH1 0x0 DUP1 REVERT JUMPDEST PUSH1 0x0 PUSH2 0x2F08 DUP6 DUP6 PUSH2 0x2B9C JUMP JUMPDEST SWAP3 POP POP PUSH1 0x20 PUSH2 0x2D71 DUP6 DUP3 DUP7 ADD PUSH2 0x29DD JUMP JUMPDEST PUSH1 0x0 DUP1 PUSH1 0x40 DUP4 DUP6 SUB SLT ISZERO PUSH2 0x2F2C JUMPI PUSH1 0x0 DUP1 REVERT JUMPDEST PUSH1 0x0 PUSH2 0x2F38 DUP6 DUP6 PUSH2 0x2B9C JUMP JUMPDEST SWAP3 POP POP PUSH1 0x20 PUSH2 0x2D71 DUP6 DUP3 DUP7 ADD PUSH2 0x2C90 JUMP JUMPDEST PUSH1 0x0 DUP1 PUSH1 0x0 DUP1 PUSH1 0x60 DUP6 DUP8 SUB SLT ISZERO PUSH2 0x2F5F JUMPI PUSH1 0x0 DUP1 REVERT JUMPDEST PUSH1 0x0 PUSH2 0x2F6B DUP8 DUP8 PUSH2 0x2B9C JUMP JUMPDEST SWAP5 POP POP PUSH1 0x20 PUSH2 0x2F7C DUP8 DUP3 DUP9 ADD PUSH2 0x2C90 JUMP JUMPDEST SWAP4 POP POP PUSH1 0x40 DUP6 ADD CALLDATALOAD PUSH8 0xFFFFFFFFFFFFFFFF DUP2 GT ISZERO PUSH2 0x2F99 JUMPI PUSH1 0x0 DUP1 REVERT JUMPDEST PUSH2 0x2FA5 DUP8 DUP3 DUP9 ADD PUSH2 0x2C47 JUMP JUMPDEST SWAP6 SWAP9 SWAP5 SWAP8 POP SWAP6 POP POP POP POP JUMP JUMPDEST PUSH1 0x0 DUP1 PUSH1 0x0 DUP1 PUSH1 0x0 PUSH1 0xA0 DUP7 DUP9 SUB SLT ISZERO PUSH2 0x2FC9 JUMPI PUSH1 0x0 DUP1 REVERT JUMPDEST PUSH1 0x0 PUSH2 0x2FD5 DUP9 DUP9 PUSH2 0x2B9C JUMP JUMPDEST SWAP6 POP POP PUSH1 0x20 PUSH2 0x2FE6 DUP9 DUP3 DUP10 ADD PUSH2 0x2C90 JUMP JUMPDEST SWAP5 POP POP PUSH1 0x40 PUSH2 0x2D12 DUP9 DUP3 DUP10 ADD PUSH2 0x2C90 JUMP JUMPDEST PUSH1 0x0 PUSH1 0x20 DUP3 DUP5 SUB SLT ISZERO PUSH2 0x3009 JUMPI PUSH1 0x0 DUP1 REVERT JUMPDEST PUSH1 0x0 PUSH2 0x2CC4 DUP5 DUP5 PUSH2 0x2C9B JUMP JUMPDEST PUSH1 0x0 PUSH2 0x3021 DUP4 DUP4 PUSH2 0x3050 JUMP JUMPDEST POP POP PUSH1 0x20 ADD SWAP1 JUMP JUMPDEST PUSH1 0x0 PUSH2 0x24F8 DUP4 DUP4 PUSH2 0x31F2 JUMP JUMPDEST PUSH1 0x0 PUSH2 0x3021 DUP4 DUP4 PUSH2 0x31D8 JUMP JUMPDEST PUSH2 0x304A DUP2 PUSH2 0x483E JUMP JUMPDEST DUP3 MSTORE POP POP JUMP JUMPDEST PUSH2 0x304A DUP2 PUSH2 0x4806 JUMP JUMPDEST PUSH1 0x0 PUSH2 0x3064 DUP3 PUSH2 0x47F9 JUMP JUMPDEST PUSH2 0x306E DUP2 DUP6 PUSH2 0x47FD JUMP JUMPDEST SWAP4 POP PUSH2 0x3079 DUP4 PUSH2 0x47E7 JUMP JUMPDEST DUP1 PUSH1 0x0 JUMPDEST DUP4 DUP2 LT ISZERO PUSH2 0x30A7 JUMPI DUP2 MLOAD PUSH2 0x3091 DUP9 DUP3 PUSH2 0x3015 JUMP JUMPDEST SWAP8 POP PUSH2 0x309C DUP4 PUSH2 0x47E7 JUMP JUMPDEST SWAP3 POP POP PUSH1 0x1 ADD PUSH2 0x307D JUMP JUMPDEST POP SWAP5 SWAP6 SWAP5 POP POP POP POP POP JUMP JUMPDEST PUSH1 0x0 PUSH2 0x30BD DUP3 PUSH2 0x47F9 JUMP JUMPDEST PUSH2 0x30C7 DUP2 DUP6 PUSH2 0x47FD JUMP JUMPDEST SWAP4 POP DUP4 PUSH1 0x20 DUP3 MUL DUP6 ADD PUSH2 0x30D9 DUP6 PUSH2 0x47E7 JUMP JUMPDEST DUP1 PUSH1 0x0 JUMPDEST DUP6 DUP2 LT ISZERO PUSH2 0x3113 JUMPI DUP5 DUP5 SUB DUP10 MSTORE DUP2 MLOAD PUSH2 0x30F6 DUP6 DUP3 PUSH2 0x3029 JUMP JUMPDEST SWAP5 POP PUSH2 0x3101 DUP4 PUSH2 0x47E7 JUMP JUMPDEST PUSH1 0x20 SWAP11 SWAP1 SWAP11 ADD SWAP10 SWAP3 POP POP PUSH1 0x1 ADD PUSH2 0x30DD JUMP JUMPDEST POP SWAP2 SWAP8 SWAP7 POP POP POP POP POP POP POP JUMP JUMPDEST PUSH1 0x0 PUSH2 0x312B DUP3 PUSH2 0x47F9 JUMP JUMPDEST PUSH2 0x3135 DUP2 DUP6 PUSH2 0x47FD JUMP JUMPDEST SWAP4 POP DUP4 PUSH1 0x20 DUP3 MUL DUP6 ADD PUSH2 0x3147 DUP6 PUSH2 0x47E7 JUMP JUMPDEST DUP1 PUSH1 0x0 JUMPDEST DUP6 DUP2 LT ISZERO PUSH2 0x3113 JUMPI DUP5 DUP5 SUB DUP10 MSTORE DUP2 MLOAD PUSH2 0x3164 DUP6 DUP3 PUSH2 0x3029 JUMP JUMPDEST SWAP5 POP PUSH2 0x316F DUP4 PUSH2 0x47E7 JUMP JUMPDEST PUSH1 0x20 SWAP11 SWAP1 SWAP11 ADD SWAP10 SWAP3 POP POP PUSH1 0x1 ADD PUSH2 0x314B JUMP JUMPDEST PUSH1 0x0 PUSH2 0x318C DUP3 PUSH2 0x47F9 JUMP JUMPDEST PUSH2 0x3196 DUP2 DUP6 PUSH2 0x47FD JUMP JUMPDEST SWAP4 POP PUSH2 0x31A1 DUP4 PUSH2 0x47E7 JUMP JUMPDEST DUP1 PUSH1 0x0 JUMPDEST DUP4 DUP2 LT ISZERO PUSH2 0x30A7 JUMPI DUP2 MLOAD PUSH2 0x31B9 DUP9 DUP3 PUSH2 0x3035 JUMP JUMPDEST SWAP8 POP PUSH2 0x31C4 DUP4 PUSH2 0x47E7 JUMP JUMPDEST SWAP3 POP POP PUSH1 0x1 ADD PUSH2 0x31A5 JUMP JUMPDEST PUSH2 0x304A DUP2 PUSH2 0x4811 JUMP JUMPDEST PUSH2 0x304A DUP2 PUSH2 0x230B JUMP JUMPDEST PUSH2 0x304A PUSH2 0x31ED DUP3 PUSH2 0x230B JUMP JUMPDEST PUSH2 0x230B JUMP JUMPDEST PUSH1 0x0 PUSH2 0x31FD DUP3 PUSH2 0x47F9 JUMP JUMPDEST PUSH2 0x3207 DUP2 DUP6 PUSH2 0x47FD JUMP JUMPDEST SWAP4 POP PUSH2 0x3217 DUP2 DUP6 PUSH1 0x20 DUP7 ADD PUSH2 0x4872 JUMP JUMPDEST PUSH2 0x3220 DUP2 PUSH2 0x489E JUMP JUMPDEST SWAP1 SWAP4 ADD SWAP4 SWAP3 POP POP POP JUMP JUMPDEST PUSH1 0x0 DUP2 SLOAD PUSH1 0x1 DUP2 AND PUSH1 0x0 DUP2 EQ PUSH2 0x3247 JUMPI PUSH1 0x1 DUP2 EQ PUSH2 0x326D JUMPI PUSH2 0x32AC JUMP JUMPDEST PUSH1 0x7F PUSH1 0x2 DUP4 DIV AND PUSH2 0x3258 DUP2 DUP8 PUSH2 0x47FD JUMP JUMPDEST PUSH1 0xFF NOT DUP5 AND DUP2 MSTORE SWAP6 POP POP PUSH1 0x20 DUP6 ADD SWAP3 POP PUSH2 0x32AC JUMP JUMPDEST PUSH1 0x2 DUP3 DIV PUSH2 0x327B DUP2 DUP8 PUSH2 0x47FD JUMP JUMPDEST SWAP6 POP PUSH2 0x3286 DUP6 PUSH2 0x47ED JUMP JUMPDEST PUSH1 0x0 JUMPDEST DUP3 DUP2 LT ISZERO PUSH2 0x32A5 JUMPI DUP2 SLOAD DUP9 DUP3 ADD MSTORE PUSH1 0x1 SWAP1 SWAP2 ADD SWAP1 PUSH1 0x20 ADD PUSH2 0x3289 JUMP JUMPDEST DUP8 ADD SWAP5 POP POP POP JUMPDEST POP POP SWAP3 SWAP2 POP POP JUMP JUMPDEST PUSH2 0x304A DUP2 PUSH2 0x4845 JUMP JUMPDEST PUSH2 0x304A DUP2 PUSH2 0x4850 JUMP JUMPDEST PUSH1 0x0 PUSH2 0x32D2 DUP4 DUP6 PUSH2 0x47FD JUMP JUMPDEST SWAP4 POP PUSH2 0x32DF DUP4 DUP6 DUP5 PUSH2 0x4866 JUMP JUMPDEST PUSH2 0x3220 DUP4 PUSH2 0x489E JUMP JUMPDEST PUSH1 0x0 PUSH2 0x32F5 PUSH1 0x32 DUP4 PUSH2 0x47FD JUMP JUMPDEST PUSH32 0x476F7665726E6F72427261766F3A3A63617374566F7465496E7465726E616C3A DUP2 MSTORE PUSH18 0x20696E76616C696420766F74652074797065 PUSH1 0x70 SHL PUSH1 0x20 DUP3 ADD MSTORE PUSH1 0x40 ADD SWAP3 SWAP2 POP POP JUMP JUMPDEST PUSH1 0x0 PUSH2 0x3349 PUSH1 0x28 DUP4 PUSH2 0xD42 JUMP JUMPDEST PUSH32 0x42616C6C6F742875696E743235362070726F706F73616C49642C75696E743820 DUP2 MSTORE PUSH8 0x737570706F727429 PUSH1 0xC0 SHL PUSH1 0x20 DUP3 ADD MSTORE PUSH1 0x28 ADD SWAP3 SWAP2 POP POP JUMP JUMPDEST PUSH1 0x0 PUSH2 0x3393 PUSH1 0x33 DUP4 PUSH2 0x47FD JUMP JUMPDEST PUSH32 0x476F7665726E6F72427261766F3A3A696E697469616C697A653A2063616E206F DUP2 MSTORE PUSH19 0x6E6C7920696E697469616C697A65206F6E6365 PUSH1 0x68 SHL PUSH1 0x20 DUP3 ADD MSTORE PUSH1 0x40 ADD SWAP3 SWAP2 POP POP JUMP JUMPDEST PUSH1 0x0 PUSH2 0x33E8 PUSH1 0x2A DUP4 PUSH2 0x47FD JUMP JUMPDEST PUSH32 0x476F7665726E6F72427261766F3A5F73657450656E64696E6741646D696E3A20 DUP2 MSTORE PUSH10 0x61646D696E206F6E6C79 PUSH1 0xB0 SHL PUSH1 0x20 DUP3 ADD MSTORE PUSH1 0x40 ADD SWAP3 SWAP2 POP POP JUMP JUMPDEST PUSH1 0x0 PUSH2 0x3434 PUSH1 0x55 DUP4 PUSH2 0x47FD JUMP JUMPDEST PUSH32 0x476F7665726E6F72427261766F3A3A71756575654F72526576657274496E7465 DUP2 MSTORE PUSH32 0x726E616C3A206964656E746963616C2070726F706F73616C20616374696F6E20 PUSH1 0x20 DUP3 ADD MSTORE PUSH21 0x616C72656164792071756575656420617420657461 PUSH1 0x58 SHL PUSH1 0x40 DUP3 ADD MSTORE PUSH1 0x60 ADD SWAP3 SWAP2 POP POP JUMP JUMPDEST PUSH1 0x0 PUSH2 0x34B1 PUSH1 0x2B DUP4 PUSH2 0x47FD JUMP JUMPDEST PUSH32 0x476F7665726E6F72427261766F3A3A5F736574566F74696E67506572696F643A DUP2 MSTORE PUSH11 0x2061646D696E206F6E6C79 PUSH1 0xA8 SHL PUSH1 0x20 DUP3 ADD MSTORE PUSH1 0x40 ADD SWAP3 SWAP2 POP POP JUMP JUMPDEST PUSH1 0x0 PUSH2 0x34FE PUSH1 0x33 DUP4 PUSH2 0x47FD JUMP JUMPDEST PUSH1 0x0 DUP1 MLOAD PUSH1 0x20 PUSH2 0x48EB DUP4 CODECOPY DUP2 MLOAD SWAP2 MSTORE DUP2 MSTORE PUSH19 0x69642074696D656C6F636B2061646472657373 PUSH1 0x68 SHL PUSH1 0x20 DUP3 ADD MSTORE PUSH1 0x40 ADD SWAP3 SWAP2 POP POP JUMP JUMPDEST PUSH1 0x0 PUSH2 0x3541 PUSH1 0x2A DUP4 PUSH2 0x47FD JUMP JUMPDEST PUSH32 0x476F7665726E6F72427261766F3A3A5F736574566F74696E6744656C61793A20 DUP2 MSTORE PUSH10 0x61646D696E206F6E6C79 PUSH1 0xB0 SHL PUSH1 0x20 DUP3 ADD MSTORE PUSH1 0x40 ADD SWAP3 SWAP2 POP POP JUMP JUMPDEST PUSH1 0x0 PUSH2 0x358D PUSH1 0x31 DUP4 PUSH2 0x47FD JUMP JUMPDEST PUSH32 0x476F7665726E6F72427261766F3A3A70726F706F73653A20476F7665726E6F72 DUP2 MSTORE PUSH17 0x20427261766F206E6F7420616374697665 PUSH1 0x78 SHL PUSH1 0x20 DUP3 ADD MSTORE PUSH1 0x40 ADD SWAP3 SWAP2 POP POP JUMP JUMPDEST PUSH1 0x0 PUSH2 0x35E0 PUSH1 0x2 DUP4 PUSH2 0xD42 JUMP JUMPDEST PUSH2 0x1901 PUSH1 0xF0 SHL DUP2 MSTORE PUSH1 0x2 ADD SWAP3 SWAP2 POP POP JUMP JUMPDEST PUSH1 0x0 PUSH2 0x35FE PUSH1 0x36 DUP4 PUSH2 0x47FD JUMP JUMPDEST PUSH32 0x476F7665726E6F72427261766F3A3A5F736574566F74696E67506572696F643A DUP2 MSTORE PUSH22 0x81A5B9D985B1A59081D9BDD1A5B99C81C195C9A5BD9 PUSH1 0x52 SHL PUSH1 0x20 DUP3 ADD MSTORE PUSH1 0x40 ADD SWAP3 SWAP2 POP POP JUMP JUMPDEST PUSH1 0x0 PUSH2 0x3656 PUSH1 0x31 DUP4 PUSH2 0x47FD JUMP JUMPDEST PUSH32 0x476F7665726E6F72427261766F3A3A63617374566F7465496E7465726E616C3A DUP2 MSTORE PUSH17 0x81D9BDD1A5B99C81A5CC818DB1BDCD959 PUSH1 0x7A SHL PUSH1 0x20 DUP3 ADD MSTORE PUSH1 0x40 ADD SWAP3 SWAP2 POP POP JUMP JUMPDEST PUSH1 0x0 PUSH2 0x36A9 PUSH1 0x34 DUP4 PUSH2 0x47FD JUMP JUMPDEST PUSH32 0x476F7665726E6F72427261766F3A3A63617374566F7465496E7465726E616C3A DUP2 MSTORE PUSH20 0x81D9BDD195C88185B1C9958591E481D9BDD1959 PUSH1 0x62 SHL PUSH1 0x20 DUP3 ADD MSTORE PUSH1 0x40 ADD SWAP3 SWAP2 POP POP JUMP JUMPDEST PUSH1 0x0 PUSH2 0x36FF PUSH1 0x34 DUP4 PUSH2 0x47FD JUMP JUMPDEST PUSH32 0x476F7665726E6F72427261766F3A3A5F736574566F74696E6744656C61793A20 DUP2 MSTORE PUSH20 0x696E76616C696420766F74696E672064656C6179 PUSH1 0x60 SHL PUSH1 0x20 DUP3 ADD MSTORE PUSH1 0x40 ADD SWAP3 SWAP2 POP POP JUMP JUMPDEST PUSH1 0x0 PUSH2 0x3755 PUSH1 0x35 DUP4 PUSH2 0x47FD JUMP JUMPDEST PUSH1 0x0 DUP1 MLOAD PUSH1 0x20 PUSH2 0x48EB DUP4 CODECOPY DUP2 MLOAD SWAP2 MSTORE DUP2 MSTORE PUSH21 0x1A59081C1C9BDC1BDCD85B081D1A1C995CDA1BDB19 PUSH1 0x5A SHL PUSH1 0x20 DUP3 ADD MSTORE PUSH1 0x40 ADD SWAP3 SWAP2 POP POP JUMP JUMPDEST PUSH1 0x0 PUSH2 0x379A PUSH1 0x45 DUP4 PUSH2 0x47FD JUMP JUMPDEST PUSH32 0x476F7665726E6F72427261766F3A3A657865637574653A2070726F706F73616C DUP2 MSTORE PUSH32 0x2063616E206F6E6C792062652065786563757465642069662069742069732071 PUSH1 0x20 DUP3 ADD MSTORE PUSH5 0x1D595D5959 PUSH1 0xDA SHL PUSH1 0x40 DUP3 ADD MSTORE PUSH1 0x60 ADD SWAP3 SWAP2 POP POP JUMP JUMPDEST PUSH1 0x0 PUSH2 0x3807 PUSH1 0x2F DUP4 PUSH2 0x47FD JUMP JUMPDEST PUSH32 0x476F7665726E6F72427261766F3A3A63617374566F746542795369673A20696E DUP2 MSTORE PUSH15 0x76616C6964207369676E6174757265 PUSH1 0x88 SHL PUSH1 0x20 DUP3 ADD MSTORE PUSH1 0x40 ADD SWAP3 SWAP2 POP POP JUMP JUMPDEST PUSH1 0x0 PUSH2 0x3858 PUSH1 0x2F DUP4 PUSH2 0x47FD JUMP JUMPDEST PUSH1 0x0 DUP1 MLOAD PUSH1 0x20 PUSH2 0x48EB DUP4 CODECOPY DUP2 MLOAD SWAP2 MSTORE DUP2 MSTORE PUSH15 0x696420766F74696E672064656C6179 PUSH1 0x88 SHL PUSH1 0x20 DUP3 ADD MSTORE PUSH1 0x40 ADD SWAP3 SWAP2 POP POP JUMP JUMPDEST PUSH1 0x0 PUSH2 0x3897 PUSH1 0x30 DUP4 PUSH2 0x47FD JUMP JUMPDEST PUSH32 0x476F7665726E6F72427261766F3A3A5F73657457686974656C69737447756172 DUP2 MSTORE PUSH16 0x6469616E3A2061646D696E206F6E6C79 PUSH1 0x80 SHL PUSH1 0x20 DUP3 ADD MSTORE PUSH1 0x40 ADD SWAP3 SWAP2 POP POP JUMP JUMPDEST PUSH1 0x0 PUSH2 0x38E9 PUSH1 0x44 DUP4 PUSH2 0x47FD JUMP JUMPDEST PUSH32 0x476F7665726E6F72427261766F3A3A70726F706F73653A2070726F706F73616C DUP2 MSTORE PUSH32 0x2066756E6374696F6E20696E666F726D6174696F6E206172697479206D69736D PUSH1 0x20 DUP3 ADD MSTORE PUSH4 0xC2E8C6D PUSH1 0xE3 SHL PUSH1 0x40 DUP3 ADD MSTORE PUSH1 0x60 ADD SWAP3 SWAP2 POP POP JUMP JUMPDEST PUSH1 0x0 PUSH2 0x3955 PUSH1 0x25 DUP4 PUSH2 0x47FD JUMP JUMPDEST PUSH32 0x476F7665726E6F72427261766F3A3A696E697469616C697A653A2061646D696E DUP2 MSTORE PUSH5 0x206F6E6C79 PUSH1 0xD8 SHL PUSH1 0x20 DUP3 ADD MSTORE PUSH1 0x40 ADD SWAP3 SWAP2 POP POP JUMP JUMPDEST PUSH1 0x0 PUSH2 0x399C PUSH1 0x40 DUP4 PUSH2 0x47FD JUMP JUMPDEST PUSH32 0x476F7665726E6F72427261766F3A3A5F73657450726F706F73616C5468726573 DUP2 MSTORE PUSH32 0x686F6C643A20696E76616C69642070726F706F73616C207468726573686F6C64 PUSH1 0x20 DUP3 ADD MSTORE PUSH1 0x40 ADD SWAP3 SWAP2 POP POP JUMP JUMPDEST PUSH1 0x0 PUSH2 0x39FB PUSH1 0x44 DUP4 PUSH2 0x47FD JUMP JUMPDEST PUSH32 0x476F7665726E6F72427261766F3A3A71756575653A2070726F706F73616C2063 DUP2 MSTORE PUSH32 0x616E206F6E6C7920626520717565756564206966206974206973207375636365 PUSH1 0x20 DUP3 ADD MSTORE PUSH4 0x19591959 PUSH1 0xE2 SHL PUSH1 0x40 DUP3 ADD MSTORE PUSH1 0x60 ADD SWAP3 SWAP2 POP POP JUMP JUMPDEST PUSH1 0x0 PUSH2 0x3A67 PUSH1 0x11 DUP4 PUSH2 0x47FD JUMP JUMPDEST PUSH17 0x6164646974696F6E206F766572666C6F77 PUSH1 0x78 SHL DUP2 MSTORE PUSH1 0x20 ADD SWAP3 SWAP2 POP POP JUMP JUMPDEST PUSH1 0x0 PUSH2 0x3A94 PUSH1 0x43 DUP4 PUSH2 0xD42 JUMP JUMPDEST PUSH32 0x454950373132446F6D61696E28737472696E67206E616D652C75696E74323536 DUP2 MSTORE PUSH32 0x20636861696E49642C6164647265737320766572696679696E67436F6E747261 PUSH1 0x20 DUP3 ADD MSTORE PUSH3 0x637429 PUSH1 0xE8 SHL PUSH1 0x40 DUP3 ADD MSTORE PUSH1 0x43 ADD SWAP3 SWAP2 POP POP JUMP JUMPDEST PUSH1 0x0 PUSH2 0x3AFF PUSH1 0x30 DUP4 PUSH2 0x47FD JUMP JUMPDEST PUSH32 0x476F7665726E6F72427261766F3A3A5F696E6974696174653A2063616E206F6E DUP2 MSTORE PUSH16 0x6C7920696E697469617465206F6E6365 PUSH1 0x80 SHL PUSH1 0x20 DUP3 ADD MSTORE PUSH1 0x40 ADD SWAP3 SWAP2 POP POP JUMP JUMPDEST PUSH1 0x0 PUSH2 0x3B51 PUSH1 0x2C DUP4 PUSH2 0x47FD JUMP JUMPDEST PUSH32 0x476F7665726E6F72427261766F3A3A70726F706F73653A206D7573742070726F DUP2 MSTORE PUSH12 0x7669646520616374696F6E73 PUSH1 0xA0 SHL PUSH1 0x20 DUP3 ADD MSTORE PUSH1 0x40 ADD SWAP3 SWAP2 POP POP JUMP JUMPDEST PUSH1 0x0 PUSH2 0x3B9F PUSH1 0x2E DUP4 PUSH2 0x47FD JUMP JUMPDEST PUSH32 0x476F7665726E6F72427261766F3A5F61636365707441646D696E3A2070656E64 DUP2 MSTORE PUSH14 0x696E672061646D696E206F6E6C79 PUSH1 0x90 SHL PUSH1 0x20 DUP3 ADD MSTORE PUSH1 0x40 ADD SWAP3 SWAP2 POP POP JUMP JUMPDEST PUSH1 0x0 PUSH2 0x3BEF PUSH1 0x2F DUP4 PUSH2 0x47FD JUMP JUMPDEST PUSH1 0x0 DUP1 MLOAD PUSH1 0x20 PUSH2 0x48EB DUP4 CODECOPY DUP2 MLOAD SWAP2 MSTORE DUP2 MSTORE PUSH15 0x696420636F6D702061646472657373 PUSH1 0x88 SHL PUSH1 0x20 DUP3 ADD MSTORE PUSH1 0x40 ADD SWAP3 SWAP2 POP POP JUMP JUMPDEST PUSH1 0x0 PUSH2 0x3C2E PUSH1 0x2F DUP4 PUSH2 0x47FD JUMP JUMPDEST PUSH32 0x476F7665726E6F72427261766F3A3A63616E63656C3A2070726F706F73657220 DUP2 MSTORE PUSH15 0x18589BDD99481D1A1C995CDA1BDB19 PUSH1 0x8A SHL PUSH1 0x20 DUP3 ADD MSTORE PUSH1 0x40 ADD SWAP3 SWAP2 POP POP JUMP JUMPDEST PUSH1 0x0 PUSH2 0x3C7F PUSH1 0x28 DUP4 PUSH2 0x47FD JUMP JUMPDEST PUSH32 0x476F7665726E6F72427261766F3A3A70726F706F73653A20746F6F206D616E79 DUP2 MSTORE PUSH8 0x20616374696F6E73 PUSH1 0xC0 SHL PUSH1 0x20 DUP3 ADD MSTORE PUSH1 0x40 ADD SWAP3 SWAP2 POP POP JUMP JUMPDEST PUSH1 0x0 PUSH2 0x3CC9 PUSH1 0x59 DUP4 PUSH2 0x47FD JUMP JUMPDEST PUSH32 0x476F7665726E6F72427261766F3A3A70726F706F73653A206F6E65206C697665 DUP2 MSTORE PUSH32 0x2070726F706F73616C207065722070726F706F7365722C20666F756E6420616E PUSH1 0x20 DUP3 ADD MSTORE PUSH32 0x20616C72656164792070656E64696E672070726F706F73616C00000000000000 PUSH1 0x40 DUP3 ADD MSTORE PUSH1 0x60 ADD SWAP3 SWAP2 POP POP JUMP JUMPDEST PUSH1 0x0 PUSH2 0x3D4E PUSH1 0x58 DUP4 PUSH2 0x47FD JUMP JUMPDEST PUSH32 0x476F7665726E6F72427261766F3A3A70726F706F73653A206F6E65206C697665 DUP2 MSTORE PUSH32 0x2070726F706F73616C207065722070726F706F7365722C20666F756E6420616E PUSH1 0x20 DUP3 ADD MSTORE PUSH32 0x20616C7265616479206163746976652070726F706F73616C0000000000000000 PUSH1 0x40 DUP3 ADD MSTORE PUSH1 0x60 ADD SWAP3 SWAP2 POP POP JUMP JUMPDEST PUSH1 0x0 PUSH2 0x1F2C PUSH1 0x0 DUP4 PUSH2 0x47FD JUMP JUMPDEST PUSH1 0x0 PUSH2 0x3DE0 PUSH1 0x24 DUP4 PUSH2 0x47FD JUMP JUMPDEST PUSH32 0x476F7665726E6F72427261766F3A3A5F696E6974696174653A2061646D696E20 DUP2 MSTORE PUSH4 0x6F6E6C79 PUSH1 0xE0 SHL PUSH1 0x20 DUP3 ADD MSTORE PUSH1 0x40 ADD SWAP3 SWAP2 POP POP JUMP JUMPDEST PUSH1 0x0 PUSH2 0x3E26 PUSH1 0x3F DUP4 PUSH2 0x47FD JUMP JUMPDEST PUSH32 0x476F7665726E6F72427261766F3A3A70726F706F73653A2070726F706F736572 DUP2 MSTORE PUSH32 0x20766F7465732062656C6F772070726F706F73616C207468726573686F6C6400 PUSH1 0x20 DUP3 ADD MSTORE PUSH1 0x40 ADD SWAP3 SWAP2 POP POP JUMP JUMPDEST PUSH1 0x0 PUSH2 0x3E85 PUSH1 0x39 DUP4 PUSH2 0x47FD JUMP JUMPDEST PUSH32 0x476F7665726E6F72427261766F3A3A5F73657457686974656C6973744163636F DUP2 MSTORE PUSH32 0x756E7445787069726174696F6E3A2061646D696E206F6E6C7900000000000000 PUSH1 0x20 DUP3 ADD MSTORE PUSH1 0x40 ADD SWAP3 SWAP2 POP POP JUMP JUMPDEST PUSH1 0x0 PUSH2 0x3EE4 PUSH1 0x36 DUP4 PUSH2 0x47FD JUMP JUMPDEST PUSH32 0x476F7665726E6F72427261766F3A3A63616E63656C3A2063616E6E6F74206361 DUP2 MSTORE PUSH22 0x1B98D95B08195E1958DD5D1959081C1C9BDC1BDCD85B PUSH1 0x52 SHL PUSH1 0x20 DUP3 ADD MSTORE PUSH1 0x40 ADD SWAP3 SWAP2 POP POP JUMP JUMPDEST PUSH1 0x0 PUSH2 0x3F3C PUSH1 0x30 DUP4 PUSH2 0x47FD JUMP JUMPDEST PUSH32 0x476F7665726E6F72427261766F3A3A5F73657450726F706F73616C5468726573 DUP2 MSTORE PUSH16 0x686F6C643A2061646D696E206F6E6C79 PUSH1 0x80 SHL PUSH1 0x20 DUP3 ADD MSTORE PUSH1 0x40 ADD SWAP3 SWAP2 POP POP JUMP JUMPDEST PUSH1 0x0 PUSH2 0x3F8E PUSH1 0x29 DUP4 PUSH2 0x47FD JUMP JUMPDEST PUSH32 0x476F7665726E6F72427261766F3A3A73746174653A20696E76616C6964207072 DUP2 MSTORE PUSH9 0x1BDC1BDCD85B081A59 PUSH1 0xBA SHL PUSH1 0x20 DUP3 ADD MSTORE PUSH1 0x40 ADD SWAP3 SWAP2 POP POP JUMP JUMPDEST PUSH1 0x0 PUSH2 0x3FD9 PUSH1 0x30 DUP4 PUSH2 0x47FD JUMP JUMPDEST PUSH1 0x0 DUP1 MLOAD PUSH1 0x20 PUSH2 0x48EB DUP4 CODECOPY DUP2 MLOAD SWAP2 MSTORE DUP2 MSTORE PUSH16 0x1A59081D9BDD1A5B99C81C195C9A5BD9 PUSH1 0x82 SHL PUSH1 0x20 DUP3 ADD MSTORE PUSH1 0x40 ADD SWAP3 SWAP2 POP POP JUMP JUMPDEST PUSH1 0x0 PUSH2 0x4019 PUSH1 0x15 DUP4 PUSH2 0x47FD JUMP JUMPDEST PUSH21 0x7375627472616374696F6E20756E646572666C6F77 PUSH1 0x58 SHL DUP2 MSTORE PUSH1 0x20 ADD SWAP3 SWAP2 POP POP JUMP JUMPDEST PUSH1 0x0 PUSH2 0x404A PUSH1 0x2B DUP4 PUSH2 0x47FD JUMP JUMPDEST PUSH32 0x476F7665726E6F72427261766F3A3A63616E63656C3A2077686974656C697374 DUP2 MSTORE PUSH11 0x32B210383937B837B9B2B9 PUSH1 0xA9 SHL PUSH1 0x20 DUP3 ADD MSTORE PUSH1 0x40 ADD SWAP3 SWAP2 POP POP JUMP JUMPDEST DUP1 MLOAD PUSH1 0x60 DUP4 ADD SWAP1 PUSH2 0x409B DUP5 DUP3 PUSH2 0x31CF JUMP JUMPDEST POP PUSH1 0x20 DUP3 ADD MLOAD PUSH2 0x40AE PUSH1 0x20 DUP6 ADD DUP3 PUSH2 0x40C7 JUMP JUMPDEST POP PUSH1 0x40 DUP3 ADD MLOAD PUSH2 0x40C1 PUSH1 0x40 DUP6 ADD DUP3 PUSH2 0x40D9 JUMP JUMPDEST POP POP POP POP JUMP JUMPDEST PUSH2 0x304A DUP2 PUSH2 0x482C JUMP JUMPDEST PUSH2 0x304A DUP2 PUSH2 0x485B JUMP JUMPDEST PUSH2 0x304A DUP2 PUSH2 0x4832 JUMP JUMPDEST PUSH1 0x0 PUSH2 0x1F2C DUP3 PUSH2 0x333C JUMP JUMPDEST PUSH1 0x0 PUSH2 0x40F8 DUP3 PUSH2 0x35D3 JUMP JUMPDEST SWAP2 POP PUSH2 0x4104 DUP3 DUP6 PUSH2 0x31E1 JUMP JUMPDEST PUSH1 0x20 DUP3 ADD SWAP2 POP PUSH2 0x4114 DUP3 DUP5 PUSH2 0x31E1 JUMP JUMPDEST POP PUSH1 0x20 ADD SWAP3 SWAP2 POP POP JUMP JUMPDEST PUSH1 0x0 PUSH2 0x1F2C DUP3 PUSH2 0x3A87 JUMP JUMPDEST PUSH1 0x20 DUP2 ADD PUSH2 0x1F2C DUP3 DUP5 PUSH2 0x3050 JUMP JUMPDEST PUSH1 0x40 DUP2 ADD PUSH2 0x4145 DUP3 DUP6 PUSH2 0x3041 JUMP JUMPDEST PUSH2 0x24F8 PUSH1 0x20 DUP4 ADD DUP5 PUSH2 0x31D8 JUMP JUMPDEST PUSH1 0x40 DUP2 ADD PUSH2 0x4160 DUP3 DUP6 PUSH2 0x3050 JUMP JUMPDEST PUSH2 0x24F8 PUSH1 0x20 DUP4 ADD DUP5 PUSH2 0x3050 JUMP JUMPDEST PUSH1 0x40 DUP2 ADD PUSH2 0x4145 DUP3 DUP6 PUSH2 0x3050 JUMP JUMPDEST PUSH1 0xA0 DUP2 ADD PUSH2 0x4189 DUP3 DUP9 PUSH2 0x3050 JUMP JUMPDEST PUSH2 0x4196 PUSH1 0x20 DUP4 ADD DUP8 PUSH2 0x31D8 JUMP JUMPDEST DUP2 DUP2 SUB PUSH1 0x40 DUP4 ADD MSTORE PUSH2 0x41A8 DUP2 DUP7 PUSH2 0x31F2 JUMP JUMPDEST SWAP1 POP DUP2 DUP2 SUB PUSH1 0x60 DUP4 ADD MSTORE PUSH2 0x41BC DUP2 DUP6 PUSH2 0x31F2 JUMP JUMPDEST SWAP1 POP PUSH2 0x41CB PUSH1 0x80 DUP4 ADD DUP5 PUSH2 0x31D8 JUMP JUMPDEST SWAP7 SWAP6 POP POP POP POP POP POP JUMP JUMPDEST PUSH1 0xA0 DUP2 ADD PUSH2 0x41E3 DUP3 DUP9 PUSH2 0x3050 JUMP JUMPDEST PUSH2 0x41F0 PUSH1 0x20 DUP4 ADD DUP8 PUSH2 0x31D8 JUMP JUMPDEST DUP2 DUP2 SUB PUSH1 0x40 DUP4 ADD MSTORE PUSH2 0x4202 DUP2 DUP7 PUSH2 0x322A JUMP JUMPDEST SWAP1 POP DUP2 DUP2 SUB PUSH1 0x60 DUP4 ADD MSTORE PUSH2 0x41BC DUP2 DUP6 PUSH2 0x322A JUMP JUMPDEST PUSH1 0x80 DUP1 DUP3 MSTORE DUP2 ADD PUSH2 0x4227 DUP2 DUP8 PUSH2 0x3059 JUMP JUMPDEST SWAP1 POP DUP2 DUP2 SUB PUSH1 0x20 DUP4 ADD MSTORE PUSH2 0x423B DUP2 DUP7 PUSH2 0x3181 JUMP JUMPDEST SWAP1 POP DUP2 DUP2 SUB PUSH1 0x40 DUP4 ADD MSTORE PUSH2 0x424F DUP2 DUP6 PUSH2 0x3120 JUMP JUMPDEST SWAP1 POP DUP2 DUP2 SUB PUSH1 0x60 DUP4 ADD MSTORE PUSH2 0x41CB DUP2 DUP5 PUSH2 0x30B2 JUMP JUMPDEST PUSH1 0x20 DUP2 ADD PUSH2 0x1F2C DUP3 DUP5 PUSH2 0x31CF JUMP JUMPDEST PUSH1 0x20 DUP2 ADD PUSH2 0x1F2C DUP3 DUP5 PUSH2 0x31D8 JUMP JUMPDEST PUSH1 0x80 DUP2 ADD PUSH2 0x428D DUP3 DUP8 PUSH2 0x31D8 JUMP JUMPDEST PUSH2 0x429A PUSH1 0x20 DUP4 ADD DUP7 PUSH2 0x31D8 JUMP JUMPDEST PUSH2 0x42A7 PUSH1 0x40 DUP4 ADD DUP6 PUSH2 0x31D8 JUMP JUMPDEST PUSH2 0x1C34 PUSH1 0x60 DUP4 ADD DUP5 PUSH2 0x3050 JUMP JUMPDEST PUSH1 0x60 DUP2 ADD PUSH2 0x42C2 DUP3 DUP7 PUSH2 0x31D8 JUMP JUMPDEST PUSH2 0x42CF PUSH1 0x20 DUP4 ADD DUP6 PUSH2 0x31D8 JUMP JUMPDEST PUSH2 0x2CC4 PUSH1 0x40 DUP4 ADD DUP5 PUSH2 0x40C7 JUMP JUMPDEST PUSH1 0x80 DUP2 ADD PUSH2 0x42EA DUP3 DUP8 PUSH2 0x31D8 JUMP JUMPDEST PUSH2 0x42F7 PUSH1 0x20 DUP4 ADD DUP7 PUSH2 0x40C7 JUMP JUMPDEST PUSH2 0x4304 PUSH1 0x40 DUP4 ADD DUP6 PUSH2 0x31D8 JUMP JUMPDEST PUSH2 0x1C34 PUSH1 0x60 DUP4 ADD DUP5 PUSH2 0x31D8 JUMP JUMPDEST PUSH1 0x20 DUP2 ADD PUSH2 0x1F2C DUP3 DUP5 PUSH2 0x32B4 JUMP JUMPDEST PUSH1 0x20 DUP2 ADD PUSH2 0x1F2C DUP3 DUP5 PUSH2 0x32BD JUMP JUMPDEST PUSH1 0x20 DUP1 DUP3 MSTORE DUP2 ADD PUSH2 0x24F8 DUP2 DUP5 PUSH2 0x31F2 JUMP JUMPDEST PUSH1 0x20 DUP1 DUP3 MSTORE DUP2 ADD PUSH2 0x1F2C DUP2 PUSH2 0x32E8 JUMP JUMPDEST PUSH1 0x20 DUP1 DUP3 MSTORE DUP2 ADD PUSH2 0x1F2C DUP2 PUSH2 0x3386 JUMP JUMPDEST PUSH1 0x20 DUP1 DUP3 MSTORE DUP2 ADD PUSH2 0x1F2C DUP2 PUSH2 0x33DB JUMP JUMPDEST PUSH1 0x20 DUP1 DUP3 MSTORE DUP2 ADD PUSH2 0x1F2C DUP2 PUSH2 0x3427 JUMP JUMPDEST PUSH1 0x20 DUP1 DUP3 MSTORE DUP2 ADD PUSH2 0x1F2C DUP2 PUSH2 0x34A4 JUMP JUMPDEST PUSH1 0x20 DUP1 DUP3 MSTORE DUP2 ADD PUSH2 0x1F2C DUP2 PUSH2 0x34F1 JUMP JUMPDEST PUSH1 0x20 DUP1 DUP3 MSTORE DUP2 ADD PUSH2 0x1F2C DUP2 PUSH2 0x3534 JUMP JUMPDEST PUSH1 0x20 DUP1 DUP3 MSTORE DUP2 ADD PUSH2 0x1F2C DUP2 PUSH2 0x3580 JUMP JUMPDEST PUSH1 0x20 DUP1 DUP3 MSTORE DUP2 ADD PUSH2 0x1F2C DUP2 PUSH2 0x35F1 JUMP JUMPDEST PUSH1 0x20 DUP1 DUP3 MSTORE DUP2 ADD PUSH2 0x1F2C DUP2 PUSH2 0x3649 JUMP JUMPDEST PUSH1 0x20 DUP1 DUP3 MSTORE DUP2 ADD PUSH2 0x1F2C DUP2 PUSH2 0x369C JUMP JUMPDEST PUSH1 0x20 DUP1 DUP3 MSTORE DUP2 ADD PUSH2 0x1F2C DUP2 PUSH2 0x36F2 JUMP JUMPDEST PUSH1 0x20 DUP1 DUP3 MSTORE DUP2 ADD PUSH2 0x1F2C DUP2 PUSH2 0x3748 JUMP JUMPDEST PUSH1 0x20 DUP1 DUP3 MSTORE DUP2 ADD PUSH2 0x1F2C DUP2 PUSH2 0x378D JUMP JUMPDEST PUSH1 0x20 DUP1 DUP3 MSTORE DUP2 ADD PUSH2 0x1F2C DUP2 PUSH2 0x37FA JUMP JUMPDEST PUSH1 0x20 DUP1 DUP3 MSTORE DUP2 ADD PUSH2 0x1F2C DUP2 PUSH2 0x384B JUMP JUMPDEST PUSH1 0x20 DUP1 DUP3 MSTORE DUP2 ADD PUSH2 0x1F2C DUP2 PUSH2 0x388A JUMP JUMPDEST PUSH1 0x20 DUP1 DUP3 MSTORE DUP2 ADD PUSH2 0x1F2C DUP2 PUSH2 0x38DC JUMP JUMPDEST PUSH1 0x20 DUP1 DUP3 MSTORE DUP2 ADD PUSH2 0x1F2C DUP2 PUSH2 0x3948 JUMP JUMPDEST PUSH1 0x20 DUP1 DUP3 MSTORE DUP2 ADD PUSH2 0x1F2C DUP2 PUSH2 0x398F JUMP JUMPDEST PUSH1 0x20 DUP1 DUP3 MSTORE DUP2 ADD PUSH2 0x1F2C DUP2 PUSH2 0x39EE JUMP JUMPDEST PUSH1 0x20 DUP1 DUP3 MSTORE DUP2 ADD PUSH2 0x1F2C DUP2 PUSH2 0x3A5A JUMP JUMPDEST PUSH1 0x20 DUP1 DUP3 MSTORE DUP2 ADD PUSH2 0x1F2C DUP2 PUSH2 0x3AF2 JUMP JUMPDEST PUSH1 0x20 DUP1 DUP3 MSTORE DUP2 ADD PUSH2 0x1F2C DUP2 PUSH2 0x3B44 JUMP JUMPDEST PUSH1 0x20 DUP1 DUP3 MSTORE DUP2 ADD PUSH2 0x1F2C DUP2 PUSH2 0x3B92 JUMP JUMPDEST PUSH1 0x20 DUP1 DUP3 MSTORE DUP2 ADD PUSH2 0x1F2C DUP2 PUSH2 0x3BE2 JUMP JUMPDEST PUSH1 0x20 DUP1 DUP3 MSTORE DUP2 ADD PUSH2 0x1F2C DUP2 PUSH2 0x3C21 JUMP JUMPDEST PUSH1 0x20 DUP1 DUP3 MSTORE DUP2 ADD PUSH2 0x1F2C DUP2 PUSH2 0x3C72 JUMP JUMPDEST PUSH1 0x20 DUP1 DUP3 MSTORE DUP2 ADD PUSH2 0x1F2C DUP2 PUSH2 0x3CBC JUMP JUMPDEST PUSH1 0x20 DUP1 DUP3 MSTORE DUP2 ADD PUSH2 0x1F2C DUP2 PUSH2 0x3D41 JUMP JUMPDEST PUSH1 0x20 DUP1 DUP3 MSTORE DUP2 ADD PUSH2 0x1F2C DUP2 PUSH2 0x3DD3 JUMP JUMPDEST PUSH1 0x20 DUP1 DUP3 MSTORE DUP2 ADD PUSH2 0x1F2C DUP2 PUSH2 0x3E19 JUMP JUMPDEST PUSH1 0x20 DUP1 DUP3 MSTORE DUP2 ADD PUSH2 0x1F2C DUP2 PUSH2 0x3E78 JUMP JUMPDEST PUSH1 0x20 DUP1 DUP3 MSTORE DUP2 ADD PUSH2 0x1F2C DUP2 PUSH2 0x3ED7 JUMP JUMPDEST PUSH1 0x20 DUP1 DUP3 MSTORE DUP2 ADD PUSH2 0x1F2C DUP2 PUSH2 0x3F2F JUMP JUMPDEST PUSH1 0x20 DUP1 DUP3 MSTORE DUP2 ADD PUSH2 0x1F2C DUP2 PUSH2 0x3F81 JUMP JUMPDEST PUSH1 0x20 DUP1 DUP3 MSTORE DUP2 ADD PUSH2 0x1F2C DUP2 PUSH2 0x3FCC JUMP JUMPDEST PUSH1 0x20 DUP1 DUP3 MSTORE DUP2 ADD PUSH2 0x1F2C DUP2 PUSH2 0x400C JUMP JUMPDEST PUSH1 0x20 DUP1 DUP3 MSTORE DUP2 ADD PUSH2 0x1F2C DUP2 PUSH2 0x403D JUMP JUMPDEST PUSH1 0x60 DUP2 ADD PUSH2 0x1F2C DUP3 DUP5 PUSH2 0x408A JUMP JUMPDEST PUSH2 0x120 DUP2 ADD PUSH2 0x45CB DUP3 DUP13 PUSH2 0x31D8 JUMP JUMPDEST PUSH2 0x45D8 PUSH1 0x20 DUP4 ADD DUP12 PUSH2 0x3041 JUMP JUMPDEST DUP2 DUP2 SUB PUSH1 0x40 DUP4 ADD MSTORE PUSH2 0x45EA DUP2 DUP11 PUSH2 0x3059 JUMP JUMPDEST SWAP1 POP DUP2 DUP2 SUB PUSH1 0x60 DUP4 ADD MSTORE PUSH2 0x45FE DUP2 DUP10 PUSH2 0x3181 JUMP JUMPDEST SWAP1 POP DUP2 DUP2 SUB PUSH1 0x80 DUP4 ADD MSTORE PUSH2 0x4612 DUP2 DUP9 PUSH2 0x3120 JUMP JUMPDEST SWAP1 POP DUP2 DUP2 SUB PUSH1 0xA0 DUP4 ADD MSTORE PUSH2 0x4626 DUP2 DUP8 PUSH2 0x30B2 JUMP JUMPDEST SWAP1 POP PUSH2 0x4635 PUSH1 0xC0 DUP4 ADD DUP7 PUSH2 0x31D8 JUMP JUMPDEST PUSH2 0x4642 PUSH1 0xE0 DUP4 ADD DUP6 PUSH2 0x31D8 JUMP JUMPDEST DUP2 DUP2 SUB PUSH2 0x100 DUP4 ADD MSTORE PUSH2 0x4655 DUP2 DUP5 PUSH2 0x31F2 JUMP JUMPDEST SWAP12 SWAP11 POP POP POP POP POP POP POP POP POP POP POP JUMP JUMPDEST PUSH2 0x140 DUP2 ADD PUSH2 0x4673 DUP3 DUP14 PUSH2 0x31D8 JUMP JUMPDEST PUSH2 0x4680 PUSH1 0x20 DUP4 ADD DUP13 PUSH2 0x3050 JUMP JUMPDEST PUSH2 0x468D PUSH1 0x40 DUP4 ADD DUP12 PUSH2 0x31D8 JUMP JUMPDEST PUSH2 0x469A PUSH1 0x60 DUP4 ADD DUP11 PUSH2 0x31D8 JUMP JUMPDEST PUSH2 0x46A7 PUSH1 0x80 DUP4 ADD DUP10 PUSH2 0x31D8 JUMP JUMPDEST PUSH2 0x46B4 PUSH1 0xA0 DUP4 ADD DUP9 PUSH2 0x31D8 JUMP JUMPDEST PUSH2 0x46C1 PUSH1 0xC0 DUP4 ADD DUP8 PUSH2 0x31D8 JUMP JUMPDEST PUSH2 0x46CE PUSH1 0xE0 DUP4 ADD DUP7 PUSH2 0x31D8 JUMP JUMPDEST PUSH2 0x46DC PUSH2 0x100 DUP4 ADD DUP6 PUSH2 0x31CF JUMP JUMPDEST PUSH2 0x4655 PUSH2 0x120 DUP4 ADD DUP5 PUSH2 0x31CF JUMP JUMPDEST PUSH1 0x40 DUP2 ADD PUSH2 0x4145 DUP3 DUP6 PUSH2 0x31D8 JUMP JUMPDEST PUSH1 0x80 DUP2 ADD PUSH2 0x4706 DUP3 DUP9 PUSH2 0x31D8 JUMP JUMPDEST PUSH2 0x4713 PUSH1 0x20 DUP4 ADD DUP8 PUSH2 0x40C7 JUMP JUMPDEST PUSH2 0x4720 PUSH1 0x40 DUP4 ADD DUP7 PUSH2 0x40D0 JUMP JUMPDEST DUP2 DUP2 SUB PUSH1 0x60 DUP4 ADD MSTORE PUSH2 0x4733 DUP2 DUP5 DUP7 PUSH2 0x32C6 JUMP JUMPDEST SWAP8 SWAP7 POP POP POP POP POP POP POP JUMP JUMPDEST PUSH1 0x80 DUP2 ADD PUSH2 0x474C DUP3 DUP7 PUSH2 0x31D8 JUMP JUMPDEST PUSH2 0x4759 PUSH1 0x20 DUP4 ADD DUP6 PUSH2 0x40C7 JUMP JUMPDEST PUSH2 0x4766 PUSH1 0x40 DUP4 ADD DUP5 PUSH2 0x40D0 JUMP JUMPDEST DUP2 DUP2 SUB PUSH1 0x60 DUP4 ADD MSTORE PUSH2 0x1C34 DUP2 PUSH2 0x3DC6 JUMP JUMPDEST PUSH1 0x40 MLOAD DUP2 DUP2 ADD PUSH8 0xFFFFFFFFFFFFFFFF DUP2 GT DUP3 DUP3 LT OR ISZERO PUSH2 0x4796 JUMPI PUSH1 0x0 DUP1 REVERT JUMPDEST PUSH1 0x40 MSTORE SWAP2 SWAP1 POP JUMP JUMPDEST PUSH1 0x0 PUSH8 0xFFFFFFFFFFFFFFFF DUP3 GT ISZERO PUSH2 0x47B5 JUMPI PUSH1 0x0 DUP1 REVERT JUMPDEST POP PUSH1 0x20 SWAP1 DUP2 MUL ADD SWAP1 JUMP JUMPDEST PUSH1 0x0 PUSH8 0xFFFFFFFFFFFFFFFF DUP3 GT ISZERO PUSH2 0x47D6 JUMPI PUSH1 0x0 DUP1 REVERT JUMPDEST POP PUSH1 0x20 PUSH1 0x1F SWAP2 SWAP1 SWAP2 ADD PUSH1 0x1F NOT AND ADD SWAP1 JUMP JUMPDEST PUSH1 0x20 ADD SWAP1 JUMP JUMPDEST PUSH1 0x0 SWAP1 DUP2 MSTORE PUSH1 0x20 SWAP1 KECCAK256 SWAP1 JUMP JUMPDEST MLOAD SWAP1 JUMP JUMPDEST SWAP1 DUP2 MSTORE PUSH1 0x20 ADD SWAP1 JUMP JUMPDEST PUSH1 0x0 PUSH2 0x1F2C DUP3 PUSH2 0x4820 JUMP JUMPDEST ISZERO ISZERO SWAP1 JUMP JUMPDEST DUP1 PUSH2 0xD42 DUP2 PUSH2 0x48A8 JUMP JUMPDEST PUSH1 0x1 PUSH1 0x1 PUSH1 0xA0 SHL SUB AND SWAP1 JUMP JUMPDEST PUSH1 0xFF AND SWAP1 JUMP JUMPDEST PUSH1 0x1 PUSH1 0x1 PUSH1 0x60 SHL SUB AND SWAP1 JUMP JUMPDEST PUSH1 0x0 PUSH2 0x1F2C DUP3 JUMPDEST PUSH1 0x0 PUSH2 0x1F2C DUP3 PUSH2 0x4806 JUMP JUMPDEST PUSH1 0x0 PUSH2 0x1F2C DUP3 PUSH2 0x4816 JUMP JUMPDEST PUSH1 0x0 PUSH2 0x1F2C DUP3 PUSH2 0x4832 JUMP JUMPDEST DUP3 DUP2 DUP4 CALLDATACOPY POP PUSH1 0x0 SWAP2 ADD MSTORE JUMP JUMPDEST PUSH1 0x0 JUMPDEST DUP4 DUP2 LT ISZERO PUSH2 0x488D JUMPI DUP2 DUP2 ADD MLOAD DUP4 DUP3 ADD MSTORE PUSH1 0x20 ADD PUSH2 0x4875 JUMP JUMPDEST DUP4 DUP2 GT ISZERO PUSH2 0x40C1 JUMPI POP POP PUSH1 0x0 SWAP2 ADD MSTORE JUMP JUMPDEST PUSH1 0x1F ADD PUSH1 0x1F NOT AND SWAP1 JUMP JUMPDEST PUSH1 0x8 DUP2 LT PUSH2 0x29DA JUMPI INVALID JUMPDEST PUSH2 0x48BB DUP2 PUSH2 0x4806 JUMP JUMPDEST DUP2 EQ PUSH2 0x29DA JUMPI PUSH1 0x0 DUP1 REVERT JUMPDEST PUSH2 0x48BB DUP2 PUSH2 0x4811 JUMP JUMPDEST PUSH2 0x48BB DUP2 PUSH2 0x230B JUMP JUMPDEST PUSH2 0x48BB DUP2 PUSH2 0x482C JUMP JUMPDEST PUSH2 0x48BB DUP2 PUSH2 0x4832 JUMP INVALID SELFBALANCE PUSH16 0x7665726E6F72427261766F3A3A696E69 PUSH21 0x69616C697A653A20696E76616CA365627A7A723158 KECCAK256 LOG1 INVALID 0xB2 0xDF DUP14 0xD2 0xCB 0xC2 DUP1 EXP LOG2 PUSH28 0xE5D4AB63580677ACAD909653C480C7831D7943806C6578706572696D PUSH6 0x6E74616CF564 PUSH20 0x6F6C634300051000400000000000000000000000 "},"gasEstimates":{"creation":{"codeDepositCost":"3753000","executionCost":"4245","totalCost":"3757245"},"external":{"BALLOT_TYPEHASH()":"infinite","DOMAIN_TYPEHASH()":"infinite","MAX_PROPOSAL_THRESHOLD()":"345","MAX_VOTING_DELAY()":"366","MAX_VOTING_PERIOD()":"344","MIN_PROPOSAL_THRESHOLD()":"367","MIN_VOTING_DELAY()":"343","MIN_VOTING_PERIOD()":"433","_acceptAdmin()":"infinite","_initiate(address)":"infinite","_setPendingAdmin(address)":"infinite","_setProposalThreshold(uint256)":"infinite","_setVotingDelay(uint256)":"infinite","_setVotingPeriod(uint256)":"infinite","_setWhitelistAccountExpiration(address,uint256)":"infinite","_setWhitelistGuardian(address)":"infinite","admin()":"infinite","cancel(uint256)":"infinite","castVote(uint256,uint8)":"infinite","castVoteBySig(uint256,uint8,uint8,bytes32,bytes32)":"infinite","castVoteWithReason(uint256,uint8,string)":"infinite","comp()":"infinite","execute(uint256)":"infinite","getActions(uint256)":"infinite","getReceipt(uint256,address)":"infinite","implementation()":"infinite","initialProposalId()":"1231","initialize(address,address,uint256,uint256,uint256)":"infinite","isWhitelisted(address)":"infinite","latestProposalIds(address)":"infinite","name()":"infinite","pendingAdmin()":"infinite","proposalCount()":"1166","proposalMaxOperations()":"411","proposalThreshold()":"1188","proposals(uint256)":"infinite","propose(address[],uint256[],string[],bytes[],string)":"infinite","queue(uint256)":"infinite","quorumVotes()":"455","state(uint256)":"infinite","timelock()":"infinite","votingDelay()":"1233","votingPeriod()":"1168","whitelistAccountExpirations(address)":"infinite","whitelistGuardian()":"infinite"},"internal":{"add256(uint256,uint256)":"infinite","castVoteInternal(address,uint256,uint8)":"infinite","getChainIdInternal()":"15","queueOrRevertInternal(address,uint256,string memory,bytes memory,uint256)":"infinite","sub256(uint256,uint256)":"infinite"}},"methodIdentifiers":{"BALLOT_TYPEHASH()":"deaaa7cc","DOMAIN_TYPEHASH()":"20606b70","MAX_PROPOSAL_THRESHOLD()":"25fd935a","MAX_VOTING_DELAY()":"b1126263","MAX_VOTING_PERIOD()":"a64e024a","MIN_PROPOSAL_THRESHOLD()":"791f5d23","MIN_VOTING_DELAY()":"e48083fe","MIN_VOTING_PERIOD()":"215809ca","_acceptAdmin()":"e9c714f2","_initiate(address)":"f9d28b80","_setPendingAdmin(address)":"b71d1a0c","_setProposalThreshold(uint256)":"17ba1b8b","_setVotingDelay(uint256)":"1dfb1b5a","_setVotingPeriod(uint256)":"0ea2d98c","_setWhitelistAccountExpiration(address,uint256)":"4d6733d2","_setWhitelistGuardian(address)":"99533365","admin()":"f851a440","cancel(uint256)":"40e58ee5","castVote(uint256,uint8)":"56781388","castVoteBySig(uint256,uint8,uint8,bytes32,bytes32)":"3bccf4fd","castVoteWithReason(uint256,uint8,string)":"7b3c71d3","comp()":"109d0af8","execute(uint256)":"fe0d94c1","getActions(uint256)":"328dd982","getReceipt(uint256,address)":"e23a9a52","implementation()":"5c60da1b","initialProposalId()":"fc4eee42","initialize(address,address,uint256,uint256,uint256)":"d13f90b4","isWhitelisted(address)":"3af32abf","latestProposalIds(address)":"17977c61","name()":"06fdde03","pendingAdmin()":"26782247","proposalCount()":"da35c664","proposalMaxOperations()":"7bdbe4d0","proposalThreshold()":"b58131b0","proposals(uint256)":"013cf08b","propose(address[],uint256[],string[],bytes[],string)":"da95691a","queue(uint256)":"ddf0b009","quorumVotes()":"24bc1a64","state(uint256)":"3e4f49e6","timelock()":"d33219b4","votingDelay()":"3932abb1","votingPeriod()":"02a251a3","whitelistAccountExpirations(address)":"38bd0dda","whitelistGuardian()":"c5a8425d"}},"storageLayout":{"storage":[{"astId":4540,"contract":"contracts/Governance/GovernorBravoDelegateG2.sol:GovernorBravoDelegate","label":"admin","offset":0,"slot":"0","type":"t_address"},{"astId":4542,"contract":"contracts/Governance/GovernorBravoDelegateG2.sol:GovernorBravoDelegate","label":"pendingAdmin","offset":0,"slot":"1","type":"t_address"},{"astId":4544,"contract":"contracts/Governance/GovernorBravoDelegateG2.sol:GovernorBravoDelegate","label":"implementation","offset":0,"slot":"2","type":"t_address"},{"astId":4549,"contract":"contracts/Governance/GovernorBravoDelegateG2.sol:GovernorBravoDelegate","label":"votingDelay","offset":0,"slot":"3","type":"t_uint256"},{"astId":4551,"contract":"contracts/Governance/GovernorBravoDelegateG2.sol:GovernorBravoDelegate","label":"votingPeriod","offset":0,"slot":"4","type":"t_uint256"},{"astId":4553,"contract":"contracts/Governance/GovernorBravoDelegateG2.sol:GovernorBravoDelegate","label":"proposalThreshold","offset":0,"slot":"5","type":"t_uint256"},{"astId":4555,"contract":"contracts/Governance/GovernorBravoDelegateG2.sol:GovernorBravoDelegate","label":"initialProposalId","offset":0,"slot":"6","type":"t_uint256"},{"astId":4557,"contract":"contracts/Governance/GovernorBravoDelegateG2.sol:GovernorBravoDelegate","label":"proposalCount","offset":0,"slot":"7","type":"t_uint256"},{"astId":4559,"contract":"contracts/Governance/GovernorBravoDelegateG2.sol:GovernorBravoDelegate","label":"timelock","offset":0,"slot":"8","type":"t_contract(TimelockInterface)4696"},{"astId":4561,"contract":"contracts/Governance/GovernorBravoDelegateG2.sol:GovernorBravoDelegate","label":"comp","offset":0,"slot":"9","type":"t_contract(CompInterface)4706"},{"astId":4565,"contract":"contracts/Governance/GovernorBravoDelegateG2.sol:GovernorBravoDelegate","label":"proposals","offset":0,"slot":"10","type":"t_mapping(t_uint256,t_struct(Proposal)4606_storage)"},{"astId":4569,"contract":"contracts/Governance/GovernorBravoDelegateG2.sol:GovernorBravoDelegate","label":"latestProposalIds","offset":0,"slot":"11","type":"t_mapping(t_address,t_uint256)"},{"astId":4629,"contract":"contracts/Governance/GovernorBravoDelegateG2.sol:GovernorBravoDelegate","label":"whitelistAccountExpirations","offset":0,"slot":"12","type":"t_mapping(t_address,t_uint256)"},{"astId":4631,"contract":"contracts/Governance/GovernorBravoDelegateG2.sol:GovernorBravoDelegate","label":"whitelistGuardian","offset":0,"slot":"13","type":"t_address"}],"types":{"t_address":{"encoding":"inplace","label":"address","numberOfBytes":"20"},"t_array(t_address)dyn_storage":{"base":"t_address","encoding":"dynamic_array","label":"address[]","numberOfBytes":"32"},"t_array(t_bytes_storage)dyn_storage":{"base":"t_bytes_storage","encoding":"dynamic_array","label":"bytes[]","numberOfBytes":"32"},"t_array(t_string_storage)dyn_storage":{"base":"t_string_storage","encoding":"dynamic_array","label":"string[]","numberOfBytes":"32"},"t_array(t_uint256)dyn_storage":{"base":"t_uint256","encoding":"dynamic_array","label":"uint256[]","numberOfBytes":"32"},"t_bool":{"encoding":"inplace","label":"bool","numberOfBytes":"1"},"t_bytes_storage":{"encoding":"bytes","label":"bytes","numberOfBytes":"32"},"t_contract(CompInterface)4706":{"encoding":"inplace","label":"contract CompInterface","numberOfBytes":"20"},"t_contract(TimelockInterface)4696":{"encoding":"inplace","label":"contract TimelockInterface","numberOfBytes":"20"},"t_mapping(t_address,t_struct(Receipt)4613_storage)":{"encoding":"mapping","key":"t_address","label":"mapping(address => struct GovernorBravoDelegateStorageV1.Receipt)","numberOfBytes":"32","value":"t_struct(Receipt)4613_storage"},"t_mapping(t_address,t_uint256)":{"encoding":"mapping","key":"t_address","label":"mapping(address => uint256)","numberOfBytes":"32","value":"t_uint256"},"t_mapping(t_uint256,t_struct(Proposal)4606_storage)":{"encoding":"mapping","key":"t_uint256","label":"mapping(uint256 => struct GovernorBravoDelegateStorageV1.Proposal)","numberOfBytes":"32","value":"t_struct(Proposal)4606_storage"},"t_string_storage":{"encoding":"bytes","label":"string","numberOfBytes":"32"},"t_struct(Proposal)4606_storage":{"encoding":"inplace","label":"struct GovernorBravoDelegateStorageV1.Proposal","members":[{"astId":4571,"contract":"contracts/Governance/GovernorBravoDelegateG2.sol:GovernorBravoDelegate","label":"id","offset":0,"slot":"0","type":"t_uint256"},{"astId":4573,"contract":"contracts/Governance/GovernorBravoDelegateG2.sol:GovernorBravoDelegate","label":"proposer","offset":0,"slot":"1","type":"t_address"},{"astId":4575,"contract":"contracts/Governance/GovernorBravoDelegateG2.sol:GovernorBravoDelegate","label":"eta","offset":0,"slot":"2","type":"t_uint256"},{"astId":4578,"contract":"contracts/Governance/GovernorBravoDelegateG2.sol:GovernorBravoDelegate","label":"targets","offset":0,"slot":"3","type":"t_array(t_address)dyn_storage"},{"astId":4581,"contract":"contracts/Governance/GovernorBravoDelegateG2.sol:GovernorBravoDelegate","label":"values","offset":0,"slot":"4","type":"t_array(t_uint256)dyn_storage"},{"astId":4584,"contract":"contracts/Governance/GovernorBravoDelegateG2.sol:GovernorBravoDelegate","label":"signatures","offset":0,"slot":"5","type":"t_array(t_string_storage)dyn_storage"},{"astId":4587,"contract":"contracts/Governance/GovernorBravoDelegateG2.sol:GovernorBravoDelegate","label":"calldatas","offset":0,"slot":"6","type":"t_array(t_bytes_storage)dyn_storage"},{"astId":4589,"contract":"contracts/Governance/GovernorBravoDelegateG2.sol:GovernorBravoDelegate","label":"startBlock","offset":0,"slot":"7","type":"t_uint256"},{"astId":4591,"contract":"contracts/Governance/GovernorBravoDelegateG2.sol:GovernorBravoDelegate","label":"endBlock","offset":0,"slot":"8","type":"t_uint256"},{"astId":4593,"contract":"contracts/Governance/GovernorBravoDelegateG2.sol:GovernorBravoDelegate","label":"forVotes","offset":0,"slot":"9","type":"t_uint256"},{"astId":4595,"contract":"contracts/Governance/GovernorBravoDelegateG2.sol:GovernorBravoDelegate","label":"againstVotes","offset":0,"slot":"10","type":"t_uint256"},{"astId":4597,"contract":"contracts/Governance/GovernorBravoDelegateG2.sol:GovernorBravoDelegate","label":"abstainVotes","offset":0,"slot":"11","type":"t_uint256"},{"astId":4599,"contract":"contracts/Governance/GovernorBravoDelegateG2.sol:GovernorBravoDelegate","label":"canceled","offset":0,"slot":"12","type":"t_bool"},{"astId":4601,"contract":"contracts/Governance/GovernorBravoDelegateG2.sol:GovernorBravoDelegate","label":"executed","offset":1,"slot":"12","type":"t_bool"},{"astId":4605,"contract":"contracts/Governance/GovernorBravoDelegateG2.sol:GovernorBravoDelegate","label":"receipts","offset":0,"slot":"13","type":"t_mapping(t_address,t_struct(Receipt)4613_storage)"}],"numberOfBytes":"448"},"t_struct(Receipt)4613_storage":{"encoding":"inplace","label":"struct GovernorBravoDelegateStorageV1.Receipt","members":[{"astId":4608,"contract":"contracts/Governance/GovernorBravoDelegateG2.sol:GovernorBravoDelegate","label":"hasVoted","offset":0,"slot":"0","type":"t_bool"},{"astId":4610,"contract":"contracts/Governance/GovernorBravoDelegateG2.sol:GovernorBravoDelegate","label":"support","offset":1,"slot":"0","type":"t_uint8"},{"astId":4612,"contract":"contracts/Governance/GovernorBravoDelegateG2.sol:GovernorBravoDelegate","label":"votes","offset":2,"slot":"0","type":"t_uint96"}],"numberOfBytes":"32"},"t_uint256":{"encoding":"inplace","label":"uint256","numberOfBytes":"32"},"t_uint8":{"encoding":"inplace","label":"uint8","numberOfBytes":"1"},"t_uint96":{"encoding":"inplace","label":"uint96","numberOfBytes":"12"}}},"userdoc":{"methods":{"_acceptAdmin()":{"notice":"Accepts transfer of admin rights. msg.sender must be pendingAdmin"},"_initiate(address)":{"notice":"Initiate the GovernorBravo contract"},"_setPendingAdmin(address)":{"notice":"Begins transfer of admin rights. The newPendingAdmin must call `_acceptAdmin` to finalize the transfer."},"_setProposalThreshold(uint256)":{"notice":"Admin function for setting the proposal threshold"},"_setVotingDelay(uint256)":{"notice":"Admin function for setting the voting delay"},"_setVotingPeriod(uint256)":{"notice":"Admin function for setting the voting period"},"_setWhitelistAccountExpiration(address,uint256)":{"notice":"Admin function for setting the whitelist expiration as a timestamp for an account. Whitelist status allows accounts to propose without meeting threshold"},"_setWhitelistGuardian(address)":{"notice":"Admin function for setting the whitelistGuardian. WhitelistGuardian can cancel proposals from whitelisted addresses"},"cancel(uint256)":{"notice":"Cancels a proposal only if sender is the proposer, or proposer delegates dropped below proposal threshold"},"castVote(uint256,uint8)":{"notice":"Cast a vote for a proposal"},"castVoteBySig(uint256,uint8,uint8,bytes32,bytes32)":{"notice":"Cast a vote for a proposal by signature"},"castVoteWithReason(uint256,uint8,string)":{"notice":"Cast a vote for a proposal with a reason"},"execute(uint256)":{"notice":"Executes a queued proposal if eta has passed"},"getActions(uint256)":{"notice":"Gets actions of a proposal"},"getReceipt(uint256,address)":{"notice":"Gets the receipt for a voter on a given proposal"},"initialize(address,address,uint256,uint256,uint256)":{"notice":"Used to initialize the contract during delegator contructor"},"isWhitelisted(address)":{"notice":"View function which returns if an account is whitelisted"},"propose(address[],uint256[],string[],bytes[],string)":{"notice":"Function used to propose a new proposal. Sender must have delegates above the proposal threshold"},"queue(uint256)":{"notice":"Queues a proposal of state succeeded"},"state(uint256)":{"notice":"Gets the state of a proposal"}}}}}}