{
  "_format": "hh-sol-artifact-1",
  "contractName": "Comptroller",
  "sourceName": "contracts/Comptroller.sol",
  "abi": [
    {
      "inputs": [],
      "stateMutability": "nonpayable",
      "type": "constructor"
    },
    {
      "anonymous": false,
      "inputs": [
        {
          "indexed": false,
          "internalType": "string",
          "name": "action",
          "type": "string"
        },
        {
          "indexed": false,
          "internalType": "bool",
          "name": "pauseState",
          "type": "bool"
        }
      ],
      "name": "ActionPaused",
      "type": "event"
    },
    {
      "anonymous": false,
      "inputs": [
        {
          "indexed": false,
          "internalType": "contract CToken",
          "name": "cToken",
          "type": "address"
        },
        {
          "indexed": false,
          "internalType": "string",
          "name": "action",
          "type": "string"
        },
        {
          "indexed": false,
          "internalType": "bool",
          "name": "pauseState",
          "type": "bool"
        }
      ],
      "name": "ActionPaused",
      "type": "event"
    },
    {
      "anonymous": false,
      "inputs": [
        {
          "indexed": true,
          "internalType": "address",
          "name": "user",
          "type": "address"
        },
        {
          "indexed": false,
          "internalType": "uint256",
          "name": "oldCompAccrued",
          "type": "uint256"
        },
        {
          "indexed": false,
          "internalType": "uint256",
          "name": "newCompAccrued",
          "type": "uint256"
        }
      ],
      "name": "CompAccruedAdjusted",
      "type": "event"
    },
    {
      "anonymous": false,
      "inputs": [
        {
          "indexed": true,
          "internalType": "contract CToken",
          "name": "cToken",
          "type": "address"
        },
        {
          "indexed": false,
          "internalType": "uint256",
          "name": "newSpeed",
          "type": "uint256"
        }
      ],
      "name": "CompBorrowSpeedUpdated",
      "type": "event"
    },
    {
      "anonymous": false,
      "inputs": [
        {
          "indexed": false,
          "internalType": "address",
          "name": "recipient",
          "type": "address"
        },
        {
          "indexed": false,
          "internalType": "uint256",
          "name": "amount",
          "type": "uint256"
        }
      ],
      "name": "CompGranted",
      "type": "event"
    },
    {
      "anonymous": false,
      "inputs": [
        {
          "indexed": true,
          "internalType": "address",
          "name": "user",
          "type": "address"
        },
        {
          "indexed": false,
          "internalType": "uint256",
          "name": "oldCompReceivable",
          "type": "uint256"
        },
        {
          "indexed": false,
          "internalType": "uint256",
          "name": "newCompReceivable",
          "type": "uint256"
        }
      ],
      "name": "CompReceivableUpdated",
      "type": "event"
    },
    {
      "anonymous": false,
      "inputs": [
        {
          "indexed": true,
          "internalType": "contract CToken",
          "name": "cToken",
          "type": "address"
        },
        {
          "indexed": false,
          "internalType": "uint256",
          "name": "newSpeed",
          "type": "uint256"
        }
      ],
      "name": "CompSupplySpeedUpdated",
      "type": "event"
    },
    {
      "anonymous": false,
      "inputs": [
        {
          "indexed": true,
          "internalType": "address",
          "name": "contributor",
          "type": "address"
        },
        {
          "indexed": false,
          "internalType": "uint256",
          "name": "newSpeed",
          "type": "uint256"
        }
      ],
      "name": "ContributorCompSpeedUpdated",
      "type": "event"
    },
    {
      "anonymous": false,
      "inputs": [
        {
          "indexed": true,
          "internalType": "contract CToken",
          "name": "cToken",
          "type": "address"
        },
        {
          "indexed": true,
          "internalType": "address",
          "name": "borrower",
          "type": "address"
        },
        {
          "indexed": false,
          "internalType": "uint256",
          "name": "compDelta",
          "type": "uint256"
        },
        {
          "indexed": false,
          "internalType": "uint256",
          "name": "compBorrowIndex",
          "type": "uint256"
        }
      ],
      "name": "DistributedBorrowerComp",
      "type": "event"
    },
    {
      "anonymous": false,
      "inputs": [
        {
          "indexed": true,
          "internalType": "contract CToken",
          "name": "cToken",
          "type": "address"
        },
        {
          "indexed": true,
          "internalType": "address",
          "name": "supplier",
          "type": "address"
        },
        {
          "indexed": false,
          "internalType": "uint256",
          "name": "compDelta",
          "type": "uint256"
        },
        {
          "indexed": false,
          "internalType": "uint256",
          "name": "compSupplyIndex",
          "type": "uint256"
        }
      ],
      "name": "DistributedSupplierComp",
      "type": "event"
    },
    {
      "anonymous": false,
      "inputs": [
        {
          "indexed": false,
          "internalType": "uint256",
          "name": "error",
          "type": "uint256"
        },
        {
          "indexed": false,
          "internalType": "uint256",
          "name": "info",
          "type": "uint256"
        },
        {
          "indexed": false,
          "internalType": "uint256",
          "name": "detail",
          "type": "uint256"
        }
      ],
      "name": "Failure",
      "type": "event"
    },
    {
      "anonymous": false,
      "inputs": [
        {
          "indexed": false,
          "internalType": "contract CToken",
          "name": "cToken",
          "type": "address"
        },
        {
          "indexed": false,
          "internalType": "address",
          "name": "account",
          "type": "address"
        }
      ],
      "name": "MarketEntered",
      "type": "event"
    },
    {
      "anonymous": false,
      "inputs": [
        {
          "indexed": false,
          "internalType": "contract CToken",
          "name": "cToken",
          "type": "address"
        },
        {
          "indexed": false,
          "internalType": "address",
          "name": "account",
          "type": "address"
        }
      ],
      "name": "MarketExited",
      "type": "event"
    },
    {
      "anonymous": false,
      "inputs": [
        {
          "indexed": false,
          "internalType": "contract CToken",
          "name": "cToken",
          "type": "address"
        }
      ],
      "name": "MarketListed",
      "type": "event"
    },
    {
      "anonymous": false,
      "inputs": [
        {
          "indexed": true,
          "internalType": "contract CToken",
          "name": "cToken",
          "type": "address"
        },
        {
          "indexed": false,
          "internalType": "uint256",
          "name": "newBorrowCap",
          "type": "uint256"
        }
      ],
      "name": "NewBorrowCap",
      "type": "event"
    },
    {
      "anonymous": false,
      "inputs": [
        {
          "indexed": false,
          "internalType": "address",
          "name": "oldBorrowCapGuardian",
          "type": "address"
        },
        {
          "indexed": false,
          "internalType": "address",
          "name": "newBorrowCapGuardian",
          "type": "address"
        }
      ],
      "name": "NewBorrowCapGuardian",
      "type": "event"
    },
    {
      "anonymous": false,
      "inputs": [
        {
          "indexed": false,
          "internalType": "uint256",
          "name": "oldCloseFactorMantissa",
          "type": "uint256"
        },
        {
          "indexed": false,
          "internalType": "uint256",
          "name": "newCloseFactorMantissa",
          "type": "uint256"
        }
      ],
      "name": "NewCloseFactor",
      "type": "event"
    },
    {
      "anonymous": false,
      "inputs": [
        {
          "indexed": false,
          "internalType": "contract CToken",
          "name": "cToken",
          "type": "address"
        },
        {
          "indexed": false,
          "internalType": "uint256",
          "name": "oldCollateralFactorMantissa",
          "type": "uint256"
        },
        {
          "indexed": false,
          "internalType": "uint256",
          "name": "newCollateralFactorMantissa",
          "type": "uint256"
        },
        {
          "indexed": false,
          "internalType": "uint256",
          "name": "oldCollateralFactorMantissaVip",
          "type": "uint256"
        },
        {
          "indexed": false,
          "internalType": "uint256",
          "name": "newCollateralFactorMantissaVip",
          "type": "uint256"
        },
        {
          "indexed": false,
          "internalType": "uint256",
          "name": "oldliquidationThresholdMantissa",
          "type": "uint256"
        },
        {
          "indexed": false,
          "internalType": "uint256",
          "name": "newliquidationThresholdMantissa",
          "type": "uint256"
        },
        {
          "indexed": false,
          "internalType": "uint256",
          "name": "oldliquidationThresholdMantissaVip",
          "type": "uint256"
        },
        {
          "indexed": false,
          "internalType": "uint256",
          "name": "newliquidationThresholdMantissaVip",
          "type": "uint256"
        }
      ],
      "name": "NewFactorsAndThresholds",
      "type": "event"
    },
    {
      "anonymous": false,
      "inputs": [
        {
          "indexed": false,
          "internalType": "uint256",
          "name": "oldLiquidationIncentiveMantissa",
          "type": "uint256"
        },
        {
          "indexed": false,
          "internalType": "uint256",
          "name": "newLiquidationIncentiveMantissa",
          "type": "uint256"
        }
      ],
      "name": "NewLiquidationIncentive",
      "type": "event"
    },
    {
      "anonymous": false,
      "inputs": [
        {
          "indexed": false,
          "internalType": "address",
          "name": "oldPauseGuardian",
          "type": "address"
        },
        {
          "indexed": false,
          "internalType": "address",
          "name": "newPauseGuardian",
          "type": "address"
        }
      ],
      "name": "NewPauseGuardian",
      "type": "event"
    },
    {
      "anonymous": false,
      "inputs": [
        {
          "indexed": false,
          "internalType": "contract PriceOracle",
          "name": "oldPriceOracle",
          "type": "address"
        },
        {
          "indexed": false,
          "internalType": "contract PriceOracle",
          "name": "newPriceOracle",
          "type": "address"
        }
      ],
      "name": "NewPriceOracle",
      "type": "event"
    },
    {
      "anonymous": false,
      "inputs": [
        {
          "indexed": true,
          "internalType": "contract CToken",
          "name": "cToken",
          "type": "address"
        },
        {
          "indexed": false,
          "internalType": "uint256",
          "name": "newSupplyCap",
          "type": "uint256"
        }
      ],
      "name": "NewSupplyCap",
      "type": "event"
    },
    {
      "inputs": [
        {
          "internalType": "contract Unitroller",
          "name": "unitroller",
          "type": "address"
        }
      ],
      "name": "_become",
      "outputs": [],
      "stateMutability": "nonpayable",
      "type": "function"
    },
    {
      "inputs": [],
      "name": "_borrowGuardianPaused",
      "outputs": [
        {
          "internalType": "bool",
          "name": "",
          "type": "bool"
        }
      ],
      "stateMutability": "view",
      "type": "function"
    },
    {
      "inputs": [
        {
          "internalType": "address",
          "name": "recipient",
          "type": "address"
        },
        {
          "internalType": "uint256",
          "name": "amount",
          "type": "uint256"
        }
      ],
      "name": "_grantComp",
      "outputs": [],
      "stateMutability": "nonpayable",
      "type": "function"
    },
    {
      "inputs": [],
      "name": "_mintGuardianPaused",
      "outputs": [
        {
          "internalType": "bool",
          "name": "",
          "type": "bool"
        }
      ],
      "stateMutability": "view",
      "type": "function"
    },
    {
      "inputs": [
        {
          "internalType": "address",
          "name": "newBorrowCapGuardian",
          "type": "address"
        }
      ],
      "name": "_setBorrowCapGuardian",
      "outputs": [],
      "stateMutability": "nonpayable",
      "type": "function"
    },
    {
      "inputs": [
        {
          "internalType": "contract CToken",
          "name": "cToken",
          "type": "address"
        },
        {
          "internalType": "bool",
          "name": "state",
          "type": "bool"
        }
      ],
      "name": "_setBorrowPaused",
      "outputs": [
        {
          "internalType": "bool",
          "name": "",
          "type": "bool"
        }
      ],
      "stateMutability": "nonpayable",
      "type": "function"
    },
    {
      "inputs": [
        {
          "internalType": "uint256",
          "name": "newCloseFactorMantissa",
          "type": "uint256"
        }
      ],
      "name": "_setCloseFactor",
      "outputs": [
        {
          "internalType": "uint256",
          "name": "",
          "type": "uint256"
        }
      ],
      "stateMutability": "nonpayable",
      "type": "function"
    },
    {
      "inputs": [
        {
          "internalType": "contract CToken[]",
          "name": "cTokens",
          "type": "address[]"
        },
        {
          "internalType": "uint256[]",
          "name": "supplySpeeds",
          "type": "uint256[]"
        },
        {
          "internalType": "uint256[]",
          "name": "borrowSpeeds",
          "type": "uint256[]"
        }
      ],
      "name": "_setCompSpeeds",
      "outputs": [],
      "stateMutability": "nonpayable",
      "type": "function"
    },
    {
      "inputs": [
        {
          "internalType": "address",
          "name": "contributor",
          "type": "address"
        },
        {
          "internalType": "uint256",
          "name": "compSpeed",
          "type": "uint256"
        }
      ],
      "name": "_setContributorCompSpeed",
      "outputs": [],
      "stateMutability": "nonpayable",
      "type": "function"
    },
    {
      "inputs": [
        {
          "internalType": "contract CToken",
          "name": "cToken",
          "type": "address"
        },
        {
          "internalType": "uint256",
          "name": "newCollateralFactorMantissa",
          "type": "uint256"
        },
        {
          "internalType": "uint256",
          "name": "newCollateralFactorMantissaVip",
          "type": "uint256"
        },
        {
          "internalType": "uint256",
          "name": "newLiquidationThresholdMantissa",
          "type": "uint256"
        },
        {
          "internalType": "uint256",
          "name": "newLiquidationThresholdMantissaVip",
          "type": "uint256"
        }
      ],
      "name": "_setFactorsAndThresholds",
      "outputs": [
        {
          "internalType": "uint256",
          "name": "",
          "type": "uint256"
        }
      ],
      "stateMutability": "nonpayable",
      "type": "function"
    },
    {
      "inputs": [
        {
          "internalType": "uint256",
          "name": "newLiquidationIncentiveMantissa",
          "type": "uint256"
        }
      ],
      "name": "_setLiquidationIncentive",
      "outputs": [
        {
          "internalType": "uint256",
          "name": "",
          "type": "uint256"
        }
      ],
      "stateMutability": "nonpayable",
      "type": "function"
    },
    {
      "inputs": [
        {
          "internalType": "contract CToken[]",
          "name": "cTokens",
          "type": "address[]"
        },
        {
          "internalType": "uint256[]",
          "name": "newBorrowCaps",
          "type": "uint256[]"
        },
        {
          "internalType": "uint256[]",
          "name": "newSupplyCaps",
          "type": "uint256[]"
        }
      ],
      "name": "_setMarketBorrowCaps",
      "outputs": [],
      "stateMutability": "nonpayable",
      "type": "function"
    },
    {
      "inputs": [
        {
          "internalType": "contract CToken",
          "name": "cToken",
          "type": "address"
        },
        {
          "internalType": "bool",
          "name": "state",
          "type": "bool"
        }
      ],
      "name": "_setMintPaused",
      "outputs": [
        {
          "internalType": "bool",
          "name": "",
          "type": "bool"
        }
      ],
      "stateMutability": "nonpayable",
      "type": "function"
    },
    {
      "inputs": [
        {
          "internalType": "address",
          "name": "newPauseGuardian",
          "type": "address"
        }
      ],
      "name": "_setPauseGuardian",
      "outputs": [
        {
          "internalType": "uint256",
          "name": "",
          "type": "uint256"
        }
      ],
      "stateMutability": "nonpayable",
      "type": "function"
    },
    {
      "inputs": [
        {
          "internalType": "contract PriceOracle",
          "name": "newOracle",
          "type": "address"
        }
      ],
      "name": "_setPriceOracle",
      "outputs": [
        {
          "internalType": "uint256",
          "name": "",
          "type": "uint256"
        }
      ],
      "stateMutability": "nonpayable",
      "type": "function"
    },
    {
      "inputs": [
        {
          "internalType": "bool",
          "name": "state",
          "type": "bool"
        }
      ],
      "name": "_setSeizePaused",
      "outputs": [
        {
          "internalType": "bool",
          "name": "",
          "type": "bool"
        }
      ],
      "stateMutability": "nonpayable",
      "type": "function"
    },
    {
      "inputs": [
        {
          "internalType": "bool",
          "name": "state",
          "type": "bool"
        }
      ],
      "name": "_setTransferPaused",
      "outputs": [
        {
          "internalType": "bool",
          "name": "",
          "type": "bool"
        }
      ],
      "stateMutability": "nonpayable",
      "type": "function"
    },
    {
      "inputs": [
        {
          "internalType": "contract CToken",
          "name": "cToken",
          "type": "address"
        },
        {
          "internalType": "bool",
          "name": "isComped_",
          "type": "bool"
        },
        {
          "internalType": "bool",
          "name": "isPrivate_",
          "type": "bool"
        },
        {
          "internalType": "bool",
          "name": "onlyWhitelistedBorrow_",
          "type": "bool"
        }
      ],
      "name": "_supportMarket",
      "outputs": [
        {
          "internalType": "uint256",
          "name": "",
          "type": "uint256"
        }
      ],
      "stateMutability": "nonpayable",
      "type": "function"
    },
    {
      "inputs": [
        {
          "internalType": "address",
          "name": "",
          "type": "address"
        },
        {
          "internalType": "uint256",
          "name": "",
          "type": "uint256"
        }
      ],
      "name": "accountAssets",
      "outputs": [
        {
          "internalType": "contract CToken",
          "name": "",
          "type": "address"
        }
      ],
      "stateMutability": "view",
      "type": "function"
    },
    {
      "inputs": [
        {
          "internalType": "address",
          "name": "cToken",
          "type": "address"
        },
        {
          "internalType": "address",
          "name": "borrower",
          "type": "address"
        }
      ],
      "name": "addToMarketExternal",
      "outputs": [],
      "stateMutability": "nonpayable",
      "type": "function"
    },
    {
      "inputs": [],
      "name": "admin",
      "outputs": [
        {
          "internalType": "address",
          "name": "",
          "type": "address"
        }
      ],
      "stateMutability": "view",
      "type": "function"
    },
    {
      "inputs": [
        {
          "internalType": "uint256",
          "name": "",
          "type": "uint256"
        }
      ],
      "name": "allMarkets",
      "outputs": [
        {
          "internalType": "contract CToken",
          "name": "",
          "type": "address"
        }
      ],
      "stateMutability": "view",
      "type": "function"
    },
    {
      "inputs": [
        {
          "internalType": "address",
          "name": "cToken",
          "type": "address"
        },
        {
          "internalType": "address",
          "name": "borrower",
          "type": "address"
        },
        {
          "internalType": "uint256",
          "name": "borrowAmount",
          "type": "uint256"
        }
      ],
      "name": "borrowAllowed",
      "outputs": [
        {
          "internalType": "uint256",
          "name": "",
          "type": "uint256"
        }
      ],
      "stateMutability": "nonpayable",
      "type": "function"
    },
    {
      "inputs": [],
      "name": "borrowCapGuardian",
      "outputs": [
        {
          "internalType": "address",
          "name": "",
          "type": "address"
        }
      ],
      "stateMutability": "view",
      "type": "function"
    },
    {
      "inputs": [
        {
          "internalType": "address",
          "name": "",
          "type": "address"
        }
      ],
      "name": "borrowCaps",
      "outputs": [
        {
          "internalType": "uint256",
          "name": "",
          "type": "uint256"
        }
      ],
      "stateMutability": "view",
      "type": "function"
    },
    {
      "inputs": [
        {
          "internalType": "address",
          "name": "",
          "type": "address"
        }
      ],
      "name": "borrowGuardianPaused",
      "outputs": [
        {
          "internalType": "bool",
          "name": "",
          "type": "bool"
        }
      ],
      "stateMutability": "view",
      "type": "function"
    },
    {
      "inputs": [
        {
          "internalType": "address",
          "name": "cToken",
          "type": "address"
        },
        {
          "internalType": "address",
          "name": "borrower",
          "type": "address"
        },
        {
          "internalType": "uint256",
          "name": "borrowAmount",
          "type": "uint256"
        }
      ],
      "name": "borrowVerify",
      "outputs": [],
      "stateMutability": "nonpayable",
      "type": "function"
    },
    {
      "inputs": [
        {
          "internalType": "address",
          "name": "account",
          "type": "address"
        },
        {
          "internalType": "contract CToken",
          "name": "cToken",
          "type": "address"
        }
      ],
      "name": "checkMembership",
      "outputs": [
        {
          "internalType": "bool",
          "name": "",
          "type": "bool"
        }
      ],
      "stateMutability": "view",
      "type": "function"
    },
    {
      "inputs": [
        {
          "internalType": "address",
          "name": "holder",
          "type": "address"
        },
        {
          "internalType": "contract CToken[]",
          "name": "cTokens",
          "type": "address[]"
        }
      ],
      "name": "claimComp",
      "outputs": [],
      "stateMutability": "nonpayable",
      "type": "function"
    },
    {
      "inputs": [
        {
          "internalType": "address[]",
          "name": "holders",
          "type": "address[]"
        },
        {
          "internalType": "contract CToken[]",
          "name": "cTokens",
          "type": "address[]"
        },
        {
          "internalType": "bool",
          "name": "borrowers",
          "type": "bool"
        },
        {
          "internalType": "bool",
          "name": "suppliers",
          "type": "bool"
        }
      ],
      "name": "claimComp",
      "outputs": [],
      "stateMutability": "nonpayable",
      "type": "function"
    },
    {
      "inputs": [
        {
          "internalType": "address",
          "name": "holder",
          "type": "address"
        }
      ],
      "name": "claimComp",
      "outputs": [],
      "stateMutability": "nonpayable",
      "type": "function"
    },
    {
      "inputs": [],
      "name": "closeFactorMantissa",
      "outputs": [
        {
          "internalType": "uint256",
          "name": "",
          "type": "uint256"
        }
      ],
      "stateMutability": "view",
      "type": "function"
    },
    {
      "inputs": [
        {
          "internalType": "address",
          "name": "",
          "type": "address"
        }
      ],
      "name": "compAccrued",
      "outputs": [
        {
          "internalType": "uint256",
          "name": "",
          "type": "uint256"
        }
      ],
      "stateMutability": "view",
      "type": "function"
    },
    {
      "inputs": [],
      "name": "compAddress",
      "outputs": [
        {
          "internalType": "address",
          "name": "",
          "type": "address"
        }
      ],
      "stateMutability": "view",
      "type": "function"
    },
    {
      "inputs": [
        {
          "internalType": "address",
          "name": "",
          "type": "address"
        }
      ],
      "name": "compBorrowSpeeds",
      "outputs": [
        {
          "internalType": "uint256",
          "name": "",
          "type": "uint256"
        }
      ],
      "stateMutability": "view",
      "type": "function"
    },
    {
      "inputs": [
        {
          "internalType": "address",
          "name": "",
          "type": "address"
        }
      ],
      "name": "compBorrowState",
      "outputs": [
        {
          "internalType": "uint224",
          "name": "index",
          "type": "uint224"
        },
        {
          "internalType": "uint32",
          "name": "block",
          "type": "uint32"
        }
      ],
      "stateMutability": "view",
      "type": "function"
    },
    {
      "inputs": [
        {
          "internalType": "address",
          "name": "",
          "type": "address"
        },
        {
          "internalType": "address",
          "name": "",
          "type": "address"
        }
      ],
      "name": "compBorrowerIndex",
      "outputs": [
        {
          "internalType": "uint256",
          "name": "",
          "type": "uint256"
        }
      ],
      "stateMutability": "view",
      "type": "function"
    },
    {
      "inputs": [
        {
          "internalType": "address",
          "name": "",
          "type": "address"
        }
      ],
      "name": "compContributorSpeeds",
      "outputs": [
        {
          "internalType": "uint256",
          "name": "",
          "type": "uint256"
        }
      ],
      "stateMutability": "view",
      "type": "function"
    },
    {
      "inputs": [],
      "name": "compInitialIndex",
      "outputs": [
        {
          "internalType": "uint224",
          "name": "",
          "type": "uint224"
        }
      ],
      "stateMutability": "view",
      "type": "function"
    },
    {
      "inputs": [],
      "name": "compRate",
      "outputs": [
        {
          "internalType": "uint256",
          "name": "",
          "type": "uint256"
        }
      ],
      "stateMutability": "view",
      "type": "function"
    },
    {
      "inputs": [
        {
          "internalType": "address",
          "name": "",
          "type": "address"
        }
      ],
      "name": "compReceivable",
      "outputs": [
        {
          "internalType": "uint256",
          "name": "",
          "type": "uint256"
        }
      ],
      "stateMutability": "view",
      "type": "function"
    },
    {
      "inputs": [
        {
          "internalType": "address",
          "name": "",
          "type": "address"
        }
      ],
      "name": "compSpeeds",
      "outputs": [
        {
          "internalType": "uint256",
          "name": "",
          "type": "uint256"
        }
      ],
      "stateMutability": "view",
      "type": "function"
    },
    {
      "inputs": [
        {
          "internalType": "address",
          "name": "",
          "type": "address"
        },
        {
          "internalType": "address",
          "name": "",
          "type": "address"
        }
      ],
      "name": "compSupplierIndex",
      "outputs": [
        {
          "internalType": "uint256",
          "name": "",
          "type": "uint256"
        }
      ],
      "stateMutability": "view",
      "type": "function"
    },
    {
      "inputs": [
        {
          "internalType": "address",
          "name": "",
          "type": "address"
        }
      ],
      "name": "compSupplySpeeds",
      "outputs": [
        {
          "internalType": "uint256",
          "name": "",
          "type": "uint256"
        }
      ],
      "stateMutability": "view",
      "type": "function"
    },
    {
      "inputs": [
        {
          "internalType": "address",
          "name": "",
          "type": "address"
        }
      ],
      "name": "compSupplyState",
      "outputs": [
        {
          "internalType": "uint224",
          "name": "index",
          "type": "uint224"
        },
        {
          "internalType": "uint32",
          "name": "block",
          "type": "uint32"
        }
      ],
      "stateMutability": "view",
      "type": "function"
    },
    {
      "inputs": [],
      "name": "comptrollerImplementation",
      "outputs": [
        {
          "internalType": "address",
          "name": "",
          "type": "address"
        }
      ],
      "stateMutability": "view",
      "type": "function"
    },
    {
      "inputs": [
        {
          "internalType": "address[]",
          "name": "cTokens",
          "type": "address[]"
        }
      ],
      "name": "enterMarkets",
      "outputs": [
        {
          "internalType": "uint256[]",
          "name": "",
          "type": "uint256[]"
        }
      ],
      "stateMutability": "nonpayable",
      "type": "function"
    },
    {
      "inputs": [
        {
          "internalType": "address",
          "name": "cTokenAddress",
          "type": "address"
        }
      ],
      "name": "exitMarket",
      "outputs": [
        {
          "internalType": "uint256",
          "name": "",
          "type": "uint256"
        }
      ],
      "stateMutability": "nonpayable",
      "type": "function"
    },
    {
      "inputs": [
        {
          "internalType": "address",
          "name": "account",
          "type": "address"
        }
      ],
      "name": "getAccountLiquidity",
      "outputs": [
        {
          "internalType": "uint256",
          "name": "",
          "type": "uint256"
        },
        {
          "internalType": "uint256",
          "name": "",
          "type": "uint256"
        },
        {
          "internalType": "uint256",
          "name": "",
          "type": "uint256"
        }
      ],
      "stateMutability": "view",
      "type": "function"
    },
    {
      "inputs": [],
      "name": "getAllMarkets",
      "outputs": [
        {
          "internalType": "contract CToken[]",
          "name": "",
          "type": "address[]"
        }
      ],
      "stateMutability": "view",
      "type": "function"
    },
    {
      "inputs": [
        {
          "internalType": "address",
          "name": "account",
          "type": "address"
        }
      ],
      "name": "getAssetsIn",
      "outputs": [
        {
          "internalType": "contract CToken[]",
          "name": "",
          "type": "address[]"
        }
      ],
      "stateMutability": "view",
      "type": "function"
    },
    {
      "inputs": [],
      "name": "getBlockNumber",
      "outputs": [
        {
          "internalType": "uint256",
          "name": "",
          "type": "uint256"
        }
      ],
      "stateMutability": "view",
      "type": "function"
    },
    {
      "inputs": [],
      "name": "getCompAddress",
      "outputs": [
        {
          "internalType": "address",
          "name": "",
          "type": "address"
        }
      ],
      "stateMutability": "view",
      "type": "function"
    },
    {
      "inputs": [
        {
          "internalType": "address",
          "name": "account",
          "type": "address"
        },
        {
          "internalType": "address",
          "name": "cTokenModify",
          "type": "address"
        },
        {
          "internalType": "uint256",
          "name": "redeemTokens",
          "type": "uint256"
        },
        {
          "internalType": "uint256",
          "name": "borrowAmount",
          "type": "uint256"
        }
      ],
      "name": "getHypotheticalAccountLiquidity",
      "outputs": [
        {
          "internalType": "uint256",
          "name": "",
          "type": "uint256"
        },
        {
          "internalType": "uint256",
          "name": "",
          "type": "uint256"
        },
        {
          "internalType": "uint256",
          "name": "",
          "type": "uint256"
        }
      ],
      "stateMutability": "view",
      "type": "function"
    },
    {
      "inputs": [
        {
          "internalType": "address",
          "name": "_account",
          "type": "address"
        }
      ],
      "name": "getIsAccountVip",
      "outputs": [
        {
          "internalType": "bool",
          "name": "isVip",
          "type": "bool"
        }
      ],
      "stateMutability": "view",
      "type": "function"
    },
    {
      "inputs": [],
      "name": "immutableCompAddress",
      "outputs": [
        {
          "internalType": "bool",
          "name": "",
          "type": "bool"
        }
      ],
      "stateMutability": "view",
      "type": "function"
    },
    {
      "inputs": [],
      "name": "isComptroller",
      "outputs": [
        {
          "internalType": "bool",
          "name": "",
          "type": "bool"
        }
      ],
      "stateMutability": "view",
      "type": "function"
    },
    {
      "inputs": [
        {
          "internalType": "contract CToken",
          "name": "cToken",
          "type": "address"
        }
      ],
      "name": "isDeprecated",
      "outputs": [
        {
          "internalType": "bool",
          "name": "",
          "type": "bool"
        }
      ],
      "stateMutability": "view",
      "type": "function"
    },
    {
      "inputs": [
        {
          "internalType": "address",
          "name": "",
          "type": "address"
        }
      ],
      "name": "lastContributorBlock",
      "outputs": [
        {
          "internalType": "uint256",
          "name": "",
          "type": "uint256"
        }
      ],
      "stateMutability": "view",
      "type": "function"
    },
    {
      "inputs": [
        {
          "internalType": "address",
          "name": "cTokenBorrowed",
          "type": "address"
        },
        {
          "internalType": "address",
          "name": "cTokenCollateral",
          "type": "address"
        },
        {
          "internalType": "address",
          "name": "liquidator",
          "type": "address"
        },
        {
          "internalType": "address",
          "name": "borrower",
          "type": "address"
        },
        {
          "internalType": "uint256",
          "name": "repayAmount",
          "type": "uint256"
        }
      ],
      "name": "liquidateBorrowAllowed",
      "outputs": [
        {
          "internalType": "uint256",
          "name": "",
          "type": "uint256"
        }
      ],
      "stateMutability": "view",
      "type": "function"
    },
    {
      "inputs": [
        {
          "internalType": "address",
          "name": "cTokenBorrowed",
          "type": "address"
        },
        {
          "internalType": "address",
          "name": "cTokenCollateral",
          "type": "address"
        },
        {
          "internalType": "address",
          "name": "liquidator",
          "type": "address"
        },
        {
          "internalType": "address",
          "name": "borrower",
          "type": "address"
        },
        {
          "internalType": "uint256",
          "name": "actualRepayAmount",
          "type": "uint256"
        },
        {
          "internalType": "uint256",
          "name": "seizeTokens",
          "type": "uint256"
        }
      ],
      "name": "liquidateBorrowVerify",
      "outputs": [],
      "stateMutability": "nonpayable",
      "type": "function"
    },
    {
      "inputs": [
        {
          "internalType": "address",
          "name": "cTokenBorrowed",
          "type": "address"
        },
        {
          "internalType": "address",
          "name": "cTokenCollateral",
          "type": "address"
        },
        {
          "internalType": "uint256",
          "name": "actualRepayAmount",
          "type": "uint256"
        }
      ],
      "name": "liquidateCalculateSeizeTokens",
      "outputs": [
        {
          "internalType": "uint256",
          "name": "",
          "type": "uint256"
        },
        {
          "internalType": "uint256",
          "name": "",
          "type": "uint256"
        }
      ],
      "stateMutability": "view",
      "type": "function"
    },
    {
      "inputs": [],
      "name": "liquidationIncentiveMantissa",
      "outputs": [
        {
          "internalType": "uint256",
          "name": "",
          "type": "uint256"
        }
      ],
      "stateMutability": "view",
      "type": "function"
    },
    {
      "inputs": [
        {
          "internalType": "address",
          "name": "",
          "type": "address"
        }
      ],
      "name": "markets",
      "outputs": [
        {
          "internalType": "bool",
          "name": "isListed",
          "type": "bool"
        },
        {
          "internalType": "uint256",
          "name": "collateralFactorMantissa",
          "type": "uint256"
        },
        {
          "internalType": "uint256",
          "name": "liquidationThresholdMantissa",
          "type": "uint256"
        },
        {
          "internalType": "uint256",
          "name": "collateralFactorMantissaVip",
          "type": "uint256"
        },
        {
          "internalType": "uint256",
          "name": "liquidationThresholdMantissaVip",
          "type": "uint256"
        },
        {
          "internalType": "bool",
          "name": "isComped",
          "type": "bool"
        },
        {
          "internalType": "bool",
          "name": "isPrivate",
          "type": "bool"
        },
        {
          "internalType": "bool",
          "name": "onlyWhitelistedBorrow",
          "type": "bool"
        }
      ],
      "stateMutability": "view",
      "type": "function"
    },
    {
      "inputs": [],
      "name": "maxAssets",
      "outputs": [
        {
          "internalType": "uint256",
          "name": "",
          "type": "uint256"
        }
      ],
      "stateMutability": "view",
      "type": "function"
    },
    {
      "inputs": [
        {
          "internalType": "address",
          "name": "cToken",
          "type": "address"
        },
        {
          "internalType": "address",
          "name": "minter",
          "type": "address"
        },
        {
          "internalType": "uint256",
          "name": "mintAmount",
          "type": "uint256"
        }
      ],
      "name": "mintAllowed",
      "outputs": [
        {
          "internalType": "uint256",
          "name": "",
          "type": "uint256"
        }
      ],
      "stateMutability": "nonpayable",
      "type": "function"
    },
    {
      "inputs": [
        {
          "internalType": "address",
          "name": "",
          "type": "address"
        }
      ],
      "name": "mintGuardianPaused",
      "outputs": [
        {
          "internalType": "bool",
          "name": "",
          "type": "bool"
        }
      ],
      "stateMutability": "view",
      "type": "function"
    },
    {
      "inputs": [
        {
          "internalType": "address",
          "name": "cToken",
          "type": "address"
        },
        {
          "internalType": "address",
          "name": "minter",
          "type": "address"
        },
        {
          "internalType": "uint256",
          "name": "actualMintAmount",
          "type": "uint256"
        },
        {
          "internalType": "uint256",
          "name": "mintTokens",
          "type": "uint256"
        }
      ],
      "name": "mintVerify",
      "outputs": [],
      "stateMutability": "nonpayable",
      "type": "function"
    },
    {
      "inputs": [],
      "name": "oracle",
      "outputs": [
        {
          "internalType": "contract PriceOracle",
          "name": "",
          "type": "address"
        }
      ],
      "stateMutability": "view",
      "type": "function"
    },
    {
      "inputs": [],
      "name": "pauseGuardian",
      "outputs": [
        {
          "internalType": "address",
          "name": "",
          "type": "address"
        }
      ],
      "stateMutability": "view",
      "type": "function"
    },
    {
      "inputs": [],
      "name": "pendingAdmin",
      "outputs": [
        {
          "internalType": "address",
          "name": "",
          "type": "address"
        }
      ],
      "stateMutability": "view",
      "type": "function"
    },
    {
      "inputs": [],
      "name": "pendingComptrollerImplementation",
      "outputs": [
        {
          "internalType": "address",
          "name": "",
          "type": "address"
        }
      ],
      "stateMutability": "view",
      "type": "function"
    },
    {
      "inputs": [
        {
          "internalType": "address",
          "name": "cToken",
          "type": "address"
        },
        {
          "internalType": "address",
          "name": "redeemer",
          "type": "address"
        },
        {
          "internalType": "uint256",
          "name": "redeemTokens",
          "type": "uint256"
        }
      ],
      "name": "redeemAllowed",
      "outputs": [
        {
          "internalType": "uint256",
          "name": "",
          "type": "uint256"
        }
      ],
      "stateMutability": "nonpayable",
      "type": "function"
    },
    {
      "inputs": [
        {
          "internalType": "address",
          "name": "cToken",
          "type": "address"
        },
        {
          "internalType": "address",
          "name": "redeemer",
          "type": "address"
        },
        {
          "internalType": "uint256",
          "name": "redeemAmount",
          "type": "uint256"
        },
        {
          "internalType": "uint256",
          "name": "redeemTokens",
          "type": "uint256"
        }
      ],
      "name": "redeemVerify",
      "outputs": [],
      "stateMutability": "nonpayable",
      "type": "function"
    },
    {
      "inputs": [
        {
          "internalType": "address",
          "name": "cToken",
          "type": "address"
        },
        {
          "internalType": "address",
          "name": "payer",
          "type": "address"
        },
        {
          "internalType": "address",
          "name": "borrower",
          "type": "address"
        },
        {
          "internalType": "uint256",
          "name": "repayAmount",
          "type": "uint256"
        }
      ],
      "name": "repayBorrowAllowed",
      "outputs": [
        {
          "internalType": "uint256",
          "name": "",
          "type": "uint256"
        }
      ],
      "stateMutability": "nonpayable",
      "type": "function"
    },
    {
      "inputs": [
        {
          "internalType": "address",
          "name": "cToken",
          "type": "address"
        },
        {
          "internalType": "address",
          "name": "payer",
          "type": "address"
        },
        {
          "internalType": "address",
          "name": "borrower",
          "type": "address"
        },
        {
          "internalType": "uint256",
          "name": "actualRepayAmount",
          "type": "uint256"
        },
        {
          "internalType": "uint256",
          "name": "borrowerIndex",
          "type": "uint256"
        }
      ],
      "name": "repayBorrowVerify",
      "outputs": [],
      "stateMutability": "nonpayable",
      "type": "function"
    },
    {
      "inputs": [
        {
          "internalType": "address",
          "name": "cTokenCollateral",
          "type": "address"
        },
        {
          "internalType": "address",
          "name": "cTokenBorrowed",
          "type": "address"
        },
        {
          "internalType": "address",
          "name": "liquidator",
          "type": "address"
        },
        {
          "internalType": "address",
          "name": "borrower",
          "type": "address"
        },
        {
          "internalType": "uint256",
          "name": "seizeTokens",
          "type": "uint256"
        }
      ],
      "name": "seizeAllowed",
      "outputs": [
        {
          "internalType": "uint256",
          "name": "",
          "type": "uint256"
        }
      ],
      "stateMutability": "nonpayable",
      "type": "function"
    },
    {
      "inputs": [],
      "name": "seizeGuardianPaused",
      "outputs": [
        {
          "internalType": "bool",
          "name": "",
          "type": "bool"
        }
      ],
      "stateMutability": "view",
      "type": "function"
    },
    {
      "inputs": [
        {
          "internalType": "address",
          "name": "cTokenCollateral",
          "type": "address"
        },
        {
          "internalType": "address",
          "name": "cTokenBorrowed",
          "type": "address"
        },
        {
          "internalType": "address",
          "name": "liquidator",
          "type": "address"
        },
        {
          "internalType": "address",
          "name": "borrower",
          "type": "address"
        },
        {
          "internalType": "uint256",
          "name": "seizeTokens",
          "type": "uint256"
        }
      ],
      "name": "seizeVerify",
      "outputs": [],
      "stateMutability": "nonpayable",
      "type": "function"
    },
    {
      "inputs": [
        {
          "internalType": "address",
          "name": "compAddress_",
          "type": "address"
        }
      ],
      "name": "setCompAddress",
      "outputs": [],
      "stateMutability": "nonpayable",
      "type": "function"
    },
    {
      "inputs": [],
      "name": "setImmutableCompAddress",
      "outputs": [],
      "stateMutability": "nonpayable",
      "type": "function"
    },
    {
      "inputs": [
        {
          "internalType": "address",
          "name": "cToken_",
          "type": "address"
        },
        {
          "internalType": "bool",
          "name": "isPrivate_",
          "type": "bool"
        },
        {
          "internalType": "bool",
          "name": "onlyWhitelistedCanBorrow_",
          "type": "bool"
        },
        {
          "internalType": "bool",
          "name": "isComped_",
          "type": "bool"
        }
      ],
      "name": "setIsPrivateMarket",
      "outputs": [],
      "stateMutability": "nonpayable",
      "type": "function"
    },
    {
      "inputs": [
        {
          "internalType": "uint256",
          "name": "_tokenBalanceVipThreshold",
          "type": "uint256"
        }
      ],
      "name": "setTokenBalanceVipThreshold",
      "outputs": [],
      "stateMutability": "nonpayable",
      "type": "function"
    },
    {
      "inputs": [
        {
          "internalType": "address",
          "name": "_vipNft",
          "type": "address"
        }
      ],
      "name": "setVipNft",
      "outputs": [],
      "stateMutability": "nonpayable",
      "type": "function"
    },
    {
      "inputs": [
        {
          "internalType": "address",
          "name": "user_",
          "type": "address"
        },
        {
          "internalType": "bool",
          "name": "isWhiteListed_",
          "type": "bool"
        }
      ],
      "name": "setWhitelistedUser",
      "outputs": [],
      "stateMutability": "nonpayable",
      "type": "function"
    },
    {
      "inputs": [
        {
          "internalType": "address",
          "name": "",
          "type": "address"
        }
      ],
      "name": "supplyCaps",
      "outputs": [
        {
          "internalType": "uint256",
          "name": "",
          "type": "uint256"
        }
      ],
      "stateMutability": "view",
      "type": "function"
    },
    {
      "inputs": [],
      "name": "tokenBalanceVipThreshold",
      "outputs": [
        {
          "internalType": "uint256",
          "name": "",
          "type": "uint256"
        }
      ],
      "stateMutability": "view",
      "type": "function"
    },
    {
      "inputs": [
        {
          "internalType": "address",
          "name": "cToken",
          "type": "address"
        },
        {
          "internalType": "address",
          "name": "src",
          "type": "address"
        },
        {
          "internalType": "address",
          "name": "dst",
          "type": "address"
        },
        {
          "internalType": "uint256",
          "name": "transferTokens",
          "type": "uint256"
        }
      ],
      "name": "transferAllowed",
      "outputs": [
        {
          "internalType": "uint256",
          "name": "",
          "type": "uint256"
        }
      ],
      "stateMutability": "nonpayable",
      "type": "function"
    },
    {
      "inputs": [],
      "name": "transferGuardianPaused",
      "outputs": [
        {
          "internalType": "bool",
          "name": "",
          "type": "bool"
        }
      ],
      "stateMutability": "view",
      "type": "function"
    },
    {
      "inputs": [
        {
          "internalType": "address",
          "name": "cToken",
          "type": "address"
        },
        {
          "internalType": "address",
          "name": "src",
          "type": "address"
        },
        {
          "internalType": "address",
          "name": "dst",
          "type": "address"
        },
        {
          "internalType": "uint256",
          "name": "transferTokens",
          "type": "uint256"
        }
      ],
      "name": "transferVerify",
      "outputs": [],
      "stateMutability": "nonpayable",
      "type": "function"
    },
    {
      "inputs": [
        {
          "internalType": "address",
          "name": "contributor",
          "type": "address"
        }
      ],
      "name": "updateContributorRewards",
      "outputs": [],
      "stateMutability": "nonpayable",
      "type": "function"
    },
    {
      "inputs": [],
      "name": "vipNft",
      "outputs": [
        {
          "internalType": "address",
          "name": "",
          "type": "address"
        }
      ],
      "stateMutability": "view",
      "type": "function"
    },
    {
      "inputs": [
        {
          "internalType": "address",
          "name": "",
          "type": "address"
        }
      ],
      "name": "whitelistedUser",
      "outputs": [
        {
          "internalType": "bool",
          "name": "",
          "type": "bool"
        }
      ],
      "stateMutability": "view",
      "type": "function"
    }
  ],
  "bytecode": "0x608060405234801561001057600080fd5b50600080546001600160a01b0319163390811782558152601560205260409020805460ff191660011790556016805460ff60a01b1916905561601380620000586000396000f3fe608060405234801561001057600080fd5b506004361061050e5760003560e01c8063741b2525116102a4578063b0772d0b11610172578063d747e15c116100d9578063e875544611610092578063e875544614610dc1578063e9af029214610dca578063eabe7d9114610ddd578063ede4edd014610df0578063f4a433c014610e03578063f851a44014610e2357600080fd5b8063d747e15c14610d4e578063da3d454c14610d61578063dce1544914610d74578063dcfbc0c714610d87578063e49ba95a14610d9a578063e6653f3d14610dad57600080fd5b8063bea6b8b81161012b578063bea6b8b814610c88578063c299823814610ca8578063c488847b14610cc8578063ca0af04314610cf0578063cc7ebdc414610d1b578063d02f735114610d3b57600080fd5b8063b0772d0b14610c14578063b21be7fd14610c1c578063b3d52a5614610c47578063bb82aa5e14610c4f578063bdcdc25814610c62578063be3aa8d114610c7557600080fd5b806394543c1511610216578063a86cc915116101cf578063a86cc91514610ba8578063a8b4394814610bbb578063aa90075414610bce578063abfceffc14610bd7578063ac0b0bb714610bf7578063ad888c3314610c0b57600080fd5b806394543c1514610b1b57806394b2294b14610b2e578063986ab83814610b375780639a6f5ac314610b575780639d1b5a0a14610b6a578063a7f0e23114610b7b57600080fd5b806387f763031161026857806387f76303146109ba5780638936c5fa146109ce5780638c57804e146109f15780638e8f294b14610a295780638ebf636414610ac7578063929fe9a114610ada57600080fd5b8063741b25251461094e5780637d3ab61a146109615780637dc0d1d014610974578063858aa5e51461098757806385b7beb81461099a57600080fd5b806347ef3b3b116103e15780635c778605116103535780636aa875b51161030c5780636aa875b51461086b5780636b79c38d1461088b5780636d154ea5146108e75780636d35bf911461090a5780636f309a7014610918578063731f0c2b1461092b57600080fd5b80635c778605146107fe5780635ec88c79146108115780635f5af1aa146108245780635fc7e71e146108375780636810dfa61461084a5780636a56947e1461085d57600080fd5b80634fd42e17116103a55780634fd42e171461078b57806351b446191461079e57806351dff989146107b257806352d84d1e146107c557806355ee1fe1146107d8578063598ee1cb146107eb57600080fd5b806347ef3b3b1461070b5780634a584432146107215780634ada90af146107415780634e79238f1461074a5780634ef4c3e11461077857600080fd5b806326782247116104855780633bcf7ec11161043e5780633bcf7ec1146106a45780633c94786f146106b757806341c728b9146106cb57806342cbb15c146106df57806344710fbe146106e557806345152636146106f857600080fd5b8063267822471461063257806327efe3cb146106455780632a320f61146106585780632d70db781461066b578063317b0b771461067e578063391957d71461069157600080fd5b80631d504dc6116104d75780631d504dc6146105995780631d7b33d7146105ac5780631ededc91146105cc57806321af4569146105e157806324008a621461060c57806324a3d6221461061f57600080fd5b80627e3dd21461051357806302c3bcbb1461053057806318c882a51461055e5780631c3db2e0146105715780631cd5acca14610586575b600080fd5b61051b600181565b60405190151581526020015b60405180910390f35b61055061053e366004615559565b60196020526000908152604090205481565b604051908152602001610527565b61051b61056c366004615584565b610e36565b61058461057f36600461569c565b610f78565b005b61051b610594366004615559565b610fdb565b6105846105a7366004615559565b61110a565b6105506105ba366004615559565b600f6020526000908152604090205481565b6105846105da3660046156ec565b5050505050565b6017546105f4906001600160a01b031681565b6040516001600160a01b039091168152602001610527565b61055061061a366004615747565b611288565b600a546105f4906001600160a01b031681565b6001546105f4906001600160a01b031681565b610584610653366004615798565b6113bf565b6105506106663660046157c4565b6114b6565b61051b610679366004615808565b611853565b61055061068c366004615825565b611943565b61058461069f366004615559565b6119ea565b61051b6106b2366004615584565b611ab4565b600a5461051b90600160a01b900460ff1681565b6105846106d936600461583e565b50505050565b43610550565b6105846106f3366004615584565b611bde565b6105846107063660046158d0565b611c63565b61058461071936600461596a565b505050505050565b61055061072f366004615559565b60186020526000908152604090205481565b61055060065481565b61075d61075836600461583e565b611f2f565b60408051938452602084019290925290820152606001610527565b6105506107863660046159d8565b611f6d565b610550610799366004615825565b612229565b60165461051b90600160a01b900460ff1681565b6105846107c036600461583e565b612286565b6105f46107d3366004615825565b6122d5565b6105506107e6366004615559565b6122ff565b6105846107f9366004615798565b612378565b61058461080c3660046159d8565b505050565b61075d61081f366004615559565b61246c565b610550610832366004615559565b6124a8565b610550610845366004615a19565b612521565b610584610858366004615a7d565b6126e1565b6105846106d9366004615747565b610550610879366004615559565b601d6020526000908152604090205481565b6108c3610899366004615559565b6010602052600090815260409020546001600160e01b03811690600160e01b900463ffffffff1682565b604080516001600160e01b03909316835263ffffffff909116602083015201610527565b61051b6108f5366004615559565b600c6020526000908152604090205460ff1681565b6105846105da366004615a19565b610584610926366004615b06565b61296b565b61051b610939366004615559565b600b6020526000908152604090205460ff1681565b61058461095c366004615559565b612a25565b6016546105f4906001600160a01b031681565b6004546105f4906001600160a01b031681565b610584610995366004615559565b612ad1565b6105506109a8366004615559565b601e6020526000908152604090205481565b600a5461051b90600160b01b900460ff1681565b61051b6109dc366004615559565b60156020526000908152604090205460ff1681565b6108c36109ff366004615559565b6011602052600090815260409020546001600160e01b03811690600160e01b900463ffffffff1682565b610a84610a37366004615559565b60096020526000908152604090208054600182015460028301546003840154600485015460069095015460ff94851695939492939192818116916101008104821691620100009091041688565b60408051981515895260208901979097529587019490945260608601929092526080850152151560a0840152151560c0830152151560e082015261010001610527565b61051b610ad5366004615808565b612b5c565b61051b610ae8366004615b47565b6001600160a01b038082166000908152600960209081526040808320938616835260059093019052205460ff1692915050565b61051b610b29366004615559565b612c43565b61055060075481565b610550610b45366004615559565b601a6020526000908152604090205481565b601f546105f4906001600160a01b031681565b6016546001600160a01b03166105f4565b610b906a0c097ce7bc90715b34b9f160241b81565b6040516001600160e01b039091168152602001610527565b610584610bb6366004615b47565b612d02565b610584610bc9366004615bd0565b612d51565b610550600e5481565b610bea610be5366004615559565b612e86565b6040516105279190615c58565b600a5461051b90600160b81b900460ff1681565b61055060205481565b610bea612efc565b610550610c2a366004615b47565b601260209081526000928352604080842090915290825290205481565b610584612f5e565b6002546105f4906001600160a01b031681565b610550610c70366004615747565b612fcd565b610584610c83366004615825565b613065565b610550610c96366004615559565b601b6020526000908152604090205481565b610cbb610cb6366004615ca5565b6130d9565b6040516105279190615cda565b610cdb610cd63660046159d8565b6131a1565b60408051928352602083019190915201610527565b610550610cfe366004615b47565b601360209081526000928352604080842090915290825290205481565b610550610d29366004615559565b60146020526000908152604090205481565b610550610d49366004615a19565b6133bf565b610584610d5c366004615559565b613550565b610550610d6f3660046159d8565b6135cc565b6105f4610d82366004615798565b613aa1565b6003546105f4906001600160a01b031681565b610550610da8366004615b06565b613ad9565b600a5461051b90600160a81b900460ff1681565b61055060055481565b610584610dd8366004615559565b613c4b565b610550610deb3660046159d8565b613caf565b610550610dfe366004615559565b613ccc565b610550610e11366004615559565b601c6020526000908152604090205481565b6000546105f4906001600160a01b031681565b6001600160a01b03821660009081526009602052604081205460ff16610e775760405162461bcd60e51b8152600401610e6e90615d12565b60405180910390fd5b600a546001600160a01b0316331480610e9a57506000546001600160a01b031633145b610eb65760405162461bcd60e51b8152600401610e6e90615d5a565b6000546001600160a01b0316331480610ed157506001821515145b610eed5760405162461bcd60e51b8152600401610e6e90615da1565b6001600160a01b0383166000818152600c6020908152604091829020805460ff19168615159081179091558251938452606091840182905260069184019190915265426f72726f7760d01b6080840152908201527f71aec636243f9709bb0007ae15e9afb8150ab01716d75fd7573be5cc096e03b09060a0015b60405180910390a150805b92915050565b604080516001808252818301909252600091602080830190803683370190505090508281600081518110610fae57610fae615dd1565b60200260200101906001600160a01b031690816001600160a01b03168152505061080c81836001806126e1565b601f546040516370a0823160e01b81526001600160a01b03838116600483015260009283929116906370a0823190602401602060405180830381865afa158015611029573d6000803e3d6000fd5b505050506040513d601f19601f8201168201806040525081019061104d9190615de7565b111561105b57506001919050565b6001600160a01b03821660009081526015602052604090205460ff161561108457506001919050565b6020546016546040516370a0823160e01b81526001600160a01b038581166004830152909116906370a0823190602401602060405180830381865afa1580156110d1573d6000803e3d6000fd5b505050506040513d601f19601f820116820180604052508101906110f59190615de7565b1061110257506001919050565b506000919050565b806001600160a01b031663f851a4406040518163ffffffff1660e01b8152600401602060405180830381865afa158015611148573d6000803e3d6000fd5b505050506040513d601f19601f8201168201806040525081019061116c9190615e00565b6001600160a01b0316336001600160a01b0316146111dc5760405162461bcd60e51b815260206004820152602760248201527f6f6e6c7920756e6974726f6c6c65722061646d696e2063616e206368616e676560448201526620627261696e7360c81b6064820152608401610e6e565b806001600160a01b031663c1e803346040518163ffffffff1660e01b81526004016020604051808303816000875af115801561121c573d6000803e3d6000fd5b505050506040513d601f19601f820116820180604052508101906112409190615de7565b156112855760405162461bcd60e51b815260206004820152601560248201527418da185b99d9481b9bdd08185d5d1a1bdc9a5e9959605a1b6044820152606401610e6e565b50565b6001600160a01b03841660009081526009602052604081205460ff166112b25760095b90506113b7565b6000859050806001600160a01b031663842e11eb6040518163ffffffff1660e01b8152600401602060405180830381865afa1580156112f5573d6000803e3d6000fd5b505050506040513d601f19601f820116820180604052508101906113199190615e33565b156113285760129150506113b7565b60006040518060200160405280886001600160a01b031663aa5af0fd6040518163ffffffff1660e01b8152600401602060405180830381865afa158015611373573d6000803e3d6000fd5b505050506040513d601f19601f820116820180604052508101906113979190615de7565b905290506113a58782614028565b6113b087868361421b565b6000925050505b949350505050565b6113c761439b565b6114135760405162461bcd60e51b815260206004820152601960248201527f6f6e6c792061646d696e2063616e206772616e7420636f6d70000000000000006044820152606401610e6e565b600061141f83836143c4565b9050801561146f5760405162461bcd60e51b815260206004820152601b60248201527f696e73756666696369656e7420636f6d7020666f72206772616e7400000000006044820152606401610e6e565b604080516001600160a01b0385168152602081018490527f98b2f82a3a07f223a0be64b3d0f47711c64dccd1feafb94aa28156b38cd9695c910160405180910390a1505050565b600080546001600160a01b031633146114dc576114d5600160066144e6565b905061184a565b838511156115415760405162461bcd60e51b815260206004820152602c60248201527f636f6c6c61746572616c20666163746f722063616e6e6f74206265206772656160448201526b0746572207468616e207669760a41b6064820152608401610e6e565b818311156115aa5760405162461bcd60e51b815260206004820152603060248201527f6c69717569646174696f6e207468726573686f6c642063616e6e6f742062652060448201526f067726561746572207468616e207669760841b6064820152608401610e6e565b818411156116205760405162461bcd60e51b815260206004820152603a60248201527f436f6c6c61746572616c20666163746f72206d757374206265206c6f7765722060448201527f7468616e206c69717569646174696f6e207468726573686f6c640000000000006064820152608401610e6e565b6001600160a01b0386166000908152600960205260409020805460ff166116555761164d600960076144e6565b91505061184a565b60408051602080820183528682528251908101909252670d99a8cec7e2000082529061168381835190511090565b1561169e57611694600660086144e6565b935050505061184a565b6004805460405163fc57d4df60e01b81526001600160a01b038c81169382019390935291169063fc57d4df90602401602060405180830381865afa1580156116ea573d6000803e3d6000fd5b505050506040513d601f19601f8201168201806040525081019061170e9190615de7565b61171e57611694600d60096144e6565b6117496040518060800160405280600081526020016000815260200160008152602001600081525090565b83600101548160000181815250508884600101819055508360030154816020018181525050878460030181905550836002015481604001818152505086846002018190555083600401548160600181815250508584600401819055507f5721ae0c715b94fc57a23408410a4304519816387f7923072be7156ac236a0128a82600001518b84602001518c86604001518d88606001518e604051611839999897969594939291906001600160a01b03999099168952602089019790975260408801959095526060870193909352608086019190915260a085015260c084015260e08301526101008201526101200190565b60405180910390a160009450505050505b95945050505050565b600a546000906001600160a01b031633148061187957506000546001600160a01b031633145b6118955760405162461bcd60e51b8152600401610e6e90615d5a565b6000546001600160a01b03163314806118b057506001821515145b6118cc5760405162461bcd60e51b8152600401610e6e90615da1565b600a8054831515600160b81b0260ff60b81b199091161790556040517fef159d9a32b2472e32b098f954f3ce62d232939f1c207070b584df1814de2de0906119379084906040808252600590820152645365697a6560d81b6060820152901515602082015260800190565b60405180910390a15090565b600080546001600160a01b0316331461199e5760405162461bcd60e51b815260206004820152601f60248201527f6f6e6c792061646d696e2063616e2073657420636c6f736520666163746f72006044820152606401610e6e565b600580549083905560408051828152602081018590527f3b9670cf975d26958e754b57098eaa2ac914d8d2a31b83257997b9f346110fd991015b60405180910390a160005b9392505050565b6000546001600160a01b03163314611a535760405162461bcd60e51b815260206004820152602660248201527f6f6e6c792061646d696e2063616e2073657420626f72726f772063617020677560448201526530b93234b0b760d11b6064820152608401610e6e565b601780546001600160a01b038381166001600160a01b031983168117909355604080519190921680825260208201939093527feda98690e518e9a05f8ec6837663e188211b2da8f4906648b323f2c1d4434e29910160405180910390a15050565b6001600160a01b03821660009081526009602052604081205460ff16611aec5760405162461bcd60e51b8152600401610e6e90615d12565b600a546001600160a01b0316331480611b0f57506000546001600160a01b031633145b611b2b5760405162461bcd60e51b8152600401610e6e90615d5a565b6000546001600160a01b0316331480611b4657506001821515145b611b625760405162461bcd60e51b8152600401610e6e90615da1565b6001600160a01b0383166000818152600b6020908152604091829020805460ff19168615159081179091558251938452606091840182905260049184019190915263135a5b9d60e21b6080840152908201527f71aec636243f9709bb0007ae15e9afb8150ab01716d75fd7573be5cc096e03b09060a001610f67565b6000546001600160a01b03163314611c385760405162461bcd60e51b815260206004820152601e60248201527f6f6e6c792061646d696e2063616e2077686974656c69737420757365727300006044820152606401610e6e565b6001600160a01b03919091166000908152601560205260409020805460ff1916911515919091179055565b6000546001600160a01b0316331480611c8657506017546001600160a01b031633145b611cf05760405162461bcd60e51b815260206004820152603560248201527f6f6e6c792061646d696e206f7220626f72726f772063617020677561726469616044820152746e2063616e2073657420626f72726f77206361707360581b6064820152608401610e6e565b8483828215801590611d0157508183145b8015611d0c57508082145b611d485760405162461bcd60e51b815260206004820152600d60248201526c1a5b9d985b1a59081a5b9c1d5d609a1b6044820152606401610e6e565b60005b83811015611f2357878782818110611d6557611d65615dd1565b90506020020135601860008c8c85818110611d8257611d82615dd1565b9050602002016020810190611d979190615559565b6001600160a01b03168152602081019190915260400160002055858582818110611dc357611dc3615dd1565b90506020020135601960008c8c85818110611de057611de0615dd1565b9050602002016020810190611df59190615559565b6001600160a01b03168152602081019190915260400160002055898982818110611e2157611e21615dd1565b9050602002016020810190611e369190615559565b6001600160a01b03167f6f1951b2aad10f3fc81b86d91105b413a5b3f847a34bbc5ce1904201b14438f6898984818110611e7257611e72615dd1565b90506020020135604051611e8891815260200190565b60405180910390a2898982818110611ea257611ea2615dd1565b9050602002016020810190611eb79190615559565b6001600160a01b03167f9e0ad9cee10bdf36b7fbd38910c0bdff0f275ace679b45b922381c2723d676f8878784818110611ef357611ef3615dd1565b90506020020135604051611f0991815260200190565b60405180910390a280611f1b81615e66565b915050611d4b565b50505050505050505050565b600080600080600080611f468a8a8a8a600061455f565b925092509250826012811115611f5e57611f5e615e1d565b9a919950975095505050505050565b6001600160a01b0383166000908152600b602052604081205460ff1615611fc75760405162461bcd60e51b815260206004820152600e60248201526d1b5a5b9d081a5cc81c185d5cd95960921b6044820152606401610e6e565b6001600160a01b03841660009081526009602052604090205460ff16611ff15760095b90506119e3565b6001600160a01b03841660009081526019602052604090205480156121aa576000856001600160a01b0316638f840ddd6040518163ffffffff1660e01b8152600401602060405180830381865afa158015612050573d6000803e3d6000fd5b505050506040513d601f19601f820116820180604052508101906120749190615de7565b866001600160a01b0316633b1d21a26040518163ffffffff1660e01b8152600401602060405180830381865afa1580156120b2573d6000803e3d6000fd5b505050506040513d601f19601f820116820180604052508101906120d69190615de7565b876001600160a01b03166347bd37186040518163ffffffff1660e01b8152600401602060405180830381865afa158015612114573d6000803e3d6000fd5b505050506040513d601f19601f820116820180604052508101906121389190615de7565b6121429190615e81565b61214c9190615e81565b9050600061215a828661494f565b90508281106121a75760405162461bcd60e51b81526020600482015260196024820152781b585c9ad95d08189bdc9c9bddc818d85c081c995858da1959603a1b6044820152606401610e6e565b50505b6001600160a01b038516600090815260096020526040902060060154610100900460ff161561220b576001600160a01b03841660009081526015602052604090205460ff1661220b5760405162461bcd60e51b8152600401610e6e90615e99565b6122148561495b565b61221e8585614ad3565b600095945050505050565b600080546001600160a01b0316331461224857610f726001600b6144e6565b600680549083905560408051828152602081018590527faeba5a6c40a8ac138134bff1aaa65debf25971188a58804bad717f82f0ec131691016119d8565b801580156122945750600082115b156106d95760405162461bcd60e51b815260206004820152601160248201527072656465656d546f6b656e73207a65726f60781b6044820152606401610e6e565b600d81815481106122e557600080fd5b6000918252602090912001546001600160a01b0316905081565b600080546001600160a01b0316331461231e57610f72600160106144e6565b600480546001600160a01b038481166001600160a01b031983168117909355604080519190921680825260208201939093527fd52b2b9b7e9ee655fcb95d2e5b9e0c9f69e7ef2b8e9d2d0ea78402d576d22e2291016119d8565b61238061439b565b6123cc5760405162461bcd60e51b815260206004820152601d60248201527f6f6e6c792061646d696e2063616e2073657420636f6d702073706565640000006044820152606401610e6e565b6123d582612a25565b806123f8576001600160a01b0382166000908152601b6020526040812055612413565b436001600160a01b0383166000908152601b60205260409020555b6001600160a01b0382166000818152601a602052604090819020839055517f386537fa92edc3319af95f1f904dcf1900021e4f3f4e08169a577a09076e66b3906124609084815260200190565b60405180910390a25050565b6000806000806000806124848760008060008061455f565b92509250925082601281111561249c5761249c615e1d565b97919650945092505050565b600080546001600160a01b031633146124c757610f72600160136144e6565b600a80546001600160a01b038481166001600160a01b031983168117909355604080519190921680825260208201939093527f0613b6ee6a04f0d09f390e4d9318894b9f6ac7fd83897cd8d18896ba579c401e91016119d8565b6001600160a01b03851660009081526009602052604081205460ff16158061256257506001600160a01b03851660009081526009602052604090205460ff16155b1561256e5760096114d5565b6040516395dd919360e01b81526001600160a01b038481166004830152600091908816906395dd919390602401602060405180830381865afa1580156125b8573d6000803e3d6000fd5b505050506040513d601f19601f820116820180604052508101906125dc9190615de7565b90506125e787612c43565b15612652578281101561264d5760405162461bcd60e51b815260206004820152602860248201527f43616e206e6f74207265706179206d6f7265207468616e2074686520746f74616044820152676c20626f72726f7760c01b6064820152608401610e6e565b6126d4565b60008061265e86614c71565b9193509091506000905082601281111561267a5761267a615e1d565b146126915781601281111561169457611694615e1d565b8061269d576003611694565b60006126b9604051806020016040528060055481525085614c93565b9050808611156126d057601194505050505061184a565b5050505b6000979650505050505050565b60005b83518110156128a857600084828151811061270157612701615dd1565b6020908102919091018101516001600160a01b0381166000908152600990925260409091205490915060ff166127715760405162461bcd60e51b81526020600482015260156024820152741b585c9ad95d081b5d5cdd081899481b1a5cdd1959605a1b6044820152606401610e6e565b6001841515141561283e5760006040518060200160405280836001600160a01b031663aa5af0fd6040518163ffffffff1660e01b8152600401602060405180830381865afa1580156127c7573d6000803e3d6000fd5b505050506040513d601f19601f820116820180604052508101906127eb9190615de7565b905290506127f98282614028565b60005b875181101561283b576128298389838151811061281b5761281b615dd1565b60200260200101518461421b565b8061283381615e66565b9150506127fc565b50505b60018315151415612895576128528161495b565b60005b8651811015612893576128818288838151811061287457612874615dd1565b6020026020010151614ad3565b8061288b81615e66565b915050612855565b505b50806128a081615e66565b9150506126e4565b5060005b84518110156105da576129168582815181106128ca576128ca615dd1565b6020026020010151601460008885815181106128e8576128e8615dd1565b60200260200101516001600160a01b03166001600160a01b03168152602001908152602001600020546143c4565b6014600087848151811061292c5761292c615dd1565b60200260200101516001600160a01b03166001600160a01b0316815260200190815260200160002081905550808061296390615e66565b9150506128ac565b6000546001600160a01b031633146129d15760405162461bcd60e51b8152602060048201526024808201527f6f6e6c792061646d696e2063616e20736574206d61726b657420746f207072696044820152637661746560e01b6064820152608401610e6e565b6001600160a01b03939093166000908152600960205260409020600601805462ffff0019166101009315159390930262ff000019169290921762010000911515919091021760ff1916911515919091179055565b6001600160a01b0381166000908152601a6020908152604080832054601b90925282205490914391612a58908390614cab565b9050600081118015612a6a5750600083115b156106d9576000612a7b8285614cb7565b6001600160a01b03861660009081526014602052604081205491925090612aa2908361494f565b6001600160a01b038716600090815260146020908152604080832093909355601b905220849055505050505050565b6000546001600160a01b03163314612b2b5760405162461bcd60e51b815260206004820152601e60248201527f6f6e6c792061646d696e2063616e2073657420636f6d704164647265737300006044820152606401610e6e565b601654600160a01b900460ff1661128557601680546001600160a01b0383166001600160a01b031990911617905550565b600a546000906001600160a01b0316331480612b8257506000546001600160a01b031633145b612b9e5760405162461bcd60e51b8152600401610e6e90615d5a565b6000546001600160a01b0316331480612bb957506001821515145b612bd55760405162461bcd60e51b8152600401610e6e90615da1565b600a8054831515600160b01b0260ff60b01b199091161790556040517fef159d9a32b2472e32b098f954f3ce62d232939f1c207070b584df1814de2de0906119379084906040808252600890820152672a3930b739b332b960c11b6060820152901515602082015260800190565b6001600160a01b038116600090815260096020526040812060010154158015612c8957506001600160a01b0382166000908152600c602052604090205460ff1615156001145b8015610f725750816001600160a01b031663173b99046040518163ffffffff1660e01b8152600401602060405180830381865afa158015612cce573d6000803e3d6000fd5b505050506040513d601f19601f82011682018060405250810190612cf29190615de7565b670de0b6b3a76400001492915050565b336001600160a01b03831614612d475760405162461bcd60e51b815260206004820152600a6024820152693737ba1031aa37b5b2b760b11b6044820152606401610e6e565b61080c8282614cc3565b612d5961439b565b612da55760405162461bcd60e51b815260206004820152601d60248201527f6f6e6c792061646d696e2063616e2073657420636f6d702073706565640000006044820152606401610e6e565b8251825181148015612db75750815181145b612e155760405162461bcd60e51b815260206004820152602960248201527f436f6d7074726f6c6c65723a3a5f736574436f6d7053706565647320696e76616044820152681b1a59081a5b9c1d5d60ba1b6064820152608401610e6e565b60005b818110156105da57612e76858281518110612e3557612e35615dd1565b6020026020010151858381518110612e4f57612e4f615dd1565b6020026020010151858481518110612e6957612e69615dd1565b6020026020010151614e02565b612e7f81615e66565b9050612e18565b6001600160a01b0381166000908152600860209081526040808320805482518185028101850190935280835260609493830182828015612eef57602002820191906000526020600020905b81546001600160a01b03168152600190910190602001808311612ed1575b5093979650505050505050565b6060600d805480602002602001604051908101604052809291908181526020018280548015612f5457602002820191906000526020600020905b81546001600160a01b03168152600190910190602001808311612f36575b5050505050905090565b6000546001600160a01b03163314612fb85760405162461bcd60e51b815260206004820152601e60248201527f6f6e6c792061646d696e2063616e2073657420636f6d704164647265737300006044820152606401610e6e565b6016805460ff60a01b1916600160a01b179055565b600a54600090600160b01b900460ff161561301f5760405162461bcd60e51b81526020600482015260126024820152711d1c985b9cd9995c881a5cc81c185d5cd95960721b6044820152606401610e6e565b600061302c868685614fe1565b9050801561303b5790506113b7565b6130448661495b565b61304e8686614ad3565b6130588685614ad3565b60005b9695505050505050565b6000546001600160a01b031633146130d45760405162461bcd60e51b815260206004820152602c60248201527f6f6e6c792061646d696e2063616e20736574205f746f6b656e42616c616e636560448201526b159a5c151a1c995cda1bdb1960a21b6064820152608401610e6e565b602055565b805160609060008167ffffffffffffffff8111156130f9576130f96155bd565b604051908082528060200260200182016040528015613122578160200160208202803683370190505b50905060005b8281101561319957600085828151811061314457613144615dd1565b602002602001015190506131588133614cc3565b601281111561316957613169615e1d565b83838151811061317b5761317b615dd1565b6020908102919091010152508061319181615e66565b915050613128565b509392505050565b6004805460405163fc57d4df60e01b81526001600160a01b03868116938201939093526000928392839291169063fc57d4df90602401602060405180830381865afa1580156131f4573d6000803e3d6000fd5b505050506040513d601f19601f820116820180604052508101906132189190615de7565b6004805460405163fc57d4df60e01b81526001600160a01b038981169382019390935292935060009291169063fc57d4df90602401602060405180830381865afa15801561326a573d6000803e3d6000fd5b505050506040513d601f19601f8201168201806040525081019061328e9190615de7565b905081158061329b575080155b156132af57600d60009350935050506133b7565b6000866001600160a01b031663182df0f56040518163ffffffff1660e01b8152600401602060405180830381865afa1580156132ef573d6000803e3d6000fd5b505050506040513d601f19601f820116820180604052508101906133139190615de7565b9050600061332d6040518060200160405280600081525090565b60408051602080820183526000808352835180830185529081528351808301855260065481528451928301909452888252919261336991615091565b9250613391604051806020016040528088815250604051806020016040528088815250615091565b915061339d83836150d9565b90506133a9818b614c93565b600099509750505050505050505b935093915050565b600a54600090600160b81b900460ff161561340e5760405162461bcd60e51b815260206004820152600f60248201526e1cd95a5e99481a5cc81c185d5cd959608a1b6044820152606401610e6e565b6001600160a01b03861660009081526009602052604090205460ff16158061344f57506001600160a01b03851660009081526009602052604090205460ff16155b1561345b5760096114d5565b846001600160a01b0316635fe3b5676040518163ffffffff1660e01b8152600401602060405180830381865afa158015613499573d6000803e3d6000fd5b505050506040513d601f19601f820116820180604052508101906134bd9190615e00565b6001600160a01b0316866001600160a01b0316635fe3b5676040518163ffffffff1660e01b8152600401602060405180830381865afa158015613504573d6000803e3d6000fd5b505050506040513d601f19601f820116820180604052508101906135289190615e00565b6001600160a01b03161461353d5760026114d5565b6135468661495b565b61304e8684614ad3565b6000546001600160a01b031633146135aa5760405162461bcd60e51b815260206004820152601a60248201527f6f6e6c792061646d696e2063616e2073657420566970204e46540000000000006044820152606401610e6e565b601f80546001600160a01b0319166001600160a01b0392909216919091179055565b6001600160a01b0383166000908152600c602052604081205460ff16156136285760405162461bcd60e51b815260206004820152601060248201526f189bdc9c9bddc81a5cc81c185d5cd95960821b6044820152606401610e6e565b6001600160a01b03841660009081526009602052604090205460ff1661364f576009611fea565b6000849050806001600160a01b031663842e11eb6040518163ffffffff1660e01b8152600401602060405180830381865afa158015613692573d6000803e3d6000fd5b505050506040513d601f19601f820116820180604052508101906136b69190615e33565b156136c65760125b9150506119e3565b6001600160a01b038516600090815260096020526040902060060154610100900460ff168061371657506001600160a01b03851660009081526009602052604090206006015462010000900460ff165b15613753576001600160a01b03841660009081526015602052604090205460ff166137535760405162461bcd60e51b8152600401610e6e90615e99565b6001600160a01b038086166000908152600960209081526040808320938816835260059093019052205460ff1661385157336001600160a01b038616146137d45760405162461bcd60e51b815260206004820152601560248201527439b2b73232b91036bab9ba1031329031aa37b5b2b760591b6044820152606401610e6e565b60006137e03386614cc3565b905060008160128111156137f6576137f6615e1d565b146138165780601281111561380d5761380d615e1d565b925050506119e3565b6001600160a01b038087166000908152600960209081526040808320938916835260059093019052205460ff1661384f5761384f615ece565b505b6004805460405163fc57d4df60e01b81526001600160a01b038881169382019390935291169063fc57d4df90602401602060405180830381865afa15801561389d573d6000803e3d6000fd5b505050506040513d601f19601f820116820180604052508101906138c19190615de7565b6138cc57600d6136be565b6001600160a01b03851660009081526018602052604090205480156139ad576000866001600160a01b03166347bd37186040518163ffffffff1660e01b8152600401602060405180830381865afa15801561392b573d6000803e3d6000fd5b505050506040513d601f19601f8201168201806040525081019061394f9190615de7565b9050600061395d828761494f565b90508281106139aa5760405162461bcd60e51b81526020600482015260196024820152781b585c9ad95d08189bdc9c9bddc818d85c081c995858da1959603a1b6044820152606401610e6e565b50505b6000806139bf8789600089600061455f565b919350909150600090508260128111156139db576139db615e1d565b146139fd578160128111156139f2576139f2615e1d565b9450505050506119e3565b8015613a0a5760046139f2565b600060405180602001604052808a6001600160a01b031663aa5af0fd6040518163ffffffff1660e01b8152600401602060405180830381865afa158015613a55573d6000803e3d6000fd5b505050506040513d601f19601f82011682018060405250810190613a799190615de7565b90529050613a878982614028565b613a9289898361421b565b60009998505050505050505050565b60086020528160005260406000208181548110613abd57600080fd5b6000918252602090912001546001600160a01b03169150829050565b600080546001600160a01b03163314613af8576112ab600160126144e6565b6001600160a01b03851660009081526009602052604090205460ff1615613b25576112ab600a60116144e6565b846001600160a01b031663fe9c44ae6040518163ffffffff1660e01b8152600401602060405180830381865afa158015613b63573d6000803e3d6000fd5b505050506040513d601f19601f82011682018060405250810190613b879190615e33565b506001600160a01b03851660009081526009602052604081208054600160ff199091168117825560068201805461ffff191688151561ff00191617610100881515021762ff000019166201000087151502179055810182905560028101829055600381018290556004810191909155613bff86615113565b613c08866151fc565b6040516001600160a01b03871681527fcf583bb0c569eb967f806b11601c4cb93c10310485c67add5f8362c2f212321f9060200160405180910390a1600061305b565b61128581600d805480602002602001604051908101604052809291908181526020018280548015613ca557602002820191906000526020600020905b81546001600160a01b03168152600190910190602001808311613c87575b5050505050610f78565b600080613cbd858585614fe1565b9050801561220b5790506119e3565b6040516361bfb47160e11b815233600482015260009082908290819081906001600160a01b0385169063c37f68e290602401608060405180830381865afa158015613d1b573d6000803e3d6000fd5b505050506040513d601f19601f82011682018060405250810190613d3f9190615ee4565b5092509250925082600014613da45760405162461bcd60e51b815260206004820152602560248201527f657869744d61726b65743a206765744163636f756e74536e617073686f742066604482015264185a5b195960da1b6064820152608401610e6e565b8015613db65761305b600c60026144e6565b6000613dc3873385614fe1565b90508015613de357613dd8600e6003836152b8565b979650505050505050565b6001600160a01b0385166000908152600960209081526040808320338452600581019092529091205460ff16613e2157600098975050505050505050565b3360009081526005820160209081526040808320805460ff191690556008825280832080548251818502810185019093528083529192909190830182828015613e9357602002820191906000526020600020905b81546001600160a01b03168152600190910190602001808311613e75575b5050835193945083925060009150505b82811015613ef857896001600160a01b0316848281518110613ec757613ec7615dd1565b60200260200101516001600160a01b03161415613ee657809150613ef8565b80613ef081615e66565b915050613ea3565b50818110613f0857613f08615ece565b33600090815260086020526040902080548190613f2790600190615f1a565b81548110613f3757613f37615dd1565b9060005260206000200160009054906101000a90046001600160a01b0316818381548110613f6757613f67615dd1565b9060005260206000200160006101000a8154816001600160a01b0302191690836001600160a01b0316021790555080805480613fa557613fa5615f31565b600082815260209020810160001990810180546001600160a01b03191690550190556040517fe699a64c18b07ac5b7301aa273f36a2287239eb9501d81950672794afba29a0d9061400e908c9033906001600160a01b0392831681529116602082015260400190565b60405180910390a160009c9b505050505050505050505050565b6001600160a01b0382166000908152601160209081526040808320601c909252822054909161408d435b6040518060400160405280601c81526020017f626c6f636b206e756d6265722065786365656473203332206269747300000000815250615330565b83549091506000906140af9063ffffffff80851691600160e01b900416614cab565b90506000811180156140c15750600083115b156141f0576000614133876001600160a01b03166347bd37186040518163ffffffff1660e01b8152600401602060405180830381865afa158015614109573d6000803e3d6000fd5b505050506040513d601f19601f8201168201806040525081019061412d9190615de7565b87615360565b905060006141418386614cb7565b90506000808311614161576040518060200160405280600081525061416b565b61416b828461537e565b604080516020810190915288546001600160e01b031681529091506141ce9061419490836153b9565b5160408051808201909152601a81527f6e657720696e646578206578636565647320323234206269747300000000000060208201526153e5565b6001600160e01b0316600160e01b63ffffffff87160217875550610719915050565b801561071957835463ffffffff8316600160e01b026001600160e01b03909116178455505050505050565b6001600160a01b03838116600090815260116020908152604080832080546013845282852095881685529490925290912080546001600160e01b039093169081905590918015801561427b57506a0c097ce7bc90715b34b9f160241b8210155b1561429157506a0c097ce7bc90715b34b9f160241b5b600060405180602001604052806142a88585614cab565b90526040516395dd919360e01b81526001600160a01b0388811660048301529192506000916142fb91908a16906395dd919390602401602060405180830381865afa158015614109573d6000803e3d6000fd5b90506000614309828461540c565b6001600160a01b03891660009081526014602052604081205491925090614330908361494f565b6001600160a01b038a811660008181526014602090815260409182902085905581518781529081018b90529394509092918d16917f1fc3ecc087d8d2d15e23d0032af5a47059c3892d003d8e139fdcb6bb327c99a6910160405180910390a350505050505050505050565b600080546001600160a01b03163314806143bf57506002546001600160a01b031633145b905090565b6000806143d96016546001600160a01b031690565b6040516370a0823160e01b81523060048201529091506000906001600160a01b038316906370a0823190602401602060405180830381865afa158015614423573d6000803e3d6000fd5b505050506040513d601f19601f820116820180604052508101906144479190615de7565b90506000841180156144595750808411155b156144dd5760405163a9059cbb60e01b81526001600160a01b0386811660048301526024820186905283169063a9059cbb906044016020604051808303816000875af11580156144ad573d6000803e3d6000fd5b505050506040513d601f19601f820116820180604052508101906144d19190615e33565b50600092505050610f72565b50919392505050565b60007f45b96fe442630264581b197e84bbada861235052c5a1aadfff9ea4e40a969aa083601281111561451b5761451b615e1d565b83601381111561452d5761452d615e1d565b60408051928352602083019190915260009082015260600160405180910390a18260128111156119e3576119e3615e1d565b600080600061456c6154a2565b6001600160a01b0389166000908152600860209081526040808320805482518185028101850190935280835284938301828280156145d357602002820191906000526020600020905b81546001600160a01b031681526001909101906020018083116145b5575b5050505050905060005b81518110156148f25760008282815181106145fa576145fa615dd1565b60209081029190910101516040516361bfb47160e11b81526001600160a01b038f811660048301529192509082169063c37f68e290602401608060405180830381865afa15801561464f573d6000803e3d6000fd5b505050506040513d601f19601f820116820180604052508101906146739190615ee4565b6080890152606088015260408701529350831561469f57600f6000809750975097505050505050614944565b88614713576146ad8d610fdb565b6146df5760408051602080820183526001600160a01b0384166000908152600990915291909120600101548152614709565b60408051602080820183526001600160a01b03841660009081526009909152919091206003015481525b60c086015261477e565b61471c8d610fdb565b61474e5760408051602080820183526001600160a01b0384166000908152600990915291909120600201548152614778565b60408051602080820183526001600160a01b03841660009081526009909152919091206004015481525b60c08601525b604080516020810182526080870151815260e087015260048054915163fc57d4df60e01b81526001600160a01b038481169282019290925291169063fc57d4df90602401602060405180830381865afa1580156147df573d6000803e3d6000fd5b505050506040513d601f19601f820116820180604052508101906148039190615de7565b60a0860181905261482357600d6000809750975097505050505050614944565b604080516020810190915260a0860151815261010086015260c085015160e086015161485d9161485291615091565b866101000151615091565b610120860181905260408601518651614877929190615435565b855261010085015160608601516020870151614894929190615435565b60208601526001600160a01b03818116908d1614156148df576148c18561012001518c8760200151615435565b602086018190526101008601516148d9918c90615435565b60208601525b50806148ea81615e66565b9150506145dd565b50602083015183511115614923576020830151835160009161491391615f1a565b6000955095509550505050614944565b6000808460000151856020015161493a9190615f1a565b9550955095505050505b955095509592505050565b60006119e38284615e81565b6001600160a01b0381166000908152601060209081526040808320601d909252822054909161498943614052565b83549091506000906149ab9063ffffffff80851691600160e01b900416614cab565b90506000811180156149bd5750600083115b15614aa9576000856001600160a01b03166318160ddd6040518163ffffffff1660e01b8152600401602060405180830381865afa158015614a02573d6000803e3d6000fd5b505050506040513d601f19601f82011682018060405250810190614a269190615de7565b90506000614a348386614cb7565b90506000808311614a545760405180602001604052806000815250614a5e565b614a5e828461537e565b604080516020810190915288546001600160e01b03168152909150614a879061419490836153b9565b6001600160e01b0316600160e01b63ffffffff871602178755506105da915050565b80156105da57835463ffffffff8316600160e01b026001600160e01b039091161784555050505050565b6001600160a01b03828116600090815260106020908152604080832080546012845282852095871685529490925290912080546001600160e01b0390931690819055909180158015614b3357506a0c097ce7bc90715b34b9f160241b8210155b15614b4957506a0c097ce7bc90715b34b9f160241b5b60006040518060200160405280614b608585614cab565b90526040516370a0823160e01b81526001600160a01b0387811660048301529192506000918816906370a0823190602401602060405180830381865afa158015614bae573d6000803e3d6000fd5b505050506040513d601f19601f82011682018060405250810190614bd29190615de7565b90506000614be0828461540c565b6001600160a01b03881660009081526014602052604081205491925090614c07908361494f565b6001600160a01b0389811660008181526014602090815260409182902085905581518781529081018b90529394509092918c16917f2caecd17d02f56fa897705dcc740da2d237c373f70686f4e0d9bd3bf0400ea7a910160405180910390a3505050505050505050565b6000806000614c86846000806000600161455f565b9250925092509193909250565b600080614ca08484615456565b90506113b78161547e565b60006119e38284615f1a565b60006119e38284615f47565b6001600160a01b0382166000908152600960205260408120805460ff16614cee576009915050610f72565b6006810154610100900460ff1615614d38576001600160a01b03831660009081526015602052604090205460ff16614d385760405162461bcd60e51b8152600401610e6e90615e99565b6001600160a01b038316600090815260058201602052604090205460ff16151560011415614d6a576000915050610f72565b6001600160a01b03838116600081815260058401602090815260408083208054600160ff199091168117909155600883528184208054918201815584529282902090920180546001600160a01b031916948916948517905581519384528301919091527f3ab23ab0d51cccc0c3085aec51f99228625aa1a922b3a8ca89a26b0f2027a1a5910160405180910390a15060009392505050565b6001600160a01b0383166000908152600960205260409020805460ff16614e6b5760405162461bcd60e51b815260206004820152601960248201527f636f6d70206d61726b6574206973206e6f74206c6973746564000000000000006044820152606401610e6e565b6001600160a01b0384166000908152601d60205260409020548314614ee957614e938461495b565b6001600160a01b0384166000818152601d602052604090819020859055517fdeafccd0c0b768b2529f7dcbbe58e155d6023059150b7490ed4535cc3744b92d90614ee09086815260200190565b60405180910390a25b6001600160a01b0384166000908152601c602052604090205482146106d95760006040518060200160405280866001600160a01b031663aa5af0fd6040518163ffffffff1660e01b8152600401602060405180830381865afa158015614f53573d6000803e3d6000fd5b505050506040513d601f19601f82011682018060405250810190614f779190615de7565b90529050614f858582614028565b6001600160a01b0385166000818152601c602052604090819020859055517f20af8e791cc98f74b2d7a391c80980ca8e5aebf3d4060bf581997b6acae2e53790614fd29086815260200190565b60405180910390a25050505050565b6001600160a01b03831660009081526009602052604081205460ff16615008576009611fea565b6001600160a01b038085166000908152600960209081526040808320938716835260059093019052205460ff16615040576000611fea565b60008061505185878660008061455f565b9193509091506000905082601281111561506d5761506d615e1d565b146150845781601281111561380d5761380d615e1d565b801561305857600461380d565b6040805160208101909152600081526040518060200160405280670de0b6b3a76400006150c686600001518660000151614cb7565b6150d09190615f66565b90529392505050565b60408051602081019091526000815260405180602001604052806150d061510c8660000151670de0b6b3a7640000614cb7565b8551615496565b60005b600d548110156151a957816001600160a01b0316600d828154811061513d5761513d615dd1565b6000918252602090912001546001600160a01b031614156151975760405162461bcd60e51b81526020600482015260146024820152731b585c9ad95d08185b1c9958591e48185919195960621b6044820152606401610e6e565b806151a181615e66565b915050615116565b50600d80546001810182556000919091527fd7b6990105719101dabeb77144f2a3385c8033acd3af97e9423a695e81ad1eb50180546001600160a01b0319166001600160a01b0392909216919091179055565b600061520743614052565b6001600160a01b03831660009081526010602090815260408083206011909252909120815492935090916001600160e01b031661525d5781546001600160e01b0319166a0c097ce7bc90715b34b9f160241b1782555b80546001600160e01b031661528b5780546001600160e01b0319166a0c097ce7bc90715b34b9f160241b1781555b805463ffffffff909316600160e01b026001600160e01b0393841681179091558154909216909117905550565b60007f45b96fe442630264581b197e84bbada861235052c5a1aadfff9ea4e40a969aa08460128111156152ed576152ed615e1d565b8460138111156152ff576152ff615e1d565b604080519283526020830191909152810184905260600160405180910390a18360128111156113b7576113b7615e1d565b60008164010000000084106153585760405162461bcd60e51b8152600401610e6e9190615f88565b509192915050565b60006119e361537784670de0b6b3a7640000614cb7565b8351615496565b60408051602081019091526000815260405180602001604052806150d06153b3866a0c097ce7bc90715b34b9f160241b614cb7565b85615496565b60408051602081019091526000815260405180602001604052806150d08560000151856000015161494f565b600081600160e01b84106153585760405162461bcd60e51b8152600401610e6e9190615f88565b60006a0c097ce7bc90715b34b9f160241b61542b848460000151614cb7565b6119e39190615f66565b6000806154428585615456565b905061184a6154508261547e565b8461494f565b60408051602081019091526000815260405180602001604052806150d0856000015185614cb7565b8051600090610f7290670de0b6b3a764000090615f66565b60006119e38284615f66565b6040518061014001604052806000815260200160008152602001600081526020016000815260200160008152602001600081526020016154ee6040518060200160405280600081525090565b81526020016155096040518060200160405280600081525090565b81526020016155246040518060200160405280600081525090565b815260200161553f6040518060200160405280600081525090565b905290565b6001600160a01b038116811461128557600080fd5b60006020828403121561556b57600080fd5b81356119e381615544565b801515811461128557600080fd5b6000806040838503121561559757600080fd5b82356155a281615544565b915060208301356155b281615576565b809150509250929050565b634e487b7160e01b600052604160045260246000fd5b604051601f8201601f1916810167ffffffffffffffff811182821017156155fc576155fc6155bd565b604052919050565b600067ffffffffffffffff82111561561e5761561e6155bd565b5060051b60200190565b600082601f83011261563957600080fd5b8135602061564e61564983615604565b6155d3565b82815260059290921b8401810191818101908684111561566d57600080fd5b8286015b8481101561569157803561568481615544565b8352918301918301615671565b509695505050505050565b600080604083850312156156af57600080fd5b82356156ba81615544565b9150602083013567ffffffffffffffff8111156156d657600080fd5b6156e285828601615628565b9150509250929050565b600080600080600060a0868803121561570457600080fd5b853561570f81615544565b9450602086013561571f81615544565b9350604086013561572f81615544565b94979396509394606081013594506080013592915050565b6000806000806080858703121561575d57600080fd5b843561576881615544565b9350602085013561577881615544565b9250604085013561578881615544565b9396929550929360600135925050565b600080604083850312156157ab57600080fd5b82356157b681615544565b946020939093013593505050565b600080600080600060a086880312156157dc57600080fd5b85356157e781615544565b97602087013597506040870135966060810135965060800135945092505050565b60006020828403121561581a57600080fd5b81356119e381615576565b60006020828403121561583757600080fd5b5035919050565b6000806000806080858703121561585457600080fd5b843561585f81615544565b9350602085013561586f81615544565b93969395505050506040820135916060013590565b60008083601f84011261589657600080fd5b50813567ffffffffffffffff8111156158ae57600080fd5b6020830191508360208260051b85010111156158c957600080fd5b9250929050565b600080600080600080606087890312156158e957600080fd5b863567ffffffffffffffff8082111561590157600080fd5b61590d8a838b01615884565b9098509650602089013591508082111561592657600080fd5b6159328a838b01615884565b9096509450604089013591508082111561594b57600080fd5b5061595889828a01615884565b979a9699509497509295939492505050565b60008060008060008060c0878903121561598357600080fd5b863561598e81615544565b9550602087013561599e81615544565b945060408701356159ae81615544565b935060608701356159be81615544565b9598949750929560808101359460a0909101359350915050565b6000806000606084860312156159ed57600080fd5b83356159f881615544565b92506020840135615a0881615544565b929592945050506040919091013590565b600080600080600060a08688031215615a3157600080fd5b8535615a3c81615544565b94506020860135615a4c81615544565b93506040860135615a5c81615544565b92506060860135615a6c81615544565b949793965091946080013592915050565b60008060008060808587031215615a9357600080fd5b843567ffffffffffffffff80821115615aab57600080fd5b615ab788838901615628565b95506020870135915080821115615acd57600080fd5b50615ada87828801615628565b9350506040850135615aeb81615576565b91506060850135615afb81615576565b939692955090935050565b60008060008060808587031215615b1c57600080fd5b8435615b2781615544565b93506020850135615b3781615576565b92506040850135615aeb81615576565b60008060408385031215615b5a57600080fd5b8235615b6581615544565b915060208301356155b281615544565b600082601f830112615b8657600080fd5b81356020615b9661564983615604565b82815260059290921b84018101918181019086841115615bb557600080fd5b8286015b848110156156915780358352918301918301615bb9565b600080600060608486031215615be557600080fd5b833567ffffffffffffffff80821115615bfd57600080fd5b615c0987838801615628565b94506020860135915080821115615c1f57600080fd5b615c2b87838801615b75565b93506040860135915080821115615c4157600080fd5b50615c4e86828701615b75565b9150509250925092565b6020808252825182820181905260009190848201906040850190845b81811015615c995783516001600160a01b031683529284019291840191600101615c74565b50909695505050505050565b600060208284031215615cb757600080fd5b813567ffffffffffffffff811115615cce57600080fd5b6113b784828501615628565b6020808252825182820181905260009190848201906040850190845b81811015615c9957835183529284019291840191600101615cf6565b60208082526028908201527f63616e6e6f742070617573652061206d61726b65742074686174206973206e6f6040820152671d081b1a5cdd195960c21b606082015260800190565b60208082526027908201527f6f6e6c7920706175736520677561726469616e20616e642061646d696e2063616040820152666e20706175736560c81b606082015260800190565b6020808252601690820152756f6e6c792061646d696e2063616e20756e706175736560501b604082015260600190565b634e487b7160e01b600052603260045260246000fd5b600060208284031215615df957600080fd5b5051919050565b600060208284031215615e1257600080fd5b81516119e381615544565b634e487b7160e01b600052602160045260246000fd5b600060208284031215615e4557600080fd5b81516119e381615576565b634e487b7160e01b600052601160045260246000fd5b6000600019821415615e7a57615e7a615e50565b5060010190565b60008219821115615e9457615e94615e50565b500190565b6020808252818101527f74686973206d61726b65742069732063757272656e746c792070726976617465604082015260600190565b634e487b7160e01b600052600160045260246000fd5b60008060008060808587031215615efa57600080fd5b505082516020840151604085015160609095015191969095509092509050565b600082821015615f2c57615f2c615e50565b500390565b634e487b7160e01b600052603160045260246000fd5b6000816000190483118215151615615f6157615f61615e50565b500290565b600082615f8357634e487b7160e01b600052601260045260246000fd5b500490565b600060208083528351808285015260005b81811015615fb557858101830151858201604001528201615f99565b81811115615fc7576000604083870101525b50601f01601f191692909201604001939250505056fea2646970667358221220daa2e788b944a68ec2c47ec59bc4cf1b9d317473c7457ca4b5d3219bd8f627fb64736f6c634300080a0033",
  "linkReferences": {},
  "deployedLinkReferences": {}
}