{
  "_format": "hh-sol-artifact-1",
  "contractName": "Comptroller",
  "sourceName": "contracts/Comptroller.sol",
  "abi": [
    {
      "inputs": [],
      "stateMutability": "nonpayable",
      "type": "constructor"
    },
    {
      "anonymous": false,
      "inputs": [
        {
          "indexed": false,
          "internalType": "string",
          "name": "action",
          "type": "string"
        },
        {
          "indexed": false,
          "internalType": "bool",
          "name": "pauseState",
          "type": "bool"
        }
      ],
      "name": "ActionPaused",
      "type": "event"
    },
    {
      "anonymous": false,
      "inputs": [
        {
          "indexed": false,
          "internalType": "contract CToken",
          "name": "cToken",
          "type": "address"
        },
        {
          "indexed": false,
          "internalType": "string",
          "name": "action",
          "type": "string"
        },
        {
          "indexed": false,
          "internalType": "bool",
          "name": "pauseState",
          "type": "bool"
        }
      ],
      "name": "ActionPaused",
      "type": "event"
    },
    {
      "anonymous": false,
      "inputs": [
        {
          "indexed": true,
          "internalType": "address",
          "name": "user",
          "type": "address"
        },
        {
          "indexed": false,
          "internalType": "uint256",
          "name": "oldCompAccrued",
          "type": "uint256"
        },
        {
          "indexed": false,
          "internalType": "uint256",
          "name": "newCompAccrued",
          "type": "uint256"
        }
      ],
      "name": "CompAccruedAdjusted",
      "type": "event"
    },
    {
      "anonymous": false,
      "inputs": [
        {
          "indexed": true,
          "internalType": "contract CToken",
          "name": "cToken",
          "type": "address"
        },
        {
          "indexed": false,
          "internalType": "uint256",
          "name": "newSpeed",
          "type": "uint256"
        }
      ],
      "name": "CompBorrowSpeedUpdated",
      "type": "event"
    },
    {
      "anonymous": false,
      "inputs": [
        {
          "indexed": false,
          "internalType": "address",
          "name": "recipient",
          "type": "address"
        },
        {
          "indexed": false,
          "internalType": "uint256",
          "name": "amount",
          "type": "uint256"
        }
      ],
      "name": "CompGranted",
      "type": "event"
    },
    {
      "anonymous": false,
      "inputs": [
        {
          "indexed": true,
          "internalType": "address",
          "name": "user",
          "type": "address"
        },
        {
          "indexed": false,
          "internalType": "uint256",
          "name": "oldCompReceivable",
          "type": "uint256"
        },
        {
          "indexed": false,
          "internalType": "uint256",
          "name": "newCompReceivable",
          "type": "uint256"
        }
      ],
      "name": "CompReceivableUpdated",
      "type": "event"
    },
    {
      "anonymous": false,
      "inputs": [
        {
          "indexed": true,
          "internalType": "contract CToken",
          "name": "cToken",
          "type": "address"
        },
        {
          "indexed": false,
          "internalType": "uint256",
          "name": "newSpeed",
          "type": "uint256"
        }
      ],
      "name": "CompSupplySpeedUpdated",
      "type": "event"
    },
    {
      "anonymous": false,
      "inputs": [
        {
          "indexed": true,
          "internalType": "address",
          "name": "contributor",
          "type": "address"
        },
        {
          "indexed": false,
          "internalType": "uint256",
          "name": "newSpeed",
          "type": "uint256"
        }
      ],
      "name": "ContributorCompSpeedUpdated",
      "type": "event"
    },
    {
      "anonymous": false,
      "inputs": [
        {
          "indexed": true,
          "internalType": "contract CToken",
          "name": "cToken",
          "type": "address"
        },
        {
          "indexed": true,
          "internalType": "address",
          "name": "borrower",
          "type": "address"
        },
        {
          "indexed": false,
          "internalType": "uint256",
          "name": "compDelta",
          "type": "uint256"
        },
        {
          "indexed": false,
          "internalType": "uint256",
          "name": "compBorrowIndex",
          "type": "uint256"
        }
      ],
      "name": "DistributedBorrowerComp",
      "type": "event"
    },
    {
      "anonymous": false,
      "inputs": [
        {
          "indexed": true,
          "internalType": "contract CToken",
          "name": "cToken",
          "type": "address"
        },
        {
          "indexed": true,
          "internalType": "address",
          "name": "supplier",
          "type": "address"
        },
        {
          "indexed": false,
          "internalType": "uint256",
          "name": "compDelta",
          "type": "uint256"
        },
        {
          "indexed": false,
          "internalType": "uint256",
          "name": "compSupplyIndex",
          "type": "uint256"
        }
      ],
      "name": "DistributedSupplierComp",
      "type": "event"
    },
    {
      "anonymous": false,
      "inputs": [
        {
          "indexed": false,
          "internalType": "uint256",
          "name": "error",
          "type": "uint256"
        },
        {
          "indexed": false,
          "internalType": "uint256",
          "name": "info",
          "type": "uint256"
        },
        {
          "indexed": false,
          "internalType": "uint256",
          "name": "detail",
          "type": "uint256"
        }
      ],
      "name": "Failure",
      "type": "event"
    },
    {
      "anonymous": false,
      "inputs": [
        {
          "indexed": false,
          "internalType": "contract CToken",
          "name": "cToken",
          "type": "address"
        },
        {
          "indexed": false,
          "internalType": "address",
          "name": "account",
          "type": "address"
        }
      ],
      "name": "MarketEntered",
      "type": "event"
    },
    {
      "anonymous": false,
      "inputs": [
        {
          "indexed": false,
          "internalType": "contract CToken",
          "name": "cToken",
          "type": "address"
        },
        {
          "indexed": false,
          "internalType": "address",
          "name": "account",
          "type": "address"
        }
      ],
      "name": "MarketExited",
      "type": "event"
    },
    {
      "anonymous": false,
      "inputs": [
        {
          "indexed": false,
          "internalType": "contract CToken",
          "name": "cToken",
          "type": "address"
        }
      ],
      "name": "MarketListed",
      "type": "event"
    },
    {
      "anonymous": false,
      "inputs": [
        {
          "indexed": true,
          "internalType": "contract CToken",
          "name": "cToken",
          "type": "address"
        },
        {
          "indexed": false,
          "internalType": "uint256",
          "name": "newBorrowCap",
          "type": "uint256"
        }
      ],
      "name": "NewBorrowCap",
      "type": "event"
    },
    {
      "anonymous": false,
      "inputs": [
        {
          "indexed": false,
          "internalType": "address",
          "name": "oldBorrowCapGuardian",
          "type": "address"
        },
        {
          "indexed": false,
          "internalType": "address",
          "name": "newBorrowCapGuardian",
          "type": "address"
        }
      ],
      "name": "NewBorrowCapGuardian",
      "type": "event"
    },
    {
      "anonymous": false,
      "inputs": [
        {
          "indexed": false,
          "internalType": "uint256",
          "name": "oldCloseFactorMantissa",
          "type": "uint256"
        },
        {
          "indexed": false,
          "internalType": "uint256",
          "name": "newCloseFactorMantissa",
          "type": "uint256"
        }
      ],
      "name": "NewCloseFactor",
      "type": "event"
    },
    {
      "anonymous": false,
      "inputs": [
        {
          "indexed": false,
          "internalType": "contract CToken",
          "name": "cToken",
          "type": "address"
        },
        {
          "indexed": false,
          "internalType": "uint256",
          "name": "oldCollateralFactorMantissa",
          "type": "uint256"
        },
        {
          "indexed": false,
          "internalType": "uint256",
          "name": "newCollateralFactorMantissa",
          "type": "uint256"
        },
        {
          "indexed": false,
          "internalType": "uint256",
          "name": "oldCollateralFactorMantissaVip",
          "type": "uint256"
        },
        {
          "indexed": false,
          "internalType": "uint256",
          "name": "newCollateralFactorMantissaVip",
          "type": "uint256"
        },
        {
          "indexed": false,
          "internalType": "uint256",
          "name": "oldliquidationThresholdMantissa",
          "type": "uint256"
        },
        {
          "indexed": false,
          "internalType": "uint256",
          "name": "newliquidationThresholdMantissa",
          "type": "uint256"
        },
        {
          "indexed": false,
          "internalType": "uint256",
          "name": "oldliquidationThresholdMantissaVip",
          "type": "uint256"
        },
        {
          "indexed": false,
          "internalType": "uint256",
          "name": "newliquidationThresholdMantissaVip",
          "type": "uint256"
        }
      ],
      "name": "NewFactorsAndThresholds",
      "type": "event"
    },
    {
      "anonymous": false,
      "inputs": [
        {
          "indexed": false,
          "internalType": "uint256",
          "name": "oldLiquidationIncentiveMantissa",
          "type": "uint256"
        },
        {
          "indexed": false,
          "internalType": "uint256",
          "name": "newLiquidationIncentiveMantissa",
          "type": "uint256"
        }
      ],
      "name": "NewLiquidationIncentive",
      "type": "event"
    },
    {
      "anonymous": false,
      "inputs": [
        {
          "indexed": false,
          "internalType": "address",
          "name": "oldPauseGuardian",
          "type": "address"
        },
        {
          "indexed": false,
          "internalType": "address",
          "name": "newPauseGuardian",
          "type": "address"
        }
      ],
      "name": "NewPauseGuardian",
      "type": "event"
    },
    {
      "anonymous": false,
      "inputs": [
        {
          "indexed": false,
          "internalType": "contract PriceOracle",
          "name": "oldPriceOracle",
          "type": "address"
        },
        {
          "indexed": false,
          "internalType": "contract PriceOracle",
          "name": "newPriceOracle",
          "type": "address"
        }
      ],
      "name": "NewPriceOracle",
      "type": "event"
    },
    {
      "anonymous": false,
      "inputs": [
        {
          "indexed": true,
          "internalType": "contract CToken",
          "name": "cToken",
          "type": "address"
        },
        {
          "indexed": false,
          "internalType": "uint256",
          "name": "newSupplyCap",
          "type": "uint256"
        }
      ],
      "name": "NewSupplyCap",
      "type": "event"
    },
    {
      "inputs": [
        {
          "internalType": "contract Unitroller",
          "name": "unitroller",
          "type": "address"
        }
      ],
      "name": "_become",
      "outputs": [],
      "stateMutability": "nonpayable",
      "type": "function"
    },
    {
      "inputs": [],
      "name": "_borrowGuardianPaused",
      "outputs": [
        {
          "internalType": "bool",
          "name": "",
          "type": "bool"
        }
      ],
      "stateMutability": "view",
      "type": "function"
    },
    {
      "inputs": [
        {
          "internalType": "address",
          "name": "recipient",
          "type": "address"
        },
        {
          "internalType": "uint256",
          "name": "amount",
          "type": "uint256"
        }
      ],
      "name": "_grantComp",
      "outputs": [],
      "stateMutability": "nonpayable",
      "type": "function"
    },
    {
      "inputs": [],
      "name": "_mintGuardianPaused",
      "outputs": [
        {
          "internalType": "bool",
          "name": "",
          "type": "bool"
        }
      ],
      "stateMutability": "view",
      "type": "function"
    },
    {
      "inputs": [
        {
          "internalType": "address",
          "name": "newBorrowCapGuardian",
          "type": "address"
        }
      ],
      "name": "_setBorrowCapGuardian",
      "outputs": [],
      "stateMutability": "nonpayable",
      "type": "function"
    },
    {
      "inputs": [
        {
          "internalType": "contract CToken",
          "name": "cToken",
          "type": "address"
        },
        {
          "internalType": "bool",
          "name": "state",
          "type": "bool"
        }
      ],
      "name": "_setBorrowPaused",
      "outputs": [
        {
          "internalType": "bool",
          "name": "",
          "type": "bool"
        }
      ],
      "stateMutability": "nonpayable",
      "type": "function"
    },
    {
      "inputs": [
        {
          "internalType": "uint256",
          "name": "newCloseFactorMantissa",
          "type": "uint256"
        }
      ],
      "name": "_setCloseFactor",
      "outputs": [
        {
          "internalType": "uint256",
          "name": "",
          "type": "uint256"
        }
      ],
      "stateMutability": "nonpayable",
      "type": "function"
    },
    {
      "inputs": [
        {
          "internalType": "contract CToken[]",
          "name": "cTokens",
          "type": "address[]"
        },
        {
          "internalType": "uint256[]",
          "name": "supplySpeeds",
          "type": "uint256[]"
        },
        {
          "internalType": "uint256[]",
          "name": "borrowSpeeds",
          "type": "uint256[]"
        }
      ],
      "name": "_setCompSpeeds",
      "outputs": [],
      "stateMutability": "nonpayable",
      "type": "function"
    },
    {
      "inputs": [
        {
          "internalType": "address",
          "name": "contributor",
          "type": "address"
        },
        {
          "internalType": "uint256",
          "name": "compSpeed",
          "type": "uint256"
        }
      ],
      "name": "_setContributorCompSpeed",
      "outputs": [],
      "stateMutability": "nonpayable",
      "type": "function"
    },
    {
      "inputs": [
        {
          "internalType": "contract CToken",
          "name": "cToken",
          "type": "address"
        },
        {
          "internalType": "uint256",
          "name": "newCollateralFactorMantissa",
          "type": "uint256"
        },
        {
          "internalType": "uint256",
          "name": "newCollateralFactorMantissaVip",
          "type": "uint256"
        },
        {
          "internalType": "uint256",
          "name": "newLiquidationThresholdMantissa",
          "type": "uint256"
        },
        {
          "internalType": "uint256",
          "name": "newLiquidationThresholdMantissaVip",
          "type": "uint256"
        }
      ],
      "name": "_setFactorsAndThresholds",
      "outputs": [
        {
          "internalType": "uint256",
          "name": "",
          "type": "uint256"
        }
      ],
      "stateMutability": "nonpayable",
      "type": "function"
    },
    {
      "inputs": [
        {
          "internalType": "uint256",
          "name": "newLiquidationIncentiveMantissa",
          "type": "uint256"
        }
      ],
      "name": "_setLiquidationIncentive",
      "outputs": [
        {
          "internalType": "uint256",
          "name": "",
          "type": "uint256"
        }
      ],
      "stateMutability": "nonpayable",
      "type": "function"
    },
    {
      "inputs": [
        {
          "internalType": "contract CToken[]",
          "name": "cTokens",
          "type": "address[]"
        },
        {
          "internalType": "uint256[]",
          "name": "newBorrowCaps",
          "type": "uint256[]"
        },
        {
          "internalType": "uint256[]",
          "name": "newSupplyCaps",
          "type": "uint256[]"
        }
      ],
      "name": "_setMarketBorrowCaps",
      "outputs": [],
      "stateMutability": "nonpayable",
      "type": "function"
    },
    {
      "inputs": [
        {
          "internalType": "contract CToken",
          "name": "cToken",
          "type": "address"
        },
        {
          "internalType": "bool",
          "name": "state",
          "type": "bool"
        }
      ],
      "name": "_setMintPaused",
      "outputs": [
        {
          "internalType": "bool",
          "name": "",
          "type": "bool"
        }
      ],
      "stateMutability": "nonpayable",
      "type": "function"
    },
    {
      "inputs": [
        {
          "internalType": "address",
          "name": "newPauseGuardian",
          "type": "address"
        }
      ],
      "name": "_setPauseGuardian",
      "outputs": [
        {
          "internalType": "uint256",
          "name": "",
          "type": "uint256"
        }
      ],
      "stateMutability": "nonpayable",
      "type": "function"
    },
    {
      "inputs": [
        {
          "internalType": "contract PriceOracle",
          "name": "newOracle",
          "type": "address"
        }
      ],
      "name": "_setPriceOracle",
      "outputs": [
        {
          "internalType": "uint256",
          "name": "",
          "type": "uint256"
        }
      ],
      "stateMutability": "nonpayable",
      "type": "function"
    },
    {
      "inputs": [
        {
          "internalType": "bool",
          "name": "state",
          "type": "bool"
        }
      ],
      "name": "_setSeizePaused",
      "outputs": [
        {
          "internalType": "bool",
          "name": "",
          "type": "bool"
        }
      ],
      "stateMutability": "nonpayable",
      "type": "function"
    },
    {
      "inputs": [
        {
          "internalType": "bool",
          "name": "state",
          "type": "bool"
        }
      ],
      "name": "_setTransferPaused",
      "outputs": [
        {
          "internalType": "bool",
          "name": "",
          "type": "bool"
        }
      ],
      "stateMutability": "nonpayable",
      "type": "function"
    },
    {
      "inputs": [
        {
          "internalType": "contract CToken",
          "name": "cToken",
          "type": "address"
        },
        {
          "internalType": "bool",
          "name": "isComped_",
          "type": "bool"
        },
        {
          "internalType": "bool",
          "name": "isPrivate_",
          "type": "bool"
        },
        {
          "internalType": "bool",
          "name": "onlyWhitelistedBorrow_",
          "type": "bool"
        }
      ],
      "name": "_supportMarket",
      "outputs": [
        {
          "internalType": "uint256",
          "name": "",
          "type": "uint256"
        }
      ],
      "stateMutability": "nonpayable",
      "type": "function"
    },
    {
      "inputs": [
        {
          "internalType": "address",
          "name": "",
          "type": "address"
        },
        {
          "internalType": "uint256",
          "name": "",
          "type": "uint256"
        }
      ],
      "name": "accountAssets",
      "outputs": [
        {
          "internalType": "contract CToken",
          "name": "",
          "type": "address"
        }
      ],
      "stateMutability": "view",
      "type": "function"
    },
    {
      "inputs": [
        {
          "internalType": "address",
          "name": "cToken",
          "type": "address"
        },
        {
          "internalType": "address",
          "name": "borrower",
          "type": "address"
        }
      ],
      "name": "addToMarketExternal",
      "outputs": [],
      "stateMutability": "nonpayable",
      "type": "function"
    },
    {
      "inputs": [],
      "name": "admin",
      "outputs": [
        {
          "internalType": "address",
          "name": "",
          "type": "address"
        }
      ],
      "stateMutability": "view",
      "type": "function"
    },
    {
      "inputs": [
        {
          "internalType": "uint256",
          "name": "",
          "type": "uint256"
        }
      ],
      "name": "allMarkets",
      "outputs": [
        {
          "internalType": "contract CToken",
          "name": "",
          "type": "address"
        }
      ],
      "stateMutability": "view",
      "type": "function"
    },
    {
      "inputs": [
        {
          "internalType": "address",
          "name": "cToken",
          "type": "address"
        },
        {
          "internalType": "address",
          "name": "borrower",
          "type": "address"
        },
        {
          "internalType": "uint256",
          "name": "borrowAmount",
          "type": "uint256"
        }
      ],
      "name": "borrowAllowed",
      "outputs": [
        {
          "internalType": "uint256",
          "name": "",
          "type": "uint256"
        }
      ],
      "stateMutability": "nonpayable",
      "type": "function"
    },
    {
      "inputs": [],
      "name": "borrowCapGuardian",
      "outputs": [
        {
          "internalType": "address",
          "name": "",
          "type": "address"
        }
      ],
      "stateMutability": "view",
      "type": "function"
    },
    {
      "inputs": [
        {
          "internalType": "address",
          "name": "",
          "type": "address"
        }
      ],
      "name": "borrowCaps",
      "outputs": [
        {
          "internalType": "uint256",
          "name": "",
          "type": "uint256"
        }
      ],
      "stateMutability": "view",
      "type": "function"
    },
    {
      "inputs": [
        {
          "internalType": "address",
          "name": "",
          "type": "address"
        }
      ],
      "name": "borrowGuardianPaused",
      "outputs": [
        {
          "internalType": "bool",
          "name": "",
          "type": "bool"
        }
      ],
      "stateMutability": "view",
      "type": "function"
    },
    {
      "inputs": [
        {
          "internalType": "address",
          "name": "cToken",
          "type": "address"
        },
        {
          "internalType": "address",
          "name": "borrower",
          "type": "address"
        },
        {
          "internalType": "uint256",
          "name": "borrowAmount",
          "type": "uint256"
        }
      ],
      "name": "borrowVerify",
      "outputs": [],
      "stateMutability": "nonpayable",
      "type": "function"
    },
    {
      "inputs": [
        {
          "internalType": "address",
          "name": "account",
          "type": "address"
        },
        {
          "internalType": "contract CToken",
          "name": "cToken",
          "type": "address"
        }
      ],
      "name": "checkMembership",
      "outputs": [
        {
          "internalType": "bool",
          "name": "",
          "type": "bool"
        }
      ],
      "stateMutability": "view",
      "type": "function"
    },
    {
      "inputs": [
        {
          "internalType": "address",
          "name": "holder",
          "type": "address"
        },
        {
          "internalType": "contract CToken[]",
          "name": "cTokens",
          "type": "address[]"
        }
      ],
      "name": "claimComp",
      "outputs": [],
      "stateMutability": "nonpayable",
      "type": "function"
    },
    {
      "inputs": [
        {
          "internalType": "address[]",
          "name": "holders",
          "type": "address[]"
        },
        {
          "internalType": "contract CToken[]",
          "name": "cTokens",
          "type": "address[]"
        },
        {
          "internalType": "bool",
          "name": "borrowers",
          "type": "bool"
        },
        {
          "internalType": "bool",
          "name": "suppliers",
          "type": "bool"
        }
      ],
      "name": "claimComp",
      "outputs": [],
      "stateMutability": "nonpayable",
      "type": "function"
    },
    {
      "inputs": [
        {
          "internalType": "address",
          "name": "holder",
          "type": "address"
        }
      ],
      "name": "claimComp",
      "outputs": [],
      "stateMutability": "nonpayable",
      "type": "function"
    },
    {
      "inputs": [],
      "name": "closeFactorMantissa",
      "outputs": [
        {
          "internalType": "uint256",
          "name": "",
          "type": "uint256"
        }
      ],
      "stateMutability": "view",
      "type": "function"
    },
    {
      "inputs": [
        {
          "internalType": "address",
          "name": "",
          "type": "address"
        }
      ],
      "name": "compAccrued",
      "outputs": [
        {
          "internalType": "uint256",
          "name": "",
          "type": "uint256"
        }
      ],
      "stateMutability": "view",
      "type": "function"
    },
    {
      "inputs": [],
      "name": "compAddress",
      "outputs": [
        {
          "internalType": "address",
          "name": "",
          "type": "address"
        }
      ],
      "stateMutability": "view",
      "type": "function"
    },
    {
      "inputs": [
        {
          "internalType": "address",
          "name": "",
          "type": "address"
        }
      ],
      "name": "compBorrowSpeeds",
      "outputs": [
        {
          "internalType": "uint256",
          "name": "",
          "type": "uint256"
        }
      ],
      "stateMutability": "view",
      "type": "function"
    },
    {
      "inputs": [
        {
          "internalType": "address",
          "name": "",
          "type": "address"
        }
      ],
      "name": "compBorrowState",
      "outputs": [
        {
          "internalType": "uint224",
          "name": "index",
          "type": "uint224"
        },
        {
          "internalType": "uint32",
          "name": "block",
          "type": "uint32"
        }
      ],
      "stateMutability": "view",
      "type": "function"
    },
    {
      "inputs": [
        {
          "internalType": "address",
          "name": "",
          "type": "address"
        },
        {
          "internalType": "address",
          "name": "",
          "type": "address"
        }
      ],
      "name": "compBorrowerIndex",
      "outputs": [
        {
          "internalType": "uint256",
          "name": "",
          "type": "uint256"
        }
      ],
      "stateMutability": "view",
      "type": "function"
    },
    {
      "inputs": [
        {
          "internalType": "address",
          "name": "",
          "type": "address"
        }
      ],
      "name": "compContributorSpeeds",
      "outputs": [
        {
          "internalType": "uint256",
          "name": "",
          "type": "uint256"
        }
      ],
      "stateMutability": "view",
      "type": "function"
    },
    {
      "inputs": [],
      "name": "compInitialIndex",
      "outputs": [
        {
          "internalType": "uint224",
          "name": "",
          "type": "uint224"
        }
      ],
      "stateMutability": "view",
      "type": "function"
    },
    {
      "inputs": [],
      "name": "compRate",
      "outputs": [
        {
          "internalType": "uint256",
          "name": "",
          "type": "uint256"
        }
      ],
      "stateMutability": "view",
      "type": "function"
    },
    {
      "inputs": [
        {
          "internalType": "address",
          "name": "",
          "type": "address"
        }
      ],
      "name": "compReceivable",
      "outputs": [
        {
          "internalType": "uint256",
          "name": "",
          "type": "uint256"
        }
      ],
      "stateMutability": "view",
      "type": "function"
    },
    {
      "inputs": [
        {
          "internalType": "address",
          "name": "",
          "type": "address"
        }
      ],
      "name": "compSpeeds",
      "outputs": [
        {
          "internalType": "uint256",
          "name": "",
          "type": "uint256"
        }
      ],
      "stateMutability": "view",
      "type": "function"
    },
    {
      "inputs": [
        {
          "internalType": "address",
          "name": "",
          "type": "address"
        },
        {
          "internalType": "address",
          "name": "",
          "type": "address"
        }
      ],
      "name": "compSupplierIndex",
      "outputs": [
        {
          "internalType": "uint256",
          "name": "",
          "type": "uint256"
        }
      ],
      "stateMutability": "view",
      "type": "function"
    },
    {
      "inputs": [
        {
          "internalType": "address",
          "name": "",
          "type": "address"
        }
      ],
      "name": "compSupplySpeeds",
      "outputs": [
        {
          "internalType": "uint256",
          "name": "",
          "type": "uint256"
        }
      ],
      "stateMutability": "view",
      "type": "function"
    },
    {
      "inputs": [
        {
          "internalType": "address",
          "name": "",
          "type": "address"
        }
      ],
      "name": "compSupplyState",
      "outputs": [
        {
          "internalType": "uint224",
          "name": "index",
          "type": "uint224"
        },
        {
          "internalType": "uint32",
          "name": "block",
          "type": "uint32"
        }
      ],
      "stateMutability": "view",
      "type": "function"
    },
    {
      "inputs": [],
      "name": "comptrollerImplementation",
      "outputs": [
        {
          "internalType": "address",
          "name": "",
          "type": "address"
        }
      ],
      "stateMutability": "view",
      "type": "function"
    },
    {
      "inputs": [
        {
          "internalType": "address[]",
          "name": "cTokens",
          "type": "address[]"
        }
      ],
      "name": "enterMarkets",
      "outputs": [
        {
          "internalType": "uint256[]",
          "name": "",
          "type": "uint256[]"
        }
      ],
      "stateMutability": "nonpayable",
      "type": "function"
    },
    {
      "inputs": [
        {
          "internalType": "address",
          "name": "cTokenAddress",
          "type": "address"
        }
      ],
      "name": "exitMarket",
      "outputs": [
        {
          "internalType": "uint256",
          "name": "",
          "type": "uint256"
        }
      ],
      "stateMutability": "nonpayable",
      "type": "function"
    },
    {
      "inputs": [
        {
          "internalType": "address",
          "name": "account",
          "type": "address"
        }
      ],
      "name": "getAccountLiquidity",
      "outputs": [
        {
          "internalType": "uint256",
          "name": "",
          "type": "uint256"
        },
        {
          "internalType": "uint256",
          "name": "",
          "type": "uint256"
        },
        {
          "internalType": "uint256",
          "name": "",
          "type": "uint256"
        }
      ],
      "stateMutability": "view",
      "type": "function"
    },
    {
      "inputs": [],
      "name": "getAllMarkets",
      "outputs": [
        {
          "internalType": "contract CToken[]",
          "name": "",
          "type": "address[]"
        }
      ],
      "stateMutability": "view",
      "type": "function"
    },
    {
      "inputs": [
        {
          "internalType": "address",
          "name": "account",
          "type": "address"
        }
      ],
      "name": "getAssetsIn",
      "outputs": [
        {
          "internalType": "contract CToken[]",
          "name": "",
          "type": "address[]"
        }
      ],
      "stateMutability": "view",
      "type": "function"
    },
    {
      "inputs": [],
      "name": "getBlockNumber",
      "outputs": [
        {
          "internalType": "uint256",
          "name": "",
          "type": "uint256"
        }
      ],
      "stateMutability": "view",
      "type": "function"
    },
    {
      "inputs": [],
      "name": "getCompAddress",
      "outputs": [
        {
          "internalType": "address",
          "name": "",
          "type": "address"
        }
      ],
      "stateMutability": "view",
      "type": "function"
    },
    {
      "inputs": [
        {
          "internalType": "address",
          "name": "account",
          "type": "address"
        },
        {
          "internalType": "address",
          "name": "cTokenModify",
          "type": "address"
        },
        {
          "internalType": "uint256",
          "name": "redeemTokens",
          "type": "uint256"
        },
        {
          "internalType": "uint256",
          "name": "borrowAmount",
          "type": "uint256"
        }
      ],
      "name": "getHypotheticalAccountLiquidity",
      "outputs": [
        {
          "internalType": "uint256",
          "name": "",
          "type": "uint256"
        },
        {
          "internalType": "uint256",
          "name": "",
          "type": "uint256"
        },
        {
          "internalType": "uint256",
          "name": "",
          "type": "uint256"
        }
      ],
      "stateMutability": "view",
      "type": "function"
    },
    {
      "inputs": [
        {
          "internalType": "address",
          "name": "_account",
          "type": "address"
        }
      ],
      "name": "getIsAccountVip",
      "outputs": [
        {
          "internalType": "bool",
          "name": "isVip",
          "type": "bool"
        }
      ],
      "stateMutability": "view",
      "type": "function"
    },
    {
      "inputs": [],
      "name": "immutableCompAddress",
      "outputs": [
        {
          "internalType": "bool",
          "name": "",
          "type": "bool"
        }
      ],
      "stateMutability": "view",
      "type": "function"
    },
    {
      "inputs": [],
      "name": "isComptroller",
      "outputs": [
        {
          "internalType": "bool",
          "name": "",
          "type": "bool"
        }
      ],
      "stateMutability": "view",
      "type": "function"
    },
    {
      "inputs": [
        {
          "internalType": "contract CToken",
          "name": "cToken",
          "type": "address"
        }
      ],
      "name": "isDeprecated",
      "outputs": [
        {
          "internalType": "bool",
          "name": "",
          "type": "bool"
        }
      ],
      "stateMutability": "view",
      "type": "function"
    },
    {
      "inputs": [
        {
          "internalType": "address",
          "name": "",
          "type": "address"
        }
      ],
      "name": "lastContributorBlock",
      "outputs": [
        {
          "internalType": "uint256",
          "name": "",
          "type": "uint256"
        }
      ],
      "stateMutability": "view",
      "type": "function"
    },
    {
      "inputs": [
        {
          "internalType": "address",
          "name": "cTokenBorrowed",
          "type": "address"
        },
        {
          "internalType": "address",
          "name": "cTokenCollateral",
          "type": "address"
        },
        {
          "internalType": "address",
          "name": "liquidator",
          "type": "address"
        },
        {
          "internalType": "address",
          "name": "borrower",
          "type": "address"
        },
        {
          "internalType": "uint256",
          "name": "repayAmount",
          "type": "uint256"
        }
      ],
      "name": "liquidateBorrowAllowed",
      "outputs": [
        {
          "internalType": "uint256",
          "name": "",
          "type": "uint256"
        }
      ],
      "stateMutability": "view",
      "type": "function"
    },
    {
      "inputs": [
        {
          "internalType": "address",
          "name": "cTokenBorrowed",
          "type": "address"
        },
        {
          "internalType": "address",
          "name": "cTokenCollateral",
          "type": "address"
        },
        {
          "internalType": "address",
          "name": "liquidator",
          "type": "address"
        },
        {
          "internalType": "address",
          "name": "borrower",
          "type": "address"
        },
        {
          "internalType": "uint256",
          "name": "actualRepayAmount",
          "type": "uint256"
        },
        {
          "internalType": "uint256",
          "name": "seizeTokens",
          "type": "uint256"
        }
      ],
      "name": "liquidateBorrowVerify",
      "outputs": [],
      "stateMutability": "nonpayable",
      "type": "function"
    },
    {
      "inputs": [
        {
          "internalType": "address",
          "name": "cTokenBorrowed",
          "type": "address"
        },
        {
          "internalType": "address",
          "name": "cTokenCollateral",
          "type": "address"
        },
        {
          "internalType": "uint256",
          "name": "actualRepayAmount",
          "type": "uint256"
        }
      ],
      "name": "liquidateCalculateSeizeTokens",
      "outputs": [
        {
          "internalType": "uint256",
          "name": "",
          "type": "uint256"
        },
        {
          "internalType": "uint256",
          "name": "",
          "type": "uint256"
        }
      ],
      "stateMutability": "view",
      "type": "function"
    },
    {
      "inputs": [],
      "name": "liquidationIncentiveMantissa",
      "outputs": [
        {
          "internalType": "uint256",
          "name": "",
          "type": "uint256"
        }
      ],
      "stateMutability": "view",
      "type": "function"
    },
    {
      "inputs": [
        {
          "internalType": "address",
          "name": "",
          "type": "address"
        }
      ],
      "name": "markets",
      "outputs": [
        {
          "internalType": "bool",
          "name": "isListed",
          "type": "bool"
        },
        {
          "internalType": "uint256",
          "name": "collateralFactorMantissa",
          "type": "uint256"
        },
        {
          "internalType": "uint256",
          "name": "liquidationThresholdMantissa",
          "type": "uint256"
        },
        {
          "internalType": "uint256",
          "name": "collateralFactorMantissaVip",
          "type": "uint256"
        },
        {
          "internalType": "uint256",
          "name": "liquidationThresholdMantissaVip",
          "type": "uint256"
        },
        {
          "internalType": "bool",
          "name": "isComped",
          "type": "bool"
        },
        {
          "internalType": "bool",
          "name": "isPrivate",
          "type": "bool"
        },
        {
          "internalType": "bool",
          "name": "onlyWhitelistedBorrow",
          "type": "bool"
        }
      ],
      "stateMutability": "view",
      "type": "function"
    },
    {
      "inputs": [],
      "name": "maxAssets",
      "outputs": [
        {
          "internalType": "uint256",
          "name": "",
          "type": "uint256"
        }
      ],
      "stateMutability": "view",
      "type": "function"
    },
    {
      "inputs": [
        {
          "internalType": "address",
          "name": "cToken",
          "type": "address"
        },
        {
          "internalType": "address",
          "name": "minter",
          "type": "address"
        },
        {
          "internalType": "uint256",
          "name": "mintAmount",
          "type": "uint256"
        }
      ],
      "name": "mintAllowed",
      "outputs": [
        {
          "internalType": "uint256",
          "name": "",
          "type": "uint256"
        }
      ],
      "stateMutability": "nonpayable",
      "type": "function"
    },
    {
      "inputs": [
        {
          "internalType": "address",
          "name": "",
          "type": "address"
        }
      ],
      "name": "mintGuardianPaused",
      "outputs": [
        {
          "internalType": "bool",
          "name": "",
          "type": "bool"
        }
      ],
      "stateMutability": "view",
      "type": "function"
    },
    {
      "inputs": [
        {
          "internalType": "address",
          "name": "cToken",
          "type": "address"
        },
        {
          "internalType": "address",
          "name": "minter",
          "type": "address"
        },
        {
          "internalType": "uint256",
          "name": "actualMintAmount",
          "type": "uint256"
        },
        {
          "internalType": "uint256",
          "name": "mintTokens",
          "type": "uint256"
        }
      ],
      "name": "mintVerify",
      "outputs": [],
      "stateMutability": "nonpayable",
      "type": "function"
    },
    {
      "inputs": [],
      "name": "oracle",
      "outputs": [
        {
          "internalType": "contract PriceOracle",
          "name": "",
          "type": "address"
        }
      ],
      "stateMutability": "view",
      "type": "function"
    },
    {
      "inputs": [],
      "name": "pauseGuardian",
      "outputs": [
        {
          "internalType": "address",
          "name": "",
          "type": "address"
        }
      ],
      "stateMutability": "view",
      "type": "function"
    },
    {
      "inputs": [],
      "name": "pendingAdmin",
      "outputs": [
        {
          "internalType": "address",
          "name": "",
          "type": "address"
        }
      ],
      "stateMutability": "view",
      "type": "function"
    },
    {
      "inputs": [],
      "name": "pendingComptrollerImplementation",
      "outputs": [
        {
          "internalType": "address",
          "name": "",
          "type": "address"
        }
      ],
      "stateMutability": "view",
      "type": "function"
    },
    {
      "inputs": [
        {
          "internalType": "address",
          "name": "cToken",
          "type": "address"
        },
        {
          "internalType": "address",
          "name": "redeemer",
          "type": "address"
        },
        {
          "internalType": "uint256",
          "name": "redeemTokens",
          "type": "uint256"
        }
      ],
      "name": "redeemAllowed",
      "outputs": [
        {
          "internalType": "uint256",
          "name": "",
          "type": "uint256"
        }
      ],
      "stateMutability": "nonpayable",
      "type": "function"
    },
    {
      "inputs": [
        {
          "internalType": "address",
          "name": "cToken",
          "type": "address"
        },
        {
          "internalType": "address",
          "name": "redeemer",
          "type": "address"
        },
        {
          "internalType": "uint256",
          "name": "redeemAmount",
          "type": "uint256"
        },
        {
          "internalType": "uint256",
          "name": "redeemTokens",
          "type": "uint256"
        }
      ],
      "name": "redeemVerify",
      "outputs": [],
      "stateMutability": "nonpayable",
      "type": "function"
    },
    {
      "inputs": [
        {
          "internalType": "address",
          "name": "cToken",
          "type": "address"
        },
        {
          "internalType": "address",
          "name": "payer",
          "type": "address"
        },
        {
          "internalType": "address",
          "name": "borrower",
          "type": "address"
        },
        {
          "internalType": "uint256",
          "name": "repayAmount",
          "type": "uint256"
        }
      ],
      "name": "repayBorrowAllowed",
      "outputs": [
        {
          "internalType": "uint256",
          "name": "",
          "type": "uint256"
        }
      ],
      "stateMutability": "nonpayable",
      "type": "function"
    },
    {
      "inputs": [
        {
          "internalType": "address",
          "name": "cToken",
          "type": "address"
        },
        {
          "internalType": "address",
          "name": "payer",
          "type": "address"
        },
        {
          "internalType": "address",
          "name": "borrower",
          "type": "address"
        },
        {
          "internalType": "uint256",
          "name": "actualRepayAmount",
          "type": "uint256"
        },
        {
          "internalType": "uint256",
          "name": "borrowerIndex",
          "type": "uint256"
        }
      ],
      "name": "repayBorrowVerify",
      "outputs": [],
      "stateMutability": "nonpayable",
      "type": "function"
    },
    {
      "inputs": [
        {
          "internalType": "address",
          "name": "cTokenCollateral",
          "type": "address"
        },
        {
          "internalType": "address",
          "name": "cTokenBorrowed",
          "type": "address"
        },
        {
          "internalType": "address",
          "name": "liquidator",
          "type": "address"
        },
        {
          "internalType": "address",
          "name": "borrower",
          "type": "address"
        },
        {
          "internalType": "uint256",
          "name": "seizeTokens",
          "type": "uint256"
        }
      ],
      "name": "seizeAllowed",
      "outputs": [
        {
          "internalType": "uint256",
          "name": "",
          "type": "uint256"
        }
      ],
      "stateMutability": "nonpayable",
      "type": "function"
    },
    {
      "inputs": [],
      "name": "seizeGuardianPaused",
      "outputs": [
        {
          "internalType": "bool",
          "name": "",
          "type": "bool"
        }
      ],
      "stateMutability": "view",
      "type": "function"
    },
    {
      "inputs": [
        {
          "internalType": "address",
          "name": "cTokenCollateral",
          "type": "address"
        },
        {
          "internalType": "address",
          "name": "cTokenBorrowed",
          "type": "address"
        },
        {
          "internalType": "address",
          "name": "liquidator",
          "type": "address"
        },
        {
          "internalType": "address",
          "name": "borrower",
          "type": "address"
        },
        {
          "internalType": "uint256",
          "name": "seizeTokens",
          "type": "uint256"
        }
      ],
      "name": "seizeVerify",
      "outputs": [],
      "stateMutability": "nonpayable",
      "type": "function"
    },
    {
      "inputs": [
        {
          "internalType": "address",
          "name": "compAddress_",
          "type": "address"
        }
      ],
      "name": "setCompAddress",
      "outputs": [],
      "stateMutability": "nonpayable",
      "type": "function"
    },
    {
      "inputs": [],
      "name": "setImmutableCompAddress",
      "outputs": [],
      "stateMutability": "nonpayable",
      "type": "function"
    },
    {
      "inputs": [
        {
          "internalType": "address",
          "name": "cToken_",
          "type": "address"
        },
        {
          "internalType": "bool",
          "name": "isPrivate_",
          "type": "bool"
        },
        {
          "internalType": "bool",
          "name": "onlyWhitelistedCanBorrow_",
          "type": "bool"
        },
        {
          "internalType": "bool",
          "name": "isComped_",
          "type": "bool"
        }
      ],
      "name": "setMarketVariables",
      "outputs": [],
      "stateMutability": "nonpayable",
      "type": "function"
    },
    {
      "inputs": [
        {
          "internalType": "uint256",
          "name": "_tokenBalanceVipThreshold",
          "type": "uint256"
        }
      ],
      "name": "setTokenBalanceVipThreshold",
      "outputs": [],
      "stateMutability": "nonpayable",
      "type": "function"
    },
    {
      "inputs": [
        {
          "internalType": "address",
          "name": "_vipNft",
          "type": "address"
        }
      ],
      "name": "setVipNft",
      "outputs": [],
      "stateMutability": "nonpayable",
      "type": "function"
    },
    {
      "inputs": [
        {
          "internalType": "address",
          "name": "user_",
          "type": "address"
        },
        {
          "internalType": "bool",
          "name": "isWhiteListed_",
          "type": "bool"
        }
      ],
      "name": "setWhitelistedUser",
      "outputs": [],
      "stateMutability": "nonpayable",
      "type": "function"
    },
    {
      "inputs": [
        {
          "internalType": "address",
          "name": "",
          "type": "address"
        }
      ],
      "name": "supplyCaps",
      "outputs": [
        {
          "internalType": "uint256",
          "name": "",
          "type": "uint256"
        }
      ],
      "stateMutability": "view",
      "type": "function"
    },
    {
      "inputs": [],
      "name": "tokenBalanceVipThreshold",
      "outputs": [
        {
          "internalType": "uint256",
          "name": "",
          "type": "uint256"
        }
      ],
      "stateMutability": "view",
      "type": "function"
    },
    {
      "inputs": [
        {
          "internalType": "address",
          "name": "cToken",
          "type": "address"
        },
        {
          "internalType": "address",
          "name": "src",
          "type": "address"
        },
        {
          "internalType": "address",
          "name": "dst",
          "type": "address"
        },
        {
          "internalType": "uint256",
          "name": "transferTokens",
          "type": "uint256"
        }
      ],
      "name": "transferAllowed",
      "outputs": [
        {
          "internalType": "uint256",
          "name": "",
          "type": "uint256"
        }
      ],
      "stateMutability": "nonpayable",
      "type": "function"
    },
    {
      "inputs": [],
      "name": "transferGuardianPaused",
      "outputs": [
        {
          "internalType": "bool",
          "name": "",
          "type": "bool"
        }
      ],
      "stateMutability": "view",
      "type": "function"
    },
    {
      "inputs": [
        {
          "internalType": "address",
          "name": "cToken",
          "type": "address"
        },
        {
          "internalType": "address",
          "name": "src",
          "type": "address"
        },
        {
          "internalType": "address",
          "name": "dst",
          "type": "address"
        },
        {
          "internalType": "uint256",
          "name": "transferTokens",
          "type": "uint256"
        }
      ],
      "name": "transferVerify",
      "outputs": [],
      "stateMutability": "nonpayable",
      "type": "function"
    },
    {
      "inputs": [
        {
          "internalType": "address",
          "name": "contributor",
          "type": "address"
        }
      ],
      "name": "updateContributorRewards",
      "outputs": [],
      "stateMutability": "nonpayable",
      "type": "function"
    },
    {
      "inputs": [],
      "name": "vipNft",
      "outputs": [
        {
          "internalType": "address",
          "name": "",
          "type": "address"
        }
      ],
      "stateMutability": "view",
      "type": "function"
    },
    {
      "inputs": [
        {
          "internalType": "address",
          "name": "",
          "type": "address"
        }
      ],
      "name": "whitelistedUser",
      "outputs": [
        {
          "internalType": "bool",
          "name": "",
          "type": "bool"
        }
      ],
      "stateMutability": "view",
      "type": "function"
    }
  ],
  "bytecode": "0x608060405234801561001057600080fd5b50600080546001600160a01b0319163390811782558152601560205260409020805460ff191660011790556016805460ff60a01b19169055615e9680620000586000396000f3fe608060405234801561001057600080fd5b506004361061050e5760003560e01c806375aedb59116102a4578063b0772d0b11610172578063d747e15c116100d9578063e875544611610092578063e875544614610dc1578063e9af029214610dca578063eabe7d9114610ddd578063ede4edd014610df0578063f4a433c014610e03578063f851a44014610e2357600080fd5b8063d747e15c14610d4e578063da3d454c14610d61578063dce1544914610d74578063dcfbc0c714610d87578063e49ba95a14610d9a578063e6653f3d14610dad57600080fd5b8063bea6b8b81161012b578063bea6b8b814610c88578063c299823814610ca8578063c488847b14610cc8578063ca0af04314610cf0578063cc7ebdc414610d1b578063d02f735114610d3b57600080fd5b8063b0772d0b14610c14578063b21be7fd14610c1c578063b3d52a5614610c47578063bb82aa5e14610c4f578063bdcdc25814610c62578063be3aa8d114610c7557600080fd5b806394543c1511610216578063a86cc915116101cf578063a86cc91514610ba8578063a8b4394814610bbb578063aa90075414610bce578063abfceffc14610bd7578063ac0b0bb714610bf7578063ad888c3314610c0b57600080fd5b806394543c1514610b1b57806394b2294b14610b2e578063986ab83814610b375780639a6f5ac314610b575780639d1b5a0a14610b6a578063a7f0e23114610b7b57600080fd5b806387f763031161026857806387f76303146109ba5780638936c5fa146109ce5780638c57804e146109f15780638e8f294b14610a295780638ebf636414610ac7578063929fe9a114610ada57600080fd5b806375aedb591461094e5780637d3ab61a146109615780637dc0d1d014610974578063858aa5e51461098757806385b7beb81461099a57600080fd5b806347ef3b3b116103e15780635c778605116103535780636aa875b51161030c5780636aa875b51461086b5780636b79c38d1461088b5780636d154ea5146108e75780636d35bf911461090a578063731f0c2b14610918578063741b25251461093b57600080fd5b80635c778605146107fe5780635ec88c79146108115780635f5af1aa146108245780635fc7e71e146108375780636810dfa61461084a5780636a56947e1461085d57600080fd5b80634fd42e17116103a55780634fd42e171461078b57806351b446191461079e57806351dff989146107b257806352d84d1e146107c557806355ee1fe1146107d8578063598ee1cb146107eb57600080fd5b806347ef3b3b1461070b5780634a584432146107215780634ada90af146107415780634e79238f1461074a5780634ef4c3e11461077857600080fd5b806326782247116104855780633bcf7ec11161043e5780633bcf7ec1146106a45780633c94786f146106b757806341c728b9146106cb57806342cbb15c146106df57806344710fbe146106e557806345152636146106f857600080fd5b8063267822471461063257806327efe3cb146106455780632a320f61146106585780632d70db781461066b578063317b0b771461067e578063391957d71461069157600080fd5b80631d504dc6116104d75780631d504dc6146105995780631d7b33d7146105ac5780631ededc91146105cc57806321af4569146105e157806324008a621461060c57806324a3d6221461061f57600080fd5b80627e3dd21461051357806302c3bcbb1461053057806318c882a51461055e5780631c3db2e0146105715780631cd5acca14610586575b600080fd5b61051b600181565b60405190151581526020015b60405180910390f35b61055061053e3660046154a8565b60196020526000908152604090205481565b604051908152602001610527565b61051b61056c3660046154d3565b610e36565b61058461057f3660046155eb565b610fa4565b005b61051b6105943660046154a8565b611007565b6105846105a73660046154a8565b611147565b6105506105ba3660046154a8565b600f6020526000908152604090205481565b6105846105da36600461563b565b5050505050565b6017546105f4906001600160a01b031681565b6040516001600160a01b039091168152602001610527565b61055061061a366004615696565b61129d565b600a546105f4906001600160a01b031681565b6001546105f4906001600160a01b031681565b6105846106533660046156e7565b6113d4565b610550610666366004615713565b61149b565b61051b610679366004615757565b611838565b61055061068c366004615774565b611928565b61058461069f3660046154a8565b6119cf565b61051b6106b23660046154d3565b611a5a565b600a5461051b90600160a01b900460ff1681565b6105846106d936600461578d565b50505050565b43610550565b6105846106f33660046154d3565b611bac565b61058461070636600461581f565b611c31565b6105846107193660046158b9565b505050505050565b61055061072f3660046154a8565b60186020526000908152604090205481565b61055060065481565b61075d61075836600461578d565b611eaf565b60408051938452602084019290925290820152606001610527565b610550610786366004615927565b611eed565b610550610799366004615774565b6121cf565b60165461051b90600160a01b900460ff1681565b6105846107c036600461578d565b61222c565b6105f46107d3366004615774565b61227b565b6105506107e63660046154a8565b6122a5565b6105846107f93660046156e7565b61231e565b61058461080c366004615927565b505050565b61075d61081f3660046154a8565b6123e2565b6105506108323660046154a8565b61241f565b610550610845366004615968565b612498565b6105846108583660046159cc565b612658565b6105846106d9366004615696565b6105506108793660046154a8565b601d6020526000908152604090205481565b6108c36108993660046154a8565b6010602052600090815260409020546001600160e01b03811690600160e01b900463ffffffff1682565b604080516001600160e01b03909316835263ffffffff909116602083015201610527565b61051b6108f53660046154a8565b600c6020526000908152604090205460ff1681565b6105846105da366004615968565b61051b6109263660046154a8565b600b6020526000908152604090205460ff1681565b6105846109493660046154a8565b6128de565b61058461095c366004615a55565b61298a565b6016546105f4906001600160a01b031681565b6004546105f4906001600160a01b031681565b6105846109953660046154a8565b612a44565b6105506109a83660046154a8565b601e6020526000908152604090205481565b600a5461051b90600160b01b900460ff1681565b61051b6109dc3660046154a8565b60156020526000908152604090205460ff1681565b6108c36109ff3660046154a8565b6011602052600090815260409020546001600160e01b03811690600160e01b900463ffffffff1682565b610a84610a373660046154a8565b60096020526000908152604090208054600182015460028301546003840154600485015460069095015460ff94851695939492939192818116916101008104821691620100009091041688565b60408051981515895260208901979097529587019490945260608601929092526080850152151560a0840152151560c0830152151560e082015261010001610527565b61051b610ad5366004615757565b612acf565b61051b610ae8366004615a96565b6001600160a01b038082166000908152600960209081526040808320938616835260059093019052205460ff1692915050565b61051b610b293660046154a8565b612bb6565b61055060075481565b610550610b453660046154a8565b601a6020526000908152604090205481565b601f546105f4906001600160a01b031681565b6016546001600160a01b03166105f4565b610b906a0c097ce7bc90715b34b9f160241b81565b6040516001600160e01b039091168152602001610527565b610584610bb6366004615a96565b612c75565b610584610bc9366004615b1f565b612cc4565b610550600e5481565b610bea610be53660046154a8565b612dc9565b6040516105279190615ba7565b600a5461051b90600160b81b900460ff1681565b61055060205481565b610bea612e3f565b610550610c2a366004615a96565b601260209081526000928352604080842090915290825290205481565b610584612ea1565b6002546105f4906001600160a01b031681565b610550610c70366004615696565b612f10565b610584610c83366004615774565b612fa8565b610550610c963660046154a8565b601b6020526000908152604090205481565b610cbb610cb6366004615bf4565b612fd7565b6040516105279190615c29565b610cdb610cd6366004615927565b61309f565b60408051928352602083019190915201610527565b610550610cfe366004615a96565b601360209081526000928352604080842090915290825290205481565b610550610d293660046154a8565b60146020526000908152604090205481565b610550610d49366004615968565b6132bd565b610584610d5c3660046154a8565b61344e565b610550610d6f366004615927565b6134ca565b6105f4610d823660046156e7565b6139d3565b6003546105f4906001600160a01b031681565b610550610da8366004615a55565b613a0b565b600a5461051b90600160a81b900460ff1681565b61055060055481565b610584610dd83660046154a8565b613b7d565b610550610deb366004615927565b613be1565b610550610dfe3660046154a8565b613bfe565b610550610e113660046154a8565b601c6020526000908152604090205481565b6000546105f4906001600160a01b031681565b6001600160a01b03821660009081526009602052604081205460ff16610ea35760405162461bcd60e51b815260206004820152601960248201527f63616e6e6f74207061757365202d206e6f74206c69737465640000000000000060448201526064015b60405180910390fd5b600a546001600160a01b0316331480610ec657506000546001600160a01b031633145b610ee25760405162461bcd60e51b8152600401610e9a90615c61565b6000546001600160a01b0316331480610efd57506001821515145b610f195760405162461bcd60e51b8152600401610e9a90615c61565b6001600160a01b0383166000818152600c6020908152604091829020805460ff19168615159081179091558251938452606091840182905260069184019190915265426f72726f7760d01b6080840152908201527f71aec636243f9709bb0007ae15e9afb8150ab01716d75fd7573be5cc096e03b09060a0015b60405180910390a150805b92915050565b604080516001808252818301909252600091602080830190803683370190505090508281600081518110610fda57610fda615c89565b60200260200101906001600160a01b031690816001600160a01b03168152505061080c8183600180612658565b601f546000906001600160a01b03161561109857601f546040516370a0823160e01b81526001600160a01b03848116600483015260009216906370a0823190602401602060405180830381865afa158015611066573d6000803e3d6000fd5b505050506040513d601f19601f8201168201806040525081019061108a9190615c9f565b111561109857506001919050565b6001600160a01b03821660009081526015602052604090205460ff16156110c157506001919050565b6020546016546040516370a0823160e01b81526001600160a01b038581166004830152909116906370a0823190602401602060405180830381865afa15801561110e573d6000803e3d6000fd5b505050506040513d601f19601f820116820180604052508101906111329190615c9f565b1061113f57506001919050565b506000919050565b806001600160a01b031663f851a4406040518163ffffffff1660e01b8152600401602060405180830381865afa158015611185573d6000803e3d6000fd5b505050506040513d601f19601f820116820180604052508101906111a99190615cb8565b6001600160a01b0316336001600160a01b0316146112195760405162461bcd60e51b815260206004820152602760248201527f6f6e6c7920756e6974726f6c6c65722061646d696e2063616e206368616e676560448201526620627261696e7360c81b6064820152608401610e9a565b806001600160a01b031663c1e803346040518163ffffffff1660e01b81526004016020604051808303816000875af1158015611259573d6000803e3d6000fd5b505050506040513d601f19601f8201168201806040525081019061127d9190615c9f565b1561129a5760405162461bcd60e51b8152600401610e9a90615c61565b50565b6001600160a01b03841660009081526009602052604081205460ff166112c75760095b90506113cc565b6000859050806001600160a01b031663842e11eb6040518163ffffffff1660e01b8152600401602060405180830381865afa15801561130a573d6000803e3d6000fd5b505050506040513d601f19601f8201168201806040525081019061132e9190615ceb565b1561133d5760129150506113cc565b60006040518060200160405280886001600160a01b031663aa5af0fd6040518163ffffffff1660e01b8152600401602060405180830381865afa158015611388573d6000803e3d6000fd5b505050506040513d601f19601f820116820180604052508101906113ac9190615c9f565b905290506113ba8782613f5a565b6113c587868361414d565b6000925050505b949350505050565b6113dc6142cd565b6113f85760405162461bcd60e51b8152600401610e9a90615c61565b600061140483836142f6565b905080156114545760405162461bcd60e51b815260206004820152601b60248201527f696e73756666696369656e7420636f6d7020666f72206772616e7400000000006044820152606401610e9a565b604080516001600160a01b0385168152602081018490527f98b2f82a3a07f223a0be64b3d0f47711c64dccd1feafb94aa28156b38cd9695c910160405180910390a1505050565b600080546001600160a01b031633146114c1576114ba60016006614418565b905061182f565b838511156115265760405162461bcd60e51b815260206004820152602c60248201527f636f6c6c61746572616c20666163746f722063616e6e6f74206265206772656160448201526b0746572207468616e207669760a41b6064820152608401610e9a565b8183111561158f5760405162461bcd60e51b815260206004820152603060248201527f6c69717569646174696f6e207468726573686f6c642063616e6e6f742062652060448201526f067726561746572207468616e207669760841b6064820152608401610e9a565b818411156116055760405162461bcd60e51b815260206004820152603a60248201527f436f6c6c61746572616c20666163746f72206d757374206265206c6f7765722060448201527f7468616e206c69717569646174696f6e207468726573686f6c640000000000006064820152608401610e9a565b6001600160a01b0386166000908152600960205260409020805460ff1661163a5761163260096007614418565b91505061182f565b60408051602080820183528682528251908101909252670d99a8cec7e2000082529061166881835190511090565b156116835761167960066008614418565b935050505061182f565b6004805460405163fc57d4df60e01b81526001600160a01b038c81169382019390935291169063fc57d4df90602401602060405180830381865afa1580156116cf573d6000803e3d6000fd5b505050506040513d601f19601f820116820180604052508101906116f39190615c9f565b61170357611679600d6009614418565b61172e6040518060800160405280600081526020016000815260200160008152602001600081525090565b83600101548160000181815250508884600101819055508360030154816020018181525050878460030181905550836002015481604001818152505086846002018190555083600401548160600181815250508584600401819055507f5721ae0c715b94fc57a23408410a4304519816387f7923072be7156ac236a0128a82600001518b84602001518c86604001518d88606001518e60405161181e999897969594939291906001600160a01b03999099168952602089019790975260408801959095526060870193909352608086019190915260a085015260c084015260e08301526101008201526101200190565b60405180910390a160009450505050505b95945050505050565b600a546000906001600160a01b031633148061185e57506000546001600160a01b031633145b61187a5760405162461bcd60e51b8152600401610e9a90615c61565b6000546001600160a01b031633148061189557506001821515145b6118b15760405162461bcd60e51b8152600401610e9a90615c61565b600a8054831515600160b81b0260ff60b81b199091161790556040517fef159d9a32b2472e32b098f954f3ce62d232939f1c207070b584df1814de2de09061191c9084906040808252600590820152645365697a6560d81b6060820152901515602082015260800190565b60405180910390a15090565b600080546001600160a01b031633146119835760405162461bcd60e51b815260206004820152601f60248201527f6f6e6c792061646d696e2063616e2073657420636c6f736520666163746f72006044820152606401610e9a565b600580549083905560408051828152602081018590527f3b9670cf975d26958e754b57098eaa2ac914d8d2a31b83257997b9f346110fd991015b60405180910390a160005b9392505050565b6000546001600160a01b031633146119f95760405162461bcd60e51b8152600401610e9a90615c61565b601780546001600160a01b038381166001600160a01b031983168117909355604080519190921680825260208201939093527feda98690e518e9a05f8ec6837663e188211b2da8f4906648b323f2c1d4434e29910160405180910390a15050565b6001600160a01b03821660009081526009602052604081205460ff16611aba5760405162461bcd60e51b815260206004820152601560248201527418d85b9b9bdd081c185d5cd9480b481b1a5cdd1959605a1b6044820152606401610e9a565b600a546001600160a01b0316331480611add57506000546001600160a01b031633145b611af95760405162461bcd60e51b8152600401610e9a90615c61565b6000546001600160a01b0316331480611b1457506001821515145b611b305760405162461bcd60e51b8152600401610e9a90615c61565b6001600160a01b0383166000818152600b6020908152604091829020805460ff19168615159081179091558251938452606091840182905260049184019190915263135a5b9d60e21b6080840152908201527f71aec636243f9709bb0007ae15e9afb8150ab01716d75fd7573be5cc096e03b09060a001610f93565b6000546001600160a01b03163314611c065760405162461bcd60e51b815260206004820152601e60248201527f6f6e6c792061646d696e2063616e2077686974656c69737420757365727300006044820152606401610e9a565b6001600160a01b03919091166000908152601560205260409020805460ff1916911515919091179055565b6000546001600160a01b0316331480611c5457506017546001600160a01b031633145b611c705760405162461bcd60e51b8152600401610e9a90615c61565b8483828215801590611c8157508183145b8015611c8c57508082145b611cc85760405162461bcd60e51b815260206004820152600d60248201526c1a5b9d985b1a59081a5b9c1d5d609a1b6044820152606401610e9a565b60005b83811015611ea357878782818110611ce557611ce5615c89565b90506020020135601860008c8c85818110611d0257611d02615c89565b9050602002016020810190611d1791906154a8565b6001600160a01b03168152602081019190915260400160002055858582818110611d4357611d43615c89565b90506020020135601960008c8c85818110611d6057611d60615c89565b9050602002016020810190611d7591906154a8565b6001600160a01b03168152602081019190915260400160002055898982818110611da157611da1615c89565b9050602002016020810190611db691906154a8565b6001600160a01b03167f6f1951b2aad10f3fc81b86d91105b413a5b3f847a34bbc5ce1904201b14438f6898984818110611df257611df2615c89565b90506020020135604051611e0891815260200190565b60405180910390a2898982818110611e2257611e22615c89565b9050602002016020810190611e3791906154a8565b6001600160a01b03167f9e0ad9cee10bdf36b7fbd38910c0bdff0f275ace679b45b922381c2723d676f8878784818110611e7357611e73615c89565b90506020020135604051611e8991815260200190565b60405180910390a280611e9b81615d1e565b915050611ccb565b50505050505050505050565b600080600080600080611ec68a8a8a8a6000614491565b925092509250826012811115611ede57611ede615cd5565b9a919950975095505050505050565b6001600160a01b0383166000908152600b602052604081205460ff1615611f445760405162461bcd60e51b815260206004820152600b60248201526a1b5a5b9d081c185d5cd95960aa1b6044820152606401610e9a565b6001600160a01b03841660009081526009602052604090205460ff16611f6e5760095b90506119c8565b6001600160a01b0384166000908152601960205260409020548015612120576000856001600160a01b0316638f840ddd6040518163ffffffff1660e01b8152600401602060405180830381865afa158015611fcd573d6000803e3d6000fd5b505050506040513d601f19601f82011682018060405250810190611ff19190615c9f565b866001600160a01b0316633b1d21a26040518163ffffffff1660e01b8152600401602060405180830381865afa15801561202f573d6000803e3d6000fd5b505050506040513d601f19601f820116820180604052508101906120539190615c9f565b876001600160a01b03166347bd37186040518163ffffffff1660e01b8152600401602060405180830381865afa158015612091573d6000803e3d6000fd5b505050506040513d601f19601f820116820180604052508101906120b59190615c9f565b6120bf9190615d39565b6120c99190615d39565b905060006120d78286614881565b905082811061211d5760405162461bcd60e51b81526020600482015260126024820152711cdd5c1c1b1e4818d85c081c995858da195960721b6044820152606401610e9a565b50505b6001600160a01b038516600090815260096020526040902060060154610100900460ff16156121b1576001600160a01b03841660009081526015602052604090205460ff166121b15760405162461bcd60e51b815260206004820181905260248201527f74686973206d61726b65742069732063757272656e746c7920707269766174656044820152606401610e9a565b6121ba8561488d565b6121c48585614a05565b600095945050505050565b600080546001600160a01b031633146121ee57610f9e6001600b614418565b600680549083905560408051828152602081018590527faeba5a6c40a8ac138134bff1aaa65debf25971188a58804bad717f82f0ec131691016119bd565b8015801561223a5750600082115b156106d95760405162461bcd60e51b815260206004820152601160248201527072656465656d546f6b656e73207a65726f60781b6044820152606401610e9a565b600d818154811061228b57600080fd5b6000918252602090912001546001600160a01b0316905081565b600080546001600160a01b031633146122c457610f9e60016010614418565b600480546001600160a01b038481166001600160a01b031983168117909355604080519190921680825260208201939093527fd52b2b9b7e9ee655fcb95d2e5b9e0c9f69e7ef2b8e9d2d0ea78402d576d22e2291016119bd565b6123266142cd565b6123425760405162461bcd60e51b8152600401610e9a90615c61565b61234b826128de565b8061236e576001600160a01b0382166000908152601b6020526040812055612389565b436001600160a01b0383166000908152601b60205260409020555b6001600160a01b0382166000818152601a602052604090819020839055517f386537fa92edc3319af95f1f904dcf1900021e4f3f4e08169a577a09076e66b3906123d69084815260200190565b60405180910390a25050565b6000806000806000806123fb8760008060006001614491565b92509250925082601281111561241357612413615cd5565b97919650945092505050565b600080546001600160a01b0316331461243e57610f9e60016013614418565b600a80546001600160a01b038481166001600160a01b031983168117909355604080519190921680825260208201939093527f0613b6ee6a04f0d09f390e4d9318894b9f6ac7fd83897cd8d18896ba579c401e91016119bd565b6001600160a01b03851660009081526009602052604081205460ff1615806124d957506001600160a01b03851660009081526009602052604090205460ff16155b156124e55760096114ba565b6040516395dd919360e01b81526001600160a01b038481166004830152600091908816906395dd919390602401602060405180830381865afa15801561252f573d6000803e3d6000fd5b505050506040513d601f19601f820116820180604052508101906125539190615c9f565b905061255e87612bb6565b156125c957828110156125c45760405162461bcd60e51b815260206004820152602860248201527f43616e206e6f74207265706179206d6f7265207468616e2074686520746f74616044820152676c20626f72726f7760c01b6064820152608401610e9a565b61264b565b6000806125d586614ba3565b919350909150600090508260128111156125f1576125f1615cd5565b146126085781601281111561167957611679615cd5565b80612614576003611679565b6000612630604051806020016040528060055481525085614bc5565b90508086111561264757601194505050505061182f565b5050505b6000979650505050505050565b60005b835181101561281b57600084828151811061267857612678615c89565b6020908102919091018101516001600160a01b0381166000908152600990925260409091205490915060ff166126e45760405162461bcd60e51b81526020600482015260116024820152701b585c9ad95d081b9bdd081b1a5cdd1959607a1b6044820152606401610e9a565b600184151514156127b15760006040518060200160405280836001600160a01b031663aa5af0fd6040518163ffffffff1660e01b8152600401602060405180830381865afa15801561273a573d6000803e3d6000fd5b505050506040513d601f19601f8201168201806040525081019061275e9190615c9f565b9052905061276c8282613f5a565b60005b87518110156127ae5761279c8389838151811061278e5761278e615c89565b60200260200101518461414d565b806127a681615d1e565b91505061276f565b50505b60018315151415612808576127c58161488d565b60005b8651811015612806576127f4828883815181106127e7576127e7615c89565b6020026020010151614a05565b806127fe81615d1e565b9150506127c8565b505b508061281381615d1e565b91505061265b565b5060005b84518110156105da5761288985828151811061283d5761283d615c89565b60200260200101516014600088858151811061285b5761285b615c89565b60200260200101516001600160a01b03166001600160a01b03168152602001908152602001600020546142f6565b6014600087848151811061289f5761289f615c89565b60200260200101516001600160a01b03166001600160a01b031681526020019081526020016000208190555080806128d690615d1e565b91505061281f565b6001600160a01b0381166000908152601a6020908152604080832054601b90925282205490914391612911908390614bdd565b90506000811180156129235750600083115b156106d95760006129348285614be9565b6001600160a01b0386166000908152601460205260408120549192509061295b9083614881565b6001600160a01b038716600090815260146020908152604080832093909355601b905220849055505050505050565b6000546001600160a01b031633146129f05760405162461bcd60e51b8152602060048201526024808201527f6f6e6c792061646d696e2063616e20736574206d61726b657420746f207072696044820152637661746560e01b6064820152608401610e9a565b6001600160a01b03939093166000908152600960205260409020600601805462ffff0019166101009315159390930262ff000019169290921762010000911515919091021760ff1916911515919091179055565b6000546001600160a01b03163314612a9e5760405162461bcd60e51b815260206004820152601e60248201527f6f6e6c792061646d696e2063616e2073657420636f6d704164647265737300006044820152606401610e9a565b601654600160a01b900460ff1661129a57601680546001600160a01b0383166001600160a01b031990911617905550565b600a546000906001600160a01b0316331480612af557506000546001600160a01b031633145b612b115760405162461bcd60e51b8152600401610e9a90615c61565b6000546001600160a01b0316331480612b2c57506001821515145b612b485760405162461bcd60e51b8152600401610e9a90615c61565b600a8054831515600160b01b0260ff60b01b199091161790556040517fef159d9a32b2472e32b098f954f3ce62d232939f1c207070b584df1814de2de09061191c9084906040808252600890820152672a3930b739b332b960c11b6060820152901515602082015260800190565b6001600160a01b038116600090815260096020526040812060010154158015612bfc57506001600160a01b0382166000908152600c602052604090205460ff1615156001145b8015610f9e5750816001600160a01b031663173b99046040518163ffffffff1660e01b8152600401602060405180830381865afa158015612c41573d6000803e3d6000fd5b505050506040513d601f19601f82011682018060405250810190612c659190615c9f565b670de0b6b3a76400001492915050565b336001600160a01b03831614612cba5760405162461bcd60e51b815260206004820152600a6024820152693737ba1031aa37b5b2b760b11b6044820152606401610e9a565b61080c8282614bf5565b612ccc6142cd565b612ce85760405162461bcd60e51b8152600401610e9a90615c61565b8251825181148015612cfa5750815181145b612d585760405162461bcd60e51b815260206004820152602960248201527f436f6d7074726f6c6c65723a3a5f736574436f6d7053706565647320696e76616044820152681b1a59081a5b9c1d5d60ba1b6064820152608401610e9a565b60005b818110156105da57612db9858281518110612d7857612d78615c89565b6020026020010151858381518110612d9257612d92615c89565b6020026020010151858481518110612dac57612dac615c89565b6020026020010151614d58565b612dc281615d1e565b9050612d5b565b6001600160a01b0381166000908152600860209081526040808320805482518185028101850190935280835260609493830182828015612e3257602002820191906000526020600020905b81546001600160a01b03168152600190910190602001808311612e14575b5093979650505050505050565b6060600d805480602002602001604051908101604052809291908181526020018280548015612e9757602002820191906000526020600020905b81546001600160a01b03168152600190910190602001808311612e79575b5050505050905090565b6000546001600160a01b03163314612efb5760405162461bcd60e51b815260206004820152601e60248201527f6f6e6c792061646d696e2063616e2073657420636f6d704164647265737300006044820152606401610e9a565b6016805460ff60a01b1916600160a01b179055565b600a54600090600160b01b900460ff1615612f625760405162461bcd60e51b81526020600482015260126024820152711d1c985b9cd9995c881a5cc81c185d5cd95960721b6044820152606401610e9a565b6000612f6f868685614f30565b90508015612f7e5790506113cc565b612f878661488d565b612f918686614a05565b612f9b8685614a05565b60005b9695505050505050565b6000546001600160a01b03163314612fd25760405162461bcd60e51b8152600401610e9a90615c61565b602055565b805160609060008167ffffffffffffffff811115612ff757612ff761550c565b604051908082528060200260200182016040528015613020578160200160208202803683370190505b50905060005b8281101561309757600085828151811061304257613042615c89565b602002602001015190506130568133614bf5565b601281111561306757613067615cd5565b83838151811061307957613079615c89565b6020908102919091010152508061308f81615d1e565b915050613026565b509392505050565b6004805460405163fc57d4df60e01b81526001600160a01b03868116938201939093526000928392839291169063fc57d4df90602401602060405180830381865afa1580156130f2573d6000803e3d6000fd5b505050506040513d601f19601f820116820180604052508101906131169190615c9f565b6004805460405163fc57d4df60e01b81526001600160a01b038981169382019390935292935060009291169063fc57d4df90602401602060405180830381865afa158015613168573d6000803e3d6000fd5b505050506040513d601f19601f8201168201806040525081019061318c9190615c9f565b9050811580613199575080155b156131ad57600d60009350935050506132b5565b6000866001600160a01b031663182df0f56040518163ffffffff1660e01b8152600401602060405180830381865afa1580156131ed573d6000803e3d6000fd5b505050506040513d601f19601f820116820180604052508101906132119190615c9f565b9050600061322b6040518060200160405280600081525090565b60408051602080820183526000808352835180830185529081528351808301855260065481528451928301909452888252919261326791614fe0565b925061328f604051806020016040528088815250604051806020016040528088815250614fe0565b915061329b8383615028565b90506132a7818b614bc5565b600099509750505050505050505b935093915050565b600a54600090600160b81b900460ff161561330c5760405162461bcd60e51b815260206004820152600f60248201526e1cd95a5e99481a5cc81c185d5cd959608a1b6044820152606401610e9a565b6001600160a01b03861660009081526009602052604090205460ff16158061334d57506001600160a01b03851660009081526009602052604090205460ff16155b156133595760096114ba565b846001600160a01b0316635fe3b5676040518163ffffffff1660e01b8152600401602060405180830381865afa158015613397573d6000803e3d6000fd5b505050506040513d601f19601f820116820180604052508101906133bb9190615cb8565b6001600160a01b0316866001600160a01b0316635fe3b5676040518163ffffffff1660e01b8152600401602060405180830381865afa158015613402573d6000803e3d6000fd5b505050506040513d601f19601f820116820180604052508101906134269190615cb8565b6001600160a01b03161461343b5760026114ba565b6134448661488d565b612f918684614a05565b6000546001600160a01b031633146134a85760405162461bcd60e51b815260206004820152601a60248201527f6f6e6c792061646d696e2063616e2073657420566970204e46540000000000006044820152606401610e9a565b601f80546001600160a01b0319166001600160a01b0392909216919091179055565b6001600160a01b0383166000908152600c602052604081205460ff16156135265760405162461bcd60e51b815260206004820152601060248201526f189bdc9c9bddc81a5cc81c185d5cd95960821b6044820152606401610e9a565b6001600160a01b03841660009081526009602052604090205460ff1661354d576009611f67565b6000849050806001600160a01b031663842e11eb6040518163ffffffff1660e01b8152600401602060405180830381865afa158015613590573d6000803e3d6000fd5b505050506040513d601f19601f820116820180604052508101906135b49190615ceb565b156135c45760125b9150506119c8565b6001600160a01b038516600090815260096020526040902060060154610100900460ff168061361457506001600160a01b03851660009081526009602052604090206006015462010000900460ff165b15613681576001600160a01b03841660009081526015602052604090205460ff166136815760405162461bcd60e51b815260206004820181905260248201527f74686973206d61726b65742069732063757272656e746c7920707269766174656044820152606401610e9a565b6001600160a01b038086166000908152600960209081526040808320938816835260059093019052205460ff1661377f57336001600160a01b038616146137025760405162461bcd60e51b815260206004820152601560248201527439b2b73232b91036bab9ba1031329031aa37b5b2b760591b6044820152606401610e9a565b600061370e3386614bf5565b9050600081601281111561372457613724615cd5565b146137445780601281111561373b5761373b615cd5565b925050506119c8565b6001600160a01b038087166000908152600960209081526040808320938916835260059093019052205460ff1661377d5761377d615d51565b505b6004805460405163fc57d4df60e01b81526001600160a01b038881169382019390935291169063fc57d4df90602401602060405180830381865afa1580156137cb573d6000803e3d6000fd5b505050506040513d601f19601f820116820180604052508101906137ef9190615c9f565b6137fa57600d6135bc565b6001600160a01b03851660009081526018602052604090205480156138df576000866001600160a01b03166347bd37186040518163ffffffff1660e01b8152600401602060405180830381865afa158015613859573d6000803e3d6000fd5b505050506040513d601f19601f8201168201806040525081019061387d9190615c9f565b9050600061388b8287614881565b90508281106138dc5760405162461bcd60e51b815260206004820152601960248201527f6d61726b657420626f72726f77206361702072656163686564000000000000006044820152606401610e9a565b50505b6000806138f187896000896000614491565b9193509091506000905082601281111561390d5761390d615cd5565b1461392f5781601281111561392457613924615cd5565b9450505050506119c8565b801561393c576004613924565b600060405180602001604052808a6001600160a01b031663aa5af0fd6040518163ffffffff1660e01b8152600401602060405180830381865afa158015613987573d6000803e3d6000fd5b505050506040513d601f19601f820116820180604052508101906139ab9190615c9f565b905290506139b98982613f5a565b6139c489898361414d565b60009998505050505050505050565b600860205281600052604060002081815481106139ef57600080fd5b6000918252602090912001546001600160a01b03169150829050565b600080546001600160a01b03163314613a2a576112c060016012614418565b6001600160a01b03851660009081526009602052604090205460ff1615613a57576112c0600a6011614418565b846001600160a01b031663fe9c44ae6040518163ffffffff1660e01b8152600401602060405180830381865afa158015613a95573d6000803e3d6000fd5b505050506040513d601f19601f82011682018060405250810190613ab99190615ceb565b506001600160a01b03851660009081526009602052604081208054600160ff199091168117825560068201805461ffff191688151561ff00191617610100881515021762ff000019166201000087151502179055810182905560028101829055600381018290556004810191909155613b3186615062565b613b3a8661514b565b6040516001600160a01b03871681527fcf583bb0c569eb967f806b11601c4cb93c10310485c67add5f8362c2f212321f9060200160405180910390a16000612f9e565b61129a81600d805480602002602001604051908101604052809291908181526020018280548015613bd757602002820191906000526020600020905b81546001600160a01b03168152600190910190602001808311613bb9575b5050505050610fa4565b600080613bef858585614f30565b905080156121b15790506119c8565b6040516361bfb47160e11b815233600482015260009082908290819081906001600160a01b0385169063c37f68e290602401608060405180830381865afa158015613c4d573d6000803e3d6000fd5b505050506040513d601f19601f82011682018060405250810190613c719190615d67565b5092509250925082600014613cd65760405162461bcd60e51b815260206004820152602560248201527f657869744d61726b65743a206765744163636f756e74536e617073686f742066604482015264185a5b195960da1b6064820152608401610e9a565b8015613ce857612f9e600c6002614418565b6000613cf5873385614f30565b90508015613d1557613d0a600e600383615207565b979650505050505050565b6001600160a01b0385166000908152600960209081526040808320338452600581019092529091205460ff16613d5357600098975050505050505050565b3360009081526005820160209081526040808320805460ff191690556008825280832080548251818502810185019093528083529192909190830182828015613dc557602002820191906000526020600020905b81546001600160a01b03168152600190910190602001808311613da7575b5050835193945083925060009150505b82811015613e2a57896001600160a01b0316848281518110613df957613df9615c89565b60200260200101516001600160a01b03161415613e1857809150613e2a565b80613e2281615d1e565b915050613dd5565b50818110613e3a57613e3a615d51565b33600090815260086020526040902080548190613e5990600190615d9d565b81548110613e6957613e69615c89565b9060005260206000200160009054906101000a90046001600160a01b0316818381548110613e9957613e99615c89565b9060005260206000200160006101000a8154816001600160a01b0302191690836001600160a01b0316021790555080805480613ed757613ed7615db4565b600082815260209020810160001990810180546001600160a01b03191690550190556040517fe699a64c18b07ac5b7301aa273f36a2287239eb9501d81950672794afba29a0d90613f40908c9033906001600160a01b0392831681529116602082015260400190565b60405180910390a160009c9b505050505050505050505050565b6001600160a01b0382166000908152601160209081526040808320601c9092528220549091613fbf435b6040518060400160405280601c81526020017f626c6f636b206e756d626572206578636565647320333220626974730000000081525061527f565b8354909150600090613fe19063ffffffff80851691600160e01b900416614bdd565b9050600081118015613ff35750600083115b15614122576000614065876001600160a01b03166347bd37186040518163ffffffff1660e01b8152600401602060405180830381865afa15801561403b573d6000803e3d6000fd5b505050506040513d601f19601f8201168201806040525081019061405f9190615c9f565b876152af565b905060006140738386614be9565b90506000808311614093576040518060200160405280600081525061409d565b61409d82846152cd565b604080516020810190915288546001600160e01b03168152909150614100906140c69083615308565b5160408051808201909152601a81527f6e657720696e64657820657863656564732032323420626974730000000000006020820152615334565b6001600160e01b0316600160e01b63ffffffff87160217875550610719915050565b801561071957835463ffffffff8316600160e01b026001600160e01b03909116178455505050505050565b6001600160a01b03838116600090815260116020908152604080832080546013845282852095881685529490925290912080546001600160e01b03909316908190559091801580156141ad57506a0c097ce7bc90715b34b9f160241b8210155b156141c357506a0c097ce7bc90715b34b9f160241b5b600060405180602001604052806141da8585614bdd565b90526040516395dd919360e01b81526001600160a01b03888116600483015291925060009161422d91908a16906395dd919390602401602060405180830381865afa15801561403b573d6000803e3d6000fd5b9050600061423b828461535b565b6001600160a01b038916600090815260146020526040812054919250906142629083614881565b6001600160a01b038a811660008181526014602090815260409182902085905581518781529081018b90529394509092918d16917f1fc3ecc087d8d2d15e23d0032af5a47059c3892d003d8e139fdcb6bb327c99a6910160405180910390a350505050505050505050565b600080546001600160a01b03163314806142f157506002546001600160a01b031633145b905090565b60008061430b6016546001600160a01b031690565b6040516370a0823160e01b81523060048201529091506000906001600160a01b038316906370a0823190602401602060405180830381865afa158015614355573d6000803e3d6000fd5b505050506040513d601f19601f820116820180604052508101906143799190615c9f565b905060008411801561438b5750808411155b1561440f5760405163a9059cbb60e01b81526001600160a01b0386811660048301526024820186905283169063a9059cbb906044016020604051808303816000875af11580156143df573d6000803e3d6000fd5b505050506040513d601f19601f820116820180604052508101906144039190615ceb565b50600092505050610f9e565b50919392505050565b60007f45b96fe442630264581b197e84bbada861235052c5a1aadfff9ea4e40a969aa083601281111561444d5761444d615cd5565b83601381111561445f5761445f615cd5565b60408051928352602083019190915260009082015260600160405180910390a18260128111156119c8576119c8615cd5565b600080600061449e6153f1565b6001600160a01b03891660009081526008602090815260408083208054825181850281018501909352808352849383018282801561450557602002820191906000526020600020905b81546001600160a01b031681526001909101906020018083116144e7575b5050505050905060005b815181101561482457600082828151811061452c5761452c615c89565b60209081029190910101516040516361bfb47160e11b81526001600160a01b038f811660048301529192509082169063c37f68e290602401608060405180830381865afa158015614581573d6000803e3d6000fd5b505050506040513d601f19601f820116820180604052508101906145a59190615d67565b608089015260608801526040870152935083156145d157600f6000809750975097505050505050614876565b88614645576145df8d611007565b6146115760408051602080820183526001600160a01b038416600090815260099091529190912060010154815261463b565b60408051602080820183526001600160a01b03841660009081526009909152919091206003015481525b60c08601526146b0565b61464e8d611007565b6146805760408051602080820183526001600160a01b03841660009081526009909152919091206002015481526146aa565b60408051602080820183526001600160a01b03841660009081526009909152919091206004015481525b60c08601525b604080516020810182526080870151815260e087015260048054915163fc57d4df60e01b81526001600160a01b038481169282019290925291169063fc57d4df90602401602060405180830381865afa158015614711573d6000803e3d6000fd5b505050506040513d601f19601f820116820180604052508101906147359190615c9f565b60a0860181905261475557600d6000809750975097505050505050614876565b604080516020810190915260a0860151815261010086015260c085015160e086015161478f9161478491614fe0565b866101000151614fe0565b6101208601819052604086015186516147a9929190615384565b8552610100850151606086015160208701516147c6929190615384565b60208601526001600160a01b03818116908d161415614811576147f38561012001518c8760200151615384565b6020860181905261010086015161480b918c90615384565b60208601525b508061481c81615d1e565b91505061450f565b50602083015183511115614855576020830151835160009161484591615d9d565b6000955095509550505050614876565b6000808460000151856020015161486c9190615d9d565b9550955095505050505b955095509592505050565b60006119c88284615d39565b6001600160a01b0381166000908152601060209081526040808320601d90925282205490916148bb43613f84565b83549091506000906148dd9063ffffffff80851691600160e01b900416614bdd565b90506000811180156148ef5750600083115b156149db576000856001600160a01b03166318160ddd6040518163ffffffff1660e01b8152600401602060405180830381865afa158015614934573d6000803e3d6000fd5b505050506040513d601f19601f820116820180604052508101906149589190615c9f565b905060006149668386614be9565b905060008083116149865760405180602001604052806000815250614990565b61499082846152cd565b604080516020810190915288546001600160e01b031681529091506149b9906140c69083615308565b6001600160e01b0316600160e01b63ffffffff871602178755506105da915050565b80156105da57835463ffffffff8316600160e01b026001600160e01b039091161784555050505050565b6001600160a01b03828116600090815260106020908152604080832080546012845282852095871685529490925290912080546001600160e01b0390931690819055909180158015614a6557506a0c097ce7bc90715b34b9f160241b8210155b15614a7b57506a0c097ce7bc90715b34b9f160241b5b60006040518060200160405280614a928585614bdd565b90526040516370a0823160e01b81526001600160a01b0387811660048301529192506000918816906370a0823190602401602060405180830381865afa158015614ae0573d6000803e3d6000fd5b505050506040513d601f19601f82011682018060405250810190614b049190615c9f565b90506000614b12828461535b565b6001600160a01b03881660009081526014602052604081205491925090614b399083614881565b6001600160a01b0389811660008181526014602090815260409182902085905581518781529081018b90529394509092918c16917f2caecd17d02f56fa897705dcc740da2d237c373f70686f4e0d9bd3bf0400ea7a910160405180910390a3505050505050505050565b6000806000614bb88460008060006001614491565b9250925092509193909250565b600080614bd284846153a5565b90506113cc816153cd565b60006119c88284615d9d565b60006119c88284615dca565b6001600160a01b0382166000908152600960205260408120805460ff16614c20576009915050610f9e565b6006810154610100900460ff1615614c8e576001600160a01b03831660009081526015602052604090205460ff16614c8e5760405162461bcd60e51b81526020600482015260116024820152706d61726b6574206973207072697661746560781b6044820152606401610e9a565b6001600160a01b038316600090815260058201602052604090205460ff16151560011415614cc0576000915050610f9e565b6001600160a01b03838116600081815260058401602090815260408083208054600160ff199091168117909155600883528184208054918201815584529282902090920180546001600160a01b031916948916948517905581519384528301919091527f3ab23ab0d51cccc0c3085aec51f99228625aa1a922b3a8ca89a26b0f2027a1a5910160405180910390a15060009392505050565b6001600160a01b0383166000908152600960205260409020805460ff16614dba5760405162461bcd60e51b815260206004820152601660248201527518dbdb5c081b585c9ad95d081b9bdd081b1a5cdd195960521b6044820152606401610e9a565b6001600160a01b0384166000908152601d60205260409020548314614e3857614de28461488d565b6001600160a01b0384166000818152601d602052604090819020859055517fdeafccd0c0b768b2529f7dcbbe58e155d6023059150b7490ed4535cc3744b92d90614e2f9086815260200190565b60405180910390a25b6001600160a01b0384166000908152601c602052604090205482146106d95760006040518060200160405280866001600160a01b031663aa5af0fd6040518163ffffffff1660e01b8152600401602060405180830381865afa158015614ea2573d6000803e3d6000fd5b505050506040513d601f19601f82011682018060405250810190614ec69190615c9f565b90529050614ed48582613f5a565b6001600160a01b0385166000818152601c602052604090819020859055517f20af8e791cc98f74b2d7a391c80980ca8e5aebf3d4060bf581997b6acae2e53790614f219086815260200190565b60405180910390a25050505050565b6001600160a01b03831660009081526009602052604081205460ff16614f57576009611f67565b6001600160a01b038085166000908152600960209081526040808320938716835260059093019052205460ff16614f8f576000611f67565b600080614fa0858786600080614491565b91935090915060009050826012811115614fbc57614fbc615cd5565b14614fd35781601281111561373b5761373b615cd5565b8015612f9b57600461373b565b6040805160208101909152600081526040518060200160405280670de0b6b3a764000061501586600001518660000151614be9565b61501f9190615de9565b90529392505050565b604080516020810190915260008152604051806020016040528061501f61505b8660000151670de0b6b3a7640000614be9565b85516153e5565b60005b600d548110156150f857816001600160a01b0316600d828154811061508c5761508c615c89565b6000918252602090912001546001600160a01b031614156150e65760405162461bcd60e51b81526020600482015260146024820152731b585c9ad95d08185b1c9958591e48185919195960621b6044820152606401610e9a565b806150f081615d1e565b915050615065565b50600d80546001810182556000919091527fd7b6990105719101dabeb77144f2a3385c8033acd3af97e9423a695e81ad1eb50180546001600160a01b0319166001600160a01b0392909216919091179055565b600061515643613f84565b6001600160a01b03831660009081526010602090815260408083206011909252909120815492935090916001600160e01b03166151ac5781546001600160e01b0319166a0c097ce7bc90715b34b9f160241b1782555b80546001600160e01b03166151da5780546001600160e01b0319166a0c097ce7bc90715b34b9f160241b1781555b805463ffffffff909316600160e01b026001600160e01b0393841681179091558154909216909117905550565b60007f45b96fe442630264581b197e84bbada861235052c5a1aadfff9ea4e40a969aa084601281111561523c5761523c615cd5565b84601381111561524e5761524e615cd5565b604080519283526020830191909152810184905260600160405180910390a18360128111156113cc576113cc615cd5565b60008164010000000084106152a75760405162461bcd60e51b8152600401610e9a9190615e0b565b509192915050565b60006119c86152c684670de0b6b3a7640000614be9565b83516153e5565b604080516020810190915260008152604051806020016040528061501f615302866a0c097ce7bc90715b34b9f160241b614be9565b856153e5565b604080516020810190915260008152604051806020016040528061501f85600001518560000151614881565b600081600160e01b84106152a75760405162461bcd60e51b8152600401610e9a9190615e0b565b60006a0c097ce7bc90715b34b9f160241b61537a848460000151614be9565b6119c89190615de9565b60008061539185856153a5565b905061182f61539f826153cd565b84614881565b604080516020810190915260008152604051806020016040528061501f856000015185614be9565b8051600090610f9e90670de0b6b3a764000090615de9565b60006119c88284615de9565b60405180610140016040528060008152602001600081526020016000815260200160008152602001600081526020016000815260200161543d6040518060200160405280600081525090565b81526020016154586040518060200160405280600081525090565b81526020016154736040518060200160405280600081525090565b815260200161548e6040518060200160405280600081525090565b905290565b6001600160a01b038116811461129a57600080fd5b6000602082840312156154ba57600080fd5b81356119c881615493565b801515811461129a57600080fd5b600080604083850312156154e657600080fd5b82356154f181615493565b91506020830135615501816154c5565b809150509250929050565b634e487b7160e01b600052604160045260246000fd5b604051601f8201601f1916810167ffffffffffffffff8111828210171561554b5761554b61550c565b604052919050565b600067ffffffffffffffff82111561556d5761556d61550c565b5060051b60200190565b600082601f83011261558857600080fd5b8135602061559d61559883615553565b615522565b82815260059290921b840181019181810190868411156155bc57600080fd5b8286015b848110156155e05780356155d381615493565b83529183019183016155c0565b509695505050505050565b600080604083850312156155fe57600080fd5b823561560981615493565b9150602083013567ffffffffffffffff81111561562557600080fd5b61563185828601615577565b9150509250929050565b600080600080600060a0868803121561565357600080fd5b853561565e81615493565b9450602086013561566e81615493565b9350604086013561567e81615493565b94979396509394606081013594506080013592915050565b600080600080608085870312156156ac57600080fd5b84356156b781615493565b935060208501356156c781615493565b925060408501356156d781615493565b9396929550929360600135925050565b600080604083850312156156fa57600080fd5b823561570581615493565b946020939093013593505050565b600080600080600060a0868803121561572b57600080fd5b853561573681615493565b97602087013597506040870135966060810135965060800135945092505050565b60006020828403121561576957600080fd5b81356119c8816154c5565b60006020828403121561578657600080fd5b5035919050565b600080600080608085870312156157a357600080fd5b84356157ae81615493565b935060208501356157be81615493565b93969395505050506040820135916060013590565b60008083601f8401126157e557600080fd5b50813567ffffffffffffffff8111156157fd57600080fd5b6020830191508360208260051b850101111561581857600080fd5b9250929050565b6000806000806000806060878903121561583857600080fd5b863567ffffffffffffffff8082111561585057600080fd5b61585c8a838b016157d3565b9098509650602089013591508082111561587557600080fd5b6158818a838b016157d3565b9096509450604089013591508082111561589a57600080fd5b506158a789828a016157d3565b979a9699509497509295939492505050565b60008060008060008060c087890312156158d257600080fd5b86356158dd81615493565b955060208701356158ed81615493565b945060408701356158fd81615493565b9350606087013561590d81615493565b9598949750929560808101359460a0909101359350915050565b60008060006060848603121561593c57600080fd5b833561594781615493565b9250602084013561595781615493565b929592945050506040919091013590565b600080600080600060a0868803121561598057600080fd5b853561598b81615493565b9450602086013561599b81615493565b935060408601356159ab81615493565b925060608601356159bb81615493565b949793965091946080013592915050565b600080600080608085870312156159e257600080fd5b843567ffffffffffffffff808211156159fa57600080fd5b615a0688838901615577565b95506020870135915080821115615a1c57600080fd5b50615a2987828801615577565b9350506040850135615a3a816154c5565b91506060850135615a4a816154c5565b939692955090935050565b60008060008060808587031215615a6b57600080fd5b8435615a7681615493565b93506020850135615a86816154c5565b92506040850135615a3a816154c5565b60008060408385031215615aa957600080fd5b8235615ab481615493565b9150602083013561550181615493565b600082601f830112615ad557600080fd5b81356020615ae561559883615553565b82815260059290921b84018101918181019086841115615b0457600080fd5b8286015b848110156155e05780358352918301918301615b08565b600080600060608486031215615b3457600080fd5b833567ffffffffffffffff80821115615b4c57600080fd5b615b5887838801615577565b94506020860135915080821115615b6e57600080fd5b615b7a87838801615ac4565b93506040860135915080821115615b9057600080fd5b50615b9d86828701615ac4565b9150509250925092565b6020808252825182820181905260009190848201906040850190845b81811015615be85783516001600160a01b031683529284019291840191600101615bc3565b50909695505050505050565b600060208284031215615c0657600080fd5b813567ffffffffffffffff811115615c1d57600080fd5b6113cc84828501615577565b6020808252825182820181905260009190848201906040850190845b81811015615be857835183529284019291840191600101615c45565b6020808252600e908201526d1b9bdd08185d5d1a1bdc9a5e995960921b604082015260600190565b634e487b7160e01b600052603260045260246000fd5b600060208284031215615cb157600080fd5b5051919050565b600060208284031215615cca57600080fd5b81516119c881615493565b634e487b7160e01b600052602160045260246000fd5b600060208284031215615cfd57600080fd5b81516119c8816154c5565b634e487b7160e01b600052601160045260246000fd5b6000600019821415615d3257615d32615d08565b5060010190565b60008219821115615d4c57615d4c615d08565b500190565b634e487b7160e01b600052600160045260246000fd5b60008060008060808587031215615d7d57600080fd5b505082516020840151604085015160609095015191969095509092509050565b600082821015615daf57615daf615d08565b500390565b634e487b7160e01b600052603160045260246000fd5b6000816000190483118215151615615de457615de4615d08565b500290565b600082615e0657634e487b7160e01b600052601260045260246000fd5b500490565b600060208083528351808285015260005b81811015615e3857858101830151858201604001528201615e1c565b81811115615e4a576000604083870101525b50601f01601f191692909201604001939250505056fea2646970667358221220a9e7a77e417b27ddb8278c1ddc6c5cad58bd914fd5da713b9f59fe743f0239fc64736f6c634300080a0033",
  "linkReferences": {},
  "deployedLinkReferences": {}
}