{
  "_format": "hh-sol-artifact-1",
  "contractName": "Comptroller",
  "sourceName": "contracts/Comptroller.sol",
  "abi": [
    {
      "inputs": [],
      "stateMutability": "nonpayable",
      "type": "constructor"
    },
    {
      "anonymous": false,
      "inputs": [
        {
          "indexed": false,
          "internalType": "string",
          "name": "action",
          "type": "string"
        },
        {
          "indexed": false,
          "internalType": "bool",
          "name": "pauseState",
          "type": "bool"
        }
      ],
      "name": "ActionPaused",
      "type": "event"
    },
    {
      "anonymous": false,
      "inputs": [
        {
          "indexed": false,
          "internalType": "contract CToken",
          "name": "cToken",
          "type": "address"
        },
        {
          "indexed": false,
          "internalType": "string",
          "name": "action",
          "type": "string"
        },
        {
          "indexed": false,
          "internalType": "bool",
          "name": "pauseState",
          "type": "bool"
        }
      ],
      "name": "ActionPaused",
      "type": "event"
    },
    {
      "anonymous": false,
      "inputs": [
        {
          "indexed": true,
          "internalType": "address",
          "name": "user",
          "type": "address"
        },
        {
          "indexed": false,
          "internalType": "uint256",
          "name": "oldCompAccrued",
          "type": "uint256"
        },
        {
          "indexed": false,
          "internalType": "uint256",
          "name": "newCompAccrued",
          "type": "uint256"
        }
      ],
      "name": "CompAccruedAdjusted",
      "type": "event"
    },
    {
      "anonymous": false,
      "inputs": [
        {
          "indexed": true,
          "internalType": "contract CToken",
          "name": "cToken",
          "type": "address"
        },
        {
          "indexed": false,
          "internalType": "uint256",
          "name": "newSpeed",
          "type": "uint256"
        }
      ],
      "name": "CompBorrowSpeedUpdated",
      "type": "event"
    },
    {
      "anonymous": false,
      "inputs": [
        {
          "indexed": false,
          "internalType": "address",
          "name": "recipient",
          "type": "address"
        },
        {
          "indexed": false,
          "internalType": "uint256",
          "name": "amount",
          "type": "uint256"
        }
      ],
      "name": "CompGranted",
      "type": "event"
    },
    {
      "anonymous": false,
      "inputs": [
        {
          "indexed": true,
          "internalType": "address",
          "name": "user",
          "type": "address"
        },
        {
          "indexed": false,
          "internalType": "uint256",
          "name": "oldCompReceivable",
          "type": "uint256"
        },
        {
          "indexed": false,
          "internalType": "uint256",
          "name": "newCompReceivable",
          "type": "uint256"
        }
      ],
      "name": "CompReceivableUpdated",
      "type": "event"
    },
    {
      "anonymous": false,
      "inputs": [
        {
          "indexed": true,
          "internalType": "contract CToken",
          "name": "cToken",
          "type": "address"
        },
        {
          "indexed": false,
          "internalType": "uint256",
          "name": "newSpeed",
          "type": "uint256"
        }
      ],
      "name": "CompSupplySpeedUpdated",
      "type": "event"
    },
    {
      "anonymous": false,
      "inputs": [
        {
          "indexed": true,
          "internalType": "address",
          "name": "contributor",
          "type": "address"
        },
        {
          "indexed": false,
          "internalType": "uint256",
          "name": "newSpeed",
          "type": "uint256"
        }
      ],
      "name": "ContributorCompSpeedUpdated",
      "type": "event"
    },
    {
      "anonymous": false,
      "inputs": [
        {
          "indexed": true,
          "internalType": "contract CToken",
          "name": "cToken",
          "type": "address"
        },
        {
          "indexed": true,
          "internalType": "address",
          "name": "borrower",
          "type": "address"
        },
        {
          "indexed": false,
          "internalType": "uint256",
          "name": "compDelta",
          "type": "uint256"
        },
        {
          "indexed": false,
          "internalType": "uint256",
          "name": "compBorrowIndex",
          "type": "uint256"
        }
      ],
      "name": "DistributedBorrowerComp",
      "type": "event"
    },
    {
      "anonymous": false,
      "inputs": [
        {
          "indexed": true,
          "internalType": "contract CToken",
          "name": "cToken",
          "type": "address"
        },
        {
          "indexed": true,
          "internalType": "address",
          "name": "supplier",
          "type": "address"
        },
        {
          "indexed": false,
          "internalType": "uint256",
          "name": "compDelta",
          "type": "uint256"
        },
        {
          "indexed": false,
          "internalType": "uint256",
          "name": "compSupplyIndex",
          "type": "uint256"
        }
      ],
      "name": "DistributedSupplierComp",
      "type": "event"
    },
    {
      "anonymous": false,
      "inputs": [
        {
          "indexed": false,
          "internalType": "uint256",
          "name": "error",
          "type": "uint256"
        },
        {
          "indexed": false,
          "internalType": "uint256",
          "name": "info",
          "type": "uint256"
        },
        {
          "indexed": false,
          "internalType": "uint256",
          "name": "detail",
          "type": "uint256"
        }
      ],
      "name": "Failure",
      "type": "event"
    },
    {
      "anonymous": false,
      "inputs": [
        {
          "indexed": false,
          "internalType": "contract CToken",
          "name": "cToken",
          "type": "address"
        },
        {
          "indexed": false,
          "internalType": "address",
          "name": "account",
          "type": "address"
        }
      ],
      "name": "MarketEntered",
      "type": "event"
    },
    {
      "anonymous": false,
      "inputs": [
        {
          "indexed": false,
          "internalType": "contract CToken",
          "name": "cToken",
          "type": "address"
        },
        {
          "indexed": false,
          "internalType": "address",
          "name": "account",
          "type": "address"
        }
      ],
      "name": "MarketExited",
      "type": "event"
    },
    {
      "anonymous": false,
      "inputs": [
        {
          "indexed": false,
          "internalType": "contract CToken",
          "name": "cToken",
          "type": "address"
        }
      ],
      "name": "MarketListed",
      "type": "event"
    },
    {
      "anonymous": false,
      "inputs": [
        {
          "indexed": true,
          "internalType": "contract CToken",
          "name": "cToken",
          "type": "address"
        },
        {
          "indexed": false,
          "internalType": "uint256",
          "name": "newBorrowCap",
          "type": "uint256"
        }
      ],
      "name": "NewBorrowCap",
      "type": "event"
    },
    {
      "anonymous": false,
      "inputs": [
        {
          "indexed": false,
          "internalType": "address",
          "name": "oldBorrowCapGuardian",
          "type": "address"
        },
        {
          "indexed": false,
          "internalType": "address",
          "name": "newBorrowCapGuardian",
          "type": "address"
        }
      ],
      "name": "NewBorrowCapGuardian",
      "type": "event"
    },
    {
      "anonymous": false,
      "inputs": [
        {
          "indexed": false,
          "internalType": "uint256",
          "name": "oldCloseFactorMantissa",
          "type": "uint256"
        },
        {
          "indexed": false,
          "internalType": "uint256",
          "name": "newCloseFactorMantissa",
          "type": "uint256"
        }
      ],
      "name": "NewCloseFactor",
      "type": "event"
    },
    {
      "anonymous": false,
      "inputs": [
        {
          "indexed": false,
          "internalType": "contract CToken",
          "name": "cToken",
          "type": "address"
        },
        {
          "indexed": false,
          "internalType": "uint256",
          "name": "oldCollateralFactorMantissa",
          "type": "uint256"
        },
        {
          "indexed": false,
          "internalType": "uint256",
          "name": "newCollateralFactorMantissa",
          "type": "uint256"
        },
        {
          "indexed": false,
          "internalType": "uint256",
          "name": "oldCollateralFactorMantissaVip",
          "type": "uint256"
        },
        {
          "indexed": false,
          "internalType": "uint256",
          "name": "newCollateralFactorMantissaVip",
          "type": "uint256"
        },
        {
          "indexed": false,
          "internalType": "uint256",
          "name": "oldliquidationThresholdMantissa",
          "type": "uint256"
        },
        {
          "indexed": false,
          "internalType": "uint256",
          "name": "newliquidationThresholdMantissa",
          "type": "uint256"
        },
        {
          "indexed": false,
          "internalType": "uint256",
          "name": "oldliquidationThresholdMantissaVip",
          "type": "uint256"
        },
        {
          "indexed": false,
          "internalType": "uint256",
          "name": "newliquidationThresholdMantissaVip",
          "type": "uint256"
        }
      ],
      "name": "NewFactorsAndThresholds",
      "type": "event"
    },
    {
      "anonymous": false,
      "inputs": [
        {
          "indexed": false,
          "internalType": "uint256",
          "name": "oldLiquidationIncentiveMantissa",
          "type": "uint256"
        },
        {
          "indexed": false,
          "internalType": "uint256",
          "name": "newLiquidationIncentiveMantissa",
          "type": "uint256"
        }
      ],
      "name": "NewLiquidationIncentive",
      "type": "event"
    },
    {
      "anonymous": false,
      "inputs": [
        {
          "indexed": false,
          "internalType": "address",
          "name": "oldPauseGuardian",
          "type": "address"
        },
        {
          "indexed": false,
          "internalType": "address",
          "name": "newPauseGuardian",
          "type": "address"
        }
      ],
      "name": "NewPauseGuardian",
      "type": "event"
    },
    {
      "anonymous": false,
      "inputs": [
        {
          "indexed": false,
          "internalType": "contract PriceOracle",
          "name": "oldPriceOracle",
          "type": "address"
        },
        {
          "indexed": false,
          "internalType": "contract PriceOracle",
          "name": "newPriceOracle",
          "type": "address"
        }
      ],
      "name": "NewPriceOracle",
      "type": "event"
    },
    {
      "anonymous": false,
      "inputs": [
        {
          "indexed": true,
          "internalType": "contract CToken",
          "name": "cToken",
          "type": "address"
        },
        {
          "indexed": false,
          "internalType": "uint256",
          "name": "newSupplyCap",
          "type": "uint256"
        }
      ],
      "name": "NewSupplyCap",
      "type": "event"
    },
    {
      "inputs": [
        {
          "internalType": "contract Unitroller",
          "name": "unitroller",
          "type": "address"
        }
      ],
      "name": "_become",
      "outputs": [],
      "stateMutability": "nonpayable",
      "type": "function"
    },
    {
      "inputs": [],
      "name": "_borrowGuardianPaused",
      "outputs": [
        {
          "internalType": "bool",
          "name": "",
          "type": "bool"
        }
      ],
      "stateMutability": "view",
      "type": "function"
    },
    {
      "inputs": [
        {
          "internalType": "address",
          "name": "recipient",
          "type": "address"
        },
        {
          "internalType": "uint256",
          "name": "amount",
          "type": "uint256"
        }
      ],
      "name": "_grantComp",
      "outputs": [],
      "stateMutability": "nonpayable",
      "type": "function"
    },
    {
      "inputs": [],
      "name": "_mintGuardianPaused",
      "outputs": [
        {
          "internalType": "bool",
          "name": "",
          "type": "bool"
        }
      ],
      "stateMutability": "view",
      "type": "function"
    },
    {
      "inputs": [
        {
          "internalType": "address",
          "name": "newBorrowCapGuardian",
          "type": "address"
        }
      ],
      "name": "_setBorrowCapGuardian",
      "outputs": [],
      "stateMutability": "nonpayable",
      "type": "function"
    },
    {
      "inputs": [
        {
          "internalType": "contract CToken",
          "name": "cToken",
          "type": "address"
        },
        {
          "internalType": "bool",
          "name": "state",
          "type": "bool"
        }
      ],
      "name": "_setBorrowPaused",
      "outputs": [
        {
          "internalType": "bool",
          "name": "",
          "type": "bool"
        }
      ],
      "stateMutability": "nonpayable",
      "type": "function"
    },
    {
      "inputs": [
        {
          "internalType": "uint256",
          "name": "newCloseFactorMantissa",
          "type": "uint256"
        }
      ],
      "name": "_setCloseFactor",
      "outputs": [
        {
          "internalType": "uint256",
          "name": "",
          "type": "uint256"
        }
      ],
      "stateMutability": "nonpayable",
      "type": "function"
    },
    {
      "inputs": [
        {
          "internalType": "contract CToken[]",
          "name": "cTokens",
          "type": "address[]"
        },
        {
          "internalType": "uint256[]",
          "name": "supplySpeeds",
          "type": "uint256[]"
        },
        {
          "internalType": "uint256[]",
          "name": "borrowSpeeds",
          "type": "uint256[]"
        }
      ],
      "name": "_setCompSpeeds",
      "outputs": [],
      "stateMutability": "nonpayable",
      "type": "function"
    },
    {
      "inputs": [
        {
          "internalType": "address",
          "name": "contributor",
          "type": "address"
        },
        {
          "internalType": "uint256",
          "name": "compSpeed",
          "type": "uint256"
        }
      ],
      "name": "_setContributorCompSpeed",
      "outputs": [],
      "stateMutability": "nonpayable",
      "type": "function"
    },
    {
      "inputs": [
        {
          "internalType": "contract CToken",
          "name": "cToken",
          "type": "address"
        },
        {
          "internalType": "uint256",
          "name": "newCollateralFactorMantissa",
          "type": "uint256"
        },
        {
          "internalType": "uint256",
          "name": "newCollateralFactorMantissaVip",
          "type": "uint256"
        },
        {
          "internalType": "uint256",
          "name": "newLiquidationThresholdMantissa",
          "type": "uint256"
        },
        {
          "internalType": "uint256",
          "name": "newLiquidationThresholdMantissaVip",
          "type": "uint256"
        }
      ],
      "name": "_setFactorsAndThresholds",
      "outputs": [
        {
          "internalType": "uint256",
          "name": "",
          "type": "uint256"
        }
      ],
      "stateMutability": "nonpayable",
      "type": "function"
    },
    {
      "inputs": [
        {
          "internalType": "uint256",
          "name": "newLiquidationIncentiveMantissa",
          "type": "uint256"
        }
      ],
      "name": "_setLiquidationIncentive",
      "outputs": [
        {
          "internalType": "uint256",
          "name": "",
          "type": "uint256"
        }
      ],
      "stateMutability": "nonpayable",
      "type": "function"
    },
    {
      "inputs": [
        {
          "internalType": "contract CToken[]",
          "name": "cTokens",
          "type": "address[]"
        },
        {
          "internalType": "uint256[]",
          "name": "newBorrowCaps",
          "type": "uint256[]"
        }
      ],
      "name": "_setMarketBorrowCaps",
      "outputs": [],
      "stateMutability": "nonpayable",
      "type": "function"
    },
    {
      "inputs": [
        {
          "internalType": "contract CToken[]",
          "name": "cTokens",
          "type": "address[]"
        },
        {
          "internalType": "uint256[]",
          "name": "newSupplyCaps",
          "type": "uint256[]"
        }
      ],
      "name": "_setMarketSupplyCaps",
      "outputs": [],
      "stateMutability": "nonpayable",
      "type": "function"
    },
    {
      "inputs": [
        {
          "internalType": "contract CToken",
          "name": "cToken",
          "type": "address"
        },
        {
          "internalType": "bool",
          "name": "state",
          "type": "bool"
        }
      ],
      "name": "_setMintPaused",
      "outputs": [
        {
          "internalType": "bool",
          "name": "",
          "type": "bool"
        }
      ],
      "stateMutability": "nonpayable",
      "type": "function"
    },
    {
      "inputs": [
        {
          "internalType": "address",
          "name": "newPauseGuardian",
          "type": "address"
        }
      ],
      "name": "_setPauseGuardian",
      "outputs": [
        {
          "internalType": "uint256",
          "name": "",
          "type": "uint256"
        }
      ],
      "stateMutability": "nonpayable",
      "type": "function"
    },
    {
      "inputs": [
        {
          "internalType": "contract PriceOracle",
          "name": "newOracle",
          "type": "address"
        }
      ],
      "name": "_setPriceOracle",
      "outputs": [
        {
          "internalType": "uint256",
          "name": "",
          "type": "uint256"
        }
      ],
      "stateMutability": "nonpayable",
      "type": "function"
    },
    {
      "inputs": [
        {
          "internalType": "bool",
          "name": "state",
          "type": "bool"
        }
      ],
      "name": "_setSeizePaused",
      "outputs": [
        {
          "internalType": "bool",
          "name": "",
          "type": "bool"
        }
      ],
      "stateMutability": "nonpayable",
      "type": "function"
    },
    {
      "inputs": [
        {
          "internalType": "bool",
          "name": "state",
          "type": "bool"
        }
      ],
      "name": "_setTransferPaused",
      "outputs": [
        {
          "internalType": "bool",
          "name": "",
          "type": "bool"
        }
      ],
      "stateMutability": "nonpayable",
      "type": "function"
    },
    {
      "inputs": [
        {
          "internalType": "contract CToken",
          "name": "cToken",
          "type": "address"
        },
        {
          "internalType": "bool",
          "name": "isComped_",
          "type": "bool"
        },
        {
          "internalType": "bool",
          "name": "isPrivate_",
          "type": "bool"
        },
        {
          "internalType": "bool",
          "name": "onlyWhitelistedBorrow_",
          "type": "bool"
        }
      ],
      "name": "_supportMarket",
      "outputs": [
        {
          "internalType": "uint256",
          "name": "",
          "type": "uint256"
        }
      ],
      "stateMutability": "nonpayable",
      "type": "function"
    },
    {
      "inputs": [
        {
          "internalType": "address",
          "name": "",
          "type": "address"
        },
        {
          "internalType": "uint256",
          "name": "",
          "type": "uint256"
        }
      ],
      "name": "accountAssets",
      "outputs": [
        {
          "internalType": "contract CToken",
          "name": "",
          "type": "address"
        }
      ],
      "stateMutability": "view",
      "type": "function"
    },
    {
      "inputs": [
        {
          "internalType": "address",
          "name": "cToken",
          "type": "address"
        },
        {
          "internalType": "address",
          "name": "borrower",
          "type": "address"
        }
      ],
      "name": "addToMarketExternal",
      "outputs": [],
      "stateMutability": "nonpayable",
      "type": "function"
    },
    {
      "inputs": [],
      "name": "admin",
      "outputs": [
        {
          "internalType": "address",
          "name": "",
          "type": "address"
        }
      ],
      "stateMutability": "view",
      "type": "function"
    },
    {
      "inputs": [
        {
          "internalType": "uint256",
          "name": "",
          "type": "uint256"
        }
      ],
      "name": "allMarkets",
      "outputs": [
        {
          "internalType": "contract CToken",
          "name": "",
          "type": "address"
        }
      ],
      "stateMutability": "view",
      "type": "function"
    },
    {
      "inputs": [
        {
          "internalType": "address",
          "name": "cToken",
          "type": "address"
        },
        {
          "internalType": "address",
          "name": "borrower",
          "type": "address"
        },
        {
          "internalType": "uint256",
          "name": "borrowAmount",
          "type": "uint256"
        }
      ],
      "name": "borrowAllowed",
      "outputs": [
        {
          "internalType": "uint256",
          "name": "",
          "type": "uint256"
        }
      ],
      "stateMutability": "nonpayable",
      "type": "function"
    },
    {
      "inputs": [],
      "name": "borrowCapGuardian",
      "outputs": [
        {
          "internalType": "address",
          "name": "",
          "type": "address"
        }
      ],
      "stateMutability": "view",
      "type": "function"
    },
    {
      "inputs": [
        {
          "internalType": "address",
          "name": "",
          "type": "address"
        }
      ],
      "name": "borrowCaps",
      "outputs": [
        {
          "internalType": "uint256",
          "name": "",
          "type": "uint256"
        }
      ],
      "stateMutability": "view",
      "type": "function"
    },
    {
      "inputs": [
        {
          "internalType": "address",
          "name": "",
          "type": "address"
        }
      ],
      "name": "borrowGuardianPaused",
      "outputs": [
        {
          "internalType": "bool",
          "name": "",
          "type": "bool"
        }
      ],
      "stateMutability": "view",
      "type": "function"
    },
    {
      "inputs": [
        {
          "internalType": "address",
          "name": "cToken",
          "type": "address"
        },
        {
          "internalType": "address",
          "name": "borrower",
          "type": "address"
        },
        {
          "internalType": "uint256",
          "name": "borrowAmount",
          "type": "uint256"
        }
      ],
      "name": "borrowVerify",
      "outputs": [],
      "stateMutability": "nonpayable",
      "type": "function"
    },
    {
      "inputs": [
        {
          "internalType": "address",
          "name": "account",
          "type": "address"
        },
        {
          "internalType": "contract CToken",
          "name": "cToken",
          "type": "address"
        }
      ],
      "name": "checkMembership",
      "outputs": [
        {
          "internalType": "bool",
          "name": "",
          "type": "bool"
        }
      ],
      "stateMutability": "view",
      "type": "function"
    },
    {
      "inputs": [
        {
          "internalType": "address",
          "name": "holder",
          "type": "address"
        },
        {
          "internalType": "contract CToken[]",
          "name": "cTokens",
          "type": "address[]"
        }
      ],
      "name": "claimComp",
      "outputs": [],
      "stateMutability": "nonpayable",
      "type": "function"
    },
    {
      "inputs": [
        {
          "internalType": "address[]",
          "name": "holders",
          "type": "address[]"
        },
        {
          "internalType": "contract CToken[]",
          "name": "cTokens",
          "type": "address[]"
        },
        {
          "internalType": "bool",
          "name": "borrowers",
          "type": "bool"
        },
        {
          "internalType": "bool",
          "name": "suppliers",
          "type": "bool"
        }
      ],
      "name": "claimComp",
      "outputs": [],
      "stateMutability": "nonpayable",
      "type": "function"
    },
    {
      "inputs": [
        {
          "internalType": "address",
          "name": "holder",
          "type": "address"
        }
      ],
      "name": "claimComp",
      "outputs": [],
      "stateMutability": "nonpayable",
      "type": "function"
    },
    {
      "inputs": [],
      "name": "closeFactorMantissa",
      "outputs": [
        {
          "internalType": "uint256",
          "name": "",
          "type": "uint256"
        }
      ],
      "stateMutability": "view",
      "type": "function"
    },
    {
      "inputs": [
        {
          "internalType": "address",
          "name": "",
          "type": "address"
        }
      ],
      "name": "compAccrued",
      "outputs": [
        {
          "internalType": "uint256",
          "name": "",
          "type": "uint256"
        }
      ],
      "stateMutability": "view",
      "type": "function"
    },
    {
      "inputs": [],
      "name": "compAddress",
      "outputs": [
        {
          "internalType": "address",
          "name": "",
          "type": "address"
        }
      ],
      "stateMutability": "view",
      "type": "function"
    },
    {
      "inputs": [
        {
          "internalType": "address",
          "name": "",
          "type": "address"
        }
      ],
      "name": "compBorrowSpeeds",
      "outputs": [
        {
          "internalType": "uint256",
          "name": "",
          "type": "uint256"
        }
      ],
      "stateMutability": "view",
      "type": "function"
    },
    {
      "inputs": [
        {
          "internalType": "address",
          "name": "",
          "type": "address"
        }
      ],
      "name": "compBorrowState",
      "outputs": [
        {
          "internalType": "uint224",
          "name": "index",
          "type": "uint224"
        },
        {
          "internalType": "uint32",
          "name": "block",
          "type": "uint32"
        }
      ],
      "stateMutability": "view",
      "type": "function"
    },
    {
      "inputs": [
        {
          "internalType": "address",
          "name": "",
          "type": "address"
        },
        {
          "internalType": "address",
          "name": "",
          "type": "address"
        }
      ],
      "name": "compBorrowerIndex",
      "outputs": [
        {
          "internalType": "uint256",
          "name": "",
          "type": "uint256"
        }
      ],
      "stateMutability": "view",
      "type": "function"
    },
    {
      "inputs": [
        {
          "internalType": "address",
          "name": "",
          "type": "address"
        }
      ],
      "name": "compContributorSpeeds",
      "outputs": [
        {
          "internalType": "uint256",
          "name": "",
          "type": "uint256"
        }
      ],
      "stateMutability": "view",
      "type": "function"
    },
    {
      "inputs": [],
      "name": "compInitialIndex",
      "outputs": [
        {
          "internalType": "uint224",
          "name": "",
          "type": "uint224"
        }
      ],
      "stateMutability": "view",
      "type": "function"
    },
    {
      "inputs": [],
      "name": "compRate",
      "outputs": [
        {
          "internalType": "uint256",
          "name": "",
          "type": "uint256"
        }
      ],
      "stateMutability": "view",
      "type": "function"
    },
    {
      "inputs": [
        {
          "internalType": "address",
          "name": "",
          "type": "address"
        }
      ],
      "name": "compReceivable",
      "outputs": [
        {
          "internalType": "uint256",
          "name": "",
          "type": "uint256"
        }
      ],
      "stateMutability": "view",
      "type": "function"
    },
    {
      "inputs": [
        {
          "internalType": "address",
          "name": "",
          "type": "address"
        }
      ],
      "name": "compSpeeds",
      "outputs": [
        {
          "internalType": "uint256",
          "name": "",
          "type": "uint256"
        }
      ],
      "stateMutability": "view",
      "type": "function"
    },
    {
      "inputs": [
        {
          "internalType": "address",
          "name": "",
          "type": "address"
        },
        {
          "internalType": "address",
          "name": "",
          "type": "address"
        }
      ],
      "name": "compSupplierIndex",
      "outputs": [
        {
          "internalType": "uint256",
          "name": "",
          "type": "uint256"
        }
      ],
      "stateMutability": "view",
      "type": "function"
    },
    {
      "inputs": [
        {
          "internalType": "address",
          "name": "",
          "type": "address"
        }
      ],
      "name": "compSupplySpeeds",
      "outputs": [
        {
          "internalType": "uint256",
          "name": "",
          "type": "uint256"
        }
      ],
      "stateMutability": "view",
      "type": "function"
    },
    {
      "inputs": [
        {
          "internalType": "address",
          "name": "",
          "type": "address"
        }
      ],
      "name": "compSupplyState",
      "outputs": [
        {
          "internalType": "uint224",
          "name": "index",
          "type": "uint224"
        },
        {
          "internalType": "uint32",
          "name": "block",
          "type": "uint32"
        }
      ],
      "stateMutability": "view",
      "type": "function"
    },
    {
      "inputs": [],
      "name": "comptrollerImplementation",
      "outputs": [
        {
          "internalType": "address",
          "name": "",
          "type": "address"
        }
      ],
      "stateMutability": "view",
      "type": "function"
    },
    {
      "inputs": [
        {
          "internalType": "address[]",
          "name": "cTokens",
          "type": "address[]"
        }
      ],
      "name": "enterMarkets",
      "outputs": [
        {
          "internalType": "uint256[]",
          "name": "",
          "type": "uint256[]"
        }
      ],
      "stateMutability": "nonpayable",
      "type": "function"
    },
    {
      "inputs": [
        {
          "internalType": "address",
          "name": "cTokenAddress",
          "type": "address"
        }
      ],
      "name": "exitMarket",
      "outputs": [
        {
          "internalType": "uint256",
          "name": "",
          "type": "uint256"
        }
      ],
      "stateMutability": "nonpayable",
      "type": "function"
    },
    {
      "inputs": [
        {
          "internalType": "address",
          "name": "account",
          "type": "address"
        }
      ],
      "name": "getAccountLiquidity",
      "outputs": [
        {
          "internalType": "uint256",
          "name": "",
          "type": "uint256"
        },
        {
          "internalType": "uint256",
          "name": "",
          "type": "uint256"
        },
        {
          "internalType": "uint256",
          "name": "",
          "type": "uint256"
        }
      ],
      "stateMutability": "view",
      "type": "function"
    },
    {
      "inputs": [],
      "name": "getAllMarkets",
      "outputs": [
        {
          "internalType": "contract CToken[]",
          "name": "",
          "type": "address[]"
        }
      ],
      "stateMutability": "view",
      "type": "function"
    },
    {
      "inputs": [
        {
          "internalType": "address",
          "name": "account",
          "type": "address"
        }
      ],
      "name": "getAssetsIn",
      "outputs": [
        {
          "internalType": "contract CToken[]",
          "name": "",
          "type": "address[]"
        }
      ],
      "stateMutability": "view",
      "type": "function"
    },
    {
      "inputs": [],
      "name": "getBlockNumber",
      "outputs": [
        {
          "internalType": "uint256",
          "name": "",
          "type": "uint256"
        }
      ],
      "stateMutability": "view",
      "type": "function"
    },
    {
      "inputs": [],
      "name": "getCompAddress",
      "outputs": [
        {
          "internalType": "address",
          "name": "",
          "type": "address"
        }
      ],
      "stateMutability": "view",
      "type": "function"
    },
    {
      "inputs": [
        {
          "internalType": "address",
          "name": "account",
          "type": "address"
        },
        {
          "internalType": "address",
          "name": "cTokenModify",
          "type": "address"
        },
        {
          "internalType": "uint256",
          "name": "redeemTokens",
          "type": "uint256"
        },
        {
          "internalType": "uint256",
          "name": "borrowAmount",
          "type": "uint256"
        }
      ],
      "name": "getHypotheticalAccountLiquidity",
      "outputs": [
        {
          "internalType": "uint256",
          "name": "",
          "type": "uint256"
        },
        {
          "internalType": "uint256",
          "name": "",
          "type": "uint256"
        },
        {
          "internalType": "uint256",
          "name": "",
          "type": "uint256"
        }
      ],
      "stateMutability": "view",
      "type": "function"
    },
    {
      "inputs": [
        {
          "internalType": "address",
          "name": "_account",
          "type": "address"
        }
      ],
      "name": "getIsAccountVip",
      "outputs": [
        {
          "internalType": "bool",
          "name": "isVip",
          "type": "bool"
        }
      ],
      "stateMutability": "view",
      "type": "function"
    },
    {
      "inputs": [],
      "name": "immutableCompAddress",
      "outputs": [
        {
          "internalType": "bool",
          "name": "",
          "type": "bool"
        }
      ],
      "stateMutability": "view",
      "type": "function"
    },
    {
      "inputs": [],
      "name": "isComptroller",
      "outputs": [
        {
          "internalType": "bool",
          "name": "",
          "type": "bool"
        }
      ],
      "stateMutability": "view",
      "type": "function"
    },
    {
      "inputs": [
        {
          "internalType": "contract CToken",
          "name": "cToken",
          "type": "address"
        }
      ],
      "name": "isDeprecated",
      "outputs": [
        {
          "internalType": "bool",
          "name": "",
          "type": "bool"
        }
      ],
      "stateMutability": "view",
      "type": "function"
    },
    {
      "inputs": [
        {
          "internalType": "address",
          "name": "",
          "type": "address"
        }
      ],
      "name": "lastContributorBlock",
      "outputs": [
        {
          "internalType": "uint256",
          "name": "",
          "type": "uint256"
        }
      ],
      "stateMutability": "view",
      "type": "function"
    },
    {
      "inputs": [
        {
          "internalType": "address",
          "name": "cTokenBorrowed",
          "type": "address"
        },
        {
          "internalType": "address",
          "name": "cTokenCollateral",
          "type": "address"
        },
        {
          "internalType": "address",
          "name": "liquidator",
          "type": "address"
        },
        {
          "internalType": "address",
          "name": "borrower",
          "type": "address"
        },
        {
          "internalType": "uint256",
          "name": "repayAmount",
          "type": "uint256"
        }
      ],
      "name": "liquidateBorrowAllowed",
      "outputs": [
        {
          "internalType": "uint256",
          "name": "",
          "type": "uint256"
        }
      ],
      "stateMutability": "view",
      "type": "function"
    },
    {
      "inputs": [
        {
          "internalType": "address",
          "name": "cTokenBorrowed",
          "type": "address"
        },
        {
          "internalType": "address",
          "name": "cTokenCollateral",
          "type": "address"
        },
        {
          "internalType": "address",
          "name": "liquidator",
          "type": "address"
        },
        {
          "internalType": "address",
          "name": "borrower",
          "type": "address"
        },
        {
          "internalType": "uint256",
          "name": "actualRepayAmount",
          "type": "uint256"
        },
        {
          "internalType": "uint256",
          "name": "seizeTokens",
          "type": "uint256"
        }
      ],
      "name": "liquidateBorrowVerify",
      "outputs": [],
      "stateMutability": "nonpayable",
      "type": "function"
    },
    {
      "inputs": [
        {
          "internalType": "address",
          "name": "cTokenBorrowed",
          "type": "address"
        },
        {
          "internalType": "address",
          "name": "cTokenCollateral",
          "type": "address"
        },
        {
          "internalType": "uint256",
          "name": "actualRepayAmount",
          "type": "uint256"
        }
      ],
      "name": "liquidateCalculateSeizeTokens",
      "outputs": [
        {
          "internalType": "uint256",
          "name": "",
          "type": "uint256"
        },
        {
          "internalType": "uint256",
          "name": "",
          "type": "uint256"
        }
      ],
      "stateMutability": "view",
      "type": "function"
    },
    {
      "inputs": [],
      "name": "liquidationIncentiveMantissa",
      "outputs": [
        {
          "internalType": "uint256",
          "name": "",
          "type": "uint256"
        }
      ],
      "stateMutability": "view",
      "type": "function"
    },
    {
      "inputs": [
        {
          "internalType": "address",
          "name": "",
          "type": "address"
        }
      ],
      "name": "markets",
      "outputs": [
        {
          "internalType": "bool",
          "name": "isListed",
          "type": "bool"
        },
        {
          "internalType": "uint256",
          "name": "collateralFactorMantissa",
          "type": "uint256"
        },
        {
          "internalType": "uint256",
          "name": "liquidationThresholdMantissa",
          "type": "uint256"
        },
        {
          "internalType": "uint256",
          "name": "collateralFactorMantissaVip",
          "type": "uint256"
        },
        {
          "internalType": "uint256",
          "name": "liquidationThresholdMantissaVip",
          "type": "uint256"
        },
        {
          "internalType": "bool",
          "name": "isComped",
          "type": "bool"
        },
        {
          "internalType": "bool",
          "name": "isPrivate",
          "type": "bool"
        },
        {
          "internalType": "bool",
          "name": "onlyWhitelistedBorrow",
          "type": "bool"
        }
      ],
      "stateMutability": "view",
      "type": "function"
    },
    {
      "inputs": [],
      "name": "maxAssets",
      "outputs": [
        {
          "internalType": "uint256",
          "name": "",
          "type": "uint256"
        }
      ],
      "stateMutability": "view",
      "type": "function"
    },
    {
      "inputs": [
        {
          "internalType": "address",
          "name": "cToken",
          "type": "address"
        },
        {
          "internalType": "address",
          "name": "minter",
          "type": "address"
        },
        {
          "internalType": "uint256",
          "name": "mintAmount",
          "type": "uint256"
        }
      ],
      "name": "mintAllowed",
      "outputs": [
        {
          "internalType": "uint256",
          "name": "",
          "type": "uint256"
        }
      ],
      "stateMutability": "nonpayable",
      "type": "function"
    },
    {
      "inputs": [
        {
          "internalType": "address",
          "name": "",
          "type": "address"
        }
      ],
      "name": "mintGuardianPaused",
      "outputs": [
        {
          "internalType": "bool",
          "name": "",
          "type": "bool"
        }
      ],
      "stateMutability": "view",
      "type": "function"
    },
    {
      "inputs": [
        {
          "internalType": "address",
          "name": "cToken",
          "type": "address"
        },
        {
          "internalType": "address",
          "name": "minter",
          "type": "address"
        },
        {
          "internalType": "uint256",
          "name": "actualMintAmount",
          "type": "uint256"
        },
        {
          "internalType": "uint256",
          "name": "mintTokens",
          "type": "uint256"
        }
      ],
      "name": "mintVerify",
      "outputs": [],
      "stateMutability": "nonpayable",
      "type": "function"
    },
    {
      "inputs": [],
      "name": "oracle",
      "outputs": [
        {
          "internalType": "contract PriceOracle",
          "name": "",
          "type": "address"
        }
      ],
      "stateMutability": "view",
      "type": "function"
    },
    {
      "inputs": [],
      "name": "pauseGuardian",
      "outputs": [
        {
          "internalType": "address",
          "name": "",
          "type": "address"
        }
      ],
      "stateMutability": "view",
      "type": "function"
    },
    {
      "inputs": [],
      "name": "pendingAdmin",
      "outputs": [
        {
          "internalType": "address",
          "name": "",
          "type": "address"
        }
      ],
      "stateMutability": "view",
      "type": "function"
    },
    {
      "inputs": [],
      "name": "pendingComptrollerImplementation",
      "outputs": [
        {
          "internalType": "address",
          "name": "",
          "type": "address"
        }
      ],
      "stateMutability": "view",
      "type": "function"
    },
    {
      "inputs": [
        {
          "internalType": "address",
          "name": "cToken",
          "type": "address"
        },
        {
          "internalType": "address",
          "name": "redeemer",
          "type": "address"
        },
        {
          "internalType": "uint256",
          "name": "redeemTokens",
          "type": "uint256"
        }
      ],
      "name": "redeemAllowed",
      "outputs": [
        {
          "internalType": "uint256",
          "name": "",
          "type": "uint256"
        }
      ],
      "stateMutability": "nonpayable",
      "type": "function"
    },
    {
      "inputs": [
        {
          "internalType": "address",
          "name": "cToken",
          "type": "address"
        },
        {
          "internalType": "address",
          "name": "redeemer",
          "type": "address"
        },
        {
          "internalType": "uint256",
          "name": "redeemAmount",
          "type": "uint256"
        },
        {
          "internalType": "uint256",
          "name": "redeemTokens",
          "type": "uint256"
        }
      ],
      "name": "redeemVerify",
      "outputs": [],
      "stateMutability": "nonpayable",
      "type": "function"
    },
    {
      "inputs": [
        {
          "internalType": "address",
          "name": "cToken",
          "type": "address"
        },
        {
          "internalType": "address",
          "name": "payer",
          "type": "address"
        },
        {
          "internalType": "address",
          "name": "borrower",
          "type": "address"
        },
        {
          "internalType": "uint256",
          "name": "repayAmount",
          "type": "uint256"
        }
      ],
      "name": "repayBorrowAllowed",
      "outputs": [
        {
          "internalType": "uint256",
          "name": "",
          "type": "uint256"
        }
      ],
      "stateMutability": "nonpayable",
      "type": "function"
    },
    {
      "inputs": [
        {
          "internalType": "address",
          "name": "cToken",
          "type": "address"
        },
        {
          "internalType": "address",
          "name": "payer",
          "type": "address"
        },
        {
          "internalType": "address",
          "name": "borrower",
          "type": "address"
        },
        {
          "internalType": "uint256",
          "name": "actualRepayAmount",
          "type": "uint256"
        },
        {
          "internalType": "uint256",
          "name": "borrowerIndex",
          "type": "uint256"
        }
      ],
      "name": "repayBorrowVerify",
      "outputs": [],
      "stateMutability": "nonpayable",
      "type": "function"
    },
    {
      "inputs": [
        {
          "internalType": "address",
          "name": "cTokenCollateral",
          "type": "address"
        },
        {
          "internalType": "address",
          "name": "cTokenBorrowed",
          "type": "address"
        },
        {
          "internalType": "address",
          "name": "liquidator",
          "type": "address"
        },
        {
          "internalType": "address",
          "name": "borrower",
          "type": "address"
        },
        {
          "internalType": "uint256",
          "name": "seizeTokens",
          "type": "uint256"
        }
      ],
      "name": "seizeAllowed",
      "outputs": [
        {
          "internalType": "uint256",
          "name": "",
          "type": "uint256"
        }
      ],
      "stateMutability": "nonpayable",
      "type": "function"
    },
    {
      "inputs": [],
      "name": "seizeGuardianPaused",
      "outputs": [
        {
          "internalType": "bool",
          "name": "",
          "type": "bool"
        }
      ],
      "stateMutability": "view",
      "type": "function"
    },
    {
      "inputs": [
        {
          "internalType": "address",
          "name": "cTokenCollateral",
          "type": "address"
        },
        {
          "internalType": "address",
          "name": "cTokenBorrowed",
          "type": "address"
        },
        {
          "internalType": "address",
          "name": "liquidator",
          "type": "address"
        },
        {
          "internalType": "address",
          "name": "borrower",
          "type": "address"
        },
        {
          "internalType": "uint256",
          "name": "seizeTokens",
          "type": "uint256"
        }
      ],
      "name": "seizeVerify",
      "outputs": [],
      "stateMutability": "nonpayable",
      "type": "function"
    },
    {
      "inputs": [
        {
          "internalType": "address",
          "name": "compAddress_",
          "type": "address"
        }
      ],
      "name": "setCompAddress",
      "outputs": [],
      "stateMutability": "nonpayable",
      "type": "function"
    },
    {
      "inputs": [],
      "name": "setImmutableCompAddress",
      "outputs": [],
      "stateMutability": "nonpayable",
      "type": "function"
    },
    {
      "inputs": [
        {
          "internalType": "address",
          "name": "cToken_",
          "type": "address"
        },
        {
          "internalType": "bool",
          "name": "isComped_",
          "type": "bool"
        }
      ],
      "name": "setIsMarketComped",
      "outputs": [],
      "stateMutability": "nonpayable",
      "type": "function"
    },
    {
      "inputs": [
        {
          "internalType": "address",
          "name": "cToken_",
          "type": "address"
        },
        {
          "internalType": "bool",
          "name": "isPrivate_",
          "type": "bool"
        }
      ],
      "name": "setIsPrivateMarket",
      "outputs": [],
      "stateMutability": "nonpayable",
      "type": "function"
    },
    {
      "inputs": [
        {
          "internalType": "address",
          "name": "cToken_",
          "type": "address"
        },
        {
          "internalType": "bool",
          "name": "onlyWhitelistedCanBorrow_",
          "type": "bool"
        }
      ],
      "name": "setOnlyWhitelistedCanBorrow",
      "outputs": [],
      "stateMutability": "nonpayable",
      "type": "function"
    },
    {
      "inputs": [
        {
          "internalType": "uint256",
          "name": "_tokenBalanceVipThreshold",
          "type": "uint256"
        }
      ],
      "name": "setTokenBalanceVipThreshold",
      "outputs": [],
      "stateMutability": "nonpayable",
      "type": "function"
    },
    {
      "inputs": [
        {
          "internalType": "address",
          "name": "_vipNft",
          "type": "address"
        }
      ],
      "name": "setVipNft",
      "outputs": [],
      "stateMutability": "nonpayable",
      "type": "function"
    },
    {
      "inputs": [
        {
          "internalType": "address",
          "name": "user_",
          "type": "address"
        },
        {
          "internalType": "bool",
          "name": "isWhiteListed_",
          "type": "bool"
        }
      ],
      "name": "setWhitelistedUser",
      "outputs": [],
      "stateMutability": "nonpayable",
      "type": "function"
    },
    {
      "inputs": [
        {
          "internalType": "address",
          "name": "",
          "type": "address"
        }
      ],
      "name": "supplyCaps",
      "outputs": [
        {
          "internalType": "uint256",
          "name": "",
          "type": "uint256"
        }
      ],
      "stateMutability": "view",
      "type": "function"
    },
    {
      "inputs": [],
      "name": "tokenBalanceVipThreshold",
      "outputs": [
        {
          "internalType": "uint256",
          "name": "",
          "type": "uint256"
        }
      ],
      "stateMutability": "view",
      "type": "function"
    },
    {
      "inputs": [
        {
          "internalType": "address",
          "name": "cToken",
          "type": "address"
        },
        {
          "internalType": "address",
          "name": "src",
          "type": "address"
        },
        {
          "internalType": "address",
          "name": "dst",
          "type": "address"
        },
        {
          "internalType": "uint256",
          "name": "transferTokens",
          "type": "uint256"
        }
      ],
      "name": "transferAllowed",
      "outputs": [
        {
          "internalType": "uint256",
          "name": "",
          "type": "uint256"
        }
      ],
      "stateMutability": "nonpayable",
      "type": "function"
    },
    {
      "inputs": [],
      "name": "transferGuardianPaused",
      "outputs": [
        {
          "internalType": "bool",
          "name": "",
          "type": "bool"
        }
      ],
      "stateMutability": "view",
      "type": "function"
    },
    {
      "inputs": [
        {
          "internalType": "address",
          "name": "cToken",
          "type": "address"
        },
        {
          "internalType": "address",
          "name": "src",
          "type": "address"
        },
        {
          "internalType": "address",
          "name": "dst",
          "type": "address"
        },
        {
          "internalType": "uint256",
          "name": "transferTokens",
          "type": "uint256"
        }
      ],
      "name": "transferVerify",
      "outputs": [],
      "stateMutability": "nonpayable",
      "type": "function"
    },
    {
      "inputs": [
        {
          "internalType": "address",
          "name": "contributor",
          "type": "address"
        }
      ],
      "name": "updateContributorRewards",
      "outputs": [],
      "stateMutability": "nonpayable",
      "type": "function"
    },
    {
      "inputs": [],
      "name": "vipNft",
      "outputs": [
        {
          "internalType": "address",
          "name": "",
          "type": "address"
        }
      ],
      "stateMutability": "view",
      "type": "function"
    },
    {
      "inputs": [
        {
          "internalType": "address",
          "name": "",
          "type": "address"
        }
      ],
      "name": "whitelistedUser",
      "outputs": [
        {
          "internalType": "bool",
          "name": "",
          "type": "bool"
        }
      ],
      "stateMutability": "view",
      "type": "function"
    }
  ],
  "bytecode": "0x608060405234801561001057600080fd5b50600080546001600160a01b0319163390811782558152601560205260409020805460ff191660011790556016805460ff60a01b191690556164d680620000586000396000f3fe608060405234801561001057600080fd5b506004361061052f5760003560e01c80637d3ab61a116102af578063b3d52a5611610172578063da3d454c116100d9578063e931b7b311610092578063e931b7b314610e11578063e9af029214610e24578063eabe7d9114610e37578063ede4edd014610e4a578063f4a433c014610e5d578063f851a44014610e7d57600080fd5b8063da3d454c14610da8578063dce1544914610dbb578063dcfbc0c714610dce578063e49ba95a14610de1578063e6653f3d14610df4578063e875544614610e0857600080fd5b8063c488847b1161012b578063c488847b14610cfc578063ca0af04314610d24578063cc7ebdc414610d4f578063d02f735114610d6f578063d36d0fea14610d82578063d747e15c14610d9557600080fd5b8063b3d52a5614610c7b578063bb82aa5e14610c83578063bdcdc25814610c96578063be3aa8d114610ca9578063bea6b8b814610cbc578063c299823814610cdc57600080fd5b8063986ab83811610216578063aa900754116101cf578063aa90075414610c02578063abfceffc14610c0b578063ac0b0bb714610c2b578063ad888c3314610c3f578063b0772d0b14610c48578063b21be7fd14610c5057600080fd5b8063986ab83814610b6b5780639a6f5ac314610b8b5780639d1b5a0a14610b9e578063a7f0e23114610baf578063a86cc91514610bdc578063a8b4394814610bef57600080fd5b80638c57804e116102685780638c57804e14610a255780638e8f294b14610a5d5780638ebf636414610afb578063929fe9a114610b0e57806394543c1514610b4f57806394b2294b14610b6257600080fd5b80637d3ab61a146109955780637dc0d1d0146109a8578063858aa5e5146109bb57806385b7beb8146109ce57806387f76303146109ee5780638936c5fa14610a0257600080fd5b80634a584432116103f75780635ec88c791161035e5780636aa875b5116103175780636aa875b5146108b25780636b79c38d146108d25780636d154ea51461092e5780636d35bf9114610951578063731f0c2b1461095f578063741b25251461098257600080fd5b80635ec88c79146108455780635f5af1aa146108585780635fc7e71e1461086b578063607ef6c11461087e5780636810dfa6146108915780636a56947e146108a457600080fd5b806351b44619116103b057806351b44619146107d257806351dff989146107e657806352d84d1e146107f957806355ee1fe11461080c578063598ee1cb1461081f5780635c7786051461083257600080fd5b80634a584432146107425780634ada90af146107625780634e79238f1461076b5780634ef4c3e1146107995780634fd42e17146107ac57806351a485e4146107bf57600080fd5b8063267822471161049b5780633bcf7ec1116104545780633bcf7ec1146106d85780633c94786f146106eb57806341c728b9146106ff57806342cbb15c1461071357806344710fbe1461071957806347ef3b3b1461072c57600080fd5b8063267822471461066657806327efe3cb146106795780632a320f611461068c5780632d70db781461069f578063317b0b77146106b2578063391957d7146106c557600080fd5b80631d504dc6116104ed5780631d504dc6146105cd5780631d7b33d7146105e05780631ededc911461060057806321af45691461061557806324008a621461064057806324a3d6221461065357600080fd5b80627e3dd21461053457806302c3bcbb14610551578063117bc97f1461057f57806318c882a5146105945780631c3db2e0146105a75780631cd5acca146105ba575b600080fd5b61053c600181565b60405190151581526020015b60405180910390f35b61057161055f366004615a4a565b60196020526000908152604090205481565b604051908152602001610548565b61059261058d366004615a75565b610e90565b005b61053c6105a2366004615a75565b610f2f565b6105926105b5366004615b8d565b611068565b61053c6105c8366004615a4a565b6110cb565b6105926105db366004615a4a565b6111fa565b6105716105ee366004615a4a565b600f6020526000908152604090205481565b61059261060e366004615bdd565b5050505050565b601754610628906001600160a01b031681565b6040516001600160a01b039091168152602001610548565b61057161064e366004615c38565b611378565b600a54610628906001600160a01b031681565b600154610628906001600160a01b031681565b610592610687366004615c89565b6114af565b61057161069a366004615cb5565b6115a6565b61053c6106ad366004615cf9565b611943565b6105716106c0366004615d16565b611a33565b6105926106d3366004615a4a565b611ada565b61053c6106e6366004615a75565b611ba4565b600a5461053c90600160a01b900460ff1681565b61059261070d366004615d2f565b50505050565b43610571565b610592610727366004615a75565b611cce565b61059261073a366004615d75565b505050505050565b610571610750366004615a4a565b60186020526000908152604090205481565b61057160065481565b61077e610779366004615d2f565b611d53565b60408051938452602084019290925290820152606001610548565b6105716107a7366004615de3565b611d93565b6105716107ba366004615d16565b61204f565b6105926107cd366004615e70565b6120ac565b60165461053c90600160a01b900460ff1681565b6105926107f4366004615d2f565b61228a565b610628610807366004615d16565b6122d9565b61057161081a366004615a4a565b612303565b61059261082d366004615c89565b61237c565b610592610840366004615de3565b505050565b61077e610853366004615a4a565b612470565b610571610866366004615a4a565b6124ab565b610571610879366004615edc565b612524565b61059261088c366004615e70565b6126e4565b61059261089f366004615f40565b6128b9565b61059261070d366004615c38565b6105716108c0366004615a4a565b601d6020526000908152604090205481565b61090a6108e0366004615a4a565b6010602052600090815260409020546001600160e01b03811690600160e01b900463ffffffff1682565b604080516001600160e01b03909316835263ffffffff909116602083015201610548565b61053c61093c366004615a4a565b600c6020526000908152604090205460ff1681565b61059261060e366004615edc565b61053c61096d366004615a4a565b600b6020526000908152604090205460ff1681565b610592610990366004615a4a565b612b43565b601654610628906001600160a01b031681565b600454610628906001600160a01b031681565b6105926109c9366004615a4a565b612bef565b6105716109dc366004615a4a565b601e6020526000908152604090205481565b600a5461053c90600160b01b900460ff1681565b61053c610a10366004615a4a565b60156020526000908152604090205460ff1681565b61090a610a33366004615a4a565b6011602052600090815260409020546001600160e01b03811690600160e01b900463ffffffff1682565b610ab8610a6b366004615a4a565b60096020526000908152604090208054600182015460028301546003840154600485015460069095015460ff94851695939492939192818116916101008104821691620100009091041688565b60408051981515895260208901979097529587019490945260608601929092526080850152151560a0840152151560c0830152151560e082015261010001610548565b61053c610b09366004615cf9565b612c7a565b61053c610b1c366004615fc9565b6001600160a01b038082166000908152600960209081526040808320938616835260059093019052205460ff1692915050565b61053c610b5d366004615a4a565b612d61565b61057160075481565b610571610b79366004615a4a565b601a6020526000908152604090205481565b601f54610628906001600160a01b031681565b6016546001600160a01b0316610628565b610bc46a0c097ce7bc90715b34b9f160241b81565b6040516001600160e01b039091168152602001610548565b610592610bea366004615fc9565b612e20565b610592610bfd366004616052565b612e6f565b610571600e5481565b610c1e610c19366004615a4a565b612fa4565b60405161054891906160da565b600a5461053c90600160b81b900460ff1681565b61057160205481565b610c1e61301a565b610571610c5e366004615fc9565b601260209081526000928352604080842090915290825290205481565b61059261307c565b600254610628906001600160a01b031681565b610571610ca4366004615c38565b6130eb565b610592610cb7366004615d16565b613183565b610571610cca366004615a4a565b601b6020526000908152604090205481565b610cef610cea366004616127565b6131f7565b604051610548919061615c565b610d0f610d0a366004615de3565b6132bf565b60408051928352602083019190915201610548565b610571610d32366004615fc9565b601360209081526000928352604080842090915290825290205481565b610571610d5d366004615a4a565b60146020526000908152604090205481565b610571610d7d366004615edc565b6134dd565b610592610d90366004615a75565b61366e565b610592610da3366004615a4a565b613702565b610571610db6366004615de3565b61377e565b610628610dc9366004615c89565b613c51565b600354610628906001600160a01b031681565b610571610def366004616194565b613c89565b600a5461053c90600160a81b900460ff1681565b61057160055481565b610592610e1f366004615a75565b613dfb565b610592610e32366004615a4a565b613ea8565b610571610e45366004615de3565b613f0c565b610571610e58366004615a4a565b613f29565b610571610e6b366004615a4a565b601c6020526000908152604090205481565b600054610628906001600160a01b031681565b6000546001600160a01b03163314610efb5760405162461bcd60e51b8152602060048201526024808201527f6f6e6c792061646d696e2063616e20736574206d61726b657420746f207072696044820152637661746560e01b60648201526084015b60405180910390fd5b6001600160a01b03909116600090815260096020526040902060060180549115156101000261ff0019909216919091179055565b6001600160a01b03821660009081526009602052604081205460ff16610f675760405162461bcd60e51b8152600401610ef2906161d5565b600a546001600160a01b0316331480610f8a57506000546001600160a01b031633145b610fa65760405162461bcd60e51b8152600401610ef29061621d565b6000546001600160a01b0316331480610fc157506001821515145b610fdd5760405162461bcd60e51b8152600401610ef290616264565b6001600160a01b0383166000818152600c6020908152604091829020805460ff19168615159081179091558251938452606091840182905260069184019190915265426f72726f7760d01b6080840152908201527f71aec636243f9709bb0007ae15e9afb8150ab01716d75fd7573be5cc096e03b09060a0015b60405180910390a150805b92915050565b60408051600180825281830190925260009160208083019080368337019050509050828160008151811061109e5761109e616294565b60200260200101906001600160a01b031690816001600160a01b03168152505061084081836001806128b9565b601f546040516370a0823160e01b81526001600160a01b03838116600483015260009283929116906370a0823190602401602060405180830381865afa158015611119573d6000803e3d6000fd5b505050506040513d601f19601f8201168201806040525081019061113d91906162aa565b111561114b57506001919050565b6001600160a01b03821660009081526015602052604090205460ff161561117457506001919050565b6020546016546040516370a0823160e01b81526001600160a01b038581166004830152909116906370a0823190602401602060405180830381865afa1580156111c1573d6000803e3d6000fd5b505050506040513d601f19601f820116820180604052508101906111e591906162aa565b106111f257506001919050565b506000919050565b806001600160a01b031663f851a4406040518163ffffffff1660e01b8152600401602060405180830381865afa158015611238573d6000803e3d6000fd5b505050506040513d601f19601f8201168201806040525081019061125c91906162c3565b6001600160a01b0316336001600160a01b0316146112cc5760405162461bcd60e51b815260206004820152602760248201527f6f6e6c7920756e6974726f6c6c65722061646d696e2063616e206368616e676560448201526620627261696e7360c81b6064820152608401610ef2565b806001600160a01b031663c1e803346040518163ffffffff1660e01b81526004016020604051808303816000875af115801561130c573d6000803e3d6000fd5b505050506040513d601f19601f8201168201806040525081019061133091906162aa565b156113755760405162461bcd60e51b815260206004820152601560248201527418da185b99d9481b9bdd08185d5d1a1bdc9a5e9959605a1b6044820152606401610ef2565b50565b6001600160a01b03841660009081526009602052604081205460ff166113a25760095b90506114a7565b6000859050806001600160a01b031663842e11eb6040518163ffffffff1660e01b8152600401602060405180830381865afa1580156113e5573d6000803e3d6000fd5b505050506040513d601f19601f8201168201806040525081019061140991906162f6565b156114185760129150506114a7565b60006040518060200160405280886001600160a01b031663aa5af0fd6040518163ffffffff1660e01b8152600401602060405180830381865afa158015611463573d6000803e3d6000fd5b505050506040513d601f19601f8201168201806040525081019061148791906162aa565b905290506114958782614285565b6114a0878683614478565b6000925050505b949350505050565b6114b76145f8565b6115035760405162461bcd60e51b815260206004820152601960248201527f6f6e6c792061646d696e2063616e206772616e7420636f6d70000000000000006044820152606401610ef2565b600061150f8383614621565b9050801561155f5760405162461bcd60e51b815260206004820152601b60248201527f696e73756666696369656e7420636f6d7020666f72206772616e7400000000006044820152606401610ef2565b604080516001600160a01b0385168152602081018490527f98b2f82a3a07f223a0be64b3d0f47711c64dccd1feafb94aa28156b38cd9695c910160405180910390a1505050565b600080546001600160a01b031633146115cc576115c560016006614743565b905061193a565b838511156116315760405162461bcd60e51b815260206004820152602c60248201527f636f6c6c61746572616c20666163746f722063616e6e6f74206265206772656160448201526b0746572207468616e207669760a41b6064820152608401610ef2565b8183111561169a5760405162461bcd60e51b815260206004820152603060248201527f6c69717569646174696f6e207468726573686f6c642063616e6e6f742062652060448201526f067726561746572207468616e207669760841b6064820152608401610ef2565b818411156117105760405162461bcd60e51b815260206004820152603a60248201527f436f6c6c61746572616c20666163746f72206d757374206265206c6f7765722060448201527f7468616e206c69717569646174696f6e207468726573686f6c640000000000006064820152608401610ef2565b6001600160a01b0386166000908152600960205260409020805460ff166117455761173d60096007614743565b91505061193a565b60408051602080820183528682528251908101909252670d99a8cec7e2000082529061177381835190511090565b1561178e5761178460066008614743565b935050505061193a565b6004805460405163fc57d4df60e01b81526001600160a01b038c81169382019390935291169063fc57d4df90602401602060405180830381865afa1580156117da573d6000803e3d6000fd5b505050506040513d601f19601f820116820180604052508101906117fe91906162aa565b61180e57611784600d6009614743565b6118396040518060800160405280600081526020016000815260200160008152602001600081525090565b83600101548160000181815250508884600101819055508360030154816020018181525050878460030181905550836002015481604001818152505086846002018190555083600401548160600181815250508584600401819055507f5721ae0c715b94fc57a23408410a4304519816387f7923072be7156ac236a0128a82600001518b84602001518c86604001518d88606001518e604051611929999897969594939291906001600160a01b03999099168952602089019790975260408801959095526060870193909352608086019190915260a085015260c084015260e08301526101008201526101200190565b60405180910390a160009450505050505b95945050505050565b600a546000906001600160a01b031633148061196957506000546001600160a01b031633145b6119855760405162461bcd60e51b8152600401610ef29061621d565b6000546001600160a01b03163314806119a057506001821515145b6119bc5760405162461bcd60e51b8152600401610ef290616264565b600a8054831515600160b81b0260ff60b81b199091161790556040517fef159d9a32b2472e32b098f954f3ce62d232939f1c207070b584df1814de2de090611a279084906040808252600590820152645365697a6560d81b6060820152901515602082015260800190565b60405180910390a15090565b600080546001600160a01b03163314611a8e5760405162461bcd60e51b815260206004820152601f60248201527f6f6e6c792061646d696e2063616e2073657420636c6f736520666163746f72006044820152606401610ef2565b600580549083905560408051828152602081018590527f3b9670cf975d26958e754b57098eaa2ac914d8d2a31b83257997b9f346110fd991015b60405180910390a160005b9392505050565b6000546001600160a01b03163314611b435760405162461bcd60e51b815260206004820152602660248201527f6f6e6c792061646d696e2063616e2073657420626f72726f772063617020677560448201526530b93234b0b760d11b6064820152608401610ef2565b601780546001600160a01b038381166001600160a01b031983168117909355604080519190921680825260208201939093527feda98690e518e9a05f8ec6837663e188211b2da8f4906648b323f2c1d4434e29910160405180910390a15050565b6001600160a01b03821660009081526009602052604081205460ff16611bdc5760405162461bcd60e51b8152600401610ef2906161d5565b600a546001600160a01b0316331480611bff57506000546001600160a01b031633145b611c1b5760405162461bcd60e51b8152600401610ef29061621d565b6000546001600160a01b0316331480611c3657506001821515145b611c525760405162461bcd60e51b8152600401610ef290616264565b6001600160a01b0383166000818152600b6020908152604091829020805460ff19168615159081179091558251938452606091840182905260049184019190915263135a5b9d60e21b6080840152908201527f71aec636243f9709bb0007ae15e9afb8150ab01716d75fd7573be5cc096e03b09060a001611057565b6000546001600160a01b03163314611d285760405162461bcd60e51b815260206004820152601e60248201527f6f6e6c792061646d696e2063616e2077686974656c69737420757365727300006044820152606401610ef2565b6001600160a01b03919091166000908152601560205260409020805460ff1916911515919091179055565b600080600080600080611d688a8a8a8a6147bc565b925092509250826012811115611d8057611d806162e0565b95509093509150505b9450945094915050565b6001600160a01b0383166000908152600b602052604081205460ff1615611ded5760405162461bcd60e51b815260206004820152600e60248201526d1b5a5b9d081a5cc81c185d5cd95960921b6044820152606401610ef2565b6001600160a01b03841660009081526009602052604090205460ff16611e175760095b9050611ad3565b6001600160a01b0384166000908152601960205260409020548015611fd0576000856001600160a01b0316638f840ddd6040518163ffffffff1660e01b8152600401602060405180830381865afa158015611e76573d6000803e3d6000fd5b505050506040513d601f19601f82011682018060405250810190611e9a91906162aa565b866001600160a01b0316633b1d21a26040518163ffffffff1660e01b8152600401602060405180830381865afa158015611ed8573d6000803e3d6000fd5b505050506040513d601f19601f82011682018060405250810190611efc91906162aa565b876001600160a01b03166347bd37186040518163ffffffff1660e01b8152600401602060405180830381865afa158015611f3a573d6000803e3d6000fd5b505050506040513d601f19601f82011682018060405250810190611f5e91906162aa565b611f689190616329565b611f729190616329565b90506000611f808286614b30565b9050828110611fcd5760405162461bcd60e51b81526020600482015260196024820152781b585c9ad95d08189bdc9c9bddc818d85c081c995858da1959603a1b6044820152606401610ef2565b50505b6001600160a01b038516600090815260096020526040902060060154610100900460ff1615612031576001600160a01b03841660009081526015602052604090205460ff166120315760405162461bcd60e51b8152600401610ef290616341565b61203a85614b3c565b6120448585614cb4565b600095945050505050565b600080546001600160a01b0316331461206e576110626001600b614743565b600680549083905560408051828152602081018590527faeba5a6c40a8ac138134bff1aaa65debf25971188a58804bad717f82f0ec13169101611ac8565b6000546001600160a01b03163314806120cf57506017546001600160a01b031633145b6121395760405162461bcd60e51b815260206004820152603560248201527f6f6e6c792061646d696e206f7220626f72726f772063617020677561726469616044820152746e2063616e2073657420737570706c79206361707360581b6064820152608401610ef2565b8281811580159061214957508082145b6121855760405162461bcd60e51b815260206004820152600d60248201526c1a5b9d985b1a59081a5b9c1d5d609a1b6044820152606401610ef2565b60005b82811015612281578484828181106121a2576121a2616294565b90506020020135601960008989858181106121bf576121bf616294565b90506020020160208101906121d49190615a4a565b6001600160a01b0316815260208101919091526040016000205586868281811061220057612200616294565b90506020020160208101906122159190615a4a565b6001600160a01b03167f9e0ad9cee10bdf36b7fbd38910c0bdff0f275ace679b45b922381c2723d676f886868481811061225157612251616294565b9050602002013560405161226791815260200190565b60405180910390a28061227981616376565b915050612188565b50505050505050565b801580156122985750600082115b1561070d5760405162461bcd60e51b815260206004820152601160248201527072656465656d546f6b656e73207a65726f60781b6044820152606401610ef2565b600d81815481106122e957600080fd5b6000918252602090912001546001600160a01b0316905081565b600080546001600160a01b031633146123225761106260016010614743565b600480546001600160a01b038481166001600160a01b031983168117909355604080519190921680825260208201939093527fd52b2b9b7e9ee655fcb95d2e5b9e0c9f69e7ef2b8e9d2d0ea78402d576d22e229101611ac8565b6123846145f8565b6123d05760405162461bcd60e51b815260206004820152601d60248201527f6f6e6c792061646d696e2063616e2073657420636f6d702073706565640000006044820152606401610ef2565b6123d982612b43565b806123fc576001600160a01b0382166000908152601b6020526040812055612417565b436001600160a01b0383166000908152601b60205260409020555b6001600160a01b0382166000818152601a602052604090819020839055517f386537fa92edc3319af95f1f904dcf1900021e4f3f4e08169a577a09076e66b3906124649084815260200190565b60405180910390a25050565b6000806000806000806124878760008060006147bc565b92509250925082601281111561249f5761249f6162e0565b97919650945092505050565b600080546001600160a01b031633146124ca5761106260016013614743565b600a80546001600160a01b038481166001600160a01b031983168117909355604080519190921680825260208201939093527f0613b6ee6a04f0d09f390e4d9318894b9f6ac7fd83897cd8d18896ba579c401e9101611ac8565b6001600160a01b03851660009081526009602052604081205460ff16158061256557506001600160a01b03851660009081526009602052604090205460ff16155b156125715760096115c5565b6040516395dd919360e01b81526001600160a01b038481166004830152600091908816906395dd919390602401602060405180830381865afa1580156125bb573d6000803e3d6000fd5b505050506040513d601f19601f820116820180604052508101906125df91906162aa565b90506125ea87612d61565b1561265557828110156126505760405162461bcd60e51b815260206004820152602860248201527f43616e206e6f74207265706179206d6f7265207468616e2074686520746f74616044820152676c20626f72726f7760c01b6064820152608401610ef2565b6126d7565b60008061266186614e52565b9193509091506000905082601281111561267d5761267d6162e0565b1461269457816012811115611784576117846162e0565b806126a0576003611784565b60006126bc604051806020016040528060055481525085614e72565b9050808611156126d357601194505050505061193a565b5050505b6000979650505050505050565b6000546001600160a01b031633148061270757506017546001600160a01b031633145b6127715760405162461bcd60e51b815260206004820152603560248201527f6f6e6c792061646d696e206f7220626f72726f772063617020677561726469616044820152746e2063616e2073657420626f72726f77206361707360581b6064820152608401610ef2565b8281811580159061278157508082145b6127bd5760405162461bcd60e51b815260206004820152600d60248201526c1a5b9d985b1a59081a5b9c1d5d609a1b6044820152606401610ef2565b60005b82811015612281578484828181106127da576127da616294565b90506020020135601860008989858181106127f7576127f7616294565b905060200201602081019061280c9190615a4a565b6001600160a01b0316815260208101919091526040016000205586868281811061283857612838616294565b905060200201602081019061284d9190615a4a565b6001600160a01b03167f6f1951b2aad10f3fc81b86d91105b413a5b3f847a34bbc5ce1904201b14438f686868481811061288957612889616294565b9050602002013560405161289f91815260200190565b60405180910390a2806128b181616376565b9150506127c0565b60005b8351811015612a805760008482815181106128d9576128d9616294565b6020908102919091018101516001600160a01b0381166000908152600990925260409091205490915060ff166129495760405162461bcd60e51b81526020600482015260156024820152741b585c9ad95d081b5d5cdd081899481b1a5cdd1959605a1b6044820152606401610ef2565b60018415151415612a165760006040518060200160405280836001600160a01b031663aa5af0fd6040518163ffffffff1660e01b8152600401602060405180830381865afa15801561299f573d6000803e3d6000fd5b505050506040513d601f19601f820116820180604052508101906129c391906162aa565b905290506129d18282614285565b60005b8751811015612a1357612a01838983815181106129f3576129f3616294565b602002602001015184614478565b80612a0b81616376565b9150506129d4565b50505b60018315151415612a6d57612a2a81614b3c565b60005b8651811015612a6b57612a5982888381518110612a4c57612a4c616294565b6020026020010151614cb4565b80612a6381616376565b915050612a2d565b505b5080612a7881616376565b9150506128bc565b5060005b845181101561060e57612aee858281518110612aa257612aa2616294565b602002602001015160146000888581518110612ac057612ac0616294565b60200260200101516001600160a01b03166001600160a01b0316815260200190815260200160002054614621565b60146000878481518110612b0457612b04616294565b60200260200101516001600160a01b03166001600160a01b03168152602001908152602001600020819055508080612b3b90616376565b915050612a84565b6001600160a01b0381166000908152601a6020908152604080832054601b90925282205490914391612b76908390614e8a565b9050600081118015612b885750600083115b1561070d576000612b998285614e96565b6001600160a01b03861660009081526014602052604081205491925090612bc09083614b30565b6001600160a01b038716600090815260146020908152604080832093909355601b905220849055505050505050565b6000546001600160a01b03163314612c495760405162461bcd60e51b815260206004820152601e60248201527f6f6e6c792061646d696e2063616e2073657420636f6d704164647265737300006044820152606401610ef2565b601654600160a01b900460ff1661137557601680546001600160a01b0383166001600160a01b031990911617905550565b600a546000906001600160a01b0316331480612ca057506000546001600160a01b031633145b612cbc5760405162461bcd60e51b8152600401610ef29061621d565b6000546001600160a01b0316331480612cd757506001821515145b612cf35760405162461bcd60e51b8152600401610ef290616264565b600a8054831515600160b01b0260ff60b01b199091161790556040517fef159d9a32b2472e32b098f954f3ce62d232939f1c207070b584df1814de2de090611a279084906040808252600890820152672a3930b739b332b960c11b6060820152901515602082015260800190565b6001600160a01b038116600090815260096020526040812060010154158015612da757506001600160a01b0382166000908152600c602052604090205460ff1615156001145b80156110625750816001600160a01b031663173b99046040518163ffffffff1660e01b8152600401602060405180830381865afa158015612dec573d6000803e3d6000fd5b505050506040513d601f19601f82011682018060405250810190612e1091906162aa565b670de0b6b3a76400001492915050565b336001600160a01b03831614612e655760405162461bcd60e51b815260206004820152600a6024820152693737ba1031aa37b5b2b760b11b6044820152606401610ef2565b6108408282614ea2565b612e776145f8565b612ec35760405162461bcd60e51b815260206004820152601d60248201527f6f6e6c792061646d696e2063616e2073657420636f6d702073706565640000006044820152606401610ef2565b8251825181148015612ed55750815181145b612f335760405162461bcd60e51b815260206004820152602960248201527f436f6d7074726f6c6c65723a3a5f736574436f6d7053706565647320696e76616044820152681b1a59081a5b9c1d5d60ba1b6064820152608401610ef2565b60005b8181101561060e57612f94858281518110612f5357612f53616294565b6020026020010151858381518110612f6d57612f6d616294565b6020026020010151858481518110612f8757612f87616294565b6020026020010151614fe1565b612f9d81616376565b9050612f36565b6001600160a01b038116600090815260086020908152604080832080548251818502810185019093528083526060949383018282801561300d57602002820191906000526020600020905b81546001600160a01b03168152600190910190602001808311612fef575b5093979650505050505050565b6060600d80548060200260200160405190810160405280929190818152602001828054801561307257602002820191906000526020600020905b81546001600160a01b03168152600190910190602001808311613054575b5050505050905090565b6000546001600160a01b031633146130d65760405162461bcd60e51b815260206004820152601e60248201527f6f6e6c792061646d696e2063616e2073657420636f6d704164647265737300006044820152606401610ef2565b6016805460ff60a01b1916600160a01b179055565b600a54600090600160b01b900460ff161561313d5760405162461bcd60e51b81526020600482015260126024820152711d1c985b9cd9995c881a5cc81c185d5cd95960721b6044820152606401610ef2565b600061314a8686856151c0565b905080156131595790506114a7565b61316286614b3c565b61316c8686614cb4565b6131768685614cb4565b60005b9695505050505050565b6000546001600160a01b031633146131f25760405162461bcd60e51b815260206004820152602c60248201527f6f6e6c792061646d696e2063616e20736574205f746f6b656e42616c616e636560448201526b159a5c151a1c995cda1bdb1960a21b6064820152608401610ef2565b602055565b805160609060008167ffffffffffffffff81111561321757613217615aae565b604051908082528060200260200182016040528015613240578160200160208202803683370190505b50905060005b828110156132b757600085828151811061326257613262616294565b602002602001015190506132768133614ea2565b6012811115613287576132876162e0565b83838151811061329957613299616294565b602090810291909101015250806132af81616376565b915050613246565b509392505050565b6004805460405163fc57d4df60e01b81526001600160a01b03868116938201939093526000928392839291169063fc57d4df90602401602060405180830381865afa158015613312573d6000803e3d6000fd5b505050506040513d601f19601f8201168201806040525081019061333691906162aa565b6004805460405163fc57d4df60e01b81526001600160a01b038981169382019390935292935060009291169063fc57d4df90602401602060405180830381865afa158015613388573d6000803e3d6000fd5b505050506040513d601f19601f820116820180604052508101906133ac91906162aa565b90508115806133b9575080155b156133cd57600d60009350935050506134d5565b6000866001600160a01b031663182df0f56040518163ffffffff1660e01b8152600401602060405180830381865afa15801561340d573d6000803e3d6000fd5b505050506040513d601f19601f8201168201806040525081019061343191906162aa565b9050600061344b6040518060200160405280600081525090565b6040805160208082018352600080835283518083018552908152835180830185526006548152845192830190945288825291926134879161526f565b92506134af60405180602001604052808881525060405180602001604052808881525061526f565b91506134bb83836152b7565b90506134c7818b614e72565b600099509750505050505050505b935093915050565b600a54600090600160b81b900460ff161561352c5760405162461bcd60e51b815260206004820152600f60248201526e1cd95a5e99481a5cc81c185d5cd959608a1b6044820152606401610ef2565b6001600160a01b03861660009081526009602052604090205460ff16158061356d57506001600160a01b03851660009081526009602052604090205460ff16155b156135795760096115c5565b846001600160a01b0316635fe3b5676040518163ffffffff1660e01b8152600401602060405180830381865afa1580156135b7573d6000803e3d6000fd5b505050506040513d601f19601f820116820180604052508101906135db91906162c3565b6001600160a01b0316866001600160a01b0316635fe3b5676040518163ffffffff1660e01b8152600401602060405180830381865afa158015613622573d6000803e3d6000fd5b505050506040513d601f19601f8201168201806040525081019061364691906162c3565b6001600160a01b03161461365b5760026115c5565b61366486614b3c565b61316c8684614cb4565b6000546001600160a01b031633146136d45760405162461bcd60e51b815260206004820152602360248201527f6f6e6c792061646d696e2063616e20736574206d61726b657420746f20636f6d6044820152621c195960ea1b6064820152608401610ef2565b6001600160a01b03919091166000908152600960205260409020600601805460ff1916911515919091179055565b6000546001600160a01b0316331461375c5760405162461bcd60e51b815260206004820152601a60248201527f6f6e6c792061646d696e2063616e2073657420566970204e46540000000000006044820152606401610ef2565b601f80546001600160a01b0319166001600160a01b0392909216919091179055565b6001600160a01b0383166000908152600c602052604081205460ff16156137da5760405162461bcd60e51b815260206004820152601060248201526f189bdc9c9bddc81a5cc81c185d5cd95960821b6044820152606401610ef2565b6001600160a01b03841660009081526009602052604090205460ff16613801576009611e10565b6000849050806001600160a01b031663842e11eb6040518163ffffffff1660e01b8152600401602060405180830381865afa158015613844573d6000803e3d6000fd5b505050506040513d601f19601f8201168201806040525081019061386891906162f6565b156138785760125b915050611ad3565b6001600160a01b038516600090815260096020526040902060060154610100900460ff16806138c857506001600160a01b03851660009081526009602052604090206006015462010000900460ff165b15613905576001600160a01b03841660009081526015602052604090205460ff166139055760405162461bcd60e51b8152600401610ef290616341565b6001600160a01b038086166000908152600960209081526040808320938816835260059093019052205460ff16613a0357336001600160a01b038616146139865760405162461bcd60e51b815260206004820152601560248201527439b2b73232b91036bab9ba1031329031aa37b5b2b760591b6044820152606401610ef2565b60006139923386614ea2565b905060008160128111156139a8576139a86162e0565b146139c8578060128111156139bf576139bf6162e0565b92505050611ad3565b6001600160a01b038087166000908152600960209081526040808320938916835260059093019052205460ff16613a0157613a01616391565b505b6004805460405163fc57d4df60e01b81526001600160a01b038881169382019390935291169063fc57d4df90602401602060405180830381865afa158015613a4f573d6000803e3d6000fd5b505050506040513d601f19601f82011682018060405250810190613a7391906162aa565b613a7e57600d613870565b6001600160a01b0385166000908152601860205260409020548015613b5f576000866001600160a01b03166347bd37186040518163ffffffff1660e01b8152600401602060405180830381865afa158015613add573d6000803e3d6000fd5b505050506040513d601f19601f82011682018060405250810190613b0191906162aa565b90506000613b0f8287614b30565b9050828110613b5c5760405162461bcd60e51b81526020600482015260196024820152781b585c9ad95d08189bdc9c9bddc818d85c081c995858da1959603a1b6044820152606401610ef2565b50505b600080613b6f87896000896147bc565b91935090915060009050826012811115613b8b57613b8b6162e0565b14613bad57816012811115613ba257613ba26162e0565b945050505050611ad3565b8015613bba576004613ba2565b600060405180602001604052808a6001600160a01b031663aa5af0fd6040518163ffffffff1660e01b8152600401602060405180830381865afa158015613c05573d6000803e3d6000fd5b505050506040513d601f19601f82011682018060405250810190613c2991906162aa565b90529050613c378982614285565b613c42898983614478565b60009998505050505050505050565b60086020528160005260406000208181548110613c6d57600080fd5b6000918252602090912001546001600160a01b03169150829050565b600080546001600160a01b03163314613ca85761139b60016012614743565b6001600160a01b03851660009081526009602052604090205460ff1615613cd55761139b600a6011614743565b846001600160a01b031663fe9c44ae6040518163ffffffff1660e01b8152600401602060405180830381865afa158015613d13573d6000803e3d6000fd5b505050506040513d601f19601f82011682018060405250810190613d3791906162f6565b506001600160a01b03851660009081526009602052604081208054600160ff199091168117825560068201805461ffff191688151561ff00191617610100881515021762ff000019166201000087151502179055810182905560028101829055600381018290556004810191909155613daf866152f1565b613db8866153da565b6040516001600160a01b03871681527fcf583bb0c569eb967f806b11601c4cb93c10310485c67add5f8362c2f212321f9060200160405180910390a16000613179565b6000546001600160a01b03163314613e725760405162461bcd60e51b815260206004820152603460248201527f6f6e6c792061646d696e2063616e20736574206d61726b657420746f2077686960448201527374656c697374656420626f72726f77206f6e6c7960601b6064820152608401610ef2565b6001600160a01b0390911660009081526009602052604090206006018054911515620100000262ff000019909216919091179055565b61137581600d805480602002602001604051908101604052809291908181526020018280548015613f0257602002820191906000526020600020905b81546001600160a01b03168152600190910190602001808311613ee4575b5050505050611068565b600080613f1a8585856151c0565b90508015612031579050611ad3565b6040516361bfb47160e11b815233600482015260009082908290819081906001600160a01b0385169063c37f68e290602401608060405180830381865afa158015613f78573d6000803e3d6000fd5b505050506040513d601f19601f82011682018060405250810190613f9c91906163a7565b50925092509250826000146140015760405162461bcd60e51b815260206004820152602560248201527f657869744d61726b65743a206765744163636f756e74536e617073686f742066604482015264185a5b195960da1b6064820152608401610ef2565b801561401357613179600c6002614743565b60006140208733856151c0565b9050801561404057614035600e600383615496565b979650505050505050565b6001600160a01b0385166000908152600960209081526040808320338452600581019092529091205460ff1661407e57600098975050505050505050565b3360009081526005820160209081526040808320805460ff1916905560088252808320805482518185028101850190935280835291929091908301828280156140f057602002820191906000526020600020905b81546001600160a01b031681526001909101906020018083116140d2575b5050835193945083925060009150505b8281101561415557896001600160a01b031684828151811061412457614124616294565b60200260200101516001600160a01b0316141561414357809150614155565b8061414d81616376565b915050614100565b5081811061416557614165616391565b33600090815260086020526040902080548190614184906001906163dd565b8154811061419457614194616294565b9060005260206000200160009054906101000a90046001600160a01b03168183815481106141c4576141c4616294565b9060005260206000200160006101000a8154816001600160a01b0302191690836001600160a01b0316021790555080805480614202576142026163f4565b600082815260209020810160001990810180546001600160a01b03191690550190556040517fe699a64c18b07ac5b7301aa273f36a2287239eb9501d81950672794afba29a0d9061426b908c9033906001600160a01b0392831681529116602082015260400190565b60405180910390a160009c9b505050505050505050505050565b6001600160a01b0382166000908152601160209081526040808320601c90925282205490916142ea435b6040518060400160405280601c81526020017f626c6f636b206e756d626572206578636565647320333220626974730000000081525061550e565b835490915060009061430c9063ffffffff80851691600160e01b900416614e8a565b905060008111801561431e5750600083115b1561444d576000614390876001600160a01b03166347bd37186040518163ffffffff1660e01b8152600401602060405180830381865afa158015614366573d6000803e3d6000fd5b505050506040513d601f19601f8201168201806040525081019061438a91906162aa565b8761553e565b9050600061439e8386614e96565b905060008083116143be57604051806020016040528060008152506143c8565b6143c8828461555c565b604080516020810190915288546001600160e01b0316815290915061442b906143f19083615597565b5160408051808201909152601a81527f6e657720696e646578206578636565647320323234206269747300000000000060208201526155c3565b6001600160e01b0316600160e01b63ffffffff8716021787555061073a915050565b801561073a57835463ffffffff8316600160e01b026001600160e01b03909116178455505050505050565b6001600160a01b03838116600090815260116020908152604080832080546013845282852095881685529490925290912080546001600160e01b03909316908190559091801580156144d857506a0c097ce7bc90715b34b9f160241b8210155b156144ee57506a0c097ce7bc90715b34b9f160241b5b600060405180602001604052806145058585614e8a565b90526040516395dd919360e01b81526001600160a01b03888116600483015291925060009161455891908a16906395dd919390602401602060405180830381865afa158015614366573d6000803e3d6000fd5b9050600061456682846155ea565b6001600160a01b0389166000908152601460205260408120549192509061458d9083614b30565b6001600160a01b038a811660008181526014602090815260409182902085905581518781529081018b90529394509092918d16917f1fc3ecc087d8d2d15e23d0032af5a47059c3892d003d8e139fdcb6bb327c99a6910160405180910390a350505050505050505050565b600080546001600160a01b031633148061461c57506002546001600160a01b031633145b905090565b6000806146366016546001600160a01b031690565b6040516370a0823160e01b81523060048201529091506000906001600160a01b038316906370a0823190602401602060405180830381865afa158015614680573d6000803e3d6000fd5b505050506040513d601f19601f820116820180604052508101906146a491906162aa565b90506000841180156146b65750808411155b1561473a5760405163a9059cbb60e01b81526001600160a01b0386811660048301526024820186905283169063a9059cbb906044016020604051808303816000875af115801561470a573d6000803e3d6000fd5b505050506040513d601f19601f8201168201806040525081019061472e91906162f6565b50600092505050611062565b50919392505050565b60007f45b96fe442630264581b197e84bbada861235052c5a1aadfff9ea4e40a969aa0836012811115614778576147786162e0565b83601381111561478a5761478a6162e0565b60408051928352602083019190915260009082015260600160405180910390a1826012811115611ad357611ad36162e0565b60008060006147c9615993565b6001600160a01b03881660009081526008602090815260408083208054825181850281018501909352808352849383018282801561483057602002820191906000526020600020905b81546001600160a01b03168152600190910190602001808311614812575b5050505050905060005b8151811015614ada57600082828151811061485757614857616294565b60209081029190910101516040516361bfb47160e11b81526001600160a01b038e811660048301529192509082169063c37f68e290602401608060405180830381865afa1580156148ac573d6000803e3d6000fd5b505050506040513d601f19601f820116820180604052508101906148d091906163a7565b608089015260608801526040870152935083156148fc57600f6000809750975097505050505050611d89565b6149058c6110cb565b6149375760408051602080820183526001600160a01b0384166000908152600990915291909120600101548152614961565b60408051602080820183526001600160a01b03841660009081526009909152919091206003015481525b60c0860152604080516020810182526080870151815260e087015260048054915163fc57d4df60e01b81526001600160a01b038481169282019290925291169063fc57d4df90602401602060405180830381865afa1580156149c7573d6000803e3d6000fd5b505050506040513d601f19601f820116820180604052508101906149eb91906162aa565b60a08601819052614a0b57600d6000809750975097505050505050611d89565b604080516020810190915260a0860151815261010086015260c085015160e0860151614a4591614a3a9161526f565b86610100015161526f565b610120860181905260408601518651614a5f929190615613565b855261010085015160608601516020870151614a7c929190615613565b60208601526001600160a01b03818116908c161415614ac757614aa98561012001518b8760200151615613565b60208601819052610100860151614ac1918b90615613565b60208601525b5080614ad281616376565b91505061483a565b50602083015183511115614b0b5760208301518351600091614afb916163dd565b6000955095509550505050611d89565b60008084600001518560200151614b2291906163dd565b955095509550505050611d89565b6000611ad38284616329565b6001600160a01b0381166000908152601060209081526040808320601d9092528220549091614b6a436142af565b8354909150600090614b8c9063ffffffff80851691600160e01b900416614e8a565b9050600081118015614b9e5750600083115b15614c8a576000856001600160a01b03166318160ddd6040518163ffffffff1660e01b8152600401602060405180830381865afa158015614be3573d6000803e3d6000fd5b505050506040513d601f19601f82011682018060405250810190614c0791906162aa565b90506000614c158386614e96565b90506000808311614c355760405180602001604052806000815250614c3f565b614c3f828461555c565b604080516020810190915288546001600160e01b03168152909150614c68906143f19083615597565b6001600160e01b0316600160e01b63ffffffff8716021787555061060e915050565b801561060e57835463ffffffff8316600160e01b026001600160e01b039091161784555050505050565b6001600160a01b03828116600090815260106020908152604080832080546012845282852095871685529490925290912080546001600160e01b0390931690819055909180158015614d1457506a0c097ce7bc90715b34b9f160241b8210155b15614d2a57506a0c097ce7bc90715b34b9f160241b5b60006040518060200160405280614d418585614e8a565b90526040516370a0823160e01b81526001600160a01b0387811660048301529192506000918816906370a0823190602401602060405180830381865afa158015614d8f573d6000803e3d6000fd5b505050506040513d601f19601f82011682018060405250810190614db391906162aa565b90506000614dc182846155ea565b6001600160a01b03881660009081526014602052604081205491925090614de89083614b30565b6001600160a01b0389811660008181526014602090815260409182902085905581518781529081018b90529394509092918c16917f2caecd17d02f56fa897705dcc740da2d237c373f70686f4e0d9bd3bf0400ea7a910160405180910390a3505050505050505050565b6000806000614e65846000806000615634565b9250925092509193909250565b600080614e7f8484615947565b90506114a78161596f565b6000611ad382846163dd565b6000611ad3828461640a565b6001600160a01b0382166000908152600960205260408120805460ff16614ecd576009915050611062565b6006810154610100900460ff1615614f17576001600160a01b03831660009081526015602052604090205460ff16614f175760405162461bcd60e51b8152600401610ef290616341565b6001600160a01b038316600090815260058201602052604090205460ff16151560011415614f49576000915050611062565b6001600160a01b03838116600081815260058401602090815260408083208054600160ff199091168117909155600883528184208054918201815584529282902090920180546001600160a01b031916948916948517905581519384528301919091527f3ab23ab0d51cccc0c3085aec51f99228625aa1a922b3a8ca89a26b0f2027a1a5910160405180910390a15060009392505050565b6001600160a01b0383166000908152600960205260409020805460ff1661504a5760405162461bcd60e51b815260206004820152601960248201527f636f6d70206d61726b6574206973206e6f74206c6973746564000000000000006044820152606401610ef2565b6001600160a01b0384166000908152601d602052604090205483146150c85761507284614b3c565b6001600160a01b0384166000818152601d602052604090819020859055517fdeafccd0c0b768b2529f7dcbbe58e155d6023059150b7490ed4535cc3744b92d906150bf9086815260200190565b60405180910390a25b6001600160a01b0384166000908152601c6020526040902054821461070d5760006040518060200160405280866001600160a01b031663aa5af0fd6040518163ffffffff1660e01b8152600401602060405180830381865afa158015615132573d6000803e3d6000fd5b505050506040513d601f19601f8201168201806040525081019061515691906162aa565b905290506151648582614285565b6001600160a01b0385166000818152601c602052604090819020859055517f20af8e791cc98f74b2d7a391c80980ca8e5aebf3d4060bf581997b6acae2e537906151b19086815260200190565b60405180910390a25050505050565b6001600160a01b03831660009081526009602052604081205460ff166151e7576009611e10565b6001600160a01b038085166000908152600960209081526040808320938716835260059093019052205460ff1661521f576000611e10565b60008061522f85878660006147bc565b9193509091506000905082601281111561524b5761524b6162e0565b14615262578160128111156139bf576139bf6162e0565b80156131765760046139bf565b6040805160208101909152600081526040518060200160405280670de0b6b3a76400006152a486600001518660000151614e96565b6152ae9190616429565b90529392505050565b60408051602081019091526000815260405180602001604052806152ae6152ea8660000151670de0b6b3a7640000614e96565b8551615987565b60005b600d5481101561538757816001600160a01b0316600d828154811061531b5761531b616294565b6000918252602090912001546001600160a01b031614156153755760405162461bcd60e51b81526020600482015260146024820152731b585c9ad95d08185b1c9958591e48185919195960621b6044820152606401610ef2565b8061537f81616376565b9150506152f4565b50600d80546001810182556000919091527fd7b6990105719101dabeb77144f2a3385c8033acd3af97e9423a695e81ad1eb50180546001600160a01b0319166001600160a01b0392909216919091179055565b60006153e5436142af565b6001600160a01b03831660009081526010602090815260408083206011909252909120815492935090916001600160e01b031661543b5781546001600160e01b0319166a0c097ce7bc90715b34b9f160241b1782555b80546001600160e01b03166154695780546001600160e01b0319166a0c097ce7bc90715b34b9f160241b1781555b805463ffffffff909316600160e01b026001600160e01b0393841681179091558154909216909117905550565b60007f45b96fe442630264581b197e84bbada861235052c5a1aadfff9ea4e40a969aa08460128111156154cb576154cb6162e0565b8460138111156154dd576154dd6162e0565b604080519283526020830191909152810184905260600160405180910390a18360128111156114a7576114a76162e0565b60008164010000000084106155365760405162461bcd60e51b8152600401610ef2919061644b565b509192915050565b6000611ad361555584670de0b6b3a7640000614e96565b8351615987565b60408051602081019091526000815260405180602001604052806152ae615591866a0c097ce7bc90715b34b9f160241b614e96565b85615987565b60408051602081019091526000815260405180602001604052806152ae85600001518560000151614b30565b600081600160e01b84106155365760405162461bcd60e51b8152600401610ef2919061644b565b60006a0c097ce7bc90715b34b9f160241b615609848460000151614e96565b611ad39190616429565b6000806156208585615947565b905061193a61562e8261596f565b84614b30565b6000806000615641615993565b6001600160a01b0388166000908152600860209081526040808320805482518185028101850190935280835284938301828280156156a857602002820191906000526020600020905b81546001600160a01b0316815260019091019060200180831161568a575b5050505050905060005b8151811015614ada5760008282815181106156cf576156cf616294565b60209081029190910101516040516361bfb47160e11b81526001600160a01b038e811660048301529192509082169063c37f68e290602401608060405180830381865afa158015615724573d6000803e3d6000fd5b505050506040513d601f19601f8201168201806040525081019061574891906163a7565b6080890152606088015260408701529350831561577457600f6000809750975097505050505050611d89565b61577d8c6110cb565b6157af5760408051602080820183526001600160a01b03841660009081526009909152919091206002015481526157d9565b60408051602080820183526001600160a01b03841660009081526009909152919091206004015481525b60c0860152604080516020810182526080870151815260e087015260048054915163fc57d4df60e01b81526001600160a01b038481169282019290925291169063fc57d4df90602401602060405180830381865afa15801561583f573d6000803e3d6000fd5b505050506040513d601f19601f8201168201806040525081019061586391906162aa565b60a0860181905261588357600d6000809750975097505050505050611d89565b604080516020810190915260a0860151815261010086015260c085015160e08601516158b291614a3a9161526f565b6101208601819052604086015186516158cc929190615613565b8552610100850151606086015160208701516158e9929190615613565b60208601526001600160a01b03818116908c161415615934576159168561012001518b8760200151615613565b6020860181905261010086015161592e918b90615613565b60208601525b508061593f81616376565b9150506156b2565b60408051602081019091526000815260405180602001604052806152ae856000015185614e96565b805160009061106290670de0b6b3a764000090616429565b6000611ad38284616429565b6040518061014001604052806000815260200160008152602001600081526020016000815260200160008152602001600081526020016159df6040518060200160405280600081525090565b81526020016159fa6040518060200160405280600081525090565b8152602001615a156040518060200160405280600081525090565b8152602001615a306040518060200160405280600081525090565b905290565b6001600160a01b038116811461137557600080fd5b600060208284031215615a5c57600080fd5b8135611ad381615a35565b801515811461137557600080fd5b60008060408385031215615a8857600080fd5b8235615a9381615a35565b91506020830135615aa381615a67565b809150509250929050565b634e487b7160e01b600052604160045260246000fd5b604051601f8201601f1916810167ffffffffffffffff81118282101715615aed57615aed615aae565b604052919050565b600067ffffffffffffffff821115615b0f57615b0f615aae565b5060051b60200190565b600082601f830112615b2a57600080fd5b81356020615b3f615b3a83615af5565b615ac4565b82815260059290921b84018101918181019086841115615b5e57600080fd5b8286015b84811015615b82578035615b7581615a35565b8352918301918301615b62565b509695505050505050565b60008060408385031215615ba057600080fd5b8235615bab81615a35565b9150602083013567ffffffffffffffff811115615bc757600080fd5b615bd385828601615b19565b9150509250929050565b600080600080600060a08688031215615bf557600080fd5b8535615c0081615a35565b94506020860135615c1081615a35565b93506040860135615c2081615a35565b94979396509394606081013594506080013592915050565b60008060008060808587031215615c4e57600080fd5b8435615c5981615a35565b93506020850135615c6981615a35565b92506040850135615c7981615a35565b9396929550929360600135925050565b60008060408385031215615c9c57600080fd5b8235615ca781615a35565b946020939093013593505050565b600080600080600060a08688031215615ccd57600080fd5b8535615cd881615a35565b97602087013597506040870135966060810135965060800135945092505050565b600060208284031215615d0b57600080fd5b8135611ad381615a67565b600060208284031215615d2857600080fd5b5035919050565b60008060008060808587031215615d4557600080fd5b8435615d5081615a35565b93506020850135615d6081615a35565b93969395505050506040820135916060013590565b60008060008060008060c08789031215615d8e57600080fd5b8635615d9981615a35565b95506020870135615da981615a35565b94506040870135615db981615a35565b93506060870135615dc981615a35565b9598949750929560808101359460a0909101359350915050565b600080600060608486031215615df857600080fd5b8335615e0381615a35565b92506020840135615e1381615a35565b929592945050506040919091013590565b60008083601f840112615e3657600080fd5b50813567ffffffffffffffff811115615e4e57600080fd5b6020830191508360208260051b8501011115615e6957600080fd5b9250929050565b60008060008060408587031215615e8657600080fd5b843567ffffffffffffffff80821115615e9e57600080fd5b615eaa88838901615e24565b90965094506020870135915080821115615ec357600080fd5b50615ed087828801615e24565b95989497509550505050565b600080600080600060a08688031215615ef457600080fd5b8535615eff81615a35565b94506020860135615f0f81615a35565b93506040860135615f1f81615a35565b92506060860135615f2f81615a35565b949793965091946080013592915050565b60008060008060808587031215615f5657600080fd5b843567ffffffffffffffff80821115615f6e57600080fd5b615f7a88838901615b19565b95506020870135915080821115615f9057600080fd5b50615f9d87828801615b19565b9350506040850135615fae81615a67565b91506060850135615fbe81615a67565b939692955090935050565b60008060408385031215615fdc57600080fd5b8235615fe781615a35565b91506020830135615aa381615a35565b600082601f83011261600857600080fd5b81356020616018615b3a83615af5565b82815260059290921b8401810191818101908684111561603757600080fd5b8286015b84811015615b82578035835291830191830161603b565b60008060006060848603121561606757600080fd5b833567ffffffffffffffff8082111561607f57600080fd5b61608b87838801615b19565b945060208601359150808211156160a157600080fd5b6160ad87838801615ff7565b935060408601359150808211156160c357600080fd5b506160d086828701615ff7565b9150509250925092565b6020808252825182820181905260009190848201906040850190845b8181101561611b5783516001600160a01b0316835292840192918401916001016160f6565b50909695505050505050565b60006020828403121561613957600080fd5b813567ffffffffffffffff81111561615057600080fd5b6114a784828501615b19565b6020808252825182820181905260009190848201906040850190845b8181101561611b57835183529284019291840191600101616178565b600080600080608085870312156161aa57600080fd5b84356161b581615a35565b935060208501356161c581615a67565b92506040850135615fae81615a67565b60208082526028908201527f63616e6e6f742070617573652061206d61726b65742074686174206973206e6f6040820152671d081b1a5cdd195960c21b606082015260800190565b60208082526027908201527f6f6e6c7920706175736520677561726469616e20616e642061646d696e2063616040820152666e20706175736560c81b606082015260800190565b6020808252601690820152756f6e6c792061646d696e2063616e20756e706175736560501b604082015260600190565b634e487b7160e01b600052603260045260246000fd5b6000602082840312156162bc57600080fd5b5051919050565b6000602082840312156162d557600080fd5b8151611ad381615a35565b634e487b7160e01b600052602160045260246000fd5b60006020828403121561630857600080fd5b8151611ad381615a67565b634e487b7160e01b600052601160045260246000fd5b6000821982111561633c5761633c616313565b500190565b6020808252818101527f74686973206d61726b65742069732063757272656e746c792070726976617465604082015260600190565b600060001982141561638a5761638a616313565b5060010190565b634e487b7160e01b600052600160045260246000fd5b600080600080608085870312156163bd57600080fd5b505082516020840151604085015160609095015191969095509092509050565b6000828210156163ef576163ef616313565b500390565b634e487b7160e01b600052603160045260246000fd5b600081600019048311821515161561642457616424616313565b500290565b60008261644657634e487b7160e01b600052601260045260246000fd5b500490565b600060208083528351808285015260005b818110156164785785810183015185820160400152820161645c565b8181111561648a576000604083870101525b50601f01601f191692909201604001939250505056fea2646970667358221220c67fe2309596cceac6ae39c8d67f23ba2b6f0a344374cfcadcb6ad6ca7c349c364736f6c634300080a0033",
  "linkReferences": {},
  "deployedLinkReferences": {}
}