{
  "_format": "hh-sol-artifact-1",
  "contractName": "CEther",
  "sourceName": "contracts/CEther.sol",
  "abi": [
    {
      "inputs": [
        {
          "internalType": "contract ComptrollerInterface",
          "name": "comptroller_",
          "type": "address"
        },
        {
          "internalType": "contract InterestRateModel",
          "name": "interestRateModel_",
          "type": "address"
        },
        {
          "internalType": "uint256",
          "name": "initialExchangeRateMantissa_",
          "type": "uint256"
        },
        {
          "internalType": "string",
          "name": "name_",
          "type": "string"
        },
        {
          "internalType": "string",
          "name": "symbol_",
          "type": "string"
        },
        {
          "internalType": "uint8",
          "name": "decimals_",
          "type": "uint8"
        },
        {
          "internalType": "address payable",
          "name": "admin_",
          "type": "address"
        },
        {
          "internalType": "bool",
          "name": "isGLP_",
          "type": "bool"
        }
      ],
      "stateMutability": "nonpayable",
      "type": "constructor"
    },
    {
      "inputs": [],
      "name": "AcceptAdminPendingAdminCheck",
      "type": "error"
    },
    {
      "inputs": [
        {
          "internalType": "uint256",
          "name": "actualAddAmount",
          "type": "uint256"
        }
      ],
      "name": "AddReservesFactorFreshCheck",
      "type": "error"
    },
    {
      "inputs": [],
      "name": "BorrowCashNotAvailable",
      "type": "error"
    },
    {
      "inputs": [
        {
          "internalType": "uint256",
          "name": "errorCode",
          "type": "uint256"
        }
      ],
      "name": "BorrowComptrollerRejection",
      "type": "error"
    },
    {
      "inputs": [],
      "name": "BorrowFreshnessCheck",
      "type": "error"
    },
    {
      "inputs": [
        {
          "internalType": "uint256",
          "name": "errorCode",
          "type": "uint256"
        }
      ],
      "name": "LiquidateAccrueBorrowInterestFailed",
      "type": "error"
    },
    {
      "inputs": [
        {
          "internalType": "uint256",
          "name": "errorCode",
          "type": "uint256"
        }
      ],
      "name": "LiquidateAccrueCollateralInterestFailed",
      "type": "error"
    },
    {
      "inputs": [],
      "name": "LiquidateCloseAmountIsUintMax",
      "type": "error"
    },
    {
      "inputs": [],
      "name": "LiquidateCloseAmountIsZero",
      "type": "error"
    },
    {
      "inputs": [],
      "name": "LiquidateCollateralFreshnessCheck",
      "type": "error"
    },
    {
      "inputs": [
        {
          "internalType": "uint256",
          "name": "errorCode",
          "type": "uint256"
        }
      ],
      "name": "LiquidateComptrollerRejection",
      "type": "error"
    },
    {
      "inputs": [],
      "name": "LiquidateFreshnessCheck",
      "type": "error"
    },
    {
      "inputs": [],
      "name": "LiquidateLiquidatorIsBorrower",
      "type": "error"
    },
    {
      "inputs": [
        {
          "internalType": "uint256",
          "name": "errorCode",
          "type": "uint256"
        }
      ],
      "name": "LiquidateRepayBorrowFreshFailed",
      "type": "error"
    },
    {
      "inputs": [
        {
          "internalType": "uint256",
          "name": "errorCode",
          "type": "uint256"
        }
      ],
      "name": "LiquidateSeizeComptrollerRejection",
      "type": "error"
    },
    {
      "inputs": [],
      "name": "LiquidateSeizeLiquidatorIsBorrower",
      "type": "error"
    },
    {
      "inputs": [
        {
          "internalType": "uint256",
          "name": "errorCode",
          "type": "uint256"
        }
      ],
      "name": "MintComptrollerRejection",
      "type": "error"
    },
    {
      "inputs": [],
      "name": "MintFreshnessCheck",
      "type": "error"
    },
    {
      "inputs": [
        {
          "internalType": "uint256",
          "name": "errorCode",
          "type": "uint256"
        }
      ],
      "name": "RedeemComptrollerRejection",
      "type": "error"
    },
    {
      "inputs": [],
      "name": "RedeemFreshnessCheck",
      "type": "error"
    },
    {
      "inputs": [],
      "name": "RedeemTransferOutNotPossible",
      "type": "error"
    },
    {
      "inputs": [],
      "name": "ReduceReservesAdminCheck",
      "type": "error"
    },
    {
      "inputs": [],
      "name": "ReduceReservesCashNotAvailable",
      "type": "error"
    },
    {
      "inputs": [],
      "name": "ReduceReservesCashValidation",
      "type": "error"
    },
    {
      "inputs": [],
      "name": "ReduceReservesFreshCheck",
      "type": "error"
    },
    {
      "inputs": [
        {
          "internalType": "uint256",
          "name": "errorCode",
          "type": "uint256"
        }
      ],
      "name": "RepayBorrowComptrollerRejection",
      "type": "error"
    },
    {
      "inputs": [],
      "name": "RepayBorrowFreshnessCheck",
      "type": "error"
    },
    {
      "inputs": [],
      "name": "SetAutoCompoundOwnerCheck",
      "type": "error"
    },
    {
      "inputs": [],
      "name": "SetComptrollerOwnerCheck",
      "type": "error"
    },
    {
      "inputs": [],
      "name": "SetInterestRateModelFreshCheck",
      "type": "error"
    },
    {
      "inputs": [],
      "name": "SetInterestRateModelOwnerCheck",
      "type": "error"
    },
    {
      "inputs": [],
      "name": "SetPendingAdminOwnerCheck",
      "type": "error"
    },
    {
      "inputs": [],
      "name": "SetReserveFactorAdminCheck",
      "type": "error"
    },
    {
      "inputs": [],
      "name": "SetReserveFactorBoundsCheck",
      "type": "error"
    },
    {
      "inputs": [],
      "name": "SetReserveFactorFreshCheck",
      "type": "error"
    },
    {
      "inputs": [],
      "name": "SetStakedGlpAddressOwnerCheck",
      "type": "error"
    },
    {
      "inputs": [],
      "name": "SignalTransferOwnerCheck",
      "type": "error"
    },
    {
      "inputs": [
        {
          "internalType": "uint256",
          "name": "errorCode",
          "type": "uint256"
        }
      ],
      "name": "TransferComptrollerRejection",
      "type": "error"
    },
    {
      "inputs": [],
      "name": "TransferNotAllowed",
      "type": "error"
    },
    {
      "inputs": [],
      "name": "TransferNotEnough",
      "type": "error"
    },
    {
      "inputs": [],
      "name": "TransferTooMuch",
      "type": "error"
    },
    {
      "anonymous": false,
      "inputs": [
        {
          "indexed": false,
          "internalType": "uint256",
          "name": "cashPrior",
          "type": "uint256"
        },
        {
          "indexed": false,
          "internalType": "uint256",
          "name": "interestAccumulated",
          "type": "uint256"
        },
        {
          "indexed": false,
          "internalType": "uint256",
          "name": "borrowIndex",
          "type": "uint256"
        },
        {
          "indexed": false,
          "internalType": "uint256",
          "name": "totalBorrows",
          "type": "uint256"
        }
      ],
      "name": "AccrueInterest",
      "type": "event"
    },
    {
      "anonymous": false,
      "inputs": [
        {
          "indexed": true,
          "internalType": "address",
          "name": "owner",
          "type": "address"
        },
        {
          "indexed": true,
          "internalType": "address",
          "name": "spender",
          "type": "address"
        },
        {
          "indexed": false,
          "internalType": "uint256",
          "name": "amount",
          "type": "uint256"
        }
      ],
      "name": "Approval",
      "type": "event"
    },
    {
      "anonymous": false,
      "inputs": [
        {
          "indexed": false,
          "internalType": "address",
          "name": "borrower",
          "type": "address"
        },
        {
          "indexed": false,
          "internalType": "uint256",
          "name": "borrowAmount",
          "type": "uint256"
        },
        {
          "indexed": false,
          "internalType": "uint256",
          "name": "accountBorrows",
          "type": "uint256"
        },
        {
          "indexed": false,
          "internalType": "uint256",
          "name": "totalBorrows",
          "type": "uint256"
        }
      ],
      "name": "Borrow",
      "type": "event"
    },
    {
      "anonymous": false,
      "inputs": [
        {
          "indexed": false,
          "internalType": "address",
          "name": "liquidator",
          "type": "address"
        },
        {
          "indexed": false,
          "internalType": "address",
          "name": "borrower",
          "type": "address"
        },
        {
          "indexed": false,
          "internalType": "uint256",
          "name": "repayAmount",
          "type": "uint256"
        },
        {
          "indexed": false,
          "internalType": "address",
          "name": "cTokenCollateral",
          "type": "address"
        },
        {
          "indexed": false,
          "internalType": "uint256",
          "name": "seizeTokens",
          "type": "uint256"
        }
      ],
      "name": "LiquidateBorrow",
      "type": "event"
    },
    {
      "anonymous": false,
      "inputs": [
        {
          "indexed": false,
          "internalType": "address",
          "name": "minter",
          "type": "address"
        },
        {
          "indexed": false,
          "internalType": "uint256",
          "name": "mintAmount",
          "type": "uint256"
        },
        {
          "indexed": false,
          "internalType": "uint256",
          "name": "mintTokens",
          "type": "uint256"
        }
      ],
      "name": "Mint",
      "type": "event"
    },
    {
      "anonymous": false,
      "inputs": [
        {
          "indexed": false,
          "internalType": "address",
          "name": "oldAdmin",
          "type": "address"
        },
        {
          "indexed": false,
          "internalType": "address",
          "name": "newAdmin",
          "type": "address"
        }
      ],
      "name": "NewAdmin",
      "type": "event"
    },
    {
      "anonymous": false,
      "inputs": [
        {
          "indexed": false,
          "internalType": "contract ComptrollerInterface",
          "name": "oldComptroller",
          "type": "address"
        },
        {
          "indexed": false,
          "internalType": "contract ComptrollerInterface",
          "name": "newComptroller",
          "type": "address"
        }
      ],
      "name": "NewComptroller",
      "type": "event"
    },
    {
      "anonymous": false,
      "inputs": [
        {
          "indexed": false,
          "internalType": "contract InterestRateModel",
          "name": "oldInterestRateModel",
          "type": "address"
        },
        {
          "indexed": false,
          "internalType": "contract InterestRateModel",
          "name": "newInterestRateModel",
          "type": "address"
        }
      ],
      "name": "NewMarketInterestRateModel",
      "type": "event"
    },
    {
      "anonymous": false,
      "inputs": [
        {
          "indexed": false,
          "internalType": "address",
          "name": "oldPendingAdmin",
          "type": "address"
        },
        {
          "indexed": false,
          "internalType": "address",
          "name": "newPendingAdmin",
          "type": "address"
        }
      ],
      "name": "NewPendingAdmin",
      "type": "event"
    },
    {
      "anonymous": false,
      "inputs": [
        {
          "indexed": false,
          "internalType": "uint256",
          "name": "oldReserveFactorMantissa",
          "type": "uint256"
        },
        {
          "indexed": false,
          "internalType": "uint256",
          "name": "newReserveFactorMantissa",
          "type": "uint256"
        }
      ],
      "name": "NewReserveFactor",
      "type": "event"
    },
    {
      "anonymous": false,
      "inputs": [
        {
          "indexed": false,
          "internalType": "address",
          "name": "redeemer",
          "type": "address"
        },
        {
          "indexed": false,
          "internalType": "uint256",
          "name": "redeemAmount",
          "type": "uint256"
        },
        {
          "indexed": false,
          "internalType": "uint256",
          "name": "redeemTokens",
          "type": "uint256"
        }
      ],
      "name": "Redeem",
      "type": "event"
    },
    {
      "anonymous": false,
      "inputs": [
        {
          "indexed": false,
          "internalType": "address",
          "name": "payer",
          "type": "address"
        },
        {
          "indexed": false,
          "internalType": "address",
          "name": "borrower",
          "type": "address"
        },
        {
          "indexed": false,
          "internalType": "uint256",
          "name": "repayAmount",
          "type": "uint256"
        },
        {
          "indexed": false,
          "internalType": "uint256",
          "name": "accountBorrows",
          "type": "uint256"
        },
        {
          "indexed": false,
          "internalType": "uint256",
          "name": "totalBorrows",
          "type": "uint256"
        }
      ],
      "name": "RepayBorrow",
      "type": "event"
    },
    {
      "anonymous": false,
      "inputs": [
        {
          "indexed": false,
          "internalType": "address",
          "name": "benefactor",
          "type": "address"
        },
        {
          "indexed": false,
          "internalType": "uint256",
          "name": "addAmount",
          "type": "uint256"
        },
        {
          "indexed": false,
          "internalType": "uint256",
          "name": "newTotalReserves",
          "type": "uint256"
        }
      ],
      "name": "ReservesAdded",
      "type": "event"
    },
    {
      "anonymous": false,
      "inputs": [
        {
          "indexed": false,
          "internalType": "address",
          "name": "admin",
          "type": "address"
        },
        {
          "indexed": false,
          "internalType": "uint256",
          "name": "reduceAmount",
          "type": "uint256"
        },
        {
          "indexed": false,
          "internalType": "uint256",
          "name": "newTotalReserves",
          "type": "uint256"
        }
      ],
      "name": "ReservesReduced",
      "type": "event"
    },
    {
      "anonymous": false,
      "inputs": [
        {
          "indexed": true,
          "internalType": "address",
          "name": "from",
          "type": "address"
        },
        {
          "indexed": true,
          "internalType": "address",
          "name": "to",
          "type": "address"
        },
        {
          "indexed": false,
          "internalType": "uint256",
          "name": "amount",
          "type": "uint256"
        }
      ],
      "name": "Transfer",
      "type": "event"
    },
    {
      "inputs": [],
      "name": "NO_ERROR",
      "outputs": [
        {
          "internalType": "uint256",
          "name": "",
          "type": "uint256"
        }
      ],
      "stateMutability": "view",
      "type": "function"
    },
    {
      "inputs": [],
      "name": "WETH",
      "outputs": [
        {
          "internalType": "address",
          "name": "",
          "type": "address"
        }
      ],
      "stateMutability": "view",
      "type": "function"
    },
    {
      "inputs": [],
      "name": "_acceptAdmin",
      "outputs": [
        {
          "internalType": "uint256",
          "name": "",
          "type": "uint256"
        }
      ],
      "stateMutability": "nonpayable",
      "type": "function"
    },
    {
      "inputs": [],
      "name": "_addReserves",
      "outputs": [
        {
          "internalType": "uint256",
          "name": "",
          "type": "uint256"
        }
      ],
      "stateMutability": "payable",
      "type": "function"
    },
    {
      "inputs": [
        {
          "internalType": "uint256",
          "name": "reduceAmount",
          "type": "uint256"
        }
      ],
      "name": "_reduceReserves",
      "outputs": [
        {
          "internalType": "uint256",
          "name": "",
          "type": "uint256"
        }
      ],
      "stateMutability": "nonpayable",
      "type": "function"
    },
    {
      "inputs": [
        {
          "internalType": "bool",
          "name": "autocompound_",
          "type": "bool"
        }
      ],
      "name": "_setAutocompoundRewards",
      "outputs": [
        {
          "internalType": "uint256",
          "name": "",
          "type": "uint256"
        }
      ],
      "stateMutability": "nonpayable",
      "type": "function"
    },
    {
      "inputs": [
        {
          "internalType": "contract ComptrollerInterface",
          "name": "newComptroller",
          "type": "address"
        }
      ],
      "name": "_setComptroller",
      "outputs": [
        {
          "internalType": "uint256",
          "name": "",
          "type": "uint256"
        }
      ],
      "stateMutability": "nonpayable",
      "type": "function"
    },
    {
      "inputs": [
        {
          "internalType": "contract IStakedGlp",
          "name": "stakedGLP_",
          "type": "address"
        },
        {
          "internalType": "contract IGmxRewardRouter",
          "name": "glpRewardRouter_",
          "type": "address"
        },
        {
          "internalType": "address",
          "name": "glpManager_",
          "type": "address"
        }
      ],
      "name": "_setGlpAddresses",
      "outputs": [
        {
          "internalType": "uint256",
          "name": "",
          "type": "uint256"
        }
      ],
      "stateMutability": "nonpayable",
      "type": "function"
    },
    {
      "inputs": [
        {
          "internalType": "contract InterestRateModel",
          "name": "newInterestRateModel",
          "type": "address"
        }
      ],
      "name": "_setInterestRateModel",
      "outputs": [
        {
          "internalType": "uint256",
          "name": "",
          "type": "uint256"
        }
      ],
      "stateMutability": "nonpayable",
      "type": "function"
    },
    {
      "inputs": [
        {
          "internalType": "address payable",
          "name": "newPendingAdmin",
          "type": "address"
        }
      ],
      "name": "_setPendingAdmin",
      "outputs": [
        {
          "internalType": "uint256",
          "name": "",
          "type": "uint256"
        }
      ],
      "stateMutability": "nonpayable",
      "type": "function"
    },
    {
      "inputs": [
        {
          "internalType": "uint256",
          "name": "newReserveFactorMantissa",
          "type": "uint256"
        }
      ],
      "name": "_setReserveFactor",
      "outputs": [
        {
          "internalType": "uint256",
          "name": "",
          "type": "uint256"
        }
      ],
      "stateMutability": "nonpayable",
      "type": "function"
    },
    {
      "inputs": [
        {
          "internalType": "address",
          "name": "recipient",
          "type": "address"
        }
      ],
      "name": "_signalTransfer",
      "outputs": [
        {
          "internalType": "uint256",
          "name": "",
          "type": "uint256"
        }
      ],
      "stateMutability": "nonpayable",
      "type": "function"
    },
    {
      "inputs": [],
      "name": "accrualBlockNumber",
      "outputs": [
        {
          "internalType": "uint256",
          "name": "",
          "type": "uint256"
        }
      ],
      "stateMutability": "view",
      "type": "function"
    },
    {
      "inputs": [],
      "name": "accrueInterest",
      "outputs": [
        {
          "internalType": "uint256",
          "name": "",
          "type": "uint256"
        }
      ],
      "stateMutability": "nonpayable",
      "type": "function"
    },
    {
      "inputs": [],
      "name": "admin",
      "outputs": [
        {
          "internalType": "address payable",
          "name": "",
          "type": "address"
        }
      ],
      "stateMutability": "view",
      "type": "function"
    },
    {
      "inputs": [
        {
          "internalType": "address",
          "name": "owner",
          "type": "address"
        },
        {
          "internalType": "address",
          "name": "spender",
          "type": "address"
        }
      ],
      "name": "allowance",
      "outputs": [
        {
          "internalType": "uint256",
          "name": "",
          "type": "uint256"
        }
      ],
      "stateMutability": "view",
      "type": "function"
    },
    {
      "inputs": [
        {
          "internalType": "address",
          "name": "spender",
          "type": "address"
        },
        {
          "internalType": "uint256",
          "name": "amount",
          "type": "uint256"
        }
      ],
      "name": "approve",
      "outputs": [
        {
          "internalType": "bool",
          "name": "",
          "type": "bool"
        }
      ],
      "stateMutability": "nonpayable",
      "type": "function"
    },
    {
      "inputs": [],
      "name": "autocompound",
      "outputs": [
        {
          "internalType": "bool",
          "name": "",
          "type": "bool"
        }
      ],
      "stateMutability": "view",
      "type": "function"
    },
    {
      "inputs": [
        {
          "internalType": "address",
          "name": "owner",
          "type": "address"
        }
      ],
      "name": "balanceOf",
      "outputs": [
        {
          "internalType": "uint256",
          "name": "",
          "type": "uint256"
        }
      ],
      "stateMutability": "view",
      "type": "function"
    },
    {
      "inputs": [
        {
          "internalType": "address",
          "name": "owner",
          "type": "address"
        }
      ],
      "name": "balanceOfUnderlying",
      "outputs": [
        {
          "internalType": "uint256",
          "name": "",
          "type": "uint256"
        }
      ],
      "stateMutability": "nonpayable",
      "type": "function"
    },
    {
      "inputs": [
        {
          "internalType": "uint256",
          "name": "borrowAmount",
          "type": "uint256"
        }
      ],
      "name": "borrow",
      "outputs": [
        {
          "internalType": "uint256",
          "name": "",
          "type": "uint256"
        }
      ],
      "stateMutability": "nonpayable",
      "type": "function"
    },
    {
      "inputs": [
        {
          "internalType": "address",
          "name": "account",
          "type": "address"
        }
      ],
      "name": "borrowBalanceCurrent",
      "outputs": [
        {
          "internalType": "uint256",
          "name": "",
          "type": "uint256"
        }
      ],
      "stateMutability": "nonpayable",
      "type": "function"
    },
    {
      "inputs": [
        {
          "internalType": "address",
          "name": "account",
          "type": "address"
        }
      ],
      "name": "borrowBalanceStored",
      "outputs": [
        {
          "internalType": "uint256",
          "name": "",
          "type": "uint256"
        }
      ],
      "stateMutability": "view",
      "type": "function"
    },
    {
      "inputs": [],
      "name": "borrowIndex",
      "outputs": [
        {
          "internalType": "uint256",
          "name": "",
          "type": "uint256"
        }
      ],
      "stateMutability": "view",
      "type": "function"
    },
    {
      "inputs": [],
      "name": "borrowRatePerBlock",
      "outputs": [
        {
          "internalType": "uint256",
          "name": "",
          "type": "uint256"
        }
      ],
      "stateMutability": "view",
      "type": "function"
    },
    {
      "inputs": [],
      "name": "comptroller",
      "outputs": [
        {
          "internalType": "contract ComptrollerInterface",
          "name": "",
          "type": "address"
        }
      ],
      "stateMutability": "view",
      "type": "function"
    },
    {
      "inputs": [],
      "name": "decimals",
      "outputs": [
        {
          "internalType": "uint8",
          "name": "",
          "type": "uint8"
        }
      ],
      "stateMutability": "view",
      "type": "function"
    },
    {
      "inputs": [],
      "name": "exchangeRateCurrent",
      "outputs": [
        {
          "internalType": "uint256",
          "name": "",
          "type": "uint256"
        }
      ],
      "stateMutability": "nonpayable",
      "type": "function"
    },
    {
      "inputs": [],
      "name": "exchangeRateStored",
      "outputs": [
        {
          "internalType": "uint256",
          "name": "",
          "type": "uint256"
        }
      ],
      "stateMutability": "view",
      "type": "function"
    },
    {
      "inputs": [
        {
          "internalType": "address",
          "name": "account",
          "type": "address"
        }
      ],
      "name": "getAccountSnapshot",
      "outputs": [
        {
          "internalType": "uint256",
          "name": "",
          "type": "uint256"
        },
        {
          "internalType": "uint256",
          "name": "",
          "type": "uint256"
        },
        {
          "internalType": "uint256",
          "name": "",
          "type": "uint256"
        },
        {
          "internalType": "uint256",
          "name": "",
          "type": "uint256"
        }
      ],
      "stateMutability": "view",
      "type": "function"
    },
    {
      "inputs": [],
      "name": "getCash",
      "outputs": [
        {
          "internalType": "uint256",
          "name": "",
          "type": "uint256"
        }
      ],
      "stateMutability": "view",
      "type": "function"
    },
    {
      "inputs": [],
      "name": "glpManager",
      "outputs": [
        {
          "internalType": "address",
          "name": "",
          "type": "address"
        }
      ],
      "stateMutability": "view",
      "type": "function"
    },
    {
      "inputs": [],
      "name": "glpRewardRouter",
      "outputs": [
        {
          "internalType": "contract IGmxRewardRouter",
          "name": "",
          "type": "address"
        }
      ],
      "stateMutability": "view",
      "type": "function"
    },
    {
      "inputs": [],
      "name": "gmxToken",
      "outputs": [
        {
          "internalType": "address",
          "name": "",
          "type": "address"
        }
      ],
      "stateMutability": "view",
      "type": "function"
    },
    {
      "inputs": [
        {
          "internalType": "contract ComptrollerInterface",
          "name": "comptroller_",
          "type": "address"
        },
        {
          "internalType": "contract InterestRateModel",
          "name": "interestRateModel_",
          "type": "address"
        },
        {
          "internalType": "uint256",
          "name": "initialExchangeRateMantissa_",
          "type": "uint256"
        },
        {
          "internalType": "string",
          "name": "name_",
          "type": "string"
        },
        {
          "internalType": "string",
          "name": "symbol_",
          "type": "string"
        },
        {
          "internalType": "uint8",
          "name": "decimals_",
          "type": "uint8"
        },
        {
          "internalType": "bool",
          "name": "isGLP_",
          "type": "bool"
        }
      ],
      "name": "initialize",
      "outputs": [],
      "stateMutability": "nonpayable",
      "type": "function"
    },
    {
      "inputs": [],
      "name": "interestRateModel",
      "outputs": [
        {
          "internalType": "contract InterestRateModel",
          "name": "",
          "type": "address"
        }
      ],
      "stateMutability": "view",
      "type": "function"
    },
    {
      "inputs": [],
      "name": "isCToken",
      "outputs": [
        {
          "internalType": "bool",
          "name": "",
          "type": "bool"
        }
      ],
      "stateMutability": "view",
      "type": "function"
    },
    {
      "inputs": [],
      "name": "isGLP",
      "outputs": [
        {
          "internalType": "bool",
          "name": "",
          "type": "bool"
        }
      ],
      "stateMutability": "view",
      "type": "function"
    },
    {
      "inputs": [
        {
          "internalType": "address",
          "name": "borrower",
          "type": "address"
        },
        {
          "internalType": "contract CToken",
          "name": "cTokenCollateral",
          "type": "address"
        }
      ],
      "name": "liquidateBorrow",
      "outputs": [],
      "stateMutability": "payable",
      "type": "function"
    },
    {
      "inputs": [],
      "name": "mint",
      "outputs": [],
      "stateMutability": "payable",
      "type": "function"
    },
    {
      "inputs": [],
      "name": "name",
      "outputs": [
        {
          "internalType": "string",
          "name": "",
          "type": "string"
        }
      ],
      "stateMutability": "view",
      "type": "function"
    },
    {
      "inputs": [],
      "name": "pendingAdmin",
      "outputs": [
        {
          "internalType": "address payable",
          "name": "",
          "type": "address"
        }
      ],
      "stateMutability": "view",
      "type": "function"
    },
    {
      "inputs": [],
      "name": "protocolSeizeShareMantissa",
      "outputs": [
        {
          "internalType": "uint256",
          "name": "",
          "type": "uint256"
        }
      ],
      "stateMutability": "view",
      "type": "function"
    },
    {
      "inputs": [
        {
          "internalType": "uint256",
          "name": "redeemTokens",
          "type": "uint256"
        }
      ],
      "name": "redeem",
      "outputs": [
        {
          "internalType": "uint256",
          "name": "",
          "type": "uint256"
        }
      ],
      "stateMutability": "nonpayable",
      "type": "function"
    },
    {
      "inputs": [
        {
          "internalType": "uint256",
          "name": "redeemAmount",
          "type": "uint256"
        }
      ],
      "name": "redeemUnderlying",
      "outputs": [
        {
          "internalType": "uint256",
          "name": "",
          "type": "uint256"
        }
      ],
      "stateMutability": "nonpayable",
      "type": "function"
    },
    {
      "inputs": [],
      "name": "repayBorrow",
      "outputs": [],
      "stateMutability": "payable",
      "type": "function"
    },
    {
      "inputs": [
        {
          "internalType": "address",
          "name": "borrower",
          "type": "address"
        }
      ],
      "name": "repayBorrowBehalf",
      "outputs": [],
      "stateMutability": "payable",
      "type": "function"
    },
    {
      "inputs": [],
      "name": "reserveFactorMantissa",
      "outputs": [
        {
          "internalType": "uint256",
          "name": "",
          "type": "uint256"
        }
      ],
      "stateMutability": "view",
      "type": "function"
    },
    {
      "inputs": [],
      "name": "sbfGMX",
      "outputs": [
        {
          "internalType": "address",
          "name": "",
          "type": "address"
        }
      ],
      "stateMutability": "view",
      "type": "function"
    },
    {
      "inputs": [
        {
          "internalType": "address",
          "name": "liquidator",
          "type": "address"
        },
        {
          "internalType": "address",
          "name": "borrower",
          "type": "address"
        },
        {
          "internalType": "uint256",
          "name": "seizeTokens",
          "type": "uint256"
        }
      ],
      "name": "seize",
      "outputs": [
        {
          "internalType": "uint256",
          "name": "",
          "type": "uint256"
        }
      ],
      "stateMutability": "nonpayable",
      "type": "function"
    },
    {
      "inputs": [],
      "name": "stakedGLP",
      "outputs": [
        {
          "internalType": "contract IStakedGlp",
          "name": "",
          "type": "address"
        }
      ],
      "stateMutability": "view",
      "type": "function"
    },
    {
      "inputs": [],
      "name": "stakedGmxTracker",
      "outputs": [
        {
          "internalType": "contract IRewardTracker",
          "name": "",
          "type": "address"
        }
      ],
      "stateMutability": "view",
      "type": "function"
    },
    {
      "inputs": [],
      "name": "supplyRatePerBlock",
      "outputs": [
        {
          "internalType": "uint256",
          "name": "",
          "type": "uint256"
        }
      ],
      "stateMutability": "view",
      "type": "function"
    },
    {
      "inputs": [],
      "name": "symbol",
      "outputs": [
        {
          "internalType": "string",
          "name": "",
          "type": "string"
        }
      ],
      "stateMutability": "view",
      "type": "function"
    },
    {
      "inputs": [],
      "name": "totalBorrows",
      "outputs": [
        {
          "internalType": "uint256",
          "name": "",
          "type": "uint256"
        }
      ],
      "stateMutability": "view",
      "type": "function"
    },
    {
      "inputs": [],
      "name": "totalBorrowsCurrent",
      "outputs": [
        {
          "internalType": "uint256",
          "name": "",
          "type": "uint256"
        }
      ],
      "stateMutability": "nonpayable",
      "type": "function"
    },
    {
      "inputs": [],
      "name": "totalReserves",
      "outputs": [
        {
          "internalType": "uint256",
          "name": "",
          "type": "uint256"
        }
      ],
      "stateMutability": "view",
      "type": "function"
    },
    {
      "inputs": [],
      "name": "totalSupply",
      "outputs": [
        {
          "internalType": "uint256",
          "name": "",
          "type": "uint256"
        }
      ],
      "stateMutability": "view",
      "type": "function"
    },
    {
      "inputs": [
        {
          "internalType": "address",
          "name": "dst",
          "type": "address"
        },
        {
          "internalType": "uint256",
          "name": "amount",
          "type": "uint256"
        }
      ],
      "name": "transfer",
      "outputs": [
        {
          "internalType": "bool",
          "name": "",
          "type": "bool"
        }
      ],
      "stateMutability": "nonpayable",
      "type": "function"
    },
    {
      "inputs": [
        {
          "internalType": "address",
          "name": "src",
          "type": "address"
        },
        {
          "internalType": "address",
          "name": "dst",
          "type": "address"
        },
        {
          "internalType": "uint256",
          "name": "amount",
          "type": "uint256"
        }
      ],
      "name": "transferFrom",
      "outputs": [
        {
          "internalType": "bool",
          "name": "",
          "type": "bool"
        }
      ],
      "stateMutability": "nonpayable",
      "type": "function"
    },
    {
      "stateMutability": "payable",
      "type": "receive"
    }
  ],
  "bytecode": "0x60a06040526000805476a906f338cb21815cbc4bc87ace9e68c87ef8d8f10000006301000000600160b81b0319909116179055600180546001600160a01b0319908116732f546ad4edd93b956c8999be404cdcafde3e89ae1790915560028054821673fc5a1a6eb076a2c7ad06ed22c90d7e710e35ad0a17905560038054821673908c4d94d34924765f1edc22a1dd098397c59dd417905560048054821673d2d1162512f927a7e282ef43a362659e4f2a728f1790557382af49447d8a07e3bd95bd0d56f35241523fbab16080526005805490911673321f653eed006ad1c29d174e17d96351bde22649179055348015620000f957600080fd5b50604051620046d0380380620046d08339810160408190526200011c916200087d565b60088054610100600160a81b0319163361010002179055620001448888888888888762000178565b50600880546001600160a01b0390921661010002610100600160a81b031990921691909117905550620009bd945050505050565b60085461010090046001600160a01b03163314620001e95760405162461bcd60e51b8152602060048201526024808201527f6f6e6c792061646d696e206d617920696e697469616c697a6520746865206d616044820152631c9ad95d60e21b60648201526084015b60405180910390fd5b600e54158015620001fa5750600f54155b620002545760405162461bcd60e51b815260206004820152602360248201527f6d61726b6574206d6179206f6e6c7920626520696e697469616c697a6564206f6044820152626e636560e81b6064820152608401620001e0565b600c85905584620002c15760405162461bcd60e51b815260206004820152603060248201527f696e697469616c2065786368616e67652072617465206d75737420626520677260448201526f32b0ba32b9103a3430b7103d32b9379760811b6064820152608401620001e0565b6000620002ce88620003f9565b90508015620003205760405162461bcd60e51b815260206004820152601a60248201527f73657474696e6720636f6d7074726f6c6c6572206661696c65640000000000006044820152606401620001e0565b43600e55670de0b6b3a7640000600f556200033b8762000551565b90508015620003985760405162461bcd60e51b815260206004820152602260248201527f73657474696e6720696e7465726573742072617465206d6f64656c206661696c604482015261195960f21b6064820152608401620001e0565b8451620003ad906006906020880190620006ce565b508351620003c3906007906020870190620006ce565b50506008805460ff90931660ff19938416179055600080549115156101000290921661ffff199091161760011790555050505050565b60085460009061010090046001600160a01b031633146200042d5760405163d219dc1f60e01b815260040160405180910390fd5b600a5460408051623f1ee960e11b815290516001600160a01b0392831692851691627e3dd29160048083019260209291908290030181865afa15801562000478573d6000803e3d6000fd5b505050506040513d601f19601f820116820180604052508101906200049e91906200095b565b620004ec5760405162461bcd60e51b815260206004820152601c60248201527f6d61726b6572206d6574686f642072657475726e65642066616c7365000000006044820152606401620001e0565b600a80546001600160a01b0319166001600160a01b0385811691821790925560408051928416835260208301919091527f7ac369dbd14fa5ea3f473ed67cc9d598964a77501540ba6751eb0b3decf5870d91015b60405180910390a150600092915050565b600854600090819061010090046001600160a01b03163314620005875760405163407fded560e01b815260040160405180910390fd5b43600e5414620005aa57604051630be2a5cb60e11b815260040160405180910390fd5b600b60009054906101000a90046001600160a01b03169050826001600160a01b0316632191f92a6040518163ffffffff1660e01b8152600401602060405180830381865afa15801562000601573d6000803e3d6000fd5b505050506040513d601f19601f820116820180604052508101906200062791906200095b565b620006755760405162461bcd60e51b815260206004820152601c60248201527f6d61726b6572206d6574686f642072657475726e65642066616c7365000000006044820152606401620001e0565b600b80546001600160a01b0319166001600160a01b0385811691821790925560408051928416835260208301919091527fedffc32e068c7c95dfd4bdfd5c4d939a084d6b11c4199eac8436ed234d72f926910162000540565b828054620006dc9062000980565b90600052602060002090601f0160209004810192826200070057600085556200074b565b82601f106200071b57805160ff19168380011785556200074b565b828001600101855582156200074b579182015b828111156200074b5782518255916020019190600101906200072e565b50620007599291506200075d565b5090565b5b808211156200075957600081556001016200075e565b6001600160a01b03811681146200078a57600080fd5b50565b634e487b7160e01b600052604160045260246000fd5b600082601f830112620007b557600080fd5b81516001600160401b0380821115620007d257620007d26200078d565b604051601f8301601f19908116603f01168101908282118183101715620007fd57620007fd6200078d565b816040528381526020925086838588010111156200081a57600080fd5b600091505b838210156200083e57858201830151818301840152908201906200081f565b83821115620008505760008385830101525b9695505050505050565b8051620008678162000774565b919050565b805180151581146200086757600080fd5b600080600080600080600080610100898b0312156200089b57600080fd5b8851620008a88162000774565b60208a0151909850620008bb8162000774565b60408a015160608b015191985096506001600160401b0380821115620008e057600080fd5b620008ee8c838d01620007a3565b965060808b01519150808211156200090557600080fd5b50620009148b828c01620007a3565b94505060a089015160ff811681146200092c57600080fd5b92506200093c60c08a016200085a565b91506200094c60e08a016200086c565b90509295985092959890939650565b6000602082840312156200096e57600080fd5b62000979826200086c565b9392505050565b600181811c908216806200099557607f821691505b60208210811415620009b757634e487b7160e01b600052602260045260246000fd5b50919050565b608051613ce2620009ee60003960008181610827015281816113940152818161142b01526119760152613ce26000f3fe60806040526004361061039b5760003560e01c8063852a12e3116101dc578063c37f68e211610102578063f3fdb15a116100a0578063fca7820b1161006f578063fca7820b14610a7b578063fcb6414714610a9b578063fe9c44ae14610aa3578063ff503ed214610ab857600080fd5b8063f3fdb15a14610a01578063f851a44014610a21578063f8f9da2814610a46578063fa6db1bc14610a5b57600080fd5b8063dd62ed3e116100dc578063dd62ed3e14610973578063e5974619146109b9578063e9c714f2146109cc578063f2b3abbd146109e157600080fd5b8063c37f68e2146108f3578063c5ebeaec14610933578063db006a751461095357600080fd5b8063aae40a2a1161017a578063b71d1a0c11610149578063b71d1a0c1461087e578063bae49e991461089e578063bc3b7a18146108be578063bd6d894d146108de57600080fd5b8063aae40a2a14610802578063ad5c464814610815578063ae9d70b014610849578063b2a02ff11461085e57600080fd5b806395dd9193116101b657806395dd919314610797578063a6afed95146107b7578063a9059cbb146107cc578063aa5af0fd146107ec57600080fd5b8063852a12e31461074c5780638f840ddd1461076c57806395d89b411461078257600080fd5b80633b1d21a2116102c1578063601a0bf11161025f5780636c540baf1161022e5780636c540baf146106cc57806370a08231146106e257806373acee9814610718578063842e11eb1461072d57600080fd5b8063601a0bf1146106555780636752e70214610675578063686722311461069057806369ab3250146106b757600080fd5b80634e4d9fea1161029b5780634e4d9fea146105ed5780635b30cf55146105f55780635fe3b567146106155780635fe609db1461063557600080fd5b80633b1d21a2146105a25780634576b5db146105b757806347bd3718146105d757600080fd5b806318160ddd1161033957806326d9687c1161030857806326d9687c14610516578063313ce5671461053657806336818b01146105625780633af9e6691461058257600080fd5b806318160ddd146104ab578063182df0f5146104c157806323b872dd146104d657806326782247146104f657600080fd5b80630ce4018a116103755780630ce4018a1461043f5780631249c58b1461045f578063173b99041461046757806317bfdfbc1461048b57600080fd5b806306dd74e5146103b057806306fdde03146103ed578063095ea7b31461040f57600080fd5b366103ab576103a934610ad8565b005b600080fd5b3480156103bc57600080fd5b506004546103d0906001600160a01b031681565b6040516001600160a01b0390911681526020015b60405180910390f35b3480156103f957600080fd5b50610402610b30565b6040516103e491906137e3565b34801561041b57600080fd5b5061042f61042a36600461384d565b610bbe565b60405190151581526020016103e4565b34801561044b57600080fd5b506003546103d0906001600160a01b031681565b6103a9610c2c565b34801561047357600080fd5b5061047d600d5481565b6040519081526020016103e4565b34801561049757600080fd5b5061047d6104a6366004613879565b610c9a565b3480156104b757600080fd5b5061047d60125481565b3480156104cd57600080fd5b5061047d610ced565b3480156104e257600080fd5b5061042f6104f1366004613896565b610cfc565b34801561050257600080fd5b506009546103d0906001600160a01b031681565b34801561052257600080fd5b5060005461042f9062010000900460ff1681565b34801561054257600080fd5b506008546105509060ff1681565b60405160ff90911681526020016103e4565b34801561056e57600080fd5b5061047d61057d366004613879565b610d4c565b34801561058e57600080fd5b5061047d61059d366004613879565b610dfb565b3480156105ae57600080fd5b5061047d610e41565b3480156105c357600080fd5b5061047d6105d2366004613879565b610e4b565b3480156105e357600080fd5b5061047d60105481565b6103a9610f9d565b34801561060157600080fd5b506001546103d0906001600160a01b031681565b34801561062157600080fd5b50600a546103d0906001600160a01b031681565b34801561064157600080fd5b506103a9610650366004613998565b610fa8565b34801561066157600080fd5b5061047d610670366004613a54565b611212565b34801561068157600080fd5b5061047d666379da05b6000081565b34801561069c57600080fd5b506000546103d090630100000090046001600160a01b031681565b3480156106c357600080fd5b5061047d600081565b3480156106d857600080fd5b5061047d600e5481565b3480156106ee57600080fd5b5061047d6106fd366004613879565b6001600160a01b031660009081526013602052604090205490565b34801561072457600080fd5b5061047d611251565b34801561073957600080fd5b5060005461042f90610100900460ff1681565b34801561075857600080fd5b5061047d610767366004613a54565b61129b565b34801561077857600080fd5b5061047d60115481565b34801561078e57600080fd5b506104026112a6565b3480156107a357600080fd5b5061047d6107b2366004613879565b6112b3565b3480156107c357600080fd5b5061047d6112c4565b3480156107d857600080fd5b5061042f6107e736600461384d565b611747565b3480156107f857600080fd5b5061047d600f5481565b6103a9610810366004613a6d565b611796565b34801561082157600080fd5b506103d07f000000000000000000000000000000000000000000000000000000000000000081565b34801561085557600080fd5b5061047d6117a5565b34801561086a57600080fd5b5061047d610879366004613896565b61183d565b34801561088a57600080fd5b5061047d610899366004613879565b61188c565b3480156108aa57600080fd5b506002546103d0906001600160a01b031681565b3480156108ca57600080fd5b5061047d6108d9366004613aa6565b611919565b3480156108ea57600080fd5b5061047d611a04565b3480156108ff57600080fd5b5061091361090e366004613879565b611a54565b6040805194855260208501939093529183015260608201526080016103e4565b34801561093f57600080fd5b5061047d61094e366004613a54565b611a95565b34801561095f57600080fd5b5061047d61096e366004613a54565b611aa0565b34801561097f57600080fd5b5061047d61098e366004613a6d565b6001600160a01b03918216600090815260146020908152604080832093909416825291909152205490565b6103a96109c7366004613879565b611aab565b3480156109d857600080fd5b5061047d611ab8565b3480156109ed57600080fd5b5061047d6109fc366004613879565b611bbf565b348015610a0d57600080fd5b50600b546103d0906001600160a01b031681565b348015610a2d57600080fd5b506008546103d09061010090046001600160a01b031681565b348015610a5257600080fd5b5061047d611bd3565b348015610a6757600080fd5b506005546103d0906001600160a01b031681565b348015610a8757600080fd5b5061047d610a96366004613a54565b611c26565b61047d611c65565b348015610aaf57600080fd5b5061042f600181565b348015610ac457600080fd5b5061047d610ad3366004613ac3565b611c70565b60005460ff16610b035760405162461bcd60e51b8152600401610afa90613b0e565b60405180910390fd5b6000805460ff19169055610b156112c4565b50610b203382611cf6565b506000805460ff19166001179055565b60068054610b3d90613b32565b80601f0160208091040260200160405190810160405280929190818152602001828054610b6990613b32565b8015610bb65780601f10610b8b57610100808354040283529160200191610bb6565b820191906000526020600020905b815481529060010190602001808311610b9957829003601f168201915b505050505081565b3360008181526014602090815260408083206001600160a01b03871680855292528083208590555191929182907f8c5be1e5ebec7d5bd14f71427d1e84f3dd0314c0f7b2291e5b200ac8c7c3b92590610c1a9087815260200190565b60405180910390a35060019392505050565b610c3534610ad8565b600a5460405163a86cc91560e01b81523060048201523360248201526001600160a01b039091169063a86cc91590604401600060405180830381600087803b158015610c8057600080fd5b505af1158015610c94573d6000803e3d6000fd5b50505050565b6000805460ff16610cbd5760405162461bcd60e51b8152600401610afa90613b0e565b6000805460ff19169055610ccf6112c4565b50610cd9826112b3565b90506000805460ff19166001179055919050565b6000610cf7611ec2565b905090565b6000805460ff16610d1f5760405162461bcd60e51b8152600401610afa90613b0e565b6000805460ff19168155610d3533868686611f2c565b1490506000805460ff191660011790559392505050565b60085460009061010090046001600160a01b03163314610d7f57604051631f0fa4d560e31b815260040160405180910390fd5b610d8761215a565b610df35760005460405163ef9aacfd60e01b81526001600160a01b03848116600483015263010000009092049091169063ef9aacfd90602401600060405180830381600087803b158015610dda57600080fd5b505af1158015610dee573d6000803e3d6000fd5b505050505b506000919050565b6000806040518060200160405280610e11611a04565b90526001600160a01b038416600090815260136020526040902054909150610e3a908290612166565b9392505050565b6000610cf761215a565b60085460009061010090046001600160a01b03163314610e7e5760405163d219dc1f60e01b815260040160405180910390fd5b600a5460408051623f1ee960e11b815290516001600160a01b0392831692851691627e3dd29160048083019260209291908290030181865afa158015610ec8573d6000803e3d6000fd5b505050506040513d601f19601f82011682018060405250810190610eec9190613b67565b610f385760405162461bcd60e51b815260206004820152601c60248201527f6d61726b6572206d6574686f642072657475726e65642066616c7365000000006044820152606401610afa565b600a80546001600160a01b0319166001600160a01b0385811691821790925560408051928416835260208301919091527f7ac369dbd14fa5ea3f473ed67cc9d598964a77501540ba6751eb0b3decf5870d91015b60405180910390a150600092915050565b610fa634612186565b565b60085461010090046001600160a01b031633146110135760405162461bcd60e51b8152602060048201526024808201527f6f6e6c792061646d696e206d617920696e697469616c697a6520746865206d616044820152631c9ad95d60e21b6064820152608401610afa565b600e541580156110235750600f54155b61107b5760405162461bcd60e51b815260206004820152602360248201527f6d61726b6574206d6179206f6e6c7920626520696e697469616c697a6564206f6044820152626e636560e81b6064820152608401610afa565b600c859055846110e65760405162461bcd60e51b815260206004820152603060248201527f696e697469616c2065786368616e67652072617465206d75737420626520677260448201526f32b0ba32b9103a3430b7103d32b9379760811b6064820152608401610afa565b60006110f188610e4b565b905080156111415760405162461bcd60e51b815260206004820152601a60248201527f73657474696e6720636f6d7074726f6c6c6572206661696c65640000000000006044820152606401610afa565b43600e55670de0b6b3a7640000600f5561115a876121d7565b905080156111b55760405162461bcd60e51b815260206004820152602260248201527f73657474696e6720696e7465726573742072617465206d6f64656c206661696c604482015261195960f21b6064820152608401610afa565b84516111c8906006906020880190613753565b5083516111dc906007906020870190613753565b50506008805460ff90931660ff19938416179055600080549115156101000290921661ffff199091161760011790555050505050565b6000805460ff166112355760405162461bcd60e51b8152600401610afa90613b0e565b6000805460ff191690556112476112c4565b50610cd98261234c565b6000805460ff166112745760405162461bcd60e51b8152600401610afa90613b0e565b6000805460ff191690556112866112c4565b50506010546000805460ff1916600117905590565b6000610df382612467565b60078054610b3d90613b32565b60006112be826124a8565b92915050565b60008054610100900460ff161561155c57601254156115575760005462010000900460ff16156114c7576000805460405163185b800160e11b81526001600482018190526024820184905260448201819052606482018190526084820181905260a482015260c4810192909252630100000090046001600160a01b0316906330b700029060e401600060405180830381600087803b15801561136557600080fd5b505af1158015611379573d6000803e3d6000fd5b50506040516370a0823160e01b8152306004820152600092507f00000000000000000000000000000000000000000000000000000000000000006001600160a01b031691506370a0823190602401602060405180830381865afa1580156113e4573d6000803e3d6000fd5b505050506040513d601f19601f820116820180604052508101906114089190613b84565b905080156114c1576000805460405163364e231160e01b81526001600160a01b037f0000000000000000000000000000000000000000000000000000000000000000811660048301526024820185905260448201849052606482019390935263010000009091049091169063364e2311906084016020604051808303816000875af115801561149b573d6000803e3d6000fd5b505050506040513d601f19601f820116820180604052508101906114bf9190613b84565b505b50611741565b6000805460405163185b800160e11b81526001600482018190526024820184905260448201819052606482018190526084820181905260a482015260c4810192909252630100000090046001600160a01b0316906330b700029060e401600060405180830381600087803b15801561153e57600080fd5b505af1158015611552573d6000803e3d6000fd5b505050505b611741565b600e544390808214156115725760009250505090565b600061157c61215a565b601054601154600f54600b546040516315f2405360e01b81526004810186905260248101859052604481018490529495509293919290916000916001600160a01b0316906315f2405390606401602060405180830381865afa1580156115e6573d6000803e3d6000fd5b505050506040513d601f19601f8201168201806040525081019061160a9190613b84565b905065048c273950008111156116625760405162461bcd60e51b815260206004820152601c60248201527f626f72726f772072617465206973206162737572646c792068696768000000006044820152606401610afa565b600061166e8789613bb3565b9050600061168a604051806020016040528085815250836124f2565b905060006116988288612166565b905060006116a68883613bca565b905060006116c56040518060200160405280600d54815250848a612523565b905060006116d485898a612523565b600e8e9055600f81905560108490556011839055604080518d815260208101879052908101829052606081018590529091507f4dec04e750ca11537cabcd8a9eab06494de08da3735bc8871cd41250e190bc049060800160405180910390a1505050505050505050505050505b50600090565b6000805460ff1661176a5760405162461bcd60e51b8152600401610afa90613b0e565b6000805460ff1916815561178033808686611f2c565b1490506000805460ff1916600117905592915050565b6117a1823483612544565b5050565b600b546000906001600160a01b031663b81688166117c161215a565b601054601154600d546040516001600160e01b031960e087901b16815260048101949094526024840192909252604483015260648201526084015b602060405180830381865afa158015611819573d6000803e3d6000fd5b505050506040513d601f19601f82011682018060405250810190610cf79190613b84565b6000805460ff166118605760405162461bcd60e51b8152600401610afa90613b0e565b6000805460ff1916905561187633858585612622565b50600080805460ff191660011790559392505050565b60085460009061010090046001600160a01b031633146118bf57604051635cb56c2b60e01b815260040160405180910390fd5b600980546001600160a01b038481166001600160a01b031983168117909355604080519190921680825260208201939093527fca4f2f25d0898edd99413412fb94012f9e54ec8142f9b093e7720646a95b16a99101610f8c565b60085460009061010090046001600160a01b0316331461194c57604051632663b8db60e01b815260040160405180910390fd5b60055460405163095ea7b360e01b81526001600160a01b03918216600482015260001960248201527f00000000000000000000000000000000000000000000000000000000000000009091169063095ea7b3906044016020604051808303816000875af11580156119c1573d6000803e3d6000fd5b505050506040513d601f19601f820116820180604052508101906119e59190613b67565b505060008054911515620100000262ff00001990921691909117815590565b6000805460ff16611a275760405162461bcd60e51b8152600401610afa90613b0e565b6000805460ff19169055611a396112c4565b50611a42610ced565b90506000805460ff1916600117905590565b6001600160a01b0381166000908152601360205260408120548190819081908190611a7e876124a8565b611a86611ec2565b93509350935093509193509193565b6000610df38261289b565b6000610df3826128da565b611ab5813461291b565b50565b6009546000906001600160a01b031633141580611ad3575033155b15611af157604051631ba24f2960e21b815260040160405180910390fd5b60088054600980546001600160a01b03808216610100818102610100600160a81b0319871617968790556001600160a01b031990931690935560408051948390048216808652929095041660208401529290917ff9ffabca9c8276e99321725bcb43fb076a6c66a54b7f21c4e8146d8519b417dc910160405180910390a1600954604080516001600160a01b03808516825290921660208301527fca4f2f25d0898edd99413412fb94012f9e54ec8142f9b093e7720646a95b16a9910160405180910390a160009250505090565b6000611bc96112c4565b506112be826121d7565b600b546000906001600160a01b03166315f24053611bef61215a565b6010546011546040516001600160e01b031960e086901b1681526004810193909352602483019190915260448201526064016117fc565b6000805460ff16611c495760405162461bcd60e51b8152600401610afa90613b0e565b6000805460ff19169055611c5b6112c4565b50610cd98261296d565b6000610cf734612a29565b60085460009061010090046001600160a01b03163314611ca357604051634cfdce7760e11b815260040160405180910390fd5b50600180546001600160a01b039485166001600160a01b031991821617909155600080549385166301000000026301000000600160b81b0319909416939093178355600580549290941691161790915590565b600a54604051634ef4c3e160e01b81526000916001600160a01b031690634ef4c3e190611d2b90309087908790600401613be2565b6020604051808303816000875af1158015611d4a573d6000803e3d6000fd5b505050506040513d601f19601f82011682018060405250810190611d6e9190613b84565b90508015611d92576040516349abd4fd60e01b815260048101829052602401610afa565b43600e5414158015611dac5750600054610100900460ff16155b15611dca576040516338d8859760e01b815260040160405180910390fd5b60006040518060200160405280611ddf611ec2565b905290506000611def8585612a80565b90506000611dfd8284612b12565b905080601254611e0d9190613bca565b6012556001600160a01b038616600090815260136020526040902054611e34908290613bca565b6001600160a01b0387166000908152601360205260409081902091909155517f4c209b5fc8ad50758f13e2e1088ba56a560dff690a1c6fef26394f4c03821c4f90611e8490889085908590613c06565b60405180910390a16040518181526001600160a01b038716903090600080516020613c8d8339815191529060200160405180910390a3505050505050565b60125460009080611ed5575050600c5490565b6000611edf61215a565b9050600060115460105483611ef49190613bca565b611efe9190613bb3565b9050600083611f15670de0b6b3a764000084613c27565b611f1f9190613c46565b95945050505050565b5090565b600a546040516317b9b84b60e31b81523060048201526001600160a01b038581166024830152848116604483015260648201849052600092839291169063bdcdc258906084016020604051808303816000875af1158015611f91573d6000803e3d6000fd5b505050506040513d601f19601f82011682018060405250810190611fb59190613b84565b90508015611fd95760405163089d427760e11b815260048101829052602401610afa565b836001600160a01b0316856001600160a01b0316141561200c57604051638cd22d1960e01b815260040160405180910390fd5b6000856001600160a01b0316876001600160a01b031614156120315750600019612059565b506001600160a01b038086166000908152601460209081526040808320938a16835292905220545b60006120658583613bb3565b6001600160a01b0388166000908152601360205260408120549192509061208d908790613bb3565b6001600160a01b038816600090815260136020526040812054919250906120b5908890613bca565b6001600160a01b03808b16600090815260136020526040808220869055918b168152208190559050600019841461210f576001600160a01b03808a166000908152601460209081526040808320938e168352929052208390555b876001600160a01b0316896001600160a01b0316600080516020613c8d8339815191528960405161214291815260200190565b60405180910390a35060009998505050505050505050565b6000610cf73447613bb3565b60008061217384846124f2565b905061217e81612b30565b949350505050565b60005460ff166121a85760405162461bcd60e51b8152600401610afa90613b0e565b6000805460ff191690556121ba6112c4565b506121c6333383612b48565b50506000805460ff19166001179055565b600854600090819061010090046001600160a01b0316331461220c5760405163407fded560e01b815260040160405180910390fd5b43600e541461222e57604051630be2a5cb60e11b815260040160405180910390fd5b600b60009054906101000a90046001600160a01b03169050826001600160a01b0316632191f92a6040518163ffffffff1660e01b8152600401602060405180830381865afa158015612284573d6000803e3d6000fd5b505050506040513d601f19601f820116820180604052508101906122a89190613b67565b6122f45760405162461bcd60e51b815260206004820152601c60248201527f6d61726b6572206d6574686f642072657475726e65642066616c7365000000006044820152606401610afa565b600b80546001600160a01b0319166001600160a01b0385811691821790925560408051928416835260208301919091527fedffc32e068c7c95dfd4bdfd5c4d939a084d6b11c4199eac8436ed234d72f9269101610f8c565b600854600090819061010090046001600160a01b0316331461238157604051630f7e5e6d60e41b815260040160405180910390fd5b43600e54146123a357604051630dff50cb60e41b815260040160405180910390fd5b826123ac61215a565b10156123cb57604051633345e99960e01b815260040160405180910390fd5b6011548311156123ee576040516378d2980560e11b815260040160405180910390fd5b826011546123fc9190613bb3565b601181905560085490915061241f9061010090046001600160a01b031684612cf1565b7f3bad0c59cf2f06e7314077049f48a93578cd16f5ef92329f1dab1420a99c177e600860019054906101000a90046001600160a01b03168483604051610f8c93929190613c06565b60005460ff166124895760405162461bcd60e51b8152600401610afa90613b0e565b6000805460ff1916905561249b6112c4565b50610b2033600083612d2c565b6001600160a01b038116600090815260156020526040812080546124cf5750600092915050565b600f5481546000916124e091613c27565b905081600101548161217e9190613c46565b604080516020810190915260008152604051806020016040528061251a85600001518561301f565b90529392505050565b60008061253085856124f2565b9050611f1f61253e82612b30565b8461302b565b60005460ff166125665760405162461bcd60e51b8152600401610afa90613b0e565b6000805460ff191690556125786112c4565b506000816001600160a01b031663a6afed956040518163ffffffff1660e01b81526004016020604051808303816000875af11580156125bb573d6000803e3d6000fd5b505050506040513d601f19601f820116820180604052508101906125df9190613b84565b9050801561260357604051633eea49b760e11b815260048101829052602401610afa565b61260f33858585613037565b50506000805460ff191660011790555050565b600a5460405163d02f735160e01b81523060048201526001600160a01b0386811660248301528581166044830152848116606483015260848201849052600092169063d02f73519060a4016020604051808303816000875af115801561268c573d6000803e3d6000fd5b505050506040513d601f19601f820116820180604052508101906126b09190613b84565b905080156126d4576040516363e00e3360e11b815260048101829052602401610afa565b836001600160a01b0316836001600160a01b0316141561270757604051633a94626760e11b815260040160405180910390fd5b6000612728836040518060200160405280666379da05b600008152506134f1565b905060006127368285613bb3565b90506000604051806020016040528061274d611ec2565b90529050600061275d8285612166565b905060008160115461276f9190613bca565b6011819055601254909150612785908690613bb3565b6012556001600160a01b0388166000908152601360205260409020546127ac908890613bb3565b6001600160a01b03808a1660009081526013602052604080822093909355908b16815220546127dc908590613bca565b6001600160a01b03808b1660008181526013602052604090819020939093559151908a1690600080516020613c8d8339815191529061281e9088815260200190565b60405180910390a360405185815230906001600160a01b038a1690600080516020613c8d8339815191529060200160405180910390a37fa91e67c5ea634cd43a12c5a482724b03de01e85ca68702a53d0c2f45cb7c1dc530838360405161288793929190613c06565b60405180910390a150505050505050505050565b60005460ff166128bd5760405162461bcd60e51b8152600401610afa90613b0e565b6000805460ff191690556128cf6112c4565b50610b203382613514565b60005460ff166128fc5760405162461bcd60e51b8152600401610afa90613b0e565b6000805460ff1916905561290e6112c4565b50610b2033826000612d2c565b60005460ff1661293d5760405162461bcd60e51b8152600401610afa90613b0e565b6000805460ff1916905561294f6112c4565b5061295b338383612b48565b50506000805460ff1916600117905550565b60085460009061010090046001600160a01b031633146129a057604051631205b57b60e11b815260040160405180910390fd5b43600e54146129c257604051637dfca6b760e11b815260040160405180910390fd5b670de0b6b3a76400008211156129eb5760405163717220f360e11b815260040160405180910390fd5b600d80549083905560408051828152602081018590527faaa68312e2ea9d50e16af5068410ab56e1a1fd06037b1a35664812c30f8214609101610f8c565b6000805460ff16612a4c5760405162461bcd60e51b8152600401610afa90613b0e565b6000805460ff19169055612a5e6112c4565b50612a68826136b3565b5050600090506000805460ff19166001179055919050565b6000336001600160a01b03841614612acc5760405162461bcd60e51b815260206004820152600f60248201526e0e6cadcc8cae440dad2e6dac2e8c6d608b1b6044820152606401610afa565b813414612b0c5760405162461bcd60e51b815260206004820152600e60248201526d0ecc2d8eaca40dad2e6dac2e8c6d60931b6044820152606401610afa565b50919050565b6000610e3a612b2984670de0b6b3a764000061301f565b8351613747565b80516000906112be90670de0b6b3a764000090613c46565b600a54604051631200453160e11b81523060048201526001600160a01b03858116602483015284811660448301526064820184905260009283929116906324008a62906084016020604051808303816000875af1158015612bad573d6000803e3d6000fd5b505050506040513d601f19601f82011682018060405250810190612bd19190613b84565b90508015612bf557604051638c81362d60e01b815260048101829052602401610afa565b43600e5414612c175760405163c9021e2f60e01b815260040160405180910390fd5b6000612c22856124a8565b905060006000198514612c355784612c37565b815b90506000612c458883612a80565b90506000612c538285613bb3565b9050600082601054612c659190613bb3565b6001600160a01b038a8116600081815260156020908152604091829020878155600f5460019091015560108590558151938f168452830191909152810185905260608101849052608081018290529091507f1a2a22cb034d26d1854bdc6666a5b91fe25efbbb5dcad3b0355478d6f5c362a19060a00160405180910390a1509098975050505050505050565b6040516001600160a01b0383169082156108fc029083906000818181858888f19350505050158015612d27573d6000803e3d6000fd5b505050565b811580612d37575080155b612da05760405162461bcd60e51b815260206004820152603460248201527f6f6e65206f662072656465656d546f6b656e73496e206f722072656465656d416044820152736d6f756e74496e206d757374206265207a65726f60601b6064820152608401610afa565b60006040518060200160405280612db5611ec2565b905290506000808415612dd657849150612dcf8386612166565b9050612de6565b612de08484612b12565b91508390505b600a5460405163eabe7d9160e01b81526000916001600160a01b03169063eabe7d9190612e1b9030908b908890600401613be2565b6020604051808303816000875af1158015612e3a573d6000803e3d6000fd5b505050506040513d601f19601f82011682018060405250810190612e5e9190613b84565b90508015612e825760405163480f424760e01b815260048101829052602401610afa565b43600e5414158015612e9c5750600054610100900460ff16155b15612eba576040516397b5cfcd60e01b815260040160405180910390fd5b81612ec361215a565b1015612ee2576040516391240a1b60e01b815260040160405180910390fd5b82601254612ef09190613bb3565b6012556001600160a01b038716600090815260136020526040902054612f17908490613bb3565b6001600160a01b038816600090815260136020526040902055612f3a8783612cf1565b60405183815230906001600160a01b03891690600080516020613c8d8339815191529060200160405180910390a37fe5b754fb1abb7f01b499791d0b820ae3b6af3424ac1c59768edb53f4ec31a929878385604051612f9b93929190613c06565b60405180910390a1600a546040516351dff98960e01b81523060048201526001600160a01b0389811660248301526044820185905260648201869052909116906351dff98990608401600060405180830381600087803b158015612ffe57600080fd5b505af1158015613012573d6000803e3d6000fd5b5050505050505050505050565b6000610e3a8284613c27565b6000610e3a8284613bca565b600a54604051632fe3f38f60e11b81523060048201526001600160a01b03838116602483015286811660448301528581166064830152608482018590526000921690635fc7e71e9060a4016020604051808303816000875af11580156130a1573d6000803e3d6000fd5b505050506040513d601f19601f820116820180604052508101906130c59190613b84565b905080156130e957604051630a14d17960e11b815260048101829052602401610afa565b43600e541461310b576040516380965b1b60e01b815260040160405180910390fd5b43826001600160a01b0316636c540baf6040518163ffffffff1660e01b8152600401602060405180830381865afa15801561314a573d6000803e3d6000fd5b505050506040513d601f19601f8201168201806040525081019061316e9190613b84565b1461318c57604051631046f38d60e31b815260040160405180910390fd5b846001600160a01b0316846001600160a01b031614156131bf57604051631bd1a62160e21b815260040160405180910390fd5b826131dd5760405163d29da7ef60e01b815260040160405180910390fd5b60001983141561320057604051635982c5bb60e11b815260040160405180910390fd5b600061320d868686612b48565b600a5460405163c488847b60e01b815291925060009182916001600160a01b03169063c488847b9061324790309089908890600401613be2565b6040805180830381865afa158015613263573d6000803e3d6000fd5b505050506040513d601f19601f820116820180604052508101906132879190613c68565b91509150600082146132f75760405162461bcd60e51b815260206004820152603360248201527f4c49515549444154455f434f4d5054524f4c4c45525f43414c43554c4154455f604482015272105353d5539517d4d152569157d19052531151606a1b6064820152608401610afa565b6040516370a0823160e01b81526001600160a01b0388811660048301528291908716906370a0823190602401602060405180830381865afa158015613340573d6000803e3d6000fd5b505050506040513d601f19601f820116820180604052508101906133649190613b84565b10156133b25760405162461bcd60e51b815260206004820152601860248201527f4c49515549444154455f5345495a455f544f4f5f4d55434800000000000000006044820152606401610afa565b6001600160a01b0385163014156133d4576133cf30898984612622565b61348e565b60405163b2a02ff160e01b81526000906001600160a01b0387169063b2a02ff190613407908c908c908790600401613be2565b6020604051808303816000875af1158015613426573d6000803e3d6000fd5b505050506040513d601f19601f8201168201806040525081019061344a9190613b84565b1461348e5760405162461bcd60e51b81526020600482015260146024820152731d1bdad95b881cd95a5e9d5c994819985a5b195960621b6044820152606401610afa565b604080516001600160a01b038a811682528981166020830152818301869052871660608201526080810183905290517f298637f684da70674f26509b10f07ec2fbc77a335ab1e7d6215a4b2484d8bb529181900360a00190a15050505050505050565b6000670de0b6b3a764000061350a84846000015161301f565b610e3a9190613c46565b600a5460405163368f515360e21b81526000916001600160a01b03169063da3d454c9061354990309087908790600401613be2565b6020604051808303816000875af1158015613568573d6000803e3d6000fd5b505050506040513d601f19601f8201168201806040525081019061358c9190613b84565b905080156135b05760405163918db40f60e01b815260048101829052602401610afa565b43600e54146135d257604051630e8d8c6160e21b815260040160405180910390fd5b816135db61215a565b10156135fa576040516348c2588160e01b815260040160405180910390fd5b6000613605846124a8565b905060006136138483613bca565b90506000846010546136259190613bca565b6001600160a01b0387166000908152601560205260409020838155600f546001909101556010819055905061365a8686612cf1565b604080516001600160a01b038816815260208101879052908101839052606081018290527f13ed6866d4e1ee6da46f845c46d7e54120883d75c5ea9a2dacc1c4ca8984ab809060800160405180910390a1505050505050565b600080808043600e54146136dd576040516338acf79960e01b815260048101829052602401610afa565b6136e73386612a80565b9050806011546136f79190613bca565b9150816011819055507fa91e67c5ea634cd43a12c5a482724b03de01e85ca68702a53d0c2f45cb7c1dc533828460405161373393929190613c06565b60405180910390a160009590945092505050565b6000610e3a8284613c46565b82805461375f90613b32565b90600052602060002090601f01602090048101928261378157600085556137c7565b82601f1061379a57805160ff19168380011785556137c7565b828001600101855582156137c7579182015b828111156137c75782518255916020019190600101906137ac565b50611f289291505b80821115611f2857600081556001016137cf565b600060208083528351808285015260005b81811015613810578581018301518582016040015282016137f4565b81811115613822576000604083870101525b50601f01601f1916929092016040019392505050565b6001600160a01b0381168114611ab557600080fd5b6000806040838503121561386057600080fd5b823561386b81613838565b946020939093013593505050565b60006020828403121561388b57600080fd5b8135610e3a81613838565b6000806000606084860312156138ab57600080fd5b83356138b681613838565b925060208401356138c681613838565b929592945050506040919091013590565b634e487b7160e01b600052604160045260246000fd5b600082601f8301126138fe57600080fd5b813567ffffffffffffffff80821115613919576139196138d7565b604051601f8301601f19908116603f01168101908282118183101715613941576139416138d7565b8160405283815286602085880101111561395a57600080fd5b836020870160208301376000602085830101528094505050505092915050565b8015158114611ab557600080fd5b80356139938161397a565b919050565b600080600080600080600060e0888a0312156139b357600080fd5b87356139be81613838565b965060208801356139ce81613838565b955060408801359450606088013567ffffffffffffffff808211156139f257600080fd5b6139fe8b838c016138ed565b955060808a0135915080821115613a1457600080fd5b50613a218a828b016138ed565b93505060a088013560ff81168114613a3857600080fd5b9150613a4660c08901613988565b905092959891949750929550565b600060208284031215613a6657600080fd5b5035919050565b60008060408385031215613a8057600080fd5b8235613a8b81613838565b91506020830135613a9b81613838565b809150509250929050565b600060208284031215613ab857600080fd5b8135610e3a8161397a565b600080600060608486031215613ad857600080fd5b8335613ae381613838565b92506020840135613af381613838565b91506040840135613b0381613838565b809150509250925092565b6020808252600a90820152691c994b595b9d195c995960b21b604082015260600190565b600181811c90821680613b4657607f821691505b60208210811415612b0c57634e487b7160e01b600052602260045260246000fd5b600060208284031215613b7957600080fd5b8151610e3a8161397a565b600060208284031215613b9657600080fd5b5051919050565b634e487b7160e01b600052601160045260246000fd5b600082821015613bc557613bc5613b9d565b500390565b60008219821115613bdd57613bdd613b9d565b500190565b6001600160a01b039384168152919092166020820152604081019190915260600190565b6001600160a01b039390931683526020830191909152604082015260600190565b6000816000190483118215151615613c4157613c41613b9d565b500290565b600082613c6357634e487b7160e01b600052601260045260246000fd5b500490565b60008060408385031215613c7b57600080fd5b50508051602090910151909290915056feddf252ad1be2c89b69c2b068fc378daa952ba7f163c4a11628f55a4df523b3efa26469706673582212203c2e467e29b812a1ff5fe9aea54da887282987a174c97d98a346cd4879d2f8f564736f6c634300080a0033",
  "linkReferences": {},
  "deployedLinkReferences": {}
}