{
  "_format": "hh-sol-artifact-1",
  "contractName": "CEther",
  "sourceName": "contracts/CEther.sol",
  "abi": [
    {
      "inputs": [
        {
          "internalType": "contract ComptrollerInterface",
          "name": "comptroller_",
          "type": "address"
        },
        {
          "internalType": "contract InterestRateModel",
          "name": "interestRateModel_",
          "type": "address"
        },
        {
          "internalType": "uint256",
          "name": "initialExchangeRateMantissa_",
          "type": "uint256"
        },
        {
          "internalType": "string",
          "name": "name_",
          "type": "string"
        },
        {
          "internalType": "string",
          "name": "symbol_",
          "type": "string"
        },
        {
          "internalType": "uint8",
          "name": "decimals_",
          "type": "uint8"
        },
        {
          "internalType": "address payable",
          "name": "admin_",
          "type": "address"
        }
      ],
      "stateMutability": "nonpayable",
      "type": "constructor"
    },
    {
      "inputs": [],
      "name": "AcceptAdminPendingAdminCheck",
      "type": "error"
    },
    {
      "inputs": [
        {
          "internalType": "uint256",
          "name": "actualAddAmount",
          "type": "uint256"
        }
      ],
      "name": "AddReservesFactorFreshCheck",
      "type": "error"
    },
    {
      "inputs": [],
      "name": "BorrowCashNotAvailable",
      "type": "error"
    },
    {
      "inputs": [
        {
          "internalType": "uint256",
          "name": "errorCode",
          "type": "uint256"
        }
      ],
      "name": "BorrowComptrollerRejection",
      "type": "error"
    },
    {
      "inputs": [],
      "name": "BorrowFreshnessCheck",
      "type": "error"
    },
    {
      "inputs": [
        {
          "internalType": "uint256",
          "name": "errorCode",
          "type": "uint256"
        }
      ],
      "name": "LiquidateAccrueBorrowInterestFailed",
      "type": "error"
    },
    {
      "inputs": [
        {
          "internalType": "uint256",
          "name": "errorCode",
          "type": "uint256"
        }
      ],
      "name": "LiquidateAccrueCollateralInterestFailed",
      "type": "error"
    },
    {
      "inputs": [],
      "name": "LiquidateCloseAmountIsUintMax",
      "type": "error"
    },
    {
      "inputs": [],
      "name": "LiquidateCloseAmountIsZero",
      "type": "error"
    },
    {
      "inputs": [],
      "name": "LiquidateCollateralFreshnessCheck",
      "type": "error"
    },
    {
      "inputs": [
        {
          "internalType": "uint256",
          "name": "errorCode",
          "type": "uint256"
        }
      ],
      "name": "LiquidateComptrollerRejection",
      "type": "error"
    },
    {
      "inputs": [],
      "name": "LiquidateFreshnessCheck",
      "type": "error"
    },
    {
      "inputs": [],
      "name": "LiquidateLiquidatorIsBorrower",
      "type": "error"
    },
    {
      "inputs": [
        {
          "internalType": "uint256",
          "name": "errorCode",
          "type": "uint256"
        }
      ],
      "name": "LiquidateRepayBorrowFreshFailed",
      "type": "error"
    },
    {
      "inputs": [
        {
          "internalType": "uint256",
          "name": "errorCode",
          "type": "uint256"
        }
      ],
      "name": "LiquidateSeizeComptrollerRejection",
      "type": "error"
    },
    {
      "inputs": [],
      "name": "LiquidateSeizeLiquidatorIsBorrower",
      "type": "error"
    },
    {
      "inputs": [
        {
          "internalType": "uint256",
          "name": "errorCode",
          "type": "uint256"
        }
      ],
      "name": "MintComptrollerRejection",
      "type": "error"
    },
    {
      "inputs": [],
      "name": "MintFreshnessCheck",
      "type": "error"
    },
    {
      "inputs": [
        {
          "internalType": "uint256",
          "name": "errorCode",
          "type": "uint256"
        }
      ],
      "name": "RedeemComptrollerRejection",
      "type": "error"
    },
    {
      "inputs": [],
      "name": "RedeemFreshnessCheck",
      "type": "error"
    },
    {
      "inputs": [],
      "name": "RedeemTransferOutNotPossible",
      "type": "error"
    },
    {
      "inputs": [],
      "name": "ReduceReservesAdminCheck",
      "type": "error"
    },
    {
      "inputs": [],
      "name": "ReduceReservesCashNotAvailable",
      "type": "error"
    },
    {
      "inputs": [],
      "name": "ReduceReservesCashValidation",
      "type": "error"
    },
    {
      "inputs": [],
      "name": "ReduceReservesFreshCheck",
      "type": "error"
    },
    {
      "inputs": [
        {
          "internalType": "uint256",
          "name": "errorCode",
          "type": "uint256"
        }
      ],
      "name": "RepayBorrowComptrollerRejection",
      "type": "error"
    },
    {
      "inputs": [],
      "name": "RepayBorrowFreshnessCheck",
      "type": "error"
    },
    {
      "inputs": [],
      "name": "SetComptrollerOwnerCheck",
      "type": "error"
    },
    {
      "inputs": [],
      "name": "SetInterestRateModelFreshCheck",
      "type": "error"
    },
    {
      "inputs": [],
      "name": "SetInterestRateModelOwnerCheck",
      "type": "error"
    },
    {
      "inputs": [],
      "name": "SetPendingAdminOwnerCheck",
      "type": "error"
    },
    {
      "inputs": [],
      "name": "SetReserveFactorAdminCheck",
      "type": "error"
    },
    {
      "inputs": [],
      "name": "SetReserveFactorBoundsCheck",
      "type": "error"
    },
    {
      "inputs": [],
      "name": "SetReserveFactorFreshCheck",
      "type": "error"
    },
    {
      "inputs": [
        {
          "internalType": "uint256",
          "name": "errorCode",
          "type": "uint256"
        }
      ],
      "name": "TransferComptrollerRejection",
      "type": "error"
    },
    {
      "inputs": [],
      "name": "TransferNotAllowed",
      "type": "error"
    },
    {
      "inputs": [],
      "name": "TransferNotEnough",
      "type": "error"
    },
    {
      "inputs": [],
      "name": "TransferTooMuch",
      "type": "error"
    },
    {
      "anonymous": false,
      "inputs": [
        {
          "indexed": false,
          "internalType": "uint256",
          "name": "cashPrior",
          "type": "uint256"
        },
        {
          "indexed": false,
          "internalType": "uint256",
          "name": "interestAccumulated",
          "type": "uint256"
        },
        {
          "indexed": false,
          "internalType": "uint256",
          "name": "borrowIndex",
          "type": "uint256"
        },
        {
          "indexed": false,
          "internalType": "uint256",
          "name": "totalBorrows",
          "type": "uint256"
        }
      ],
      "name": "AccrueInterest",
      "type": "event"
    },
    {
      "anonymous": false,
      "inputs": [
        {
          "indexed": true,
          "internalType": "address",
          "name": "owner",
          "type": "address"
        },
        {
          "indexed": true,
          "internalType": "address",
          "name": "spender",
          "type": "address"
        },
        {
          "indexed": false,
          "internalType": "uint256",
          "name": "amount",
          "type": "uint256"
        }
      ],
      "name": "Approval",
      "type": "event"
    },
    {
      "anonymous": false,
      "inputs": [
        {
          "indexed": false,
          "internalType": "address",
          "name": "borrower",
          "type": "address"
        },
        {
          "indexed": false,
          "internalType": "uint256",
          "name": "borrowAmount",
          "type": "uint256"
        },
        {
          "indexed": false,
          "internalType": "uint256",
          "name": "accountBorrows",
          "type": "uint256"
        },
        {
          "indexed": false,
          "internalType": "uint256",
          "name": "totalBorrows",
          "type": "uint256"
        }
      ],
      "name": "Borrow",
      "type": "event"
    },
    {
      "anonymous": false,
      "inputs": [
        {
          "indexed": false,
          "internalType": "address",
          "name": "liquidator",
          "type": "address"
        },
        {
          "indexed": false,
          "internalType": "address",
          "name": "borrower",
          "type": "address"
        },
        {
          "indexed": false,
          "internalType": "uint256",
          "name": "repayAmount",
          "type": "uint256"
        },
        {
          "indexed": false,
          "internalType": "address",
          "name": "cTokenCollateral",
          "type": "address"
        },
        {
          "indexed": false,
          "internalType": "uint256",
          "name": "seizeTokens",
          "type": "uint256"
        }
      ],
      "name": "LiquidateBorrow",
      "type": "event"
    },
    {
      "anonymous": false,
      "inputs": [
        {
          "indexed": false,
          "internalType": "address",
          "name": "minter",
          "type": "address"
        },
        {
          "indexed": false,
          "internalType": "uint256",
          "name": "mintAmount",
          "type": "uint256"
        },
        {
          "indexed": false,
          "internalType": "uint256",
          "name": "mintTokens",
          "type": "uint256"
        }
      ],
      "name": "Mint",
      "type": "event"
    },
    {
      "anonymous": false,
      "inputs": [
        {
          "indexed": false,
          "internalType": "address",
          "name": "oldAdmin",
          "type": "address"
        },
        {
          "indexed": false,
          "internalType": "address",
          "name": "newAdmin",
          "type": "address"
        }
      ],
      "name": "NewAdmin",
      "type": "event"
    },
    {
      "anonymous": false,
      "inputs": [
        {
          "indexed": false,
          "internalType": "contract ComptrollerInterface",
          "name": "oldComptroller",
          "type": "address"
        },
        {
          "indexed": false,
          "internalType": "contract ComptrollerInterface",
          "name": "newComptroller",
          "type": "address"
        }
      ],
      "name": "NewComptroller",
      "type": "event"
    },
    {
      "anonymous": false,
      "inputs": [
        {
          "indexed": false,
          "internalType": "contract InterestRateModel",
          "name": "oldInterestRateModel",
          "type": "address"
        },
        {
          "indexed": false,
          "internalType": "contract InterestRateModel",
          "name": "newInterestRateModel",
          "type": "address"
        }
      ],
      "name": "NewMarketInterestRateModel",
      "type": "event"
    },
    {
      "anonymous": false,
      "inputs": [
        {
          "indexed": false,
          "internalType": "address",
          "name": "oldPendingAdmin",
          "type": "address"
        },
        {
          "indexed": false,
          "internalType": "address",
          "name": "newPendingAdmin",
          "type": "address"
        }
      ],
      "name": "NewPendingAdmin",
      "type": "event"
    },
    {
      "anonymous": false,
      "inputs": [
        {
          "indexed": false,
          "internalType": "uint256",
          "name": "oldReserveFactorMantissa",
          "type": "uint256"
        },
        {
          "indexed": false,
          "internalType": "uint256",
          "name": "newReserveFactorMantissa",
          "type": "uint256"
        }
      ],
      "name": "NewReserveFactor",
      "type": "event"
    },
    {
      "anonymous": false,
      "inputs": [
        {
          "indexed": false,
          "internalType": "address",
          "name": "redeemer",
          "type": "address"
        },
        {
          "indexed": false,
          "internalType": "uint256",
          "name": "redeemAmount",
          "type": "uint256"
        },
        {
          "indexed": false,
          "internalType": "uint256",
          "name": "redeemTokens",
          "type": "uint256"
        }
      ],
      "name": "Redeem",
      "type": "event"
    },
    {
      "anonymous": false,
      "inputs": [
        {
          "indexed": false,
          "internalType": "address",
          "name": "payer",
          "type": "address"
        },
        {
          "indexed": false,
          "internalType": "address",
          "name": "borrower",
          "type": "address"
        },
        {
          "indexed": false,
          "internalType": "uint256",
          "name": "repayAmount",
          "type": "uint256"
        },
        {
          "indexed": false,
          "internalType": "uint256",
          "name": "accountBorrows",
          "type": "uint256"
        },
        {
          "indexed": false,
          "internalType": "uint256",
          "name": "totalBorrows",
          "type": "uint256"
        }
      ],
      "name": "RepayBorrow",
      "type": "event"
    },
    {
      "anonymous": false,
      "inputs": [
        {
          "indexed": false,
          "internalType": "address",
          "name": "benefactor",
          "type": "address"
        },
        {
          "indexed": false,
          "internalType": "uint256",
          "name": "addAmount",
          "type": "uint256"
        },
        {
          "indexed": false,
          "internalType": "uint256",
          "name": "newTotalReserves",
          "type": "uint256"
        }
      ],
      "name": "ReservesAdded",
      "type": "event"
    },
    {
      "anonymous": false,
      "inputs": [
        {
          "indexed": false,
          "internalType": "address",
          "name": "admin",
          "type": "address"
        },
        {
          "indexed": false,
          "internalType": "uint256",
          "name": "reduceAmount",
          "type": "uint256"
        },
        {
          "indexed": false,
          "internalType": "uint256",
          "name": "newTotalReserves",
          "type": "uint256"
        }
      ],
      "name": "ReservesReduced",
      "type": "event"
    },
    {
      "anonymous": false,
      "inputs": [
        {
          "indexed": true,
          "internalType": "address",
          "name": "from",
          "type": "address"
        },
        {
          "indexed": true,
          "internalType": "address",
          "name": "to",
          "type": "address"
        },
        {
          "indexed": false,
          "internalType": "uint256",
          "name": "amount",
          "type": "uint256"
        }
      ],
      "name": "Transfer",
      "type": "event"
    },
    {
      "inputs": [],
      "name": "NO_ERROR",
      "outputs": [
        {
          "internalType": "uint256",
          "name": "",
          "type": "uint256"
        }
      ],
      "stateMutability": "view",
      "type": "function"
    },
    {
      "inputs": [],
      "name": "_acceptAdmin",
      "outputs": [
        {
          "internalType": "uint256",
          "name": "",
          "type": "uint256"
        }
      ],
      "stateMutability": "nonpayable",
      "type": "function"
    },
    {
      "inputs": [],
      "name": "_addReserves",
      "outputs": [
        {
          "internalType": "uint256",
          "name": "",
          "type": "uint256"
        }
      ],
      "stateMutability": "payable",
      "type": "function"
    },
    {
      "inputs": [
        {
          "internalType": "uint256",
          "name": "reduceAmount",
          "type": "uint256"
        }
      ],
      "name": "_reduceReserves",
      "outputs": [
        {
          "internalType": "uint256",
          "name": "",
          "type": "uint256"
        }
      ],
      "stateMutability": "nonpayable",
      "type": "function"
    },
    {
      "inputs": [
        {
          "internalType": "contract ComptrollerInterface",
          "name": "newComptroller",
          "type": "address"
        }
      ],
      "name": "_setComptroller",
      "outputs": [
        {
          "internalType": "uint256",
          "name": "",
          "type": "uint256"
        }
      ],
      "stateMutability": "nonpayable",
      "type": "function"
    },
    {
      "inputs": [
        {
          "internalType": "contract InterestRateModel",
          "name": "newInterestRateModel",
          "type": "address"
        }
      ],
      "name": "_setInterestRateModel",
      "outputs": [
        {
          "internalType": "uint256",
          "name": "",
          "type": "uint256"
        }
      ],
      "stateMutability": "nonpayable",
      "type": "function"
    },
    {
      "inputs": [
        {
          "internalType": "address payable",
          "name": "newPendingAdmin",
          "type": "address"
        }
      ],
      "name": "_setPendingAdmin",
      "outputs": [
        {
          "internalType": "uint256",
          "name": "",
          "type": "uint256"
        }
      ],
      "stateMutability": "nonpayable",
      "type": "function"
    },
    {
      "inputs": [
        {
          "internalType": "uint256",
          "name": "newReserveFactorMantissa",
          "type": "uint256"
        }
      ],
      "name": "_setReserveFactor",
      "outputs": [
        {
          "internalType": "uint256",
          "name": "",
          "type": "uint256"
        }
      ],
      "stateMutability": "nonpayable",
      "type": "function"
    },
    {
      "inputs": [],
      "name": "accrualBlockNumber",
      "outputs": [
        {
          "internalType": "uint256",
          "name": "",
          "type": "uint256"
        }
      ],
      "stateMutability": "view",
      "type": "function"
    },
    {
      "inputs": [],
      "name": "accrueInterest",
      "outputs": [
        {
          "internalType": "uint256",
          "name": "",
          "type": "uint256"
        }
      ],
      "stateMutability": "nonpayable",
      "type": "function"
    },
    {
      "inputs": [],
      "name": "admin",
      "outputs": [
        {
          "internalType": "address payable",
          "name": "",
          "type": "address"
        }
      ],
      "stateMutability": "view",
      "type": "function"
    },
    {
      "inputs": [
        {
          "internalType": "address",
          "name": "owner",
          "type": "address"
        },
        {
          "internalType": "address",
          "name": "spender",
          "type": "address"
        }
      ],
      "name": "allowance",
      "outputs": [
        {
          "internalType": "uint256",
          "name": "",
          "type": "uint256"
        }
      ],
      "stateMutability": "view",
      "type": "function"
    },
    {
      "inputs": [
        {
          "internalType": "address",
          "name": "spender",
          "type": "address"
        },
        {
          "internalType": "uint256",
          "name": "amount",
          "type": "uint256"
        }
      ],
      "name": "approve",
      "outputs": [
        {
          "internalType": "bool",
          "name": "",
          "type": "bool"
        }
      ],
      "stateMutability": "nonpayable",
      "type": "function"
    },
    {
      "inputs": [
        {
          "internalType": "address",
          "name": "owner",
          "type": "address"
        }
      ],
      "name": "balanceOf",
      "outputs": [
        {
          "internalType": "uint256",
          "name": "",
          "type": "uint256"
        }
      ],
      "stateMutability": "view",
      "type": "function"
    },
    {
      "inputs": [
        {
          "internalType": "address",
          "name": "owner",
          "type": "address"
        }
      ],
      "name": "balanceOfUnderlying",
      "outputs": [
        {
          "internalType": "uint256",
          "name": "",
          "type": "uint256"
        }
      ],
      "stateMutability": "nonpayable",
      "type": "function"
    },
    {
      "inputs": [
        {
          "internalType": "uint256",
          "name": "borrowAmount",
          "type": "uint256"
        }
      ],
      "name": "borrow",
      "outputs": [
        {
          "internalType": "uint256",
          "name": "",
          "type": "uint256"
        }
      ],
      "stateMutability": "nonpayable",
      "type": "function"
    },
    {
      "inputs": [
        {
          "internalType": "address",
          "name": "account",
          "type": "address"
        }
      ],
      "name": "borrowBalanceCurrent",
      "outputs": [
        {
          "internalType": "uint256",
          "name": "",
          "type": "uint256"
        }
      ],
      "stateMutability": "nonpayable",
      "type": "function"
    },
    {
      "inputs": [
        {
          "internalType": "address",
          "name": "account",
          "type": "address"
        }
      ],
      "name": "borrowBalanceStored",
      "outputs": [
        {
          "internalType": "uint256",
          "name": "",
          "type": "uint256"
        }
      ],
      "stateMutability": "view",
      "type": "function"
    },
    {
      "inputs": [],
      "name": "borrowIndex",
      "outputs": [
        {
          "internalType": "uint256",
          "name": "",
          "type": "uint256"
        }
      ],
      "stateMutability": "view",
      "type": "function"
    },
    {
      "inputs": [],
      "name": "borrowRatePerBlock",
      "outputs": [
        {
          "internalType": "uint256",
          "name": "",
          "type": "uint256"
        }
      ],
      "stateMutability": "view",
      "type": "function"
    },
    {
      "inputs": [],
      "name": "comptroller",
      "outputs": [
        {
          "internalType": "contract ComptrollerInterface",
          "name": "",
          "type": "address"
        }
      ],
      "stateMutability": "view",
      "type": "function"
    },
    {
      "inputs": [],
      "name": "decimals",
      "outputs": [
        {
          "internalType": "uint8",
          "name": "",
          "type": "uint8"
        }
      ],
      "stateMutability": "view",
      "type": "function"
    },
    {
      "inputs": [],
      "name": "exchangeRateCurrent",
      "outputs": [
        {
          "internalType": "uint256",
          "name": "",
          "type": "uint256"
        }
      ],
      "stateMutability": "nonpayable",
      "type": "function"
    },
    {
      "inputs": [],
      "name": "exchangeRateStored",
      "outputs": [
        {
          "internalType": "uint256",
          "name": "",
          "type": "uint256"
        }
      ],
      "stateMutability": "view",
      "type": "function"
    },
    {
      "inputs": [
        {
          "internalType": "address",
          "name": "account",
          "type": "address"
        }
      ],
      "name": "getAccountSnapshot",
      "outputs": [
        {
          "internalType": "uint256",
          "name": "",
          "type": "uint256"
        },
        {
          "internalType": "uint256",
          "name": "",
          "type": "uint256"
        },
        {
          "internalType": "uint256",
          "name": "",
          "type": "uint256"
        },
        {
          "internalType": "uint256",
          "name": "",
          "type": "uint256"
        }
      ],
      "stateMutability": "view",
      "type": "function"
    },
    {
      "inputs": [],
      "name": "getCash",
      "outputs": [
        {
          "internalType": "uint256",
          "name": "",
          "type": "uint256"
        }
      ],
      "stateMutability": "view",
      "type": "function"
    },
    {
      "inputs": [
        {
          "internalType": "contract ComptrollerInterface",
          "name": "comptroller_",
          "type": "address"
        },
        {
          "internalType": "contract InterestRateModel",
          "name": "interestRateModel_",
          "type": "address"
        },
        {
          "internalType": "uint256",
          "name": "initialExchangeRateMantissa_",
          "type": "uint256"
        },
        {
          "internalType": "string",
          "name": "name_",
          "type": "string"
        },
        {
          "internalType": "string",
          "name": "symbol_",
          "type": "string"
        },
        {
          "internalType": "uint8",
          "name": "decimals_",
          "type": "uint8"
        }
      ],
      "name": "initialize",
      "outputs": [],
      "stateMutability": "nonpayable",
      "type": "function"
    },
    {
      "inputs": [],
      "name": "interestRateModel",
      "outputs": [
        {
          "internalType": "contract InterestRateModel",
          "name": "",
          "type": "address"
        }
      ],
      "stateMutability": "view",
      "type": "function"
    },
    {
      "inputs": [],
      "name": "isCToken",
      "outputs": [
        {
          "internalType": "bool",
          "name": "",
          "type": "bool"
        }
      ],
      "stateMutability": "view",
      "type": "function"
    },
    {
      "inputs": [
        {
          "internalType": "address",
          "name": "borrower",
          "type": "address"
        },
        {
          "internalType": "contract CToken",
          "name": "cTokenCollateral",
          "type": "address"
        }
      ],
      "name": "liquidateBorrow",
      "outputs": [],
      "stateMutability": "payable",
      "type": "function"
    },
    {
      "inputs": [],
      "name": "mint",
      "outputs": [],
      "stateMutability": "payable",
      "type": "function"
    },
    {
      "inputs": [],
      "name": "name",
      "outputs": [
        {
          "internalType": "string",
          "name": "",
          "type": "string"
        }
      ],
      "stateMutability": "view",
      "type": "function"
    },
    {
      "inputs": [],
      "name": "pendingAdmin",
      "outputs": [
        {
          "internalType": "address payable",
          "name": "",
          "type": "address"
        }
      ],
      "stateMutability": "view",
      "type": "function"
    },
    {
      "inputs": [],
      "name": "protocolSeizeShareMantissa",
      "outputs": [
        {
          "internalType": "uint256",
          "name": "",
          "type": "uint256"
        }
      ],
      "stateMutability": "view",
      "type": "function"
    },
    {
      "inputs": [
        {
          "internalType": "uint256",
          "name": "redeemTokens",
          "type": "uint256"
        }
      ],
      "name": "redeem",
      "outputs": [
        {
          "internalType": "uint256",
          "name": "",
          "type": "uint256"
        }
      ],
      "stateMutability": "nonpayable",
      "type": "function"
    },
    {
      "inputs": [
        {
          "internalType": "uint256",
          "name": "redeemAmount",
          "type": "uint256"
        }
      ],
      "name": "redeemUnderlying",
      "outputs": [
        {
          "internalType": "uint256",
          "name": "",
          "type": "uint256"
        }
      ],
      "stateMutability": "nonpayable",
      "type": "function"
    },
    {
      "inputs": [],
      "name": "repayBorrow",
      "outputs": [],
      "stateMutability": "payable",
      "type": "function"
    },
    {
      "inputs": [
        {
          "internalType": "address",
          "name": "borrower",
          "type": "address"
        }
      ],
      "name": "repayBorrowBehalf",
      "outputs": [],
      "stateMutability": "payable",
      "type": "function"
    },
    {
      "inputs": [],
      "name": "reserveFactorMantissa",
      "outputs": [
        {
          "internalType": "uint256",
          "name": "",
          "type": "uint256"
        }
      ],
      "stateMutability": "view",
      "type": "function"
    },
    {
      "inputs": [
        {
          "internalType": "address",
          "name": "liquidator",
          "type": "address"
        },
        {
          "internalType": "address",
          "name": "borrower",
          "type": "address"
        },
        {
          "internalType": "uint256",
          "name": "seizeTokens",
          "type": "uint256"
        }
      ],
      "name": "seize",
      "outputs": [
        {
          "internalType": "uint256",
          "name": "",
          "type": "uint256"
        }
      ],
      "stateMutability": "nonpayable",
      "type": "function"
    },
    {
      "inputs": [],
      "name": "supplyRatePerBlock",
      "outputs": [
        {
          "internalType": "uint256",
          "name": "",
          "type": "uint256"
        }
      ],
      "stateMutability": "view",
      "type": "function"
    },
    {
      "inputs": [],
      "name": "symbol",
      "outputs": [
        {
          "internalType": "string",
          "name": "",
          "type": "string"
        }
      ],
      "stateMutability": "view",
      "type": "function"
    },
    {
      "inputs": [],
      "name": "totalBorrows",
      "outputs": [
        {
          "internalType": "uint256",
          "name": "",
          "type": "uint256"
        }
      ],
      "stateMutability": "view",
      "type": "function"
    },
    {
      "inputs": [],
      "name": "totalBorrowsCurrent",
      "outputs": [
        {
          "internalType": "uint256",
          "name": "",
          "type": "uint256"
        }
      ],
      "stateMutability": "nonpayable",
      "type": "function"
    },
    {
      "inputs": [],
      "name": "totalReserves",
      "outputs": [
        {
          "internalType": "uint256",
          "name": "",
          "type": "uint256"
        }
      ],
      "stateMutability": "view",
      "type": "function"
    },
    {
      "inputs": [],
      "name": "totalSupply",
      "outputs": [
        {
          "internalType": "uint256",
          "name": "",
          "type": "uint256"
        }
      ],
      "stateMutability": "view",
      "type": "function"
    },
    {
      "inputs": [
        {
          "internalType": "address",
          "name": "dst",
          "type": "address"
        },
        {
          "internalType": "uint256",
          "name": "amount",
          "type": "uint256"
        }
      ],
      "name": "transfer",
      "outputs": [
        {
          "internalType": "bool",
          "name": "",
          "type": "bool"
        }
      ],
      "stateMutability": "nonpayable",
      "type": "function"
    },
    {
      "inputs": [
        {
          "internalType": "address",
          "name": "src",
          "type": "address"
        },
        {
          "internalType": "address",
          "name": "dst",
          "type": "address"
        },
        {
          "internalType": "uint256",
          "name": "amount",
          "type": "uint256"
        }
      ],
      "name": "transferFrom",
      "outputs": [
        {
          "internalType": "bool",
          "name": "",
          "type": "bool"
        }
      ],
      "stateMutability": "nonpayable",
      "type": "function"
    },
    {
      "stateMutability": "payable",
      "type": "receive"
    }
  ],
  "bytecode": "0x60806040523480156200001157600080fd5b5060405162003d2038038062003d20833981016040819052620000349162000773565b60038054610100600160a81b03191633610100021790556200005b8787878787876200008e565b600380546001600160a01b0390921661010002610100600160a81b031990921691909117905550620008a6945050505050565b60035461010090046001600160a01b03163314620000ff5760405162461bcd60e51b8152602060048201526024808201527f6f6e6c792061646d696e206d617920696e697469616c697a6520746865206d616044820152631c9ad95d60e21b60648201526084015b60405180910390fd5b600954158015620001105750600a54155b6200016a5760405162461bcd60e51b815260206004820152602360248201527f6d61726b6574206d6179206f6e6c7920626520696e697469616c697a6564206f6044820152626e636560e81b6064820152608401620000f6565b600784905583620001d75760405162461bcd60e51b815260206004820152603060248201527f696e697469616c2065786368616e67652072617465206d75737420626520677260448201526f32b0ba32b9103a3430b7103d32b9379760811b6064820152608401620000f6565b6000620001e48762000300565b90508015620002365760405162461bcd60e51b815260206004820152601a60248201527f73657474696e6720636f6d7074726f6c6c6572206661696c65640000000000006044820152606401620000f6565b43600955670de0b6b3a7640000600a55620002518662000458565b90508015620002ae5760405162461bcd60e51b815260206004820152602260248201527f73657474696e6720696e7465726573742072617465206d6f64656c206661696c604482015261195960f21b6064820152608401620000f6565b8351620002c3906001906020870190620005d5565b508251620002d9906002906020860190620005d5565b50506003805460ff90921660ff199283161790556000805490911660011790555050505050565b60035460009061010090046001600160a01b03163314620003345760405163d219dc1f60e01b815260040160405180910390fd5b60055460408051623f1ee960e11b815290516001600160a01b0392831692851691627e3dd29160048083019260209291908290030181865afa1580156200037f573d6000803e3d6000fd5b505050506040513d601f19601f82011682018060405250810190620003a591906200083e565b620003f35760405162461bcd60e51b815260206004820152601c60248201527f6d61726b6572206d6574686f642072657475726e65642066616c7365000000006044820152606401620000f6565b600580546001600160a01b0319166001600160a01b0385811691821790925560408051928416835260208301919091527f7ac369dbd14fa5ea3f473ed67cc9d598964a77501540ba6751eb0b3decf5870d91015b60405180910390a150600092915050565b600354600090819061010090046001600160a01b031633146200048e5760405163407fded560e01b815260040160405180910390fd5b4360095414620004b157604051630be2a5cb60e11b815260040160405180910390fd5b600660009054906101000a90046001600160a01b03169050826001600160a01b0316632191f92a6040518163ffffffff1660e01b8152600401602060405180830381865afa15801562000508573d6000803e3d6000fd5b505050506040513d601f19601f820116820180604052508101906200052e91906200083e565b6200057c5760405162461bcd60e51b815260206004820152601c60248201527f6d61726b6572206d6574686f642072657475726e65642066616c7365000000006044820152606401620000f6565b600680546001600160a01b0319166001600160a01b0385811691821790925560408051928416835260208301919091527fedffc32e068c7c95dfd4bdfd5c4d939a084d6b11c4199eac8436ed234d72f926910162000447565b828054620005e39062000869565b90600052602060002090601f01602090048101928262000607576000855562000652565b82601f106200062257805160ff191683800117855562000652565b8280016001018555821562000652579182015b828111156200065257825182559160200191906001019062000635565b506200066092915062000664565b5090565b5b8082111562000660576000815560010162000665565b6001600160a01b03811681146200069157600080fd5b50565b634e487b7160e01b600052604160045260246000fd5b600082601f830112620006bc57600080fd5b81516001600160401b0380821115620006d957620006d962000694565b604051601f8301601f19908116603f0116810190828211818310171562000704576200070462000694565b816040528381526020925086838588010111156200072157600080fd5b600091505b8382101562000745578582018301518183018401529082019062000726565b83821115620007575760008385830101525b9695505050505050565b80516200076e816200067b565b919050565b600080600080600080600060e0888a0312156200078f57600080fd5b87516200079c816200067b565b6020890151909750620007af816200067b565b604089015160608a015191975095506001600160401b0380821115620007d457600080fd5b620007e28b838c01620006aa565b955060808a0151915080821115620007f957600080fd5b50620008088a828b01620006aa565b93505060a088015160ff811681146200082057600080fd5b91506200083060c0890162000761565b905092959891949750929550565b6000602082840312156200085157600080fd5b815180151581146200086257600080fd5b9392505050565b600181811c908216806200087e57607f821691505b60208210811415620008a057634e487b7160e01b600052602260045260246000fd5b50919050565b61346a80620008b66000396000f3fe6080604052600436106102975760003560e01c806395d89b411161015a578063c5ebeaec116100c1578063f3fdb15a1161007a578063f3fdb15a146107a7578063f851a440146107c7578063f8f9da28146107ec578063fca7820b14610801578063fcb6414714610821578063fe9c44ae1461082957600080fd5b8063c5ebeaec146106d9578063db006a75146106f9578063dd62ed3e14610719578063e59746191461075f578063e9c714f214610772578063f2b3abbd1461078757600080fd5b8063aae40a2a11610113578063aae40a2a1461061c578063ae9d70b01461062f578063b2a02ff114610644578063b71d1a0c14610664578063bd6d894d14610684578063c37f68e21461069957600080fd5b806395d89b411461057c57806395dd91931461059157806399d8c1b4146105b1578063a6afed95146105d1578063a9059cbb146105e6578063aa5af0fd1461060657600080fd5b80634576b5db116101fe57806369ab3250116101b757806369ab3250146104d05780636c540baf146104e557806370a08231146104fb57806373acee9814610531578063852a12e3146105465780638f840ddd1461056657600080fd5b80634576b5db1461043757806347bd3718146104575780634e4d9fea1461046d5780635fe3b56714610475578063601a0bf1146104955780636752e702146104b557600080fd5b8063182df0f511610250578063182df0f51461036957806323b872dd1461037e578063267822471461039e578063313ce567146103d65780633af9e669146104025780633b1d21a21461042257600080fd5b806306fdde03146102ac578063095ea7b3146102d75780631249c58b14610307578063173b99041461030f57806317bfdfbc1461033357806318160ddd1461035357600080fd5b366102a7576102a53461083e565b005b600080fd5b3480156102b857600080fd5b506102c1610896565b6040516102ce9190612ffc565b60405180910390f35b3480156102e357600080fd5b506102f76102f2366004613066565b610924565b60405190151581526020016102ce565b6102a5610992565b34801561031b57600080fd5b5061032560085481565b6040519081526020016102ce565b34801561033f57600080fd5b5061032561034e366004613092565b61099d565b34801561035f57600080fd5b50610325600d5481565b34801561037557600080fd5b506103256109f0565b34801561038a57600080fd5b506102f76103993660046130af565b6109ff565b3480156103aa57600080fd5b506004546103be906001600160a01b031681565b6040516001600160a01b0390911681526020016102ce565b3480156103e257600080fd5b506003546103f09060ff1681565b60405160ff90911681526020016102ce565b34801561040e57600080fd5b5061032561041d366004613092565b610a4f565b34801561042e57600080fd5b50610325610a95565b34801561044357600080fd5b50610325610452366004613092565b610a9f565b34801561046357600080fd5b50610325600b5481565b6102a5610bf1565b34801561048157600080fd5b506005546103be906001600160a01b031681565b3480156104a157600080fd5b506103256104b03660046130f0565b610bfa565b3480156104c157600080fd5b50610325666379da05b6000081565b3480156104dc57600080fd5b50610325600081565b3480156104f157600080fd5b5061032560095481565b34801561050757600080fd5b50610325610516366004613092565b6001600160a01b03166000908152600e602052604090205490565b34801561053d57600080fd5b50610325610c39565b34801561055257600080fd5b506103256105613660046130f0565b610c83565b34801561057257600080fd5b50610325600c5481565b34801561058857600080fd5b506102c1610c96565b34801561059d57600080fd5b506103256105ac366004613092565b610ca3565b3480156105bd57600080fd5b506102a56105cc3660046131ac565b610cb4565b3480156105dd57600080fd5b50610325610f0f565b3480156105f257600080fd5b506102f7610601366004613066565b6110fd565b34801561061257600080fd5b50610325600a5481565b6102a561062a366004613258565b61114c565b34801561063b57600080fd5b5061032561115b565b34801561065057600080fd5b5061032561065f3660046130af565b6111f3565b34801561067057600080fd5b5061032561067f366004613092565b611242565b34801561069057600080fd5b506103256112cf565b3480156106a557600080fd5b506106b96106b4366004613092565b61131f565b6040805194855260208501939093529183015260608201526080016102ce565b3480156106e557600080fd5b506103256106f43660046130f0565b611360565b34801561070557600080fd5b506103256107143660046130f0565b61136b565b34801561072557600080fd5b50610325610734366004613258565b6001600160a01b039182166000908152600f6020908152604080832093909416825291909152205490565b6102a561076d366004613092565b611376565b34801561077e57600080fd5b50610325611383565b34801561079357600080fd5b506103256107a2366004613092565b61148a565b3480156107b357600080fd5b506006546103be906001600160a01b031681565b3480156107d357600080fd5b506003546103be9061010090046001600160a01b031681565b3480156107f857600080fd5b5061032561149e565b34801561080d57600080fd5b5061032561081c3660046130f0565b6114f1565b610325611530565b34801561083557600080fd5b506102f7600181565b60005460ff166108695760405162461bcd60e51b815260040161086090613291565b60405180910390fd5b6000805460ff1916905561087b610f0f565b50610886338261153b565b506000805460ff19166001179055565b600180546108a3906132b5565b80601f01602080910402602001604051908101604052809291908181526020018280546108cf906132b5565b801561091c5780601f106108f15761010080835404028352916020019161091c565b820191906000526020600020905b8154815290600101906020018083116108ff57829003601f168201915b505050505081565b336000818152600f602090815260408083206001600160a01b03871680855292528083208590555191929182907f8c5be1e5ebec7d5bd14f71427d1e84f3dd0314c0f7b2291e5b200ac8c7c3b925906109809087815260200190565b60405180910390a35060019392505050565b61099b3461083e565b565b6000805460ff166109c05760405162461bcd60e51b815260040161086090613291565b6000805460ff191690556109d2610f0f565b506109dc82610ca3565b90506000805460ff19166001179055919050565b60006109fa6116f1565b905090565b6000805460ff16610a225760405162461bcd60e51b815260040161086090613291565b6000805460ff19168155610a383386868661175b565b1490506000805460ff191660011790559392505050565b6000806040518060200160405280610a656112cf565b90526001600160a01b0384166000908152600e6020526040902054909150610a8e908290611989565b9392505050565b60006109fa6119a9565b60035460009061010090046001600160a01b03163314610ad25760405163d219dc1f60e01b815260040160405180910390fd5b60055460408051623f1ee960e11b815290516001600160a01b0392831692851691627e3dd29160048083019260209291908290030181865afa158015610b1c573d6000803e3d6000fd5b505050506040513d601f19601f82011682018060405250810190610b4091906132ea565b610b8c5760405162461bcd60e51b815260206004820152601c60248201527f6d61726b6572206d6574686f642072657475726e65642066616c7365000000006044820152606401610860565b600580546001600160a01b0319166001600160a01b0385811691821790925560408051928416835260208301919091527f7ac369dbd14fa5ea3f473ed67cc9d598964a77501540ba6751eb0b3decf5870d91015b60405180910390a150600092915050565b61099b346119b5565b6000805460ff16610c1d5760405162461bcd60e51b815260040161086090613291565b6000805460ff19169055610c2f610f0f565b506109dc82611a06565b6000805460ff16610c5c5760405162461bcd60e51b815260040161086090613291565b6000805460ff19169055610c6e610f0f565b5050600b546000805460ff1916600117905590565b6000610c8e82611b21565b506000919050565b600280546108a3906132b5565b6000610cae82611b62565b92915050565b60035461010090046001600160a01b03163314610d1f5760405162461bcd60e51b8152602060048201526024808201527f6f6e6c792061646d696e206d617920696e697469616c697a6520746865206d616044820152631c9ad95d60e21b6064820152608401610860565b600954158015610d2f5750600a54155b610d875760405162461bcd60e51b815260206004820152602360248201527f6d61726b6574206d6179206f6e6c7920626520696e697469616c697a6564206f6044820152626e636560e81b6064820152608401610860565b600784905583610df25760405162461bcd60e51b815260206004820152603060248201527f696e697469616c2065786368616e67652072617465206d75737420626520677260448201526f32b0ba32b9103a3430b7103d32b9379760811b6064820152608401610860565b6000610dfd87610a9f565b90508015610e4d5760405162461bcd60e51b815260206004820152601a60248201527f73657474696e6720636f6d7074726f6c6c6572206661696c65640000000000006044820152606401610860565b43600955670de0b6b3a7640000600a55610e6686611bac565b90508015610ec15760405162461bcd60e51b815260206004820152602260248201527f73657474696e6720696e7465726573742072617465206d6f64656c206661696c604482015261195960f21b6064820152608401610860565b8351610ed4906001906020870190612f6c565b508251610ee8906002906020860190612f6c565b50506003805460ff90921660ff199283161790556000805490911660011790555050505050565b600954600090439080821415610f285760009250505090565b6000610f326119a9565b600b54600c54600a546006546040516315f2405360e01b81526004810186905260248101859052604481018490529495509293919290916000916001600160a01b0316906315f2405390606401602060405180830381865afa158015610f9c573d6000803e3d6000fd5b505050506040513d601f19601f82011682018060405250810190610fc0919061330c565b905065048c273950008111156110185760405162461bcd60e51b815260206004820152601c60248201527f626f72726f772072617465206973206162737572646c792068696768000000006044820152606401610860565b6000611024878961333b565b9050600061104060405180602001604052808581525083611d21565b9050600061104e8288611989565b9050600061105c8883613352565b9050600061107b6040518060200160405280600854815250848a611d52565b9050600061108a85898a611d52565b60098e9055600a819055600b849055600c839055604080518d815260208101879052908101829052606081018590529091507f4dec04e750ca11537cabcd8a9eab06494de08da3735bc8871cd41250e190bc049060800160405180910390a160009d505050505050505050505050505090565b6000805460ff166111205760405162461bcd60e51b815260040161086090613291565b6000805460ff191681556111363380868661175b565b1490506000805460ff1916600117905592915050565b611157823483611d73565b5050565b6006546000906001600160a01b031663b81688166111776119a9565b600b54600c546008546040516001600160e01b031960e087901b16815260048101949094526024840192909252604483015260648201526084015b602060405180830381865afa1580156111cf573d6000803e3d6000fd5b505050506040513d601f19601f820116820180604052508101906109fa919061330c565b6000805460ff166112165760405162461bcd60e51b815260040161086090613291565b6000805460ff1916905561122c33858585611e51565b50600080805460ff191660011790559392505050565b60035460009061010090046001600160a01b0316331461127557604051635cb56c2b60e01b815260040160405180910390fd5b600480546001600160a01b038481166001600160a01b031983168117909355604080519190921680825260208201939093527fca4f2f25d0898edd99413412fb94012f9e54ec8142f9b093e7720646a95b16a99101610be0565b6000805460ff166112f25760405162461bcd60e51b815260040161086090613291565b6000805460ff19169055611304610f0f565b5061130d6109f0565b90506000805460ff1916600117905590565b6001600160a01b0381166000908152600e6020526040812054819081908190819061134987611b62565b6113516116f1565b93509350935093509193509193565b6000610c8e826120ca565b6000610c8e82612109565b611380813461214a565b50565b6004546000906001600160a01b03163314158061139e575033155b156113bc57604051631ba24f2960e21b815260040160405180910390fd5b60038054600480546001600160a01b03808216610100818102610100600160a81b0319871617968790556001600160a01b031990931690935560408051948390048216808652929095041660208401529290917ff9ffabca9c8276e99321725bcb43fb076a6c66a54b7f21c4e8146d8519b417dc910160405180910390a1600454604080516001600160a01b03808516825290921660208301527fca4f2f25d0898edd99413412fb94012f9e54ec8142f9b093e7720646a95b16a9910160405180910390a160009250505090565b6000611494610f0f565b50610cae82611bac565b6006546000906001600160a01b03166315f240536114ba6119a9565b600b54600c546040516001600160e01b031960e086901b1681526004810193909352602483019190915260448201526064016111b2565b6000805460ff166115145760405162461bcd60e51b815260040161086090613291565b6000805460ff19169055611526610f0f565b506109dc8261219c565b60006109fa34612258565b600554604051634ef4c3e160e01b81526000916001600160a01b031690634ef4c3e1906115709030908790879060040161336a565b6020604051808303816000875af115801561158f573d6000803e3d6000fd5b505050506040513d601f19601f820116820180604052508101906115b3919061330c565b905080156115d7576040516349abd4fd60e01b815260048101829052602401610860565b43600954146115f9576040516338d8859760e01b815260040160405180910390fd5b6000604051806020016040528061160e6116f1565b90529050600061161e85856122af565b9050600061162c8284612341565b905080600d5461163c9190613352565b600d556001600160a01b0386166000908152600e6020526040902054611663908290613352565b6001600160a01b0387166000908152600e60205260409081902091909155517f4c209b5fc8ad50758f13e2e1088ba56a560dff690a1c6fef26394f4c03821c4f906116b39088908590859061338e565b60405180910390a16040518181526001600160a01b0387169030906000805160206134158339815191529060200160405180910390a3505050505050565b600d546000908061170457505060075490565b600061170e6119a9565b90506000600c54600b54836117239190613352565b61172d919061333b565b9050600083611744670de0b6b3a7640000846133af565b61174e91906133ce565b95945050505050565b5090565b6005546040516317b9b84b60e31b81523060048201526001600160a01b038581166024830152848116604483015260648201849052600092839291169063bdcdc258906084016020604051808303816000875af11580156117c0573d6000803e3d6000fd5b505050506040513d601f19601f820116820180604052508101906117e4919061330c565b905080156118085760405163089d427760e11b815260048101829052602401610860565b836001600160a01b0316856001600160a01b0316141561183b57604051638cd22d1960e01b815260040160405180910390fd5b6000856001600160a01b0316876001600160a01b031614156118605750600019611888565b506001600160a01b038086166000908152600f60209081526040808320938a16835292905220545b6000611894858361333b565b6001600160a01b0388166000908152600e6020526040812054919250906118bc90879061333b565b6001600160a01b0388166000908152600e6020526040812054919250906118e4908890613352565b6001600160a01b03808b166000908152600e6020526040808220869055918b168152208190559050600019841461193e576001600160a01b03808a166000908152600f60209081526040808320938e168352929052208390555b876001600160a01b0316896001600160a01b03166000805160206134158339815191528960405161197191815260200190565b60405180910390a35060009998505050505050505050565b6000806119968484611d21565b90506119a18161235f565b949350505050565b60006109fa344761333b565b60005460ff166119d75760405162461bcd60e51b815260040161086090613291565b6000805460ff191690556119e9610f0f565b506119f5333383612377565b50506000805460ff19166001179055565b600354600090819061010090046001600160a01b03163314611a3b57604051630f7e5e6d60e41b815260040160405180910390fd5b4360095414611a5d57604051630dff50cb60e41b815260040160405180910390fd5b82611a666119a9565b1015611a8557604051633345e99960e01b815260040160405180910390fd5b600c54831115611aa8576040516378d2980560e11b815260040160405180910390fd5b82600c54611ab6919061333b565b600c819055600354909150611ad99061010090046001600160a01b031684612520565b7f3bad0c59cf2f06e7314077049f48a93578cd16f5ef92329f1dab1420a99c177e600360019054906101000a90046001600160a01b03168483604051610be09392919061338e565b60005460ff16611b435760405162461bcd60e51b815260040161086090613291565b6000805460ff19169055611b55610f0f565b506108863360008361255b565b6001600160a01b03811660009081526010602052604081208054611b895750600092915050565b600a548154600091611b9a916133af565b90508160010154816119a191906133ce565b600354600090819061010090046001600160a01b03163314611be15760405163407fded560e01b815260040160405180910390fd5b4360095414611c0357604051630be2a5cb60e11b815260040160405180910390fd5b600660009054906101000a90046001600160a01b03169050826001600160a01b0316632191f92a6040518163ffffffff1660e01b8152600401602060405180830381865afa158015611c59573d6000803e3d6000fd5b505050506040513d601f19601f82011682018060405250810190611c7d91906132ea565b611cc95760405162461bcd60e51b815260206004820152601c60248201527f6d61726b6572206d6574686f642072657475726e65642066616c7365000000006044820152606401610860565b600680546001600160a01b0319166001600160a01b0385811691821790925560408051928416835260208301919091527fedffc32e068c7c95dfd4bdfd5c4d939a084d6b11c4199eac8436ed234d72f9269101610be0565b6040805160208101909152600081526040518060200160405280611d49856000015185612838565b90529392505050565b600080611d5f8585611d21565b905061174e611d6d8261235f565b84612844565b60005460ff16611d955760405162461bcd60e51b815260040161086090613291565b6000805460ff19169055611da7610f0f565b506000816001600160a01b031663a6afed956040518163ffffffff1660e01b81526004016020604051808303816000875af1158015611dea573d6000803e3d6000fd5b505050506040513d601f19601f82011682018060405250810190611e0e919061330c565b90508015611e3257604051633eea49b760e11b815260048101829052602401610860565b611e3e33858585612850565b50506000805460ff191660011790555050565b60055460405163d02f735160e01b81523060048201526001600160a01b0386811660248301528581166044830152848116606483015260848201849052600092169063d02f73519060a4016020604051808303816000875af1158015611ebb573d6000803e3d6000fd5b505050506040513d601f19601f82011682018060405250810190611edf919061330c565b90508015611f03576040516363e00e3360e11b815260048101829052602401610860565b836001600160a01b0316836001600160a01b03161415611f3657604051633a94626760e11b815260040160405180910390fd5b6000611f57836040518060200160405280666379da05b60000815250612d0a565b90506000611f65828561333b565b905060006040518060200160405280611f7c6116f1565b905290506000611f8c8285611989565b9050600081600c54611f9e9190613352565b600c819055600d54909150611fb490869061333b565b600d556001600160a01b0388166000908152600e6020526040902054611fdb90889061333b565b6001600160a01b03808a166000908152600e602052604080822093909355908b168152205461200b908590613352565b6001600160a01b03808b166000818152600e602052604090819020939093559151908a16906000805160206134158339815191529061204d9088815260200190565b60405180910390a360405185815230906001600160a01b038a16906000805160206134158339815191529060200160405180910390a37fa91e67c5ea634cd43a12c5a482724b03de01e85ca68702a53d0c2f45cb7c1dc53083836040516120b69392919061338e565b60405180910390a150505050505050505050565b60005460ff166120ec5760405162461bcd60e51b815260040161086090613291565b6000805460ff191690556120fe610f0f565b506108863382612d2d565b60005460ff1661212b5760405162461bcd60e51b815260040161086090613291565b6000805460ff1916905561213d610f0f565b506108863382600061255b565b60005460ff1661216c5760405162461bcd60e51b815260040161086090613291565b6000805460ff1916905561217e610f0f565b5061218a338383612377565b50506000805460ff1916600117905550565b60035460009061010090046001600160a01b031633146121cf57604051631205b57b60e11b815260040160405180910390fd5b43600954146121f157604051637dfca6b760e11b815260040160405180910390fd5b670de0b6b3a764000082111561221a5760405163717220f360e11b815260040160405180910390fd5b600880549083905560408051828152602081018590527faaa68312e2ea9d50e16af5068410ab56e1a1fd06037b1a35664812c30f8214609101610be0565b6000805460ff1661227b5760405162461bcd60e51b815260040161086090613291565b6000805460ff1916905561228d610f0f565b5061229782612ecc565b5050600090506000805460ff19166001179055919050565b6000336001600160a01b038416146122fb5760405162461bcd60e51b815260206004820152600f60248201526e0e6cadcc8cae440dad2e6dac2e8c6d608b1b6044820152606401610860565b81341461233b5760405162461bcd60e51b815260206004820152600e60248201526d0ecc2d8eaca40dad2e6dac2e8c6d60931b6044820152606401610860565b50919050565b6000610a8e61235884670de0b6b3a7640000612838565b8351612f60565b8051600090610cae90670de0b6b3a7640000906133ce565b600554604051631200453160e11b81523060048201526001600160a01b03858116602483015284811660448301526064820184905260009283929116906324008a62906084016020604051808303816000875af11580156123dc573d6000803e3d6000fd5b505050506040513d601f19601f82011682018060405250810190612400919061330c565b9050801561242457604051638c81362d60e01b815260048101829052602401610860565b43600954146124465760405163c9021e2f60e01b815260040160405180910390fd5b600061245185611b62565b9050600060001985146124645784612466565b815b9050600061247488836122af565b90506000612482828561333b565b9050600082600b54612494919061333b565b6001600160a01b038a8116600081815260106020908152604091829020878155600a54600190910155600b8590558151938f168452830191909152810185905260608101849052608081018290529091507f1a2a22cb034d26d1854bdc6666a5b91fe25efbbb5dcad3b0355478d6f5c362a19060a00160405180910390a1509098975050505050505050565b6040516001600160a01b0383169082156108fc029083906000818181858888f19350505050158015612556573d6000803e3d6000fd5b505050565b811580612566575080155b6125cf5760405162461bcd60e51b815260206004820152603460248201527f6f6e65206f662072656465656d546f6b656e73496e206f722072656465656d416044820152736d6f756e74496e206d757374206265207a65726f60601b6064820152608401610860565b600060405180602001604052806125e46116f1565b905290506000808415612605578491506125fe8386611989565b9050612615565b61260f8484612341565b91508390505b60055460405163eabe7d9160e01b81526000916001600160a01b03169063eabe7d919061264a9030908b90889060040161336a565b6020604051808303816000875af1158015612669573d6000803e3d6000fd5b505050506040513d601f19601f8201168201806040525081019061268d919061330c565b905080156126b15760405163480f424760e01b815260048101829052602401610860565b43600954146126d3576040516397b5cfcd60e01b815260040160405180910390fd5b816126dc6119a9565b10156126fb576040516391240a1b60e01b815260040160405180910390fd5b82600d54612709919061333b565b600d556001600160a01b0387166000908152600e602052604090205461273090849061333b565b6001600160a01b0388166000908152600e60205260409020556127538783612520565b60405183815230906001600160a01b038916906000805160206134158339815191529060200160405180910390a37fe5b754fb1abb7f01b499791d0b820ae3b6af3424ac1c59768edb53f4ec31a9298783856040516127b49392919061338e565b60405180910390a16005546040516351dff98960e01b81523060048201526001600160a01b0389811660248301526044820185905260648201869052909116906351dff98990608401600060405180830381600087803b15801561281757600080fd5b505af115801561282b573d6000803e3d6000fd5b5050505050505050505050565b6000610a8e82846133af565b6000610a8e8284613352565b600554604051632fe3f38f60e11b81523060048201526001600160a01b03838116602483015286811660448301528581166064830152608482018590526000921690635fc7e71e9060a4016020604051808303816000875af11580156128ba573d6000803e3d6000fd5b505050506040513d601f19601f820116820180604052508101906128de919061330c565b9050801561290257604051630a14d17960e11b815260048101829052602401610860565b4360095414612924576040516380965b1b60e01b815260040160405180910390fd5b43826001600160a01b0316636c540baf6040518163ffffffff1660e01b8152600401602060405180830381865afa158015612963573d6000803e3d6000fd5b505050506040513d601f19601f82011682018060405250810190612987919061330c565b146129a557604051631046f38d60e31b815260040160405180910390fd5b846001600160a01b0316846001600160a01b031614156129d857604051631bd1a62160e21b815260040160405180910390fd5b826129f65760405163d29da7ef60e01b815260040160405180910390fd5b600019831415612a1957604051635982c5bb60e11b815260040160405180910390fd5b6000612a26868686612377565b60055460405163c488847b60e01b815291925060009182916001600160a01b03169063c488847b90612a609030908990889060040161336a565b6040805180830381865afa158015612a7c573d6000803e3d6000fd5b505050506040513d601f19601f82011682018060405250810190612aa091906133f0565b9150915060008214612b105760405162461bcd60e51b815260206004820152603360248201527f4c49515549444154455f434f4d5054524f4c4c45525f43414c43554c4154455f604482015272105353d5539517d4d152569157d19052531151606a1b6064820152608401610860565b6040516370a0823160e01b81526001600160a01b0388811660048301528291908716906370a0823190602401602060405180830381865afa158015612b59573d6000803e3d6000fd5b505050506040513d601f19601f82011682018060405250810190612b7d919061330c565b1015612bcb5760405162461bcd60e51b815260206004820152601860248201527f4c49515549444154455f5345495a455f544f4f5f4d55434800000000000000006044820152606401610860565b6001600160a01b038516301415612bed57612be830898984611e51565b612ca7565b60405163b2a02ff160e01b81526000906001600160a01b0387169063b2a02ff190612c20908c908c90879060040161336a565b6020604051808303816000875af1158015612c3f573d6000803e3d6000fd5b505050506040513d601f19601f82011682018060405250810190612c63919061330c565b14612ca75760405162461bcd60e51b81526020600482015260146024820152731d1bdad95b881cd95a5e9d5c994819985a5b195960621b6044820152606401610860565b604080516001600160a01b038a811682528981166020830152818301869052871660608201526080810183905290517f298637f684da70674f26509b10f07ec2fbc77a335ab1e7d6215a4b2484d8bb529181900360a00190a15050505050505050565b6000670de0b6b3a7640000612d23848460000151612838565b610a8e91906133ce565b60055460405163368f515360e21b81526000916001600160a01b03169063da3d454c90612d629030908790879060040161336a565b6020604051808303816000875af1158015612d81573d6000803e3d6000fd5b505050506040513d601f19601f82011682018060405250810190612da5919061330c565b90508015612dc95760405163918db40f60e01b815260048101829052602401610860565b4360095414612deb57604051630e8d8c6160e21b815260040160405180910390fd5b81612df46119a9565b1015612e13576040516348c2588160e01b815260040160405180910390fd5b6000612e1e84611b62565b90506000612e2c8483613352565b9050600084600b54612e3e9190613352565b6001600160a01b0387166000908152601060205260409020838155600a54600190910155600b8190559050612e738686612520565b604080516001600160a01b038816815260208101879052908101839052606081018290527f13ed6866d4e1ee6da46f845c46d7e54120883d75c5ea9a2dacc1c4ca8984ab809060800160405180910390a1505050505050565b60008080804360095414612ef6576040516338acf79960e01b815260048101829052602401610860565b612f0033866122af565b905080600c54612f109190613352565b915081600c819055507fa91e67c5ea634cd43a12c5a482724b03de01e85ca68702a53d0c2f45cb7c1dc5338284604051612f4c9392919061338e565b60405180910390a160009590945092505050565b6000610a8e82846133ce565b828054612f78906132b5565b90600052602060002090601f016020900481019282612f9a5760008555612fe0565b82601f10612fb357805160ff1916838001178555612fe0565b82800160010185558215612fe0579182015b82811115612fe0578251825591602001919060010190612fc5565b506117579291505b808211156117575760008155600101612fe8565b600060208083528351808285015260005b818110156130295785810183015185820160400152820161300d565b8181111561303b576000604083870101525b50601f01601f1916929092016040019392505050565b6001600160a01b038116811461138057600080fd5b6000806040838503121561307957600080fd5b823561308481613051565b946020939093013593505050565b6000602082840312156130a457600080fd5b8135610a8e81613051565b6000806000606084860312156130c457600080fd5b83356130cf81613051565b925060208401356130df81613051565b929592945050506040919091013590565b60006020828403121561310257600080fd5b5035919050565b634e487b7160e01b600052604160045260246000fd5b600082601f83011261313057600080fd5b813567ffffffffffffffff8082111561314b5761314b613109565b604051601f8301601f19908116603f0116810190828211818310171561317357613173613109565b8160405283815286602085880101111561318c57600080fd5b836020870160208301376000602085830101528094505050505092915050565b60008060008060008060c087890312156131c557600080fd5b86356131d081613051565b955060208701356131e081613051565b945060408701359350606087013567ffffffffffffffff8082111561320457600080fd5b6132108a838b0161311f565b9450608089013591508082111561322657600080fd5b5061323389828a0161311f565b92505060a087013560ff8116811461324a57600080fd5b809150509295509295509295565b6000806040838503121561326b57600080fd5b823561327681613051565b9150602083013561328681613051565b809150509250929050565b6020808252600a90820152691c994b595b9d195c995960b21b604082015260600190565b600181811c908216806132c957607f821691505b6020821081141561233b57634e487b7160e01b600052602260045260246000fd5b6000602082840312156132fc57600080fd5b81518015158114610a8e57600080fd5b60006020828403121561331e57600080fd5b5051919050565b634e487b7160e01b600052601160045260246000fd5b60008282101561334d5761334d613325565b500390565b6000821982111561336557613365613325565b500190565b6001600160a01b039384168152919092166020820152604081019190915260600190565b6001600160a01b039390931683526020830191909152604082015260600190565b60008160001904831182151516156133c9576133c9613325565b500290565b6000826133eb57634e487b7160e01b600052601260045260246000fd5b500490565b6000806040838503121561340357600080fd5b50508051602090910151909290915056feddf252ad1be2c89b69c2b068fc378daa952ba7f163c4a11628f55a4df523b3efa264697066735822122010c8428f16a99a9f9e7939964a8efb73239486e8c942dc98751398d06c5d9eea64736f6c634300080a0033",
  "linkReferences": {},
  "deployedLinkReferences": {}
}