{
  "_format": "hh-sol-artifact-1",
  "contractName": "CErc20DelegatorGmx",
  "sourceName": "contracts/CErc20DelegatorGmx.sol",
  "abi": [
    {
      "inputs": [
        {
          "internalType": "address",
          "name": "underlying_",
          "type": "address"
        },
        {
          "internalType": "contract ComptrollerInterface",
          "name": "comptroller_",
          "type": "address"
        },
        {
          "internalType": "contract InterestRateModel",
          "name": "interestRateModel_",
          "type": "address"
        },
        {
          "internalType": "uint256",
          "name": "initialExchangeRateMantissa_",
          "type": "uint256"
        },
        {
          "internalType": "string",
          "name": "name_",
          "type": "string"
        },
        {
          "internalType": "string",
          "name": "symbol_",
          "type": "string"
        },
        {
          "internalType": "uint8",
          "name": "decimals_",
          "type": "uint8"
        },
        {
          "internalType": "address payable",
          "name": "admin_",
          "type": "address"
        },
        {
          "internalType": "address",
          "name": "implementation_",
          "type": "address"
        },
        {
          "internalType": "bytes",
          "name": "becomeImplementationData",
          "type": "bytes"
        }
      ],
      "stateMutability": "nonpayable",
      "type": "constructor"
    },
    {
      "anonymous": false,
      "inputs": [
        {
          "indexed": false,
          "internalType": "uint256",
          "name": "cashPrior",
          "type": "uint256"
        },
        {
          "indexed": false,
          "internalType": "uint256",
          "name": "interestAccumulated",
          "type": "uint256"
        },
        {
          "indexed": false,
          "internalType": "uint256",
          "name": "borrowIndex",
          "type": "uint256"
        },
        {
          "indexed": false,
          "internalType": "uint256",
          "name": "totalBorrows",
          "type": "uint256"
        }
      ],
      "name": "AccrueInterest",
      "type": "event"
    },
    {
      "anonymous": false,
      "inputs": [
        {
          "indexed": true,
          "internalType": "address",
          "name": "owner",
          "type": "address"
        },
        {
          "indexed": true,
          "internalType": "address",
          "name": "spender",
          "type": "address"
        },
        {
          "indexed": false,
          "internalType": "uint256",
          "name": "amount",
          "type": "uint256"
        }
      ],
      "name": "Approval",
      "type": "event"
    },
    {
      "anonymous": false,
      "inputs": [
        {
          "indexed": false,
          "internalType": "address",
          "name": "borrower",
          "type": "address"
        },
        {
          "indexed": false,
          "internalType": "uint256",
          "name": "borrowAmount",
          "type": "uint256"
        },
        {
          "indexed": false,
          "internalType": "uint256",
          "name": "accountBorrows",
          "type": "uint256"
        },
        {
          "indexed": false,
          "internalType": "uint256",
          "name": "totalBorrows",
          "type": "uint256"
        }
      ],
      "name": "Borrow",
      "type": "event"
    },
    {
      "anonymous": false,
      "inputs": [
        {
          "indexed": false,
          "internalType": "address",
          "name": "liquidator",
          "type": "address"
        },
        {
          "indexed": false,
          "internalType": "address",
          "name": "borrower",
          "type": "address"
        },
        {
          "indexed": false,
          "internalType": "uint256",
          "name": "repayAmount",
          "type": "uint256"
        },
        {
          "indexed": false,
          "internalType": "address",
          "name": "cTokenCollateral",
          "type": "address"
        },
        {
          "indexed": false,
          "internalType": "uint256",
          "name": "seizeTokens",
          "type": "uint256"
        }
      ],
      "name": "LiquidateBorrow",
      "type": "event"
    },
    {
      "anonymous": false,
      "inputs": [
        {
          "indexed": false,
          "internalType": "address",
          "name": "minter",
          "type": "address"
        },
        {
          "indexed": false,
          "internalType": "uint256",
          "name": "mintAmount",
          "type": "uint256"
        },
        {
          "indexed": false,
          "internalType": "uint256",
          "name": "mintTokens",
          "type": "uint256"
        }
      ],
      "name": "Mint",
      "type": "event"
    },
    {
      "anonymous": false,
      "inputs": [
        {
          "indexed": false,
          "internalType": "address",
          "name": "oldAdmin",
          "type": "address"
        },
        {
          "indexed": false,
          "internalType": "address",
          "name": "newAdmin",
          "type": "address"
        }
      ],
      "name": "NewAdmin",
      "type": "event"
    },
    {
      "anonymous": false,
      "inputs": [
        {
          "indexed": false,
          "internalType": "contract ComptrollerInterface",
          "name": "oldComptroller",
          "type": "address"
        },
        {
          "indexed": false,
          "internalType": "contract ComptrollerInterface",
          "name": "newComptroller",
          "type": "address"
        }
      ],
      "name": "NewComptroller",
      "type": "event"
    },
    {
      "anonymous": false,
      "inputs": [
        {
          "indexed": false,
          "internalType": "address",
          "name": "oldImplementation",
          "type": "address"
        },
        {
          "indexed": false,
          "internalType": "address",
          "name": "newImplementation",
          "type": "address"
        }
      ],
      "name": "NewImplementation",
      "type": "event"
    },
    {
      "anonymous": false,
      "inputs": [
        {
          "indexed": false,
          "internalType": "contract InterestRateModel",
          "name": "oldInterestRateModel",
          "type": "address"
        },
        {
          "indexed": false,
          "internalType": "contract InterestRateModel",
          "name": "newInterestRateModel",
          "type": "address"
        }
      ],
      "name": "NewMarketInterestRateModel",
      "type": "event"
    },
    {
      "anonymous": false,
      "inputs": [
        {
          "indexed": false,
          "internalType": "address",
          "name": "oldPendingAdmin",
          "type": "address"
        },
        {
          "indexed": false,
          "internalType": "address",
          "name": "newPendingAdmin",
          "type": "address"
        }
      ],
      "name": "NewPendingAdmin",
      "type": "event"
    },
    {
      "anonymous": false,
      "inputs": [
        {
          "indexed": false,
          "internalType": "uint256",
          "name": "oldReserveFactorMantissa",
          "type": "uint256"
        },
        {
          "indexed": false,
          "internalType": "uint256",
          "name": "newReserveFactorMantissa",
          "type": "uint256"
        }
      ],
      "name": "NewReserveFactor",
      "type": "event"
    },
    {
      "anonymous": false,
      "inputs": [
        {
          "indexed": false,
          "internalType": "address",
          "name": "redeemer",
          "type": "address"
        },
        {
          "indexed": false,
          "internalType": "uint256",
          "name": "redeemAmount",
          "type": "uint256"
        },
        {
          "indexed": false,
          "internalType": "uint256",
          "name": "redeemTokens",
          "type": "uint256"
        }
      ],
      "name": "Redeem",
      "type": "event"
    },
    {
      "anonymous": false,
      "inputs": [
        {
          "indexed": false,
          "internalType": "address",
          "name": "payer",
          "type": "address"
        },
        {
          "indexed": false,
          "internalType": "address",
          "name": "borrower",
          "type": "address"
        },
        {
          "indexed": false,
          "internalType": "uint256",
          "name": "repayAmount",
          "type": "uint256"
        },
        {
          "indexed": false,
          "internalType": "uint256",
          "name": "accountBorrows",
          "type": "uint256"
        },
        {
          "indexed": false,
          "internalType": "uint256",
          "name": "totalBorrows",
          "type": "uint256"
        }
      ],
      "name": "RepayBorrow",
      "type": "event"
    },
    {
      "anonymous": false,
      "inputs": [
        {
          "indexed": false,
          "internalType": "address",
          "name": "benefactor",
          "type": "address"
        },
        {
          "indexed": false,
          "internalType": "uint256",
          "name": "addAmount",
          "type": "uint256"
        },
        {
          "indexed": false,
          "internalType": "uint256",
          "name": "newTotalReserves",
          "type": "uint256"
        }
      ],
      "name": "ReservesAdded",
      "type": "event"
    },
    {
      "anonymous": false,
      "inputs": [
        {
          "indexed": false,
          "internalType": "address",
          "name": "admin",
          "type": "address"
        },
        {
          "indexed": false,
          "internalType": "uint256",
          "name": "reduceAmount",
          "type": "uint256"
        },
        {
          "indexed": false,
          "internalType": "uint256",
          "name": "newTotalReserves",
          "type": "uint256"
        }
      ],
      "name": "ReservesReduced",
      "type": "event"
    },
    {
      "anonymous": false,
      "inputs": [
        {
          "indexed": true,
          "internalType": "address",
          "name": "from",
          "type": "address"
        },
        {
          "indexed": true,
          "internalType": "address",
          "name": "to",
          "type": "address"
        },
        {
          "indexed": false,
          "internalType": "uint256",
          "name": "amount",
          "type": "uint256"
        }
      ],
      "name": "Transfer",
      "type": "event"
    },
    {
      "stateMutability": "payable",
      "type": "fallback"
    },
    {
      "inputs": [],
      "name": "WETH",
      "outputs": [
        {
          "internalType": "address",
          "name": "",
          "type": "address"
        }
      ],
      "stateMutability": "view",
      "type": "function"
    },
    {
      "inputs": [],
      "name": "_acceptAdmin",
      "outputs": [
        {
          "internalType": "uint256",
          "name": "",
          "type": "uint256"
        }
      ],
      "stateMutability": "nonpayable",
      "type": "function"
    },
    {
      "inputs": [
        {
          "internalType": "uint256",
          "name": "addAmount",
          "type": "uint256"
        }
      ],
      "name": "_addReserves",
      "outputs": [
        {
          "internalType": "uint256",
          "name": "",
          "type": "uint256"
        }
      ],
      "stateMutability": "nonpayable",
      "type": "function"
    },
    {
      "inputs": [
        {
          "internalType": "uint256",
          "name": "reduceAmount",
          "type": "uint256"
        }
      ],
      "name": "_reduceReserves",
      "outputs": [
        {
          "internalType": "uint256",
          "name": "",
          "type": "uint256"
        }
      ],
      "stateMutability": "nonpayable",
      "type": "function"
    },
    {
      "inputs": [
        {
          "internalType": "bool",
          "name": "autocompound_",
          "type": "bool"
        }
      ],
      "name": "_setAutocompoundRewards",
      "outputs": [
        {
          "internalType": "uint256",
          "name": "",
          "type": "uint256"
        }
      ],
      "stateMutability": "nonpayable",
      "type": "function"
    },
    {
      "inputs": [
        {
          "internalType": "contract ComptrollerInterface",
          "name": "newComptroller",
          "type": "address"
        }
      ],
      "name": "_setComptroller",
      "outputs": [
        {
          "internalType": "uint256",
          "name": "",
          "type": "uint256"
        }
      ],
      "stateMutability": "nonpayable",
      "type": "function"
    },
    {
      "inputs": [
        {
          "internalType": "address",
          "name": "glpManager_",
          "type": "address"
        }
      ],
      "name": "_setGlpManagerAddress",
      "outputs": [
        {
          "internalType": "uint256",
          "name": "",
          "type": "uint256"
        }
      ],
      "stateMutability": "nonpayable",
      "type": "function"
    },
    {
      "inputs": [
        {
          "internalType": "address",
          "name": "implementation_",
          "type": "address"
        },
        {
          "internalType": "bool",
          "name": "allowResign",
          "type": "bool"
        },
        {
          "internalType": "bytes",
          "name": "becomeImplementationData",
          "type": "bytes"
        }
      ],
      "name": "_setImplementation",
      "outputs": [],
      "stateMutability": "nonpayable",
      "type": "function"
    },
    {
      "inputs": [
        {
          "internalType": "contract InterestRateModel",
          "name": "newInterestRateModel",
          "type": "address"
        }
      ],
      "name": "_setInterestRateModel",
      "outputs": [
        {
          "internalType": "uint256",
          "name": "",
          "type": "uint256"
        }
      ],
      "stateMutability": "nonpayable",
      "type": "function"
    },
    {
      "inputs": [
        {
          "internalType": "address payable",
          "name": "newPendingAdmin",
          "type": "address"
        }
      ],
      "name": "_setPendingAdmin",
      "outputs": [
        {
          "internalType": "uint256",
          "name": "",
          "type": "uint256"
        }
      ],
      "stateMutability": "nonpayable",
      "type": "function"
    },
    {
      "inputs": [
        {
          "internalType": "uint256",
          "name": "newReserveFactorMantissa",
          "type": "uint256"
        }
      ],
      "name": "_setReserveFactor",
      "outputs": [
        {
          "internalType": "uint256",
          "name": "",
          "type": "uint256"
        }
      ],
      "stateMutability": "nonpayable",
      "type": "function"
    },
    {
      "inputs": [
        {
          "internalType": "contract IGmxRewardRouter",
          "name": "glpRewardRouter_",
          "type": "address"
        }
      ],
      "name": "_setRewardRouterAddress",
      "outputs": [
        {
          "internalType": "uint256",
          "name": "",
          "type": "uint256"
        }
      ],
      "stateMutability": "nonpayable",
      "type": "function"
    },
    {
      "inputs": [
        {
          "internalType": "contract IStakedGlp",
          "name": "stakedGLP_",
          "type": "address"
        }
      ],
      "name": "_setStakedGlpAddress",
      "outputs": [
        {
          "internalType": "uint256",
          "name": "",
          "type": "uint256"
        }
      ],
      "stateMutability": "nonpayable",
      "type": "function"
    },
    {
      "inputs": [
        {
          "internalType": "address",
          "name": "recipient",
          "type": "address"
        }
      ],
      "name": "_signalTransfer",
      "outputs": [
        {
          "internalType": "uint256",
          "name": "",
          "type": "uint256"
        }
      ],
      "stateMutability": "nonpayable",
      "type": "function"
    },
    {
      "inputs": [],
      "name": "accrualBlockNumber",
      "outputs": [
        {
          "internalType": "uint256",
          "name": "",
          "type": "uint256"
        }
      ],
      "stateMutability": "view",
      "type": "function"
    },
    {
      "inputs": [],
      "name": "accrueInterest",
      "outputs": [
        {
          "internalType": "uint256",
          "name": "",
          "type": "uint256"
        }
      ],
      "stateMutability": "nonpayable",
      "type": "function"
    },
    {
      "inputs": [],
      "name": "admin",
      "outputs": [
        {
          "internalType": "address payable",
          "name": "",
          "type": "address"
        }
      ],
      "stateMutability": "view",
      "type": "function"
    },
    {
      "inputs": [
        {
          "internalType": "address",
          "name": "owner",
          "type": "address"
        },
        {
          "internalType": "address",
          "name": "spender",
          "type": "address"
        }
      ],
      "name": "allowance",
      "outputs": [
        {
          "internalType": "uint256",
          "name": "",
          "type": "uint256"
        }
      ],
      "stateMutability": "view",
      "type": "function"
    },
    {
      "inputs": [
        {
          "internalType": "address",
          "name": "spender",
          "type": "address"
        },
        {
          "internalType": "uint256",
          "name": "amount",
          "type": "uint256"
        }
      ],
      "name": "approve",
      "outputs": [
        {
          "internalType": "bool",
          "name": "",
          "type": "bool"
        }
      ],
      "stateMutability": "nonpayable",
      "type": "function"
    },
    {
      "inputs": [],
      "name": "approveGlpRewardRouterWETHSpending",
      "outputs": [],
      "stateMutability": "nonpayable",
      "type": "function"
    },
    {
      "inputs": [],
      "name": "autocompound",
      "outputs": [
        {
          "internalType": "bool",
          "name": "",
          "type": "bool"
        }
      ],
      "stateMutability": "view",
      "type": "function"
    },
    {
      "inputs": [
        {
          "internalType": "address",
          "name": "owner",
          "type": "address"
        }
      ],
      "name": "balanceOf",
      "outputs": [
        {
          "internalType": "uint256",
          "name": "",
          "type": "uint256"
        }
      ],
      "stateMutability": "view",
      "type": "function"
    },
    {
      "inputs": [
        {
          "internalType": "address",
          "name": "owner",
          "type": "address"
        }
      ],
      "name": "balanceOfUnderlying",
      "outputs": [
        {
          "internalType": "uint256",
          "name": "",
          "type": "uint256"
        }
      ],
      "stateMutability": "nonpayable",
      "type": "function"
    },
    {
      "inputs": [
        {
          "internalType": "uint256",
          "name": "borrowAmount",
          "type": "uint256"
        }
      ],
      "name": "borrow",
      "outputs": [
        {
          "internalType": "uint256",
          "name": "",
          "type": "uint256"
        }
      ],
      "stateMutability": "nonpayable",
      "type": "function"
    },
    {
      "inputs": [
        {
          "internalType": "address",
          "name": "account",
          "type": "address"
        }
      ],
      "name": "borrowBalanceCurrent",
      "outputs": [
        {
          "internalType": "uint256",
          "name": "",
          "type": "uint256"
        }
      ],
      "stateMutability": "nonpayable",
      "type": "function"
    },
    {
      "inputs": [
        {
          "internalType": "address",
          "name": "account",
          "type": "address"
        }
      ],
      "name": "borrowBalanceStored",
      "outputs": [
        {
          "internalType": "uint256",
          "name": "",
          "type": "uint256"
        }
      ],
      "stateMutability": "view",
      "type": "function"
    },
    {
      "inputs": [],
      "name": "borrowIndex",
      "outputs": [
        {
          "internalType": "uint256",
          "name": "",
          "type": "uint256"
        }
      ],
      "stateMutability": "view",
      "type": "function"
    },
    {
      "inputs": [],
      "name": "borrowRatePerBlock",
      "outputs": [
        {
          "internalType": "uint256",
          "name": "",
          "type": "uint256"
        }
      ],
      "stateMutability": "view",
      "type": "function"
    },
    {
      "inputs": [],
      "name": "comptroller",
      "outputs": [
        {
          "internalType": "contract ComptrollerInterface",
          "name": "",
          "type": "address"
        }
      ],
      "stateMutability": "view",
      "type": "function"
    },
    {
      "inputs": [],
      "name": "decimals",
      "outputs": [
        {
          "internalType": "uint8",
          "name": "",
          "type": "uint8"
        }
      ],
      "stateMutability": "view",
      "type": "function"
    },
    {
      "inputs": [
        {
          "internalType": "bytes",
          "name": "data",
          "type": "bytes"
        }
      ],
      "name": "delegateToImplementation",
      "outputs": [
        {
          "internalType": "bytes",
          "name": "",
          "type": "bytes"
        }
      ],
      "stateMutability": "nonpayable",
      "type": "function"
    },
    {
      "inputs": [
        {
          "internalType": "bytes",
          "name": "data",
          "type": "bytes"
        }
      ],
      "name": "delegateToViewImplementation",
      "outputs": [
        {
          "internalType": "bytes",
          "name": "",
          "type": "bytes"
        }
      ],
      "stateMutability": "view",
      "type": "function"
    },
    {
      "inputs": [
        {
          "internalType": "address",
          "name": "_NFTAddress",
          "type": "address"
        },
        {
          "internalType": "uint256",
          "name": "_TokenID",
          "type": "uint256"
        }
      ],
      "name": "depositNFT",
      "outputs": [],
      "stateMutability": "nonpayable",
      "type": "function"
    },
    {
      "inputs": [],
      "name": "exchangeRateCurrent",
      "outputs": [
        {
          "internalType": "uint256",
          "name": "",
          "type": "uint256"
        }
      ],
      "stateMutability": "nonpayable",
      "type": "function"
    },
    {
      "inputs": [],
      "name": "exchangeRateStored",
      "outputs": [
        {
          "internalType": "uint256",
          "name": "",
          "type": "uint256"
        }
      ],
      "stateMutability": "view",
      "type": "function"
    },
    {
      "inputs": [
        {
          "internalType": "address",
          "name": "account",
          "type": "address"
        }
      ],
      "name": "getAccountSnapshot",
      "outputs": [
        {
          "internalType": "uint256",
          "name": "",
          "type": "uint256"
        },
        {
          "internalType": "uint256",
          "name": "",
          "type": "uint256"
        },
        {
          "internalType": "uint256",
          "name": "",
          "type": "uint256"
        },
        {
          "internalType": "uint256",
          "name": "",
          "type": "uint256"
        }
      ],
      "stateMutability": "view",
      "type": "function"
    },
    {
      "inputs": [],
      "name": "getCash",
      "outputs": [
        {
          "internalType": "uint256",
          "name": "",
          "type": "uint256"
        }
      ],
      "stateMutability": "view",
      "type": "function"
    },
    {
      "inputs": [],
      "name": "glpManager",
      "outputs": [
        {
          "internalType": "address",
          "name": "",
          "type": "address"
        }
      ],
      "stateMutability": "view",
      "type": "function"
    },
    {
      "inputs": [],
      "name": "glpRewardRouter",
      "outputs": [
        {
          "internalType": "contract IGmxRewardRouter",
          "name": "",
          "type": "address"
        }
      ],
      "stateMutability": "view",
      "type": "function"
    },
    {
      "inputs": [],
      "name": "gmxToken",
      "outputs": [
        {
          "internalType": "address",
          "name": "",
          "type": "address"
        }
      ],
      "stateMutability": "view",
      "type": "function"
    },
    {
      "inputs": [],
      "name": "implementation",
      "outputs": [
        {
          "internalType": "address",
          "name": "",
          "type": "address"
        }
      ],
      "stateMutability": "view",
      "type": "function"
    },
    {
      "inputs": [],
      "name": "interestRateModel",
      "outputs": [
        {
          "internalType": "contract InterestRateModel",
          "name": "",
          "type": "address"
        }
      ],
      "stateMutability": "view",
      "type": "function"
    },
    {
      "inputs": [],
      "name": "isCToken",
      "outputs": [
        {
          "internalType": "bool",
          "name": "",
          "type": "bool"
        }
      ],
      "stateMutability": "view",
      "type": "function"
    },
    {
      "inputs": [],
      "name": "isGLP",
      "outputs": [
        {
          "internalType": "bool",
          "name": "",
          "type": "bool"
        }
      ],
      "stateMutability": "view",
      "type": "function"
    },
    {
      "inputs": [
        {
          "internalType": "address",
          "name": "borrower",
          "type": "address"
        },
        {
          "internalType": "uint256",
          "name": "repayAmount",
          "type": "uint256"
        },
        {
          "internalType": "contract CTokenInterface",
          "name": "cTokenCollateral",
          "type": "address"
        }
      ],
      "name": "liquidateBorrow",
      "outputs": [
        {
          "internalType": "uint256",
          "name": "",
          "type": "uint256"
        }
      ],
      "stateMutability": "nonpayable",
      "type": "function"
    },
    {
      "inputs": [
        {
          "internalType": "uint256",
          "name": "mintAmount",
          "type": "uint256"
        }
      ],
      "name": "mint",
      "outputs": [
        {
          "internalType": "uint256",
          "name": "",
          "type": "uint256"
        }
      ],
      "stateMutability": "nonpayable",
      "type": "function"
    },
    {
      "inputs": [],
      "name": "name",
      "outputs": [
        {
          "internalType": "string",
          "name": "",
          "type": "string"
        }
      ],
      "stateMutability": "view",
      "type": "function"
    },
    {
      "inputs": [],
      "name": "pendingAdmin",
      "outputs": [
        {
          "internalType": "address payable",
          "name": "",
          "type": "address"
        }
      ],
      "stateMutability": "view",
      "type": "function"
    },
    {
      "inputs": [],
      "name": "protocolSeizeShareMantissa",
      "outputs": [
        {
          "internalType": "uint256",
          "name": "",
          "type": "uint256"
        }
      ],
      "stateMutability": "view",
      "type": "function"
    },
    {
      "inputs": [],
      "name": "proxyType",
      "outputs": [
        {
          "internalType": "uint256",
          "name": "proxyTypeId",
          "type": "uint256"
        }
      ],
      "stateMutability": "pure",
      "type": "function"
    },
    {
      "inputs": [
        {
          "internalType": "uint256",
          "name": "redeemTokens",
          "type": "uint256"
        }
      ],
      "name": "redeem",
      "outputs": [
        {
          "internalType": "uint256",
          "name": "",
          "type": "uint256"
        }
      ],
      "stateMutability": "nonpayable",
      "type": "function"
    },
    {
      "inputs": [
        {
          "internalType": "uint256",
          "name": "redeemAmount",
          "type": "uint256"
        }
      ],
      "name": "redeemUnderlying",
      "outputs": [
        {
          "internalType": "uint256",
          "name": "",
          "type": "uint256"
        }
      ],
      "stateMutability": "nonpayable",
      "type": "function"
    },
    {
      "inputs": [
        {
          "internalType": "uint256",
          "name": "repayAmount",
          "type": "uint256"
        }
      ],
      "name": "repayBorrow",
      "outputs": [
        {
          "internalType": "uint256",
          "name": "",
          "type": "uint256"
        }
      ],
      "stateMutability": "nonpayable",
      "type": "function"
    },
    {
      "inputs": [
        {
          "internalType": "address",
          "name": "borrower",
          "type": "address"
        },
        {
          "internalType": "uint256",
          "name": "repayAmount",
          "type": "uint256"
        }
      ],
      "name": "repayBorrowBehalf",
      "outputs": [
        {
          "internalType": "uint256",
          "name": "",
          "type": "uint256"
        }
      ],
      "stateMutability": "nonpayable",
      "type": "function"
    },
    {
      "inputs": [],
      "name": "reserveFactorMantissa",
      "outputs": [
        {
          "internalType": "uint256",
          "name": "",
          "type": "uint256"
        }
      ],
      "stateMutability": "view",
      "type": "function"
    },
    {
      "inputs": [],
      "name": "sbfGMX",
      "outputs": [
        {
          "internalType": "address",
          "name": "",
          "type": "address"
        }
      ],
      "stateMutability": "view",
      "type": "function"
    },
    {
      "inputs": [
        {
          "internalType": "address",
          "name": "liquidator",
          "type": "address"
        },
        {
          "internalType": "address",
          "name": "borrower",
          "type": "address"
        },
        {
          "internalType": "uint256",
          "name": "seizeTokens",
          "type": "uint256"
        }
      ],
      "name": "seize",
      "outputs": [
        {
          "internalType": "uint256",
          "name": "",
          "type": "uint256"
        }
      ],
      "stateMutability": "nonpayable",
      "type": "function"
    },
    {
      "inputs": [],
      "name": "stakedGLP",
      "outputs": [
        {
          "internalType": "contract IStakedGlp",
          "name": "",
          "type": "address"
        }
      ],
      "stateMutability": "view",
      "type": "function"
    },
    {
      "inputs": [],
      "name": "stakedGmxTracker",
      "outputs": [
        {
          "internalType": "contract IRewardTracker",
          "name": "",
          "type": "address"
        }
      ],
      "stateMutability": "view",
      "type": "function"
    },
    {
      "inputs": [],
      "name": "supplyRatePerBlock",
      "outputs": [
        {
          "internalType": "uint256",
          "name": "",
          "type": "uint256"
        }
      ],
      "stateMutability": "view",
      "type": "function"
    },
    {
      "inputs": [
        {
          "internalType": "contract EIP20NonStandardInterface",
          "name": "token",
          "type": "address"
        }
      ],
      "name": "sweepToken",
      "outputs": [],
      "stateMutability": "nonpayable",
      "type": "function"
    },
    {
      "inputs": [],
      "name": "symbol",
      "outputs": [
        {
          "internalType": "string",
          "name": "",
          "type": "string"
        }
      ],
      "stateMutability": "view",
      "type": "function"
    },
    {
      "inputs": [],
      "name": "totalBorrows",
      "outputs": [
        {
          "internalType": "uint256",
          "name": "",
          "type": "uint256"
        }
      ],
      "stateMutability": "view",
      "type": "function"
    },
    {
      "inputs": [],
      "name": "totalBorrowsCurrent",
      "outputs": [
        {
          "internalType": "uint256",
          "name": "",
          "type": "uint256"
        }
      ],
      "stateMutability": "nonpayable",
      "type": "function"
    },
    {
      "inputs": [],
      "name": "totalReserves",
      "outputs": [
        {
          "internalType": "uint256",
          "name": "",
          "type": "uint256"
        }
      ],
      "stateMutability": "view",
      "type": "function"
    },
    {
      "inputs": [],
      "name": "totalSupply",
      "outputs": [
        {
          "internalType": "uint256",
          "name": "",
          "type": "uint256"
        }
      ],
      "stateMutability": "view",
      "type": "function"
    },
    {
      "inputs": [
        {
          "internalType": "address",
          "name": "dst",
          "type": "address"
        },
        {
          "internalType": "uint256",
          "name": "amount",
          "type": "uint256"
        }
      ],
      "name": "transfer",
      "outputs": [
        {
          "internalType": "bool",
          "name": "",
          "type": "bool"
        }
      ],
      "stateMutability": "nonpayable",
      "type": "function"
    },
    {
      "inputs": [
        {
          "internalType": "address",
          "name": "src",
          "type": "address"
        },
        {
          "internalType": "address",
          "name": "dst",
          "type": "address"
        },
        {
          "internalType": "uint256",
          "name": "amount",
          "type": "uint256"
        }
      ],
      "name": "transferFrom",
      "outputs": [
        {
          "internalType": "bool",
          "name": "",
          "type": "bool"
        }
      ],
      "stateMutability": "nonpayable",
      "type": "function"
    },
    {
      "inputs": [],
      "name": "underlying",
      "outputs": [
        {
          "internalType": "address",
          "name": "",
          "type": "address"
        }
      ],
      "stateMutability": "view",
      "type": "function"
    },
    {
      "inputs": [
        {
          "internalType": "address",
          "name": "_NFTAddress",
          "type": "address"
        },
        {
          "internalType": "uint256",
          "name": "_TokenID",
          "type": "uint256"
        }
      ],
      "name": "withdrawNFT",
      "outputs": [],
      "stateMutability": "nonpayable",
      "type": "function"
    }
  ],
  "bytecode": "0x60a06040526000805476a906f338cb21815cbc4bc87ace9e68c87ef8d8f10000006301000000600160b81b0319909116179055600180546001600160a01b0319908116732f546ad4edd93b956c8999be404cdcafde3e89ae1790915560028054821673fc5a1a6eb076a2c7ad06ed22c90d7e710e35ad0a17905560038054821673908c4d94d34924765f1edc22a1dd098397c59dd417905560048054821673d2d1162512f927a7e282ef43a362659e4f2a728f1790557382af49447d8a07e3bd95bd0d56f35241523fbab16080526005805490911673321f653eed006ad1c29d174e17d96351bde22649179055348015620000f957600080fd5b5060405162002981380380620029818339810160408190526200011c9162000502565b60088054610100600160a81b03191633610100021790556040516200018d90839062000159908d908d908d908d908d908d908d906024016200063e565b60408051601f198184030181529190526020810180516001600160e01b0390811663ceeb027960e01b17909152620001d216565b506200019c8260008362000251565b5050600880546001600160a01b0390921661010002610100600160a81b031990921691909117905550620006e195505050505050565b6060600080846001600160a01b031684604051620001f19190620006a7565b600060405180830381855af49150503d80600081146200022e576040519150601f19603f3d011682016040523d82523d6000602084013e62000233565b606091505b5091509150600082141562000249573d60208201fd5b949350505050565b60085461010090046001600160a01b03163314620002db5760405162461bcd60e51b815260206004820152603960248201527f43457263323044656c656761746f723a3a5f736574496d706c656d656e74617460448201527f696f6e3a2043616c6c6572206d7573742062652061646d696e00000000000000606482015260840160405180910390fd5b81156200031d576040805160048152602481019091526020810180516001600160e01b0390811663153ab50560e01b179091526200031b9190620003d816565b505b601780546001600160a01b038581166001600160a01b03198316179092556040519116906200038a9062000356908490602401620006c5565b60408051601f198184030181529190526020810180516001600160e01b03908116630adccee560e31b17909152620003d816565b50601754604080516001600160a01b03808516825290921660208301527fd604de94d45953f9138079ec1b82d533cb2160c906d1076d1f7ed54befbca97a910160405180910390a150505050565b601754606090620003f3906001600160a01b031683620001d2565b92915050565b80516001600160a01b03811681146200041157600080fd5b919050565b634e487b7160e01b600052604160045260246000fd5b60005b83811015620004495781810151838201526020016200042f565b8381111562000459576000848401525b50505050565b600082601f8301126200047157600080fd5b81516001600160401b03808211156200048e576200048e62000416565b604051601f8301601f19908116603f01168101908282118183101715620004b957620004b962000416565b81604052838152866020858801011115620004d357600080fd5b620004e68460208301602089016200042c565b9695505050505050565b805160ff811681146200041157600080fd5b6000806000806000806000806000806101408b8d0312156200052357600080fd5b6200052e8b620003f9565b99506200053e60208c01620003f9565b98506200054e60408c01620003f9565b60608c015160808d015191995097506001600160401b03808211156200057357600080fd5b620005818e838f016200045f565b975060a08d01519150808211156200059857600080fd5b620005a68e838f016200045f565b9650620005b660c08e01620004f0565b9550620005c660e08e01620003f9565b9450620005d76101008e01620003f9565b93506101208d0151915080821115620005ef57600080fd5b50620005fe8d828e016200045f565b9150509295989b9194979a5092959850565b600081518084526200062a8160208601602086016200042c565b601f01601f19169290920160200192915050565b6001600160a01b0388811682528781166020830152861660408201526060810185905260e0608082018190526000906200067b9083018662000610565b82810360a08401526200068f818662000610565b91505060ff831660c083015298975050505050505050565b60008251620006bb8184602087016200042c565b9190910192915050565b602081526000620006da602083018462000610565b9392505050565b60805161227d6200070460003960008181610ab80152611cf9015261227d6000f3fe6080604052600436106104055760003560e01c806370a0823111610213578063bae49e9911610123578063f3fdb15a116100ab578063fa6db1bc1161007a578063fa6db1bc14610cf3578063fca7820b14610d13578063fe9c44ae14610d33578063ff5a376414610d48578063ff5b0cb414610d6857610405565b8063f3fdb15a14610c79578063f5e3c46214610c99578063f851a44014610cb9578063f8f9da2814610cde57610405565b8063c5ebeaec116100f2578063c5ebeaec14610be4578063db006a7514610c04578063dd62ed3e14610c24578063e9c714f214610c44578063f2b3abbd14610c5957610405565b8063bae49e9914610b4f578063bc3b7a1814610b6f578063bd6d894d14610b8f578063c37f68e214610ba457610405565b8063a0712d68116101a6578063ad5c464811610175578063ad5c464814610aa6578063adbf857114610ada578063ae9d70b014610afa578063b2a02ff114610b0f578063b71d1a0c14610b2f57610405565b8063a0712d6814610a3b578063a6afed9514610a5b578063a9059cbb14610a70578063aa5af0fd14610a9057610405565b80638f840ddd116101e25780638f840ddd146109d057806395d89b41146109e657806395dd9193146109fb5780639b5b9b1814610a1b57610405565b806370a082311461095c57806373acee981461097c578063842e11eb14610991578063852a12e3146109b057610405565b80633af9e669116103195780635b30cf55116102a15780636088e93a116102705780636088e93a146108c45780636752e702146108e457806368672231146108ff5780636c540baf146109265780636f307dc31461093c57610405565b80635b30cf55146108445780635c60da1b146108645780635fe3b56714610884578063601a0bf1146108a457610405565b80634487152f116102e85780634487152f146107ba5780634555d5c9146107da5780634576b5db146107ee57806347bd37181461080e578063555bcc401461082457610405565b80633af9e669146107455780633b1d21a2146107655780633e9410101461077a5780633f7a37d31461079a57610405565b806318160ddd1161039c5780632608f8181161036b5780632608f8181461069957806326782247146106b957806326d9687c146106d9578063313ce567146106f957806336818b011461072557610405565b806318160ddd1461062c578063182df0f5146106425780631be195601461065757806323b872dd1461067957610405565b80630ce4018a116103d85780630ce4018a146105a85780630e752702146105c8578063173b9904146105f657806317bfdfbc1461060c57610405565b806306dd74e5146104f957806306fdde03146105365780630933c1ed14610558578063095ea7b314610578575b341561047e5760405162461bcd60e51b815260206004820152603760248201527f43457263323044656c656761746f723a66616c6c6261636b3a2063616e6e6f7460448201527f2073656e642076616c756520746f2066616c6c6261636b00000000000000000060648201526084015b60405180910390fd5b6017546040516000916001600160a01b03169061049e9083903690611ddd565b600060405180830381855af49150503d80600081146104d9576040519150601f19603f3d011682016040523d82523d6000602084013e6104de565b606091505b505090506040513d6000823e8180156104f5573d82f35b3d82fd5b34801561050557600080fd5b50600454610519906001600160a01b031681565b6040516001600160a01b0390911681526020015b60405180910390f35b34801561054257600080fd5b5061054b610d7d565b60405161052d9190611e49565b34801561056457600080fd5b5061054b610573366004611f21565b610e0b565b34801561058457600080fd5b50610598610593366004611f6b565b610e2a565b604051901515815260200161052d565b3480156105b457600080fd5b50600354610519906001600160a01b031681565b3480156105d457600080fd5b506105e86105e3366004611f97565b610e9c565b60405190815260200161052d565b34801561060257600080fd5b506105e8600d5481565b34801561061857600080fd5b506105e8610627366004611fb0565b610f01565b34801561063857600080fd5b506105e860125481565b34801561064e57600080fd5b506105e8610f4e565b34801561066357600080fd5b50610677610672366004611fb0565b610fa1565b005b34801561068557600080fd5b50610598610694366004611fcd565b610fec565b3480156106a557600080fd5b506105e86106b4366004611f6b565b611067565b3480156106c557600080fd5b50600954610519906001600160a01b031681565b3480156106e557600080fd5b506000546105989062010000900460ff1681565b34801561070557600080fd5b506008546107139060ff1681565b60405160ff909116815260200161052d565b34801561073157600080fd5b506105e8610740366004611fb0565b6110d1565b34801561075157600080fd5b506105e8610760366004611fb0565b61111e565b34801561077157600080fd5b506105e861116b565b34801561078657600080fd5b506105e8610795366004611f97565b6111a2565b3480156107a657600080fd5b506105e86107b5366004611fb0565b6111ea565b3480156107c657600080fd5b5061054b6107d5366004611f21565b611237565b3480156107e657600080fd5b5060026105e8565b3480156107fa57600080fd5b506105e8610809366004611fb0565b6112f5565b34801561081a57600080fd5b506105e860105481565b34801561083057600080fd5b5061067761083f36600461201c565b611342565b34801561085057600080fd5b50600154610519906001600160a01b031681565b34801561087057600080fd5b50601754610519906001600160a01b031681565b34801561089057600080fd5b50600a54610519906001600160a01b031681565b3480156108b057600080fd5b506105e86108bf366004611f97565b6114b4565b3480156108d057600080fd5b506106776108df366004611f6b565b6114fc565b3480156108f057600080fd5b506105e8666379da05b6000081565b34801561090b57600080fd5b5060005461051990630100000090046001600160a01b031681565b34801561093257600080fd5b506105e8600e5481565b34801561094857600080fd5b50601654610519906001600160a01b031681565b34801561096857600080fd5b506105e8610977366004611fb0565b611550565b34801561098857600080fd5b506105e861159d565b34801561099d57600080fd5b5060005461059890610100900460ff1681565b3480156109bc57600080fd5b506105e86109cb366004611f97565b6115d4565b3480156109dc57600080fd5b506105e860115481565b3480156109f257600080fd5b5061054b61161c565b348015610a0757600080fd5b506105e8610a16366004611fb0565b611629565b348015610a2757600080fd5b50610677610a36366004611f6b565b611676565b348015610a4757600080fd5b506105e8610a56366004611f97565b6116c5565b348015610a6757600080fd5b506105e861170d565b348015610a7c57600080fd5b50610598610a8b366004611f6b565b611744565b348015610a9c57600080fd5b506105e8600f5481565b348015610ab257600080fd5b506105197f000000000000000000000000000000000000000000000000000000000000000081565b348015610ae657600080fd5b506105e8610af5366004611fb0565b611798565b348015610b0657600080fd5b506105e86117e5565b348015610b1b57600080fd5b506105e8610b2a366004611fcd565b61181c565b348015610b3b57600080fd5b506105e8610b4a366004611fb0565b61188e565b348015610b5b57600080fd5b50600254610519906001600160a01b031681565b348015610b7b57600080fd5b506105e8610b8a36600461207e565b6118db565b348015610b9b57600080fd5b506105e8611925565b348015610bb057600080fd5b50610bc4610bbf366004611fb0565b61195c565b60408051948552602085019390935291830152606082015260800161052d565b348015610bf057600080fd5b506105e8610bff366004611f97565b6119dc565b348015610c1057600080fd5b506105e8610c1f366004611f97565b611a24565b348015610c3057600080fd5b506105e8610c3f36600461209b565b611a6c565b348015610c5057600080fd5b506105e8611ac1565b348015610c6557600080fd5b506105e8610c74366004611fb0565b611af8565b348015610c8557600080fd5b50600b54610519906001600160a01b031681565b348015610ca557600080fd5b506105e8610cb43660046120d4565b611b45565b348015610cc557600080fd5b506008546105199061010090046001600160a01b031681565b348015610cea57600080fd5b506105e8611ba1565b348015610cff57600080fd5b50600554610519906001600160a01b031681565b348015610d1f57600080fd5b506105e8610d2e366004611f97565b611bd8565b348015610d3f57600080fd5b50610598600181565b348015610d5457600080fd5b506105e8610d63366004611fb0565b611c20565b348015610d7457600080fd5b50610677611c70565b60068054610d8a90612116565b80601f0160208091040260200160405190810160405280929190818152602001828054610db690612116565b8015610e035780601f10610dd857610100808354040283529160200191610e03565b820191906000526020600020905b815481529060010190602001808311610de657829003601f168201915b505050505081565b601754606090610e24906001600160a01b031683611d6b565b92915050565b6040516001600160a01b0383166024820152604481018290526000908190610e7e9060640160408051601f198184030181529190526020810180516001600160e01b031663095ea7b360e01b179052610e0b565b905080806020019051810190610e949190612151565b949350505050565b600080610ee483604051602401610eb591815260200190565b60408051601f198184030181529190526020810180516001600160e01b031663073a938160e11b179052610e0b565b905080806020019051810190610efa919061216e565b9392505050565b6040516001600160a01b03821660248201526000908190610ee49060440160408051601f198184030181529190526020810180516001600160e01b03166305eff7ef60e21b179052610e0b565b6040805160048152602481019091526020810180516001600160e01b031663182df0f560e01b1790526000908190610f8590611237565b905080806020019051810190610f9b919061216e565b91505090565b6040516001600160a01b0382166024820152610fe89060440160408051601f198184030181529190526020810180516001600160e01b031662df0cab60e51b179052610e0b565b5050565b6040516001600160a01b038085166024830152831660448201526064810182905260009081906110489060840160408051601f198184030181529190526020810180516001600160e01b03166323b872dd60e01b179052610e0b565b90508080602001905181019061105e9190612151565b95945050505050565b6040516001600160a01b03831660248201526044810182905260009081906110bb9060640160408051601f198184030181529190526020810180516001600160e01b03166304c11f0360e31b179052610e0b565b905080806020019051810190610e94919061216e565b6040516001600160a01b03821660248201526000908190610ee49060440160408051601f198184030181529190526020810180516001600160e01b03166336818b0160e01b179052610e0b565b6040516001600160a01b03821660248201526000908190610ee49060440160408051601f198184030181529190526020810180516001600160e01b0316633af9e66960e01b179052610e0b565b6040805160048152602481019091526020810180516001600160e01b0316631d8e90d160e11b1790526000908190610f8590611237565b600080610ee4836040516024016111bb91815260200190565b60408051601f198184030181529190526020810180516001600160e01b03166303e9410160e41b179052610e0b565b6040516001600160a01b03821660248201526000908190610ee49060440160408051601f198184030181529190526020810180516001600160e01b0316633f7a37d360e01b179052610e0b565b6060600080306001600160a01b0316846040516024016112579190611e49565b60408051601f198184030181529181526020820180516001600160e01b0316630933c1ed60e01b1790525161128c9190612187565b600060405180830381855afa9150503d80600081146112c7576040519150601f19603f3d011682016040523d82523d6000602084013e6112cc565b606091505b509150915060008214156112e1573d60208201fd5b80806020019051810190610e9491906121a3565b6040516001600160a01b03821660248201526000908190610ee49060440160408051601f198184030181529190526020810180516001600160e01b0316634576b5db60e01b179052610e0b565b60085461010090046001600160a01b031633146113c75760405162461bcd60e51b815260206004820152603960248201527f43457263323044656c656761746f723a3a5f736574496d706c656d656e74617460448201527f696f6e3a2043616c6c6572206d7573742062652061646d696e000000000000006064820152608401610475565b8115611401576040805160048152602481019091526020810180516001600160e01b031663153ab50560e01b1790526113ff90610e0b565b505b601780546001600160a01b038581166001600160a01b031983161790925560405191169061146690611437908490602401611e49565b60408051601f198184030181529190526020810180516001600160e01b0316630adccee560e31b179052610e0b565b50601754604080516001600160a01b03808516825290921660208301527fd604de94d45953f9138079ec1b82d533cb2160c906d1076d1f7ed54befbca97a910160405180910390a150505050565b600080610ee4836040516024016114cd91815260200190565b60408051601f198184030181529190526020810180516001600160e01b031663601a0bf160e01b179052610e0b565b6040516001600160a01b03831660248201526044810182905261154b9060640160408051601f198184030181529190526020810180516001600160e01b0316638cbc795b60e01b179052610e0b565b505050565b6040516001600160a01b03821660248201526000908190610ee49060440160408051601f198184030181529190526020810180516001600160e01b03166370a0823160e01b179052611237565b6040805160048152602481019091526020810180516001600160e01b0316630e759dd360e31b1790526000908190610f8590610e0b565b600080610ee4836040516024016115ed91815260200190565b60408051601f198184030181529190526020810180516001600160e01b031663852a12e360e01b179052610e0b565b60078054610d8a90612116565b6040516001600160a01b03821660248201526000908190610ee49060440160408051601f198184030181529190526020810180516001600160e01b03166395dd919360e01b179052611237565b6040516001600160a01b03831660248201526044810182905261154b9060640160408051601f198184030181529190526020810180516001600160e01b0316632fca6c1d60e21b179052610e0b565b600080610ee4836040516024016116de91815260200190565b60408051601f198184030181529190526020810180516001600160e01b031663140e25ad60e31b179052610e0b565b6040805160048152602481019091526020810180516001600160e01b031663a6afed9560e01b1790526000908190610f8590610e0b565b6040516001600160a01b0383166024820152604481018290526000908190610e7e9060640160408051601f198184030181529190526020810180516001600160e01b031663a9059cbb60e01b179052610e0b565b6040516001600160a01b03821660248201526000908190610ee49060440160408051601f198184030181529190526020810180516001600160e01b031663adbf857160e01b179052610e0b565b6040805160048152602481019091526020810180516001600160e01b0316630ae9d70b60e41b1790526000908190610f8590611237565b6040516001600160a01b038085166024830152831660448201526064810182905260009081906118789060840160408051601f198184030181529190526020810180516001600160e01b031663b2a02ff160e01b179052610e0b565b90508080602001905181019061105e919061216e565b6040516001600160a01b03821660248201526000908190610ee49060440160408051601f198184030181529190526020810180516001600160e01b0316632dc7468360e21b179052610e0b565b600080610ee4836040516024016118f6911515815260200190565b60408051601f198184030181529190526020810180516001600160e01b03166317876f4360e31b179052610e0b565b6040805160048152602481019091526020810180516001600160e01b031663bd6d894d60e01b1790526000908190610f8590610e0b565b60008060008060006119b68660405160240161198791906001600160a01b0391909116815260200190565b60408051601f198184030181529190526020810180516001600160e01b03166361bfb47160e11b179052611237565b9050808060200190518101906119cc9190612211565b9450945094509450509193509193565b600080610ee4836040516024016119f591815260200190565b60408051601f198184030181529190526020810180516001600160e01b031663317afabb60e21b179052610e0b565b600080610ee483604051602401611a3d91815260200190565b60408051601f198184030181529190526020810180516001600160e01b031663db006a7560e01b179052610e0b565b6040516001600160a01b0380841660248301528216604482015260009081906110bb9060640160408051601f198184030181529190526020810180516001600160e01b0316636eb1769f60e11b179052611237565b6040805160048152602481019091526020810180516001600160e01b03166374e38a7960e11b1790526000908190610f8590610e0b565b6040516001600160a01b03821660248201526000908190610ee49060440160408051601f198184030181529190526020810180516001600160e01b031663f2b3abbd60e01b179052610e0b565b6040516001600160a01b038085166024830152604482018490528216606482015260009081906118789060840160408051601f198184030181529190526020810180516001600160e01b0316637af1e23160e11b179052610e0b565b6040805160048152602481019091526020810180516001600160e01b0316631f1f3b4560e31b1790526000908190610f8590611237565b600080610ee483604051602401611bf191815260200190565b60408051601f198184030181529190526020810180516001600160e01b031663fca7820b60e01b179052610e0b565b6040516001600160a01b03821660248201526000908190610ee49060440160408051601f198184030181529190526020810180516001600160e01b031660016229722760e21b0319179052610e0b565b60085461010090046001600160a01b03163314611ccf5760405162461bcd60e51b815260206004820152601b60248201527f6f6e6c792061646d696e2063616e2063616c6c20617070726f766500000000006044820152606401610475565b60055460405163095ea7b360e01b81526001600160a01b03918216600482015260001960248201527f00000000000000000000000000000000000000000000000000000000000000009091169063095ea7b3906044016020604051808303816000875af1158015611d44573d6000803e3d6000fd5b505050506040513d601f19601f82011682018060405250810190611d689190612151565b50565b6060600080846001600160a01b031684604051611d889190612187565b600060405180830381855af49150503d8060008114611dc3576040519150601f19603f3d011682016040523d82523d6000602084013e611dc8565b606091505b50915091506000821415610e94573d60208201fd5b8183823760009101908152919050565b60005b83811015611e08578181015183820152602001611df0565b83811115611e17576000848401525b50505050565b60008151808452611e35816020860160208601611ded565b601f01601f19169290920160200192915050565b602081526000610efa6020830184611e1d565b634e487b7160e01b600052604160045260246000fd5b604051601f8201601f1916810167ffffffffffffffff81118282101715611e9b57611e9b611e5c565b604052919050565b600067ffffffffffffffff821115611ebd57611ebd611e5c565b50601f01601f191660200190565b600082601f830112611edc57600080fd5b8135611eef611eea82611ea3565b611e72565b818152846020838601011115611f0457600080fd5b816020850160208301376000918101602001919091529392505050565b600060208284031215611f3357600080fd5b813567ffffffffffffffff811115611f4a57600080fd5b610e9484828501611ecb565b6001600160a01b0381168114611d6857600080fd5b60008060408385031215611f7e57600080fd5b8235611f8981611f56565b946020939093013593505050565b600060208284031215611fa957600080fd5b5035919050565b600060208284031215611fc257600080fd5b8135610efa81611f56565b600080600060608486031215611fe257600080fd5b8335611fed81611f56565b92506020840135611ffd81611f56565b929592945050506040919091013590565b8015158114611d6857600080fd5b60008060006060848603121561203157600080fd5b833561203c81611f56565b9250602084013561204c8161200e565b9150604084013567ffffffffffffffff81111561206857600080fd5b61207486828701611ecb565b9150509250925092565b60006020828403121561209057600080fd5b8135610efa8161200e565b600080604083850312156120ae57600080fd5b82356120b981611f56565b915060208301356120c981611f56565b809150509250929050565b6000806000606084860312156120e957600080fd5b83356120f481611f56565b925060208401359150604084013561210b81611f56565b809150509250925092565b600181811c9082168061212a57607f821691505b6020821081141561214b57634e487b7160e01b600052602260045260246000fd5b50919050565b60006020828403121561216357600080fd5b8151610efa8161200e565b60006020828403121561218057600080fd5b5051919050565b60008251612199818460208701611ded565b9190910192915050565b6000602082840312156121b557600080fd5b815167ffffffffffffffff8111156121cc57600080fd5b8201601f810184136121dd57600080fd5b80516121eb611eea82611ea3565b81815285602083850101111561220057600080fd5b61105e826020830160208601611ded565b6000806000806080858703121561222757600080fd5b50508251602084015160408501516060909501519196909550909250905056fea26469706673582212209568d6d7d41cfe0118d89da0e5317affc16287cd73f93b14d77d9f36ecfa102664736f6c634300080a0033",
  "linkReferences": {},
  "deployedLinkReferences": {}
}