{
  "_format": "hh-sol-artifact-1",
  "contractName": "GovernorBravoDelegate",
  "sourceName": "contracts/Governance/GovernorBravoDelegate.sol",
  "abi": [
    {
      "anonymous": false,
      "inputs": [
        {
          "indexed": false,
          "internalType": "address",
          "name": "oldAdmin",
          "type": "address"
        },
        {
          "indexed": false,
          "internalType": "address",
          "name": "newAdmin",
          "type": "address"
        }
      ],
      "name": "NewAdmin",
      "type": "event"
    },
    {
      "anonymous": false,
      "inputs": [
        {
          "indexed": false,
          "internalType": "address",
          "name": "oldImplementation",
          "type": "address"
        },
        {
          "indexed": false,
          "internalType": "address",
          "name": "newImplementation",
          "type": "address"
        }
      ],
      "name": "NewImplementation",
      "type": "event"
    },
    {
      "anonymous": false,
      "inputs": [
        {
          "indexed": false,
          "internalType": "address",
          "name": "oldPendingAdmin",
          "type": "address"
        },
        {
          "indexed": false,
          "internalType": "address",
          "name": "newPendingAdmin",
          "type": "address"
        }
      ],
      "name": "NewPendingAdmin",
      "type": "event"
    },
    {
      "anonymous": false,
      "inputs": [
        {
          "indexed": false,
          "internalType": "uint256",
          "name": "id",
          "type": "uint256"
        }
      ],
      "name": "ProposalCanceled",
      "type": "event"
    },
    {
      "anonymous": false,
      "inputs": [
        {
          "indexed": false,
          "internalType": "uint256",
          "name": "id",
          "type": "uint256"
        },
        {
          "indexed": false,
          "internalType": "address",
          "name": "proposer",
          "type": "address"
        },
        {
          "indexed": false,
          "internalType": "address[]",
          "name": "targets",
          "type": "address[]"
        },
        {
          "indexed": false,
          "internalType": "uint256[]",
          "name": "values",
          "type": "uint256[]"
        },
        {
          "indexed": false,
          "internalType": "string[]",
          "name": "signatures",
          "type": "string[]"
        },
        {
          "indexed": false,
          "internalType": "bytes[]",
          "name": "calldatas",
          "type": "bytes[]"
        },
        {
          "indexed": false,
          "internalType": "uint256",
          "name": "startBlock",
          "type": "uint256"
        },
        {
          "indexed": false,
          "internalType": "uint256",
          "name": "endBlock",
          "type": "uint256"
        },
        {
          "indexed": false,
          "internalType": "string",
          "name": "description",
          "type": "string"
        }
      ],
      "name": "ProposalCreated",
      "type": "event"
    },
    {
      "anonymous": false,
      "inputs": [
        {
          "indexed": false,
          "internalType": "uint256",
          "name": "id",
          "type": "uint256"
        }
      ],
      "name": "ProposalExecuted",
      "type": "event"
    },
    {
      "anonymous": false,
      "inputs": [
        {
          "indexed": false,
          "internalType": "uint256",
          "name": "id",
          "type": "uint256"
        },
        {
          "indexed": false,
          "internalType": "uint256",
          "name": "eta",
          "type": "uint256"
        }
      ],
      "name": "ProposalQueued",
      "type": "event"
    },
    {
      "anonymous": false,
      "inputs": [
        {
          "indexed": false,
          "internalType": "uint256",
          "name": "oldProposalThreshold",
          "type": "uint256"
        },
        {
          "indexed": false,
          "internalType": "uint256",
          "name": "newProposalThreshold",
          "type": "uint256"
        }
      ],
      "name": "ProposalThresholdSet",
      "type": "event"
    },
    {
      "anonymous": false,
      "inputs": [
        {
          "indexed": true,
          "internalType": "address",
          "name": "voter",
          "type": "address"
        },
        {
          "indexed": false,
          "internalType": "uint256",
          "name": "proposalId",
          "type": "uint256"
        },
        {
          "indexed": false,
          "internalType": "uint8",
          "name": "support",
          "type": "uint8"
        },
        {
          "indexed": false,
          "internalType": "uint256",
          "name": "votes",
          "type": "uint256"
        },
        {
          "indexed": false,
          "internalType": "string",
          "name": "reason",
          "type": "string"
        }
      ],
      "name": "VoteCast",
      "type": "event"
    },
    {
      "anonymous": false,
      "inputs": [
        {
          "indexed": false,
          "internalType": "uint256",
          "name": "oldVotingDelay",
          "type": "uint256"
        },
        {
          "indexed": false,
          "internalType": "uint256",
          "name": "newVotingDelay",
          "type": "uint256"
        }
      ],
      "name": "VotingDelaySet",
      "type": "event"
    },
    {
      "anonymous": false,
      "inputs": [
        {
          "indexed": false,
          "internalType": "uint256",
          "name": "oldVotingPeriod",
          "type": "uint256"
        },
        {
          "indexed": false,
          "internalType": "uint256",
          "name": "newVotingPeriod",
          "type": "uint256"
        }
      ],
      "name": "VotingPeriodSet",
      "type": "event"
    },
    {
      "anonymous": false,
      "inputs": [
        {
          "indexed": false,
          "internalType": "address",
          "name": "account",
          "type": "address"
        },
        {
          "indexed": false,
          "internalType": "uint256",
          "name": "expiration",
          "type": "uint256"
        }
      ],
      "name": "WhitelistAccountExpirationSet",
      "type": "event"
    },
    {
      "anonymous": false,
      "inputs": [
        {
          "indexed": false,
          "internalType": "address",
          "name": "oldGuardian",
          "type": "address"
        },
        {
          "indexed": false,
          "internalType": "address",
          "name": "newGuardian",
          "type": "address"
        }
      ],
      "name": "WhitelistGuardianSet",
      "type": "event"
    },
    {
      "constant": true,
      "inputs": [],
      "name": "BALLOT_TYPEHASH",
      "outputs": [
        {
          "internalType": "bytes32",
          "name": "",
          "type": "bytes32"
        }
      ],
      "payable": false,
      "stateMutability": "view",
      "type": "function"
    },
    {
      "constant": true,
      "inputs": [],
      "name": "DOMAIN_TYPEHASH",
      "outputs": [
        {
          "internalType": "bytes32",
          "name": "",
          "type": "bytes32"
        }
      ],
      "payable": false,
      "stateMutability": "view",
      "type": "function"
    },
    {
      "constant": true,
      "inputs": [],
      "name": "MAX_PROPOSAL_THRESHOLD",
      "outputs": [
        {
          "internalType": "uint256",
          "name": "",
          "type": "uint256"
        }
      ],
      "payable": false,
      "stateMutability": "view",
      "type": "function"
    },
    {
      "constant": true,
      "inputs": [],
      "name": "MAX_VOTING_DELAY",
      "outputs": [
        {
          "internalType": "uint256",
          "name": "",
          "type": "uint256"
        }
      ],
      "payable": false,
      "stateMutability": "view",
      "type": "function"
    },
    {
      "constant": true,
      "inputs": [],
      "name": "MAX_VOTING_PERIOD",
      "outputs": [
        {
          "internalType": "uint256",
          "name": "",
          "type": "uint256"
        }
      ],
      "payable": false,
      "stateMutability": "view",
      "type": "function"
    },
    {
      "constant": true,
      "inputs": [],
      "name": "MIN_PROPOSAL_THRESHOLD",
      "outputs": [
        {
          "internalType": "uint256",
          "name": "",
          "type": "uint256"
        }
      ],
      "payable": false,
      "stateMutability": "view",
      "type": "function"
    },
    {
      "constant": true,
      "inputs": [],
      "name": "MIN_VOTING_DELAY",
      "outputs": [
        {
          "internalType": "uint256",
          "name": "",
          "type": "uint256"
        }
      ],
      "payable": false,
      "stateMutability": "view",
      "type": "function"
    },
    {
      "constant": true,
      "inputs": [],
      "name": "MIN_VOTING_PERIOD",
      "outputs": [
        {
          "internalType": "uint256",
          "name": "",
          "type": "uint256"
        }
      ],
      "payable": false,
      "stateMutability": "view",
      "type": "function"
    },
    {
      "constant": false,
      "inputs": [],
      "name": "_acceptAdmin",
      "outputs": [],
      "payable": false,
      "stateMutability": "nonpayable",
      "type": "function"
    },
    {
      "constant": false,
      "inputs": [
        {
          "internalType": "address",
          "name": "governorAlpha",
          "type": "address"
        }
      ],
      "name": "_initiate",
      "outputs": [],
      "payable": false,
      "stateMutability": "nonpayable",
      "type": "function"
    },
    {
      "constant": false,
      "inputs": [
        {
          "internalType": "address",
          "name": "newPendingAdmin",
          "type": "address"
        }
      ],
      "name": "_setPendingAdmin",
      "outputs": [],
      "payable": false,
      "stateMutability": "nonpayable",
      "type": "function"
    },
    {
      "constant": false,
      "inputs": [
        {
          "internalType": "uint256",
          "name": "newProposalThreshold",
          "type": "uint256"
        }
      ],
      "name": "_setProposalThreshold",
      "outputs": [],
      "payable": false,
      "stateMutability": "nonpayable",
      "type": "function"
    },
    {
      "constant": false,
      "inputs": [
        {
          "internalType": "uint256",
          "name": "newVotingDelay",
          "type": "uint256"
        }
      ],
      "name": "_setVotingDelay",
      "outputs": [],
      "payable": false,
      "stateMutability": "nonpayable",
      "type": "function"
    },
    {
      "constant": false,
      "inputs": [
        {
          "internalType": "uint256",
          "name": "newVotingPeriod",
          "type": "uint256"
        }
      ],
      "name": "_setVotingPeriod",
      "outputs": [],
      "payable": false,
      "stateMutability": "nonpayable",
      "type": "function"
    },
    {
      "constant": false,
      "inputs": [
        {
          "internalType": "address",
          "name": "account",
          "type": "address"
        },
        {
          "internalType": "uint256",
          "name": "expiration",
          "type": "uint256"
        }
      ],
      "name": "_setWhitelistAccountExpiration",
      "outputs": [],
      "payable": false,
      "stateMutability": "nonpayable",
      "type": "function"
    },
    {
      "constant": false,
      "inputs": [
        {
          "internalType": "address",
          "name": "account",
          "type": "address"
        }
      ],
      "name": "_setWhitelistGuardian",
      "outputs": [],
      "payable": false,
      "stateMutability": "nonpayable",
      "type": "function"
    },
    {
      "constant": true,
      "inputs": [],
      "name": "admin",
      "outputs": [
        {
          "internalType": "address",
          "name": "",
          "type": "address"
        }
      ],
      "payable": false,
      "stateMutability": "view",
      "type": "function"
    },
    {
      "constant": false,
      "inputs": [
        {
          "internalType": "uint256",
          "name": "proposalId",
          "type": "uint256"
        }
      ],
      "name": "cancel",
      "outputs": [],
      "payable": false,
      "stateMutability": "nonpayable",
      "type": "function"
    },
    {
      "constant": false,
      "inputs": [
        {
          "internalType": "uint256",
          "name": "proposalId",
          "type": "uint256"
        },
        {
          "internalType": "uint8",
          "name": "support",
          "type": "uint8"
        }
      ],
      "name": "castVote",
      "outputs": [],
      "payable": false,
      "stateMutability": "nonpayable",
      "type": "function"
    },
    {
      "constant": false,
      "inputs": [
        {
          "internalType": "uint256",
          "name": "proposalId",
          "type": "uint256"
        },
        {
          "internalType": "uint8",
          "name": "support",
          "type": "uint8"
        },
        {
          "internalType": "uint8",
          "name": "v",
          "type": "uint8"
        },
        {
          "internalType": "bytes32",
          "name": "r",
          "type": "bytes32"
        },
        {
          "internalType": "bytes32",
          "name": "s",
          "type": "bytes32"
        }
      ],
      "name": "castVoteBySig",
      "outputs": [],
      "payable": false,
      "stateMutability": "nonpayable",
      "type": "function"
    },
    {
      "constant": false,
      "inputs": [
        {
          "internalType": "uint256",
          "name": "proposalId",
          "type": "uint256"
        },
        {
          "internalType": "uint8",
          "name": "support",
          "type": "uint8"
        },
        {
          "internalType": "string",
          "name": "reason",
          "type": "string"
        }
      ],
      "name": "castVoteWithReason",
      "outputs": [],
      "payable": false,
      "stateMutability": "nonpayable",
      "type": "function"
    },
    {
      "constant": true,
      "inputs": [],
      "name": "comp",
      "outputs": [
        {
          "internalType": "contract CompInterface",
          "name": "",
          "type": "address"
        }
      ],
      "payable": false,
      "stateMutability": "view",
      "type": "function"
    },
    {
      "constant": false,
      "inputs": [
        {
          "internalType": "uint256",
          "name": "proposalId",
          "type": "uint256"
        }
      ],
      "name": "execute",
      "outputs": [],
      "payable": true,
      "stateMutability": "payable",
      "type": "function"
    },
    {
      "constant": true,
      "inputs": [
        {
          "internalType": "uint256",
          "name": "proposalId",
          "type": "uint256"
        }
      ],
      "name": "getActions",
      "outputs": [
        {
          "internalType": "address[]",
          "name": "targets",
          "type": "address[]"
        },
        {
          "internalType": "uint256[]",
          "name": "values",
          "type": "uint256[]"
        },
        {
          "internalType": "string[]",
          "name": "signatures",
          "type": "string[]"
        },
        {
          "internalType": "bytes[]",
          "name": "calldatas",
          "type": "bytes[]"
        }
      ],
      "payable": false,
      "stateMutability": "view",
      "type": "function"
    },
    {
      "constant": true,
      "inputs": [
        {
          "internalType": "uint256",
          "name": "proposalId",
          "type": "uint256"
        },
        {
          "internalType": "address",
          "name": "voter",
          "type": "address"
        }
      ],
      "name": "getReceipt",
      "outputs": [
        {
          "components": [
            {
              "internalType": "bool",
              "name": "hasVoted",
              "type": "bool"
            },
            {
              "internalType": "uint8",
              "name": "support",
              "type": "uint8"
            },
            {
              "internalType": "uint96",
              "name": "votes",
              "type": "uint96"
            }
          ],
          "internalType": "struct GovernorBravoDelegateStorageV1.Receipt",
          "name": "",
          "type": "tuple"
        }
      ],
      "payable": false,
      "stateMutability": "view",
      "type": "function"
    },
    {
      "constant": true,
      "inputs": [],
      "name": "implementation",
      "outputs": [
        {
          "internalType": "address",
          "name": "",
          "type": "address"
        }
      ],
      "payable": false,
      "stateMutability": "view",
      "type": "function"
    },
    {
      "constant": true,
      "inputs": [],
      "name": "initialProposalId",
      "outputs": [
        {
          "internalType": "uint256",
          "name": "",
          "type": "uint256"
        }
      ],
      "payable": false,
      "stateMutability": "view",
      "type": "function"
    },
    {
      "constant": false,
      "inputs": [
        {
          "internalType": "address",
          "name": "timelock_",
          "type": "address"
        },
        {
          "internalType": "address",
          "name": "comp_",
          "type": "address"
        },
        {
          "internalType": "uint256",
          "name": "votingPeriod_",
          "type": "uint256"
        },
        {
          "internalType": "uint256",
          "name": "votingDelay_",
          "type": "uint256"
        },
        {
          "internalType": "uint256",
          "name": "proposalThreshold_",
          "type": "uint256"
        }
      ],
      "name": "initialize",
      "outputs": [],
      "payable": false,
      "stateMutability": "nonpayable",
      "type": "function"
    },
    {
      "constant": true,
      "inputs": [
        {
          "internalType": "address",
          "name": "account",
          "type": "address"
        }
      ],
      "name": "isWhitelisted",
      "outputs": [
        {
          "internalType": "bool",
          "name": "",
          "type": "bool"
        }
      ],
      "payable": false,
      "stateMutability": "view",
      "type": "function"
    },
    {
      "constant": true,
      "inputs": [
        {
          "internalType": "address",
          "name": "",
          "type": "address"
        }
      ],
      "name": "latestProposalIds",
      "outputs": [
        {
          "internalType": "uint256",
          "name": "",
          "type": "uint256"
        }
      ],
      "payable": false,
      "stateMutability": "view",
      "type": "function"
    },
    {
      "constant": true,
      "inputs": [],
      "name": "name",
      "outputs": [
        {
          "internalType": "string",
          "name": "",
          "type": "string"
        }
      ],
      "payable": false,
      "stateMutability": "view",
      "type": "function"
    },
    {
      "constant": true,
      "inputs": [],
      "name": "pendingAdmin",
      "outputs": [
        {
          "internalType": "address",
          "name": "",
          "type": "address"
        }
      ],
      "payable": false,
      "stateMutability": "view",
      "type": "function"
    },
    {
      "constant": true,
      "inputs": [],
      "name": "proposalCount",
      "outputs": [
        {
          "internalType": "uint256",
          "name": "",
          "type": "uint256"
        }
      ],
      "payable": false,
      "stateMutability": "view",
      "type": "function"
    },
    {
      "constant": true,
      "inputs": [],
      "name": "proposalMaxOperations",
      "outputs": [
        {
          "internalType": "uint256",
          "name": "",
          "type": "uint256"
        }
      ],
      "payable": false,
      "stateMutability": "view",
      "type": "function"
    },
    {
      "constant": true,
      "inputs": [],
      "name": "proposalThreshold",
      "outputs": [
        {
          "internalType": "uint256",
          "name": "",
          "type": "uint256"
        }
      ],
      "payable": false,
      "stateMutability": "view",
      "type": "function"
    },
    {
      "constant": true,
      "inputs": [
        {
          "internalType": "uint256",
          "name": "",
          "type": "uint256"
        }
      ],
      "name": "proposals",
      "outputs": [
        {
          "internalType": "uint256",
          "name": "id",
          "type": "uint256"
        },
        {
          "internalType": "address",
          "name": "proposer",
          "type": "address"
        },
        {
          "internalType": "uint256",
          "name": "eta",
          "type": "uint256"
        },
        {
          "internalType": "uint256",
          "name": "startBlock",
          "type": "uint256"
        },
        {
          "internalType": "uint256",
          "name": "endBlock",
          "type": "uint256"
        },
        {
          "internalType": "uint256",
          "name": "forVotes",
          "type": "uint256"
        },
        {
          "internalType": "uint256",
          "name": "againstVotes",
          "type": "uint256"
        },
        {
          "internalType": "uint256",
          "name": "abstainVotes",
          "type": "uint256"
        },
        {
          "internalType": "bool",
          "name": "canceled",
          "type": "bool"
        },
        {
          "internalType": "bool",
          "name": "executed",
          "type": "bool"
        }
      ],
      "payable": false,
      "stateMutability": "view",
      "type": "function"
    },
    {
      "constant": false,
      "inputs": [
        {
          "internalType": "address[]",
          "name": "targets",
          "type": "address[]"
        },
        {
          "internalType": "uint256[]",
          "name": "values",
          "type": "uint256[]"
        },
        {
          "internalType": "string[]",
          "name": "signatures",
          "type": "string[]"
        },
        {
          "internalType": "bytes[]",
          "name": "calldatas",
          "type": "bytes[]"
        },
        {
          "internalType": "string",
          "name": "description",
          "type": "string"
        }
      ],
      "name": "propose",
      "outputs": [
        {
          "internalType": "uint256",
          "name": "",
          "type": "uint256"
        }
      ],
      "payable": false,
      "stateMutability": "nonpayable",
      "type": "function"
    },
    {
      "constant": false,
      "inputs": [
        {
          "internalType": "uint256",
          "name": "proposalId",
          "type": "uint256"
        }
      ],
      "name": "queue",
      "outputs": [],
      "payable": false,
      "stateMutability": "nonpayable",
      "type": "function"
    },
    {
      "constant": true,
      "inputs": [],
      "name": "quorumVotes",
      "outputs": [
        {
          "internalType": "uint256",
          "name": "",
          "type": "uint256"
        }
      ],
      "payable": false,
      "stateMutability": "view",
      "type": "function"
    },
    {
      "constant": true,
      "inputs": [
        {
          "internalType": "uint256",
          "name": "proposalId",
          "type": "uint256"
        }
      ],
      "name": "state",
      "outputs": [
        {
          "internalType": "enum GovernorBravoDelegateStorageV1.ProposalState",
          "name": "",
          "type": "uint8"
        }
      ],
      "payable": false,
      "stateMutability": "view",
      "type": "function"
    },
    {
      "constant": true,
      "inputs": [],
      "name": "timelock",
      "outputs": [
        {
          "internalType": "contract TimelockInterface",
          "name": "",
          "type": "address"
        }
      ],
      "payable": false,
      "stateMutability": "view",
      "type": "function"
    },
    {
      "constant": true,
      "inputs": [],
      "name": "votingDelay",
      "outputs": [
        {
          "internalType": "uint256",
          "name": "",
          "type": "uint256"
        }
      ],
      "payable": false,
      "stateMutability": "view",
      "type": "function"
    },
    {
      "constant": true,
      "inputs": [],
      "name": "votingPeriod",
      "outputs": [
        {
          "internalType": "uint256",
          "name": "",
          "type": "uint256"
        }
      ],
      "payable": false,
      "stateMutability": "view",
      "type": "function"
    },
    {
      "constant": true,
      "inputs": [
        {
          "internalType": "address",
          "name": "",
          "type": "address"
        }
      ],
      "name": "whitelistAccountExpirations",
      "outputs": [
        {
          "internalType": "uint256",
          "name": "",
          "type": "uint256"
        }
      ],
      "payable": false,
      "stateMutability": "view",
      "type": "function"
    },
    {
      "constant": true,
      "inputs": [],
      "name": "whitelistGuardian",
      "outputs": [
        {
          "internalType": "address",
          "name": "",
          "type": "address"
        }
      ],
      "payable": false,
      "stateMutability": "view",
      "type": "function"
    }
  ],
  "bytecode": "0x608060405234801561001057600080fd5b5061488f806100206000396000f3fe6080604052600436106102725760003560e01c80635c60da1b1161014f578063d33219b4116100c1578063e48083fe1161007a578063e48083fe14610712578063e9c714f214610727578063f851a4401461073c578063f9d28b8014610751578063fc4eee4214610771578063fe0d94c11461078657610272565b8063d33219b414610666578063da35c6641461067b578063da95691a14610690578063ddf0b009146106b0578063deaaa7cc146106d0578063e23a9a52146106e557610272565b8063a64e024a11610113578063a64e024a146105d2578063b1126263146105e7578063b58131b0146105fc578063b71d1a0c14610611578063c5a8425d14610631578063d13f90b41461064657610272565b80635c60da1b14610553578063791f5d23146105685780637b3c71d31461057d5780637bdbe4d01461059d57806399533365146105b257610272565b806325fd935a116101e85780633af32abf116101ac5780633af32abf146104795780633bccf4fd146104a65780633e4f49e6146104c657806340e58ee5146104f35780634d6733d214610513578063567813881461053357610272565b806325fd935a146103dd57806326782247146103f2578063328dd9821461041457806338bd0dda146104445780633932abb11461046457610272565b806317977c611161023a57806317977c611461033e57806317ba1b8b1461035e5780631dfb1b5a1461037e57806320606b701461039e578063215809ca146103b357806324bc1a64146103c857610272565b8063013cf08b1461027757806302a251a3146102b657806306fdde03146102d85780630ea2d98c146102fa578063109d0af81461031c575b600080fd5b34801561028357600080fd5b50610297610292366004612db0565b610799565b6040516102ad9a999897969594939291906145a6565b60405180910390f35b3480156102c257600080fd5b506102cb6107fc565b6040516102ad91906141a3565b3480156102e457600080fd5b506102ed610802565b6040516102ad919061425f565b34801561030657600080fd5b5061031a610315366004612db0565b610835565b005b34801561032857600080fd5b506103316108df565b6040516102ad9190614243565b34801561034a57600080fd5b506102cb610359366004612b8b565b6108ee565b34801561036a57600080fd5b5061031a610379366004612db0565b610900565b34801561038a57600080fd5b5061031a610399366004612db0565b6109a3565b3480156103aa57600080fd5b506102cb610a36565b3480156103bf57600080fd5b506102cb610a4d565b3480156103d457600080fd5b506102cb610a53565b3480156103e957600080fd5b506102cb610a61565b3480156103fe57600080fd5b50610407610a6f565b6040516102ad919061405b565b34801561042057600080fd5b5061043461042f366004612db0565b610a7e565b6040516102ad9493929190614148565b34801561045057600080fd5b506102cb61045f366004612b8b565b610d0d565b34801561047057600080fd5b506102cb610d1f565b34801561048557600080fd5b50610499610494366004612b8b565b610d25565b6040516102ad9190614195565b3480156104b257600080fd5b5061031a6104c1366004612e96565b610d46565b3480156104d257600080fd5b506104e66104e1366004612db0565b610f21565b6040516102ad9190614251565b3480156104ff57600080fd5b5061031a61050e366004612db0565b6110a6565b34801561051f57600080fd5b5061031a61052e366004612c26565b6113ed565b34801561053f57600080fd5b5061031a61054e366004612dfe565b611479565b34801561055f57600080fd5b506104076114c3565b34801561057457600080fd5b506102cb6114d2565b34801561058957600080fd5b5061031a610598366004612e2e565b6114df565b3480156105a957600080fd5b506102cb61152f565b3480156105be57600080fd5b5061031a6105cd366004612b8b565b611534565b3480156105de57600080fd5b506102cb6115b3565b3480156105f357600080fd5b506102cb6115ba565b34801561060857600080fd5b506102cb6115c0565b34801561061d57600080fd5b5061031a61062c366004612b8b565b6115c6565b34801561063d57600080fd5b50610407611643565b34801561065257600080fd5b5061031a610661366004612bb1565b611652565b34801561067257600080fd5b506103316117ce565b34801561068757600080fd5b506102cb6117dd565b34801561069c57600080fd5b506102cb6106ab366004612c60565b6117e3565b3480156106bc57600080fd5b5061031a6106cb366004612db0565b611b9e565b3480156106dc57600080fd5b506102cb611e1a565b3480156106f157600080fd5b50610705610700366004612dce565b611e26565b6040516102ad91906144f0565b34801561071e57600080fd5b506102cb611e93565b34801561073357600080fd5b5061031a611e98565b34801561074857600080fd5b50610407611f76565b34801561075d57600080fd5b5061031a61076c366004612b8b565b611f85565b34801561077d57600080fd5b506102cb6120ab565b61031a610794366004612db0565b6120b1565b600a60208190526000918252604090912080546001820154600283015460078401546008850154600986015496860154600b870154600c9097015495976001600160a01b0390951696939592949193919290919060ff808216916101009004168a565b60045481565b60405180604001604052806017815260200176436f6d706f756e6420476f7665726e6f7220427261766f60481b81525081565b6000546001600160a01b031633146108685760405162461bcd60e51b815260040161085f906142b0565b60405180910390fd5b611680811015801561087d575062013b008111155b6108995760405162461bcd60e51b815260040161085f906142f0565b60048054908290556040517f7e3f7f0708a84de9203036abaa450dccc85ad5ff52f78c170f3edb55cf5e8828906108d3908390859061462c565b60405180910390a15050565b6009546001600160a01b031681565b600b6020526000908152604090205481565b6000546001600160a01b0316331461092a5760405162461bcd60e51b815260040161085f906144a0565b683635c9adc5dea00000811015801561094d575069152d02c7e14af68000008111155b6109695760405162461bcd60e51b815260040161085f906143b0565b60058054908290556040517fccb45da8d5717e6c4544694297c4ba5cf151d455c9bb0ed4fc7a38411bc05461906108d3908390859061462c565b6000546001600160a01b031633146109cd5760405162461bcd60e51b815260040161085f906142d0565b600181101580156109e05750619d808111155b6109fc5760405162461bcd60e51b815260040161085f90614320565b60038054908290556040517fc565b045403dc03c2eea82b81a0465edad9e2e7fc4d97e11421c209da93d7a93906108d3908390859061462c565b604051610a4290614050565b604051809103902081565b61168081565b6954b40b1f852bda00000081565b69152d02c7e14af680000081565b6001546001600160a01b031681565b6060806060806000600a600087815260200190815260200160002090508060030181600401826005018360060183805480602002602001604051908101604052809291908181526020018280548015610b0057602002820191906000526020600020905b81546001600160a01b03168152600190910190602001808311610ae2575b5050505050935082805480602002602001604051908101604052809291908181526020018280548015610b5257602002820191906000526020600020905b815481526020019060010190808311610b3e575b5050505050925081805480602002602001604051908101604052809291908181526020016000905b82821015610c255760008481526020908190208301805460408051601f6002600019610100600187161502019094169390930492830185900485028101850190915281815292830182828015610c115780601f10610be657610100808354040283529160200191610c11565b820191906000526020600020905b815481529060010190602001808311610bf457829003601f168201915b505050505081526020019060010190610b7a565b50505050915080805480602002602001604051908101604052809291908181526020016000905b82821015610cf75760008481526020908190208301805460408051601f6002600019610100600187161502019094169390930492830185900485028101850190915281815292830182828015610ce35780601f10610cb857610100808354040283529160200191610ce3565b820191906000526020600020905b815481529060010190602001808311610cc657829003601f168201915b505050505081526020019060010190610c4c565b5050505090509450945094509450509193509193565b600c6020526000908152604090205481565b60035481565b6001600160a01b0381166000908152600c602052604090205442105b919050565b6000604051610d5490614050565b604080519182900382208282019091526017825276436f6d706f756e6420476f7665726e6f7220427261766f60481b6020909201919091527f3d9e905142ff365fb68ce863f26a44f5583cf7ec11bcde450555f50b7e1b5614610db561226a565b30604051602001610dc994939291906141b1565b6040516020818303038152906040528051906020012090506000604051610def90614014565b604051908190038120610e0891899089906020016141e6565b60405160208183030381529060405280519060200120905060008282604051602001610e3592919061401f565b604051602081830303815290604052805190602001209050600060018288888860405160008152602001604052604051610e72949392919061420e565b6020604051602081039080840390855afa158015610e94573d6000803e3d6000fd5b5050604051601f1901519150506001600160a01b038116610ec75760405162461bcd60e51b815260040161085f90614360565b806001600160a01b03167fb8e138887d0aa13bab447e82de9d5c1777041ecd21ca36ba824ff1e6c07ddda48a8a610eff858e8e61226f565b604051610f0e93929190614680565b60405180910390a2505050505050505050565b60008160075410158015610f36575060065482115b610f525760405162461bcd60e51b815260040161085f906144b0565b6000828152600a60205260409020600c81015460ff1615610f77576002915050610d41565b80600701544311610f8c576000915050610d41565b80600801544311610fa1576001915050610d41565b80600a01548160090154111580610fc557506954b40b1f852bda0000008160090154105b15610fd4576003915050610d41565b6002810154610fe7576004915050610d41565b600c810154610100900460ff1615611003576007915050610d41565b6002810154600854604080516360d143f160e11b8152905161108c93926001600160a01b03169163c1a287e2916004808301926020929190829003018186803b15801561104f57600080fd5b505afa158015611063573d6000803e3d6000fd5b505050506040513d601f19601f820116820180604052506110879190810190612d5d565b612460565b421061109c576006915050610d41565b6005915050610d41565b60076110b182610f21565b60078111156110bc57fe5b14156110da5760405162461bcd60e51b815260040161085f90614490565b6000818152600a6020526040902060018101546001600160a01b031633146112b1576001810154611113906001600160a01b0316610d25565b156111f2576005546009546001838101546001600160a01b039283169263782d6fe192911690611144904390612485565b6040518363ffffffff1660e01b815260040161116192919061409f565b60206040518083038186803b15801561117957600080fd5b505afa15801561118d573d6000803e3d6000fd5b505050506040513d601f19601f820116820180604052506111b19190810190612edc565b6001600160601b03161080156111d15750600d546001600160a01b031633145b6111ed5760405162461bcd60e51b815260040161085f906144e0565b6112b1565b6005546009546001838101546001600160a01b039283169263782d6fe19291169061121e904390612485565b6040518363ffffffff1660e01b815260040161123b92919061409f565b60206040518083038186803b15801561125357600080fd5b505afa158015611267573d6000803e3d6000fd5b505050506040513d601f19601f8201168201806040525061128b9190810190612edc565b6001600160601b0316106112b15760405162461bcd60e51b815260040161085f90614420565b600c8101805460ff1916600117905560005b60038201548110156113bd576008546003830180546001600160a01b039092169163591fcdfe9190849081106112f557fe5b6000918252602090912001546004850180546001600160a01b03909216918590811061131d57fe5b906000526020600020015485600501858154811061133757fe5b9060005260206000200186600601868154811061135057fe5b9060005260206000200187600201546040518663ffffffff1660e01b815260040161137f959493929190614107565b600060405180830381600087803b15801561139957600080fd5b505af11580156113ad573d6000803e3d6000fd5b5050600190920191506112c39050565b507f789cf55be980739dad1d0699b93b58e806b51c9d96619bfa8fe0a28abaa7b30c826040516108d391906141a3565b6000546001600160a01b03163314806114105750600d546001600160a01b031633145b61142c5760405162461bcd60e51b815260040161085f90614480565b6001600160a01b0382166000908152600c602052604090819020829055517f4e7b7545bc5744d0e30425959f4687475774b6c7edad77d24cb51c7d967d4515906108d3908490849061409f565b337fb8e138887d0aa13bab447e82de9d5c1777041ecd21ca36ba824ff1e6c07ddda483836114a884838361226f565b6040516114b793929190614680565b60405180910390a25050565b6002546001600160a01b031681565b683635c9adc5dea0000081565b337fb8e138887d0aa13bab447e82de9d5c1777041ecd21ca36ba824ff1e6c07ddda4858561150e84838361226f565b868660405161152195949392919061463a565b60405180910390a250505050565b600a81565b6000546001600160a01b0316331461155e5760405162461bcd60e51b815260040161085f90614380565b600d80546001600160a01b038381166001600160a01b031983161792839055604051918116927f80a07e73e552148844a9c216d9724212d609cfa54e9c1a2e97203bdd2c4ad341926108d39285921690614084565b62013b0081565b619d8081565b60055481565b6000546001600160a01b031633146115f05760405162461bcd60e51b815260040161085f90614290565b600180546001600160a01b038381166001600160a01b03198316179092556040519116907fca4f2f25d0898edd99413412fb94012f9e54ec8142f9b093e7720646a95b16a9906108d39083908590614084565b600d546001600160a01b031681565b6008546001600160a01b03161561167b5760405162461bcd60e51b815260040161085f90614280565b6000546001600160a01b031633146116a55760405162461bcd60e51b815260040161085f906143a0565b6001600160a01b0385166116cb5760405162461bcd60e51b815260040161085f906142c0565b6001600160a01b0384166116f15760405162461bcd60e51b815260040161085f90614410565b6116808310158015611706575062013b008311155b6117225760405162461bcd60e51b815260040161085f906144c0565b600182101580156117355750619d808211155b6117515760405162461bcd60e51b815260040161085f90614370565b683635c9adc5dea000008110158015611774575069152d02c7e14af68000008111155b6117905760405162461bcd60e51b815260040161085f90614330565b600880546001600160a01b039687166001600160a01b0319918216179091556009805495909616941693909317909355600455600391909155600555565b6008546001600160a01b031681565b60075481565b6000600654600014156118085760405162461bcd60e51b815260040161085f906142e0565b6005546009546001600160a01b031663782d6fe133611828436001612485565b6040518363ffffffff1660e01b8152600401611845929190614069565b60206040518083038186803b15801561185d57600080fd5b505afa158015611871573d6000803e3d6000fd5b505050506040513d601f19601f820116820180604052506118959190810190612edc565b6001600160601b031611806118ae57506118ae33610d25565b6118ca5760405162461bcd60e51b815260040161085f90614470565b845186511480156118dc575083518651145b80156118e9575082518651145b6119055760405162461bcd60e51b815260040161085f90614390565b85516119235760405162461bcd60e51b815260040161085f906143f0565b600a865111156119455760405162461bcd60e51b815260040161085f90614430565b336000908152600b602052604090205480156119c257600061196682610f21565b9050600181600781111561197657fe5b14156119945760405162461bcd60e51b815260040161085f90614450565b60008160078111156119a257fe5b14156119c05760405162461bcd60e51b815260040161085f90614440565b505b60006119d043600354612460565b905060006119e082600454612460565b60078054600101908190556000818152600a602052604090208054929350909115611a1d5760405162461bcd60e51b815260040161085f90614340565b8181556001810180546001600160a01b03191633179055600060028201558a51611a5090600383019060208e019061260c565b508951611a6690600483019060208d0190612671565b508851611a7c90600583019060208c01906126b8565b508751611a9290600683019060208b0190612711565b5083816007018190555082816008018190555060008160090181905550600081600a0181905550600081600b0181905550600081600c0160006101000a81548160ff021916908315150217905550600081600c0160016101000a81548160ff0219169083151502179055508060000154600b60008360010160009054906101000a90046001600160a01b03166001600160a01b03166001600160a01b03168152602001908152602001600020819055507f7d84a6263ae0d98d3329bd7b46bb4e8d6f98cd35a7adb45c274c8b7fd5ebd5e08160000154338d8d8d8d8a8a8f604051611b85999897969594939291906144fe565b60405180910390a1549450505050505b95945050505050565b6004611ba982610f21565b6007811115611bb457fe5b14611bd15760405162461bcd60e51b815260040161085f906143c0565b6000818152600a602090815260408083206008548251630d48571f60e31b81529251919493611c2b9342936001600160a01b0390931692636a42b8f892600480840193919291829003018186803b15801561104f57600080fd5b905060005b6003830154811015611dd357611dcb836003018281548110611c4e57fe5b6000918252602090912001546004850180546001600160a01b039092169184908110611c7657fe5b9060005260206000200154856005018481548110611c9057fe5b600091825260209182902001805460408051601f6002600019610100600187161502019094169390930492830185900485028101850190915281815292830182828015611d1e5780601f10611cf357610100808354040283529160200191611d1e565b820191906000526020600020905b815481529060010190602001808311611d0157829003601f168201915b5050505050866006018581548110611d3257fe5b600091825260209182902001805460408051601f6002600019610100600187161502019094169390930492830185900485028101850190915281815292830182828015611dc05780601f10611d9557610100808354040283529160200191611dc0565b820191906000526020600020905b815481529060010190602001808311611da357829003601f168201915b5050505050866124ad565b600101611c30565b50600282018190556040517f9a2e42fd6722813d69113e7d0079d3d940171428df7373df9c7f7617cfda289290611e0d908590849061462c565b60405180910390a1505050565b604051610a4290614014565b611e2e61276a565b506000828152600a602090815260408083206001600160a01b0385168452600d018252918290208251606081018452905460ff8082161515835261010082041692820192909252620100009091046001600160601b0316918101919091525b92915050565b600181565b6001546001600160a01b031633148015611eb157503315155b611ecd5760405162461bcd60e51b815260040161085f90614400565b60008054600180546001600160a01b038082166001600160a01b03198086168217968790559092169092556040519282169390927ff9ffabca9c8276e99321725bcb43fb076a6c66a54b7f21c4e8146d8519b417dc92611f31928692911690614084565b60405180910390a16001546040517fca4f2f25d0898edd99413412fb94012f9e54ec8142f9b093e7720646a95b16a9916108d39184916001600160a01b031690614084565b6000546001600160a01b031681565b6000546001600160a01b03163314611faf5760405162461bcd60e51b815260040161085f90614460565b60065415611fcf5760405162461bcd60e51b815260040161085f906143e0565b806001600160a01b031663da35c6646040518163ffffffff1660e01b8152600401602060405180830381600087803b15801561200a57600080fd5b505af115801561201e573d6000803e3d6000fd5b505050506040513d601f19601f820116820180604052506120429190810190612d5d565b600781905560065560085460408051630e18b68160e01b815290516001600160a01b0390921691630e18b6819160048082019260009290919082900301818387803b15801561209057600080fd5b505af11580156120a4573d6000803e3d6000fd5b5050505050565b60065481565b60056120bc82610f21565b60078111156120c757fe5b146120e45760405162461bcd60e51b815260040161085f90614350565b6000818152600a60205260408120600c8101805461ff001916610100179055905b600382015481101561223a576008546004830180546001600160a01b0390921691630825f38f91908490811061213757fe5b906000526020600020015484600301848154811061215157fe5b6000918252602090912001546004860180546001600160a01b03909216918690811061217957fe5b906000526020600020015486600501868154811061219357fe5b906000526020600020018760060187815481106121ac57fe5b9060005260206000200188600201546040518763ffffffff1660e01b81526004016121db959493929190614107565b6000604051808303818588803b1580156121f457600080fd5b505af1158015612208573d6000803e3d6000fd5b50505050506040513d6000823e601f3d908101601f191682016040526122319190810190612d7b565b50600101612105565b507f712ae1383f79ac853f8d882153778e0260ef8f03b504e2866e0593e04d2b291f826040516108d391906141a3565b465b90565b6000600161227c84610f21565b600781111561228757fe5b146122a45760405162461bcd60e51b815260040161085f90614300565b60028260ff1611156122c85760405162461bcd60e51b815260040161085f90614270565b6000838152600a602090815260408083206001600160a01b0388168452600d8101909252909120805460ff16156123115760405162461bcd60e51b815260040161085f90614310565b600954600783015460405163782d6fe160e01b81526000926001600160a01b03169163782d6fe191612347918b9160040161409f565b60206040518083038186803b15801561235f57600080fd5b505afa158015612373573d6000803e3d6000fd5b505050506040513d601f19601f820116820180604052506123979190810190612edc565b905060ff85166123c2576123b883600a0154826001600160601b0316612460565b600a840155612418565b8460ff16600114156123ef576123e58360090154826001600160601b0316612460565b6009840155612418565b8460ff16600214156124185761241283600b0154826001600160601b0316612460565b600b8401555b8154600160ff199091161761ff00191661010060ff871602176dffffffffffffffffffffffff00001916620100006001600160601b03831602179091559150505b9392505050565b6000828201838110156124595760405162461bcd60e51b815260040161085f906143d0565b6000828211156124a75760405162461bcd60e51b815260040161085f906144d0565b50900390565b6008546040516001600160a01b039091169063f2b06537906124db90889088908890889088906020016140ad565b604051602081830303815290604052805190602001206040518263ffffffff1660e01b815260040161250d91906141a3565b60206040518083038186803b15801561252557600080fd5b505afa158015612539573d6000803e3d6000fd5b505050506040513d601f19601f8201168201806040525061255d9190810190612d3f565b1561257a5760405162461bcd60e51b815260040161085f906142a0565b600854604051633a66f90160e01b81526001600160a01b0390911690633a66f901906125b290889088908890889088906004016140ad565b602060405180830381600087803b1580156125cc57600080fd5b505af11580156125e0573d6000803e3d6000fd5b505050506040513d601f19601f820116820180604052506126049190810190612d5d565b505050505050565b828054828255906000526020600020908101928215612661579160200282015b8281111561266157825182546001600160a01b0319166001600160a01b0390911617825560209092019160019091019061262c565b5061266d92915061278a565b5090565b8280548282559060005260206000209081019282156126ac579160200282015b828111156126ac578251825591602001919060010190612691565b5061266d9291506127ae565b828054828255906000526020600020908101928215612705579160200282015b8281111561270557825180516126f59184916020909101906127c8565b50916020019190600101906126d8565b5061266d929150612835565b82805482825590600052602060002090810192821561275e579160200282015b8281111561275e578251805161274e9184916020909101906127c8565b5091602001919060010190612731565b5061266d929150612858565b604080516060810182526000808252602082018190529181019190915290565b61226c91905b8082111561266d5780546001600160a01b0319168155600101612790565b61226c91905b8082111561266d57600081556001016127b4565b828054600181600116156101000203166002900490600052602060002090601f016020900481019282601f1061280957805160ff19168380011785556126ac565b828001600101855582156126ac57918201828111156126ac578251825591602001919060010190612691565b61226c91905b8082111561266d57600061284f828261287b565b5060010161283b565b61226c91905b8082111561266d576000612872828261287b565b5060010161285e565b50805460018160011615610100020316600290046000825580601f106128a157506128bf565b601f0160209004906000526020600020908101906128bf91906127ae565b50565b8035611e8d816147f4565b600082601f8301126128de57600080fd5b81356128f16128ec826146e0565b6146b9565b9150818183526020840193506020810190508385602084028201111561291657600080fd5b60005b83811015612942578161292c88826128c2565b8452506020928301929190910190600101612919565b5050505092915050565b600082601f83011261295d57600080fd5b813561296b6128ec826146e0565b81815260209384019390925082018360005b8381101561294257813586016129938882612a97565b845250602092830192919091019060010161297d565b600082601f8301126129ba57600080fd5b81356129c86128ec826146e0565b81815260209384019390925082018360005b8381101561294257813586016129f08882612a97565b84525060209283019291909101906001016129da565b600082601f830112612a1757600080fd5b8135612a256128ec826146e0565b91508181835260208401935060208101905083856020840282011115612a4a57600080fd5b60005b838110156129425781612a608882612a81565b8452506020928301929190910190600101612a4d565b8051611e8d81614808565b8035611e8d81614811565b8051611e8d81614811565b600082601f830112612aa857600080fd5b8135612ab66128ec82614701565b91508082526020830160208301858383011115612ad257600080fd5b612add8382846147a8565b50505092915050565b600082601f830112612af757600080fd5b8151612b056128ec82614701565b91508082526020830160208301858383011115612b2157600080fd5b612add8382846147b4565b60008083601f840112612b3e57600080fd5b50813567ffffffffffffffff811115612b5657600080fd5b602083019150836001820283011115612b6e57600080fd5b9250929050565b8035611e8d8161481a565b8051611e8d81614823565b600060208284031215612b9d57600080fd5b6000612ba984846128c2565b949350505050565b600080600080600060a08688031215612bc957600080fd5b6000612bd588886128c2565b9550506020612be6888289016128c2565b9450506040612bf788828901612a81565b9350506060612c0888828901612a81565b9250506080612c1988828901612a81565b9150509295509295909350565b60008060408385031215612c3957600080fd5b6000612c4585856128c2565b9250506020612c5685828601612a81565b9150509250929050565b600080600080600060a08688031215612c7857600080fd5b853567ffffffffffffffff811115612c8f57600080fd5b612c9b888289016128cd565b955050602086013567ffffffffffffffff811115612cb857600080fd5b612cc488828901612a06565b945050604086013567ffffffffffffffff811115612ce157600080fd5b612ced888289016129a9565b935050606086013567ffffffffffffffff811115612d0a57600080fd5b612d168882890161294c565b925050608086013567ffffffffffffffff811115612d3357600080fd5b612c1988828901612a97565b600060208284031215612d5157600080fd5b6000612ba98484612a76565b600060208284031215612d6f57600080fd5b6000612ba98484612a8c565b600060208284031215612d8d57600080fd5b815167ffffffffffffffff811115612da457600080fd5b612ba984828501612ae6565b600060208284031215612dc257600080fd5b6000612ba98484612a81565b60008060408385031215612de157600080fd5b6000612ded8585612a81565b9250506020612c56858286016128c2565b60008060408385031215612e1157600080fd5b6000612e1d8585612a81565b9250506020612c5685828601612b75565b60008060008060608587031215612e4457600080fd5b6000612e508787612a81565b9450506020612e6187828801612b75565b935050604085013567ffffffffffffffff811115612e7e57600080fd5b612e8a87828801612b2c565b95989497509550505050565b600080600080600060a08688031215612eae57600080fd5b6000612eba8888612a81565b9550506020612ecb88828901612b75565b9450506040612bf788828901612b75565b600060208284031215612eee57600080fd5b6000612ba98484612b80565b6000612f068383612f35565b505060200190565b600061245983836130d7565b6000612f0683836130bd565b612f2f81614780565b82525050565b612f2f81614748565b6000612f498261473b565b612f53818561473f565b9350612f5e83614729565b8060005b83811015612f8c578151612f768882612efa565b9750612f8183614729565b925050600101612f62565b509495945050505050565b6000612fa28261473b565b612fac818561473f565b935083602082028501612fbe85614729565b8060005b85811015612ff85784840389528151612fdb8582612f0e565b9450612fe683614729565b60209a909a0199925050600101612fc2565b5091979650505050505050565b60006130108261473b565b61301a818561473f565b93508360208202850161302c85614729565b8060005b85811015612ff857848403895281516130498582612f0e565b945061305483614729565b60209a909a0199925050600101613030565b60006130718261473b565b61307b818561473f565b935061308683614729565b8060005b83811015612f8c57815161309e8882612f1a565b97506130a983614729565b92505060010161308a565b612f2f81614753565b612f2f8161226c565b612f2f6130d28261226c565b61226c565b60006130e28261473b565b6130ec818561473f565b93506130fc8185602086016147b4565b613105816147e0565b9093019392505050565b60008154600181166000811461312c576001811461315257613191565b607f600283041661313d818761473f565b60ff1984168152955050602085019250613191565b60028204613160818761473f565b955061316b8561472f565b60005b8281101561318a5781548882015260019091019060200161316e565b8701945050505b505092915050565b612f2f81614787565b612f2f81614792565b60006131b7838561473f565b93506131c48385846147a8565b613105836147e0565b60006131da60328361473f565b7f476f7665726e6f72427261766f3a3a63617374566f7465496e7465726e616c3a81527120696e76616c696420766f7465207479706560701b602082015260400192915050565b600061322e602883610d41565b7f42616c6c6f742875696e743235362070726f706f73616c49642c75696e743820815267737570706f72742960c01b602082015260280192915050565b600061327860338361473f565b7f476f7665726e6f72427261766f3a3a696e697469616c697a653a2063616e206f8152726e6c7920696e697469616c697a65206f6e636560681b602082015260400192915050565b60006132cd602a8361473f565b7f476f7665726e6f72427261766f3a5f73657450656e64696e6741646d696e3a2081526961646d696e206f6e6c7960b01b602082015260400192915050565b600061331960558361473f565b7f476f7665726e6f72427261766f3a3a71756575654f72526576657274496e746581527f726e616c3a206964656e746963616c2070726f706f73616c20616374696f6e20602082015274616c7265616479207175657565642061742065746160581b604082015260600192915050565b6000613396602b8361473f565b7f476f7665726e6f72427261766f3a3a5f736574566f74696e67506572696f643a81526a2061646d696e206f6e6c7960a81b602082015260400192915050565b60006133e360338361473f565b60008051602061482d83398151915281527269642074696d656c6f636b206164647265737360681b602082015260400192915050565b6000613426602a8361473f565b7f476f7665726e6f72427261766f3a3a5f736574566f74696e6744656c61793a2081526961646d696e206f6e6c7960b01b602082015260400192915050565b600061347260318361473f565b7f476f7665726e6f72427261766f3a3a70726f706f73653a20476f7665726e6f7281527020427261766f206e6f742061637469766560781b602082015260400192915050565b60006134c5600283610d41565b61190160f01b815260020192915050565b60006134e360368361473f565b7f476f7665726e6f72427261766f3a3a5f736574566f74696e67506572696f643a815275081a5b9d985b1a59081d9bdd1a5b99c81c195c9a5bd960521b602082015260400192915050565b600061353b60318361473f565b7f476f7665726e6f72427261766f3a3a63617374566f7465496e7465726e616c3a815270081d9bdd1a5b99c81a5cc818db1bdcd959607a1b602082015260400192915050565b600061358e60348361473f565b7f476f7665726e6f72427261766f3a3a63617374566f7465496e7465726e616c3a815273081d9bdd195c88185b1c9958591e481d9bdd195960621b602082015260400192915050565b60006135e460348361473f565b7f476f7665726e6f72427261766f3a3a5f736574566f74696e6744656c61793a20815273696e76616c696420766f74696e672064656c617960601b602082015260400192915050565b600061363a60358361473f565b60008051602061482d8339815191528152741a59081c1c9bdc1bdcd85b081d1a1c995cda1bdb19605a1b602082015260400192915050565b600061367f602b8361473f565b7f476f7665726e6f72427261766f3a3a70726f706f73653a2050726f706f73616c81526a24a21031b7b63639b4b7b760a91b602082015260400192915050565b60006136cc60458361473f565b7f476f7665726e6f72427261766f3a3a657865637574653a2070726f706f73616c81527f2063616e206f6e6c7920626520657865637574656420696620697420697320716020820152641d595d595960da1b604082015260600192915050565b6000613739602f8361473f565b7f476f7665726e6f72427261766f3a3a63617374566f746542795369673a20696e81526e76616c6964207369676e617475726560881b602082015260400192915050565b600061378a602f8361473f565b60008051602061482d83398151915281526e696420766f74696e672064656c617960881b602082015260400192915050565b60006137c960308361473f565b7f476f7665726e6f72427261766f3a3a5f73657457686974656c6973744775617281526f6469616e3a2061646d696e206f6e6c7960801b602082015260400192915050565b600061381b60448361473f565b7f476f7665726e6f72427261766f3a3a70726f706f73653a2070726f706f73616c81527f2066756e6374696f6e20696e666f726d6174696f6e206172697479206d69736d6020820152630c2e8c6d60e31b604082015260600192915050565b600061388760258361473f565b7f476f7665726e6f72427261766f3a3a696e697469616c697a653a2061646d696e815264206f6e6c7960d81b602082015260400192915050565b60006138ce60408361473f565b7f476f7665726e6f72427261766f3a3a5f73657450726f706f73616c546872657381527f686f6c643a20696e76616c69642070726f706f73616c207468726573686f6c64602082015260400192915050565b600061392d60448361473f565b7f476f7665726e6f72427261766f3a3a71756575653a2070726f706f73616c206381527f616e206f6e6c79206265207175657565642069662069742069732073756363656020820152631959195960e21b604082015260600192915050565b600061399960118361473f565b706164646974696f6e206f766572666c6f7760781b815260200192915050565b60006139c6604383610d41565b7f454950373132446f6d61696e28737472696e67206e616d652c75696e7432353681527f20636861696e49642c6164647265737320766572696679696e67436f6e74726160208201526263742960e81b604082015260430192915050565b6000613a3160308361473f565b7f476f7665726e6f72427261766f3a3a5f696e6974696174653a2063616e206f6e81526f6c7920696e697469617465206f6e636560801b602082015260400192915050565b6000613a83602c8361473f565b7f476f7665726e6f72427261766f3a3a70726f706f73653a206d7573742070726f81526b7669646520616374696f6e7360a01b602082015260400192915050565b6000613ad1602e8361473f565b7f476f7665726e6f72427261766f3a5f61636365707441646d696e3a2070656e6481526d696e672061646d696e206f6e6c7960901b602082015260400192915050565b6000613b21602f8361473f565b60008051602061482d83398151915281526e696420636f6d70206164647265737360881b602082015260400192915050565b6000613b60602f8361473f565b7f476f7665726e6f72427261766f3a3a63616e63656c3a2070726f706f7365722081526e18589bdd99481d1a1c995cda1bdb19608a1b602082015260400192915050565b6000613bb160288361473f565b7f476f7665726e6f72427261766f3a3a70726f706f73653a20746f6f206d616e7981526720616374696f6e7360c01b602082015260400192915050565b6000613bfb60598361473f565b7f476f7665726e6f72427261766f3a3a70726f706f73653a206f6e65206c69766581527f2070726f706f73616c207065722070726f706f7365722c20666f756e6420616e60208201527f20616c72656164792070656e64696e672070726f706f73616c00000000000000604082015260600192915050565b6000613c8060588361473f565b7f476f7665726e6f72427261766f3a3a70726f706f73653a206f6e65206c69766581527f2070726f706f73616c207065722070726f706f7365722c20666f756e6420616e60208201527f20616c7265616479206163746976652070726f706f73616c0000000000000000604082015260600192915050565b6000611e8d60008361473f565b6000613d1260248361473f565b7f476f7665726e6f72427261766f3a3a5f696e6974696174653a2061646d696e208152636f6e6c7960e01b602082015260400192915050565b6000613d58603f8361473f565b7f476f7665726e6f72427261766f3a3a70726f706f73653a2070726f706f73657281527f20766f7465732062656c6f772070726f706f73616c207468726573686f6c6400602082015260400192915050565b6000613db760398361473f565b7f476f7665726e6f72427261766f3a3a5f73657457686974656c6973744163636f81527f756e7445787069726174696f6e3a2061646d696e206f6e6c7900000000000000602082015260400192915050565b6000613e1660368361473f565b7f476f7665726e6f72427261766f3a3a63616e63656c3a2063616e6e6f742063618152751b98d95b08195e1958dd5d1959081c1c9bdc1bdcd85b60521b602082015260400192915050565b6000613e6e60308361473f565b7f476f7665726e6f72427261766f3a3a5f73657450726f706f73616c546872657381526f686f6c643a2061646d696e206f6e6c7960801b602082015260400192915050565b6000613ec060298361473f565b7f476f7665726e6f72427261766f3a3a73746174653a20696e76616c69642070728152681bdc1bdcd85b081a5960ba1b602082015260400192915050565b6000613f0b60308361473f565b60008051602061482d83398151915281526f1a59081d9bdd1a5b99c81c195c9a5bd960821b602082015260400192915050565b6000613f4b60158361473f565b747375627472616374696f6e20756e646572666c6f7760581b815260200192915050565b6000613f7c602b8361473f565b7f476f7665726e6f72427261766f3a3a63616e63656c3a2077686974656c69737481526a32b210383937b837b9b2b960a91b602082015260400192915050565b80516060830190613fcd84826130b4565b506020820151613fe06020850182613ff9565b506040820151613ff3604085018261400b565b50505050565b612f2f8161476e565b612f2f8161479d565b612f2f81614774565b6000611e8d82613221565b600061402a826134b8565b915061403682856130c6565b60208201915061404682846130c6565b5060200192915050565b6000611e8d826139b9565b60208101611e8d8284612f35565b604081016140778285612f26565b61245960208301846130bd565b604081016140928285612f35565b6124596020830184612f35565b604081016140778285612f35565b60a081016140bb8288612f35565b6140c860208301876130bd565b81810360408301526140da81866130d7565b905081810360608301526140ee81856130d7565b90506140fd60808301846130bd565b9695505050505050565b60a081016141158288612f35565b61412260208301876130bd565b8181036040830152614134818661310f565b905081810360608301526140ee818561310f565b608080825281016141598187612f3e565b9050818103602083015261416d8186613066565b905081810360408301526141818185613005565b905081810360608301526140fd8184612f97565b60208101611e8d82846130b4565b60208101611e8d82846130bd565b608081016141bf82876130bd565b6141cc60208301866130bd565b6141d960408301856130bd565b611b956060830184612f35565b606081016141f482866130bd565b61420160208301856130bd565b612ba96040830184613ff9565b6080810161421c82876130bd565b6142296020830186613ff9565b61423660408301856130bd565b611b9560608301846130bd565b60208101611e8d8284613199565b60208101611e8d82846131a2565b6020808252810161245981846130d7565b60208082528101611e8d816131cd565b60208082528101611e8d8161326b565b60208082528101611e8d816132c0565b60208082528101611e8d8161330c565b60208082528101611e8d81613389565b60208082528101611e8d816133d6565b60208082528101611e8d81613419565b60208082528101611e8d81613465565b60208082528101611e8d816134d6565b60208082528101611e8d8161352e565b60208082528101611e8d81613581565b60208082528101611e8d816135d7565b60208082528101611e8d8161362d565b60208082528101611e8d81613672565b60208082528101611e8d816136bf565b60208082528101611e8d8161372c565b60208082528101611e8d8161377d565b60208082528101611e8d816137bc565b60208082528101611e8d8161380e565b60208082528101611e8d8161387a565b60208082528101611e8d816138c1565b60208082528101611e8d81613920565b60208082528101611e8d8161398c565b60208082528101611e8d81613a24565b60208082528101611e8d81613a76565b60208082528101611e8d81613ac4565b60208082528101611e8d81613b14565b60208082528101611e8d81613b53565b60208082528101611e8d81613ba4565b60208082528101611e8d81613bee565b60208082528101611e8d81613c73565b60208082528101611e8d81613d05565b60208082528101611e8d81613d4b565b60208082528101611e8d81613daa565b60208082528101611e8d81613e09565b60208082528101611e8d81613e61565b60208082528101611e8d81613eb3565b60208082528101611e8d81613efe565b60208082528101611e8d81613f3e565b60208082528101611e8d81613f6f565b60608101611e8d8284613fbc565b610120810161450d828c6130bd565b61451a602083018b612f26565b818103604083015261452c818a612f3e565b905081810360608301526145408189613066565b905081810360808301526145548188613005565b905081810360a08301526145688187612f97565b905061457760c08301866130bd565b61458460e08301856130bd565b81810361010083015261459781846130d7565b9b9a5050505050505050505050565b61014081016145b5828d6130bd565b6145c2602083018c612f35565b6145cf604083018b6130bd565b6145dc606083018a6130bd565b6145e960808301896130bd565b6145f660a08301886130bd565b61460360c08301876130bd565b61461060e08301866130bd565b61461e6101008301856130b4565b6145976101208301846130b4565b6040810161407782856130bd565b6080810161464882886130bd565b6146556020830187613ff9565b6146626040830186614002565b81810360608301526146758184866131ab565b979650505050505050565b6080810161468e82866130bd565b61469b6020830185613ff9565b6146a86040830184614002565b8181036060830152611b9581613cf8565b60405181810167ffffffffffffffff811182821017156146d857600080fd5b604052919050565b600067ffffffffffffffff8211156146f757600080fd5b5060209081020190565b600067ffffffffffffffff82111561471857600080fd5b506020601f91909101601f19160190565b60200190565b60009081526020902090565b5190565b90815260200190565b6000611e8d82614762565b151590565b80610d41816147ea565b6001600160a01b031690565b60ff1690565b6001600160601b031690565b6000611e8d825b6000611e8d82614748565b6000611e8d82614758565b6000611e8d82614774565b82818337506000910152565b60005b838110156147cf5781810151838201526020016147b7565b83811115613ff35750506000910152565b601f01601f191690565b600881106128bf57fe5b6147fd81614748565b81146128bf57600080fd5b6147fd81614753565b6147fd8161226c565b6147fd8161476e565b6147fd8161477456fe476f7665726e6f72427261766f3a3a696e697469616c697a653a20696e76616ca365627a7a72315820dd3a5527845f6059ba9f6ca480a722118ec274be97d6e5984aa4d2c547b9c0796c6578706572696d656e74616cf564736f6c63430005100040",
  "linkReferences": {},
  "deployedLinkReferences": {}
}