{
  "_format": "hh-sol-artifact-1",
  "contractName": "GovernorBravoDelegate",
  "sourceName": "contracts/Governance/GovernorBravoDelegateG1.sol",
  "abi": [
    {
      "anonymous": false,
      "inputs": [
        {
          "indexed": false,
          "internalType": "address",
          "name": "oldAdmin",
          "type": "address"
        },
        {
          "indexed": false,
          "internalType": "address",
          "name": "newAdmin",
          "type": "address"
        }
      ],
      "name": "NewAdmin",
      "type": "event"
    },
    {
      "anonymous": false,
      "inputs": [
        {
          "indexed": false,
          "internalType": "address",
          "name": "oldImplementation",
          "type": "address"
        },
        {
          "indexed": false,
          "internalType": "address",
          "name": "newImplementation",
          "type": "address"
        }
      ],
      "name": "NewImplementation",
      "type": "event"
    },
    {
      "anonymous": false,
      "inputs": [
        {
          "indexed": false,
          "internalType": "address",
          "name": "oldPendingAdmin",
          "type": "address"
        },
        {
          "indexed": false,
          "internalType": "address",
          "name": "newPendingAdmin",
          "type": "address"
        }
      ],
      "name": "NewPendingAdmin",
      "type": "event"
    },
    {
      "anonymous": false,
      "inputs": [
        {
          "indexed": false,
          "internalType": "uint256",
          "name": "id",
          "type": "uint256"
        }
      ],
      "name": "ProposalCanceled",
      "type": "event"
    },
    {
      "anonymous": false,
      "inputs": [
        {
          "indexed": false,
          "internalType": "uint256",
          "name": "id",
          "type": "uint256"
        },
        {
          "indexed": false,
          "internalType": "address",
          "name": "proposer",
          "type": "address"
        },
        {
          "indexed": false,
          "internalType": "address[]",
          "name": "targets",
          "type": "address[]"
        },
        {
          "indexed": false,
          "internalType": "uint256[]",
          "name": "values",
          "type": "uint256[]"
        },
        {
          "indexed": false,
          "internalType": "string[]",
          "name": "signatures",
          "type": "string[]"
        },
        {
          "indexed": false,
          "internalType": "bytes[]",
          "name": "calldatas",
          "type": "bytes[]"
        },
        {
          "indexed": false,
          "internalType": "uint256",
          "name": "startBlock",
          "type": "uint256"
        },
        {
          "indexed": false,
          "internalType": "uint256",
          "name": "endBlock",
          "type": "uint256"
        },
        {
          "indexed": false,
          "internalType": "string",
          "name": "description",
          "type": "string"
        }
      ],
      "name": "ProposalCreated",
      "type": "event"
    },
    {
      "anonymous": false,
      "inputs": [
        {
          "indexed": false,
          "internalType": "uint256",
          "name": "id",
          "type": "uint256"
        }
      ],
      "name": "ProposalExecuted",
      "type": "event"
    },
    {
      "anonymous": false,
      "inputs": [
        {
          "indexed": false,
          "internalType": "uint256",
          "name": "id",
          "type": "uint256"
        },
        {
          "indexed": false,
          "internalType": "uint256",
          "name": "eta",
          "type": "uint256"
        }
      ],
      "name": "ProposalQueued",
      "type": "event"
    },
    {
      "anonymous": false,
      "inputs": [
        {
          "indexed": false,
          "internalType": "uint256",
          "name": "oldProposalThreshold",
          "type": "uint256"
        },
        {
          "indexed": false,
          "internalType": "uint256",
          "name": "newProposalThreshold",
          "type": "uint256"
        }
      ],
      "name": "ProposalThresholdSet",
      "type": "event"
    },
    {
      "anonymous": false,
      "inputs": [
        {
          "indexed": true,
          "internalType": "address",
          "name": "voter",
          "type": "address"
        },
        {
          "indexed": false,
          "internalType": "uint256",
          "name": "proposalId",
          "type": "uint256"
        },
        {
          "indexed": false,
          "internalType": "uint8",
          "name": "support",
          "type": "uint8"
        },
        {
          "indexed": false,
          "internalType": "uint256",
          "name": "votes",
          "type": "uint256"
        },
        {
          "indexed": false,
          "internalType": "string",
          "name": "reason",
          "type": "string"
        }
      ],
      "name": "VoteCast",
      "type": "event"
    },
    {
      "anonymous": false,
      "inputs": [
        {
          "indexed": false,
          "internalType": "uint256",
          "name": "oldVotingDelay",
          "type": "uint256"
        },
        {
          "indexed": false,
          "internalType": "uint256",
          "name": "newVotingDelay",
          "type": "uint256"
        }
      ],
      "name": "VotingDelaySet",
      "type": "event"
    },
    {
      "anonymous": false,
      "inputs": [
        {
          "indexed": false,
          "internalType": "uint256",
          "name": "oldVotingPeriod",
          "type": "uint256"
        },
        {
          "indexed": false,
          "internalType": "uint256",
          "name": "newVotingPeriod",
          "type": "uint256"
        }
      ],
      "name": "VotingPeriodSet",
      "type": "event"
    },
    {
      "anonymous": false,
      "inputs": [
        {
          "indexed": false,
          "internalType": "address",
          "name": "account",
          "type": "address"
        },
        {
          "indexed": false,
          "internalType": "uint256",
          "name": "expiration",
          "type": "uint256"
        }
      ],
      "name": "WhitelistAccountExpirationSet",
      "type": "event"
    },
    {
      "anonymous": false,
      "inputs": [
        {
          "indexed": false,
          "internalType": "address",
          "name": "oldGuardian",
          "type": "address"
        },
        {
          "indexed": false,
          "internalType": "address",
          "name": "newGuardian",
          "type": "address"
        }
      ],
      "name": "WhitelistGuardianSet",
      "type": "event"
    },
    {
      "constant": true,
      "inputs": [],
      "name": "BALLOT_TYPEHASH",
      "outputs": [
        {
          "internalType": "bytes32",
          "name": "",
          "type": "bytes32"
        }
      ],
      "payable": false,
      "stateMutability": "view",
      "type": "function"
    },
    {
      "constant": true,
      "inputs": [],
      "name": "DOMAIN_TYPEHASH",
      "outputs": [
        {
          "internalType": "bytes32",
          "name": "",
          "type": "bytes32"
        }
      ],
      "payable": false,
      "stateMutability": "view",
      "type": "function"
    },
    {
      "constant": true,
      "inputs": [],
      "name": "MAX_PROPOSAL_THRESHOLD",
      "outputs": [
        {
          "internalType": "uint256",
          "name": "",
          "type": "uint256"
        }
      ],
      "payable": false,
      "stateMutability": "view",
      "type": "function"
    },
    {
      "constant": true,
      "inputs": [],
      "name": "MAX_VOTING_DELAY",
      "outputs": [
        {
          "internalType": "uint256",
          "name": "",
          "type": "uint256"
        }
      ],
      "payable": false,
      "stateMutability": "view",
      "type": "function"
    },
    {
      "constant": true,
      "inputs": [],
      "name": "MAX_VOTING_PERIOD",
      "outputs": [
        {
          "internalType": "uint256",
          "name": "",
          "type": "uint256"
        }
      ],
      "payable": false,
      "stateMutability": "view",
      "type": "function"
    },
    {
      "constant": true,
      "inputs": [],
      "name": "MIN_PROPOSAL_THRESHOLD",
      "outputs": [
        {
          "internalType": "uint256",
          "name": "",
          "type": "uint256"
        }
      ],
      "payable": false,
      "stateMutability": "view",
      "type": "function"
    },
    {
      "constant": true,
      "inputs": [],
      "name": "MIN_VOTING_DELAY",
      "outputs": [
        {
          "internalType": "uint256",
          "name": "",
          "type": "uint256"
        }
      ],
      "payable": false,
      "stateMutability": "view",
      "type": "function"
    },
    {
      "constant": true,
      "inputs": [],
      "name": "MIN_VOTING_PERIOD",
      "outputs": [
        {
          "internalType": "uint256",
          "name": "",
          "type": "uint256"
        }
      ],
      "payable": false,
      "stateMutability": "view",
      "type": "function"
    },
    {
      "constant": false,
      "inputs": [],
      "name": "_acceptAdmin",
      "outputs": [],
      "payable": false,
      "stateMutability": "nonpayable",
      "type": "function"
    },
    {
      "constant": false,
      "inputs": [
        {
          "internalType": "address",
          "name": "governorAlpha",
          "type": "address"
        }
      ],
      "name": "_initiate",
      "outputs": [],
      "payable": false,
      "stateMutability": "nonpayable",
      "type": "function"
    },
    {
      "constant": false,
      "inputs": [
        {
          "internalType": "address",
          "name": "newPendingAdmin",
          "type": "address"
        }
      ],
      "name": "_setPendingAdmin",
      "outputs": [],
      "payable": false,
      "stateMutability": "nonpayable",
      "type": "function"
    },
    {
      "constant": false,
      "inputs": [
        {
          "internalType": "uint256",
          "name": "newProposalThreshold",
          "type": "uint256"
        }
      ],
      "name": "_setProposalThreshold",
      "outputs": [],
      "payable": false,
      "stateMutability": "nonpayable",
      "type": "function"
    },
    {
      "constant": false,
      "inputs": [
        {
          "internalType": "uint256",
          "name": "newVotingDelay",
          "type": "uint256"
        }
      ],
      "name": "_setVotingDelay",
      "outputs": [],
      "payable": false,
      "stateMutability": "nonpayable",
      "type": "function"
    },
    {
      "constant": false,
      "inputs": [
        {
          "internalType": "uint256",
          "name": "newVotingPeriod",
          "type": "uint256"
        }
      ],
      "name": "_setVotingPeriod",
      "outputs": [],
      "payable": false,
      "stateMutability": "nonpayable",
      "type": "function"
    },
    {
      "constant": true,
      "inputs": [],
      "name": "admin",
      "outputs": [
        {
          "internalType": "address",
          "name": "",
          "type": "address"
        }
      ],
      "payable": false,
      "stateMutability": "view",
      "type": "function"
    },
    {
      "constant": false,
      "inputs": [
        {
          "internalType": "uint256",
          "name": "proposalId",
          "type": "uint256"
        }
      ],
      "name": "cancel",
      "outputs": [],
      "payable": false,
      "stateMutability": "nonpayable",
      "type": "function"
    },
    {
      "constant": false,
      "inputs": [
        {
          "internalType": "uint256",
          "name": "proposalId",
          "type": "uint256"
        },
        {
          "internalType": "uint8",
          "name": "support",
          "type": "uint8"
        }
      ],
      "name": "castVote",
      "outputs": [],
      "payable": false,
      "stateMutability": "nonpayable",
      "type": "function"
    },
    {
      "constant": false,
      "inputs": [
        {
          "internalType": "uint256",
          "name": "proposalId",
          "type": "uint256"
        },
        {
          "internalType": "uint8",
          "name": "support",
          "type": "uint8"
        },
        {
          "internalType": "uint8",
          "name": "v",
          "type": "uint8"
        },
        {
          "internalType": "bytes32",
          "name": "r",
          "type": "bytes32"
        },
        {
          "internalType": "bytes32",
          "name": "s",
          "type": "bytes32"
        }
      ],
      "name": "castVoteBySig",
      "outputs": [],
      "payable": false,
      "stateMutability": "nonpayable",
      "type": "function"
    },
    {
      "constant": false,
      "inputs": [
        {
          "internalType": "uint256",
          "name": "proposalId",
          "type": "uint256"
        },
        {
          "internalType": "uint8",
          "name": "support",
          "type": "uint8"
        },
        {
          "internalType": "string",
          "name": "reason",
          "type": "string"
        }
      ],
      "name": "castVoteWithReason",
      "outputs": [],
      "payable": false,
      "stateMutability": "nonpayable",
      "type": "function"
    },
    {
      "constant": true,
      "inputs": [],
      "name": "comp",
      "outputs": [
        {
          "internalType": "contract CompInterface",
          "name": "",
          "type": "address"
        }
      ],
      "payable": false,
      "stateMutability": "view",
      "type": "function"
    },
    {
      "constant": false,
      "inputs": [
        {
          "internalType": "uint256",
          "name": "proposalId",
          "type": "uint256"
        }
      ],
      "name": "execute",
      "outputs": [],
      "payable": true,
      "stateMutability": "payable",
      "type": "function"
    },
    {
      "constant": true,
      "inputs": [
        {
          "internalType": "uint256",
          "name": "proposalId",
          "type": "uint256"
        }
      ],
      "name": "getActions",
      "outputs": [
        {
          "internalType": "address[]",
          "name": "targets",
          "type": "address[]"
        },
        {
          "internalType": "uint256[]",
          "name": "values",
          "type": "uint256[]"
        },
        {
          "internalType": "string[]",
          "name": "signatures",
          "type": "string[]"
        },
        {
          "internalType": "bytes[]",
          "name": "calldatas",
          "type": "bytes[]"
        }
      ],
      "payable": false,
      "stateMutability": "view",
      "type": "function"
    },
    {
      "constant": true,
      "inputs": [
        {
          "internalType": "uint256",
          "name": "proposalId",
          "type": "uint256"
        },
        {
          "internalType": "address",
          "name": "voter",
          "type": "address"
        }
      ],
      "name": "getReceipt",
      "outputs": [
        {
          "components": [
            {
              "internalType": "bool",
              "name": "hasVoted",
              "type": "bool"
            },
            {
              "internalType": "uint8",
              "name": "support",
              "type": "uint8"
            },
            {
              "internalType": "uint96",
              "name": "votes",
              "type": "uint96"
            }
          ],
          "internalType": "struct GovernorBravoDelegateStorageV1.Receipt",
          "name": "",
          "type": "tuple"
        }
      ],
      "payable": false,
      "stateMutability": "view",
      "type": "function"
    },
    {
      "constant": true,
      "inputs": [],
      "name": "implementation",
      "outputs": [
        {
          "internalType": "address",
          "name": "",
          "type": "address"
        }
      ],
      "payable": false,
      "stateMutability": "view",
      "type": "function"
    },
    {
      "constant": true,
      "inputs": [],
      "name": "initialProposalId",
      "outputs": [
        {
          "internalType": "uint256",
          "name": "",
          "type": "uint256"
        }
      ],
      "payable": false,
      "stateMutability": "view",
      "type": "function"
    },
    {
      "constant": false,
      "inputs": [
        {
          "internalType": "address",
          "name": "timelock_",
          "type": "address"
        },
        {
          "internalType": "address",
          "name": "comp_",
          "type": "address"
        },
        {
          "internalType": "uint256",
          "name": "votingPeriod_",
          "type": "uint256"
        },
        {
          "internalType": "uint256",
          "name": "votingDelay_",
          "type": "uint256"
        },
        {
          "internalType": "uint256",
          "name": "proposalThreshold_",
          "type": "uint256"
        }
      ],
      "name": "initialize",
      "outputs": [],
      "payable": false,
      "stateMutability": "nonpayable",
      "type": "function"
    },
    {
      "constant": true,
      "inputs": [
        {
          "internalType": "address",
          "name": "",
          "type": "address"
        }
      ],
      "name": "latestProposalIds",
      "outputs": [
        {
          "internalType": "uint256",
          "name": "",
          "type": "uint256"
        }
      ],
      "payable": false,
      "stateMutability": "view",
      "type": "function"
    },
    {
      "constant": true,
      "inputs": [],
      "name": "name",
      "outputs": [
        {
          "internalType": "string",
          "name": "",
          "type": "string"
        }
      ],
      "payable": false,
      "stateMutability": "view",
      "type": "function"
    },
    {
      "constant": true,
      "inputs": [],
      "name": "pendingAdmin",
      "outputs": [
        {
          "internalType": "address",
          "name": "",
          "type": "address"
        }
      ],
      "payable": false,
      "stateMutability": "view",
      "type": "function"
    },
    {
      "constant": true,
      "inputs": [],
      "name": "proposalCount",
      "outputs": [
        {
          "internalType": "uint256",
          "name": "",
          "type": "uint256"
        }
      ],
      "payable": false,
      "stateMutability": "view",
      "type": "function"
    },
    {
      "constant": true,
      "inputs": [],
      "name": "proposalMaxOperations",
      "outputs": [
        {
          "internalType": "uint256",
          "name": "",
          "type": "uint256"
        }
      ],
      "payable": false,
      "stateMutability": "view",
      "type": "function"
    },
    {
      "constant": true,
      "inputs": [],
      "name": "proposalThreshold",
      "outputs": [
        {
          "internalType": "uint256",
          "name": "",
          "type": "uint256"
        }
      ],
      "payable": false,
      "stateMutability": "view",
      "type": "function"
    },
    {
      "constant": true,
      "inputs": [
        {
          "internalType": "uint256",
          "name": "",
          "type": "uint256"
        }
      ],
      "name": "proposals",
      "outputs": [
        {
          "internalType": "uint256",
          "name": "id",
          "type": "uint256"
        },
        {
          "internalType": "address",
          "name": "proposer",
          "type": "address"
        },
        {
          "internalType": "uint256",
          "name": "eta",
          "type": "uint256"
        },
        {
          "internalType": "uint256",
          "name": "startBlock",
          "type": "uint256"
        },
        {
          "internalType": "uint256",
          "name": "endBlock",
          "type": "uint256"
        },
        {
          "internalType": "uint256",
          "name": "forVotes",
          "type": "uint256"
        },
        {
          "internalType": "uint256",
          "name": "againstVotes",
          "type": "uint256"
        },
        {
          "internalType": "uint256",
          "name": "abstainVotes",
          "type": "uint256"
        },
        {
          "internalType": "bool",
          "name": "canceled",
          "type": "bool"
        },
        {
          "internalType": "bool",
          "name": "executed",
          "type": "bool"
        }
      ],
      "payable": false,
      "stateMutability": "view",
      "type": "function"
    },
    {
      "constant": false,
      "inputs": [
        {
          "internalType": "address[]",
          "name": "targets",
          "type": "address[]"
        },
        {
          "internalType": "uint256[]",
          "name": "values",
          "type": "uint256[]"
        },
        {
          "internalType": "string[]",
          "name": "signatures",
          "type": "string[]"
        },
        {
          "internalType": "bytes[]",
          "name": "calldatas",
          "type": "bytes[]"
        },
        {
          "internalType": "string",
          "name": "description",
          "type": "string"
        }
      ],
      "name": "propose",
      "outputs": [
        {
          "internalType": "uint256",
          "name": "",
          "type": "uint256"
        }
      ],
      "payable": false,
      "stateMutability": "nonpayable",
      "type": "function"
    },
    {
      "constant": false,
      "inputs": [
        {
          "internalType": "uint256",
          "name": "proposalId",
          "type": "uint256"
        }
      ],
      "name": "queue",
      "outputs": [],
      "payable": false,
      "stateMutability": "nonpayable",
      "type": "function"
    },
    {
      "constant": true,
      "inputs": [],
      "name": "quorumVotes",
      "outputs": [
        {
          "internalType": "uint256",
          "name": "",
          "type": "uint256"
        }
      ],
      "payable": false,
      "stateMutability": "view",
      "type": "function"
    },
    {
      "constant": true,
      "inputs": [
        {
          "internalType": "uint256",
          "name": "proposalId",
          "type": "uint256"
        }
      ],
      "name": "state",
      "outputs": [
        {
          "internalType": "enum GovernorBravoDelegateStorageV1.ProposalState",
          "name": "",
          "type": "uint8"
        }
      ],
      "payable": false,
      "stateMutability": "view",
      "type": "function"
    },
    {
      "constant": true,
      "inputs": [],
      "name": "timelock",
      "outputs": [
        {
          "internalType": "contract TimelockInterface",
          "name": "",
          "type": "address"
        }
      ],
      "payable": false,
      "stateMutability": "view",
      "type": "function"
    },
    {
      "constant": true,
      "inputs": [],
      "name": "votingDelay",
      "outputs": [
        {
          "internalType": "uint256",
          "name": "",
          "type": "uint256"
        }
      ],
      "payable": false,
      "stateMutability": "view",
      "type": "function"
    },
    {
      "constant": true,
      "inputs": [],
      "name": "votingPeriod",
      "outputs": [
        {
          "internalType": "uint256",
          "name": "",
          "type": "uint256"
        }
      ],
      "payable": false,
      "stateMutability": "view",
      "type": "function"
    }
  ],
  "bytecode": "0x608060405234801561001057600080fd5b506143ff806100206000396000f3fe60806040526004361061023b5760003560e01c8063791f5d231161012e578063da95691a116100ab578063e9c714f21161006f578063e9c714f21461064e578063f851a44014610663578063f9d28b8014610678578063fc4eee4214610698578063fe0d94c1146106ad5761023b565b8063da95691a146105b7578063ddf0b009146105d7578063deaaa7cc146105f7578063e23a9a521461060c578063e48083fe146106395761023b565b8063b58131b0116100f2578063b58131b014610538578063b71d1a0c1461054d578063d13f90b41461056d578063d33219b41461058d578063da35c664146105a25761023b565b8063791f5d23146104c45780637b3c71d3146104d95780637bdbe4d0146104f9578063a64e024a1461050e578063b1126263146105235761023b565b806324bc1a64116101bc5780633bccf4fd116101805780633bccf4fd146104225780633e4f49e61461044257806340e58ee51461046f578063567813881461048f5780635c60da1b146104af5761023b565b806324bc1a641461039157806325fd935a146103a657806326782247146103bb578063328dd982146103dd5780633932abb11461040d5761023b565b806317977c611161020357806317977c611461030757806317ba1b8b146103275780631dfb1b5a1461034757806320606b7014610367578063215809ca1461037c5761023b565b8063013cf08b1461024057806302a251a31461027f57806306fdde03146102a15780630ea2d98c146102c3578063109d0af8146102e5575b600080fd5b34801561024c57600080fd5b5061026061025b366004612a52565b6106c0565b6040516102769a99989796959493929190614116565b60405180910390f35b34801561028b57600080fd5b50610294610723565b6040516102769190613d43565b3480156102ad57600080fd5b506102b6610729565b6040516102769190613dff565b3480156102cf57600080fd5b506102e36102de366004612a52565b61075c565b005b3480156102f157600080fd5b506102fa610806565b6040516102769190613de3565b34801561031357600080fd5b50610294610322366004612867565b610815565b34801561033357600080fd5b506102e3610342366004612a52565b610827565b34801561035357600080fd5b506102e3610362366004612a52565b6108cb565b34801561037357600080fd5b5061029461095e565b34801561038857600080fd5b50610294610975565b34801561039d57600080fd5b5061029461097b565b3480156103b257600080fd5b50610294610989565b3480156103c757600080fd5b506103d0610997565b6040516102769190613c09565b3480156103e957600080fd5b506103fd6103f8366004612a52565b6109a6565b6040516102769493929190613cf6565b34801561041957600080fd5b50610294610c35565b34801561042e57600080fd5b506102e361043d366004612b42565b610c3b565b34801561044e57600080fd5b5061046261045d366004612a52565b610e16565b6040516102769190613df1565b34801561047b57600080fd5b506102e361048a366004612a52565b610f9c565b34801561049b57600080fd5b506102e36104aa366004612aaa565b6111f0565b3480156104bb57600080fd5b506103d061123a565b3480156104d057600080fd5b50610294611249565b3480156104e557600080fd5b506102e36104f4366004612ada565b611257565b34801561050557600080fd5b506102946112a7565b34801561051a57600080fd5b506102946112ac565b34801561052f57600080fd5b506102946112b3565b34801561054457600080fd5b506102946112b9565b34801561055957600080fd5b506102e3610568366004612867565b6112bf565b34801561057957600080fd5b506102e361058836600461288d565b61133c565b34801561059957600080fd5b506102fa6114b9565b3480156105ae57600080fd5b506102946114c8565b3480156105c357600080fd5b506102946105d2366004612902565b6114ce565b3480156105e357600080fd5b506102e36105f2366004612a52565b61187a565b34801561060357600080fd5b50610294611af6565b34801561061857600080fd5b5061062c610627366004612a70565b611b02565b6040516102769190614060565b34801561064557600080fd5b50610294611b6f565b34801561065a57600080fd5b506102e3611b74565b34801561066f57600080fd5b506103d0611c52565b34801561068457600080fd5b506102e3610693366004612867565b611c61565b3480156106a457600080fd5b50610294611d87565b6102e36106bb366004612a52565b611d8d565b600a60208190526000918252604090912080546001820154600283015460078401546008850154600986015496860154600b870154600c9097015495976001600160a01b0390951696939592949193919290919060ff808216916101009004168a565b60045481565b60405180604001604052806017815260200176436f6d706f756e6420476f7665726e6f7220427261766f60481b81525081565b6000546001600160a01b0316331461078f5760405162461bcd60e51b815260040161078690613e50565b60405180910390fd5b61168081101580156107a4575062013b008111155b6107c05760405162461bcd60e51b815260040161078690613e90565b60048054908290556040517f7e3f7f0708a84de9203036abaa450dccc85ad5ff52f78c170f3edb55cf5e8828906107fa908390859061419c565b60405180910390a15050565b6009546001600160a01b031681565b600b6020526000908152604090205481565b6000546001600160a01b031633146108515760405162461bcd60e51b815260040161078690614020565b690a968163f0a57b4000008110158015610875575069152d02c7e14af68000008111155b6108915760405162461bcd60e51b815260040161078690613f40565b60058054908290556040517fccb45da8d5717e6c4544694297c4ba5cf151d455c9bb0ed4fc7a38411bc05461906107fa908390859061419c565b6000546001600160a01b031633146108f55760405162461bcd60e51b815260040161078690613e70565b600181101580156109085750619d808111155b6109245760405162461bcd60e51b815260040161078690613ec0565b60038054908290556040517fc565b045403dc03c2eea82b81a0465edad9e2e7fc4d97e11421c209da93d7a93906107fa908390859061419c565b60405161096a90613bfe565b604051809103902081565b61168081565b6954b40b1f852bda00000081565b69152d02c7e14af680000081565b6001546001600160a01b031681565b6060806060806000600a600087815260200190815260200160002090508060030181600401826005018360060183805480602002602001604051908101604052809291908181526020018280548015610a2857602002820191906000526020600020905b81546001600160a01b03168152600190910190602001808311610a0a575b5050505050935082805480602002602001604051908101604052809291908181526020018280548015610a7a57602002820191906000526020600020905b815481526020019060010190808311610a66575b5050505050925081805480602002602001604051908101604052809291908181526020016000905b82821015610b4d5760008481526020908190208301805460408051601f6002600019610100600187161502019094169390930492830185900485028101850190915281815292830182828015610b395780601f10610b0e57610100808354040283529160200191610b39565b820191906000526020600020905b815481529060010190602001808311610b1c57829003601f168201915b505050505081526020019060010190610aa2565b50505050915080805480602002602001604051908101604052809291908181526020016000905b82821015610c1f5760008481526020908190208301805460408051601f6002600019610100600187161502019094169390930492830185900485028101850190915281815292830182828015610c0b5780601f10610be057610100808354040283529160200191610c0b565b820191906000526020600020905b815481529060010190602001808311610bee57829003601f168201915b505050505081526020019060010190610b74565b5050505090509450945094509450509193509193565b60035481565b6000604051610c4990613bfe565b604080519182900382208282019091526017825276436f6d706f756e6420476f7665726e6f7220427261766f60481b6020909201919091527f3d9e905142ff365fb68ce863f26a44f5583cf7ec11bcde450555f50b7e1b5614610caa611f46565b30604051602001610cbe9493929190613d51565b6040516020818303038152906040528051906020012090506000604051610ce490613bc2565b604051908190038120610cfd9189908990602001613d86565b60405160208183030381529060405280519060200120905060008282604051602001610d2a929190613bcd565b604051602081830303815290604052805190602001209050600060018288888860405160008152602001604052604051610d679493929190613dae565b6020604051602081039080840390855afa158015610d89573d6000803e3d6000fd5b5050604051601f1901519150506001600160a01b038116610dbc5760405162461bcd60e51b815260040161078690613f00565b806001600160a01b03167fb8e138887d0aa13bab447e82de9d5c1777041ecd21ca36ba824ff1e6c07ddda48a8a610df4858e8e611f4b565b604051610e03939291906141f0565b60405180910390a2505050505050505050565b60008160075410158015610e2b575060065482115b610e475760405162461bcd60e51b815260040161078690614030565b6000828152600a60205260409020600c81015460ff1615610e6c576002915050610f97565b80600701544311610e81576000915050610f97565b80600801544311610e96576001915050610f97565b80600a01548160090154111580610eba57506954b40b1f852bda0000008160090154105b15610ec9576003915050610f97565b6002810154610edc576004915050610f97565b600c810154610100900460ff1615610ef8576007915050610f97565b6002810154600854604080516360d143f160e11b81529051610f8193926001600160a01b03169163c1a287e2916004808301926020929190829003018186803b158015610f4457600080fd5b505afa158015610f58573d6000803e3d6000fd5b505050506040513d601f19601f82011682018060405250610f7c91908101906129ff565b61213c565b4210610f91576006915050610f97565b60059150505b919050565b6007610fa782610e16565b6007811115610fb257fe5b1415610fd05760405162461bcd60e51b815260040161078690614010565b6000818152600a6020526040902060018101546001600160a01b031633148061109857506005546009546001838101546001600160a01b039283169263782d6fe192911690611020904390612161565b6040518363ffffffff1660e01b815260040161103d929190613c4d565b60206040518083038186803b15801561105557600080fd5b505afa158015611069573d6000803e3d6000fd5b505050506040513d601f19601f8201168201806040525061108d9190810190612b88565b6001600160601b0316105b6110b45760405162461bcd60e51b815260040161078690613fb0565b600c8101805460ff1916600117905560005b60038201548110156111c0576008546003830180546001600160a01b039092169163591fcdfe9190849081106110f857fe5b6000918252602090912001546004850180546001600160a01b03909216918590811061112057fe5b906000526020600020015485600501858154811061113a57fe5b9060005260206000200186600601868154811061115357fe5b9060005260206000200187600201546040518663ffffffff1660e01b8152600401611182959493929190613cb5565b600060405180830381600087803b15801561119c57600080fd5b505af11580156111b0573d6000803e3d6000fd5b5050600190920191506110c69050565b507f789cf55be980739dad1d0699b93b58e806b51c9d96619bfa8fe0a28abaa7b30c826040516107fa9190613d43565b337fb8e138887d0aa13bab447e82de9d5c1777041ecd21ca36ba824ff1e6c07ddda4838361121f848383611f4b565b60405161122e939291906141f0565b60405180910390a25050565b6002546001600160a01b031681565b690a968163f0a57b40000081565b337fb8e138887d0aa13bab447e82de9d5c1777041ecd21ca36ba824ff1e6c07ddda48585611286848383611f4b565b86866040516112999594939291906141aa565b60405180910390a250505050565b600a81565b62013b0081565b619d8081565b60055481565b6000546001600160a01b031633146112e95760405162461bcd60e51b815260040161078690613e30565b600180546001600160a01b038381166001600160a01b03198316179092556040519116907fca4f2f25d0898edd99413412fb94012f9e54ec8142f9b093e7720646a95b16a9906107fa9083908590613c32565b6008546001600160a01b0316156113655760405162461bcd60e51b815260040161078690613e20565b6000546001600160a01b0316331461138f5760405162461bcd60e51b815260040161078690613f30565b6001600160a01b0385166113b55760405162461bcd60e51b815260040161078690613e60565b6001600160a01b0384166113db5760405162461bcd60e51b815260040161078690613fa0565b61168083101580156113f0575062013b008311155b61140c5760405162461bcd60e51b815260040161078690614040565b6001821015801561141f5750619d808211155b61143b5760405162461bcd60e51b815260040161078690613f10565b690a968163f0a57b400000811015801561145f575069152d02c7e14af68000008111155b61147b5760405162461bcd60e51b815260040161078690613ed0565b600880546001600160a01b039687166001600160a01b0319918216179091556009805495909616941693909317909355600455600391909155600555565b6008546001600160a01b031681565b60075481565b6000600654600014156114f35760405162461bcd60e51b815260040161078690613e80565b6005546009546001600160a01b031663782d6fe133611513436001612161565b6040518363ffffffff1660e01b8152600401611530929190613c17565b60206040518083038186803b15801561154857600080fd5b505afa15801561155c573d6000803e3d6000fd5b505050506040513d601f19601f820116820180604052506115809190810190612b88565b6001600160601b0316116115a65760405162461bcd60e51b815260040161078690614000565b845186511480156115b8575083518651145b80156115c5575082518651145b6115e15760405162461bcd60e51b815260040161078690613f20565b85516115ff5760405162461bcd60e51b815260040161078690613f80565b600a865111156116215760405162461bcd60e51b815260040161078690613fc0565b336000908152600b6020526040902054801561169e57600061164282610e16565b9050600181600781111561165257fe5b14156116705760405162461bcd60e51b815260040161078690613fe0565b600081600781111561167e57fe5b141561169c5760405162461bcd60e51b815260040161078690613fd0565b505b60006116ac4360035461213c565b905060006116bc8260045461213c565b60078054600101908190556000908152600a60205260409020805491925090156116f85760405162461bcd60e51b815260040161078690613ee0565b60075481556001810180546001600160a01b0319163317905560006002820155895161172d90600383019060208d01906122e8565b50885161174390600483019060208c019061234d565b50875161175990600583019060208b0190612394565b50865161176f90600683019060208a01906123ed565b5082816007018190555081816008018190555060008160090181905550600081600a0181905550600081600b0181905550600081600c0160006101000a81548160ff021916908315150217905550600081600c0160016101000a81548160ff0219169083151502179055508060000154600b60008360010160009054906101000a90046001600160a01b03166001600160a01b03166001600160a01b03168152602001908152602001600020819055507f7d84a6263ae0d98d3329bd7b46bb4e8d6f98cd35a7adb45c274c8b7fd5ebd5e08160000154338c8c8c8c89898e6040516118629998979695949392919061406e565b60405180910390a15493505050505b95945050505050565b600461188582610e16565b600781111561189057fe5b146118ad5760405162461bcd60e51b815260040161078690613f50565b6000818152600a602090815260408083206008548251630d48571f60e31b815292519194936119079342936001600160a01b0390931692636a42b8f892600480840193919291829003018186803b158015610f4457600080fd5b905060005b6003830154811015611aaf57611aa783600301828154811061192a57fe5b6000918252602090912001546004850180546001600160a01b03909216918490811061195257fe5b906000526020600020015485600501848154811061196c57fe5b600091825260209182902001805460408051601f60026000196101006001871615020190941693909304928301859004850281018501909152818152928301828280156119fa5780601f106119cf576101008083540402835291602001916119fa565b820191906000526020600020905b8154815290600101906020018083116119dd57829003601f168201915b5050505050866006018581548110611a0e57fe5b600091825260209182902001805460408051601f6002600019610100600187161502019094169390930492830185900485028101850190915281815292830182828015611a9c5780601f10611a7157610100808354040283529160200191611a9c565b820191906000526020600020905b815481529060010190602001808311611a7f57829003601f168201915b505050505086612189565b60010161190c565b50600282018190556040517f9a2e42fd6722813d69113e7d0079d3d940171428df7373df9c7f7617cfda289290611ae9908590849061419c565b60405180910390a1505050565b60405161096a90613bc2565b611b0a612446565b506000828152600a602090815260408083206001600160a01b0385168452600d018252918290208251606081018452905460ff8082161515835261010082041692820192909252620100009091046001600160601b0316918101919091525b92915050565b600181565b6001546001600160a01b031633148015611b8d57503315155b611ba95760405162461bcd60e51b815260040161078690613f90565b60008054600180546001600160a01b038082166001600160a01b03198086168217968790559092169092556040519282169390927ff9ffabca9c8276e99321725bcb43fb076a6c66a54b7f21c4e8146d8519b417dc92611c0d928692911690613c32565b60405180910390a16001546040517fca4f2f25d0898edd99413412fb94012f9e54ec8142f9b093e7720646a95b16a9916107fa9184916001600160a01b031690613c32565b6000546001600160a01b031681565b6000546001600160a01b03163314611c8b5760405162461bcd60e51b815260040161078690613ff0565b60065415611cab5760405162461bcd60e51b815260040161078690613f70565b806001600160a01b031663da35c6646040518163ffffffff1660e01b8152600401602060405180830381600087803b158015611ce657600080fd5b505af1158015611cfa573d6000803e3d6000fd5b505050506040513d601f19601f82011682018060405250611d1e91908101906129ff565b600781905560065560085460408051630e18b68160e01b815290516001600160a01b0390921691630e18b6819160048082019260009290919082900301818387803b158015611d6c57600080fd5b505af1158015611d80573d6000803e3d6000fd5b5050505050565b60065481565b6005611d9882610e16565b6007811115611da357fe5b14611dc05760405162461bcd60e51b815260040161078690613ef0565b6000818152600a60205260408120600c8101805461ff001916610100179055905b6003820154811015611f16576008546004830180546001600160a01b0390921691630825f38f919084908110611e1357fe5b9060005260206000200154846003018481548110611e2d57fe5b6000918252602090912001546004860180546001600160a01b039092169186908110611e5557fe5b9060005260206000200154866005018681548110611e6f57fe5b90600052602060002001876006018781548110611e8857fe5b9060005260206000200188600201546040518763ffffffff1660e01b8152600401611eb7959493929190613cb5565b6000604051808303818588803b158015611ed057600080fd5b505af1158015611ee4573d6000803e3d6000fd5b50505050506040513d6000823e601f3d908101601f19168201604052611f0d9190810190612a1d565b50600101611de1565b507f712ae1383f79ac853f8d882153778e0260ef8f03b504e2866e0593e04d2b291f826040516107fa9190613d43565b465b90565b60006001611f5884610e16565b6007811115611f6357fe5b14611f805760405162461bcd60e51b815260040161078690613ea0565b60028260ff161115611fa45760405162461bcd60e51b815260040161078690613e10565b6000838152600a602090815260408083206001600160a01b0388168452600d8101909252909120805460ff1615611fed5760405162461bcd60e51b815260040161078690613eb0565b600954600783015460405163782d6fe160e01b81526000926001600160a01b03169163782d6fe191612023918b91600401613c4d565b60206040518083038186803b15801561203b57600080fd5b505afa15801561204f573d6000803e3d6000fd5b505050506040513d601f19601f820116820180604052506120739190810190612b88565b905060ff851661209e5761209483600a0154826001600160601b031661213c565b600a8401556120f4565b8460ff16600114156120cb576120c18360090154826001600160601b031661213c565b60098401556120f4565b8460ff16600214156120f4576120ee83600b0154826001600160601b031661213c565b600b8401555b8154600160ff199091161761ff00191661010060ff871602176dffffffffffffffffffffffff00001916620100006001600160601b03831602179091559150505b9392505050565b6000828201838110156121355760405162461bcd60e51b815260040161078690613f60565b6000828211156121835760405162461bcd60e51b815260040161078690614050565b50900390565b6008546040516001600160a01b039091169063f2b06537906121b79088908890889088908890602001613c5b565b604051602081830303815290604052805190602001206040518263ffffffff1660e01b81526004016121e99190613d43565b60206040518083038186803b15801561220157600080fd5b505afa158015612215573d6000803e3d6000fd5b505050506040513d601f19601f8201168201806040525061223991908101906129e1565b156122565760405162461bcd60e51b815260040161078690613e40565b600854604051633a66f90160e01b81526001600160a01b0390911690633a66f9019061228e9088908890889088908890600401613c5b565b602060405180830381600087803b1580156122a857600080fd5b505af11580156122bc573d6000803e3d6000fd5b505050506040513d601f19601f820116820180604052506122e091908101906129ff565b505050505050565b82805482825590600052602060002090810192821561233d579160200282015b8281111561233d57825182546001600160a01b0319166001600160a01b03909116178255602090920191600190910190612308565b50612349929150612466565b5090565b828054828255906000526020600020908101928215612388579160200282015b8281111561238857825182559160200191906001019061236d565b5061234992915061248a565b8280548282559060005260206000209081019282156123e1579160200282015b828111156123e157825180516123d19184916020909101906124a4565b50916020019190600101906123b4565b50612349929150612511565b82805482825590600052602060002090810192821561243a579160200282015b8281111561243a578251805161242a9184916020909101906124a4565b509160200191906001019061240d565b50612349929150612534565b604080516060810182526000808252602082018190529181019190915290565b611f4891905b808211156123495780546001600160a01b031916815560010161246c565b611f4891905b808211156123495760008155600101612490565b828054600181600116156101000203166002900490600052602060002090601f016020900481019282601f106124e557805160ff1916838001178555612388565b82800160010185558215612388579182018281111561238857825182559160200191906001019061236d565b611f4891905b8082111561234957600061252b8282612557565b50600101612517565b611f4891905b8082111561234957600061254e8282612557565b5060010161253a565b50805460018160011615610100020316600290046000825580601f1061257d575061259b565b601f01602090049060005260206000209081019061259b919061248a565b50565b8035611b6981614364565b600082601f8301126125ba57600080fd5b81356125cd6125c882614250565b614229565b915081818352602084019350602081019050838560208402820111156125f257600080fd5b60005b8381101561261e5781612608888261259e565b84525060209283019291909101906001016125f5565b5050505092915050565b600082601f83011261263957600080fd5b81356126476125c882614250565b81815260209384019390925082018360005b8381101561261e578135860161266f8882612773565b8452506020928301929190910190600101612659565b600082601f83011261269657600080fd5b81356126a46125c882614250565b81815260209384019390925082018360005b8381101561261e57813586016126cc8882612773565b84525060209283019291909101906001016126b6565b600082601f8301126126f357600080fd5b81356127016125c882614250565b9150818183526020840193506020810190508385602084028201111561272657600080fd5b60005b8381101561261e578161273c888261275d565b8452506020928301929190910190600101612729565b8051611b6981614378565b8035611b6981614381565b8051611b6981614381565b600082601f83011261278457600080fd5b81356127926125c882614271565b915080825260208301602083018583830111156127ae57600080fd5b6127b9838284614318565b50505092915050565b600082601f8301126127d357600080fd5b81516127e16125c882614271565b915080825260208301602083018583830111156127fd57600080fd5b6127b9838284614324565b60008083601f84011261281a57600080fd5b50813567ffffffffffffffff81111561283257600080fd5b60208301915083600182028301111561284a57600080fd5b9250929050565b8035611b698161438a565b8051611b6981614393565b60006020828403121561287957600080fd5b6000612885848461259e565b949350505050565b600080600080600060a086880312156128a557600080fd5b60006128b1888861259e565b95505060206128c28882890161259e565b94505060406128d38882890161275d565b93505060606128e48882890161275d565b92505060806128f58882890161275d565b9150509295509295909350565b600080600080600060a0868803121561291a57600080fd5b853567ffffffffffffffff81111561293157600080fd5b61293d888289016125a9565b955050602086013567ffffffffffffffff81111561295a57600080fd5b612966888289016126e2565b945050604086013567ffffffffffffffff81111561298357600080fd5b61298f88828901612685565b935050606086013567ffffffffffffffff8111156129ac57600080fd5b6129b888828901612628565b925050608086013567ffffffffffffffff8111156129d557600080fd5b6128f588828901612773565b6000602082840312156129f357600080fd5b60006128858484612752565b600060208284031215612a1157600080fd5b60006128858484612768565b600060208284031215612a2f57600080fd5b815167ffffffffffffffff811115612a4657600080fd5b612885848285016127c2565b600060208284031215612a6457600080fd5b6000612885848461275d565b60008060408385031215612a8357600080fd5b6000612a8f858561275d565b9250506020612aa08582860161259e565b9150509250929050565b60008060408385031215612abd57600080fd5b6000612ac9858561275d565b9250506020612aa085828601612851565b60008060008060608587031215612af057600080fd5b6000612afc878761275d565b9450506020612b0d87828801612851565b935050604085013567ffffffffffffffff811115612b2a57600080fd5b612b3687828801612808565b95989497509550505050565b600080600080600060a08688031215612b5a57600080fd5b6000612b66888861275d565b9550506020612b7788828901612851565b94505060406128d388828901612851565b600060208284031215612b9a57600080fd5b6000612885848461285c565b6000612bb28383612be1565b505060200190565b60006121358383612d83565b6000612bb28383612d69565b612bdb816142f0565b82525050565b612bdb816142b8565b6000612bf5826142ab565b612bff81856142af565b9350612c0a83614299565b8060005b83811015612c38578151612c228882612ba6565b9750612c2d83614299565b925050600101612c0e565b509495945050505050565b6000612c4e826142ab565b612c5881856142af565b935083602082028501612c6a85614299565b8060005b85811015612ca45784840389528151612c878582612bba565b9450612c9283614299565b60209a909a0199925050600101612c6e565b5091979650505050505050565b6000612cbc826142ab565b612cc681856142af565b935083602082028501612cd885614299565b8060005b85811015612ca45784840389528151612cf58582612bba565b9450612d0083614299565b60209a909a0199925050600101612cdc565b6000612d1d826142ab565b612d2781856142af565b9350612d3283614299565b8060005b83811015612c38578151612d4a8882612bc6565b9750612d5583614299565b925050600101612d36565b612bdb816142c3565b612bdb81611f48565b612bdb612d7e82611f48565b611f48565b6000612d8e826142ab565b612d9881856142af565b9350612da8818560208601614324565b612db181614350565b9093019392505050565b600081546001811660008114612dd85760018114612dfe57612e3d565b607f6002830416612de981876142af565b60ff1984168152955050602085019250612e3d565b60028204612e0c81876142af565b9550612e178561429f565b60005b82811015612e3657815488820152600190910190602001612e1a565b8701945050505b505092915050565b612bdb816142f7565b612bdb81614302565b6000612e6383856142af565b9350612e70838584614318565b612db183614350565b6000612e866032836142af565b7f476f7665726e6f72427261766f3a3a63617374566f7465496e7465726e616c3a81527120696e76616c696420766f7465207479706560701b602082015260400192915050565b6000612eda602883610f97565b7f42616c6c6f742875696e743235362070726f706f73616c49642c75696e743820815267737570706f72742960c01b602082015260280192915050565b6000612f246033836142af565b7f476f7665726e6f72427261766f3a3a696e697469616c697a653a2063616e206f8152726e6c7920696e697469616c697a65206f6e636560681b602082015260400192915050565b6000612f79602a836142af565b7f476f7665726e6f72427261766f3a5f73657450656e64696e6741646d696e3a2081526961646d696e206f6e6c7960b01b602082015260400192915050565b6000612fc56055836142af565b7f476f7665726e6f72427261766f3a3a71756575654f72526576657274496e746581527f726e616c3a206964656e746963616c2070726f706f73616c20616374696f6e20602082015274616c7265616479207175657565642061742065746160581b604082015260600192915050565b6000613042602b836142af565b7f476f7665726e6f72427261766f3a3a5f736574566f74696e67506572696f643a81526a2061646d696e206f6e6c7960a81b602082015260400192915050565b600061308f6033836142af565b60008051602061439d83398151915281527269642074696d656c6f636b206164647265737360681b602082015260400192915050565b60006130d2602a836142af565b7f476f7665726e6f72427261766f3a3a5f736574566f74696e6744656c61793a2081526961646d696e206f6e6c7960b01b602082015260400192915050565b600061311e6031836142af565b7f476f7665726e6f72427261766f3a3a70726f706f73653a20476f7665726e6f7281527020427261766f206e6f742061637469766560781b602082015260400192915050565b6000613171600283610f97565b61190160f01b815260020192915050565b600061318f6036836142af565b7f476f7665726e6f72427261766f3a3a5f736574566f74696e67506572696f643a815275081a5b9d985b1a59081d9bdd1a5b99c81c195c9a5bd960521b602082015260400192915050565b60006131e76031836142af565b7f476f7665726e6f72427261766f3a3a63617374566f7465496e7465726e616c3a815270081d9bdd1a5b99c81a5cc818db1bdcd959607a1b602082015260400192915050565b600061323a6034836142af565b7f476f7665726e6f72427261766f3a3a63617374566f7465496e7465726e616c3a815273081d9bdd195c88185b1c9958591e481d9bdd195960621b602082015260400192915050565b60006132906034836142af565b7f476f7665726e6f72427261766f3a3a5f736574566f74696e6744656c61793a20815273696e76616c696420766f74696e672064656c617960601b602082015260400192915050565b60006132e66035836142af565b60008051602061439d8339815191528152741a59081c1c9bdc1bdcd85b081d1a1c995cda1bdb19605a1b602082015260400192915050565b600061332b602b836142af565b7f476f7665726e6f72427261766f3a3a70726f706f73653a2050726f706f73616c81526a24a21031b7b63639b4b7b760a91b602082015260400192915050565b60006133786045836142af565b7f476f7665726e6f72427261766f3a3a657865637574653a2070726f706f73616c81527f2063616e206f6e6c7920626520657865637574656420696620697420697320716020820152641d595d595960da1b604082015260600192915050565b60006133e5602f836142af565b7f476f7665726e6f72427261766f3a3a63617374566f746542795369673a20696e81526e76616c6964207369676e617475726560881b602082015260400192915050565b6000613436602f836142af565b60008051602061439d83398151915281526e696420766f74696e672064656c617960881b602082015260400192915050565b60006134756044836142af565b7f476f7665726e6f72427261766f3a3a70726f706f73653a2070726f706f73616c81527f2066756e6374696f6e20696e666f726d6174696f6e206172697479206d69736d6020820152630c2e8c6d60e31b604082015260600192915050565b60006134e16025836142af565b7f476f7665726e6f72427261766f3a3a696e697469616c697a653a2061646d696e815264206f6e6c7960d81b602082015260400192915050565b60006135286040836142af565b7f476f7665726e6f72427261766f3a3a5f73657450726f706f73616c546872657381527f686f6c643a20696e76616c69642070726f706f73616c207468726573686f6c64602082015260400192915050565b60006135876044836142af565b7f476f7665726e6f72427261766f3a3a71756575653a2070726f706f73616c206381527f616e206f6e6c79206265207175657565642069662069742069732073756363656020820152631959195960e21b604082015260600192915050565b60006135f36011836142af565b706164646974696f6e206f766572666c6f7760781b815260200192915050565b6000613620604383610f97565b7f454950373132446f6d61696e28737472696e67206e616d652c75696e7432353681527f20636861696e49642c6164647265737320766572696679696e67436f6e74726160208201526263742960e81b604082015260430192915050565b600061368b6030836142af565b7f476f7665726e6f72427261766f3a3a5f696e6974696174653a2063616e206f6e81526f6c7920696e697469617465206f6e636560801b602082015260400192915050565b60006136dd602c836142af565b7f476f7665726e6f72427261766f3a3a70726f706f73653a206d7573742070726f81526b7669646520616374696f6e7360a01b602082015260400192915050565b600061372b602e836142af565b7f476f7665726e6f72427261766f3a5f61636365707441646d696e3a2070656e6481526d696e672061646d696e206f6e6c7960901b602082015260400192915050565b600061377b602f836142af565b60008051602061439d83398151915281526e696420636f6d70206164647265737360881b602082015260400192915050565b60006137ba602f836142af565b7f476f7665726e6f72427261766f3a3a63616e63656c3a2070726f706f7365722081526e18589bdd99481d1a1c995cda1bdb19608a1b602082015260400192915050565b600061380b6028836142af565b7f476f7665726e6f72427261766f3a3a70726f706f73653a20746f6f206d616e7981526720616374696f6e7360c01b602082015260400192915050565b60006138556059836142af565b7f476f7665726e6f72427261766f3a3a70726f706f73653a206f6e65206c69766581527f2070726f706f73616c207065722070726f706f7365722c20666f756e6420616e60208201527f20616c72656164792070656e64696e672070726f706f73616c00000000000000604082015260600192915050565b60006138da6058836142af565b7f476f7665726e6f72427261766f3a3a70726f706f73653a206f6e65206c69766581527f2070726f706f73616c207065722070726f706f7365722c20666f756e6420616e60208201527f20616c7265616479206163746976652070726f706f73616c0000000000000000604082015260600192915050565b6000611b696000836142af565b600061396c6024836142af565b7f476f7665726e6f72427261766f3a3a5f696e6974696174653a2061646d696e208152636f6e6c7960e01b602082015260400192915050565b60006139b2603f836142af565b7f476f7665726e6f72427261766f3a3a70726f706f73653a2070726f706f73657281527f20766f7465732062656c6f772070726f706f73616c207468726573686f6c6400602082015260400192915050565b6000613a116036836142af565b7f476f7665726e6f72427261766f3a3a63616e63656c3a2063616e6e6f742063618152751b98d95b08195e1958dd5d1959081c1c9bdc1bdcd85b60521b602082015260400192915050565b6000613a696030836142af565b7f476f7665726e6f72427261766f3a3a5f73657450726f706f73616c546872657381526f686f6c643a2061646d696e206f6e6c7960801b602082015260400192915050565b6000613abb6029836142af565b7f476f7665726e6f72427261766f3a3a73746174653a20696e76616c69642070728152681bdc1bdcd85b081a5960ba1b602082015260400192915050565b6000613b066030836142af565b60008051602061439d83398151915281526f1a59081d9bdd1a5b99c81c195c9a5bd960821b602082015260400192915050565b6000613b466015836142af565b747375627472616374696f6e20756e646572666c6f7760581b815260200192915050565b80516060830190613b7b8482612d60565b506020820151613b8e6020850182613ba7565b506040820151613ba16040850182613bb9565b50505050565b612bdb816142de565b612bdb8161430d565b612bdb816142e4565b6000611b6982612ecd565b6000613bd882613164565b9150613be48285612d72565b602082019150613bf48284612d72565b5060200192915050565b6000611b6982613613565b60208101611b698284612be1565b60408101613c258285612bd2565b6121356020830184612d69565b60408101613c408285612be1565b6121356020830184612be1565b60408101613c258285612be1565b60a08101613c698288612be1565b613c766020830187612d69565b8181036040830152613c888186612d83565b90508181036060830152613c9c8185612d83565b9050613cab6080830184612d69565b9695505050505050565b60a08101613cc38288612be1565b613cd06020830187612d69565b8181036040830152613ce28186612dbb565b90508181036060830152613c9c8185612dbb565b60808082528101613d078187612bea565b90508181036020830152613d1b8186612d12565b90508181036040830152613d2f8185612cb1565b90508181036060830152613cab8184612c43565b60208101611b698284612d69565b60808101613d5f8287612d69565b613d6c6020830186612d69565b613d796040830185612d69565b6118716060830184612be1565b60608101613d948286612d69565b613da16020830185612d69565b6128856040830184613ba7565b60808101613dbc8287612d69565b613dc96020830186613ba7565b613dd66040830185612d69565b6118716060830184612d69565b60208101611b698284612e45565b60208101611b698284612e4e565b602080825281016121358184612d83565b60208082528101611b6981612e79565b60208082528101611b6981612f17565b60208082528101611b6981612f6c565b60208082528101611b6981612fb8565b60208082528101611b6981613035565b60208082528101611b6981613082565b60208082528101611b69816130c5565b60208082528101611b6981613111565b60208082528101611b6981613182565b60208082528101611b69816131da565b60208082528101611b698161322d565b60208082528101611b6981613283565b60208082528101611b69816132d9565b60208082528101611b698161331e565b60208082528101611b698161336b565b60208082528101611b69816133d8565b60208082528101611b6981613429565b60208082528101611b6981613468565b60208082528101611b69816134d4565b60208082528101611b698161351b565b60208082528101611b698161357a565b60208082528101611b69816135e6565b60208082528101611b698161367e565b60208082528101611b69816136d0565b60208082528101611b698161371e565b60208082528101611b698161376e565b60208082528101611b69816137ad565b60208082528101611b69816137fe565b60208082528101611b6981613848565b60208082528101611b69816138cd565b60208082528101611b698161395f565b60208082528101611b69816139a5565b60208082528101611b6981613a04565b60208082528101611b6981613a5c565b60208082528101611b6981613aae565b60208082528101611b6981613af9565b60208082528101611b6981613b39565b60608101611b698284613b6a565b610120810161407d828c612d69565b61408a602083018b612bd2565b818103604083015261409c818a612bea565b905081810360608301526140b08189612d12565b905081810360808301526140c48188612cb1565b905081810360a08301526140d88187612c43565b90506140e760c0830186612d69565b6140f460e0830185612d69565b8181036101008301526141078184612d83565b9b9a5050505050505050505050565b6101408101614125828d612d69565b614132602083018c612be1565b61413f604083018b612d69565b61414c606083018a612d69565b6141596080830189612d69565b61416660a0830188612d69565b61417360c0830187612d69565b61418060e0830186612d69565b61418e610100830185612d60565b614107610120830184612d60565b60408101613c258285612d69565b608081016141b88288612d69565b6141c56020830187613ba7565b6141d26040830186613bb0565b81810360608301526141e5818486612e57565b979650505050505050565b608081016141fe8286612d69565b61420b6020830185613ba7565b6142186040830184613bb0565b818103606083015261187181613952565b60405181810167ffffffffffffffff8111828210171561424857600080fd5b604052919050565b600067ffffffffffffffff82111561426757600080fd5b5060209081020190565b600067ffffffffffffffff82111561428857600080fd5b506020601f91909101601f19160190565b60200190565b60009081526020902090565b5190565b90815260200190565b6000611b69826142d2565b151590565b80610f978161435a565b6001600160a01b031690565b60ff1690565b6001600160601b031690565b6000611b69825b6000611b69826142b8565b6000611b69826142c8565b6000611b69826142e4565b82818337506000910152565b60005b8381101561433f578181015183820152602001614327565b83811115613ba15750506000910152565b601f01601f191690565b6008811061259b57fe5b61436d816142b8565b811461259b57600080fd5b61436d816142c3565b61436d81611f48565b61436d816142de565b61436d816142e456fe476f7665726e6f72427261766f3a3a696e697469616c697a653a20696e76616ca365627a7a72315820c24910deedcec1064162efe22dfa06c8d883da5005f45c82945430b39ae50af26c6578706572696d656e74616cf564736f6c63430005100040",
  "linkReferences": {},
  "deployedLinkReferences": {}
}