{
  "_format": "hh-sol-artifact-1",
  "contractName": "CErc20Gmx",
  "sourceName": "contracts/CErc20Gmx.sol",
  "abi": [
    {
      "inputs": [],
      "name": "AcceptAdminPendingAdminCheck",
      "type": "error"
    },
    {
      "inputs": [
        {
          "internalType": "uint256",
          "name": "actualAddAmount",
          "type": "uint256"
        }
      ],
      "name": "AddReservesFactorFreshCheck",
      "type": "error"
    },
    {
      "inputs": [],
      "name": "BorrowCashNotAvailable",
      "type": "error"
    },
    {
      "inputs": [
        {
          "internalType": "uint256",
          "name": "errorCode",
          "type": "uint256"
        }
      ],
      "name": "BorrowComptrollerRejection",
      "type": "error"
    },
    {
      "inputs": [],
      "name": "BorrowFreshnessCheck",
      "type": "error"
    },
    {
      "inputs": [
        {
          "internalType": "uint256",
          "name": "errorCode",
          "type": "uint256"
        }
      ],
      "name": "LiquidateAccrueBorrowInterestFailed",
      "type": "error"
    },
    {
      "inputs": [
        {
          "internalType": "uint256",
          "name": "errorCode",
          "type": "uint256"
        }
      ],
      "name": "LiquidateAccrueCollateralInterestFailed",
      "type": "error"
    },
    {
      "inputs": [],
      "name": "LiquidateCloseAmountIsUintMax",
      "type": "error"
    },
    {
      "inputs": [],
      "name": "LiquidateCloseAmountIsZero",
      "type": "error"
    },
    {
      "inputs": [],
      "name": "LiquidateCollateralFreshnessCheck",
      "type": "error"
    },
    {
      "inputs": [
        {
          "internalType": "uint256",
          "name": "errorCode",
          "type": "uint256"
        }
      ],
      "name": "LiquidateComptrollerRejection",
      "type": "error"
    },
    {
      "inputs": [],
      "name": "LiquidateFreshnessCheck",
      "type": "error"
    },
    {
      "inputs": [],
      "name": "LiquidateLiquidatorIsBorrower",
      "type": "error"
    },
    {
      "inputs": [
        {
          "internalType": "uint256",
          "name": "errorCode",
          "type": "uint256"
        }
      ],
      "name": "LiquidateRepayBorrowFreshFailed",
      "type": "error"
    },
    {
      "inputs": [
        {
          "internalType": "uint256",
          "name": "errorCode",
          "type": "uint256"
        }
      ],
      "name": "LiquidateSeizeComptrollerRejection",
      "type": "error"
    },
    {
      "inputs": [],
      "name": "LiquidateSeizeLiquidatorIsBorrower",
      "type": "error"
    },
    {
      "inputs": [
        {
          "internalType": "uint256",
          "name": "errorCode",
          "type": "uint256"
        }
      ],
      "name": "MintComptrollerRejection",
      "type": "error"
    },
    {
      "inputs": [],
      "name": "MintFreshnessCheck",
      "type": "error"
    },
    {
      "inputs": [
        {
          "internalType": "uint256",
          "name": "errorCode",
          "type": "uint256"
        }
      ],
      "name": "RedeemComptrollerRejection",
      "type": "error"
    },
    {
      "inputs": [],
      "name": "RedeemFreshnessCheck",
      "type": "error"
    },
    {
      "inputs": [],
      "name": "RedeemTransferOutNotPossible",
      "type": "error"
    },
    {
      "inputs": [],
      "name": "ReduceReservesAdminCheck",
      "type": "error"
    },
    {
      "inputs": [],
      "name": "ReduceReservesCashNotAvailable",
      "type": "error"
    },
    {
      "inputs": [],
      "name": "ReduceReservesCashValidation",
      "type": "error"
    },
    {
      "inputs": [],
      "name": "ReduceReservesFreshCheck",
      "type": "error"
    },
    {
      "inputs": [
        {
          "internalType": "uint256",
          "name": "errorCode",
          "type": "uint256"
        }
      ],
      "name": "RepayBorrowComptrollerRejection",
      "type": "error"
    },
    {
      "inputs": [],
      "name": "RepayBorrowFreshnessCheck",
      "type": "error"
    },
    {
      "inputs": [],
      "name": "SetAutoCompoundOwnerCheck",
      "type": "error"
    },
    {
      "inputs": [],
      "name": "SetComptrollerOwnerCheck",
      "type": "error"
    },
    {
      "inputs": [],
      "name": "SetGlpManagerAddressOwnerCheck",
      "type": "error"
    },
    {
      "inputs": [],
      "name": "SetInterestRateModelFreshCheck",
      "type": "error"
    },
    {
      "inputs": [],
      "name": "SetInterestRateModelOwnerCheck",
      "type": "error"
    },
    {
      "inputs": [],
      "name": "SetPendingAdminOwnerCheck",
      "type": "error"
    },
    {
      "inputs": [],
      "name": "SetReserveFactorAdminCheck",
      "type": "error"
    },
    {
      "inputs": [],
      "name": "SetReserveFactorBoundsCheck",
      "type": "error"
    },
    {
      "inputs": [],
      "name": "SetReserveFactorFreshCheck",
      "type": "error"
    },
    {
      "inputs": [],
      "name": "SetRewardRouterAddressOwnerCheck",
      "type": "error"
    },
    {
      "inputs": [],
      "name": "SetStakedGlpAddressOwnerCheck",
      "type": "error"
    },
    {
      "inputs": [],
      "name": "SignalTransferOwnerCheck",
      "type": "error"
    },
    {
      "inputs": [
        {
          "internalType": "uint256",
          "name": "errorCode",
          "type": "uint256"
        }
      ],
      "name": "TransferComptrollerRejection",
      "type": "error"
    },
    {
      "inputs": [],
      "name": "TransferNotAllowed",
      "type": "error"
    },
    {
      "inputs": [],
      "name": "TransferNotEnough",
      "type": "error"
    },
    {
      "inputs": [],
      "name": "TransferTooMuch",
      "type": "error"
    },
    {
      "anonymous": false,
      "inputs": [
        {
          "indexed": false,
          "internalType": "uint256",
          "name": "cashPrior",
          "type": "uint256"
        },
        {
          "indexed": false,
          "internalType": "uint256",
          "name": "interestAccumulated",
          "type": "uint256"
        },
        {
          "indexed": false,
          "internalType": "uint256",
          "name": "borrowIndex",
          "type": "uint256"
        },
        {
          "indexed": false,
          "internalType": "uint256",
          "name": "totalBorrows",
          "type": "uint256"
        }
      ],
      "name": "AccrueInterest",
      "type": "event"
    },
    {
      "anonymous": false,
      "inputs": [
        {
          "indexed": true,
          "internalType": "address",
          "name": "owner",
          "type": "address"
        },
        {
          "indexed": true,
          "internalType": "address",
          "name": "spender",
          "type": "address"
        },
        {
          "indexed": false,
          "internalType": "uint256",
          "name": "amount",
          "type": "uint256"
        }
      ],
      "name": "Approval",
      "type": "event"
    },
    {
      "anonymous": false,
      "inputs": [
        {
          "indexed": false,
          "internalType": "address",
          "name": "borrower",
          "type": "address"
        },
        {
          "indexed": false,
          "internalType": "uint256",
          "name": "borrowAmount",
          "type": "uint256"
        },
        {
          "indexed": false,
          "internalType": "uint256",
          "name": "accountBorrows",
          "type": "uint256"
        },
        {
          "indexed": false,
          "internalType": "uint256",
          "name": "totalBorrows",
          "type": "uint256"
        }
      ],
      "name": "Borrow",
      "type": "event"
    },
    {
      "anonymous": false,
      "inputs": [
        {
          "indexed": false,
          "internalType": "address",
          "name": "liquidator",
          "type": "address"
        },
        {
          "indexed": false,
          "internalType": "address",
          "name": "borrower",
          "type": "address"
        },
        {
          "indexed": false,
          "internalType": "uint256",
          "name": "repayAmount",
          "type": "uint256"
        },
        {
          "indexed": false,
          "internalType": "address",
          "name": "cTokenCollateral",
          "type": "address"
        },
        {
          "indexed": false,
          "internalType": "uint256",
          "name": "seizeTokens",
          "type": "uint256"
        }
      ],
      "name": "LiquidateBorrow",
      "type": "event"
    },
    {
      "anonymous": false,
      "inputs": [
        {
          "indexed": false,
          "internalType": "address",
          "name": "minter",
          "type": "address"
        },
        {
          "indexed": false,
          "internalType": "uint256",
          "name": "mintAmount",
          "type": "uint256"
        },
        {
          "indexed": false,
          "internalType": "uint256",
          "name": "mintTokens",
          "type": "uint256"
        }
      ],
      "name": "Mint",
      "type": "event"
    },
    {
      "anonymous": false,
      "inputs": [
        {
          "indexed": false,
          "internalType": "address",
          "name": "oldAdmin",
          "type": "address"
        },
        {
          "indexed": false,
          "internalType": "address",
          "name": "newAdmin",
          "type": "address"
        }
      ],
      "name": "NewAdmin",
      "type": "event"
    },
    {
      "anonymous": false,
      "inputs": [
        {
          "indexed": false,
          "internalType": "contract ComptrollerInterface",
          "name": "oldComptroller",
          "type": "address"
        },
        {
          "indexed": false,
          "internalType": "contract ComptrollerInterface",
          "name": "newComptroller",
          "type": "address"
        }
      ],
      "name": "NewComptroller",
      "type": "event"
    },
    {
      "anonymous": false,
      "inputs": [
        {
          "indexed": false,
          "internalType": "contract InterestRateModel",
          "name": "oldInterestRateModel",
          "type": "address"
        },
        {
          "indexed": false,
          "internalType": "contract InterestRateModel",
          "name": "newInterestRateModel",
          "type": "address"
        }
      ],
      "name": "NewMarketInterestRateModel",
      "type": "event"
    },
    {
      "anonymous": false,
      "inputs": [
        {
          "indexed": false,
          "internalType": "address",
          "name": "oldPendingAdmin",
          "type": "address"
        },
        {
          "indexed": false,
          "internalType": "address",
          "name": "newPendingAdmin",
          "type": "address"
        }
      ],
      "name": "NewPendingAdmin",
      "type": "event"
    },
    {
      "anonymous": false,
      "inputs": [
        {
          "indexed": false,
          "internalType": "uint256",
          "name": "oldReserveFactorMantissa",
          "type": "uint256"
        },
        {
          "indexed": false,
          "internalType": "uint256",
          "name": "newReserveFactorMantissa",
          "type": "uint256"
        }
      ],
      "name": "NewReserveFactor",
      "type": "event"
    },
    {
      "anonymous": false,
      "inputs": [
        {
          "indexed": false,
          "internalType": "address",
          "name": "redeemer",
          "type": "address"
        },
        {
          "indexed": false,
          "internalType": "uint256",
          "name": "redeemAmount",
          "type": "uint256"
        },
        {
          "indexed": false,
          "internalType": "uint256",
          "name": "redeemTokens",
          "type": "uint256"
        }
      ],
      "name": "Redeem",
      "type": "event"
    },
    {
      "anonymous": false,
      "inputs": [
        {
          "indexed": false,
          "internalType": "address",
          "name": "payer",
          "type": "address"
        },
        {
          "indexed": false,
          "internalType": "address",
          "name": "borrower",
          "type": "address"
        },
        {
          "indexed": false,
          "internalType": "uint256",
          "name": "repayAmount",
          "type": "uint256"
        },
        {
          "indexed": false,
          "internalType": "uint256",
          "name": "accountBorrows",
          "type": "uint256"
        },
        {
          "indexed": false,
          "internalType": "uint256",
          "name": "totalBorrows",
          "type": "uint256"
        }
      ],
      "name": "RepayBorrow",
      "type": "event"
    },
    {
      "anonymous": false,
      "inputs": [
        {
          "indexed": false,
          "internalType": "address",
          "name": "benefactor",
          "type": "address"
        },
        {
          "indexed": false,
          "internalType": "uint256",
          "name": "addAmount",
          "type": "uint256"
        },
        {
          "indexed": false,
          "internalType": "uint256",
          "name": "newTotalReserves",
          "type": "uint256"
        }
      ],
      "name": "ReservesAdded",
      "type": "event"
    },
    {
      "anonymous": false,
      "inputs": [
        {
          "indexed": false,
          "internalType": "address",
          "name": "admin",
          "type": "address"
        },
        {
          "indexed": false,
          "internalType": "uint256",
          "name": "reduceAmount",
          "type": "uint256"
        },
        {
          "indexed": false,
          "internalType": "uint256",
          "name": "newTotalReserves",
          "type": "uint256"
        }
      ],
      "name": "ReservesReduced",
      "type": "event"
    },
    {
      "anonymous": false,
      "inputs": [
        {
          "indexed": true,
          "internalType": "address",
          "name": "from",
          "type": "address"
        },
        {
          "indexed": true,
          "internalType": "address",
          "name": "to",
          "type": "address"
        },
        {
          "indexed": false,
          "internalType": "uint256",
          "name": "amount",
          "type": "uint256"
        }
      ],
      "name": "Transfer",
      "type": "event"
    },
    {
      "inputs": [],
      "name": "NO_ERROR",
      "outputs": [
        {
          "internalType": "uint256",
          "name": "",
          "type": "uint256"
        }
      ],
      "stateMutability": "view",
      "type": "function"
    },
    {
      "inputs": [],
      "name": "WETH",
      "outputs": [
        {
          "internalType": "address",
          "name": "",
          "type": "address"
        }
      ],
      "stateMutability": "view",
      "type": "function"
    },
    {
      "inputs": [],
      "name": "_acceptAdmin",
      "outputs": [
        {
          "internalType": "uint256",
          "name": "",
          "type": "uint256"
        }
      ],
      "stateMutability": "nonpayable",
      "type": "function"
    },
    {
      "inputs": [
        {
          "internalType": "uint256",
          "name": "addAmount",
          "type": "uint256"
        }
      ],
      "name": "_addReserves",
      "outputs": [
        {
          "internalType": "uint256",
          "name": "",
          "type": "uint256"
        }
      ],
      "stateMutability": "nonpayable",
      "type": "function"
    },
    {
      "inputs": [
        {
          "internalType": "address",
          "name": "compLikeDelegatee",
          "type": "address"
        }
      ],
      "name": "_delegateCompLikeTo",
      "outputs": [],
      "stateMutability": "nonpayable",
      "type": "function"
    },
    {
      "inputs": [
        {
          "internalType": "uint256",
          "name": "reduceAmount",
          "type": "uint256"
        }
      ],
      "name": "_reduceReserves",
      "outputs": [
        {
          "internalType": "uint256",
          "name": "",
          "type": "uint256"
        }
      ],
      "stateMutability": "nonpayable",
      "type": "function"
    },
    {
      "inputs": [
        {
          "internalType": "bool",
          "name": "autocompound_",
          "type": "bool"
        }
      ],
      "name": "_setAutocompoundRewards",
      "outputs": [
        {
          "internalType": "uint256",
          "name": "",
          "type": "uint256"
        }
      ],
      "stateMutability": "nonpayable",
      "type": "function"
    },
    {
      "inputs": [
        {
          "internalType": "contract ComptrollerInterface",
          "name": "newComptroller",
          "type": "address"
        }
      ],
      "name": "_setComptroller",
      "outputs": [
        {
          "internalType": "uint256",
          "name": "",
          "type": "uint256"
        }
      ],
      "stateMutability": "nonpayable",
      "type": "function"
    },
    {
      "inputs": [
        {
          "internalType": "address",
          "name": "glpManager_",
          "type": "address"
        }
      ],
      "name": "_setGlpManagerAddress",
      "outputs": [
        {
          "internalType": "uint256",
          "name": "",
          "type": "uint256"
        }
      ],
      "stateMutability": "nonpayable",
      "type": "function"
    },
    {
      "inputs": [
        {
          "internalType": "contract InterestRateModel",
          "name": "newInterestRateModel",
          "type": "address"
        }
      ],
      "name": "_setInterestRateModel",
      "outputs": [
        {
          "internalType": "uint256",
          "name": "",
          "type": "uint256"
        }
      ],
      "stateMutability": "nonpayable",
      "type": "function"
    },
    {
      "inputs": [
        {
          "internalType": "address payable",
          "name": "newPendingAdmin",
          "type": "address"
        }
      ],
      "name": "_setPendingAdmin",
      "outputs": [
        {
          "internalType": "uint256",
          "name": "",
          "type": "uint256"
        }
      ],
      "stateMutability": "nonpayable",
      "type": "function"
    },
    {
      "inputs": [
        {
          "internalType": "uint256",
          "name": "newReserveFactorMantissa",
          "type": "uint256"
        }
      ],
      "name": "_setReserveFactor",
      "outputs": [
        {
          "internalType": "uint256",
          "name": "",
          "type": "uint256"
        }
      ],
      "stateMutability": "nonpayable",
      "type": "function"
    },
    {
      "inputs": [
        {
          "internalType": "contract IGmxRewardRouter",
          "name": "glpRewardRouter_",
          "type": "address"
        }
      ],
      "name": "_setRewardRouterAddress",
      "outputs": [
        {
          "internalType": "uint256",
          "name": "",
          "type": "uint256"
        }
      ],
      "stateMutability": "nonpayable",
      "type": "function"
    },
    {
      "inputs": [
        {
          "internalType": "contract IStakedGlp",
          "name": "stakedGLP_",
          "type": "address"
        }
      ],
      "name": "_setStakedGlpAddress",
      "outputs": [
        {
          "internalType": "uint256",
          "name": "",
          "type": "uint256"
        }
      ],
      "stateMutability": "nonpayable",
      "type": "function"
    },
    {
      "inputs": [
        {
          "internalType": "address",
          "name": "recipient",
          "type": "address"
        }
      ],
      "name": "_signalTransfer",
      "outputs": [
        {
          "internalType": "uint256",
          "name": "",
          "type": "uint256"
        }
      ],
      "stateMutability": "nonpayable",
      "type": "function"
    },
    {
      "inputs": [],
      "name": "accrualBlockNumber",
      "outputs": [
        {
          "internalType": "uint256",
          "name": "",
          "type": "uint256"
        }
      ],
      "stateMutability": "view",
      "type": "function"
    },
    {
      "inputs": [],
      "name": "accrueInterest",
      "outputs": [
        {
          "internalType": "uint256",
          "name": "",
          "type": "uint256"
        }
      ],
      "stateMutability": "nonpayable",
      "type": "function"
    },
    {
      "inputs": [],
      "name": "admin",
      "outputs": [
        {
          "internalType": "address payable",
          "name": "",
          "type": "address"
        }
      ],
      "stateMutability": "view",
      "type": "function"
    },
    {
      "inputs": [
        {
          "internalType": "address",
          "name": "owner",
          "type": "address"
        },
        {
          "internalType": "address",
          "name": "spender",
          "type": "address"
        }
      ],
      "name": "allowance",
      "outputs": [
        {
          "internalType": "uint256",
          "name": "",
          "type": "uint256"
        }
      ],
      "stateMutability": "view",
      "type": "function"
    },
    {
      "inputs": [
        {
          "internalType": "address",
          "name": "spender",
          "type": "address"
        },
        {
          "internalType": "uint256",
          "name": "amount",
          "type": "uint256"
        }
      ],
      "name": "approve",
      "outputs": [
        {
          "internalType": "bool",
          "name": "",
          "type": "bool"
        }
      ],
      "stateMutability": "nonpayable",
      "type": "function"
    },
    {
      "inputs": [],
      "name": "autocompound",
      "outputs": [
        {
          "internalType": "bool",
          "name": "",
          "type": "bool"
        }
      ],
      "stateMutability": "view",
      "type": "function"
    },
    {
      "inputs": [
        {
          "internalType": "address",
          "name": "owner",
          "type": "address"
        }
      ],
      "name": "balanceOf",
      "outputs": [
        {
          "internalType": "uint256",
          "name": "",
          "type": "uint256"
        }
      ],
      "stateMutability": "view",
      "type": "function"
    },
    {
      "inputs": [
        {
          "internalType": "address",
          "name": "owner",
          "type": "address"
        }
      ],
      "name": "balanceOfUnderlying",
      "outputs": [
        {
          "internalType": "uint256",
          "name": "",
          "type": "uint256"
        }
      ],
      "stateMutability": "nonpayable",
      "type": "function"
    },
    {
      "inputs": [
        {
          "internalType": "uint256",
          "name": "borrowAmount",
          "type": "uint256"
        }
      ],
      "name": "borrow",
      "outputs": [
        {
          "internalType": "uint256",
          "name": "",
          "type": "uint256"
        }
      ],
      "stateMutability": "nonpayable",
      "type": "function"
    },
    {
      "inputs": [
        {
          "internalType": "address",
          "name": "account",
          "type": "address"
        }
      ],
      "name": "borrowBalanceCurrent",
      "outputs": [
        {
          "internalType": "uint256",
          "name": "",
          "type": "uint256"
        }
      ],
      "stateMutability": "nonpayable",
      "type": "function"
    },
    {
      "inputs": [
        {
          "internalType": "address",
          "name": "account",
          "type": "address"
        }
      ],
      "name": "borrowBalanceStored",
      "outputs": [
        {
          "internalType": "uint256",
          "name": "",
          "type": "uint256"
        }
      ],
      "stateMutability": "view",
      "type": "function"
    },
    {
      "inputs": [],
      "name": "borrowIndex",
      "outputs": [
        {
          "internalType": "uint256",
          "name": "",
          "type": "uint256"
        }
      ],
      "stateMutability": "view",
      "type": "function"
    },
    {
      "inputs": [],
      "name": "borrowRatePerBlock",
      "outputs": [
        {
          "internalType": "uint256",
          "name": "",
          "type": "uint256"
        }
      ],
      "stateMutability": "view",
      "type": "function"
    },
    {
      "inputs": [],
      "name": "comptroller",
      "outputs": [
        {
          "internalType": "contract ComptrollerInterface",
          "name": "",
          "type": "address"
        }
      ],
      "stateMutability": "view",
      "type": "function"
    },
    {
      "inputs": [],
      "name": "decimals",
      "outputs": [
        {
          "internalType": "uint8",
          "name": "",
          "type": "uint8"
        }
      ],
      "stateMutability": "view",
      "type": "function"
    },
    {
      "inputs": [
        {
          "internalType": "address",
          "name": "_NFTAddress",
          "type": "address"
        },
        {
          "internalType": "uint256",
          "name": "_TokenID",
          "type": "uint256"
        }
      ],
      "name": "depositNFT",
      "outputs": [],
      "stateMutability": "nonpayable",
      "type": "function"
    },
    {
      "inputs": [],
      "name": "exchangeRateCurrent",
      "outputs": [
        {
          "internalType": "uint256",
          "name": "",
          "type": "uint256"
        }
      ],
      "stateMutability": "nonpayable",
      "type": "function"
    },
    {
      "inputs": [],
      "name": "exchangeRateStored",
      "outputs": [
        {
          "internalType": "uint256",
          "name": "",
          "type": "uint256"
        }
      ],
      "stateMutability": "view",
      "type": "function"
    },
    {
      "inputs": [
        {
          "internalType": "address",
          "name": "account",
          "type": "address"
        }
      ],
      "name": "getAccountSnapshot",
      "outputs": [
        {
          "internalType": "uint256",
          "name": "",
          "type": "uint256"
        },
        {
          "internalType": "uint256",
          "name": "",
          "type": "uint256"
        },
        {
          "internalType": "uint256",
          "name": "",
          "type": "uint256"
        },
        {
          "internalType": "uint256",
          "name": "",
          "type": "uint256"
        }
      ],
      "stateMutability": "view",
      "type": "function"
    },
    {
      "inputs": [],
      "name": "getCash",
      "outputs": [
        {
          "internalType": "uint256",
          "name": "",
          "type": "uint256"
        }
      ],
      "stateMutability": "view",
      "type": "function"
    },
    {
      "inputs": [],
      "name": "glpManager",
      "outputs": [
        {
          "internalType": "address",
          "name": "",
          "type": "address"
        }
      ],
      "stateMutability": "view",
      "type": "function"
    },
    {
      "inputs": [],
      "name": "glpRewardRouter",
      "outputs": [
        {
          "internalType": "contract IGmxRewardRouter",
          "name": "",
          "type": "address"
        }
      ],
      "stateMutability": "view",
      "type": "function"
    },
    {
      "inputs": [],
      "name": "gmxToken",
      "outputs": [
        {
          "internalType": "address",
          "name": "",
          "type": "address"
        }
      ],
      "stateMutability": "view",
      "type": "function"
    },
    {
      "inputs": [
        {
          "internalType": "address",
          "name": "underlying_",
          "type": "address"
        },
        {
          "internalType": "contract ComptrollerInterface",
          "name": "comptroller_",
          "type": "address"
        },
        {
          "internalType": "contract InterestRateModel",
          "name": "interestRateModel_",
          "type": "address"
        },
        {
          "internalType": "uint256",
          "name": "initialExchangeRateMantissa_",
          "type": "uint256"
        },
        {
          "internalType": "string",
          "name": "name_",
          "type": "string"
        },
        {
          "internalType": "string",
          "name": "symbol_",
          "type": "string"
        },
        {
          "internalType": "uint8",
          "name": "decimals_",
          "type": "uint8"
        }
      ],
      "name": "initialize",
      "outputs": [],
      "stateMutability": "nonpayable",
      "type": "function"
    },
    {
      "inputs": [
        {
          "internalType": "contract ComptrollerInterface",
          "name": "comptroller_",
          "type": "address"
        },
        {
          "internalType": "contract InterestRateModel",
          "name": "interestRateModel_",
          "type": "address"
        },
        {
          "internalType": "uint256",
          "name": "initialExchangeRateMantissa_",
          "type": "uint256"
        },
        {
          "internalType": "string",
          "name": "name_",
          "type": "string"
        },
        {
          "internalType": "string",
          "name": "symbol_",
          "type": "string"
        },
        {
          "internalType": "uint8",
          "name": "decimals_",
          "type": "uint8"
        }
      ],
      "name": "initialize",
      "outputs": [],
      "stateMutability": "nonpayable",
      "type": "function"
    },
    {
      "inputs": [],
      "name": "interestRateModel",
      "outputs": [
        {
          "internalType": "contract InterestRateModel",
          "name": "",
          "type": "address"
        }
      ],
      "stateMutability": "view",
      "type": "function"
    },
    {
      "inputs": [],
      "name": "isCToken",
      "outputs": [
        {
          "internalType": "bool",
          "name": "",
          "type": "bool"
        }
      ],
      "stateMutability": "view",
      "type": "function"
    },
    {
      "inputs": [],
      "name": "isGLP",
      "outputs": [
        {
          "internalType": "bool",
          "name": "",
          "type": "bool"
        }
      ],
      "stateMutability": "view",
      "type": "function"
    },
    {
      "inputs": [
        {
          "internalType": "address",
          "name": "borrower",
          "type": "address"
        },
        {
          "internalType": "uint256",
          "name": "repayAmount",
          "type": "uint256"
        },
        {
          "internalType": "contract CTokenInterface",
          "name": "cTokenCollateral",
          "type": "address"
        }
      ],
      "name": "liquidateBorrow",
      "outputs": [
        {
          "internalType": "uint256",
          "name": "",
          "type": "uint256"
        }
      ],
      "stateMutability": "nonpayable",
      "type": "function"
    },
    {
      "inputs": [
        {
          "internalType": "uint256",
          "name": "mintAmount",
          "type": "uint256"
        }
      ],
      "name": "mint",
      "outputs": [
        {
          "internalType": "uint256",
          "name": "",
          "type": "uint256"
        }
      ],
      "stateMutability": "nonpayable",
      "type": "function"
    },
    {
      "inputs": [],
      "name": "name",
      "outputs": [
        {
          "internalType": "string",
          "name": "",
          "type": "string"
        }
      ],
      "stateMutability": "view",
      "type": "function"
    },
    {
      "inputs": [
        {
          "internalType": "address",
          "name": "",
          "type": "address"
        },
        {
          "internalType": "address",
          "name": "",
          "type": "address"
        },
        {
          "internalType": "uint256",
          "name": "",
          "type": "uint256"
        },
        {
          "internalType": "bytes",
          "name": "",
          "type": "bytes"
        }
      ],
      "name": "onERC721Received",
      "outputs": [
        {
          "internalType": "bytes4",
          "name": "",
          "type": "bytes4"
        }
      ],
      "stateMutability": "nonpayable",
      "type": "function"
    },
    {
      "inputs": [],
      "name": "pendingAdmin",
      "outputs": [
        {
          "internalType": "address payable",
          "name": "",
          "type": "address"
        }
      ],
      "stateMutability": "view",
      "type": "function"
    },
    {
      "inputs": [],
      "name": "poolFee",
      "outputs": [
        {
          "internalType": "uint24",
          "name": "",
          "type": "uint24"
        }
      ],
      "stateMutability": "view",
      "type": "function"
    },
    {
      "inputs": [],
      "name": "protocolSeizeShareMantissa",
      "outputs": [
        {
          "internalType": "uint256",
          "name": "",
          "type": "uint256"
        }
      ],
      "stateMutability": "view",
      "type": "function"
    },
    {
      "inputs": [
        {
          "internalType": "uint256",
          "name": "redeemTokens",
          "type": "uint256"
        }
      ],
      "name": "redeem",
      "outputs": [
        {
          "internalType": "uint256",
          "name": "",
          "type": "uint256"
        }
      ],
      "stateMutability": "nonpayable",
      "type": "function"
    },
    {
      "inputs": [
        {
          "internalType": "uint256",
          "name": "redeemAmount",
          "type": "uint256"
        }
      ],
      "name": "redeemUnderlying",
      "outputs": [
        {
          "internalType": "uint256",
          "name": "",
          "type": "uint256"
        }
      ],
      "stateMutability": "nonpayable",
      "type": "function"
    },
    {
      "inputs": [
        {
          "internalType": "uint256",
          "name": "repayAmount",
          "type": "uint256"
        }
      ],
      "name": "repayBorrow",
      "outputs": [
        {
          "internalType": "uint256",
          "name": "",
          "type": "uint256"
        }
      ],
      "stateMutability": "nonpayable",
      "type": "function"
    },
    {
      "inputs": [
        {
          "internalType": "address",
          "name": "borrower",
          "type": "address"
        },
        {
          "internalType": "uint256",
          "name": "repayAmount",
          "type": "uint256"
        }
      ],
      "name": "repayBorrowBehalf",
      "outputs": [
        {
          "internalType": "uint256",
          "name": "",
          "type": "uint256"
        }
      ],
      "stateMutability": "nonpayable",
      "type": "function"
    },
    {
      "inputs": [],
      "name": "reserveFactorMantissa",
      "outputs": [
        {
          "internalType": "uint256",
          "name": "",
          "type": "uint256"
        }
      ],
      "stateMutability": "view",
      "type": "function"
    },
    {
      "inputs": [],
      "name": "sbfGMX",
      "outputs": [
        {
          "internalType": "address",
          "name": "",
          "type": "address"
        }
      ],
      "stateMutability": "view",
      "type": "function"
    },
    {
      "inputs": [
        {
          "internalType": "address",
          "name": "liquidator",
          "type": "address"
        },
        {
          "internalType": "address",
          "name": "borrower",
          "type": "address"
        },
        {
          "internalType": "uint256",
          "name": "seizeTokens",
          "type": "uint256"
        }
      ],
      "name": "seize",
      "outputs": [
        {
          "internalType": "uint256",
          "name": "",
          "type": "uint256"
        }
      ],
      "stateMutability": "nonpayable",
      "type": "function"
    },
    {
      "inputs": [],
      "name": "stakedGLP",
      "outputs": [
        {
          "internalType": "contract IStakedGlp",
          "name": "",
          "type": "address"
        }
      ],
      "stateMutability": "view",
      "type": "function"
    },
    {
      "inputs": [],
      "name": "stakedGmxTracker",
      "outputs": [
        {
          "internalType": "contract IRewardTracker",
          "name": "",
          "type": "address"
        }
      ],
      "stateMutability": "view",
      "type": "function"
    },
    {
      "inputs": [],
      "name": "supplyRatePerBlock",
      "outputs": [
        {
          "internalType": "uint256",
          "name": "",
          "type": "uint256"
        }
      ],
      "stateMutability": "view",
      "type": "function"
    },
    {
      "inputs": [],
      "name": "swapRouter",
      "outputs": [
        {
          "internalType": "contract ISwapRouter",
          "name": "",
          "type": "address"
        }
      ],
      "stateMutability": "view",
      "type": "function"
    },
    {
      "inputs": [
        {
          "internalType": "contract EIP20NonStandardInterface",
          "name": "token",
          "type": "address"
        }
      ],
      "name": "sweepToken",
      "outputs": [],
      "stateMutability": "nonpayable",
      "type": "function"
    },
    {
      "inputs": [],
      "name": "symbol",
      "outputs": [
        {
          "internalType": "string",
          "name": "",
          "type": "string"
        }
      ],
      "stateMutability": "view",
      "type": "function"
    },
    {
      "inputs": [
        {
          "internalType": "address",
          "name": "underlying_",
          "type": "address"
        },
        {
          "internalType": "contract ComptrollerInterface",
          "name": "comptroller_",
          "type": "address"
        },
        {
          "internalType": "contract InterestRateModel",
          "name": "interestRateModel_",
          "type": "address"
        },
        {
          "internalType": "uint256",
          "name": "initialExchangeRateMantissa_",
          "type": "uint256"
        },
        {
          "internalType": "string",
          "name": "name_",
          "type": "string"
        },
        {
          "internalType": "string",
          "name": "symbol_",
          "type": "string"
        },
        {
          "internalType": "uint8",
          "name": "decimals_",
          "type": "uint8"
        }
      ],
      "name": "tinit",
      "outputs": [],
      "stateMutability": "nonpayable",
      "type": "function"
    },
    {
      "inputs": [],
      "name": "totalBorrows",
      "outputs": [
        {
          "internalType": "uint256",
          "name": "",
          "type": "uint256"
        }
      ],
      "stateMutability": "view",
      "type": "function"
    },
    {
      "inputs": [],
      "name": "totalBorrowsCurrent",
      "outputs": [
        {
          "internalType": "uint256",
          "name": "",
          "type": "uint256"
        }
      ],
      "stateMutability": "nonpayable",
      "type": "function"
    },
    {
      "inputs": [],
      "name": "totalReserves",
      "outputs": [
        {
          "internalType": "uint256",
          "name": "",
          "type": "uint256"
        }
      ],
      "stateMutability": "view",
      "type": "function"
    },
    {
      "inputs": [],
      "name": "totalSupply",
      "outputs": [
        {
          "internalType": "uint256",
          "name": "",
          "type": "uint256"
        }
      ],
      "stateMutability": "view",
      "type": "function"
    },
    {
      "inputs": [
        {
          "internalType": "address",
          "name": "dst",
          "type": "address"
        },
        {
          "internalType": "uint256",
          "name": "amount",
          "type": "uint256"
        }
      ],
      "name": "transfer",
      "outputs": [
        {
          "internalType": "bool",
          "name": "",
          "type": "bool"
        }
      ],
      "stateMutability": "nonpayable",
      "type": "function"
    },
    {
      "inputs": [
        {
          "internalType": "address",
          "name": "src",
          "type": "address"
        },
        {
          "internalType": "address",
          "name": "dst",
          "type": "address"
        },
        {
          "internalType": "uint256",
          "name": "amount",
          "type": "uint256"
        }
      ],
      "name": "transferFrom",
      "outputs": [
        {
          "internalType": "bool",
          "name": "",
          "type": "bool"
        }
      ],
      "stateMutability": "nonpayable",
      "type": "function"
    },
    {
      "inputs": [],
      "name": "underlying",
      "outputs": [
        {
          "internalType": "address",
          "name": "",
          "type": "address"
        }
      ],
      "stateMutability": "view",
      "type": "function"
    },
    {
      "inputs": [
        {
          "internalType": "address",
          "name": "_NFTAddress",
          "type": "address"
        },
        {
          "internalType": "uint256",
          "name": "_TokenID",
          "type": "uint256"
        }
      ],
      "name": "withdrawNFT",
      "outputs": [],
      "stateMutability": "nonpayable",
      "type": "function"
    }
  ],
  "bytecode": "0x60c06040526000805476a906f338cb21815cbc4bc87ace9e68c87ef8d8f10000006301000000600160b81b0319909116179055600180546001600160a01b0319908116732f546ad4edd93b956c8999be404cdcafde3e89ae1790915560028054821673fc5a1a6eb076a2c7ad06ed22c90d7e710e35ad0a17905560038054821673908c4d94d34924765f1edc22a1dd098397c59dd417905560048054821673d2d1162512f927a7e282ef43a362659e4f2a728f1790557382af49447d8a07e3bd95bd0d56f35241523fbab16080526005805490911673321f653eed006ad1c29d174e17d96351bde226491790557368b3465833fb72a70ecdf485e0e4c7bd8665fc4560a05234801561011057600080fd5b5060805160a05161480a6101606000396000818161087201528181612880015261296c0152600081816107dc0152818161195101528181611d160152818161285f01526128ba015261480a6000f3fe608060405234801561001057600080fd5b50600436106104285760003560e01c80637f1e06be1161022b578063bae49e9911610130578063f2b3abbd116100b8578063f8f9da2811610087578063f8f9da281461097f578063fa6db1bc14610987578063fca7820b1461099a578063fe9c44ae146109ad578063ff5a3764146109b557600080fd5b8063f2b3abbd1461092e578063f3fdb15a14610941578063f5e3c46214610954578063f851a4401461096757600080fd5b8063c37f68e2116100ff578063c37f68e214610894578063c5ebeaec146108c7578063db006a75146108da578063dd62ed3e146108ed578063e9c714f21461092657600080fd5b8063bae49e991461083f578063bc3b7a1814610852578063bd6d894d14610865578063c31c9c071461086d57600080fd5b8063a0712d68116101b3578063ad5c464811610182578063ad5c4648146107d7578063adbf8571146107fe578063ae9d70b014610811578063b2a02ff114610819578063b71d1a0c1461082c57600080fd5b8063a0712d68146107a0578063a6afed95146107b3578063a9059cbb146107bb578063aa5af0fd146107ce57600080fd5b80638f840ddd116101fa5780638f840ddd1461075657806395d89b411461075f57806395dd91931461076757806399d8c1b41461077a5780639b5b9b181461078d57600080fd5b80637f1e06be1461070b578063842e11eb1461071e578063852a12e3146107305780638f62cc371461074357600080fd5b806336818b0111610331578063601a0bf1116102b957806369ab32501161028857806369ab3250146106b65780636c540baf146106be5780636f307dc3146106c757806370a08231146106da57806373acee981461070357600080fd5b8063601a0bf1146106685780636088e93a1461067b5780636752e7021461068e578063686722311461069c57600080fd5b80633f7a37d3116103005780633f7a37d3146106135780634576b5db1461062657806347bd3718146106395780635b30cf55146106425780635fe3b5671461065557600080fd5b806336818b01146105d25780633af9e669146105e55780633b1d21a2146105f85780633e9410101461060057600080fd5b806318160ddd116103b457806323b872dd1161038357806323b872dd146105675780632608f8181461057a578063267822471461058d57806326d9687c146105a0578063313ce567146105b357600080fd5b806318160ddd1461052e578063182df0f5146105375780631a31d4651461053f5780631be195601461055457600080fd5b80630ce4018a116103fb5780630ce4018a146104b25780630e752702146104c5578063150b7a02146104e6578063173b99041461051257806317bfdfbc1461051b57600080fd5b806306dd74e51461042d57806306fdde031461045d578063089fe6aa14610472578063095ea7b31461048f575b600080fd5b600454610440906001600160a01b031681565b6040516001600160a01b0390911681526020015b60405180910390f35b6104656109c8565b60405161045491906141d0565b61047b610bb881565b60405162ffffff9091168152602001610454565b6104a261049d36600461421b565b610a56565b6040519015158152602001610454565b600354610440906001600160a01b031681565b6104d86104d3366004614247565b610ac4565b604051908152602001610454565b6104f96104f4366004614260565b610ad7565b6040516001600160e01b03199091168152602001610454565b6104d8600d5481565b6104d86105293660046142ff565b610b50565b6104d860125481565b6104d8610ba3565b61055261054d3660046143d5565b610bb2565b005b6105526105623660046142ff565b610c47565b6104a261057536600461448b565b610e14565b6104d861058836600461421b565b610e64565b600954610440906001600160a01b031681565b6000546104a29062010000900460ff1681565b6008546105c09060ff1681565b60405160ff9091168152602001610454565b6104d86105e03660046142ff565b610e79565b6104d86105f33660046142ff565b610f28565b6104d8610f6e565b6104d861060e366004614247565b610f78565b6104d86106213660046142ff565b610f89565b6104d86106343660046142ff565b610fe2565b6104d860105481565b600154610440906001600160a01b031681565b600a54610440906001600160a01b031681565b6104d8610676366004614247565b611134565b61055261068936600461421b565b611173565b6104d8666379da05b6000081565b60005461044090630100000090046001600160a01b031681565b6104d8600081565b6104d8600e5481565b601654610440906001600160a01b031681565b6104d86106e83660046142ff565b6001600160a01b031660009081526013602052604090205490565b6104d861120b565b6105526107193660046142ff565b611255565b6000546104a290610100900460ff1681565b6104d861073e366004614247565b61132c565b6105526107513660046143d5565b611337565b6104d860115481565b6104656113ba565b6104d86107753660046142ff565b6113c7565b6105526107883660046144cc565b6113d2565b61055261079b36600461421b565b61162d565b6104d86107ae366004614247565b6116bc565b6104d86116fd565b6104a26107c936600461421b565b611a9d565b6104d8600f5481565b6104407f000000000000000000000000000000000000000000000000000000000000000081565b6104d861080c3660046142ff565b611aec565b6104d8611b45565b6104d861082736600461448b565b611bdd565b6104d861083a3660046142ff565b611c2c565b600254610440906001600160a01b031681565b6104d861086036600461457c565b611cb9565b6104d8611da4565b6104407f000000000000000000000000000000000000000000000000000000000000000081565b6108a76108a23660046142ff565b611df4565b604080519485526020850193909352918301526060820152608001610454565b6104d86108d5366004614247565b611e35565b6104d86108e8366004614247565b611e40565b6104d86108fb366004614599565b6001600160a01b03918216600090815260146020908152604080832093909416825291909152205490565b6104d8611e4b565b6104d861093c3660046142ff565b611f52565b600b54610440906001600160a01b031681565b6104d86109623660046145d2565b611f66565b6008546104409061010090046001600160a01b031681565b6104d8611f7d565b600554610440906001600160a01b031681565b6104d86109a8366004614247565b611fd0565b6104a2600181565b6104d86109c33660046142ff565b61200f565b600680546109d590614614565b80601f0160208091040260200160405190810160405280929190818152602001828054610a0190614614565b8015610a4e5780601f10610a2357610100808354040283529160200191610a4e565b820191906000526020600020905b815481529060010190602001808311610a3157829003601f168201915b505050505081565b3360008181526014602090815260408083206001600160a01b03871680855292528083208590555191929182907f8c5be1e5ebec7d5bd14f71427d1e84f3dd0314c0f7b2291e5b200ac8c7c3b92590610ab29087815260200190565b60405180910390a35060019392505050565b6000610acf82612070565b506000919050565b60085460009061010090046001600160a01b03163214610b3e5760405162461bcd60e51b815260206004820152601d60248201527f6f6e6c792061646d696e732063616e206465706f736974204e4654277300000060448201526064015b60405180910390fd5b50630a85bd0160e11b95945050505050565b6000805460ff16610b735760405162461bcd60e51b8152600401610b359061464f565b6000805460ff19169055610b856116fd565b50610b8f826113c7565b90506000805460ff19166001179055919050565b6000610bad6120c1565b905090565b610bc08686868686866113d2565b601680546001600160a01b0319166001600160a01b038916908117909155604080516318160ddd60e01b815290516318160ddd916004808201926020929091908290030181865afa158015610c19573d6000803e3d6000fd5b505050506040513d601f19601f82011682018060405250810190610c3d9190614673565b5050505050505050565b60085461010090046001600160a01b03163314610cbe5760405162461bcd60e51b815260206004820152602f60248201527f4345726332303a3a7377656570546f6b656e3a206f6e6c792061646d696e206360448201526e616e20737765657020746f6b656e7360881b6064820152608401610b35565b6016546001600160a01b0382811691161415610d375760405162461bcd60e51b815260206004820152603260248201527f4345726332303a3a7377656570546f6b656e3a2063616e206e6f74207377656560448201527138103ab73232b9363cb4b733903a37b5b2b760711b6064820152608401610b35565b6040516370a0823160e01b81523060048201526000906001600160a01b038316906370a0823190602401602060405180830381865afa158015610d7e573d6000803e3d6000fd5b505050506040513d601f19601f82011682018060405250810190610da29190614673565b60085460405163a9059cbb60e01b81526001600160a01b03610100909204821660048201526024810183905291925083169063a9059cbb906044015b600060405180830381600087803b158015610df857600080fd5b505af1158015610e0c573d6000803e3d6000fd5b505050505050565b6000805460ff16610e375760405162461bcd60e51b8152600401610b359061464f565b6000805460ff19168155610e4d3386868661212b565b1490506000805460ff191660011790559392505050565b6000610e708383612359565b50600092915050565b60085460009061010090046001600160a01b03163314610eac57604051631f0fa4d560e31b815260040160405180910390fd5b610eb46123ab565b610acf5760005460405163ef9aacfd60e01b81526001600160a01b03848116600483015263010000009092049091169063ef9aacfd906024015b600060405180830381600087803b158015610f0857600080fd5b505af1158015610f1c573d6000803e3d6000fd5b50505050506000919050565b6000806040518060200160405280610f3e611da4565b90526001600160a01b038416600090815260136020526040902054909150610f67908290612425565b9392505050565b6000610bad6123ab565b6000610f8382612445565b92915050565b60085460009061010090046001600160a01b03163314610fbc57604051634cfdce7760e11b815260040160405180910390fd5b50600180546001600160a01b0319166001600160a01b0392909216919091179055600090565b60085460009061010090046001600160a01b031633146110155760405163d219dc1f60e01b815260040160405180910390fd5b600a5460408051623f1ee960e11b815290516001600160a01b0392831692851691627e3dd29160048083019260209291908290030181865afa15801561105f573d6000803e3d6000fd5b505050506040513d601f19601f82011682018060405250810190611083919061468c565b6110cf5760405162461bcd60e51b815260206004820152601c60248201527f6d61726b6572206d6574686f642072657475726e65642066616c7365000000006044820152606401610b35565b600a80546001600160a01b0319166001600160a01b0385811691821790925560408051928416835260208301919091527f7ac369dbd14fa5ea3f473ed67cc9d598964a77501540ba6751eb0b3decf5870d91015b60405180910390a150600092915050565b6000805460ff166111575760405162461bcd60e51b8152600401610b359061464f565b6000805460ff191690556111696116fd565b50610b8f8261249c565b60085461010090046001600160a01b031633146111d25760405162461bcd60e51b815260206004820152601e60248201527f6f6e6c792061646d696e732063616e207769746864726177204e4654277300006044820152606401610b35565b600854604051632142170760e11b81526001600160a01b03808516926342842e0e92610dde9230926101009004169086906004016146a9565b6000805460ff1661122e5760405162461bcd60e51b8152600401610b359061464f565b6000805460ff191690556112406116fd565b50506010546000805460ff1916600117905590565b60085461010090046001600160a01b031633146112ca5760405162461bcd60e51b815260206004820152602d60248201527f6f6e6c79207468652061646d696e206d6179207365742074686520636f6d702d60448201526c6c696b652064656c656761746560981b6064820152608401610b35565b6016546040516317066a5760e21b81526001600160a01b03838116600483015290911690635c19a95c90602401600060405180830381600087803b15801561131157600080fd5b505af1158015611325573d6000803e3d6000fd5b5050505050565b6000610acf826125b7565b60085461010090046001600160a01b0316156113955760405162461bcd60e51b815260206004820152601a60248201527f61646d696e206d6179206f6e6c7920626520736574206f6e63650000000000006044820152606401610b35565b60088054610100600160a81b0319163361010002179055610bc08686868686866113d2565b600780546109d590614614565b6000610f8382612608565b60085461010090046001600160a01b0316331461143d5760405162461bcd60e51b8152602060048201526024808201527f6f6e6c792061646d696e206d617920696e697469616c697a6520746865206d616044820152631c9ad95d60e21b6064820152608401610b35565b600e5415801561144d5750600f54155b6114a55760405162461bcd60e51b815260206004820152602360248201527f6d61726b6574206d6179206f6e6c7920626520696e697469616c697a6564206f6044820152626e636560e81b6064820152608401610b35565b600c849055836115105760405162461bcd60e51b815260206004820152603060248201527f696e697469616c2065786368616e67652072617465206d75737420626520677260448201526f32b0ba32b9103a3430b7103d32b9379760811b6064820152608401610b35565b600061151b87610fe2565b9050801561156b5760405162461bcd60e51b815260206004820152601a60248201527f73657474696e6720636f6d7074726f6c6c6572206661696c65640000000000006044820152606401610b35565b43600e55670de0b6b3a7640000600f5561158486612652565b905080156115df5760405162461bcd60e51b815260206004820152602260248201527f73657474696e6720696e7465726573742072617465206d6f64656c206661696c604482015261195960f21b6064820152608401610b35565b83516115f2906006906020870190614114565b508251611606906007906020860190614114565b50506008805460ff90921660ff199283161790556000805490911660011790555050505050565b60085461010090046001600160a01b0316331461168c5760405162461bcd60e51b815260206004820152601d60248201527f6f6e6c792061646d696e732063616e206465706f736974204e465427730000006044820152606401610b35565b604051632142170760e11b81526001600160a01b038316906342842e0e90610dde903390309086906004016146a9565b60006116c7826127c7565b600a5460405163a86cc91560e01b81523060048201523360248201526001600160a01b039091169063a86cc91590604401610eee565b600e546000904390808214156117165760009250505090565b60006117206123ab565b601054601154600f54600b546040516315f2405360e01b81526004810186905260248101859052604481018490529495509293919290916000916001600160a01b0316906315f2405390606401602060405180830381865afa15801561178a573d6000803e3d6000fd5b505050506040513d601f19601f820116820180604052508101906117ae9190614673565b905065048c273950008111156118065760405162461bcd60e51b815260206004820152601c60248201527f626f72726f772072617465206973206162737572646c792068696768000000006044820152606401610b35565b600061181287896146e3565b9050600061182e60405180602001604052808581525083612806565b9050600061183c8288612425565b9050600061184a88836146fa565b905060006118696040518060200160405280600d54815250848a612837565b9050600061187885898a612837565b600e8e9055600f8190556010849055601183905560125490915015611a41576000805460405163185b800160e11b81526001600482018190526024820181905260448201819052606482018190526084820181905260a482015260c4810192909252630100000090046001600160a01b0316906330b700029060e401600060405180830381600087803b15801561190e57600080fd5b505af1158015611922573d6000803e3d6000fd5b505060005462010000900460ff16159150611a419050576040516370a0823160e01b81523060048201526000907f00000000000000000000000000000000000000000000000000000000000000006001600160a01b0316906370a0823190602401602060405180830381865afa1580156119a0573d6000803e3d6000fd5b505050506040513d601f19601f820116820180604052508101906119c49190614673565b90508015611a3f5760006119d782612858565b600054604051633cf6bab360e21b815260048101839052919250630100000090046001600160a01b03169063f3daeacc90602401600060405180830381600087803b158015611a2557600080fd5b505af1158015611a39573d6000803e3d6000fd5b50505050505b505b604080518c815260208101869052908101829052606081018490527f4dec04e750ca11537cabcd8a9eab06494de08da3735bc8871cd41250e190bc049060800160405180910390a160009d505050505050505050505050505090565b6000805460ff16611ac05760405162461bcd60e51b8152600401610b359061464f565b6000805460ff19168155611ad63380868661212b565b1490506000805460ff1916600117905592915050565b60085460009061010090046001600160a01b03163314611b1f576040516321c2a8f960e21b815260040160405180910390fd5b50600580546001600160a01b0319166001600160a01b0392909216919091179055600090565b600b546000906001600160a01b031663b8168816611b616123ab565b601054601154600d546040516001600160e01b031960e087901b16815260048101949094526024840192909252604483015260648201526084015b602060405180830381865afa158015611bb9573d6000803e3d6000fd5b505050506040513d601f19601f82011682018060405250810190610bad9190614673565b6000805460ff16611c005760405162461bcd60e51b8152600401610b359061464f565b6000805460ff19169055611c16338585856129dc565b50600080805460ff191660011790559392505050565b60085460009061010090046001600160a01b03163314611c5f57604051635cb56c2b60e01b815260040160405180910390fd5b600980546001600160a01b038481166001600160a01b031983168117909355604080519190921680825260208201939093527fca4f2f25d0898edd99413412fb94012f9e54ec8142f9b093e7720646a95b16a99101611123565b60085460009061010090046001600160a01b03163314611cec57604051632663b8db60e01b815260040160405180910390fd5b60055460405163095ea7b360e01b81526001600160a01b03918216600482015260001960248201527f00000000000000000000000000000000000000000000000000000000000000009091169063095ea7b3906044016020604051808303816000875af1158015611d61573d6000803e3d6000fd5b505050506040513d601f19601f82011682018060405250810190611d85919061468c565b505060008054911515620100000262ff00001990921691909117815590565b6000805460ff16611dc75760405162461bcd60e51b8152600401610b359061464f565b6000805460ff19169055611dd96116fd565b50611de2610ba3565b90506000805460ff1916600117905590565b6001600160a01b0381166000908152601360205260408120548190819081908190611e1e87612608565b611e266120c1565b93509350935093509193509193565b6000610acf82612c55565b6000610acf82612c94565b6009546000906001600160a01b031633141580611e66575033155b15611e8457604051631ba24f2960e21b815260040160405180910390fd5b60088054600980546001600160a01b03808216610100818102610100600160a81b0319871617968790556001600160a01b031990931690935560408051948390048216808652929095041660208401529290917ff9ffabca9c8276e99321725bcb43fb076a6c66a54b7f21c4e8146d8519b417dc910160405180910390a1600954604080516001600160a01b03808516825290921660208301527fca4f2f25d0898edd99413412fb94012f9e54ec8142f9b093e7720646a95b16a9910160405180910390a160009250505090565b6000611f5c6116fd565b50610f8382612652565b6000611f73848484612cd5565b5060009392505050565b600b546000906001600160a01b03166315f24053611f996123ab565b6010546011546040516001600160e01b031960e086901b168152600481019390935260248301919091526044820152606401611b9c565b6000805460ff16611ff35760405162461bcd60e51b8152600401610b359061464f565b6000805460ff191690556120056116fd565b50610b8f82612db3565b60085460009061010090046001600160a01b03163314612042576040516308d5a31960e21b815260040160405180910390fd5b50600080546001600160a01b039092166301000000026301000000600160b81b031990921691909117815590565b60005460ff166120925760405162461bcd60e51b8152600401610b359061464f565b6000805460ff191690556120a46116fd565b506120b0333383612e6f565b50506000805460ff19166001179055565b601254600090806120d4575050600c5490565b60006120de6123ab565b90506000601154601054836120f391906146fa565b6120fd91906146e3565b9050600083612114670de0b6b3a764000084614712565b61211e9190614731565b95945050505050565b5090565b600a546040516317b9b84b60e31b81523060048201526001600160a01b038581166024830152848116604483015260648201849052600092839291169063bdcdc258906084016020604051808303816000875af1158015612190573d6000803e3d6000fd5b505050506040513d601f19601f820116820180604052508101906121b49190614673565b905080156121d85760405163089d427760e11b815260048101829052602401610b35565b836001600160a01b0316856001600160a01b0316141561220b57604051638cd22d1960e01b815260040160405180910390fd5b6000856001600160a01b0316876001600160a01b031614156122305750600019612258565b506001600160a01b038086166000908152601460209081526040808320938a16835292905220545b600061226485836146e3565b6001600160a01b0388166000908152601360205260408120549192509061228c9087906146e3565b6001600160a01b038816600090815260136020526040812054919250906122b49088906146fa565b6001600160a01b03808b16600090815260136020526040808220869055918b168152208190559050600019841461230e576001600160a01b03808a166000908152601460209081526040808320938e168352929052208390555b876001600160a01b0316896001600160a01b03166000805160206147b58339815191528960405161234191815260200190565b60405180910390a35060009998505050505050505050565b60005460ff1661237b5760405162461bcd60e51b8152600401610b359061464f565b6000805460ff1916905561238d6116fd565b50612399338383612e6f565b50506000805460ff1916600117905550565b600354601654604051637aeceb1f60e11b81523060048201526001600160a01b0391821660248201526000928392169063f5d9d63e90604401602060405180830381865afa158015612401573d6000803e3d6000fd5b505050506040513d601f19601f82011682018060405250810190610f839190614673565b6000806124328484612806565b905061243d81613018565b949350505050565b6000805460ff166124685760405162461bcd60e51b8152600401610b359061464f565b6000805460ff1916905561247a6116fd565b5061248482613030565b5050600090506000805460ff19166001179055919050565b600854600090819061010090046001600160a01b031633146124d157604051630f7e5e6d60e41b815260040160405180910390fd5b43600e54146124f357604051630dff50cb60e41b815260040160405180910390fd5b826124fc6123ab565b101561251b57604051633345e99960e01b815260040160405180910390fd5b60115483111561253e576040516378d2980560e11b815260040160405180910390fd5b8260115461254c91906146e3565b601181905560085490915061256f9061010090046001600160a01b0316846130c4565b7f3bad0c59cf2f06e7314077049f48a93578cd16f5ef92329f1dab1420a99c177e600860019054906101000a90046001600160a01b0316848360405161112393929190614753565b60005460ff166125d95760405162461bcd60e51b8152600401610b359061464f565b6000805460ff191690556125eb6116fd565b506125f833600083613215565b506000805460ff19166001179055565b6001600160a01b0381166000908152601560205260408120805461262f5750600092915050565b600f54815460009161264091614712565b905081600101548161243d9190614731565b600854600090819061010090046001600160a01b031633146126875760405163407fded560e01b815260040160405180910390fd5b43600e54146126a957604051630be2a5cb60e11b815260040160405180910390fd5b600b60009054906101000a90046001600160a01b03169050826001600160a01b0316632191f92a6040518163ffffffff1660e01b8152600401602060405180830381865afa1580156126ff573d6000803e3d6000fd5b505050506040513d601f19601f82011682018060405250810190612723919061468c565b61276f5760405162461bcd60e51b815260206004820152601c60248201527f6d61726b6572206d6574686f642072657475726e65642066616c7365000000006044820152606401610b35565b600b80546001600160a01b0319166001600160a01b0385811691821790925560408051928416835260208301919091527fedffc32e068c7c95dfd4bdfd5c4d939a084d6b11c4199eac8436ed234d72f9269101611123565b60005460ff166127e95760405162461bcd60e51b8152600401610b359061464f565b6000805460ff191690556127fb6116fd565b506125f833826134f2565b604080516020810190915260008152604051806020016040528061282e8560000151856136a8565b90529392505050565b6000806128448585612806565b905061211e61285282613018565b846136b4565b60006128a57f00000000000000000000000000000000000000000000000000000000000000007f0000000000000000000000000000000000000000000000000000000000000000846136c0565b60408051610100810182526001600160a01b037f000000000000000000000000000000000000000000000000000000000000000081168252600254811660208301908152610bb88385019081523360608501908152426080860190815260a08601898152600060c0880181815260e08901918252985163414bf38960e01b8152885188166004820152955187166024870152935162ffffff1660448601529151851660648501525160848401525160a4830152935160c48201529251811660e484015290917f00000000000000000000000000000000000000000000000000000000000000009091169063414bf38990610104016020604051808303816000875af11580156129b8573d6000803e3d6000fd5b505050506040513d601f19601f82011682018060405250810190610f679190614673565b600a5460405163d02f735160e01b81523060048201526001600160a01b0386811660248301528581166044830152848116606483015260848201849052600092169063d02f73519060a4016020604051808303816000875af1158015612a46573d6000803e3d6000fd5b505050506040513d601f19601f82011682018060405250810190612a6a9190614673565b90508015612a8e576040516363e00e3360e11b815260048101829052602401610b35565b836001600160a01b0316836001600160a01b03161415612ac157604051633a94626760e11b815260040160405180910390fd5b6000612ae2836040518060200160405280666379da05b600008152506137b9565b90506000612af082856146e3565b905060006040518060200160405280612b076120c1565b905290506000612b178285612425565b9050600081601154612b2991906146fa565b6011819055601254909150612b3f9086906146e3565b6012556001600160a01b038816600090815260136020526040902054612b669088906146e3565b6001600160a01b03808a1660009081526013602052604080822093909355908b1681522054612b969085906146fa565b6001600160a01b03808b1660008181526013602052604090819020939093559151908a16906000805160206147b583398151915290612bd89088815260200190565b60405180910390a360405185815230906001600160a01b038a16906000805160206147b58339815191529060200160405180910390a37fa91e67c5ea634cd43a12c5a482724b03de01e85ca68702a53d0c2f45cb7c1dc5308383604051612c4193929190614753565b60405180910390a150505050505050505050565b60005460ff16612c775760405162461bcd60e51b8152600401610b359061464f565b6000805460ff19169055612c896116fd565b506125f833826137dc565b60005460ff16612cb65760405162461bcd60e51b8152600401610b359061464f565b6000805460ff19169055612cc86116fd565b506125f833826000613215565b60005460ff16612cf75760405162461bcd60e51b8152600401610b359061464f565b6000805460ff19169055612d096116fd565b506000816001600160a01b031663a6afed956040518163ffffffff1660e01b81526004016020604051808303816000875af1158015612d4c573d6000803e3d6000fd5b505050506040513d601f19601f82011682018060405250810190612d709190614673565b90508015612d9457604051633eea49b760e11b815260048101829052602401610b35565b612da03385858561397b565b50506000805460ff191660011790555050565b60085460009061010090046001600160a01b03163314612de657604051631205b57b60e11b815260040160405180910390fd5b43600e5414612e0857604051637dfca6b760e11b815260040160405180910390fd5b670de0b6b3a7640000821115612e315760405163717220f360e11b815260040160405180910390fd5b600d80549083905560408051828152602081018590527faaa68312e2ea9d50e16af5068410ab56e1a1fd06037b1a35664812c30f8214609101611123565b600a54604051631200453160e11b81523060048201526001600160a01b03858116602483015284811660448301526064820184905260009283929116906324008a62906084016020604051808303816000875af1158015612ed4573d6000803e3d6000fd5b505050506040513d601f19601f82011682018060405250810190612ef89190614673565b90508015612f1c57604051638c81362d60e01b815260048101829052602401610b35565b43600e5414612f3e5760405163c9021e2f60e01b815260040160405180910390fd5b6000612f4985612608565b905060006000198514612f5c5784612f5e565b815b90506000612f6c8883613e35565b90506000612f7a82856146e3565b9050600082601054612f8c91906146e3565b6001600160a01b038a8116600081815260156020908152604091829020878155600f5460019091015560108590558151938f168452830191909152810185905260608101849052608081018290529091507f1a2a22cb034d26d1854bdc6666a5b91fe25efbbb5dcad3b0355478d6f5c362a19060a00160405180910390a1509098975050505050505050565b8051600090610f8390670de0b6b3a764000090614731565b600080808043600e541461305a576040516338acf79960e01b815260048101829052602401610b35565b6130643386613e35565b90508060115461307491906146fa565b9150816011819055507fa91e67c5ea634cd43a12c5a482724b03de01e85ca68702a53d0c2f45cb7c1dc53382846040516130b093929190614753565b60405180910390a160009590945092505050565b6016546000546040516303c2c06960e11b8152600481018490526001600160a01b039283169263010000009092049091169063078580d290602401600060405180830381600087803b15801561311957600080fd5b505af115801561312d573d6000803e3d6000fd5b505060405163a9059cbb60e01b81526001600160a01b038681166004830152602482018690528416925063a9059cbb9150604401600060405180830381600087803b15801561317b57600080fd5b505af115801561318f573d6000803e3d6000fd5b5050505060003d600081146131ab57602081146131b557600080fd5b60001991506131c1565b60206000803e60005191505b508061320f5760405162461bcd60e51b815260206004820152601960248201527f544f4b454e5f5452414e534645525f4f55545f4641494c4544000000000000006044820152606401610b35565b50505050565b811580613220575080155b6132895760405162461bcd60e51b815260206004820152603460248201527f6f6e65206f662072656465656d546f6b656e73496e206f722072656465656d416044820152736d6f756e74496e206d757374206265207a65726f60601b6064820152608401610b35565b6000604051806020016040528061329e6120c1565b9052905060008084156132bf578491506132b88386612425565b90506132cf565b6132c984846140ef565b91508390505b600a5460405163eabe7d9160e01b81526000916001600160a01b03169063eabe7d91906133049030908b9088906004016146a9565b6020604051808303816000875af1158015613323573d6000803e3d6000fd5b505050506040513d601f19601f820116820180604052508101906133479190614673565b9050801561336b5760405163480f424760e01b815260048101829052602401610b35565b43600e541461338d576040516397b5cfcd60e01b815260040160405180910390fd5b816133966123ab565b10156133b5576040516391240a1b60e01b815260040160405180910390fd5b826012546133c391906146e3565b6012556001600160a01b0387166000908152601360205260409020546133ea9084906146e3565b6001600160a01b03881660009081526013602052604090205561340d87836130c4565b60405183815230906001600160a01b038916906000805160206147b58339815191529060200160405180910390a37fe5b754fb1abb7f01b499791d0b820ae3b6af3424ac1c59768edb53f4ec31a92987838560405161346e93929190614753565b60405180910390a1600a546040516351dff98960e01b81523060048201526001600160a01b0389811660248301526044820185905260648201869052909116906351dff98990608401600060405180830381600087803b1580156134d157600080fd5b505af11580156134e5573d6000803e3d6000fd5b5050505050505050505050565b600a54604051634ef4c3e160e01b81526000916001600160a01b031690634ef4c3e190613527903090879087906004016146a9565b6020604051808303816000875af1158015613546573d6000803e3d6000fd5b505050506040513d601f19601f8201168201806040525081019061356a9190614673565b9050801561358e576040516349abd4fd60e01b815260048101829052602401610b35565b43600e54146135b0576040516338d8859760e01b815260040160405180910390fd5b600060405180602001604052806135c56120c1565b9052905060006135d58585613e35565b905060006135e382846140ef565b9050806012546135f391906146fa565b6012556001600160a01b03861660009081526013602052604090205461361a9082906146fa565b6001600160a01b0387166000908152601360205260409081902091909155517f4c209b5fc8ad50758f13e2e1088ba56a560dff690a1c6fef26394f4c03821c4f9061366a90889085908590614753565b60405180910390a16040518181526001600160a01b0387169030906000805160206147b58339815191529060200160405180910390a3505050505050565b6000610f678284614712565b6000610f6782846146fa565b604080516001600160a01b038481166024830152604480830185905283518084039091018152606490920183526020820180516001600160e01b031663095ea7b360e01b179052915160009283929087169161371c9190614774565b6000604051808303816000865af19150503d8060008114613759576040519150601f19603f3d011682016040523d82523d6000602084013e61375e565b606091505b5091509150818015613788575080511580613788575080806020019051810190613788919061468c565b6113255760405162461bcd60e51b8152602060048201526002602482015261534160f01b6044820152606401610b35565b6000670de0b6b3a76400006137d28484600001516136a8565b610f679190614731565b600a5460405163368f515360e21b81526000916001600160a01b03169063da3d454c90613811903090879087906004016146a9565b6020604051808303816000875af1158015613830573d6000803e3d6000fd5b505050506040513d601f19601f820116820180604052508101906138549190614673565b905080156138785760405163918db40f60e01b815260048101829052602401610b35565b43600e541461389a57604051630e8d8c6160e21b815260040160405180910390fd5b816138a36123ab565b10156138c2576040516348c2588160e01b815260040160405180910390fd5b60006138cd84612608565b905060006138db84836146fa565b90506000846010546138ed91906146fa565b6001600160a01b0387166000908152601560205260409020838155600f546001909101556010819055905061392286866130c4565b604080516001600160a01b038816815260208101879052908101839052606081018290527f13ed6866d4e1ee6da46f845c46d7e54120883d75c5ea9a2dacc1c4ca8984ab809060800160405180910390a1505050505050565b600a54604051632fe3f38f60e11b81523060048201526001600160a01b03838116602483015286811660448301528581166064830152608482018590526000921690635fc7e71e9060a4016020604051808303816000875af11580156139e5573d6000803e3d6000fd5b505050506040513d601f19601f82011682018060405250810190613a099190614673565b90508015613a2d57604051630a14d17960e11b815260048101829052602401610b35565b43600e5414613a4f576040516380965b1b60e01b815260040160405180910390fd5b43826001600160a01b0316636c540baf6040518163ffffffff1660e01b8152600401602060405180830381865afa158015613a8e573d6000803e3d6000fd5b505050506040513d601f19601f82011682018060405250810190613ab29190614673565b14613ad057604051631046f38d60e31b815260040160405180910390fd5b846001600160a01b0316846001600160a01b03161415613b0357604051631bd1a62160e21b815260040160405180910390fd5b82613b215760405163d29da7ef60e01b815260040160405180910390fd5b600019831415613b4457604051635982c5bb60e11b815260040160405180910390fd5b6000613b51868686612e6f565b600a5460405163c488847b60e01b815291925060009182916001600160a01b03169063c488847b90613b8b903090899088906004016146a9565b6040805180830381865afa158015613ba7573d6000803e3d6000fd5b505050506040513d601f19601f82011682018060405250810190613bcb9190614790565b9150915060008214613c3b5760405162461bcd60e51b815260206004820152603360248201527f4c49515549444154455f434f4d5054524f4c4c45525f43414c43554c4154455f604482015272105353d5539517d4d152569157d19052531151606a1b6064820152608401610b35565b6040516370a0823160e01b81526001600160a01b0388811660048301528291908716906370a0823190602401602060405180830381865afa158015613c84573d6000803e3d6000fd5b505050506040513d601f19601f82011682018060405250810190613ca89190614673565b1015613cf65760405162461bcd60e51b815260206004820152601860248201527f4c49515549444154455f5345495a455f544f4f5f4d55434800000000000000006044820152606401610b35565b6001600160a01b038516301415613d1857613d13308989846129dc565b613dd2565b60405163b2a02ff160e01b81526000906001600160a01b0387169063b2a02ff190613d4b908c908c9087906004016146a9565b6020604051808303816000875af1158015613d6a573d6000803e3d6000fd5b505050506040513d601f19601f82011682018060405250810190613d8e9190614673565b14613dd25760405162461bcd60e51b81526020600482015260146024820152731d1bdad95b881cd95a5e9d5c994819985a5b195960621b6044820152606401610b35565b604080516001600160a01b038a811682528981166020830152818301869052871660608201526080810183905290517f298637f684da70674f26509b10f07ec2fbc77a335ab1e7d6215a4b2484d8bb529181900360a00190a15050505050505050565b6016546040516370a0823160e01b81523060048201526000916001600160a01b0316908190839082906370a0823190602401602060405180830381865afa158015613e84573d6000803e3d6000fd5b505050506040513d601f19601f82011682018060405250810190613ea89190614673565b6040516323b872dd60e01b81529091506001600160a01b038316906323b872dd90613edb90899030908a906004016146a9565b600060405180830381600087803b158015613ef557600080fd5b505af1158015613f09573d6000803e3d6000fd5b5050505060003d60008114613f255760208114613f2f57600080fd5b6000199150613f3b565b60206000803e60005191505b5080613f895760405162461bcd60e51b815260206004820152601860248201527f544f4b454e5f5452414e534645525f494e5f4641494c454400000000000000006044820152606401610b35565b6040516370a0823160e01b81523060048201526000906001600160a01b038616906370a0823190602401602060405180830381865afa158015613fd0573d6000803e3d6000fd5b505050506040513d601f19601f82011682018060405250810190613ff49190614673565b9050600061400284836146e3565b60165460035460405163095ea7b360e01b81526001600160a01b039182166004820152602481018c9052929350169063095ea7b3906044016020604051808303816000875af1158015614059573d6000803e3d6000fd5b505050506040513d601f19601f8201168201806040525081019061407d919061468c565b50600054604051633cf6bab360e21b81526004810183905263010000009091046001600160a01b03169063f3daeacc90602401600060405180830381600087803b1580156140ca57600080fd5b505af11580156140de573d6000803e3d6000fd5b50929b9a5050505050505050505050565b6000610f6761410684670de0b6b3a76400006136a8565b83516000610f678284614731565b82805461412090614614565b90600052602060002090601f0160209004810192826141425760008555614188565b82601f1061415b57805160ff1916838001178555614188565b82800160010185558215614188579182015b8281111561418857825182559160200191906001019061416d565b506121279291505b808211156121275760008155600101614190565b60005b838110156141bf5781810151838201526020016141a7565b8381111561320f5750506000910152565b60208152600082518060208401526141ef8160408501602087016141a4565b601f01601f19169190910160400192915050565b6001600160a01b038116811461421857600080fd5b50565b6000806040838503121561422e57600080fd5b823561423981614203565b946020939093013593505050565b60006020828403121561425957600080fd5b5035919050565b60008060008060006080868803121561427857600080fd5b853561428381614203565b9450602086013561429381614203565b935060408601359250606086013567ffffffffffffffff808211156142b757600080fd5b818801915088601f8301126142cb57600080fd5b8135818111156142da57600080fd5b8960208285010111156142ec57600080fd5b9699959850939650602001949392505050565b60006020828403121561431157600080fd5b8135610f6781614203565b634e487b7160e01b600052604160045260246000fd5b600082601f83011261434357600080fd5b813567ffffffffffffffff8082111561435e5761435e61431c565b604051601f8301601f19908116603f011681019082821181831017156143865761438661431c565b8160405283815286602085880101111561439f57600080fd5b836020870160208301376000602085830101528094505050505092915050565b803560ff811681146143d057600080fd5b919050565b600080600080600080600060e0888a0312156143f057600080fd5b87356143fb81614203565b9650602088013561440b81614203565b9550604088013561441b81614203565b945060608801359350608088013567ffffffffffffffff8082111561443f57600080fd5b61444b8b838c01614332565b945060a08a013591508082111561446157600080fd5b5061446e8a828b01614332565b92505061447d60c089016143bf565b905092959891949750929550565b6000806000606084860312156144a057600080fd5b83356144ab81614203565b925060208401356144bb81614203565b929592945050506040919091013590565b60008060008060008060c087890312156144e557600080fd5b86356144f081614203565b9550602087013561450081614203565b945060408701359350606087013567ffffffffffffffff8082111561452457600080fd5b6145308a838b01614332565b9450608089013591508082111561454657600080fd5b5061455389828a01614332565b92505061456260a088016143bf565b90509295509295509295565b801515811461421857600080fd5b60006020828403121561458e57600080fd5b8135610f678161456e565b600080604083850312156145ac57600080fd5b82356145b781614203565b915060208301356145c781614203565b809150509250929050565b6000806000606084860312156145e757600080fd5b83356145f281614203565b925060208401359150604084013561460981614203565b809150509250925092565b600181811c9082168061462857607f821691505b6020821081141561464957634e487b7160e01b600052602260045260246000fd5b50919050565b6020808252600a90820152691c994b595b9d195c995960b21b604082015260600190565b60006020828403121561468557600080fd5b5051919050565b60006020828403121561469e57600080fd5b8151610f678161456e565b6001600160a01b039384168152919092166020820152604081019190915260600190565b634e487b7160e01b600052601160045260246000fd5b6000828210156146f5576146f56146cd565b500390565b6000821982111561470d5761470d6146cd565b500190565b600081600019048311821515161561472c5761472c6146cd565b500290565b60008261474e57634e487b7160e01b600052601260045260246000fd5b500490565b6001600160a01b039390931683526020830191909152604082015260600190565b600082516147868184602087016141a4565b9190910192915050565b600080604083850312156147a357600080fd5b50508051602090910151909290915056feddf252ad1be2c89b69c2b068fc378daa952ba7f163c4a11628f55a4df523b3efa264697066735822122093e6519b1861f561a8950bc5142073d8445f7a59bde1b9d1e84d2d0676e9a51364736f6c634300080a0033",
  "linkReferences": {},
  "deployedLinkReferences": {}
}