{
  "_format": "hh-sol-artifact-1",
  "contractName": "ComptrollerG7",
  "sourceName": "contracts/ComptrollerG7.sol",
  "abi": [
    {
      "inputs": [],
      "stateMutability": "nonpayable",
      "type": "constructor"
    },
    {
      "anonymous": false,
      "inputs": [
        {
          "indexed": false,
          "internalType": "string",
          "name": "action",
          "type": "string"
        },
        {
          "indexed": false,
          "internalType": "bool",
          "name": "pauseState",
          "type": "bool"
        }
      ],
      "name": "ActionPaused",
      "type": "event"
    },
    {
      "anonymous": false,
      "inputs": [
        {
          "indexed": false,
          "internalType": "contract CToken",
          "name": "cToken",
          "type": "address"
        },
        {
          "indexed": false,
          "internalType": "string",
          "name": "action",
          "type": "string"
        },
        {
          "indexed": false,
          "internalType": "bool",
          "name": "pauseState",
          "type": "bool"
        }
      ],
      "name": "ActionPaused",
      "type": "event"
    },
    {
      "anonymous": false,
      "inputs": [
        {
          "indexed": false,
          "internalType": "address",
          "name": "recipient",
          "type": "address"
        },
        {
          "indexed": false,
          "internalType": "uint256",
          "name": "amount",
          "type": "uint256"
        }
      ],
      "name": "CompGranted",
      "type": "event"
    },
    {
      "anonymous": false,
      "inputs": [
        {
          "indexed": true,
          "internalType": "contract CToken",
          "name": "cToken",
          "type": "address"
        },
        {
          "indexed": false,
          "internalType": "uint256",
          "name": "newSpeed",
          "type": "uint256"
        }
      ],
      "name": "CompSpeedUpdated",
      "type": "event"
    },
    {
      "anonymous": false,
      "inputs": [
        {
          "indexed": true,
          "internalType": "address",
          "name": "contributor",
          "type": "address"
        },
        {
          "indexed": false,
          "internalType": "uint256",
          "name": "newSpeed",
          "type": "uint256"
        }
      ],
      "name": "ContributorCompSpeedUpdated",
      "type": "event"
    },
    {
      "anonymous": false,
      "inputs": [
        {
          "indexed": true,
          "internalType": "contract CToken",
          "name": "cToken",
          "type": "address"
        },
        {
          "indexed": true,
          "internalType": "address",
          "name": "borrower",
          "type": "address"
        },
        {
          "indexed": false,
          "internalType": "uint256",
          "name": "compDelta",
          "type": "uint256"
        },
        {
          "indexed": false,
          "internalType": "uint256",
          "name": "compBorrowIndex",
          "type": "uint256"
        }
      ],
      "name": "DistributedBorrowerComp",
      "type": "event"
    },
    {
      "anonymous": false,
      "inputs": [
        {
          "indexed": true,
          "internalType": "contract CToken",
          "name": "cToken",
          "type": "address"
        },
        {
          "indexed": true,
          "internalType": "address",
          "name": "supplier",
          "type": "address"
        },
        {
          "indexed": false,
          "internalType": "uint256",
          "name": "compDelta",
          "type": "uint256"
        },
        {
          "indexed": false,
          "internalType": "uint256",
          "name": "compSupplyIndex",
          "type": "uint256"
        }
      ],
      "name": "DistributedSupplierComp",
      "type": "event"
    },
    {
      "anonymous": false,
      "inputs": [
        {
          "indexed": false,
          "internalType": "uint256",
          "name": "error",
          "type": "uint256"
        },
        {
          "indexed": false,
          "internalType": "uint256",
          "name": "info",
          "type": "uint256"
        },
        {
          "indexed": false,
          "internalType": "uint256",
          "name": "detail",
          "type": "uint256"
        }
      ],
      "name": "Failure",
      "type": "event"
    },
    {
      "anonymous": false,
      "inputs": [
        {
          "indexed": false,
          "internalType": "contract CToken",
          "name": "cToken",
          "type": "address"
        },
        {
          "indexed": false,
          "internalType": "address",
          "name": "account",
          "type": "address"
        }
      ],
      "name": "MarketEntered",
      "type": "event"
    },
    {
      "anonymous": false,
      "inputs": [
        {
          "indexed": false,
          "internalType": "contract CToken",
          "name": "cToken",
          "type": "address"
        },
        {
          "indexed": false,
          "internalType": "address",
          "name": "account",
          "type": "address"
        }
      ],
      "name": "MarketExited",
      "type": "event"
    },
    {
      "anonymous": false,
      "inputs": [
        {
          "indexed": false,
          "internalType": "contract CToken",
          "name": "cToken",
          "type": "address"
        }
      ],
      "name": "MarketListed",
      "type": "event"
    },
    {
      "anonymous": false,
      "inputs": [
        {
          "indexed": true,
          "internalType": "contract CToken",
          "name": "cToken",
          "type": "address"
        },
        {
          "indexed": false,
          "internalType": "uint256",
          "name": "newBorrowCap",
          "type": "uint256"
        }
      ],
      "name": "NewBorrowCap",
      "type": "event"
    },
    {
      "anonymous": false,
      "inputs": [
        {
          "indexed": false,
          "internalType": "address",
          "name": "oldBorrowCapGuardian",
          "type": "address"
        },
        {
          "indexed": false,
          "internalType": "address",
          "name": "newBorrowCapGuardian",
          "type": "address"
        }
      ],
      "name": "NewBorrowCapGuardian",
      "type": "event"
    },
    {
      "anonymous": false,
      "inputs": [
        {
          "indexed": false,
          "internalType": "uint256",
          "name": "oldCloseFactorMantissa",
          "type": "uint256"
        },
        {
          "indexed": false,
          "internalType": "uint256",
          "name": "newCloseFactorMantissa",
          "type": "uint256"
        }
      ],
      "name": "NewCloseFactor",
      "type": "event"
    },
    {
      "anonymous": false,
      "inputs": [
        {
          "indexed": false,
          "internalType": "contract CToken",
          "name": "cToken",
          "type": "address"
        },
        {
          "indexed": false,
          "internalType": "uint256",
          "name": "oldCollateralFactorMantissa",
          "type": "uint256"
        },
        {
          "indexed": false,
          "internalType": "uint256",
          "name": "newCollateralFactorMantissa",
          "type": "uint256"
        }
      ],
      "name": "NewCollateralFactor",
      "type": "event"
    },
    {
      "anonymous": false,
      "inputs": [
        {
          "indexed": false,
          "internalType": "uint256",
          "name": "oldLiquidationIncentiveMantissa",
          "type": "uint256"
        },
        {
          "indexed": false,
          "internalType": "uint256",
          "name": "newLiquidationIncentiveMantissa",
          "type": "uint256"
        }
      ],
      "name": "NewLiquidationIncentive",
      "type": "event"
    },
    {
      "anonymous": false,
      "inputs": [
        {
          "indexed": false,
          "internalType": "address",
          "name": "oldPauseGuardian",
          "type": "address"
        },
        {
          "indexed": false,
          "internalType": "address",
          "name": "newPauseGuardian",
          "type": "address"
        }
      ],
      "name": "NewPauseGuardian",
      "type": "event"
    },
    {
      "anonymous": false,
      "inputs": [
        {
          "indexed": false,
          "internalType": "contract PriceOracle",
          "name": "oldPriceOracle",
          "type": "address"
        },
        {
          "indexed": false,
          "internalType": "contract PriceOracle",
          "name": "newPriceOracle",
          "type": "address"
        }
      ],
      "name": "NewPriceOracle",
      "type": "event"
    },
    {
      "inputs": [
        {
          "internalType": "contract Unitroller",
          "name": "unitroller",
          "type": "address"
        }
      ],
      "name": "_become",
      "outputs": [],
      "stateMutability": "nonpayable",
      "type": "function"
    },
    {
      "inputs": [],
      "name": "_borrowGuardianPaused",
      "outputs": [
        {
          "internalType": "bool",
          "name": "",
          "type": "bool"
        }
      ],
      "stateMutability": "view",
      "type": "function"
    },
    {
      "inputs": [
        {
          "internalType": "address",
          "name": "recipient",
          "type": "address"
        },
        {
          "internalType": "uint256",
          "name": "amount",
          "type": "uint256"
        }
      ],
      "name": "_grantComp",
      "outputs": [],
      "stateMutability": "nonpayable",
      "type": "function"
    },
    {
      "inputs": [],
      "name": "_mintGuardianPaused",
      "outputs": [
        {
          "internalType": "bool",
          "name": "",
          "type": "bool"
        }
      ],
      "stateMutability": "view",
      "type": "function"
    },
    {
      "inputs": [
        {
          "internalType": "address",
          "name": "newBorrowCapGuardian",
          "type": "address"
        }
      ],
      "name": "_setBorrowCapGuardian",
      "outputs": [],
      "stateMutability": "nonpayable",
      "type": "function"
    },
    {
      "inputs": [
        {
          "internalType": "contract CToken",
          "name": "cToken",
          "type": "address"
        },
        {
          "internalType": "bool",
          "name": "state",
          "type": "bool"
        }
      ],
      "name": "_setBorrowPaused",
      "outputs": [
        {
          "internalType": "bool",
          "name": "",
          "type": "bool"
        }
      ],
      "stateMutability": "nonpayable",
      "type": "function"
    },
    {
      "inputs": [
        {
          "internalType": "uint256",
          "name": "newCloseFactorMantissa",
          "type": "uint256"
        }
      ],
      "name": "_setCloseFactor",
      "outputs": [
        {
          "internalType": "uint256",
          "name": "",
          "type": "uint256"
        }
      ],
      "stateMutability": "nonpayable",
      "type": "function"
    },
    {
      "inputs": [
        {
          "internalType": "contract CToken",
          "name": "cToken",
          "type": "address"
        },
        {
          "internalType": "uint256",
          "name": "newCollateralFactorMantissa",
          "type": "uint256"
        }
      ],
      "name": "_setCollateralFactor",
      "outputs": [
        {
          "internalType": "uint256",
          "name": "",
          "type": "uint256"
        }
      ],
      "stateMutability": "nonpayable",
      "type": "function"
    },
    {
      "inputs": [
        {
          "internalType": "contract CToken",
          "name": "cToken",
          "type": "address"
        },
        {
          "internalType": "uint256",
          "name": "compSpeed",
          "type": "uint256"
        }
      ],
      "name": "_setCompSpeed",
      "outputs": [],
      "stateMutability": "nonpayable",
      "type": "function"
    },
    {
      "inputs": [
        {
          "internalType": "address",
          "name": "contributor",
          "type": "address"
        },
        {
          "internalType": "uint256",
          "name": "compSpeed",
          "type": "uint256"
        }
      ],
      "name": "_setContributorCompSpeed",
      "outputs": [],
      "stateMutability": "nonpayable",
      "type": "function"
    },
    {
      "inputs": [
        {
          "internalType": "uint256",
          "name": "newLiquidationIncentiveMantissa",
          "type": "uint256"
        }
      ],
      "name": "_setLiquidationIncentive",
      "outputs": [
        {
          "internalType": "uint256",
          "name": "",
          "type": "uint256"
        }
      ],
      "stateMutability": "nonpayable",
      "type": "function"
    },
    {
      "inputs": [
        {
          "internalType": "contract CToken[]",
          "name": "cTokens",
          "type": "address[]"
        },
        {
          "internalType": "uint256[]",
          "name": "newBorrowCaps",
          "type": "uint256[]"
        }
      ],
      "name": "_setMarketBorrowCaps",
      "outputs": [],
      "stateMutability": "nonpayable",
      "type": "function"
    },
    {
      "inputs": [
        {
          "internalType": "contract CToken",
          "name": "cToken",
          "type": "address"
        },
        {
          "internalType": "bool",
          "name": "state",
          "type": "bool"
        }
      ],
      "name": "_setMintPaused",
      "outputs": [
        {
          "internalType": "bool",
          "name": "",
          "type": "bool"
        }
      ],
      "stateMutability": "nonpayable",
      "type": "function"
    },
    {
      "inputs": [
        {
          "internalType": "address",
          "name": "newPauseGuardian",
          "type": "address"
        }
      ],
      "name": "_setPauseGuardian",
      "outputs": [
        {
          "internalType": "uint256",
          "name": "",
          "type": "uint256"
        }
      ],
      "stateMutability": "nonpayable",
      "type": "function"
    },
    {
      "inputs": [
        {
          "internalType": "contract PriceOracle",
          "name": "newOracle",
          "type": "address"
        }
      ],
      "name": "_setPriceOracle",
      "outputs": [
        {
          "internalType": "uint256",
          "name": "",
          "type": "uint256"
        }
      ],
      "stateMutability": "nonpayable",
      "type": "function"
    },
    {
      "inputs": [
        {
          "internalType": "bool",
          "name": "state",
          "type": "bool"
        }
      ],
      "name": "_setSeizePaused",
      "outputs": [
        {
          "internalType": "bool",
          "name": "",
          "type": "bool"
        }
      ],
      "stateMutability": "nonpayable",
      "type": "function"
    },
    {
      "inputs": [
        {
          "internalType": "bool",
          "name": "state",
          "type": "bool"
        }
      ],
      "name": "_setTransferPaused",
      "outputs": [
        {
          "internalType": "bool",
          "name": "",
          "type": "bool"
        }
      ],
      "stateMutability": "nonpayable",
      "type": "function"
    },
    {
      "inputs": [
        {
          "internalType": "contract CToken",
          "name": "cToken",
          "type": "address"
        },
        {
          "internalType": "bool",
          "name": "isComped_",
          "type": "bool"
        },
        {
          "internalType": "bool",
          "name": "isPrivate_",
          "type": "bool"
        }
      ],
      "name": "_supportMarket",
      "outputs": [
        {
          "internalType": "uint256",
          "name": "",
          "type": "uint256"
        }
      ],
      "stateMutability": "nonpayable",
      "type": "function"
    },
    {
      "inputs": [
        {
          "internalType": "address",
          "name": "",
          "type": "address"
        },
        {
          "internalType": "uint256",
          "name": "",
          "type": "uint256"
        }
      ],
      "name": "accountAssets",
      "outputs": [
        {
          "internalType": "contract CToken",
          "name": "",
          "type": "address"
        }
      ],
      "stateMutability": "view",
      "type": "function"
    },
    {
      "inputs": [
        {
          "internalType": "address",
          "name": "cToken",
          "type": "address"
        },
        {
          "internalType": "address",
          "name": "borrower",
          "type": "address"
        }
      ],
      "name": "addToMarketExternal",
      "outputs": [],
      "stateMutability": "nonpayable",
      "type": "function"
    },
    {
      "inputs": [],
      "name": "admin",
      "outputs": [
        {
          "internalType": "address",
          "name": "",
          "type": "address"
        }
      ],
      "stateMutability": "view",
      "type": "function"
    },
    {
      "inputs": [
        {
          "internalType": "uint256",
          "name": "",
          "type": "uint256"
        }
      ],
      "name": "allMarkets",
      "outputs": [
        {
          "internalType": "contract CToken",
          "name": "",
          "type": "address"
        }
      ],
      "stateMutability": "view",
      "type": "function"
    },
    {
      "inputs": [
        {
          "internalType": "address",
          "name": "cToken",
          "type": "address"
        },
        {
          "internalType": "address",
          "name": "borrower",
          "type": "address"
        },
        {
          "internalType": "uint256",
          "name": "borrowAmount",
          "type": "uint256"
        }
      ],
      "name": "borrowAllowed",
      "outputs": [
        {
          "internalType": "uint256",
          "name": "",
          "type": "uint256"
        }
      ],
      "stateMutability": "nonpayable",
      "type": "function"
    },
    {
      "inputs": [],
      "name": "borrowCapGuardian",
      "outputs": [
        {
          "internalType": "address",
          "name": "",
          "type": "address"
        }
      ],
      "stateMutability": "view",
      "type": "function"
    },
    {
      "inputs": [
        {
          "internalType": "address",
          "name": "",
          "type": "address"
        }
      ],
      "name": "borrowCaps",
      "outputs": [
        {
          "internalType": "uint256",
          "name": "",
          "type": "uint256"
        }
      ],
      "stateMutability": "view",
      "type": "function"
    },
    {
      "inputs": [
        {
          "internalType": "address",
          "name": "",
          "type": "address"
        }
      ],
      "name": "borrowGuardianPaused",
      "outputs": [
        {
          "internalType": "bool",
          "name": "",
          "type": "bool"
        }
      ],
      "stateMutability": "view",
      "type": "function"
    },
    {
      "inputs": [
        {
          "internalType": "address",
          "name": "cToken",
          "type": "address"
        },
        {
          "internalType": "address",
          "name": "borrower",
          "type": "address"
        },
        {
          "internalType": "uint256",
          "name": "borrowAmount",
          "type": "uint256"
        }
      ],
      "name": "borrowVerify",
      "outputs": [],
      "stateMutability": "nonpayable",
      "type": "function"
    },
    {
      "inputs": [
        {
          "internalType": "address",
          "name": "account",
          "type": "address"
        },
        {
          "internalType": "contract CToken",
          "name": "cToken",
          "type": "address"
        }
      ],
      "name": "checkMembership",
      "outputs": [
        {
          "internalType": "bool",
          "name": "",
          "type": "bool"
        }
      ],
      "stateMutability": "view",
      "type": "function"
    },
    {
      "inputs": [
        {
          "internalType": "address",
          "name": "holder",
          "type": "address"
        },
        {
          "internalType": "contract CToken[]",
          "name": "cTokens",
          "type": "address[]"
        }
      ],
      "name": "claimComp",
      "outputs": [],
      "stateMutability": "nonpayable",
      "type": "function"
    },
    {
      "inputs": [
        {
          "internalType": "address[]",
          "name": "holders",
          "type": "address[]"
        },
        {
          "internalType": "contract CToken[]",
          "name": "cTokens",
          "type": "address[]"
        },
        {
          "internalType": "bool",
          "name": "borrowers",
          "type": "bool"
        },
        {
          "internalType": "bool",
          "name": "suppliers",
          "type": "bool"
        }
      ],
      "name": "claimComp",
      "outputs": [],
      "stateMutability": "nonpayable",
      "type": "function"
    },
    {
      "inputs": [
        {
          "internalType": "address",
          "name": "holder",
          "type": "address"
        }
      ],
      "name": "claimComp",
      "outputs": [],
      "stateMutability": "nonpayable",
      "type": "function"
    },
    {
      "inputs": [],
      "name": "closeFactorMantissa",
      "outputs": [
        {
          "internalType": "uint256",
          "name": "",
          "type": "uint256"
        }
      ],
      "stateMutability": "view",
      "type": "function"
    },
    {
      "inputs": [
        {
          "internalType": "address",
          "name": "",
          "type": "address"
        }
      ],
      "name": "compAccrued",
      "outputs": [
        {
          "internalType": "uint256",
          "name": "",
          "type": "uint256"
        }
      ],
      "stateMutability": "view",
      "type": "function"
    },
    {
      "inputs": [],
      "name": "compAddress",
      "outputs": [
        {
          "internalType": "address",
          "name": "",
          "type": "address"
        }
      ],
      "stateMutability": "view",
      "type": "function"
    },
    {
      "inputs": [
        {
          "internalType": "address",
          "name": "",
          "type": "address"
        }
      ],
      "name": "compBorrowState",
      "outputs": [
        {
          "internalType": "uint224",
          "name": "index",
          "type": "uint224"
        },
        {
          "internalType": "uint32",
          "name": "block",
          "type": "uint32"
        }
      ],
      "stateMutability": "view",
      "type": "function"
    },
    {
      "inputs": [
        {
          "internalType": "address",
          "name": "",
          "type": "address"
        },
        {
          "internalType": "address",
          "name": "",
          "type": "address"
        }
      ],
      "name": "compBorrowerIndex",
      "outputs": [
        {
          "internalType": "uint256",
          "name": "",
          "type": "uint256"
        }
      ],
      "stateMutability": "view",
      "type": "function"
    },
    {
      "inputs": [
        {
          "internalType": "address",
          "name": "",
          "type": "address"
        }
      ],
      "name": "compContributorSpeeds",
      "outputs": [
        {
          "internalType": "uint256",
          "name": "",
          "type": "uint256"
        }
      ],
      "stateMutability": "view",
      "type": "function"
    },
    {
      "inputs": [],
      "name": "compInitialIndex",
      "outputs": [
        {
          "internalType": "uint224",
          "name": "",
          "type": "uint224"
        }
      ],
      "stateMutability": "view",
      "type": "function"
    },
    {
      "inputs": [],
      "name": "compRate",
      "outputs": [
        {
          "internalType": "uint256",
          "name": "",
          "type": "uint256"
        }
      ],
      "stateMutability": "view",
      "type": "function"
    },
    {
      "inputs": [
        {
          "internalType": "address",
          "name": "",
          "type": "address"
        }
      ],
      "name": "compSpeeds",
      "outputs": [
        {
          "internalType": "uint256",
          "name": "",
          "type": "uint256"
        }
      ],
      "stateMutability": "view",
      "type": "function"
    },
    {
      "inputs": [
        {
          "internalType": "address",
          "name": "",
          "type": "address"
        },
        {
          "internalType": "address",
          "name": "",
          "type": "address"
        }
      ],
      "name": "compSupplierIndex",
      "outputs": [
        {
          "internalType": "uint256",
          "name": "",
          "type": "uint256"
        }
      ],
      "stateMutability": "view",
      "type": "function"
    },
    {
      "inputs": [
        {
          "internalType": "address",
          "name": "",
          "type": "address"
        }
      ],
      "name": "compSupplyState",
      "outputs": [
        {
          "internalType": "uint224",
          "name": "index",
          "type": "uint224"
        },
        {
          "internalType": "uint32",
          "name": "block",
          "type": "uint32"
        }
      ],
      "stateMutability": "view",
      "type": "function"
    },
    {
      "inputs": [],
      "name": "comptrollerImplementation",
      "outputs": [
        {
          "internalType": "address",
          "name": "",
          "type": "address"
        }
      ],
      "stateMutability": "view",
      "type": "function"
    },
    {
      "inputs": [
        {
          "internalType": "address[]",
          "name": "cTokens",
          "type": "address[]"
        }
      ],
      "name": "enterMarkets",
      "outputs": [
        {
          "internalType": "uint256[]",
          "name": "",
          "type": "uint256[]"
        }
      ],
      "stateMutability": "nonpayable",
      "type": "function"
    },
    {
      "inputs": [
        {
          "internalType": "address",
          "name": "cTokenAddress",
          "type": "address"
        }
      ],
      "name": "exitMarket",
      "outputs": [
        {
          "internalType": "uint256",
          "name": "",
          "type": "uint256"
        }
      ],
      "stateMutability": "nonpayable",
      "type": "function"
    },
    {
      "inputs": [
        {
          "internalType": "address",
          "name": "account",
          "type": "address"
        }
      ],
      "name": "getAccountLiquidity",
      "outputs": [
        {
          "internalType": "uint256",
          "name": "",
          "type": "uint256"
        },
        {
          "internalType": "uint256",
          "name": "",
          "type": "uint256"
        },
        {
          "internalType": "uint256",
          "name": "",
          "type": "uint256"
        }
      ],
      "stateMutability": "view",
      "type": "function"
    },
    {
      "inputs": [],
      "name": "getAllMarkets",
      "outputs": [
        {
          "internalType": "contract CToken[]",
          "name": "",
          "type": "address[]"
        }
      ],
      "stateMutability": "view",
      "type": "function"
    },
    {
      "inputs": [
        {
          "internalType": "address",
          "name": "account",
          "type": "address"
        }
      ],
      "name": "getAssetsIn",
      "outputs": [
        {
          "internalType": "contract CToken[]",
          "name": "",
          "type": "address[]"
        }
      ],
      "stateMutability": "view",
      "type": "function"
    },
    {
      "inputs": [],
      "name": "getBlockNumber",
      "outputs": [
        {
          "internalType": "uint256",
          "name": "",
          "type": "uint256"
        }
      ],
      "stateMutability": "view",
      "type": "function"
    },
    {
      "inputs": [],
      "name": "getCompAddress",
      "outputs": [
        {
          "internalType": "address",
          "name": "",
          "type": "address"
        }
      ],
      "stateMutability": "view",
      "type": "function"
    },
    {
      "inputs": [
        {
          "internalType": "address",
          "name": "account",
          "type": "address"
        },
        {
          "internalType": "address",
          "name": "cTokenModify",
          "type": "address"
        },
        {
          "internalType": "uint256",
          "name": "redeemTokens",
          "type": "uint256"
        },
        {
          "internalType": "uint256",
          "name": "borrowAmount",
          "type": "uint256"
        }
      ],
      "name": "getHypotheticalAccountLiquidity",
      "outputs": [
        {
          "internalType": "uint256",
          "name": "",
          "type": "uint256"
        },
        {
          "internalType": "uint256",
          "name": "",
          "type": "uint256"
        },
        {
          "internalType": "uint256",
          "name": "",
          "type": "uint256"
        }
      ],
      "stateMutability": "view",
      "type": "function"
    },
    {
      "inputs": [],
      "name": "immutableCompAddress",
      "outputs": [
        {
          "internalType": "bool",
          "name": "",
          "type": "bool"
        }
      ],
      "stateMutability": "view",
      "type": "function"
    },
    {
      "inputs": [],
      "name": "isComptroller",
      "outputs": [
        {
          "internalType": "bool",
          "name": "",
          "type": "bool"
        }
      ],
      "stateMutability": "view",
      "type": "function"
    },
    {
      "inputs": [
        {
          "internalType": "address",
          "name": "",
          "type": "address"
        }
      ],
      "name": "lastContributorBlock",
      "outputs": [
        {
          "internalType": "uint256",
          "name": "",
          "type": "uint256"
        }
      ],
      "stateMutability": "view",
      "type": "function"
    },
    {
      "inputs": [
        {
          "internalType": "address",
          "name": "cTokenBorrowed",
          "type": "address"
        },
        {
          "internalType": "address",
          "name": "cTokenCollateral",
          "type": "address"
        },
        {
          "internalType": "address",
          "name": "liquidator",
          "type": "address"
        },
        {
          "internalType": "address",
          "name": "borrower",
          "type": "address"
        },
        {
          "internalType": "uint256",
          "name": "repayAmount",
          "type": "uint256"
        }
      ],
      "name": "liquidateBorrowAllowed",
      "outputs": [
        {
          "internalType": "uint256",
          "name": "",
          "type": "uint256"
        }
      ],
      "stateMutability": "nonpayable",
      "type": "function"
    },
    {
      "inputs": [
        {
          "internalType": "address",
          "name": "cTokenBorrowed",
          "type": "address"
        },
        {
          "internalType": "address",
          "name": "cTokenCollateral",
          "type": "address"
        },
        {
          "internalType": "address",
          "name": "liquidator",
          "type": "address"
        },
        {
          "internalType": "address",
          "name": "borrower",
          "type": "address"
        },
        {
          "internalType": "uint256",
          "name": "actualRepayAmount",
          "type": "uint256"
        },
        {
          "internalType": "uint256",
          "name": "seizeTokens",
          "type": "uint256"
        }
      ],
      "name": "liquidateBorrowVerify",
      "outputs": [],
      "stateMutability": "nonpayable",
      "type": "function"
    },
    {
      "inputs": [
        {
          "internalType": "address",
          "name": "cTokenBorrowed",
          "type": "address"
        },
        {
          "internalType": "address",
          "name": "cTokenCollateral",
          "type": "address"
        },
        {
          "internalType": "uint256",
          "name": "actualRepayAmount",
          "type": "uint256"
        }
      ],
      "name": "liquidateCalculateSeizeTokens",
      "outputs": [
        {
          "internalType": "uint256",
          "name": "",
          "type": "uint256"
        },
        {
          "internalType": "uint256",
          "name": "",
          "type": "uint256"
        }
      ],
      "stateMutability": "view",
      "type": "function"
    },
    {
      "inputs": [],
      "name": "liquidationIncentiveMantissa",
      "outputs": [
        {
          "internalType": "uint256",
          "name": "",
          "type": "uint256"
        }
      ],
      "stateMutability": "view",
      "type": "function"
    },
    {
      "inputs": [
        {
          "internalType": "address",
          "name": "",
          "type": "address"
        }
      ],
      "name": "markets",
      "outputs": [
        {
          "internalType": "bool",
          "name": "isListed",
          "type": "bool"
        },
        {
          "internalType": "uint256",
          "name": "collateralFactorMantissa",
          "type": "uint256"
        },
        {
          "internalType": "uint256",
          "name": "liquidationThresholdMantissa",
          "type": "uint256"
        },
        {
          "internalType": "uint256",
          "name": "collateralFactorMantissaVip",
          "type": "uint256"
        },
        {
          "internalType": "uint256",
          "name": "liquidationThresholdMantissaVip",
          "type": "uint256"
        },
        {
          "internalType": "bool",
          "name": "isComped",
          "type": "bool"
        },
        {
          "internalType": "bool",
          "name": "isPrivate",
          "type": "bool"
        },
        {
          "internalType": "bool",
          "name": "onlyWhitelistedBorrow",
          "type": "bool"
        }
      ],
      "stateMutability": "view",
      "type": "function"
    },
    {
      "inputs": [],
      "name": "maxAssets",
      "outputs": [
        {
          "internalType": "uint256",
          "name": "",
          "type": "uint256"
        }
      ],
      "stateMutability": "view",
      "type": "function"
    },
    {
      "inputs": [
        {
          "internalType": "address",
          "name": "cToken",
          "type": "address"
        },
        {
          "internalType": "address",
          "name": "minter",
          "type": "address"
        },
        {
          "internalType": "uint256",
          "name": "mintAmount",
          "type": "uint256"
        }
      ],
      "name": "mintAllowed",
      "outputs": [
        {
          "internalType": "uint256",
          "name": "",
          "type": "uint256"
        }
      ],
      "stateMutability": "nonpayable",
      "type": "function"
    },
    {
      "inputs": [
        {
          "internalType": "address",
          "name": "",
          "type": "address"
        }
      ],
      "name": "mintGuardianPaused",
      "outputs": [
        {
          "internalType": "bool",
          "name": "",
          "type": "bool"
        }
      ],
      "stateMutability": "view",
      "type": "function"
    },
    {
      "inputs": [
        {
          "internalType": "address",
          "name": "cToken",
          "type": "address"
        },
        {
          "internalType": "address",
          "name": "minter",
          "type": "address"
        },
        {
          "internalType": "uint256",
          "name": "actualMintAmount",
          "type": "uint256"
        },
        {
          "internalType": "uint256",
          "name": "mintTokens",
          "type": "uint256"
        }
      ],
      "name": "mintVerify",
      "outputs": [],
      "stateMutability": "nonpayable",
      "type": "function"
    },
    {
      "inputs": [],
      "name": "oracle",
      "outputs": [
        {
          "internalType": "contract PriceOracle",
          "name": "",
          "type": "address"
        }
      ],
      "stateMutability": "view",
      "type": "function"
    },
    {
      "inputs": [],
      "name": "pauseGuardian",
      "outputs": [
        {
          "internalType": "address",
          "name": "",
          "type": "address"
        }
      ],
      "stateMutability": "view",
      "type": "function"
    },
    {
      "inputs": [],
      "name": "pendingAdmin",
      "outputs": [
        {
          "internalType": "address",
          "name": "",
          "type": "address"
        }
      ],
      "stateMutability": "view",
      "type": "function"
    },
    {
      "inputs": [],
      "name": "pendingComptrollerImplementation",
      "outputs": [
        {
          "internalType": "address",
          "name": "",
          "type": "address"
        }
      ],
      "stateMutability": "view",
      "type": "function"
    },
    {
      "inputs": [
        {
          "internalType": "address",
          "name": "cToken",
          "type": "address"
        },
        {
          "internalType": "address",
          "name": "redeemer",
          "type": "address"
        },
        {
          "internalType": "uint256",
          "name": "redeemTokens",
          "type": "uint256"
        }
      ],
      "name": "redeemAllowed",
      "outputs": [
        {
          "internalType": "uint256",
          "name": "",
          "type": "uint256"
        }
      ],
      "stateMutability": "nonpayable",
      "type": "function"
    },
    {
      "inputs": [
        {
          "internalType": "address",
          "name": "cToken",
          "type": "address"
        },
        {
          "internalType": "address",
          "name": "redeemer",
          "type": "address"
        },
        {
          "internalType": "uint256",
          "name": "redeemAmount",
          "type": "uint256"
        },
        {
          "internalType": "uint256",
          "name": "redeemTokens",
          "type": "uint256"
        }
      ],
      "name": "redeemVerify",
      "outputs": [],
      "stateMutability": "nonpayable",
      "type": "function"
    },
    {
      "inputs": [
        {
          "internalType": "address",
          "name": "cToken",
          "type": "address"
        },
        {
          "internalType": "address",
          "name": "payer",
          "type": "address"
        },
        {
          "internalType": "address",
          "name": "borrower",
          "type": "address"
        },
        {
          "internalType": "uint256",
          "name": "repayAmount",
          "type": "uint256"
        }
      ],
      "name": "repayBorrowAllowed",
      "outputs": [
        {
          "internalType": "uint256",
          "name": "",
          "type": "uint256"
        }
      ],
      "stateMutability": "nonpayable",
      "type": "function"
    },
    {
      "inputs": [
        {
          "internalType": "address",
          "name": "cToken",
          "type": "address"
        },
        {
          "internalType": "address",
          "name": "payer",
          "type": "address"
        },
        {
          "internalType": "address",
          "name": "borrower",
          "type": "address"
        },
        {
          "internalType": "uint256",
          "name": "actualRepayAmount",
          "type": "uint256"
        },
        {
          "internalType": "uint256",
          "name": "borrowerIndex",
          "type": "uint256"
        }
      ],
      "name": "repayBorrowVerify",
      "outputs": [],
      "stateMutability": "nonpayable",
      "type": "function"
    },
    {
      "inputs": [
        {
          "internalType": "address",
          "name": "cTokenCollateral",
          "type": "address"
        },
        {
          "internalType": "address",
          "name": "cTokenBorrowed",
          "type": "address"
        },
        {
          "internalType": "address",
          "name": "liquidator",
          "type": "address"
        },
        {
          "internalType": "address",
          "name": "borrower",
          "type": "address"
        },
        {
          "internalType": "uint256",
          "name": "seizeTokens",
          "type": "uint256"
        }
      ],
      "name": "seizeAllowed",
      "outputs": [
        {
          "internalType": "uint256",
          "name": "",
          "type": "uint256"
        }
      ],
      "stateMutability": "nonpayable",
      "type": "function"
    },
    {
      "inputs": [],
      "name": "seizeGuardianPaused",
      "outputs": [
        {
          "internalType": "bool",
          "name": "",
          "type": "bool"
        }
      ],
      "stateMutability": "view",
      "type": "function"
    },
    {
      "inputs": [
        {
          "internalType": "address",
          "name": "cTokenCollateral",
          "type": "address"
        },
        {
          "internalType": "address",
          "name": "cTokenBorrowed",
          "type": "address"
        },
        {
          "internalType": "address",
          "name": "liquidator",
          "type": "address"
        },
        {
          "internalType": "address",
          "name": "borrower",
          "type": "address"
        },
        {
          "internalType": "uint256",
          "name": "seizeTokens",
          "type": "uint256"
        }
      ],
      "name": "seizeVerify",
      "outputs": [],
      "stateMutability": "nonpayable",
      "type": "function"
    },
    {
      "inputs": [
        {
          "internalType": "address",
          "name": "compAddress_",
          "type": "address"
        }
      ],
      "name": "setCompAddress",
      "outputs": [],
      "stateMutability": "nonpayable",
      "type": "function"
    },
    {
      "inputs": [],
      "name": "setImmutableCompAddress",
      "outputs": [],
      "stateMutability": "nonpayable",
      "type": "function"
    },
    {
      "inputs": [
        {
          "internalType": "address",
          "name": "cToken_",
          "type": "address"
        },
        {
          "internalType": "bool",
          "name": "isComped_",
          "type": "bool"
        }
      ],
      "name": "setIsMarketComped",
      "outputs": [],
      "stateMutability": "nonpayable",
      "type": "function"
    },
    {
      "inputs": [
        {
          "internalType": "address",
          "name": "cToken_",
          "type": "address"
        },
        {
          "internalType": "bool",
          "name": "isPrivate_",
          "type": "bool"
        }
      ],
      "name": "setIsPrivateMarket",
      "outputs": [],
      "stateMutability": "nonpayable",
      "type": "function"
    },
    {
      "inputs": [
        {
          "internalType": "address",
          "name": "user_",
          "type": "address"
        },
        {
          "internalType": "bool",
          "name": "isWhiteListed_",
          "type": "bool"
        }
      ],
      "name": "setWhitelistedUser",
      "outputs": [],
      "stateMutability": "nonpayable",
      "type": "function"
    },
    {
      "inputs": [
        {
          "internalType": "address",
          "name": "",
          "type": "address"
        }
      ],
      "name": "supplyCaps",
      "outputs": [
        {
          "internalType": "uint256",
          "name": "",
          "type": "uint256"
        }
      ],
      "stateMutability": "view",
      "type": "function"
    },
    {
      "inputs": [
        {
          "internalType": "address",
          "name": "cToken",
          "type": "address"
        },
        {
          "internalType": "address",
          "name": "src",
          "type": "address"
        },
        {
          "internalType": "address",
          "name": "dst",
          "type": "address"
        },
        {
          "internalType": "uint256",
          "name": "transferTokens",
          "type": "uint256"
        }
      ],
      "name": "transferAllowed",
      "outputs": [
        {
          "internalType": "uint256",
          "name": "",
          "type": "uint256"
        }
      ],
      "stateMutability": "nonpayable",
      "type": "function"
    },
    {
      "inputs": [],
      "name": "transferGuardianPaused",
      "outputs": [
        {
          "internalType": "bool",
          "name": "",
          "type": "bool"
        }
      ],
      "stateMutability": "view",
      "type": "function"
    },
    {
      "inputs": [
        {
          "internalType": "address",
          "name": "cToken",
          "type": "address"
        },
        {
          "internalType": "address",
          "name": "src",
          "type": "address"
        },
        {
          "internalType": "address",
          "name": "dst",
          "type": "address"
        },
        {
          "internalType": "uint256",
          "name": "transferTokens",
          "type": "uint256"
        }
      ],
      "name": "transferVerify",
      "outputs": [],
      "stateMutability": "nonpayable",
      "type": "function"
    },
    {
      "inputs": [
        {
          "internalType": "address",
          "name": "contributor",
          "type": "address"
        }
      ],
      "name": "updateContributorRewards",
      "outputs": [],
      "stateMutability": "nonpayable",
      "type": "function"
    },
    {
      "inputs": [
        {
          "internalType": "address",
          "name": "",
          "type": "address"
        }
      ],
      "name": "whitelistedUser",
      "outputs": [
        {
          "internalType": "bool",
          "name": "",
          "type": "bool"
        }
      ],
      "stateMutability": "view",
      "type": "function"
    }
  ],
  "bytecode": "0x608060405234801561001057600080fd5b50600080546001600160a01b0319163390811782558152601560205260409020805460ff191660011790556016805460ff60a01b1916905561570880620000586000396000f3fe608060405234801561001057600080fd5b50600436106104b65760003560e01c80636d35bf9111610278578063b21be7fd1161015c578063da3d454c116100ce578063e6653f3d11610092578063e6653f3d14610cc1578063e875544614610cd5578063e9af029214610cde578063eabe7d9114610cf1578063ede4edd014610d04578063f851a44014610d1757600080fd5b8063da3d454c14610c62578063dce1544914610c75578063dcfbc0c714610c88578063e4028eee14610c9b578063e57933fa14610cae57600080fd5b8063c299823811610120578063c299823814610ba9578063c488847b14610bc9578063ca0af04314610bf1578063cc7ebdc414610c1c578063d02f735114610c3c578063d36d0fea14610c4f57600080fd5b8063b21be7fd14610b30578063b3d52a5614610b5b578063bb82aa5e14610b63578063bdcdc25814610b76578063bea6b8b814610b8957600080fd5b80638ebf6364116101f5578063a7f0e231116101b9578063a7f0e23114610aaa578063a86cc91514610ad8578063aa90075414610aeb578063abfceffc14610af4578063ac0b0bb714610b14578063b0772d0b14610b2857600080fd5b80638ebf636414610a1c578063929fe9a114610a2f57806394b2294b14610a70578063986ab83814610a795780639d1b5a0a14610a9957600080fd5b8063858aa5e51161023c578063858aa5e5146108fc57806387f763031461090f5780638936c5fa146109235780638c57804e146109465780638e8f294b1461097e57600080fd5b80636d35bf9114610892578063731f0c2b146108a0578063741b2525146108c35780637d3ab61a146108d65780637dc0d1d0146108e957600080fd5b806344710fbe1161039f57806355ee1fe11161031c5780635fc7e71e116102e05780635fc7e71e146107cc578063607ef6c1146107df5780636810dfa6146107f25780636a56947e146108055780636b79c38d146108135780636d154ea51461086f57600080fd5b806355ee1fe11461076d578063598ee1cb146107805780635c778605146107935780635ec88c79146107a65780635f5af1aa146107b957600080fd5b80634ef4c3e1116103635780634ef4c3e11461070d5780634fd42e171461072057806351b446191461073357806351dff9891461074757806352d84d1e1461075a57600080fd5b806344710fbe1461068d57806347ef3b3b146106a05780634a584432146106b65780634ada90af146106d65780634e79238f146106df57600080fd5b806324a3d62211610438578063391957d7116103fc578063391957d7146106265780633bcf7ec1146106395780633c94786f1461064c57806341c728b91461066057806342cbb15c14610674578063434caf251461067a57600080fd5b806324a3d622146105c757806326782247146105da57806327efe3cb146105ed5780632d70db7814610600578063317b0b771461061357600080fd5b80631d504dc61161047f5780631d504dc6146105415780631d7b33d7146105545780631ededc911461057457806321af45691461058957806324008a62146105b457600080fd5b80627e3dd2146104bb57806302c3bcbb146104d8578063117bc97f1461050657806318c882a51461051b5780631c3db2e01461052e575b600080fd5b6104c3600181565b60405190151581526020015b60405180910390f35b6104f86104e6366004614d4a565b60196020526000908152604090205481565b6040519081526020016104cf565b610519610514366004614d75565b610d2a565b005b6104c3610529366004614d75565b610dc9565b61051961053c366004614e8d565b610f02565b61051961054f366004614d4a565b610f65565b6104f8610562366004614d4a565b600f6020526000908152604090205481565b610519610582366004614edd565b5050505050565b60175461059c906001600160a01b031681565b6040516001600160a01b0390911681526020016104cf565b6104f86105c2366004614f38565b6110e3565b600a5461059c906001600160a01b031681565b60015461059c906001600160a01b031681565b6105196105fb366004614f89565b611218565b6104c361060e366004614fb5565b61130f565b6104f8610621366004614fd2565b6113ff565b610519610634366004614d4a565b6114a6565b6104c3610647366004614d75565b611570565b600a546104c390600160a01b900460ff1681565b61051961066e366004614feb565b50505050565b436104f8565b610519610688366004614f89565b61169a565b61051961069b366004614d75565b6116fc565b6105196106ae366004615031565b505050505050565b6104f86106c4366004614d4a565b60186020526000908152604090205481565b6104f860065481565b6106f26106ed366004614feb565b611781565b604080519384526020840192909252908201526060016104cf565b6104f861071b36600461509f565b6117c1565b6104f861072e366004614fd2565b6118f3565b6016546104c390600160a01b900460ff1681565b610519610755366004614feb565b611950565b61059c610768366004614fd2565b61199f565b6104f861077b366004614d4a565b6119c9565b61051961078e366004614f89565b611a42565b6105196107a136600461509f565b505050565b6106f26107b4366004614d4a565b611b36565b6104f86107c7366004614d4a565b611b71565b6104f86107da3660046150e0565b611bea565b6105196107ed366004615190565b611d43565b610519610800366004615260565b611f21565b61051961066e366004614f38565b61084b610821366004614d4a565b6010602052600090815260409020546001600160e01b03811690600160e01b900463ffffffff1682565b604080516001600160e01b03909316835263ffffffff9091166020830152016104cf565b6104c361087d366004614d4a565b600c6020526000908152604090205460ff1681565b6105196105823660046150e0565b6104c36108ae366004614d4a565b600b6020526000908152604090205460ff1681565b6105196108d1366004614d4a565b612202565b60165461059c906001600160a01b031681565b60045461059c906001600160a01b031681565b61051961090a366004614d4a565b6122ae565b600a546104c390600160b01b900460ff1681565b6104c3610931366004614d4a565b60156020526000908152604090205460ff1681565b61084b610954366004614d4a565b6011602052600090815260409020546001600160e01b03811690600160e01b900463ffffffff1682565b6109d961098c366004614d4a565b60096020526000908152604090208054600182015460028301546003840154600485015460069095015460ff94851695939492939192818116916101008104821691620100009091041688565b60408051981515895260208901979097529587019490945260608601929092526080850152151560a0840152151560c0830152151560e0820152610100016104cf565b6104c3610a2a366004614fb5565b612339565b6104c3610a3d3660046152e9565b6001600160a01b038082166000908152600960209081526040808320938616835260059093019052205460ff1692915050565b6104f860075481565b6104f8610a87366004614d4a565b601a6020526000908152604090205481565b6016546001600160a01b031661059c565b610ac06ec097ce7bc90715b34b9f100000000081565b6040516001600160e01b0390911681526020016104cf565b610519610ae63660046152e9565b612420565b6104f8600e5481565b610b07610b02366004614d4a565b61246f565b6040516104cf9190615317565b600a546104c390600160b81b900460ff1681565b610b076124e5565b6104f8610b3e3660046152e9565b601260209081526000928352604080842090915290825290205481565b610519612547565b60025461059c906001600160a01b031681565b6104f8610b84366004614f38565b6125b6565b6104f8610b97366004614d4a565b601b6020526000908152604090205481565b610bbc610bb7366004615364565b61264d565b6040516104cf9190615399565b610bdc610bd736600461509f565b612715565b604080519283526020830191909152016104cf565b6104f8610bff3660046152e9565b601360209081526000928352604080842090915290825290205481565b6104f8610c2a366004614d4a565b60146020526000908152604090205481565b6104f8610c4a3660046150e0565b612933565b610519610c5d366004614d75565b612ac4565b6104f8610c7036600461509f565b612b58565b61059c610c83366004614f89565b612fa2565b60035461059c906001600160a01b031681565b6104f8610ca9366004614f89565b612fda565b6104f8610cbc3660046153d1565b61316c565b600a546104c390600160a81b900460ff1681565b6104f860055481565b610519610cec366004614d4a565b6132b5565b6104f8610cff36600461509f565b613319565b6104f8610d12366004614d4a565b613350565b60005461059c906001600160a01b031681565b6000546001600160a01b03163314610d955760405162461bcd60e51b8152602060048201526024808201527f6f6e6c792061646d696e2063616e20736574206d61726b657420746f207072696044820152637661746560e01b60648201526084015b60405180910390fd5b6001600160a01b03909116600090815260096020526040902060060180549115156101000261ff0019909216919091179055565b6001600160a01b03821660009081526009602052604081205460ff16610e015760405162461bcd60e51b8152600401610d8c9061541c565b600a546001600160a01b0316331480610e2457506000546001600160a01b031633145b610e405760405162461bcd60e51b8152600401610d8c90615464565b6000546001600160a01b0316331480610e5b57506001821515145b610e775760405162461bcd60e51b8152600401610d8c906154ab565b6001600160a01b0383166000818152600c6020908152604091829020805460ff19168615159081179091558251938452606091840182905260069184019190915265426f72726f7760d01b6080840152908201527f71aec636243f9709bb0007ae15e9afb8150ab01716d75fd7573be5cc096e03b09060a0015b60405180910390a150805b92915050565b604080516001808252818301909252600091602080830190803683370190505090508281600081518110610f3857610f386154db565b60200260200101906001600160a01b031690816001600160a01b0316815250506107a18183600180611f21565b806001600160a01b031663f851a4406040518163ffffffff1660e01b8152600401602060405180830381865afa158015610fa3573d6000803e3d6000fd5b505050506040513d601f19601f82011682018060405250810190610fc791906154f1565b6001600160a01b0316336001600160a01b0316146110375760405162461bcd60e51b815260206004820152602760248201527f6f6e6c7920756e6974726f6c6c65722061646d696e2063616e206368616e676560448201526620627261696e7360c81b6064820152608401610d8c565b806001600160a01b031663c1e803346040518163ffffffff1660e01b81526004016020604051808303816000875af1158015611077573d6000803e3d6000fd5b505050506040513d601f19601f8201168201806040525081019061109b919061550e565b156110e05760405162461bcd60e51b815260206004820152601560248201527418da185b99d9481b9bdd08185d5d1a1bdc9a5e9959605a1b6044820152606401610d8c565b50565b6001600160a01b03841660009081526009602052604081205460ff1661110b57506009611210565b6000859050806001600160a01b031663842e11eb6040518163ffffffff1660e01b8152600401602060405180830381865afa15801561114e573d6000803e3d6000fd5b505050506040513d601f19601f82011682018060405250810190611172919061553d565b15611181576012915050611210565b60006040518060200160405280886001600160a01b031663aa5af0fd6040518163ffffffff1660e01b8152600401602060405180830381865afa1580156111cc573d6000803e3d6000fd5b505050506040513d601f19601f820116820180604052508101906111f0919061550e565b905290506111fe87826136b6565b611209878683613916565b6000925050505b949350505050565b611220613a7c565b61126c5760405162461bcd60e51b815260206004820152601960248201527f6f6e6c792061646d696e2063616e206772616e7420636f6d70000000000000006044820152606401610d8c565b60006112788383613aa5565b905080156112c85760405162461bcd60e51b815260206004820152601b60248201527f696e73756666696369656e7420636f6d7020666f72206772616e7400000000006044820152606401610d8c565b604080516001600160a01b0385168152602081018490527f98b2f82a3a07f223a0be64b3d0f47711c64dccd1feafb94aa28156b38cd9695c910160405180910390a1505050565b600a546000906001600160a01b031633148061133557506000546001600160a01b031633145b6113515760405162461bcd60e51b8152600401610d8c90615464565b6000546001600160a01b031633148061136c57506001821515145b6113885760405162461bcd60e51b8152600401610d8c906154ab565b600a8054831515600160b81b0260ff60b81b199091161790556040517fef159d9a32b2472e32b098f954f3ce62d232939f1c207070b584df1814de2de0906113f39084906040808252600590820152645365697a6560d81b6060820152901515602082015260800190565b60405180910390a15090565b600080546001600160a01b0316331461145a5760405162461bcd60e51b815260206004820152601f60248201527f6f6e6c792061646d696e2063616e2073657420636c6f736520666163746f72006044820152606401610d8c565b600580549083905560408051828152602081018590527f3b9670cf975d26958e754b57098eaa2ac914d8d2a31b83257997b9f346110fd991015b60405180910390a160005b9392505050565b6000546001600160a01b0316331461150f5760405162461bcd60e51b815260206004820152602660248201527f6f6e6c792061646d696e2063616e2073657420626f72726f772063617020677560448201526530b93234b0b760d11b6064820152608401610d8c565b601780546001600160a01b038381166001600160a01b031983168117909355604080519190921680825260208201939093527feda98690e518e9a05f8ec6837663e188211b2da8f4906648b323f2c1d4434e29910160405180910390a15050565b6001600160a01b03821660009081526009602052604081205460ff166115a85760405162461bcd60e51b8152600401610d8c9061541c565b600a546001600160a01b03163314806115cb57506000546001600160a01b031633145b6115e75760405162461bcd60e51b8152600401610d8c90615464565b6000546001600160a01b031633148061160257506001821515145b61161e5760405162461bcd60e51b8152600401610d8c906154ab565b6001600160a01b0383166000818152600b6020908152604091829020805460ff19168615159081179091558251938452606091840182905260049184019190915263135a5b9d60e21b6080840152908201527f71aec636243f9709bb0007ae15e9afb8150ab01716d75fd7573be5cc096e03b09060a001610ef1565b6116a2613a7c565b6116ee5760405162461bcd60e51b815260206004820152601d60248201527f6f6e6c792061646d696e2063616e2073657420636f6d702073706565640000006044820152606401610d8c565b6116f88282613bc7565b5050565b6000546001600160a01b031633146117565760405162461bcd60e51b815260206004820152601e60248201527f6f6e6c792061646d696e2063616e2077686974656c69737420757365727300006044820152606401610d8c565b6001600160a01b03919091166000908152601560205260409020805460ff1916911515919091179055565b6000806000806000806117968a8a8a8a613efe565b9250925092508260128111156117ae576117ae615527565b95509093509150505b9450945094915050565b6001600160a01b0383166000908152600b602052604081205460ff161561181b5760405162461bcd60e51b815260206004820152600e60248201526d1b5a5b9d081a5cc81c185d5cd95960921b6044820152606401610d8c565b6001600160a01b03841660009081526009602052604090205460ff166118455760095b905061149f565b6001600160a01b038416600090815260096020526040902060060154610100900460ff16156118d6576001600160a01b03831660009081526015602052604090205460ff166118d65760405162461bcd60e51b815260206004820181905260248201527f74686973206d61726b65742069732063757272656e746c7920707269766174656044820152606401610d8c565b6118df8461422c565b6118e98484614482565b6000949350505050565b600080546001600160a01b0316331461191257610efc6001600b614626565b600680549083905560408051828152602081018590527faeba5a6c40a8ac138134bff1aaa65debf25971188a58804bad717f82f0ec13169101611494565b8015801561195e5750600082115b1561066e5760405162461bcd60e51b815260206004820152601160248201527072656465656d546f6b656e73207a65726f60781b6044820152606401610d8c565b600d81815481106119af57600080fd5b6000918252602090912001546001600160a01b0316905081565b600080546001600160a01b031633146119e857610efc60016010614626565b600480546001600160a01b038481166001600160a01b031983168117909355604080519190921680825260208201939093527fd52b2b9b7e9ee655fcb95d2e5b9e0c9f69e7ef2b8e9d2d0ea78402d576d22e229101611494565b611a4a613a7c565b611a965760405162461bcd60e51b815260206004820152601d60248201527f6f6e6c792061646d696e2063616e2073657420636f6d702073706565640000006044820152606401610d8c565b611a9f82612202565b80611ac2576001600160a01b0382166000908152601b6020526040812055611add565b436001600160a01b0383166000908152601b60205260409020555b6001600160a01b0382166000818152601a602052604090819020839055517f386537fa92edc3319af95f1f904dcf1900021e4f3f4e08169a577a09076e66b390611b2a9084815260200190565b60405180910390a25050565b600080600080600080611b4d876000806000613efe565b925092509250826012811115611b6557611b65615527565b97919650945092505050565b600080546001600160a01b03163314611b9057610efc60016013614626565b600a80546001600160a01b038481166001600160a01b031983168117909355604080519190921680825260208201939093527f0613b6ee6a04f0d09f390e4d9318894b9f6ac7fd83897cd8d18896ba579c401e9101611494565b6001600160a01b03851660009081526009602052604081205460ff161580611c2b57506001600160a01b03851660009081526009602052604090205460ff16155b15611c3a5760095b9050611d3a565b600080611c468561469f565b91935090915060009050826012811115611c6257611c62615527565b14611c8257816012811115611c7957611c79615527565b92505050611d3a565b80611c8e576003611c79565b6040516395dd919360e01b81526001600160a01b038681166004830152600091908a16906395dd919390602401602060405180830381865afa158015611cd8573d6000803e3d6000fd5b505050506040513d601f19601f82011682018060405250810190611cfc919061550e565b90506000611d1a6040518060200160405280600554815250836146bf565b905080861115611d31576011945050505050611d3a565b60009450505050505b95945050505050565b6000546001600160a01b0316331480611d6657506017546001600160a01b031633145b611dd05760405162461bcd60e51b815260206004820152603560248201527f6f6e6c792061646d696e206f7220626f72726f772063617020677561726469616044820152746e2063616e2073657420626f72726f77206361707360581b6064820152608401610d8c565b82818115801590611de057508082145b611e1c5760405162461bcd60e51b815260206004820152600d60248201526c1a5b9d985b1a59081a5b9c1d5d609a1b6044820152606401610d8c565b60005b82811015611f1857848482818110611e3957611e396154db565b9050602002013560186000898985818110611e5657611e566154db565b9050602002016020810190611e6b9190614d4a565b6001600160a01b03168152602081019190915260400160002055868682818110611e9757611e976154db565b9050602002016020810190611eac9190614d4a565b6001600160a01b03167f6f1951b2aad10f3fc81b86d91105b413a5b3f847a34bbc5ce1904201b14438f6868684818110611ee857611ee86154db565b90506020020135604051611efe91815260200190565b60405180910390a280611f1081615570565b915050611e1f565b50505050505050565b60005b8351811015610582576000848281518110611f4157611f416154db565b6020908102919091018101516001600160a01b0381166000908152600990925260409091205490915060ff16611fb15760405162461bcd60e51b81526020600482015260156024820152741b585c9ad95d081b5d5cdd081899481b1a5cdd1959605a1b6044820152606401610d8c565b600184151514156121225760006040518060200160405280836001600160a01b031663aa5af0fd6040518163ffffffff1660e01b8152600401602060405180830381865afa158015612007573d6000803e3d6000fd5b505050506040513d601f19601f8201168201806040525081019061202b919061550e565b9052905061203982826136b6565b60005b875181101561211f576120698389838151811061205b5761205b6154db565b602002602001015184613916565b6120ca88828151811061207e5761207e6154db565b6020026020010151601460008b858151811061209c5761209c6154db565b60200260200101516001600160a01b03166001600160a01b0316815260200190815260200160002054613aa5565b601460008a84815181106120e0576120e06154db565b60200260200101516001600160a01b03166001600160a01b0316815260200190815260200160002081905550808061211790615570565b91505061203c565b50505b600183151514156121ef576121368161422c565b60005b86518110156121ed5761216582888381518110612158576121586154db565b6020026020010151614482565b61219887828151811061217a5761217a6154db565b6020026020010151601460008a858151811061209c5761209c6154db565b601460008984815181106121ae576121ae6154db565b60200260200101516001600160a01b03166001600160a01b031681526020019081526020016000208190555080806121e590615570565b915050612139565b505b50806121fa81615570565b915050611f24565b6001600160a01b0381166000908152601a6020908152604080832054601b909252822054909143916122359083906146d7565b90506000811180156122475750600083115b1561066e57600061225882856146e3565b6001600160a01b0386166000908152601460205260408120549192509061227f90836146ef565b6001600160a01b038716600090815260146020908152604080832093909355601b905220849055505050505050565b6000546001600160a01b031633146123085760405162461bcd60e51b815260206004820152601e60248201527f6f6e6c792061646d696e2063616e2073657420636f6d704164647265737300006044820152606401610d8c565b601654600160a01b900460ff166110e057601680546001600160a01b0383166001600160a01b031990911617905550565b600a546000906001600160a01b031633148061235f57506000546001600160a01b031633145b61237b5760405162461bcd60e51b8152600401610d8c90615464565b6000546001600160a01b031633148061239657506001821515145b6123b25760405162461bcd60e51b8152600401610d8c906154ab565b600a8054831515600160b01b0260ff60b01b199091161790556040517fef159d9a32b2472e32b098f954f3ce62d232939f1c207070b584df1814de2de0906113f39084906040808252600890820152672a3930b739b332b960c11b6060820152901515602082015260800190565b336001600160a01b038316146124655760405162461bcd60e51b815260206004820152600a6024820152693737ba1031aa37b5b2b760b11b6044820152606401610d8c565b6107a182826146fb565b6001600160a01b03811660009081526008602090815260408083208054825181850281018501909352808352606094938301828280156124d857602002820191906000526020600020905b81546001600160a01b031681526001909101906020018083116124ba575b5093979650505050505050565b6060600d80548060200260200160405190810160405280929190818152602001828054801561253d57602002820191906000526020600020905b81546001600160a01b0316815260019091019060200180831161251f575b5050505050905090565b6000546001600160a01b031633146125a15760405162461bcd60e51b815260206004820152601e60248201527f6f6e6c792061646d696e2063616e2073657420636f6d704164647265737300006044820152606401610d8c565b6016805460ff60a01b1916600160a01b179055565b600a54600090600160b01b900460ff16156126085760405162461bcd60e51b81526020600482015260126024820152711d1c985b9cd9995c881a5cc81c185d5cd95960721b6044820152606401610d8c565b6000612615868685614861565b90508015612624579050611210565b61262d8661422c565b6126378686614482565b6126418685614482565b60009695505050505050565b805160609060008167ffffffffffffffff81111561266d5761266d614dae565b604051908082528060200260200182016040528015612696578160200160208202803683370190505b50905060005b8281101561270d5760008582815181106126b8576126b86154db565b602002602001015190506126cc81336146fb565b60128111156126dd576126dd615527565b8383815181106126ef576126ef6154db565b6020908102919091010152508061270581615570565b91505061269c565b509392505050565b6004805460405163fc57d4df60e01b81526001600160a01b03868116938201939093526000928392839291169063fc57d4df90602401602060405180830381865afa158015612768573d6000803e3d6000fd5b505050506040513d601f19601f8201168201806040525081019061278c919061550e565b6004805460405163fc57d4df60e01b81526001600160a01b038981169382019390935292935060009291169063fc57d4df90602401602060405180830381865afa1580156127de573d6000803e3d6000fd5b505050506040513d601f19601f82011682018060405250810190612802919061550e565b905081158061280f575080155b1561282357600d600093509350505061292b565b6000866001600160a01b031663182df0f56040518163ffffffff1660e01b8152600401602060405180830381865afa158015612863573d6000803e3d6000fd5b505050506040513d601f19601f82011682018060405250810190612887919061550e565b905060006128a16040518060200160405280600081525090565b6040805160208082018352600080835283518083018552908152835180830185526006548152845192830190945288825291926128dd91614910565b9250612905604051806020016040528088815250604051806020016040528088815250614910565b91506129118383614958565b905061291d818b6146bf565b600099509750505050505050505b935093915050565b600a54600090600160b81b900460ff16156129825760405162461bcd60e51b815260206004820152600f60248201526e1cd95a5e99481a5cc81c185d5cd959608a1b6044820152606401610d8c565b6001600160a01b03861660009081526009602052604090205460ff1615806129c357506001600160a01b03851660009081526009602052604090205460ff16155b156129cf576009611c33565b846001600160a01b0316635fe3b5676040518163ffffffff1660e01b8152600401602060405180830381865afa158015612a0d573d6000803e3d6000fd5b505050506040513d601f19601f82011682018060405250810190612a3191906154f1565b6001600160a01b0316866001600160a01b0316635fe3b5676040518163ffffffff1660e01b8152600401602060405180830381865afa158015612a78573d6000803e3d6000fd5b505050506040513d601f19601f82011682018060405250810190612a9c91906154f1565b6001600160a01b031614612ab1576002611c33565b612aba8661422c565b6126378684614482565b6000546001600160a01b03163314612b2a5760405162461bcd60e51b815260206004820152602360248201527f6f6e6c792061646d696e2063616e20736574206d61726b657420746f20636f6d6044820152621c195960ea1b6064820152608401610d8c565b6001600160a01b03919091166000908152600960205260409020600601805460ff1916911515919091179055565b6001600160a01b0383166000908152600c602052604081205460ff1615612bb45760405162461bcd60e51b815260206004820152601060248201526f189bdc9c9bddc81a5cc81c185d5cd95960821b6044820152606401610d8c565b6001600160a01b03841660009081526009602052604090205460ff16612bdb57600961183e565b6000849050806001600160a01b031663842e11eb6040518163ffffffff1660e01b8152600401602060405180830381865afa158015612c1e573d6000803e3d6000fd5b505050506040513d601f19601f82011682018060405250810190612c42919061553d565b15612c525760125b91505061149f565b6001600160a01b038086166000908152600960209081526040808320938816835260059093019052205460ff16612d5057336001600160a01b03861614612cd35760405162461bcd60e51b815260206004820152601560248201527439b2b73232b91036bab9ba1031329031aa37b5b2b760591b6044820152606401610d8c565b6000612cdf33866146fb565b90506000816012811115612cf557612cf5615527565b14612d1557806012811115612d0c57612d0c615527565b9250505061149f565b6001600160a01b038087166000908152600960209081526040808320938916835260059093019052205460ff16612d4e57612d4e61558b565b505b6004805460405163fc57d4df60e01b81526001600160a01b038881169382019390935291169063fc57d4df90602401602060405180830381865afa158015612d9c573d6000803e3d6000fd5b505050506040513d601f19601f82011682018060405250810190612dc0919061550e565b612dcb57600d612c4a565b6001600160a01b0385166000908152601860205260409020548015612eb0576000866001600160a01b03166347bd37186040518163ffffffff1660e01b8152600401602060405180830381865afa158015612e2a573d6000803e3d6000fd5b505050506040513d601f19601f82011682018060405250810190612e4e919061550e565b90506000612e5c82876146ef565b9050828110612ead5760405162461bcd60e51b815260206004820152601960248201527f6d61726b657420626f72726f77206361702072656163686564000000000000006044820152606401610d8c565b50505b600080612ec08789600089613efe565b91935090915060009050826012811115612edc57612edc615527565b14612efe57816012811115612ef357612ef3615527565b94505050505061149f565b8015612f0b576004612ef3565b600060405180602001604052808a6001600160a01b031663aa5af0fd6040518163ffffffff1660e01b8152600401602060405180830381865afa158015612f56573d6000803e3d6000fd5b505050506040513d601f19601f82011682018060405250810190612f7a919061550e565b90529050612f8889826136b6565b612f93898983613916565b60009998505050505050505050565b60086020528160005260406000208181548110612fbe57600080fd5b6000918252602090912001546001600160a01b03169150829050565b600080546001600160a01b0316331461300057612ff960016006614626565b9050610efc565b6001600160a01b0383166000908152600960205260409020805460ff166130355761302d60096007614626565b915050610efc565b60408051602080820183528582528251908101909252670d99a8cec7e2000082529061306381835190511090565b1561307e5761307460066008614626565b9350505050610efc565b84158015906130fa57506004805460405163fc57d4df60e01b81526001600160a01b038981169382019390935291169063fc57d4df90602401602060405180830381865afa1580156130d4573d6000803e3d6000fd5b505050506040513d601f19601f820116820180604052508101906130f8919061550e565b155b1561310b57613074600d6009614626565b60018301805490869055604080516001600160a01b0389168152602081018390529081018790527f70483e6592cd5182d45ac970e05bc62cdcc90e9d8ef2c2dbe686cf383bcd7fc59060600160405180910390a16000979650505050505050565b600080546001600160a01b0316331461318b5761183e60016012614626565b6001600160a01b03841660009081526009602052604090205460ff16156131b85761183e600a6011614626565b836001600160a01b031663fe9c44ae6040518163ffffffff1660e01b8152600401602060405180830381865afa1580156131f6573d6000803e3d6000fd5b505050506040513d601f19601f8201168201806040525081019061321a919061553d565b506001600160a01b03841660009081526009602052604081208054600160ff199091168117825560068201805461ffff191687151561ff001916176101008715150217905581019190915561326e85614992565b6040516001600160a01b03861681527fcf583bb0c569eb967f806b11601c4cb93c10310485c67add5f8362c2f212321f9060200160405180910390a1600095945050505050565b6110e081600d80548060200260200160405190810160405280929190818152602001828054801561330f57602002820191906000526020600020905b81546001600160a01b031681526001909101906020018083116132f1575b5050505050610f02565b600080613327858585614861565b9050801561333657905061149f565b61333f8561422c565b6133498585614482565b6000611d3a565b6040516361bfb47160e11b815233600482015260009082908290819081906001600160a01b0385169063c37f68e290602401608060405180830381865afa15801561339f573d6000803e3d6000fd5b505050506040513d601f19601f820116820180604052508101906133c391906155a1565b50925092509250826000146134285760405162461bcd60e51b815260206004820152602560248201527f657869744d61726b65743a206765744163636f756e74536e617073686f742066604482015264185a5b195960da1b6064820152608401610d8c565b80156134445761343a600c6002614626565b9695505050505050565b6000613451873385614861565b9050801561347157613466600e600383614a7b565b979650505050505050565b6001600160a01b0385166000908152600960209081526040808320338452600581019092529091205460ff166134af57600098975050505050505050565b3360009081526005820160209081526040808320805460ff19169055600882528083208054825181850281018501909352808352919290919083018282801561352157602002820191906000526020600020905b81546001600160a01b03168152600190910190602001808311613503575b5050835193945083925060009150505b8281101561358657896001600160a01b0316848281518110613555576135556154db565b60200260200101516001600160a01b0316141561357457809150613586565b8061357e81615570565b915050613531565b508181106135965761359661558b565b336000908152600860205260409020805481906135b5906001906155d7565b815481106135c5576135c56154db565b9060005260206000200160009054906101000a90046001600160a01b03168183815481106135f5576135f56154db565b9060005260206000200160006101000a8154816001600160a01b0302191690836001600160a01b0316021790555080805480613633576136336155ee565b600082815260209020810160001990810180546001600160a01b03191690550190556040517fe699a64c18b07ac5b7301aa273f36a2287239eb9501d81950672794afba29a0d9061369c908c9033906001600160a01b0392831681529116602082015260400190565b60405180910390a160009c9b505050505050505050505050565b6001600160a01b0382166000908152601160209081526040808320600f90925282205490914383549091506000906136fc908390600160e01b900463ffffffff166146d7565b905060008111801561370e5750600083115b156138bc576000613780876001600160a01b03166347bd37186040518163ffffffff1660e01b8152600401602060405180830381865afa158015613756573d6000803e3d6000fd5b505050506040513d601f19601f8201168201806040525081019061377a919061550e565b87614af3565b9050600061378e83866146e3565b905060008083116137ae57604051806020016040528060008152506137b8565b6137b88284614b11565b604080516020810190915288546001600160e01b031681529091506000906137e09083614b4d565b9050604051806040016040528061383083600001516040518060400160405280601a81526020017f6e657720696e6465782065786365656473203232342062697473000000000000815250614b79565b6001600160e01b0316815260200161386b886040518060400160405280601c81526020016000805160206156b3833981519152815250614ba8565b63ffffffff9081169091526001600160a01b038c16600090815260116020908152604090912083519390910151909116600160e01b026001600160e01b03909216919091179055506106ae92505050565b80156106ae576138ef826040518060400160405280601c81526020016000805160206156b3833981519152815250614ba8565b845463ffffffff91909116600160e01b026001600160e01b03909116178455505050505050565b6001600160a01b0380841660008181526011602090815260408083208151808401835281546001600160e01b0316815282518085018452958552601384528285209689168086528785529285208054875281519390955295909252909155815190929190156106ae57600061398b8383614bd0565b6040516395dd919360e01b81526001600160a01b0388811660048301529192506000916139dc91908a16906395dd919390602401602060405180830381865afa158015613756573d6000803e3d6000fd5b905060006139ea8284614bfc565b6001600160a01b03891660009081526014602052604081205491925090613a1190836146ef565b6001600160a01b038a81166000818152601460209081526040918290208590558a518251888152918201529394509092918d16917f1fc3ecc087d8d2d15e23d0032af5a47059c3892d003d8e139fdcb6bb327c99a6910160405180910390a350505050505050505050565b600080546001600160a01b0316331480613aa057506002546001600160a01b031633145b905090565b600080613aba6016546001600160a01b031690565b6040516370a0823160e01b81523060048201529091506000906001600160a01b038316906370a0823190602401602060405180830381865afa158015613b04573d6000803e3d6000fd5b505050506040513d601f19601f82011682018060405250810190613b28919061550e565b9050600084118015613b3a5750808411155b15613bbe5760405163a9059cbb60e01b81526001600160a01b0386811660048301526024820186905283169063a9059cbb906044016020604051808303816000875af1158015613b8e573d6000803e3d6000fd5b505050506040513d601f19601f82011682018060405250810190613bb2919061553d565b50600092505050610efc565b50919392505050565b6001600160a01b0382166000908152600f60205260409020548015613c725760006040518060200160405280856001600160a01b031663aa5af0fd6040518163ffffffff1660e01b8152600401602060405180830381865afa158015613c31573d6000803e3d6000fd5b505050506040513d601f19601f82011682018060405250810190613c55919061550e565b90529050613c628461422c565b613c6c84826136b6565b50613e9d565b8115613e9d576001600160a01b0383166000908152600960205260409020805460ff161515600114613ce65760405162461bcd60e51b815260206004820152601960248201527f636f6d70206d61726b6574206973206e6f74206c6973746564000000000000006044820152606401610d8c565b6001600160a01b0384166000908152601060205260409020546001600160e01b0316158015613d3857506001600160a01b038416600090815260106020526040902054600160e01b900463ffffffff16155b15613dd357604080518082019091526ec097ce7bc90715b34b9f1000000000815260208101613d8b435b6040518060400160405280601c81526020016000805160206156b3833981519152815250614ba8565b63ffffffff9081169091526001600160a01b038616600090815260106020908152604090912083519390910151909116600160e01b026001600160e01b039092169190911790555b6001600160a01b0384166000908152601160205260409020546001600160e01b0316158015613e2557506001600160a01b038416600090815260116020526040902054600160e01b900463ffffffff16155b15613e9b57604080518082019091526ec097ce7bc90715b34b9f1000000000815260208101613e5343613d62565b63ffffffff9081169091526001600160a01b038616600090815260116020908152604090912083519390910151909116600160e01b026001600160e01b039092169190911790555b505b8181146107a1576001600160a01b0383166000818152600f602052604090819020849055517f2ab93f65628379309f36cb125e90d7c902454a545c4f8b8cb0794af75c24b80790613ef19085815260200190565b60405180910390a2505050565b6000806000613f0b614c93565b6001600160a01b038816600090815260086020908152604080832080548251818502810185019093528083528493830182828015613f7257602002820191906000526020600020905b81546001600160a01b03168152600190910190602001808311613f54575b5050505050905060005b81518110156141d6576000828281518110613f9957613f996154db565b60209081029190910101516040516361bfb47160e11b81526001600160a01b038e811660048301529192509082169063c37f68e290602401608060405180830381865afa158015613fee573d6000803e3d6000fd5b505050506040513d601f19601f8201168201806040525081019061401291906155a1565b6080890152606088015260408701529350831561403e57600f60008097509750975050505050506117b7565b60408051602080820183526001600160a01b0384811660008181526009845285902060010154845260c08a01939093528351808301855260808a0151815260e08a015260048054855163fc57d4df60e01b815291820194909452935192169263fc57d4df92602480830193928290030181865afa1580156140c3573d6000803e3d6000fd5b505050506040513d601f19601f820116820180604052508101906140e7919061550e565b60a0860181905261410757600d60008097509750975050505050506117b7565b604080516020810190915260a0860151815261010086015260c085015160e08601516141419161413691614910565b866101000151614910565b61012086018190526040860151865161415b929190614c26565b855261010085015160608601516020870151614178929190614c26565b60208601526001600160a01b03818116908c1614156141c3576141a58561012001518b8760200151614c26565b602086018190526101008601516141bd918b90614c26565b60208601525b50806141ce81615570565b915050613f7c565b5060208301518351111561420757602083015183516000916141f7916155d7565b60009550955095505050506117b7565b6000808460000151856020015161421e91906155d7565b9550955095505050506117b7565b6001600160a01b0381166000908152601060209081526040808320600f9092528220549091438354909150600090614272908390600160e01b900463ffffffff166146d7565b90506000811180156142845750600083115b15614429576000856001600160a01b03166318160ddd6040518163ffffffff1660e01b8152600401602060405180830381865afa1580156142c9573d6000803e3d6000fd5b505050506040513d601f19601f820116820180604052508101906142ed919061550e565b905060006142fb83866146e3565b9050600080831161431b5760405180602001604052806000815250614325565b6143258284614b11565b604080516020810190915288546001600160e01b0316815290915060009061434d9083614b4d565b9050604051806040016040528061439d83600001516040518060400160405280601a81526020017f6e657720696e6465782065786365656473203232342062697473000000000000815250614b79565b6001600160e01b031681526020016143d8886040518060400160405280601c81526020016000805160206156b3833981519152815250614ba8565b63ffffffff9081169091526001600160a01b038b16600090815260106020908152604090912083519390910151909116600160e01b026001600160e01b039092169190911790555061058292505050565b80156105825761445c826040518060400160405280601c81526020016000805160206156b3833981519152815250614ba8565b845463ffffffff91909116600160e01b026001600160e01b039091161784555050505050565b6001600160a01b0380831660008181526010602090815260408083208151808401835281546001600160e01b03168152825180850184529585526012845282852096881680865287855292852080548752815193909552959092529091558151909291901580156144f35750815115155b1561450b576ec097ce7bc90715b34b9f100000000081525b60006145178383614bd0565b6040516370a0823160e01b81526001600160a01b0387811660048301529192506000918816906370a0823190602401602060405180830381865afa158015614563573d6000803e3d6000fd5b505050506040513d601f19601f82011682018060405250810190614587919061550e565b905060006145958284614bfc565b6001600160a01b038816600090815260146020526040812054919250906145bc90836146ef565b6001600160a01b038981166000818152601460209081526040918290208590558a518251888152918201529394509092918c16917f2caecd17d02f56fa897705dcc740da2d237c373f70686f4e0d9bd3bf0400ea7a910160405180910390a3505050505050505050565b60007f45b96fe442630264581b197e84bbada861235052c5a1aadfff9ea4e40a969aa083601281111561465b5761465b615527565b83601381111561466d5761466d615527565b60408051928352602083019190915260009082015260600160405180910390a182601281111561149f5761149f615527565b60008060006146b2846000806000613efe565b9250925092509193909250565b6000806146cc8484614c47565b905061121081614c6f565b600061149f82846155d7565b600061149f8284615604565b600061149f8284615623565b6001600160a01b0382166000908152600960205260408120805460ff16614726576009915050610efc565b6006810154610100900460ff1615614797573360009081526015602052604090205460ff166147975760405162461bcd60e51b815260206004820181905260248201527f74686973206d61726b65742069732063757272656e746c7920707269766174656044820152606401610d8c565b6001600160a01b038316600090815260058201602052604090205460ff161515600114156147c9576000915050610efc565b6001600160a01b03838116600081815260058401602090815260408083208054600160ff199091168117909155600883528184208054918201815584529282902090920180546001600160a01b031916948916948517905581519384528301919091527f3ab23ab0d51cccc0c3085aec51f99228625aa1a922b3a8ca89a26b0f2027a1a5910160405180910390a15060009392505050565b6001600160a01b03831660009081526009602052604081205460ff1661488857600961183e565b6001600160a01b038085166000908152600960209081526040808320938716835260059093019052205460ff166148c057600061183e565b6000806148d08587866000613efe565b919350909150600090508260128111156148ec576148ec615527565b1461490357816012811115612d0c57612d0c615527565b8015612641576004612d0c565b6040805160208101909152600081526040518060200160405280670de0b6b3a7640000614945866000015186600001516146e3565b61494f919061563b565b90529392505050565b604080516020810190915260008152604051806020016040528061494f61498b8660000151670de0b6b3a76400006146e3565b8551614c87565b60005b600d54811015614a2857816001600160a01b0316600d82815481106149bc576149bc6154db565b6000918252602090912001546001600160a01b03161415614a165760405162461bcd60e51b81526020600482015260146024820152731b585c9ad95d08185b1c9958591e48185919195960621b6044820152606401610d8c565b80614a2081615570565b915050614995565b50600d80546001810182556000919091527fd7b6990105719101dabeb77144f2a3385c8033acd3af97e9423a695e81ad1eb50180546001600160a01b0319166001600160a01b0392909216919091179055565b60007f45b96fe442630264581b197e84bbada861235052c5a1aadfff9ea4e40a969aa0846012811115614ab057614ab0615527565b846013811115614ac257614ac2615527565b604080519283526020830191909152810184905260600160405180910390a183601281111561121057611210615527565b600061149f614b0a84670de0b6b3a76400006146e3565b8351614c87565b604080516020810190915260008152604051806020016040528061494f614b47866ec097ce7bc90715b34b9f10000000006146e3565b85614c87565b604080516020810190915260008152604051806020016040528061494f856000015185600001516146ef565b600081600160e01b8410614ba05760405162461bcd60e51b8152600401610d8c919061565d565b509192915050565b6000816401000000008410614ba05760405162461bcd60e51b8152600401610d8c919061565d565b604080516020810190915260008152604051806020016040528061494f856000015185600001516146d7565b60006ec097ce7bc90715b34b9f1000000000614c1c8484600001516146e3565b61149f919061563b565b600080614c338585614c47565b9050611d3a614c4182614c6f565b846146ef565b604080516020810190915260008152604051806020016040528061494f8560000151856146e3565b8051600090610efc90670de0b6b3a76400009061563b565b600061149f828461563b565b604051806101400160405280600081526020016000815260200160008152602001600081526020016000815260200160008152602001614cdf6040518060200160405280600081525090565b8152602001614cfa6040518060200160405280600081525090565b8152602001614d156040518060200160405280600081525090565b8152602001614d306040518060200160405280600081525090565b905290565b6001600160a01b03811681146110e057600080fd5b600060208284031215614d5c57600080fd5b813561149f81614d35565b80151581146110e057600080fd5b60008060408385031215614d8857600080fd5b8235614d9381614d35565b91506020830135614da381614d67565b809150509250929050565b634e487b7160e01b600052604160045260246000fd5b604051601f8201601f1916810167ffffffffffffffff81118282101715614ded57614ded614dae565b604052919050565b600067ffffffffffffffff821115614e0f57614e0f614dae565b5060051b60200190565b600082601f830112614e2a57600080fd5b81356020614e3f614e3a83614df5565b614dc4565b82815260059290921b84018101918181019086841115614e5e57600080fd5b8286015b84811015614e82578035614e7581614d35565b8352918301918301614e62565b509695505050505050565b60008060408385031215614ea057600080fd5b8235614eab81614d35565b9150602083013567ffffffffffffffff811115614ec757600080fd5b614ed385828601614e19565b9150509250929050565b600080600080600060a08688031215614ef557600080fd5b8535614f0081614d35565b94506020860135614f1081614d35565b93506040860135614f2081614d35565b94979396509394606081013594506080013592915050565b60008060008060808587031215614f4e57600080fd5b8435614f5981614d35565b93506020850135614f6981614d35565b92506040850135614f7981614d35565b9396929550929360600135925050565b60008060408385031215614f9c57600080fd5b8235614fa781614d35565b946020939093013593505050565b600060208284031215614fc757600080fd5b813561149f81614d67565b600060208284031215614fe457600080fd5b5035919050565b6000806000806080858703121561500157600080fd5b843561500c81614d35565b9350602085013561501c81614d35565b93969395505050506040820135916060013590565b60008060008060008060c0878903121561504a57600080fd5b863561505581614d35565b9550602087013561506581614d35565b9450604087013561507581614d35565b9350606087013561508581614d35565b9598949750929560808101359460a0909101359350915050565b6000806000606084860312156150b457600080fd5b83356150bf81614d35565b925060208401356150cf81614d35565b929592945050506040919091013590565b600080600080600060a086880312156150f857600080fd5b853561510381614d35565b9450602086013561511381614d35565b9350604086013561512381614d35565b9250606086013561513381614d35565b949793965091946080013592915050565b60008083601f84011261515657600080fd5b50813567ffffffffffffffff81111561516e57600080fd5b6020830191508360208260051b850101111561518957600080fd5b9250929050565b600080600080604085870312156151a657600080fd5b843567ffffffffffffffff808211156151be57600080fd5b6151ca88838901615144565b909650945060208701359150808211156151e357600080fd5b506151f087828801615144565b95989497509550505050565b600082601f83011261520d57600080fd5b8135602061521d614e3a83614df5565b82815260059290921b8401810191818101908684111561523c57600080fd5b8286015b84811015614e8257803561525381614d35565b8352918301918301615240565b6000806000806080858703121561527657600080fd5b843567ffffffffffffffff8082111561528e57600080fd5b61529a888389016151fc565b955060208701359150808211156152b057600080fd5b506152bd87828801614e19565b93505060408501356152ce81614d67565b915060608501356152de81614d67565b939692955090935050565b600080604083850312156152fc57600080fd5b823561530781614d35565b91506020830135614da381614d35565b6020808252825182820181905260009190848201906040850190845b818110156153585783516001600160a01b031683529284019291840191600101615333565b50909695505050505050565b60006020828403121561537657600080fd5b813567ffffffffffffffff81111561538d57600080fd5b611210848285016151fc565b6020808252825182820181905260009190848201906040850190845b81811015615358578351835292840192918401916001016153b5565b6000806000606084860312156153e657600080fd5b83356153f181614d35565b9250602084013561540181614d67565b9150604084013561541181614d67565b809150509250925092565b60208082526028908201527f63616e6e6f742070617573652061206d61726b65742074686174206973206e6f6040820152671d081b1a5cdd195960c21b606082015260800190565b60208082526027908201527f6f6e6c7920706175736520677561726469616e20616e642061646d696e2063616040820152666e20706175736560c81b606082015260800190565b6020808252601690820152756f6e6c792061646d696e2063616e20756e706175736560501b604082015260600190565b634e487b7160e01b600052603260045260246000fd5b60006020828403121561550357600080fd5b815161149f81614d35565b60006020828403121561552057600080fd5b5051919050565b634e487b7160e01b600052602160045260246000fd5b60006020828403121561554f57600080fd5b815161149f81614d67565b634e487b7160e01b600052601160045260246000fd5b60006000198214156155845761558461555a565b5060010190565b634e487b7160e01b600052600160045260246000fd5b600080600080608085870312156155b757600080fd5b505082516020840151604085015160609095015191969095509092509050565b6000828210156155e9576155e961555a565b500390565b634e487b7160e01b600052603160045260246000fd5b600081600019048311821515161561561e5761561e61555a565b500290565b600082198211156156365761563661555a565b500190565b60008261565857634e487b7160e01b600052601260045260246000fd5b500490565b600060208083528351808285015260005b8181101561568a5785810183015185820160400152820161566e565b8181111561569c576000604083870101525b50601f01601f191692909201604001939250505056fe626c6f636b206e756d6265722065786365656473203332206269747300000000a2646970667358221220b219b17d021af3a211e2bb2da4cbaac6d265127842a7c16ff3065948ab2b000864736f6c634300080a0033",
  "linkReferences": {},
  "deployedLinkReferences": {}
}