{
  "_format": "hh-sol-artifact-1",
  "contractName": "GMXPriceOracle",
  "sourceName": "contracts/GMXPriceOracle.sol",
  "abi": [
    {
      "inputs": [],
      "name": "getGlpAum",
      "outputs": [
        {
          "internalType": "uint256",
          "name": "",
          "type": "uint256"
        }
      ],
      "stateMutability": "view",
      "type": "function"
    },
    {
      "inputs": [],
      "name": "getGlpSupply",
      "outputs": [
        {
          "internalType": "uint256",
          "name": "",
          "type": "uint256"
        }
      ],
      "stateMutability": "view",
      "type": "function"
    },
    {
      "inputs": [
        {
          "internalType": "contract CToken",
          "name": "cToken",
          "type": "address"
        }
      ],
      "name": "getUnderlyingPrice",
      "outputs": [
        {
          "internalType": "uint256",
          "name": "",
          "type": "uint256"
        }
      ],
      "stateMutability": "view",
      "type": "function"
    },
    {
      "inputs": [],
      "name": "glpManager",
      "outputs": [
        {
          "internalType": "contract GlpManager",
          "name": "",
          "type": "address"
        }
      ],
      "stateMutability": "view",
      "type": "function"
    },
    {
      "inputs": [],
      "name": "glpToken",
      "outputs": [
        {
          "internalType": "contract IERC20",
          "name": "",
          "type": "address"
        }
      ],
      "stateMutability": "view",
      "type": "function"
    },
    {
      "inputs": [],
      "name": "gmxPriceFeed",
      "outputs": [
        {
          "internalType": "contract IVaultPriceFeed",
          "name": "",
          "type": "address"
        }
      ],
      "stateMutability": "view",
      "type": "function"
    },
    {
      "inputs": [],
      "name": "gmxTokenPriceOracle",
      "outputs": [
        {
          "internalType": "contract GmxTokenPriceOracle",
          "name": "",
          "type": "address"
        }
      ],
      "stateMutability": "view",
      "type": "function"
    },
    {
      "inputs": [],
      "name": "isPriceOracle",
      "outputs": [
        {
          "internalType": "bool",
          "name": "",
          "type": "bool"
        }
      ],
      "stateMutability": "view",
      "type": "function"
    }
  ],
  "bytecode": "0x6080604052600080546001600160a01b0319908116734277f8f2c384827b5273592ff7cebd9f2c1ac2581790915560018054821673321f653eed006ad1c29d174e17d96351bde2264917905560028054821673a18bb1003686d0854ef989bb936211c59eb6e363179055600380549091167360e07b25ba79bf8d40831cdbda60cf49571c7ee017905534801561009457600080fd5b506109d9806100a46000396000f3fe608060405234801561001057600080fd5b50600436106100885760003560e01c80638574ab741161005b5780638574ab74146100f3578063b51de18e14610106578063fa6db1bc14610119578063fc57d4df1461012c57600080fd5b806308e504ff1461008d57806366331bba146100bd578063792596aa146100d55780637dfeda25146100eb575b600080fd5b6003546100a0906001600160a01b031681565b6040516001600160a01b0390911681526020015b60405180910390f35b6100c5600181565b60405190151581526020016100b4565b6100dd61013f565b6040519081526020016100b4565b6100dd6101b6565b6000546100a0906001600160a01b031681565b6002546100a0906001600160a01b031681565b6001546100a0906001600160a01b031681565b6100dd61013a36600461079d565b61020a565b60018054604051630345051f60e51b815260048101929092526000916001600160a01b03909116906368a0a3e090602401602060405180830381865afa15801561018d573d6000803e3d6000fd5b505050506040513d601f19601f820116820180604052508101906101b191906107ba565b905090565b60008060009054906101000a90046001600160a01b03166001600160a01b03166318160ddd6040518163ffffffff1660e01b8152600401602060405180830381865afa15801561018d573d6000803e3d6000fd5b6000816001600160a01b031663842e11eb6040518163ffffffff1660e01b8152600401602060405180830381865afa15801561024a573d6000803e3d6000fd5b505050506040513d601f19601f8201168201806040525081019061026e91906107d3565b1561037357600054604080516318160ddd60e01b8152905161036d926001600160a01b0316916318160ddd9160048083019260209291908290030181865afa1580156102be573d6000803e3d6000fd5b505050506040513d601f19601f820116820180604052508101906102e291906107ba565b60018054604051630345051f60e51b81526004810192909252610367916b204fce5e3e25026110000000916001600160a01b0316906368a0a3e090602401602060405180830381865afa15801561033d573d6000803e3d6000fd5b505050506040513d601f19601f8201168201806040525081019061036191906107ba565b90610518565b906105a3565b92915050565b6103fe826001600160a01b03166395d89b416040518163ffffffff1660e01b8152600401600060405180830381865afa1580156103b4573d6000803e3d6000fd5b505050506040513d6000823e601f3d908101601f191682016040526103dc919081019061083b565b604051806040016040528060048152602001630e88e9ab60e31b8152506105e5565b1561047a57600360009054906101000a90046001600160a01b03166001600160a01b031663e1aa60366040518163ffffffff1660e01b8152600401602060405180830381865afa158015610456573d6000803e3d6000fd5b505050506040513d601f19601f8201168201806040525081019061036d91906107ba565b60025461036d906064906001600160a01b0316632fc3a70a61049b8661063e565b6040516001600160e01b031960e084901b1681526001600160a01b039091166004820152600160248201819052604482015260006064820152608401602060405180830381865afa1580156104f4573d6000803e3d6000fd5b505050506040513d601f19601f8201168201806040525081019061036791906107ba565b6000826105275750600061036d565b600061053383856108e8565b9050826105408583610915565b1461059c5760405162461bcd60e51b815260206004820152602160248201527f536166654d6174683a206d756c7469706c69636174696f6e206f766572666c6f6044820152607760f81b60648201526084015b60405180910390fd5b9392505050565b600061059c83836040518060400160405280601a81526020017f536166654d6174683a206469766973696f6e206279207a65726f00000000000081525061074e565b6000816040516020016105f89190610937565b604051602081830303815290604052805190602001208360405160200161061f9190610937565b6040516020818303038152906040528051906020012014905092915050565b6000806106cc836001600160a01b03166395d89b416040518163ffffffff1660e01b8152600401600060405180830381865afa158015610682573d6000803e3d6000fd5b505050506040513d6000823e601f3d908101601f191682016040526106aa919081019061083b565b604051806040016040528060048152602001630e88aa8960e31b8152506105e5565b156106ec57507382af49447d8a07e3bd95bd0d56f35241523fbab161036d565b826001600160a01b0316636f307dc36040518163ffffffff1660e01b8152600401602060405180830381865afa15801561072a573d6000803e3d6000fd5b505050506040513d601f19601f8201168201806040525081019061059c9190610953565b6000818361076f5760405162461bcd60e51b81526004016105939190610970565b50600061077c8486610915565b95945050505050565b6001600160a01b038116811461079a57600080fd5b50565b6000602082840312156107af57600080fd5b813561059c81610785565b6000602082840312156107cc57600080fd5b5051919050565b6000602082840312156107e557600080fd5b8151801515811461059c57600080fd5b634e487b7160e01b600052604160045260246000fd5b60005b8381101561082657818101518382015260200161080e565b83811115610835576000848401525b50505050565b60006020828403121561084d57600080fd5b815167ffffffffffffffff8082111561086557600080fd5b818401915084601f83011261087957600080fd5b81518181111561088b5761088b6107f5565b604051601f8201601f19908116603f011681019083821181831017156108b3576108b36107f5565b816040528281528760208487010111156108cc57600080fd5b6108dd83602083016020880161080b565b979650505050505050565b600081600019048311821515161561091057634e487b7160e01b600052601160045260246000fd5b500290565b60008261093257634e487b7160e01b600052601260045260246000fd5b500490565b6000825161094981846020870161080b565b9190910192915050565b60006020828403121561096557600080fd5b815161059c81610785565b602081526000825180602084015261098f81604085016020870161080b565b601f01601f1916919091016040019291505056fea2646970667358221220361e53e6f0036925ae705235e69e9444f799e50f9fb1bac744100dfcef34363164736f6c634300080a0033",
  "linkReferences": {},
  "deployedLinkReferences": {}
}