{
  "_format": "hh-sol-artifact-1",
  "contractName": "DAIInterestRateModelV3",
  "sourceName": "contracts/DAIInterestRateModelV3.sol",
  "abi": [
    {
      "inputs": [
        {
          "internalType": "uint256",
          "name": "jumpMultiplierPerYear",
          "type": "uint256"
        },
        {
          "internalType": "uint256",
          "name": "kink_",
          "type": "uint256"
        },
        {
          "internalType": "address",
          "name": "pot_",
          "type": "address"
        },
        {
          "internalType": "address",
          "name": "jug_",
          "type": "address"
        },
        {
          "internalType": "address",
          "name": "owner_",
          "type": "address"
        }
      ],
      "stateMutability": "nonpayable",
      "type": "constructor"
    },
    {
      "anonymous": false,
      "inputs": [
        {
          "indexed": false,
          "internalType": "uint256",
          "name": "baseRatePerBlock",
          "type": "uint256"
        },
        {
          "indexed": false,
          "internalType": "uint256",
          "name": "multiplierPerBlock",
          "type": "uint256"
        },
        {
          "indexed": false,
          "internalType": "uint256",
          "name": "jumpMultiplierPerBlock",
          "type": "uint256"
        },
        {
          "indexed": false,
          "internalType": "uint256",
          "name": "kink",
          "type": "uint256"
        }
      ],
      "name": "NewInterestParams",
      "type": "event"
    },
    {
      "inputs": [],
      "name": "assumedOneMinusReserveFactorMantissa",
      "outputs": [
        {
          "internalType": "uint256",
          "name": "",
          "type": "uint256"
        }
      ],
      "stateMutability": "view",
      "type": "function"
    },
    {
      "inputs": [],
      "name": "baseRatePerBlock",
      "outputs": [
        {
          "internalType": "uint256",
          "name": "",
          "type": "uint256"
        }
      ],
      "stateMutability": "view",
      "type": "function"
    },
    {
      "inputs": [],
      "name": "blocksPerYear",
      "outputs": [
        {
          "internalType": "uint256",
          "name": "",
          "type": "uint256"
        }
      ],
      "stateMutability": "view",
      "type": "function"
    },
    {
      "inputs": [],
      "name": "dsrPerBlock",
      "outputs": [
        {
          "internalType": "uint256",
          "name": "",
          "type": "uint256"
        }
      ],
      "stateMutability": "view",
      "type": "function"
    },
    {
      "inputs": [],
      "name": "gapPerBlock",
      "outputs": [
        {
          "internalType": "uint256",
          "name": "",
          "type": "uint256"
        }
      ],
      "stateMutability": "view",
      "type": "function"
    },
    {
      "inputs": [
        {
          "internalType": "uint256",
          "name": "cash",
          "type": "uint256"
        },
        {
          "internalType": "uint256",
          "name": "borrows",
          "type": "uint256"
        },
        {
          "internalType": "uint256",
          "name": "reserves",
          "type": "uint256"
        }
      ],
      "name": "getBorrowRate",
      "outputs": [
        {
          "internalType": "uint256",
          "name": "",
          "type": "uint256"
        }
      ],
      "stateMutability": "view",
      "type": "function"
    },
    {
      "inputs": [
        {
          "internalType": "uint256",
          "name": "cash",
          "type": "uint256"
        },
        {
          "internalType": "uint256",
          "name": "borrows",
          "type": "uint256"
        },
        {
          "internalType": "uint256",
          "name": "reserves",
          "type": "uint256"
        },
        {
          "internalType": "uint256",
          "name": "reserveFactorMantissa",
          "type": "uint256"
        }
      ],
      "name": "getSupplyRate",
      "outputs": [
        {
          "internalType": "uint256",
          "name": "",
          "type": "uint256"
        }
      ],
      "stateMutability": "view",
      "type": "function"
    },
    {
      "inputs": [],
      "name": "isInterestRateModel",
      "outputs": [
        {
          "internalType": "bool",
          "name": "",
          "type": "bool"
        }
      ],
      "stateMutability": "view",
      "type": "function"
    },
    {
      "inputs": [],
      "name": "jumpMultiplierPerBlock",
      "outputs": [
        {
          "internalType": "uint256",
          "name": "",
          "type": "uint256"
        }
      ],
      "stateMutability": "view",
      "type": "function"
    },
    {
      "inputs": [],
      "name": "kink",
      "outputs": [
        {
          "internalType": "uint256",
          "name": "",
          "type": "uint256"
        }
      ],
      "stateMutability": "view",
      "type": "function"
    },
    {
      "inputs": [],
      "name": "multiplierPerBlock",
      "outputs": [
        {
          "internalType": "uint256",
          "name": "",
          "type": "uint256"
        }
      ],
      "stateMutability": "view",
      "type": "function"
    },
    {
      "inputs": [],
      "name": "owner",
      "outputs": [
        {
          "internalType": "address",
          "name": "",
          "type": "address"
        }
      ],
      "stateMutability": "view",
      "type": "function"
    },
    {
      "inputs": [],
      "name": "poke",
      "outputs": [],
      "stateMutability": "nonpayable",
      "type": "function"
    },
    {
      "inputs": [
        {
          "internalType": "uint256",
          "name": "baseRatePerYear",
          "type": "uint256"
        },
        {
          "internalType": "uint256",
          "name": "gapPerYear",
          "type": "uint256"
        },
        {
          "internalType": "uint256",
          "name": "jumpMultiplierPerYear",
          "type": "uint256"
        },
        {
          "internalType": "uint256",
          "name": "kink_",
          "type": "uint256"
        }
      ],
      "name": "updateJumpRateModel",
      "outputs": [],
      "stateMutability": "nonpayable",
      "type": "function"
    },
    {
      "inputs": [
        {
          "internalType": "uint256",
          "name": "cash",
          "type": "uint256"
        },
        {
          "internalType": "uint256",
          "name": "borrows",
          "type": "uint256"
        },
        {
          "internalType": "uint256",
          "name": "reserves",
          "type": "uint256"
        }
      ],
      "name": "utilizationRate",
      "outputs": [
        {
          "internalType": "uint256",
          "name": "",
          "type": "uint256"
        }
      ],
      "stateMutability": "pure",
      "type": "function"
    }
  ],
  "bytecode": "0x60806040523480156200001157600080fd5b5060405162000f4238038062000f428339810160408190526200003491620004a1565b600080546001600160a01b0319166001600160a01b0383161781558086868483808484846200006684808585620000d0565b5050505050505050505062201480668e1bc9bf04000062000088919062000515565b600555600680546001600160a01b038086166001600160a01b0319928316179092556007805492851692909116919091179055620000c562000182565b5050505050620005ce565b620000df622014808562000515565b600255620000f1816220148062000538565b62000105670de0b6b3a76400008562000538565b62000111919062000515565b60015562000123622014808362000515565b60038190556004829055600254600154604080519283526020830191909152810191909152606081018290527f6960ab234c7ef4b0c9197100f5393cfcde7c453ac910a27bd2000aa1dd4c068d9060800160405180910390a150505050565b600754604051636cb1c69b60e11b8152644554482d4160d81b60048201526000916001600160a01b03169063d9638d36906024016040805180830381865afa158015620001d3573d6000803e3d6000fd5b505050506040513d601f19601f82011682018060405250810190620001f991906200055a565b5090506000600f633b9aca006b033b2e3c9fd0803ce8000000600760009054906101000a90046001600160a01b03166001600160a01b0316635001f3b56040518163ffffffff1660e01b8152600401602060405180830381865afa15801562000266573d6000803e3d6000fd5b505050506040513d601f19601f820116820180604052508101906200028c91906200057f565b62000298908662000599565b620002a49190620005b4565b620002b0919062000515565b620002bc919062000538565b9050670d2f13f7789f0000670de0b6b3a7640000620002da620003cb565b620002e6919062000538565b620002f2919062000515565b60028190558111156200034b57600454670de0b6b3a7640000600554600254846200031e9190620005b4565b6200032a919062000599565b62000336919062000538565b62000342919062000515565b60015562000376565b600454670de0b6b3a764000060055462000366919062000538565b62000372919062000515565b6001555b6002546001546003546004546040805194855260208501939093529183015260608201527f6960ab234c7ef4b0c9197100f5393cfcde7c453ac910a27bd2000aa1dd4c068d9060800160405180910390a15050565b6000600f633b9aca006b033b2e3c9fd0803ce8000000600660009054906101000a90046001600160a01b03166001600160a01b031663487bf0826040518163ffffffff1660e01b8152600401602060405180830381865afa15801562000435573d6000803e3d6000fd5b505050506040513d601f19601f820116820180604052508101906200045b91906200057f565b620004679190620005b4565b62000473919062000515565b6200047f919062000538565b905090565b80516001600160a01b03811681146200049c57600080fd5b919050565b600080600080600060a08688031215620004ba57600080fd5b8551945060208601519350620004d36040870162000484565b9250620004e36060870162000484565b9150620004f36080870162000484565b90509295509295909350565b634e487b7160e01b600052601160045260246000fd5b6000826200053357634e487b7160e01b600052601260045260246000fd5b500490565b6000816000190483118215151615620005555762000555620004ff565b500290565b600080604083850312156200056e57600080fd5b505080516020909101519092909150565b6000602082840312156200059257600080fd5b5051919050565b60008219821115620005af57620005af620004ff565b500190565b600082821015620005c957620005c9620004ff565b500390565b61096480620005de6000396000f3fe608060405234801561001057600080fd5b50600436106100f55760003560e01c80638da5cb5b11610097578063b9f9850a11610066578063b9f9850a146101d0578063f14039de146101d9578063f52d21f3146101e2578063fd2da339146101eb57600080fd5b80638da5cb5b1461018057806396456c5c146101ab578063a385fb96146101b3578063b8168816146101bd57600080fd5b80632191f92a116100d35780632191f92a1461013d5780636dac7cd5146101555780636e71e2d8146101645780638726bb891461017757600080fd5b806315f24053146100fa57806318178358146101205780632037f3e71461012a575b600080fd5b61010d61010836600461080d565b6101f4565b6040519081526020015b60405180910390f35b61012861020b565b005b610128610138366004610839565b610432565b610145600181565b6040519015158152602001610117565b61010d670d2f13f7789f000081565b61010d61017236600461080d565b6104ca565b61010d60015481565b600054610193906001600160a01b031681565b6040516001600160a01b039091168152602001610117565b61010d61050a565b61010d6220148081565b61010d6101cb366004610839565b6105ba565b61010d60035481565b61010d60025481565b61010d60055481565b61010d60045481565b600061020184848461062a565b90505b9392505050565b600754604051636cb1c69b60e11b8152644554482d4160d81b60048201526000916001600160a01b03169063d9638d36906024016040805180830381865afa15801561025b573d6000803e3d6000fd5b505050506040513d601f19601f8201168201806040525081019061027f919061086b565b5090506000600f633b9aca006b033b2e3c9fd0803ce8000000600760009054906101000a90046001600160a01b03166001600160a01b0316635001f3b56040518163ffffffff1660e01b8152600401602060405180830381865afa1580156102eb573d6000803e3d6000fd5b505050506040513d601f19601f8201168201806040525081019061030f919061088f565b61031990866108be565b61032391906108d6565b61032d91906108ed565b610337919061090f565b9050670d2f13f7789f0000670de0b6b3a764000061035361050a565b61035d919061090f565b61036791906108ed565b60028190558111156103b657600454670de0b6b3a76400006005546002548461039091906108d6565b61039a91906108be565b6103a4919061090f565b6103ae91906108ed565b6001556103dd565b600454670de0b6b3a76400006005546103cf919061090f565b6103d991906108ed565b6001555b6002546001546003546004546040805194855260208501939093529183015260608201527f6960ab234c7ef4b0c9197100f5393cfcde7c453ac910a27bd2000aa1dd4c068d9060800160405180910390a15050565b6000546001600160a01b0316331461049f5760405162461bcd60e51b815260206004820152602660248201527f6f6e6c7920746865206f776e6572206d61792063616c6c20746869732066756e60448201526531ba34b7b71760d11b606482015260840160405180910390fd5b6104ac62201480846108ed565b6005556104bc60008084846106f5565b6104c461020b565b50505050565b6000826104d957506000610204565b816104e484866108be565b6104ee91906108d6565b610500670de0b6b3a76400008561090f565b61020191906108ed565b6000600f633b9aca006b033b2e3c9fd0803ce8000000600660009054906101000a90046001600160a01b03166001600160a01b031663487bf0826040518163ffffffff1660e01b8152600401602060405180830381865afa158015610573573d6000803e3d6000fd5b505050506040513d601f19601f82011682018060405250810190610597919061088f565b6105a191906108d6565b6105ab91906108ed565b6105b5919061090f565b905090565b6000806105c98686868661079d565b90506000846105d887896108be565b6105e291906108d6565b9050806105f157509050610622565b6000816105fc61050a565b610606908a61090f565b61061091906108ed565b905061061c83826108be565b93505050505b949350505050565b6000806106388585856104ca565b9050600454811161067957600254670de0b6b3a76400006001548361065d919061090f565b61066791906108ed565b61067191906108be565b915050610204565b6000600254670de0b6b3a7640000600154600454610697919061090f565b6106a191906108ed565b6106ab91906108be565b90506000600454836106bd91906108d6565b905081670de0b6b3a7640000600354836106d7919061090f565b6106e191906108ed565b6106eb91906108be565b9350505050610204565b61070262201480856108ed565b600255610712816220148061090f565b610724670de0b6b3a76400008561090f565b61072e91906108ed565b60015561073e62201480836108ed565b60038190556004829055600254600154604080519283526020830191909152810191909152606081018290527f6960ab234c7ef4b0c9197100f5393cfcde7c453ac910a27bd2000aa1dd4c068d9060800160405180910390a150505050565b6000806107b283670de0b6b3a76400006108d6565b905060006107c187878761062a565b90506000670de0b6b3a76400006107d8848461090f565b6107e291906108ed565b9050670de0b6b3a7640000816107f98a8a8a6104ca565b610803919061090f565b61061c91906108ed565b60008060006060848603121561082257600080fd5b505081359360208301359350604090920135919050565b6000806000806080858703121561084f57600080fd5b5050823594602084013594506040840135936060013592509050565b6000806040838503121561087e57600080fd5b505080516020909101519092909150565b6000602082840312156108a157600080fd5b5051919050565b634e487b7160e01b600052601160045260246000fd5b600082198211156108d1576108d16108a8565b500190565b6000828210156108e8576108e86108a8565b500390565b60008261090a57634e487b7160e01b600052601260045260246000fd5b500490565b6000816000190483118215151615610929576109296108a8565b50029056fea2646970667358221220e68da8c753f8aaa384a833c508beebfafa0d985a8d5e18d9209749114288a34064736f6c634300080a0033",
  "linkReferences": {},
  "deployedLinkReferences": {}
}