{
  "_format": "hh-sol-artifact-1",
  "contractName": "CDaiDelegate",
  "sourceName": "contracts/CDaiDelegate.sol",
  "abi": [
    {
      "inputs": [],
      "name": "AcceptAdminPendingAdminCheck",
      "type": "error"
    },
    {
      "inputs": [
        {
          "internalType": "uint256",
          "name": "actualAddAmount",
          "type": "uint256"
        }
      ],
      "name": "AddReservesFactorFreshCheck",
      "type": "error"
    },
    {
      "inputs": [],
      "name": "BorrowCashNotAvailable",
      "type": "error"
    },
    {
      "inputs": [
        {
          "internalType": "uint256",
          "name": "errorCode",
          "type": "uint256"
        }
      ],
      "name": "BorrowComptrollerRejection",
      "type": "error"
    },
    {
      "inputs": [],
      "name": "BorrowFreshnessCheck",
      "type": "error"
    },
    {
      "inputs": [
        {
          "internalType": "uint256",
          "name": "errorCode",
          "type": "uint256"
        }
      ],
      "name": "LiquidateAccrueBorrowInterestFailed",
      "type": "error"
    },
    {
      "inputs": [
        {
          "internalType": "uint256",
          "name": "errorCode",
          "type": "uint256"
        }
      ],
      "name": "LiquidateAccrueCollateralInterestFailed",
      "type": "error"
    },
    {
      "inputs": [],
      "name": "LiquidateCloseAmountIsUintMax",
      "type": "error"
    },
    {
      "inputs": [],
      "name": "LiquidateCloseAmountIsZero",
      "type": "error"
    },
    {
      "inputs": [],
      "name": "LiquidateCollateralFreshnessCheck",
      "type": "error"
    },
    {
      "inputs": [
        {
          "internalType": "uint256",
          "name": "errorCode",
          "type": "uint256"
        }
      ],
      "name": "LiquidateComptrollerRejection",
      "type": "error"
    },
    {
      "inputs": [],
      "name": "LiquidateFreshnessCheck",
      "type": "error"
    },
    {
      "inputs": [],
      "name": "LiquidateLiquidatorIsBorrower",
      "type": "error"
    },
    {
      "inputs": [
        {
          "internalType": "uint256",
          "name": "errorCode",
          "type": "uint256"
        }
      ],
      "name": "LiquidateRepayBorrowFreshFailed",
      "type": "error"
    },
    {
      "inputs": [
        {
          "internalType": "uint256",
          "name": "errorCode",
          "type": "uint256"
        }
      ],
      "name": "LiquidateSeizeComptrollerRejection",
      "type": "error"
    },
    {
      "inputs": [],
      "name": "LiquidateSeizeLiquidatorIsBorrower",
      "type": "error"
    },
    {
      "inputs": [
        {
          "internalType": "uint256",
          "name": "errorCode",
          "type": "uint256"
        }
      ],
      "name": "MintComptrollerRejection",
      "type": "error"
    },
    {
      "inputs": [],
      "name": "MintFreshnessCheck",
      "type": "error"
    },
    {
      "inputs": [
        {
          "internalType": "uint256",
          "name": "errorCode",
          "type": "uint256"
        }
      ],
      "name": "RedeemComptrollerRejection",
      "type": "error"
    },
    {
      "inputs": [],
      "name": "RedeemFreshnessCheck",
      "type": "error"
    },
    {
      "inputs": [],
      "name": "RedeemTransferOutNotPossible",
      "type": "error"
    },
    {
      "inputs": [],
      "name": "ReduceReservesAdminCheck",
      "type": "error"
    },
    {
      "inputs": [],
      "name": "ReduceReservesCashNotAvailable",
      "type": "error"
    },
    {
      "inputs": [],
      "name": "ReduceReservesCashValidation",
      "type": "error"
    },
    {
      "inputs": [],
      "name": "ReduceReservesFreshCheck",
      "type": "error"
    },
    {
      "inputs": [
        {
          "internalType": "uint256",
          "name": "errorCode",
          "type": "uint256"
        }
      ],
      "name": "RepayBorrowComptrollerRejection",
      "type": "error"
    },
    {
      "inputs": [],
      "name": "RepayBorrowFreshnessCheck",
      "type": "error"
    },
    {
      "inputs": [],
      "name": "SetAutoCompoundOwnerCheck",
      "type": "error"
    },
    {
      "inputs": [],
      "name": "SetComptrollerOwnerCheck",
      "type": "error"
    },
    {
      "inputs": [],
      "name": "SetGlpManagerAddressOwnerCheck",
      "type": "error"
    },
    {
      "inputs": [],
      "name": "SetInterestRateModelFreshCheck",
      "type": "error"
    },
    {
      "inputs": [],
      "name": "SetInterestRateModelOwnerCheck",
      "type": "error"
    },
    {
      "inputs": [],
      "name": "SetPendingAdminOwnerCheck",
      "type": "error"
    },
    {
      "inputs": [],
      "name": "SetReserveFactorAdminCheck",
      "type": "error"
    },
    {
      "inputs": [],
      "name": "SetReserveFactorBoundsCheck",
      "type": "error"
    },
    {
      "inputs": [],
      "name": "SetReserveFactorFreshCheck",
      "type": "error"
    },
    {
      "inputs": [],
      "name": "SetRewardRouterAddressOwnerCheck",
      "type": "error"
    },
    {
      "inputs": [],
      "name": "SetStakedGlpAddressOwnerCheck",
      "type": "error"
    },
    {
      "inputs": [],
      "name": "SignalTransferOwnerCheck",
      "type": "error"
    },
    {
      "inputs": [
        {
          "internalType": "uint256",
          "name": "errorCode",
          "type": "uint256"
        }
      ],
      "name": "TransferComptrollerRejection",
      "type": "error"
    },
    {
      "inputs": [],
      "name": "TransferNotAllowed",
      "type": "error"
    },
    {
      "inputs": [],
      "name": "TransferNotEnough",
      "type": "error"
    },
    {
      "inputs": [],
      "name": "TransferTooMuch",
      "type": "error"
    },
    {
      "anonymous": false,
      "inputs": [
        {
          "indexed": false,
          "internalType": "uint256",
          "name": "cashPrior",
          "type": "uint256"
        },
        {
          "indexed": false,
          "internalType": "uint256",
          "name": "interestAccumulated",
          "type": "uint256"
        },
        {
          "indexed": false,
          "internalType": "uint256",
          "name": "borrowIndex",
          "type": "uint256"
        },
        {
          "indexed": false,
          "internalType": "uint256",
          "name": "totalBorrows",
          "type": "uint256"
        }
      ],
      "name": "AccrueInterest",
      "type": "event"
    },
    {
      "anonymous": false,
      "inputs": [
        {
          "indexed": true,
          "internalType": "address",
          "name": "owner",
          "type": "address"
        },
        {
          "indexed": true,
          "internalType": "address",
          "name": "spender",
          "type": "address"
        },
        {
          "indexed": false,
          "internalType": "uint256",
          "name": "amount",
          "type": "uint256"
        }
      ],
      "name": "Approval",
      "type": "event"
    },
    {
      "anonymous": false,
      "inputs": [
        {
          "indexed": false,
          "internalType": "address",
          "name": "borrower",
          "type": "address"
        },
        {
          "indexed": false,
          "internalType": "uint256",
          "name": "borrowAmount",
          "type": "uint256"
        },
        {
          "indexed": false,
          "internalType": "uint256",
          "name": "accountBorrows",
          "type": "uint256"
        },
        {
          "indexed": false,
          "internalType": "uint256",
          "name": "totalBorrows",
          "type": "uint256"
        }
      ],
      "name": "Borrow",
      "type": "event"
    },
    {
      "anonymous": false,
      "inputs": [
        {
          "indexed": false,
          "internalType": "address",
          "name": "liquidator",
          "type": "address"
        },
        {
          "indexed": false,
          "internalType": "address",
          "name": "borrower",
          "type": "address"
        },
        {
          "indexed": false,
          "internalType": "uint256",
          "name": "repayAmount",
          "type": "uint256"
        },
        {
          "indexed": false,
          "internalType": "address",
          "name": "cTokenCollateral",
          "type": "address"
        },
        {
          "indexed": false,
          "internalType": "uint256",
          "name": "seizeTokens",
          "type": "uint256"
        }
      ],
      "name": "LiquidateBorrow",
      "type": "event"
    },
    {
      "anonymous": false,
      "inputs": [
        {
          "indexed": false,
          "internalType": "address",
          "name": "minter",
          "type": "address"
        },
        {
          "indexed": false,
          "internalType": "uint256",
          "name": "mintAmount",
          "type": "uint256"
        },
        {
          "indexed": false,
          "internalType": "uint256",
          "name": "mintTokens",
          "type": "uint256"
        }
      ],
      "name": "Mint",
      "type": "event"
    },
    {
      "anonymous": false,
      "inputs": [
        {
          "indexed": false,
          "internalType": "address",
          "name": "oldAdmin",
          "type": "address"
        },
        {
          "indexed": false,
          "internalType": "address",
          "name": "newAdmin",
          "type": "address"
        }
      ],
      "name": "NewAdmin",
      "type": "event"
    },
    {
      "anonymous": false,
      "inputs": [
        {
          "indexed": false,
          "internalType": "contract ComptrollerInterface",
          "name": "oldComptroller",
          "type": "address"
        },
        {
          "indexed": false,
          "internalType": "contract ComptrollerInterface",
          "name": "newComptroller",
          "type": "address"
        }
      ],
      "name": "NewComptroller",
      "type": "event"
    },
    {
      "anonymous": false,
      "inputs": [
        {
          "indexed": false,
          "internalType": "contract InterestRateModel",
          "name": "oldInterestRateModel",
          "type": "address"
        },
        {
          "indexed": false,
          "internalType": "contract InterestRateModel",
          "name": "newInterestRateModel",
          "type": "address"
        }
      ],
      "name": "NewMarketInterestRateModel",
      "type": "event"
    },
    {
      "anonymous": false,
      "inputs": [
        {
          "indexed": false,
          "internalType": "address",
          "name": "oldPendingAdmin",
          "type": "address"
        },
        {
          "indexed": false,
          "internalType": "address",
          "name": "newPendingAdmin",
          "type": "address"
        }
      ],
      "name": "NewPendingAdmin",
      "type": "event"
    },
    {
      "anonymous": false,
      "inputs": [
        {
          "indexed": false,
          "internalType": "uint256",
          "name": "oldReserveFactorMantissa",
          "type": "uint256"
        },
        {
          "indexed": false,
          "internalType": "uint256",
          "name": "newReserveFactorMantissa",
          "type": "uint256"
        }
      ],
      "name": "NewReserveFactor",
      "type": "event"
    },
    {
      "anonymous": false,
      "inputs": [
        {
          "indexed": false,
          "internalType": "address",
          "name": "redeemer",
          "type": "address"
        },
        {
          "indexed": false,
          "internalType": "uint256",
          "name": "redeemAmount",
          "type": "uint256"
        },
        {
          "indexed": false,
          "internalType": "uint256",
          "name": "redeemTokens",
          "type": "uint256"
        }
      ],
      "name": "Redeem",
      "type": "event"
    },
    {
      "anonymous": false,
      "inputs": [
        {
          "indexed": false,
          "internalType": "address",
          "name": "payer",
          "type": "address"
        },
        {
          "indexed": false,
          "internalType": "address",
          "name": "borrower",
          "type": "address"
        },
        {
          "indexed": false,
          "internalType": "uint256",
          "name": "repayAmount",
          "type": "uint256"
        },
        {
          "indexed": false,
          "internalType": "uint256",
          "name": "accountBorrows",
          "type": "uint256"
        },
        {
          "indexed": false,
          "internalType": "uint256",
          "name": "totalBorrows",
          "type": "uint256"
        }
      ],
      "name": "RepayBorrow",
      "type": "event"
    },
    {
      "anonymous": false,
      "inputs": [
        {
          "indexed": false,
          "internalType": "address",
          "name": "benefactor",
          "type": "address"
        },
        {
          "indexed": false,
          "internalType": "uint256",
          "name": "addAmount",
          "type": "uint256"
        },
        {
          "indexed": false,
          "internalType": "uint256",
          "name": "newTotalReserves",
          "type": "uint256"
        }
      ],
      "name": "ReservesAdded",
      "type": "event"
    },
    {
      "anonymous": false,
      "inputs": [
        {
          "indexed": false,
          "internalType": "address",
          "name": "admin",
          "type": "address"
        },
        {
          "indexed": false,
          "internalType": "uint256",
          "name": "reduceAmount",
          "type": "uint256"
        },
        {
          "indexed": false,
          "internalType": "uint256",
          "name": "newTotalReserves",
          "type": "uint256"
        }
      ],
      "name": "ReservesReduced",
      "type": "event"
    },
    {
      "anonymous": false,
      "inputs": [
        {
          "indexed": true,
          "internalType": "address",
          "name": "from",
          "type": "address"
        },
        {
          "indexed": true,
          "internalType": "address",
          "name": "to",
          "type": "address"
        },
        {
          "indexed": false,
          "internalType": "uint256",
          "name": "amount",
          "type": "uint256"
        }
      ],
      "name": "Transfer",
      "type": "event"
    },
    {
      "inputs": [],
      "name": "NO_ERROR",
      "outputs": [
        {
          "internalType": "uint256",
          "name": "",
          "type": "uint256"
        }
      ],
      "stateMutability": "view",
      "type": "function"
    },
    {
      "inputs": [],
      "name": "WETH",
      "outputs": [
        {
          "internalType": "address",
          "name": "",
          "type": "address"
        }
      ],
      "stateMutability": "view",
      "type": "function"
    },
    {
      "inputs": [],
      "name": "_acceptAdmin",
      "outputs": [
        {
          "internalType": "uint256",
          "name": "",
          "type": "uint256"
        }
      ],
      "stateMutability": "nonpayable",
      "type": "function"
    },
    {
      "inputs": [
        {
          "internalType": "uint256",
          "name": "addAmount",
          "type": "uint256"
        }
      ],
      "name": "_addReserves",
      "outputs": [
        {
          "internalType": "uint256",
          "name": "",
          "type": "uint256"
        }
      ],
      "stateMutability": "nonpayable",
      "type": "function"
    },
    {
      "inputs": [
        {
          "internalType": "bytes",
          "name": "data",
          "type": "bytes"
        }
      ],
      "name": "_becomeImplementation",
      "outputs": [],
      "stateMutability": "nonpayable",
      "type": "function"
    },
    {
      "inputs": [
        {
          "internalType": "address",
          "name": "compLikeDelegatee",
          "type": "address"
        }
      ],
      "name": "_delegateCompLikeTo",
      "outputs": [],
      "stateMutability": "nonpayable",
      "type": "function"
    },
    {
      "inputs": [
        {
          "internalType": "uint256",
          "name": "reduceAmount",
          "type": "uint256"
        }
      ],
      "name": "_reduceReserves",
      "outputs": [
        {
          "internalType": "uint256",
          "name": "",
          "type": "uint256"
        }
      ],
      "stateMutability": "nonpayable",
      "type": "function"
    },
    {
      "inputs": [],
      "name": "_resignImplementation",
      "outputs": [],
      "stateMutability": "nonpayable",
      "type": "function"
    },
    {
      "inputs": [
        {
          "internalType": "bool",
          "name": "autocompound_",
          "type": "bool"
        }
      ],
      "name": "_setAutocompoundRewards",
      "outputs": [
        {
          "internalType": "uint256",
          "name": "",
          "type": "uint256"
        }
      ],
      "stateMutability": "nonpayable",
      "type": "function"
    },
    {
      "inputs": [
        {
          "internalType": "contract ComptrollerInterface",
          "name": "newComptroller",
          "type": "address"
        }
      ],
      "name": "_setComptroller",
      "outputs": [
        {
          "internalType": "uint256",
          "name": "",
          "type": "uint256"
        }
      ],
      "stateMutability": "nonpayable",
      "type": "function"
    },
    {
      "inputs": [
        {
          "internalType": "address",
          "name": "glpManager_",
          "type": "address"
        }
      ],
      "name": "_setGlpManagerAddress",
      "outputs": [
        {
          "internalType": "uint256",
          "name": "",
          "type": "uint256"
        }
      ],
      "stateMutability": "nonpayable",
      "type": "function"
    },
    {
      "inputs": [
        {
          "internalType": "contract InterestRateModel",
          "name": "newInterestRateModel",
          "type": "address"
        }
      ],
      "name": "_setInterestRateModel",
      "outputs": [
        {
          "internalType": "uint256",
          "name": "",
          "type": "uint256"
        }
      ],
      "stateMutability": "nonpayable",
      "type": "function"
    },
    {
      "inputs": [
        {
          "internalType": "address payable",
          "name": "newPendingAdmin",
          "type": "address"
        }
      ],
      "name": "_setPendingAdmin",
      "outputs": [
        {
          "internalType": "uint256",
          "name": "",
          "type": "uint256"
        }
      ],
      "stateMutability": "nonpayable",
      "type": "function"
    },
    {
      "inputs": [
        {
          "internalType": "uint256",
          "name": "newReserveFactorMantissa",
          "type": "uint256"
        }
      ],
      "name": "_setReserveFactor",
      "outputs": [
        {
          "internalType": "uint256",
          "name": "",
          "type": "uint256"
        }
      ],
      "stateMutability": "nonpayable",
      "type": "function"
    },
    {
      "inputs": [
        {
          "internalType": "contract IGmxRewardRouter",
          "name": "glpRewardRouter_",
          "type": "address"
        }
      ],
      "name": "_setRewardRouterAddress",
      "outputs": [
        {
          "internalType": "uint256",
          "name": "",
          "type": "uint256"
        }
      ],
      "stateMutability": "nonpayable",
      "type": "function"
    },
    {
      "inputs": [
        {
          "internalType": "contract IStakedGlp",
          "name": "stakedGLP_",
          "type": "address"
        }
      ],
      "name": "_setStakedGlpAddress",
      "outputs": [
        {
          "internalType": "uint256",
          "name": "",
          "type": "uint256"
        }
      ],
      "stateMutability": "nonpayable",
      "type": "function"
    },
    {
      "inputs": [
        {
          "internalType": "address",
          "name": "recipient",
          "type": "address"
        }
      ],
      "name": "_signalTransfer",
      "outputs": [
        {
          "internalType": "uint256",
          "name": "",
          "type": "uint256"
        }
      ],
      "stateMutability": "nonpayable",
      "type": "function"
    },
    {
      "inputs": [],
      "name": "accrualBlockNumber",
      "outputs": [
        {
          "internalType": "uint256",
          "name": "",
          "type": "uint256"
        }
      ],
      "stateMutability": "view",
      "type": "function"
    },
    {
      "inputs": [],
      "name": "accrueInterest",
      "outputs": [
        {
          "internalType": "uint256",
          "name": "",
          "type": "uint256"
        }
      ],
      "stateMutability": "nonpayable",
      "type": "function"
    },
    {
      "inputs": [],
      "name": "admin",
      "outputs": [
        {
          "internalType": "address payable",
          "name": "",
          "type": "address"
        }
      ],
      "stateMutability": "view",
      "type": "function"
    },
    {
      "inputs": [
        {
          "internalType": "address",
          "name": "owner",
          "type": "address"
        },
        {
          "internalType": "address",
          "name": "spender",
          "type": "address"
        }
      ],
      "name": "allowance",
      "outputs": [
        {
          "internalType": "uint256",
          "name": "",
          "type": "uint256"
        }
      ],
      "stateMutability": "view",
      "type": "function"
    },
    {
      "inputs": [
        {
          "internalType": "address",
          "name": "spender",
          "type": "address"
        },
        {
          "internalType": "uint256",
          "name": "amount",
          "type": "uint256"
        }
      ],
      "name": "approve",
      "outputs": [
        {
          "internalType": "bool",
          "name": "",
          "type": "bool"
        }
      ],
      "stateMutability": "nonpayable",
      "type": "function"
    },
    {
      "inputs": [],
      "name": "autocompound",
      "outputs": [
        {
          "internalType": "bool",
          "name": "",
          "type": "bool"
        }
      ],
      "stateMutability": "view",
      "type": "function"
    },
    {
      "inputs": [
        {
          "internalType": "address",
          "name": "owner",
          "type": "address"
        }
      ],
      "name": "balanceOf",
      "outputs": [
        {
          "internalType": "uint256",
          "name": "",
          "type": "uint256"
        }
      ],
      "stateMutability": "view",
      "type": "function"
    },
    {
      "inputs": [
        {
          "internalType": "address",
          "name": "owner",
          "type": "address"
        }
      ],
      "name": "balanceOfUnderlying",
      "outputs": [
        {
          "internalType": "uint256",
          "name": "",
          "type": "uint256"
        }
      ],
      "stateMutability": "nonpayable",
      "type": "function"
    },
    {
      "inputs": [
        {
          "internalType": "uint256",
          "name": "borrowAmount",
          "type": "uint256"
        }
      ],
      "name": "borrow",
      "outputs": [
        {
          "internalType": "uint256",
          "name": "",
          "type": "uint256"
        }
      ],
      "stateMutability": "nonpayable",
      "type": "function"
    },
    {
      "inputs": [
        {
          "internalType": "address",
          "name": "account",
          "type": "address"
        }
      ],
      "name": "borrowBalanceCurrent",
      "outputs": [
        {
          "internalType": "uint256",
          "name": "",
          "type": "uint256"
        }
      ],
      "stateMutability": "nonpayable",
      "type": "function"
    },
    {
      "inputs": [
        {
          "internalType": "address",
          "name": "account",
          "type": "address"
        }
      ],
      "name": "borrowBalanceStored",
      "outputs": [
        {
          "internalType": "uint256",
          "name": "",
          "type": "uint256"
        }
      ],
      "stateMutability": "view",
      "type": "function"
    },
    {
      "inputs": [],
      "name": "borrowIndex",
      "outputs": [
        {
          "internalType": "uint256",
          "name": "",
          "type": "uint256"
        }
      ],
      "stateMutability": "view",
      "type": "function"
    },
    {
      "inputs": [],
      "name": "borrowRatePerBlock",
      "outputs": [
        {
          "internalType": "uint256",
          "name": "",
          "type": "uint256"
        }
      ],
      "stateMutability": "view",
      "type": "function"
    },
    {
      "inputs": [],
      "name": "comptroller",
      "outputs": [
        {
          "internalType": "contract ComptrollerInterface",
          "name": "",
          "type": "address"
        }
      ],
      "stateMutability": "view",
      "type": "function"
    },
    {
      "inputs": [],
      "name": "daiJoinAddress",
      "outputs": [
        {
          "internalType": "address",
          "name": "",
          "type": "address"
        }
      ],
      "stateMutability": "view",
      "type": "function"
    },
    {
      "inputs": [],
      "name": "decimals",
      "outputs": [
        {
          "internalType": "uint8",
          "name": "",
          "type": "uint8"
        }
      ],
      "stateMutability": "view",
      "type": "function"
    },
    {
      "inputs": [
        {
          "internalType": "address",
          "name": "_NFTAddress",
          "type": "address"
        },
        {
          "internalType": "uint256",
          "name": "_TokenID",
          "type": "uint256"
        }
      ],
      "name": "depositNFT",
      "outputs": [],
      "stateMutability": "nonpayable",
      "type": "function"
    },
    {
      "inputs": [],
      "name": "exchangeRateCurrent",
      "outputs": [
        {
          "internalType": "uint256",
          "name": "",
          "type": "uint256"
        }
      ],
      "stateMutability": "nonpayable",
      "type": "function"
    },
    {
      "inputs": [],
      "name": "exchangeRateStored",
      "outputs": [
        {
          "internalType": "uint256",
          "name": "",
          "type": "uint256"
        }
      ],
      "stateMutability": "view",
      "type": "function"
    },
    {
      "inputs": [
        {
          "internalType": "address",
          "name": "account",
          "type": "address"
        }
      ],
      "name": "getAccountSnapshot",
      "outputs": [
        {
          "internalType": "uint256",
          "name": "",
          "type": "uint256"
        },
        {
          "internalType": "uint256",
          "name": "",
          "type": "uint256"
        },
        {
          "internalType": "uint256",
          "name": "",
          "type": "uint256"
        },
        {
          "internalType": "uint256",
          "name": "",
          "type": "uint256"
        }
      ],
      "stateMutability": "view",
      "type": "function"
    },
    {
      "inputs": [],
      "name": "getCash",
      "outputs": [
        {
          "internalType": "uint256",
          "name": "",
          "type": "uint256"
        }
      ],
      "stateMutability": "view",
      "type": "function"
    },
    {
      "inputs": [],
      "name": "glpManager",
      "outputs": [
        {
          "internalType": "address",
          "name": "",
          "type": "address"
        }
      ],
      "stateMutability": "view",
      "type": "function"
    },
    {
      "inputs": [],
      "name": "glpRewardRouter",
      "outputs": [
        {
          "internalType": "contract IGmxRewardRouter",
          "name": "",
          "type": "address"
        }
      ],
      "stateMutability": "view",
      "type": "function"
    },
    {
      "inputs": [],
      "name": "gmxToken",
      "outputs": [
        {
          "internalType": "address",
          "name": "",
          "type": "address"
        }
      ],
      "stateMutability": "view",
      "type": "function"
    },
    {
      "inputs": [],
      "name": "implementation",
      "outputs": [
        {
          "internalType": "address",
          "name": "",
          "type": "address"
        }
      ],
      "stateMutability": "view",
      "type": "function"
    },
    {
      "inputs": [
        {
          "internalType": "contract ComptrollerInterface",
          "name": "comptroller_",
          "type": "address"
        },
        {
          "internalType": "contract InterestRateModel",
          "name": "interestRateModel_",
          "type": "address"
        },
        {
          "internalType": "uint256",
          "name": "initialExchangeRateMantissa_",
          "type": "uint256"
        },
        {
          "internalType": "string",
          "name": "name_",
          "type": "string"
        },
        {
          "internalType": "string",
          "name": "symbol_",
          "type": "string"
        },
        {
          "internalType": "uint8",
          "name": "decimals_",
          "type": "uint8"
        },
        {
          "internalType": "bool",
          "name": "isGLP_",
          "type": "bool"
        }
      ],
      "name": "initialize",
      "outputs": [],
      "stateMutability": "nonpayable",
      "type": "function"
    },
    {
      "inputs": [
        {
          "internalType": "address",
          "name": "underlying_",
          "type": "address"
        },
        {
          "internalType": "contract ComptrollerInterface",
          "name": "comptroller_",
          "type": "address"
        },
        {
          "internalType": "contract InterestRateModel",
          "name": "interestRateModel_",
          "type": "address"
        },
        {
          "internalType": "uint256",
          "name": "initialExchangeRateMantissa_",
          "type": "uint256"
        },
        {
          "internalType": "string",
          "name": "name_",
          "type": "string"
        },
        {
          "internalType": "string",
          "name": "symbol_",
          "type": "string"
        },
        {
          "internalType": "uint8",
          "name": "decimals_",
          "type": "uint8"
        },
        {
          "internalType": "bool",
          "name": "isGLP_",
          "type": "bool"
        }
      ],
      "name": "initialize",
      "outputs": [],
      "stateMutability": "nonpayable",
      "type": "function"
    },
    {
      "inputs": [],
      "name": "interestRateModel",
      "outputs": [
        {
          "internalType": "contract InterestRateModel",
          "name": "",
          "type": "address"
        }
      ],
      "stateMutability": "view",
      "type": "function"
    },
    {
      "inputs": [],
      "name": "isCToken",
      "outputs": [
        {
          "internalType": "bool",
          "name": "",
          "type": "bool"
        }
      ],
      "stateMutability": "view",
      "type": "function"
    },
    {
      "inputs": [],
      "name": "isGLP",
      "outputs": [
        {
          "internalType": "bool",
          "name": "",
          "type": "bool"
        }
      ],
      "stateMutability": "view",
      "type": "function"
    },
    {
      "inputs": [
        {
          "internalType": "address",
          "name": "borrower",
          "type": "address"
        },
        {
          "internalType": "uint256",
          "name": "repayAmount",
          "type": "uint256"
        },
        {
          "internalType": "contract CTokenInterface",
          "name": "cTokenCollateral",
          "type": "address"
        }
      ],
      "name": "liquidateBorrow",
      "outputs": [
        {
          "internalType": "uint256",
          "name": "",
          "type": "uint256"
        }
      ],
      "stateMutability": "nonpayable",
      "type": "function"
    },
    {
      "inputs": [
        {
          "internalType": "uint256",
          "name": "mintAmount",
          "type": "uint256"
        }
      ],
      "name": "mint",
      "outputs": [
        {
          "internalType": "uint256",
          "name": "",
          "type": "uint256"
        }
      ],
      "stateMutability": "nonpayable",
      "type": "function"
    },
    {
      "inputs": [],
      "name": "name",
      "outputs": [
        {
          "internalType": "string",
          "name": "",
          "type": "string"
        }
      ],
      "stateMutability": "view",
      "type": "function"
    },
    {
      "inputs": [
        {
          "internalType": "address",
          "name": "",
          "type": "address"
        },
        {
          "internalType": "address",
          "name": "",
          "type": "address"
        },
        {
          "internalType": "uint256",
          "name": "",
          "type": "uint256"
        },
        {
          "internalType": "bytes",
          "name": "",
          "type": "bytes"
        }
      ],
      "name": "onERC721Received",
      "outputs": [
        {
          "internalType": "bytes4",
          "name": "",
          "type": "bytes4"
        }
      ],
      "stateMutability": "nonpayable",
      "type": "function"
    },
    {
      "inputs": [],
      "name": "pendingAdmin",
      "outputs": [
        {
          "internalType": "address payable",
          "name": "",
          "type": "address"
        }
      ],
      "stateMutability": "view",
      "type": "function"
    },
    {
      "inputs": [],
      "name": "potAddress",
      "outputs": [
        {
          "internalType": "address",
          "name": "",
          "type": "address"
        }
      ],
      "stateMutability": "view",
      "type": "function"
    },
    {
      "inputs": [],
      "name": "protocolSeizeShareMantissa",
      "outputs": [
        {
          "internalType": "uint256",
          "name": "",
          "type": "uint256"
        }
      ],
      "stateMutability": "view",
      "type": "function"
    },
    {
      "inputs": [
        {
          "internalType": "uint256",
          "name": "redeemTokens",
          "type": "uint256"
        }
      ],
      "name": "redeem",
      "outputs": [
        {
          "internalType": "uint256",
          "name": "",
          "type": "uint256"
        }
      ],
      "stateMutability": "nonpayable",
      "type": "function"
    },
    {
      "inputs": [
        {
          "internalType": "uint256",
          "name": "redeemAmount",
          "type": "uint256"
        }
      ],
      "name": "redeemUnderlying",
      "outputs": [
        {
          "internalType": "uint256",
          "name": "",
          "type": "uint256"
        }
      ],
      "stateMutability": "nonpayable",
      "type": "function"
    },
    {
      "inputs": [
        {
          "internalType": "uint256",
          "name": "repayAmount",
          "type": "uint256"
        }
      ],
      "name": "repayBorrow",
      "outputs": [
        {
          "internalType": "uint256",
          "name": "",
          "type": "uint256"
        }
      ],
      "stateMutability": "nonpayable",
      "type": "function"
    },
    {
      "inputs": [
        {
          "internalType": "address",
          "name": "borrower",
          "type": "address"
        },
        {
          "internalType": "uint256",
          "name": "repayAmount",
          "type": "uint256"
        }
      ],
      "name": "repayBorrowBehalf",
      "outputs": [
        {
          "internalType": "uint256",
          "name": "",
          "type": "uint256"
        }
      ],
      "stateMutability": "nonpayable",
      "type": "function"
    },
    {
      "inputs": [],
      "name": "reserveFactorMantissa",
      "outputs": [
        {
          "internalType": "uint256",
          "name": "",
          "type": "uint256"
        }
      ],
      "stateMutability": "view",
      "type": "function"
    },
    {
      "inputs": [],
      "name": "sbfGMX",
      "outputs": [
        {
          "internalType": "address",
          "name": "",
          "type": "address"
        }
      ],
      "stateMutability": "view",
      "type": "function"
    },
    {
      "inputs": [
        {
          "internalType": "address",
          "name": "liquidator",
          "type": "address"
        },
        {
          "internalType": "address",
          "name": "borrower",
          "type": "address"
        },
        {
          "internalType": "uint256",
          "name": "seizeTokens",
          "type": "uint256"
        }
      ],
      "name": "seize",
      "outputs": [
        {
          "internalType": "uint256",
          "name": "",
          "type": "uint256"
        }
      ],
      "stateMutability": "nonpayable",
      "type": "function"
    },
    {
      "inputs": [],
      "name": "stakedGLP",
      "outputs": [
        {
          "internalType": "contract IStakedGlp",
          "name": "",
          "type": "address"
        }
      ],
      "stateMutability": "view",
      "type": "function"
    },
    {
      "inputs": [],
      "name": "stakedGmxTracker",
      "outputs": [
        {
          "internalType": "contract IRewardTracker",
          "name": "",
          "type": "address"
        }
      ],
      "stateMutability": "view",
      "type": "function"
    },
    {
      "inputs": [],
      "name": "supplyRatePerBlock",
      "outputs": [
        {
          "internalType": "uint256",
          "name": "",
          "type": "uint256"
        }
      ],
      "stateMutability": "view",
      "type": "function"
    },
    {
      "inputs": [
        {
          "internalType": "contract EIP20NonStandardInterface",
          "name": "token",
          "type": "address"
        }
      ],
      "name": "sweepToken",
      "outputs": [],
      "stateMutability": "nonpayable",
      "type": "function"
    },
    {
      "inputs": [],
      "name": "symbol",
      "outputs": [
        {
          "internalType": "string",
          "name": "",
          "type": "string"
        }
      ],
      "stateMutability": "view",
      "type": "function"
    },
    {
      "inputs": [
        {
          "internalType": "address",
          "name": "underlying_",
          "type": "address"
        },
        {
          "internalType": "contract ComptrollerInterface",
          "name": "comptroller_",
          "type": "address"
        },
        {
          "internalType": "contract InterestRateModel",
          "name": "interestRateModel_",
          "type": "address"
        },
        {
          "internalType": "uint256",
          "name": "initialExchangeRateMantissa_",
          "type": "uint256"
        },
        {
          "internalType": "string",
          "name": "name_",
          "type": "string"
        },
        {
          "internalType": "string",
          "name": "symbol_",
          "type": "string"
        },
        {
          "internalType": "uint8",
          "name": "decimals_",
          "type": "uint8"
        },
        {
          "internalType": "bool",
          "name": "isGLP_",
          "type": "bool"
        }
      ],
      "name": "tinit",
      "outputs": [],
      "stateMutability": "nonpayable",
      "type": "function"
    },
    {
      "inputs": [],
      "name": "totalBorrows",
      "outputs": [
        {
          "internalType": "uint256",
          "name": "",
          "type": "uint256"
        }
      ],
      "stateMutability": "view",
      "type": "function"
    },
    {
      "inputs": [],
      "name": "totalBorrowsCurrent",
      "outputs": [
        {
          "internalType": "uint256",
          "name": "",
          "type": "uint256"
        }
      ],
      "stateMutability": "nonpayable",
      "type": "function"
    },
    {
      "inputs": [],
      "name": "totalReserves",
      "outputs": [
        {
          "internalType": "uint256",
          "name": "",
          "type": "uint256"
        }
      ],
      "stateMutability": "view",
      "type": "function"
    },
    {
      "inputs": [],
      "name": "totalSupply",
      "outputs": [
        {
          "internalType": "uint256",
          "name": "",
          "type": "uint256"
        }
      ],
      "stateMutability": "view",
      "type": "function"
    },
    {
      "inputs": [
        {
          "internalType": "address",
          "name": "dst",
          "type": "address"
        },
        {
          "internalType": "uint256",
          "name": "amount",
          "type": "uint256"
        }
      ],
      "name": "transfer",
      "outputs": [
        {
          "internalType": "bool",
          "name": "",
          "type": "bool"
        }
      ],
      "stateMutability": "nonpayable",
      "type": "function"
    },
    {
      "inputs": [
        {
          "internalType": "address",
          "name": "src",
          "type": "address"
        },
        {
          "internalType": "address",
          "name": "dst",
          "type": "address"
        },
        {
          "internalType": "uint256",
          "name": "amount",
          "type": "uint256"
        }
      ],
      "name": "transferFrom",
      "outputs": [
        {
          "internalType": "bool",
          "name": "",
          "type": "bool"
        }
      ],
      "stateMutability": "nonpayable",
      "type": "function"
    },
    {
      "inputs": [],
      "name": "underlying",
      "outputs": [
        {
          "internalType": "address",
          "name": "",
          "type": "address"
        }
      ],
      "stateMutability": "view",
      "type": "function"
    },
    {
      "inputs": [],
      "name": "vatAddress",
      "outputs": [
        {
          "internalType": "address",
          "name": "",
          "type": "address"
        }
      ],
      "stateMutability": "view",
      "type": "function"
    },
    {
      "inputs": [
        {
          "internalType": "address",
          "name": "_NFTAddress",
          "type": "address"
        },
        {
          "internalType": "uint256",
          "name": "_TokenID",
          "type": "uint256"
        }
      ],
      "name": "withdrawNFT",
      "outputs": [],
      "stateMutability": "nonpayable",
      "type": "function"
    }
  ],
  "bytecode": "0x60a06040526000805476a906f338cb21815cbc4bc87ace9e68c87ef8d8f10000006301000000600160b81b0319909116179055600180546001600160a01b0319908116732f546ad4edd93b956c8999be404cdcafde3e89ae1790915560028054821673fc5a1a6eb076a2c7ad06ed22c90d7e710e35ad0a17905560038054821673908c4d94d34924765f1edc22a1dd098397c59dd417905560048054821673d2d1162512f927a7e282ef43a362659e4f2a728f1790557382af49447d8a07e3bd95bd0d56f35241523fbab16080526005805490911673321f653eed006ad1c29d174e17d96351bde226491790553480156100f857600080fd5b50608051614fd36101296000396000818161083f01528181611d8901528181612ceb0152612d820152614fd36000f3fe608060405234801561001057600080fd5b50600436106104545760003560e01c806373acee9811610241578063b71d1a0c1161013b578063e9c714f2116100c3578063f8f9da2811610087578063f8f9da28146109ce578063fa6db1bc146109d6578063fca7820b146109e9578063fe9c44ae146109fc578063ff5a376414610a0457600080fd5b8063e9c714f214610975578063f2b3abbd1461097d578063f3fdb15a14610990578063f5e3c462146109a3578063f851a440146109b657600080fd5b8063c37f68e21161010a578063c37f68e2146108d0578063c5ebeaec14610903578063ceeb027914610916578063db006a7514610929578063dd62ed3e1461093c57600080fd5b8063b71d1a0c1461088f578063bae49e99146108a2578063bc3b7a18146108b5578063bd6d894d146108c857600080fd5b806395dd9193116101c9578063aa5af0fd1161018d578063aa5af0fd14610831578063ad5c46481461083a578063adbf857114610861578063ae9d70b014610874578063b2a02ff11461087c57600080fd5b806395dd9193146107dd5780639b5b9b18146107f0578063a0712d6814610803578063a6afed9514610816578063a9059cbb1461081e57600080fd5b8063852a12e311610210578063852a12e3146107935780638a8df2e6146107a65780638d925ccd146107b95780638f840ddd146107cc57806395d89b41146107d557600080fd5b806373acee9814610753578063761629081461075b5780637f1e06be1461076e578063842e11eb1461078157600080fd5b80633b1d21a2116103525780635fe609db116102da578063686722311161029e57806368672231146106ec57806369ab3250146107065780636c540baf1461070e5780636f307dc31461071757806370a082311461072a57600080fd5b80635fe609db14610692578063601a0bf1146106a55780636088e93a146106b857806366ced602146106cb5780636752e702146106de57600080fd5b806347bd37181161032157806347bd37181461063d57806356e67728146106465780635b30cf55146106595780635c60da1b1461066c5780635fe3b5671461067f57600080fd5b80633b1d21a2146105fc5780633e941010146106045780633f7a37d3146106175780634576b5db1461062a57600080fd5b806318160ddd116103e057806326782247116103a4578063267822471461059157806326d9687c146105a4578063313ce567146105b757806336818b01146105d65780633af9e669146105e957600080fd5b806318160ddd14610547578063182df0f5146105505780631be195601461055857806323b872dd1461056b5780632608f8181461057e57600080fd5b80630e752702116104275780630e752702146104d4578063150b7a02146104f5578063153ab50514610521578063173b99041461052b57806317bfdfbc1461053457600080fd5b806306dd74e51461045957806306fdde0314610489578063095ea7b31461049e5780630ce4018a146104c1575b600080fd5b60045461046c906001600160a01b031681565b6040516001600160a01b0390911681526020015b60405180910390f35b610491610a17565b60405161048091906148ca565b6104b16104ac366004614937565b610aa5565b6040519015158152602001610480565b60035461046c906001600160a01b031681565b6104e76104e2366004614963565b610b15565b604051908152602001610480565b61050861050336600461497c565b610b28565b6040516001600160e01b03199091168152602001610480565b610529610ba1565b005b6104e7600d5481565b6104e7610542366004614a1b565b610e57565b6104e760125481565b6104e7610eaa565b610529610566366004614a1b565b610eb9565b6104b1610579366004614a38565b611086565b6104e761058c366004614937565b6110d6565b60095461046c906001600160a01b031681565b6000546104b19062010000900460ff1681565b6008546105c49060ff1681565b60405160ff9091168152602001610480565b6104e76105e4366004614a1b565b6110eb565b6104e76105f7366004614a1b565b61119a565b6104e76111e0565b6104e7610612366004614963565b6111ea565b6104e7610625366004614a1b565b6111f5565b6104e7610638366004614a1b565b61124e565b6104e760105481565b610529610654366004614b05565b6113a0565b60015461046c906001600160a01b031681565b60175461046c906001600160a01b031681565b600a5461046c906001600160a01b031681565b6105296106a0366004614b92565b611442565b6104e76106b3366004614963565b6116ac565b6105296106c6366004614937565b6116eb565b60195461046c906001600160a01b031681565b6104e7666379da05b6000081565b60005461046c90630100000090046001600160a01b031681565b6104e7600081565b6104e7600e5481565b60165461046c906001600160a01b031681565b6104e7610738366004614a1b565b6001600160a01b031660009081526013602052604090205490565b6104e7611783565b610529610769366004614c4a565b6117cd565b61052961077c366004614a1b565b6118ce565b6000546104b190610100900460ff1681565b6104e76107a1366004614963565b6119a5565b60185461046c906001600160a01b031681565b601a5461046c906001600160a01b031681565b6104e760115481565b6104916119b0565b6104e76107eb366004614a1b565b6119bd565b6105296107fe366004614937565b6119c8565b6104e7610811366004614963565b611a57565b6104e7611a98565b6104b161082c366004614937565b611b10565b6104e7600f5481565b61046c7f000000000000000000000000000000000000000000000000000000000000000081565b6104e761086f366004614a1b565b611b5f565b6104e7611bb8565b6104e761088a366004614a38565b611c50565b6104e761089d366004614a1b565b611c9f565b60025461046c906001600160a01b031681565b6104e76108c3366004614d15565b611d2c565b6104e7611e17565b6108e36108de366004614a1b565b611e67565b604080519485526020850193909352918301526060820152608001610480565b6104e7610911366004614963565b611ea8565b610529610924366004614c4a565b611eb3565b6104e7610937366004614963565b611ec2565b6104e761094a366004614d32565b6001600160a01b03918216600090815260146020908152604080832093909416825291909152205490565b6104e7611ecd565b6104e761098b366004614a1b565b611fd4565b600b5461046c906001600160a01b031681565b6104e76109b1366004614d6b565b611fe8565b60085461046c9061010090046001600160a01b031681565b6104e7611fff565b60055461046c906001600160a01b031681565b6104e76109f7366004614963565b612052565b6104b1600181565b6104e7610a12366004614a1b565b612091565b60068054610a2490614dad565b80601f0160208091040260200160405190810160405280929190818152602001828054610a5090614dad565b8015610a9d5780601f10610a7257610100808354040283529160200191610a9d565b820191906000526020600020905b815481529060010190602001808311610a8057829003601f168201915b505050505081565b3360008181526014602090815260408083206001600160a01b03871680855292528083208590555191929182907f8c5be1e5ebec7d5bd14f71427d1e84f3dd0314c0f7b2291e5b200ac8c7c3b92590610b019087815260200190565b60405180910390a360019150505b92915050565b6000610b20826120f2565b506000919050565b60085460009061010090046001600160a01b03163214610b8f5760405162461bcd60e51b815260206004820152601d60248201527f6f6e6c792061646d696e732063616e206465706f736974204e4654277300000060448201526064015b60405180910390fd5b50630a85bd0160e11b95945050505050565b60085461010090046001600160a01b03163314610c165760405162461bcd60e51b815260206004820152602d60248201527f6f6e6c79207468652061646d696e206d6179206162616e646f6e20746865206960448201526c36b83632b6b2b73a30ba34b7b760991b6064820152608401610b86565b601854601954601a5460408051634fb3c66560e11b815290516001600160a01b039485169493841693909216918391639f678cca91600480830192602092919082900301816000875af1158015610c71573d6000803e3d6000fd5b505050506040513d601f19601f82011682018060405250810190610c959190614de8565b506040516305f5d64360e11b81523060048201526000906001600160a01b03841690630bebac8690602401602060405180830381865afa158015610cdd573d6000803e3d6000fd5b505050506040513d601f19601f82011682018060405250810190610d019190614de8565b604051637f8661a160e01b8152600481018290529091506001600160a01b03841690637f8661a190602401600060405180830381600087803b158015610d4657600080fd5b505af1158015610d5a573d6000803e3d6000fd5b5050604051633612d9a360e11b8152306004820152600092506001600160a01b0385169150636c25b34690602401602060405180830381865afa158015610da5573d6000803e3d6000fd5b505050506040513d601f19601f82011682018060405250810190610dc99190614de8565b90506001600160a01b03851663ef693bed30610df16b033b2e3c9fd0803ce800000085614e17565b6040516001600160e01b031960e085901b1681526001600160a01b03909216600483015260248201526044015b600060405180830381600087803b158015610e3857600080fd5b505af1158015610e4c573d6000803e3d6000fd5b505050505050505050565b6000805460ff16610e7a5760405162461bcd60e51b8152600401610b8690614e39565b6000805460ff19169055610e8c611a98565b50610e96826119bd565b90506000805460ff19166001179055919050565b6000610eb4612143565b905090565b60085461010090046001600160a01b03163314610f305760405162461bcd60e51b815260206004820152602f60248201527f4345726332303a3a7377656570546f6b656e3a206f6e6c792061646d696e206360448201526e616e20737765657020746f6b656e7360881b6064820152608401610b86565b6016546001600160a01b0382811691161415610fa95760405162461bcd60e51b815260206004820152603260248201527f4345726332303a3a7377656570546f6b656e3a2063616e206e6f74207377656560448201527138103ab73232b9363cb4b733903a37b5b2b760711b6064820152608401610b86565b6040516370a0823160e01b81523060048201526000906001600160a01b038316906370a0823190602401602060405180830381865afa158015610ff0573d6000803e3d6000fd5b505050506040513d601f19601f820116820180604052508101906110149190614de8565b60085460405163a9059cbb60e01b81526001600160a01b03610100909204821660048201526024810183905291925083169063a9059cbb906044015b600060405180830381600087803b15801561106a57600080fd5b505af115801561107e573d6000803e3d6000fd5b505050505050565b6000805460ff166110a95760405162461bcd60e51b8152600401610b8690614e39565b6000805460ff191681556110bf338686866121ad565b1490506000805460ff191660011790559392505050565b60006110e283836123db565b50600092915050565b60085460009061010090046001600160a01b0316331461111e57604051631f0fa4d560e31b815260040160405180910390fd5b61112661242d565b610b205760005460405163ef9aacfd60e01b81526001600160a01b03848116600483015263010000009092049091169063ef9aacfd906024015b600060405180830381600087803b15801561117a57600080fd5b505af115801561118e573d6000803e3d6000fd5b50505050506000919050565b60008060405180602001604052806111b0611e17565b90526001600160a01b0384166000908152601360205260409020549091506111d9908290612529565b9392505050565b6000610eb461242d565b6000610b0f82612549565b60085460009061010090046001600160a01b0316331461122857604051634cfdce7760e11b815260040160405180910390fd5b50600180546001600160a01b0319166001600160a01b0392909216919091179055600090565b60085460009061010090046001600160a01b031633146112815760405163d219dc1f60e01b815260040160405180910390fd5b600a5460408051623f1ee960e11b815290516001600160a01b0392831692851691627e3dd29160048083019260209291908290030181865afa1580156112cb573d6000803e3d6000fd5b505050506040513d601f19601f820116820180604052508101906112ef9190614e5d565b61133b5760405162461bcd60e51b815260206004820152601c60248201527f6d61726b6572206d6574686f642072657475726e65642066616c7365000000006044820152606401610b86565b600a80546001600160a01b0319166001600160a01b0385811691821790925560408051928416835260208301919091527f7ac369dbd14fa5ea3f473ed67cc9d598964a77501540ba6751eb0b3decf5870d91015b60405180910390a150600092915050565b60085461010090046001600160a01b031633146114185760405162461bcd60e51b815260206004820152603060248201527f6f6e6c79207468652061646d696e206d617920696e697469616c697a6520746860448201526f329034b6b83632b6b2b73a30ba34b7b760811b6064820152608401610b86565b6000808280602001905181019061142f9190614e7a565b9150915061143d82826125a0565b505050565b60085461010090046001600160a01b031633146114ad5760405162461bcd60e51b8152602060048201526024808201527f6f6e6c792061646d696e206d617920696e697469616c697a6520746865206d616044820152631c9ad95d60e21b6064820152608401610b86565b600e541580156114bd5750600f54155b6115155760405162461bcd60e51b815260206004820152602360248201527f6d61726b6574206d6179206f6e6c7920626520696e697469616c697a6564206f6044820152626e636560e81b6064820152608401610b86565b600c859055846115805760405162461bcd60e51b815260206004820152603060248201527f696e697469616c2065786368616e67652072617465206d75737420626520677260448201526f32b0ba32b9103a3430b7103d32b9379760811b6064820152608401610b86565b600061158b8861124e565b905080156115db5760405162461bcd60e51b815260206004820152601a60248201527f73657474696e6720636f6d7074726f6c6c6572206661696c65640000000000006044820152606401610b86565b43600e55670de0b6b3a7640000600f556115f4876128b1565b9050801561164f5760405162461bcd60e51b815260206004820152602260248201527f73657474696e6720696e7465726573742072617465206d6f64656c206661696c604482015261195960f21b6064820152608401610b86565b845161166290600690602088019061483a565b50835161167690600790602087019061483a565b50506008805460ff90931660ff19938416179055600080549115156101000290921661ffff199091161760011790555050505050565b6000805460ff166116cf5760405162461bcd60e51b8152600401610b8690614e39565b6000805460ff191690556116e1611a98565b50610e9682612a26565b60085461010090046001600160a01b0316331461174a5760405162461bcd60e51b815260206004820152601e60248201527f6f6e6c792061646d696e732063616e207769746864726177204e4654277300006044820152606401610b86565b600854604051632142170760e11b81526001600160a01b03808516926342842e0e92611050923092610100900416908690600401614ea9565b6000805460ff166117a65760405162461bcd60e51b8152600401610b8690614e39565b6000805460ff191690556117b8611a98565b50506010546000805460ff1916600117905590565b60085461010090046001600160a01b03161561182b5760405162461bcd60e51b815260206004820152601a60248201527f61646d696e206d6179206f6e6c7920626520736574206f6e63650000000000006044820152606401610b86565b60088054610100600160a81b031916336101000217905561185187878787878787611442565b601680546001600160a01b0319166001600160a01b038a16908117909155604080516318160ddd60e01b815290516318160ddd916004808201926020929091908290030181865afa1580156118aa573d6000803e3d6000fd5b505050506040513d601f19601f82011682018060405250810190610e4c9190614de8565b60085461010090046001600160a01b031633146119435760405162461bcd60e51b815260206004820152602d60248201527f6f6e6c79207468652061646d696e206d6179207365742074686520636f6d702d60448201526c6c696b652064656c656761746560981b6064820152608401610b86565b6016546040516317066a5760e21b81526001600160a01b03838116600483015290911690635c19a95c90602401600060405180830381600087803b15801561198a57600080fd5b505af115801561199e573d6000803e3d6000fd5b5050505050565b6000610b2082612b41565b60078054610a2490614dad565b6000610b0f82612b92565b60085461010090046001600160a01b03163314611a275760405162461bcd60e51b815260206004820152601d60248201527f6f6e6c792061646d696e732063616e206465706f736974204e465427730000006044820152606401610b86565b604051632142170760e11b81526001600160a01b038316906342842e0e9061105090339030908690600401614ea9565b6000611a6282612bdc565b600a5460405163a86cc91560e01b81523060048201523360248201526001600160a01b039091169063a86cc91590604401611160565b60195460408051634fb3c66560e11b815290516000926001600160a01b031691639f678cca916004808301926020929190829003018187875af1158015611ae3573d6000803e3d6000fd5b505050506040513d601f19601f82011682018060405250810190611b079190614de8565b50610eb4612c1b565b6000805460ff16611b335760405162461bcd60e51b8152600401610b8690614e39565b6000805460ff19168155611b49338086866121ad565b1490506000805460ff1916600117905592915050565b60085460009061010090046001600160a01b03163314611b92576040516321c2a8f960e21b815260040160405180910390fd5b50600580546001600160a01b0319166001600160a01b0392909216919091179055600090565b600b546000906001600160a01b031663b8168816611bd461242d565b601054601154600d546040516001600160e01b031960e087901b16815260048101949094526024840192909252604483015260648201526084015b602060405180830381865afa158015611c2c573d6000803e3d6000fd5b505050506040513d601f19601f82011682018060405250810190610eb49190614de8565b6000805460ff16611c735760405162461bcd60e51b8152600401610b8690614e39565b6000805460ff19169055611c893385858561309e565b50600080805460ff191660011790559392505050565b60085460009061010090046001600160a01b03163314611cd257604051635cb56c2b60e01b815260040160405180910390fd5b600980546001600160a01b038481166001600160a01b031983168117909355604080519190921680825260208201939093527fca4f2f25d0898edd99413412fb94012f9e54ec8142f9b093e7720646a95b16a9910161138f565b60085460009061010090046001600160a01b03163314611d5f57604051632663b8db60e01b815260040160405180910390fd5b60055460405163095ea7b360e01b81526001600160a01b03918216600482015260001960248201527f00000000000000000000000000000000000000000000000000000000000000009091169063095ea7b3906044016020604051808303816000875af1158015611dd4573d6000803e3d6000fd5b505050506040513d601f19601f82011682018060405250810190611df89190614e5d565b505060008054911515620100000262ff00001990921691909117815590565b6000805460ff16611e3a5760405162461bcd60e51b8152600401610b8690614e39565b6000805460ff19169055611e4c611a98565b50611e55610eaa565b90506000805460ff1916600117905590565b6001600160a01b0381166000908152601360205260408120548190819081908190611e9187612b92565b611e99612143565b93509350935093509193509193565b6000610b2082613317565b61185187878787878787611442565b6000610b2082613356565b6009546000906001600160a01b031633141580611ee8575033155b15611f0657604051631ba24f2960e21b815260040160405180910390fd5b60088054600980546001600160a01b03808216610100818102610100600160a81b0319871617968790556001600160a01b031990931690935560408051948390048216808652929095041660208401529290917ff9ffabca9c8276e99321725bcb43fb076a6c66a54b7f21c4e8146d8519b417dc910160405180910390a1600954604080516001600160a01b03808516825290921660208301527fca4f2f25d0898edd99413412fb94012f9e54ec8142f9b093e7720646a95b16a9910160405180910390a160009250505090565b6000611fde611a98565b50610b0f826128b1565b6000611ff5848484613397565b5060009392505050565b600b546000906001600160a01b03166315f2405361201b61242d565b6010546011546040516001600160e01b031960e086901b168152600481019390935260248301919091526044820152606401611c0f565b6000805460ff166120755760405162461bcd60e51b8152600401610b8690614e39565b6000805460ff19169055612087611a98565b50610e9682613475565b60085460009061010090046001600160a01b031633146120c4576040516308d5a31960e21b815260040160405180910390fd5b50600080546001600160a01b039092166301000000026301000000600160b81b031990921691909117815590565b60005460ff166121145760405162461bcd60e51b8152600401610b8690614e39565b6000805460ff19169055612126611a98565b50612132333383613531565b50506000805460ff19166001179055565b60125460009080612156575050600c5490565b600061216061242d565b90506000601154601054836121759190614ecd565b61217f9190614ee5565b9050600083612196670de0b6b3a764000084614efc565b6121a09190614e17565b95945050505050565b5090565b600a546040516317b9b84b60e31b81523060048201526001600160a01b038581166024830152848116604483015260648201849052600092839291169063bdcdc258906084016020604051808303816000875af1158015612212573d6000803e3d6000fd5b505050506040513d601f19601f820116820180604052508101906122369190614de8565b9050801561225a5760405163089d427760e11b815260048101829052602401610b86565b836001600160a01b0316856001600160a01b0316141561228d57604051638cd22d1960e01b815260040160405180910390fd5b6000856001600160a01b0316876001600160a01b031614156122b257506000196122da565b506001600160a01b038086166000908152601460209081526040808320938a16835292905220545b60006122e68583614ee5565b6001600160a01b0388166000908152601360205260408120549192509061230e908790614ee5565b6001600160a01b03881660009081526013602052604081205491925090612336908890614ecd565b6001600160a01b03808b16600090815260136020526040808220869055918b1681522081905590506000198414612390576001600160a01b03808a166000908152601460209081526040808320938e168352929052208390555b876001600160a01b0316896001600160a01b0316600080516020614f7e833981519152896040516123c391815260200190565b60405180910390a35060009998505050505050505050565b60005460ff166123fd5760405162461bcd60e51b8152600401610b8690614e39565b6000805460ff1916905561240f611a98565b5061241b338383613531565b50506000805460ff1916600117905550565b6019546040516305f5d64360e11b81523060048201526000916001600160a01b03169082908290630bebac8690602401602060405180830381865afa15801561247a573d6000803e3d6000fd5b505050506040513d601f19601f8201168201806040525081019061249e9190614de8565b90506b033b2e3c9fd0803ce8000000612518836001600160a01b031663c92aecc46040518163ffffffff1660e01b8152600401602060405180830381865afa1580156124ee573d6000803e3d6000fd5b505050506040513d601f19601f820116820180604052508101906125129190614de8565b836136da565b6125229190614e17565b9250505090565b6000806125368484613739565b90506125418161376a565b949350505050565b6000805460ff1661256c5760405162461bcd60e51b8152600401610b8690614e39565b6000805460ff1916905561257e611a98565b5061258882613782565b5050600090506000805460ff19166001179055919050565b600082905060008290506000826001600160a01b031663f4b9fa756040518163ffffffff1660e01b81526004016020604051808303816000875af11580156125ec573d6000803e3d6000fd5b505050506040513d601f19601f820116820180604052508101906126109190614f1b565b90506000836001600160a01b03166336569e776040518163ffffffff1660e01b81526004016020604051808303816000875af1158015612654573d6000803e3d6000fd5b505050506040513d601f19601f820116820180604052508101906126789190614f1b565b6016549091506001600160a01b038381169116146126e35760405162461bcd60e51b815260206004820152602260248201527f444149206d757374206265207468652073616d6520617320756e6465726c79696044820152616e6760f01b6064820152608401610b86565b601880546001600160a01b03199081166001600160a01b03898116918217909355601980548316898516179055601a80549092168484161790915560405163095ea7b360e01b8152600481019190915260001960248201529083169063095ea7b390604401600060405180830381600087803b15801561276257600080fd5b505af1158015612776573d6000803e3d6000fd5b50506019546040516328ec8bf160e21b81526001600160a01b039182166004820152908416925063a3b22fc49150602401600060405180830381600087803b1580156127c157600080fd5b505af11580156127d5573d6000803e3d6000fd5b50506018546040516328ec8bf160e21b81526001600160a01b039182166004820152908416925063a3b22fc49150602401600060405180830381600087803b15801561282057600080fd5b505af1158015612834573d6000803e3d6000fd5b50505050826001600160a01b0316639f678cca6040518163ffffffff1660e01b81526004016020604051808303816000875af1158015612878573d6000803e3d6000fd5b505050506040513d601f19601f8201168201806040525081019061289c9190614de8565b506128a8306000613816565b50505050505050565b600854600090819061010090046001600160a01b031633146128e65760405163407fded560e01b815260040160405180910390fd5b43600e541461290857604051630be2a5cb60e11b815260040160405180910390fd5b600b60009054906101000a90046001600160a01b03169050826001600160a01b0316632191f92a6040518163ffffffff1660e01b8152600401602060405180830381865afa15801561295e573d6000803e3d6000fd5b505050506040513d601f19601f820116820180604052508101906129829190614e5d565b6129ce5760405162461bcd60e51b815260206004820152601c60248201527f6d61726b6572206d6574686f642072657475726e65642066616c7365000000006044820152606401610b86565b600b80546001600160a01b0319166001600160a01b0385811691821790925560408051928416835260208301919091527fedffc32e068c7c95dfd4bdfd5c4d939a084d6b11c4199eac8436ed234d72f926910161138f565b600854600090819061010090046001600160a01b03163314612a5b57604051630f7e5e6d60e41b815260040160405180910390fd5b43600e5414612a7d57604051630dff50cb60e41b815260040160405180910390fd5b82612a8661242d565b1015612aa557604051633345e99960e01b815260040160405180910390fd5b601154831115612ac8576040516378d2980560e11b815260040160405180910390fd5b82601154612ad69190614ee5565b6011819055600854909150612af99061010090046001600160a01b031684613b19565b7f3bad0c59cf2f06e7314077049f48a93578cd16f5ef92329f1dab1420a99c177e600860019054906101000a90046001600160a01b0316848360405161138f93929190614f38565b60005460ff16612b635760405162461bcd60e51b8152600401610b8690614e39565b6000805460ff19169055612b75611a98565b50612b8233600083613c4f565b506000805460ff19166001179055565b6001600160a01b03811660009081526015602052604081208054612bb95750600092915050565b600f548154600091612bca91614efc565b90508160010154816125419190614e17565b60005460ff16612bfe5760405162461bcd60e51b8152600401610b8690614e39565b6000805460ff19169055612c10611a98565b50612b823382613f42565b60008054610100900460ff1615612eb35760125415612eae5760005462010000900460ff1615612e1e576000805460405163185b800160e11b81526001600482018190526024820184905260448201819052606482018190526084820181905260a482015260c4810192909252630100000090046001600160a01b0316906330b700029060e401600060405180830381600087803b158015612cbc57600080fd5b505af1158015612cd0573d6000803e3d6000fd5b50506040516370a0823160e01b8152306004820152600092507f00000000000000000000000000000000000000000000000000000000000000006001600160a01b031691506370a0823190602401602060405180830381865afa158015612d3b573d6000803e3d6000fd5b505050506040513d601f19601f82011682018060405250810190612d5f9190614de8565b90508015612e18576000805460405163364e231160e01b81526001600160a01b037f0000000000000000000000000000000000000000000000000000000000000000811660048301526024820185905260448201849052606482019390935263010000009091049091169063364e2311906084016020604051808303816000875af1158015612df2573d6000803e3d6000fd5b505050506040513d601f19601f82011682018060405250810190612e169190614de8565b505b50613098565b6000805460405163185b800160e11b81526001600482018190526024820184905260448201819052606482018190526084820181905260a482015260c4810192909252630100000090046001600160a01b0316906330b700029060e401600060405180830381600087803b158015612e9557600080fd5b505af1158015612ea9573d6000803e3d6000fd5b505050505b613098565b600e54439080821415612ec95760009250505090565b6000612ed361242d565b601054601154600f54600b546040516315f2405360e01b81526004810186905260248101859052604481018490529495509293919290916000916001600160a01b0316906315f2405390606401602060405180830381865afa158015612f3d573d6000803e3d6000fd5b505050506040513d601f19601f82011682018060405250810190612f619190614de8565b905065048c27395000811115612fb95760405162461bcd60e51b815260206004820152601c60248201527f626f72726f772072617465206973206162737572646c792068696768000000006044820152606401610b86565b6000612fc58789614ee5565b90506000612fe160405180602001604052808581525083613739565b90506000612fef8288612529565b90506000612ffd8883614ecd565b9050600061301c6040518060200160405280600d54815250848a61410e565b9050600061302b85898a61410e565b600e8e9055600f81905560108490556011839055604080518d815260208101879052908101829052606081018590529091507f4dec04e750ca11537cabcd8a9eab06494de08da3735bc8871cd41250e190bc049060800160405180910390a1505050505050505050505050505b50600090565b600a5460405163d02f735160e01b81523060048201526001600160a01b0386811660248301528581166044830152848116606483015260848201849052600092169063d02f73519060a4016020604051808303816000875af1158015613108573d6000803e3d6000fd5b505050506040513d601f19601f8201168201806040525081019061312c9190614de8565b90508015613150576040516363e00e3360e11b815260048101829052602401610b86565b836001600160a01b0316836001600160a01b0316141561318357604051633a94626760e11b815260040160405180910390fd5b60006131a4836040518060200160405280666379da05b6000081525061412f565b905060006131b28285614ee5565b9050600060405180602001604052806131c9612143565b9052905060006131d98285612529565b90506000816011546131eb9190614ecd565b6011819055601254909150613201908690614ee5565b6012556001600160a01b038816600090815260136020526040902054613228908890614ee5565b6001600160a01b03808a1660009081526013602052604080822093909355908b1681522054613258908590614ecd565b6001600160a01b03808b1660008181526013602052604090819020939093559151908a1690600080516020614f7e8339815191529061329a9088815260200190565b60405180910390a360405185815230906001600160a01b038a1690600080516020614f7e8339815191529060200160405180910390a37fa91e67c5ea634cd43a12c5a482724b03de01e85ca68702a53d0c2f45cb7c1dc530838360405161330393929190614f38565b60405180910390a150505050505050505050565b60005460ff166133395760405162461bcd60e51b8152600401610b8690614e39565b6000805460ff1916905561334b611a98565b50612b823382614152565b60005460ff166133785760405162461bcd60e51b8152600401610b8690614e39565b6000805460ff1916905561338a611a98565b50612b8233826000613c4f565b60005460ff166133b95760405162461bcd60e51b8152600401610b8690614e39565b6000805460ff191690556133cb611a98565b506000816001600160a01b031663a6afed956040518163ffffffff1660e01b81526004016020604051808303816000875af115801561340e573d6000803e3d6000fd5b505050506040513d601f19601f820116820180604052508101906134329190614de8565b9050801561345657604051633eea49b760e11b815260048101829052602401610b86565b613462338585856142f1565b50506000805460ff191660011790555050565b60085460009061010090046001600160a01b031633146134a857604051631205b57b60e11b815260040160405180910390fd5b43600e54146134ca57604051637dfca6b760e11b815260040160405180910390fd5b670de0b6b3a76400008211156134f35760405163717220f360e11b815260040160405180910390fd5b600d80549083905560408051828152602081018590527faaa68312e2ea9d50e16af5068410ab56e1a1fd06037b1a35664812c30f821460910161138f565b600a54604051631200453160e11b81523060048201526001600160a01b03858116602483015284811660448301526064820184905260009283929116906324008a62906084016020604051808303816000875af1158015613596573d6000803e3d6000fd5b505050506040513d601f19601f820116820180604052508101906135ba9190614de8565b905080156135de57604051638c81362d60e01b815260048101829052602401610b86565b43600e54146136005760405163c9021e2f60e01b815260040160405180910390fd5b600061360b85612b92565b90506000600019851461361e5784613620565b815b9050600061362e8883613816565b9050600061363c8285614ee5565b905060008260105461364e9190614ee5565b6001600160a01b038a8116600081815260156020908152604091829020878155600f5460019091015560108590558151938f168452830191909152810185905260608101849052608081018290529091507f1a2a22cb034d26d1854bdc6666a5b91fe25efbbb5dcad3b0355478d6f5c362a19060a00160405180910390a1509098975050505050505050565b60008115806136fe575082826136f08183614efc565b92506136fc9083614e17565b145b610b0f5760405162461bcd60e51b815260206004820152600c60248201526b6d756c2d6f766572666c6f7760a01b6044820152606401610b86565b60408051602081019091526000815260405180602001604052806137618560000151856147ab565b90529392505050565b8051600090610b0f90670de0b6b3a764000090614e17565b600080808043600e54146137ac576040516338acf79960e01b815260048101829052602401610b86565b6137b63386613816565b9050806011546137c69190614ecd565b9150816011819055507fa91e67c5ea634cd43a12c5a482724b03de01e85ca68702a53d0c2f45cb7c1dc533828460405161380293929190614f38565b60405180910390a160009590945092505050565b6016546040516323b872dd60e01b81526000916001600160a01b031690819081906323b872dd9061384f90889030908990600401614ea9565b6020604051808303816000875af115801561386e573d6000803e3d6000fd5b505050506040513d601f19601f820116820180604052508101906138929190614e5d565b6138ea5760405162461bcd60e51b8152602060048201526024808201527f756e6578706563746564204549502d3230207472616e7366657220696e2072656044820152633a3ab93760e11b6064820152608401610b86565b601854601954601a546040516370a0823160e01b815230600482018190526001600160a01b039485169487948116938116928692633b4da69f929091908716906370a0823190602401602060405180830381865afa158015613950573d6000803e3d6000fd5b505050506040513d601f19601f820116820180604052508101906139749190614de8565b6040516001600160e01b031960e085901b1681526001600160a01b0390921660048301526024820152604401600060405180830381600087803b1580156139ba57600080fd5b505af11580156139ce573d6000803e3d6000fd5b5050604051633612d9a360e11b8152306004820152600092506001600160a01b0384169150636c25b34690602401602060405180830381865afa158015613a19573d6000803e3d6000fd5b505050506040513d601f19601f82011682018060405250810190613a3d9190614de8565b90506000836001600160a01b031663c92aecc46040518163ffffffff1660e01b8152600401602060405180830381865afa158015613a7f573d6000803e3d6000fd5b505050506040513d601f19601f82011682018060405250810190613aa39190614de8565b613aad9083614e17565b60405163049878f360e01b8152600481018290529091506001600160a01b0385169063049878f390602401600060405180830381600087803b158015613af257600080fd5b505af1158015613b06573d6000803e3d6000fd5b509b9d9c50505050505050505050505050565b6018546019546040805163324abb3160e21b815290516001600160a01b039384169390921691600091613bbd91849163c92aecc49160048083019260209291908290030181865afa158015613b72573d6000803e3d6000fd5b505050506040513d601f19601f82011682018060405250810190613b969190614de8565b613bac866b033b2e3c9fd0803ce80000006136da565b613bb69190614e17565b60016147b7565b604051637f8661a160e01b8152600481018290529091506001600160a01b03831690637f8661a190602401600060405180830381600087803b158015613c0257600080fd5b505af1158015613c16573d6000803e3d6000fd5b505060405163ef693bed60e01b81526001600160a01b038881166004830152602482018890528616925063ef693bed9150604401610e1e565b811580613c5a575080155b613cc35760405162461bcd60e51b815260206004820152603460248201527f6f6e65206f662072656465656d546f6b656e73496e206f722072656465656d416044820152736d6f756e74496e206d757374206265207a65726f60601b6064820152608401610b86565b60006040518060200160405280613cd8612143565b905290506000808415613cf957849150613cf28386612529565b9050613d09565b613d038484614804565b91508390505b600a5460405163eabe7d9160e01b81526000916001600160a01b03169063eabe7d9190613d3e9030908b908890600401614ea9565b6020604051808303816000875af1158015613d5d573d6000803e3d6000fd5b505050506040513d601f19601f82011682018060405250810190613d819190614de8565b90508015613da55760405163480f424760e01b815260048101829052602401610b86565b43600e5414158015613dbf5750600054610100900460ff16155b15613ddd576040516397b5cfcd60e01b815260040160405180910390fd5b81613de661242d565b1015613e05576040516391240a1b60e01b815260040160405180910390fd5b82601254613e139190614ee5565b6012556001600160a01b038716600090815260136020526040902054613e3a908490614ee5565b6001600160a01b038816600090815260136020526040902055613e5d8783613b19565b60405183815230906001600160a01b03891690600080516020614f7e8339815191529060200160405180910390a37fe5b754fb1abb7f01b499791d0b820ae3b6af3424ac1c59768edb53f4ec31a929878385604051613ebe93929190614f38565b60405180910390a1600a546040516351dff98960e01b81523060048201526001600160a01b0389811660248301526044820185905260648201869052909116906351dff98990608401600060405180830381600087803b158015613f2157600080fd5b505af1158015613f35573d6000803e3d6000fd5b5050505050505050505050565b600a54604051634ef4c3e160e01b81526000916001600160a01b031690634ef4c3e190613f7790309087908790600401614ea9565b6020604051808303816000875af1158015613f96573d6000803e3d6000fd5b505050506040513d601f19601f82011682018060405250810190613fba9190614de8565b90508015613fde576040516349abd4fd60e01b815260048101829052602401610b86565b43600e5414158015613ff85750600054610100900460ff16155b15614016576040516338d8859760e01b815260040160405180910390fd5b6000604051806020016040528061402b612143565b90529050600061403b8585613816565b905060006140498284614804565b9050806012546140599190614ecd565b6012556001600160a01b038616600090815260136020526040902054614080908290614ecd565b6001600160a01b0387166000908152601360205260409081902091909155517f4c209b5fc8ad50758f13e2e1088ba56a560dff690a1c6fef26394f4c03821c4f906140d090889085908590614f38565b60405180910390a16040518181526001600160a01b038716903090600080516020614f7e8339815191529060200160405180910390a3505050505050565b60008061411b8585613739565b90506121a06141298261376a565b84614822565b6000670de0b6b3a76400006141488484600001516147ab565b6111d99190614e17565b600a5460405163368f515360e21b81526000916001600160a01b03169063da3d454c9061418790309087908790600401614ea9565b6020604051808303816000875af11580156141a6573d6000803e3d6000fd5b505050506040513d601f19601f820116820180604052508101906141ca9190614de8565b905080156141ee5760405163918db40f60e01b815260048101829052602401610b86565b43600e541461421057604051630e8d8c6160e21b815260040160405180910390fd5b8161421961242d565b1015614238576040516348c2588160e01b815260040160405180910390fd5b600061424384612b92565b905060006142518483614ecd565b90506000846010546142639190614ecd565b6001600160a01b0387166000908152601560205260409020838155600f54600190910155601081905590506142988686613b19565b604080516001600160a01b038816815260208101879052908101839052606081018290527f13ed6866d4e1ee6da46f845c46d7e54120883d75c5ea9a2dacc1c4ca8984ab809060800160405180910390a1505050505050565b600a54604051632fe3f38f60e11b81523060048201526001600160a01b03838116602483015286811660448301528581166064830152608482018590526000921690635fc7e71e9060a4016020604051808303816000875af115801561435b573d6000803e3d6000fd5b505050506040513d601f19601f8201168201806040525081019061437f9190614de8565b905080156143a357604051630a14d17960e11b815260048101829052602401610b86565b43600e54146143c5576040516380965b1b60e01b815260040160405180910390fd5b43826001600160a01b0316636c540baf6040518163ffffffff1660e01b8152600401602060405180830381865afa158015614404573d6000803e3d6000fd5b505050506040513d601f19601f820116820180604052508101906144289190614de8565b1461444657604051631046f38d60e31b815260040160405180910390fd5b846001600160a01b0316846001600160a01b0316141561447957604051631bd1a62160e21b815260040160405180910390fd5b826144975760405163d29da7ef60e01b815260040160405180910390fd5b6000198314156144ba57604051635982c5bb60e11b815260040160405180910390fd5b60006144c7868686613531565b600a5460405163c488847b60e01b815291925060009182916001600160a01b03169063c488847b9061450190309089908890600401614ea9565b6040805180830381865afa15801561451d573d6000803e3d6000fd5b505050506040513d601f19601f820116820180604052508101906145419190614f59565b91509150600082146145b15760405162461bcd60e51b815260206004820152603360248201527f4c49515549444154455f434f4d5054524f4c4c45525f43414c43554c4154455f604482015272105353d5539517d4d152569157d19052531151606a1b6064820152608401610b86565b6040516370a0823160e01b81526001600160a01b0388811660048301528291908716906370a0823190602401602060405180830381865afa1580156145fa573d6000803e3d6000fd5b505050506040513d601f19601f8201168201806040525081019061461e9190614de8565b101561466c5760405162461bcd60e51b815260206004820152601860248201527f4c49515549444154455f5345495a455f544f4f5f4d55434800000000000000006044820152606401610b86565b6001600160a01b03851630141561468e576146893089898461309e565b614748565b60405163b2a02ff160e01b81526000906001600160a01b0387169063b2a02ff1906146c1908c908c908790600401614ea9565b6020604051808303816000875af11580156146e0573d6000803e3d6000fd5b505050506040513d601f19601f820116820180604052508101906147049190614de8565b146147485760405162461bcd60e51b81526020600482015260146024820152731d1bdad95b881cd95a5e9d5c994819985a5b195960621b6044820152606401610b86565b604080516001600160a01b038a811682528981166020830152818301869052871660608201526080810183905290517f298637f684da70674f26509b10f07ec2fbc77a335ab1e7d6215a4b2484d8bb529181900360a00190a15050505050505050565b60006111d98284614efc565b6000826147c48382614ecd565b9150811015610b0f5760405162461bcd60e51b815260206004820152600c60248201526b6164642d6f766572666c6f7760a01b6044820152606401610b86565b60006111d961481b84670de0b6b3a76400006147ab565b835161482e565b60006111d98284614ecd565b60006111d98284614e17565b82805461484690614dad565b90600052602060002090601f01602090048101928261486857600085556148ae565b82601f1061488157805160ff19168380011785556148ae565b828001600101855582156148ae579182015b828111156148ae578251825591602001919060010190614893565b506121a99291505b808211156121a957600081556001016148b6565b600060208083528351808285015260005b818110156148f7578581018301518582016040015282016148db565b81811115614909576000604083870101525b50601f01601f1916929092016040019392505050565b6001600160a01b038116811461493457600080fd5b50565b6000806040838503121561494a57600080fd5b82356149558161491f565b946020939093013593505050565b60006020828403121561497557600080fd5b5035919050565b60008060008060006080868803121561499457600080fd5b853561499f8161491f565b945060208601356149af8161491f565b935060408601359250606086013567ffffffffffffffff808211156149d357600080fd5b818801915088601f8301126149e757600080fd5b8135818111156149f657600080fd5b896020828501011115614a0857600080fd5b9699959850939650602001949392505050565b600060208284031215614a2d57600080fd5b81356111d98161491f565b600080600060608486031215614a4d57600080fd5b8335614a588161491f565b92506020840135614a688161491f565b929592945050506040919091013590565b634e487b7160e01b600052604160045260246000fd5b600067ffffffffffffffff80841115614aaa57614aaa614a79565b604051601f8501601f19908116603f01168101908282118183101715614ad257614ad2614a79565b81604052809350858152868686011115614aeb57600080fd5b858560208301376000602087830101525050509392505050565b600060208284031215614b1757600080fd5b813567ffffffffffffffff811115614b2e57600080fd5b8201601f81018413614b3f57600080fd5b61254184823560208401614a8f565b600082601f830112614b5f57600080fd5b6111d983833560208501614a8f565b803560ff81168114614b7f57600080fd5b919050565b801515811461493457600080fd5b600080600080600080600060e0888a031215614bad57600080fd5b8735614bb88161491f565b96506020880135614bc88161491f565b955060408801359450606088013567ffffffffffffffff80821115614bec57600080fd5b614bf88b838c01614b4e565b955060808a0135915080821115614c0e57600080fd5b50614c1b8a828b01614b4e565b935050614c2a60a08901614b6e565b915060c0880135614c3a81614b84565b8091505092959891949750929550565b600080600080600080600080610100898b031215614c6757600080fd5b8835614c728161491f565b97506020890135614c828161491f565b96506040890135614c928161491f565b955060608901359450608089013567ffffffffffffffff80821115614cb657600080fd5b614cc28c838d01614b4e565b955060a08b0135915080821115614cd857600080fd5b50614ce58b828c01614b4e565b935050614cf460c08a01614b6e565b915060e0890135614d0481614b84565b809150509295985092959890939650565b600060208284031215614d2757600080fd5b81356111d981614b84565b60008060408385031215614d4557600080fd5b8235614d508161491f565b91506020830135614d608161491f565b809150509250929050565b600080600060608486031215614d8057600080fd5b8335614d8b8161491f565b9250602084013591506040840135614da28161491f565b809150509250925092565b600181811c90821680614dc157607f821691505b60208210811415614de257634e487b7160e01b600052602260045260246000fd5b50919050565b600060208284031215614dfa57600080fd5b5051919050565b634e487b7160e01b600052601160045260246000fd5b600082614e3457634e487b7160e01b600052601260045260246000fd5b500490565b6020808252600a90820152691c994b595b9d195c995960b21b604082015260600190565b600060208284031215614e6f57600080fd5b81516111d981614b84565b60008060408385031215614e8d57600080fd5b8251614e988161491f565b6020840151909250614d608161491f565b6001600160a01b039384168152919092166020820152604081019190915260600190565b60008219821115614ee057614ee0614e01565b500190565b600082821015614ef757614ef7614e01565b500390565b6000816000190483118215151615614f1657614f16614e01565b500290565b600060208284031215614f2d57600080fd5b81516111d98161491f565b6001600160a01b039390931683526020830191909152604082015260600190565b60008060408385031215614f6c57600080fd5b50508051602090910151909290915056feddf252ad1be2c89b69c2b068fc378daa952ba7f163c4a11628f55a4df523b3efa264697066735822122044f02b1c21361ed63df606c1771531c66ca00a4e6c8187acab4356e826cf554164736f6c634300080a0033",
  "linkReferences": {},
  "deployedLinkReferences": {}
}