{
  "_format": "hh-sol-artifact-1",
  "contractName": "CDaiDelegate",
  "sourceName": "contracts/CDaiDelegate.sol",
  "abi": [
    {
      "inputs": [],
      "name": "AcceptAdminPendingAdminCheck",
      "type": "error"
    },
    {
      "inputs": [
        {
          "internalType": "uint256",
          "name": "actualAddAmount",
          "type": "uint256"
        }
      ],
      "name": "AddReservesFactorFreshCheck",
      "type": "error"
    },
    {
      "inputs": [],
      "name": "BorrowCashNotAvailable",
      "type": "error"
    },
    {
      "inputs": [
        {
          "internalType": "uint256",
          "name": "errorCode",
          "type": "uint256"
        }
      ],
      "name": "BorrowComptrollerRejection",
      "type": "error"
    },
    {
      "inputs": [],
      "name": "BorrowFreshnessCheck",
      "type": "error"
    },
    {
      "inputs": [
        {
          "internalType": "uint256",
          "name": "errorCode",
          "type": "uint256"
        }
      ],
      "name": "LiquidateAccrueBorrowInterestFailed",
      "type": "error"
    },
    {
      "inputs": [
        {
          "internalType": "uint256",
          "name": "errorCode",
          "type": "uint256"
        }
      ],
      "name": "LiquidateAccrueCollateralInterestFailed",
      "type": "error"
    },
    {
      "inputs": [],
      "name": "LiquidateCloseAmountIsUintMax",
      "type": "error"
    },
    {
      "inputs": [],
      "name": "LiquidateCloseAmountIsZero",
      "type": "error"
    },
    {
      "inputs": [],
      "name": "LiquidateCollateralFreshnessCheck",
      "type": "error"
    },
    {
      "inputs": [
        {
          "internalType": "uint256",
          "name": "errorCode",
          "type": "uint256"
        }
      ],
      "name": "LiquidateComptrollerRejection",
      "type": "error"
    },
    {
      "inputs": [],
      "name": "LiquidateFreshnessCheck",
      "type": "error"
    },
    {
      "inputs": [],
      "name": "LiquidateLiquidatorIsBorrower",
      "type": "error"
    },
    {
      "inputs": [
        {
          "internalType": "uint256",
          "name": "errorCode",
          "type": "uint256"
        }
      ],
      "name": "LiquidateRepayBorrowFreshFailed",
      "type": "error"
    },
    {
      "inputs": [
        {
          "internalType": "uint256",
          "name": "errorCode",
          "type": "uint256"
        }
      ],
      "name": "LiquidateSeizeComptrollerRejection",
      "type": "error"
    },
    {
      "inputs": [],
      "name": "LiquidateSeizeLiquidatorIsBorrower",
      "type": "error"
    },
    {
      "inputs": [
        {
          "internalType": "uint256",
          "name": "errorCode",
          "type": "uint256"
        }
      ],
      "name": "MintComptrollerRejection",
      "type": "error"
    },
    {
      "inputs": [],
      "name": "MintFreshnessCheck",
      "type": "error"
    },
    {
      "inputs": [
        {
          "internalType": "uint256",
          "name": "errorCode",
          "type": "uint256"
        }
      ],
      "name": "RedeemComptrollerRejection",
      "type": "error"
    },
    {
      "inputs": [],
      "name": "RedeemFreshnessCheck",
      "type": "error"
    },
    {
      "inputs": [],
      "name": "RedeemTransferOutNotPossible",
      "type": "error"
    },
    {
      "inputs": [],
      "name": "ReduceReservesAdminCheck",
      "type": "error"
    },
    {
      "inputs": [],
      "name": "ReduceReservesCashNotAvailable",
      "type": "error"
    },
    {
      "inputs": [],
      "name": "ReduceReservesCashValidation",
      "type": "error"
    },
    {
      "inputs": [],
      "name": "ReduceReservesFreshCheck",
      "type": "error"
    },
    {
      "inputs": [
        {
          "internalType": "uint256",
          "name": "errorCode",
          "type": "uint256"
        }
      ],
      "name": "RepayBorrowComptrollerRejection",
      "type": "error"
    },
    {
      "inputs": [],
      "name": "RepayBorrowFreshnessCheck",
      "type": "error"
    },
    {
      "inputs": [],
      "name": "SetAutoCompoundOwnerCheck",
      "type": "error"
    },
    {
      "inputs": [],
      "name": "SetComptrollerOwnerCheck",
      "type": "error"
    },
    {
      "inputs": [],
      "name": "SetInterestRateModelFreshCheck",
      "type": "error"
    },
    {
      "inputs": [],
      "name": "SetInterestRateModelOwnerCheck",
      "type": "error"
    },
    {
      "inputs": [],
      "name": "SetPendingAdminOwnerCheck",
      "type": "error"
    },
    {
      "inputs": [],
      "name": "SetReserveFactorAdminCheck",
      "type": "error"
    },
    {
      "inputs": [],
      "name": "SetReserveFactorBoundsCheck",
      "type": "error"
    },
    {
      "inputs": [],
      "name": "SetReserveFactorFreshCheck",
      "type": "error"
    },
    {
      "inputs": [],
      "name": "SetStakedGlpAddressOwnerCheck",
      "type": "error"
    },
    {
      "inputs": [],
      "name": "SignalTransferOwnerCheck",
      "type": "error"
    },
    {
      "inputs": [
        {
          "internalType": "uint256",
          "name": "errorCode",
          "type": "uint256"
        }
      ],
      "name": "TransferComptrollerRejection",
      "type": "error"
    },
    {
      "inputs": [],
      "name": "TransferNotAllowed",
      "type": "error"
    },
    {
      "inputs": [],
      "name": "TransferNotEnough",
      "type": "error"
    },
    {
      "inputs": [],
      "name": "TransferTooMuch",
      "type": "error"
    },
    {
      "anonymous": false,
      "inputs": [
        {
          "indexed": false,
          "internalType": "uint256",
          "name": "cashPrior",
          "type": "uint256"
        },
        {
          "indexed": false,
          "internalType": "uint256",
          "name": "interestAccumulated",
          "type": "uint256"
        },
        {
          "indexed": false,
          "internalType": "uint256",
          "name": "borrowIndex",
          "type": "uint256"
        },
        {
          "indexed": false,
          "internalType": "uint256",
          "name": "totalBorrows",
          "type": "uint256"
        }
      ],
      "name": "AccrueInterest",
      "type": "event"
    },
    {
      "anonymous": false,
      "inputs": [
        {
          "indexed": true,
          "internalType": "address",
          "name": "owner",
          "type": "address"
        },
        {
          "indexed": true,
          "internalType": "address",
          "name": "spender",
          "type": "address"
        },
        {
          "indexed": false,
          "internalType": "uint256",
          "name": "amount",
          "type": "uint256"
        }
      ],
      "name": "Approval",
      "type": "event"
    },
    {
      "anonymous": false,
      "inputs": [
        {
          "indexed": false,
          "internalType": "address",
          "name": "borrower",
          "type": "address"
        },
        {
          "indexed": false,
          "internalType": "uint256",
          "name": "borrowAmount",
          "type": "uint256"
        },
        {
          "indexed": false,
          "internalType": "uint256",
          "name": "accountBorrows",
          "type": "uint256"
        },
        {
          "indexed": false,
          "internalType": "uint256",
          "name": "totalBorrows",
          "type": "uint256"
        }
      ],
      "name": "Borrow",
      "type": "event"
    },
    {
      "anonymous": false,
      "inputs": [
        {
          "indexed": false,
          "internalType": "address",
          "name": "liquidator",
          "type": "address"
        },
        {
          "indexed": false,
          "internalType": "address",
          "name": "borrower",
          "type": "address"
        },
        {
          "indexed": false,
          "internalType": "uint256",
          "name": "repayAmount",
          "type": "uint256"
        },
        {
          "indexed": false,
          "internalType": "address",
          "name": "cTokenCollateral",
          "type": "address"
        },
        {
          "indexed": false,
          "internalType": "uint256",
          "name": "seizeTokens",
          "type": "uint256"
        }
      ],
      "name": "LiquidateBorrow",
      "type": "event"
    },
    {
      "anonymous": false,
      "inputs": [
        {
          "indexed": false,
          "internalType": "address",
          "name": "minter",
          "type": "address"
        },
        {
          "indexed": false,
          "internalType": "uint256",
          "name": "mintAmount",
          "type": "uint256"
        },
        {
          "indexed": false,
          "internalType": "uint256",
          "name": "mintTokens",
          "type": "uint256"
        }
      ],
      "name": "Mint",
      "type": "event"
    },
    {
      "anonymous": false,
      "inputs": [
        {
          "indexed": false,
          "internalType": "address",
          "name": "oldAdmin",
          "type": "address"
        },
        {
          "indexed": false,
          "internalType": "address",
          "name": "newAdmin",
          "type": "address"
        }
      ],
      "name": "NewAdmin",
      "type": "event"
    },
    {
      "anonymous": false,
      "inputs": [
        {
          "indexed": false,
          "internalType": "contract ComptrollerInterface",
          "name": "oldComptroller",
          "type": "address"
        },
        {
          "indexed": false,
          "internalType": "contract ComptrollerInterface",
          "name": "newComptroller",
          "type": "address"
        }
      ],
      "name": "NewComptroller",
      "type": "event"
    },
    {
      "anonymous": false,
      "inputs": [
        {
          "indexed": false,
          "internalType": "contract InterestRateModel",
          "name": "oldInterestRateModel",
          "type": "address"
        },
        {
          "indexed": false,
          "internalType": "contract InterestRateModel",
          "name": "newInterestRateModel",
          "type": "address"
        }
      ],
      "name": "NewMarketInterestRateModel",
      "type": "event"
    },
    {
      "anonymous": false,
      "inputs": [
        {
          "indexed": false,
          "internalType": "address",
          "name": "oldPendingAdmin",
          "type": "address"
        },
        {
          "indexed": false,
          "internalType": "address",
          "name": "newPendingAdmin",
          "type": "address"
        }
      ],
      "name": "NewPendingAdmin",
      "type": "event"
    },
    {
      "anonymous": false,
      "inputs": [
        {
          "indexed": false,
          "internalType": "uint256",
          "name": "oldReserveFactorMantissa",
          "type": "uint256"
        },
        {
          "indexed": false,
          "internalType": "uint256",
          "name": "newReserveFactorMantissa",
          "type": "uint256"
        }
      ],
      "name": "NewReserveFactor",
      "type": "event"
    },
    {
      "anonymous": false,
      "inputs": [
        {
          "indexed": false,
          "internalType": "address",
          "name": "redeemer",
          "type": "address"
        },
        {
          "indexed": false,
          "internalType": "uint256",
          "name": "redeemAmount",
          "type": "uint256"
        },
        {
          "indexed": false,
          "internalType": "uint256",
          "name": "redeemTokens",
          "type": "uint256"
        }
      ],
      "name": "Redeem",
      "type": "event"
    },
    {
      "anonymous": false,
      "inputs": [
        {
          "indexed": false,
          "internalType": "address",
          "name": "payer",
          "type": "address"
        },
        {
          "indexed": false,
          "internalType": "address",
          "name": "borrower",
          "type": "address"
        },
        {
          "indexed": false,
          "internalType": "uint256",
          "name": "repayAmount",
          "type": "uint256"
        },
        {
          "indexed": false,
          "internalType": "uint256",
          "name": "accountBorrows",
          "type": "uint256"
        },
        {
          "indexed": false,
          "internalType": "uint256",
          "name": "totalBorrows",
          "type": "uint256"
        }
      ],
      "name": "RepayBorrow",
      "type": "event"
    },
    {
      "anonymous": false,
      "inputs": [
        {
          "indexed": false,
          "internalType": "address",
          "name": "benefactor",
          "type": "address"
        },
        {
          "indexed": false,
          "internalType": "uint256",
          "name": "addAmount",
          "type": "uint256"
        },
        {
          "indexed": false,
          "internalType": "uint256",
          "name": "newTotalReserves",
          "type": "uint256"
        }
      ],
      "name": "ReservesAdded",
      "type": "event"
    },
    {
      "anonymous": false,
      "inputs": [
        {
          "indexed": false,
          "internalType": "address",
          "name": "admin",
          "type": "address"
        },
        {
          "indexed": false,
          "internalType": "uint256",
          "name": "reduceAmount",
          "type": "uint256"
        },
        {
          "indexed": false,
          "internalType": "uint256",
          "name": "newTotalReserves",
          "type": "uint256"
        }
      ],
      "name": "ReservesReduced",
      "type": "event"
    },
    {
      "anonymous": false,
      "inputs": [
        {
          "indexed": true,
          "internalType": "address",
          "name": "from",
          "type": "address"
        },
        {
          "indexed": true,
          "internalType": "address",
          "name": "to",
          "type": "address"
        },
        {
          "indexed": false,
          "internalType": "uint256",
          "name": "amount",
          "type": "uint256"
        }
      ],
      "name": "Transfer",
      "type": "event"
    },
    {
      "inputs": [],
      "name": "NO_ERROR",
      "outputs": [
        {
          "internalType": "uint256",
          "name": "",
          "type": "uint256"
        }
      ],
      "stateMutability": "view",
      "type": "function"
    },
    {
      "inputs": [],
      "name": "WETH",
      "outputs": [
        {
          "internalType": "address",
          "name": "",
          "type": "address"
        }
      ],
      "stateMutability": "view",
      "type": "function"
    },
    {
      "inputs": [],
      "name": "_acceptAdmin",
      "outputs": [
        {
          "internalType": "uint256",
          "name": "",
          "type": "uint256"
        }
      ],
      "stateMutability": "nonpayable",
      "type": "function"
    },
    {
      "inputs": [
        {
          "internalType": "uint256",
          "name": "addAmount",
          "type": "uint256"
        }
      ],
      "name": "_addReserves",
      "outputs": [
        {
          "internalType": "uint256",
          "name": "",
          "type": "uint256"
        }
      ],
      "stateMutability": "nonpayable",
      "type": "function"
    },
    {
      "inputs": [
        {
          "internalType": "bytes",
          "name": "data",
          "type": "bytes"
        }
      ],
      "name": "_becomeImplementation",
      "outputs": [],
      "stateMutability": "nonpayable",
      "type": "function"
    },
    {
      "inputs": [
        {
          "internalType": "address",
          "name": "compLikeDelegatee",
          "type": "address"
        }
      ],
      "name": "_delegateCompLikeTo",
      "outputs": [],
      "stateMutability": "nonpayable",
      "type": "function"
    },
    {
      "inputs": [
        {
          "internalType": "uint256",
          "name": "reduceAmount",
          "type": "uint256"
        }
      ],
      "name": "_reduceReserves",
      "outputs": [
        {
          "internalType": "uint256",
          "name": "",
          "type": "uint256"
        }
      ],
      "stateMutability": "nonpayable",
      "type": "function"
    },
    {
      "inputs": [],
      "name": "_resignImplementation",
      "outputs": [],
      "stateMutability": "nonpayable",
      "type": "function"
    },
    {
      "inputs": [
        {
          "internalType": "bool",
          "name": "autocompound_",
          "type": "bool"
        }
      ],
      "name": "_setAutocompoundRewards",
      "outputs": [
        {
          "internalType": "uint256",
          "name": "",
          "type": "uint256"
        }
      ],
      "stateMutability": "nonpayable",
      "type": "function"
    },
    {
      "inputs": [
        {
          "internalType": "contract ComptrollerInterface",
          "name": "newComptroller",
          "type": "address"
        }
      ],
      "name": "_setComptroller",
      "outputs": [
        {
          "internalType": "uint256",
          "name": "",
          "type": "uint256"
        }
      ],
      "stateMutability": "nonpayable",
      "type": "function"
    },
    {
      "inputs": [
        {
          "internalType": "contract IStakedGlp",
          "name": "stakedGLP_",
          "type": "address"
        },
        {
          "internalType": "contract IGmxRewardRouter",
          "name": "glpRewardRouter_",
          "type": "address"
        },
        {
          "internalType": "address",
          "name": "glpManager_",
          "type": "address"
        }
      ],
      "name": "_setGlpAddresses",
      "outputs": [
        {
          "internalType": "uint256",
          "name": "",
          "type": "uint256"
        }
      ],
      "stateMutability": "nonpayable",
      "type": "function"
    },
    {
      "inputs": [
        {
          "internalType": "contract InterestRateModel",
          "name": "newInterestRateModel",
          "type": "address"
        }
      ],
      "name": "_setInterestRateModel",
      "outputs": [
        {
          "internalType": "uint256",
          "name": "",
          "type": "uint256"
        }
      ],
      "stateMutability": "nonpayable",
      "type": "function"
    },
    {
      "inputs": [
        {
          "internalType": "address payable",
          "name": "newPendingAdmin",
          "type": "address"
        }
      ],
      "name": "_setPendingAdmin",
      "outputs": [
        {
          "internalType": "uint256",
          "name": "",
          "type": "uint256"
        }
      ],
      "stateMutability": "nonpayable",
      "type": "function"
    },
    {
      "inputs": [
        {
          "internalType": "uint256",
          "name": "newReserveFactorMantissa",
          "type": "uint256"
        }
      ],
      "name": "_setReserveFactor",
      "outputs": [
        {
          "internalType": "uint256",
          "name": "",
          "type": "uint256"
        }
      ],
      "stateMutability": "nonpayable",
      "type": "function"
    },
    {
      "inputs": [
        {
          "internalType": "address",
          "name": "recipient",
          "type": "address"
        }
      ],
      "name": "_signalTransfer",
      "outputs": [
        {
          "internalType": "uint256",
          "name": "",
          "type": "uint256"
        }
      ],
      "stateMutability": "nonpayable",
      "type": "function"
    },
    {
      "inputs": [],
      "name": "accrualBlockNumber",
      "outputs": [
        {
          "internalType": "uint256",
          "name": "",
          "type": "uint256"
        }
      ],
      "stateMutability": "view",
      "type": "function"
    },
    {
      "inputs": [],
      "name": "accrueInterest",
      "outputs": [
        {
          "internalType": "uint256",
          "name": "",
          "type": "uint256"
        }
      ],
      "stateMutability": "nonpayable",
      "type": "function"
    },
    {
      "inputs": [],
      "name": "admin",
      "outputs": [
        {
          "internalType": "address payable",
          "name": "",
          "type": "address"
        }
      ],
      "stateMutability": "view",
      "type": "function"
    },
    {
      "inputs": [
        {
          "internalType": "address",
          "name": "owner",
          "type": "address"
        },
        {
          "internalType": "address",
          "name": "spender",
          "type": "address"
        }
      ],
      "name": "allowance",
      "outputs": [
        {
          "internalType": "uint256",
          "name": "",
          "type": "uint256"
        }
      ],
      "stateMutability": "view",
      "type": "function"
    },
    {
      "inputs": [
        {
          "internalType": "address",
          "name": "spender",
          "type": "address"
        },
        {
          "internalType": "uint256",
          "name": "amount",
          "type": "uint256"
        }
      ],
      "name": "approve",
      "outputs": [
        {
          "internalType": "bool",
          "name": "",
          "type": "bool"
        }
      ],
      "stateMutability": "nonpayable",
      "type": "function"
    },
    {
      "inputs": [],
      "name": "autocompound",
      "outputs": [
        {
          "internalType": "bool",
          "name": "",
          "type": "bool"
        }
      ],
      "stateMutability": "view",
      "type": "function"
    },
    {
      "inputs": [
        {
          "internalType": "address",
          "name": "owner",
          "type": "address"
        }
      ],
      "name": "balanceOf",
      "outputs": [
        {
          "internalType": "uint256",
          "name": "",
          "type": "uint256"
        }
      ],
      "stateMutability": "view",
      "type": "function"
    },
    {
      "inputs": [
        {
          "internalType": "address",
          "name": "owner",
          "type": "address"
        }
      ],
      "name": "balanceOfUnderlying",
      "outputs": [
        {
          "internalType": "uint256",
          "name": "",
          "type": "uint256"
        }
      ],
      "stateMutability": "nonpayable",
      "type": "function"
    },
    {
      "inputs": [
        {
          "internalType": "uint256",
          "name": "borrowAmount",
          "type": "uint256"
        }
      ],
      "name": "borrow",
      "outputs": [
        {
          "internalType": "uint256",
          "name": "",
          "type": "uint256"
        }
      ],
      "stateMutability": "nonpayable",
      "type": "function"
    },
    {
      "inputs": [
        {
          "internalType": "address",
          "name": "account",
          "type": "address"
        }
      ],
      "name": "borrowBalanceCurrent",
      "outputs": [
        {
          "internalType": "uint256",
          "name": "",
          "type": "uint256"
        }
      ],
      "stateMutability": "nonpayable",
      "type": "function"
    },
    {
      "inputs": [
        {
          "internalType": "address",
          "name": "account",
          "type": "address"
        }
      ],
      "name": "borrowBalanceStored",
      "outputs": [
        {
          "internalType": "uint256",
          "name": "",
          "type": "uint256"
        }
      ],
      "stateMutability": "view",
      "type": "function"
    },
    {
      "inputs": [],
      "name": "borrowIndex",
      "outputs": [
        {
          "internalType": "uint256",
          "name": "",
          "type": "uint256"
        }
      ],
      "stateMutability": "view",
      "type": "function"
    },
    {
      "inputs": [],
      "name": "borrowRatePerBlock",
      "outputs": [
        {
          "internalType": "uint256",
          "name": "",
          "type": "uint256"
        }
      ],
      "stateMutability": "view",
      "type": "function"
    },
    {
      "inputs": [],
      "name": "comptroller",
      "outputs": [
        {
          "internalType": "contract ComptrollerInterface",
          "name": "",
          "type": "address"
        }
      ],
      "stateMutability": "view",
      "type": "function"
    },
    {
      "inputs": [],
      "name": "daiJoinAddress",
      "outputs": [
        {
          "internalType": "address",
          "name": "",
          "type": "address"
        }
      ],
      "stateMutability": "view",
      "type": "function"
    },
    {
      "inputs": [],
      "name": "decimals",
      "outputs": [
        {
          "internalType": "uint8",
          "name": "",
          "type": "uint8"
        }
      ],
      "stateMutability": "view",
      "type": "function"
    },
    {
      "inputs": [
        {
          "internalType": "address",
          "name": "_NFTAddress",
          "type": "address"
        },
        {
          "internalType": "uint256",
          "name": "_TokenID",
          "type": "uint256"
        }
      ],
      "name": "depositNFT",
      "outputs": [],
      "stateMutability": "nonpayable",
      "type": "function"
    },
    {
      "inputs": [],
      "name": "exchangeRateCurrent",
      "outputs": [
        {
          "internalType": "uint256",
          "name": "",
          "type": "uint256"
        }
      ],
      "stateMutability": "nonpayable",
      "type": "function"
    },
    {
      "inputs": [],
      "name": "exchangeRateStored",
      "outputs": [
        {
          "internalType": "uint256",
          "name": "",
          "type": "uint256"
        }
      ],
      "stateMutability": "view",
      "type": "function"
    },
    {
      "inputs": [
        {
          "internalType": "address",
          "name": "account",
          "type": "address"
        }
      ],
      "name": "getAccountSnapshot",
      "outputs": [
        {
          "internalType": "uint256",
          "name": "",
          "type": "uint256"
        },
        {
          "internalType": "uint256",
          "name": "",
          "type": "uint256"
        },
        {
          "internalType": "uint256",
          "name": "",
          "type": "uint256"
        },
        {
          "internalType": "uint256",
          "name": "",
          "type": "uint256"
        }
      ],
      "stateMutability": "view",
      "type": "function"
    },
    {
      "inputs": [],
      "name": "getCash",
      "outputs": [
        {
          "internalType": "uint256",
          "name": "",
          "type": "uint256"
        }
      ],
      "stateMutability": "view",
      "type": "function"
    },
    {
      "inputs": [],
      "name": "glpManager",
      "outputs": [
        {
          "internalType": "address",
          "name": "",
          "type": "address"
        }
      ],
      "stateMutability": "view",
      "type": "function"
    },
    {
      "inputs": [],
      "name": "glpRewardRouter",
      "outputs": [
        {
          "internalType": "contract IGmxRewardRouter",
          "name": "",
          "type": "address"
        }
      ],
      "stateMutability": "view",
      "type": "function"
    },
    {
      "inputs": [],
      "name": "gmxToken",
      "outputs": [
        {
          "internalType": "address",
          "name": "",
          "type": "address"
        }
      ],
      "stateMutability": "view",
      "type": "function"
    },
    {
      "inputs": [],
      "name": "implementation",
      "outputs": [
        {
          "internalType": "address",
          "name": "",
          "type": "address"
        }
      ],
      "stateMutability": "view",
      "type": "function"
    },
    {
      "inputs": [
        {
          "internalType": "contract ComptrollerInterface",
          "name": "comptroller_",
          "type": "address"
        },
        {
          "internalType": "contract InterestRateModel",
          "name": "interestRateModel_",
          "type": "address"
        },
        {
          "internalType": "uint256",
          "name": "initialExchangeRateMantissa_",
          "type": "uint256"
        },
        {
          "internalType": "string",
          "name": "name_",
          "type": "string"
        },
        {
          "internalType": "string",
          "name": "symbol_",
          "type": "string"
        },
        {
          "internalType": "uint8",
          "name": "decimals_",
          "type": "uint8"
        },
        {
          "internalType": "bool",
          "name": "isGLP_",
          "type": "bool"
        }
      ],
      "name": "initialize",
      "outputs": [],
      "stateMutability": "nonpayable",
      "type": "function"
    },
    {
      "inputs": [
        {
          "internalType": "address",
          "name": "underlying_",
          "type": "address"
        },
        {
          "internalType": "contract ComptrollerInterface",
          "name": "comptroller_",
          "type": "address"
        },
        {
          "internalType": "contract InterestRateModel",
          "name": "interestRateModel_",
          "type": "address"
        },
        {
          "internalType": "uint256",
          "name": "initialExchangeRateMantissa_",
          "type": "uint256"
        },
        {
          "internalType": "string",
          "name": "name_",
          "type": "string"
        },
        {
          "internalType": "string",
          "name": "symbol_",
          "type": "string"
        },
        {
          "internalType": "uint8",
          "name": "decimals_",
          "type": "uint8"
        },
        {
          "internalType": "bool",
          "name": "isGLP_",
          "type": "bool"
        }
      ],
      "name": "initialize",
      "outputs": [],
      "stateMutability": "nonpayable",
      "type": "function"
    },
    {
      "inputs": [],
      "name": "interestRateModel",
      "outputs": [
        {
          "internalType": "contract InterestRateModel",
          "name": "",
          "type": "address"
        }
      ],
      "stateMutability": "view",
      "type": "function"
    },
    {
      "inputs": [],
      "name": "isCToken",
      "outputs": [
        {
          "internalType": "bool",
          "name": "",
          "type": "bool"
        }
      ],
      "stateMutability": "view",
      "type": "function"
    },
    {
      "inputs": [],
      "name": "isGLP",
      "outputs": [
        {
          "internalType": "bool",
          "name": "",
          "type": "bool"
        }
      ],
      "stateMutability": "view",
      "type": "function"
    },
    {
      "inputs": [
        {
          "internalType": "address",
          "name": "borrower",
          "type": "address"
        },
        {
          "internalType": "uint256",
          "name": "repayAmount",
          "type": "uint256"
        },
        {
          "internalType": "contract CTokenInterface",
          "name": "cTokenCollateral",
          "type": "address"
        }
      ],
      "name": "liquidateBorrow",
      "outputs": [
        {
          "internalType": "uint256",
          "name": "",
          "type": "uint256"
        }
      ],
      "stateMutability": "nonpayable",
      "type": "function"
    },
    {
      "inputs": [
        {
          "internalType": "uint256",
          "name": "mintAmount",
          "type": "uint256"
        }
      ],
      "name": "mint",
      "outputs": [
        {
          "internalType": "uint256",
          "name": "",
          "type": "uint256"
        }
      ],
      "stateMutability": "nonpayable",
      "type": "function"
    },
    {
      "inputs": [],
      "name": "name",
      "outputs": [
        {
          "internalType": "string",
          "name": "",
          "type": "string"
        }
      ],
      "stateMutability": "view",
      "type": "function"
    },
    {
      "inputs": [
        {
          "internalType": "address",
          "name": "",
          "type": "address"
        },
        {
          "internalType": "address",
          "name": "",
          "type": "address"
        },
        {
          "internalType": "uint256",
          "name": "",
          "type": "uint256"
        },
        {
          "internalType": "bytes",
          "name": "",
          "type": "bytes"
        }
      ],
      "name": "onERC721Received",
      "outputs": [
        {
          "internalType": "bytes4",
          "name": "",
          "type": "bytes4"
        }
      ],
      "stateMutability": "nonpayable",
      "type": "function"
    },
    {
      "inputs": [],
      "name": "pendingAdmin",
      "outputs": [
        {
          "internalType": "address payable",
          "name": "",
          "type": "address"
        }
      ],
      "stateMutability": "view",
      "type": "function"
    },
    {
      "inputs": [],
      "name": "potAddress",
      "outputs": [
        {
          "internalType": "address",
          "name": "",
          "type": "address"
        }
      ],
      "stateMutability": "view",
      "type": "function"
    },
    {
      "inputs": [],
      "name": "protocolSeizeShareMantissa",
      "outputs": [
        {
          "internalType": "uint256",
          "name": "",
          "type": "uint256"
        }
      ],
      "stateMutability": "view",
      "type": "function"
    },
    {
      "inputs": [
        {
          "internalType": "uint256",
          "name": "redeemTokens",
          "type": "uint256"
        }
      ],
      "name": "redeem",
      "outputs": [
        {
          "internalType": "uint256",
          "name": "",
          "type": "uint256"
        }
      ],
      "stateMutability": "nonpayable",
      "type": "function"
    },
    {
      "inputs": [
        {
          "internalType": "uint256",
          "name": "redeemAmount",
          "type": "uint256"
        }
      ],
      "name": "redeemUnderlying",
      "outputs": [
        {
          "internalType": "uint256",
          "name": "",
          "type": "uint256"
        }
      ],
      "stateMutability": "nonpayable",
      "type": "function"
    },
    {
      "inputs": [
        {
          "internalType": "uint256",
          "name": "repayAmount",
          "type": "uint256"
        }
      ],
      "name": "repayBorrow",
      "outputs": [
        {
          "internalType": "uint256",
          "name": "",
          "type": "uint256"
        }
      ],
      "stateMutability": "nonpayable",
      "type": "function"
    },
    {
      "inputs": [
        {
          "internalType": "address",
          "name": "borrower",
          "type": "address"
        },
        {
          "internalType": "uint256",
          "name": "repayAmount",
          "type": "uint256"
        }
      ],
      "name": "repayBorrowBehalf",
      "outputs": [
        {
          "internalType": "uint256",
          "name": "",
          "type": "uint256"
        }
      ],
      "stateMutability": "nonpayable",
      "type": "function"
    },
    {
      "inputs": [],
      "name": "reserveFactorMantissa",
      "outputs": [
        {
          "internalType": "uint256",
          "name": "",
          "type": "uint256"
        }
      ],
      "stateMutability": "view",
      "type": "function"
    },
    {
      "inputs": [],
      "name": "sbfGMX",
      "outputs": [
        {
          "internalType": "address",
          "name": "",
          "type": "address"
        }
      ],
      "stateMutability": "view",
      "type": "function"
    },
    {
      "inputs": [
        {
          "internalType": "address",
          "name": "liquidator",
          "type": "address"
        },
        {
          "internalType": "address",
          "name": "borrower",
          "type": "address"
        },
        {
          "internalType": "uint256",
          "name": "seizeTokens",
          "type": "uint256"
        }
      ],
      "name": "seize",
      "outputs": [
        {
          "internalType": "uint256",
          "name": "",
          "type": "uint256"
        }
      ],
      "stateMutability": "nonpayable",
      "type": "function"
    },
    {
      "inputs": [],
      "name": "stakedGLP",
      "outputs": [
        {
          "internalType": "contract IStakedGlp",
          "name": "",
          "type": "address"
        }
      ],
      "stateMutability": "view",
      "type": "function"
    },
    {
      "inputs": [],
      "name": "stakedGmxTracker",
      "outputs": [
        {
          "internalType": "contract IRewardTracker",
          "name": "",
          "type": "address"
        }
      ],
      "stateMutability": "view",
      "type": "function"
    },
    {
      "inputs": [],
      "name": "supplyRatePerBlock",
      "outputs": [
        {
          "internalType": "uint256",
          "name": "",
          "type": "uint256"
        }
      ],
      "stateMutability": "view",
      "type": "function"
    },
    {
      "inputs": [
        {
          "internalType": "contract EIP20NonStandardInterface",
          "name": "token",
          "type": "address"
        }
      ],
      "name": "sweepToken",
      "outputs": [],
      "stateMutability": "nonpayable",
      "type": "function"
    },
    {
      "inputs": [],
      "name": "symbol",
      "outputs": [
        {
          "internalType": "string",
          "name": "",
          "type": "string"
        }
      ],
      "stateMutability": "view",
      "type": "function"
    },
    {
      "inputs": [
        {
          "internalType": "address",
          "name": "underlying_",
          "type": "address"
        },
        {
          "internalType": "contract ComptrollerInterface",
          "name": "comptroller_",
          "type": "address"
        },
        {
          "internalType": "contract InterestRateModel",
          "name": "interestRateModel_",
          "type": "address"
        },
        {
          "internalType": "uint256",
          "name": "initialExchangeRateMantissa_",
          "type": "uint256"
        },
        {
          "internalType": "string",
          "name": "name_",
          "type": "string"
        },
        {
          "internalType": "string",
          "name": "symbol_",
          "type": "string"
        },
        {
          "internalType": "uint8",
          "name": "decimals_",
          "type": "uint8"
        },
        {
          "internalType": "bool",
          "name": "isGLP_",
          "type": "bool"
        }
      ],
      "name": "tinit",
      "outputs": [],
      "stateMutability": "nonpayable",
      "type": "function"
    },
    {
      "inputs": [],
      "name": "totalBorrows",
      "outputs": [
        {
          "internalType": "uint256",
          "name": "",
          "type": "uint256"
        }
      ],
      "stateMutability": "view",
      "type": "function"
    },
    {
      "inputs": [],
      "name": "totalBorrowsCurrent",
      "outputs": [
        {
          "internalType": "uint256",
          "name": "",
          "type": "uint256"
        }
      ],
      "stateMutability": "nonpayable",
      "type": "function"
    },
    {
      "inputs": [],
      "name": "totalReserves",
      "outputs": [
        {
          "internalType": "uint256",
          "name": "",
          "type": "uint256"
        }
      ],
      "stateMutability": "view",
      "type": "function"
    },
    {
      "inputs": [],
      "name": "totalSupply",
      "outputs": [
        {
          "internalType": "uint256",
          "name": "",
          "type": "uint256"
        }
      ],
      "stateMutability": "view",
      "type": "function"
    },
    {
      "inputs": [
        {
          "internalType": "address",
          "name": "dst",
          "type": "address"
        },
        {
          "internalType": "uint256",
          "name": "amount",
          "type": "uint256"
        }
      ],
      "name": "transfer",
      "outputs": [
        {
          "internalType": "bool",
          "name": "",
          "type": "bool"
        }
      ],
      "stateMutability": "nonpayable",
      "type": "function"
    },
    {
      "inputs": [
        {
          "internalType": "address",
          "name": "src",
          "type": "address"
        },
        {
          "internalType": "address",
          "name": "dst",
          "type": "address"
        },
        {
          "internalType": "uint256",
          "name": "amount",
          "type": "uint256"
        }
      ],
      "name": "transferFrom",
      "outputs": [
        {
          "internalType": "bool",
          "name": "",
          "type": "bool"
        }
      ],
      "stateMutability": "nonpayable",
      "type": "function"
    },
    {
      "inputs": [],
      "name": "underlying",
      "outputs": [
        {
          "internalType": "address",
          "name": "",
          "type": "address"
        }
      ],
      "stateMutability": "view",
      "type": "function"
    },
    {
      "inputs": [],
      "name": "vatAddress",
      "outputs": [
        {
          "internalType": "address",
          "name": "",
          "type": "address"
        }
      ],
      "stateMutability": "view",
      "type": "function"
    },
    {
      "inputs": [
        {
          "internalType": "address",
          "name": "_NFTAddress",
          "type": "address"
        },
        {
          "internalType": "uint256",
          "name": "_TokenID",
          "type": "uint256"
        }
      ],
      "name": "withdrawNFT",
      "outputs": [],
      "stateMutability": "nonpayable",
      "type": "function"
    }
  ],
  "bytecode": "0x60a06040526000805476a906f338cb21815cbc4bc87ace9e68c87ef8d8f10000006301000000600160b81b0319909116179055600180546001600160a01b0319908116732f546ad4edd93b956c8999be404cdcafde3e89ae1790915560028054821673fc5a1a6eb076a2c7ad06ed22c90d7e710e35ad0a17905560038054821673908c4d94d34924765f1edc22a1dd098397c59dd417905560048054821673d2d1162512f927a7e282ef43a362659e4f2a728f1790557382af49447d8a07e3bd95bd0d56f35241523fbab16080526005805490911673321f653eed006ad1c29d174e17d96351bde226491790553480156100f857600080fd5b50608051614f4a6101296000396000818161081601528181611c9b01528181612c220152612cb90152614f4a6000f3fe608060405234801561001057600080fd5b506004361061043e5760003560e01c806373acee9811610236578063b71d1a0c1161013b578063e9c714f2116100c3578063f8f9da2811610087578063f8f9da2814610992578063fa6db1bc1461099a578063fca7820b146109ad578063fe9c44ae146109c0578063ff503ed2146109c857600080fd5b8063e9c714f214610939578063f2b3abbd14610941578063f3fdb15a14610954578063f5e3c46214610967578063f851a4401461097a57600080fd5b8063c37f68e21161010a578063c37f68e214610894578063c5ebeaec146108c7578063ceeb0279146108da578063db006a75146108ed578063dd62ed3e1461090057600080fd5b8063b71d1a0c14610853578063bae49e9914610866578063bc3b7a1814610879578063bd6d894d1461088c57600080fd5b806395dd9193116101be578063a9059cbb1161018d578063a9059cbb146107f5578063aa5af0fd14610808578063ad5c464814610811578063ae9d70b014610838578063b2a02ff11461084057600080fd5b806395dd9193146107b45780639b5b9b18146107c7578063a0712d68146107da578063a6afed95146107ed57600080fd5b8063852a12e311610205578063852a12e31461076a5780638a8df2e61461077d5780638d925ccd146107905780638f840ddd146107a357806395d89b41146107ac57600080fd5b806373acee981461072a57806376162908146107325780637f1e06be14610745578063842e11eb1461075857600080fd5b80633af9e669116103475780635fe609db116102cf578063686722311161029357806368672231146106c357806369ab3250146106dd5780636c540baf146106e55780636f307dc3146106ee57806370a082311461070157600080fd5b80635fe609db14610669578063601a0bf11461067c5780636088e93a1461068f57806366ced602146106a25780636752e702146106b557600080fd5b806347bd37181161031657806347bd37181461061457806356e677281461061d5780635b30cf55146106305780635c60da1b146106435780635fe3b5671461065657600080fd5b80633af9e669146105d35780633b1d21a2146105e65780633e941010146105ee5780634576b5db1461060157600080fd5b806318160ddd116103ca5780632608f818116103995780632608f81814610568578063267822471461057b57806326d9687c1461058e578063313ce567146105a157806336818b01146105c057600080fd5b806318160ddd14610531578063182df0f51461053a5780631be195601461054257806323b872dd1461055557600080fd5b80630e752702116104115780630e752702146104be578063150b7a02146104df578063153ab5051461050b578063173b99041461051557806317bfdfbc1461051e57600080fd5b806306dd74e51461044357806306fdde0314610473578063095ea7b3146104885780630ce4018a146104ab575b600080fd5b600454610456906001600160a01b031681565b6040516001600160a01b0390911681526020015b60405180910390f35b61047b6109db565b60405161046a9190614801565b61049b61049636600461486e565b610a69565b604051901515815260200161046a565b600354610456906001600160a01b031681565b6104d16104cc36600461489a565b610ad9565b60405190815260200161046a565b6104f26104ed3660046148b3565b610aec565b6040516001600160e01b0319909116815260200161046a565b610513610b65565b005b6104d1600d5481565b6104d161052c366004614952565b610e1b565b6104d160125481565b6104d1610e6e565b610513610550366004614952565b610e7d565b61049b61056336600461496f565b61104a565b6104d161057636600461486e565b61109a565b600954610456906001600160a01b031681565b60005461049b9062010000900460ff1681565b6008546105ae9060ff1681565b60405160ff909116815260200161046a565b6104d16105ce366004614952565b6110af565b6104d16105e1366004614952565b61115e565b6104d16111a4565b6104d16105fc36600461489a565b6111ae565b6104d161060f366004614952565b6111b9565b6104d160105481565b61051361062b366004614a3c565b61130b565b600154610456906001600160a01b031681565b601754610456906001600160a01b031681565b600a54610456906001600160a01b031681565b610513610677366004614ac9565b6113ad565b6104d161068a36600461489a565b611617565b61051361069d36600461486e565b611656565b601954610456906001600160a01b031681565b6104d1666379da05b6000081565b60005461045690630100000090046001600160a01b031681565b6104d1600081565b6104d1600e5481565b601654610456906001600160a01b031681565b6104d161070f366004614952565b6001600160a01b031660009081526013602052604090205490565b6104d16116ee565b610513610740366004614b81565b611738565b610513610753366004614952565b611839565b60005461049b90610100900460ff1681565b6104d161077836600461489a565b611910565b601854610456906001600160a01b031681565b601a54610456906001600160a01b031681565b6104d160115481565b61047b61191b565b6104d16107c2366004614952565b611928565b6105136107d536600461486e565b611933565b6104d16107e836600461489a565b6119c2565b6104d1611a03565b61049b61080336600461486e565b611a7b565b6104d1600f5481565b6104567f000000000000000000000000000000000000000000000000000000000000000081565b6104d1611aca565b6104d161084e36600461496f565b611b62565b6104d1610861366004614952565b611bb1565b600254610456906001600160a01b031681565b6104d1610887366004614c4c565b611c3e565b6104d1611d29565b6108a76108a2366004614952565b611d79565b60408051948552602085019390935291830152606082015260800161046a565b6104d16108d536600461489a565b611dba565b6105136108e8366004614b81565b611dc5565b6104d16108fb36600461489a565b611dd4565b6104d161090e366004614c69565b6001600160a01b03918216600090815260146020908152604080832093909416825291909152205490565b6104d1611ddf565b6104d161094f366004614952565b611ee6565b600b54610456906001600160a01b031681565b6104d1610975366004614ca2565b611efa565b6008546104569061010090046001600160a01b031681565b6104d1611f11565b600554610456906001600160a01b031681565b6104d16109bb36600461489a565b611f64565b61049b600181565b6104d16109d6366004614ce4565b611fa3565b600680546109e890614d24565b80601f0160208091040260200160405190810160405280929190818152602001828054610a1490614d24565b8015610a615780601f10610a3657610100808354040283529160200191610a61565b820191906000526020600020905b815481529060010190602001808311610a4457829003601f168201915b505050505081565b3360008181526014602090815260408083206001600160a01b03871680855292528083208590555191929182907f8c5be1e5ebec7d5bd14f71427d1e84f3dd0314c0f7b2291e5b200ac8c7c3b92590610ac59087815260200190565b60405180910390a360019150505b92915050565b6000610ae482612029565b506000919050565b60085460009061010090046001600160a01b03163214610b535760405162461bcd60e51b815260206004820152601d60248201527f6f6e6c792061646d696e732063616e206465706f736974204e4654277300000060448201526064015b60405180910390fd5b50630a85bd0160e11b95945050505050565b60085461010090046001600160a01b03163314610bda5760405162461bcd60e51b815260206004820152602d60248201527f6f6e6c79207468652061646d696e206d6179206162616e646f6e20746865206960448201526c36b83632b6b2b73a30ba34b7b760991b6064820152608401610b4a565b601854601954601a5460408051634fb3c66560e11b815290516001600160a01b039485169493841693909216918391639f678cca91600480830192602092919082900301816000875af1158015610c35573d6000803e3d6000fd5b505050506040513d601f19601f82011682018060405250810190610c599190614d5f565b506040516305f5d64360e11b81523060048201526000906001600160a01b03841690630bebac8690602401602060405180830381865afa158015610ca1573d6000803e3d6000fd5b505050506040513d601f19601f82011682018060405250810190610cc59190614d5f565b604051637f8661a160e01b8152600481018290529091506001600160a01b03841690637f8661a190602401600060405180830381600087803b158015610d0a57600080fd5b505af1158015610d1e573d6000803e3d6000fd5b5050604051633612d9a360e11b8152306004820152600092506001600160a01b0385169150636c25b34690602401602060405180830381865afa158015610d69573d6000803e3d6000fd5b505050506040513d601f19601f82011682018060405250810190610d8d9190614d5f565b90506001600160a01b03851663ef693bed30610db56b033b2e3c9fd0803ce800000085614d8e565b6040516001600160e01b031960e085901b1681526001600160a01b03909216600483015260248201526044015b600060405180830381600087803b158015610dfc57600080fd5b505af1158015610e10573d6000803e3d6000fd5b505050505050505050565b6000805460ff16610e3e5760405162461bcd60e51b8152600401610b4a90614db0565b6000805460ff19169055610e50611a03565b50610e5a82611928565b90506000805460ff19166001179055919050565b6000610e7861207a565b905090565b60085461010090046001600160a01b03163314610ef45760405162461bcd60e51b815260206004820152602f60248201527f4345726332303a3a7377656570546f6b656e3a206f6e6c792061646d696e206360448201526e616e20737765657020746f6b656e7360881b6064820152608401610b4a565b6016546001600160a01b0382811691161415610f6d5760405162461bcd60e51b815260206004820152603260248201527f4345726332303a3a7377656570546f6b656e3a2063616e206e6f74207377656560448201527138103ab73232b9363cb4b733903a37b5b2b760711b6064820152608401610b4a565b6040516370a0823160e01b81523060048201526000906001600160a01b038316906370a0823190602401602060405180830381865afa158015610fb4573d6000803e3d6000fd5b505050506040513d601f19601f82011682018060405250810190610fd89190614d5f565b60085460405163a9059cbb60e01b81526001600160a01b03610100909204821660048201526024810183905291925083169063a9059cbb906044015b600060405180830381600087803b15801561102e57600080fd5b505af1158015611042573d6000803e3d6000fd5b505050505050565b6000805460ff1661106d5760405162461bcd60e51b8152600401610b4a90614db0565b6000805460ff19168155611083338686866120e4565b1490506000805460ff191660011790559392505050565b60006110a68383612312565b50600092915050565b60085460009061010090046001600160a01b031633146110e257604051631f0fa4d560e31b815260040160405180910390fd5b6110ea612364565b610ae45760005460405163ef9aacfd60e01b81526001600160a01b03848116600483015263010000009092049091169063ef9aacfd906024015b600060405180830381600087803b15801561113e57600080fd5b505af1158015611152573d6000803e3d6000fd5b50505050506000919050565b6000806040518060200160405280611174611d29565b90526001600160a01b03841660009081526013602052604090205490915061119d908290612460565b9392505050565b6000610e78612364565b6000610ad382612480565b60085460009061010090046001600160a01b031633146111ec5760405163d219dc1f60e01b815260040160405180910390fd5b600a5460408051623f1ee960e11b815290516001600160a01b0392831692851691627e3dd29160048083019260209291908290030181865afa158015611236573d6000803e3d6000fd5b505050506040513d601f19601f8201168201806040525081019061125a9190614dd4565b6112a65760405162461bcd60e51b815260206004820152601c60248201527f6d61726b6572206d6574686f642072657475726e65642066616c7365000000006044820152606401610b4a565b600a80546001600160a01b0319166001600160a01b0385811691821790925560408051928416835260208301919091527f7ac369dbd14fa5ea3f473ed67cc9d598964a77501540ba6751eb0b3decf5870d91015b60405180910390a150600092915050565b60085461010090046001600160a01b031633146113835760405162461bcd60e51b815260206004820152603060248201527f6f6e6c79207468652061646d696e206d617920696e697469616c697a6520746860448201526f329034b6b83632b6b2b73a30ba34b7b760811b6064820152608401610b4a565b6000808280602001905181019061139a9190614df1565b915091506113a882826124d7565b505050565b60085461010090046001600160a01b031633146114185760405162461bcd60e51b8152602060048201526024808201527f6f6e6c792061646d696e206d617920696e697469616c697a6520746865206d616044820152631c9ad95d60e21b6064820152608401610b4a565b600e541580156114285750600f54155b6114805760405162461bcd60e51b815260206004820152602360248201527f6d61726b6574206d6179206f6e6c7920626520696e697469616c697a6564206f6044820152626e636560e81b6064820152608401610b4a565b600c859055846114eb5760405162461bcd60e51b815260206004820152603060248201527f696e697469616c2065786368616e67652072617465206d75737420626520677260448201526f32b0ba32b9103a3430b7103d32b9379760811b6064820152608401610b4a565b60006114f6886111b9565b905080156115465760405162461bcd60e51b815260206004820152601a60248201527f73657474696e6720636f6d7074726f6c6c6572206661696c65640000000000006044820152606401610b4a565b43600e55670de0b6b3a7640000600f5561155f876127e8565b905080156115ba5760405162461bcd60e51b815260206004820152602260248201527f73657474696e6720696e7465726573742072617465206d6f64656c206661696c604482015261195960f21b6064820152608401610b4a565b84516115cd906006906020880190614771565b5083516115e1906007906020870190614771565b50506008805460ff90931660ff19938416179055600080549115156101000290921661ffff199091161760011790555050505050565b6000805460ff1661163a5760405162461bcd60e51b8152600401610b4a90614db0565b6000805460ff1916905561164c611a03565b50610e5a8261295d565b60085461010090046001600160a01b031633146116b55760405162461bcd60e51b815260206004820152601e60248201527f6f6e6c792061646d696e732063616e207769746864726177204e4654277300006044820152606401610b4a565b600854604051632142170760e11b81526001600160a01b03808516926342842e0e92611014923092610100900416908690600401614e20565b6000805460ff166117115760405162461bcd60e51b8152600401610b4a90614db0565b6000805460ff19169055611723611a03565b50506010546000805460ff1916600117905590565b60085461010090046001600160a01b0316156117965760405162461bcd60e51b815260206004820152601a60248201527f61646d696e206d6179206f6e6c7920626520736574206f6e63650000000000006044820152606401610b4a565b60088054610100600160a81b03191633610100021790556117bc878787878787876113ad565b601680546001600160a01b0319166001600160a01b038a16908117909155604080516318160ddd60e01b815290516318160ddd916004808201926020929091908290030181865afa158015611815573d6000803e3d6000fd5b505050506040513d601f19601f82011682018060405250810190610e109190614d5f565b60085461010090046001600160a01b031633146118ae5760405162461bcd60e51b815260206004820152602d60248201527f6f6e6c79207468652061646d696e206d6179207365742074686520636f6d702d60448201526c6c696b652064656c656761746560981b6064820152608401610b4a565b6016546040516317066a5760e21b81526001600160a01b03838116600483015290911690635c19a95c90602401600060405180830381600087803b1580156118f557600080fd5b505af1158015611909573d6000803e3d6000fd5b5050505050565b6000610ae482612a78565b600780546109e890614d24565b6000610ad382612ac9565b60085461010090046001600160a01b031633146119925760405162461bcd60e51b815260206004820152601d60248201527f6f6e6c792061646d696e732063616e206465706f736974204e465427730000006044820152606401610b4a565b604051632142170760e11b81526001600160a01b038316906342842e0e9061101490339030908690600401614e20565b60006119cd82612b13565b600a5460405163a86cc91560e01b81523060048201523360248201526001600160a01b039091169063a86cc91590604401611124565b60195460408051634fb3c66560e11b815290516000926001600160a01b031691639f678cca916004808301926020929190829003018187875af1158015611a4e573d6000803e3d6000fd5b505050506040513d601f19601f82011682018060405250810190611a729190614d5f565b50610e78612b52565b6000805460ff16611a9e5760405162461bcd60e51b8152600401610b4a90614db0565b6000805460ff19168155611ab4338086866120e4565b1490506000805460ff1916600117905592915050565b600b546000906001600160a01b031663b8168816611ae6612364565b601054601154600d546040516001600160e01b031960e087901b16815260048101949094526024840192909252604483015260648201526084015b602060405180830381865afa158015611b3e573d6000803e3d6000fd5b505050506040513d601f19601f82011682018060405250810190610e789190614d5f565b6000805460ff16611b855760405162461bcd60e51b8152600401610b4a90614db0565b6000805460ff19169055611b9b33858585612fd5565b50600080805460ff191660011790559392505050565b60085460009061010090046001600160a01b03163314611be457604051635cb56c2b60e01b815260040160405180910390fd5b600980546001600160a01b038481166001600160a01b031983168117909355604080519190921680825260208201939093527fca4f2f25d0898edd99413412fb94012f9e54ec8142f9b093e7720646a95b16a991016112fa565b60085460009061010090046001600160a01b03163314611c7157604051632663b8db60e01b815260040160405180910390fd5b60055460405163095ea7b360e01b81526001600160a01b03918216600482015260001960248201527f00000000000000000000000000000000000000000000000000000000000000009091169063095ea7b3906044016020604051808303816000875af1158015611ce6573d6000803e3d6000fd5b505050506040513d601f19601f82011682018060405250810190611d0a9190614dd4565b505060008054911515620100000262ff00001990921691909117815590565b6000805460ff16611d4c5760405162461bcd60e51b8152600401610b4a90614db0565b6000805460ff19169055611d5e611a03565b50611d67610e6e565b90506000805460ff1916600117905590565b6001600160a01b0381166000908152601360205260408120548190819081908190611da387612ac9565b611dab61207a565b93509350935093509193509193565b6000610ae48261324e565b6117bc878787878787876113ad565b6000610ae48261328d565b6009546000906001600160a01b031633141580611dfa575033155b15611e1857604051631ba24f2960e21b815260040160405180910390fd5b60088054600980546001600160a01b03808216610100818102610100600160a81b0319871617968790556001600160a01b031990931690935560408051948390048216808652929095041660208401529290917ff9ffabca9c8276e99321725bcb43fb076a6c66a54b7f21c4e8146d8519b417dc910160405180910390a1600954604080516001600160a01b03808516825290921660208301527fca4f2f25d0898edd99413412fb94012f9e54ec8142f9b093e7720646a95b16a9910160405180910390a160009250505090565b6000611ef0611a03565b50610ad3826127e8565b6000611f078484846132ce565b5060009392505050565b600b546000906001600160a01b03166315f24053611f2d612364565b6010546011546040516001600160e01b031960e086901b168152600481019390935260248301919091526044820152606401611b21565b6000805460ff16611f875760405162461bcd60e51b8152600401610b4a90614db0565b6000805460ff19169055611f99611a03565b50610e5a826133ac565b60085460009061010090046001600160a01b03163314611fd657604051634cfdce7760e11b815260040160405180910390fd5b50600180546001600160a01b039485166001600160a01b031991821617909155600080549385166301000000026301000000600160b81b0319909416939093178355600580549290941691161790915590565b60005460ff1661204b5760405162461bcd60e51b8152600401610b4a90614db0565b6000805460ff1916905561205d611a03565b50612069333383613468565b50506000805460ff19166001179055565b6012546000908061208d575050600c5490565b6000612097612364565b90506000601154601054836120ac9190614e44565b6120b69190614e5c565b90506000836120cd670de0b6b3a764000084614e73565b6120d79190614d8e565b95945050505050565b5090565b600a546040516317b9b84b60e31b81523060048201526001600160a01b038581166024830152848116604483015260648201849052600092839291169063bdcdc258906084016020604051808303816000875af1158015612149573d6000803e3d6000fd5b505050506040513d601f19601f8201168201806040525081019061216d9190614d5f565b905080156121915760405163089d427760e11b815260048101829052602401610b4a565b836001600160a01b0316856001600160a01b031614156121c457604051638cd22d1960e01b815260040160405180910390fd5b6000856001600160a01b0316876001600160a01b031614156121e95750600019612211565b506001600160a01b038086166000908152601460209081526040808320938a16835292905220545b600061221d8583614e5c565b6001600160a01b03881660009081526013602052604081205491925090612245908790614e5c565b6001600160a01b0388166000908152601360205260408120549192509061226d908890614e44565b6001600160a01b03808b16600090815260136020526040808220869055918b16815220819055905060001984146122c7576001600160a01b03808a166000908152601460209081526040808320938e168352929052208390555b876001600160a01b0316896001600160a01b0316600080516020614ef5833981519152896040516122fa91815260200190565b60405180910390a35060009998505050505050505050565b60005460ff166123345760405162461bcd60e51b8152600401610b4a90614db0565b6000805460ff19169055612346611a03565b50612352338383613468565b50506000805460ff1916600117905550565b6019546040516305f5d64360e11b81523060048201526000916001600160a01b03169082908290630bebac8690602401602060405180830381865afa1580156123b1573d6000803e3d6000fd5b505050506040513d601f19601f820116820180604052508101906123d59190614d5f565b90506b033b2e3c9fd0803ce800000061244f836001600160a01b031663c92aecc46040518163ffffffff1660e01b8152600401602060405180830381865afa158015612425573d6000803e3d6000fd5b505050506040513d601f19601f820116820180604052508101906124499190614d5f565b83613611565b6124599190614d8e565b9250505090565b60008061246d8484613670565b9050612478816136a1565b949350505050565b6000805460ff166124a35760405162461bcd60e51b8152600401610b4a90614db0565b6000805460ff191690556124b5611a03565b506124bf826136b9565b5050600090506000805460ff19166001179055919050565b600082905060008290506000826001600160a01b031663f4b9fa756040518163ffffffff1660e01b81526004016020604051808303816000875af1158015612523573d6000803e3d6000fd5b505050506040513d601f19601f820116820180604052508101906125479190614e92565b90506000836001600160a01b03166336569e776040518163ffffffff1660e01b81526004016020604051808303816000875af115801561258b573d6000803e3d6000fd5b505050506040513d601f19601f820116820180604052508101906125af9190614e92565b6016549091506001600160a01b0383811691161461261a5760405162461bcd60e51b815260206004820152602260248201527f444149206d757374206265207468652073616d6520617320756e6465726c79696044820152616e6760f01b6064820152608401610b4a565b601880546001600160a01b03199081166001600160a01b03898116918217909355601980548316898516179055601a80549092168484161790915560405163095ea7b360e01b8152600481019190915260001960248201529083169063095ea7b390604401600060405180830381600087803b15801561269957600080fd5b505af11580156126ad573d6000803e3d6000fd5b50506019546040516328ec8bf160e21b81526001600160a01b039182166004820152908416925063a3b22fc49150602401600060405180830381600087803b1580156126f857600080fd5b505af115801561270c573d6000803e3d6000fd5b50506018546040516328ec8bf160e21b81526001600160a01b039182166004820152908416925063a3b22fc49150602401600060405180830381600087803b15801561275757600080fd5b505af115801561276b573d6000803e3d6000fd5b50505050826001600160a01b0316639f678cca6040518163ffffffff1660e01b81526004016020604051808303816000875af11580156127af573d6000803e3d6000fd5b505050506040513d601f19601f820116820180604052508101906127d39190614d5f565b506127df30600061374d565b50505050505050565b600854600090819061010090046001600160a01b0316331461281d5760405163407fded560e01b815260040160405180910390fd5b43600e541461283f57604051630be2a5cb60e11b815260040160405180910390fd5b600b60009054906101000a90046001600160a01b03169050826001600160a01b0316632191f92a6040518163ffffffff1660e01b8152600401602060405180830381865afa158015612895573d6000803e3d6000fd5b505050506040513d601f19601f820116820180604052508101906128b99190614dd4565b6129055760405162461bcd60e51b815260206004820152601c60248201527f6d61726b6572206d6574686f642072657475726e65642066616c7365000000006044820152606401610b4a565b600b80546001600160a01b0319166001600160a01b0385811691821790925560408051928416835260208301919091527fedffc32e068c7c95dfd4bdfd5c4d939a084d6b11c4199eac8436ed234d72f92691016112fa565b600854600090819061010090046001600160a01b0316331461299257604051630f7e5e6d60e41b815260040160405180910390fd5b43600e54146129b457604051630dff50cb60e41b815260040160405180910390fd5b826129bd612364565b10156129dc57604051633345e99960e01b815260040160405180910390fd5b6011548311156129ff576040516378d2980560e11b815260040160405180910390fd5b82601154612a0d9190614e5c565b6011819055600854909150612a309061010090046001600160a01b031684613a50565b7f3bad0c59cf2f06e7314077049f48a93578cd16f5ef92329f1dab1420a99c177e600860019054906101000a90046001600160a01b031684836040516112fa93929190614eaf565b60005460ff16612a9a5760405162461bcd60e51b8152600401610b4a90614db0565b6000805460ff19169055612aac611a03565b50612ab933600083613b86565b506000805460ff19166001179055565b6001600160a01b03811660009081526015602052604081208054612af05750600092915050565b600f548154600091612b0191614e73565b90508160010154816124789190614d8e565b60005460ff16612b355760405162461bcd60e51b8152600401610b4a90614db0565b6000805460ff19169055612b47611a03565b50612ab93382613e79565b60008054610100900460ff1615612dea5760125415612de55760005462010000900460ff1615612d55576000805460405163185b800160e11b81526001600482018190526024820184905260448201819052606482018190526084820181905260a482015260c4810192909252630100000090046001600160a01b0316906330b700029060e401600060405180830381600087803b158015612bf357600080fd5b505af1158015612c07573d6000803e3d6000fd5b50506040516370a0823160e01b8152306004820152600092507f00000000000000000000000000000000000000000000000000000000000000006001600160a01b031691506370a0823190602401602060405180830381865afa158015612c72573d6000803e3d6000fd5b505050506040513d601f19601f82011682018060405250810190612c969190614d5f565b90508015612d4f576000805460405163364e231160e01b81526001600160a01b037f0000000000000000000000000000000000000000000000000000000000000000811660048301526024820185905260448201849052606482019390935263010000009091049091169063364e2311906084016020604051808303816000875af1158015612d29573d6000803e3d6000fd5b505050506040513d601f19601f82011682018060405250810190612d4d9190614d5f565b505b50612fcf565b6000805460405163185b800160e11b81526001600482018190526024820184905260448201819052606482018190526084820181905260a482015260c4810192909252630100000090046001600160a01b0316906330b700029060e401600060405180830381600087803b158015612dcc57600080fd5b505af1158015612de0573d6000803e3d6000fd5b505050505b612fcf565b600e54439080821415612e005760009250505090565b6000612e0a612364565b601054601154600f54600b546040516315f2405360e01b81526004810186905260248101859052604481018490529495509293919290916000916001600160a01b0316906315f2405390606401602060405180830381865afa158015612e74573d6000803e3d6000fd5b505050506040513d601f19601f82011682018060405250810190612e989190614d5f565b905065048c27395000811115612ef05760405162461bcd60e51b815260206004820152601c60248201527f626f72726f772072617465206973206162737572646c792068696768000000006044820152606401610b4a565b6000612efc8789614e5c565b90506000612f1860405180602001604052808581525083613670565b90506000612f268288612460565b90506000612f348883614e44565b90506000612f536040518060200160405280600d54815250848a614045565b90506000612f6285898a614045565b600e8e9055600f81905560108490556011839055604080518d815260208101879052908101829052606081018590529091507f4dec04e750ca11537cabcd8a9eab06494de08da3735bc8871cd41250e190bc049060800160405180910390a1505050505050505050505050505b50600090565b600a5460405163d02f735160e01b81523060048201526001600160a01b0386811660248301528581166044830152848116606483015260848201849052600092169063d02f73519060a4016020604051808303816000875af115801561303f573d6000803e3d6000fd5b505050506040513d601f19601f820116820180604052508101906130639190614d5f565b90508015613087576040516363e00e3360e11b815260048101829052602401610b4a565b836001600160a01b0316836001600160a01b031614156130ba57604051633a94626760e11b815260040160405180910390fd5b60006130db836040518060200160405280666379da05b60000815250614066565b905060006130e98285614e5c565b90506000604051806020016040528061310061207a565b9052905060006131108285612460565b90506000816011546131229190614e44565b6011819055601254909150613138908690614e5c565b6012556001600160a01b03881660009081526013602052604090205461315f908890614e5c565b6001600160a01b03808a1660009081526013602052604080822093909355908b168152205461318f908590614e44565b6001600160a01b03808b1660008181526013602052604090819020939093559151908a1690600080516020614ef5833981519152906131d19088815260200190565b60405180910390a360405185815230906001600160a01b038a1690600080516020614ef58339815191529060200160405180910390a37fa91e67c5ea634cd43a12c5a482724b03de01e85ca68702a53d0c2f45cb7c1dc530838360405161323a93929190614eaf565b60405180910390a150505050505050505050565b60005460ff166132705760405162461bcd60e51b8152600401610b4a90614db0565b6000805460ff19169055613282611a03565b50612ab93382614089565b60005460ff166132af5760405162461bcd60e51b8152600401610b4a90614db0565b6000805460ff191690556132c1611a03565b50612ab933826000613b86565b60005460ff166132f05760405162461bcd60e51b8152600401610b4a90614db0565b6000805460ff19169055613302611a03565b506000816001600160a01b031663a6afed956040518163ffffffff1660e01b81526004016020604051808303816000875af1158015613345573d6000803e3d6000fd5b505050506040513d601f19601f820116820180604052508101906133699190614d5f565b9050801561338d57604051633eea49b760e11b815260048101829052602401610b4a565b61339933858585614228565b50506000805460ff191660011790555050565b60085460009061010090046001600160a01b031633146133df57604051631205b57b60e11b815260040160405180910390fd5b43600e541461340157604051637dfca6b760e11b815260040160405180910390fd5b670de0b6b3a764000082111561342a5760405163717220f360e11b815260040160405180910390fd5b600d80549083905560408051828152602081018590527faaa68312e2ea9d50e16af5068410ab56e1a1fd06037b1a35664812c30f82146091016112fa565b600a54604051631200453160e11b81523060048201526001600160a01b03858116602483015284811660448301526064820184905260009283929116906324008a62906084016020604051808303816000875af11580156134cd573d6000803e3d6000fd5b505050506040513d601f19601f820116820180604052508101906134f19190614d5f565b9050801561351557604051638c81362d60e01b815260048101829052602401610b4a565b43600e54146135375760405163c9021e2f60e01b815260040160405180910390fd5b600061354285612ac9565b9050600060001985146135555784613557565b815b90506000613565888361374d565b905060006135738285614e5c565b90506000826010546135859190614e5c565b6001600160a01b038a8116600081815260156020908152604091829020878155600f5460019091015560108590558151938f168452830191909152810185905260608101849052608081018290529091507f1a2a22cb034d26d1854bdc6666a5b91fe25efbbb5dcad3b0355478d6f5c362a19060a00160405180910390a1509098975050505050505050565b6000811580613635575082826136278183614e73565b92506136339083614d8e565b145b610ad35760405162461bcd60e51b815260206004820152600c60248201526b6d756c2d6f766572666c6f7760a01b6044820152606401610b4a565b60408051602081019091526000815260405180602001604052806136988560000151856146e2565b90529392505050565b8051600090610ad390670de0b6b3a764000090614d8e565b600080808043600e54146136e3576040516338acf79960e01b815260048101829052602401610b4a565b6136ed338661374d565b9050806011546136fd9190614e44565b9150816011819055507fa91e67c5ea634cd43a12c5a482724b03de01e85ca68702a53d0c2f45cb7c1dc533828460405161373993929190614eaf565b60405180910390a160009590945092505050565b6016546040516323b872dd60e01b81526000916001600160a01b031690819081906323b872dd9061378690889030908990600401614e20565b6020604051808303816000875af11580156137a5573d6000803e3d6000fd5b505050506040513d601f19601f820116820180604052508101906137c99190614dd4565b6138215760405162461bcd60e51b8152602060048201526024808201527f756e6578706563746564204549502d3230207472616e7366657220696e2072656044820152633a3ab93760e11b6064820152608401610b4a565b601854601954601a546040516370a0823160e01b815230600482018190526001600160a01b039485169487948116938116928692633b4da69f929091908716906370a0823190602401602060405180830381865afa158015613887573d6000803e3d6000fd5b505050506040513d601f19601f820116820180604052508101906138ab9190614d5f565b6040516001600160e01b031960e085901b1681526001600160a01b0390921660048301526024820152604401600060405180830381600087803b1580156138f157600080fd5b505af1158015613905573d6000803e3d6000fd5b5050604051633612d9a360e11b8152306004820152600092506001600160a01b0384169150636c25b34690602401602060405180830381865afa158015613950573d6000803e3d6000fd5b505050506040513d601f19601f820116820180604052508101906139749190614d5f565b90506000836001600160a01b031663c92aecc46040518163ffffffff1660e01b8152600401602060405180830381865afa1580156139b6573d6000803e3d6000fd5b505050506040513d601f19601f820116820180604052508101906139da9190614d5f565b6139e49083614d8e565b60405163049878f360e01b8152600481018290529091506001600160a01b0385169063049878f390602401600060405180830381600087803b158015613a2957600080fd5b505af1158015613a3d573d6000803e3d6000fd5b509b9d9c50505050505050505050505050565b6018546019546040805163324abb3160e21b815290516001600160a01b039384169390921691600091613af491849163c92aecc49160048083019260209291908290030181865afa158015613aa9573d6000803e3d6000fd5b505050506040513d601f19601f82011682018060405250810190613acd9190614d5f565b613ae3866b033b2e3c9fd0803ce8000000613611565b613aed9190614d8e565b60016146ee565b604051637f8661a160e01b8152600481018290529091506001600160a01b03831690637f8661a190602401600060405180830381600087803b158015613b3957600080fd5b505af1158015613b4d573d6000803e3d6000fd5b505060405163ef693bed60e01b81526001600160a01b038881166004830152602482018890528616925063ef693bed9150604401610de2565b811580613b91575080155b613bfa5760405162461bcd60e51b815260206004820152603460248201527f6f6e65206f662072656465656d546f6b656e73496e206f722072656465656d416044820152736d6f756e74496e206d757374206265207a65726f60601b6064820152608401610b4a565b60006040518060200160405280613c0f61207a565b905290506000808415613c3057849150613c298386612460565b9050613c40565b613c3a848461473b565b91508390505b600a5460405163eabe7d9160e01b81526000916001600160a01b03169063eabe7d9190613c759030908b908890600401614e20565b6020604051808303816000875af1158015613c94573d6000803e3d6000fd5b505050506040513d601f19601f82011682018060405250810190613cb89190614d5f565b90508015613cdc5760405163480f424760e01b815260048101829052602401610b4a565b43600e5414158015613cf65750600054610100900460ff16155b15613d14576040516397b5cfcd60e01b815260040160405180910390fd5b81613d1d612364565b1015613d3c576040516391240a1b60e01b815260040160405180910390fd5b82601254613d4a9190614e5c565b6012556001600160a01b038716600090815260136020526040902054613d71908490614e5c565b6001600160a01b038816600090815260136020526040902055613d948783613a50565b60405183815230906001600160a01b03891690600080516020614ef58339815191529060200160405180910390a37fe5b754fb1abb7f01b499791d0b820ae3b6af3424ac1c59768edb53f4ec31a929878385604051613df593929190614eaf565b60405180910390a1600a546040516351dff98960e01b81523060048201526001600160a01b0389811660248301526044820185905260648201869052909116906351dff98990608401600060405180830381600087803b158015613e5857600080fd5b505af1158015613e6c573d6000803e3d6000fd5b5050505050505050505050565b600a54604051634ef4c3e160e01b81526000916001600160a01b031690634ef4c3e190613eae90309087908790600401614e20565b6020604051808303816000875af1158015613ecd573d6000803e3d6000fd5b505050506040513d601f19601f82011682018060405250810190613ef19190614d5f565b90508015613f15576040516349abd4fd60e01b815260048101829052602401610b4a565b43600e5414158015613f2f5750600054610100900460ff16155b15613f4d576040516338d8859760e01b815260040160405180910390fd5b60006040518060200160405280613f6261207a565b905290506000613f72858561374d565b90506000613f80828461473b565b905080601254613f909190614e44565b6012556001600160a01b038616600090815260136020526040902054613fb7908290614e44565b6001600160a01b0387166000908152601360205260409081902091909155517f4c209b5fc8ad50758f13e2e1088ba56a560dff690a1c6fef26394f4c03821c4f9061400790889085908590614eaf565b60405180910390a16040518181526001600160a01b038716903090600080516020614ef58339815191529060200160405180910390a3505050505050565b6000806140528585613670565b90506120d7614060826136a1565b84614759565b6000670de0b6b3a764000061407f8484600001516146e2565b61119d9190614d8e565b600a5460405163368f515360e21b81526000916001600160a01b03169063da3d454c906140be90309087908790600401614e20565b6020604051808303816000875af11580156140dd573d6000803e3d6000fd5b505050506040513d601f19601f820116820180604052508101906141019190614d5f565b905080156141255760405163918db40f60e01b815260048101829052602401610b4a565b43600e541461414757604051630e8d8c6160e21b815260040160405180910390fd5b81614150612364565b101561416f576040516348c2588160e01b815260040160405180910390fd5b600061417a84612ac9565b905060006141888483614e44565b905060008460105461419a9190614e44565b6001600160a01b0387166000908152601560205260409020838155600f54600190910155601081905590506141cf8686613a50565b604080516001600160a01b038816815260208101879052908101839052606081018290527f13ed6866d4e1ee6da46f845c46d7e54120883d75c5ea9a2dacc1c4ca8984ab809060800160405180910390a1505050505050565b600a54604051632fe3f38f60e11b81523060048201526001600160a01b03838116602483015286811660448301528581166064830152608482018590526000921690635fc7e71e9060a4016020604051808303816000875af1158015614292573d6000803e3d6000fd5b505050506040513d601f19601f820116820180604052508101906142b69190614d5f565b905080156142da57604051630a14d17960e11b815260048101829052602401610b4a565b43600e54146142fc576040516380965b1b60e01b815260040160405180910390fd5b43826001600160a01b0316636c540baf6040518163ffffffff1660e01b8152600401602060405180830381865afa15801561433b573d6000803e3d6000fd5b505050506040513d601f19601f8201168201806040525081019061435f9190614d5f565b1461437d57604051631046f38d60e31b815260040160405180910390fd5b846001600160a01b0316846001600160a01b031614156143b057604051631bd1a62160e21b815260040160405180910390fd5b826143ce5760405163d29da7ef60e01b815260040160405180910390fd5b6000198314156143f157604051635982c5bb60e11b815260040160405180910390fd5b60006143fe868686613468565b600a5460405163c488847b60e01b815291925060009182916001600160a01b03169063c488847b9061443890309089908890600401614e20565b6040805180830381865afa158015614454573d6000803e3d6000fd5b505050506040513d601f19601f820116820180604052508101906144789190614ed0565b91509150600082146144e85760405162461bcd60e51b815260206004820152603360248201527f4c49515549444154455f434f4d5054524f4c4c45525f43414c43554c4154455f604482015272105353d5539517d4d152569157d19052531151606a1b6064820152608401610b4a565b6040516370a0823160e01b81526001600160a01b0388811660048301528291908716906370a0823190602401602060405180830381865afa158015614531573d6000803e3d6000fd5b505050506040513d601f19601f820116820180604052508101906145559190614d5f565b10156145a35760405162461bcd60e51b815260206004820152601860248201527f4c49515549444154455f5345495a455f544f4f5f4d55434800000000000000006044820152606401610b4a565b6001600160a01b0385163014156145c5576145c030898984612fd5565b61467f565b60405163b2a02ff160e01b81526000906001600160a01b0387169063b2a02ff1906145f8908c908c908790600401614e20565b6020604051808303816000875af1158015614617573d6000803e3d6000fd5b505050506040513d601f19601f8201168201806040525081019061463b9190614d5f565b1461467f5760405162461bcd60e51b81526020600482015260146024820152731d1bdad95b881cd95a5e9d5c994819985a5b195960621b6044820152606401610b4a565b604080516001600160a01b038a811682528981166020830152818301869052871660608201526080810183905290517f298637f684da70674f26509b10f07ec2fbc77a335ab1e7d6215a4b2484d8bb529181900360a00190a15050505050505050565b600061119d8284614e73565b6000826146fb8382614e44565b9150811015610ad35760405162461bcd60e51b815260206004820152600c60248201526b6164642d6f766572666c6f7760a01b6044820152606401610b4a565b600061119d61475284670de0b6b3a76400006146e2565b8351614765565b600061119d8284614e44565b600061119d8284614d8e565b82805461477d90614d24565b90600052602060002090601f01602090048101928261479f57600085556147e5565b82601f106147b857805160ff19168380011785556147e5565b828001600101855582156147e5579182015b828111156147e55782518255916020019190600101906147ca565b506120e09291505b808211156120e057600081556001016147ed565b600060208083528351808285015260005b8181101561482e57858101830151858201604001528201614812565b81811115614840576000604083870101525b50601f01601f1916929092016040019392505050565b6001600160a01b038116811461486b57600080fd5b50565b6000806040838503121561488157600080fd5b823561488c81614856565b946020939093013593505050565b6000602082840312156148ac57600080fd5b5035919050565b6000806000806000608086880312156148cb57600080fd5b85356148d681614856565b945060208601356148e681614856565b935060408601359250606086013567ffffffffffffffff8082111561490a57600080fd5b818801915088601f83011261491e57600080fd5b81358181111561492d57600080fd5b89602082850101111561493f57600080fd5b9699959850939650602001949392505050565b60006020828403121561496457600080fd5b813561119d81614856565b60008060006060848603121561498457600080fd5b833561498f81614856565b9250602084013561499f81614856565b929592945050506040919091013590565b634e487b7160e01b600052604160045260246000fd5b600067ffffffffffffffff808411156149e1576149e16149b0565b604051601f8501601f19908116603f01168101908282118183101715614a0957614a096149b0565b81604052809350858152868686011115614a2257600080fd5b858560208301376000602087830101525050509392505050565b600060208284031215614a4e57600080fd5b813567ffffffffffffffff811115614a6557600080fd5b8201601f81018413614a7657600080fd5b612478848235602084016149c6565b600082601f830112614a9657600080fd5b61119d838335602085016149c6565b803560ff81168114614ab657600080fd5b919050565b801515811461486b57600080fd5b600080600080600080600060e0888a031215614ae457600080fd5b8735614aef81614856565b96506020880135614aff81614856565b955060408801359450606088013567ffffffffffffffff80821115614b2357600080fd5b614b2f8b838c01614a85565b955060808a0135915080821115614b4557600080fd5b50614b528a828b01614a85565b935050614b6160a08901614aa5565b915060c0880135614b7181614abb565b8091505092959891949750929550565b600080600080600080600080610100898b031215614b9e57600080fd5b8835614ba981614856565b97506020890135614bb981614856565b96506040890135614bc981614856565b955060608901359450608089013567ffffffffffffffff80821115614bed57600080fd5b614bf98c838d01614a85565b955060a08b0135915080821115614c0f57600080fd5b50614c1c8b828c01614a85565b935050614c2b60c08a01614aa5565b915060e0890135614c3b81614abb565b809150509295985092959890939650565b600060208284031215614c5e57600080fd5b813561119d81614abb565b60008060408385031215614c7c57600080fd5b8235614c8781614856565b91506020830135614c9781614856565b809150509250929050565b600080600060608486031215614cb757600080fd5b8335614cc281614856565b9250602084013591506040840135614cd981614856565b809150509250925092565b600080600060608486031215614cf957600080fd5b8335614d0481614856565b92506020840135614d1481614856565b91506040840135614cd981614856565b600181811c90821680614d3857607f821691505b60208210811415614d5957634e487b7160e01b600052602260045260246000fd5b50919050565b600060208284031215614d7157600080fd5b5051919050565b634e487b7160e01b600052601160045260246000fd5b600082614dab57634e487b7160e01b600052601260045260246000fd5b500490565b6020808252600a90820152691c994b595b9d195c995960b21b604082015260600190565b600060208284031215614de657600080fd5b815161119d81614abb565b60008060408385031215614e0457600080fd5b8251614e0f81614856565b6020840151909250614c9781614856565b6001600160a01b039384168152919092166020820152604081019190915260600190565b60008219821115614e5757614e57614d78565b500190565b600082821015614e6e57614e6e614d78565b500390565b6000816000190483118215151615614e8d57614e8d614d78565b500290565b600060208284031215614ea457600080fd5b815161119d81614856565b6001600160a01b039390931683526020830191909152604082015260600190565b60008060408385031215614ee357600080fd5b50508051602090910151909290915056feddf252ad1be2c89b69c2b068fc378daa952ba7f163c4a11628f55a4df523b3efa26469706673582212203d5810caa9a5b14400884605727c63249d8faf730b83fd11623a2b08e7497a3764736f6c634300080a0033",
  "linkReferences": {},
  "deployedLinkReferences": {}
}