{
  "_format": "hh-sol-artifact-1",
  "contractName": "CDaiDelegate",
  "sourceName": "contracts/CDaiDelegate.sol",
  "abi": [
    {
      "inputs": [],
      "name": "AcceptAdminPendingAdminCheck",
      "type": "error"
    },
    {
      "inputs": [
        {
          "internalType": "uint256",
          "name": "actualAddAmount",
          "type": "uint256"
        }
      ],
      "name": "AddReservesFactorFreshCheck",
      "type": "error"
    },
    {
      "inputs": [],
      "name": "BorrowCashNotAvailable",
      "type": "error"
    },
    {
      "inputs": [
        {
          "internalType": "uint256",
          "name": "errorCode",
          "type": "uint256"
        }
      ],
      "name": "BorrowComptrollerRejection",
      "type": "error"
    },
    {
      "inputs": [],
      "name": "BorrowFreshnessCheck",
      "type": "error"
    },
    {
      "inputs": [
        {
          "internalType": "uint256",
          "name": "errorCode",
          "type": "uint256"
        }
      ],
      "name": "LiquidateAccrueBorrowInterestFailed",
      "type": "error"
    },
    {
      "inputs": [
        {
          "internalType": "uint256",
          "name": "errorCode",
          "type": "uint256"
        }
      ],
      "name": "LiquidateAccrueCollateralInterestFailed",
      "type": "error"
    },
    {
      "inputs": [],
      "name": "LiquidateCloseAmountIsUintMax",
      "type": "error"
    },
    {
      "inputs": [],
      "name": "LiquidateCloseAmountIsZero",
      "type": "error"
    },
    {
      "inputs": [],
      "name": "LiquidateCollateralFreshnessCheck",
      "type": "error"
    },
    {
      "inputs": [
        {
          "internalType": "uint256",
          "name": "errorCode",
          "type": "uint256"
        }
      ],
      "name": "LiquidateComptrollerRejection",
      "type": "error"
    },
    {
      "inputs": [],
      "name": "LiquidateFreshnessCheck",
      "type": "error"
    },
    {
      "inputs": [],
      "name": "LiquidateLiquidatorIsBorrower",
      "type": "error"
    },
    {
      "inputs": [
        {
          "internalType": "uint256",
          "name": "errorCode",
          "type": "uint256"
        }
      ],
      "name": "LiquidateRepayBorrowFreshFailed",
      "type": "error"
    },
    {
      "inputs": [
        {
          "internalType": "uint256",
          "name": "errorCode",
          "type": "uint256"
        }
      ],
      "name": "LiquidateSeizeComptrollerRejection",
      "type": "error"
    },
    {
      "inputs": [],
      "name": "LiquidateSeizeLiquidatorIsBorrower",
      "type": "error"
    },
    {
      "inputs": [
        {
          "internalType": "uint256",
          "name": "errorCode",
          "type": "uint256"
        }
      ],
      "name": "MintComptrollerRejection",
      "type": "error"
    },
    {
      "inputs": [],
      "name": "MintFreshnessCheck",
      "type": "error"
    },
    {
      "inputs": [
        {
          "internalType": "uint256",
          "name": "errorCode",
          "type": "uint256"
        }
      ],
      "name": "RedeemComptrollerRejection",
      "type": "error"
    },
    {
      "inputs": [],
      "name": "RedeemFreshnessCheck",
      "type": "error"
    },
    {
      "inputs": [],
      "name": "RedeemTransferOutNotPossible",
      "type": "error"
    },
    {
      "inputs": [],
      "name": "ReduceReservesAdminCheck",
      "type": "error"
    },
    {
      "inputs": [],
      "name": "ReduceReservesCashNotAvailable",
      "type": "error"
    },
    {
      "inputs": [],
      "name": "ReduceReservesCashValidation",
      "type": "error"
    },
    {
      "inputs": [],
      "name": "ReduceReservesFreshCheck",
      "type": "error"
    },
    {
      "inputs": [
        {
          "internalType": "uint256",
          "name": "errorCode",
          "type": "uint256"
        }
      ],
      "name": "RepayBorrowComptrollerRejection",
      "type": "error"
    },
    {
      "inputs": [],
      "name": "RepayBorrowFreshnessCheck",
      "type": "error"
    },
    {
      "inputs": [],
      "name": "SetComptrollerOwnerCheck",
      "type": "error"
    },
    {
      "inputs": [],
      "name": "SetInterestRateModelFreshCheck",
      "type": "error"
    },
    {
      "inputs": [],
      "name": "SetInterestRateModelOwnerCheck",
      "type": "error"
    },
    {
      "inputs": [],
      "name": "SetPendingAdminOwnerCheck",
      "type": "error"
    },
    {
      "inputs": [],
      "name": "SetReserveFactorAdminCheck",
      "type": "error"
    },
    {
      "inputs": [],
      "name": "SetReserveFactorBoundsCheck",
      "type": "error"
    },
    {
      "inputs": [],
      "name": "SetReserveFactorFreshCheck",
      "type": "error"
    },
    {
      "inputs": [
        {
          "internalType": "uint256",
          "name": "errorCode",
          "type": "uint256"
        }
      ],
      "name": "TransferComptrollerRejection",
      "type": "error"
    },
    {
      "inputs": [],
      "name": "TransferNotAllowed",
      "type": "error"
    },
    {
      "inputs": [],
      "name": "TransferNotEnough",
      "type": "error"
    },
    {
      "inputs": [],
      "name": "TransferTooMuch",
      "type": "error"
    },
    {
      "anonymous": false,
      "inputs": [
        {
          "indexed": false,
          "internalType": "uint256",
          "name": "cashPrior",
          "type": "uint256"
        },
        {
          "indexed": false,
          "internalType": "uint256",
          "name": "interestAccumulated",
          "type": "uint256"
        },
        {
          "indexed": false,
          "internalType": "uint256",
          "name": "borrowIndex",
          "type": "uint256"
        },
        {
          "indexed": false,
          "internalType": "uint256",
          "name": "totalBorrows",
          "type": "uint256"
        }
      ],
      "name": "AccrueInterest",
      "type": "event"
    },
    {
      "anonymous": false,
      "inputs": [
        {
          "indexed": true,
          "internalType": "address",
          "name": "owner",
          "type": "address"
        },
        {
          "indexed": true,
          "internalType": "address",
          "name": "spender",
          "type": "address"
        },
        {
          "indexed": false,
          "internalType": "uint256",
          "name": "amount",
          "type": "uint256"
        }
      ],
      "name": "Approval",
      "type": "event"
    },
    {
      "anonymous": false,
      "inputs": [
        {
          "indexed": false,
          "internalType": "address",
          "name": "borrower",
          "type": "address"
        },
        {
          "indexed": false,
          "internalType": "uint256",
          "name": "borrowAmount",
          "type": "uint256"
        },
        {
          "indexed": false,
          "internalType": "uint256",
          "name": "accountBorrows",
          "type": "uint256"
        },
        {
          "indexed": false,
          "internalType": "uint256",
          "name": "totalBorrows",
          "type": "uint256"
        }
      ],
      "name": "Borrow",
      "type": "event"
    },
    {
      "anonymous": false,
      "inputs": [
        {
          "indexed": false,
          "internalType": "address",
          "name": "liquidator",
          "type": "address"
        },
        {
          "indexed": false,
          "internalType": "address",
          "name": "borrower",
          "type": "address"
        },
        {
          "indexed": false,
          "internalType": "uint256",
          "name": "repayAmount",
          "type": "uint256"
        },
        {
          "indexed": false,
          "internalType": "address",
          "name": "cTokenCollateral",
          "type": "address"
        },
        {
          "indexed": false,
          "internalType": "uint256",
          "name": "seizeTokens",
          "type": "uint256"
        }
      ],
      "name": "LiquidateBorrow",
      "type": "event"
    },
    {
      "anonymous": false,
      "inputs": [
        {
          "indexed": false,
          "internalType": "address",
          "name": "minter",
          "type": "address"
        },
        {
          "indexed": false,
          "internalType": "uint256",
          "name": "mintAmount",
          "type": "uint256"
        },
        {
          "indexed": false,
          "internalType": "uint256",
          "name": "mintTokens",
          "type": "uint256"
        }
      ],
      "name": "Mint",
      "type": "event"
    },
    {
      "anonymous": false,
      "inputs": [
        {
          "indexed": false,
          "internalType": "address",
          "name": "oldAdmin",
          "type": "address"
        },
        {
          "indexed": false,
          "internalType": "address",
          "name": "newAdmin",
          "type": "address"
        }
      ],
      "name": "NewAdmin",
      "type": "event"
    },
    {
      "anonymous": false,
      "inputs": [
        {
          "indexed": false,
          "internalType": "contract ComptrollerInterface",
          "name": "oldComptroller",
          "type": "address"
        },
        {
          "indexed": false,
          "internalType": "contract ComptrollerInterface",
          "name": "newComptroller",
          "type": "address"
        }
      ],
      "name": "NewComptroller",
      "type": "event"
    },
    {
      "anonymous": false,
      "inputs": [
        {
          "indexed": false,
          "internalType": "contract InterestRateModel",
          "name": "oldInterestRateModel",
          "type": "address"
        },
        {
          "indexed": false,
          "internalType": "contract InterestRateModel",
          "name": "newInterestRateModel",
          "type": "address"
        }
      ],
      "name": "NewMarketInterestRateModel",
      "type": "event"
    },
    {
      "anonymous": false,
      "inputs": [
        {
          "indexed": false,
          "internalType": "address",
          "name": "oldPendingAdmin",
          "type": "address"
        },
        {
          "indexed": false,
          "internalType": "address",
          "name": "newPendingAdmin",
          "type": "address"
        }
      ],
      "name": "NewPendingAdmin",
      "type": "event"
    },
    {
      "anonymous": false,
      "inputs": [
        {
          "indexed": false,
          "internalType": "uint256",
          "name": "oldReserveFactorMantissa",
          "type": "uint256"
        },
        {
          "indexed": false,
          "internalType": "uint256",
          "name": "newReserveFactorMantissa",
          "type": "uint256"
        }
      ],
      "name": "NewReserveFactor",
      "type": "event"
    },
    {
      "anonymous": false,
      "inputs": [
        {
          "indexed": false,
          "internalType": "address",
          "name": "redeemer",
          "type": "address"
        },
        {
          "indexed": false,
          "internalType": "uint256",
          "name": "redeemAmount",
          "type": "uint256"
        },
        {
          "indexed": false,
          "internalType": "uint256",
          "name": "redeemTokens",
          "type": "uint256"
        }
      ],
      "name": "Redeem",
      "type": "event"
    },
    {
      "anonymous": false,
      "inputs": [
        {
          "indexed": false,
          "internalType": "address",
          "name": "payer",
          "type": "address"
        },
        {
          "indexed": false,
          "internalType": "address",
          "name": "borrower",
          "type": "address"
        },
        {
          "indexed": false,
          "internalType": "uint256",
          "name": "repayAmount",
          "type": "uint256"
        },
        {
          "indexed": false,
          "internalType": "uint256",
          "name": "accountBorrows",
          "type": "uint256"
        },
        {
          "indexed": false,
          "internalType": "uint256",
          "name": "totalBorrows",
          "type": "uint256"
        }
      ],
      "name": "RepayBorrow",
      "type": "event"
    },
    {
      "anonymous": false,
      "inputs": [
        {
          "indexed": false,
          "internalType": "address",
          "name": "benefactor",
          "type": "address"
        },
        {
          "indexed": false,
          "internalType": "uint256",
          "name": "addAmount",
          "type": "uint256"
        },
        {
          "indexed": false,
          "internalType": "uint256",
          "name": "newTotalReserves",
          "type": "uint256"
        }
      ],
      "name": "ReservesAdded",
      "type": "event"
    },
    {
      "anonymous": false,
      "inputs": [
        {
          "indexed": false,
          "internalType": "address",
          "name": "admin",
          "type": "address"
        },
        {
          "indexed": false,
          "internalType": "uint256",
          "name": "reduceAmount",
          "type": "uint256"
        },
        {
          "indexed": false,
          "internalType": "uint256",
          "name": "newTotalReserves",
          "type": "uint256"
        }
      ],
      "name": "ReservesReduced",
      "type": "event"
    },
    {
      "anonymous": false,
      "inputs": [
        {
          "indexed": true,
          "internalType": "address",
          "name": "from",
          "type": "address"
        },
        {
          "indexed": true,
          "internalType": "address",
          "name": "to",
          "type": "address"
        },
        {
          "indexed": false,
          "internalType": "uint256",
          "name": "amount",
          "type": "uint256"
        }
      ],
      "name": "Transfer",
      "type": "event"
    },
    {
      "inputs": [],
      "name": "NO_ERROR",
      "outputs": [
        {
          "internalType": "uint256",
          "name": "",
          "type": "uint256"
        }
      ],
      "stateMutability": "view",
      "type": "function"
    },
    {
      "inputs": [],
      "name": "_acceptAdmin",
      "outputs": [
        {
          "internalType": "uint256",
          "name": "",
          "type": "uint256"
        }
      ],
      "stateMutability": "nonpayable",
      "type": "function"
    },
    {
      "inputs": [
        {
          "internalType": "uint256",
          "name": "addAmount",
          "type": "uint256"
        }
      ],
      "name": "_addReserves",
      "outputs": [
        {
          "internalType": "uint256",
          "name": "",
          "type": "uint256"
        }
      ],
      "stateMutability": "nonpayable",
      "type": "function"
    },
    {
      "inputs": [
        {
          "internalType": "bytes",
          "name": "data",
          "type": "bytes"
        }
      ],
      "name": "_becomeImplementation",
      "outputs": [],
      "stateMutability": "nonpayable",
      "type": "function"
    },
    {
      "inputs": [
        {
          "internalType": "address",
          "name": "compLikeDelegatee",
          "type": "address"
        }
      ],
      "name": "_delegateCompLikeTo",
      "outputs": [],
      "stateMutability": "nonpayable",
      "type": "function"
    },
    {
      "inputs": [
        {
          "internalType": "uint256",
          "name": "reduceAmount",
          "type": "uint256"
        }
      ],
      "name": "_reduceReserves",
      "outputs": [
        {
          "internalType": "uint256",
          "name": "",
          "type": "uint256"
        }
      ],
      "stateMutability": "nonpayable",
      "type": "function"
    },
    {
      "inputs": [],
      "name": "_resignImplementation",
      "outputs": [],
      "stateMutability": "nonpayable",
      "type": "function"
    },
    {
      "inputs": [
        {
          "internalType": "contract ComptrollerInterface",
          "name": "newComptroller",
          "type": "address"
        }
      ],
      "name": "_setComptroller",
      "outputs": [
        {
          "internalType": "uint256",
          "name": "",
          "type": "uint256"
        }
      ],
      "stateMutability": "nonpayable",
      "type": "function"
    },
    {
      "inputs": [
        {
          "internalType": "contract InterestRateModel",
          "name": "newInterestRateModel",
          "type": "address"
        }
      ],
      "name": "_setInterestRateModel",
      "outputs": [
        {
          "internalType": "uint256",
          "name": "",
          "type": "uint256"
        }
      ],
      "stateMutability": "nonpayable",
      "type": "function"
    },
    {
      "inputs": [
        {
          "internalType": "address payable",
          "name": "newPendingAdmin",
          "type": "address"
        }
      ],
      "name": "_setPendingAdmin",
      "outputs": [
        {
          "internalType": "uint256",
          "name": "",
          "type": "uint256"
        }
      ],
      "stateMutability": "nonpayable",
      "type": "function"
    },
    {
      "inputs": [
        {
          "internalType": "uint256",
          "name": "newReserveFactorMantissa",
          "type": "uint256"
        }
      ],
      "name": "_setReserveFactor",
      "outputs": [
        {
          "internalType": "uint256",
          "name": "",
          "type": "uint256"
        }
      ],
      "stateMutability": "nonpayable",
      "type": "function"
    },
    {
      "inputs": [],
      "name": "accrualBlockNumber",
      "outputs": [
        {
          "internalType": "uint256",
          "name": "",
          "type": "uint256"
        }
      ],
      "stateMutability": "view",
      "type": "function"
    },
    {
      "inputs": [],
      "name": "accrueInterest",
      "outputs": [
        {
          "internalType": "uint256",
          "name": "",
          "type": "uint256"
        }
      ],
      "stateMutability": "nonpayable",
      "type": "function"
    },
    {
      "inputs": [],
      "name": "admin",
      "outputs": [
        {
          "internalType": "address payable",
          "name": "",
          "type": "address"
        }
      ],
      "stateMutability": "view",
      "type": "function"
    },
    {
      "inputs": [
        {
          "internalType": "address",
          "name": "owner",
          "type": "address"
        },
        {
          "internalType": "address",
          "name": "spender",
          "type": "address"
        }
      ],
      "name": "allowance",
      "outputs": [
        {
          "internalType": "uint256",
          "name": "",
          "type": "uint256"
        }
      ],
      "stateMutability": "view",
      "type": "function"
    },
    {
      "inputs": [
        {
          "internalType": "address",
          "name": "spender",
          "type": "address"
        },
        {
          "internalType": "uint256",
          "name": "amount",
          "type": "uint256"
        }
      ],
      "name": "approve",
      "outputs": [
        {
          "internalType": "bool",
          "name": "",
          "type": "bool"
        }
      ],
      "stateMutability": "nonpayable",
      "type": "function"
    },
    {
      "inputs": [
        {
          "internalType": "address",
          "name": "owner",
          "type": "address"
        }
      ],
      "name": "balanceOf",
      "outputs": [
        {
          "internalType": "uint256",
          "name": "",
          "type": "uint256"
        }
      ],
      "stateMutability": "view",
      "type": "function"
    },
    {
      "inputs": [
        {
          "internalType": "address",
          "name": "owner",
          "type": "address"
        }
      ],
      "name": "balanceOfUnderlying",
      "outputs": [
        {
          "internalType": "uint256",
          "name": "",
          "type": "uint256"
        }
      ],
      "stateMutability": "nonpayable",
      "type": "function"
    },
    {
      "inputs": [
        {
          "internalType": "uint256",
          "name": "borrowAmount",
          "type": "uint256"
        }
      ],
      "name": "borrow",
      "outputs": [
        {
          "internalType": "uint256",
          "name": "",
          "type": "uint256"
        }
      ],
      "stateMutability": "nonpayable",
      "type": "function"
    },
    {
      "inputs": [
        {
          "internalType": "address",
          "name": "account",
          "type": "address"
        }
      ],
      "name": "borrowBalanceCurrent",
      "outputs": [
        {
          "internalType": "uint256",
          "name": "",
          "type": "uint256"
        }
      ],
      "stateMutability": "nonpayable",
      "type": "function"
    },
    {
      "inputs": [
        {
          "internalType": "address",
          "name": "account",
          "type": "address"
        }
      ],
      "name": "borrowBalanceStored",
      "outputs": [
        {
          "internalType": "uint256",
          "name": "",
          "type": "uint256"
        }
      ],
      "stateMutability": "view",
      "type": "function"
    },
    {
      "inputs": [],
      "name": "borrowIndex",
      "outputs": [
        {
          "internalType": "uint256",
          "name": "",
          "type": "uint256"
        }
      ],
      "stateMutability": "view",
      "type": "function"
    },
    {
      "inputs": [],
      "name": "borrowRatePerBlock",
      "outputs": [
        {
          "internalType": "uint256",
          "name": "",
          "type": "uint256"
        }
      ],
      "stateMutability": "view",
      "type": "function"
    },
    {
      "inputs": [],
      "name": "comptroller",
      "outputs": [
        {
          "internalType": "contract ComptrollerInterface",
          "name": "",
          "type": "address"
        }
      ],
      "stateMutability": "view",
      "type": "function"
    },
    {
      "inputs": [],
      "name": "daiJoinAddress",
      "outputs": [
        {
          "internalType": "address",
          "name": "",
          "type": "address"
        }
      ],
      "stateMutability": "view",
      "type": "function"
    },
    {
      "inputs": [],
      "name": "decimals",
      "outputs": [
        {
          "internalType": "uint8",
          "name": "",
          "type": "uint8"
        }
      ],
      "stateMutability": "view",
      "type": "function"
    },
    {
      "inputs": [],
      "name": "exchangeRateCurrent",
      "outputs": [
        {
          "internalType": "uint256",
          "name": "",
          "type": "uint256"
        }
      ],
      "stateMutability": "nonpayable",
      "type": "function"
    },
    {
      "inputs": [],
      "name": "exchangeRateStored",
      "outputs": [
        {
          "internalType": "uint256",
          "name": "",
          "type": "uint256"
        }
      ],
      "stateMutability": "view",
      "type": "function"
    },
    {
      "inputs": [
        {
          "internalType": "address",
          "name": "account",
          "type": "address"
        }
      ],
      "name": "getAccountSnapshot",
      "outputs": [
        {
          "internalType": "uint256",
          "name": "",
          "type": "uint256"
        },
        {
          "internalType": "uint256",
          "name": "",
          "type": "uint256"
        },
        {
          "internalType": "uint256",
          "name": "",
          "type": "uint256"
        },
        {
          "internalType": "uint256",
          "name": "",
          "type": "uint256"
        }
      ],
      "stateMutability": "view",
      "type": "function"
    },
    {
      "inputs": [],
      "name": "getCash",
      "outputs": [
        {
          "internalType": "uint256",
          "name": "",
          "type": "uint256"
        }
      ],
      "stateMutability": "view",
      "type": "function"
    },
    {
      "inputs": [],
      "name": "implementation",
      "outputs": [
        {
          "internalType": "address",
          "name": "",
          "type": "address"
        }
      ],
      "stateMutability": "view",
      "type": "function"
    },
    {
      "inputs": [
        {
          "internalType": "address",
          "name": "underlying_",
          "type": "address"
        },
        {
          "internalType": "contract ComptrollerInterface",
          "name": "comptroller_",
          "type": "address"
        },
        {
          "internalType": "contract InterestRateModel",
          "name": "interestRateModel_",
          "type": "address"
        },
        {
          "internalType": "uint256",
          "name": "initialExchangeRateMantissa_",
          "type": "uint256"
        },
        {
          "internalType": "string",
          "name": "name_",
          "type": "string"
        },
        {
          "internalType": "string",
          "name": "symbol_",
          "type": "string"
        },
        {
          "internalType": "uint8",
          "name": "decimals_",
          "type": "uint8"
        }
      ],
      "name": "initialize",
      "outputs": [],
      "stateMutability": "nonpayable",
      "type": "function"
    },
    {
      "inputs": [
        {
          "internalType": "contract ComptrollerInterface",
          "name": "comptroller_",
          "type": "address"
        },
        {
          "internalType": "contract InterestRateModel",
          "name": "interestRateModel_",
          "type": "address"
        },
        {
          "internalType": "uint256",
          "name": "initialExchangeRateMantissa_",
          "type": "uint256"
        },
        {
          "internalType": "string",
          "name": "name_",
          "type": "string"
        },
        {
          "internalType": "string",
          "name": "symbol_",
          "type": "string"
        },
        {
          "internalType": "uint8",
          "name": "decimals_",
          "type": "uint8"
        }
      ],
      "name": "initialize",
      "outputs": [],
      "stateMutability": "nonpayable",
      "type": "function"
    },
    {
      "inputs": [],
      "name": "interestRateModel",
      "outputs": [
        {
          "internalType": "contract InterestRateModel",
          "name": "",
          "type": "address"
        }
      ],
      "stateMutability": "view",
      "type": "function"
    },
    {
      "inputs": [],
      "name": "isCToken",
      "outputs": [
        {
          "internalType": "bool",
          "name": "",
          "type": "bool"
        }
      ],
      "stateMutability": "view",
      "type": "function"
    },
    {
      "inputs": [
        {
          "internalType": "address",
          "name": "borrower",
          "type": "address"
        },
        {
          "internalType": "uint256",
          "name": "repayAmount",
          "type": "uint256"
        },
        {
          "internalType": "contract CTokenInterface",
          "name": "cTokenCollateral",
          "type": "address"
        }
      ],
      "name": "liquidateBorrow",
      "outputs": [
        {
          "internalType": "uint256",
          "name": "",
          "type": "uint256"
        }
      ],
      "stateMutability": "nonpayable",
      "type": "function"
    },
    {
      "inputs": [
        {
          "internalType": "uint256",
          "name": "mintAmount",
          "type": "uint256"
        }
      ],
      "name": "mint",
      "outputs": [
        {
          "internalType": "uint256",
          "name": "",
          "type": "uint256"
        }
      ],
      "stateMutability": "nonpayable",
      "type": "function"
    },
    {
      "inputs": [],
      "name": "name",
      "outputs": [
        {
          "internalType": "string",
          "name": "",
          "type": "string"
        }
      ],
      "stateMutability": "view",
      "type": "function"
    },
    {
      "inputs": [],
      "name": "pendingAdmin",
      "outputs": [
        {
          "internalType": "address payable",
          "name": "",
          "type": "address"
        }
      ],
      "stateMutability": "view",
      "type": "function"
    },
    {
      "inputs": [],
      "name": "potAddress",
      "outputs": [
        {
          "internalType": "address",
          "name": "",
          "type": "address"
        }
      ],
      "stateMutability": "view",
      "type": "function"
    },
    {
      "inputs": [],
      "name": "protocolSeizeShareMantissa",
      "outputs": [
        {
          "internalType": "uint256",
          "name": "",
          "type": "uint256"
        }
      ],
      "stateMutability": "view",
      "type": "function"
    },
    {
      "inputs": [
        {
          "internalType": "uint256",
          "name": "redeemTokens",
          "type": "uint256"
        }
      ],
      "name": "redeem",
      "outputs": [
        {
          "internalType": "uint256",
          "name": "",
          "type": "uint256"
        }
      ],
      "stateMutability": "nonpayable",
      "type": "function"
    },
    {
      "inputs": [
        {
          "internalType": "uint256",
          "name": "redeemAmount",
          "type": "uint256"
        }
      ],
      "name": "redeemUnderlying",
      "outputs": [
        {
          "internalType": "uint256",
          "name": "",
          "type": "uint256"
        }
      ],
      "stateMutability": "nonpayable",
      "type": "function"
    },
    {
      "inputs": [
        {
          "internalType": "uint256",
          "name": "repayAmount",
          "type": "uint256"
        }
      ],
      "name": "repayBorrow",
      "outputs": [
        {
          "internalType": "uint256",
          "name": "",
          "type": "uint256"
        }
      ],
      "stateMutability": "nonpayable",
      "type": "function"
    },
    {
      "inputs": [
        {
          "internalType": "address",
          "name": "borrower",
          "type": "address"
        },
        {
          "internalType": "uint256",
          "name": "repayAmount",
          "type": "uint256"
        }
      ],
      "name": "repayBorrowBehalf",
      "outputs": [
        {
          "internalType": "uint256",
          "name": "",
          "type": "uint256"
        }
      ],
      "stateMutability": "nonpayable",
      "type": "function"
    },
    {
      "inputs": [],
      "name": "reserveFactorMantissa",
      "outputs": [
        {
          "internalType": "uint256",
          "name": "",
          "type": "uint256"
        }
      ],
      "stateMutability": "view",
      "type": "function"
    },
    {
      "inputs": [
        {
          "internalType": "address",
          "name": "liquidator",
          "type": "address"
        },
        {
          "internalType": "address",
          "name": "borrower",
          "type": "address"
        },
        {
          "internalType": "uint256",
          "name": "seizeTokens",
          "type": "uint256"
        }
      ],
      "name": "seize",
      "outputs": [
        {
          "internalType": "uint256",
          "name": "",
          "type": "uint256"
        }
      ],
      "stateMutability": "nonpayable",
      "type": "function"
    },
    {
      "inputs": [],
      "name": "supplyRatePerBlock",
      "outputs": [
        {
          "internalType": "uint256",
          "name": "",
          "type": "uint256"
        }
      ],
      "stateMutability": "view",
      "type": "function"
    },
    {
      "inputs": [
        {
          "internalType": "contract EIP20NonStandardInterface",
          "name": "token",
          "type": "address"
        }
      ],
      "name": "sweepToken",
      "outputs": [],
      "stateMutability": "nonpayable",
      "type": "function"
    },
    {
      "inputs": [],
      "name": "symbol",
      "outputs": [
        {
          "internalType": "string",
          "name": "",
          "type": "string"
        }
      ],
      "stateMutability": "view",
      "type": "function"
    },
    {
      "inputs": [],
      "name": "totalBorrows",
      "outputs": [
        {
          "internalType": "uint256",
          "name": "",
          "type": "uint256"
        }
      ],
      "stateMutability": "view",
      "type": "function"
    },
    {
      "inputs": [],
      "name": "totalBorrowsCurrent",
      "outputs": [
        {
          "internalType": "uint256",
          "name": "",
          "type": "uint256"
        }
      ],
      "stateMutability": "nonpayable",
      "type": "function"
    },
    {
      "inputs": [],
      "name": "totalReserves",
      "outputs": [
        {
          "internalType": "uint256",
          "name": "",
          "type": "uint256"
        }
      ],
      "stateMutability": "view",
      "type": "function"
    },
    {
      "inputs": [],
      "name": "totalSupply",
      "outputs": [
        {
          "internalType": "uint256",
          "name": "",
          "type": "uint256"
        }
      ],
      "stateMutability": "view",
      "type": "function"
    },
    {
      "inputs": [
        {
          "internalType": "address",
          "name": "dst",
          "type": "address"
        },
        {
          "internalType": "uint256",
          "name": "amount",
          "type": "uint256"
        }
      ],
      "name": "transfer",
      "outputs": [
        {
          "internalType": "bool",
          "name": "",
          "type": "bool"
        }
      ],
      "stateMutability": "nonpayable",
      "type": "function"
    },
    {
      "inputs": [
        {
          "internalType": "address",
          "name": "src",
          "type": "address"
        },
        {
          "internalType": "address",
          "name": "dst",
          "type": "address"
        },
        {
          "internalType": "uint256",
          "name": "amount",
          "type": "uint256"
        }
      ],
      "name": "transferFrom",
      "outputs": [
        {
          "internalType": "bool",
          "name": "",
          "type": "bool"
        }
      ],
      "stateMutability": "nonpayable",
      "type": "function"
    },
    {
      "inputs": [],
      "name": "underlying",
      "outputs": [
        {
          "internalType": "address",
          "name": "",
          "type": "address"
        }
      ],
      "stateMutability": "view",
      "type": "function"
    },
    {
      "inputs": [],
      "name": "vatAddress",
      "outputs": [
        {
          "internalType": "address",
          "name": "",
          "type": "address"
        }
      ],
      "stateMutability": "view",
      "type": "function"
    }
  ],
  "bytecode": "0x608060405234801561001057600080fd5b506144ce806100206000396000f3fe608060405234801561001057600080fd5b506004361061038e5760003560e01c806373acee98116101de578063b2a02ff11161010f578063e9c714f2116100ad578063f851a4401161007c578063f851a44014610791578063f8f9da28146107a9578063fca7820b146107b1578063fe9c44ae146107c457600080fd5b8063e9c714f214610750578063f2b3abbd14610758578063f3fdb15a1461076b578063f5e3c4621461077e57600080fd5b8063c37f68e2116100e9578063c37f68e2146106be578063c5ebeaec146106f1578063db006a7514610704578063dd62ed3e1461071757600080fd5b8063b2a02ff114610690578063b71d1a0c146106a3578063bd6d894d146106b657600080fd5b806395dd91931161017c578063a6afed9511610156578063a6afed9514610664578063a9059cbb1461066c578063aa5af0fd1461067f578063ae9d70b01461068857600080fd5b806395dd91931461062b57806399d8c1b41461063e578063a0712d681461065157600080fd5b80638a8df2e6116101b85780638a8df2e6146105f45780638d925ccd146106075780638f840ddd1461061a57806395d89b411461062357600080fd5b806373acee98146105c65780637f1e06be146105ce578063852a12e3146105e157600080fd5b80633af9e669116102c35780635fe3b5671161026157806369ab32501161023057806369ab3250146105795780636c540baf146105815780636f307dc31461058a57806370a082311461059d57600080fd5b80635fe3b56714610532578063601a0bf11461054557806366ced602146105585780636752e7021461056b57600080fd5b80634576b5db1161029d5780634576b5db146104f057806347bd37181461050357806356e677281461050c5780635c60da1b1461051f57600080fd5b80633af9e669146104c25780633b1d21a2146104d55780633e941010146104dd57600080fd5b8063182df0f51161033057806323b872dd1161030a57806323b872dd146104525780632608f818146104655780632678224714610478578063313ce567146104a357600080fd5b8063182df0f5146104245780631a31d4651461042c5780631be195601461043f57600080fd5b8063153ab5051161036c578063153ab505146103f5578063173b9904146103ff57806317bfdfbc1461040857806318160ddd1461041b57600080fd5b806306fdde0314610393578063095ea7b3146103b15780630e752702146103d4575b600080fd5b61039b6107cc565b6040516103a89190613eb5565b60405180910390f35b6103c46103bf366004613f22565b61085a565b60405190151581526020016103a8565b6103e76103e2366004613f4e565b6108ca565b6040519081526020016103a8565b6103fd6108dd565b005b6103e760085481565b6103e7610416366004613f67565b610b98565b6103e7600d5481565b6103e7610beb565b6103fd61043a366004614046565b610bfa565b6103fd61044d366004613f67565b610c8f565b6103c46104603660046140fc565b610e5b565b6103e7610473366004613f22565b610eab565b60045461048b906001600160a01b031681565b6040516001600160a01b0390911681526020016103a8565b6003546104b09060ff1681565b60405160ff90911681526020016103a8565b6103e76104d0366004613f67565b610ec0565b6103e7610f06565b6103e76104eb366004613f4e565b610f10565b6103e76104fe366004613f67565b610f1b565b6103e7600b5481565b6103fd61051a36600461413d565b61106d565b60125461048b906001600160a01b031681565b60055461048b906001600160a01b031681565b6103e7610553366004613f4e565b61110f565b60145461048b906001600160a01b031681565b6103e7666379da05b6000081565b6103e7600081565b6103e760095481565b60115461048b906001600160a01b031681565b6103e76105ab366004613f67565b6001600160a01b03166000908152600e602052604090205490565b6103e761114e565b6103fd6105dc366004613f67565b611198565b6103e76105ef366004613f4e565b61126f565b60135461048b906001600160a01b031681565b60155461048b906001600160a01b031681565b6103e7600c5481565b61039b61127a565b6103e7610639366004613f67565b611287565b6103fd61064c366004614186565b611292565b6103e761065f366004613f4e565b6114ed565b6103e76114f8565b6103c461067a366004613f22565b611570565b6103e7600a5481565b6103e76115bf565b6103e761069e3660046140fc565b611657565b6103e76106b1366004613f67565b6116a6565b6103e7611733565b6106d16106cc366004613f67565b611783565b6040805194855260208501939093529183015260608201526080016103a8565b6103e76106ff366004613f4e565b6117c4565b6103e7610712366004613f4e565b6117cf565b6103e7610725366004614228565b6001600160a01b039182166000908152600f6020908152604080832093909416825291909152205490565b6103e76117da565b6103e7610766366004613f67565b6118e1565b60065461048b906001600160a01b031681565b6103e761078c366004614261565b6118f5565b60035461048b9061010090046001600160a01b031681565b6103e761190c565b6103e76107bf366004613f4e565b61195f565b6103c4600181565b600180546107d9906142a3565b80601f0160208091040260200160405190810160405280929190818152602001828054610805906142a3565b80156108525780601f1061082757610100808354040283529160200191610852565b820191906000526020600020905b81548152906001019060200180831161083557829003601f168201915b505050505081565b336000818152600f602090815260408083206001600160a01b03871680855292528083208590555191929182907f8c5be1e5ebec7d5bd14f71427d1e84f3dd0314c0f7b2291e5b200ac8c7c3b925906108b69087815260200190565b60405180910390a360019150505b92915050565b60006108d58261199e565b506000919050565b60035461010090046001600160a01b031633146109575760405162461bcd60e51b815260206004820152602d60248201527f6f6e6c79207468652061646d696e206d6179206162616e646f6e20746865206960448201526c36b83632b6b2b73a30ba34b7b760991b60648201526084015b60405180910390fd5b60135460145460155460408051634fb3c66560e11b815290516001600160a01b039485169493841693909216918391639f678cca91600480830192602092919082900301816000875af11580156109b2573d6000803e3d6000fd5b505050506040513d601f19601f820116820180604052508101906109d691906142de565b506040516305f5d64360e11b81523060048201526000906001600160a01b03841690630bebac8690602401602060405180830381865afa158015610a1e573d6000803e3d6000fd5b505050506040513d601f19601f82011682018060405250810190610a4291906142de565b604051637f8661a160e01b8152600481018290529091506001600160a01b03841690637f8661a190602401600060405180830381600087803b158015610a8757600080fd5b505af1158015610a9b573d6000803e3d6000fd5b5050604051633612d9a360e11b8152306004820152600092506001600160a01b0385169150636c25b34690602401602060405180830381865afa158015610ae6573d6000803e3d6000fd5b505050506040513d601f19601f82011682018060405250810190610b0a91906142de565b90506001600160a01b03851663ef693bed30610b326b033b2e3c9fd0803ce80000008561430d565b6040516001600160e01b031960e085901b1681526001600160a01b03909216600483015260248201526044015b600060405180830381600087803b158015610b7957600080fd5b505af1158015610b8d573d6000803e3d6000fd5b505050505050505050565b6000805460ff16610bbb5760405162461bcd60e51b815260040161094e9061432f565b6000805460ff19169055610bcd6114f8565b50610bd782611287565b90506000805460ff19166001179055919050565b6000610bf56119ef565b905090565b610c08868686868686611292565b601180546001600160a01b0319166001600160a01b038916908117909155604080516318160ddd60e01b815290516318160ddd916004808201926020929091908290030181865afa158015610c61573d6000803e3d6000fd5b505050506040513d601f19601f82011682018060405250810190610c8591906142de565b5050505050505050565b60035461010090046001600160a01b03163314610d065760405162461bcd60e51b815260206004820152602f60248201527f4345726332303a3a7377656570546f6b656e3a206f6e6c792061646d696e206360448201526e616e20737765657020746f6b656e7360881b606482015260840161094e565b6011546001600160a01b0382811691161415610d7f5760405162461bcd60e51b815260206004820152603260248201527f4345726332303a3a7377656570546f6b656e3a2063616e206e6f74207377656560448201527138103ab73232b9363cb4b733903a37b5b2b760711b606482015260840161094e565b6040516370a0823160e01b81523060048201526000906001600160a01b038316906370a0823190602401602060405180830381865afa158015610dc6573d6000803e3d6000fd5b505050506040513d601f19601f82011682018060405250810190610dea91906142de565b60035460405163a9059cbb60e01b81526001600160a01b03610100909204821660048201526024810183905291925083169063a9059cbb90604401600060405180830381600087803b158015610e3f57600080fd5b505af1158015610e53573d6000803e3d6000fd5b505050505050565b6000805460ff16610e7e5760405162461bcd60e51b815260040161094e9061432f565b6000805460ff19168155610e9433868686611a59565b1490506000805460ff191660011790559392505050565b6000610eb78383611c87565b50600092915050565b6000806040518060200160405280610ed6611733565b90526001600160a01b0384166000908152600e6020526040902054909150610eff908290611cd9565b9392505050565b6000610bf5611cf9565b60006108c482611df5565b60035460009061010090046001600160a01b03163314610f4e5760405163d219dc1f60e01b815260040160405180910390fd5b60055460408051623f1ee960e11b815290516001600160a01b0392831692851691627e3dd29160048083019260209291908290030181865afa158015610f98573d6000803e3d6000fd5b505050506040513d601f19601f82011682018060405250810190610fbc9190614353565b6110085760405162461bcd60e51b815260206004820152601c60248201527f6d61726b6572206d6574686f642072657475726e65642066616c736500000000604482015260640161094e565b600580546001600160a01b0319166001600160a01b0385811691821790925560408051928416835260208301919091527f7ac369dbd14fa5ea3f473ed67cc9d598964a77501540ba6751eb0b3decf5870d91015b60405180910390a150600092915050565b60035461010090046001600160a01b031633146110e55760405162461bcd60e51b815260206004820152603060248201527f6f6e6c79207468652061646d696e206d617920696e697469616c697a6520746860448201526f329034b6b83632b6b2b73a30ba34b7b760811b606482015260840161094e565b600080828060200190518101906110fc9190614375565b9150915061110a8282611e4c565b505050565b6000805460ff166111325760405162461bcd60e51b815260040161094e9061432f565b6000805460ff191690556111446114f8565b50610bd78261215d565b6000805460ff166111715760405162461bcd60e51b815260040161094e9061432f565b6000805460ff191690556111836114f8565b5050600b546000805460ff1916600117905590565b60035461010090046001600160a01b0316331461120d5760405162461bcd60e51b815260206004820152602d60248201527f6f6e6c79207468652061646d696e206d6179207365742074686520636f6d702d60448201526c6c696b652064656c656761746560981b606482015260840161094e565b6011546040516317066a5760e21b81526001600160a01b03838116600483015290911690635c19a95c90602401600060405180830381600087803b15801561125457600080fd5b505af1158015611268573d6000803e3d6000fd5b5050505050565b60006108d582612278565b600280546107d9906142a3565b60006108c4826122c9565b60035461010090046001600160a01b031633146112fd5760405162461bcd60e51b8152602060048201526024808201527f6f6e6c792061646d696e206d617920696e697469616c697a6520746865206d616044820152631c9ad95d60e21b606482015260840161094e565b60095415801561130d5750600a54155b6113655760405162461bcd60e51b815260206004820152602360248201527f6d61726b6574206d6179206f6e6c7920626520696e697469616c697a6564206f6044820152626e636560e81b606482015260840161094e565b6007849055836113d05760405162461bcd60e51b815260206004820152603060248201527f696e697469616c2065786368616e67652072617465206d75737420626520677260448201526f32b0ba32b9103a3430b7103d32b9379760811b606482015260840161094e565b60006113db87610f1b565b9050801561142b5760405162461bcd60e51b815260206004820152601a60248201527f73657474696e6720636f6d7074726f6c6c6572206661696c6564000000000000604482015260640161094e565b43600955670de0b6b3a7640000600a5561144486612313565b9050801561149f5760405162461bcd60e51b815260206004820152602260248201527f73657474696e6720696e7465726573742072617465206d6f64656c206661696c604482015261195960f21b606482015260840161094e565b83516114b2906001906020870190613e25565b5082516114c6906002906020860190613e25565b50506003805460ff90921660ff199283161790556000805490911660011790555050505050565b60006108d582612488565b60145460408051634fb3c66560e11b815290516000926001600160a01b031691639f678cca916004808301926020929190829003018187875af1158015611543573d6000803e3d6000fd5b505050506040513d601f19601f8201168201806040525081019061156791906142de565b50610bf56124c7565b6000805460ff166115935760405162461bcd60e51b815260040161094e9061432f565b6000805460ff191681556115a933808686611a59565b1490506000805460ff1916600117905592915050565b6006546000906001600160a01b031663b81688166115db611cf9565b600b54600c546008546040516001600160e01b031960e087901b16815260048101949094526024840192909252604483015260648201526084015b602060405180830381865afa158015611633573d6000803e3d6000fd5b505050506040513d601f19601f82011682018060405250810190610bf591906142de565b6000805460ff1661167a5760405162461bcd60e51b815260040161094e9061432f565b6000805460ff19169055611690338585856126b5565b50600080805460ff191660011790559392505050565b60035460009061010090046001600160a01b031633146116d957604051635cb56c2b60e01b815260040160405180910390fd5b600480546001600160a01b038481166001600160a01b031983168117909355604080519190921680825260208201939093527fca4f2f25d0898edd99413412fb94012f9e54ec8142f9b093e7720646a95b16a9910161105c565b6000805460ff166117565760405162461bcd60e51b815260040161094e9061432f565b6000805460ff191690556117686114f8565b50611771610beb565b90506000805460ff1916600117905590565b6001600160a01b0381166000908152600e602052604081205481908190819081906117ad876122c9565b6117b56119ef565b93509350935093509193509193565b60006108d58261292e565b60006108d58261296d565b6004546000906001600160a01b0316331415806117f5575033155b1561181357604051631ba24f2960e21b815260040160405180910390fd5b60038054600480546001600160a01b03808216610100818102610100600160a81b0319871617968790556001600160a01b031990931690935560408051948390048216808652929095041660208401529290917ff9ffabca9c8276e99321725bcb43fb076a6c66a54b7f21c4e8146d8519b417dc910160405180910390a1600454604080516001600160a01b03808516825290921660208301527fca4f2f25d0898edd99413412fb94012f9e54ec8142f9b093e7720646a95b16a9910160405180910390a160009250505090565b60006118eb6114f8565b506108c482612313565b60006119028484846129ae565b5060009392505050565b6006546000906001600160a01b03166315f24053611928611cf9565b600b54600c546040516001600160e01b031960e086901b168152600481019390935260248301919091526044820152606401611616565b6000805460ff166119825760405162461bcd60e51b815260040161094e9061432f565b6000805460ff191690556119946114f8565b50610bd782612a8c565b60005460ff166119c05760405162461bcd60e51b815260040161094e9061432f565b6000805460ff191690556119d26114f8565b506119de333383612b48565b50506000805460ff19166001179055565b600d5460009080611a0257505060075490565b6000611a0c611cf9565b90506000600c54600b5483611a2191906143a4565b611a2b91906143bc565b9050600083611a42670de0b6b3a7640000846143d3565b611a4c919061430d565b95945050505050565b5090565b6005546040516317b9b84b60e31b81523060048201526001600160a01b038581166024830152848116604483015260648201849052600092839291169063bdcdc258906084016020604051808303816000875af1158015611abe573d6000803e3d6000fd5b505050506040513d601f19601f82011682018060405250810190611ae291906142de565b90508015611b065760405163089d427760e11b81526004810182905260240161094e565b836001600160a01b0316856001600160a01b03161415611b3957604051638cd22d1960e01b815260040160405180910390fd5b6000856001600160a01b0316876001600160a01b03161415611b5e5750600019611b86565b506001600160a01b038086166000908152600f60209081526040808320938a16835292905220545b6000611b9285836143bc565b6001600160a01b0388166000908152600e602052604081205491925090611bba9087906143bc565b6001600160a01b0388166000908152600e602052604081205491925090611be29088906143a4565b6001600160a01b03808b166000908152600e6020526040808220869055918b1681522081905590506000198414611c3c576001600160a01b03808a166000908152600f60209081526040808320938e168352929052208390555b876001600160a01b0316896001600160a01b031660008051602061447983398151915289604051611c6f91815260200190565b60405180910390a35060009998505050505050505050565b60005460ff16611ca95760405162461bcd60e51b815260040161094e9061432f565b6000805460ff19169055611cbb6114f8565b50611cc7338383612b48565b50506000805460ff1916600117905550565b600080611ce68484612cf1565b9050611cf181612d22565b949350505050565b6014546040516305f5d64360e11b81523060048201526000916001600160a01b03169082908290630bebac8690602401602060405180830381865afa158015611d46573d6000803e3d6000fd5b505050506040513d601f19601f82011682018060405250810190611d6a91906142de565b90506b033b2e3c9fd0803ce8000000611de4836001600160a01b031663c92aecc46040518163ffffffff1660e01b8152600401602060405180830381865afa158015611dba573d6000803e3d6000fd5b505050506040513d601f19601f82011682018060405250810190611dde91906142de565b83612d3a565b611dee919061430d565b9250505090565b6000805460ff16611e185760405162461bcd60e51b815260040161094e9061432f565b6000805460ff19169055611e2a6114f8565b50611e3482612d99565b5050600090506000805460ff19166001179055919050565b600082905060008290506000826001600160a01b031663f4b9fa756040518163ffffffff1660e01b81526004016020604051808303816000875af1158015611e98573d6000803e3d6000fd5b505050506040513d601f19601f82011682018060405250810190611ebc91906143f2565b90506000836001600160a01b03166336569e776040518163ffffffff1660e01b81526004016020604051808303816000875af1158015611f00573d6000803e3d6000fd5b505050506040513d601f19601f82011682018060405250810190611f2491906143f2565b6011549091506001600160a01b03838116911614611f8f5760405162461bcd60e51b815260206004820152602260248201527f444149206d757374206265207468652073616d6520617320756e6465726c79696044820152616e6760f01b606482015260840161094e565b601380546001600160a01b03199081166001600160a01b03898116918217909355601480548316898516179055601580549092168484161790915560405163095ea7b360e01b8152600481019190915260001960248201529083169063095ea7b390604401600060405180830381600087803b15801561200e57600080fd5b505af1158015612022573d6000803e3d6000fd5b50506014546040516328ec8bf160e21b81526001600160a01b039182166004820152908416925063a3b22fc49150602401600060405180830381600087803b15801561206d57600080fd5b505af1158015612081573d6000803e3d6000fd5b50506013546040516328ec8bf160e21b81526001600160a01b039182166004820152908416925063a3b22fc49150602401600060405180830381600087803b1580156120cc57600080fd5b505af11580156120e0573d6000803e3d6000fd5b50505050826001600160a01b0316639f678cca6040518163ffffffff1660e01b81526004016020604051808303816000875af1158015612124573d6000803e3d6000fd5b505050506040513d601f19601f8201168201806040525081019061214891906142de565b50612154306000612e2d565b50505050505050565b600354600090819061010090046001600160a01b0316331461219257604051630f7e5e6d60e41b815260040160405180910390fd5b43600954146121b457604051630dff50cb60e41b815260040160405180910390fd5b826121bd611cf9565b10156121dc57604051633345e99960e01b815260040160405180910390fd5b600c548311156121ff576040516378d2980560e11b815260040160405180910390fd5b82600c5461220d91906143bc565b600c8190556003549091506122309061010090046001600160a01b031684613130565b7f3bad0c59cf2f06e7314077049f48a93578cd16f5ef92329f1dab1420a99c177e600360019054906101000a90046001600160a01b0316848360405161105c9392919061440f565b60005460ff1661229a5760405162461bcd60e51b815260040161094e9061432f565b6000805460ff191690556122ac6114f8565b506122b933600083613266565b506000805460ff19166001179055565b6001600160a01b038116600090815260106020526040812080546122f05750600092915050565b600a548154600091612301916143d3565b9050816001015481611cf1919061430d565b600354600090819061010090046001600160a01b031633146123485760405163407fded560e01b815260040160405180910390fd5b436009541461236a57604051630be2a5cb60e11b815260040160405180910390fd5b600660009054906101000a90046001600160a01b03169050826001600160a01b0316632191f92a6040518163ffffffff1660e01b8152600401602060405180830381865afa1580156123c0573d6000803e3d6000fd5b505050506040513d601f19601f820116820180604052508101906123e49190614353565b6124305760405162461bcd60e51b815260206004820152601c60248201527f6d61726b6572206d6574686f642072657475726e65642066616c736500000000604482015260640161094e565b600680546001600160a01b0319166001600160a01b0385811691821790925560408051928416835260208301919091527fedffc32e068c7c95dfd4bdfd5c4d939a084d6b11c4199eac8436ed234d72f926910161105c565b60005460ff166124aa5760405162461bcd60e51b815260040161094e9061432f565b6000805460ff191690556124bc6114f8565b506122b93382613543565b6009546000904390808214156124e05760009250505090565b60006124ea611cf9565b600b54600c54600a546006546040516315f2405360e01b81526004810186905260248101859052604481018490529495509293919290916000916001600160a01b0316906315f2405390606401602060405180830381865afa158015612554573d6000803e3d6000fd5b505050506040513d601f19601f8201168201806040525081019061257891906142de565b905065048c273950008111156125d05760405162461bcd60e51b815260206004820152601c60248201527f626f72726f772072617465206973206162737572646c79206869676800000000604482015260640161094e565b60006125dc87896143bc565b905060006125f860405180602001604052808581525083612cf1565b905060006126068288611cd9565b9050600061261488836143a4565b905060006126336040518060200160405280600854815250848a6136f9565b9050600061264285898a6136f9565b60098e9055600a819055600b849055600c839055604080518d815260208101879052908101829052606081018590529091507f4dec04e750ca11537cabcd8a9eab06494de08da3735bc8871cd41250e190bc049060800160405180910390a160009d505050505050505050505050505090565b60055460405163d02f735160e01b81523060048201526001600160a01b0386811660248301528581166044830152848116606483015260848201849052600092169063d02f73519060a4016020604051808303816000875af115801561271f573d6000803e3d6000fd5b505050506040513d601f19601f8201168201806040525081019061274391906142de565b90508015612767576040516363e00e3360e11b81526004810182905260240161094e565b836001600160a01b0316836001600160a01b0316141561279a57604051633a94626760e11b815260040160405180910390fd5b60006127bb836040518060200160405280666379da05b6000081525061371a565b905060006127c982856143bc565b9050600060405180602001604052806127e06119ef565b9052905060006127f08285611cd9565b9050600081600c5461280291906143a4565b600c819055600d549091506128189086906143bc565b600d556001600160a01b0388166000908152600e602052604090205461283f9088906143bc565b6001600160a01b03808a166000908152600e602052604080822093909355908b168152205461286f9085906143a4565b6001600160a01b03808b166000818152600e602052604090819020939093559151908a1690600080516020614479833981519152906128b19088815260200190565b60405180910390a360405185815230906001600160a01b038a16906000805160206144798339815191529060200160405180910390a37fa91e67c5ea634cd43a12c5a482724b03de01e85ca68702a53d0c2f45cb7c1dc530838360405161291a9392919061440f565b60405180910390a150505050505050505050565b60005460ff166129505760405162461bcd60e51b815260040161094e9061432f565b6000805460ff191690556129626114f8565b506122b9338261373d565b60005460ff1661298f5760405162461bcd60e51b815260040161094e9061432f565b6000805460ff191690556129a16114f8565b506122b933826000613266565b60005460ff166129d05760405162461bcd60e51b815260040161094e9061432f565b6000805460ff191690556129e26114f8565b506000816001600160a01b031663a6afed956040518163ffffffff1660e01b81526004016020604051808303816000875af1158015612a25573d6000803e3d6000fd5b505050506040513d601f19601f82011682018060405250810190612a4991906142de565b90508015612a6d57604051633eea49b760e11b81526004810182905260240161094e565b612a79338585856138dc565b50506000805460ff191660011790555050565b60035460009061010090046001600160a01b03163314612abf57604051631205b57b60e11b815260040160405180910390fd5b4360095414612ae157604051637dfca6b760e11b815260040160405180910390fd5b670de0b6b3a7640000821115612b0a5760405163717220f360e11b815260040160405180910390fd5b600880549083905560408051828152602081018590527faaa68312e2ea9d50e16af5068410ab56e1a1fd06037b1a35664812c30f821460910161105c565b600554604051631200453160e11b81523060048201526001600160a01b03858116602483015284811660448301526064820184905260009283929116906324008a62906084016020604051808303816000875af1158015612bad573d6000803e3d6000fd5b505050506040513d601f19601f82011682018060405250810190612bd191906142de565b90508015612bf557604051638c81362d60e01b81526004810182905260240161094e565b4360095414612c175760405163c9021e2f60e01b815260040160405180910390fd5b6000612c22856122c9565b905060006000198514612c355784612c37565b815b90506000612c458883612e2d565b90506000612c5382856143bc565b9050600082600b54612c6591906143bc565b6001600160a01b038a8116600081815260106020908152604091829020878155600a54600190910155600b8590558151938f168452830191909152810185905260608101849052608081018290529091507f1a2a22cb034d26d1854bdc6666a5b91fe25efbbb5dcad3b0355478d6f5c362a19060a00160405180910390a1509098975050505050505050565b6040805160208101909152600081526040518060200160405280612d19856000015185613d96565b90529392505050565b80516000906108c490670de0b6b3a76400009061430d565b6000811580612d5e57508282612d5081836143d3565b9250612d5c908361430d565b145b6108c45760405162461bcd60e51b815260206004820152600c60248201526b6d756c2d6f766572666c6f7760a01b604482015260640161094e565b60008080804360095414612dc3576040516338acf79960e01b81526004810182905260240161094e565b612dcd3386612e2d565b905080600c54612ddd91906143a4565b915081600c819055507fa91e67c5ea634cd43a12c5a482724b03de01e85ca68702a53d0c2f45cb7c1dc5338284604051612e199392919061440f565b60405180910390a160009590945092505050565b6011546040516323b872dd60e01b81526000916001600160a01b031690819081906323b872dd90612e6690889030908990600401614430565b6020604051808303816000875af1158015612e85573d6000803e3d6000fd5b505050506040513d601f19601f82011682018060405250810190612ea99190614353565b612f015760405162461bcd60e51b8152602060048201526024808201527f756e6578706563746564204549502d3230207472616e7366657220696e2072656044820152633a3ab93760e11b606482015260840161094e565b6013546014546015546040516370a0823160e01b815230600482018190526001600160a01b039485169487948116938116928692633b4da69f929091908716906370a0823190602401602060405180830381865afa158015612f67573d6000803e3d6000fd5b505050506040513d601f19601f82011682018060405250810190612f8b91906142de565b6040516001600160e01b031960e085901b1681526001600160a01b0390921660048301526024820152604401600060405180830381600087803b158015612fd157600080fd5b505af1158015612fe5573d6000803e3d6000fd5b5050604051633612d9a360e11b8152306004820152600092506001600160a01b0384169150636c25b34690602401602060405180830381865afa158015613030573d6000803e3d6000fd5b505050506040513d601f19601f8201168201806040525081019061305491906142de565b90506000836001600160a01b031663c92aecc46040518163ffffffff1660e01b8152600401602060405180830381865afa158015613096573d6000803e3d6000fd5b505050506040513d601f19601f820116820180604052508101906130ba91906142de565b6130c4908361430d565b60405163049878f360e01b8152600481018290529091506001600160a01b0385169063049878f390602401600060405180830381600087803b15801561310957600080fd5b505af115801561311d573d6000803e3d6000fd5b509b9d9c50505050505050505050505050565b6013546014546040805163324abb3160e21b815290516001600160a01b0393841693909216916000916131d491849163c92aecc49160048083019260209291908290030181865afa158015613189573d6000803e3d6000fd5b505050506040513d601f19601f820116820180604052508101906131ad91906142de565b6131c3866b033b2e3c9fd0803ce8000000612d3a565b6131cd919061430d565b6001613da2565b604051637f8661a160e01b8152600481018290529091506001600160a01b03831690637f8661a190602401600060405180830381600087803b15801561321957600080fd5b505af115801561322d573d6000803e3d6000fd5b505060405163ef693bed60e01b81526001600160a01b038881166004830152602482018890528616925063ef693bed9150604401610b5f565b811580613271575080155b6132da5760405162461bcd60e51b815260206004820152603460248201527f6f6e65206f662072656465656d546f6b656e73496e206f722072656465656d416044820152736d6f756e74496e206d757374206265207a65726f60601b606482015260840161094e565b600060405180602001604052806132ef6119ef565b905290506000808415613310578491506133098386611cd9565b9050613320565b61331a8484613def565b91508390505b60055460405163eabe7d9160e01b81526000916001600160a01b03169063eabe7d91906133559030908b908890600401614430565b6020604051808303816000875af1158015613374573d6000803e3d6000fd5b505050506040513d601f19601f8201168201806040525081019061339891906142de565b905080156133bc5760405163480f424760e01b81526004810182905260240161094e565b43600954146133de576040516397b5cfcd60e01b815260040160405180910390fd5b816133e7611cf9565b1015613406576040516391240a1b60e01b815260040160405180910390fd5b82600d5461341491906143bc565b600d556001600160a01b0387166000908152600e602052604090205461343b9084906143bc565b6001600160a01b0388166000908152600e602052604090205561345e8783613130565b60405183815230906001600160a01b038916906000805160206144798339815191529060200160405180910390a37fe5b754fb1abb7f01b499791d0b820ae3b6af3424ac1c59768edb53f4ec31a9298783856040516134bf9392919061440f565b60405180910390a16005546040516351dff98960e01b81523060048201526001600160a01b0389811660248301526044820185905260648201869052909116906351dff98990608401600060405180830381600087803b15801561352257600080fd5b505af1158015613536573d6000803e3d6000fd5b5050505050505050505050565b600554604051634ef4c3e160e01b81526000916001600160a01b031690634ef4c3e19061357890309087908790600401614430565b6020604051808303816000875af1158015613597573d6000803e3d6000fd5b505050506040513d601f19601f820116820180604052508101906135bb91906142de565b905080156135df576040516349abd4fd60e01b81526004810182905260240161094e565b4360095414613601576040516338d8859760e01b815260040160405180910390fd5b600060405180602001604052806136166119ef565b9052905060006136268585612e2d565b905060006136348284613def565b905080600d5461364491906143a4565b600d556001600160a01b0386166000908152600e602052604090205461366b9082906143a4565b6001600160a01b0387166000908152600e60205260409081902091909155517f4c209b5fc8ad50758f13e2e1088ba56a560dff690a1c6fef26394f4c03821c4f906136bb9088908590859061440f565b60405180910390a16040518181526001600160a01b0387169030906000805160206144798339815191529060200160405180910390a3505050505050565b6000806137068585612cf1565b9050611a4c61371482612d22565b84613e0d565b6000670de0b6b3a7640000613733848460000151613d96565b610eff919061430d565b60055460405163368f515360e21b81526000916001600160a01b03169063da3d454c9061377290309087908790600401614430565b6020604051808303816000875af1158015613791573d6000803e3d6000fd5b505050506040513d601f19601f820116820180604052508101906137b591906142de565b905080156137d95760405163918db40f60e01b81526004810182905260240161094e565b43600954146137fb57604051630e8d8c6160e21b815260040160405180910390fd5b81613804611cf9565b1015613823576040516348c2588160e01b815260040160405180910390fd5b600061382e846122c9565b9050600061383c84836143a4565b9050600084600b5461384e91906143a4565b6001600160a01b0387166000908152601060205260409020838155600a54600190910155600b81905590506138838686613130565b604080516001600160a01b038816815260208101879052908101839052606081018290527f13ed6866d4e1ee6da46f845c46d7e54120883d75c5ea9a2dacc1c4ca8984ab809060800160405180910390a1505050505050565b600554604051632fe3f38f60e11b81523060048201526001600160a01b03838116602483015286811660448301528581166064830152608482018590526000921690635fc7e71e9060a4016020604051808303816000875af1158015613946573d6000803e3d6000fd5b505050506040513d601f19601f8201168201806040525081019061396a91906142de565b9050801561398e57604051630a14d17960e11b81526004810182905260240161094e565b43600954146139b0576040516380965b1b60e01b815260040160405180910390fd5b43826001600160a01b0316636c540baf6040518163ffffffff1660e01b8152600401602060405180830381865afa1580156139ef573d6000803e3d6000fd5b505050506040513d601f19601f82011682018060405250810190613a1391906142de565b14613a3157604051631046f38d60e31b815260040160405180910390fd5b846001600160a01b0316846001600160a01b03161415613a6457604051631bd1a62160e21b815260040160405180910390fd5b82613a825760405163d29da7ef60e01b815260040160405180910390fd5b600019831415613aa557604051635982c5bb60e11b815260040160405180910390fd5b6000613ab2868686612b48565b60055460405163c488847b60e01b815291925060009182916001600160a01b03169063c488847b90613aec90309089908890600401614430565b6040805180830381865afa158015613b08573d6000803e3d6000fd5b505050506040513d601f19601f82011682018060405250810190613b2c9190614454565b9150915060008214613b9c5760405162461bcd60e51b815260206004820152603360248201527f4c49515549444154455f434f4d5054524f4c4c45525f43414c43554c4154455f604482015272105353d5539517d4d152569157d19052531151606a1b606482015260840161094e565b6040516370a0823160e01b81526001600160a01b0388811660048301528291908716906370a0823190602401602060405180830381865afa158015613be5573d6000803e3d6000fd5b505050506040513d601f19601f82011682018060405250810190613c0991906142de565b1015613c575760405162461bcd60e51b815260206004820152601860248201527f4c49515549444154455f5345495a455f544f4f5f4d5543480000000000000000604482015260640161094e565b6001600160a01b038516301415613c7957613c74308989846126b5565b613d33565b60405163b2a02ff160e01b81526000906001600160a01b0387169063b2a02ff190613cac908c908c908790600401614430565b6020604051808303816000875af1158015613ccb573d6000803e3d6000fd5b505050506040513d601f19601f82011682018060405250810190613cef91906142de565b14613d335760405162461bcd60e51b81526020600482015260146024820152731d1bdad95b881cd95a5e9d5c994819985a5b195960621b604482015260640161094e565b604080516001600160a01b038a811682528981166020830152818301869052871660608201526080810183905290517f298637f684da70674f26509b10f07ec2fbc77a335ab1e7d6215a4b2484d8bb529181900360a00190a15050505050505050565b6000610eff82846143d3565b600082613daf83826143a4565b91508110156108c45760405162461bcd60e51b815260206004820152600c60248201526b6164642d6f766572666c6f7760a01b604482015260640161094e565b6000610eff613e0684670de0b6b3a7640000613d96565b8351613e19565b6000610eff82846143a4565b6000610eff828461430d565b828054613e31906142a3565b90600052602060002090601f016020900481019282613e535760008555613e99565b82601f10613e6c57805160ff1916838001178555613e99565b82800160010185558215613e99579182015b82811115613e99578251825591602001919060010190613e7e565b50611a559291505b80821115611a555760008155600101613ea1565b600060208083528351808285015260005b81811015613ee257858101830151858201604001528201613ec6565b81811115613ef4576000604083870101525b50601f01601f1916929092016040019392505050565b6001600160a01b0381168114613f1f57600080fd5b50565b60008060408385031215613f3557600080fd5b8235613f4081613f0a565b946020939093013593505050565b600060208284031215613f6057600080fd5b5035919050565b600060208284031215613f7957600080fd5b8135610eff81613f0a565b634e487b7160e01b600052604160045260246000fd5b600067ffffffffffffffff80841115613fb557613fb5613f84565b604051601f8501601f19908116603f01168101908282118183101715613fdd57613fdd613f84565b81604052809350858152868686011115613ff657600080fd5b858560208301376000602087830101525050509392505050565b600082601f83011261402157600080fd5b610eff83833560208501613f9a565b803560ff8116811461404157600080fd5b919050565b600080600080600080600060e0888a03121561406157600080fd5b873561406c81613f0a565b9650602088013561407c81613f0a565b9550604088013561408c81613f0a565b945060608801359350608088013567ffffffffffffffff808211156140b057600080fd5b6140bc8b838c01614010565b945060a08a01359150808211156140d257600080fd5b506140df8a828b01614010565b9250506140ee60c08901614030565b905092959891949750929550565b60008060006060848603121561411157600080fd5b833561411c81613f0a565b9250602084013561412c81613f0a565b929592945050506040919091013590565b60006020828403121561414f57600080fd5b813567ffffffffffffffff81111561416657600080fd5b8201601f8101841361417757600080fd5b611cf184823560208401613f9a565b60008060008060008060c0878903121561419f57600080fd5b86356141aa81613f0a565b955060208701356141ba81613f0a565b945060408701359350606087013567ffffffffffffffff808211156141de57600080fd5b6141ea8a838b01614010565b9450608089013591508082111561420057600080fd5b5061420d89828a01614010565b92505061421c60a08801614030565b90509295509295509295565b6000806040838503121561423b57600080fd5b823561424681613f0a565b9150602083013561425681613f0a565b809150509250929050565b60008060006060848603121561427657600080fd5b833561428181613f0a565b925060208401359150604084013561429881613f0a565b809150509250925092565b600181811c908216806142b757607f821691505b602082108114156142d857634e487b7160e01b600052602260045260246000fd5b50919050565b6000602082840312156142f057600080fd5b5051919050565b634e487b7160e01b600052601160045260246000fd5b60008261432a57634e487b7160e01b600052601260045260246000fd5b500490565b6020808252600a90820152691c994b595b9d195c995960b21b604082015260600190565b60006020828403121561436557600080fd5b81518015158114610eff57600080fd5b6000806040838503121561438857600080fd5b825161439381613f0a565b602084015190925061425681613f0a565b600082198211156143b7576143b76142f7565b500190565b6000828210156143ce576143ce6142f7565b500390565b60008160001904831182151516156143ed576143ed6142f7565b500290565b60006020828403121561440457600080fd5b8151610eff81613f0a565b6001600160a01b039390931683526020830191909152604082015260600190565b6001600160a01b039384168152919092166020820152604081019190915260600190565b6000806040838503121561446757600080fd5b50508051602090910151909290915056feddf252ad1be2c89b69c2b068fc378daa952ba7f163c4a11628f55a4df523b3efa2646970667358221220735977a57ccff3061ae57b11b9ea493747c09a48ac74fc8c89140a72b35580a464736f6c634300080a0033",
  "linkReferences": {},
  "deployedLinkReferences": {}
}