{
  "_format": "hh-sol-artifact-1",
  "contractName": "CErc20Delegate",
  "sourceName": "contracts/CErc20Delegate.sol",
  "abi": [
    {
      "inputs": [],
      "stateMutability": "nonpayable",
      "type": "constructor"
    },
    {
      "inputs": [],
      "name": "AcceptAdminPendingAdminCheck",
      "type": "error"
    },
    {
      "inputs": [
        {
          "internalType": "uint256",
          "name": "actualAddAmount",
          "type": "uint256"
        }
      ],
      "name": "AddReservesFactorFreshCheck",
      "type": "error"
    },
    {
      "inputs": [],
      "name": "BorrowCashNotAvailable",
      "type": "error"
    },
    {
      "inputs": [
        {
          "internalType": "uint256",
          "name": "errorCode",
          "type": "uint256"
        }
      ],
      "name": "BorrowComptrollerRejection",
      "type": "error"
    },
    {
      "inputs": [],
      "name": "BorrowFreshnessCheck",
      "type": "error"
    },
    {
      "inputs": [
        {
          "internalType": "uint256",
          "name": "errorCode",
          "type": "uint256"
        }
      ],
      "name": "LiquidateAccrueBorrowInterestFailed",
      "type": "error"
    },
    {
      "inputs": [
        {
          "internalType": "uint256",
          "name": "errorCode",
          "type": "uint256"
        }
      ],
      "name": "LiquidateAccrueCollateralInterestFailed",
      "type": "error"
    },
    {
      "inputs": [],
      "name": "LiquidateCloseAmountIsUintMax",
      "type": "error"
    },
    {
      "inputs": [],
      "name": "LiquidateCloseAmountIsZero",
      "type": "error"
    },
    {
      "inputs": [],
      "name": "LiquidateCollateralFreshnessCheck",
      "type": "error"
    },
    {
      "inputs": [
        {
          "internalType": "uint256",
          "name": "errorCode",
          "type": "uint256"
        }
      ],
      "name": "LiquidateComptrollerRejection",
      "type": "error"
    },
    {
      "inputs": [],
      "name": "LiquidateFreshnessCheck",
      "type": "error"
    },
    {
      "inputs": [],
      "name": "LiquidateLiquidatorIsBorrower",
      "type": "error"
    },
    {
      "inputs": [
        {
          "internalType": "uint256",
          "name": "errorCode",
          "type": "uint256"
        }
      ],
      "name": "LiquidateRepayBorrowFreshFailed",
      "type": "error"
    },
    {
      "inputs": [
        {
          "internalType": "uint256",
          "name": "errorCode",
          "type": "uint256"
        }
      ],
      "name": "LiquidateSeizeComptrollerRejection",
      "type": "error"
    },
    {
      "inputs": [],
      "name": "LiquidateSeizeLiquidatorIsBorrower",
      "type": "error"
    },
    {
      "inputs": [
        {
          "internalType": "uint256",
          "name": "errorCode",
          "type": "uint256"
        }
      ],
      "name": "MintComptrollerRejection",
      "type": "error"
    },
    {
      "inputs": [],
      "name": "MintFreshnessCheck",
      "type": "error"
    },
    {
      "inputs": [
        {
          "internalType": "uint256",
          "name": "errorCode",
          "type": "uint256"
        }
      ],
      "name": "RedeemComptrollerRejection",
      "type": "error"
    },
    {
      "inputs": [],
      "name": "RedeemFreshnessCheck",
      "type": "error"
    },
    {
      "inputs": [],
      "name": "RedeemTransferOutNotPossible",
      "type": "error"
    },
    {
      "inputs": [],
      "name": "ReduceReservesAdminCheck",
      "type": "error"
    },
    {
      "inputs": [],
      "name": "ReduceReservesCashNotAvailable",
      "type": "error"
    },
    {
      "inputs": [],
      "name": "ReduceReservesCashValidation",
      "type": "error"
    },
    {
      "inputs": [],
      "name": "ReduceReservesFreshCheck",
      "type": "error"
    },
    {
      "inputs": [
        {
          "internalType": "uint256",
          "name": "errorCode",
          "type": "uint256"
        }
      ],
      "name": "RepayBorrowComptrollerRejection",
      "type": "error"
    },
    {
      "inputs": [],
      "name": "RepayBorrowFreshnessCheck",
      "type": "error"
    },
    {
      "inputs": [],
      "name": "SetComptrollerOwnerCheck",
      "type": "error"
    },
    {
      "inputs": [],
      "name": "SetInterestRateModelFreshCheck",
      "type": "error"
    },
    {
      "inputs": [],
      "name": "SetInterestRateModelOwnerCheck",
      "type": "error"
    },
    {
      "inputs": [],
      "name": "SetPendingAdminOwnerCheck",
      "type": "error"
    },
    {
      "inputs": [],
      "name": "SetReserveFactorAdminCheck",
      "type": "error"
    },
    {
      "inputs": [],
      "name": "SetReserveFactorBoundsCheck",
      "type": "error"
    },
    {
      "inputs": [],
      "name": "SetReserveFactorFreshCheck",
      "type": "error"
    },
    {
      "inputs": [
        {
          "internalType": "uint256",
          "name": "errorCode",
          "type": "uint256"
        }
      ],
      "name": "TransferComptrollerRejection",
      "type": "error"
    },
    {
      "inputs": [],
      "name": "TransferNotAllowed",
      "type": "error"
    },
    {
      "inputs": [],
      "name": "TransferNotEnough",
      "type": "error"
    },
    {
      "inputs": [],
      "name": "TransferTooMuch",
      "type": "error"
    },
    {
      "anonymous": false,
      "inputs": [
        {
          "indexed": false,
          "internalType": "uint256",
          "name": "cashPrior",
          "type": "uint256"
        },
        {
          "indexed": false,
          "internalType": "uint256",
          "name": "interestAccumulated",
          "type": "uint256"
        },
        {
          "indexed": false,
          "internalType": "uint256",
          "name": "borrowIndex",
          "type": "uint256"
        },
        {
          "indexed": false,
          "internalType": "uint256",
          "name": "totalBorrows",
          "type": "uint256"
        }
      ],
      "name": "AccrueInterest",
      "type": "event"
    },
    {
      "anonymous": false,
      "inputs": [
        {
          "indexed": true,
          "internalType": "address",
          "name": "owner",
          "type": "address"
        },
        {
          "indexed": true,
          "internalType": "address",
          "name": "spender",
          "type": "address"
        },
        {
          "indexed": false,
          "internalType": "uint256",
          "name": "amount",
          "type": "uint256"
        }
      ],
      "name": "Approval",
      "type": "event"
    },
    {
      "anonymous": false,
      "inputs": [
        {
          "indexed": false,
          "internalType": "address",
          "name": "borrower",
          "type": "address"
        },
        {
          "indexed": false,
          "internalType": "uint256",
          "name": "borrowAmount",
          "type": "uint256"
        },
        {
          "indexed": false,
          "internalType": "uint256",
          "name": "accountBorrows",
          "type": "uint256"
        },
        {
          "indexed": false,
          "internalType": "uint256",
          "name": "totalBorrows",
          "type": "uint256"
        }
      ],
      "name": "Borrow",
      "type": "event"
    },
    {
      "anonymous": false,
      "inputs": [
        {
          "indexed": false,
          "internalType": "address",
          "name": "liquidator",
          "type": "address"
        },
        {
          "indexed": false,
          "internalType": "address",
          "name": "borrower",
          "type": "address"
        },
        {
          "indexed": false,
          "internalType": "uint256",
          "name": "repayAmount",
          "type": "uint256"
        },
        {
          "indexed": false,
          "internalType": "address",
          "name": "cTokenCollateral",
          "type": "address"
        },
        {
          "indexed": false,
          "internalType": "uint256",
          "name": "seizeTokens",
          "type": "uint256"
        }
      ],
      "name": "LiquidateBorrow",
      "type": "event"
    },
    {
      "anonymous": false,
      "inputs": [
        {
          "indexed": false,
          "internalType": "address",
          "name": "minter",
          "type": "address"
        },
        {
          "indexed": false,
          "internalType": "uint256",
          "name": "mintAmount",
          "type": "uint256"
        },
        {
          "indexed": false,
          "internalType": "uint256",
          "name": "mintTokens",
          "type": "uint256"
        }
      ],
      "name": "Mint",
      "type": "event"
    },
    {
      "anonymous": false,
      "inputs": [
        {
          "indexed": false,
          "internalType": "address",
          "name": "oldAdmin",
          "type": "address"
        },
        {
          "indexed": false,
          "internalType": "address",
          "name": "newAdmin",
          "type": "address"
        }
      ],
      "name": "NewAdmin",
      "type": "event"
    },
    {
      "anonymous": false,
      "inputs": [
        {
          "indexed": false,
          "internalType": "contract ComptrollerInterface",
          "name": "oldComptroller",
          "type": "address"
        },
        {
          "indexed": false,
          "internalType": "contract ComptrollerInterface",
          "name": "newComptroller",
          "type": "address"
        }
      ],
      "name": "NewComptroller",
      "type": "event"
    },
    {
      "anonymous": false,
      "inputs": [
        {
          "indexed": false,
          "internalType": "contract InterestRateModel",
          "name": "oldInterestRateModel",
          "type": "address"
        },
        {
          "indexed": false,
          "internalType": "contract InterestRateModel",
          "name": "newInterestRateModel",
          "type": "address"
        }
      ],
      "name": "NewMarketInterestRateModel",
      "type": "event"
    },
    {
      "anonymous": false,
      "inputs": [
        {
          "indexed": false,
          "internalType": "address",
          "name": "oldPendingAdmin",
          "type": "address"
        },
        {
          "indexed": false,
          "internalType": "address",
          "name": "newPendingAdmin",
          "type": "address"
        }
      ],
      "name": "NewPendingAdmin",
      "type": "event"
    },
    {
      "anonymous": false,
      "inputs": [
        {
          "indexed": false,
          "internalType": "uint256",
          "name": "oldReserveFactorMantissa",
          "type": "uint256"
        },
        {
          "indexed": false,
          "internalType": "uint256",
          "name": "newReserveFactorMantissa",
          "type": "uint256"
        }
      ],
      "name": "NewReserveFactor",
      "type": "event"
    },
    {
      "anonymous": false,
      "inputs": [
        {
          "indexed": false,
          "internalType": "address",
          "name": "redeemer",
          "type": "address"
        },
        {
          "indexed": false,
          "internalType": "uint256",
          "name": "redeemAmount",
          "type": "uint256"
        },
        {
          "indexed": false,
          "internalType": "uint256",
          "name": "redeemTokens",
          "type": "uint256"
        }
      ],
      "name": "Redeem",
      "type": "event"
    },
    {
      "anonymous": false,
      "inputs": [
        {
          "indexed": false,
          "internalType": "address",
          "name": "payer",
          "type": "address"
        },
        {
          "indexed": false,
          "internalType": "address",
          "name": "borrower",
          "type": "address"
        },
        {
          "indexed": false,
          "internalType": "uint256",
          "name": "repayAmount",
          "type": "uint256"
        },
        {
          "indexed": false,
          "internalType": "uint256",
          "name": "accountBorrows",
          "type": "uint256"
        },
        {
          "indexed": false,
          "internalType": "uint256",
          "name": "totalBorrows",
          "type": "uint256"
        }
      ],
      "name": "RepayBorrow",
      "type": "event"
    },
    {
      "anonymous": false,
      "inputs": [
        {
          "indexed": false,
          "internalType": "address",
          "name": "benefactor",
          "type": "address"
        },
        {
          "indexed": false,
          "internalType": "uint256",
          "name": "addAmount",
          "type": "uint256"
        },
        {
          "indexed": false,
          "internalType": "uint256",
          "name": "newTotalReserves",
          "type": "uint256"
        }
      ],
      "name": "ReservesAdded",
      "type": "event"
    },
    {
      "anonymous": false,
      "inputs": [
        {
          "indexed": false,
          "internalType": "address",
          "name": "admin",
          "type": "address"
        },
        {
          "indexed": false,
          "internalType": "uint256",
          "name": "reduceAmount",
          "type": "uint256"
        },
        {
          "indexed": false,
          "internalType": "uint256",
          "name": "newTotalReserves",
          "type": "uint256"
        }
      ],
      "name": "ReservesReduced",
      "type": "event"
    },
    {
      "anonymous": false,
      "inputs": [
        {
          "indexed": true,
          "internalType": "address",
          "name": "from",
          "type": "address"
        },
        {
          "indexed": true,
          "internalType": "address",
          "name": "to",
          "type": "address"
        },
        {
          "indexed": false,
          "internalType": "uint256",
          "name": "amount",
          "type": "uint256"
        }
      ],
      "name": "Transfer",
      "type": "event"
    },
    {
      "inputs": [],
      "name": "NO_ERROR",
      "outputs": [
        {
          "internalType": "uint256",
          "name": "",
          "type": "uint256"
        }
      ],
      "stateMutability": "view",
      "type": "function"
    },
    {
      "inputs": [],
      "name": "_acceptAdmin",
      "outputs": [
        {
          "internalType": "uint256",
          "name": "",
          "type": "uint256"
        }
      ],
      "stateMutability": "nonpayable",
      "type": "function"
    },
    {
      "inputs": [
        {
          "internalType": "uint256",
          "name": "addAmount",
          "type": "uint256"
        }
      ],
      "name": "_addReserves",
      "outputs": [
        {
          "internalType": "uint256",
          "name": "",
          "type": "uint256"
        }
      ],
      "stateMutability": "nonpayable",
      "type": "function"
    },
    {
      "inputs": [
        {
          "internalType": "bytes",
          "name": "data",
          "type": "bytes"
        }
      ],
      "name": "_becomeImplementation",
      "outputs": [],
      "stateMutability": "nonpayable",
      "type": "function"
    },
    {
      "inputs": [
        {
          "internalType": "address",
          "name": "compLikeDelegatee",
          "type": "address"
        }
      ],
      "name": "_delegateCompLikeTo",
      "outputs": [],
      "stateMutability": "nonpayable",
      "type": "function"
    },
    {
      "inputs": [
        {
          "internalType": "uint256",
          "name": "reduceAmount",
          "type": "uint256"
        }
      ],
      "name": "_reduceReserves",
      "outputs": [
        {
          "internalType": "uint256",
          "name": "",
          "type": "uint256"
        }
      ],
      "stateMutability": "nonpayable",
      "type": "function"
    },
    {
      "inputs": [],
      "name": "_resignImplementation",
      "outputs": [],
      "stateMutability": "nonpayable",
      "type": "function"
    },
    {
      "inputs": [
        {
          "internalType": "contract ComptrollerInterface",
          "name": "newComptroller",
          "type": "address"
        }
      ],
      "name": "_setComptroller",
      "outputs": [
        {
          "internalType": "uint256",
          "name": "",
          "type": "uint256"
        }
      ],
      "stateMutability": "nonpayable",
      "type": "function"
    },
    {
      "inputs": [
        {
          "internalType": "contract InterestRateModel",
          "name": "newInterestRateModel",
          "type": "address"
        }
      ],
      "name": "_setInterestRateModel",
      "outputs": [
        {
          "internalType": "uint256",
          "name": "",
          "type": "uint256"
        }
      ],
      "stateMutability": "nonpayable",
      "type": "function"
    },
    {
      "inputs": [
        {
          "internalType": "address payable",
          "name": "newPendingAdmin",
          "type": "address"
        }
      ],
      "name": "_setPendingAdmin",
      "outputs": [
        {
          "internalType": "uint256",
          "name": "",
          "type": "uint256"
        }
      ],
      "stateMutability": "nonpayable",
      "type": "function"
    },
    {
      "inputs": [
        {
          "internalType": "uint256",
          "name": "newReserveFactorMantissa",
          "type": "uint256"
        }
      ],
      "name": "_setReserveFactor",
      "outputs": [
        {
          "internalType": "uint256",
          "name": "",
          "type": "uint256"
        }
      ],
      "stateMutability": "nonpayable",
      "type": "function"
    },
    {
      "inputs": [],
      "name": "accrualBlockNumber",
      "outputs": [
        {
          "internalType": "uint256",
          "name": "",
          "type": "uint256"
        }
      ],
      "stateMutability": "view",
      "type": "function"
    },
    {
      "inputs": [],
      "name": "accrueInterest",
      "outputs": [
        {
          "internalType": "uint256",
          "name": "",
          "type": "uint256"
        }
      ],
      "stateMutability": "nonpayable",
      "type": "function"
    },
    {
      "inputs": [],
      "name": "admin",
      "outputs": [
        {
          "internalType": "address payable",
          "name": "",
          "type": "address"
        }
      ],
      "stateMutability": "view",
      "type": "function"
    },
    {
      "inputs": [
        {
          "internalType": "address",
          "name": "owner",
          "type": "address"
        },
        {
          "internalType": "address",
          "name": "spender",
          "type": "address"
        }
      ],
      "name": "allowance",
      "outputs": [
        {
          "internalType": "uint256",
          "name": "",
          "type": "uint256"
        }
      ],
      "stateMutability": "view",
      "type": "function"
    },
    {
      "inputs": [
        {
          "internalType": "address",
          "name": "spender",
          "type": "address"
        },
        {
          "internalType": "uint256",
          "name": "amount",
          "type": "uint256"
        }
      ],
      "name": "approve",
      "outputs": [
        {
          "internalType": "bool",
          "name": "",
          "type": "bool"
        }
      ],
      "stateMutability": "nonpayable",
      "type": "function"
    },
    {
      "inputs": [
        {
          "internalType": "address",
          "name": "owner",
          "type": "address"
        }
      ],
      "name": "balanceOf",
      "outputs": [
        {
          "internalType": "uint256",
          "name": "",
          "type": "uint256"
        }
      ],
      "stateMutability": "view",
      "type": "function"
    },
    {
      "inputs": [
        {
          "internalType": "address",
          "name": "owner",
          "type": "address"
        }
      ],
      "name": "balanceOfUnderlying",
      "outputs": [
        {
          "internalType": "uint256",
          "name": "",
          "type": "uint256"
        }
      ],
      "stateMutability": "nonpayable",
      "type": "function"
    },
    {
      "inputs": [
        {
          "internalType": "uint256",
          "name": "borrowAmount",
          "type": "uint256"
        }
      ],
      "name": "borrow",
      "outputs": [
        {
          "internalType": "uint256",
          "name": "",
          "type": "uint256"
        }
      ],
      "stateMutability": "nonpayable",
      "type": "function"
    },
    {
      "inputs": [
        {
          "internalType": "address",
          "name": "account",
          "type": "address"
        }
      ],
      "name": "borrowBalanceCurrent",
      "outputs": [
        {
          "internalType": "uint256",
          "name": "",
          "type": "uint256"
        }
      ],
      "stateMutability": "nonpayable",
      "type": "function"
    },
    {
      "inputs": [
        {
          "internalType": "address",
          "name": "account",
          "type": "address"
        }
      ],
      "name": "borrowBalanceStored",
      "outputs": [
        {
          "internalType": "uint256",
          "name": "",
          "type": "uint256"
        }
      ],
      "stateMutability": "view",
      "type": "function"
    },
    {
      "inputs": [],
      "name": "borrowIndex",
      "outputs": [
        {
          "internalType": "uint256",
          "name": "",
          "type": "uint256"
        }
      ],
      "stateMutability": "view",
      "type": "function"
    },
    {
      "inputs": [],
      "name": "borrowRatePerBlock",
      "outputs": [
        {
          "internalType": "uint256",
          "name": "",
          "type": "uint256"
        }
      ],
      "stateMutability": "view",
      "type": "function"
    },
    {
      "inputs": [],
      "name": "comptroller",
      "outputs": [
        {
          "internalType": "contract ComptrollerInterface",
          "name": "",
          "type": "address"
        }
      ],
      "stateMutability": "view",
      "type": "function"
    },
    {
      "inputs": [],
      "name": "decimals",
      "outputs": [
        {
          "internalType": "uint8",
          "name": "",
          "type": "uint8"
        }
      ],
      "stateMutability": "view",
      "type": "function"
    },
    {
      "inputs": [],
      "name": "exchangeRateCurrent",
      "outputs": [
        {
          "internalType": "uint256",
          "name": "",
          "type": "uint256"
        }
      ],
      "stateMutability": "nonpayable",
      "type": "function"
    },
    {
      "inputs": [],
      "name": "exchangeRateStored",
      "outputs": [
        {
          "internalType": "uint256",
          "name": "",
          "type": "uint256"
        }
      ],
      "stateMutability": "view",
      "type": "function"
    },
    {
      "inputs": [
        {
          "internalType": "address",
          "name": "account",
          "type": "address"
        }
      ],
      "name": "getAccountSnapshot",
      "outputs": [
        {
          "internalType": "uint256",
          "name": "",
          "type": "uint256"
        },
        {
          "internalType": "uint256",
          "name": "",
          "type": "uint256"
        },
        {
          "internalType": "uint256",
          "name": "",
          "type": "uint256"
        },
        {
          "internalType": "uint256",
          "name": "",
          "type": "uint256"
        }
      ],
      "stateMutability": "view",
      "type": "function"
    },
    {
      "inputs": [],
      "name": "getCash",
      "outputs": [
        {
          "internalType": "uint256",
          "name": "",
          "type": "uint256"
        }
      ],
      "stateMutability": "view",
      "type": "function"
    },
    {
      "inputs": [],
      "name": "implementation",
      "outputs": [
        {
          "internalType": "address",
          "name": "",
          "type": "address"
        }
      ],
      "stateMutability": "view",
      "type": "function"
    },
    {
      "inputs": [
        {
          "internalType": "address",
          "name": "underlying_",
          "type": "address"
        },
        {
          "internalType": "contract ComptrollerInterface",
          "name": "comptroller_",
          "type": "address"
        },
        {
          "internalType": "contract InterestRateModel",
          "name": "interestRateModel_",
          "type": "address"
        },
        {
          "internalType": "uint256",
          "name": "initialExchangeRateMantissa_",
          "type": "uint256"
        },
        {
          "internalType": "string",
          "name": "name_",
          "type": "string"
        },
        {
          "internalType": "string",
          "name": "symbol_",
          "type": "string"
        },
        {
          "internalType": "uint8",
          "name": "decimals_",
          "type": "uint8"
        }
      ],
      "name": "initialize",
      "outputs": [],
      "stateMutability": "nonpayable",
      "type": "function"
    },
    {
      "inputs": [
        {
          "internalType": "contract ComptrollerInterface",
          "name": "comptroller_",
          "type": "address"
        },
        {
          "internalType": "contract InterestRateModel",
          "name": "interestRateModel_",
          "type": "address"
        },
        {
          "internalType": "uint256",
          "name": "initialExchangeRateMantissa_",
          "type": "uint256"
        },
        {
          "internalType": "string",
          "name": "name_",
          "type": "string"
        },
        {
          "internalType": "string",
          "name": "symbol_",
          "type": "string"
        },
        {
          "internalType": "uint8",
          "name": "decimals_",
          "type": "uint8"
        }
      ],
      "name": "initialize",
      "outputs": [],
      "stateMutability": "nonpayable",
      "type": "function"
    },
    {
      "inputs": [],
      "name": "interestRateModel",
      "outputs": [
        {
          "internalType": "contract InterestRateModel",
          "name": "",
          "type": "address"
        }
      ],
      "stateMutability": "view",
      "type": "function"
    },
    {
      "inputs": [],
      "name": "isCToken",
      "outputs": [
        {
          "internalType": "bool",
          "name": "",
          "type": "bool"
        }
      ],
      "stateMutability": "view",
      "type": "function"
    },
    {
      "inputs": [
        {
          "internalType": "address",
          "name": "borrower",
          "type": "address"
        },
        {
          "internalType": "uint256",
          "name": "repayAmount",
          "type": "uint256"
        },
        {
          "internalType": "contract CTokenInterface",
          "name": "cTokenCollateral",
          "type": "address"
        }
      ],
      "name": "liquidateBorrow",
      "outputs": [
        {
          "internalType": "uint256",
          "name": "",
          "type": "uint256"
        }
      ],
      "stateMutability": "nonpayable",
      "type": "function"
    },
    {
      "inputs": [
        {
          "internalType": "uint256",
          "name": "mintAmount",
          "type": "uint256"
        }
      ],
      "name": "mint",
      "outputs": [
        {
          "internalType": "uint256",
          "name": "",
          "type": "uint256"
        }
      ],
      "stateMutability": "nonpayable",
      "type": "function"
    },
    {
      "inputs": [],
      "name": "name",
      "outputs": [
        {
          "internalType": "string",
          "name": "",
          "type": "string"
        }
      ],
      "stateMutability": "view",
      "type": "function"
    },
    {
      "inputs": [],
      "name": "pendingAdmin",
      "outputs": [
        {
          "internalType": "address payable",
          "name": "",
          "type": "address"
        }
      ],
      "stateMutability": "view",
      "type": "function"
    },
    {
      "inputs": [],
      "name": "protocolSeizeShareMantissa",
      "outputs": [
        {
          "internalType": "uint256",
          "name": "",
          "type": "uint256"
        }
      ],
      "stateMutability": "view",
      "type": "function"
    },
    {
      "inputs": [
        {
          "internalType": "uint256",
          "name": "redeemTokens",
          "type": "uint256"
        }
      ],
      "name": "redeem",
      "outputs": [
        {
          "internalType": "uint256",
          "name": "",
          "type": "uint256"
        }
      ],
      "stateMutability": "nonpayable",
      "type": "function"
    },
    {
      "inputs": [
        {
          "internalType": "uint256",
          "name": "redeemAmount",
          "type": "uint256"
        }
      ],
      "name": "redeemUnderlying",
      "outputs": [
        {
          "internalType": "uint256",
          "name": "",
          "type": "uint256"
        }
      ],
      "stateMutability": "nonpayable",
      "type": "function"
    },
    {
      "inputs": [
        {
          "internalType": "uint256",
          "name": "repayAmount",
          "type": "uint256"
        }
      ],
      "name": "repayBorrow",
      "outputs": [
        {
          "internalType": "uint256",
          "name": "",
          "type": "uint256"
        }
      ],
      "stateMutability": "nonpayable",
      "type": "function"
    },
    {
      "inputs": [
        {
          "internalType": "address",
          "name": "borrower",
          "type": "address"
        },
        {
          "internalType": "uint256",
          "name": "repayAmount",
          "type": "uint256"
        }
      ],
      "name": "repayBorrowBehalf",
      "outputs": [
        {
          "internalType": "uint256",
          "name": "",
          "type": "uint256"
        }
      ],
      "stateMutability": "nonpayable",
      "type": "function"
    },
    {
      "inputs": [],
      "name": "reserveFactorMantissa",
      "outputs": [
        {
          "internalType": "uint256",
          "name": "",
          "type": "uint256"
        }
      ],
      "stateMutability": "view",
      "type": "function"
    },
    {
      "inputs": [
        {
          "internalType": "address",
          "name": "liquidator",
          "type": "address"
        },
        {
          "internalType": "address",
          "name": "borrower",
          "type": "address"
        },
        {
          "internalType": "uint256",
          "name": "seizeTokens",
          "type": "uint256"
        }
      ],
      "name": "seize",
      "outputs": [
        {
          "internalType": "uint256",
          "name": "",
          "type": "uint256"
        }
      ],
      "stateMutability": "nonpayable",
      "type": "function"
    },
    {
      "inputs": [],
      "name": "supplyRatePerBlock",
      "outputs": [
        {
          "internalType": "uint256",
          "name": "",
          "type": "uint256"
        }
      ],
      "stateMutability": "view",
      "type": "function"
    },
    {
      "inputs": [
        {
          "internalType": "contract EIP20NonStandardInterface",
          "name": "token",
          "type": "address"
        }
      ],
      "name": "sweepToken",
      "outputs": [],
      "stateMutability": "nonpayable",
      "type": "function"
    },
    {
      "inputs": [],
      "name": "symbol",
      "outputs": [
        {
          "internalType": "string",
          "name": "",
          "type": "string"
        }
      ],
      "stateMutability": "view",
      "type": "function"
    },
    {
      "inputs": [],
      "name": "totalBorrows",
      "outputs": [
        {
          "internalType": "uint256",
          "name": "",
          "type": "uint256"
        }
      ],
      "stateMutability": "view",
      "type": "function"
    },
    {
      "inputs": [],
      "name": "totalBorrowsCurrent",
      "outputs": [
        {
          "internalType": "uint256",
          "name": "",
          "type": "uint256"
        }
      ],
      "stateMutability": "nonpayable",
      "type": "function"
    },
    {
      "inputs": [],
      "name": "totalReserves",
      "outputs": [
        {
          "internalType": "uint256",
          "name": "",
          "type": "uint256"
        }
      ],
      "stateMutability": "view",
      "type": "function"
    },
    {
      "inputs": [],
      "name": "totalSupply",
      "outputs": [
        {
          "internalType": "uint256",
          "name": "",
          "type": "uint256"
        }
      ],
      "stateMutability": "view",
      "type": "function"
    },
    {
      "inputs": [
        {
          "internalType": "address",
          "name": "dst",
          "type": "address"
        },
        {
          "internalType": "uint256",
          "name": "amount",
          "type": "uint256"
        }
      ],
      "name": "transfer",
      "outputs": [
        {
          "internalType": "bool",
          "name": "",
          "type": "bool"
        }
      ],
      "stateMutability": "nonpayable",
      "type": "function"
    },
    {
      "inputs": [
        {
          "internalType": "address",
          "name": "src",
          "type": "address"
        },
        {
          "internalType": "address",
          "name": "dst",
          "type": "address"
        },
        {
          "internalType": "uint256",
          "name": "amount",
          "type": "uint256"
        }
      ],
      "name": "transferFrom",
      "outputs": [
        {
          "internalType": "bool",
          "name": "",
          "type": "bool"
        }
      ],
      "stateMutability": "nonpayable",
      "type": "function"
    },
    {
      "inputs": [],
      "name": "underlying",
      "outputs": [
        {
          "internalType": "address",
          "name": "",
          "type": "address"
        }
      ],
      "stateMutability": "view",
      "type": "function"
    }
  ],
  "bytecode": "0x608060405234801561001057600080fd5b50613b77806100206000396000f3fe608060405234801561001057600080fd5b506004361061035d5760003560e01c806370a08231116101d3578063b71d1a0c11610104578063f2b3abbd116100a2578063f851a4401161007c578063f851a44014610727578063f8f9da281461073f578063fca7820b14610747578063fe9c44ae1461075a57600080fd5b8063f2b3abbd146106ee578063f3fdb15a14610701578063f5e3c4621461071457600080fd5b8063c5ebeaec116100de578063c5ebeaec14610687578063db006a751461069a578063dd62ed3e146106ad578063e9c714f2146106e657600080fd5b8063b71d1a0c14610639578063bd6d894d1461064c578063c37f68e21461065457600080fd5b806399d8c1b411610171578063a9059cbb1161014b578063a9059cbb14610602578063aa5af0fd14610615578063ae9d70b01461061e578063b2a02ff11461062657600080fd5b806399d8c1b4146105d4578063a0712d68146105e7578063a6afed95146105fa57600080fd5b8063852a12e3116101ad578063852a12e31461059d5780638f840ddd146105b057806395d89b41146105b957806395dd9193146105c157600080fd5b806370a082311461055957806373acee98146105825780637f1e06be1461058a57600080fd5b8063313ce567116102ad5780635c60da1b1161024b5780636752e702116102255780636752e7021461052757806369ab3250146105355780636c540baf1461053d5780636f307dc31461054657600080fd5b80635c60da1b146104ee5780635fe3b56714610501578063601a0bf11461051457600080fd5b80633e941010116102875780633e941010146104ac5780634576b5db146104bf57806347bd3718146104d257806356e67728146104db57600080fd5b8063313ce567146104725780633af9e669146104915780633b1d21a2146104a457600080fd5b806318160ddd1161031a5780631be19560116102f45780631be195601461040e57806323b872dd146104215780632608f81814610434578063267822471461044757600080fd5b806318160ddd146103ea578063182df0f5146103f35780631a31d465146103fb57600080fd5b806306fdde0314610362578063095ea7b3146103805780630e752702146103a3578063153ab505146103c4578063173b9904146103ce57806317bfdfbc146103d7575b600080fd5b61036a610762565b60405161037791906135ad565b60405180910390f35b61039361038e366004613617565b6107f0565b6040519015158152602001610377565b6103b66103b1366004613643565b61085e565b604051908152602001610377565b6103cc610871565b005b6103b660085481565b6103b66103e536600461365c565b6108ed565b6103b6600d5481565b6103b6610940565b6103cc61040936600461373b565b61094f565b6103cc61041c36600461365c565b6109e4565b61039361042f3660046137f1565b610bb0565b6103b6610442366004613617565b610c00565b60045461045a906001600160a01b031681565b6040516001600160a01b039091168152602001610377565b60035461047f9060ff1681565b60405160ff9091168152602001610377565b6103b661049f36600461365c565b610c15565b6103b6610c5b565b6103b66104ba366004613643565b610c65565b6103b66104cd36600461365c565b610c76565b6103b6600b5481565b6103cc6104e9366004613832565b610dc8565b60125461045a906001600160a01b031681565b60055461045a906001600160a01b031681565b6103b6610522366004613643565b610e40565b6103b6666379da05b6000081565b6103b6600081565b6103b660095481565b60115461045a906001600160a01b031681565b6103b661056736600461365c565b6001600160a01b03166000908152600e602052604090205490565b6103b6610e7f565b6103cc61059836600461365c565b610ec9565b6103b66105ab366004613643565b610fa0565b6103b6600c5481565b61036a610fab565b6103b66105cf36600461365c565b610fb8565b6103cc6105e236600461387b565b610fc3565b6103b66105f5366004613643565b61121e565b6103b6611229565b610393610610366004613617565b611417565b6103b6600a5481565b6103b6611466565b6103b66106343660046137f1565b6114fe565b6103b661064736600461365c565b61154d565b6103b66115da565b61066761066236600461365c565b61162a565b604080519485526020850193909352918301526060820152608001610377565b6103b6610695366004613643565b61166b565b6103b66106a8366004613643565b611676565b6103b66106bb36600461391d565b6001600160a01b039182166000908152600f6020908152604080832093909416825291909152205490565b6103b6611681565b6103b66106fc36600461365c565b611788565b60065461045a906001600160a01b031681565b6103b6610722366004613956565b61179c565b60035461045a9061010090046001600160a01b031681565b6103b66117b3565b6103b6610755366004613643565b611806565b610393600181565b6001805461076f90613998565b80601f016020809104026020016040519081016040528092919081815260200182805461079b90613998565b80156107e85780601f106107bd576101008083540402835291602001916107e8565b820191906000526020600020905b8154815290600101906020018083116107cb57829003601f168201915b505050505081565b336000818152600f602090815260408083206001600160a01b03871680855292528083208590555191929182907f8c5be1e5ebec7d5bd14f71427d1e84f3dd0314c0f7b2291e5b200ac8c7c3b9259061084c9087815260200190565b60405180910390a35060019392505050565b600061086982611845565b506000919050565b60035461010090046001600160a01b031633146108eb5760405162461bcd60e51b815260206004820152602d60248201527f6f6e6c79207468652061646d696e206d61792063616c6c205f72657369676e4960448201526c36b83632b6b2b73a30ba34b7b760991b60648201526084015b60405180910390fd5b565b6000805460ff166109105760405162461bcd60e51b81526004016108e2906139d3565b6000805460ff19169055610922611229565b5061092c82610fb8565b90506000805460ff19166001179055919050565b600061094a611896565b905090565b61095d868686868686610fc3565b601180546001600160a01b0319166001600160a01b038916908117909155604080516318160ddd60e01b815290516318160ddd916004808201926020929091908290030181865afa1580156109b6573d6000803e3d6000fd5b505050506040513d601f19601f820116820180604052508101906109da91906139f7565b5050505050505050565b60035461010090046001600160a01b03163314610a5b5760405162461bcd60e51b815260206004820152602f60248201527f4345726332303a3a7377656570546f6b656e3a206f6e6c792061646d696e206360448201526e616e20737765657020746f6b656e7360881b60648201526084016108e2565b6011546001600160a01b0382811691161415610ad45760405162461bcd60e51b815260206004820152603260248201527f4345726332303a3a7377656570546f6b656e3a2063616e206e6f74207377656560448201527138103ab73232b9363cb4b733903a37b5b2b760711b60648201526084016108e2565b6040516370a0823160e01b81523060048201526000906001600160a01b038316906370a0823190602401602060405180830381865afa158015610b1b573d6000803e3d6000fd5b505050506040513d601f19601f82011682018060405250810190610b3f91906139f7565b60035460405163a9059cbb60e01b81526001600160a01b03610100909204821660048201526024810183905291925083169063a9059cbb90604401600060405180830381600087803b158015610b9457600080fd5b505af1158015610ba8573d6000803e3d6000fd5b505050505050565b6000805460ff16610bd35760405162461bcd60e51b81526004016108e2906139d3565b6000805460ff19168155610be933868686611900565b1490506000805460ff191660011790559392505050565b6000610c0c8383611b2e565b50600092915050565b6000806040518060200160405280610c2b6115da565b90526001600160a01b0384166000908152600e6020526040902054909150610c54908290611b80565b9392505050565b600061094a611ba0565b6000610c7082611c15565b92915050565b60035460009061010090046001600160a01b03163314610ca95760405163d219dc1f60e01b815260040160405180910390fd5b60055460408051623f1ee960e11b815290516001600160a01b0392831692851691627e3dd29160048083019260209291908290030181865afa158015610cf3573d6000803e3d6000fd5b505050506040513d601f19601f82011682018060405250810190610d179190613a10565b610d635760405162461bcd60e51b815260206004820152601c60248201527f6d61726b6572206d6574686f642072657475726e65642066616c73650000000060448201526064016108e2565b600580546001600160a01b0319166001600160a01b0385811691821790925560408051928416835260208301919091527f7ac369dbd14fa5ea3f473ed67cc9d598964a77501540ba6751eb0b3decf5870d91015b60405180910390a150600092915050565b60035461010090046001600160a01b03163314610e3d5760405162461bcd60e51b815260206004820152602d60248201527f6f6e6c79207468652061646d696e206d61792063616c6c205f6265636f6d654960448201526c36b83632b6b2b73a30ba34b7b760991b60648201526084016108e2565b50565b6000805460ff16610e635760405162461bcd60e51b81526004016108e2906139d3565b6000805460ff19169055610e75611229565b5061092c82611c6c565b6000805460ff16610ea25760405162461bcd60e51b81526004016108e2906139d3565b6000805460ff19169055610eb4611229565b5050600b546000805460ff1916600117905590565b60035461010090046001600160a01b03163314610f3e5760405162461bcd60e51b815260206004820152602d60248201527f6f6e6c79207468652061646d696e206d6179207365742074686520636f6d702d60448201526c6c696b652064656c656761746560981b60648201526084016108e2565b6011546040516317066a5760e21b81526001600160a01b03838116600483015290911690635c19a95c90602401600060405180830381600087803b158015610f8557600080fd5b505af1158015610f99573d6000803e3d6000fd5b5050505050565b600061086982611d87565b6002805461076f90613998565b6000610c7082611dd8565b60035461010090046001600160a01b0316331461102e5760405162461bcd60e51b8152602060048201526024808201527f6f6e6c792061646d696e206d617920696e697469616c697a6520746865206d616044820152631c9ad95d60e21b60648201526084016108e2565b60095415801561103e5750600a54155b6110965760405162461bcd60e51b815260206004820152602360248201527f6d61726b6574206d6179206f6e6c7920626520696e697469616c697a6564206f6044820152626e636560e81b60648201526084016108e2565b6007849055836111015760405162461bcd60e51b815260206004820152603060248201527f696e697469616c2065786368616e67652072617465206d75737420626520677260448201526f32b0ba32b9103a3430b7103d32b9379760811b60648201526084016108e2565b600061110c87610c76565b9050801561115c5760405162461bcd60e51b815260206004820152601a60248201527f73657474696e6720636f6d7074726f6c6c6572206661696c656400000000000060448201526064016108e2565b43600955670de0b6b3a7640000600a5561117586611e22565b905080156111d05760405162461bcd60e51b815260206004820152602260248201527f73657474696e6720696e7465726573742072617465206d6f64656c206661696c604482015261195960f21b60648201526084016108e2565b83516111e390600190602087019061351d565b5082516111f790600290602086019061351d565b50506003805460ff90921660ff199283161790556000805490911660011790555050505050565b600061086982611f97565b6009546000904390808214156112425760009250505090565b600061124c611ba0565b600b54600c54600a546006546040516315f2405360e01b81526004810186905260248101859052604481018490529495509293919290916000916001600160a01b0316906315f2405390606401602060405180830381865afa1580156112b6573d6000803e3d6000fd5b505050506040513d601f19601f820116820180604052508101906112da91906139f7565b905065048c273950008111156113325760405162461bcd60e51b815260206004820152601c60248201527f626f72726f772072617465206973206162737572646c7920686967680000000060448201526064016108e2565b600061133e8789613a48565b9050600061135a60405180602001604052808581525083611fd6565b905060006113688288611b80565b905060006113768883613a5f565b905060006113956040518060200160405280600854815250848a612007565b905060006113a485898a612007565b60098e9055600a819055600b849055600c839055604080518d815260208101879052908101829052606081018590529091507f4dec04e750ca11537cabcd8a9eab06494de08da3735bc8871cd41250e190bc049060800160405180910390a160009d505050505050505050505050505090565b6000805460ff1661143a5760405162461bcd60e51b81526004016108e2906139d3565b6000805460ff1916815561145033808686611900565b1490506000805460ff1916600117905592915050565b6006546000906001600160a01b031663b8168816611482611ba0565b600b54600c546008546040516001600160e01b031960e087901b16815260048101949094526024840192909252604483015260648201526084015b602060405180830381865afa1580156114da573d6000803e3d6000fd5b505050506040513d601f19601f8201168201806040525081019061094a91906139f7565b6000805460ff166115215760405162461bcd60e51b81526004016108e2906139d3565b6000805460ff1916905561153733858585612028565b50600080805460ff191660011790559392505050565b60035460009061010090046001600160a01b0316331461158057604051635cb56c2b60e01b815260040160405180910390fd5b600480546001600160a01b038481166001600160a01b031983168117909355604080519190921680825260208201939093527fca4f2f25d0898edd99413412fb94012f9e54ec8142f9b093e7720646a95b16a99101610db7565b6000805460ff166115fd5760405162461bcd60e51b81526004016108e2906139d3565b6000805460ff1916905561160f611229565b50611618610940565b90506000805460ff1916600117905590565b6001600160a01b0381166000908152600e6020526040812054819081908190819061165487611dd8565b61165c611896565b93509350935093509193509193565b6000610869826122a1565b6000610869826122e0565b6004546000906001600160a01b03163314158061169c575033155b156116ba57604051631ba24f2960e21b815260040160405180910390fd5b60038054600480546001600160a01b03808216610100818102610100600160a81b0319871617968790556001600160a01b031990931690935560408051948390048216808652929095041660208401529290917ff9ffabca9c8276e99321725bcb43fb076a6c66a54b7f21c4e8146d8519b417dc910160405180910390a1600454604080516001600160a01b03808516825290921660208301527fca4f2f25d0898edd99413412fb94012f9e54ec8142f9b093e7720646a95b16a9910160405180910390a160009250505090565b6000611792611229565b50610c7082611e22565b60006117a9848484612321565b5060009392505050565b6006546000906001600160a01b03166315f240536117cf611ba0565b600b54600c546040516001600160e01b031960e086901b1681526004810193909352602483019190915260448201526064016114bd565b6000805460ff166118295760405162461bcd60e51b81526004016108e2906139d3565b6000805460ff1916905561183b611229565b5061092c826123ff565b60005460ff166118675760405162461bcd60e51b81526004016108e2906139d3565b6000805460ff19169055611879611229565b506118853333836124bb565b50506000805460ff19166001179055565b600d54600090806118a957505060075490565b60006118b3611ba0565b90506000600c54600b54836118c89190613a5f565b6118d29190613a48565b90506000836118e9670de0b6b3a764000084613a77565b6118f39190613a96565b95945050505050565b5090565b6005546040516317b9b84b60e31b81523060048201526001600160a01b038581166024830152848116604483015260648201849052600092839291169063bdcdc258906084016020604051808303816000875af1158015611965573d6000803e3d6000fd5b505050506040513d601f19601f8201168201806040525081019061198991906139f7565b905080156119ad5760405163089d427760e11b8152600481018290526024016108e2565b836001600160a01b0316856001600160a01b031614156119e057604051638cd22d1960e01b815260040160405180910390fd5b6000856001600160a01b0316876001600160a01b03161415611a055750600019611a2d565b506001600160a01b038086166000908152600f60209081526040808320938a16835292905220545b6000611a398583613a48565b6001600160a01b0388166000908152600e602052604081205491925090611a61908790613a48565b6001600160a01b0388166000908152600e602052604081205491925090611a89908890613a5f565b6001600160a01b03808b166000908152600e6020526040808220869055918b1681522081905590506000198414611ae3576001600160a01b03808a166000908152600f60209081526040808320938e168352929052208390555b876001600160a01b0316896001600160a01b0316600080516020613b2283398151915289604051611b1691815260200190565b60405180910390a35060009998505050505050505050565b60005460ff16611b505760405162461bcd60e51b81526004016108e2906139d3565b6000805460ff19169055611b62611229565b50611b6e3383836124bb565b50506000805460ff1916600117905550565b600080611b8d8484611fd6565b9050611b9881612664565b949350505050565b6011546040516370a0823160e01b81523060048201526000916001600160a01b03169081906370a0823190602401602060405180830381865afa158015611beb573d6000803e3d6000fd5b505050506040513d601f19601f82011682018060405250810190611c0f91906139f7565b91505090565b6000805460ff16611c385760405162461bcd60e51b81526004016108e2906139d3565b6000805460ff19169055611c4a611229565b50611c548261267c565b5050600090506000805460ff19166001179055919050565b600354600090819061010090046001600160a01b03163314611ca157604051630f7e5e6d60e41b815260040160405180910390fd5b4360095414611cc357604051630dff50cb60e41b815260040160405180910390fd5b82611ccc611ba0565b1015611ceb57604051633345e99960e01b815260040160405180910390fd5b600c54831115611d0e576040516378d2980560e11b815260040160405180910390fd5b82600c54611d1c9190613a48565b600c819055600354909150611d3f9061010090046001600160a01b031684612710565b7f3bad0c59cf2f06e7314077049f48a93578cd16f5ef92329f1dab1420a99c177e600360019054906101000a90046001600160a01b03168483604051610db793929190613ab8565b60005460ff16611da95760405162461bcd60e51b81526004016108e2906139d3565b6000805460ff19169055611dbb611229565b50611dc8336000836127fa565b506000805460ff19166001179055565b6001600160a01b03811660009081526010602052604081208054611dff5750600092915050565b600a548154600091611e1091613a77565b9050816001015481611b989190613a96565b600354600090819061010090046001600160a01b03163314611e575760405163407fded560e01b815260040160405180910390fd5b4360095414611e7957604051630be2a5cb60e11b815260040160405180910390fd5b600660009054906101000a90046001600160a01b03169050826001600160a01b0316632191f92a6040518163ffffffff1660e01b8152600401602060405180830381865afa158015611ecf573d6000803e3d6000fd5b505050506040513d601f19601f82011682018060405250810190611ef39190613a10565b611f3f5760405162461bcd60e51b815260206004820152601c60248201527f6d61726b6572206d6574686f642072657475726e65642066616c73650000000060448201526064016108e2565b600680546001600160a01b0319166001600160a01b0385811691821790925560408051928416835260208301919091527fedffc32e068c7c95dfd4bdfd5c4d939a084d6b11c4199eac8436ed234d72f9269101610db7565b60005460ff16611fb95760405162461bcd60e51b81526004016108e2906139d3565b6000805460ff19169055611fcb611229565b50611dc83382612ad7565b6040805160208101909152600081526040518060200160405280611ffe856000015185612c8d565b90529392505050565b6000806120148585611fd6565b90506118f361202282612664565b84612c99565b60055460405163d02f735160e01b81523060048201526001600160a01b0386811660248301528581166044830152848116606483015260848201849052600092169063d02f73519060a4016020604051808303816000875af1158015612092573d6000803e3d6000fd5b505050506040513d601f19601f820116820180604052508101906120b691906139f7565b905080156120da576040516363e00e3360e11b8152600481018290526024016108e2565b836001600160a01b0316836001600160a01b0316141561210d57604051633a94626760e11b815260040160405180910390fd5b600061212e836040518060200160405280666379da05b60000815250612ca5565b9050600061213c8285613a48565b905060006040518060200160405280612153611896565b9052905060006121638285611b80565b9050600081600c546121759190613a5f565b600c819055600d5490915061218b908690613a48565b600d556001600160a01b0388166000908152600e60205260409020546121b2908890613a48565b6001600160a01b03808a166000908152600e602052604080822093909355908b16815220546121e2908590613a5f565b6001600160a01b03808b166000818152600e602052604090819020939093559151908a1690600080516020613b22833981519152906122249088815260200190565b60405180910390a360405185815230906001600160a01b038a1690600080516020613b228339815191529060200160405180910390a37fa91e67c5ea634cd43a12c5a482724b03de01e85ca68702a53d0c2f45cb7c1dc530838360405161228d93929190613ab8565b60405180910390a150505050505050505050565b60005460ff166122c35760405162461bcd60e51b81526004016108e2906139d3565b6000805460ff191690556122d5611229565b50611dc83382612cc8565b60005460ff166123025760405162461bcd60e51b81526004016108e2906139d3565b6000805460ff19169055612314611229565b50611dc8338260006127fa565b60005460ff166123435760405162461bcd60e51b81526004016108e2906139d3565b6000805460ff19169055612355611229565b506000816001600160a01b031663a6afed956040518163ffffffff1660e01b81526004016020604051808303816000875af1158015612398573d6000803e3d6000fd5b505050506040513d601f19601f820116820180604052508101906123bc91906139f7565b905080156123e057604051633eea49b760e11b8152600481018290526024016108e2565b6123ec33858585612e67565b50506000805460ff191660011790555050565b60035460009061010090046001600160a01b0316331461243257604051631205b57b60e11b815260040160405180910390fd5b436009541461245457604051637dfca6b760e11b815260040160405180910390fd5b670de0b6b3a764000082111561247d5760405163717220f360e11b815260040160405180910390fd5b600880549083905560408051828152602081018590527faaa68312e2ea9d50e16af5068410ab56e1a1fd06037b1a35664812c30f8214609101610db7565b600554604051631200453160e11b81523060048201526001600160a01b03858116602483015284811660448301526064820184905260009283929116906324008a62906084016020604051808303816000875af1158015612520573d6000803e3d6000fd5b505050506040513d601f19601f8201168201806040525081019061254491906139f7565b9050801561256857604051638c81362d60e01b8152600481018290526024016108e2565b436009541461258a5760405163c9021e2f60e01b815260040160405180910390fd5b600061259585611dd8565b9050600060001985146125a857846125aa565b815b905060006125b88883613321565b905060006125c68285613a48565b9050600082600b546125d89190613a48565b6001600160a01b038a8116600081815260106020908152604091829020878155600a54600190910155600b8590558151938f168452830191909152810185905260608101849052608081018290529091507f1a2a22cb034d26d1854bdc6666a5b91fe25efbbb5dcad3b0355478d6f5c362a19060a00160405180910390a1509098975050505050505050565b8051600090610c7090670de0b6b3a764000090613a96565b600080808043600954146126a6576040516338acf79960e01b8152600481018290526024016108e2565b6126b03386613321565b905080600c546126c09190613a5f565b915081600c819055507fa91e67c5ea634cd43a12c5a482724b03de01e85ca68702a53d0c2f45cb7c1dc53382846040516126fc93929190613ab8565b60405180910390a160009590945092505050565b60115460405163a9059cbb60e01b81526001600160a01b0384811660048301526024820184905290911690819063a9059cbb90604401600060405180830381600087803b15801561276057600080fd5b505af1158015612774573d6000803e3d6000fd5b5050505060003d60008114612790576020811461279a57600080fd5b60001991506127a6565b60206000803e60005191505b50806127f45760405162461bcd60e51b815260206004820152601960248201527f544f4b454e5f5452414e534645525f4f55545f4641494c45440000000000000060448201526064016108e2565b50505050565b811580612805575080155b61286e5760405162461bcd60e51b815260206004820152603460248201527f6f6e65206f662072656465656d546f6b656e73496e206f722072656465656d416044820152736d6f756e74496e206d757374206265207a65726f60601b60648201526084016108e2565b60006040518060200160405280612883611896565b9052905060008084156128a45784915061289d8386611b80565b90506128b4565b6128ae84846134f8565b91508390505b60055460405163eabe7d9160e01b81526000916001600160a01b03169063eabe7d91906128e99030908b908890600401613ad9565b6020604051808303816000875af1158015612908573d6000803e3d6000fd5b505050506040513d601f19601f8201168201806040525081019061292c91906139f7565b905080156129505760405163480f424760e01b8152600481018290526024016108e2565b4360095414612972576040516397b5cfcd60e01b815260040160405180910390fd5b8161297b611ba0565b101561299a576040516391240a1b60e01b815260040160405180910390fd5b82600d546129a89190613a48565b600d556001600160a01b0387166000908152600e60205260409020546129cf908490613a48565b6001600160a01b0388166000908152600e60205260409020556129f28783612710565b60405183815230906001600160a01b03891690600080516020613b228339815191529060200160405180910390a37fe5b754fb1abb7f01b499791d0b820ae3b6af3424ac1c59768edb53f4ec31a929878385604051612a5393929190613ab8565b60405180910390a16005546040516351dff98960e01b81523060048201526001600160a01b0389811660248301526044820185905260648201869052909116906351dff98990608401600060405180830381600087803b158015612ab657600080fd5b505af1158015612aca573d6000803e3d6000fd5b5050505050505050505050565b600554604051634ef4c3e160e01b81526000916001600160a01b031690634ef4c3e190612b0c90309087908790600401613ad9565b6020604051808303816000875af1158015612b2b573d6000803e3d6000fd5b505050506040513d601f19601f82011682018060405250810190612b4f91906139f7565b90508015612b73576040516349abd4fd60e01b8152600481018290526024016108e2565b4360095414612b95576040516338d8859760e01b815260040160405180910390fd5b60006040518060200160405280612baa611896565b905290506000612bba8585613321565b90506000612bc882846134f8565b905080600d54612bd89190613a5f565b600d556001600160a01b0386166000908152600e6020526040902054612bff908290613a5f565b6001600160a01b0387166000908152600e60205260409081902091909155517f4c209b5fc8ad50758f13e2e1088ba56a560dff690a1c6fef26394f4c03821c4f90612c4f90889085908590613ab8565b60405180910390a16040518181526001600160a01b038716903090600080516020613b228339815191529060200160405180910390a3505050505050565b6000610c548284613a77565b6000610c548284613a5f565b6000670de0b6b3a7640000612cbe848460000151612c8d565b610c549190613a96565b60055460405163368f515360e21b81526000916001600160a01b03169063da3d454c90612cfd90309087908790600401613ad9565b6020604051808303816000875af1158015612d1c573d6000803e3d6000fd5b505050506040513d601f19601f82011682018060405250810190612d4091906139f7565b90508015612d645760405163918db40f60e01b8152600481018290526024016108e2565b4360095414612d8657604051630e8d8c6160e21b815260040160405180910390fd5b81612d8f611ba0565b1015612dae576040516348c2588160e01b815260040160405180910390fd5b6000612db984611dd8565b90506000612dc78483613a5f565b9050600084600b54612dd99190613a5f565b6001600160a01b0387166000908152601060205260409020838155600a54600190910155600b8190559050612e0e8686612710565b604080516001600160a01b038816815260208101879052908101839052606081018290527f13ed6866d4e1ee6da46f845c46d7e54120883d75c5ea9a2dacc1c4ca8984ab809060800160405180910390a1505050505050565b600554604051632fe3f38f60e11b81523060048201526001600160a01b03838116602483015286811660448301528581166064830152608482018590526000921690635fc7e71e9060a4016020604051808303816000875af1158015612ed1573d6000803e3d6000fd5b505050506040513d601f19601f82011682018060405250810190612ef591906139f7565b90508015612f1957604051630a14d17960e11b8152600481018290526024016108e2565b4360095414612f3b576040516380965b1b60e01b815260040160405180910390fd5b43826001600160a01b0316636c540baf6040518163ffffffff1660e01b8152600401602060405180830381865afa158015612f7a573d6000803e3d6000fd5b505050506040513d601f19601f82011682018060405250810190612f9e91906139f7565b14612fbc57604051631046f38d60e31b815260040160405180910390fd5b846001600160a01b0316846001600160a01b03161415612fef57604051631bd1a62160e21b815260040160405180910390fd5b8261300d5760405163d29da7ef60e01b815260040160405180910390fd5b60001983141561303057604051635982c5bb60e11b815260040160405180910390fd5b600061303d8686866124bb565b60055460405163c488847b60e01b815291925060009182916001600160a01b03169063c488847b9061307790309089908890600401613ad9565b6040805180830381865afa158015613093573d6000803e3d6000fd5b505050506040513d601f19601f820116820180604052508101906130b79190613afd565b91509150600082146131275760405162461bcd60e51b815260206004820152603360248201527f4c49515549444154455f434f4d5054524f4c4c45525f43414c43554c4154455f604482015272105353d5539517d4d152569157d19052531151606a1b60648201526084016108e2565b6040516370a0823160e01b81526001600160a01b0388811660048301528291908716906370a0823190602401602060405180830381865afa158015613170573d6000803e3d6000fd5b505050506040513d601f19601f8201168201806040525081019061319491906139f7565b10156131e25760405162461bcd60e51b815260206004820152601860248201527f4c49515549444154455f5345495a455f544f4f5f4d554348000000000000000060448201526064016108e2565b6001600160a01b038516301415613204576131ff30898984612028565b6132be565b60405163b2a02ff160e01b81526000906001600160a01b0387169063b2a02ff190613237908c908c908790600401613ad9565b6020604051808303816000875af1158015613256573d6000803e3d6000fd5b505050506040513d601f19601f8201168201806040525081019061327a91906139f7565b146132be5760405162461bcd60e51b81526020600482015260146024820152731d1bdad95b881cd95a5e9d5c994819985a5b195960621b60448201526064016108e2565b604080516001600160a01b038a811682528981166020830152818301869052871660608201526080810183905290517f298637f684da70674f26509b10f07ec2fbc77a335ab1e7d6215a4b2484d8bb529181900360a00190a15050505050505050565b6011546040516370a0823160e01b81523060048201526000916001600160a01b0316908190839082906370a0823190602401602060405180830381865afa158015613370573d6000803e3d6000fd5b505050506040513d601f19601f8201168201806040525081019061339491906139f7565b6040516323b872dd60e01b81529091506001600160a01b038316906323b872dd906133c790899030908a90600401613ad9565b600060405180830381600087803b1580156133e157600080fd5b505af11580156133f5573d6000803e3d6000fd5b5050505060003d60008114613411576020811461341b57600080fd5b6000199150613427565b60206000803e60005191505b50806134755760405162461bcd60e51b815260206004820152601860248201527f544f4b454e5f5452414e534645525f494e5f4641494c4544000000000000000060448201526064016108e2565b6040516370a0823160e01b81523060048201526000906001600160a01b038616906370a0823190602401602060405180830381865afa1580156134bc573d6000803e3d6000fd5b505050506040513d601f19601f820116820180604052508101906134e091906139f7565b90506134ec8382613a48565b98975050505050505050565b6000610c5461350f84670de0b6b3a7640000612c8d565b83516000610c548284613a96565b82805461352990613998565b90600052602060002090601f01602090048101928261354b5760008555613591565b82601f1061356457805160ff1916838001178555613591565b82800160010185558215613591579182015b82811115613591578251825591602001919060010190613576565b506118fc9291505b808211156118fc5760008155600101613599565b600060208083528351808285015260005b818110156135da578581018301518582016040015282016135be565b818111156135ec576000604083870101525b50601f01601f1916929092016040019392505050565b6001600160a01b0381168114610e3d57600080fd5b6000806040838503121561362a57600080fd5b823561363581613602565b946020939093013593505050565b60006020828403121561365557600080fd5b5035919050565b60006020828403121561366e57600080fd5b8135610c5481613602565b634e487b7160e01b600052604160045260246000fd5b600067ffffffffffffffff808411156136aa576136aa613679565b604051601f8501601f19908116603f011681019082821181831017156136d2576136d2613679565b816040528093508581528686860111156136eb57600080fd5b858560208301376000602087830101525050509392505050565b600082601f83011261371657600080fd5b610c548383356020850161368f565b803560ff8116811461373657600080fd5b919050565b600080600080600080600060e0888a03121561375657600080fd5b873561376181613602565b9650602088013561377181613602565b9550604088013561378181613602565b945060608801359350608088013567ffffffffffffffff808211156137a557600080fd5b6137b18b838c01613705565b945060a08a01359150808211156137c757600080fd5b506137d48a828b01613705565b9250506137e360c08901613725565b905092959891949750929550565b60008060006060848603121561380657600080fd5b833561381181613602565b9250602084013561382181613602565b929592945050506040919091013590565b60006020828403121561384457600080fd5b813567ffffffffffffffff81111561385b57600080fd5b8201601f8101841361386c57600080fd5b611b988482356020840161368f565b60008060008060008060c0878903121561389457600080fd5b863561389f81613602565b955060208701356138af81613602565b945060408701359350606087013567ffffffffffffffff808211156138d357600080fd5b6138df8a838b01613705565b945060808901359150808211156138f557600080fd5b5061390289828a01613705565b92505061391160a08801613725565b90509295509295509295565b6000806040838503121561393057600080fd5b823561393b81613602565b9150602083013561394b81613602565b809150509250929050565b60008060006060848603121561396b57600080fd5b833561397681613602565b925060208401359150604084013561398d81613602565b809150509250925092565b600181811c908216806139ac57607f821691505b602082108114156139cd57634e487b7160e01b600052602260045260246000fd5b50919050565b6020808252600a90820152691c994b595b9d195c995960b21b604082015260600190565b600060208284031215613a0957600080fd5b5051919050565b600060208284031215613a2257600080fd5b81518015158114610c5457600080fd5b634e487b7160e01b600052601160045260246000fd5b600082821015613a5a57613a5a613a32565b500390565b60008219821115613a7257613a72613a32565b500190565b6000816000190483118215151615613a9157613a91613a32565b500290565b600082613ab357634e487b7160e01b600052601260045260246000fd5b500490565b6001600160a01b039390931683526020830191909152604082015260600190565b6001600160a01b039384168152919092166020820152604081019190915260600190565b60008060408385031215613b1057600080fd5b50508051602090910151909290915056feddf252ad1be2c89b69c2b068fc378daa952ba7f163c4a11628f55a4df523b3efa26469706673582212200061c98a153d705ea04ef09cdd385ca546fbdb502d67670bae108044bf0d0fe664736f6c634300080a0033",
  "linkReferences": {},
  "deployedLinkReferences": {}
}