{
  "_format": "hh-sol-artifact-1",
  "contractName": "UnitrollerAdminStorage",
  "sourceName": "contracts/ComptrollerStorage.sol",
  "abi": [
    {
      "inputs": [],
      "name": "admin",
      "outputs": [
        {
          "internalType": "address",
          "name": "",
          "type": "address"
        }
      ],
      "stateMutability": "view",
      "type": "function"
    },
    {
      "inputs": [],
      "name": "comptrollerImplementation",
      "outputs": [
        {
          "internalType": "address",
          "name": "",
          "type": "address"
        }
      ],
      "stateMutability": "view",
      "type": "function"
    },
    {
      "inputs": [],
      "name": "pendingAdmin",
      "outputs": [
        {
          "internalType": "address",
          "name": "",
          "type": "address"
        }
      ],
      "stateMutability": "view",
      "type": "function"
    },
    {
      "inputs": [],
      "name": "pendingComptrollerImplementation",
      "outputs": [
        {
          "internalType": "address",
          "name": "",
          "type": "address"
        }
      ],
      "stateMutability": "view",
      "type": "function"
    }
  ],
  "bytecode": "0x608060405234801561001057600080fd5b5060e58061001f6000396000f3fe6080604052348015600f57600080fd5b506004361060465760003560e01c80632678224714604b578063bb82aa5e146079578063dcfbc0c714608b578063f851a44014609d575b600080fd5b600154605d906001600160a01b031681565b6040516001600160a01b03909116815260200160405180910390f35b600254605d906001600160a01b031681565b600354605d906001600160a01b031681565b600054605d906001600160a01b03168156fea2646970667358221220ae486c6541c6d5190f7e4eaca7a3d4db3bfb7eb28cb9acfb0939599071b9e8b864736f6c634300080a0033",
  "linkReferences": {},
  "deployedLinkReferences": {}
}