{
  "_format": "hh-sol-artifact-1",
  "contractName": "GovernorBravoDelegateStorageV2",
  "sourceName": "contracts/Governance/GovernorBravoInterfaces.sol",
  "abi": [
    {
      "constant": true,
      "inputs": [],
      "name": "admin",
      "outputs": [
        {
          "internalType": "address",
          "name": "",
          "type": "address"
        }
      ],
      "payable": false,
      "stateMutability": "view",
      "type": "function"
    },
    {
      "constant": true,
      "inputs": [],
      "name": "comp",
      "outputs": [
        {
          "internalType": "contract CompInterface",
          "name": "",
          "type": "address"
        }
      ],
      "payable": false,
      "stateMutability": "view",
      "type": "function"
    },
    {
      "constant": true,
      "inputs": [],
      "name": "implementation",
      "outputs": [
        {
          "internalType": "address",
          "name": "",
          "type": "address"
        }
      ],
      "payable": false,
      "stateMutability": "view",
      "type": "function"
    },
    {
      "constant": true,
      "inputs": [],
      "name": "initialProposalId",
      "outputs": [
        {
          "internalType": "uint256",
          "name": "",
          "type": "uint256"
        }
      ],
      "payable": false,
      "stateMutability": "view",
      "type": "function"
    },
    {
      "constant": true,
      "inputs": [
        {
          "internalType": "address",
          "name": "",
          "type": "address"
        }
      ],
      "name": "latestProposalIds",
      "outputs": [
        {
          "internalType": "uint256",
          "name": "",
          "type": "uint256"
        }
      ],
      "payable": false,
      "stateMutability": "view",
      "type": "function"
    },
    {
      "constant": true,
      "inputs": [],
      "name": "pendingAdmin",
      "outputs": [
        {
          "internalType": "address",
          "name": "",
          "type": "address"
        }
      ],
      "payable": false,
      "stateMutability": "view",
      "type": "function"
    },
    {
      "constant": true,
      "inputs": [],
      "name": "proposalCount",
      "outputs": [
        {
          "internalType": "uint256",
          "name": "",
          "type": "uint256"
        }
      ],
      "payable": false,
      "stateMutability": "view",
      "type": "function"
    },
    {
      "constant": true,
      "inputs": [],
      "name": "proposalThreshold",
      "outputs": [
        {
          "internalType": "uint256",
          "name": "",
          "type": "uint256"
        }
      ],
      "payable": false,
      "stateMutability": "view",
      "type": "function"
    },
    {
      "constant": true,
      "inputs": [
        {
          "internalType": "uint256",
          "name": "",
          "type": "uint256"
        }
      ],
      "name": "proposals",
      "outputs": [
        {
          "internalType": "uint256",
          "name": "id",
          "type": "uint256"
        },
        {
          "internalType": "address",
          "name": "proposer",
          "type": "address"
        },
        {
          "internalType": "uint256",
          "name": "eta",
          "type": "uint256"
        },
        {
          "internalType": "uint256",
          "name": "startBlock",
          "type": "uint256"
        },
        {
          "internalType": "uint256",
          "name": "endBlock",
          "type": "uint256"
        },
        {
          "internalType": "uint256",
          "name": "forVotes",
          "type": "uint256"
        },
        {
          "internalType": "uint256",
          "name": "againstVotes",
          "type": "uint256"
        },
        {
          "internalType": "uint256",
          "name": "abstainVotes",
          "type": "uint256"
        },
        {
          "internalType": "bool",
          "name": "canceled",
          "type": "bool"
        },
        {
          "internalType": "bool",
          "name": "executed",
          "type": "bool"
        }
      ],
      "payable": false,
      "stateMutability": "view",
      "type": "function"
    },
    {
      "constant": true,
      "inputs": [],
      "name": "timelock",
      "outputs": [
        {
          "internalType": "contract TimelockInterface",
          "name": "",
          "type": "address"
        }
      ],
      "payable": false,
      "stateMutability": "view",
      "type": "function"
    },
    {
      "constant": true,
      "inputs": [],
      "name": "votingDelay",
      "outputs": [
        {
          "internalType": "uint256",
          "name": "",
          "type": "uint256"
        }
      ],
      "payable": false,
      "stateMutability": "view",
      "type": "function"
    },
    {
      "constant": true,
      "inputs": [],
      "name": "votingPeriod",
      "outputs": [
        {
          "internalType": "uint256",
          "name": "",
          "type": "uint256"
        }
      ],
      "payable": false,
      "stateMutability": "view",
      "type": "function"
    },
    {
      "constant": true,
      "inputs": [
        {
          "internalType": "address",
          "name": "",
          "type": "address"
        }
      ],
      "name": "whitelistAccountExpirations",
      "outputs": [
        {
          "internalType": "uint256",
          "name": "",
          "type": "uint256"
        }
      ],
      "payable": false,
      "stateMutability": "view",
      "type": "function"
    },
    {
      "constant": true,
      "inputs": [],
      "name": "whitelistGuardian",
      "outputs": [
        {
          "internalType": "address",
          "name": "",
          "type": "address"
        }
      ],
      "payable": false,
      "stateMutability": "view",
      "type": "function"
    }
  ],
  "bytecode": "0x608060405234801561001057600080fd5b5061049b806100206000396000f3fe608060405234801561001057600080fd5b50600436106100ea5760003560e01c80635c60da1b1161008c578063d33219b411610066578063d33219b4146101a6578063da35c664146101ae578063f851a440146101b6578063fc4eee42146101be576100ea565b80635c60da1b1461018e578063b58131b014610196578063c5a8425d1461019e576100ea565b806317977c61116100c857806317977c611461014b578063267822471461015e57806338bd0dda146101735780633932abb114610186576100ea565b8063013cf08b146100ef57806302a251a314610121578063109d0af814610136575b600080fd5b6101026100fd366004610307565b6101c6565b6040516101189a99989796959493929190610379565b60405180910390f35b610129610229565b604051610118919061036b565b61013e61022f565b604051610118919061035d565b6101296101593660046102e1565b61023e565b610166610250565b604051610118919061034f565b6101296101813660046102e1565b61025f565b610129610271565b610166610277565b610129610286565b61016661028c565b61013e61029b565b6101296102aa565b6101666102b0565b6101296102bf565b600a60208190526000918252604090912080546001820154600283015460078401546008850154600986015496860154600b870154600c9097015495976001600160a01b0390951696939592949193919290919060ff808216916101009004168a565b60045481565b6009546001600160a01b031681565b600b6020526000908152604090205481565b6001546001600160a01b031681565b600c6020526000908152604090205481565b60035481565b6002546001600160a01b031681565b60055481565b600d546001600160a01b031681565b6008546001600160a01b031681565b60075481565b6000546001600160a01b031681565b60065481565b80356102d081610438565b92915050565b80356102d08161044f565b6000602082840312156102f357600080fd5b60006102ff84846102c5565b949350505050565b60006020828403121561031957600080fd5b60006102ff84846102d6565b61032e8161040e565b82525050565b61032e81610419565b61032e8161042d565b61032e8161042a565b602081016102d08284610325565b602081016102d0828461033d565b602081016102d08284610346565b6101408101610388828d610346565b610395602083018c610325565b6103a2604083018b610346565b6103af606083018a610346565b6103bc6080830189610346565b6103c960a0830188610346565b6103d660c0830187610346565b6103e360e0830186610346565b6103f1610100830185610334565b6103ff610120830184610334565b9b9a5050505050505050505050565b60006102d08261041e565b151590565b6001600160a01b031690565b90565b60006102d08261040e565b6104418161040e565b811461044c57600080fd5b50565b6104418161042a56fea365627a7a723158208fc9a3ffbf47c50450cb370e491f179603330414182cae3ea485790bb9147ec26c6578706572696d656e74616cf564736f6c63430005100040",
  "linkReferences": {},
  "deployedLinkReferences": {}
}