{
  "address": "0x1Ba216fd9A75e729Ce3861D1d8a4cD5d8dEA498a",
  "abi": [
    {
      "inputs": [
        {
          "internalType": "address",
          "name": "underlying_",
          "type": "address"
        },
        {
          "internalType": "contract ComptrollerInterface",
          "name": "comptroller_",
          "type": "address"
        },
        {
          "internalType": "contract InterestRateModel",
          "name": "interestRateModel_",
          "type": "address"
        },
        {
          "internalType": "uint256",
          "name": "initialExchangeRateMantissa_",
          "type": "uint256"
        },
        {
          "internalType": "string",
          "name": "name_",
          "type": "string"
        },
        {
          "internalType": "string",
          "name": "symbol_",
          "type": "string"
        },
        {
          "internalType": "uint8",
          "name": "decimals_",
          "type": "uint8"
        },
        {
          "internalType": "address payable",
          "name": "admin_",
          "type": "address"
        }
      ],
      "payable": false,
      "stateMutability": "nonpayable",
      "type": "constructor"
    },
    {
      "anonymous": false,
      "inputs": [
        {
          "indexed": false,
          "internalType": "uint256",
          "name": "cashPrior",
          "type": "uint256"
        },
        {
          "indexed": false,
          "internalType": "uint256",
          "name": "interestAccumulated",
          "type": "uint256"
        },
        {
          "indexed": false,
          "internalType": "uint256",
          "name": "borrowIndex",
          "type": "uint256"
        },
        {
          "indexed": false,
          "internalType": "uint256",
          "name": "totalBorrows",
          "type": "uint256"
        }
      ],
      "name": "AccrueInterest",
      "type": "event"
    },
    {
      "anonymous": false,
      "inputs": [
        {
          "indexed": true,
          "internalType": "address",
          "name": "owner",
          "type": "address"
        },
        {
          "indexed": true,
          "internalType": "address",
          "name": "spender",
          "type": "address"
        },
        {
          "indexed": false,
          "internalType": "uint256",
          "name": "amount",
          "type": "uint256"
        }
      ],
      "name": "Approval",
      "type": "event"
    },
    {
      "anonymous": false,
      "inputs": [
        {
          "indexed": false,
          "internalType": "address",
          "name": "borrower",
          "type": "address"
        },
        {
          "indexed": false,
          "internalType": "uint256",
          "name": "borrowAmount",
          "type": "uint256"
        },
        {
          "indexed": false,
          "internalType": "uint256",
          "name": "accountBorrows",
          "type": "uint256"
        },
        {
          "indexed": false,
          "internalType": "uint256",
          "name": "totalBorrows",
          "type": "uint256"
        }
      ],
      "name": "Borrow",
      "type": "event"
    },
    {
      "anonymous": false,
      "inputs": [
        {
          "indexed": false,
          "internalType": "uint256",
          "name": "error",
          "type": "uint256"
        },
        {
          "indexed": false,
          "internalType": "uint256",
          "name": "info",
          "type": "uint256"
        },
        {
          "indexed": false,
          "internalType": "uint256",
          "name": "detail",
          "type": "uint256"
        }
      ],
      "name": "Failure",
      "type": "event"
    },
    {
      "anonymous": false,
      "inputs": [
        {
          "indexed": false,
          "internalType": "address",
          "name": "liquidator",
          "type": "address"
        },
        {
          "indexed": false,
          "internalType": "address",
          "name": "borrower",
          "type": "address"
        },
        {
          "indexed": false,
          "internalType": "uint256",
          "name": "repayAmount",
          "type": "uint256"
        },
        {
          "indexed": false,
          "internalType": "address",
          "name": "cTokenCollateral",
          "type": "address"
        },
        {
          "indexed": false,
          "internalType": "uint256",
          "name": "seizeTokens",
          "type": "uint256"
        }
      ],
      "name": "LiquidateBorrow",
      "type": "event"
    },
    {
      "anonymous": false,
      "inputs": [
        {
          "indexed": false,
          "internalType": "address",
          "name": "minter",
          "type": "address"
        },
        {
          "indexed": false,
          "internalType": "uint256",
          "name": "mintAmount",
          "type": "uint256"
        },
        {
          "indexed": false,
          "internalType": "uint256",
          "name": "mintTokens",
          "type": "uint256"
        }
      ],
      "name": "Mint",
      "type": "event"
    },
    {
      "anonymous": false,
      "inputs": [
        {
          "indexed": false,
          "internalType": "address",
          "name": "oldAdmin",
          "type": "address"
        },
        {
          "indexed": false,
          "internalType": "address",
          "name": "newAdmin",
          "type": "address"
        }
      ],
      "name": "NewAdmin",
      "type": "event"
    },
    {
      "anonymous": false,
      "inputs": [
        {
          "indexed": false,
          "internalType": "contract ComptrollerInterface",
          "name": "oldComptroller",
          "type": "address"
        },
        {
          "indexed": false,
          "internalType": "contract ComptrollerInterface",
          "name": "newComptroller",
          "type": "address"
        }
      ],
      "name": "NewComptroller",
      "type": "event"
    },
    {
      "anonymous": false,
      "inputs": [
        {
          "indexed": false,
          "internalType": "contract InterestRateModel",
          "name": "oldInterestRateModel",
          "type": "address"
        },
        {
          "indexed": false,
          "internalType": "contract InterestRateModel",
          "name": "newInterestRateModel",
          "type": "address"
        }
      ],
      "name": "NewMarketInterestRateModel",
      "type": "event"
    },
    {
      "anonymous": false,
      "inputs": [
        {
          "indexed": false,
          "internalType": "address",
          "name": "oldPendingAdmin",
          "type": "address"
        },
        {
          "indexed": false,
          "internalType": "address",
          "name": "newPendingAdmin",
          "type": "address"
        }
      ],
      "name": "NewPendingAdmin",
      "type": "event"
    },
    {
      "anonymous": false,
      "inputs": [
        {
          "indexed": false,
          "internalType": "uint256",
          "name": "oldReserveFactorMantissa",
          "type": "uint256"
        },
        {
          "indexed": false,
          "internalType": "uint256",
          "name": "newReserveFactorMantissa",
          "type": "uint256"
        }
      ],
      "name": "NewReserveFactor",
      "type": "event"
    },
    {
      "anonymous": false,
      "inputs": [
        {
          "indexed": false,
          "internalType": "address",
          "name": "redeemer",
          "type": "address"
        },
        {
          "indexed": false,
          "internalType": "uint256",
          "name": "redeemAmount",
          "type": "uint256"
        },
        {
          "indexed": false,
          "internalType": "uint256",
          "name": "redeemTokens",
          "type": "uint256"
        }
      ],
      "name": "Redeem",
      "type": "event"
    },
    {
      "anonymous": false,
      "inputs": [
        {
          "indexed": false,
          "internalType": "address",
          "name": "payer",
          "type": "address"
        },
        {
          "indexed": false,
          "internalType": "address",
          "name": "borrower",
          "type": "address"
        },
        {
          "indexed": false,
          "internalType": "uint256",
          "name": "repayAmount",
          "type": "uint256"
        },
        {
          "indexed": false,
          "internalType": "uint256",
          "name": "accountBorrows",
          "type": "uint256"
        },
        {
          "indexed": false,
          "internalType": "uint256",
          "name": "totalBorrows",
          "type": "uint256"
        }
      ],
      "name": "RepayBorrow",
      "type": "event"
    },
    {
      "anonymous": false,
      "inputs": [
        {
          "indexed": false,
          "internalType": "address",
          "name": "benefactor",
          "type": "address"
        },
        {
          "indexed": false,
          "internalType": "uint256",
          "name": "addAmount",
          "type": "uint256"
        },
        {
          "indexed": false,
          "internalType": "uint256",
          "name": "newTotalReserves",
          "type": "uint256"
        }
      ],
      "name": "ReservesAdded",
      "type": "event"
    },
    {
      "anonymous": false,
      "inputs": [
        {
          "indexed": false,
          "internalType": "address",
          "name": "admin",
          "type": "address"
        },
        {
          "indexed": false,
          "internalType": "uint256",
          "name": "reduceAmount",
          "type": "uint256"
        },
        {
          "indexed": false,
          "internalType": "uint256",
          "name": "newTotalReserves",
          "type": "uint256"
        }
      ],
      "name": "ReservesReduced",
      "type": "event"
    },
    {
      "anonymous": false,
      "inputs": [
        {
          "indexed": true,
          "internalType": "address",
          "name": "from",
          "type": "address"
        },
        {
          "indexed": true,
          "internalType": "address",
          "name": "to",
          "type": "address"
        },
        {
          "indexed": false,
          "internalType": "uint256",
          "name": "amount",
          "type": "uint256"
        }
      ],
      "name": "Transfer",
      "type": "event"
    },
    {
      "constant": false,
      "inputs": [],
      "name": "_acceptAdmin",
      "outputs": [
        {
          "internalType": "uint256",
          "name": "",
          "type": "uint256"
        }
      ],
      "payable": false,
      "stateMutability": "nonpayable",
      "type": "function"
    },
    {
      "constant": false,
      "inputs": [
        {
          "internalType": "uint256",
          "name": "addAmount",
          "type": "uint256"
        }
      ],
      "name": "_addReserves",
      "outputs": [
        {
          "internalType": "uint256",
          "name": "",
          "type": "uint256"
        }
      ],
      "payable": false,
      "stateMutability": "nonpayable",
      "type": "function"
    },
    {
      "constant": false,
      "inputs": [
        {
          "internalType": "uint256",
          "name": "reduceAmount",
          "type": "uint256"
        }
      ],
      "name": "_reduceReserves",
      "outputs": [
        {
          "internalType": "uint256",
          "name": "",
          "type": "uint256"
        }
      ],
      "payable": false,
      "stateMutability": "nonpayable",
      "type": "function"
    },
    {
      "constant": false,
      "inputs": [
        {
          "internalType": "contract ComptrollerInterface",
          "name": "newComptroller",
          "type": "address"
        }
      ],
      "name": "_setComptroller",
      "outputs": [
        {
          "internalType": "uint256",
          "name": "",
          "type": "uint256"
        }
      ],
      "payable": false,
      "stateMutability": "nonpayable",
      "type": "function"
    },
    {
      "constant": false,
      "inputs": [
        {
          "internalType": "contract InterestRateModel",
          "name": "newInterestRateModel",
          "type": "address"
        }
      ],
      "name": "_setInterestRateModel",
      "outputs": [
        {
          "internalType": "uint256",
          "name": "",
          "type": "uint256"
        }
      ],
      "payable": false,
      "stateMutability": "nonpayable",
      "type": "function"
    },
    {
      "constant": false,
      "inputs": [
        {
          "internalType": "address payable",
          "name": "newPendingAdmin",
          "type": "address"
        }
      ],
      "name": "_setPendingAdmin",
      "outputs": [
        {
          "internalType": "uint256",
          "name": "",
          "type": "uint256"
        }
      ],
      "payable": false,
      "stateMutability": "nonpayable",
      "type": "function"
    },
    {
      "constant": false,
      "inputs": [
        {
          "internalType": "uint256",
          "name": "newReserveFactorMantissa",
          "type": "uint256"
        }
      ],
      "name": "_setReserveFactor",
      "outputs": [
        {
          "internalType": "uint256",
          "name": "",
          "type": "uint256"
        }
      ],
      "payable": false,
      "stateMutability": "nonpayable",
      "type": "function"
    },
    {
      "constant": true,
      "inputs": [],
      "name": "accrualBlockNumber",
      "outputs": [
        {
          "internalType": "uint256",
          "name": "",
          "type": "uint256"
        }
      ],
      "payable": false,
      "stateMutability": "view",
      "type": "function"
    },
    {
      "constant": false,
      "inputs": [],
      "name": "accrueInterest",
      "outputs": [
        {
          "internalType": "uint256",
          "name": "",
          "type": "uint256"
        }
      ],
      "payable": false,
      "stateMutability": "nonpayable",
      "type": "function"
    },
    {
      "constant": true,
      "inputs": [],
      "name": "admin",
      "outputs": [
        {
          "internalType": "address payable",
          "name": "",
          "type": "address"
        }
      ],
      "payable": false,
      "stateMutability": "view",
      "type": "function"
    },
    {
      "constant": true,
      "inputs": [
        {
          "internalType": "address",
          "name": "owner",
          "type": "address"
        },
        {
          "internalType": "address",
          "name": "spender",
          "type": "address"
        }
      ],
      "name": "allowance",
      "outputs": [
        {
          "internalType": "uint256",
          "name": "",
          "type": "uint256"
        }
      ],
      "payable": false,
      "stateMutability": "view",
      "type": "function"
    },
    {
      "constant": false,
      "inputs": [
        {
          "internalType": "address",
          "name": "spender",
          "type": "address"
        },
        {
          "internalType": "uint256",
          "name": "amount",
          "type": "uint256"
        }
      ],
      "name": "approve",
      "outputs": [
        {
          "internalType": "bool",
          "name": "",
          "type": "bool"
        }
      ],
      "payable": false,
      "stateMutability": "nonpayable",
      "type": "function"
    },
    {
      "constant": true,
      "inputs": [
        {
          "internalType": "address",
          "name": "owner",
          "type": "address"
        }
      ],
      "name": "balanceOf",
      "outputs": [
        {
          "internalType": "uint256",
          "name": "",
          "type": "uint256"
        }
      ],
      "payable": false,
      "stateMutability": "view",
      "type": "function"
    },
    {
      "constant": false,
      "inputs": [
        {
          "internalType": "address",
          "name": "owner",
          "type": "address"
        }
      ],
      "name": "balanceOfUnderlying",
      "outputs": [
        {
          "internalType": "uint256",
          "name": "",
          "type": "uint256"
        }
      ],
      "payable": false,
      "stateMutability": "nonpayable",
      "type": "function"
    },
    {
      "constant": false,
      "inputs": [
        {
          "internalType": "uint256",
          "name": "borrowAmount",
          "type": "uint256"
        }
      ],
      "name": "borrow",
      "outputs": [
        {
          "internalType": "uint256",
          "name": "",
          "type": "uint256"
        }
      ],
      "payable": false,
      "stateMutability": "nonpayable",
      "type": "function"
    },
    {
      "constant": false,
      "inputs": [
        {
          "internalType": "address",
          "name": "account",
          "type": "address"
        }
      ],
      "name": "borrowBalanceCurrent",
      "outputs": [
        {
          "internalType": "uint256",
          "name": "",
          "type": "uint256"
        }
      ],
      "payable": false,
      "stateMutability": "nonpayable",
      "type": "function"
    },
    {
      "constant": true,
      "inputs": [
        {
          "internalType": "address",
          "name": "account",
          "type": "address"
        }
      ],
      "name": "borrowBalanceStored",
      "outputs": [
        {
          "internalType": "uint256",
          "name": "",
          "type": "uint256"
        }
      ],
      "payable": false,
      "stateMutability": "view",
      "type": "function"
    },
    {
      "constant": true,
      "inputs": [],
      "name": "borrowIndex",
      "outputs": [
        {
          "internalType": "uint256",
          "name": "",
          "type": "uint256"
        }
      ],
      "payable": false,
      "stateMutability": "view",
      "type": "function"
    },
    {
      "constant": true,
      "inputs": [],
      "name": "borrowRatePerBlock",
      "outputs": [
        {
          "internalType": "uint256",
          "name": "",
          "type": "uint256"
        }
      ],
      "payable": false,
      "stateMutability": "view",
      "type": "function"
    },
    {
      "constant": true,
      "inputs": [],
      "name": "comptroller",
      "outputs": [
        {
          "internalType": "contract ComptrollerInterface",
          "name": "",
          "type": "address"
        }
      ],
      "payable": false,
      "stateMutability": "view",
      "type": "function"
    },
    {
      "constant": true,
      "inputs": [],
      "name": "decimals",
      "outputs": [
        {
          "internalType": "uint8",
          "name": "",
          "type": "uint8"
        }
      ],
      "payable": false,
      "stateMutability": "view",
      "type": "function"
    },
    {
      "constant": false,
      "inputs": [],
      "name": "exchangeRateCurrent",
      "outputs": [
        {
          "internalType": "uint256",
          "name": "",
          "type": "uint256"
        }
      ],
      "payable": false,
      "stateMutability": "nonpayable",
      "type": "function"
    },
    {
      "constant": true,
      "inputs": [],
      "name": "exchangeRateStored",
      "outputs": [
        {
          "internalType": "uint256",
          "name": "",
          "type": "uint256"
        }
      ],
      "payable": false,
      "stateMutability": "view",
      "type": "function"
    },
    {
      "constant": true,
      "inputs": [
        {
          "internalType": "address",
          "name": "account",
          "type": "address"
        }
      ],
      "name": "getAccountSnapshot",
      "outputs": [
        {
          "internalType": "uint256",
          "name": "",
          "type": "uint256"
        },
        {
          "internalType": "uint256",
          "name": "",
          "type": "uint256"
        },
        {
          "internalType": "uint256",
          "name": "",
          "type": "uint256"
        },
        {
          "internalType": "uint256",
          "name": "",
          "type": "uint256"
        }
      ],
      "payable": false,
      "stateMutability": "view",
      "type": "function"
    },
    {
      "constant": true,
      "inputs": [],
      "name": "getCash",
      "outputs": [
        {
          "internalType": "uint256",
          "name": "",
          "type": "uint256"
        }
      ],
      "payable": false,
      "stateMutability": "view",
      "type": "function"
    },
    {
      "constant": false,
      "inputs": [
        {
          "internalType": "address",
          "name": "underlying_",
          "type": "address"
        },
        {
          "internalType": "contract ComptrollerInterface",
          "name": "comptroller_",
          "type": "address"
        },
        {
          "internalType": "contract InterestRateModel",
          "name": "interestRateModel_",
          "type": "address"
        },
        {
          "internalType": "uint256",
          "name": "initialExchangeRateMantissa_",
          "type": "uint256"
        },
        {
          "internalType": "string",
          "name": "name_",
          "type": "string"
        },
        {
          "internalType": "string",
          "name": "symbol_",
          "type": "string"
        },
        {
          "internalType": "uint8",
          "name": "decimals_",
          "type": "uint8"
        }
      ],
      "name": "initialize",
      "outputs": [],
      "payable": false,
      "stateMutability": "nonpayable",
      "type": "function"
    },
    {
      "constant": false,
      "inputs": [
        {
          "internalType": "contract ComptrollerInterface",
          "name": "comptroller_",
          "type": "address"
        },
        {
          "internalType": "contract InterestRateModel",
          "name": "interestRateModel_",
          "type": "address"
        },
        {
          "internalType": "uint256",
          "name": "initialExchangeRateMantissa_",
          "type": "uint256"
        },
        {
          "internalType": "string",
          "name": "name_",
          "type": "string"
        },
        {
          "internalType": "string",
          "name": "symbol_",
          "type": "string"
        },
        {
          "internalType": "uint8",
          "name": "decimals_",
          "type": "uint8"
        }
      ],
      "name": "initialize",
      "outputs": [],
      "payable": false,
      "stateMutability": "nonpayable",
      "type": "function"
    },
    {
      "constant": true,
      "inputs": [],
      "name": "interestRateModel",
      "outputs": [
        {
          "internalType": "contract InterestRateModel",
          "name": "",
          "type": "address"
        }
      ],
      "payable": false,
      "stateMutability": "view",
      "type": "function"
    },
    {
      "constant": true,
      "inputs": [],
      "name": "isCToken",
      "outputs": [
        {
          "internalType": "bool",
          "name": "",
          "type": "bool"
        }
      ],
      "payable": false,
      "stateMutability": "view",
      "type": "function"
    },
    {
      "constant": false,
      "inputs": [
        {
          "internalType": "address",
          "name": "borrower",
          "type": "address"
        },
        {
          "internalType": "uint256",
          "name": "repayAmount",
          "type": "uint256"
        },
        {
          "internalType": "contract CTokenInterface",
          "name": "cTokenCollateral",
          "type": "address"
        }
      ],
      "name": "liquidateBorrow",
      "outputs": [
        {
          "internalType": "uint256",
          "name": "",
          "type": "uint256"
        }
      ],
      "payable": false,
      "stateMutability": "nonpayable",
      "type": "function"
    },
    {
      "constant": false,
      "inputs": [
        {
          "internalType": "uint256",
          "name": "mintAmount",
          "type": "uint256"
        }
      ],
      "name": "mint",
      "outputs": [
        {
          "internalType": "uint256",
          "name": "",
          "type": "uint256"
        }
      ],
      "payable": false,
      "stateMutability": "nonpayable",
      "type": "function"
    },
    {
      "constant": true,
      "inputs": [],
      "name": "name",
      "outputs": [
        {
          "internalType": "string",
          "name": "",
          "type": "string"
        }
      ],
      "payable": false,
      "stateMutability": "view",
      "type": "function"
    },
    {
      "constant": true,
      "inputs": [],
      "name": "pendingAdmin",
      "outputs": [
        {
          "internalType": "address payable",
          "name": "",
          "type": "address"
        }
      ],
      "payable": false,
      "stateMutability": "view",
      "type": "function"
    },
    {
      "constant": false,
      "inputs": [
        {
          "internalType": "uint256",
          "name": "redeemTokens",
          "type": "uint256"
        }
      ],
      "name": "redeem",
      "outputs": [
        {
          "internalType": "uint256",
          "name": "",
          "type": "uint256"
        }
      ],
      "payable": false,
      "stateMutability": "nonpayable",
      "type": "function"
    },
    {
      "constant": false,
      "inputs": [
        {
          "internalType": "uint256",
          "name": "redeemAmount",
          "type": "uint256"
        }
      ],
      "name": "redeemUnderlying",
      "outputs": [
        {
          "internalType": "uint256",
          "name": "",
          "type": "uint256"
        }
      ],
      "payable": false,
      "stateMutability": "nonpayable",
      "type": "function"
    },
    {
      "constant": false,
      "inputs": [
        {
          "internalType": "uint256",
          "name": "repayAmount",
          "type": "uint256"
        }
      ],
      "name": "repayBorrow",
      "outputs": [
        {
          "internalType": "uint256",
          "name": "",
          "type": "uint256"
        }
      ],
      "payable": false,
      "stateMutability": "nonpayable",
      "type": "function"
    },
    {
      "constant": false,
      "inputs": [
        {
          "internalType": "address",
          "name": "borrower",
          "type": "address"
        },
        {
          "internalType": "uint256",
          "name": "repayAmount",
          "type": "uint256"
        }
      ],
      "name": "repayBorrowBehalf",
      "outputs": [
        {
          "internalType": "uint256",
          "name": "",
          "type": "uint256"
        }
      ],
      "payable": false,
      "stateMutability": "nonpayable",
      "type": "function"
    },
    {
      "constant": true,
      "inputs": [],
      "name": "reserveFactorMantissa",
      "outputs": [
        {
          "internalType": "uint256",
          "name": "",
          "type": "uint256"
        }
      ],
      "payable": false,
      "stateMutability": "view",
      "type": "function"
    },
    {
      "constant": false,
      "inputs": [
        {
          "internalType": "address",
          "name": "liquidator",
          "type": "address"
        },
        {
          "internalType": "address",
          "name": "borrower",
          "type": "address"
        },
        {
          "internalType": "uint256",
          "name": "seizeTokens",
          "type": "uint256"
        }
      ],
      "name": "seize",
      "outputs": [
        {
          "internalType": "uint256",
          "name": "",
          "type": "uint256"
        }
      ],
      "payable": false,
      "stateMutability": "nonpayable",
      "type": "function"
    },
    {
      "constant": true,
      "inputs": [],
      "name": "supplyRatePerBlock",
      "outputs": [
        {
          "internalType": "uint256",
          "name": "",
          "type": "uint256"
        }
      ],
      "payable": false,
      "stateMutability": "view",
      "type": "function"
    },
    {
      "constant": true,
      "inputs": [],
      "name": "symbol",
      "outputs": [
        {
          "internalType": "string",
          "name": "",
          "type": "string"
        }
      ],
      "payable": false,
      "stateMutability": "view",
      "type": "function"
    },
    {
      "constant": true,
      "inputs": [],
      "name": "totalBorrows",
      "outputs": [
        {
          "internalType": "uint256",
          "name": "",
          "type": "uint256"
        }
      ],
      "payable": false,
      "stateMutability": "view",
      "type": "function"
    },
    {
      "constant": false,
      "inputs": [],
      "name": "totalBorrowsCurrent",
      "outputs": [
        {
          "internalType": "uint256",
          "name": "",
          "type": "uint256"
        }
      ],
      "payable": false,
      "stateMutability": "nonpayable",
      "type": "function"
    },
    {
      "constant": true,
      "inputs": [],
      "name": "totalReserves",
      "outputs": [
        {
          "internalType": "uint256",
          "name": "",
          "type": "uint256"
        }
      ],
      "payable": false,
      "stateMutability": "view",
      "type": "function"
    },
    {
      "constant": true,
      "inputs": [],
      "name": "totalSupply",
      "outputs": [
        {
          "internalType": "uint256",
          "name": "",
          "type": "uint256"
        }
      ],
      "payable": false,
      "stateMutability": "view",
      "type": "function"
    },
    {
      "constant": false,
      "inputs": [
        {
          "internalType": "address",
          "name": "dst",
          "type": "address"
        },
        {
          "internalType": "uint256",
          "name": "amount",
          "type": "uint256"
        }
      ],
      "name": "transfer",
      "outputs": [
        {
          "internalType": "bool",
          "name": "",
          "type": "bool"
        }
      ],
      "payable": false,
      "stateMutability": "nonpayable",
      "type": "function"
    },
    {
      "constant": false,
      "inputs": [
        {
          "internalType": "address",
          "name": "src",
          "type": "address"
        },
        {
          "internalType": "address",
          "name": "dst",
          "type": "address"
        },
        {
          "internalType": "uint256",
          "name": "amount",
          "type": "uint256"
        }
      ],
      "name": "transferFrom",
      "outputs": [
        {
          "internalType": "bool",
          "name": "",
          "type": "bool"
        }
      ],
      "payable": false,
      "stateMutability": "nonpayable",
      "type": "function"
    },
    {
      "constant": true,
      "inputs": [],
      "name": "underlying",
      "outputs": [
        {
          "internalType": "address",
          "name": "",
          "type": "address"
        }
      ],
      "payable": false,
      "stateMutability": "view",
      "type": "function"
    }
  ],
  "transactionHash": "0x8f1d4134143f1699cea63e84a825fec3861f910cda22e0f44d6b0514928b8c26",
  "args": [
    "0x686C022EF35a2e544334938Cd88C4E8a1568d8B8",
    "0x7efcEb2E872346689343eEf88a517e150a929758",
    "0xd0F082816A8E207e414786987a8DC546476c57a9",
    "200000000000000000000000000",
    "Anchor Dola",
    "anDola",
    "8",
    "0x5656ab2fAe8522b8148478528DDa4ff89075f6E7"
  ],
  "solcInputHash": "8296c2ba3734596e0a407e4521ac8241",
  "bytecode": "0x60806040523480156200001157600080fd5b50604051620058eb380380620058eb83398181016040526101008110156200003857600080fd5b81516020830151604080850151606086015160808701805193519597949692959194919392820192846401000000008211156200007457600080fd5b9083019060208201858111156200008a57600080fd5b8251640100000000811182820188101715620000a557600080fd5b82525081516020918201929091019080838360005b83811015620000d4578181015183820152602001620000ba565b50505050905090810190601f168015620001025780820380516001836020036101000a031916815260200191505b50604052602001805160405193929190846401000000008211156200012657600080fd5b9083019060208201858111156200013c57600080fd5b82516401000000008111828201881017156200015757600080fd5b82525081516020918201929091019080838360005b83811015620001865781810151838201526020016200016c565b50505050905090810190601f168015620001b45780820380516001836020036101000a031916815260200191505b506040908152602082015191015160038054610100600160a81b03191633610100021790559092509050620001ef8888888888888862000223565b600380546001600160a01b0390921661010002610100600160a81b0319909216919091179055506200090d95505050505050565b6200023e868686868686620002d260201b620012611760201c565b601180546001600160a01b0319166001600160a01b038981169190911791829055604080516318160ddd60e01b8152905192909116916318160ddd91600480820192602092909190829003018186803b1580156200029b57600080fd5b505afa158015620002b0573d6000803e3d6000fd5b505050506040513d6020811015620002c757600080fd5b505050505050505050565b60035461010090046001600160a01b03163314620003225760405162461bcd60e51b8152600401808060200182810382526024815260200180620058526024913960400191505060405180910390fd5b600954158015620003335750600a54155b620003705760405162461bcd60e51b8152600401808060200182810382526023815260200180620058766023913960400191505060405180910390fd5b600784905583620003b35760405162461bcd60e51b8152600401808060200182810382526030815260200180620058996030913960400191505060405180910390fd5b6000620003c9876001600160e01b03620004e816565b905080156200041f576040805162461bcd60e51b815260206004820152601a60248201527f73657474696e6720636f6d7074726f6c6c6572206661696c6564000000000000604482015290519081900360640190fd5b620004326001600160e01b036200065016565b600955670de0b6b3a7640000600a5562000455866001600160e01b036200065516565b90508015620004965760405162461bcd60e51b8152600401808060200182810382526022815260200180620058c96022913960400191505060405180910390fd5b8351620004ab9060019060208701906200086b565b508251620004c19060029060208601906200086b565b50506003805460ff90921660ff199283161790556000805490911660011790555050505050565b60035460009061010090046001600160a01b0316331462000522576200051a6001603f6001600160e01b03620007fb16565b90506200064b565b60055460408051623f1ee960e11b815290516001600160a01b0392831692851691627e3dd2916004808301926020929190829003018186803b1580156200056857600080fd5b505afa1580156200057d573d6000803e3d6000fd5b505050506040513d60208110156200059457600080fd5b5051620005e8576040805162461bcd60e51b815260206004820152601c60248201527f6d61726b6572206d6574686f642072657475726e65642066616c736500000000604482015290519081900360640190fd5b600580546001600160a01b0319166001600160a01b03858116918217909255604080519284168352602083019190915280517f7ac369dbd14fa5ea3f473ed67cc9d598964a77501540ba6751eb0b3decf5870d9281900390910190a160005b9150505b919050565b435b90565b600354600090819061010090046001600160a01b03163314620006925762000689600160426001600160e01b03620007fb16565b9150506200064b565b620006a56001600160e01b036200065016565b60095414620006c55762000689600a60416001600160e01b03620007fb16565b600660009054906101000a90046001600160a01b03169050826001600160a01b0316632191f92a6040518163ffffffff1660e01b815260040160206040518083038186803b1580156200071757600080fd5b505afa1580156200072c573d6000803e3d6000fd5b505050506040513d60208110156200074357600080fd5b505162000797576040805162461bcd60e51b815260206004820152601c60248201527f6d61726b6572206d6574686f642072657475726e65642066616c736500000000604482015290519081900360640190fd5b600680546001600160a01b0319166001600160a01b03858116918217909255604080519284168352602083019190915280517fedffc32e068c7c95dfd4bdfd5c4d939a084d6b11c4199eac8436ed234d72f9269281900390910190a1600062000647565b60007f45b96fe442630264581b197e84bbada861235052c5a1aadfff9ea4e40a969aa08360108111156200082b57fe5b8360508111156200083857fe5b604080519283526020830191909152600082820152519081900360600190a18260108111156200086457fe5b9392505050565b828054600181600116156101000203166002900490600052602060002090601f016020900481019282601f10620008ae57805160ff1916838001178555620008de565b82800160010185558215620008de579182015b82811115620008de578251825591602001919060010190620008c1565b50620008ec929150620008f0565b5090565b6200065291905b80821115620008ec5760008155600101620008f7565b614f35806200091d6000396000f3fe608060405234801561001057600080fd5b50600436106102a05760003560e01c80638f840ddd11610167578063c37f68e2116100ce578063f3fdb15a11610087578063f3fdb15a146109ef578063f5e3c462146109f7578063f851a44014610a2d578063f8f9da2814610a35578063fca7820b14610a3d578063fe9c44ae14610a5a576102a0565b8063c37f68e21461090d578063c5ebeaec14610959578063db006a7514610976578063dd62ed3e14610993578063e9c714f2146109c1578063f2b3abbd146109c9576102a0565b8063a9059cbb11610120578063a9059cbb1461086d578063aa5af0fd14610899578063ae9d70b0146108a1578063b2a02ff1146108a9578063b71d1a0c146108df578063bd6d894d14610905576102a0565b80638f840ddd146106c457806395d89b41146106cc57806395dd9193146106d457806399d8c1b4146106fa578063a0712d6814610848578063a6afed9514610865576102a0565b80633af9e6691161020b578063601a0bf1116101c4578063601a0bf11461064c5780636c540baf146106695780636f307dc31461067157806370a082311461067957806373acee981461069f578063852a12e3146106a7576102a0565b80633af9e669146105cb5780633b1d21a2146105f15780633e941010146105f95780634576b5db1461061657806347bd37181461063c5780635fe3b56714610644576102a0565b8063182df0f51161025d578063182df0f5146103c75780631a31d465146103cf57806323b872dd146105275780632608f8181461055d5780632678224714610589578063313ce567146105ad576102a0565b806306fdde03146102a5578063095ea7b3146103225780630e75270214610362578063173b99041461039157806317bfdfbc1461039957806318160ddd146103bf575b600080fd5b6102ad610a62565b6040805160208082528351818301528351919283929083019185019080838360005b838110156102e75781810151838201526020016102cf565b50505050905090810190601f1680156103145780820380516001836020036101000a031916815260200191505b509250505060405180910390f35b61034e6004803603604081101561033857600080fd5b506001600160a01b038135169060200135610aef565b604080519115158252519081900360200190f35b61037f6004803603602081101561037857600080fd5b5035610b5c565b60408051918252519081900360200190f35b61037f610b72565b61037f600480360360208110156103af57600080fd5b50356001600160a01b0316610b78565b61037f610c38565b61037f610c3e565b610525600480360360e08110156103e557600080fd5b6001600160a01b03823581169260208101358216926040820135909216916060820135919081019060a081016080820135600160201b81111561042757600080fd5b82018360208201111561043957600080fd5b803590602001918460018302840111600160201b8311171561045a57600080fd5b91908080601f0160208091040260200160405190810160405280939291908181526020018383808284376000920191909152509295949360208101935035915050600160201b8111156104ac57600080fd5b8201836020820111156104be57600080fd5b803590602001918460018302840111600160201b831117156104df57600080fd5b91908080601f0160208091040260200160405190810160405280939291908181526020018383808284376000920191909152509295505050903560ff169150610ca19050565b005b61034e6004803603606081101561053d57600080fd5b506001600160a01b03813581169160208101359091169060400135610d40565b61037f6004803603604081101561057357600080fd5b506001600160a01b038135169060200135610db2565b610591610dc8565b604080516001600160a01b039092168252519081900360200190f35b6105b5610dd7565b6040805160ff9092168252519081900360200190f35b61037f600480360360208110156105e157600080fd5b50356001600160a01b0316610de0565b61037f610e96565b61037f6004803603602081101561060f57600080fd5b5035610ea5565b61037f6004803603602081101561062c57600080fd5b50356001600160a01b0316610eb0565b61037f611005565b61059161100b565b61037f6004803603602081101561066257600080fd5b503561101a565b61037f6110b5565b6105916110bb565b61037f6004803603602081101561068f57600080fd5b50356001600160a01b03166110ca565b61037f6110e5565b61037f600480360360208110156106bd57600080fd5b503561119b565b61037f6111a6565b6102ad6111ac565b61037f600480360360208110156106ea57600080fd5b50356001600160a01b0316611204565b610525600480360360c081101561071057600080fd5b6001600160a01b03823581169260208101359091169160408201359190810190608081016060820135600160201b81111561074a57600080fd5b82018360208201111561075c57600080fd5b803590602001918460018302840111600160201b8311171561077d57600080fd5b91908080601f0160208091040260200160405190810160405280939291908181526020018383808284376000920191909152509295949360208101935035915050600160201b8111156107cf57600080fd5b8201836020820111156107e157600080fd5b803590602001918460018302840111600160201b8311171561080257600080fd5b91908080601f0160208091040260200160405190810160405280939291908181526020018383808284376000920191909152509295505050903560ff1691506112619050565b61037f6004803603602081101561085e57600080fd5b5035611448565b61037f611454565b61034e6004803603604081101561088357600080fd5b506001600160a01b0381351690602001356117ac565b61037f61181d565b61037f611823565b61037f600480360360608110156108bf57600080fd5b506001600160a01b038135811691602081013590911690604001356118c2565b61037f600480360360208110156108f557600080fd5b50356001600160a01b0316611933565b61037f6119bf565b6109336004803603602081101561092357600080fd5b50356001600160a01b0316611a7b565b604080519485526020850193909352838301919091526060830152519081900360800190f35b61037f6004803603602081101561096f57600080fd5b5035611b10565b61037f6004803603602081101561098c57600080fd5b5035611b1b565b61037f600480360360408110156109a957600080fd5b506001600160a01b0381358116916020013516611b26565b61037f611b51565b61037f600480360360208110156109df57600080fd5b50356001600160a01b0316611c54565b610591611c8e565b61037f60048036036060811015610a0d57600080fd5b506001600160a01b03813581169160208101359160409091013516611c9d565b610591611cb5565b61037f611cc9565b61037f60048036036020811015610a5357600080fd5b5035611d2d565b61034e611dab565b60018054604080516020600284861615610100026000190190941693909304601f81018490048402820184019092528181529291830182828015610ae75780601f10610abc57610100808354040283529160200191610ae7565b820191906000526020600020905b815481529060010190602001808311610aca57829003601f168201915b505050505081565b336000818152600f602090815260408083206001600160a01b03871680855290835281842086905581518681529151939493909284927f8c5be1e5ebec7d5bd14f71427d1e84f3dd0314c0f7b2291e5b200ac8c7c3b925929081900390910190a360019150505b92915050565b600080610b6883611db0565b509150505b919050565b60085481565b6000805460ff16610bbd576040805162461bcd60e51b815260206004820152600a6024820152691c994b595b9d195c995960b21b604482015290519081900360640190fd5b6000805460ff19168155610bcf611454565b14610c1a576040805162461bcd60e51b81526020600482015260166024820152751858d8dc9d59481a5b9d195c995cdd0819985a5b195960521b604482015290519081900360640190fd5b610c2382611204565b90505b6000805460ff19166001179055919050565b600d5481565b6000806000610c4b611e59565b90925090506000826003811115610c5e57fe5b14610c9a5760405162461bcd60e51b8152600401808060200182810382526035815260200180614e4c6035913960400191505060405180910390fd5b9150505b90565b610caf868686868686611261565b601180546001600160a01b0319166001600160a01b038981169190911791829055604080516318160ddd60e01b8152905192909116916318160ddd91600480820192602092909190829003018186803b158015610d0b57600080fd5b505afa158015610d1f573d6000803e3d6000fd5b505050506040513d6020811015610d3557600080fd5b505050505050505050565b6000805460ff16610d85576040805162461bcd60e51b815260206004820152600a6024820152691c994b595b9d195c995960b21b604482015290519081900360640190fd5b6000805460ff19168155610d9b33868686611f08565b1490506000805460ff191660011790559392505050565b600080610dbf8484612216565b50949350505050565b6004546001600160a01b031681565b60035460ff1681565b6000610dea614b3a565b6040518060200160405280610dfd6119bf565b90526001600160a01b0384166000908152600e6020526040812054919250908190610e299084906122c1565b90925090506000826003811115610e3c57fe5b14610e8e576040805162461bcd60e51b815260206004820152601f60248201527f62616c616e636520636f756c64206e6f742062652063616c63756c6174656400604482015290519081900360640190fd5b949350505050565b6000610ea0612315565b905090565b6000610b5682612395565b60035460009061010090046001600160a01b03163314610edd57610ed66001603f612429565b9050610b6d565b60055460408051623f1ee960e11b815290516001600160a01b0392831692851691627e3dd2916004808301926020929190829003018186803b158015610f2257600080fd5b505afa158015610f36573d6000803e3d6000fd5b505050506040513d6020811015610f4c57600080fd5b5051610f9f576040805162461bcd60e51b815260206004820152601c60248201527f6d61726b6572206d6574686f642072657475726e65642066616c736500000000604482015290519081900360640190fd5b600580546001600160a01b0319166001600160a01b03858116918217909255604080519284168352602083019190915280517f7ac369dbd14fa5ea3f473ed67cc9d598964a77501540ba6751eb0b3decf5870d9281900390910190a160005b9392505050565b600b5481565b6005546001600160a01b031681565b6000805460ff1661105f576040805162461bcd60e51b815260206004820152600a6024820152691c994b595b9d195c995960b21b604482015290519081900360640190fd5b6000805460ff19168155611071611454565b905080156110975761108f81601081111561108857fe5b6030612429565b915050610c26565b6110a08361248f565b9150506000805460ff19166001179055919050565b60095481565b6011546001600160a01b031681565b6001600160a01b03166000908152600e602052604090205490565b6000805460ff1661112a576040805162461bcd60e51b815260206004820152600a6024820152691c994b595b9d195c995960b21b604482015290519081900360640190fd5b6000805460ff1916815561113c611454565b14611187576040805162461bcd60e51b81526020600482015260166024820152751858d8dc9d59481a5b9d195c995cdd0819985a5b195960521b604482015290519081900360640190fd5b50600b546000805460ff1916600117905590565b6000610b56826125c2565b600c5481565b6002805460408051602060018416156101000260001901909316849004601f81018490048402820184019092528181529291830182828015610ae75780601f10610abc57610100808354040283529160200191610ae7565b600080600061121284612643565b9092509050600082600381111561122557fe5b14610ffe5760405162461bcd60e51b8152600401808060200182810382526037815260200180614d576037913960400191505060405180910390fd5b60035461010090046001600160a01b031633146112af5760405162461bcd60e51b8152600401808060200182810382526024815260200180614c936024913960400191505060405180910390fd5b6009541580156112bf5750600a54155b6112fa5760405162461bcd60e51b8152600401808060200182810382526023815260200180614cb76023913960400191505060405180910390fd5b60078490558361133b5760405162461bcd60e51b8152600401808060200182810382526030815260200180614cda6030913960400191505060405180910390fd5b600061134687610eb0565b9050801561139b576040805162461bcd60e51b815260206004820152601a60248201527f73657474696e6720636f6d7074726f6c6c6572206661696c6564000000000000604482015290519081900360640190fd5b6113a36126f7565b600955670de0b6b3a7640000600a556113bb866126fb565b905080156113fa5760405162461bcd60e51b8152600401808060200182810382526022815260200180614d0a6022913960400191505060405180910390fd5b835161140d906001906020870190614b4d565b508251611421906002906020860190614b4d565b50506003805460ff90921660ff199283161790556000805490911660011790555050505050565b600080610b6883612870565b60008061145f6126f7565b6009549091508082141561147857600092505050610c9e565b6000611482612315565b600b54600c54600a54600654604080516315f2405360e01b815260048101879052602481018690526044810185905290519596509394929391926000926001600160a01b03909216916315f24053916064808301926020929190829003018186803b1580156114f057600080fd5b505afa158015611504573d6000803e3d6000fd5b505050506040513d602081101561151a57600080fd5b5051905065048c27395000811115611579576040805162461bcd60e51b815260206004820152601c60248201527f626f72726f772072617465206973206162737572646c79206869676800000000604482015290519081900360640190fd5b60008061158689896128f1565b9092509050600082600381111561159957fe5b146115eb576040805162461bcd60e51b815260206004820152601f60248201527f636f756c64206e6f742063616c63756c61746520626c6f636b2064656c746100604482015290519081900360640190fd5b6115f3614b3a565b60008060008061161160405180602001604052808a81525087612914565b9097509450600087600381111561162457fe5b14611656576116416009600689600381111561163c57fe5b61297c565b9e505050505050505050505050505050610c9e565b611660858c6122c1565b9097509350600087600381111561167357fe5b1461168b576116416009600189600381111561163c57fe5b611695848c6129e2565b909750925060008760038111156116a857fe5b146116c0576116416009600489600381111561163c57fe5b6116db6040518060200160405280600854815250858c612a08565b909750915060008760038111156116ee57fe5b14611706576116416009600589600381111561163c57fe5b611711858a8b612a08565b9097509050600087600381111561172457fe5b1461173c576116416009600389600381111561163c57fe5b60098e9055600a819055600b839055600c829055604080518d8152602081018690528082018390526060810185905290517f4dec04e750ca11537cabcd8a9eab06494de08da3735bc8871cd41250e190bc049181900360800190a160009e50505050505050505050505050505090565b6000805460ff166117f1576040805162461bcd60e51b815260206004820152600a6024820152691c994b595b9d195c995960b21b604482015290519081900360640190fd5b6000805460ff1916815561180733338686611f08565b1490506000805460ff1916600117905592915050565b600a5481565b6006546000906001600160a01b031663b816881661183f612315565b600b54600c546008546040518563ffffffff1660e01b81526004018085815260200184815260200183815260200182815260200194505050505060206040518083038186803b15801561189157600080fd5b505afa1580156118a5573d6000803e3d6000fd5b505050506040513d60208110156118bb57600080fd5b5051905090565b6000805460ff16611907576040805162461bcd60e51b815260206004820152600a6024820152691c994b595b9d195c995960b21b604482015290519081900360640190fd5b6000805460ff1916905561191d33858585612a64565b90506000805460ff191660011790559392505050565b60035460009061010090046001600160a01b0316331461195957610ed660016045612429565b600480546001600160a01b038481166001600160a01b0319831681179093556040805191909216808252602082019390935281517fca4f2f25d0898edd99413412fb94012f9e54ec8142f9b093e7720646a95b16a9929181900390910190a16000610ffe565b6000805460ff16611a04576040805162461bcd60e51b815260206004820152600a6024820152691c994b595b9d195c995960b21b604482015290519081900360640190fd5b6000805460ff19168155611a16611454565b14611a61576040805162461bcd60e51b81526020600482015260166024820152751858d8dc9d59481a5b9d195c995cdd0819985a5b195960521b604482015290519081900360640190fd5b611a69610c3e565b90506000805460ff1916600117905590565b6001600160a01b0381166000908152600e6020526040812054819081908190818080611aa689612643565b935090506000816003811115611ab857fe5b14611ad65760095b975060009650869550859450611b099350505050565b611ade611e59565b925090506000816003811115611af057fe5b14611afc576009611ac0565b5060009650919450925090505b9193509193565b6000610b5682612cca565b6000610b5682612d49565b6001600160a01b039182166000908152600f6020908152604080832093909416825291909152205490565b6004546000906001600160a01b031633141580611b6c575033155b15611b8457611b7d60016000612429565b9050610c9e565b60038054600480546001600160a01b03818116610100818102610100600160a81b0319871617968790556001600160a01b031990931690935560408051948390048216808652929095041660208401528351909391927ff9ffabca9c8276e99321725bcb43fb076a6c66a54b7f21c4e8146d8519b417dc92908290030190a1600454604080516001600160a01b038085168252909216602083015280517fca4f2f25d0898edd99413412fb94012f9e54ec8142f9b093e7720646a95b16a99281900390910190a160009250505090565b600080611c5f611454565b90508015611c8557611c7d816010811115611c7657fe5b6040612429565b915050610b6d565b610ffe836126fb565b6006546001600160a01b031681565b600080611cab858585612dc3565b5095945050505050565b60035461010090046001600160a01b031681565b6006546000906001600160a01b03166315f24053611ce5612315565b600b54600c546040518463ffffffff1660e01b815260040180848152602001838152602001828152602001935050505060206040518083038186803b15801561189157600080fd5b6000805460ff16611d72576040805162461bcd60e51b815260206004820152600a6024820152691c994b595b9d195c995960b21b604482015290519081900360640190fd5b6000805460ff19168155611d84611454565b90508015611da25761108f816010811115611d9b57fe5b6046612429565b6110a083612ef5565b600181565b60008054819060ff16611df7576040805162461bcd60e51b815260206004820152600a6024820152691c994b595b9d195c995960b21b604482015290519081900360640190fd5b6000805460ff19168155611e09611454565b90508015611e3457611e27816010811115611e2057fe5b6036612429565b925060009150611e459050565b611e3f333386612f9d565b92509250505b6000805460ff191660011790559092909150565b600d54600090819080611e7457505060075460009150611f04565b6000611e7e612315565b90506000611e8a614b3a565b6000611e9b84600b54600c54613382565b935090506000816003811115611ead57fe5b14611ec257955060009450611f049350505050565b611ecc83866133c0565b925090506000816003811115611ede57fe5b14611ef357955060009450611f049350505050565b5051600095509350611f0492505050565b9091565b600554604080516317b9b84b60e31b81523060048201526001600160a01b03868116602483015285811660448301526064820185905291516000938493169163bdcdc25891608480830192602092919082900301818787803b158015611f6d57600080fd5b505af1158015611f81573d6000803e3d6000fd5b505050506040513d6020811015611f9757600080fd5b505190508015611fb657611fae6003604a8361297c565b915050610e8e565b836001600160a01b0316856001600160a01b03161415611fdc57611fae6002604b612429565b60006001600160a01b038781169087161415611ffb5750600019612023565b506001600160a01b038086166000908152600f60209081526040808320938a16835292905220545b60008060008061203385896128f1565b9094509250600084600381111561204657fe5b14612064576120576009604b612429565b9650505050505050610e8e565b6001600160a01b038a166000908152600e602052604090205461208790896128f1565b9094509150600084600381111561209a57fe5b146120ab576120576009604c612429565b6001600160a01b0389166000908152600e60205260409020546120ce90896129e2565b909450905060008460038111156120e157fe5b146120f2576120576009604d612429565b6001600160a01b03808b166000908152600e6020526040808220859055918b16815220819055600019851461214a576001600160a01b03808b166000908152600f60209081526040808320938f168352929052208390555b886001600160a01b03168a6001600160a01b0316600080516020614dc88339815191528a6040518082815260200191505060405180910390a36005546040805163352b4a3f60e11b81523060048201526001600160a01b038d811660248301528c81166044830152606482018c905291519190921691636a56947e91608480830192600092919082900301818387803b1580156121e657600080fd5b505af11580156121fa573d6000803e3d6000fd5b5060009250612207915050565b9b9a5050505050505050505050565b60008054819060ff1661225d576040805162461bcd60e51b815260206004820152600a6024820152691c994b595b9d195c995960b21b604482015290519081900360640190fd5b6000805460ff1916815561226f611454565b9050801561229a5761228d81601081111561228657fe5b6035612429565b9250600091506122ab9050565b6122a5338686612f9d565b92509250505b6000805460ff1916600117905590939092509050565b60008060006122ce614b3a565b6122d88686612914565b909250905060008260038111156122eb57fe5b146122fc575091506000905061230e565b600061230782613470565b9350935050505b9250929050565b601154604080516370a0823160e01b815230600482015290516000926001600160a01b03169182916370a0823191602480820192602092909190829003018186803b15801561236357600080fd5b505afa158015612377573d6000803e3d6000fd5b505050506040513d602081101561238d57600080fd5b505191505090565b6000805460ff166123da576040805162461bcd60e51b815260206004820152600a6024820152691c994b595b9d195c995960b21b604482015290519081900360640190fd5b6000805460ff191681556123ec611454565b9050801561240a5761108f81601081111561240357fe5b604e612429565b6124138361347f565b509150506000805460ff19166001179055919050565b60007f45b96fe442630264581b197e84bbada861235052c5a1aadfff9ea4e40a969aa083601081111561245857fe5b83605081111561246457fe5b604080519283526020830191909152600082820152519081900360600190a1826010811115610ffe57fe5b600354600090819061010090046001600160a01b031633146124b757611c7d60016031612429565b6124bf6126f7565b600954146124d357611c7d600a6033612429565b826124dc612315565b10156124ee57611c7d600e6032612429565b600c5483111561250457611c7d60026034612429565b50600c548281039081111561254a5760405162461bcd60e51b8152600401808060200182810382526024815260200180614edd6024913960400191505060405180910390fd5b600c81905560035461256a9061010090046001600160a01b031684613567565b600354604080516101009092046001600160a01b0316825260208201859052818101839052517f3bad0c59cf2f06e7314077049f48a93578cd16f5ef92329f1dab1420a99c177e916060908290030190a16000610ffe565b6000805460ff16612607576040805162461bcd60e51b815260206004820152600a6024820152691c994b595b9d195c995960b21b604482015290519081900360640190fd5b6000805460ff19168155612619611454565b905080156126375761108f81601081111561263057fe5b6027612429565b6110a03360008561365e565b6001600160a01b03811660009081526010602052604081208054829182918291829161267a5750600094508493506126f292505050565b61268a8160000154600a54613b25565b9094509250600084600381111561269d57fe5b146126b25750919350600092506126f2915050565b6126c0838260010154613b64565b909450915060008460038111156126d357fe5b146126e85750919350600092506126f2915050565b5060009450925050505b915091565b4390565b600354600090819061010090046001600160a01b0316331461272357611c7d60016042612429565b61272b6126f7565b6009541461273f57611c7d600a6041612429565b600660009054906101000a90046001600160a01b03169050826001600160a01b0316632191f92a6040518163ffffffff1660e01b815260040160206040518083038186803b15801561279057600080fd5b505afa1580156127a4573d6000803e3d6000fd5b505050506040513d60208110156127ba57600080fd5b505161280d576040805162461bcd60e51b815260206004820152601c60248201527f6d61726b6572206d6574686f642072657475726e65642066616c736500000000604482015290519081900360640190fd5b600680546001600160a01b0319166001600160a01b03858116918217909255604080519284168352602083019190915280517fedffc32e068c7c95dfd4bdfd5c4d939a084d6b11c4199eac8436ed234d72f9269281900390910190a16000610ffe565b60008054819060ff166128b7576040805162461bcd60e51b815260206004820152600a6024820152691c994b595b9d195c995960b21b604482015290519081900360640190fd5b6000805460ff191681556128c9611454565b905080156128e757611e278160108111156128e057fe5b601e612429565b611e3f3385613b8f565b60008083831161290857506000905081830361230e565b5060039050600061230e565b600061291e614b3a565b60008061292f866000015186613b25565b9092509050600082600381111561294257fe5b146129615750604080516020810190915260008152909250905061230e565b60408051602081019091529081526000969095509350505050565b60007f45b96fe442630264581b197e84bbada861235052c5a1aadfff9ea4e40a969aa08460108111156129ab57fe5b8460508111156129b757fe5b604080519283526020830191909152818101859052519081900360600190a1836010811115610e8e57fe5b6000808383018481106129fa5760009250905061230e565b50600291506000905061230e565b6000806000612a15614b3a565b612a1f8787612914565b90925090506000826003811115612a3257fe5b14612a435750915060009050612a5c565b612a55612a4f82613470565b866129e2565b9350935050505b935093915050565b6005546040805163d02f735160e01b81523060048201526001600160a01b038781166024830152868116604483015285811660648301526084820185905291516000938493169163d02f73519160a480830192602092919082900301818787803b158015612ad157600080fd5b505af1158015612ae5573d6000803e3d6000fd5b505050506040513d6020811015612afb57600080fd5b505190508015612b1257611fae6003601b8361297c565b846001600160a01b0316846001600160a01b03161415612b3857611fae6006601c612429565b6001600160a01b0384166000908152600e602052604081205481908190612b5f90876128f1565b90935091506000836003811115612b7257fe5b14612b9557612b8a6009601a85600381111561163c57fe5b945050505050610e8e565b6001600160a01b0388166000908152600e6020526040902054612bb890876129e2565b90935090506000836003811115612bcb57fe5b14612be357612b8a6009601985600381111561163c57fe5b6001600160a01b038088166000818152600e60209081526040808320879055938c168083529184902085905583518a815293519193600080516020614dc8833981519152929081900390910190a360055460408051636d35bf9160e01b81523060048201526001600160a01b038c811660248301528b811660448301528a81166064830152608482018a905291519190921691636d35bf919160a480830192600092919082900301818387803b158015612c9c57600080fd5b505af1158015612cb0573d6000803e3d6000fd5b5060009250612cbd915050565b9998505050505050505050565b6000805460ff16612d0f576040805162461bcd60e51b815260206004820152600a6024820152691c994b595b9d195c995960b21b604482015290519081900360640190fd5b6000805460ff19168155612d21611454565b90508015612d3f5761108f816010811115612d3857fe5b6008612429565b6110a03384613fee565b6000805460ff16612d8e576040805162461bcd60e51b815260206004820152600a6024820152691c994b595b9d195c995960b21b604482015290519081900360640190fd5b6000805460ff19168155612da0611454565b90508015612db75761108f81601081111561263057fe5b6110a03384600061365e565b60008054819060ff16612e0a576040805162461bcd60e51b815260206004820152600a6024820152691c994b595b9d195c995960b21b604482015290519081900360640190fd5b6000805460ff19168155612e1c611454565b90508015612e4757612e3a816010811115612e3357fe5b600f612429565b925060009150612ede9050565b836001600160a01b031663a6afed956040518163ffffffff1660e01b8152600401602060405180830381600087803b158015612e8257600080fd5b505af1158015612e96573d6000803e3d6000fd5b505050506040513d6020811015612eac57600080fd5b505190508015612ecc57612e3a816010811115612ec557fe5b6010612429565b612ed8338787876142fc565b92509250505b6000805460ff191660011790559094909350915050565b60035460009061010090046001600160a01b03163314612f1b57610ed660016047612429565b612f236126f7565b60095414612f3757610ed6600a6048612429565b670de0b6b3a7640000821115612f5357610ed660026049612429565b6008805490839055604080518281526020810185905281517faaa68312e2ea9d50e16af5068410ab56e1a1fd06037b1a35664812c30f821460929181900390910190a16000610ffe565b60055460408051631200453160e11b81523060048201526001600160a01b0386811660248301528581166044830152606482018590529151600093849384939116916324008a629160848082019260209290919082900301818787803b15801561300657600080fd5b505af115801561301a573d6000803e3d6000fd5b505050506040513d602081101561303057600080fd5b50519050801561305457613047600360388361297c565b925060009150612a5c9050565b61305c6126f7565b6009541461307057613047600a6039612429565b613078614bcb565b6001600160a01b03861660009081526010602052604090206001015460608201526130a286612643565b60808301819052602083018260038111156130b957fe5b60038111156130c457fe5b90525060009050816020015160038111156130db57fe5b14613105576130f7600960378360200151600381111561163c57fe5b935060009250612a5c915050565b60001985141561311e5760808101516040820152613126565b604081018590525b61313487826040015161487f565b60e082018190526080820151613149916128f1565b60a083018190526020830182600381111561316057fe5b600381111561316b57fe5b905250600090508160200151600381111561318257fe5b146131be5760405162461bcd60e51b815260040180806020018281038252603a815260200180614d8e603a913960400191505060405180910390fd5b6131ce600b548260e001516128f1565b60c08301819052602083018260038111156131e557fe5b60038111156131f057fe5b905250600090508160200151600381111561320757fe5b146132435760405162461bcd60e51b8152600401808060200182810382526031815260200180614de86031913960400191505060405180910390fd5b60a080820180516001600160a01b03808a16600081815260106020908152604091829020948555600a5460019095019490945560c0870151600b81905560e088015195518251948f16855294840192909252828101949094526060820192909252608081019190915290517f1a2a22cb034d26d1854bdc6666a5b91fe25efbbb5dcad3b0355478d6f5c362a1929181900390910190a160055460e0820151606083015160408051631ededc9160e01b81523060048201526001600160a01b038c811660248301528b8116604483015260648201949094526084810192909252519190921691631ededc919160a480830192600092919082900301818387803b15801561334e57600080fd5b505af1158015613362573d6000803e3d6000fd5b506000925061336f915050565b8160e00151935093505050935093915050565b60008060008061339287876129e2565b909250905060008260038111156133a557fe5b146133b65750915060009050612a5c565b612a5581866128f1565b60006133ca614b3a565b6000806133df86670de0b6b3a7640000613b25565b909250905060008260038111156133f257fe5b146134115750604080516020810190915260008152909250905061230e565b60008061341e8388613b64565b9092509050600082600381111561343157fe5b146134535750604080516020810190915260008152909450925061230e915050565b604080516020810190915290815260009890975095505050505050565b51670de0b6b3a7640000900490565b60008060008061348d6126f7565b600954146134ac576134a1600a604f612429565b935091506126f29050565b6134b6338661487f565b905080600c54019150600c54821015613516576040805162461bcd60e51b815260206004820181905260248201527f61646420726573657276657320756e6578706563746564206f766572666c6f77604482015290519081900360640190fd5b600c829055604080513381526020810183905280820184905290517fa91e67c5ea634cd43a12c5a482724b03de01e85ca68702a53d0c2f45cb7c1dc59181900360600190a160009350915050915091565b6011546040805163a9059cbb60e01b81526001600160a01b0385811660048301526024820185905291519190921691829163a9059cbb9160448082019260009290919082900301818387803b1580156135bf57600080fd5b505af11580156135d3573d6000803e3d6000fd5b5050505060003d600081146135ef57602081146135f957600080fd5b6000199150613605565b60206000803e60005191505b5080613658576040805162461bcd60e51b815260206004820152601960248201527f544f4b454e5f5452414e534645525f4f55545f4641494c454400000000000000604482015290519081900360640190fd5b50505050565b600082158061366b575081155b6136a65760405162461bcd60e51b8152600401808060200182810382526034815260200180614ea96034913960400191505060405180910390fd5b6136ae614c11565b6136b6611e59565b60408301819052602083018260038111156136cd57fe5b60038111156136d857fe5b90525060009050816020015160038111156136ef57fe5b146137135761370b6009602b8360200151600381111561163c57fe5b915050610ffe565b831561379457606081018490526040805160208101825290820151815261373a90856122c1565b608083018190526020830182600381111561375157fe5b600381111561375c57fe5b905250600090508160200151600381111561377357fe5b1461378f5761370b600960298360200151600381111561163c57fe5b61380d565b6137b08360405180602001604052808460400151815250614ac9565b60608301819052602083018260038111156137c757fe5b60038111156137d257fe5b90525060009050816020015160038111156137e957fe5b146138055761370b6009602a8360200151600381111561163c57fe5b608081018390525b60055460608201516040805163eabe7d9160e01b81523060048201526001600160a01b03898116602483015260448201939093529051600093929092169163eabe7d919160648082019260209290919082900301818787803b15801561387257600080fd5b505af1158015613886573d6000803e3d6000fd5b505050506040513d602081101561389c57600080fd5b5051905080156138bc576138b3600360288361297c565b92505050610ffe565b6138c46126f7565b600954146138d8576138b3600a602c612429565b6138e8600d5483606001516128f1565b60a08401819052602084018260038111156138ff57fe5b600381111561390a57fe5b905250600090508260200151600381111561392157fe5b1461393d576138b36009602e8460200151600381111561163c57fe5b6001600160a01b0386166000908152600e6020526040902054606083015161396591906128f1565b60c084018190526020840182600381111561397c57fe5b600381111561398757fe5b905250600090508260200151600381111561399e57fe5b146139ba576138b36009602d8460200151600381111561163c57fe5b81608001516139c7612315565b10156139d9576138b3600e602f612429565b6139e7868360800151613567565b60a0820151600d5560c08201516001600160a01b0387166000818152600e6020908152604091829020939093556060850151815190815290513093600080516020614dc8833981519152928290030190a36080820151606080840151604080516001600160a01b038b168152602081019490945283810191909152517fe5b754fb1abb7f01b499791d0b820ae3b6af3424ac1c59768edb53f4ec31a9299281900390910190a160055460808301516060840151604080516351dff98960e01b81523060048201526001600160a01b038b81166024830152604482019490945260648101929092525191909216916351dff98991608480830192600092919082900301818387803b158015613afa57600080fd5b505af1158015613b0e573d6000803e3d6000fd5b5060009250613b1b915050565b9695505050505050565b60008083613b385750600090508061230e565b83830283858281613b4557fe5b0414613b595750600291506000905061230e565b60009250905061230e565b60008082613b78575060019050600061230e565b6000838581613b8357fe5b04915091509250929050565b60055460408051634ef4c3e160e01b81523060048201526001600160a01b03858116602483015260448201859052915160009384938493911691634ef4c3e19160648082019260209290919082900301818787803b158015613bf057600080fd5b505af1158015613c04573d6000803e3d6000fd5b505050506040513d6020811015613c1a57600080fd5b505190508015613c3e57613c316003601f8361297c565b92506000915061230e9050565b613c466126f7565b60095414613c5a57613c31600a6022612429565b613c62614c11565b613c6a611e59565b6040830181905260208301826003811115613c8157fe5b6003811115613c8c57fe5b9052506000905081602001516003811115613ca357fe5b14613ccd57613cbf600960218360200151600381111561163c57fe5b93506000925061230e915050565b613cd7868661487f565b60c0820181905260408051602081018252908301518152613cf89190614ac9565b6060830181905260208301826003811115613d0f57fe5b6003811115613d1a57fe5b9052506000905081602001516003811115613d3157fe5b14613d83576040805162461bcd60e51b815260206004820181905260248201527f4d494e545f45584348414e47455f43414c43554c4154494f4e5f4641494c4544604482015290519081900360640190fd5b613d93600d5482606001516129e2565b6080830181905260208301826003811115613daa57fe5b6003811115613db557fe5b9052506000905081602001516003811115613dcc57fe5b14613e085760405162461bcd60e51b8152600401808060200182810382526028815260200180614e816028913960400191505060405180910390fd5b6001600160a01b0386166000908152600e60205260409020546060820151613e3091906129e2565b60a0830181905260208301826003811115613e4757fe5b6003811115613e5257fe5b9052506000905081602001516003811115613e6957fe5b14613ea55760405162461bcd60e51b815260040180806020018281038252602b815260200180614d2c602b913960400191505060405180910390fd5b6080810151600d5560a08101516001600160a01b0387166000818152600e60209081526040918290209390935560c084015160608086015183519485529484019190915282820193909352517f4c209b5fc8ad50758f13e2e1088ba56a560dff690a1c6fef26394f4c03821c4f929181900390910190a1606081015160408051918252516001600160a01b038816913091600080516020614dc88339815191529181900360200190a360055460c08201516060830151604080516341c728b960e01b81523060048201526001600160a01b038b81166024830152604482019490945260648101929092525191909216916341c728b991608480830192600092919082900301818387803b158015613fbb57600080fd5b505af1158015613fcf573d6000803e3d6000fd5b5060009250613fdc915050565b8160c001519350935050509250929050565b6005546040805163368f515360e21b81523060048201526001600160a01b0385811660248301526044820185905291516000938493169163da3d454c91606480830192602092919082900301818787803b15801561404b57600080fd5b505af115801561405f573d6000803e3d6000fd5b505050506040513d602081101561407557600080fd5b5051905080156140945761408c6003600e8361297c565b915050610b56565b61409c6126f7565b600954146140af5761408c600a80612429565b826140b8612315565b10156140ca5761408c600e6009612429565b6140d2614c4f565b6140db85612643565b60208301819052828260038111156140ef57fe5b60038111156140fa57fe5b905250600090508151600381111561410e57fe5b146141335761412a600960078360000151600381111561163c57fe5b92505050610b56565b6141418160200151856129e2565b604083018190528282600381111561415557fe5b600381111561416057fe5b905250600090508151600381111561417457fe5b146141905761412a6009600c8360000151600381111561163c57fe5b61419c600b54856129e2565b60608301819052828260038111156141b057fe5b60038111156141bb57fe5b90525060009050815160038111156141cf57fe5b146141eb5761412a6009600b8360000151600381111561163c57fe5b6141f58585613567565b604080820180516001600160a01b03881660008181526010602090815290859020928355600a54600190930192909255606080860151600b81905593518551928352928201899052818501929092529081019190915290517f13ed6866d4e1ee6da46f845c46d7e54120883d75c5ea9a2dacc1c4ca8984ab809181900360800190a160055460408051635c77860560e01b81523060048201526001600160a01b0388811660248301526044820188905291519190921691635c77860591606480830192600092919082900301818387803b1580156142d257600080fd5b505af11580156142e6573d6000803e3d6000fd5b50600092506142f3915050565b95945050505050565b60055460408051632fe3f38f60e11b81523060048201526001600160a01b0384811660248301528781166044830152868116606483015260848201869052915160009384938493911691635fc7e71e9160a48082019260209290919082900301818787803b15801561436d57600080fd5b505af1158015614381573d6000803e3d6000fd5b505050506040513d602081101561439757600080fd5b5051905080156143bb576143ae600360128361297c565b9250600091506148769050565b6143c36126f7565b600954146143d7576143ae600a6016612429565b6143df6126f7565b846001600160a01b0316636c540baf6040518163ffffffff1660e01b815260040160206040518083038186803b15801561441857600080fd5b505afa15801561442c573d6000803e3d6000fd5b505050506040513d602081101561444257600080fd5b505114614455576143ae600a6011612429565b866001600160a01b0316866001600160a01b0316141561447b576143ae60066017612429565b8461448c576143ae60076015612429565b6000198514156144a2576143ae60076014612429565b6000806144b0898989612f9d565b909250905081156144e0576144d18260108111156144ca57fe5b6018612429565b94506000935061487692505050565b6005546040805163c488847b60e01b81523060048201526001600160a01b038981166024830152604482018590528251600094859492169263c488847b926064808301939192829003018186803b15801561453a57600080fd5b505afa15801561454e573d6000803e3d6000fd5b505050506040513d604081101561456457600080fd5b508051602090910151909250905081156145af5760405162461bcd60e51b8152600401808060200182810382526033815260200180614e196033913960400191505060405180910390fd5b80886001600160a01b03166370a082318c6040518263ffffffff1660e01b815260040180826001600160a01b03166001600160a01b0316815260200191505060206040518083038186803b15801561460657600080fd5b505afa15801561461a573d6000803e3d6000fd5b505050506040513d602081101561463057600080fd5b50511015614685576040805162461bcd60e51b815260206004820152601860248201527f4c49515549444154455f5345495a455f544f4f5f4d5543480000000000000000604482015290519081900360640190fd5b60006001600160a01b0389163014156146ab576146a4308d8d85612a64565b9050614735565b6040805163b2a02ff160e01b81526001600160a01b038e811660048301528d81166024830152604482018590529151918b169163b2a02ff1916064808201926020929091908290030181600087803b15801561470657600080fd5b505af115801561471a573d6000803e3d6000fd5b505050506040513d602081101561473057600080fd5b505190505b801561477f576040805162461bcd60e51b81526020600482015260146024820152731d1bdad95b881cd95a5e9d5c994819985a5b195960621b604482015290519081900360640190fd5b604080516001600160a01b03808f168252808e1660208301528183018790528b1660608201526080810184905290517f298637f684da70674f26509b10f07ec2fbc77a335ab1e7d6215a4b2484d8bb529181900360a00190a1600554604080516347ef3b3b60e01b81523060048201526001600160a01b038c811660248301528f811660448301528e811660648301526084820188905260a48201869052915191909216916347ef3b3b9160c480830192600092919082900301818387803b15801561484a57600080fd5b505af115801561485e573d6000803e3d6000fd5b506000925061486b915050565b975092955050505050505b94509492505050565b601154604080516370a0823160e01b815230600482015290516000926001600160a01b031691839183916370a08231916024808301926020929190829003018186803b1580156148ce57600080fd5b505afa1580156148e2573d6000803e3d6000fd5b505050506040513d60208110156148f857600080fd5b5051604080516323b872dd60e01b81526001600160a01b038881166004830152306024830152604482018890529151929350908416916323b872dd9160648082019260009290919082900301818387803b15801561495557600080fd5b505af1158015614969573d6000803e3d6000fd5b5050505060003d60008114614985576020811461498f57600080fd5b600019915061499b565b60206000803e60005191505b50806149ee576040805162461bcd60e51b815260206004820152601860248201527f544f4b454e5f5452414e534645525f494e5f4641494c45440000000000000000604482015290519081900360640190fd5b601154604080516370a0823160e01b815230600482015290516000926001600160a01b0316916370a08231916024808301926020929190829003018186803b158015614a3957600080fd5b505afa158015614a4d573d6000803e3d6000fd5b505050506040513d6020811015614a6357600080fd5b5051905082811015614abc576040805162461bcd60e51b815260206004820152601a60248201527f544f4b454e5f5452414e534645525f494e5f4f564552464c4f57000000000000604482015290519081900360640190fd5b9190910395945050505050565b6000806000614ad6614b3a565b6122d886866000614ae5614b3a565b600080614afa670de0b6b3a764000087613b25565b90925090506000826003811115614b0d57fe5b14614b2c5750604080516020810190915260008152909250905061230e565b6123078186600001516133c0565b6040518060200160405280600081525090565b828054600181600116156101000203166002900490600052602060002090601f016020900481019282601f10614b8e57805160ff1916838001178555614bbb565b82800160010185558215614bbb579182015b82811115614bbb578251825591602001919060010190614ba0565b50614bc7929150614c78565b5090565b6040805161010081019091528060008152602001600081526020016000815260200160008152602001600081526020016000815260200160008152602001600081525090565b6040805160e0810190915280600081526020016000815260200160008152602001600081526020016000815260200160008152602001600081525090565b604080516080810190915280600081526020016000815260200160008152602001600081525090565b610c9e91905b80821115614bc75760008155600101614c7e56fe6f6e6c792061646d696e206d617920696e697469616c697a6520746865206d61726b65746d61726b6574206d6179206f6e6c7920626520696e697469616c697a6564206f6e6365696e697469616c2065786368616e67652072617465206d7573742062652067726561746572207468616e207a65726f2e73657474696e6720696e7465726573742072617465206d6f64656c206661696c65644d494e545f4e45575f4143434f554e545f42414c414e43455f43414c43554c4154494f4e5f4641494c4544626f72726f7742616c616e636553746f7265643a20626f72726f7742616c616e636553746f726564496e7465726e616c206661696c656452455041595f424f52524f575f4e45575f4143434f554e545f424f52524f575f42414c414e43455f43414c43554c4154494f4e5f4641494c4544ddf252ad1be2c89b69c2b068fc378daa952ba7f163c4a11628f55a4df523b3ef52455041595f424f52524f575f4e45575f544f54414c5f42414c414e43455f43414c43554c4154494f4e5f4641494c45444c49515549444154455f434f4d5054524f4c4c45525f43414c43554c4154455f414d4f554e545f5345495a455f4641494c454465786368616e67655261746553746f7265643a2065786368616e67655261746553746f726564496e7465726e616c206661696c65644d494e545f4e45575f544f54414c5f535550504c595f43414c43554c4154494f4e5f4641494c45446f6e65206f662072656465656d546f6b656e73496e206f722072656465656d416d6f756e74496e206d757374206265207a65726f72656475636520726573657276657320756e657870656374656420756e646572666c6f77a265627a7a72315820ddb1d4129ec92cef50dc2286c02372c2ee169f95df2d469d7f8b27f2b0f5c58664736f6c634300051000326f6e6c792061646d696e206d617920696e697469616c697a6520746865206d61726b65746d61726b6574206d6179206f6e6c7920626520696e697469616c697a6564206f6e6365696e697469616c2065786368616e67652072617465206d7573742062652067726561746572207468616e207a65726f2e73657474696e6720696e7465726573742072617465206d6f64656c206661696c6564",
  "devdoc": {
    "author": "Compound",
    "methods": {
      "_acceptAdmin()": {
        "details": "Admin function for pending admin to accept role and update admin",
        "return": "uint 0=success, otherwise a failure (see ErrorReporter.sol for details)"
      },
      "_addReserves(uint256)": {
        "params": {
          "addAmount": "The amount fo underlying token to add as reserves"
        },
        "return": "uint 0=success, otherwise a failure (see ErrorReporter.sol for details)"
      },
      "_reduceReserves(uint256)": {
        "params": {
          "reduceAmount": "Amount of reduction to reserves"
        },
        "return": "uint 0=success, otherwise a failure (see ErrorReporter.sol for details)"
      },
      "_setComptroller(address)": {
        "details": "Admin function to set a new comptroller",
        "return": "uint 0=success, otherwise a failure (see ErrorReporter.sol for details)"
      },
      "_setInterestRateModel(address)": {
        "details": "Admin function to accrue interest and update the interest rate model",
        "params": {
          "newInterestRateModel": "the new interest rate model to use"
        },
        "return": "uint 0=success, otherwise a failure (see ErrorReporter.sol for details)"
      },
      "_setPendingAdmin(address)": {
        "details": "Admin function to begin change of admin. The newPendingAdmin must call `_acceptAdmin` to finalize the transfer.",
        "params": {
          "newPendingAdmin": "New pending admin."
        },
        "return": "uint 0=success, otherwise a failure (see ErrorReporter.sol for details)"
      },
      "_setReserveFactor(uint256)": {
        "details": "Admin function to accrue interest and set a new reserve factor",
        "return": "uint 0=success, otherwise a failure (see ErrorReporter.sol for details)"
      },
      "accrueInterest()": {
        "details": "This calculates interest accrued from the last checkpointed block  up to the current block and writes new checkpoint to storage."
      },
      "allowance(address,address)": {
        "params": {
          "owner": "The address of the account which owns the tokens to be spent",
          "spender": "The address of the account which may transfer tokens"
        },
        "return": "The number of tokens allowed to be spent (-1 means infinite)"
      },
      "approve(address,uint256)": {
        "details": "This will overwrite the approval amount for `spender` and is subject to issues noted [here](https://eips.ethereum.org/EIPS/eip-20#approve)",
        "params": {
          "amount": "The number of tokens that are approved (-1 means infinite)",
          "spender": "The address of the account which may transfer tokens"
        },
        "return": "Whether or not the approval succeeded"
      },
      "balanceOf(address)": {
        "params": {
          "owner": "The address of the account to query"
        },
        "return": "The number of tokens owned by `owner`"
      },
      "balanceOfUnderlying(address)": {
        "details": "This also accrues interest in a transaction",
        "params": {
          "owner": "The address of the account to query"
        },
        "return": "The amount of underlying owned by `owner`"
      },
      "borrow(uint256)": {
        "params": {
          "borrowAmount": "The amount of the underlying asset to borrow"
        },
        "return": "uint 0=success, otherwise a failure (see ErrorReporter.sol for details)"
      },
      "borrowBalanceCurrent(address)": {
        "params": {
          "account": "The address whose balance should be calculated after updating borrowIndex"
        },
        "return": "The calculated balance"
      },
      "borrowBalanceStored(address)": {
        "params": {
          "account": "The address whose balance should be calculated"
        },
        "return": "The calculated balance"
      },
      "borrowRatePerBlock()": {
        "return": "The borrow interest rate per block, scaled by 1e18"
      },
      "constructor": {
        "params": {
          "admin_": "Address of the administrator of this token",
          "comptroller_": "The address of the Comptroller",
          "decimals_": "ERC-20 decimal precision of this token",
          "initialExchangeRateMantissa_": "The initial exchange rate, scaled by 1e18",
          "interestRateModel_": "The address of the interest rate model",
          "name_": "ERC-20 name of this token",
          "symbol_": "ERC-20 symbol of this token",
          "underlying_": "The address of the underlying asset"
        }
      },
      "exchangeRateCurrent()": {
        "return": "Calculated exchange rate scaled by 1e18"
      },
      "exchangeRateStored()": {
        "details": "This function does not accrue interest before calculating the exchange rate",
        "return": "Calculated exchange rate scaled by 1e18"
      },
      "getAccountSnapshot(address)": {
        "details": "This is used by comptroller to more efficiently perform liquidity checks.",
        "params": {
          "account": "Address of the account to snapshot"
        },
        "return": "(possible error, token balance, borrow balance, exchange rate mantissa)"
      },
      "getCash()": {
        "return": "The quantity of underlying asset owned by this contract"
      },
      "initialize(address,address,address,uint256,string,string,uint8)": {
        "params": {
          "comptroller_": "The address of the Comptroller",
          "decimals_": "ERC-20 decimal precision of this token",
          "initialExchangeRateMantissa_": "The initial exchange rate, scaled by 1e18",
          "interestRateModel_": "The address of the interest rate model",
          "name_": "ERC-20 name of this token",
          "symbol_": "ERC-20 symbol of this token",
          "underlying_": "The address of the underlying asset"
        }
      },
      "initialize(address,address,uint256,string,string,uint8)": {
        "params": {
          "comptroller_": "The address of the Comptroller",
          "decimals_": "EIP-20 decimal precision of this token",
          "initialExchangeRateMantissa_": "The initial exchange rate, scaled by 1e18",
          "interestRateModel_": "The address of the interest rate model",
          "name_": "EIP-20 name of this token",
          "symbol_": "EIP-20 symbol of this token"
        }
      },
      "liquidateBorrow(address,uint256,address)": {
        "params": {
          "borrower": "The borrower of this cToken to be liquidated",
          "cTokenCollateral": "The market in which to seize collateral from the borrower",
          "repayAmount": "The amount of the underlying borrowed asset to repay"
        },
        "return": "uint 0=success, otherwise a failure (see ErrorReporter.sol for details)"
      },
      "mint(uint256)": {
        "details": "Accrues interest whether or not the operation succeeds, unless reverted",
        "params": {
          "mintAmount": "The amount of the underlying asset to supply"
        },
        "return": "uint 0=success, otherwise a failure (see ErrorReporter.sol for details)"
      },
      "redeem(uint256)": {
        "details": "Accrues interest whether or not the operation succeeds, unless reverted",
        "params": {
          "redeemTokens": "The number of cTokens to redeem into underlying"
        },
        "return": "uint 0=success, otherwise a failure (see ErrorReporter.sol for details)"
      },
      "redeemUnderlying(uint256)": {
        "details": "Accrues interest whether or not the operation succeeds, unless reverted",
        "params": {
          "redeemAmount": "The amount of underlying to redeem"
        },
        "return": "uint 0=success, otherwise a failure (see ErrorReporter.sol for details)"
      },
      "repayBorrow(uint256)": {
        "params": {
          "repayAmount": "The amount to repay"
        },
        "return": "uint 0=success, otherwise a failure (see ErrorReporter.sol for details)"
      },
      "repayBorrowBehalf(address,uint256)": {
        "params": {
          "borrower": "the account with the debt being payed off",
          "repayAmount": "The amount to repay"
        },
        "return": "uint 0=success, otherwise a failure (see ErrorReporter.sol for details)"
      },
      "seize(address,address,uint256)": {
        "details": "Will fail unless called by another cToken during the process of liquidation. Its absolutely critical to use msg.sender as the borrowed cToken and not a parameter.",
        "params": {
          "borrower": "The account having collateral seized",
          "liquidator": "The account receiving seized collateral",
          "seizeTokens": "The number of cTokens to seize"
        },
        "return": "uint 0=success, otherwise a failure (see ErrorReporter.sol for details)"
      },
      "supplyRatePerBlock()": {
        "return": "The supply interest rate per block, scaled by 1e18"
      },
      "totalBorrowsCurrent()": {
        "return": "The total borrows with interest"
      },
      "transfer(address,uint256)": {
        "params": {
          "amount": "The number of tokens to transfer",
          "dst": "The address of the destination account"
        },
        "return": "Whether or not the transfer succeeded"
      },
      "transferFrom(address,address,uint256)": {
        "params": {
          "amount": "The number of tokens to transfer",
          "dst": "The address of the destination account",
          "src": "The address of the source account"
        },
        "return": "Whether or not the transfer succeeded"
      }
    },
    "title": "Compound's CErc20Immutable Contract"
  },
  "userdoc": {
    "methods": {
      "_acceptAdmin()": {
        "notice": "Accepts transfer of admin rights. msg.sender must be pendingAdmin"
      },
      "_addReserves(uint256)": {
        "notice": "The sender adds to reserves."
      },
      "_reduceReserves(uint256)": {
        "notice": "Accrues interest and reduces reserves by transferring to admin"
      },
      "_setComptroller(address)": {
        "notice": "Sets a new comptroller for the market"
      },
      "_setInterestRateModel(address)": {
        "notice": "accrues interest and updates the interest rate model using _setInterestRateModelFresh"
      },
      "_setPendingAdmin(address)": {
        "notice": "Begins transfer of admin rights. The newPendingAdmin must call `_acceptAdmin` to finalize the transfer."
      },
      "_setReserveFactor(uint256)": {
        "notice": "accrues interest and sets a new reserve factor for the protocol using _setReserveFactorFresh"
      },
      "accrueInterest()": {
        "notice": "Applies accrued interest to total borrows and reserves"
      },
      "allowance(address,address)": {
        "notice": "Get the current allowance from `owner` for `spender`"
      },
      "approve(address,uint256)": {
        "notice": "Approve `spender` to transfer up to `amount` from `src`"
      },
      "balanceOf(address)": {
        "notice": "Get the token balance of the `owner`"
      },
      "balanceOfUnderlying(address)": {
        "notice": "Get the underlying balance of the `owner`"
      },
      "borrow(uint256)": {
        "notice": "Sender borrows assets from the protocol to their own address"
      },
      "borrowBalanceCurrent(address)": {
        "notice": "Accrue interest to updated borrowIndex and then calculate account's borrow balance using the updated borrowIndex"
      },
      "borrowBalanceStored(address)": {
        "notice": "Return the borrow balance of account based on stored data"
      },
      "borrowRatePerBlock()": {
        "notice": "Returns the current per-block borrow interest rate for this cToken"
      },
      "constructor": "Construct a new money market",
      "exchangeRateCurrent()": {
        "notice": "Accrue interest then return the up-to-date exchange rate"
      },
      "exchangeRateStored()": {
        "notice": "Calculates the exchange rate from the underlying to the CToken"
      },
      "getAccountSnapshot(address)": {
        "notice": "Get a snapshot of the account's balances, and the cached exchange rate"
      },
      "getCash()": {
        "notice": "Get cash balance of this cToken in the underlying asset"
      },
      "initialize(address,address,address,uint256,string,string,uint8)": {
        "notice": "Initialize the new money market"
      },
      "initialize(address,address,uint256,string,string,uint8)": {
        "notice": "Initialize the money market"
      },
      "liquidateBorrow(address,uint256,address)": {
        "notice": "The sender liquidates the borrowers collateral. The collateral seized is transferred to the liquidator."
      },
      "mint(uint256)": {
        "notice": "Sender supplies assets into the market and receives cTokens in exchange"
      },
      "redeem(uint256)": {
        "notice": "Sender redeems cTokens in exchange for the underlying asset"
      },
      "redeemUnderlying(uint256)": {
        "notice": "Sender redeems cTokens in exchange for a specified amount of underlying asset"
      },
      "repayBorrow(uint256)": {
        "notice": "Sender repays their own borrow"
      },
      "repayBorrowBehalf(address,uint256)": {
        "notice": "Sender repays a borrow belonging to borrower"
      },
      "seize(address,address,uint256)": {
        "notice": "Transfers collateral tokens (this market) to the liquidator."
      },
      "supplyRatePerBlock()": {
        "notice": "Returns the current per-block supply interest rate for this cToken"
      },
      "totalBorrowsCurrent()": {
        "notice": "Returns the current total borrows plus accrued interest"
      },
      "transfer(address,uint256)": {
        "notice": "Transfer `amount` tokens from `msg.sender` to `dst`"
      },
      "transferFrom(address,address,uint256)": {
        "notice": "Transfer `amount` tokens from `src` to `dst`"
      }
    },
    "notice": "CTokens which wrap an EIP-20 underlying and are immutable"
  },
  "storageLayout": {
    "storage": [
      {
        "astId": 6123,
        "contract": "contracts/CErc20Immutable.sol:CErc20Immutable",
        "label": "_notEntered",
        "offset": 0,
        "slot": "0",
        "type": "t_bool"
      },
      {
        "astId": 6125,
        "contract": "contracts/CErc20Immutable.sol:CErc20Immutable",
        "label": "name",
        "offset": 0,
        "slot": "1",
        "type": "t_string_storage"
      },
      {
        "astId": 6127,
        "contract": "contracts/CErc20Immutable.sol:CErc20Immutable",
        "label": "symbol",
        "offset": 0,
        "slot": "2",
        "type": "t_string_storage"
      },
      {
        "astId": 6129,
        "contract": "contracts/CErc20Immutable.sol:CErc20Immutable",
        "label": "decimals",
        "offset": 0,
        "slot": "3",
        "type": "t_uint8"
      },
      {
        "astId": 6137,
        "contract": "contracts/CErc20Immutable.sol:CErc20Immutable",
        "label": "admin",
        "offset": 1,
        "slot": "3",
        "type": "t_address_payable"
      },
      {
        "astId": 6139,
        "contract": "contracts/CErc20Immutable.sol:CErc20Immutable",
        "label": "pendingAdmin",
        "offset": 0,
        "slot": "4",
        "type": "t_address_payable"
      },
      {
        "astId": 6141,
        "contract": "contracts/CErc20Immutable.sol:CErc20Immutable",
        "label": "comptroller",
        "offset": 0,
        "slot": "5",
        "type": "t_contract(ComptrollerInterface)30439"
      },
      {
        "astId": 6143,
        "contract": "contracts/CErc20Immutable.sol:CErc20Immutable",
        "label": "interestRateModel",
        "offset": 0,
        "slot": "6",
        "type": "t_contract(InterestRateModel)33327"
      },
      {
        "astId": 6145,
        "contract": "contracts/CErc20Immutable.sol:CErc20Immutable",
        "label": "initialExchangeRateMantissa",
        "offset": 0,
        "slot": "7",
        "type": "t_uint256"
      },
      {
        "astId": 6147,
        "contract": "contracts/CErc20Immutable.sol:CErc20Immutable",
        "label": "reserveFactorMantissa",
        "offset": 0,
        "slot": "8",
        "type": "t_uint256"
      },
      {
        "astId": 6149,
        "contract": "contracts/CErc20Immutable.sol:CErc20Immutable",
        "label": "accrualBlockNumber",
        "offset": 0,
        "slot": "9",
        "type": "t_uint256"
      },
      {
        "astId": 6151,
        "contract": "contracts/CErc20Immutable.sol:CErc20Immutable",
        "label": "borrowIndex",
        "offset": 0,
        "slot": "10",
        "type": "t_uint256"
      },
      {
        "astId": 6153,
        "contract": "contracts/CErc20Immutable.sol:CErc20Immutable",
        "label": "totalBorrows",
        "offset": 0,
        "slot": "11",
        "type": "t_uint256"
      },
      {
        "astId": 6155,
        "contract": "contracts/CErc20Immutable.sol:CErc20Immutable",
        "label": "totalReserves",
        "offset": 0,
        "slot": "12",
        "type": "t_uint256"
      },
      {
        "astId": 6157,
        "contract": "contracts/CErc20Immutable.sol:CErc20Immutable",
        "label": "totalSupply",
        "offset": 0,
        "slot": "13",
        "type": "t_uint256"
      },
      {
        "astId": 6161,
        "contract": "contracts/CErc20Immutable.sol:CErc20Immutable",
        "label": "accountTokens",
        "offset": 0,
        "slot": "14",
        "type": "t_mapping(t_address,t_uint256)"
      },
      {
        "astId": 6167,
        "contract": "contracts/CErc20Immutable.sol:CErc20Immutable",
        "label": "transferAllowances",
        "offset": 0,
        "slot": "15",
        "type": "t_mapping(t_address,t_mapping(t_address,t_uint256))"
      },
      {
        "astId": 6176,
        "contract": "contracts/CErc20Immutable.sol:CErc20Immutable",
        "label": "accountBorrows",
        "offset": 0,
        "slot": "16",
        "type": "t_mapping(t_address,t_struct(BorrowSnapshot)6172_storage)"
      },
      {
        "astId": 6480,
        "contract": "contracts/CErc20Immutable.sol:CErc20Immutable",
        "label": "underlying",
        "offset": 0,
        "slot": "17",
        "type": "t_address"
      }
    ],
    "types": {
      "t_address": {
        "encoding": "inplace",
        "label": "address",
        "numberOfBytes": "20"
      },
      "t_address_payable": {
        "encoding": "inplace",
        "label": "address payable",
        "numberOfBytes": "20"
      },
      "t_bool": {
        "encoding": "inplace",
        "label": "bool",
        "numberOfBytes": "1"
      },
      "t_contract(ComptrollerInterface)30439": {
        "encoding": "inplace",
        "label": "contract ComptrollerInterface",
        "numberOfBytes": "20"
      },
      "t_contract(InterestRateModel)33327": {
        "encoding": "inplace",
        "label": "contract InterestRateModel",
        "numberOfBytes": "20"
      },
      "t_mapping(t_address,t_mapping(t_address,t_uint256))": {
        "encoding": "mapping",
        "key": "t_address",
        "label": "mapping(address => mapping(address => uint256))",
        "numberOfBytes": "32",
        "value": "t_mapping(t_address,t_uint256)"
      },
      "t_mapping(t_address,t_struct(BorrowSnapshot)6172_storage)": {
        "encoding": "mapping",
        "key": "t_address",
        "label": "mapping(address => struct CTokenStorage.BorrowSnapshot)",
        "numberOfBytes": "32",
        "value": "t_struct(BorrowSnapshot)6172_storage"
      },
      "t_mapping(t_address,t_uint256)": {
        "encoding": "mapping",
        "key": "t_address",
        "label": "mapping(address => uint256)",
        "numberOfBytes": "32",
        "value": "t_uint256"
      },
      "t_string_storage": {
        "encoding": "bytes",
        "label": "string",
        "numberOfBytes": "32"
      },
      "t_struct(BorrowSnapshot)6172_storage": {
        "encoding": "inplace",
        "label": "struct CTokenStorage.BorrowSnapshot",
        "members": [
          {
            "astId": 6169,
            "contract": "contracts/CErc20Immutable.sol:CErc20Immutable",
            "label": "principal",
            "offset": 0,
            "slot": "0",
            "type": "t_uint256"
          },
          {
            "astId": 6171,
            "contract": "contracts/CErc20Immutable.sol:CErc20Immutable",
            "label": "interestIndex",
            "offset": 0,
            "slot": "1",
            "type": "t_uint256"
          }
        ],
        "numberOfBytes": "64"
      },
      "t_uint256": {
        "encoding": "inplace",
        "label": "uint256",
        "numberOfBytes": "32"
      },
      "t_uint8": {
        "encoding": "inplace",
        "label": "uint8",
        "numberOfBytes": "1"
      }
    }
  }
}