{
  "address": "0xF828f03151455949d7Ec2A2b72375851935D746b",
  "abi": [
    {
      "inputs": [
        {
          "internalType": "address",
          "name": "underlying_",
          "type": "address"
        },
        {
          "internalType": "contract ComptrollerInterface",
          "name": "comptroller_",
          "type": "address"
        },
        {
          "internalType": "contract InterestRateModel",
          "name": "interestRateModel_",
          "type": "address"
        },
        {
          "internalType": "uint256",
          "name": "initialExchangeRateMantissa_",
          "type": "uint256"
        },
        {
          "internalType": "string",
          "name": "name_",
          "type": "string"
        },
        {
          "internalType": "string",
          "name": "symbol_",
          "type": "string"
        },
        {
          "internalType": "uint8",
          "name": "decimals_",
          "type": "uint8"
        },
        {
          "internalType": "address payable",
          "name": "admin_",
          "type": "address"
        },
        {
          "internalType": "address",
          "name": "implementation_",
          "type": "address"
        },
        {
          "internalType": "bytes",
          "name": "becomeImplementationData",
          "type": "bytes"
        }
      ],
      "payable": false,
      "stateMutability": "nonpayable",
      "type": "constructor"
    },
    {
      "anonymous": false,
      "inputs": [
        {
          "indexed": false,
          "internalType": "uint256",
          "name": "cashPrior",
          "type": "uint256"
        },
        {
          "indexed": false,
          "internalType": "uint256",
          "name": "interestAccumulated",
          "type": "uint256"
        },
        {
          "indexed": false,
          "internalType": "uint256",
          "name": "borrowIndex",
          "type": "uint256"
        },
        {
          "indexed": false,
          "internalType": "uint256",
          "name": "totalBorrows",
          "type": "uint256"
        }
      ],
      "name": "AccrueInterest",
      "type": "event"
    },
    {
      "anonymous": false,
      "inputs": [
        {
          "indexed": true,
          "internalType": "address",
          "name": "owner",
          "type": "address"
        },
        {
          "indexed": true,
          "internalType": "address",
          "name": "spender",
          "type": "address"
        },
        {
          "indexed": false,
          "internalType": "uint256",
          "name": "amount",
          "type": "uint256"
        }
      ],
      "name": "Approval",
      "type": "event"
    },
    {
      "anonymous": false,
      "inputs": [
        {
          "indexed": false,
          "internalType": "address",
          "name": "borrower",
          "type": "address"
        },
        {
          "indexed": false,
          "internalType": "uint256",
          "name": "borrowAmount",
          "type": "uint256"
        },
        {
          "indexed": false,
          "internalType": "uint256",
          "name": "accountBorrows",
          "type": "uint256"
        },
        {
          "indexed": false,
          "internalType": "uint256",
          "name": "totalBorrows",
          "type": "uint256"
        }
      ],
      "name": "Borrow",
      "type": "event"
    },
    {
      "anonymous": false,
      "inputs": [
        {
          "indexed": false,
          "internalType": "uint256",
          "name": "error",
          "type": "uint256"
        },
        {
          "indexed": false,
          "internalType": "uint256",
          "name": "info",
          "type": "uint256"
        },
        {
          "indexed": false,
          "internalType": "uint256",
          "name": "detail",
          "type": "uint256"
        }
      ],
      "name": "Failure",
      "type": "event"
    },
    {
      "anonymous": false,
      "inputs": [
        {
          "indexed": false,
          "internalType": "address",
          "name": "liquidator",
          "type": "address"
        },
        {
          "indexed": false,
          "internalType": "address",
          "name": "borrower",
          "type": "address"
        },
        {
          "indexed": false,
          "internalType": "uint256",
          "name": "repayAmount",
          "type": "uint256"
        },
        {
          "indexed": false,
          "internalType": "address",
          "name": "cTokenCollateral",
          "type": "address"
        },
        {
          "indexed": false,
          "internalType": "uint256",
          "name": "seizeTokens",
          "type": "uint256"
        }
      ],
      "name": "LiquidateBorrow",
      "type": "event"
    },
    {
      "anonymous": false,
      "inputs": [
        {
          "indexed": false,
          "internalType": "address",
          "name": "minter",
          "type": "address"
        },
        {
          "indexed": false,
          "internalType": "uint256",
          "name": "mintAmount",
          "type": "uint256"
        },
        {
          "indexed": false,
          "internalType": "uint256",
          "name": "mintTokens",
          "type": "uint256"
        }
      ],
      "name": "Mint",
      "type": "event"
    },
    {
      "anonymous": false,
      "inputs": [
        {
          "indexed": false,
          "internalType": "address",
          "name": "oldAdmin",
          "type": "address"
        },
        {
          "indexed": false,
          "internalType": "address",
          "name": "newAdmin",
          "type": "address"
        }
      ],
      "name": "NewAdmin",
      "type": "event"
    },
    {
      "anonymous": false,
      "inputs": [
        {
          "indexed": false,
          "internalType": "contract ComptrollerInterface",
          "name": "oldComptroller",
          "type": "address"
        },
        {
          "indexed": false,
          "internalType": "contract ComptrollerInterface",
          "name": "newComptroller",
          "type": "address"
        }
      ],
      "name": "NewComptroller",
      "type": "event"
    },
    {
      "anonymous": false,
      "inputs": [
        {
          "indexed": false,
          "internalType": "address",
          "name": "oldFeeTaker",
          "type": "address"
        },
        {
          "indexed": false,
          "internalType": "address",
          "name": "newFeeTaker",
          "type": "address"
        }
      ],
      "name": "NewFeeTaker",
      "type": "event"
    },
    {
      "anonymous": false,
      "inputs": [
        {
          "indexed": false,
          "internalType": "address",
          "name": "oldImplementation",
          "type": "address"
        },
        {
          "indexed": false,
          "internalType": "address",
          "name": "newImplementation",
          "type": "address"
        }
      ],
      "name": "NewImplementation",
      "type": "event"
    },
    {
      "anonymous": false,
      "inputs": [
        {
          "indexed": false,
          "internalType": "contract InterestRateModel",
          "name": "oldInterestRateModel",
          "type": "address"
        },
        {
          "indexed": false,
          "internalType": "contract InterestRateModel",
          "name": "newInterestRateModel",
          "type": "address"
        }
      ],
      "name": "NewMarketInterestRateModel",
      "type": "event"
    },
    {
      "anonymous": false,
      "inputs": [
        {
          "indexed": false,
          "internalType": "address",
          "name": "oldPendingAdmin",
          "type": "address"
        },
        {
          "indexed": false,
          "internalType": "address",
          "name": "newPendingAdmin",
          "type": "address"
        }
      ],
      "name": "NewPendingAdmin",
      "type": "event"
    },
    {
      "anonymous": false,
      "inputs": [
        {
          "indexed": false,
          "internalType": "uint256",
          "name": "oldReserveFactorMantissa",
          "type": "uint256"
        },
        {
          "indexed": false,
          "internalType": "uint256",
          "name": "newReserveFactorMantissa",
          "type": "uint256"
        }
      ],
      "name": "NewReserveFactor",
      "type": "event"
    },
    {
      "anonymous": false,
      "inputs": [
        {
          "indexed": false,
          "internalType": "address",
          "name": "redeemer",
          "type": "address"
        },
        {
          "indexed": false,
          "internalType": "uint256",
          "name": "redeemAmount",
          "type": "uint256"
        },
        {
          "indexed": false,
          "internalType": "uint256",
          "name": "redeemTokens",
          "type": "uint256"
        }
      ],
      "name": "Redeem",
      "type": "event"
    },
    {
      "anonymous": false,
      "inputs": [
        {
          "indexed": false,
          "internalType": "address",
          "name": "payer",
          "type": "address"
        },
        {
          "indexed": false,
          "internalType": "address",
          "name": "borrower",
          "type": "address"
        },
        {
          "indexed": false,
          "internalType": "uint256",
          "name": "repayAmount",
          "type": "uint256"
        },
        {
          "indexed": false,
          "internalType": "uint256",
          "name": "accountBorrows",
          "type": "uint256"
        },
        {
          "indexed": false,
          "internalType": "uint256",
          "name": "totalBorrows",
          "type": "uint256"
        }
      ],
      "name": "RepayBorrow",
      "type": "event"
    },
    {
      "anonymous": false,
      "inputs": [
        {
          "indexed": false,
          "internalType": "address",
          "name": "benefactor",
          "type": "address"
        },
        {
          "indexed": false,
          "internalType": "uint256",
          "name": "addAmount",
          "type": "uint256"
        },
        {
          "indexed": false,
          "internalType": "uint256",
          "name": "newTotalReserves",
          "type": "uint256"
        }
      ],
      "name": "ReservesAdded",
      "type": "event"
    },
    {
      "anonymous": false,
      "inputs": [
        {
          "indexed": false,
          "internalType": "address",
          "name": "admin",
          "type": "address"
        },
        {
          "indexed": false,
          "internalType": "uint256",
          "name": "reduceAmount",
          "type": "uint256"
        },
        {
          "indexed": false,
          "internalType": "uint256",
          "name": "newTotalReserves",
          "type": "uint256"
        }
      ],
      "name": "ReservesReduced",
      "type": "event"
    },
    {
      "anonymous": false,
      "inputs": [
        {
          "indexed": true,
          "internalType": "address",
          "name": "from",
          "type": "address"
        },
        {
          "indexed": true,
          "internalType": "address",
          "name": "to",
          "type": "address"
        },
        {
          "indexed": false,
          "internalType": "uint256",
          "name": "amount",
          "type": "uint256"
        }
      ],
      "name": "Transfer",
      "type": "event"
    },
    {
      "payable": true,
      "stateMutability": "payable",
      "type": "fallback"
    },
    {
      "constant": false,
      "inputs": [],
      "name": "_acceptAdmin",
      "outputs": [
        {
          "internalType": "uint256",
          "name": "",
          "type": "uint256"
        }
      ],
      "payable": false,
      "stateMutability": "nonpayable",
      "type": "function"
    },
    {
      "constant": false,
      "inputs": [
        {
          "internalType": "uint256",
          "name": "addAmount",
          "type": "uint256"
        }
      ],
      "name": "_addReserves",
      "outputs": [
        {
          "internalType": "uint256",
          "name": "",
          "type": "uint256"
        }
      ],
      "payable": false,
      "stateMutability": "nonpayable",
      "type": "function"
    },
    {
      "constant": false,
      "inputs": [
        {
          "internalType": "uint256",
          "name": "reduceAmount",
          "type": "uint256"
        }
      ],
      "name": "_reduceReserves",
      "outputs": [
        {
          "internalType": "uint256",
          "name": "",
          "type": "uint256"
        }
      ],
      "payable": false,
      "stateMutability": "nonpayable",
      "type": "function"
    },
    {
      "constant": false,
      "inputs": [
        {
          "internalType": "contract ComptrollerInterface",
          "name": "newComptroller",
          "type": "address"
        }
      ],
      "name": "_setComptroller",
      "outputs": [
        {
          "internalType": "uint256",
          "name": "",
          "type": "uint256"
        }
      ],
      "payable": false,
      "stateMutability": "nonpayable",
      "type": "function"
    },
    {
      "constant": false,
      "inputs": [
        {
          "internalType": "address payable",
          "name": "newFeeTaker",
          "type": "address"
        }
      ],
      "name": "_setFeeTaker",
      "outputs": [
        {
          "internalType": "uint256",
          "name": "",
          "type": "uint256"
        }
      ],
      "payable": false,
      "stateMutability": "nonpayable",
      "type": "function"
    },
    {
      "constant": false,
      "inputs": [
        {
          "internalType": "address",
          "name": "implementation_",
          "type": "address"
        },
        {
          "internalType": "bool",
          "name": "allowResign",
          "type": "bool"
        },
        {
          "internalType": "bytes",
          "name": "becomeImplementationData",
          "type": "bytes"
        }
      ],
      "name": "_setImplementation",
      "outputs": [],
      "payable": false,
      "stateMutability": "nonpayable",
      "type": "function"
    },
    {
      "constant": false,
      "inputs": [
        {
          "internalType": "contract InterestRateModel",
          "name": "newInterestRateModel",
          "type": "address"
        }
      ],
      "name": "_setInterestRateModel",
      "outputs": [
        {
          "internalType": "uint256",
          "name": "",
          "type": "uint256"
        }
      ],
      "payable": false,
      "stateMutability": "nonpayable",
      "type": "function"
    },
    {
      "constant": false,
      "inputs": [
        {
          "internalType": "address payable",
          "name": "newPendingAdmin",
          "type": "address"
        }
      ],
      "name": "_setPendingAdmin",
      "outputs": [
        {
          "internalType": "uint256",
          "name": "",
          "type": "uint256"
        }
      ],
      "payable": false,
      "stateMutability": "nonpayable",
      "type": "function"
    },
    {
      "constant": false,
      "inputs": [
        {
          "internalType": "uint256",
          "name": "newReserveFactorMantissa",
          "type": "uint256"
        }
      ],
      "name": "_setReserveFactor",
      "outputs": [
        {
          "internalType": "uint256",
          "name": "",
          "type": "uint256"
        }
      ],
      "payable": false,
      "stateMutability": "nonpayable",
      "type": "function"
    },
    {
      "constant": true,
      "inputs": [],
      "name": "accrualBlockNumber",
      "outputs": [
        {
          "internalType": "uint256",
          "name": "",
          "type": "uint256"
        }
      ],
      "payable": false,
      "stateMutability": "view",
      "type": "function"
    },
    {
      "constant": false,
      "inputs": [],
      "name": "accrueInterest",
      "outputs": [
        {
          "internalType": "uint256",
          "name": "",
          "type": "uint256"
        }
      ],
      "payable": false,
      "stateMutability": "nonpayable",
      "type": "function"
    },
    {
      "constant": true,
      "inputs": [],
      "name": "admin",
      "outputs": [
        {
          "internalType": "address payable",
          "name": "",
          "type": "address"
        }
      ],
      "payable": false,
      "stateMutability": "view",
      "type": "function"
    },
    {
      "constant": true,
      "inputs": [
        {
          "internalType": "address",
          "name": "owner",
          "type": "address"
        },
        {
          "internalType": "address",
          "name": "spender",
          "type": "address"
        }
      ],
      "name": "allowance",
      "outputs": [
        {
          "internalType": "uint256",
          "name": "",
          "type": "uint256"
        }
      ],
      "payable": false,
      "stateMutability": "view",
      "type": "function"
    },
    {
      "constant": false,
      "inputs": [
        {
          "internalType": "address",
          "name": "spender",
          "type": "address"
        },
        {
          "internalType": "uint256",
          "name": "amount",
          "type": "uint256"
        }
      ],
      "name": "approve",
      "outputs": [
        {
          "internalType": "bool",
          "name": "",
          "type": "bool"
        }
      ],
      "payable": false,
      "stateMutability": "nonpayable",
      "type": "function"
    },
    {
      "constant": true,
      "inputs": [
        {
          "internalType": "address",
          "name": "owner",
          "type": "address"
        }
      ],
      "name": "balanceOf",
      "outputs": [
        {
          "internalType": "uint256",
          "name": "",
          "type": "uint256"
        }
      ],
      "payable": false,
      "stateMutability": "view",
      "type": "function"
    },
    {
      "constant": false,
      "inputs": [
        {
          "internalType": "address",
          "name": "owner",
          "type": "address"
        }
      ],
      "name": "balanceOfUnderlying",
      "outputs": [
        {
          "internalType": "uint256",
          "name": "",
          "type": "uint256"
        }
      ],
      "payable": false,
      "stateMutability": "nonpayable",
      "type": "function"
    },
    {
      "constant": false,
      "inputs": [
        {
          "internalType": "uint256",
          "name": "borrowAmount",
          "type": "uint256"
        }
      ],
      "name": "borrow",
      "outputs": [
        {
          "internalType": "uint256",
          "name": "",
          "type": "uint256"
        }
      ],
      "payable": false,
      "stateMutability": "nonpayable",
      "type": "function"
    },
    {
      "constant": false,
      "inputs": [
        {
          "internalType": "address",
          "name": "account",
          "type": "address"
        }
      ],
      "name": "borrowBalanceCurrent",
      "outputs": [
        {
          "internalType": "uint256",
          "name": "",
          "type": "uint256"
        }
      ],
      "payable": false,
      "stateMutability": "nonpayable",
      "type": "function"
    },
    {
      "constant": true,
      "inputs": [
        {
          "internalType": "address",
          "name": "account",
          "type": "address"
        }
      ],
      "name": "borrowBalanceStored",
      "outputs": [
        {
          "internalType": "uint256",
          "name": "",
          "type": "uint256"
        }
      ],
      "payable": false,
      "stateMutability": "view",
      "type": "function"
    },
    {
      "constant": true,
      "inputs": [],
      "name": "borrowIndex",
      "outputs": [
        {
          "internalType": "uint256",
          "name": "",
          "type": "uint256"
        }
      ],
      "payable": false,
      "stateMutability": "view",
      "type": "function"
    },
    {
      "constant": false,
      "inputs": [
        {
          "internalType": "uint256",
          "name": "borrowAmount",
          "type": "uint256"
        }
      ],
      "name": "borrowNative",
      "outputs": [
        {
          "internalType": "uint256",
          "name": "",
          "type": "uint256"
        }
      ],
      "payable": false,
      "stateMutability": "nonpayable",
      "type": "function"
    },
    {
      "constant": true,
      "inputs": [],
      "name": "borrowRatePerBlock",
      "outputs": [
        {
          "internalType": "uint256",
          "name": "",
          "type": "uint256"
        }
      ],
      "payable": false,
      "stateMutability": "view",
      "type": "function"
    },
    {
      "constant": true,
      "inputs": [],
      "name": "comptroller",
      "outputs": [
        {
          "internalType": "contract ComptrollerInterface",
          "name": "",
          "type": "address"
        }
      ],
      "payable": false,
      "stateMutability": "view",
      "type": "function"
    },
    {
      "constant": true,
      "inputs": [],
      "name": "decimals",
      "outputs": [
        {
          "internalType": "uint8",
          "name": "",
          "type": "uint8"
        }
      ],
      "payable": false,
      "stateMutability": "view",
      "type": "function"
    },
    {
      "constant": false,
      "inputs": [
        {
          "internalType": "bytes",
          "name": "data",
          "type": "bytes"
        }
      ],
      "name": "delegateToImplementation",
      "outputs": [
        {
          "internalType": "bytes",
          "name": "",
          "type": "bytes"
        }
      ],
      "payable": false,
      "stateMutability": "nonpayable",
      "type": "function"
    },
    {
      "constant": true,
      "inputs": [
        {
          "internalType": "bytes",
          "name": "data",
          "type": "bytes"
        }
      ],
      "name": "delegateToViewImplementation",
      "outputs": [
        {
          "internalType": "bytes",
          "name": "",
          "type": "bytes"
        }
      ],
      "payable": false,
      "stateMutability": "view",
      "type": "function"
    },
    {
      "constant": false,
      "inputs": [],
      "name": "exchangeRateCurrent",
      "outputs": [
        {
          "internalType": "uint256",
          "name": "",
          "type": "uint256"
        }
      ],
      "payable": false,
      "stateMutability": "nonpayable",
      "type": "function"
    },
    {
      "constant": true,
      "inputs": [],
      "name": "exchangeRateStored",
      "outputs": [
        {
          "internalType": "uint256",
          "name": "",
          "type": "uint256"
        }
      ],
      "payable": false,
      "stateMutability": "view",
      "type": "function"
    },
    {
      "constant": true,
      "inputs": [],
      "name": "feeTaker",
      "outputs": [
        {
          "internalType": "address payable",
          "name": "",
          "type": "address"
        }
      ],
      "payable": false,
      "stateMutability": "view",
      "type": "function"
    },
    {
      "constant": true,
      "inputs": [
        {
          "internalType": "address",
          "name": "account",
          "type": "address"
        }
      ],
      "name": "getAccountSnapshot",
      "outputs": [
        {
          "internalType": "uint256",
          "name": "",
          "type": "uint256"
        },
        {
          "internalType": "uint256",
          "name": "",
          "type": "uint256"
        },
        {
          "internalType": "uint256",
          "name": "",
          "type": "uint256"
        },
        {
          "internalType": "uint256",
          "name": "",
          "type": "uint256"
        }
      ],
      "payable": false,
      "stateMutability": "view",
      "type": "function"
    },
    {
      "constant": true,
      "inputs": [],
      "name": "getCash",
      "outputs": [
        {
          "internalType": "uint256",
          "name": "",
          "type": "uint256"
        }
      ],
      "payable": false,
      "stateMutability": "view",
      "type": "function"
    },
    {
      "constant": true,
      "inputs": [],
      "name": "interestRateModel",
      "outputs": [
        {
          "internalType": "contract InterestRateModel",
          "name": "",
          "type": "address"
        }
      ],
      "payable": false,
      "stateMutability": "view",
      "type": "function"
    },
    {
      "constant": true,
      "inputs": [],
      "name": "isCToken",
      "outputs": [
        {
          "internalType": "bool",
          "name": "",
          "type": "bool"
        }
      ],
      "payable": false,
      "stateMutability": "view",
      "type": "function"
    },
    {
      "constant": false,
      "inputs": [
        {
          "internalType": "address",
          "name": "borrower",
          "type": "address"
        },
        {
          "internalType": "uint256",
          "name": "repayAmount",
          "type": "uint256"
        },
        {
          "internalType": "contract CTokenInterface",
          "name": "cTokenCollateral",
          "type": "address"
        }
      ],
      "name": "liquidateBorrow",
      "outputs": [
        {
          "internalType": "uint256",
          "name": "",
          "type": "uint256"
        }
      ],
      "payable": false,
      "stateMutability": "nonpayable",
      "type": "function"
    },
    {
      "constant": false,
      "inputs": [
        {
          "internalType": "uint256",
          "name": "mintAmount",
          "type": "uint256"
        }
      ],
      "name": "mint",
      "outputs": [
        {
          "internalType": "uint256",
          "name": "",
          "type": "uint256"
        }
      ],
      "payable": false,
      "stateMutability": "nonpayable",
      "type": "function"
    },
    {
      "constant": false,
      "inputs": [],
      "name": "mintNative",
      "outputs": [
        {
          "internalType": "uint256",
          "name": "",
          "type": "uint256"
        }
      ],
      "payable": true,
      "stateMutability": "payable",
      "type": "function"
    },
    {
      "constant": true,
      "inputs": [],
      "name": "name",
      "outputs": [
        {
          "internalType": "string",
          "name": "",
          "type": "string"
        }
      ],
      "payable": false,
      "stateMutability": "view",
      "type": "function"
    },
    {
      "constant": true,
      "inputs": [],
      "name": "pendingAdmin",
      "outputs": [
        {
          "internalType": "address payable",
          "name": "",
          "type": "address"
        }
      ],
      "payable": false,
      "stateMutability": "view",
      "type": "function"
    },
    {
      "constant": true,
      "inputs": [],
      "name": "protocolSeizeShareMantissa",
      "outputs": [
        {
          "internalType": "uint256",
          "name": "",
          "type": "uint256"
        }
      ],
      "payable": false,
      "stateMutability": "view",
      "type": "function"
    },
    {
      "constant": false,
      "inputs": [
        {
          "internalType": "uint256",
          "name": "redeemTokens",
          "type": "uint256"
        }
      ],
      "name": "redeem",
      "outputs": [
        {
          "internalType": "uint256",
          "name": "",
          "type": "uint256"
        }
      ],
      "payable": false,
      "stateMutability": "nonpayable",
      "type": "function"
    },
    {
      "constant": false,
      "inputs": [
        {
          "internalType": "uint256",
          "name": "redeemTokens",
          "type": "uint256"
        }
      ],
      "name": "redeemNative",
      "outputs": [
        {
          "internalType": "uint256",
          "name": "",
          "type": "uint256"
        }
      ],
      "payable": false,
      "stateMutability": "nonpayable",
      "type": "function"
    },
    {
      "constant": false,
      "inputs": [
        {
          "internalType": "uint256",
          "name": "redeemAmount",
          "type": "uint256"
        }
      ],
      "name": "redeemUnderlying",
      "outputs": [
        {
          "internalType": "uint256",
          "name": "",
          "type": "uint256"
        }
      ],
      "payable": false,
      "stateMutability": "nonpayable",
      "type": "function"
    },
    {
      "constant": false,
      "inputs": [
        {
          "internalType": "uint256",
          "name": "redeemAmount",
          "type": "uint256"
        }
      ],
      "name": "redeemUnderlyingNative",
      "outputs": [
        {
          "internalType": "uint256",
          "name": "",
          "type": "uint256"
        }
      ],
      "payable": false,
      "stateMutability": "nonpayable",
      "type": "function"
    },
    {
      "constant": false,
      "inputs": [
        {
          "internalType": "uint256",
          "name": "repayAmount",
          "type": "uint256"
        }
      ],
      "name": "repayBorrow",
      "outputs": [
        {
          "internalType": "uint256",
          "name": "",
          "type": "uint256"
        }
      ],
      "payable": false,
      "stateMutability": "nonpayable",
      "type": "function"
    },
    {
      "constant": false,
      "inputs": [
        {
          "internalType": "address",
          "name": "borrower",
          "type": "address"
        },
        {
          "internalType": "uint256",
          "name": "repayAmount",
          "type": "uint256"
        }
      ],
      "name": "repayBorrowBehalf",
      "outputs": [
        {
          "internalType": "uint256",
          "name": "",
          "type": "uint256"
        }
      ],
      "payable": false,
      "stateMutability": "nonpayable",
      "type": "function"
    },
    {
      "constant": false,
      "inputs": [
        {
          "internalType": "address",
          "name": "borrower",
          "type": "address"
        }
      ],
      "name": "repayBorrowBehalfNative",
      "outputs": [],
      "payable": true,
      "stateMutability": "payable",
      "type": "function"
    },
    {
      "constant": false,
      "inputs": [],
      "name": "repayBorrowNative",
      "outputs": [],
      "payable": true,
      "stateMutability": "payable",
      "type": "function"
    },
    {
      "constant": true,
      "inputs": [],
      "name": "reserveFactorMantissa",
      "outputs": [
        {
          "internalType": "uint256",
          "name": "",
          "type": "uint256"
        }
      ],
      "payable": false,
      "stateMutability": "view",
      "type": "function"
    },
    {
      "constant": false,
      "inputs": [
        {
          "internalType": "address",
          "name": "liquidator",
          "type": "address"
        },
        {
          "internalType": "address",
          "name": "borrower",
          "type": "address"
        },
        {
          "internalType": "uint256",
          "name": "seizeTokens",
          "type": "uint256"
        }
      ],
      "name": "seize",
      "outputs": [
        {
          "internalType": "uint256",
          "name": "",
          "type": "uint256"
        }
      ],
      "payable": false,
      "stateMutability": "nonpayable",
      "type": "function"
    },
    {
      "constant": true,
      "inputs": [],
      "name": "supplyRatePerBlock",
      "outputs": [
        {
          "internalType": "uint256",
          "name": "",
          "type": "uint256"
        }
      ],
      "payable": false,
      "stateMutability": "view",
      "type": "function"
    },
    {
      "constant": false,
      "inputs": [
        {
          "internalType": "contract EIP20NonStandardInterface",
          "name": "token",
          "type": "address"
        }
      ],
      "name": "sweepToken",
      "outputs": [],
      "payable": false,
      "stateMutability": "nonpayable",
      "type": "function"
    },
    {
      "constant": true,
      "inputs": [],
      "name": "symbol",
      "outputs": [
        {
          "internalType": "string",
          "name": "",
          "type": "string"
        }
      ],
      "payable": false,
      "stateMutability": "view",
      "type": "function"
    },
    {
      "constant": true,
      "inputs": [],
      "name": "totalBorrows",
      "outputs": [
        {
          "internalType": "uint256",
          "name": "",
          "type": "uint256"
        }
      ],
      "payable": false,
      "stateMutability": "view",
      "type": "function"
    },
    {
      "constant": false,
      "inputs": [],
      "name": "totalBorrowsCurrent",
      "outputs": [
        {
          "internalType": "uint256",
          "name": "",
          "type": "uint256"
        }
      ],
      "payable": false,
      "stateMutability": "nonpayable",
      "type": "function"
    },
    {
      "constant": true,
      "inputs": [],
      "name": "totalReserves",
      "outputs": [
        {
          "internalType": "uint256",
          "name": "",
          "type": "uint256"
        }
      ],
      "payable": false,
      "stateMutability": "view",
      "type": "function"
    },
    {
      "constant": true,
      "inputs": [],
      "name": "totalSupply",
      "outputs": [
        {
          "internalType": "uint256",
          "name": "",
          "type": "uint256"
        }
      ],
      "payable": false,
      "stateMutability": "view",
      "type": "function"
    },
    {
      "constant": false,
      "inputs": [
        {
          "internalType": "address",
          "name": "dst",
          "type": "address"
        },
        {
          "internalType": "uint256",
          "name": "amount",
          "type": "uint256"
        }
      ],
      "name": "transfer",
      "outputs": [
        {
          "internalType": "bool",
          "name": "",
          "type": "bool"
        }
      ],
      "payable": false,
      "stateMutability": "nonpayable",
      "type": "function"
    },
    {
      "constant": false,
      "inputs": [
        {
          "internalType": "address",
          "name": "src",
          "type": "address"
        },
        {
          "internalType": "address",
          "name": "dst",
          "type": "address"
        },
        {
          "internalType": "uint256",
          "name": "amount",
          "type": "uint256"
        }
      ],
      "name": "transferFrom",
      "outputs": [
        {
          "internalType": "bool",
          "name": "",
          "type": "bool"
        }
      ],
      "payable": false,
      "stateMutability": "nonpayable",
      "type": "function"
    },
    {
      "constant": true,
      "inputs": [],
      "name": "underlying",
      "outputs": [
        {
          "internalType": "address",
          "name": "",
          "type": "address"
        }
      ],
      "payable": false,
      "stateMutability": "view",
      "type": "function"
    }
  ],
  "transactionHash": "0x87e1540e7a1a38718c0a8e9a823c62df7f5c3bc2c7d170866091c2b6bc650ab7",
  "args": [
    "0xc778417E063141139Fce010982780140Aa0cD5Ab",
    "0x9B2b229c0ED641C41E276CcCa24dD4a79172C5d5",
    "0xf4c803b94B031f8BFc30A69dbE11398BF73EB11a",
    "200000000000000000000000000",
    "Citrus xDai (RealT pool)",
    "cirtXDAI",
    8,
    "0x5f1EFaf9c9Db04c71C62a0D615965d97eA9134a4",
    "0x69D5B445cc4635DE5B64A5C0D2d302E405FD184c",
    "0x"
  ],
  "solcInputHash": "3a81636df9bb88be9862017b69bde82d",
  "bytecode": "0x608060405260016012553480156200001657600080fd5b506040516200298a3803806200298a83398181016040526101408110156200003d57600080fd5b81516020830151604080850151606086015160808701805193519597949692959194919392820192846401000000008211156200007957600080fd5b9083019060208201858111156200008f57600080fd5b8251640100000000811182820188101715620000aa57600080fd5b82525081516020918201929091019080838360005b83811015620000d9578181015183820152602001620000bf565b50505050905090810190601f168015620001075780820380516001836020036101000a031916815260200191505b50604052602001805160405193929190846401000000008211156200012b57600080fd5b9083019060208201858111156200014157600080fd5b82516401000000008111828201881017156200015c57600080fd5b82525081516020918201929091019080838360005b838110156200018b57818101518382015260200162000171565b50505050905090810190601f168015620001b95780820380516001836020036101000a031916815260200191505b50604081815260208301519083015160608401516080909401805192969195919284640100000000821115620001ee57600080fd5b9083019060208201858111156200020457600080fd5b82516401000000008111828201881017156200021f57600080fd5b82525081516020918201929091019080838360005b838110156200024e57818101518382015260200162000234565b50505050905090810190601f1680156200027c5780820380516001836020036101000a031916815260200191505b5060405250505033600360016101000a8154816001600160a01b0302191690836001600160a01b0316021790555062000429828b8b8b8b8b8b8b60405160240180886001600160a01b03166001600160a01b03168152602001876001600160a01b03166001600160a01b03168152602001866001600160a01b03166001600160a01b0316815260200185815260200180602001806020018460ff1660ff168152602001838103835286818151815260200191508051906020019080838360005b83811015620003565781810151838201526020016200033c565b50505050905090810190601f168015620003845780820380516001836020036101000a031916815260200191505b50838103825285518152855160209182019187019080838360005b83811015620003b95781810151838201526020016200039f565b50505050905090810190601f168015620003e75780820380516001836020036101000a031916815260200191505b5060408051601f198184030181529190526020810180516001600160e01b03908116631a31d46560e01b17909152909a506200048a1698505050505050505050565b5062000441826000836001600160e01b036200055116565b505060038054610100600160a81b0319166101006001600160a01b0393841602179055601380546001600160a01b03191698909116979097179096555062000760945050505050565b606060006060846001600160a01b0316846040518082805190602001908083835b60208310620004cc5780518252601f199092019160209182019101620004ab565b6001836020036101000a038019825116818451168082178552505050505050905001915050600060405180830381855af49150503d80600081146200052e576040519150601f19603f3d011682016040523d82523d6000602084013e62000533565b606091505b5091509150600082141562000549573d60208201fd5b949350505050565b60035461010090046001600160a01b03163314620005a15760405162461bcd60e51b8152600401808060200182810382526039815260200180620029516039913960400191505060405180910390fd5b8115620005e3576040805160048152602481019091526020810180516001600160e01b0390811663153ab50560e01b17909152620005e191906200071d16565b505b6000620005f86001600160e01b036200074c16565b9050836000805160206200293183398151915255620006bc826040516024018080602001828103825283818151815260200191508051906020019080838360005b838110156200065357818101518382015260200162000639565b50505050905090810190601f168015620006815780820380516001836020036101000a031916815260200191505b5060408051601f198184030181529190526020810180516001600160e01b03908116630adccee560e31b179091529093506200071d16915050565b507fd604de94d45953f9138079ec1b82d533cb2160c906d1076d1f7ed54befbca97a81620006f26001600160e01b036200074c16565b604080516001600160a01b03938416815291909216602082015281519081900390910190a150505050565b606062000746620007366001600160e01b036200074c16565b836001600160e01b036200048a16565b92915050565b600080516020620029318339815191525490565b6121c180620007706000396000f3fe60806040526004361061038c5760003560e01c8063749f1044116101dc578063c37f68e211610102578063e9c714f2116100a0578063f851a4401161006f578063f851a44014610e9d578063f8f9da2814610eb2578063fca7820b14610ec7578063fe9c44ae14610ef15761038c565b8063e9c714f214610dfd578063f2b3abbd14610e12578063f3fdb15a14610e45578063f5e3c46214610e5a5761038c565b8063db006a75116100dc578063db006a7514610d48578063dbf7692914610d72578063dd62ed3e14610d98578063dff7648414610dd35761038c565b8063c37f68e214610c92578063c5ead62214610ceb578063c5ebeaec14610d1e5761038c565b8063a0712d681161017a578063ae9d70b011610149578063ae9d70b014610bf2578063b2a02ff114610c07578063b71d1a0c14610c4a578063bd6d894d14610c7d5761038c565b8063a0712d6814610b65578063a6afed9514610b8f578063a9059cbb14610ba4578063aa5af0fd14610bdd5761038c565b80638d3f9c62116101b65780638d3f9c6214610b005780638f840ddd14610b0857806395d89b4114610b1d57806395dd919314610b325761038c565b8063749f104414610a97578063852a12e314610aac578063884b934314610ad65761038c565b80633af9e669116102c1578063555bcc401161025f5780636c540baf1161022e5780636c540baf14610a255780636f307dc314610a3a57806370a0823114610a4f57806373acee9814610a825761038c565b8063555bcc40146109095780635fe3b567146109d1578063601a0bf1146109e65780636752e70214610a105761038c565b80634487152f1161029b5780634487152f146107e65780634576b5db1461089757806347bd3718146108ca5780634bf03edf146108df5761038c565b80633af9e669146107745780633b1d21a2146107a75780633e941010146107bc5761038c565b8063182df0f51161032e57806323b872dd1161030857806323b872dd1461069c5780632608f818146106df5780632678224714610718578063313ce567146107495761038c565b8063182df0f51461064c5780631be1956014610661578063219f2fe7146106945761038c565b80630e7527021161036a5780630e752702146105b3578063173b9904146105ef57806317bfdfbc1461060457806318160ddd146106375761038c565b806306fdde031461042b5780630933c1ed146104b5578063095ea7b314610566575b6013546001600160a01b03163314156103a457610429565b60006103ae610f06565b6001600160a01b03166000366040518083838082843760405192019450600093509091505080830381855af49150503d8060008114610409576040519150601f19603f3d011682016040523d82523d6000602084013e61040e565b606091505b505090506040513d6000823e818015610425573d82f35b3d82fd5b005b34801561043757600080fd5b50610440610f2b565b6040805160208082528351818301528351919283929083019185019080838360005b8381101561047a578181015183820152602001610462565b50505050905090810190601f1680156104a75780820380516001836020036101000a031916815260200191505b509250505060405180910390f35b3480156104c157600080fd5b50610440600480360360208110156104d857600080fd5b810190602081018135600160201b8111156104f257600080fd5b82018360208201111561050457600080fd5b803590602001918460018302840111600160201b8311171561052557600080fd5b91908080601f016020809104026020016040519081016040528093929190818152602001838380828437600092019190915250929550610fb8945050505050565b34801561057257600080fd5b5061059f6004803603604081101561058957600080fd5b506001600160a01b038135169060200135610fd1565b604080519115158252519081900360200190f35b3480156105bf57600080fd5b506105dd600480360360208110156105d657600080fd5b5035611048565b60408051918252519081900360200190f35b3480156105fb57600080fd5b506105dd6110af565b34801561061057600080fd5b506105dd6004803603602081101561062757600080fd5b50356001600160a01b03166110b5565b34801561064357600080fd5b506105dd611107565b34801561065857600080fd5b506105dd61110d565b34801561066d57600080fd5b506104296004803603602081101561068457600080fd5b50356001600160a01b0316611164565b6105dd6111b3565b3480156106a857600080fd5b5061059f600480360360608110156106bf57600080fd5b506001600160a01b038135811691602081013590911690604001356111eb565b3480156106eb57600080fd5b506105dd6004803603604081101561070257600080fd5b506001600160a01b03813516906020013561126b565b34801561072457600080fd5b5061072d6112c1565b604080516001600160a01b039092168252519081900360200190f35b34801561075557600080fd5b5061075e6112d0565b6040805160ff9092168252519081900360200190f35b34801561078057600080fd5b506105dd6004803603602081101561079757600080fd5b50356001600160a01b03166112d9565b3480156107b357600080fd5b506105dd61132b565b3480156107c857600080fd5b506105dd600480360360208110156107df57600080fd5b5035611363565b3480156107f257600080fd5b506104406004803603602081101561080957600080fd5b810190602081018135600160201b81111561082357600080fd5b82018360208201111561083557600080fd5b803590602001918460018302840111600160201b8311171561085657600080fd5b91908080601f0160208091040260200160405190810160405280939291908181526020018383808284376000920191909152509295506113aa945050505050565b3480156108a357600080fd5b506105dd600480360360208110156108ba57600080fd5b50356001600160a01b03166115c9565b3480156108d657600080fd5b506105dd61161b565b3480156108eb57600080fd5b506105dd6004803603602081101561090257600080fd5b5035611621565b34801561091557600080fd5b506104296004803603606081101561092c57600080fd5b6001600160a01b03823516916020810135151591810190606081016040820135600160201b81111561095d57600080fd5b82018360208201111561096f57600080fd5b803590602001918460018302840111600160201b8311171561099057600080fd5b91908080601f016020809104026020016040519081016040528093929190818152602001838380828437600092019190915250929550611668945050505050565b3480156109dd57600080fd5b5061072d61181b565b3480156109f257600080fd5b506105dd60048036036020811015610a0957600080fd5b503561182a565b348015610a1c57600080fd5b506105dd611871565b348015610a3157600080fd5b506105dd61187c565b348015610a4657600080fd5b5061072d611882565b348015610a5b57600080fd5b506105dd60048036036020811015610a7257600080fd5b50356001600160a01b0316611891565b348015610a8e57600080fd5b506105dd6118e3565b348015610aa357600080fd5b5061072d61191b565b348015610ab857600080fd5b506105dd60048036036020811015610acf57600080fd5b503561192a565b348015610ae257600080fd5b506105dd60048036036020811015610af957600080fd5b5035611971565b6104296119b8565b348015610b1457600080fd5b506105dd6119ed565b348015610b2957600080fd5b506104406119f3565b348015610b3e57600080fd5b506105dd60048036036020811015610b5557600080fd5b50356001600160a01b0316611a4b565b348015610b7157600080fd5b506105dd60048036036020811015610b8857600080fd5b5035611a9d565b348015610b9b57600080fd5b506105dd611ae4565b348015610bb057600080fd5b5061059f60048036036040811015610bc757600080fd5b506001600160a01b038135169060200135611b1c565b348015610be957600080fd5b506105dd611b72565b348015610bfe57600080fd5b506105dd611b78565b348015610c1357600080fd5b506105dd60048036036060811015610c2a57600080fd5b506001600160a01b03813581169160208101359091169060400135611bb0565b348015610c5657600080fd5b506105dd60048036036020811015610c6d57600080fd5b50356001600160a01b0316611c0e565b348015610c8957600080fd5b506105dd611c60565b348015610c9e57600080fd5b50610cc560048036036020811015610cb557600080fd5b50356001600160a01b0316611c98565b604080519485526020850193909352838301919091526060830152519081900360800190f35b348015610cf757600080fd5b506105dd60048036036020811015610d0e57600080fd5b50356001600160a01b0316611d2a565b348015610d2a57600080fd5b506105dd60048036036020811015610d4157600080fd5b5035611d7c565b348015610d5457600080fd5b506105dd60048036036020811015610d6b57600080fd5b5035611dc3565b61042960048036036020811015610d8857600080fd5b50356001600160a01b0316611e0a565b348015610da457600080fd5b506105dd60048036036040811015610dbb57600080fd5b506001600160a01b0381358116916020013516611e5e565b348015610ddf57600080fd5b506105dd60048036036020811015610df657600080fd5b5035611eb8565b348015610e0957600080fd5b506105dd611eff565b348015610e1e57600080fd5b506105dd60048036036020811015610e3557600080fd5b50356001600160a01b0316611f37565b348015610e5157600080fd5b5061072d611f89565b348015610e6657600080fd5b506105dd60048036036060811015610e7d57600080fd5b506001600160a01b03813581169160208101359160409091013516611f98565b348015610ea957600080fd5b5061072d611ff9565b348015610ebe57600080fd5b506105dd61200d565b348015610ed357600080fd5b506105dd60048036036020811015610eea57600080fd5b5035612045565b348015610efd57600080fd5b5061059f61208c565b7f360894a13ba1a3210667c828492db98dca3e2076cc3735a920a3ca505d382bbc5490565b60018054604080516020600284861615610100026000190190941693909304601f81018490048402820184019092528181529291830182828015610fb05780601f10610f8557610100808354040283529160200191610fb0565b820191906000526020600020905b815481529060010190602001808311610f9357829003601f168201915b505050505081565b6060610fcb610fc5610f06565b83612091565b92915050565b604080516001600160a01b038416602482015260448082018490528251808303909101815260649091019091526020810180516001600160e01b031663095ea7b360e01b17905260009060609061102790610fb8565b905080806020019051602081101561103e57600080fd5b5051949350505050565b6040805160248082018490528251808303909101815260449091019091526020810180516001600160e01b031663073a938160e11b17905260009060609061108f90610fb8565b90508080602001905160208110156110a657600080fd5b50519392505050565b60085481565b604080516001600160a01b0383166024808301919091528251808303909101815260449091019091526020810180516001600160e01b03166305eff7ef60e21b17905260009060609061108f90610fb8565b600d5481565b6040805160048152602481019091526020810180516001600160e01b031663182df0f560e01b179052600090606090611145906113aa565b905080806020019051602081101561115c57600080fd5b505191505090565b604080516001600160a01b0383166024808301919091528251808303909101815260449091019091526020810180516001600160e01b031662df0cab60e51b1790526111af90610fb8565b5050565b6040805160048152602481019091526020810180516001600160e01b031663219f2fe760e01b17905260009060609061114590610fb8565b604080516001600160a01b0380861660248301528416604482015260648082018490528251808303909101815260849091019091526020810180516001600160e01b03166323b872dd60e01b17905260009060609061124990610fb8565b905080806020019051602081101561126057600080fd5b505195945050505050565b604080516001600160a01b038416602482015260448082018490528251808303909101815260649091019091526020810180516001600160e01b03166304c11f0360e31b17905260009060609061102790610fb8565b6004546001600160a01b031681565b60035460ff1681565b604080516001600160a01b0383166024808301919091528251808303909101815260449091019091526020810180516001600160e01b0316633af9e66960e01b17905260009060609061108f90610fb8565b6040805160048152602481019091526020810180516001600160e01b0316631d8e90d160e11b179052600090606090611145906113aa565b6040805160248082018490528251808303909101815260449091019091526020810180516001600160e01b03166303e9410160e41b17905260009060609061108f90610fb8565b606060006060306001600160a01b0316846040516024018080602001828103825283818151815260200191508051906020019080838360005b838110156113fb5781810151838201526020016113e3565b50505050905090810190601f1680156114285780820380516001836020036101000a031916815260200191505b5060408051601f198184030181529181526020820180516001600160e01b0316630933c1ed60e01b178152905182519295509350839250908083835b602083106114835780518252601f199092019160209182019101611464565b6001836020036101000a038019825116818451168082178552505050505050905001915050600060405180830381855afa9150503d80600081146114e3576040519150601f19603f3d011682016040523d82523d6000602084013e6114e8565b606091505b509150915060008214156114fd573d60208201fd5b80806020019051602081101561151257600080fd5b8101908080516040519392919084600160201b82111561153157600080fd5b90830190602082018581111561154657600080fd5b8251600160201b81118282018810171561155f57600080fd5b82525081516020918201929091019080838360005b8381101561158c578181015183820152602001611574565b50505050905090810190601f1680156115b95780820380516001836020036101000a031916815260200191505b5060405250505092505050919050565b604080516001600160a01b0383166024808301919091528251808303909101815260449091019091526020810180516001600160e01b0316634576b5db60e01b17905260009060609061108f90610fb8565b600b5481565b6040805160248082018490528251808303909101815260449091019091526020810180516001600160e01b0316634bf03edf60e01b17905260009060609061108f90610fb8565b60035461010090046001600160a01b031633146116b65760405162461bcd60e51b81526004018080602001828103825260398152602001806121546039913960400191505060405180910390fd5b81156116f0576040805160048152602481019091526020810180516001600160e01b031663153ab50560e01b1790526116ee90610fb8565b505b60006116fa610f06565b9050837f360894a13ba1a3210667c828492db98dca3e2076cc3735a920a3ca505d382bbc556117c5826040516024018080602001828103825283818151815260200191508051906020019080838360005b8381101561176357818101518382015260200161174b565b50505050905090810190601f1680156117905780820380516001836020036101000a031916815260200191505b5060408051601f198184030181529190526020810180516001600160e01b0316630adccee560e31b1790529250610fb8915050565b507fd604de94d45953f9138079ec1b82d533cb2160c906d1076d1f7ed54befbca97a816117f0610f06565b604080516001600160a01b03938416815291909216602082015281519081900390910190a150505050565b6005546001600160a01b031681565b6040805160248082018490528251808303909101815260449091019091526020810180516001600160e01b031663601a0bf160e01b17905260009060609061108f90610fb8565b666379da05b6000081565b60095481565b6013546001600160a01b031681565b604080516001600160a01b0383166024808301919091528251808303909101815260449091019091526020810180516001600160e01b03166370a0823160e01b17905260009060609061108f906113aa565b6040805160048152602481019091526020810180516001600160e01b0316630e759dd360e31b17905260009060609061114590610fb8565b6011546001600160a01b031681565b6040805160248082018490528251808303909101815260449091019091526020810180516001600160e01b031663852a12e360e01b17905260009060609061108f90610fb8565b6040805160248082018490528251808303909101815260449091019091526020810180516001600160e01b031663884b934360e01b17905260009060609061108f90610fb8565b6040805160048152602481019091526020810180516001600160e01b031663469fce3160e11b1790526060906111af90610fb8565b600c5481565b6002805460408051602060018416156101000260001901909316849004601f81018490048402820184019092528181529291830182828015610fb05780601f10610f8557610100808354040283529160200191610fb0565b604080516001600160a01b0383166024808301919091528251808303909101815260449091019091526020810180516001600160e01b03166395dd919360e01b17905260009060609061108f906113aa565b6040805160248082018490528251808303909101815260449091019091526020810180516001600160e01b031663140e25ad60e31b17905260009060609061108f90610fb8565b6040805160048152602481019091526020810180516001600160e01b031663a6afed9560e01b17905260009060609061114590610fb8565b604080516001600160a01b038416602482015260448082018490528251808303909101815260649091019091526020810180516001600160e01b031663a9059cbb60e01b17905260009060609061102790610fb8565b600a5481565b6040805160048152602481019091526020810180516001600160e01b0316630ae9d70b60e41b179052600090606090611145906113aa565b604080516001600160a01b0380861660248301528416604482015260648082018490528251808303909101815260849091019091526020810180516001600160e01b031663b2a02ff160e01b17905260009060609061124990610fb8565b604080516001600160a01b0383166024808301919091528251808303909101815260449091019091526020810180516001600160e01b0316632dc7468360e21b17905260009060609061108f90610fb8565b6040805160048152602481019091526020810180516001600160e01b031663bd6d894d60e01b17905260009060609061114590610fb8565b604080516001600160a01b0383166024808301919091528251808303909101815260449091019091526020810180516001600160e01b03166361bfb47160e11b179052600090819081908190606090611cf0906113aa565b9050808060200190516080811015611d0757600080fd5b508051602082015160408301516060909301519199909850919650945092505050565b604080516001600160a01b0383166024808301919091528251808303909101815260449091019091526020810180516001600160e01b03166362f56b1160e11b17905260009060609061108f90610fb8565b6040805160248082018490528251808303909101815260449091019091526020810180516001600160e01b031663317afabb60e21b17905260009060609061108f90610fb8565b6040805160248082018490528251808303909101815260449091019091526020810180516001600160e01b031663db006a7560e01b17905260009060609061108f90610fb8565b604080516001600160a01b0383166024808301919091528251808303909101815260449091019091526020810180516001600160e01b031663dbf7692960e01b179052606090611e5990610fb8565b505050565b604080516001600160a01b03808516602483015283166044808301919091528251808303909101815260649091019091526020810180516001600160e01b0316636eb1769f60e11b179052600090606090611027906113aa565b6040805160248082018490528251808303909101815260449091019091526020810180516001600160e01b03166337fdd92160e21b17905260009060609061108f90610fb8565b6040805160048152602481019091526020810180516001600160e01b03166374e38a7960e11b17905260009060609061114590610fb8565b604080516001600160a01b0383166024808301919091528251808303909101815260449091019091526020810180516001600160e01b031663f2b3abbd60e01b17905260009060609061108f90610fb8565b6006546001600160a01b031681565b604080516001600160a01b0380861660248301526044820185905283166064808301919091528251808303909101815260849091019091526020810180516001600160e01b0316637af1e23160e11b17905260009060609061124990610fb8565b60035461010090046001600160a01b031681565b6040805160048152602481019091526020810180516001600160e01b0316631f1f3b4560e31b179052600090606090611145906113aa565b6040805160248082018490528251808303909101815260449091019091526020810180516001600160e01b031663fca7820b60e01b17905260009060609061108f90610fb8565b600181565b606060006060846001600160a01b0316846040518082805190602001908083835b602083106120d15780518252601f1990920191602091820191016120b2565b6001836020036101000a038019825116818451168082178552505050505050905001915050600060405180830381855af49150503d8060008114612131576040519150601f19603f3d011682016040523d82523d6000602084013e612136565b606091505b5091509150600082141561214b573d60208201fd5b94935050505056fe43457263323044656c656761746f723a3a5f736574496d706c656d656e746174696f6e3a2043616c6c6572206d7573742062652061646d696ea265627a7a7231582059dbeb5122378c9db92a19bc6101b8a001be971d66958158d98b1f10a5a5c28764736f6c63430005100032360894a13ba1a3210667c828492db98dca3e2076cc3735a920a3ca505d382bbc43457263323044656c656761746f723a3a5f736574496d706c656d656e746174696f6e3a2043616c6c6572206d7573742062652061646d696e",
  "devdoc": {
    "author": "Citrus",
    "methods": {
      "_acceptAdmin()": {
        "details": "Admin function for pending admin to accept role and update admin",
        "return": "uint 0=success, otherwise a failure (see ErrorReporter.sol for details)"
      },
      "_addReserves(uint256)": {
        "params": {
          "addAmount": "Amount of reserves to add"
        },
        "return": "uint 0=success, otherwise a failure (see ErrorReporter.sol for details)"
      },
      "_reduceReserves(uint256)": {
        "params": {
          "reduceAmount": "Amount of reduction to reserves"
        },
        "return": "uint 0=success, otherwise a failure (see ErrorReporter.sol for details)"
      },
      "_setComptroller(address)": {
        "details": "Admin function to set a new comptroller",
        "return": "uint 0=success, otherwise a failure (see ErrorReporter.sol for details)"
      },
      "_setImplementation(address,bool,bytes)": {
        "params": {
          "allowResign": "Flag to indicate whether to call _resignImplementation on the old implementation",
          "becomeImplementationData": "The encoded bytes data to be passed to _becomeImplementation",
          "implementation_": "The address of the new implementation for delegation"
        }
      },
      "_setInterestRateModel(address)": {
        "details": "Admin function to accrue interest and update the interest rate model",
        "params": {
          "newInterestRateModel": "the new interest rate model to use"
        },
        "return": "uint 0=success, otherwise a failure (see ErrorReporter.sol for details)"
      },
      "_setPendingAdmin(address)": {
        "details": "Admin function to begin change of admin. The newPendingAdmin must call `_acceptAdmin` to finalize the transfer.",
        "params": {
          "newPendingAdmin": "New pending admin."
        },
        "return": "uint 0=success, otherwise a failure (see ErrorReporter.sol for details)"
      },
      "_setReserveFactor(uint256)": {
        "details": "Admin function to accrue interest and set a new reserve factor",
        "return": "uint 0=success, otherwise a failure (see ErrorReporter.sol for details)"
      },
      "accrueInterest()": {
        "details": "This calculates interest accrued from the last checkpointed block     up to the current block and writes new checkpoint to storage."
      },
      "allowance(address,address)": {
        "params": {
          "owner": "The address of the account which owns the tokens to be spent",
          "spender": "The address of the account which may transfer tokens"
        },
        "return": "The number of tokens allowed to be spent (-1 means infinite)"
      },
      "approve(address,uint256)": {
        "details": "This will overwrite the approval amount for `spender` and is subject to issues noted [here](https://eips.ethereum.org/EIPS/eip-20#approve)",
        "params": {
          "amount": "The number of tokens that are approved (-1 means infinite)",
          "spender": "The address of the account which may transfer tokens"
        },
        "return": "Whether or not the approval succeeded"
      },
      "balanceOf(address)": {
        "params": {
          "owner": "The address of the account to query"
        },
        "return": "The number of tokens owned by `owner`"
      },
      "balanceOfUnderlying(address)": {
        "details": "This also accrues interest in a transaction",
        "params": {
          "owner": "The address of the account to query"
        },
        "return": "The amount of underlying owned by `owner`"
      },
      "borrow(uint256)": {
        "params": {
          "borrowAmount": "The amount of the underlying asset to borrow"
        },
        "return": "uint 0=success, otherwise a failure (see ErrorReporter.sol for details)"
      },
      "borrowBalanceCurrent(address)": {
        "params": {
          "account": "The address whose balance should be calculated after updating borrowIndex"
        },
        "return": "The calculated balance"
      },
      "borrowBalanceStored(address)": {
        "params": {
          "account": "The address whose balance should be calculated"
        },
        "return": "The calculated balance"
      },
      "borrowNative(uint256)": {
        "params": {
          "borrowAmount": "The amount of the underlying asset to borrow"
        },
        "return": "uint 0=success, otherwise a failure (see ErrorReporter.sol for details)"
      },
      "borrowRatePerBlock()": {
        "return": "The borrow interest rate per block, scaled by 1e18"
      },
      "constructor": {
        "params": {
          "admin_": "Address of the administrator of this token",
          "becomeImplementationData": "The encoded args for becomeImplementation",
          "comptroller_": "The address of the Comptroller",
          "decimals_": "ERC-20 decimal precision of this token",
          "implementation_": "The address of the implementation the contract delegates to",
          "initialExchangeRateMantissa_": "The initial exchange rate, scaled by 1e18",
          "interestRateModel_": "The address of the interest rate model",
          "name_": "ERC-20 name of this token",
          "symbol_": "ERC-20 symbol of this token",
          "underlying_": "The address of the underlying asset"
        }
      },
      "delegateToImplementation(bytes)": {
        "details": "It returns to the external caller whatever the implementation returns or forwards reverts",
        "params": {
          "data": "The raw data to delegatecall"
        },
        "return": "The returned bytes from the delegatecall"
      },
      "delegateToViewImplementation(bytes)": {
        "details": "It returns to the external caller whatever the implementation returns or forwards reverts There are an additional 2 prefix uints from the wrapper returndata, which we ignore since we make an extra hop.",
        "params": {
          "data": "The raw data to delegatecall"
        },
        "return": "The returned bytes from the delegatecall"
      },
      "exchangeRateCurrent()": {
        "return": "Calculated exchange rate scaled by 1e18"
      },
      "exchangeRateStored()": {
        "details": "This function does not accrue interest before calculating the exchange rate",
        "return": "Calculated exchange rate scaled by 1e18"
      },
      "getAccountSnapshot(address)": {
        "details": "This is used by comptroller to more efficiently perform liquidity checks.",
        "params": {
          "account": "Address of the account to snapshot"
        },
        "return": "(possible error, token balance, borrow balance, exchange rate mantissa)"
      },
      "getCash()": {
        "return": "The quantity of underlying asset owned by this contract"
      },
      "liquidateBorrow(address,uint256,address)": {
        "params": {
          "borrower": "The borrower of this cToken to be liquidated",
          "cTokenCollateral": "The market in which to seize collateral from the borrower",
          "repayAmount": "The amount of the underlying borrowed asset to repay"
        },
        "return": "uint 0=success, otherwise a failure (see ErrorReporter.sol for details)"
      },
      "mint(uint256)": {
        "details": "Accrues interest whether or not the operation succeeds, unless reverted",
        "params": {
          "mintAmount": "The amount of the underlying asset to supply"
        },
        "return": "uint 0=success, otherwise a failure (see ErrorReporter.sol for details)"
      },
      "mintNative()": {
        "details": "Reverts upon any failure"
      },
      "redeem(uint256)": {
        "details": "Accrues interest whether or not the operation succeeds, unless reverted",
        "params": {
          "redeemTokens": "The number of cTokens to redeem into underlying"
        },
        "return": "uint 0=success, otherwise a failure (see ErrorReporter.sol for details)"
      },
      "redeemNative(uint256)": {
        "details": "Accrues interest whether or not the operation succeeds, unless reverted",
        "params": {
          "redeemTokens": "The number of cTokens to redeem into underlying"
        },
        "return": "uint 0=success, otherwise a failure (see ErrorReporter.sol for details)"
      },
      "redeemUnderlying(uint256)": {
        "details": "Accrues interest whether or not the operation succeeds, unless reverted",
        "params": {
          "redeemAmount": "The amount of underlying to redeem"
        },
        "return": "uint 0=success, otherwise a failure (see ErrorReporter.sol for details)"
      },
      "redeemUnderlyingNative(uint256)": {
        "details": "Accrues interest whether or not the operation succeeds, unless reverted",
        "params": {
          "redeemAmount": "The amount of underlying to redeem"
        },
        "return": "uint 0=success, otherwise a failure (see ErrorReporter.sol for details)"
      },
      "repayBorrow(uint256)": {
        "params": {
          "repayAmount": "The amount to repay"
        },
        "return": "uint 0=success, otherwise a failure (see ErrorReporter.sol for details)"
      },
      "repayBorrowBehalf(address,uint256)": {
        "params": {
          "borrower": "the account with the debt being payed off",
          "repayAmount": "The amount to repay"
        },
        "return": "uint 0=success, otherwise a failure (see ErrorReporter.sol for details)"
      },
      "repayBorrowBehalfNative(address)": {
        "details": "Reverts upon any failure",
        "params": {
          "borrower": "the account with the debt being payed off"
        }
      },
      "repayBorrowNative()": {
        "details": "Reverts upon any failure"
      },
      "seize(address,address,uint256)": {
        "details": "Will fail unless called by another cToken during the process of liquidation. Its absolutely critical to use msg.sender as the borrowed cToken and not a parameter.",
        "params": {
          "borrower": "The account having collateral seized",
          "liquidator": "The account receiving seized collateral",
          "seizeTokens": "The number of cTokens to seize"
        },
        "return": "uint 0=success, otherwise a failure (see ErrorReporter.sol for details)"
      },
      "supplyRatePerBlock()": {
        "return": "The supply interest rate per block, scaled by 1e18"
      },
      "sweepToken(address)": {
        "params": {
          "token": "The address of the ERC-20 token to sweep"
        }
      },
      "totalBorrowsCurrent()": {
        "return": "The total borrows with interest"
      },
      "transfer(address,uint256)": {
        "params": {
          "amount": "The number of tokens to transfer",
          "dst": "The address of the destination account"
        },
        "return": "Whether or not the transfer succeeded"
      },
      "transferFrom(address,address,uint256)": {
        "params": {
          "amount": "The number of tokens to transfer",
          "dst": "The address of the destination account",
          "src": "The address of the source account"
        },
        "return": "Whether or not the transfer succeeded"
      }
    },
    "title": "Compound's CWrappedNativeDelegator Contract"
  },
  "userdoc": {
    "methods": {
      "_acceptAdmin()": {
        "notice": "Accepts transfer of admin rights. msg.sender must be pendingAdmin"
      },
      "_addReserves(uint256)": {
        "notice": "Accrues interest and adds reserves by transferring from admin"
      },
      "_reduceReserves(uint256)": {
        "notice": "Accrues interest and reduces reserves by transferring to admin"
      },
      "_setComptroller(address)": {
        "notice": "Sets a new comptroller for the market"
      },
      "_setImplementation(address,bool,bytes)": {
        "notice": "Called by the admin to update the implementation of the delegator"
      },
      "_setInterestRateModel(address)": {
        "notice": "Accrues interest and updates the interest rate model using _setInterestRateModelFresh"
      },
      "_setPendingAdmin(address)": {
        "notice": "Begins transfer of admin rights. The newPendingAdmin must call `_acceptAdmin` to finalize the transfer."
      },
      "_setReserveFactor(uint256)": {
        "notice": "accrues interest and sets a new reserve factor for the protocol using _setReserveFactorFresh"
      },
      "accrueInterest()": {
        "notice": "Applies accrued interest to total borrows and reserves."
      },
      "allowance(address,address)": {
        "notice": "Get the current allowance from `owner` for `spender`"
      },
      "approve(address,uint256)": {
        "notice": "Approve `spender` to transfer up to `amount` from `src`"
      },
      "balanceOf(address)": {
        "notice": "Get the token balance of the `owner`"
      },
      "balanceOfUnderlying(address)": {
        "notice": "Get the underlying balance of the `owner`"
      },
      "borrow(uint256)": {
        "notice": "Sender borrows assets from the protocol to their own address"
      },
      "borrowBalanceCurrent(address)": {
        "notice": "Accrue interest to updated borrowIndex and then calculate account's borrow balance using the updated borrowIndex"
      },
      "borrowBalanceStored(address)": {
        "notice": "Return the borrow balance of account based on stored data"
      },
      "borrowNative(uint256)": {
        "notice": "Sender borrows assets from the protocol to their own address"
      },
      "borrowRatePerBlock()": {
        "notice": "Returns the current per-block borrow interest rate for this cToken"
      },
      "constructor": "Construct a new money market",
      "delegateToImplementation(bytes)": {
        "notice": "Delegates execution to the implementation contract"
      },
      "delegateToViewImplementation(bytes)": {
        "notice": "Delegates execution to an implementation contract"
      },
      "exchangeRateCurrent()": {
        "notice": "Accrue interest then return the up-to-date exchange rate"
      },
      "exchangeRateStored()": {
        "notice": "Calculates the exchange rate from the underlying to the CToken"
      },
      "getAccountSnapshot(address)": {
        "notice": "Get a snapshot of the account's balances, and the cached exchange rate"
      },
      "getCash()": {
        "notice": "Get cash balance of this cToken in the underlying asset"
      },
      "liquidateBorrow(address,uint256,address)": {
        "notice": "The sender liquidates the borrowers collateral. The collateral seized is transferred to the liquidator."
      },
      "mint(uint256)": {
        "notice": "Sender supplies assets into the market and receives cTokens in exchange"
      },
      "mintNative()": {
        "notice": "Sender supplies assets into the market and receives cTokens in exchange"
      },
      "redeem(uint256)": {
        "notice": "Sender redeems cTokens in exchange for the underlying asset"
      },
      "redeemNative(uint256)": {
        "notice": "Sender redeems cTokens in exchange for the underlying asset"
      },
      "redeemUnderlying(uint256)": {
        "notice": "Sender redeems cTokens in exchange for a specified amount of underlying asset"
      },
      "redeemUnderlyingNative(uint256)": {
        "notice": "Sender redeems cTokens in exchange for a specified amount of underlying asset"
      },
      "repayBorrow(uint256)": {
        "notice": "Sender repays their own borrow"
      },
      "repayBorrowBehalf(address,uint256)": {
        "notice": "Sender repays a borrow belonging to borrower"
      },
      "repayBorrowBehalfNative(address)": {
        "notice": "Sender repays a borrow belonging to borrower"
      },
      "repayBorrowNative()": {
        "notice": "Sender repays their own borrow"
      },
      "seize(address,address,uint256)": {
        "notice": "Transfers collateral tokens (this market) to the liquidator."
      },
      "supplyRatePerBlock()": {
        "notice": "Returns the current per-block supply interest rate for this cToken"
      },
      "sweepToken(address)": {
        "notice": "A public function to sweep accidental ERC-20 transfers to this contract. Tokens are sent to admin (timelock)"
      },
      "totalBorrowsCurrent()": {
        "notice": "Returns the current total borrows plus accrued interest"
      },
      "transfer(address,uint256)": {
        "notice": "Transfer `amount` tokens from `msg.sender` to `dst`"
      },
      "transferFrom(address,address,uint256)": {
        "notice": "Transfer `amount` tokens from `src` to `dst`"
      }
    },
    "notice": "CTokens which wraps Wrapped Ether and delegate to an implementation"
  },
  "storageLayout": {
    "storage": [
      {
        "astId": 6299,
        "contract": "contracts/CWrappedNativeDelegator.sol:CWrappedNativeDelegator",
        "label": "_notEntered",
        "offset": 0,
        "slot": "0",
        "type": "t_bool"
      },
      {
        "astId": 6301,
        "contract": "contracts/CWrappedNativeDelegator.sol:CWrappedNativeDelegator",
        "label": "name",
        "offset": 0,
        "slot": "1",
        "type": "t_string_storage"
      },
      {
        "astId": 6303,
        "contract": "contracts/CWrappedNativeDelegator.sol:CWrappedNativeDelegator",
        "label": "symbol",
        "offset": 0,
        "slot": "2",
        "type": "t_string_storage"
      },
      {
        "astId": 6305,
        "contract": "contracts/CWrappedNativeDelegator.sol:CWrappedNativeDelegator",
        "label": "decimals",
        "offset": 0,
        "slot": "3",
        "type": "t_uint8"
      },
      {
        "astId": 6313,
        "contract": "contracts/CWrappedNativeDelegator.sol:CWrappedNativeDelegator",
        "label": "admin",
        "offset": 1,
        "slot": "3",
        "type": "t_address_payable"
      },
      {
        "astId": 6315,
        "contract": "contracts/CWrappedNativeDelegator.sol:CWrappedNativeDelegator",
        "label": "pendingAdmin",
        "offset": 0,
        "slot": "4",
        "type": "t_address_payable"
      },
      {
        "astId": 6317,
        "contract": "contracts/CWrappedNativeDelegator.sol:CWrappedNativeDelegator",
        "label": "comptroller",
        "offset": 0,
        "slot": "5",
        "type": "t_contract(ComptrollerInterface)36245"
      },
      {
        "astId": 6319,
        "contract": "contracts/CWrappedNativeDelegator.sol:CWrappedNativeDelegator",
        "label": "interestRateModel",
        "offset": 0,
        "slot": "6",
        "type": "t_contract(InterestRateModel)40627"
      },
      {
        "astId": 6321,
        "contract": "contracts/CWrappedNativeDelegator.sol:CWrappedNativeDelegator",
        "label": "initialExchangeRateMantissa",
        "offset": 0,
        "slot": "7",
        "type": "t_uint256"
      },
      {
        "astId": 6323,
        "contract": "contracts/CWrappedNativeDelegator.sol:CWrappedNativeDelegator",
        "label": "reserveFactorMantissa",
        "offset": 0,
        "slot": "8",
        "type": "t_uint256"
      },
      {
        "astId": 6325,
        "contract": "contracts/CWrappedNativeDelegator.sol:CWrappedNativeDelegator",
        "label": "accrualBlockNumber",
        "offset": 0,
        "slot": "9",
        "type": "t_uint256"
      },
      {
        "astId": 6327,
        "contract": "contracts/CWrappedNativeDelegator.sol:CWrappedNativeDelegator",
        "label": "borrowIndex",
        "offset": 0,
        "slot": "10",
        "type": "t_uint256"
      },
      {
        "astId": 6329,
        "contract": "contracts/CWrappedNativeDelegator.sol:CWrappedNativeDelegator",
        "label": "totalBorrows",
        "offset": 0,
        "slot": "11",
        "type": "t_uint256"
      },
      {
        "astId": 6331,
        "contract": "contracts/CWrappedNativeDelegator.sol:CWrappedNativeDelegator",
        "label": "totalReserves",
        "offset": 0,
        "slot": "12",
        "type": "t_uint256"
      },
      {
        "astId": 6333,
        "contract": "contracts/CWrappedNativeDelegator.sol:CWrappedNativeDelegator",
        "label": "totalSupply",
        "offset": 0,
        "slot": "13",
        "type": "t_uint256"
      },
      {
        "astId": 6337,
        "contract": "contracts/CWrappedNativeDelegator.sol:CWrappedNativeDelegator",
        "label": "accountTokens",
        "offset": 0,
        "slot": "14",
        "type": "t_mapping(t_address,t_uint256)"
      },
      {
        "astId": 6343,
        "contract": "contracts/CWrappedNativeDelegator.sol:CWrappedNativeDelegator",
        "label": "transferAllowances",
        "offset": 0,
        "slot": "15",
        "type": "t_mapping(t_address,t_mapping(t_address,t_uint256))"
      },
      {
        "astId": 6352,
        "contract": "contracts/CWrappedNativeDelegator.sol:CWrappedNativeDelegator",
        "label": "accountBorrows",
        "offset": 0,
        "slot": "16",
        "type": "t_mapping(t_address,t_struct(BorrowSnapshot)6348_storage)"
      },
      {
        "astId": 6357,
        "contract": "contracts/CWrappedNativeDelegator.sol:CWrappedNativeDelegator",
        "label": "feeTaker",
        "offset": 0,
        "slot": "17",
        "type": "t_address_payable"
      },
      {
        "astId": 6754,
        "contract": "contracts/CWrappedNativeDelegator.sol:CWrappedNativeDelegator",
        "label": "nativeStatus",
        "offset": 0,
        "slot": "18",
        "type": "t_uint256"
      },
      {
        "astId": 6674,
        "contract": "contracts/CWrappedNativeDelegator.sol:CWrappedNativeDelegator",
        "label": "underlying",
        "offset": 0,
        "slot": "19",
        "type": "t_address"
      }
    ],
    "types": {
      "t_address": {
        "encoding": "inplace",
        "label": "address",
        "numberOfBytes": "20"
      },
      "t_address_payable": {
        "encoding": "inplace",
        "label": "address payable",
        "numberOfBytes": "20"
      },
      "t_bool": {
        "encoding": "inplace",
        "label": "bool",
        "numberOfBytes": "1"
      },
      "t_contract(ComptrollerInterface)36245": {
        "encoding": "inplace",
        "label": "contract ComptrollerInterface",
        "numberOfBytes": "20"
      },
      "t_contract(InterestRateModel)40627": {
        "encoding": "inplace",
        "label": "contract InterestRateModel",
        "numberOfBytes": "20"
      },
      "t_mapping(t_address,t_mapping(t_address,t_uint256))": {
        "encoding": "mapping",
        "key": "t_address",
        "label": "mapping(address => mapping(address => uint256))",
        "numberOfBytes": "32",
        "value": "t_mapping(t_address,t_uint256)"
      },
      "t_mapping(t_address,t_struct(BorrowSnapshot)6348_storage)": {
        "encoding": "mapping",
        "key": "t_address",
        "label": "mapping(address => struct CTokenStorage.BorrowSnapshot)",
        "numberOfBytes": "32",
        "value": "t_struct(BorrowSnapshot)6348_storage"
      },
      "t_mapping(t_address,t_uint256)": {
        "encoding": "mapping",
        "key": "t_address",
        "label": "mapping(address => uint256)",
        "numberOfBytes": "32",
        "value": "t_uint256"
      },
      "t_string_storage": {
        "encoding": "bytes",
        "label": "string",
        "numberOfBytes": "32"
      },
      "t_struct(BorrowSnapshot)6348_storage": {
        "encoding": "inplace",
        "label": "struct CTokenStorage.BorrowSnapshot",
        "members": [
          {
            "astId": 6345,
            "contract": "contracts/CWrappedNativeDelegator.sol:CWrappedNativeDelegator",
            "label": "principal",
            "offset": 0,
            "slot": "0",
            "type": "t_uint256"
          },
          {
            "astId": 6347,
            "contract": "contracts/CWrappedNativeDelegator.sol:CWrappedNativeDelegator",
            "label": "interestIndex",
            "offset": 0,
            "slot": "1",
            "type": "t_uint256"
          }
        ],
        "numberOfBytes": "64"
      },
      "t_uint256": {
        "encoding": "inplace",
        "label": "uint256",
        "numberOfBytes": "32"
      },
      "t_uint8": {
        "encoding": "inplace",
        "label": "uint8",
        "numberOfBytes": "1"
      }
    }
  }
}