{
  "address": "0xC9444FC5C4D7108f64CAb47694f5F6c4A9c3EEFb",
  "abi": [
    {
      "inputs": [
        {
          "internalType": "contract ComptrollerInterface",
          "name": "comptroller_",
          "type": "address"
        },
        {
          "internalType": "contract InterestRateModel",
          "name": "interestRateModel_",
          "type": "address"
        },
        {
          "internalType": "uint256",
          "name": "initialExchangeRateMantissa_",
          "type": "uint256"
        },
        {
          "internalType": "string",
          "name": "name_",
          "type": "string"
        },
        {
          "internalType": "string",
          "name": "symbol_",
          "type": "string"
        },
        {
          "internalType": "uint8",
          "name": "decimals_",
          "type": "uint8"
        },
        {
          "internalType": "address payable",
          "name": "admin_",
          "type": "address"
        }
      ],
      "payable": false,
      "stateMutability": "nonpayable",
      "type": "constructor"
    },
    {
      "anonymous": false,
      "inputs": [
        {
          "indexed": false,
          "internalType": "uint256",
          "name": "cashPrior",
          "type": "uint256"
        },
        {
          "indexed": false,
          "internalType": "uint256",
          "name": "interestAccumulated",
          "type": "uint256"
        },
        {
          "indexed": false,
          "internalType": "uint256",
          "name": "borrowIndex",
          "type": "uint256"
        },
        {
          "indexed": false,
          "internalType": "uint256",
          "name": "totalBorrows",
          "type": "uint256"
        }
      ],
      "name": "AccrueInterest",
      "type": "event"
    },
    {
      "anonymous": false,
      "inputs": [
        {
          "indexed": true,
          "internalType": "address",
          "name": "owner",
          "type": "address"
        },
        {
          "indexed": true,
          "internalType": "address",
          "name": "spender",
          "type": "address"
        },
        {
          "indexed": false,
          "internalType": "uint256",
          "name": "amount",
          "type": "uint256"
        }
      ],
      "name": "Approval",
      "type": "event"
    },
    {
      "anonymous": false,
      "inputs": [
        {
          "indexed": false,
          "internalType": "address",
          "name": "borrower",
          "type": "address"
        },
        {
          "indexed": false,
          "internalType": "uint256",
          "name": "borrowAmount",
          "type": "uint256"
        },
        {
          "indexed": false,
          "internalType": "uint256",
          "name": "accountBorrows",
          "type": "uint256"
        },
        {
          "indexed": false,
          "internalType": "uint256",
          "name": "totalBorrows",
          "type": "uint256"
        }
      ],
      "name": "Borrow",
      "type": "event"
    },
    {
      "anonymous": false,
      "inputs": [
        {
          "indexed": false,
          "internalType": "uint256",
          "name": "error",
          "type": "uint256"
        },
        {
          "indexed": false,
          "internalType": "uint256",
          "name": "info",
          "type": "uint256"
        },
        {
          "indexed": false,
          "internalType": "uint256",
          "name": "detail",
          "type": "uint256"
        }
      ],
      "name": "Failure",
      "type": "event"
    },
    {
      "anonymous": false,
      "inputs": [
        {
          "indexed": false,
          "internalType": "address",
          "name": "liquidator",
          "type": "address"
        },
        {
          "indexed": false,
          "internalType": "address",
          "name": "borrower",
          "type": "address"
        },
        {
          "indexed": false,
          "internalType": "uint256",
          "name": "repayAmount",
          "type": "uint256"
        },
        {
          "indexed": false,
          "internalType": "address",
          "name": "cTokenCollateral",
          "type": "address"
        },
        {
          "indexed": false,
          "internalType": "uint256",
          "name": "seizeTokens",
          "type": "uint256"
        }
      ],
      "name": "LiquidateBorrow",
      "type": "event"
    },
    {
      "anonymous": false,
      "inputs": [
        {
          "indexed": false,
          "internalType": "address",
          "name": "minter",
          "type": "address"
        },
        {
          "indexed": false,
          "internalType": "uint256",
          "name": "mintAmount",
          "type": "uint256"
        },
        {
          "indexed": false,
          "internalType": "uint256",
          "name": "mintTokens",
          "type": "uint256"
        }
      ],
      "name": "Mint",
      "type": "event"
    },
    {
      "anonymous": false,
      "inputs": [
        {
          "indexed": false,
          "internalType": "address",
          "name": "oldAdmin",
          "type": "address"
        },
        {
          "indexed": false,
          "internalType": "address",
          "name": "newAdmin",
          "type": "address"
        }
      ],
      "name": "NewAdmin",
      "type": "event"
    },
    {
      "anonymous": false,
      "inputs": [
        {
          "indexed": false,
          "internalType": "contract ComptrollerInterface",
          "name": "oldComptroller",
          "type": "address"
        },
        {
          "indexed": false,
          "internalType": "contract ComptrollerInterface",
          "name": "newComptroller",
          "type": "address"
        }
      ],
      "name": "NewComptroller",
      "type": "event"
    },
    {
      "anonymous": false,
      "inputs": [
        {
          "indexed": false,
          "internalType": "address",
          "name": "oldFeeTaker",
          "type": "address"
        },
        {
          "indexed": false,
          "internalType": "address",
          "name": "newFeeTaker",
          "type": "address"
        }
      ],
      "name": "NewFeeTaker",
      "type": "event"
    },
    {
      "anonymous": false,
      "inputs": [
        {
          "indexed": false,
          "internalType": "contract InterestRateModel",
          "name": "oldInterestRateModel",
          "type": "address"
        },
        {
          "indexed": false,
          "internalType": "contract InterestRateModel",
          "name": "newInterestRateModel",
          "type": "address"
        }
      ],
      "name": "NewMarketInterestRateModel",
      "type": "event"
    },
    {
      "anonymous": false,
      "inputs": [
        {
          "indexed": false,
          "internalType": "address",
          "name": "oldPendingAdmin",
          "type": "address"
        },
        {
          "indexed": false,
          "internalType": "address",
          "name": "newPendingAdmin",
          "type": "address"
        }
      ],
      "name": "NewPendingAdmin",
      "type": "event"
    },
    {
      "anonymous": false,
      "inputs": [
        {
          "indexed": false,
          "internalType": "uint256",
          "name": "oldReserveFactorMantissa",
          "type": "uint256"
        },
        {
          "indexed": false,
          "internalType": "uint256",
          "name": "newReserveFactorMantissa",
          "type": "uint256"
        }
      ],
      "name": "NewReserveFactor",
      "type": "event"
    },
    {
      "anonymous": false,
      "inputs": [
        {
          "indexed": false,
          "internalType": "address",
          "name": "redeemer",
          "type": "address"
        },
        {
          "indexed": false,
          "internalType": "uint256",
          "name": "redeemAmount",
          "type": "uint256"
        },
        {
          "indexed": false,
          "internalType": "uint256",
          "name": "redeemTokens",
          "type": "uint256"
        }
      ],
      "name": "Redeem",
      "type": "event"
    },
    {
      "anonymous": false,
      "inputs": [
        {
          "indexed": false,
          "internalType": "address",
          "name": "payer",
          "type": "address"
        },
        {
          "indexed": false,
          "internalType": "address",
          "name": "borrower",
          "type": "address"
        },
        {
          "indexed": false,
          "internalType": "uint256",
          "name": "repayAmount",
          "type": "uint256"
        },
        {
          "indexed": false,
          "internalType": "uint256",
          "name": "accountBorrows",
          "type": "uint256"
        },
        {
          "indexed": false,
          "internalType": "uint256",
          "name": "totalBorrows",
          "type": "uint256"
        }
      ],
      "name": "RepayBorrow",
      "type": "event"
    },
    {
      "anonymous": false,
      "inputs": [
        {
          "indexed": false,
          "internalType": "address",
          "name": "benefactor",
          "type": "address"
        },
        {
          "indexed": false,
          "internalType": "uint256",
          "name": "addAmount",
          "type": "uint256"
        },
        {
          "indexed": false,
          "internalType": "uint256",
          "name": "newTotalReserves",
          "type": "uint256"
        }
      ],
      "name": "ReservesAdded",
      "type": "event"
    },
    {
      "anonymous": false,
      "inputs": [
        {
          "indexed": false,
          "internalType": "address",
          "name": "admin",
          "type": "address"
        },
        {
          "indexed": false,
          "internalType": "uint256",
          "name": "reduceAmount",
          "type": "uint256"
        },
        {
          "indexed": false,
          "internalType": "uint256",
          "name": "newTotalReserves",
          "type": "uint256"
        }
      ],
      "name": "ReservesReduced",
      "type": "event"
    },
    {
      "anonymous": false,
      "inputs": [
        {
          "indexed": true,
          "internalType": "address",
          "name": "from",
          "type": "address"
        },
        {
          "indexed": true,
          "internalType": "address",
          "name": "to",
          "type": "address"
        },
        {
          "indexed": false,
          "internalType": "uint256",
          "name": "amount",
          "type": "uint256"
        }
      ],
      "name": "Transfer",
      "type": "event"
    },
    {
      "payable": true,
      "stateMutability": "payable",
      "type": "fallback"
    },
    {
      "constant": false,
      "inputs": [],
      "name": "_acceptAdmin",
      "outputs": [
        {
          "internalType": "uint256",
          "name": "",
          "type": "uint256"
        }
      ],
      "payable": false,
      "stateMutability": "nonpayable",
      "type": "function"
    },
    {
      "constant": false,
      "inputs": [],
      "name": "_addReserves",
      "outputs": [
        {
          "internalType": "uint256",
          "name": "",
          "type": "uint256"
        }
      ],
      "payable": true,
      "stateMutability": "payable",
      "type": "function"
    },
    {
      "constant": false,
      "inputs": [
        {
          "internalType": "uint256",
          "name": "reduceAmount",
          "type": "uint256"
        }
      ],
      "name": "_reduceReserves",
      "outputs": [
        {
          "internalType": "uint256",
          "name": "",
          "type": "uint256"
        }
      ],
      "payable": false,
      "stateMutability": "nonpayable",
      "type": "function"
    },
    {
      "constant": false,
      "inputs": [
        {
          "internalType": "contract ComptrollerInterface",
          "name": "newComptroller",
          "type": "address"
        }
      ],
      "name": "_setComptroller",
      "outputs": [
        {
          "internalType": "uint256",
          "name": "",
          "type": "uint256"
        }
      ],
      "payable": false,
      "stateMutability": "nonpayable",
      "type": "function"
    },
    {
      "constant": false,
      "inputs": [
        {
          "internalType": "address payable",
          "name": "newFeeTaker",
          "type": "address"
        }
      ],
      "name": "_setFeeTaker",
      "outputs": [
        {
          "internalType": "uint256",
          "name": "",
          "type": "uint256"
        }
      ],
      "payable": false,
      "stateMutability": "nonpayable",
      "type": "function"
    },
    {
      "constant": false,
      "inputs": [
        {
          "internalType": "contract InterestRateModel",
          "name": "newInterestRateModel",
          "type": "address"
        }
      ],
      "name": "_setInterestRateModel",
      "outputs": [
        {
          "internalType": "uint256",
          "name": "",
          "type": "uint256"
        }
      ],
      "payable": false,
      "stateMutability": "nonpayable",
      "type": "function"
    },
    {
      "constant": false,
      "inputs": [
        {
          "internalType": "address payable",
          "name": "newPendingAdmin",
          "type": "address"
        }
      ],
      "name": "_setPendingAdmin",
      "outputs": [
        {
          "internalType": "uint256",
          "name": "",
          "type": "uint256"
        }
      ],
      "payable": false,
      "stateMutability": "nonpayable",
      "type": "function"
    },
    {
      "constant": false,
      "inputs": [
        {
          "internalType": "uint256",
          "name": "newReserveFactorMantissa",
          "type": "uint256"
        }
      ],
      "name": "_setReserveFactor",
      "outputs": [
        {
          "internalType": "uint256",
          "name": "",
          "type": "uint256"
        }
      ],
      "payable": false,
      "stateMutability": "nonpayable",
      "type": "function"
    },
    {
      "constant": true,
      "inputs": [],
      "name": "accrualBlockNumber",
      "outputs": [
        {
          "internalType": "uint256",
          "name": "",
          "type": "uint256"
        }
      ],
      "payable": false,
      "stateMutability": "view",
      "type": "function"
    },
    {
      "constant": false,
      "inputs": [],
      "name": "accrueInterest",
      "outputs": [
        {
          "internalType": "uint256",
          "name": "",
          "type": "uint256"
        }
      ],
      "payable": false,
      "stateMutability": "nonpayable",
      "type": "function"
    },
    {
      "constant": true,
      "inputs": [],
      "name": "admin",
      "outputs": [
        {
          "internalType": "address payable",
          "name": "",
          "type": "address"
        }
      ],
      "payable": false,
      "stateMutability": "view",
      "type": "function"
    },
    {
      "constant": true,
      "inputs": [
        {
          "internalType": "address",
          "name": "owner",
          "type": "address"
        },
        {
          "internalType": "address",
          "name": "spender",
          "type": "address"
        }
      ],
      "name": "allowance",
      "outputs": [
        {
          "internalType": "uint256",
          "name": "",
          "type": "uint256"
        }
      ],
      "payable": false,
      "stateMutability": "view",
      "type": "function"
    },
    {
      "constant": false,
      "inputs": [
        {
          "internalType": "address",
          "name": "spender",
          "type": "address"
        },
        {
          "internalType": "uint256",
          "name": "amount",
          "type": "uint256"
        }
      ],
      "name": "approve",
      "outputs": [
        {
          "internalType": "bool",
          "name": "",
          "type": "bool"
        }
      ],
      "payable": false,
      "stateMutability": "nonpayable",
      "type": "function"
    },
    {
      "constant": true,
      "inputs": [
        {
          "internalType": "address",
          "name": "owner",
          "type": "address"
        }
      ],
      "name": "balanceOf",
      "outputs": [
        {
          "internalType": "uint256",
          "name": "",
          "type": "uint256"
        }
      ],
      "payable": false,
      "stateMutability": "view",
      "type": "function"
    },
    {
      "constant": false,
      "inputs": [
        {
          "internalType": "address",
          "name": "owner",
          "type": "address"
        }
      ],
      "name": "balanceOfUnderlying",
      "outputs": [
        {
          "internalType": "uint256",
          "name": "",
          "type": "uint256"
        }
      ],
      "payable": false,
      "stateMutability": "nonpayable",
      "type": "function"
    },
    {
      "constant": false,
      "inputs": [
        {
          "internalType": "uint256",
          "name": "borrowAmount",
          "type": "uint256"
        }
      ],
      "name": "borrow",
      "outputs": [
        {
          "internalType": "uint256",
          "name": "",
          "type": "uint256"
        }
      ],
      "payable": false,
      "stateMutability": "nonpayable",
      "type": "function"
    },
    {
      "constant": false,
      "inputs": [
        {
          "internalType": "address",
          "name": "account",
          "type": "address"
        }
      ],
      "name": "borrowBalanceCurrent",
      "outputs": [
        {
          "internalType": "uint256",
          "name": "",
          "type": "uint256"
        }
      ],
      "payable": false,
      "stateMutability": "nonpayable",
      "type": "function"
    },
    {
      "constant": true,
      "inputs": [
        {
          "internalType": "address",
          "name": "account",
          "type": "address"
        }
      ],
      "name": "borrowBalanceStored",
      "outputs": [
        {
          "internalType": "uint256",
          "name": "",
          "type": "uint256"
        }
      ],
      "payable": false,
      "stateMutability": "view",
      "type": "function"
    },
    {
      "constant": true,
      "inputs": [],
      "name": "borrowIndex",
      "outputs": [
        {
          "internalType": "uint256",
          "name": "",
          "type": "uint256"
        }
      ],
      "payable": false,
      "stateMutability": "view",
      "type": "function"
    },
    {
      "constant": true,
      "inputs": [],
      "name": "borrowRatePerBlock",
      "outputs": [
        {
          "internalType": "uint256",
          "name": "",
          "type": "uint256"
        }
      ],
      "payable": false,
      "stateMutability": "view",
      "type": "function"
    },
    {
      "constant": true,
      "inputs": [],
      "name": "comptroller",
      "outputs": [
        {
          "internalType": "contract ComptrollerInterface",
          "name": "",
          "type": "address"
        }
      ],
      "payable": false,
      "stateMutability": "view",
      "type": "function"
    },
    {
      "constant": true,
      "inputs": [],
      "name": "decimals",
      "outputs": [
        {
          "internalType": "uint8",
          "name": "",
          "type": "uint8"
        }
      ],
      "payable": false,
      "stateMutability": "view",
      "type": "function"
    },
    {
      "constant": false,
      "inputs": [],
      "name": "exchangeRateCurrent",
      "outputs": [
        {
          "internalType": "uint256",
          "name": "",
          "type": "uint256"
        }
      ],
      "payable": false,
      "stateMutability": "nonpayable",
      "type": "function"
    },
    {
      "constant": true,
      "inputs": [],
      "name": "exchangeRateStored",
      "outputs": [
        {
          "internalType": "uint256",
          "name": "",
          "type": "uint256"
        }
      ],
      "payable": false,
      "stateMutability": "view",
      "type": "function"
    },
    {
      "constant": true,
      "inputs": [],
      "name": "feeTaker",
      "outputs": [
        {
          "internalType": "address payable",
          "name": "",
          "type": "address"
        }
      ],
      "payable": false,
      "stateMutability": "view",
      "type": "function"
    },
    {
      "constant": true,
      "inputs": [
        {
          "internalType": "address",
          "name": "account",
          "type": "address"
        }
      ],
      "name": "getAccountSnapshot",
      "outputs": [
        {
          "internalType": "uint256",
          "name": "",
          "type": "uint256"
        },
        {
          "internalType": "uint256",
          "name": "",
          "type": "uint256"
        },
        {
          "internalType": "uint256",
          "name": "",
          "type": "uint256"
        },
        {
          "internalType": "uint256",
          "name": "",
          "type": "uint256"
        }
      ],
      "payable": false,
      "stateMutability": "view",
      "type": "function"
    },
    {
      "constant": true,
      "inputs": [],
      "name": "getCash",
      "outputs": [
        {
          "internalType": "uint256",
          "name": "",
          "type": "uint256"
        }
      ],
      "payable": false,
      "stateMutability": "view",
      "type": "function"
    },
    {
      "constant": false,
      "inputs": [
        {
          "internalType": "contract ComptrollerInterface",
          "name": "comptroller_",
          "type": "address"
        },
        {
          "internalType": "contract InterestRateModel",
          "name": "interestRateModel_",
          "type": "address"
        },
        {
          "internalType": "uint256",
          "name": "initialExchangeRateMantissa_",
          "type": "uint256"
        },
        {
          "internalType": "string",
          "name": "name_",
          "type": "string"
        },
        {
          "internalType": "string",
          "name": "symbol_",
          "type": "string"
        },
        {
          "internalType": "uint8",
          "name": "decimals_",
          "type": "uint8"
        }
      ],
      "name": "initialize",
      "outputs": [],
      "payable": false,
      "stateMutability": "nonpayable",
      "type": "function"
    },
    {
      "constant": true,
      "inputs": [],
      "name": "interestRateModel",
      "outputs": [
        {
          "internalType": "contract InterestRateModel",
          "name": "",
          "type": "address"
        }
      ],
      "payable": false,
      "stateMutability": "view",
      "type": "function"
    },
    {
      "constant": true,
      "inputs": [],
      "name": "isCToken",
      "outputs": [
        {
          "internalType": "bool",
          "name": "",
          "type": "bool"
        }
      ],
      "payable": false,
      "stateMutability": "view",
      "type": "function"
    },
    {
      "constant": false,
      "inputs": [
        {
          "internalType": "address",
          "name": "borrower",
          "type": "address"
        },
        {
          "internalType": "contract CToken",
          "name": "cTokenCollateral",
          "type": "address"
        }
      ],
      "name": "liquidateBorrow",
      "outputs": [],
      "payable": true,
      "stateMutability": "payable",
      "type": "function"
    },
    {
      "constant": false,
      "inputs": [],
      "name": "mint",
      "outputs": [],
      "payable": true,
      "stateMutability": "payable",
      "type": "function"
    },
    {
      "constant": true,
      "inputs": [],
      "name": "name",
      "outputs": [
        {
          "internalType": "string",
          "name": "",
          "type": "string"
        }
      ],
      "payable": false,
      "stateMutability": "view",
      "type": "function"
    },
    {
      "constant": true,
      "inputs": [],
      "name": "pendingAdmin",
      "outputs": [
        {
          "internalType": "address payable",
          "name": "",
          "type": "address"
        }
      ],
      "payable": false,
      "stateMutability": "view",
      "type": "function"
    },
    {
      "constant": true,
      "inputs": [],
      "name": "protocolSeizeShareMantissa",
      "outputs": [
        {
          "internalType": "uint256",
          "name": "",
          "type": "uint256"
        }
      ],
      "payable": false,
      "stateMutability": "view",
      "type": "function"
    },
    {
      "constant": false,
      "inputs": [
        {
          "internalType": "uint256",
          "name": "redeemTokens",
          "type": "uint256"
        }
      ],
      "name": "redeem",
      "outputs": [
        {
          "internalType": "uint256",
          "name": "",
          "type": "uint256"
        }
      ],
      "payable": false,
      "stateMutability": "nonpayable",
      "type": "function"
    },
    {
      "constant": false,
      "inputs": [
        {
          "internalType": "uint256",
          "name": "redeemAmount",
          "type": "uint256"
        }
      ],
      "name": "redeemUnderlying",
      "outputs": [
        {
          "internalType": "uint256",
          "name": "",
          "type": "uint256"
        }
      ],
      "payable": false,
      "stateMutability": "nonpayable",
      "type": "function"
    },
    {
      "constant": false,
      "inputs": [],
      "name": "repayBorrow",
      "outputs": [],
      "payable": true,
      "stateMutability": "payable",
      "type": "function"
    },
    {
      "constant": false,
      "inputs": [
        {
          "internalType": "address",
          "name": "borrower",
          "type": "address"
        }
      ],
      "name": "repayBorrowBehalf",
      "outputs": [],
      "payable": true,
      "stateMutability": "payable",
      "type": "function"
    },
    {
      "constant": true,
      "inputs": [],
      "name": "reserveFactorMantissa",
      "outputs": [
        {
          "internalType": "uint256",
          "name": "",
          "type": "uint256"
        }
      ],
      "payable": false,
      "stateMutability": "view",
      "type": "function"
    },
    {
      "constant": false,
      "inputs": [
        {
          "internalType": "address",
          "name": "liquidator",
          "type": "address"
        },
        {
          "internalType": "address",
          "name": "borrower",
          "type": "address"
        },
        {
          "internalType": "uint256",
          "name": "seizeTokens",
          "type": "uint256"
        }
      ],
      "name": "seize",
      "outputs": [
        {
          "internalType": "uint256",
          "name": "",
          "type": "uint256"
        }
      ],
      "payable": false,
      "stateMutability": "nonpayable",
      "type": "function"
    },
    {
      "constant": true,
      "inputs": [],
      "name": "supplyRatePerBlock",
      "outputs": [
        {
          "internalType": "uint256",
          "name": "",
          "type": "uint256"
        }
      ],
      "payable": false,
      "stateMutability": "view",
      "type": "function"
    },
    {
      "constant": true,
      "inputs": [],
      "name": "symbol",
      "outputs": [
        {
          "internalType": "string",
          "name": "",
          "type": "string"
        }
      ],
      "payable": false,
      "stateMutability": "view",
      "type": "function"
    },
    {
      "constant": true,
      "inputs": [],
      "name": "totalBorrows",
      "outputs": [
        {
          "internalType": "uint256",
          "name": "",
          "type": "uint256"
        }
      ],
      "payable": false,
      "stateMutability": "view",
      "type": "function"
    },
    {
      "constant": false,
      "inputs": [],
      "name": "totalBorrowsCurrent",
      "outputs": [
        {
          "internalType": "uint256",
          "name": "",
          "type": "uint256"
        }
      ],
      "payable": false,
      "stateMutability": "nonpayable",
      "type": "function"
    },
    {
      "constant": true,
      "inputs": [],
      "name": "totalReserves",
      "outputs": [
        {
          "internalType": "uint256",
          "name": "",
          "type": "uint256"
        }
      ],
      "payable": false,
      "stateMutability": "view",
      "type": "function"
    },
    {
      "constant": true,
      "inputs": [],
      "name": "totalSupply",
      "outputs": [
        {
          "internalType": "uint256",
          "name": "",
          "type": "uint256"
        }
      ],
      "payable": false,
      "stateMutability": "view",
      "type": "function"
    },
    {
      "constant": false,
      "inputs": [
        {
          "internalType": "address",
          "name": "dst",
          "type": "address"
        },
        {
          "internalType": "uint256",
          "name": "amount",
          "type": "uint256"
        }
      ],
      "name": "transfer",
      "outputs": [
        {
          "internalType": "bool",
          "name": "",
          "type": "bool"
        }
      ],
      "payable": false,
      "stateMutability": "nonpayable",
      "type": "function"
    },
    {
      "constant": false,
      "inputs": [
        {
          "internalType": "address",
          "name": "src",
          "type": "address"
        },
        {
          "internalType": "address",
          "name": "dst",
          "type": "address"
        },
        {
          "internalType": "uint256",
          "name": "amount",
          "type": "uint256"
        }
      ],
      "name": "transferFrom",
      "outputs": [
        {
          "internalType": "bool",
          "name": "",
          "type": "bool"
        }
      ],
      "payable": false,
      "stateMutability": "nonpayable",
      "type": "function"
    }
  ],
  "transactionHash": "0xcab5dca3fd093934a6bfb74ac0988ced8dae7288e1f5cc4b314c35df8c4fc169",
  "args": [
    "0x144cc10F81870281b23920463510Ce336174E53f",
    "0x670945cC1F70F5037f3a2daA4fCa83EdC7DD91bd",
    "200000000000000000000000000",
    "Citrus xDai",
    "ciXDAI",
    8,
    "0x5f1EFaf9c9Db04c71C62a0D615965d97eA9134a4"
  ],
  "solcInputHash": "ff47e55fe8acd55b30dc48fe5b22f444",
  "bytecode": "0x60806040523480156200001157600080fd5b5060405162005a9d38038062005a9d833981810160405260e08110156200003757600080fd5b8151602083015160408085015160608601805192519496939591949391820192846401000000008211156200006b57600080fd5b9083019060208201858111156200008157600080fd5b82516401000000008111828201881017156200009c57600080fd5b82525081516020918201929091019080838360005b83811015620000cb578181015183820152602001620000b1565b50505050905090810190601f168015620000f95780820380516001836020036101000a031916815260200191505b50604052602001805160405193929190846401000000008211156200011d57600080fd5b9083019060208201858111156200013357600080fd5b82516401000000008111828201881017156200014e57600080fd5b82525081516020918201929091019080838360005b838110156200017d57818101518382015260200162000163565b50505050905090810190601f168015620001ab5780820380516001836020036101000a031916815260200191505b506040908152602082015191015160038054610100600160a81b03191633610100021790559092509050620001e587878787878762000218565b600380546001600160a01b0390921661010002610100600160a81b03199092169190911790555062000853945050505050565b60035461010090046001600160a01b03163314620002685760405162461bcd60e51b815260040180806020018281038252602481526020018062005a046024913960400191505060405180910390fd5b600954158015620002795750600a54155b620002b65760405162461bcd60e51b815260040180806020018281038252602381526020018062005a286023913960400191505060405180910390fd5b600784905583620002f95760405162461bcd60e51b815260040180806020018281038252603081526020018062005a4b6030913960400191505060405180910390fd5b60006200030f876001600160e01b036200042e16565b9050801562000365576040805162461bcd60e51b815260206004820152601a60248201527f73657474696e6720636f6d7074726f6c6c6572206661696c6564000000000000604482015290519081900360640190fd5b620003786001600160e01b036200059616565b600955670de0b6b3a7640000600a556200039b866001600160e01b036200059b16565b90508015620003dc5760405162461bcd60e51b815260040180806020018281038252602281526020018062005a7b6022913960400191505060405180910390fd5b8351620003f1906001906020870190620007b1565b50825162000407906002906020860190620007b1565b50506003805460ff90921660ff199283161790556000805490911660011790555050505050565b60035460009061010090046001600160a01b031633146200046857620004606001603f6001600160e01b036200074116565b905062000591565b60055460408051623f1ee960e11b815290516001600160a01b0392831692851691627e3dd2916004808301926020929190829003018186803b158015620004ae57600080fd5b505afa158015620004c3573d6000803e3d6000fd5b505050506040513d6020811015620004da57600080fd5b50516200052e576040805162461bcd60e51b815260206004820152601c60248201527f6d61726b6572206d6574686f642072657475726e65642066616c736500000000604482015290519081900360640190fd5b600580546001600160a01b0319166001600160a01b03858116918217909255604080519284168352602083019190915280517f7ac369dbd14fa5ea3f473ed67cc9d598964a77501540ba6751eb0b3decf5870d9281900390910190a160005b9150505b919050565b435b90565b600354600090819061010090046001600160a01b03163314620005d857620005cf600160426001600160e01b036200074116565b91505062000591565b620005eb6001600160e01b036200059616565b600954146200060b57620005cf600a60416001600160e01b036200074116565b600660009054906101000a90046001600160a01b03169050826001600160a01b0316632191f92a6040518163ffffffff1660e01b815260040160206040518083038186803b1580156200065d57600080fd5b505afa15801562000672573d6000803e3d6000fd5b505050506040513d60208110156200068957600080fd5b5051620006dd576040805162461bcd60e51b815260206004820152601c60248201527f6d61726b6572206d6574686f642072657475726e65642066616c736500000000604482015290519081900360640190fd5b600680546001600160a01b0319166001600160a01b03858116918217909255604080519284168352602083019190915280517fedffc32e068c7c95dfd4bdfd5c4d939a084d6b11c4199eac8436ed234d72f9269281900390910190a160006200058d565b60007f45b96fe442630264581b197e84bbada861235052c5a1aadfff9ea4e40a969aa08360108111156200077157fe5b8360508111156200077e57fe5b604080519283526020830191909152600082820152519081900360600190a1826010811115620007aa57fe5b9392505050565b828054600181600116156101000203166002900490600052602060002090601f016020900481019282601f10620007f457805160ff191683800117855562000824565b8280016001018555821562000824579182015b828111156200082457825182559160200191906001019062000807565b506200083292915062000836565b5090565b6200059891905b808211156200083257600081556001016200083d565b6151a180620008636000396000f3fe6080604052600436106102ae5760003560e01c806395d89b4111610175578063c5ead622116100dc578063f2b3abbd11610095578063f8f9da281161006f578063f8f9da2814610b18578063fca7820b14610b2d578063fcb6414714610b57578063fe9c44ae14610b5f576102ae565b8063f2b3abbd14610abb578063f3fdb15a14610aee578063f851a44014610b03576102ae565b8063c5ead622146109be578063c5ebeaec146109f1578063db006a7514610a1b578063dd62ed3e14610a45578063e597461914610a80578063e9c714f214610aa6576102ae565b8063aae40a2a1161012e578063aae40a2a14610897578063ae9d70b0146108c5578063b2a02ff1146108da578063b71d1a0c1461091d578063bd6d894d14610950578063c37f68e214610965576102ae565b806395d89b411461068d57806395dd9193146106a257806399d8c1b4146106d5578063a6afed9514610834578063a9059cbb14610849578063aa5af0fd14610882576102ae565b80634576b5db116102195780636c540baf116101d25780636c540baf146105dc57806370a08231146105f157806373acee9814610624578063749f104414610639578063852a12e31461064e5780638f840ddd14610678576102ae565b80634576b5db1461053857806347bd37181461056b5780634e4d9fea146105805780635fe3b56714610588578063601a0bf11461059d5780636752e702146105c7576102ae565b8063182df0f51161026b578063182df0f51461043c57806323b872dd146104515780632678224714610494578063313ce567146104c55780633af9e669146104f05780633b1d21a214610523576102ae565b806306fdde03146102ec578063095ea7b3146103765780631249c58b146103c3578063173b9904146103cd57806317bfdfbc146103f457806318160ddd14610427575b60006102b934610b74565b5090506102e9816040518060400160405280600b81526020016a1b5a5b9d0819985a5b195960aa1b815250610c1c565b50005b3480156102f857600080fd5b50610301610e1c565b6040805160208082528351818301528351919283929083019185019080838360005b8381101561033b578181015183820152602001610323565b50505050905090810190601f1680156103685780820380516001836020036101000a031916815260200191505b509250505060405180910390f35b34801561038257600080fd5b506103af6004803603604081101561039957600080fd5b506001600160a01b038135169060200135610ea9565b604080519115158252519081900360200190f35b6103cb610f16565b005b3480156103d957600080fd5b506103e2610f54565b60408051918252519081900360200190f35b34801561040057600080fd5b506103e26004803603602081101561041757600080fd5b50356001600160a01b0316610f5a565b34801561043357600080fd5b506103e261101a565b34801561044857600080fd5b506103e2611020565b34801561045d57600080fd5b506103af6004803603606081101561047457600080fd5b506001600160a01b03813581169160208101359091169060400135611083565b3480156104a057600080fd5b506104a96110f5565b604080516001600160a01b039092168252519081900360200190f35b3480156104d157600080fd5b506104da611104565b6040805160ff9092168252519081900360200190f35b3480156104fc57600080fd5b506103e26004803603602081101561051357600080fd5b50356001600160a01b031661110d565b34801561052f57600080fd5b506103e26111c5565b34801561054457600080fd5b506103e26004803603602081101561055b57600080fd5b50356001600160a01b03166111d4565b34801561057757600080fd5b506103e2611329565b6103cb61132f565b34801561059457600080fd5b506104a9611371565b3480156105a957600080fd5b506103e2600480360360208110156105c057600080fd5b5035611380565b3480156105d357600080fd5b506103e261141b565b3480156105e857600080fd5b506103e2611426565b3480156105fd57600080fd5b506103e26004803603602081101561061457600080fd5b50356001600160a01b031661142c565b34801561063057600080fd5b506103e2611447565b34801561064557600080fd5b506104a96114fd565b34801561065a57600080fd5b506103e26004803603602081101561067157600080fd5b503561150c565b34801561068457600080fd5b506103e2611517565b34801561069957600080fd5b5061030161151d565b3480156106ae57600080fd5b506103e2600480360360208110156106c557600080fd5b50356001600160a01b0316611575565b3480156106e157600080fd5b506103cb600480360360c08110156106f857600080fd5b6001600160a01b0382358116926020810135909116916040820135919081019060808101606082013564010000000081111561073357600080fd5b82018360208201111561074557600080fd5b8035906020019184600183028401116401000000008311171561076757600080fd5b91908080601f01602080910402602001604051908101604052809392919081815260200183838082843760009201919091525092959493602081019350359150506401000000008111156107ba57600080fd5b8201836020820111156107cc57600080fd5b803590602001918460018302840111640100000000831117156107ee57600080fd5b91908080601f0160208091040260200160405190810160405280939291908181526020018383808284376000920191909152509295505050903560ff1691506115d29050565b34801561084057600080fd5b506103e26117b9565b34801561085557600080fd5b506103af6004803603604081101561086c57600080fd5b506001600160a01b038135169060200135611b11565b34801561088e57600080fd5b506103e2611b82565b6103cb600480360360408110156108ad57600080fd5b506001600160a01b0381358116916020013516611b88565b3480156108d157600080fd5b506103e2611bd5565b3480156108e657600080fd5b506103e2600480360360608110156108fd57600080fd5b506001600160a01b03813581169160208101359091169060400135611c74565b34801561092957600080fd5b506103e26004803603602081101561094057600080fd5b50356001600160a01b0316611ce5565b34801561095c57600080fd5b506103e2611d71565b34801561097157600080fd5b506109986004803603602081101561098857600080fd5b50356001600160a01b0316611e2d565b604080519485526020850193909352838301919091526060830152519081900360800190f35b3480156109ca57600080fd5b506103e2600480360360208110156109e157600080fd5b50356001600160a01b0316611ec2565b3480156109fd57600080fd5b506103e260048036036020811015610a1457600080fd5b5035611f4e565b348015610a2757600080fd5b506103e260048036036020811015610a3e57600080fd5b5035611f59565b348015610a5157600080fd5b506103e260048036036040811015610a6857600080fd5b506001600160a01b0381358116916020013516611f64565b6103cb60048036036020811015610a9657600080fd5b50356001600160a01b0316611f8f565b348015610ab257600080fd5b506103e2611fdd565b348015610ac757600080fd5b506103e260048036036020811015610ade57600080fd5b50356001600160a01b03166120e0565b348015610afa57600080fd5b506104a961211a565b348015610b0f57600080fd5b506104a9612129565b348015610b2457600080fd5b506103e261213d565b348015610b3957600080fd5b506103e260048036036020811015610b5057600080fd5b50356121a1565b6103e261221f565b348015610b6b57600080fd5b506103af61222a565b60008054819060ff16610bbb576040805162461bcd60e51b815260206004820152600a6024820152691c994b595b9d195c995960b21b604482015290519081900360640190fd5b6000805460ff19168155610bcd6117b9565b90508015610bf857610beb816010811115610be457fe5b601e61222f565b925060009150610c089050565b610c023385612295565b92509250505b6000805460ff191660011790559092909150565b81610c2657610e18565b606081516005016040519080825280601f01601f191660200182016040528015610c57576020820181803883390190505b50905060005b8251811015610ca857828181518110610c7257fe5b602001015160f81c60f81b828281518110610c8957fe5b60200101906001600160f81b031916908160001a905350600101610c5d565b8151600160fd1b90839083908110610cbc57fe5b60200101906001600160f81b031916908160001a905350602860f81b828260010181518110610ce757fe5b60200101906001600160f81b031916908160001a905350600a840460300160f81b828260020181518110610d1757fe5b60200101906001600160f81b031916908160001a905350600a840660300160f81b828260030181518110610d4757fe5b60200101906001600160f81b031916908160001a905350602960f81b828260040181518110610d7257fe5b60200101906001600160f81b031916908160001a905350818415610e145760405162461bcd60e51b81526004018080602001828103825283818151815260200191508051906020019080838360005b83811015610dd9578181015183820152602001610dc1565b50505050905090810190601f168015610e065780820380516001836020036101000a031916815260200191505b509250505060405180910390fd5b5050505b5050565b60018054604080516020600284861615610100026000190190941693909304601f81018490048402820184019092528181529291830182828015610ea15780601f10610e7657610100808354040283529160200191610ea1565b820191906000526020600020905b815481529060010190602001808311610e8457829003601f168201915b505050505081565b336000818152600f602090815260408083206001600160a01b03871680855290835281842086905581518681529151939493909284927f8c5be1e5ebec7d5bd14f71427d1e84f3dd0314c0f7b2291e5b200ac8c7c3b925929081900390910190a360019150505b92915050565b6000610f2134610b74565b509050610f51816040518060400160405280600b81526020016a1b5a5b9d0819985a5b195960aa1b815250610c1c565b50565b60085481565b6000805460ff16610f9f576040805162461bcd60e51b815260206004820152600a6024820152691c994b595b9d195c995960b21b604482015290519081900360640190fd5b6000805460ff19168155610fb16117b9565b14610ffc576040805162461bcd60e51b81526020600482015260166024820152751858d8dc9d59481a5b9d195c995cdd0819985a5b195960521b604482015290519081900360640190fd5b61100582611575565b90505b6000805460ff19166001179055919050565b600d5481565b600080600061102d612667565b9092509050600082600381111561104057fe5b1461107c5760405162461bcd60e51b81526004018080602001828103825260358152602001806150b86035913960400191505060405180910390fd5b9150505b90565b6000805460ff166110c8576040805162461bcd60e51b815260206004820152600a6024820152691c994b595b9d195c995960b21b604482015290519081900360640190fd5b6000805460ff191681556110de33868686612716565b1490506000805460ff191660011790559392505050565b6004546001600160a01b031681565b60035460ff1681565b6000611117614d59565b604051806020016040528061112a611d71565b90526001600160a01b0384166000908152600e60205260408120549192509081906111569084906129a4565b9092509050600082600381111561116957fe5b146111bb576040805162461bcd60e51b815260206004820152601f60248201527f62616c616e636520636f756c64206e6f742062652063616c63756c6174656400604482015290519081900360640190fd5b925050505b919050565b60006111cf6129f7565b905090565b60035460009061010090046001600160a01b03163314611201576111fa6001603f61222f565b90506111c0565b60055460408051623f1ee960e11b815290516001600160a01b0392831692851691627e3dd2916004808301926020929190829003018186803b15801561124657600080fd5b505afa15801561125a573d6000803e3d6000fd5b505050506040513d602081101561127057600080fd5b50516112c3576040805162461bcd60e51b815260206004820152601c60248201527f6d61726b6572206d6574686f642072657475726e65642066616c736500000000604482015290519081900360640190fd5b600580546001600160a01b0319166001600160a01b03858116918217909255604080519284168352602083019190915280517f7ac369dbd14fa5ea3f473ed67cc9d598964a77501540ba6751eb0b3decf5870d9281900390910190a160005b9392505050565b600b5481565b600061133a34612a23565b509050610f5181604051806040016040528060128152602001711c995c185e509bdc9c9bddc819985a5b195960721b815250610c1c565b6005546001600160a01b031681565b6000805460ff166113c5576040805162461bcd60e51b815260206004820152600a6024820152691c994b595b9d195c995960b21b604482015290519081900360640190fd5b6000805460ff191681556113d76117b9565b905080156113fd576113f58160108111156113ee57fe5b603061222f565b915050611008565b61140683612aa5565b9150506000805460ff19166001179055919050565b666379da05b6000081565b60095481565b6001600160a01b03166000908152600e602052604090205490565b6000805460ff1661148c576040805162461bcd60e51b815260206004820152600a6024820152691c994b595b9d195c995960b21b604482015290519081900360640190fd5b6000805460ff1916815561149e6117b9565b146114e9576040805162461bcd60e51b81526020600482015260166024820152751858d8dc9d59481a5b9d195c995cdd0819985a5b195960521b604482015290519081900360640190fd5b50600b546000805460ff1916600117905590565b6011546001600160a01b031681565b6000610f1082612bc9565b600c5481565b6002805460408051602060018416156101000260001901909316849004601f81018490048402820184019092528181529291830182828015610ea15780601f10610e7657610100808354040283529160200191610ea1565b600080600061158384612c4a565b9092509050600082600381111561159657fe5b146113225760405162461bcd60e51b8152600401808060200182810382526037815260200180614fc36037913960400191505060405180910390fd5b60035461010090046001600160a01b031633146116205760405162461bcd60e51b8152600401808060200182810382526024815260200180614eff6024913960400191505060405180910390fd5b6009541580156116305750600a54155b61166b5760405162461bcd60e51b8152600401808060200182810382526023815260200180614f236023913960400191505060405180910390fd5b6007849055836116ac5760405162461bcd60e51b8152600401808060200182810382526030815260200180614f466030913960400191505060405180910390fd5b60006116b7876111d4565b9050801561170c576040805162461bcd60e51b815260206004820152601a60248201527f73657474696e6720636f6d7074726f6c6c6572206661696c6564000000000000604482015290519081900360640190fd5b611714612cfe565b600955670de0b6b3a7640000600a5561172c86612d02565b9050801561176b5760405162461bcd60e51b8152600401808060200182810382526022815260200180614f766022913960400191505060405180910390fd5b835161177e906001906020870190614d6c565b508251611792906002906020860190614d6c565b50506003805460ff90921660ff199283161790556000805490911660011790555050505050565b6000806117c4612cfe565b600954909150808214156117dd57600092505050611080565b60006117e76129f7565b600b54600c54600a54600654604080516315f2405360e01b815260048101879052602481018690526044810185905290519596509394929391926000926001600160a01b03909216916315f24053916064808301926020929190829003018186803b15801561185557600080fd5b505afa158015611869573d6000803e3d6000fd5b505050506040513d602081101561187f57600080fd5b5051905065048c273950008111156118de576040805162461bcd60e51b815260206004820152601c60248201527f626f72726f772072617465206973206162737572646c79206869676800000000604482015290519081900360640190fd5b6000806118eb8989612e77565b909250905060008260038111156118fe57fe5b14611950576040805162461bcd60e51b815260206004820152601f60248201527f636f756c64206e6f742063616c63756c61746520626c6f636b2064656c746100604482015290519081900360640190fd5b611958614d59565b60008060008061197660405180602001604052808a81525087612e9a565b9097509450600087600381111561198957fe5b146119bb576119a6600960068960038111156119a157fe5b612f02565b9e505050505050505050505050505050611080565b6119c5858c6129a4565b909750935060008760038111156119d857fe5b146119f0576119a6600960018960038111156119a157fe5b6119fa848c612f68565b90975092506000876003811115611a0d57fe5b14611a25576119a6600960048960038111156119a157fe5b611a406040518060200160405280600854815250858c612f8e565b90975091506000876003811115611a5357fe5b14611a6b576119a6600960058960038111156119a157fe5b611a76858a8b612f8e565b90975090506000876003811115611a8957fe5b14611aa1576119a6600960038960038111156119a157fe5b60098e9055600a819055600b839055600c829055604080518d8152602081018690528082018390526060810185905290517f4dec04e750ca11537cabcd8a9eab06494de08da3735bc8871cd41250e190bc049181900360800190a160009e50505050505050505050505050505090565b6000805460ff16611b56576040805162461bcd60e51b815260206004820152600a6024820152691c994b595b9d195c995960b21b604482015290519081900360640190fd5b6000805460ff19168155611b6c33338686612716565b1490506000805460ff1916600117905592915050565b600a5481565b6000611b95833484612fea565b509050611bd081604051806040016040528060168152602001751b1a5c5d5a59185d19509bdc9c9bddc819985a5b195960521b815250610c1c565b505050565b6006546000906001600160a01b031663b8168816611bf16129f7565b600b54600c546008546040518563ffffffff1660e01b81526004018085815260200184815260200183815260200182815260200194505050505060206040518083038186803b158015611c4357600080fd5b505afa158015611c57573d6000803e3d6000fd5b505050506040513d6020811015611c6d57600080fd5b5051905090565b6000805460ff16611cb9576040805162461bcd60e51b815260206004820152600a6024820152691c994b595b9d195c995960b21b604482015290519081900360640190fd5b6000805460ff19169055611ccf3385858561311c565b90506000805460ff191660011790559392505050565b60035460009061010090046001600160a01b03163314611d0b576111fa6001604561222f565b600480546001600160a01b038481166001600160a01b0319831681179093556040805191909216808252602082019390935281517fca4f2f25d0898edd99413412fb94012f9e54ec8142f9b093e7720646a95b16a9929181900390910190a16000611322565b6000805460ff16611db6576040805162461bcd60e51b815260206004820152600a6024820152691c994b595b9d195c995960b21b604482015290519081900360640190fd5b6000805460ff19168155611dc86117b9565b14611e13576040805162461bcd60e51b81526020600482015260166024820152751858d8dc9d59481a5b9d195c995cdd0819985a5b195960521b604482015290519081900360640190fd5b611e1b611020565b90506000805460ff1916600117905590565b6001600160a01b0381166000908152600e6020526040812054819081908190818080611e5889612c4a565b935090506000816003811115611e6a57fe5b14611e885760095b975060009650869550859450611ebb9350505050565b611e90612667565b925090506000816003811115611ea257fe5b14611eae576009611e72565b5060009650919450925090505b9193509193565b60035460009061010090046001600160a01b03163314611ee8576111fa6001604261222f565b601180546001600160a01b038481166001600160a01b0319831681179093556040805191909216808252602082019390935281517fdff56ee631cd7f71a6f089efee2defca6b87ffb37f48c860490d92c360c96a81929181900390910190a16000611322565b6000610f10826134f6565b6000610f1082613575565b6001600160a01b039182166000908152600f6020908152604080832093909416825291909152205490565b6000611f9b82346135ef565b509050610e18816040518060400160405280601881526020017f7265706179426f72726f77426568616c66206661696c65640000000000000000815250610c1c565b6004546000906001600160a01b031633141580611ff8575033155b15612010576120096001600061222f565b9050611080565b60038054600480546001600160a01b03818116610100818102610100600160a81b0319871617968790556001600160a01b031990931690935560408051948390048216808652929095041660208401528351909391927ff9ffabca9c8276e99321725bcb43fb076a6c66a54b7f21c4e8146d8519b417dc92908290030190a1600454604080516001600160a01b038085168252909216602083015280517fca4f2f25d0898edd99413412fb94012f9e54ec8142f9b093e7720646a95b16a99281900390910190a160009250505090565b6000806120eb6117b9565b905080156121115761210981601081111561210257fe5b604061222f565b9150506111c0565b61132283612d02565b6006546001600160a01b031681565b60035461010090046001600160a01b031681565b6006546000906001600160a01b03166315f240536121596129f7565b600b54600c546040518463ffffffff1660e01b815260040180848152602001838152602001828152602001935050505060206040518083038186803b158015611c4357600080fd5b6000805460ff166121e6576040805162461bcd60e51b815260206004820152600a6024820152691c994b595b9d195c995960b21b604482015290519081900360640190fd5b6000805460ff191681556121f86117b9565b90508015612216576113f581601081111561220f57fe5b604661222f565b6114068361369a565b60006111cf34613742565b600181565b60007f45b96fe442630264581b197e84bbada861235052c5a1aadfff9ea4e40a969aa083601081111561225e57fe5b83605081111561226a57fe5b604080519283526020830191909152600082820152519081900360600190a182601081111561132257fe5b60055460408051634ef4c3e160e01b81523060048201526001600160a01b03858116602483015260448201859052915160009384938493911691634ef4c3e19160648082019260209290919082900301818787803b1580156122f657600080fd5b505af115801561230a573d6000803e3d6000fd5b505050506040513d602081101561232057600080fd5b505190508015612344576123376003601f83612f02565b9250600091506126609050565b61234c612cfe565b6009541461236057612337600a602261222f565b612368614dea565b612370612667565b604083018190526020830182600381111561238757fe5b600381111561239257fe5b90525060009050816020015160038111156123a957fe5b146123d3576123c560096021836020015160038111156119a157fe5b935060009250612660915050565b6123dd86866137d6565b60c08201819052604080516020810182529083015181526123fe9190613872565b606083018190526020830182600381111561241557fe5b600381111561242057fe5b905250600090508160200151600381111561243757fe5b14612489576040805162461bcd60e51b815260206004820181905260248201527f4d494e545f45584348414e47455f43414c43554c4154494f4e5f4641494c4544604482015290519081900360640190fd5b612499600d548260600151612f68565b60808301819052602083018260038111156124b057fe5b60038111156124bb57fe5b90525060009050816020015160038111156124d257fe5b1461250e5760405162461bcd60e51b81526004018080602001828103825260288152602001806150ed6028913960400191505060405180910390fd5b6001600160a01b0386166000908152600e602052604090205460608201516125369190612f68565b60a083018190526020830182600381111561254d57fe5b600381111561255857fe5b905250600090508160200151600381111561256f57fe5b146125ab5760405162461bcd60e51b815260040180806020018281038252602b815260200180614f98602b913960400191505060405180910390fd5b6080810151600d5560a08101516001600160a01b0387166000818152600e60209081526040918290209390935560c084015160608086015183519485529484019190915282820193909352517f4c209b5fc8ad50758f13e2e1088ba56a560dff690a1c6fef26394f4c03821c4f929181900390910190a1606081015160408051918252516001600160a01b0388169130916000805160206150348339815191529181900360200190a360c00151600093509150505b9250929050565b600d5460009081908061268257505060075460009150612712565b600061268c6129f7565b90506000612698614d59565b60006126a984600b54600c54613889565b9350905060008160038111156126bb57fe5b146126d0579550600094506127129350505050565b6126da83866138c7565b9250905060008160038111156126ec57fe5b14612701579550600094506127129350505050565b505160009550935061271292505050565b9091565b600554604080516317b9b84b60e31b81523060048201526001600160a01b03868116602483015285811660448301526064820185905291516000938493169163bdcdc25891608480830192602092919082900301818787803b15801561277b57600080fd5b505af115801561278f573d6000803e3d6000fd5b505050506040513d60208110156127a557600080fd5b5051905080156127c4576127bc6003604a83612f02565b91505061299c565b836001600160a01b0316856001600160a01b031614156127ea576127bc6002604b61222f565b60006001600160a01b0387811690871614156128095750600019612831565b506001600160a01b038086166000908152600f60209081526040808320938a16835292905220545b6000806000806128418589612e77565b9094509250600084600381111561285457fe5b14612872576128656009604b61222f565b965050505050505061299c565b6001600160a01b038a166000908152600e60205260409020546128959089612e77565b909450915060008460038111156128a857fe5b146128b9576128656009604c61222f565b6001600160a01b0389166000908152600e60205260409020546128dc9089612f68565b909450905060008460038111156128ef57fe5b14612900576128656009604d61222f565b6001600160a01b03808b166000908152600e6020526040808220859055918b168152208190556000198514612958576001600160a01b03808b166000908152600f60209081526040808320938f168352929052208390555b886001600160a01b03168a6001600160a01b03166000805160206150348339815191528a6040518082815260200191505060405180910390a3600096505050505050505b949350505050565b60008060006129b1614d59565b6129bb8686612e9a565b909250905060008260038111156129ce57fe5b146129df5750915060009050612660565b60006129ea82613977565b9350935050509250929050565b6000806000612a064734612e77565b90925090506000826003811115612a1957fe5b1461107c57600080fd5b60008054819060ff16612a6a576040805162461bcd60e51b815260206004820152600a6024820152691c994b595b9d195c995960b21b604482015290519081900360640190fd5b6000805460ff19168155612a7c6117b9565b90508015612a9a57610beb816010811115612a9357fe5b603661222f565b610c02333386613986565b60115460009081906001600160a01b03163314612ac8576121096001603161222f565b612ad0612cfe565b60095414612ae457612109600a603361222f565b82612aed6129f7565b1015612aff57612109600e603261222f565b600c54831115612b15576121096002603461222f565b50600c5482810390811115612b5b5760405162461bcd60e51b81526004018080602001828103825260248152602001806151496024913960400191505060405180910390fd5b600c819055601154612b76906001600160a01b031684613cd4565b601154604080516001600160a01b03909216825260208201859052818101839052517f3bad0c59cf2f06e7314077049f48a93578cd16f5ef92329f1dab1420a99c177e9181900360600190a16000611322565b6000805460ff16612c0e576040805162461bcd60e51b815260206004820152600a6024820152691c994b595b9d195c995960b21b604482015290519081900360640190fd5b6000805460ff19168155612c206117b9565b90508015612c3e576113f5816010811115612c3757fe5b602761222f565b61140633600085613d0a565b6001600160a01b038116600090815260106020526040812080548291829182918291612c81575060009450849350612cf992505050565b612c918160000154600a546141d1565b90945092506000846003811115612ca457fe5b14612cb9575091935060009250612cf9915050565b612cc7838260010154614210565b90945091506000846003811115612cda57fe5b14612cef575091935060009250612cf9915050565b5060009450925050505b915091565b4390565b600354600090819061010090046001600160a01b03163314612d2a576121096001604261222f565b612d32612cfe565b60095414612d4657612109600a604161222f565b600660009054906101000a90046001600160a01b03169050826001600160a01b0316632191f92a6040518163ffffffff1660e01b815260040160206040518083038186803b158015612d9757600080fd5b505afa158015612dab573d6000803e3d6000fd5b505050506040513d6020811015612dc157600080fd5b5051612e14576040805162461bcd60e51b815260206004820152601c60248201527f6d61726b6572206d6574686f642072657475726e65642066616c736500000000604482015290519081900360640190fd5b600680546001600160a01b0319166001600160a01b03858116918217909255604080519284168352602083019190915280517fedffc32e068c7c95dfd4bdfd5c4d939a084d6b11c4199eac8436ed234d72f9269281900390910190a16000611322565b600080838311612e8e575060009050818303612660565b50600390506000612660565b6000612ea4614d59565b600080612eb58660000151866141d1565b90925090506000826003811115612ec857fe5b14612ee757506040805160208101909152600081529092509050612660565b60408051602081019091529081526000969095509350505050565b60007f45b96fe442630264581b197e84bbada861235052c5a1aadfff9ea4e40a969aa0846010811115612f3157fe5b846050811115612f3d57fe5b604080519283526020830191909152818101859052519081900360600190a183601081111561299c57fe5b600080838301848110612f8057600092509050612660565b506002915060009050612660565b6000806000612f9b614d59565b612fa58787612e9a565b90925090506000826003811115612fb857fe5b14612fc95750915060009050612fe2565b612fdb612fd582613977565b86612f68565b9350935050505b935093915050565b60008054819060ff16613031576040805162461bcd60e51b815260206004820152600a6024820152691c994b595b9d195c995960b21b604482015290519081900360640190fd5b6000805460ff191681556130436117b9565b9050801561306e5761306181601081111561305a57fe5b600f61222f565b9250600091506131059050565b836001600160a01b031663a6afed956040518163ffffffff1660e01b8152600401602060405180830381600087803b1580156130a957600080fd5b505af11580156130bd573d6000803e3d6000fd5b505050506040513d60208110156130d357600080fd5b5051905080156130f3576130618160108111156130ec57fe5b601061222f565b6130ff3387878761423b565b92509250505b6000805460ff191660011790559094909350915050565b6005546040805163d02f735160e01b81523060048201526001600160a01b038781166024830152868116604483015285811660648301526084820185905291516000938493169163d02f73519160a480830192602092919082900301818787803b15801561318957600080fd5b505af115801561319d573d6000803e3d6000fd5b505050506040513d60208110156131b357600080fd5b5051905080156131ca576127bc6003601b83612f02565b846001600160a01b0316846001600160a01b031614156131f0576127bc6006601c61222f565b6131f8614e28565b6001600160a01b0385166000908152600e602052604090205461321b9085612e77565b602083018190528282600381111561322f57fe5b600381111561323a57fe5b905250600090508151600381111561324e57fe5b146132735761326a6009601a836000015160038111156119a157fe5b9250505061299c565b613292846040518060200160405280666379da05b6000081525061472d565b608082018190526132a4908590614755565b60608201526132b1612667565b60c08301819052828260038111156132c557fe5b60038111156132d057fe5b90525060009050815160038111156132e457fe5b14613336576040805162461bcd60e51b815260206004820152601860248201527f65786368616e67652072617465206d617468206572726f720000000000000000604482015290519081900360640190fd5b61335660405180602001604052808360c00151815250826080015161478f565b60a08201819052600c54613369916147ae565b60e0820152600d5460808201516133809190614755565b6101008201526001600160a01b0386166000908152600e602052604090205460608201516133ae9190612f68565b60408301819052828260038111156133c257fe5b60038111156133cd57fe5b90525060009050815160038111156133e157fe5b146133fd5761326a60096019836000015160038111156119a157fe5b60e0810151600c55610100810151600d556020808201516001600160a01b038088166000818152600e855260408082209490945583860151928b16808252908490209290925560608501518351908152925191939092600080516020615034833981519152929081900390910190a36080810151604080519182525130916001600160a01b038816916000805160206150348339815191529181900360200190a360a081015160e082015160408051308152602081019390935282810191909152517fa91e67c5ea634cd43a12c5a482724b03de01e85ca68702a53d0c2f45cb7c1dc59181900360600190a16000979650505050505050565b6000805460ff1661353b576040805162461bcd60e51b815260206004820152600a6024820152691c994b595b9d195c995960b21b604482015290519081900360640190fd5b6000805460ff1916815561354d6117b9565b9050801561356b576113f581601081111561356457fe5b600861222f565b61140633846147e4565b6000805460ff166135ba576040805162461bcd60e51b815260206004820152600a6024820152691c994b595b9d195c995960b21b604482015290519081900360640190fd5b6000805460ff191681556135cc6117b9565b905080156135e3576113f5816010811115612c3757fe5b61140633846000613d0a565b60008054819060ff16613636576040805162461bcd60e51b815260206004820152600a6024820152691c994b595b9d195c995960b21b604482015290519081900360640190fd5b6000805460ff191681556136486117b9565b905080156136735761366681601081111561365f57fe5b603561222f565b9250600091506136849050565b61367e338686613986565b92509250505b6000805460ff1916600117905590939092509050565b60035460009061010090046001600160a01b031633146136c0576111fa6001604761222f565b6136c8612cfe565b600954146136dc576111fa600a604861222f565b670de0b6b3a76400008211156136f8576111fa6002604961222f565b6008805490839055604080518281526020810185905281517faaa68312e2ea9d50e16af5068410ab56e1a1fd06037b1a35664812c30f821460929181900390910190a16000611322565b6000805460ff16613787576040805162461bcd60e51b815260206004820152600a6024820152691c994b595b9d195c995960b21b604482015290519081900360640190fd5b6000805460ff191681556137996117b9565b905080156137b7576113f58160108111156137b057fe5b604e61222f565b6137c083614a78565b509150506000805460ff19166001179055919050565b6000336001600160a01b03841614613827576040805162461bcd60e51b815260206004820152600f60248201526e0e6cadcc8cae440dad2e6dac2e8c6d608b1b604482015290519081900360640190fd5b81341461386c576040805162461bcd60e51b815260206004820152600e60248201526d0ecc2d8eaca40dad2e6dac2e8c6d60931b604482015290519081900360640190fd5b50919050565b600080600061387f614d59565b6129bb8686614b60565b6000806000806138998787612f68565b909250905060008260038111156138ac57fe5b146138bd5750915060009050612fe2565b612fdb8186612e77565b60006138d1614d59565b6000806138e686670de0b6b3a76400006141d1565b909250905060008260038111156138f957fe5b1461391857506040805160208101909152600081529092509050612660565b6000806139258388614210565b9092509050600082600381111561393857fe5b1461395a57506040805160208101909152600081529094509250612660915050565b604080516020810190915290815260009890975095505050505050565b51670de0b6b3a7640000900490565b60055460408051631200453160e11b81523060048201526001600160a01b0386811660248301528581166044830152606482018590529151600093849384939116916324008a629160848082019260209290919082900301818787803b1580156139ef57600080fd5b505af1158015613a03573d6000803e3d6000fd5b505050506040513d6020811015613a1957600080fd5b505190508015613a3d57613a306003603883612f02565b925060009150612fe29050565b613a45612cfe565b60095414613a5957613a30600a603961222f565b613a61614e75565b6001600160a01b0386166000908152601060205260409020600101546060820152613a8b86612c4a565b6080830181905260208301826003811115613aa257fe5b6003811115613aad57fe5b9052506000905081602001516003811115613ac457fe5b14613aee57613ae060096037836020015160038111156119a157fe5b935060009250612fe2915050565b600019851415613b075760808101516040820152613b0f565b604081018590525b613b1d8782604001516137d6565b60e082018190526080820151613b3291612e77565b60a0830181905260208301826003811115613b4957fe5b6003811115613b5457fe5b9052506000905081602001516003811115613b6b57fe5b14613ba75760405162461bcd60e51b815260040180806020018281038252603a815260200180614ffa603a913960400191505060405180910390fd5b613bb7600b548260e00151612e77565b60c0830181905260208301826003811115613bce57fe5b6003811115613bd957fe5b9052506000905081602001516003811115613bf057fe5b14613c2c5760405162461bcd60e51b81526004018080602001828103825260318152602001806150546031913960400191505060405180910390fd5b60a080820180516001600160a01b03808a16600081815260106020908152604091829020948555600a5460019095019490945560c0870151600b81905560e088015195518251948f16855294840192909252828101949094526060820192909252608081019190915290517f1a2a22cb034d26d1854bdc6666a5b91fe25efbbb5dcad3b0355478d6f5c362a1929181900390910190a160e00151600097909650945050505050565b6040516001600160a01b0383169082156108fc029083906000818181858888f19350505050158015611bd0573d6000803e3d6000fd5b6000821580613d17575081155b613d525760405162461bcd60e51b81526004018080602001828103825260348152602001806151156034913960400191505060405180910390fd5b613d5a614dea565b613d62612667565b6040830181905260208301826003811115613d7957fe5b6003811115613d8457fe5b9052506000905081602001516003811115613d9b57fe5b14613dbf57613db76009602b836020015160038111156119a157fe5b915050611322565b8315613e40576060810184905260408051602081018252908201518152613de690856129a4565b6080830181905260208301826003811115613dfd57fe5b6003811115613e0857fe5b9052506000905081602001516003811115613e1f57fe5b14613e3b57613db760096029836020015160038111156119a157fe5b613eb9565b613e5c8360405180602001604052808460400151815250613872565b6060830181905260208301826003811115613e7357fe5b6003811115613e7e57fe5b9052506000905081602001516003811115613e9557fe5b14613eb157613db76009602a836020015160038111156119a157fe5b608081018390525b60055460608201516040805163eabe7d9160e01b81523060048201526001600160a01b03898116602483015260448201939093529051600093929092169163eabe7d919160648082019260209290919082900301818787803b158015613f1e57600080fd5b505af1158015613f32573d6000803e3d6000fd5b505050506040513d6020811015613f4857600080fd5b505190508015613f6857613f5f6003602883612f02565b92505050611322565b613f70612cfe565b60095414613f8457613f5f600a602c61222f565b613f94600d548360600151612e77565b60a0840181905260208401826003811115613fab57fe5b6003811115613fb657fe5b9052506000905082602001516003811115613fcd57fe5b14613fe957613f5f6009602e846020015160038111156119a157fe5b6001600160a01b0386166000908152600e602052604090205460608301516140119190612e77565b60c084018190526020840182600381111561402857fe5b600381111561403357fe5b905250600090508260200151600381111561404a57fe5b1461406657613f5f6009602d846020015160038111156119a157fe5b81608001516140736129f7565b101561408557613f5f600e602f61222f565b614093868360800151613cd4565b60a0820151600d5560c08201516001600160a01b0387166000818152600e6020908152604091829020939093556060850151815190815290513093600080516020615034833981519152928290030190a36080820151606080840151604080516001600160a01b038b168152602081019490945283810191909152517fe5b754fb1abb7f01b499791d0b820ae3b6af3424ac1c59768edb53f4ec31a9299281900390910190a160055460808301516060840151604080516351dff98960e01b81523060048201526001600160a01b038b81166024830152604482019490945260648101929092525191909216916351dff98991608480830192600092919082900301818387803b1580156141a657600080fd5b505af11580156141ba573d6000803e3d6000fd5b50600092506141c7915050565b9695505050505050565b600080836141e457506000905080612660565b838302838582816141f157fe5b041461420557506002915060009050612660565b600092509050612660565b600080826142245750600190506000612660565b600083858161422f57fe5b04915091509250929050565b60055460408051632fe3f38f60e11b81523060048201526001600160a01b0384811660248301528781166044830152868116606483015260848201869052915160009384938493911691635fc7e71e9160a48082019260209290919082900301818787803b1580156142ac57600080fd5b505af11580156142c0573d6000803e3d6000fd5b505050506040513d60208110156142d657600080fd5b5051905080156142fa576142ed6003601283612f02565b9250600091506147249050565b614302612cfe565b60095414614316576142ed600a601661222f565b61431e612cfe565b846001600160a01b0316636c540baf6040518163ffffffff1660e01b815260040160206040518083038186803b15801561435757600080fd5b505afa15801561436b573d6000803e3d6000fd5b505050506040513d602081101561438157600080fd5b505114614394576142ed600a601161222f565b866001600160a01b0316866001600160a01b031614156143ba576142ed6006601761222f565b846143cb576142ed6007601561222f565b6000198514156143e1576142ed6007601461222f565b6000806143ef898989613986565b9092509050811561441f5761441082601081111561440957fe5b601861222f565b94506000935061472492505050565b6005546040805163c488847b60e01b81523060048201526001600160a01b038981166024830152604482018590528251600094859492169263c488847b926064808301939192829003018186803b15801561447957600080fd5b505afa15801561448d573d6000803e3d6000fd5b505050506040513d60408110156144a357600080fd5b508051602090910151909250905081156144ee5760405162461bcd60e51b81526004018080602001828103825260338152602001806150856033913960400191505060405180910390fd5b80886001600160a01b03166370a082318c6040518263ffffffff1660e01b815260040180826001600160a01b03166001600160a01b0316815260200191505060206040518083038186803b15801561454557600080fd5b505afa158015614559573d6000803e3d6000fd5b505050506040513d602081101561456f57600080fd5b505110156145c4576040805162461bcd60e51b815260206004820152601860248201527f4c49515549444154455f5345495a455f544f4f5f4d5543480000000000000000604482015290519081900360640190fd5b60006001600160a01b0389163014156145ea576145e3308d8d8561311c565b9050614674565b6040805163b2a02ff160e01b81526001600160a01b038e811660048301528d81166024830152604482018590529151918b169163b2a02ff1916064808201926020929091908290030181600087803b15801561464557600080fd5b505af1158015614659573d6000803e3d6000fd5b505050506040513d602081101561466f57600080fd5b505190505b80156146be576040805162461bcd60e51b81526020600482015260146024820152731d1bdad95b881cd95a5e9d5c994819985a5b195960621b604482015290519081900360640190fd5b604080516001600160a01b03808f168252808e1660208301528183018790528b1660608201526080810184905290517f298637f684da70674f26509b10f07ec2fbc77a335ab1e7d6215a4b2484d8bb529181900360a00190a16000975092955050505050505b94509492505050565b6000670de0b6b3a7640000614746848460000151614bbf565b8161474d57fe5b049392505050565b60006113228383604051806040016040528060158152602001747375627472616374696f6e20756e646572666c6f7760581b815250614c01565b6000614799614d59565b6147a38484614c5b565b905061299c81613977565b60006113228383604051806040016040528060118152602001706164646974696f6e206f766572666c6f7760781b815250614c85565b6005546040805163368f515360e21b81523060048201526001600160a01b0385811660248301526044820185905291516000938493169163da3d454c91606480830192602092919082900301818787803b15801561484157600080fd5b505af1158015614855573d6000803e3d6000fd5b505050506040513d602081101561486b57600080fd5b50519050801561488a576148826003600e83612f02565b915050610f10565b614892612cfe565b600954146148a557614882600a8061222f565b826148ae6129f7565b10156148c057614882600e600961222f565b6148c8614ebb565b6148d185612c4a565b60208301819052828260038111156148e557fe5b60038111156148f057fe5b905250600090508151600381111561490457fe5b146149295761492060096007836000015160038111156119a157fe5b92505050610f10565b614937816020015185612f68565b604083018190528282600381111561494b57fe5b600381111561495657fe5b905250600090508151600381111561496a57fe5b14614986576149206009600c836000015160038111156119a157fe5b614992600b5485612f68565b60608301819052828260038111156149a657fe5b60038111156149b157fe5b90525060009050815160038111156149c557fe5b146149e1576149206009600b836000015160038111156119a157fe5b6149eb8585613cd4565b604080820180516001600160a01b03881660008181526010602090815290859020928355600a54600190930192909255606080860151600b81905593518551928352928201899052818501929092529081019190915290517f13ed6866d4e1ee6da46f845c46d7e54120883d75c5ea9a2dacc1c4ca8984ab809181900360800190a1600095945050505050565b600080600080614a86612cfe565b60095414614aa557614a9a600a604f61222f565b93509150612cf99050565b614aaf33866137d6565b905080600c54019150600c54821015614b0f576040805162461bcd60e51b815260206004820181905260248201527f61646420726573657276657320756e6578706563746564206f766572666c6f77604482015290519081900360640190fd5b600c829055604080513381526020810183905280820184905290517fa91e67c5ea634cd43a12c5a482724b03de01e85ca68702a53d0c2f45cb7c1dc59181900360600190a160009350915050915091565b6000614b6a614d59565b600080614b7f670de0b6b3a7640000876141d1565b90925090506000826003811115614b9257fe5b14614bb157506040805160208101909152600081529092509050612660565b6129ea8186600001516138c7565b600061132283836040518060400160405280601781526020017f6d756c7469706c69636174696f6e206f766572666c6f77000000000000000000815250614ce3565b60008184841115614c535760405162461bcd60e51b8152602060048201818152835160248401528351909283926044909101919085019080838360008315610dd9578181015183820152602001610dc1565b505050900390565b614c63614d59565b6040518060200160405280614c7c856000015185614bbf565b90529392505050565b60008383018285821015614cda5760405162461bcd60e51b8152602060048201818152835160248401528351909283926044909101919085019080838360008315610dd9578181015183820152602001610dc1565b50949350505050565b6000831580614cf0575082155b15614cfd57506000611322565b83830283858281614d0a57fe5b04148390614cda5760405162461bcd60e51b8152602060048201818152835160248401528351909283926044909101919085019080838360008315610dd9578181015183820152602001610dc1565b6040518060200160405280600081525090565b828054600181600116156101000203166002900490600052602060002090601f016020900481019282601f10614dad57805160ff1916838001178555614dda565b82800160010185558215614dda579182015b82811115614dda578251825591602001919060010190614dbf565b50614de6929150614ee4565b5090565b6040805160e0810190915280600081526020016000815260200160008152602001600081526020016000815260200160008152602001600081525090565b604080516101208101909152806000815260200160008152602001600081526020016000815260200160008152602001600081526020016000815260200160008152602001600081525090565b6040805161010081019091528060008152602001600081526020016000815260200160008152602001600081526020016000815260200160008152602001600081525090565b604080516080810190915280600081526020016000815260200160008152602001600081525090565b61108091905b80821115614de65760008155600101614eea56fe6f6e6c792061646d696e206d617920696e697469616c697a6520746865206d61726b65746d61726b6574206d6179206f6e6c7920626520696e697469616c697a6564206f6e6365696e697469616c2065786368616e67652072617465206d7573742062652067726561746572207468616e207a65726f2e73657474696e6720696e7465726573742072617465206d6f64656c206661696c65644d494e545f4e45575f4143434f554e545f42414c414e43455f43414c43554c4154494f4e5f4641494c4544626f72726f7742616c616e636553746f7265643a20626f72726f7742616c616e636553746f726564496e7465726e616c206661696c656452455041595f424f52524f575f4e45575f4143434f554e545f424f52524f575f42414c414e43455f43414c43554c4154494f4e5f4641494c4544ddf252ad1be2c89b69c2b068fc378daa952ba7f163c4a11628f55a4df523b3ef52455041595f424f52524f575f4e45575f544f54414c5f42414c414e43455f43414c43554c4154494f4e5f4641494c45444c49515549444154455f434f4d5054524f4c4c45525f43414c43554c4154455f414d4f554e545f5345495a455f4641494c454465786368616e67655261746553746f7265643a2065786368616e67655261746553746f726564496e7465726e616c206661696c65644d494e545f4e45575f544f54414c5f535550504c595f43414c43554c4154494f4e5f4641494c45446f6e65206f662072656465656d546f6b656e73496e206f722072656465656d416d6f756e74496e206d757374206265207a65726f72656475636520726573657276657320756e657870656374656420756e646572666c6f77a265627a7a72315820c25c8daf7fb84b99f370a191a3d89ad68207fa21f56b0747c9acfa6c3960d48564736f6c634300051000326f6e6c792061646d696e206d617920696e697469616c697a6520746865206d61726b65746d61726b6574206d6179206f6e6c7920626520696e697469616c697a6564206f6e6365696e697469616c2065786368616e67652072617465206d7573742062652067726561746572207468616e207a65726f2e73657474696e6720696e7465726573742072617465206d6f64656c206661696c6564",
  "devdoc": {
    "author": "Compound",
    "methods": {
      "_acceptAdmin()": {
        "details": "Admin function for pending admin to accept role and update admin",
        "return": "uint 0=success, otherwise a failure (see ErrorReporter.sol for details)"
      },
      "_addReserves()": {
        "return": "uint 0=success, otherwise a failure (see ErrorReporter.sol for details)"
      },
      "_reduceReserves(uint256)": {
        "params": {
          "reduceAmount": "Amount of reduction to reserves"
        },
        "return": "uint 0=success, otherwise a failure (see ErrorReporter.sol for details)"
      },
      "_setComptroller(address)": {
        "details": "Admin function to set a new comptroller",
        "return": "uint 0=success, otherwise a failure (see ErrorReporter.sol for details)"
      },
      "_setInterestRateModel(address)": {
        "details": "Admin function to accrue interest and update the interest rate model",
        "params": {
          "newInterestRateModel": "the new interest rate model to use"
        },
        "return": "uint 0=success, otherwise a failure (see ErrorReporter.sol for details)"
      },
      "_setPendingAdmin(address)": {
        "details": "Admin function to begin change of admin. The newPendingAdmin must call `_acceptAdmin` to finalize the transfer.",
        "params": {
          "newPendingAdmin": "New pending admin."
        },
        "return": "uint 0=success, otherwise a failure (see ErrorReporter.sol for details)"
      },
      "_setReserveFactor(uint256)": {
        "details": "Admin function to accrue interest and set a new reserve factor",
        "return": "uint 0=success, otherwise a failure (see ErrorReporter.sol for details)"
      },
      "accrueInterest()": {
        "details": "This calculates interest accrued from the last checkpointed block  up to the current block and writes new checkpoint to storage."
      },
      "allowance(address,address)": {
        "params": {
          "owner": "The address of the account which owns the tokens to be spent",
          "spender": "The address of the account which may transfer tokens"
        },
        "return": "The number of tokens allowed to be spent (-1 means infinite)"
      },
      "approve(address,uint256)": {
        "details": "This will overwrite the approval amount for `spender` and is subject to issues noted [here](https://eips.ethereum.org/EIPS/eip-20#approve)",
        "params": {
          "amount": "The number of tokens that are approved (-1 means infinite)",
          "spender": "The address of the account which may transfer tokens"
        },
        "return": "Whether or not the approval succeeded"
      },
      "balanceOf(address)": {
        "params": {
          "owner": "The address of the account to query"
        },
        "return": "The number of tokens owned by `owner`"
      },
      "balanceOfUnderlying(address)": {
        "details": "This also accrues interest in a transaction",
        "params": {
          "owner": "The address of the account to query"
        },
        "return": "The amount of underlying owned by `owner`"
      },
      "borrow(uint256)": {
        "params": {
          "borrowAmount": "The amount of the underlying asset to borrow"
        },
        "return": "uint 0=success, otherwise a failure (see ErrorReporter.sol for details)"
      },
      "borrowBalanceCurrent(address)": {
        "params": {
          "account": "The address whose balance should be calculated after updating borrowIndex"
        },
        "return": "The calculated balance"
      },
      "borrowBalanceStored(address)": {
        "params": {
          "account": "The address whose balance should be calculated"
        },
        "return": "The calculated balance"
      },
      "borrowRatePerBlock()": {
        "return": "The borrow interest rate per block, scaled by 1e18"
      },
      "constructor": {
        "params": {
          "admin_": "Address of the administrator of this token",
          "comptroller_": "The address of the Comptroller",
          "decimals_": "ERC-20 decimal precision of this token",
          "initialExchangeRateMantissa_": "The initial exchange rate, scaled by 1e18",
          "interestRateModel_": "The address of the interest rate model",
          "name_": "ERC-20 name of this token",
          "symbol_": "ERC-20 symbol of this token"
        }
      },
      "exchangeRateCurrent()": {
        "return": "Calculated exchange rate scaled by 1e18"
      },
      "exchangeRateStored()": {
        "details": "This function does not accrue interest before calculating the exchange rate",
        "return": "Calculated exchange rate scaled by 1e18"
      },
      "getAccountSnapshot(address)": {
        "details": "This is used by comptroller to more efficiently perform liquidity checks.",
        "params": {
          "account": "Address of the account to snapshot"
        },
        "return": "(possible error, token balance, borrow balance, exchange rate mantissa)"
      },
      "getCash()": {
        "return": "The quantity of underlying asset owned by this contract"
      },
      "initialize(address,address,uint256,string,string,uint8)": {
        "params": {
          "comptroller_": "The address of the Comptroller",
          "decimals_": "EIP-20 decimal precision of this token",
          "initialExchangeRateMantissa_": "The initial exchange rate, scaled by 1e18",
          "interestRateModel_": "The address of the interest rate model",
          "name_": "EIP-20 name of this token",
          "symbol_": "EIP-20 symbol of this token"
        }
      },
      "liquidateBorrow(address,address)": {
        "details": "Reverts upon any failure",
        "params": {
          "borrower": "The borrower of this cToken to be liquidated",
          "cTokenCollateral": "The market in which to seize collateral from the borrower"
        }
      },
      "mint()": {
        "details": "Reverts upon any failure"
      },
      "redeem(uint256)": {
        "details": "Accrues interest whether or not the operation succeeds, unless reverted",
        "params": {
          "redeemTokens": "The number of cTokens to redeem into underlying"
        },
        "return": "uint 0=success, otherwise a failure (see ErrorReporter.sol for details)"
      },
      "redeemUnderlying(uint256)": {
        "details": "Accrues interest whether or not the operation succeeds, unless reverted",
        "params": {
          "redeemAmount": "The amount of underlying to redeem"
        },
        "return": "uint 0=success, otherwise a failure (see ErrorReporter.sol for details)"
      },
      "repayBorrow()": {
        "details": "Reverts upon any failure"
      },
      "repayBorrowBehalf(address)": {
        "details": "Reverts upon any failure",
        "params": {
          "borrower": "the account with the debt being payed off"
        }
      },
      "seize(address,address,uint256)": {
        "details": "Will fail unless called by another cToken during the process of liquidation. Its absolutely critical to use msg.sender as the borrowed cToken and not a parameter.",
        "params": {
          "borrower": "The account having collateral seized",
          "liquidator": "The account receiving seized collateral",
          "seizeTokens": "The number of cTokens to seize"
        },
        "return": "uint 0=success, otherwise a failure (see ErrorReporter.sol for details)"
      },
      "supplyRatePerBlock()": {
        "return": "The supply interest rate per block, scaled by 1e18"
      },
      "totalBorrowsCurrent()": {
        "return": "The total borrows with interest"
      },
      "transfer(address,uint256)": {
        "params": {
          "amount": "The number of tokens to transfer",
          "dst": "The address of the destination account"
        },
        "return": "Whether or not the transfer succeeded"
      },
      "transferFrom(address,address,uint256)": {
        "params": {
          "amount": "The number of tokens to transfer",
          "dst": "The address of the destination account",
          "src": "The address of the source account"
        },
        "return": "Whether or not the transfer succeeded"
      }
    },
    "title": "Compound's CEther Contract"
  },
  "userdoc": {
    "methods": {
      "_acceptAdmin()": {
        "notice": "Accepts transfer of admin rights. msg.sender must be pendingAdmin"
      },
      "_addReserves()": {
        "notice": "The sender adds to reserves."
      },
      "_reduceReserves(uint256)": {
        "notice": "Accrues interest and reduces reserves by transferring to admin"
      },
      "_setComptroller(address)": {
        "notice": "Sets a new comptroller for the market"
      },
      "_setInterestRateModel(address)": {
        "notice": "accrues interest and updates the interest rate model using _setInterestRateModelFresh"
      },
      "_setPendingAdmin(address)": {
        "notice": "Begins transfer of admin rights. The newPendingAdmin must call `_acceptAdmin` to finalize the transfer."
      },
      "_setReserveFactor(uint256)": {
        "notice": "accrues interest and sets a new reserve factor for the protocol using _setReserveFactorFresh"
      },
      "accrueInterest()": {
        "notice": "Applies accrued interest to total borrows and reserves"
      },
      "allowance(address,address)": {
        "notice": "Get the current allowance from `owner` for `spender`"
      },
      "approve(address,uint256)": {
        "notice": "Approve `spender` to transfer up to `amount` from `src`"
      },
      "balanceOf(address)": {
        "notice": "Get the token balance of the `owner`"
      },
      "balanceOfUnderlying(address)": {
        "notice": "Get the underlying balance of the `owner`"
      },
      "borrow(uint256)": {
        "notice": "Sender borrows assets from the protocol to their own address"
      },
      "borrowBalanceCurrent(address)": {
        "notice": "Accrue interest to updated borrowIndex and then calculate account's borrow balance using the updated borrowIndex"
      },
      "borrowBalanceStored(address)": {
        "notice": "Return the borrow balance of account based on stored data"
      },
      "borrowRatePerBlock()": {
        "notice": "Returns the current per-block borrow interest rate for this cToken"
      },
      "constructor": "Construct a new CEther money market",
      "exchangeRateCurrent()": {
        "notice": "Accrue interest then return the up-to-date exchange rate"
      },
      "exchangeRateStored()": {
        "notice": "Calculates the exchange rate from the underlying to the CToken"
      },
      "getAccountSnapshot(address)": {
        "notice": "Get a snapshot of the account's balances, and the cached exchange rate"
      },
      "getCash()": {
        "notice": "Get cash balance of this cToken in the underlying asset"
      },
      "initialize(address,address,uint256,string,string,uint8)": {
        "notice": "Initialize the money market"
      },
      "liquidateBorrow(address,address)": {
        "notice": "The sender liquidates the borrowers collateral. The collateral seized is transferred to the liquidator."
      },
      "mint()": {
        "notice": "Sender supplies assets into the market and receives cTokens in exchange"
      },
      "redeem(uint256)": {
        "notice": "Sender redeems cTokens in exchange for the underlying asset"
      },
      "redeemUnderlying(uint256)": {
        "notice": "Sender redeems cTokens in exchange for a specified amount of underlying asset"
      },
      "repayBorrow()": {
        "notice": "Sender repays their own borrow"
      },
      "repayBorrowBehalf(address)": {
        "notice": "Sender repays a borrow belonging to borrower"
      },
      "seize(address,address,uint256)": {
        "notice": "Transfers collateral tokens (this market) to the liquidator."
      },
      "supplyRatePerBlock()": {
        "notice": "Returns the current per-block supply interest rate for this cToken"
      },
      "totalBorrowsCurrent()": {
        "notice": "Returns the current total borrows plus accrued interest"
      },
      "transfer(address,uint256)": {
        "notice": "Transfer `amount` tokens from `msg.sender` to `dst`"
      },
      "transferFrom(address,address,uint256)": {
        "notice": "Transfer `amount` tokens from `src` to `dst`"
      }
    },
    "notice": "CToken which wraps Ether"
  },
  "storageLayout": {
    "storage": [
      {
        "astId": 6285,
        "contract": "contracts/CEther.sol:CEther",
        "label": "_notEntered",
        "offset": 0,
        "slot": "0",
        "type": "t_bool"
      },
      {
        "astId": 6287,
        "contract": "contracts/CEther.sol:CEther",
        "label": "name",
        "offset": 0,
        "slot": "1",
        "type": "t_string_storage"
      },
      {
        "astId": 6289,
        "contract": "contracts/CEther.sol:CEther",
        "label": "symbol",
        "offset": 0,
        "slot": "2",
        "type": "t_string_storage"
      },
      {
        "astId": 6291,
        "contract": "contracts/CEther.sol:CEther",
        "label": "decimals",
        "offset": 0,
        "slot": "3",
        "type": "t_uint8"
      },
      {
        "astId": 6299,
        "contract": "contracts/CEther.sol:CEther",
        "label": "admin",
        "offset": 1,
        "slot": "3",
        "type": "t_address_payable"
      },
      {
        "astId": 6301,
        "contract": "contracts/CEther.sol:CEther",
        "label": "pendingAdmin",
        "offset": 0,
        "slot": "4",
        "type": "t_address_payable"
      },
      {
        "astId": 6303,
        "contract": "contracts/CEther.sol:CEther",
        "label": "comptroller",
        "offset": 0,
        "slot": "5",
        "type": "t_contract(ComptrollerInterface)34354"
      },
      {
        "astId": 6305,
        "contract": "contracts/CEther.sol:CEther",
        "label": "interestRateModel",
        "offset": 0,
        "slot": "6",
        "type": "t_contract(InterestRateModel)38657"
      },
      {
        "astId": 6307,
        "contract": "contracts/CEther.sol:CEther",
        "label": "initialExchangeRateMantissa",
        "offset": 0,
        "slot": "7",
        "type": "t_uint256"
      },
      {
        "astId": 6309,
        "contract": "contracts/CEther.sol:CEther",
        "label": "reserveFactorMantissa",
        "offset": 0,
        "slot": "8",
        "type": "t_uint256"
      },
      {
        "astId": 6311,
        "contract": "contracts/CEther.sol:CEther",
        "label": "accrualBlockNumber",
        "offset": 0,
        "slot": "9",
        "type": "t_uint256"
      },
      {
        "astId": 6313,
        "contract": "contracts/CEther.sol:CEther",
        "label": "borrowIndex",
        "offset": 0,
        "slot": "10",
        "type": "t_uint256"
      },
      {
        "astId": 6315,
        "contract": "contracts/CEther.sol:CEther",
        "label": "totalBorrows",
        "offset": 0,
        "slot": "11",
        "type": "t_uint256"
      },
      {
        "astId": 6317,
        "contract": "contracts/CEther.sol:CEther",
        "label": "totalReserves",
        "offset": 0,
        "slot": "12",
        "type": "t_uint256"
      },
      {
        "astId": 6319,
        "contract": "contracts/CEther.sol:CEther",
        "label": "totalSupply",
        "offset": 0,
        "slot": "13",
        "type": "t_uint256"
      },
      {
        "astId": 6323,
        "contract": "contracts/CEther.sol:CEther",
        "label": "accountTokens",
        "offset": 0,
        "slot": "14",
        "type": "t_mapping(t_address,t_uint256)"
      },
      {
        "astId": 6329,
        "contract": "contracts/CEther.sol:CEther",
        "label": "transferAllowances",
        "offset": 0,
        "slot": "15",
        "type": "t_mapping(t_address,t_mapping(t_address,t_uint256))"
      },
      {
        "astId": 6338,
        "contract": "contracts/CEther.sol:CEther",
        "label": "accountBorrows",
        "offset": 0,
        "slot": "16",
        "type": "t_mapping(t_address,t_struct(BorrowSnapshot)6334_storage)"
      },
      {
        "astId": 6343,
        "contract": "contracts/CEther.sol:CEther",
        "label": "feeTaker",
        "offset": 0,
        "slot": "17",
        "type": "t_address_payable"
      }
    ],
    "types": {
      "t_address": {
        "encoding": "inplace",
        "label": "address",
        "numberOfBytes": "20"
      },
      "t_address_payable": {
        "encoding": "inplace",
        "label": "address payable",
        "numberOfBytes": "20"
      },
      "t_bool": {
        "encoding": "inplace",
        "label": "bool",
        "numberOfBytes": "1"
      },
      "t_contract(ComptrollerInterface)34354": {
        "encoding": "inplace",
        "label": "contract ComptrollerInterface",
        "numberOfBytes": "20"
      },
      "t_contract(InterestRateModel)38657": {
        "encoding": "inplace",
        "label": "contract InterestRateModel",
        "numberOfBytes": "20"
      },
      "t_mapping(t_address,t_mapping(t_address,t_uint256))": {
        "encoding": "mapping",
        "key": "t_address",
        "label": "mapping(address => mapping(address => uint256))",
        "numberOfBytes": "32",
        "value": "t_mapping(t_address,t_uint256)"
      },
      "t_mapping(t_address,t_struct(BorrowSnapshot)6334_storage)": {
        "encoding": "mapping",
        "key": "t_address",
        "label": "mapping(address => struct CTokenStorage.BorrowSnapshot)",
        "numberOfBytes": "32",
        "value": "t_struct(BorrowSnapshot)6334_storage"
      },
      "t_mapping(t_address,t_uint256)": {
        "encoding": "mapping",
        "key": "t_address",
        "label": "mapping(address => uint256)",
        "numberOfBytes": "32",
        "value": "t_uint256"
      },
      "t_string_storage": {
        "encoding": "bytes",
        "label": "string",
        "numberOfBytes": "32"
      },
      "t_struct(BorrowSnapshot)6334_storage": {
        "encoding": "inplace",
        "label": "struct CTokenStorage.BorrowSnapshot",
        "members": [
          {
            "astId": 6331,
            "contract": "contracts/CEther.sol:CEther",
            "label": "principal",
            "offset": 0,
            "slot": "0",
            "type": "t_uint256"
          },
          {
            "astId": 6333,
            "contract": "contracts/CEther.sol:CEther",
            "label": "interestIndex",
            "offset": 0,
            "slot": "1",
            "type": "t_uint256"
          }
        ],
        "numberOfBytes": "64"
      },
      "t_uint256": {
        "encoding": "inplace",
        "label": "uint256",
        "numberOfBytes": "32"
      },
      "t_uint8": {
        "encoding": "inplace",
        "label": "uint8",
        "numberOfBytes": "1"
      }
    }
  }
}