{
  "address": "0xc7F407A96A3f922d34f0C1Ea04Aa75EEe88dAEC7",
  "abi": [
    {
      "constant": false,
      "inputs": [
        {
          "internalType": "contract CToken",
          "name": "cToken",
          "type": "address"
        },
        {
          "internalType": "address payable",
          "name": "account",
          "type": "address"
        }
      ],
      "name": "cTokenBalances",
      "outputs": [
        {
          "components": [
            {
              "internalType": "address",
              "name": "cToken",
              "type": "address"
            },
            {
              "internalType": "uint256",
              "name": "balanceOf",
              "type": "uint256"
            },
            {
              "internalType": "uint256",
              "name": "borrowBalanceCurrent",
              "type": "uint256"
            },
            {
              "internalType": "uint256",
              "name": "balanceOfUnderlying",
              "type": "uint256"
            },
            {
              "internalType": "uint256",
              "name": "tokenBalance",
              "type": "uint256"
            },
            {
              "internalType": "uint256",
              "name": "tokenAllowance",
              "type": "uint256"
            }
          ],
          "internalType": "struct CompoundLens.CTokenBalances",
          "name": "",
          "type": "tuple"
        }
      ],
      "payable": false,
      "stateMutability": "nonpayable",
      "type": "function"
    },
    {
      "constant": false,
      "inputs": [
        {
          "internalType": "contract CToken[]",
          "name": "cTokens",
          "type": "address[]"
        },
        {
          "internalType": "address payable",
          "name": "account",
          "type": "address"
        }
      ],
      "name": "cTokenBalancesAll",
      "outputs": [
        {
          "components": [
            {
              "internalType": "address",
              "name": "cToken",
              "type": "address"
            },
            {
              "internalType": "uint256",
              "name": "balanceOf",
              "type": "uint256"
            },
            {
              "internalType": "uint256",
              "name": "borrowBalanceCurrent",
              "type": "uint256"
            },
            {
              "internalType": "uint256",
              "name": "balanceOfUnderlying",
              "type": "uint256"
            },
            {
              "internalType": "uint256",
              "name": "tokenBalance",
              "type": "uint256"
            },
            {
              "internalType": "uint256",
              "name": "tokenAllowance",
              "type": "uint256"
            }
          ],
          "internalType": "struct CompoundLens.CTokenBalances[]",
          "name": "",
          "type": "tuple[]"
        }
      ],
      "payable": false,
      "stateMutability": "nonpayable",
      "type": "function"
    },
    {
      "constant": false,
      "inputs": [
        {
          "internalType": "contract CToken",
          "name": "cToken",
          "type": "address"
        }
      ],
      "name": "cTokenMetadata",
      "outputs": [
        {
          "components": [
            {
              "internalType": "address",
              "name": "cToken",
              "type": "address"
            },
            {
              "internalType": "uint256",
              "name": "exchangeRateCurrent",
              "type": "uint256"
            },
            {
              "internalType": "uint256",
              "name": "supplyRatePerBlock",
              "type": "uint256"
            },
            {
              "internalType": "uint256",
              "name": "borrowRatePerBlock",
              "type": "uint256"
            },
            {
              "internalType": "uint256",
              "name": "reserveFactorMantissa",
              "type": "uint256"
            },
            {
              "internalType": "uint256",
              "name": "totalBorrows",
              "type": "uint256"
            },
            {
              "internalType": "uint256",
              "name": "totalReserves",
              "type": "uint256"
            },
            {
              "internalType": "uint256",
              "name": "totalSupply",
              "type": "uint256"
            },
            {
              "internalType": "uint256",
              "name": "totalCash",
              "type": "uint256"
            },
            {
              "internalType": "bool",
              "name": "isListed",
              "type": "bool"
            },
            {
              "internalType": "uint256",
              "name": "collateralFactorMantissa",
              "type": "uint256"
            },
            {
              "internalType": "address",
              "name": "underlyingAssetAddress",
              "type": "address"
            },
            {
              "internalType": "uint256",
              "name": "cTokenDecimals",
              "type": "uint256"
            },
            {
              "internalType": "uint256",
              "name": "underlyingDecimals",
              "type": "uint256"
            }
          ],
          "internalType": "struct CompoundLens.CTokenMetadata",
          "name": "",
          "type": "tuple"
        }
      ],
      "payable": false,
      "stateMutability": "nonpayable",
      "type": "function"
    },
    {
      "constant": false,
      "inputs": [
        {
          "internalType": "contract CToken[]",
          "name": "cTokens",
          "type": "address[]"
        }
      ],
      "name": "cTokenMetadataAll",
      "outputs": [
        {
          "components": [
            {
              "internalType": "address",
              "name": "cToken",
              "type": "address"
            },
            {
              "internalType": "uint256",
              "name": "exchangeRateCurrent",
              "type": "uint256"
            },
            {
              "internalType": "uint256",
              "name": "supplyRatePerBlock",
              "type": "uint256"
            },
            {
              "internalType": "uint256",
              "name": "borrowRatePerBlock",
              "type": "uint256"
            },
            {
              "internalType": "uint256",
              "name": "reserveFactorMantissa",
              "type": "uint256"
            },
            {
              "internalType": "uint256",
              "name": "totalBorrows",
              "type": "uint256"
            },
            {
              "internalType": "uint256",
              "name": "totalReserves",
              "type": "uint256"
            },
            {
              "internalType": "uint256",
              "name": "totalSupply",
              "type": "uint256"
            },
            {
              "internalType": "uint256",
              "name": "totalCash",
              "type": "uint256"
            },
            {
              "internalType": "bool",
              "name": "isListed",
              "type": "bool"
            },
            {
              "internalType": "uint256",
              "name": "collateralFactorMantissa",
              "type": "uint256"
            },
            {
              "internalType": "address",
              "name": "underlyingAssetAddress",
              "type": "address"
            },
            {
              "internalType": "uint256",
              "name": "cTokenDecimals",
              "type": "uint256"
            },
            {
              "internalType": "uint256",
              "name": "underlyingDecimals",
              "type": "uint256"
            }
          ],
          "internalType": "struct CompoundLens.CTokenMetadata[]",
          "name": "",
          "type": "tuple[]"
        }
      ],
      "payable": false,
      "stateMutability": "nonpayable",
      "type": "function"
    },
    {
      "constant": false,
      "inputs": [
        {
          "internalType": "contract CToken",
          "name": "cToken",
          "type": "address"
        }
      ],
      "name": "cTokenUnderlyingPrice",
      "outputs": [
        {
          "components": [
            {
              "internalType": "address",
              "name": "cToken",
              "type": "address"
            },
            {
              "internalType": "uint256",
              "name": "underlyingPrice",
              "type": "uint256"
            }
          ],
          "internalType": "struct CompoundLens.CTokenUnderlyingPrice",
          "name": "",
          "type": "tuple"
        }
      ],
      "payable": false,
      "stateMutability": "nonpayable",
      "type": "function"
    },
    {
      "constant": false,
      "inputs": [
        {
          "internalType": "contract CToken[]",
          "name": "cTokens",
          "type": "address[]"
        }
      ],
      "name": "cTokenUnderlyingPriceAll",
      "outputs": [
        {
          "components": [
            {
              "internalType": "address",
              "name": "cToken",
              "type": "address"
            },
            {
              "internalType": "uint256",
              "name": "underlyingPrice",
              "type": "uint256"
            }
          ],
          "internalType": "struct CompoundLens.CTokenUnderlyingPrice[]",
          "name": "",
          "type": "tuple[]"
        }
      ],
      "payable": false,
      "stateMutability": "nonpayable",
      "type": "function"
    },
    {
      "constant": false,
      "inputs": [
        {
          "internalType": "contract ComptrollerLensInterface",
          "name": "comptroller",
          "type": "address"
        },
        {
          "internalType": "address",
          "name": "account",
          "type": "address"
        }
      ],
      "name": "getAccountLimits",
      "outputs": [
        {
          "components": [
            {
              "internalType": "contract CToken[]",
              "name": "markets",
              "type": "address[]"
            },
            {
              "internalType": "uint256",
              "name": "liquidity",
              "type": "uint256"
            },
            {
              "internalType": "uint256",
              "name": "shortfall",
              "type": "uint256"
            }
          ],
          "internalType": "struct CompoundLens.AccountLimits",
          "name": "",
          "type": "tuple"
        }
      ],
      "payable": false,
      "stateMutability": "nonpayable",
      "type": "function"
    },
    {
      "constant": true,
      "inputs": [
        {
          "internalType": "contract Comp",
          "name": "comp",
          "type": "address"
        },
        {
          "internalType": "address",
          "name": "account",
          "type": "address"
        }
      ],
      "name": "getCompBalanceMetadata",
      "outputs": [
        {
          "components": [
            {
              "internalType": "uint256",
              "name": "balance",
              "type": "uint256"
            },
            {
              "internalType": "uint256",
              "name": "votes",
              "type": "uint256"
            },
            {
              "internalType": "address",
              "name": "delegate",
              "type": "address"
            }
          ],
          "internalType": "struct CompoundLens.CompBalanceMetadata",
          "name": "",
          "type": "tuple"
        }
      ],
      "payable": false,
      "stateMutability": "view",
      "type": "function"
    },
    {
      "constant": false,
      "inputs": [
        {
          "internalType": "contract Comp",
          "name": "comp",
          "type": "address"
        },
        {
          "internalType": "contract ComptrollerLensInterface",
          "name": "comptroller",
          "type": "address"
        },
        {
          "internalType": "address",
          "name": "account",
          "type": "address"
        }
      ],
      "name": "getCompBalanceMetadataExt",
      "outputs": [
        {
          "components": [
            {
              "internalType": "uint256",
              "name": "balance",
              "type": "uint256"
            },
            {
              "internalType": "uint256",
              "name": "votes",
              "type": "uint256"
            },
            {
              "internalType": "address",
              "name": "delegate",
              "type": "address"
            },
            {
              "internalType": "uint256",
              "name": "allocated",
              "type": "uint256"
            }
          ],
          "internalType": "struct CompoundLens.CompBalanceMetadataExt",
          "name": "",
          "type": "tuple"
        }
      ],
      "payable": false,
      "stateMutability": "nonpayable",
      "type": "function"
    },
    {
      "constant": true,
      "inputs": [
        {
          "internalType": "contract Comp",
          "name": "comp",
          "type": "address"
        },
        {
          "internalType": "address",
          "name": "account",
          "type": "address"
        },
        {
          "internalType": "uint32[]",
          "name": "blockNumbers",
          "type": "uint32[]"
        }
      ],
      "name": "getCompVotes",
      "outputs": [
        {
          "components": [
            {
              "internalType": "uint256",
              "name": "blockNumber",
              "type": "uint256"
            },
            {
              "internalType": "uint256",
              "name": "votes",
              "type": "uint256"
            }
          ],
          "internalType": "struct CompoundLens.CompVotes[]",
          "name": "",
          "type": "tuple[]"
        }
      ],
      "payable": false,
      "stateMutability": "view",
      "type": "function"
    },
    {
      "constant": true,
      "inputs": [
        {
          "internalType": "contract GovernorBravoInterface",
          "name": "governor",
          "type": "address"
        },
        {
          "internalType": "uint256[]",
          "name": "proposalIds",
          "type": "uint256[]"
        }
      ],
      "name": "getGovBravoProposals",
      "outputs": [
        {
          "components": [
            {
              "internalType": "uint256",
              "name": "proposalId",
              "type": "uint256"
            },
            {
              "internalType": "address",
              "name": "proposer",
              "type": "address"
            },
            {
              "internalType": "uint256",
              "name": "eta",
              "type": "uint256"
            },
            {
              "internalType": "address[]",
              "name": "targets",
              "type": "address[]"
            },
            {
              "internalType": "uint256[]",
              "name": "values",
              "type": "uint256[]"
            },
            {
              "internalType": "string[]",
              "name": "signatures",
              "type": "string[]"
            },
            {
              "internalType": "bytes[]",
              "name": "calldatas",
              "type": "bytes[]"
            },
            {
              "internalType": "uint256",
              "name": "startBlock",
              "type": "uint256"
            },
            {
              "internalType": "uint256",
              "name": "endBlock",
              "type": "uint256"
            },
            {
              "internalType": "uint256",
              "name": "forVotes",
              "type": "uint256"
            },
            {
              "internalType": "uint256",
              "name": "againstVotes",
              "type": "uint256"
            },
            {
              "internalType": "uint256",
              "name": "abstainVotes",
              "type": "uint256"
            },
            {
              "internalType": "bool",
              "name": "canceled",
              "type": "bool"
            },
            {
              "internalType": "bool",
              "name": "executed",
              "type": "bool"
            }
          ],
          "internalType": "struct CompoundLens.GovBravoProposal[]",
          "name": "",
          "type": "tuple[]"
        }
      ],
      "payable": false,
      "stateMutability": "view",
      "type": "function"
    },
    {
      "constant": true,
      "inputs": [
        {
          "internalType": "contract GovernorBravoInterface",
          "name": "governor",
          "type": "address"
        },
        {
          "internalType": "address",
          "name": "voter",
          "type": "address"
        },
        {
          "internalType": "uint256[]",
          "name": "proposalIds",
          "type": "uint256[]"
        }
      ],
      "name": "getGovBravoReceipts",
      "outputs": [
        {
          "components": [
            {
              "internalType": "uint256",
              "name": "proposalId",
              "type": "uint256"
            },
            {
              "internalType": "bool",
              "name": "hasVoted",
              "type": "bool"
            },
            {
              "internalType": "uint8",
              "name": "support",
              "type": "uint8"
            },
            {
              "internalType": "uint96",
              "name": "votes",
              "type": "uint96"
            }
          ],
          "internalType": "struct CompoundLens.GovBravoReceipt[]",
          "name": "",
          "type": "tuple[]"
        }
      ],
      "payable": false,
      "stateMutability": "view",
      "type": "function"
    },
    {
      "constant": true,
      "inputs": [
        {
          "internalType": "contract GovernorAlpha",
          "name": "governor",
          "type": "address"
        },
        {
          "internalType": "uint256[]",
          "name": "proposalIds",
          "type": "uint256[]"
        }
      ],
      "name": "getGovProposals",
      "outputs": [
        {
          "components": [
            {
              "internalType": "uint256",
              "name": "proposalId",
              "type": "uint256"
            },
            {
              "internalType": "address",
              "name": "proposer",
              "type": "address"
            },
            {
              "internalType": "uint256",
              "name": "eta",
              "type": "uint256"
            },
            {
              "internalType": "address[]",
              "name": "targets",
              "type": "address[]"
            },
            {
              "internalType": "uint256[]",
              "name": "values",
              "type": "uint256[]"
            },
            {
              "internalType": "string[]",
              "name": "signatures",
              "type": "string[]"
            },
            {
              "internalType": "bytes[]",
              "name": "calldatas",
              "type": "bytes[]"
            },
            {
              "internalType": "uint256",
              "name": "startBlock",
              "type": "uint256"
            },
            {
              "internalType": "uint256",
              "name": "endBlock",
              "type": "uint256"
            },
            {
              "internalType": "uint256",
              "name": "forVotes",
              "type": "uint256"
            },
            {
              "internalType": "uint256",
              "name": "againstVotes",
              "type": "uint256"
            },
            {
              "internalType": "bool",
              "name": "canceled",
              "type": "bool"
            },
            {
              "internalType": "bool",
              "name": "executed",
              "type": "bool"
            }
          ],
          "internalType": "struct CompoundLens.GovProposal[]",
          "name": "",
          "type": "tuple[]"
        }
      ],
      "payable": false,
      "stateMutability": "view",
      "type": "function"
    },
    {
      "constant": true,
      "inputs": [
        {
          "internalType": "contract GovernorAlpha",
          "name": "governor",
          "type": "address"
        },
        {
          "internalType": "address",
          "name": "voter",
          "type": "address"
        },
        {
          "internalType": "uint256[]",
          "name": "proposalIds",
          "type": "uint256[]"
        }
      ],
      "name": "getGovReceipts",
      "outputs": [
        {
          "components": [
            {
              "internalType": "uint256",
              "name": "proposalId",
              "type": "uint256"
            },
            {
              "internalType": "bool",
              "name": "hasVoted",
              "type": "bool"
            },
            {
              "internalType": "bool",
              "name": "support",
              "type": "bool"
            },
            {
              "internalType": "uint96",
              "name": "votes",
              "type": "uint96"
            }
          ],
          "internalType": "struct CompoundLens.GovReceipt[]",
          "name": "",
          "type": "tuple[]"
        }
      ],
      "payable": false,
      "stateMutability": "view",
      "type": "function"
    }
  ],
  "transactionHash": "0xbd10865238c6b6f38c2608f160625b6ba0c86e6106c5f2bee834740cd88de515",
  "args": [],
  "solcInputHash": "4f7891a68209ad3b0922ea01ad77e7d8",
  "bytecode": "0x608060405234801561001057600080fd5b50613cc4806100206000396000f3fe608060405234801561001057600080fd5b50600436106100ea5760003560e01c8063595642191161008c57806396994869116100665780639699486914610238578063995ed99f14610258578063bdf950c914610278578063c5ae593414610298576100ea565b806359564219146101d857806375d80e90146101f85780637dd8f6d914610218576100ea565b80632b2d5ed6116100c85780632b2d5ed614610158578063416405d71461017857806343c811cc146101985780634b70d84b146101b8576100ea565b80630972bf8b146100ef578063158eca8b146101185780631ea6374114610138575b600080fd5b6101026100fd366004612a5f565b6102b8565b60405161010f9190613a08565b60405180910390f35b61012b610126366004612b21565b61035b565b60405161010f9190613ace565b61014b610146366004612bd6565b610a34565b60405161010f9190613aeb565b61016b610166366004612a1e565b610dbb565b60405161010f9190613a2a565b61018b610186366004612b3f565b610e57565b60405161010f9190613af9565b6101ab6101a6366004612c37565b611000565b60405161010f9190613a5d565b6101cb6101c6366004612a1e565b61115b565b60405161010f9190613a19565b6101eb6101e6366004612b6f565b6111ec565b60405161010f9190613a3b565b61020b610206366004612c91565b611344565b60405161010f9190613a4c565b61022b610226366004612b3f565b611507565b60405161010f9190613aaf565b61024b610246366004612c91565b611643565b60405161010f9190613a6e565b61026b610266366004612c37565b6117f6565b60405161010f9190613a7f565b61028b610286366004612b3f565b611950565b60405161010f9190613ac0565b6102ab6102a6366004612b21565b611d0d565b60405161010f9190613add565b604080518381526020808502820101909152606090839082908280156102f857816020015b6102e5612124565b8152602001906001900390816102dd5790505b50905060005b8281101561034f5761033087878381811061031557fe5b905060200201602061032a9190810190612b21565b86611950565b82828151811061033c57fe5b60209081029190910101526001016102fe565b509150505b9392505050565b610363612163565b6000826001600160a01b031663bd6d894d6040518163ffffffff1660e01b8152600401602060405180830381600087803b1580156103a057600080fd5b505af11580156103b4573d6000803e3d6000fd5b505050506040513d601f19601f820116820180604052506103d89190810190612d41565b90506000836001600160a01b0316635fe3b5676040518163ffffffff1660e01b815260040160206040518083038186803b15801561041557600080fd5b505afa158015610429573d6000803e3d6000fd5b505050506040513d601f19601f8201168201806040525061044d9190810190612c19565b9050600080826001600160a01b0316638e8f294b876040518263ffffffff1660e01b815260040161047e91906139b6565b604080518083038186803b15801561049557600080fd5b505afa1580156104a9573d6000803e3d6000fd5b505050506040513d601f19601f820116820180604052506104cd9190810190612ae7565b9150915060008690506000816001600160a01b0316636f307dc36040518163ffffffff1660e01b815260040160206040518083038186803b15801561051157600080fd5b505afa158015610525573d6000803e3d6000fd5b505050506040513d601f19601f82011682018060405250610549919081019061293c565b90506000826001600160a01b0316636f307dc36040518163ffffffff1660e01b815260040160206040518083038186803b15801561058657600080fd5b505afa15801561059a573d6000803e3d6000fd5b505050506040513d601f19601f820116820180604052506105be919081019061293c565b6001600160a01b031663313ce5676040518163ffffffff1660e01b815260040160206040518083038186803b1580156105f657600080fd5b505afa15801561060a573d6000803e3d6000fd5b505050506040513d601f19601f8201168201806040525061062e9190810190612e84565b60ff169050604051806101c001604052808a6001600160a01b031681526020018881526020018a6001600160a01b031663ae9d70b06040518163ffffffff1660e01b815260040160206040518083038186803b15801561068d57600080fd5b505afa1580156106a1573d6000803e3d6000fd5b505050506040513d601f19601f820116820180604052506106c59190810190612d41565b81526020018a6001600160a01b031663f8f9da286040518163ffffffff1660e01b815260040160206040518083038186803b15801561070357600080fd5b505afa158015610717573d6000803e3d6000fd5b505050506040513d601f19601f8201168201806040525061073b9190810190612d41565b81526020018a6001600160a01b031663173b99046040518163ffffffff1660e01b815260040160206040518083038186803b15801561077957600080fd5b505afa15801561078d573d6000803e3d6000fd5b505050506040513d601f19601f820116820180604052506107b19190810190612d41565b81526020018a6001600160a01b03166347bd37186040518163ffffffff1660e01b815260040160206040518083038186803b1580156107ef57600080fd5b505afa158015610803573d6000803e3d6000fd5b505050506040513d601f19601f820116820180604052506108279190810190612d41565b81526020018a6001600160a01b0316638f840ddd6040518163ffffffff1660e01b815260040160206040518083038186803b15801561086557600080fd5b505afa158015610879573d6000803e3d6000fd5b505050506040513d601f19601f8201168201806040525061089d9190810190612d41565b81526020018a6001600160a01b03166318160ddd6040518163ffffffff1660e01b815260040160206040518083038186803b1580156108db57600080fd5b505afa1580156108ef573d6000803e3d6000fd5b505050506040513d601f19601f820116820180604052506109139190810190612d41565b81526020018a6001600160a01b0316633b1d21a26040518163ffffffff1660e01b815260040160206040518083038186803b15801561095157600080fd5b505afa158015610965573d6000803e3d6000fd5b505050506040513d601f19601f820116820180604052506109899190810190612d41565b81526020018615158152602001858152602001836001600160a01b031681526020018a6001600160a01b031663313ce5676040518163ffffffff1660e01b815260040160206040518083038186803b1580156109e457600080fd5b505afa1580156109f8573d6000803e3d6000fd5b505050506040513d601f19601f82011682018060405250610a1c9190810190612e84565b60ff1681526020019190915298975050505050505050565b610a3c6121e6565b6040516370a0823160e01b81526000906001600160a01b038616906370a0823190610a6b9086906004016139b6565b60206040518083038186803b158015610a8357600080fd5b505afa158015610a97573d6000803e3d6000fd5b505050506040513d601f19601f82011682018060405250610abb9190810190612d41565b6040516374d7814960e11b81529091506001600160a01b0385169063e9af029290610aea9086906004016139b6565b600060405180830381600087803b158015610b0457600080fd5b505af1158015610b18573d6000803e3d6000fd5b50506040516370a0823160e01b8152600092506001600160a01b03881691506370a0823190610b4b9087906004016139b6565b60206040518083038186803b158015610b6357600080fd5b505afa158015610b77573d6000803e3d6000fd5b505050506040513d601f19601f82011682018060405250610b9b9190810190612d41565b90506000856001600160a01b031663cc7ebdc4866040518263ffffffff1660e01b8152600401610bcb91906139b6565b60206040518083038186803b158015610be357600080fd5b505afa158015610bf7573d6000803e3d6000fd5b505050506040513d601f19601f82011682018060405250610c1b9190810190612d41565b90506000610c5082846040518060400160405280600e81526020016d1cdd5b4818dbdb5c081d1bdd185b60921b815250611e9f565b90506000610c8482866040518060400160405280600d81526020016c1cdd5888185b1b1bd8d85d1959609a1b815250611ecf565b905060405180608001604052808681526020018a6001600160a01b031663b4b5ea578a6040518263ffffffff1660e01b8152600401610cc391906139b6565b60206040518083038186803b158015610cdb57600080fd5b505afa158015610cef573d6000803e3d6000fd5b505050506040513d601f19601f82011682018060405250610d139190810190612ea2565b6001600160601b031681526020018a6001600160a01b031663587cde1e8a6040518263ffffffff1660e01b8152600401610d4d91906139b6565b60206040518083038186803b158015610d6557600080fd5b505afa158015610d79573d6000803e3d6000fd5b505050506040513d601f19601f82011682018060405250610d9d919081019061293c565b6001600160a01b031681526020019190915298975050505050505050565b60408051828152602080840282010190915260609082908290828015610dfb57816020015b610de8612217565b815260200190600190039081610de05790505b50905060005b82811015610e4c57610e2d868683818110610e1857fe5b90506020020160206102a69190810190612b21565b828281518110610e3957fe5b6020908102919091010152600101610e01565b509150505b92915050565b610e5f61222e565b6040805160608101918290526370a0823160e01b909152806001600160a01b0385166370a08231610e9386606485016139b6565b60206040518083038186803b158015610eab57600080fd5b505afa158015610ebf573d6000803e3d6000fd5b505050506040513d601f19601f82011682018060405250610ee39190810190612d41565b8152602001846001600160a01b031663b4b5ea57856040518263ffffffff1660e01b8152600401610f1491906139b6565b60206040518083038186803b158015610f2c57600080fd5b505afa158015610f40573d6000803e3d6000fd5b505050506040513d601f19601f82011682018060405250610f649190810190612ea2565b6001600160601b03168152602001846001600160a01b031663587cde1e856040518263ffffffff1660e01b8152600401610f9e91906139b6565b60206040518083038186803b158015610fb657600080fd5b505afa158015610fca573d6000803e3d6000fd5b505050506040513d601f19601f82011682018060405250610fee919081019061293c565b6001600160a01b031690529392505050565b606060008251905060608160405190808252806020026020018201604052801561104457816020015b611031612258565b8152602001906001900390816110295790505b50905060005b8281101561034f5761105a61227f565b876001600160a01b031663e23a9a5287848151811061107557fe5b6020026020010151896040518363ffffffff1660e01b815260040161109b929190613b15565b60606040518083038186803b1580156110b357600080fd5b505afa1580156110c7573d6000803e3d6000fd5b505050506040513d601f19601f820116820180604052506110eb9190810190612d23565b9050604051806080016040528087848151811061110457fe5b60200260200101518152602001826000015115158152602001826020015160ff16815260200182604001516001600160601b031681525083838151811061114757fe5b60209081029190910101525060010161104a565b6040805182815260208084028201019091526060908290829082801561119b57816020015b611188612163565b8152602001906001900390816111805790505b50905060005b82811015610e4c576111cd8686838181106111b857fe5b90506020020160206101269190810190612b21565b8282815181106111d957fe5b60209081029190910101526001016111a1565b6060808383905060405190808252806020026020018201604052801561122c57816020015b61121961229f565b8152602001906001900390816112115790505b50905060005b8381101561133a57604051806040016040528086868481811061125157fe5b90506020020160206112669190810190612e66565b63ffffffff168152602001886001600160a01b031663782d6fe18989898781811061128d57fe5b90506020020160206112a29190810190612e66565b6040518363ffffffff1660e01b81526004016112bf9291906139ed565b60206040518083038186803b1580156112d757600080fd5b505afa1580156112eb573d6000803e3d6000fd5b505050506040513d601f19601f8201168201806040525061130f9190810190612ea2565b6001600160601b031681525082828151811061132757fe5b6020908102919091010152600101611232565b5095945050505050565b6060808383905060405190808252806020026020018201604052801561138457816020015b6113716122b9565b8152602001906001900390816113695790505b50905060005b838110156114fe57606080606080896001600160a01b031663328dd9828a8a888181106113b357fe5b905060200201356040518263ffffffff1660e01b81526004016113d69190613b07565b60006040518083038186803b1580156113ee57600080fd5b505afa158015611402573d6000803e3d6000fd5b505050506040513d6000823e601f3d908101601f1916820160405261142a9190810190612962565b9350935093509350604051806101c001604052806000815260200160006001600160a01b03168152602001600081526020018581526020018481526020018381526020018281526020016000815260200160008152602001600081526020016000815260200160008152602001600015158152602001600015158152508686815181106114b357fe5b60200260200101819052506114ee8686815181106114cd57fe5b60200260200101518b8b8b898181106114e257fe5b90506020020135611efb565b50506001909201915061138a9050565b50949350505050565b61150f612335565b6000806000856001600160a01b0316635ec88c79866040518263ffffffff1660e01b815260040161154091906139b6565b60606040518083038186803b15801561155857600080fd5b505afa15801561156c573d6000803e3d6000fd5b505050506040513d601f19601f820116820180604052506115909190810190612e23565b925092509250826000146115a357600080fd5b604080516060810191829052632aff3bff60e21b909152806001600160a01b03881663abfceffc6115d789606485016139b6565b60006040518083038186803b1580156115ef57600080fd5b505afa158015611603573d6000803e3d6000fd5b505050506040513d6000823e601f3d908101601f1916820160405261162b9190810190612ab3565b81526020810193909352604090920152949350505050565b6060808383905060405190808252806020026020018201604052801561168357816020015b611670612356565b8152602001906001900390816116685790505b50905060005b838110156114fe57606080606080896001600160a01b031663328dd9828a8a888181106116b257fe5b905060200201356040518263ffffffff1660e01b81526004016116d59190613b07565b60006040518083038186803b1580156116ed57600080fd5b505afa158015611701573d6000803e3d6000fd5b505050506040513d6000823e601f3d908101601f191682016040526117299190810190612962565b9350935093509350604051806101a001604052806000815260200160006001600160a01b031681526020016000815260200185815260200184815260200183815260200182815260200160008152602001600081526020016000815260200160008152602001600015158152602001600015158152508686815181106117ab57fe5b60200260200101819052506117e68686815181106117c557fe5b60200260200101518b8b8b898181106117da57fe5b90506020020135611ffe565b5050600190920191506116899050565b606060008251905060608160405190808252806020026020018201604052801561183a57816020015b611827612258565b81526020019060019003908161181f5790505b50905060005b8281101561034f5761185061227f565b876001600160a01b031663e23a9a5287848151811061186b57fe5b6020026020010151896040518363ffffffff1660e01b8152600401611891929190613b15565b60606040518083038186803b1580156118a957600080fd5b505afa1580156118bd573d6000803e3d6000fd5b505050506040513d601f19601f820116820180604052506118e19190810190612d05565b905060405180608001604052808784815181106118fa57fe5b6020026020010151815260200182600001511515815260200182602001511515815260200182604001516001600160601b031681525083838151811061193c57fe5b602090810291909101015250600101611840565b611958612124565b6000836001600160a01b0316635fe3b5676040518163ffffffff1660e01b815260040160206040518083038186803b15801561199357600080fd5b505afa1580156119a7573d6000803e3d6000fd5b505050506040513d601f19601f820116820180604052506119cb9190810190612c19565b905060008490506000816001600160a01b0316636f307dc36040518163ffffffff1660e01b815260040160206040518083038186803b158015611a0d57600080fd5b505afa158015611a21573d6000803e3d6000fd5b505050506040513d601f19601f82011682018060405250611a45919081019061293c565b90506000866001600160a01b03166370a08231876040518263ffffffff1660e01b8152600401611a7591906139c4565b60206040518083038186803b158015611a8d57600080fd5b505afa158015611aa1573d6000803e3d6000fd5b505050506040513d601f19601f82011682018060405250611ac59190810190612d41565b90506000876001600160a01b03166317bfdfbc886040518263ffffffff1660e01b8152600401611af591906139c4565b602060405180830381600087803b158015611b0f57600080fd5b505af1158015611b23573d6000803e3d6000fd5b505050506040513d601f19601f82011682018060405250611b479190810190612d41565b90506000886001600160a01b0316633af9e669896040518263ffffffff1660e01b8152600401611b7791906139c4565b602060405180830381600087803b158015611b9157600080fd5b505af1158015611ba5573d6000803e3d6000fd5b505050506040513d601f19601f82011682018060405250611bc99190810190612d41565b90506000846001600160a01b03166370a082318a6040518263ffffffff1660e01b8152600401611bf991906139c4565b60206040518083038186803b158015611c1157600080fd5b505afa158015611c25573d6000803e3d6000fd5b505050506040513d601f19601f82011682018060405250611c499190810190612d41565b90506000856001600160a01b031663dd62ed3e8b8d6040518363ffffffff1660e01b8152600401611c7b9291906139d2565b60206040518083038186803b158015611c9357600080fd5b505afa158015611ca7573d6000803e3d6000fd5b505050506040513d601f19601f82011682018060405250611ccb9190810190612d41565b6040805160c0810182526001600160a01b038e1681526020810197909752860194909452506060840191909152608083015260a0820152935050505092915050565b611d15612217565b6000826001600160a01b0316635fe3b5676040518163ffffffff1660e01b815260040160206040518083038186803b158015611d5057600080fd5b505afa158015611d64573d6000803e3d6000fd5b505050506040513d601f19601f82011682018060405250611d889190810190612c19565b90506000816001600160a01b0316637dc0d1d06040518163ffffffff1660e01b815260040160206040518083038186803b158015611dc557600080fd5b505afa158015611dd9573d6000803e3d6000fd5b505050506040513d601f19601f82011682018060405250611dfd9190810190612c19565b90506040518060400160405280856001600160a01b03168152602001826001600160a01b031663fc57d4df876040518263ffffffff1660e01b8152600401611e459190613a90565b60206040518083038186803b158015611e5d57600080fd5b505afa158015611e71573d6000803e3d6000fd5b505050506040513d601f19601f82011682018060405250611e959190810190612d41565b9052949350505050565b600083830182858210156114fe5760405162461bcd60e51b8152600401611ec69190613a9e565b60405180910390fd5b60008184841115611ef35760405162461bcd60e51b8152600401611ec69190613a9e565b505050900390565b611f036123cb565b60405163013cf08b60e01b81526001600160a01b0384169063013cf08b90611f2f908590600401613b07565b6101406040518083038186803b158015611f4857600080fd5b505afa158015611f5c573d6000803e3d6000fd5b505050506040513d601f19601f82011682018060405250611f809190810190612ce6565b918452506020808201516001600160a01b03169084015260408082015190840152606081015160e08085019190915260808201516101008086019190915260a08301516101208087019190915260c0840151610140870152918301516101608601528201511515610180850152015115156101a09092019190915250565b600080600080600080600080896001600160a01b031663013cf08b8a6040518263ffffffff1660e01b81526004016120369190613b07565b6101206040518083038186803b15801561204f57600080fd5b505afa158015612063573d6000803e3d6000fd5b505050506040513d601f19601f820116820180604052506120879190810190612d5f565b9850985098509850985098509850985050888b6000018181525050878b602001906001600160a01b031690816001600160a01b031681525050868b6040018181525050858b60e0018181525050848b610100018181525050838b610120018181525050828b610140018181525050818b610160019015159081151581525050808b6101800190151590811515815250505050505050505050505050565b6040518060c0016040528060006001600160a01b0316815260200160008152602001600081526020016000815260200160008152602001600081525090565b604051806101c0016040528060006001600160a01b0316815260200160008152602001600081526020016000815260200160008152602001600081526020016000815260200160008152602001600081526020016000151581526020016000815260200160006001600160a01b0316815260200160008152602001600081525090565b6040518060800160405280600081526020016000815260200160006001600160a01b03168152602001600081525090565b604080518082019091526000808252602082015290565b6040518060600160405280600081526020016000815260200160006001600160a01b031681525090565b60408051608081018252600080825260208201819052918101829052606081019190915290565b604080516060810182526000808252602082018190529181019190915290565b604051806040016040528060008152602001600081525090565b604051806101c001604052806000815260200160006001600160a01b03168152602001600081526020016060815260200160608152602001606081526020016060815260200160008152602001600081526020016000815260200160008152602001600081526020016000151581526020016000151581525090565b60405180606001604052806060815260200160008152602001600081525090565b604051806101a001604052806000815260200160006001600160a01b031681526020016000815260200160608152602001606081526020016060815260200160608152602001600081526020016000815260200160008152602001600081526020016000151581526020016000151581525090565b6040518061014001604052806000815260200160006001600160a01b031681526020016000815260200160008152602001600081526020016000815260200160008152602001600081526020016000151581526020016000151581525090565b8035610e5181613c34565b8051610e5181613c34565b600082601f83011261245257600080fd5b815161246561246082613b49565b613b23565b9150818183526020840193506020810190508385602084028201111561248a57600080fd5b60005b838110156124b657816124a08882612436565b845250602092830192919091019060010161248d565b5050505092915050565b600082601f8301126124d157600080fd5b81516124df61246082613b49565b81815260209384019390925082018360005b838110156124b65781518601612507888261271d565b84525060209283019291909101906001016124f1565b60008083601f84011261252f57600080fd5b5081356001600160401b0381111561254657600080fd5b60208301915083602082028301111561255e57600080fd5b9250929050565b600082601f83011261257657600080fd5b815161258461246082613b49565b915081818352602084019350602081019050838560208402820111156125a957600080fd5b60005b838110156124b657816125bf8882612777565b84525060209283019291909101906001016125ac565b600082601f8301126125e657600080fd5b81516125f461246082613b49565b81815260209384019390925082018360005b838110156124b6578151860161261c888261271d565b8452506020928301929190910190600101612606565b600082601f83011261264357600080fd5b813561265161246082613b49565b9150818183526020840193506020810190508385602084028201111561267657600080fd5b60005b838110156124b6578161268c8882612905565b8452506020928301929190910190600101612679565b600082601f8301126126b357600080fd5b81516126c161246082613b49565b915081818352602084019350602081019050838560208402820111156126e657600080fd5b60005b838110156124b657816126fc8882612910565b84525060209283019291909101906001016126e9565b8051610e5181613c4b565b600082601f83011261272e57600080fd5b815161273c61246082613b69565b9150808252602083016020830185838301111561275857600080fd5b612763838284613bfe565b50505092915050565b8035610e5181613c54565b8051610e5181613c54565b6000610140828403121561279557600080fd5b6127a0610140613b23565b905060006127ae8484612910565b82525060206127bf84848301612436565b60208301525060406127d384828501612910565b60408301525060606127e784828501612910565b60608301525060806127fb84828501612910565b60808301525060a061280f84828501612910565b60a08301525060c061282384828501612910565b60c08301525060e061283784828501612910565b60e08301525061010061284c84828501612712565b6101008301525061012061286284828501612712565b6101208301525092915050565b60006060828403121561288157600080fd5b61288b6060613b23565b905060006128998484612712565b82525060206128aa84848301612712565b60208301525060406128be84828501612931565b60408301525092915050565b6000606082840312156128dc57600080fd5b6128e66060613b23565b905060006128f48484612712565b82525060206128aa84848301612926565b8035610e5181613c5d565b8051610e5181613c5d565b8035610e5181613c66565b8051610e5181613c6f565b8051610e5181613c78565b60006020828403121561294e57600080fd5b600061295a8484612436565b949350505050565b6000806000806080858703121561297857600080fd5b84516001600160401b0381111561298e57600080fd5b61299a87828801612441565b94505060208501516001600160401b038111156129b657600080fd5b6129c2878288016126a2565b93505060408501516001600160401b038111156129de57600080fd5b6129ea878288016125d5565b92505060608501516001600160401b03811115612a0657600080fd5b612a12878288016124c0565b91505092959194509250565b60008060208385031215612a3157600080fd5b82356001600160401b03811115612a4757600080fd5b612a538582860161251d565b92509250509250929050565b600080600060408486031215612a7457600080fd5b83356001600160401b03811115612a8a57600080fd5b612a968682870161251d565b93509350506020612aa98682870161242b565b9150509250925092565b600060208284031215612ac557600080fd5b81516001600160401b03811115612adb57600080fd5b61295a84828501612565565b60008060408385031215612afa57600080fd5b6000612b068585612712565b9250506020612b1785828601612910565b9150509250929050565b600060208284031215612b3357600080fd5b600061295a848461276c565b60008060408385031215612b5257600080fd5b6000612b5e858561276c565b9250506020612b178582860161242b565b60008060008060608587031215612b8557600080fd5b6000612b91878761276c565b9450506020612ba28782880161242b565b93505060408501356001600160401b03811115612bbe57600080fd5b612bca8782880161251d565b95989497509550505050565b600080600060608486031215612beb57600080fd5b6000612bf7868661276c565b9350506020612c088682870161276c565b9250506040612aa98682870161242b565b600060208284031215612c2b57600080fd5b600061295a8484612777565b600080600060608486031215612c4c57600080fd5b6000612c58868661276c565b9350506020612c698682870161242b565b92505060408401356001600160401b03811115612c8557600080fd5b612aa986828701612632565b600080600060408486031215612ca657600080fd5b6000612cb2868661276c565b93505060208401356001600160401b03811115612cce57600080fd5b612cda8682870161251d565b92509250509250925092565b60006101408284031215612cf957600080fd5b600061295a8484612782565b600060608284031215612d1757600080fd5b600061295a848461286f565b600060608284031215612d3557600080fd5b600061295a84846128ca565b600060208284031215612d5357600080fd5b600061295a8484612910565b60008060008060008060008060006101208a8c031215612d7e57600080fd5b6000612d8a8c8c612910565b9950506020612d9b8c828d01612436565b9850506040612dac8c828d01612910565b9750506060612dbd8c828d01612910565b9650506080612dce8c828d01612910565b95505060a0612ddf8c828d01612910565b94505060c0612df08c828d01612910565b93505060e0612e018c828d01612712565b925050610100612e138c828d01612712565b9150509295985092959850929598565b600080600060608486031215612e3857600080fd5b6000612e448686612910565b9350506020612e5586828701612910565b9250506040612aa986828701612910565b600060208284031215612e7857600080fd5b600061295a848461291b565b600060208284031215612e9657600080fd5b600061295a8484612926565b600060208284031215612eb457600080fd5b600061295a8484612931565b6000612ecc8383612f88565b505060200190565b600061035483836133f4565b6000612ecc838361342c565b6000612ef8838361347d565b505060c00190565b6000612f0c83836134f3565b50506101c00190565b6000612f218383613608565b505060400190565b6000612f2183836136ad565b600061035483836136be565b6000612f4d83836137f2565b505060800190565b6000610354838361383c565b6000612f4d838361395b565b6000612ecc8383613992565b612f8281613be8565b82525050565b612f8281613ba3565b6000612f9c82613b96565b612fa68185613b9a565b9350612fb183613b90565b8060005b83811015612fdf578151612fc98882612ec0565b9750612fd483613b90565b925050600101612fb5565b509495945050505050565b6000612ff582613b96565b612fff8185613b9a565b93508360208202850161301185613b90565b8060005b8581101561304b578484038952815161302e8582612ed4565b945061303983613b90565b60209a909a0199925050600101613015565b5091979650505050505050565b600061306382613b96565b61306d8185613b9a565b935061307883613b90565b8060005b83811015612fdf5781516130908882612ee0565b975061309b83613b90565b92505060010161307c565b60006130b182613b96565b6130bb8185613b9a565b9350836020820285016130cd85613b90565b8060005b8581101561304b57848403895281516130ea8582612ed4565b94506130f583613b90565b60209a909a01999250506001016130d1565b600061311282613b96565b61311c8185613b9a565b935061312783613b90565b8060005b83811015612fdf57815161313f8882612eec565b975061314a83613b90565b92505060010161312b565b600061316082613b96565b61316a8185613b9a565b935061317583613b90565b8060005b83811015612fdf57815161318d8882612f00565b975061319883613b90565b925050600101613179565b60006131ae82613b96565b6131b88185613b9a565b93506131c383613b90565b8060005b83811015612fdf5781516131db8882612f15565b97506131e683613b90565b9250506001016131c7565b60006131fc82613b96565b6132068185613b9a565b935061321183613b90565b8060005b83811015612fdf5781516132298882612f29565b975061323483613b90565b925050600101613215565b600061324a82613b96565b6132548185613b9a565b93508360208202850161326685613b90565b8060005b8581101561304b57848403895281516132838582612f35565b945061328e83613b90565b60209a909a019992505060010161326a565b60006132ab82613b96565b6132b58185613b9a565b93506132c083613b90565b8060005b83811015612fdf5781516132d88882612f41565b97506132e383613b90565b9250506001016132c4565b60006132f982613b96565b6133038185613b9a565b93508360208202850161331585613b90565b8060005b8581101561304b57848403895281516133328582612f55565b945061333d83613b90565b60209a909a0199925050600101613319565b600061335a82613b96565b6133648185613b9a565b935061336f83613b90565b8060005b83811015612fdf5781516133878882612f61565b975061339283613b90565b925050600101613373565b60006133a882613b96565b6133b28185613b9a565b93506133bd83613b90565b8060005b83811015612fdf5781516133d58882612f6d565b97506133e083613b90565b9250506001016133c1565b612f8281613bae565b60006133ff82613b96565b6134098185613b9a565b9350613419818560208601613bfe565b61342281613c2a565b9093019392505050565b612f8281613bb3565b805160608084526000919084019061344d8282613058565b91505060208301516134626020860182613992565b5060408301516134756040860182613992565b509392505050565b805160c083019061348e8482612f88565b5060208201516134a16020850182613992565b5060408201516134b46040850182613992565b5060608201516134c76060850182613992565b5060808201516134da6080850182613992565b5060a08201516134ed60a0850182613992565b50505050565b80516101c08301906135058482612f88565b5060208201516135186020850182613992565b50604082015161352b6040850182613992565b50606082015161353e6060850182613992565b5060808201516135516080850182613992565b5060a082015161356460a0850182613992565b5060c082015161357760c0850182613992565b5060e082015161358a60e0850182613992565b5061010082015161359f610100850182613992565b506101208201516135b46101208501826133eb565b506101408201516135c9610140850182613992565b506101608201516135de610160850182612f88565b506101808201516135f3610180850182613992565b506101a08201516134ed6101a0850182613992565b805160408301906136198482612f88565b5060208201516134ed6020850182613992565b8051608083019061363d8482613992565b5060208201516136506020850182613992565b5060408201516136636040850182612f88565b5060608201516134ed6060850182613992565b805160608301906136878482613992565b50602082015161369a6020850182613992565b5060408201516134ed6040850182612f88565b805160408301906136198482613992565b80516000906101c08401906136d38582613992565b5060208301516136e66020860182612f88565b5060408301516136f96040860182613992565b50606083015184820360608601526137118282612f91565b9150506080830151848203608086015261372b828261339d565b91505060a083015184820360a086015261374582826130a6565b91505060c083015184820360c086015261375f8282612fea565b91505060e083015161377460e0860182613992565b50610100830151613789610100860182613992565b5061012083015161379e610120860182613992565b506101408301516137b3610140860182613992565b506101608301516137c8610160860182613992565b506101808301516137dd6101808601826133eb565b506101a08301516134756101a08601826133eb565b805160808301906138038482613992565b50602082015161381660208501826133eb565b50604082015161382960408501826139a4565b5060608201516134ed60608501826139ad565b80516000906101a08401906138518582613992565b5060208301516138646020860182612f88565b5060408301516138776040860182613992565b506060830151848203606086015261388f8282612f91565b915050608083015184820360808601526138a9828261339d565b91505060a083015184820360a08601526138c382826130a6565b91505060c083015184820360c08601526138dd8282612fea565b91505060e08301516138f260e0860182613992565b50610100830151613907610100860182613992565b5061012083015161391c610120860182613992565b50610140830151613931610140860182613992565b506101608301516139466101608601826133eb565b506101808301516134756101808601826133eb565b8051608083019061396c8482613992565b50602082015161397f60208501826133eb565b50604082015161382960408501826133eb565b612f8281613bca565b612f8281613bf3565b612f8281613bd6565b612f8281613bdc565b60208101610e518284612f88565b60208101610e518284612f79565b604081016139e08285612f79565b6103546020830184612f88565b604081016139fb8285612f88565b610354602083018461399b565b602080825281016103548184613107565b602080825281016103548184613155565b6020808252810161035481846131a3565b6020808252810161035481846131f1565b60208082528101610354818461323f565b6020808252810161035481846132a0565b6020808252810161035481846132ee565b60208082528101610354818461334f565b60208101610e51828461342c565b6020808252810161035481846133f4565b602080825281016103548184613435565b60c08101610e51828461347d565b6101c08101610e5182846134f3565b60408101610e518284613608565b60808101610e51828461362c565b60608101610e518284613676565b60208101610e518284613992565b604081016139e08285613992565b6040518181016001600160401b0381118282101715613b4157600080fd5b604052919050565b60006001600160401b03821115613b5f57600080fd5b5060209081020190565b60006001600160401b03821115613b7f57600080fd5b506020601f91909101601f19160190565b60200190565b5190565b90815260200190565b6000610e5182613bbe565b151590565b6000610e5182613ba3565b6001600160a01b031690565b90565b63ffffffff1690565b60ff1690565b6001600160601b031690565b6000610e5182613bb3565b6000610e5182613bcd565b60005b83811015613c19578181015183820152602001613c01565b838111156134ed5750506000910152565b601f01601f191690565b613c3d81613ba3565b8114613c4857600080fd5b50565b613c3d81613bae565b613c3d81613bb3565b613c3d81613bca565b613c3d81613bcd565b613c3d81613bd6565b613c3d81613bdc56fea365627a7a72315820e13391459a30105be312540187eaa5ce132d66e651bf51cf41e9048e79fd81c16c6578706572696d656e74616cf564736f6c63430005100040",
  "devdoc": {
    "methods": {}
  },
  "userdoc": {
    "methods": {}
  },
  "storageLayout": {
    "storage": [],
    "types": null
  }
}