{
  "address": "0x1BA71074e943763e40717d2e8918E429285729ac",
  "abi": [
    {
      "constant": false,
      "inputs": [
        {
          "internalType": "contract CToken",
          "name": "cToken",
          "type": "address"
        },
        {
          "internalType": "address payable",
          "name": "account",
          "type": "address"
        }
      ],
      "name": "cTokenBalances",
      "outputs": [
        {
          "components": [
            {
              "internalType": "address",
              "name": "cToken",
              "type": "address"
            },
            {
              "internalType": "uint256",
              "name": "balanceOf",
              "type": "uint256"
            },
            {
              "internalType": "uint256",
              "name": "borrowBalanceCurrent",
              "type": "uint256"
            },
            {
              "internalType": "uint256",
              "name": "balanceOfUnderlying",
              "type": "uint256"
            },
            {
              "internalType": "uint256",
              "name": "tokenBalance",
              "type": "uint256"
            },
            {
              "internalType": "uint256",
              "name": "tokenAllowance",
              "type": "uint256"
            }
          ],
          "internalType": "struct CompoundLens.CTokenBalances",
          "name": "",
          "type": "tuple"
        }
      ],
      "payable": false,
      "stateMutability": "nonpayable",
      "type": "function"
    },
    {
      "constant": false,
      "inputs": [
        {
          "internalType": "contract CToken[]",
          "name": "cTokens",
          "type": "address[]"
        },
        {
          "internalType": "address payable",
          "name": "account",
          "type": "address"
        }
      ],
      "name": "cTokenBalancesAll",
      "outputs": [
        {
          "components": [
            {
              "internalType": "address",
              "name": "cToken",
              "type": "address"
            },
            {
              "internalType": "uint256",
              "name": "balanceOf",
              "type": "uint256"
            },
            {
              "internalType": "uint256",
              "name": "borrowBalanceCurrent",
              "type": "uint256"
            },
            {
              "internalType": "uint256",
              "name": "balanceOfUnderlying",
              "type": "uint256"
            },
            {
              "internalType": "uint256",
              "name": "tokenBalance",
              "type": "uint256"
            },
            {
              "internalType": "uint256",
              "name": "tokenAllowance",
              "type": "uint256"
            }
          ],
          "internalType": "struct CompoundLens.CTokenBalances[]",
          "name": "",
          "type": "tuple[]"
        }
      ],
      "payable": false,
      "stateMutability": "nonpayable",
      "type": "function"
    },
    {
      "constant": false,
      "inputs": [
        {
          "internalType": "contract CToken",
          "name": "cToken",
          "type": "address"
        }
      ],
      "name": "cTokenMetadata",
      "outputs": [
        {
          "components": [
            {
              "internalType": "address",
              "name": "cToken",
              "type": "address"
            },
            {
              "internalType": "uint256",
              "name": "exchangeRateCurrent",
              "type": "uint256"
            },
            {
              "internalType": "uint256",
              "name": "supplyRatePerBlock",
              "type": "uint256"
            },
            {
              "internalType": "uint256",
              "name": "borrowRatePerBlock",
              "type": "uint256"
            },
            {
              "internalType": "uint256",
              "name": "reserveFactorMantissa",
              "type": "uint256"
            },
            {
              "internalType": "uint256",
              "name": "totalBorrows",
              "type": "uint256"
            },
            {
              "internalType": "uint256",
              "name": "totalReserves",
              "type": "uint256"
            },
            {
              "internalType": "uint256",
              "name": "totalSupply",
              "type": "uint256"
            },
            {
              "internalType": "uint256",
              "name": "totalCash",
              "type": "uint256"
            },
            {
              "internalType": "bool",
              "name": "isListed",
              "type": "bool"
            },
            {
              "internalType": "uint256",
              "name": "collateralFactorMantissa",
              "type": "uint256"
            },
            {
              "internalType": "address",
              "name": "underlyingAssetAddress",
              "type": "address"
            },
            {
              "internalType": "uint256",
              "name": "cTokenDecimals",
              "type": "uint256"
            },
            {
              "internalType": "uint256",
              "name": "underlyingDecimals",
              "type": "uint256"
            }
          ],
          "internalType": "struct CompoundLens.CTokenMetadata",
          "name": "",
          "type": "tuple"
        }
      ],
      "payable": false,
      "stateMutability": "nonpayable",
      "type": "function"
    },
    {
      "constant": false,
      "inputs": [
        {
          "internalType": "contract CToken[]",
          "name": "cTokens",
          "type": "address[]"
        }
      ],
      "name": "cTokenMetadataAll",
      "outputs": [
        {
          "components": [
            {
              "internalType": "address",
              "name": "cToken",
              "type": "address"
            },
            {
              "internalType": "uint256",
              "name": "exchangeRateCurrent",
              "type": "uint256"
            },
            {
              "internalType": "uint256",
              "name": "supplyRatePerBlock",
              "type": "uint256"
            },
            {
              "internalType": "uint256",
              "name": "borrowRatePerBlock",
              "type": "uint256"
            },
            {
              "internalType": "uint256",
              "name": "reserveFactorMantissa",
              "type": "uint256"
            },
            {
              "internalType": "uint256",
              "name": "totalBorrows",
              "type": "uint256"
            },
            {
              "internalType": "uint256",
              "name": "totalReserves",
              "type": "uint256"
            },
            {
              "internalType": "uint256",
              "name": "totalSupply",
              "type": "uint256"
            },
            {
              "internalType": "uint256",
              "name": "totalCash",
              "type": "uint256"
            },
            {
              "internalType": "bool",
              "name": "isListed",
              "type": "bool"
            },
            {
              "internalType": "uint256",
              "name": "collateralFactorMantissa",
              "type": "uint256"
            },
            {
              "internalType": "address",
              "name": "underlyingAssetAddress",
              "type": "address"
            },
            {
              "internalType": "uint256",
              "name": "cTokenDecimals",
              "type": "uint256"
            },
            {
              "internalType": "uint256",
              "name": "underlyingDecimals",
              "type": "uint256"
            }
          ],
          "internalType": "struct CompoundLens.CTokenMetadata[]",
          "name": "",
          "type": "tuple[]"
        }
      ],
      "payable": false,
      "stateMutability": "nonpayable",
      "type": "function"
    },
    {
      "constant": false,
      "inputs": [
        {
          "internalType": "contract CToken",
          "name": "cToken",
          "type": "address"
        }
      ],
      "name": "cTokenUnderlyingPrice",
      "outputs": [
        {
          "components": [
            {
              "internalType": "address",
              "name": "cToken",
              "type": "address"
            },
            {
              "internalType": "uint256",
              "name": "underlyingPrice",
              "type": "uint256"
            }
          ],
          "internalType": "struct CompoundLens.CTokenUnderlyingPrice",
          "name": "",
          "type": "tuple"
        }
      ],
      "payable": false,
      "stateMutability": "nonpayable",
      "type": "function"
    },
    {
      "constant": false,
      "inputs": [
        {
          "internalType": "contract CToken[]",
          "name": "cTokens",
          "type": "address[]"
        }
      ],
      "name": "cTokenUnderlyingPriceAll",
      "outputs": [
        {
          "components": [
            {
              "internalType": "address",
              "name": "cToken",
              "type": "address"
            },
            {
              "internalType": "uint256",
              "name": "underlyingPrice",
              "type": "uint256"
            }
          ],
          "internalType": "struct CompoundLens.CTokenUnderlyingPrice[]",
          "name": "",
          "type": "tuple[]"
        }
      ],
      "payable": false,
      "stateMutability": "nonpayable",
      "type": "function"
    },
    {
      "constant": false,
      "inputs": [
        {
          "internalType": "contract ComptrollerLensInterface",
          "name": "comptroller",
          "type": "address"
        },
        {
          "internalType": "address",
          "name": "account",
          "type": "address"
        }
      ],
      "name": "getAccountLimits",
      "outputs": [
        {
          "components": [
            {
              "internalType": "contract CToken[]",
              "name": "markets",
              "type": "address[]"
            },
            {
              "internalType": "uint256",
              "name": "liquidity",
              "type": "uint256"
            },
            {
              "internalType": "uint256",
              "name": "shortfall",
              "type": "uint256"
            }
          ],
          "internalType": "struct CompoundLens.AccountLimits",
          "name": "",
          "type": "tuple"
        }
      ],
      "payable": false,
      "stateMutability": "nonpayable",
      "type": "function"
    },
    {
      "constant": true,
      "inputs": [
        {
          "internalType": "contract Comp",
          "name": "comp",
          "type": "address"
        },
        {
          "internalType": "address",
          "name": "account",
          "type": "address"
        }
      ],
      "name": "getCompBalanceMetadata",
      "outputs": [
        {
          "components": [
            {
              "internalType": "uint256",
              "name": "balance",
              "type": "uint256"
            },
            {
              "internalType": "uint256",
              "name": "votes",
              "type": "uint256"
            },
            {
              "internalType": "address",
              "name": "delegate",
              "type": "address"
            }
          ],
          "internalType": "struct CompoundLens.CompBalanceMetadata",
          "name": "",
          "type": "tuple"
        }
      ],
      "payable": false,
      "stateMutability": "view",
      "type": "function"
    },
    {
      "constant": false,
      "inputs": [
        {
          "internalType": "contract Comp",
          "name": "comp",
          "type": "address"
        },
        {
          "internalType": "contract ComptrollerLensInterface",
          "name": "comptroller",
          "type": "address"
        },
        {
          "internalType": "address",
          "name": "account",
          "type": "address"
        }
      ],
      "name": "getCompBalanceMetadataExt",
      "outputs": [
        {
          "components": [
            {
              "internalType": "uint256",
              "name": "balance",
              "type": "uint256"
            },
            {
              "internalType": "uint256",
              "name": "votes",
              "type": "uint256"
            },
            {
              "internalType": "address",
              "name": "delegate",
              "type": "address"
            },
            {
              "internalType": "uint256",
              "name": "allocated",
              "type": "uint256"
            }
          ],
          "internalType": "struct CompoundLens.CompBalanceMetadataExt",
          "name": "",
          "type": "tuple"
        }
      ],
      "payable": false,
      "stateMutability": "nonpayable",
      "type": "function"
    },
    {
      "constant": true,
      "inputs": [
        {
          "internalType": "contract Comp",
          "name": "comp",
          "type": "address"
        },
        {
          "internalType": "address",
          "name": "account",
          "type": "address"
        },
        {
          "internalType": "uint32[]",
          "name": "blockNumbers",
          "type": "uint32[]"
        }
      ],
      "name": "getCompVotes",
      "outputs": [
        {
          "components": [
            {
              "internalType": "uint256",
              "name": "blockNumber",
              "type": "uint256"
            },
            {
              "internalType": "uint256",
              "name": "votes",
              "type": "uint256"
            }
          ],
          "internalType": "struct CompoundLens.CompVotes[]",
          "name": "",
          "type": "tuple[]"
        }
      ],
      "payable": false,
      "stateMutability": "view",
      "type": "function"
    },
    {
      "constant": true,
      "inputs": [
        {
          "internalType": "contract GovernorBravoInterface",
          "name": "governor",
          "type": "address"
        },
        {
          "internalType": "uint256[]",
          "name": "proposalIds",
          "type": "uint256[]"
        }
      ],
      "name": "getGovBravoProposals",
      "outputs": [
        {
          "components": [
            {
              "internalType": "uint256",
              "name": "proposalId",
              "type": "uint256"
            },
            {
              "internalType": "address",
              "name": "proposer",
              "type": "address"
            },
            {
              "internalType": "uint256",
              "name": "eta",
              "type": "uint256"
            },
            {
              "internalType": "address[]",
              "name": "targets",
              "type": "address[]"
            },
            {
              "internalType": "uint256[]",
              "name": "values",
              "type": "uint256[]"
            },
            {
              "internalType": "string[]",
              "name": "signatures",
              "type": "string[]"
            },
            {
              "internalType": "bytes[]",
              "name": "calldatas",
              "type": "bytes[]"
            },
            {
              "internalType": "uint256",
              "name": "startBlock",
              "type": "uint256"
            },
            {
              "internalType": "uint256",
              "name": "endBlock",
              "type": "uint256"
            },
            {
              "internalType": "uint256",
              "name": "forVotes",
              "type": "uint256"
            },
            {
              "internalType": "uint256",
              "name": "againstVotes",
              "type": "uint256"
            },
            {
              "internalType": "uint256",
              "name": "abstainVotes",
              "type": "uint256"
            },
            {
              "internalType": "bool",
              "name": "canceled",
              "type": "bool"
            },
            {
              "internalType": "bool",
              "name": "executed",
              "type": "bool"
            }
          ],
          "internalType": "struct CompoundLens.GovBravoProposal[]",
          "name": "",
          "type": "tuple[]"
        }
      ],
      "payable": false,
      "stateMutability": "view",
      "type": "function"
    },
    {
      "constant": true,
      "inputs": [
        {
          "internalType": "contract GovernorBravoInterface",
          "name": "governor",
          "type": "address"
        },
        {
          "internalType": "address",
          "name": "voter",
          "type": "address"
        },
        {
          "internalType": "uint256[]",
          "name": "proposalIds",
          "type": "uint256[]"
        }
      ],
      "name": "getGovBravoReceipts",
      "outputs": [
        {
          "components": [
            {
              "internalType": "uint256",
              "name": "proposalId",
              "type": "uint256"
            },
            {
              "internalType": "bool",
              "name": "hasVoted",
              "type": "bool"
            },
            {
              "internalType": "uint8",
              "name": "support",
              "type": "uint8"
            },
            {
              "internalType": "uint96",
              "name": "votes",
              "type": "uint96"
            }
          ],
          "internalType": "struct CompoundLens.GovBravoReceipt[]",
          "name": "",
          "type": "tuple[]"
        }
      ],
      "payable": false,
      "stateMutability": "view",
      "type": "function"
    },
    {
      "constant": true,
      "inputs": [
        {
          "internalType": "contract GovernorAlpha",
          "name": "governor",
          "type": "address"
        },
        {
          "internalType": "uint256[]",
          "name": "proposalIds",
          "type": "uint256[]"
        }
      ],
      "name": "getGovProposals",
      "outputs": [
        {
          "components": [
            {
              "internalType": "uint256",
              "name": "proposalId",
              "type": "uint256"
            },
            {
              "internalType": "address",
              "name": "proposer",
              "type": "address"
            },
            {
              "internalType": "uint256",
              "name": "eta",
              "type": "uint256"
            },
            {
              "internalType": "address[]",
              "name": "targets",
              "type": "address[]"
            },
            {
              "internalType": "uint256[]",
              "name": "values",
              "type": "uint256[]"
            },
            {
              "internalType": "string[]",
              "name": "signatures",
              "type": "string[]"
            },
            {
              "internalType": "bytes[]",
              "name": "calldatas",
              "type": "bytes[]"
            },
            {
              "internalType": "uint256",
              "name": "startBlock",
              "type": "uint256"
            },
            {
              "internalType": "uint256",
              "name": "endBlock",
              "type": "uint256"
            },
            {
              "internalType": "uint256",
              "name": "forVotes",
              "type": "uint256"
            },
            {
              "internalType": "uint256",
              "name": "againstVotes",
              "type": "uint256"
            },
            {
              "internalType": "bool",
              "name": "canceled",
              "type": "bool"
            },
            {
              "internalType": "bool",
              "name": "executed",
              "type": "bool"
            }
          ],
          "internalType": "struct CompoundLens.GovProposal[]",
          "name": "",
          "type": "tuple[]"
        }
      ],
      "payable": false,
      "stateMutability": "view",
      "type": "function"
    },
    {
      "constant": true,
      "inputs": [
        {
          "internalType": "contract GovernorAlpha",
          "name": "governor",
          "type": "address"
        },
        {
          "internalType": "address",
          "name": "voter",
          "type": "address"
        },
        {
          "internalType": "uint256[]",
          "name": "proposalIds",
          "type": "uint256[]"
        }
      ],
      "name": "getGovReceipts",
      "outputs": [
        {
          "components": [
            {
              "internalType": "uint256",
              "name": "proposalId",
              "type": "uint256"
            },
            {
              "internalType": "bool",
              "name": "hasVoted",
              "type": "bool"
            },
            {
              "internalType": "bool",
              "name": "support",
              "type": "bool"
            },
            {
              "internalType": "uint96",
              "name": "votes",
              "type": "uint96"
            }
          ],
          "internalType": "struct CompoundLens.GovReceipt[]",
          "name": "",
          "type": "tuple[]"
        }
      ],
      "payable": false,
      "stateMutability": "view",
      "type": "function"
    }
  ],
  "transactionHash": "0x9496b0f5d2ee6fb7f324a3a94d9354241e000a909cebdc9ec272cf0fb418b644",
  "args": [],
  "solcInputHash": "e8dcea9731ae2a80c6aa905928b56bce",
  "bytecode": "0x608060405234801561001057600080fd5b50613e21806100206000396000f3fe608060405234801561001057600080fd5b50600436106100ea5760003560e01c8063595642191161008c57806396994869116100665780639699486914610238578063995ed99f14610258578063bdf950c914610278578063c5ae593414610298576100ea565b806359564219146101d857806375d80e90146101f85780637dd8f6d914610218576100ea565b80632b2d5ed6116100c85780632b2d5ed614610158578063416405d71461017857806343c811cc146101985780634b70d84b146101b8576100ea565b80630972bf8b146100ef578063158eca8b146101185780631ea6374114610138575b600080fd5b6101026100fd366004612b48565b6102b8565b60405161010f9190613b60565b60405180910390f35b61012b610126366004612c0a565b61035b565b60405161010f9190613c26565b61014b610146366004612cbf565b610ae1565b60405161010f9190613c43565b61016b610166366004612b07565b610e68565b60405161010f9190613b82565b61018b610186366004612c28565b610f04565b60405161010f9190613c51565b6101ab6101a6366004612d20565b6110ad565b60405161010f9190613bb5565b6101cb6101c6366004612b07565b611208565b60405161010f9190613b71565b6101eb6101e6366004612c58565b611299565b60405161010f9190613b93565b61020b610206366004612d7a565b6113f1565b60405161010f9190613ba4565b61022b610226366004612c28565b6115b4565b60405161010f9190613c07565b61024b610246366004612d7a565b6116f0565b60405161010f9190613bc6565b61026b610266366004612d20565b6118a3565b60405161010f9190613bd7565b61028b610286366004612c28565b6119fd565b60405161010f9190613c18565b6102ab6102a6366004612c0a565b611d9d565b60405161010f9190613c35565b604080518381526020808502820101909152606090839082908280156102f857816020015b6102e561220d565b8152602001906001900390816102dd5790505b50905060005b8281101561034f5761033087878381811061031557fe5b905060200201602061032a9190810190612c0a565b866119fd565b82828151811061033c57fe5b60209081029190910101526001016102fe565b509150505b9392505050565b61036361224c565b6000826001600160a01b031663bd6d894d6040518163ffffffff1660e01b8152600401602060405180830381600087803b1580156103a057600080fd5b505af11580156103b4573d6000803e3d6000fd5b505050506040513d601f19601f820116820180604052506103d89190810190612e5e565b90506000836001600160a01b0316635fe3b5676040518163ffffffff1660e01b815260040160206040518083038186803b15801561041557600080fd5b505afa158015610429573d6000803e3d6000fd5b505050506040513d601f19601f8201168201806040525061044d9190810190612d02565b9050600080826001600160a01b0316638e8f294b876040518263ffffffff1660e01b815260040161047e9190613b0e565b604080518083038186803b15801561049557600080fd5b505afa1580156104a9573d6000803e3d6000fd5b505050506040513d601f19601f820116820180604052506104cd9190810190612bd0565b91509150600080610570886001600160a01b03166395d89b416040518163ffffffff1660e01b815260040160006040518083038186803b15801561051057600080fd5b505afa158015610524573d6000803e3d6000fd5b505050506040513d6000823e601f3d908101601f1916820160405261054c9190810190612dcf565b6040518060400160405280600681526020016563695844414960d01b815250611f2f565b1561058157506000905060126106e1565b6000889050806001600160a01b0316636f307dc36040518163ffffffff1660e01b815260040160206040518083038186803b1580156105bf57600080fd5b505afa1580156105d3573d6000803e3d6000fd5b505050506040513d601f19601f820116820180604052506105f79190810190612a25565b9250806001600160a01b0316636f307dc36040518163ffffffff1660e01b815260040160206040518083038186803b15801561063257600080fd5b505afa158015610646573d6000803e3d6000fd5b505050506040513d601f19601f8201168201806040525061066a9190810190612a25565b6001600160a01b031663313ce5676040518163ffffffff1660e01b815260040160206040518083038186803b1580156106a257600080fd5b505afa1580156106b6573d6000803e3d6000fd5b505050506040513d601f19601f820116820180604052506106da9190810190612fa1565b60ff169150505b604051806101c00160405280896001600160a01b03168152602001878152602001896001600160a01b031663ae9d70b06040518163ffffffff1660e01b815260040160206040518083038186803b15801561073b57600080fd5b505afa15801561074f573d6000803e3d6000fd5b505050506040513d601f19601f820116820180604052506107739190810190612e5e565b8152602001896001600160a01b031663f8f9da286040518163ffffffff1660e01b815260040160206040518083038186803b1580156107b157600080fd5b505afa1580156107c5573d6000803e3d6000fd5b505050506040513d601f19601f820116820180604052506107e99190810190612e5e565b8152602001896001600160a01b031663173b99046040518163ffffffff1660e01b815260040160206040518083038186803b15801561082757600080fd5b505afa15801561083b573d6000803e3d6000fd5b505050506040513d601f19601f8201168201806040525061085f9190810190612e5e565b8152602001896001600160a01b03166347bd37186040518163ffffffff1660e01b815260040160206040518083038186803b15801561089d57600080fd5b505afa1580156108b1573d6000803e3d6000fd5b505050506040513d601f19601f820116820180604052506108d59190810190612e5e565b8152602001896001600160a01b0316638f840ddd6040518163ffffffff1660e01b815260040160206040518083038186803b15801561091357600080fd5b505afa158015610927573d6000803e3d6000fd5b505050506040513d601f19601f8201168201806040525061094b9190810190612e5e565b8152602001896001600160a01b03166318160ddd6040518163ffffffff1660e01b815260040160206040518083038186803b15801561098957600080fd5b505afa15801561099d573d6000803e3d6000fd5b505050506040513d601f19601f820116820180604052506109c19190810190612e5e565b8152602001896001600160a01b0316633b1d21a26040518163ffffffff1660e01b815260040160206040518083038186803b1580156109ff57600080fd5b505afa158015610a13573d6000803e3d6000fd5b505050506040513d601f19601f82011682018060405250610a379190810190612e5e565b81526020018515158152602001848152602001836001600160a01b03168152602001896001600160a01b031663313ce5676040518163ffffffff1660e01b815260040160206040518083038186803b158015610a9257600080fd5b505afa158015610aa6573d6000803e3d6000fd5b505050506040513d601f19601f82011682018060405250610aca9190810190612fa1565b60ff16815260200191909152979650505050505050565b610ae96122cf565b6040516370a0823160e01b81526000906001600160a01b038616906370a0823190610b18908690600401613b0e565b60206040518083038186803b158015610b3057600080fd5b505afa158015610b44573d6000803e3d6000fd5b505050506040513d601f19601f82011682018060405250610b689190810190612e5e565b6040516374d7814960e11b81529091506001600160a01b0385169063e9af029290610b97908690600401613b0e565b600060405180830381600087803b158015610bb157600080fd5b505af1158015610bc5573d6000803e3d6000fd5b50506040516370a0823160e01b8152600092506001600160a01b03881691506370a0823190610bf8908790600401613b0e565b60206040518083038186803b158015610c1057600080fd5b505afa158015610c24573d6000803e3d6000fd5b505050506040513d601f19601f82011682018060405250610c489190810190612e5e565b90506000856001600160a01b031663cc7ebdc4866040518263ffffffff1660e01b8152600401610c789190613b0e565b60206040518083038186803b158015610c9057600080fd5b505afa158015610ca4573d6000803e3d6000fd5b505050506040513d601f19601f82011682018060405250610cc89190810190612e5e565b90506000610cfd82846040518060400160405280600e81526020016d1cdd5b4818dbdb5c081d1bdd185b60921b815250611f88565b90506000610d3182866040518060400160405280600d81526020016c1cdd5888185b1b1bd8d85d1959609a1b815250611fb8565b905060405180608001604052808681526020018a6001600160a01b031663b4b5ea578a6040518263ffffffff1660e01b8152600401610d709190613b0e565b60206040518083038186803b158015610d8857600080fd5b505afa158015610d9c573d6000803e3d6000fd5b505050506040513d601f19601f82011682018060405250610dc09190810190612fbf565b6001600160601b031681526020018a6001600160a01b031663587cde1e8a6040518263ffffffff1660e01b8152600401610dfa9190613b0e565b60206040518083038186803b158015610e1257600080fd5b505afa158015610e26573d6000803e3d6000fd5b505050506040513d601f19601f82011682018060405250610e4a9190810190612a25565b6001600160a01b031681526020019190915298975050505050505050565b60408051828152602080840282010190915260609082908290828015610ea857816020015b610e95612300565b815260200190600190039081610e8d5790505b50905060005b82811015610ef957610eda868683818110610ec557fe5b90506020020160206102a69190810190612c0a565b828281518110610ee657fe5b6020908102919091010152600101610eae565b509150505b92915050565b610f0c612317565b6040805160608101918290526370a0823160e01b909152806001600160a01b0385166370a08231610f408660648501613b0e565b60206040518083038186803b158015610f5857600080fd5b505afa158015610f6c573d6000803e3d6000fd5b505050506040513d601f19601f82011682018060405250610f909190810190612e5e565b8152602001846001600160a01b031663b4b5ea57856040518263ffffffff1660e01b8152600401610fc19190613b0e565b60206040518083038186803b158015610fd957600080fd5b505afa158015610fed573d6000803e3d6000fd5b505050506040513d601f19601f820116820180604052506110119190810190612fbf565b6001600160601b03168152602001846001600160a01b031663587cde1e856040518263ffffffff1660e01b815260040161104b9190613b0e565b60206040518083038186803b15801561106357600080fd5b505afa158015611077573d6000803e3d6000fd5b505050506040513d601f19601f8201168201806040525061109b9190810190612a25565b6001600160a01b031690529392505050565b60606000825190506060816040519080825280602002602001820160405280156110f157816020015b6110de612341565b8152602001906001900390816110d65790505b50905060005b8281101561034f57611107612368565b876001600160a01b031663e23a9a5287848151811061112257fe5b6020026020010151896040518363ffffffff1660e01b8152600401611148929190613c6d565b60606040518083038186803b15801561116057600080fd5b505afa158015611174573d6000803e3d6000fd5b505050506040513d601f19601f820116820180604052506111989190810190612e40565b905060405180608001604052808784815181106111b157fe5b60200260200101518152602001826000015115158152602001826020015160ff16815260200182604001516001600160601b03168152508383815181106111f457fe5b6020908102919091010152506001016110f7565b6040805182815260208084028201019091526060908290829082801561124857816020015b61123561224c565b81526020019060019003908161122d5790505b50905060005b82811015610ef95761127a86868381811061126557fe5b90506020020160206101269190810190612c0a565b82828151811061128657fe5b602090810291909101015260010161124e565b606080838390506040519080825280602002602001820160405280156112d957816020015b6112c6612388565b8152602001906001900390816112be5790505b50905060005b838110156113e75760405180604001604052808686848181106112fe57fe5b90506020020160206113139190810190612f83565b63ffffffff168152602001886001600160a01b031663782d6fe18989898781811061133a57fe5b905060200201602061134f9190810190612f83565b6040518363ffffffff1660e01b815260040161136c929190613b45565b60206040518083038186803b15801561138457600080fd5b505afa158015611398573d6000803e3d6000fd5b505050506040513d601f19601f820116820180604052506113bc9190810190612fbf565b6001600160601b03168152508282815181106113d457fe5b60209081029190910101526001016112df565b5095945050505050565b6060808383905060405190808252806020026020018201604052801561143157816020015b61141e6123a2565b8152602001906001900390816114165790505b50905060005b838110156115ab57606080606080896001600160a01b031663328dd9828a8a8881811061146057fe5b905060200201356040518263ffffffff1660e01b81526004016114839190613c5f565b60006040518083038186803b15801561149b57600080fd5b505afa1580156114af573d6000803e3d6000fd5b505050506040513d6000823e601f3d908101601f191682016040526114d79190810190612a4b565b9350935093509350604051806101c001604052806000815260200160006001600160a01b031681526020016000815260200185815260200184815260200183815260200182815260200160008152602001600081526020016000815260200160008152602001600081526020016000151581526020016000151581525086868151811061156057fe5b602002602001018190525061159b86868151811061157a57fe5b60200260200101518b8b8b8981811061158f57fe5b90506020020135611fe4565b5050600190920191506114379050565b50949350505050565b6115bc61241e565b6000806000856001600160a01b0316635ec88c79866040518263ffffffff1660e01b81526004016115ed9190613b0e565b60606040518083038186803b15801561160557600080fd5b505afa158015611619573d6000803e3d6000fd5b505050506040513d601f19601f8201168201806040525061163d9190810190612f40565b9250925092508260001461165057600080fd5b604080516060810191829052632aff3bff60e21b909152806001600160a01b03881663abfceffc6116848960648501613b0e565b60006040518083038186803b15801561169c57600080fd5b505afa1580156116b0573d6000803e3d6000fd5b505050506040513d6000823e601f3d908101601f191682016040526116d89190810190612b9c565b81526020810193909352604090920152949350505050565b6060808383905060405190808252806020026020018201604052801561173057816020015b61171d61243f565b8152602001906001900390816117155790505b50905060005b838110156115ab57606080606080896001600160a01b031663328dd9828a8a8881811061175f57fe5b905060200201356040518263ffffffff1660e01b81526004016117829190613c5f565b60006040518083038186803b15801561179a57600080fd5b505afa1580156117ae573d6000803e3d6000fd5b505050506040513d6000823e601f3d908101601f191682016040526117d69190810190612a4b565b9350935093509350604051806101a001604052806000815260200160006001600160a01b0316815260200160008152602001858152602001848152602001838152602001828152602001600081526020016000815260200160008152602001600081526020016000151581526020016000151581525086868151811061185857fe5b602002602001018190525061189386868151811061187257fe5b60200260200101518b8b8b8981811061188757fe5b905060200201356120e7565b5050600190920191506117369050565b60606000825190506060816040519080825280602002602001820160405280156118e757816020015b6118d4612341565b8152602001906001900390816118cc5790505b50905060005b8281101561034f576118fd612368565b876001600160a01b031663e23a9a5287848151811061191857fe5b6020026020010151896040518363ffffffff1660e01b815260040161193e929190613c6d565b60606040518083038186803b15801561195657600080fd5b505afa15801561196a573d6000803e3d6000fd5b505050506040513d601f19601f8201168201806040525061198e9190810190612e22565b905060405180608001604052808784815181106119a757fe5b6020026020010151815260200182600001511515815260200182602001511515815260200182604001516001600160601b03168152508383815181106119e957fe5b6020908102919091010152506001016118ed565b611a0561220d565b6040516370a0823160e01b81526000906001600160a01b038516906370a0823190611a34908690600401613b1c565b60206040518083038186803b158015611a4c57600080fd5b505afa158015611a60573d6000803e3d6000fd5b505050506040513d601f19601f82011682018060405250611a849190810190612e5e565b90506000846001600160a01b03166317bfdfbc856040518263ffffffff1660e01b8152600401611ab49190613b1c565b602060405180830381600087803b158015611ace57600080fd5b505af1158015611ae2573d6000803e3d6000fd5b505050506040513d601f19601f82011682018060405250611b069190810190612e5e565b90506000856001600160a01b0316633af9e669866040518263ffffffff1660e01b8152600401611b369190613b1c565b602060405180830381600087803b158015611b5057600080fd5b505af1158015611b64573d6000803e3d6000fd5b505050506040513d601f19601f82011682018060405250611b889190810190612e5e565b9050600080611bc9886001600160a01b03166395d89b416040518163ffffffff1660e01b815260040160006040518083038186803b15801561051057600080fd5b15611be35750506001600160a01b03851680319031611d60565b60008890506000816001600160a01b0316636f307dc36040518163ffffffff1660e01b815260040160206040518083038186803b158015611c2357600080fd5b505afa158015611c37573d6000803e3d6000fd5b505050506040513d601f19601f82011682018060405250611c5b9190810190612a25565b6040516370a0823160e01b81529091506001600160a01b038216906370a0823190611c8a908c90600401613b1c565b60206040518083038186803b158015611ca257600080fd5b505afa158015611cb6573d6000803e3d6000fd5b505050506040513d601f19601f82011682018060405250611cda9190810190612e5e565b604051636eb1769f60e11b81529094506001600160a01b0382169063dd62ed3e90611d0b908c908e90600401613b2a565b60206040518083038186803b158015611d2357600080fd5b505afa158015611d37573d6000803e3d6000fd5b505050506040513d601f19601f82011682018060405250611d5b9190810190612e5e565b925050505b6040805160c0810182526001600160a01b039990991689526020890195909552938701929092526060860152608085015260a08401525090919050565b611da5612300565b6000826001600160a01b0316635fe3b5676040518163ffffffff1660e01b815260040160206040518083038186803b158015611de057600080fd5b505afa158015611df4573d6000803e3d6000fd5b505050506040513d601f19601f82011682018060405250611e189190810190612d02565b90506000816001600160a01b0316637dc0d1d06040518163ffffffff1660e01b815260040160206040518083038186803b158015611e5557600080fd5b505afa158015611e69573d6000803e3d6000fd5b505050506040513d601f19601f82011682018060405250611e8d9190810190612d02565b90506040518060400160405280856001600160a01b03168152602001826001600160a01b031663fc57d4df876040518263ffffffff1660e01b8152600401611ed59190613be8565b60206040518083038186803b158015611eed57600080fd5b505afa158015611f01573d6000803e3d6000fd5b505050506040513d601f19601f82011682018060405250611f259190810190612e5e565b9052949350505050565b600081604051602001611f429190613b02565b6040516020818303038152906040528051906020012083604051602001611f699190613b02565b6040516020818303038152906040528051906020012014905092915050565b600083830182858210156115ab5760405162461bcd60e51b8152600401611faf9190613bf6565b60405180910390fd5b60008184841115611fdc5760405162461bcd60e51b8152600401611faf9190613bf6565b505050900390565b611fec6124b4565b60405163013cf08b60e01b81526001600160a01b0384169063013cf08b90612018908590600401613c5f565b6101406040518083038186803b15801561203157600080fd5b505afa158015612045573d6000803e3d6000fd5b505050506040513d601f19601f820116820180604052506120699190810190612e03565b918452506020808201516001600160a01b03169084015260408082015190840152606081015160e08085019190915260808201516101008086019190915260a08301516101208087019190915260c0840151610140870152918301516101608601528201511515610180850152015115156101a09092019190915250565b600080600080600080600080896001600160a01b031663013cf08b8a6040518263ffffffff1660e01b815260040161211f9190613c5f565b6101206040518083038186803b15801561213857600080fd5b505afa15801561214c573d6000803e3d6000fd5b505050506040513d601f19601f820116820180604052506121709190810190612e7c565b9850985098509850985098509850985050888b6000018181525050878b602001906001600160a01b031690816001600160a01b031681525050868b6040018181525050858b60e0018181525050848b610100018181525050838b610120018181525050828b610140018181525050818b610160019015159081151581525050808b6101800190151590811515815250505050505050505050505050565b6040518060c0016040528060006001600160a01b0316815260200160008152602001600081526020016000815260200160008152602001600081525090565b604051806101c0016040528060006001600160a01b0316815260200160008152602001600081526020016000815260200160008152602001600081526020016000815260200160008152602001600081526020016000151581526020016000815260200160006001600160a01b0316815260200160008152602001600081525090565b6040518060800160405280600081526020016000815260200160006001600160a01b03168152602001600081525090565b604080518082019091526000808252602082015290565b6040518060600160405280600081526020016000815260200160006001600160a01b031681525090565b60408051608081018252600080825260208201819052918101829052606081019190915290565b604080516060810182526000808252602082018190529181019190915290565b604051806040016040528060008152602001600081525090565b604051806101c001604052806000815260200160006001600160a01b03168152602001600081526020016060815260200160608152602001606081526020016060815260200160008152602001600081526020016000815260200160008152602001600081526020016000151581526020016000151581525090565b60405180606001604052806060815260200160008152602001600081525090565b604051806101a001604052806000815260200160006001600160a01b031681526020016000815260200160608152602001606081526020016060815260200160608152602001600081526020016000815260200160008152602001600081526020016000151581526020016000151581525090565b6040518061014001604052806000815260200160006001600160a01b031681526020016000815260200160008152602001600081526020016000815260200160008152602001600081526020016000151581526020016000151581525090565b8035610efe81613d91565b8051610efe81613d91565b600082601f83011261253b57600080fd5b815161254e61254982613ca1565b613c7b565b9150818183526020840193506020810190508385602084028201111561257357600080fd5b60005b8381101561259f5781612589888261251f565b8452506020928301929190910190600101612576565b5050505092915050565b600082601f8301126125ba57600080fd5b81516125c861254982613ca1565b81815260209384019390925082018360005b8381101561259f57815186016125f08882612806565b84525060209283019291909101906001016125da565b60008083601f84011261261857600080fd5b5081356001600160401b0381111561262f57600080fd5b60208301915083602082028301111561264757600080fd5b9250929050565b600082601f83011261265f57600080fd5b815161266d61254982613ca1565b9150818183526020840193506020810190508385602084028201111561269257600080fd5b60005b8381101561259f57816126a88882612860565b8452506020928301929190910190600101612695565b600082601f8301126126cf57600080fd5b81516126dd61254982613ca1565b81815260209384019390925082018360005b8381101561259f57815186016127058882612806565b84525060209283019291909101906001016126ef565b600082601f83011261272c57600080fd5b813561273a61254982613ca1565b9150818183526020840193506020810190508385602084028201111561275f57600080fd5b60005b8381101561259f578161277588826129ee565b8452506020928301929190910190600101612762565b600082601f83011261279c57600080fd5b81516127aa61254982613ca1565b915081818352602084019350602081019050838560208402820111156127cf57600080fd5b60005b8381101561259f57816127e588826129f9565b84525060209283019291909101906001016127d2565b8051610efe81613da8565b600082601f83011261281757600080fd5b815161282561254982613cc1565b9150808252602083016020830185838301111561284157600080fd5b61284c838284613d5b565b50505092915050565b8035610efe81613db1565b8051610efe81613db1565b6000610140828403121561287e57600080fd5b612889610140613c7b565b9050600061289784846129f9565b82525060206128a88484830161251f565b60208301525060406128bc848285016129f9565b60408301525060606128d0848285016129f9565b60608301525060806128e4848285016129f9565b60808301525060a06128f8848285016129f9565b60a08301525060c061290c848285016129f9565b60c08301525060e0612920848285016129f9565b60e083015250610100612935848285016127fb565b6101008301525061012061294b848285016127fb565b6101208301525092915050565b60006060828403121561296a57600080fd5b6129746060613c7b565b9050600061298284846127fb565b8252506020612993848483016127fb565b60208301525060406129a784828501612a1a565b60408301525092915050565b6000606082840312156129c557600080fd5b6129cf6060613c7b565b905060006129dd84846127fb565b825250602061299384848301612a0f565b8035610efe81613dba565b8051610efe81613dba565b8035610efe81613dc3565b8051610efe81613dcc565b8051610efe81613dd5565b600060208284031215612a3757600080fd5b6000612a43848461251f565b949350505050565b60008060008060808587031215612a6157600080fd5b84516001600160401b03811115612a7757600080fd5b612a838782880161252a565b94505060208501516001600160401b03811115612a9f57600080fd5b612aab8782880161278b565b93505060408501516001600160401b03811115612ac757600080fd5b612ad3878288016126be565b92505060608501516001600160401b03811115612aef57600080fd5b612afb878288016125a9565b91505092959194509250565b60008060208385031215612b1a57600080fd5b82356001600160401b03811115612b3057600080fd5b612b3c85828601612606565b92509250509250929050565b600080600060408486031215612b5d57600080fd5b83356001600160401b03811115612b7357600080fd5b612b7f86828701612606565b93509350506020612b9286828701612514565b9150509250925092565b600060208284031215612bae57600080fd5b81516001600160401b03811115612bc457600080fd5b612a438482850161264e565b60008060408385031215612be357600080fd5b6000612bef85856127fb565b9250506020612c00858286016129f9565b9150509250929050565b600060208284031215612c1c57600080fd5b6000612a438484612855565b60008060408385031215612c3b57600080fd5b6000612c478585612855565b9250506020612c0085828601612514565b60008060008060608587031215612c6e57600080fd5b6000612c7a8787612855565b9450506020612c8b87828801612514565b93505060408501356001600160401b03811115612ca757600080fd5b612cb387828801612606565b95989497509550505050565b600080600060608486031215612cd457600080fd5b6000612ce08686612855565b9350506020612cf186828701612855565b9250506040612b9286828701612514565b600060208284031215612d1457600080fd5b6000612a438484612860565b600080600060608486031215612d3557600080fd5b6000612d418686612855565b9350506020612d5286828701612514565b92505060408401356001600160401b03811115612d6e57600080fd5b612b928682870161271b565b600080600060408486031215612d8f57600080fd5b6000612d9b8686612855565b93505060208401356001600160401b03811115612db757600080fd5b612dc386828701612606565b92509250509250925092565b600060208284031215612de157600080fd5b81516001600160401b03811115612df757600080fd5b612a4384828501612806565b60006101408284031215612e1657600080fd5b6000612a43848461286b565b600060608284031215612e3457600080fd5b6000612a438484612958565b600060608284031215612e5257600080fd5b6000612a4384846129b3565b600060208284031215612e7057600080fd5b6000612a4384846129f9565b60008060008060008060008060006101208a8c031215612e9b57600080fd5b6000612ea78c8c6129f9565b9950506020612eb88c828d0161251f565b9850506040612ec98c828d016129f9565b9750506060612eda8c828d016129f9565b9650506080612eeb8c828d016129f9565b95505060a0612efc8c828d016129f9565b94505060c0612f0d8c828d016129f9565b93505060e0612f1e8c828d016127fb565b925050610100612f308c828d016127fb565b9150509295985092959850929598565b600080600060608486031215612f5557600080fd5b6000612f6186866129f9565b9350506020612f72868287016129f9565b9250506040612b92868287016129f9565b600060208284031215612f9557600080fd5b6000612a438484612a04565b600060208284031215612fb357600080fd5b6000612a438484612a0f565b600060208284031215612fd157600080fd5b6000612a438484612a1a565b6000612fe983836130a5565b505060200190565b60006103548383613511565b6000612fe98383613549565b600061301583836135c9565b505060c00190565b6000613029838361363f565b50506101c00190565b600061303e8383613754565b505060400190565b600061303e83836137f9565b6000610354838361380a565b600061306a838361393e565b505060800190565b60006103548383613988565b600061306a8383613aa7565b6000612fe98383613ade565b61309f81613d45565b82525050565b61309f81613d00565b60006130b982613cee565b6130c38185613cf2565b93506130ce83613ce8565b8060005b838110156130fc5781516130e68882612fdd565b97506130f183613ce8565b9250506001016130d2565b509495945050505050565b600061311282613cee565b61311c8185613cf2565b93508360208202850161312e85613ce8565b8060005b85811015613168578484038952815161314b8582612ff1565b945061315683613ce8565b60209a909a0199925050600101613132565b5091979650505050505050565b600061318082613cee565b61318a8185613cf2565b935061319583613ce8565b8060005b838110156130fc5781516131ad8882612ffd565b97506131b883613ce8565b925050600101613199565b60006131ce82613cee565b6131d88185613cf2565b9350836020820285016131ea85613ce8565b8060005b8581101561316857848403895281516132078582612ff1565b945061321283613ce8565b60209a909a01999250506001016131ee565b600061322f82613cee565b6132398185613cf2565b935061324483613ce8565b8060005b838110156130fc57815161325c8882613009565b975061326783613ce8565b925050600101613248565b600061327d82613cee565b6132878185613cf2565b935061329283613ce8565b8060005b838110156130fc5781516132aa888261301d565b97506132b583613ce8565b925050600101613296565b60006132cb82613cee565b6132d58185613cf2565b93506132e083613ce8565b8060005b838110156130fc5781516132f88882613032565b975061330383613ce8565b9250506001016132e4565b600061331982613cee565b6133238185613cf2565b935061332e83613ce8565b8060005b838110156130fc5781516133468882613046565b975061335183613ce8565b925050600101613332565b600061336782613cee565b6133718185613cf2565b93508360208202850161338385613ce8565b8060005b8581101561316857848403895281516133a08582613052565b94506133ab83613ce8565b60209a909a0199925050600101613387565b60006133c882613cee565b6133d28185613cf2565b93506133dd83613ce8565b8060005b838110156130fc5781516133f5888261305e565b975061340083613ce8565b9250506001016133e1565b600061341682613cee565b6134208185613cf2565b93508360208202850161343285613ce8565b8060005b85811015613168578484038952815161344f8582613072565b945061345a83613ce8565b60209a909a0199925050600101613436565b600061347782613cee565b6134818185613cf2565b935061348c83613ce8565b8060005b838110156130fc5781516134a4888261307e565b97506134af83613ce8565b925050600101613490565b60006134c582613cee565b6134cf8185613cf2565b93506134da83613ce8565b8060005b838110156130fc5781516134f2888261308a565b97506134fd83613ce8565b9250506001016134de565b61309f81613d0b565b600061351c82613cee565b6135268185613cf2565b9350613536818560208601613d5b565b61353f81613d87565b9093019392505050565b61309f81613d10565b600061355d82613cee565b6135678185613cfb565b9350613577818560208601613d5b565b9290920192915050565b80516060808452600091908401906135998282613175565b91505060208301516135ae6020860182613ade565b5060408301516135c16040860182613ade565b509392505050565b805160c08301906135da84826130a5565b5060208201516135ed6020850182613ade565b5060408201516136006040850182613ade565b5060608201516136136060850182613ade565b5060808201516136266080850182613ade565b5060a082015161363960a0850182613ade565b50505050565b80516101c083019061365184826130a5565b5060208201516136646020850182613ade565b5060408201516136776040850182613ade565b50606082015161368a6060850182613ade565b50608082015161369d6080850182613ade565b5060a08201516136b060a0850182613ade565b5060c08201516136c360c0850182613ade565b5060e08201516136d660e0850182613ade565b506101008201516136eb610100850182613ade565b50610120820151613700610120850182613508565b50610140820151613715610140850182613ade565b5061016082015161372a6101608501826130a5565b5061018082015161373f610180850182613ade565b506101a08201516136396101a0850182613ade565b8051604083019061376584826130a5565b5060208201516136396020850182613ade565b805160808301906137898482613ade565b50602082015161379c6020850182613ade565b5060408201516137af60408501826130a5565b5060608201516136396060850182613ade565b805160608301906137d38482613ade565b5060208201516137e66020850182613ade565b50604082015161363960408501826130a5565b805160408301906137658482613ade565b80516000906101c084019061381f8582613ade565b50602083015161383260208601826130a5565b5060408301516138456040860182613ade565b506060830151848203606086015261385d82826130ae565b9150506080830151848203608086015261387782826134ba565b91505060a083015184820360a086015261389182826131c3565b91505060c083015184820360c08601526138ab8282613107565b91505060e08301516138c060e0860182613ade565b506101008301516138d5610100860182613ade565b506101208301516138ea610120860182613ade565b506101408301516138ff610140860182613ade565b50610160830151613914610160860182613ade565b50610180830151613929610180860182613508565b506101a08301516135c16101a0860182613508565b8051608083019061394f8482613ade565b5060208201516139626020850182613508565b5060408201516139756040850182613af0565b5060608201516136396060850182613af9565b80516000906101a084019061399d8582613ade565b5060208301516139b060208601826130a5565b5060408301516139c36040860182613ade565b50606083015184820360608601526139db82826130ae565b915050608083015184820360808601526139f582826134ba565b91505060a083015184820360a0860152613a0f82826131c3565b91505060c083015184820360c0860152613a298282613107565b91505060e0830151613a3e60e0860182613ade565b50610100830151613a53610100860182613ade565b50610120830151613a68610120860182613ade565b50610140830151613a7d610140860182613ade565b50610160830151613a92610160860182613508565b506101808301516135c1610180860182613508565b80516080830190613ab88482613ade565b506020820151613acb6020850182613508565b5060408201516139756040850182613508565b61309f81613d27565b61309f81613d50565b61309f81613d33565b61309f81613d39565b60006103548284613552565b60208101610efe82846130a5565b60208101610efe8284613096565b60408101613b388285613096565b61035460208301846130a5565b60408101613b5382856130a5565b6103546020830184613ae7565b602080825281016103548184613224565b602080825281016103548184613272565b6020808252810161035481846132c0565b60208082528101610354818461330e565b60208082528101610354818461335c565b6020808252810161035481846133bd565b60208082528101610354818461340b565b60208082528101610354818461346c565b60208101610efe8284613549565b602080825281016103548184613511565b602080825281016103548184613581565b60c08101610efe82846135c9565b6101c08101610efe828461363f565b60408101610efe8284613754565b60808101610efe8284613778565b60608101610efe82846137c2565b60208101610efe8284613ade565b60408101613b388285613ade565b6040518181016001600160401b0381118282101715613c9957600080fd5b604052919050565b60006001600160401b03821115613cb757600080fd5b5060209081020190565b60006001600160401b03821115613cd757600080fd5b506020601f91909101601f19160190565b60200190565b5190565b90815260200190565b919050565b6000610efe82613d1b565b151590565b6000610efe82613d00565b6001600160a01b031690565b90565b63ffffffff1690565b60ff1690565b6001600160601b031690565b6000610efe82613d10565b6000610efe82613d2a565b60005b83811015613d76578181015183820152602001613d5e565b838111156136395750506000910152565b601f01601f191690565b613d9a81613d00565b8114613da557600080fd5b50565b613d9a81613d0b565b613d9a81613d10565b613d9a81613d27565b613d9a81613d2a565b613d9a81613d33565b613d9a81613d3956fea365627a7a7231582047b0aa164dd74b1267533404532a10b824cbab7c7e94c2322637fd814a62ad276c6578706572696d656e74616cf564736f6c63430005100040",
  "devdoc": {
    "methods": {}
  },
  "userdoc": {
    "methods": {}
  },
  "storageLayout": {
    "storage": [],
    "types": null
  }
}