{
  "address": "0xFbFbc6FAB0FE84ac0cC4b8b7f04955Af7432B0eD",
  "abi": [
    {
      "constant": false,
      "inputs": [
        {
          "internalType": "address",
          "name": "holder",
          "type": "address"
        },
        {
          "internalType": "contract Comptroller[]",
          "name": "comptrollers",
          "type": "address[]"
        }
      ],
      "name": "claimComp",
      "outputs": [],
      "payable": false,
      "stateMutability": "nonpayable",
      "type": "function"
    }
  ],
  "transactionHash": "0xf8a65b8030aa62fbd412dc574191fa2182c094e46bd4df5444b2f954405cffe9",
  "args": [],
  "solcInputHash": "3a81636df9bb88be9862017b69bde82d",
  "bytecode": "0x608060405234801561001057600080fd5b506101ba806100206000396000f3fe608060405234801561001057600080fd5b506004361061002b5760003560e01c80631c3db2e014610030575b600080fd5b6100e36004803603604081101561004657600080fd5b6001600160a01b03823516919081019060408101602082013564010000000081111561007157600080fd5b82018360208201111561008357600080fd5b803590602001918460208302840111640100000000831117156100a557600080fd5b9190808060200260200160405190810160405280939291908181526020018383602002808284376000920191909152509295506100e5945050505050565b005b60005b8151811015610180578181815181106100fd57fe5b60200260200101516001600160a01b031663e9af0292846040518263ffffffff1660e01b815260040180826001600160a01b03166001600160a01b03168152602001915050600060405180830381600087803b15801561015c57600080fd5b505af1158015610170573d6000803e3d6000fd5b5050600190920191506100e89050565b50505056fea265627a7a72315820021faa2efd085f3e78d5ba0e02277e5bd1bde2a03156a094c5c51a4dd77ce2a964736f6c63430005100032",
  "devdoc": {
    "author": "Citrus",
    "methods": {
      "claimComp(address,address[])": {
        "params": {
          "comptrollers": "The Comptrollers to claim the COMP from",
          "holder": "The address to claim COMP for"
        }
      }
    },
    "title": "Citrus's ComptrollerManager Contract"
  },
  "userdoc": {
    "methods": {
      "claimComp(address,address[])": {
        "notice": "Claim all the comp accrued by holder in comptrollers"
      }
    }
  },
  "storageLayout": {
    "storage": [],
    "types": null
  }
}