{
  "address": "0x9Be242Bb1f54EB38d4969fd72600E6D066e64db5",
  "abi": [
    {
      "inputs": [],
      "payable": false,
      "stateMutability": "nonpayable",
      "type": "constructor"
    },
    {
      "anonymous": false,
      "inputs": [
        {
          "indexed": false,
          "internalType": "uint256",
          "name": "cashPrior",
          "type": "uint256"
        },
        {
          "indexed": false,
          "internalType": "uint256",
          "name": "interestAccumulated",
          "type": "uint256"
        },
        {
          "indexed": false,
          "internalType": "uint256",
          "name": "borrowIndex",
          "type": "uint256"
        },
        {
          "indexed": false,
          "internalType": "uint256",
          "name": "totalBorrows",
          "type": "uint256"
        }
      ],
      "name": "AccrueInterest",
      "type": "event"
    },
    {
      "anonymous": false,
      "inputs": [
        {
          "indexed": true,
          "internalType": "address",
          "name": "owner",
          "type": "address"
        },
        {
          "indexed": true,
          "internalType": "address",
          "name": "spender",
          "type": "address"
        },
        {
          "indexed": false,
          "internalType": "uint256",
          "name": "amount",
          "type": "uint256"
        }
      ],
      "name": "Approval",
      "type": "event"
    },
    {
      "anonymous": false,
      "inputs": [
        {
          "indexed": false,
          "internalType": "address",
          "name": "borrower",
          "type": "address"
        },
        {
          "indexed": false,
          "internalType": "uint256",
          "name": "borrowAmount",
          "type": "uint256"
        },
        {
          "indexed": false,
          "internalType": "uint256",
          "name": "accountBorrows",
          "type": "uint256"
        },
        {
          "indexed": false,
          "internalType": "uint256",
          "name": "totalBorrows",
          "type": "uint256"
        }
      ],
      "name": "Borrow",
      "type": "event"
    },
    {
      "anonymous": false,
      "inputs": [
        {
          "indexed": false,
          "internalType": "uint256",
          "name": "error",
          "type": "uint256"
        },
        {
          "indexed": false,
          "internalType": "uint256",
          "name": "info",
          "type": "uint256"
        },
        {
          "indexed": false,
          "internalType": "uint256",
          "name": "detail",
          "type": "uint256"
        }
      ],
      "name": "Failure",
      "type": "event"
    },
    {
      "anonymous": false,
      "inputs": [
        {
          "indexed": false,
          "internalType": "address",
          "name": "liquidator",
          "type": "address"
        },
        {
          "indexed": false,
          "internalType": "address",
          "name": "borrower",
          "type": "address"
        },
        {
          "indexed": false,
          "internalType": "uint256",
          "name": "repayAmount",
          "type": "uint256"
        },
        {
          "indexed": false,
          "internalType": "address",
          "name": "cTokenCollateral",
          "type": "address"
        },
        {
          "indexed": false,
          "internalType": "uint256",
          "name": "seizeTokens",
          "type": "uint256"
        }
      ],
      "name": "LiquidateBorrow",
      "type": "event"
    },
    {
      "anonymous": false,
      "inputs": [
        {
          "indexed": false,
          "internalType": "address",
          "name": "minter",
          "type": "address"
        },
        {
          "indexed": false,
          "internalType": "uint256",
          "name": "mintAmount",
          "type": "uint256"
        },
        {
          "indexed": false,
          "internalType": "uint256",
          "name": "mintTokens",
          "type": "uint256"
        }
      ],
      "name": "Mint",
      "type": "event"
    },
    {
      "anonymous": false,
      "inputs": [
        {
          "indexed": false,
          "internalType": "address",
          "name": "oldAdmin",
          "type": "address"
        },
        {
          "indexed": false,
          "internalType": "address",
          "name": "newAdmin",
          "type": "address"
        }
      ],
      "name": "NewAdmin",
      "type": "event"
    },
    {
      "anonymous": false,
      "inputs": [
        {
          "indexed": false,
          "internalType": "contract ComptrollerInterface",
          "name": "oldComptroller",
          "type": "address"
        },
        {
          "indexed": false,
          "internalType": "contract ComptrollerInterface",
          "name": "newComptroller",
          "type": "address"
        }
      ],
      "name": "NewComptroller",
      "type": "event"
    },
    {
      "anonymous": false,
      "inputs": [
        {
          "indexed": false,
          "internalType": "address",
          "name": "oldFeeTaker",
          "type": "address"
        },
        {
          "indexed": false,
          "internalType": "address",
          "name": "newFeeTaker",
          "type": "address"
        }
      ],
      "name": "NewFeeTaker",
      "type": "event"
    },
    {
      "anonymous": false,
      "inputs": [
        {
          "indexed": false,
          "internalType": "contract InterestRateModel",
          "name": "oldInterestRateModel",
          "type": "address"
        },
        {
          "indexed": false,
          "internalType": "contract InterestRateModel",
          "name": "newInterestRateModel",
          "type": "address"
        }
      ],
      "name": "NewMarketInterestRateModel",
      "type": "event"
    },
    {
      "anonymous": false,
      "inputs": [
        {
          "indexed": false,
          "internalType": "address",
          "name": "oldPendingAdmin",
          "type": "address"
        },
        {
          "indexed": false,
          "internalType": "address",
          "name": "newPendingAdmin",
          "type": "address"
        }
      ],
      "name": "NewPendingAdmin",
      "type": "event"
    },
    {
      "anonymous": false,
      "inputs": [
        {
          "indexed": false,
          "internalType": "uint256",
          "name": "oldReserveFactorMantissa",
          "type": "uint256"
        },
        {
          "indexed": false,
          "internalType": "uint256",
          "name": "newReserveFactorMantissa",
          "type": "uint256"
        }
      ],
      "name": "NewReserveFactor",
      "type": "event"
    },
    {
      "anonymous": false,
      "inputs": [
        {
          "indexed": false,
          "internalType": "address",
          "name": "redeemer",
          "type": "address"
        },
        {
          "indexed": false,
          "internalType": "uint256",
          "name": "redeemAmount",
          "type": "uint256"
        },
        {
          "indexed": false,
          "internalType": "uint256",
          "name": "redeemTokens",
          "type": "uint256"
        }
      ],
      "name": "Redeem",
      "type": "event"
    },
    {
      "anonymous": false,
      "inputs": [
        {
          "indexed": false,
          "internalType": "address",
          "name": "payer",
          "type": "address"
        },
        {
          "indexed": false,
          "internalType": "address",
          "name": "borrower",
          "type": "address"
        },
        {
          "indexed": false,
          "internalType": "uint256",
          "name": "repayAmount",
          "type": "uint256"
        },
        {
          "indexed": false,
          "internalType": "uint256",
          "name": "accountBorrows",
          "type": "uint256"
        },
        {
          "indexed": false,
          "internalType": "uint256",
          "name": "totalBorrows",
          "type": "uint256"
        }
      ],
      "name": "RepayBorrow",
      "type": "event"
    },
    {
      "anonymous": false,
      "inputs": [
        {
          "indexed": false,
          "internalType": "address",
          "name": "benefactor",
          "type": "address"
        },
        {
          "indexed": false,
          "internalType": "uint256",
          "name": "addAmount",
          "type": "uint256"
        },
        {
          "indexed": false,
          "internalType": "uint256",
          "name": "newTotalReserves",
          "type": "uint256"
        }
      ],
      "name": "ReservesAdded",
      "type": "event"
    },
    {
      "anonymous": false,
      "inputs": [
        {
          "indexed": false,
          "internalType": "address",
          "name": "admin",
          "type": "address"
        },
        {
          "indexed": false,
          "internalType": "uint256",
          "name": "reduceAmount",
          "type": "uint256"
        },
        {
          "indexed": false,
          "internalType": "uint256",
          "name": "newTotalReserves",
          "type": "uint256"
        }
      ],
      "name": "ReservesReduced",
      "type": "event"
    },
    {
      "anonymous": false,
      "inputs": [
        {
          "indexed": true,
          "internalType": "address",
          "name": "from",
          "type": "address"
        },
        {
          "indexed": true,
          "internalType": "address",
          "name": "to",
          "type": "address"
        },
        {
          "indexed": false,
          "internalType": "uint256",
          "name": "amount",
          "type": "uint256"
        }
      ],
      "name": "Transfer",
      "type": "event"
    },
    {
      "payable": true,
      "stateMutability": "payable",
      "type": "fallback"
    },
    {
      "constant": false,
      "inputs": [],
      "name": "_acceptAdmin",
      "outputs": [
        {
          "internalType": "uint256",
          "name": "",
          "type": "uint256"
        }
      ],
      "payable": false,
      "stateMutability": "nonpayable",
      "type": "function"
    },
    {
      "constant": false,
      "inputs": [
        {
          "internalType": "uint256",
          "name": "addAmount",
          "type": "uint256"
        }
      ],
      "name": "_addReserves",
      "outputs": [
        {
          "internalType": "uint256",
          "name": "",
          "type": "uint256"
        }
      ],
      "payable": false,
      "stateMutability": "nonpayable",
      "type": "function"
    },
    {
      "constant": false,
      "inputs": [
        {
          "internalType": "bytes",
          "name": "data",
          "type": "bytes"
        }
      ],
      "name": "_becomeImplementation",
      "outputs": [],
      "payable": false,
      "stateMutability": "nonpayable",
      "type": "function"
    },
    {
      "constant": false,
      "inputs": [
        {
          "internalType": "uint256",
          "name": "reduceAmount",
          "type": "uint256"
        }
      ],
      "name": "_reduceReserves",
      "outputs": [
        {
          "internalType": "uint256",
          "name": "",
          "type": "uint256"
        }
      ],
      "payable": false,
      "stateMutability": "nonpayable",
      "type": "function"
    },
    {
      "constant": false,
      "inputs": [],
      "name": "_resignImplementation",
      "outputs": [],
      "payable": false,
      "stateMutability": "nonpayable",
      "type": "function"
    },
    {
      "constant": false,
      "inputs": [
        {
          "internalType": "contract ComptrollerInterface",
          "name": "newComptroller",
          "type": "address"
        }
      ],
      "name": "_setComptroller",
      "outputs": [
        {
          "internalType": "uint256",
          "name": "",
          "type": "uint256"
        }
      ],
      "payable": false,
      "stateMutability": "nonpayable",
      "type": "function"
    },
    {
      "constant": false,
      "inputs": [
        {
          "internalType": "address payable",
          "name": "newFeeTaker",
          "type": "address"
        }
      ],
      "name": "_setFeeTaker",
      "outputs": [
        {
          "internalType": "uint256",
          "name": "",
          "type": "uint256"
        }
      ],
      "payable": false,
      "stateMutability": "nonpayable",
      "type": "function"
    },
    {
      "constant": false,
      "inputs": [
        {
          "internalType": "contract InterestRateModel",
          "name": "newInterestRateModel",
          "type": "address"
        }
      ],
      "name": "_setInterestRateModel",
      "outputs": [
        {
          "internalType": "uint256",
          "name": "",
          "type": "uint256"
        }
      ],
      "payable": false,
      "stateMutability": "nonpayable",
      "type": "function"
    },
    {
      "constant": false,
      "inputs": [
        {
          "internalType": "address payable",
          "name": "newPendingAdmin",
          "type": "address"
        }
      ],
      "name": "_setPendingAdmin",
      "outputs": [
        {
          "internalType": "uint256",
          "name": "",
          "type": "uint256"
        }
      ],
      "payable": false,
      "stateMutability": "nonpayable",
      "type": "function"
    },
    {
      "constant": false,
      "inputs": [
        {
          "internalType": "uint256",
          "name": "newReserveFactorMantissa",
          "type": "uint256"
        }
      ],
      "name": "_setReserveFactor",
      "outputs": [
        {
          "internalType": "uint256",
          "name": "",
          "type": "uint256"
        }
      ],
      "payable": false,
      "stateMutability": "nonpayable",
      "type": "function"
    },
    {
      "constant": true,
      "inputs": [],
      "name": "accrualBlockNumber",
      "outputs": [
        {
          "internalType": "uint256",
          "name": "",
          "type": "uint256"
        }
      ],
      "payable": false,
      "stateMutability": "view",
      "type": "function"
    },
    {
      "constant": false,
      "inputs": [],
      "name": "accrueInterest",
      "outputs": [
        {
          "internalType": "uint256",
          "name": "",
          "type": "uint256"
        }
      ],
      "payable": false,
      "stateMutability": "nonpayable",
      "type": "function"
    },
    {
      "constant": true,
      "inputs": [],
      "name": "admin",
      "outputs": [
        {
          "internalType": "address payable",
          "name": "",
          "type": "address"
        }
      ],
      "payable": false,
      "stateMutability": "view",
      "type": "function"
    },
    {
      "constant": true,
      "inputs": [
        {
          "internalType": "address",
          "name": "owner",
          "type": "address"
        },
        {
          "internalType": "address",
          "name": "spender",
          "type": "address"
        }
      ],
      "name": "allowance",
      "outputs": [
        {
          "internalType": "uint256",
          "name": "",
          "type": "uint256"
        }
      ],
      "payable": false,
      "stateMutability": "view",
      "type": "function"
    },
    {
      "constant": false,
      "inputs": [
        {
          "internalType": "address",
          "name": "spender",
          "type": "address"
        },
        {
          "internalType": "uint256",
          "name": "amount",
          "type": "uint256"
        }
      ],
      "name": "approve",
      "outputs": [
        {
          "internalType": "bool",
          "name": "",
          "type": "bool"
        }
      ],
      "payable": false,
      "stateMutability": "nonpayable",
      "type": "function"
    },
    {
      "constant": true,
      "inputs": [
        {
          "internalType": "address",
          "name": "owner",
          "type": "address"
        }
      ],
      "name": "balanceOf",
      "outputs": [
        {
          "internalType": "uint256",
          "name": "",
          "type": "uint256"
        }
      ],
      "payable": false,
      "stateMutability": "view",
      "type": "function"
    },
    {
      "constant": false,
      "inputs": [
        {
          "internalType": "address",
          "name": "owner",
          "type": "address"
        }
      ],
      "name": "balanceOfUnderlying",
      "outputs": [
        {
          "internalType": "uint256",
          "name": "",
          "type": "uint256"
        }
      ],
      "payable": false,
      "stateMutability": "nonpayable",
      "type": "function"
    },
    {
      "constant": false,
      "inputs": [
        {
          "internalType": "uint256",
          "name": "borrowAmount",
          "type": "uint256"
        }
      ],
      "name": "borrow",
      "outputs": [
        {
          "internalType": "uint256",
          "name": "",
          "type": "uint256"
        }
      ],
      "payable": false,
      "stateMutability": "nonpayable",
      "type": "function"
    },
    {
      "constant": false,
      "inputs": [
        {
          "internalType": "address",
          "name": "account",
          "type": "address"
        }
      ],
      "name": "borrowBalanceCurrent",
      "outputs": [
        {
          "internalType": "uint256",
          "name": "",
          "type": "uint256"
        }
      ],
      "payable": false,
      "stateMutability": "nonpayable",
      "type": "function"
    },
    {
      "constant": true,
      "inputs": [
        {
          "internalType": "address",
          "name": "account",
          "type": "address"
        }
      ],
      "name": "borrowBalanceStored",
      "outputs": [
        {
          "internalType": "uint256",
          "name": "",
          "type": "uint256"
        }
      ],
      "payable": false,
      "stateMutability": "view",
      "type": "function"
    },
    {
      "constant": true,
      "inputs": [],
      "name": "borrowIndex",
      "outputs": [
        {
          "internalType": "uint256",
          "name": "",
          "type": "uint256"
        }
      ],
      "payable": false,
      "stateMutability": "view",
      "type": "function"
    },
    {
      "constant": false,
      "inputs": [
        {
          "internalType": "uint256",
          "name": "borrowAmount",
          "type": "uint256"
        }
      ],
      "name": "borrowNative",
      "outputs": [
        {
          "internalType": "uint256",
          "name": "",
          "type": "uint256"
        }
      ],
      "payable": false,
      "stateMutability": "nonpayable",
      "type": "function"
    },
    {
      "constant": true,
      "inputs": [],
      "name": "borrowRatePerBlock",
      "outputs": [
        {
          "internalType": "uint256",
          "name": "",
          "type": "uint256"
        }
      ],
      "payable": false,
      "stateMutability": "view",
      "type": "function"
    },
    {
      "constant": true,
      "inputs": [],
      "name": "comptroller",
      "outputs": [
        {
          "internalType": "contract ComptrollerInterface",
          "name": "",
          "type": "address"
        }
      ],
      "payable": false,
      "stateMutability": "view",
      "type": "function"
    },
    {
      "constant": true,
      "inputs": [],
      "name": "decimals",
      "outputs": [
        {
          "internalType": "uint8",
          "name": "",
          "type": "uint8"
        }
      ],
      "payable": false,
      "stateMutability": "view",
      "type": "function"
    },
    {
      "constant": false,
      "inputs": [],
      "name": "exchangeRateCurrent",
      "outputs": [
        {
          "internalType": "uint256",
          "name": "",
          "type": "uint256"
        }
      ],
      "payable": false,
      "stateMutability": "nonpayable",
      "type": "function"
    },
    {
      "constant": true,
      "inputs": [],
      "name": "exchangeRateStored",
      "outputs": [
        {
          "internalType": "uint256",
          "name": "",
          "type": "uint256"
        }
      ],
      "payable": false,
      "stateMutability": "view",
      "type": "function"
    },
    {
      "constant": true,
      "inputs": [],
      "name": "feeTaker",
      "outputs": [
        {
          "internalType": "address payable",
          "name": "",
          "type": "address"
        }
      ],
      "payable": false,
      "stateMutability": "view",
      "type": "function"
    },
    {
      "constant": true,
      "inputs": [
        {
          "internalType": "address",
          "name": "account",
          "type": "address"
        }
      ],
      "name": "getAccountSnapshot",
      "outputs": [
        {
          "internalType": "uint256",
          "name": "",
          "type": "uint256"
        },
        {
          "internalType": "uint256",
          "name": "",
          "type": "uint256"
        },
        {
          "internalType": "uint256",
          "name": "",
          "type": "uint256"
        },
        {
          "internalType": "uint256",
          "name": "",
          "type": "uint256"
        }
      ],
      "payable": false,
      "stateMutability": "view",
      "type": "function"
    },
    {
      "constant": true,
      "inputs": [],
      "name": "getCash",
      "outputs": [
        {
          "internalType": "uint256",
          "name": "",
          "type": "uint256"
        }
      ],
      "payable": false,
      "stateMutability": "view",
      "type": "function"
    },
    {
      "constant": false,
      "inputs": [
        {
          "internalType": "address",
          "name": "underlying_",
          "type": "address"
        },
        {
          "internalType": "contract ComptrollerInterface",
          "name": "comptroller_",
          "type": "address"
        },
        {
          "internalType": "contract InterestRateModel",
          "name": "interestRateModel_",
          "type": "address"
        },
        {
          "internalType": "uint256",
          "name": "initialExchangeRateMantissa_",
          "type": "uint256"
        },
        {
          "internalType": "string",
          "name": "name_",
          "type": "string"
        },
        {
          "internalType": "string",
          "name": "symbol_",
          "type": "string"
        },
        {
          "internalType": "uint8",
          "name": "decimals_",
          "type": "uint8"
        }
      ],
      "name": "initialize",
      "outputs": [],
      "payable": false,
      "stateMutability": "nonpayable",
      "type": "function"
    },
    {
      "constant": false,
      "inputs": [
        {
          "internalType": "contract ComptrollerInterface",
          "name": "comptroller_",
          "type": "address"
        },
        {
          "internalType": "contract InterestRateModel",
          "name": "interestRateModel_",
          "type": "address"
        },
        {
          "internalType": "uint256",
          "name": "initialExchangeRateMantissa_",
          "type": "uint256"
        },
        {
          "internalType": "string",
          "name": "name_",
          "type": "string"
        },
        {
          "internalType": "string",
          "name": "symbol_",
          "type": "string"
        },
        {
          "internalType": "uint8",
          "name": "decimals_",
          "type": "uint8"
        }
      ],
      "name": "initialize",
      "outputs": [],
      "payable": false,
      "stateMutability": "nonpayable",
      "type": "function"
    },
    {
      "constant": true,
      "inputs": [],
      "name": "interestRateModel",
      "outputs": [
        {
          "internalType": "contract InterestRateModel",
          "name": "",
          "type": "address"
        }
      ],
      "payable": false,
      "stateMutability": "view",
      "type": "function"
    },
    {
      "constant": true,
      "inputs": [],
      "name": "isCToken",
      "outputs": [
        {
          "internalType": "bool",
          "name": "",
          "type": "bool"
        }
      ],
      "payable": false,
      "stateMutability": "view",
      "type": "function"
    },
    {
      "constant": false,
      "inputs": [
        {
          "internalType": "address",
          "name": "borrower",
          "type": "address"
        },
        {
          "internalType": "uint256",
          "name": "repayAmount",
          "type": "uint256"
        },
        {
          "internalType": "contract CTokenInterface",
          "name": "cTokenCollateral",
          "type": "address"
        }
      ],
      "name": "liquidateBorrow",
      "outputs": [
        {
          "internalType": "uint256",
          "name": "",
          "type": "uint256"
        }
      ],
      "payable": false,
      "stateMutability": "nonpayable",
      "type": "function"
    },
    {
      "constant": false,
      "inputs": [
        {
          "internalType": "uint256",
          "name": "mintAmount",
          "type": "uint256"
        }
      ],
      "name": "mint",
      "outputs": [
        {
          "internalType": "uint256",
          "name": "",
          "type": "uint256"
        }
      ],
      "payable": false,
      "stateMutability": "nonpayable",
      "type": "function"
    },
    {
      "constant": false,
      "inputs": [],
      "name": "mintNative",
      "outputs": [
        {
          "internalType": "uint256",
          "name": "",
          "type": "uint256"
        }
      ],
      "payable": true,
      "stateMutability": "payable",
      "type": "function"
    },
    {
      "constant": true,
      "inputs": [],
      "name": "name",
      "outputs": [
        {
          "internalType": "string",
          "name": "",
          "type": "string"
        }
      ],
      "payable": false,
      "stateMutability": "view",
      "type": "function"
    },
    {
      "constant": true,
      "inputs": [],
      "name": "pendingAdmin",
      "outputs": [
        {
          "internalType": "address payable",
          "name": "",
          "type": "address"
        }
      ],
      "payable": false,
      "stateMutability": "view",
      "type": "function"
    },
    {
      "constant": true,
      "inputs": [],
      "name": "protocolSeizeShareMantissa",
      "outputs": [
        {
          "internalType": "uint256",
          "name": "",
          "type": "uint256"
        }
      ],
      "payable": false,
      "stateMutability": "view",
      "type": "function"
    },
    {
      "constant": false,
      "inputs": [
        {
          "internalType": "uint256",
          "name": "redeemTokens",
          "type": "uint256"
        }
      ],
      "name": "redeem",
      "outputs": [
        {
          "internalType": "uint256",
          "name": "",
          "type": "uint256"
        }
      ],
      "payable": false,
      "stateMutability": "nonpayable",
      "type": "function"
    },
    {
      "constant": false,
      "inputs": [
        {
          "internalType": "uint256",
          "name": "redeemTokens",
          "type": "uint256"
        }
      ],
      "name": "redeemNative",
      "outputs": [
        {
          "internalType": "uint256",
          "name": "",
          "type": "uint256"
        }
      ],
      "payable": false,
      "stateMutability": "nonpayable",
      "type": "function"
    },
    {
      "constant": false,
      "inputs": [
        {
          "internalType": "uint256",
          "name": "redeemAmount",
          "type": "uint256"
        }
      ],
      "name": "redeemUnderlying",
      "outputs": [
        {
          "internalType": "uint256",
          "name": "",
          "type": "uint256"
        }
      ],
      "payable": false,
      "stateMutability": "nonpayable",
      "type": "function"
    },
    {
      "constant": false,
      "inputs": [
        {
          "internalType": "uint256",
          "name": "redeemAmount",
          "type": "uint256"
        }
      ],
      "name": "redeemUnderlyingNative",
      "outputs": [
        {
          "internalType": "uint256",
          "name": "",
          "type": "uint256"
        }
      ],
      "payable": false,
      "stateMutability": "nonpayable",
      "type": "function"
    },
    {
      "constant": false,
      "inputs": [
        {
          "internalType": "uint256",
          "name": "repayAmount",
          "type": "uint256"
        }
      ],
      "name": "repayBorrow",
      "outputs": [
        {
          "internalType": "uint256",
          "name": "",
          "type": "uint256"
        }
      ],
      "payable": false,
      "stateMutability": "nonpayable",
      "type": "function"
    },
    {
      "constant": false,
      "inputs": [
        {
          "internalType": "address",
          "name": "borrower",
          "type": "address"
        },
        {
          "internalType": "uint256",
          "name": "repayAmount",
          "type": "uint256"
        }
      ],
      "name": "repayBorrowBehalf",
      "outputs": [
        {
          "internalType": "uint256",
          "name": "",
          "type": "uint256"
        }
      ],
      "payable": false,
      "stateMutability": "nonpayable",
      "type": "function"
    },
    {
      "constant": false,
      "inputs": [
        {
          "internalType": "address",
          "name": "borrower",
          "type": "address"
        }
      ],
      "name": "repayBorrowBehalfNative",
      "outputs": [],
      "payable": true,
      "stateMutability": "payable",
      "type": "function"
    },
    {
      "constant": false,
      "inputs": [],
      "name": "repayBorrowNative",
      "outputs": [],
      "payable": true,
      "stateMutability": "payable",
      "type": "function"
    },
    {
      "constant": true,
      "inputs": [],
      "name": "reserveFactorMantissa",
      "outputs": [
        {
          "internalType": "uint256",
          "name": "",
          "type": "uint256"
        }
      ],
      "payable": false,
      "stateMutability": "view",
      "type": "function"
    },
    {
      "constant": false,
      "inputs": [
        {
          "internalType": "address",
          "name": "liquidator",
          "type": "address"
        },
        {
          "internalType": "address",
          "name": "borrower",
          "type": "address"
        },
        {
          "internalType": "uint256",
          "name": "seizeTokens",
          "type": "uint256"
        }
      ],
      "name": "seize",
      "outputs": [
        {
          "internalType": "uint256",
          "name": "",
          "type": "uint256"
        }
      ],
      "payable": false,
      "stateMutability": "nonpayable",
      "type": "function"
    },
    {
      "constant": true,
      "inputs": [],
      "name": "supplyRatePerBlock",
      "outputs": [
        {
          "internalType": "uint256",
          "name": "",
          "type": "uint256"
        }
      ],
      "payable": false,
      "stateMutability": "view",
      "type": "function"
    },
    {
      "constant": false,
      "inputs": [
        {
          "internalType": "contract EIP20NonStandardInterface",
          "name": "token",
          "type": "address"
        }
      ],
      "name": "sweepToken",
      "outputs": [],
      "payable": false,
      "stateMutability": "nonpayable",
      "type": "function"
    },
    {
      "constant": true,
      "inputs": [],
      "name": "symbol",
      "outputs": [
        {
          "internalType": "string",
          "name": "",
          "type": "string"
        }
      ],
      "payable": false,
      "stateMutability": "view",
      "type": "function"
    },
    {
      "constant": true,
      "inputs": [],
      "name": "totalBorrows",
      "outputs": [
        {
          "internalType": "uint256",
          "name": "",
          "type": "uint256"
        }
      ],
      "payable": false,
      "stateMutability": "view",
      "type": "function"
    },
    {
      "constant": false,
      "inputs": [],
      "name": "totalBorrowsCurrent",
      "outputs": [
        {
          "internalType": "uint256",
          "name": "",
          "type": "uint256"
        }
      ],
      "payable": false,
      "stateMutability": "nonpayable",
      "type": "function"
    },
    {
      "constant": true,
      "inputs": [],
      "name": "totalReserves",
      "outputs": [
        {
          "internalType": "uint256",
          "name": "",
          "type": "uint256"
        }
      ],
      "payable": false,
      "stateMutability": "view",
      "type": "function"
    },
    {
      "constant": true,
      "inputs": [],
      "name": "totalSupply",
      "outputs": [
        {
          "internalType": "uint256",
          "name": "",
          "type": "uint256"
        }
      ],
      "payable": false,
      "stateMutability": "view",
      "type": "function"
    },
    {
      "constant": false,
      "inputs": [
        {
          "internalType": "address",
          "name": "dst",
          "type": "address"
        },
        {
          "internalType": "uint256",
          "name": "amount",
          "type": "uint256"
        }
      ],
      "name": "transfer",
      "outputs": [
        {
          "internalType": "bool",
          "name": "",
          "type": "bool"
        }
      ],
      "payable": false,
      "stateMutability": "nonpayable",
      "type": "function"
    },
    {
      "constant": false,
      "inputs": [
        {
          "internalType": "address",
          "name": "src",
          "type": "address"
        },
        {
          "internalType": "address",
          "name": "dst",
          "type": "address"
        },
        {
          "internalType": "uint256",
          "name": "amount",
          "type": "uint256"
        }
      ],
      "name": "transferFrom",
      "outputs": [
        {
          "internalType": "bool",
          "name": "",
          "type": "bool"
        }
      ],
      "payable": false,
      "stateMutability": "nonpayable",
      "type": "function"
    },
    {
      "constant": true,
      "inputs": [],
      "name": "underlying",
      "outputs": [
        {
          "internalType": "address",
          "name": "",
          "type": "address"
        }
      ],
      "payable": false,
      "stateMutability": "view",
      "type": "function"
    }
  ],
  "transactionHash": "0x00139d6dfd8bce3de7552c505b844a648179080787820ced05a4fce512f1192f",
  "args": [],
  "solcInputHash": "4f7891a68209ad3b0922ea01ad77e7d8",
  "bytecode": "0x608060405234801561001057600080fd5b50615ec280620000216000396000f3fe6080604052600436106103975760003560e01c8063852a12e3116101dc578063c37f68e211610102578063e9c714f2116100a0578063f851a4401161006f578063f851a44014610fde578063f8f9da2814610ff3578063fca7820b14611008578063fe9c44ae1461103257610397565b8063e9c714f214610f3e578063f2b3abbd14610f53578063f3fdb15a14610f86578063f5e3c46214610f9b57610397565b8063db006a75116100dc578063db006a7514610e89578063dbf7692914610eb3578063dd62ed3e14610ed9578063dff7648414610f1457610397565b8063c37f68e214610dd3578063c5ead62214610e2c578063c5ebeaec14610e5f57610397565b8063a0712d681161017a578063ae9d70b011610149578063ae9d70b014610d33578063b2a02ff114610d48578063b71d1a0c14610d8b578063bd6d894d14610dbe57610397565b8063a0712d6814610ca6578063a6afed9514610cd0578063a9059cbb14610ce5578063aa5af0fd14610d1e57610397565b80638f840ddd116101b65780638f840ddd14610aee57806395d89b4114610b0357806395dd919314610b1857806399d8c1b414610b4b57610397565b8063852a12e314610a92578063884b934314610abc5780638d3f9c6214610ae657610397565b80633af9e669116102c15780635fe3b5671161025f5780636f307dc31161022e5780636f307dc314610a2057806370a0823114610a3557806373acee9814610a68578063749f104414610a7d57610397565b80635fe3b567146109b7578063601a0bf1146109cc5780636752e702146109f65780636c540baf14610a0b57610397565b80634576b5db1161029b5780634576b5db1461089457806347bd3718146108c75780634bf03edf146108dc57806356e677281461090657610397565b80633af9e669146108225780633b1d21a2146108555780633e9410101461086a57610397565b8063182df0f51161033957806323b872dd1161030857806323b872dd1461074a5780632608f8181461078d57806326782247146107c6578063313ce567146107f757610397565b8063182df0f5146105975780631a31d465146105ac5780631be195601461070f578063219f2fe71461074257610397565b8063153ab50511610375578063153ab50514610523578063173b99041461053a57806317bfdfbc1461054f57806318160ddd1461058257610397565b806306fdde0314610410578063095ea7b31461049a5780630e752702146104e7575b6011805460ff60a01b1916600160a01b179055601254336001600160a01b0390911614156103c457610401565b60006103cf34611047565b5090506103ff816040518060400160405280600b81526020016a1b5a5b9d0819985a5b195960aa1b8152506110ef565b505b6011805460ff60a01b19169055005b34801561041c57600080fd5b506104256112ef565b6040805160208082528351818301528351919283929083019185019080838360005b8381101561045f578181015183820152602001610447565b50505050905090810190601f16801561048c5780820380516001836020036101000a031916815260200191505b509250505060405180910390f35b3480156104a657600080fd5b506104d3600480360360408110156104bd57600080fd5b506001600160a01b03813516906020013561137c565b604080519115158252519081900360200190f35b3480156104f357600080fd5b506105116004803603602081101561050a57600080fd5b50356113e9565b60408051918252519081900360200190f35b34801561052f57600080fd5b506105386113ff565b005b34801561054657600080fd5b5061051161144f565b34801561055b57600080fd5b506105116004803603602081101561057257600080fd5b50356001600160a01b0316611455565b34801561058e57600080fd5b50610511611515565b3480156105a357600080fd5b5061051161151b565b3480156105b857600080fd5b50610538600480360360e08110156105cf57600080fd5b6001600160a01b03823581169260208101358216926040820135909216916060820135919081019060a081016080820135600160201b81111561061157600080fd5b82018360208201111561062357600080fd5b803590602001918460018302840111600160201b8311171561064457600080fd5b91908080601f0160208091040260200160405190810160405280939291908181526020018383808284376000920191909152509295949360208101935035915050600160201b81111561069657600080fd5b8201836020820111156106a857600080fd5b803590602001918460018302840111600160201b831117156106c957600080fd5b91908080601f0160208091040260200160405190810160405280939291908181526020018383808284376000920191909152509295505050903560ff16915061157e9050565b34801561071b57600080fd5b506105386004803603602081101561073257600080fd5b50356001600160a01b031661161d565b610511611759565b34801561075657600080fd5b506104d36004803603606081101561076d57600080fd5b506001600160a01b0381358116916020810135909116906040013561178c565b34801561079957600080fd5b50610511600480360360408110156107b057600080fd5b506001600160a01b0381351690602001356117fe565b3480156107d257600080fd5b506107db611814565b604080516001600160a01b039092168252519081900360200190f35b34801561080357600080fd5b5061080c611823565b6040805160ff9092168252519081900360200190f35b34801561082e57600080fd5b506105116004803603602081101561084557600080fd5b50356001600160a01b031661182c565b34801561086157600080fd5b506105116118e2565b34801561087657600080fd5b506105116004803603602081101561088d57600080fd5b50356118f1565b3480156108a057600080fd5b50610511600480360360208110156108b757600080fd5b50356001600160a01b03166118fc565b3480156108d357600080fd5b50610511611a51565b3480156108e857600080fd5b50610511600480360360208110156108ff57600080fd5b5035611a57565b34801561091257600080fd5b506105386004803603602081101561092957600080fd5b810190602081018135600160201b81111561094357600080fd5b82018360208201111561095557600080fd5b803590602001918460018302840111600160201b8311171561097657600080fd5b91908080601f016020809104026020016040519081016040528093929190818152602001838380828437600092019190915250929550611a88945050505050565b3480156109c357600080fd5b506107db611ad9565b3480156109d857600080fd5b50610511600480360360208110156109ef57600080fd5b5035611ae8565b348015610a0257600080fd5b50610511611b83565b348015610a1757600080fd5b50610511611b8e565b348015610a2c57600080fd5b506107db611b94565b348015610a4157600080fd5b5061051160048036036020811015610a5857600080fd5b50356001600160a01b0316611ba3565b348015610a7457600080fd5b50610511611bbe565b348015610a8957600080fd5b506107db611c74565b348015610a9e57600080fd5b5061051160048036036020811015610ab557600080fd5b5035611c83565b348015610ac857600080fd5b5061051160048036036020811015610adf57600080fd5b5035611c8e565b610538611cac565b348015610afa57600080fd5b50610511611d11565b348015610b0f57600080fd5b50610425611d17565b348015610b2457600080fd5b5061051160048036036020811015610b3b57600080fd5b50356001600160a01b0316611d6f565b348015610b5757600080fd5b50610538600480360360c0811015610b6e57600080fd5b6001600160a01b03823581169260208101359091169160408201359190810190608081016060820135600160201b811115610ba857600080fd5b820183602082011115610bba57600080fd5b803590602001918460018302840111600160201b83111715610bdb57600080fd5b91908080601f0160208091040260200160405190810160405280939291908181526020018383808284376000920191909152509295949360208101935035915050600160201b811115610c2d57600080fd5b820183602082011115610c3f57600080fd5b803590602001918460018302840111600160201b83111715610c6057600080fd5b91908080601f0160208091040260200160405190810160405280939291908181526020018383808284376000920191909152509295505050903560ff169150611dcc9050565b348015610cb257600080fd5b5061051160048036036020811015610cc957600080fd5b5035611fb3565b348015610cdc57600080fd5b50610511611fbf565b348015610cf157600080fd5b506104d360048036036040811015610d0857600080fd5b506001600160a01b038135169060200135612317565b348015610d2a57600080fd5b50610511612388565b348015610d3f57600080fd5b5061051161238e565b348015610d5457600080fd5b5061051160048036036060811015610d6b57600080fd5b506001600160a01b0381358116916020810135909116906040013561242d565b348015610d9757600080fd5b5061051160048036036020811015610dae57600080fd5b50356001600160a01b031661249e565b348015610dca57600080fd5b5061051161252a565b348015610ddf57600080fd5b50610e0660048036036020811015610df657600080fd5b50356001600160a01b03166125e6565b604080519485526020850193909352838301919091526060830152519081900360800190f35b348015610e3857600080fd5b5061051160048036036020811015610e4f57600080fd5b50356001600160a01b031661267b565b348015610e6b57600080fd5b5061051160048036036020811015610e8257600080fd5b5035612707565b348015610e9557600080fd5b5061051160048036036020811015610eac57600080fd5b5035612712565b61053860048036036020811015610ec957600080fd5b50356001600160a01b031661271d565b348015610ee557600080fd5b5061051160048036036040811015610efc57600080fd5b506001600160a01b038135811691602001351661278f565b348015610f2057600080fd5b5061051160048036036020811015610f3757600080fd5b50356127ba565b348015610f4a57600080fd5b506105116127d8565b348015610f5f57600080fd5b5061051160048036036020811015610f7657600080fd5b50356001600160a01b03166128db565b348015610f9257600080fd5b506107db612915565b348015610fa757600080fd5b5061051160048036036060811015610fbe57600080fd5b506001600160a01b03813581169160208101359160409091013516612924565b348015610fea57600080fd5b506107db61293c565b348015610fff57600080fd5b50610511612950565b34801561101457600080fd5b506105116004803603602081101561102b57600080fd5b50356129b4565b34801561103e57600080fd5b506104d3612a32565b60008054819060ff1661108e576040805162461bcd60e51b815260206004820152600a6024820152691c994b595b9d195c995960b21b604482015290519081900360640190fd5b6000805460ff191681556110a0611fbf565b905080156110cb576110be8160108111156110b757fe5b601e612a37565b9250600091506110db9050565b6110d53385612a9d565b92509250505b6000805460ff191660011790559092909150565b816110f9576112eb565b606081516005016040519080825280601f01601f19166020018201604052801561112a576020820181803883390190505b50905060005b825181101561117b5782818151811061114557fe5b602001015160f81c60f81b82828151811061115c57fe5b60200101906001600160f81b031916908160001a905350600101611130565b8151600160fd1b9083908390811061118f57fe5b60200101906001600160f81b031916908160001a905350602860f81b8282600101815181106111ba57fe5b60200101906001600160f81b031916908160001a905350600a840460300160f81b8282600201815181106111ea57fe5b60200101906001600160f81b031916908160001a905350600a840660300160f81b82826003018151811061121a57fe5b60200101906001600160f81b031916908160001a905350602960f81b82826004018151811061124557fe5b60200101906001600160f81b031916908160001a9053508184156112e75760405162461bcd60e51b81526004018080602001828103825283818151815260200191508051906020019080838360005b838110156112ac578181015183820152602001611294565b50505050905090810190601f1680156112d95780820380516001836020036101000a031916815260200191505b509250505060405180910390fd5b5050505b5050565b60018054604080516020600284861615610100026000190190941693909304601f810184900484028201840190925281815292918301828280156113745780601f1061134957610100808354040283529160200191611374565b820191906000526020600020905b81548152906001019060200180831161135757829003601f168201915b505050505081565b336000818152600f602090815260408083206001600160a01b03871680855290835281842086905581518681529151939493909284927f8c5be1e5ebec7d5bd14f71427d1e84f3dd0314c0f7b2291e5b200ac8c7c3b925929081900390910190a360019150505b92915050565b6000806113f583612e6f565b509150505b919050565b60035461010090046001600160a01b0316331461144d5760405162461bcd60e51b815260040180806020018281038252602d815260200180615c5f602d913960400191505060405180910390fd5b565b60085481565b6000805460ff1661149a576040805162461bcd60e51b815260206004820152600a6024820152691c994b595b9d195c995960b21b604482015290519081900360640190fd5b6000805460ff191681556114ac611fbf565b146114f7576040805162461bcd60e51b81526020600482015260166024820152751858d8dc9d59481a5b9d195c995cdd0819985a5b195960521b604482015290519081900360640190fd5b61150082611d6f565b90505b6000805460ff19166001179055919050565b600d5481565b6000806000611528612ef1565b9092509050600082600381111561153b57fe5b146115775760405162461bcd60e51b8152600401808060200182810382526035815260200180615dac6035913960400191505060405180910390fd5b9150505b90565b61158c868686868686611dcc565b601280546001600160a01b0319166001600160a01b038981169190911791829055604080516318160ddd60e01b8152905192909116916318160ddd91600480820192602092909190829003018186803b1580156115e857600080fd5b505afa1580156115fc573d6000803e3d6000fd5b505050506040513d602081101561161257600080fd5b505050505050505050565b6012546001600160a01b038281169116141561166a5760405162461bcd60e51b8152600401808060200182810382526032815260200180615bdb6032913960400191505060405180910390fd5b604080516370a0823160e01b815230600482015290516000916001600160a01b038416916370a0823191602480820192602092909190829003018186803b1580156116b457600080fd5b505afa1580156116c8573d6000803e3d6000fd5b505050506040513d60208110156116de57600080fd5b50516003546040805163a9059cbb60e01b81526101009092046001600160a01b03908116600484015260248301849052905192935084169163a9059cbb9160448082019260009290919082900301818387803b15801561173d57600080fd5b505af1158015611751573d6000803e3d6000fd5b505050505050565b6011805460ff60a01b1916600160a01b17905560008061177834611047565b509150506011805460ff60a01b1916905590565b6000805460ff166117d1576040805162461bcd60e51b815260206004820152600a6024820152691c994b595b9d195c995960b21b604482015290519081900360640190fd5b6000805460ff191681556117e733868686612fa0565b1490506000805460ff191660011790559392505050565b60008061180b848461322c565b50949350505050565b6004546001600160a01b031681565b60035460ff1681565b60006118366159ee565b604051806020016040528061184961252a565b90526001600160a01b0384166000908152600e60205260408120549192509081906118759084906132d7565b9092509050600082600381111561188857fe5b146118da576040805162461bcd60e51b815260206004820152601f60248201527f62616c616e636520636f756c64206e6f742062652063616c63756c6174656400604482015290519081900360640190fd5b949350505050565b60006118ec61332a565b905090565b60006113e3826133aa565b60035460009061010090046001600160a01b03163314611929576119226001603f612a37565b90506113fa565b60055460408051623f1ee960e11b815290516001600160a01b0392831692851691627e3dd2916004808301926020929190829003018186803b15801561196e57600080fd5b505afa158015611982573d6000803e3d6000fd5b505050506040513d602081101561199857600080fd5b50516119eb576040805162461bcd60e51b815260206004820152601c60248201527f6d61726b6572206d6574686f642072657475726e65642066616c736500000000604482015290519081900360640190fd5b600580546001600160a01b0319166001600160a01b03858116918217909255604080519284168352602083019190915280517f7ac369dbd14fa5ea3f473ed67cc9d598964a77501540ba6751eb0b3decf5870d9281900390910190a160005b9392505050565b600b5481565b6011805460ff60a01b1916600160a01b1790556000611a758261343e565b6011805460ff60a01b1916905592915050565b60035461010090046001600160a01b03163314611ad65760405162461bcd60e51b815260040180806020018281038252602d815260200180615e61602d913960400191505060405180910390fd5b50565b6005546001600160a01b031681565b6000805460ff16611b2d576040805162461bcd60e51b815260206004820152600a6024820152691c994b595b9d195c995960b21b604482015290519081900360640190fd5b6000805460ff19168155611b3f611fbf565b90508015611b6557611b5d816010811115611b5657fe5b6030612a37565b915050611503565b611b6e836134bf565b9150506000805460ff19166001179055919050565b666379da05b6000081565b60095481565b6012546001600160a01b031681565b6001600160a01b03166000908152600e602052604090205490565b6000805460ff16611c03576040805162461bcd60e51b815260206004820152600a6024820152691c994b595b9d195c995960b21b604482015290519081900360640190fd5b6000805460ff19168155611c15611fbf565b14611c60576040805162461bcd60e51b81526020600482015260166024820152751858d8dc9d59481a5b9d195c995cdd0819985a5b195960521b604482015290519081900360640190fd5b50600b546000805460ff1916600117905590565b6011546001600160a01b031681565b60006113e3826135e9565b6011805460ff60a01b1916600160a01b1790556000611a7582613663565b6011805460ff60a01b1916600160a01b1790556000611cca34612e6f565b509050611d0181604051806040016040528060128152602001711c995c185e509bdc9c9bddc819985a5b195960721b8152506110ef565b506011805460ff60a01b19169055565b600c5481565b6002805460408051602060018416156101000260001901909316849004601f810184900484028201840190925281815292918301828280156113745780601f1061134957610100808354040283529160200191611374565b6000806000611d7d846136e2565b90925090506000826003811115611d9057fe5b14611a4a5760405162461bcd60e51b8152600401808060200182810382526037815260200180615cb76037913960400191505060405180910390fd5b60035461010090046001600160a01b03163314611e1a5760405162461bcd60e51b8152600401808060200182810382526024815260200180615b946024913960400191505060405180910390fd5b600954158015611e2a5750600a54155b611e655760405162461bcd60e51b8152600401808060200182810382526023815260200180615bb86023913960400191505060405180910390fd5b600784905583611ea65760405162461bcd60e51b8152600401808060200182810382526030815260200180615c0d6030913960400191505060405180910390fd5b6000611eb1876118fc565b90508015611f06576040805162461bcd60e51b815260206004820152601a60248201527f73657474696e6720636f6d7074726f6c6c6572206661696c6564000000000000604482015290519081900360640190fd5b611f0e613796565b600955670de0b6b3a7640000600a55611f268661379a565b90508015611f655760405162461bcd60e51b8152600401808060200182810382526022815260200180615c3d6022913960400191505060405180910390fd5b8351611f78906001906020870190615a01565b508251611f8c906002906020860190615a01565b50506003805460ff90921660ff199283161790556000805490911660011790555050505050565b6000806113f583611047565b600080611fca613796565b60095490915080821415611fe35760009250505061157b565b6000611fed61332a565b600b54600c54600a54600654604080516315f2405360e01b815260048101879052602481018690526044810185905290519596509394929391926000926001600160a01b03909216916315f24053916064808301926020929190829003018186803b15801561205b57600080fd5b505afa15801561206f573d6000803e3d6000fd5b505050506040513d602081101561208557600080fd5b5051905065048c273950008111156120e4576040805162461bcd60e51b815260206004820152601c60248201527f626f72726f772072617465206973206162737572646c79206869676800000000604482015290519081900360640190fd5b6000806120f1898961390f565b9092509050600082600381111561210457fe5b14612156576040805162461bcd60e51b815260206004820152601f60248201527f636f756c64206e6f742063616c63756c61746520626c6f636b2064656c746100604482015290519081900360640190fd5b61215e6159ee565b60008060008061217c60405180602001604052808a81525087613932565b9097509450600087600381111561218f57fe5b146121c1576121ac600960068960038111156121a757fe5b61399a565b9e50505050505050505050505050505061157b565b6121cb858c6132d7565b909750935060008760038111156121de57fe5b146121f6576121ac600960018960038111156121a757fe5b612200848c613a00565b9097509250600087600381111561221357fe5b1461222b576121ac600960048960038111156121a757fe5b6122466040518060200160405280600854815250858c613a26565b9097509150600087600381111561225957fe5b14612271576121ac600960058960038111156121a757fe5b61227c858a8b613a26565b9097509050600087600381111561228f57fe5b146122a7576121ac600960038960038111156121a757fe5b60098e9055600a819055600b839055600c829055604080518d8152602081018690528082018390526060810185905290517f4dec04e750ca11537cabcd8a9eab06494de08da3735bc8871cd41250e190bc049181900360800190a160009e50505050505050505050505050505090565b6000805460ff1661235c576040805162461bcd60e51b815260206004820152600a6024820152691c994b595b9d195c995960b21b604482015290519081900360640190fd5b6000805460ff1916815561237233338686612fa0565b1490506000805460ff1916600117905592915050565b600a5481565b6006546000906001600160a01b031663b81688166123aa61332a565b600b54600c546008546040518563ffffffff1660e01b81526004018085815260200184815260200183815260200182815260200194505050505060206040518083038186803b1580156123fc57600080fd5b505afa158015612410573d6000803e3d6000fd5b505050506040513d602081101561242657600080fd5b5051905090565b6000805460ff16612472576040805162461bcd60e51b815260206004820152600a6024820152691c994b595b9d195c995960b21b604482015290519081900360640190fd5b6000805460ff1916905561248833858585613a82565b90506000805460ff191660011790559392505050565b60035460009061010090046001600160a01b031633146124c45761192260016045612a37565b600480546001600160a01b038481166001600160a01b0319831681179093556040805191909216808252602082019390935281517fca4f2f25d0898edd99413412fb94012f9e54ec8142f9b093e7720646a95b16a9929181900390910190a16000611a4a565b6000805460ff1661256f576040805162461bcd60e51b815260206004820152600a6024820152691c994b595b9d195c995960b21b604482015290519081900360640190fd5b6000805460ff19168155612581611fbf565b146125cc576040805162461bcd60e51b81526020600482015260166024820152751858d8dc9d59481a5b9d195c995cdd0819985a5b195960521b604482015290519081900360640190fd5b6125d461151b565b90506000805460ff1916600117905590565b6001600160a01b0381166000908152600e6020526040812054819081908190818080612611896136e2565b93509050600081600381111561262357fe5b146126415760095b9750600096508695508594506126749350505050565b612649612ef1565b92509050600081600381111561265b57fe5b1461266757600961262b565b5060009650919450925090505b9193509193565b60035460009061010090046001600160a01b031633146126a15761192260016042612a37565b601180546001600160a01b038481166001600160a01b0319831681179093556040805191909216808252602082019390935281517fdff56ee631cd7f71a6f089efee2defca6b87ffb37f48c860490d92c360c96a81929181900390910190a16000611a4a565b60006113e382613663565b60006113e38261343e565b6011805460ff60a01b1916600160a01b179055600061273c823461322c565b50905061277e816040518060400160405280601881526020017f7265706179426f72726f77426568616c66206661696c656400000000000000008152506110ef565b50506011805460ff60a01b19169055565b6001600160a01b039182166000908152600f6020908152604080832093909416825291909152205490565b6011805460ff60a01b1916600160a01b1790556000611a75826135e9565b6004546000906001600160a01b0316331415806127f3575033155b1561280b5761280460016000612a37565b905061157b565b60038054600480546001600160a01b03818116610100818102610100600160a81b0319871617968790556001600160a01b031990931690935560408051948390048216808652929095041660208401528351909391927ff9ffabca9c8276e99321725bcb43fb076a6c66a54b7f21c4e8146d8519b417dc92908290030190a1600454604080516001600160a01b038085168252909216602083015280517fca4f2f25d0898edd99413412fb94012f9e54ec8142f9b093e7720646a95b16a99281900390910190a160009250505090565b6000806128e6611fbf565b9050801561290c576129048160108111156128fd57fe5b6040612a37565b9150506113fa565b611a4a8361379a565b6006546001600160a01b031681565b600080612932858585613e5c565b5095945050505050565b60035461010090046001600160a01b031681565b6006546000906001600160a01b03166315f2405361296c61332a565b600b54600c546040518463ffffffff1660e01b815260040180848152602001838152602001828152602001935050505060206040518083038186803b1580156123fc57600080fd5b6000805460ff166129f9576040805162461bcd60e51b815260206004820152600a6024820152691c994b595b9d195c995960b21b604482015290519081900360640190fd5b6000805460ff19168155612a0b611fbf565b90508015612a2957611b5d816010811115612a2257fe5b6046612a37565b611b6e83613f8e565b600181565b60007f45b96fe442630264581b197e84bbada861235052c5a1aadfff9ea4e40a969aa0836010811115612a6657fe5b836050811115612a7257fe5b604080519283526020830191909152600082820152519081900360600190a1826010811115611a4a57fe5b60055460408051634ef4c3e160e01b81523060048201526001600160a01b03858116602483015260448201859052915160009384938493911691634ef4c3e19160648082019260209290919082900301818787803b158015612afe57600080fd5b505af1158015612b12573d6000803e3d6000fd5b505050506040513d6020811015612b2857600080fd5b505190508015612b4c57612b3f6003601f8361399a565b925060009150612e689050565b612b54613796565b60095414612b6857612b3f600a6022612a37565b612b70615a7f565b612b78612ef1565b6040830181905260208301826003811115612b8f57fe5b6003811115612b9a57fe5b9052506000905081602001516003811115612bb157fe5b14612bdb57612bcd60096021836020015160038111156121a757fe5b935060009250612e68915050565b612be58686614036565b60c0820181905260408051602081018252908301518152612c06919061439c565b6060830181905260208301826003811115612c1d57fe5b6003811115612c2857fe5b9052506000905081602001516003811115612c3f57fe5b14612c91576040805162461bcd60e51b815260206004820181905260248201527f4d494e545f45584348414e47455f43414c43554c4154494f4e5f4641494c4544604482015290519081900360640190fd5b612ca1600d548260600151613a00565b6080830181905260208301826003811115612cb857fe5b6003811115612cc357fe5b9052506000905081602001516003811115612cda57fe5b14612d165760405162461bcd60e51b8152600401808060200182810382526028815260200180615de16028913960400191505060405180910390fd5b6001600160a01b0386166000908152600e60205260409020546060820151612d3e9190613a00565b60a0830181905260208301826003811115612d5557fe5b6003811115612d6057fe5b9052506000905081602001516003811115612d7757fe5b14612db35760405162461bcd60e51b815260040180806020018281038252602b815260200180615c8c602b913960400191505060405180910390fd5b6080810151600d5560a08101516001600160a01b0387166000818152600e60209081526040918290209390935560c084015160608086015183519485529484019190915282820193909352517f4c209b5fc8ad50758f13e2e1088ba56a560dff690a1c6fef26394f4c03821c4f929181900390910190a1606081015160408051918252516001600160a01b038816913091600080516020615d288339815191529181900360200190a360c00151600093509150505b9250929050565b60008054819060ff16612eb6576040805162461bcd60e51b815260206004820152600a6024820152691c994b595b9d195c995960b21b604482015290519081900360640190fd5b6000805460ff19168155612ec8611fbf565b90508015612ee6576110be816010811115612edf57fe5b6036612a37565b6110d53333866143b3565b600d54600090819080612f0c57505060075460009150612f9c565b6000612f1661332a565b90506000612f226159ee565b6000612f3384600b54600c54614701565b935090506000816003811115612f4557fe5b14612f5a57955060009450612f9c9350505050565b612f64838661473f565b925090506000816003811115612f7657fe5b14612f8b57955060009450612f9c9350505050565b5051600095509350612f9c92505050565b9091565b600554604080516317b9b84b60e31b81523060048201526001600160a01b03868116602483015285811660448301526064820185905291516000938493169163bdcdc25891608480830192602092919082900301818787803b15801561300557600080fd5b505af1158015613019573d6000803e3d6000fd5b505050506040513d602081101561302f57600080fd5b50519050801561304e576130466003604a8361399a565b9150506118da565b836001600160a01b0316856001600160a01b03161415613074576130466002604b612a37565b60006001600160a01b03878116908716141561309357506000196130bb565b506001600160a01b038086166000908152600f60209081526040808320938a16835292905220545b6000806000806130cb858961390f565b909450925060008460038111156130de57fe5b146130fc576130ef6009604b612a37565b96505050505050506118da565b6001600160a01b038a166000908152600e602052604090205461311f908961390f565b9094509150600084600381111561313257fe5b14613143576130ef6009604c612a37565b6001600160a01b0389166000908152600e60205260409020546131669089613a00565b9094509050600084600381111561317957fe5b1461318a576130ef6009604d612a37565b6001600160a01b03808b166000908152600e6020526040808220859055918b1681522081905560001985146131e2576001600160a01b03808b166000908152600f60209081526040808320938f168352929052208390555b886001600160a01b03168a6001600160a01b0316600080516020615d288339815191528a6040518082815260200191505060405180910390a35060009a9950505050505050505050565b60008054819060ff16613273576040805162461bcd60e51b815260206004820152600a6024820152691c994b595b9d195c995960b21b604482015290519081900360640190fd5b6000805460ff19168155613285611fbf565b905080156132b0576132a381601081111561329c57fe5b6035612a37565b9250600091506132c19050565b6132bb3386866143b3565b92509250505b6000805460ff1916600117905590939092509050565b60008060006132e46159ee565b6132ee8686613932565b9092509050600082600381111561330157fe5b146133125750915060009050612e68565b600061331d826147ef565b9350935050509250929050565b601254604080516370a0823160e01b815230600482015290516000926001600160a01b03169182916370a0823191602480820192602092909190829003018186803b15801561337857600080fd5b505afa15801561338c573d6000803e3d6000fd5b505050506040513d60208110156133a257600080fd5b505191505090565b6000805460ff166133ef576040805162461bcd60e51b815260206004820152600a6024820152691c994b595b9d195c995960b21b604482015290519081900360640190fd5b6000805460ff19168155613401611fbf565b9050801561341f57611b5d81601081111561341857fe5b604e612a37565b613428836147fe565b509150506000805460ff19166001179055919050565b6000805460ff16613483576040805162461bcd60e51b815260206004820152600a6024820152691c994b595b9d195c995960b21b604482015290519081900360640190fd5b6000805460ff19168155613495611fbf565b905080156134b357611b5d8160108111156134ac57fe5b6027612a37565b611b6e338460006148e6565b60115460009081906001600160a01b031633148015906134ef575060035461010090046001600160a01b03163314155b156135005761290460016031612a37565b613508613796565b6009541461351c57612904600a6033612a37565b8261352561332a565b101561353757612904600e6032612a37565b600c5483111561354d5761290460026034612a37565b50600c54828103908111156135935760405162461bcd60e51b8152600401808060200182810382526024815260200180615e3d6024913960400191505060405180910390fd5b600c8190556135a23384614dad565b604080513381526020810185905280820183905290517f3bad0c59cf2f06e7314077049f48a93578cd16f5ef92329f1dab1420a99c177e9181900360600190a16000611a4a565b6000805460ff1661362e576040805162461bcd60e51b815260206004820152600a6024820152691c994b595b9d195c995960b21b604482015290519081900360640190fd5b6000805460ff19168155613640611fbf565b9050801561365757611b5d8160108111156134ac57fe5b611b6e336000856148e6565b6000805460ff166136a8576040805162461bcd60e51b815260206004820152600a6024820152691c994b595b9d195c995960b21b604482015290519081900360640190fd5b6000805460ff191681556136ba611fbf565b905080156136d857611b5d8160108111156136d157fe5b6008612a37565b611b6e3384614f57565b6001600160a01b03811660009081526010602052604081208054829182918291829161371957506000945084935061379192505050565b6137298160000154600a546151eb565b9094509250600084600381111561373c57fe5b14613751575091935060009250613791915050565b61375f83826001015461522a565b9094509150600084600381111561377257fe5b14613787575091935060009250613791915050565b5060009450925050505b915091565b4290565b600354600090819061010090046001600160a01b031633146137c25761290460016042612a37565b6137ca613796565b600954146137de57612904600a6041612a37565b600660009054906101000a90046001600160a01b03169050826001600160a01b0316632191f92a6040518163ffffffff1660e01b815260040160206040518083038186803b15801561382f57600080fd5b505afa158015613843573d6000803e3d6000fd5b505050506040513d602081101561385957600080fd5b50516138ac576040805162461bcd60e51b815260206004820152601c60248201527f6d61726b6572206d6574686f642072657475726e65642066616c736500000000604482015290519081900360640190fd5b600680546001600160a01b0319166001600160a01b03858116918217909255604080519284168352602083019190915280517fedffc32e068c7c95dfd4bdfd5c4d939a084d6b11c4199eac8436ed234d72f9269281900390910190a16000611a4a565b600080838311613926575060009050818303612e68565b50600390506000612e68565b600061393c6159ee565b60008061394d8660000151866151eb565b9092509050600082600381111561396057fe5b1461397f57506040805160208101909152600081529092509050612e68565b60408051602081019091529081526000969095509350505050565b60007f45b96fe442630264581b197e84bbada861235052c5a1aadfff9ea4e40a969aa08460108111156139c957fe5b8460508111156139d557fe5b604080519283526020830191909152818101859052519081900360600190a18360108111156118da57fe5b600080838301848110613a1857600092509050612e68565b506002915060009050612e68565b6000806000613a336159ee565b613a3d8787613932565b90925090506000826003811115613a5057fe5b14613a615750915060009050613a7a565b613a73613a6d826147ef565b86613a00565b9350935050505b935093915050565b6005546040805163d02f735160e01b81523060048201526001600160a01b038781166024830152868116604483015285811660648301526084820185905291516000938493169163d02f73519160a480830192602092919082900301818787803b158015613aef57600080fd5b505af1158015613b03573d6000803e3d6000fd5b505050506040513d6020811015613b1957600080fd5b505190508015613b30576130466003601b8361399a565b846001600160a01b0316846001600160a01b03161415613b56576130466006601c612a37565b613b5e615abd565b6001600160a01b0385166000908152600e6020526040902054613b81908561390f565b6020830181905282826003811115613b9557fe5b6003811115613ba057fe5b9052506000905081516003811115613bb457fe5b14613bd957613bd06009601a836000015160038111156121a757fe5b925050506118da565b613bf8846040518060200160405280666379da05b60000815250615255565b60808201819052613c0a90859061527d565b6060820152613c17612ef1565b60c0830181905282826003811115613c2b57fe5b6003811115613c3657fe5b9052506000905081516003811115613c4a57fe5b14613c9c576040805162461bcd60e51b815260206004820152601860248201527f65786368616e67652072617465206d617468206572726f720000000000000000604482015290519081900360640190fd5b613cbc60405180602001604052808360c0015181525082608001516152b7565b60a08201819052600c54613ccf916152d6565b60e0820152600d546080820151613ce6919061527d565b6101008201526001600160a01b0386166000908152600e60205260409020546060820151613d149190613a00565b6040830181905282826003811115613d2857fe5b6003811115613d3357fe5b9052506000905081516003811115613d4757fe5b14613d6357613bd060096019836000015160038111156121a757fe5b60e0810151600c55610100810151600d556020808201516001600160a01b038088166000818152600e855260408082209490945583860151928b16808252908490209290925560608501518351908152925191939092600080516020615d28833981519152929081900390910190a36080810151604080519182525130916001600160a01b03881691600080516020615d288339815191529181900360200190a360a081015160e082015160408051308152602081019390935282810191909152517fa91e67c5ea634cd43a12c5a482724b03de01e85ca68702a53d0c2f45cb7c1dc59181900360600190a16000979650505050505050565b60008054819060ff16613ea3576040805162461bcd60e51b815260206004820152600a6024820152691c994b595b9d195c995960b21b604482015290519081900360640190fd5b6000805460ff19168155613eb5611fbf565b90508015613ee057613ed3816010811115613ecc57fe5b600f612a37565b925060009150613f779050565b836001600160a01b031663a6afed956040518163ffffffff1660e01b8152600401602060405180830381600087803b158015613f1b57600080fd5b505af1158015613f2f573d6000803e3d6000fd5b505050506040513d6020811015613f4557600080fd5b505190508015613f6557613ed3816010811115613f5e57fe5b6010612a37565b613f713387878761530c565b92509250505b6000805460ff191660011790559094909350915050565b60035460009061010090046001600160a01b03163314613fb45761192260016047612a37565b613fbc613796565b60095414613fd057611922600a6048612a37565b670de0b6b3a7640000821115613fec5761192260026049612a37565b6008805490839055604080518281526020810185905281517faaa68312e2ea9d50e16af5068410ab56e1a1fd06037b1a35664812c30f821460929181900390910190a16000611a4a565b601154600090600160a01b900460ff161561415057336001600160a01b0384161461409a576040805162461bcd60e51b815260206004820152600f60248201526e0e6cadcc8cae440dad2e6dac2e8c6d608b1b604482015290519081900360640190fd5b8134146140df576040805162461bcd60e51b815260206004820152600e60248201526d0ecc2d8eaca40dad2e6dac2e8c6d60931b604482015290519081900360640190fd5b601260009054906101000a90046001600160a01b03166001600160a01b031663d0e30db0836040518263ffffffff1660e01b81526004016000604051808303818588803b15801561412f57600080fd5b505af1158015614143573d6000803e3d6000fd5b50505050508190506113e3565b601254604080516370a0823160e01b815230600482015290516001600160a01b039092169160009183916370a0823191602480820192602092909190829003018186803b1580156141a057600080fd5b505afa1580156141b4573d6000803e3d6000fd5b505050506040513d60208110156141ca57600080fd5b5051604080516323b872dd60e01b81526001600160a01b038881166004830152306024830152604482018890529151929350908416916323b872dd9160648082019260009290919082900301818387803b15801561422757600080fd5b505af115801561423b573d6000803e3d6000fd5b5050505060003d60008114614257576020811461426157600080fd5b600019915061426d565b60206000803e60005191505b50806142c0576040805162461bcd60e51b815260206004820152601860248201527f544f4b454e5f5452414e534645525f494e5f4641494c45440000000000000000604482015290519081900360640190fd5b601254604080516370a0823160e01b815230600482015290516000926001600160a01b0316916370a08231916024808301926020929190829003018186803b15801561430b57600080fd5b505afa15801561431f573d6000803e3d6000fd5b505050506040513d602081101561433557600080fd5b505190508281101561438e576040805162461bcd60e51b815260206004820152601a60248201527f544f4b454e5f5452414e534645525f494e5f4f564552464c4f57000000000000604482015290519081900360640190fd5b8281039450505050506113e3565b60008060006143a96159ee565b6132ee86866157fe565b60055460408051631200453160e11b81523060048201526001600160a01b0386811660248301528581166044830152606482018590529151600093849384939116916324008a629160848082019260209290919082900301818787803b15801561441c57600080fd5b505af1158015614430573d6000803e3d6000fd5b505050506040513d602081101561444657600080fd5b50519050801561446a5761445d600360388361399a565b925060009150613a7a9050565b614472613796565b600954146144865761445d600a6039612a37565b61448e615b0a565b6001600160a01b03861660009081526010602052604090206001015460608201526144b8866136e2565b60808301819052602083018260038111156144cf57fe5b60038111156144da57fe5b90525060009050816020015160038111156144f157fe5b1461451b5761450d60096037836020015160038111156121a757fe5b935060009250613a7a915050565b600019851415614534576080810151604082015261453c565b604081018590525b61454a878260400151614036565b60e08201819052608082015161455f9161390f565b60a083018190526020830182600381111561457657fe5b600381111561458157fe5b905250600090508160200151600381111561459857fe5b146145d45760405162461bcd60e51b815260040180806020018281038252603a815260200180615cee603a913960400191505060405180910390fd5b6145e4600b548260e0015161390f565b60c08301819052602083018260038111156145fb57fe5b600381111561460657fe5b905250600090508160200151600381111561461d57fe5b146146595760405162461bcd60e51b8152600401808060200182810382526031815260200180615d486031913960400191505060405180910390fd5b60a080820180516001600160a01b03808a16600081815260106020908152604091829020948555600a5460019095019490945560c0870151600b81905560e088015195518251948f16855294840192909252828101949094526060820192909252608081019190915290517f1a2a22cb034d26d1854bdc6666a5b91fe25efbbb5dcad3b0355478d6f5c362a1929181900390910190a160e00151600097909650945050505050565b6000806000806147118787613a00565b9092509050600082600381111561472457fe5b146147355750915060009050613a7a565b613a73818661390f565b60006147496159ee565b60008061475e86670de0b6b3a76400006151eb565b9092509050600082600381111561477157fe5b1461479057506040805160208101909152600081529092509050612e68565b60008061479d838861522a565b909250905060008260038111156147b057fe5b146147d257506040805160208101909152600081529094509250612e68915050565b604080516020810190915290815260009890975095505050505050565b51670de0b6b3a7640000900490565b60008060008061480c613796565b6009541461482b57614820600a604f612a37565b935091506137919050565b6148353386614036565b905080600c54019150600c54821015614895576040805162461bcd60e51b815260206004820181905260248201527f61646420726573657276657320756e6578706563746564206f766572666c6f77604482015290519081900360640190fd5b600c829055604080513381526020810183905280820184905290517fa91e67c5ea634cd43a12c5a482724b03de01e85ca68702a53d0c2f45cb7c1dc59181900360600190a160009350915050915091565b60008215806148f3575081155b61492e5760405162461bcd60e51b8152600401808060200182810382526034815260200180615e096034913960400191505060405180910390fd5b614936615a7f565b61493e612ef1565b604083018190526020830182600381111561495557fe5b600381111561496057fe5b905250600090508160200151600381111561497757fe5b1461499b576149936009602b836020015160038111156121a757fe5b915050611a4a565b8315614a1c5760608101849052604080516020810182529082015181526149c290856132d7565b60808301819052602083018260038111156149d957fe5b60038111156149e457fe5b90525060009050816020015160038111156149fb57fe5b14614a175761499360096029836020015160038111156121a757fe5b614a95565b614a38836040518060200160405280846040015181525061439c565b6060830181905260208301826003811115614a4f57fe5b6003811115614a5a57fe5b9052506000905081602001516003811115614a7157fe5b14614a8d576149936009602a836020015160038111156121a757fe5b608081018390525b60055460608201516040805163eabe7d9160e01b81523060048201526001600160a01b03898116602483015260448201939093529051600093929092169163eabe7d919160648082019260209290919082900301818787803b158015614afa57600080fd5b505af1158015614b0e573d6000803e3d6000fd5b505050506040513d6020811015614b2457600080fd5b505190508015614b4457614b3b600360288361399a565b92505050611a4a565b614b4c613796565b60095414614b6057614b3b600a602c612a37565b614b70600d54836060015161390f565b60a0840181905260208401826003811115614b8757fe5b6003811115614b9257fe5b9052506000905082602001516003811115614ba957fe5b14614bc557614b3b6009602e846020015160038111156121a757fe5b6001600160a01b0386166000908152600e60205260409020546060830151614bed919061390f565b60c0840181905260208401826003811115614c0457fe5b6003811115614c0f57fe5b9052506000905082602001516003811115614c2657fe5b14614c4257614b3b6009602d846020015160038111156121a757fe5b8160800151614c4f61332a565b1015614c6157614b3b600e602f612a37565b614c6f868360800151614dad565b60a0820151600d5560c08201516001600160a01b0387166000818152600e6020908152604091829020939093556060850151815190815290513093600080516020615d28833981519152928290030190a36080820151606080840151604080516001600160a01b038b168152602081019490945283810191909152517fe5b754fb1abb7f01b499791d0b820ae3b6af3424ac1c59768edb53f4ec31a9299281900390910190a160055460808301516060840151604080516351dff98960e01b81523060048201526001600160a01b038b81166024830152604482019490945260648101929092525191909216916351dff98991608480830192600092919082900301818387803b158015614d8257600080fd5b505af1158015614d96573d6000803e3d6000fd5b5060009250614da3915050565b9695505050505050565b601154600160a01b900460ff1615614e605760125460408051632e1a7d4d60e01b81526004810184905290516001600160a01b0390921691632e1a7d4d9160248082019260009290919082900301818387803b158015614e0c57600080fd5b505af1158015614e20573d6000803e3d6000fd5b50506040516001600160a01b038516925083156108fc02915083906000818181858888f19350505050158015614e5a573d6000803e3d6000fd5b506112eb565b6012546040805163a9059cbb60e01b81526001600160a01b0385811660048301526024820185905291519190921691829163a9059cbb9160448082019260009290919082900301818387803b158015614eb857600080fd5b505af1158015614ecc573d6000803e3d6000fd5b5050505060003d60008114614ee85760208114614ef257600080fd5b6000199150614efe565b60206000803e60005191505b5080614f51576040805162461bcd60e51b815260206004820152601960248201527f544f4b454e5f5452414e534645525f4f55545f4641494c454400000000000000604482015290519081900360640190fd5b50505050565b6005546040805163368f515360e21b81523060048201526001600160a01b0385811660248301526044820185905291516000938493169163da3d454c91606480830192602092919082900301818787803b158015614fb457600080fd5b505af1158015614fc8573d6000803e3d6000fd5b505050506040513d6020811015614fde57600080fd5b505190508015614ffd57614ff56003600e8361399a565b9150506113e3565b615005613796565b6009541461501857614ff5600a80612a37565b8261502161332a565b101561503357614ff5600e6009612a37565b61503b615b50565b615044856136e2565b602083018190528282600381111561505857fe5b600381111561506357fe5b905250600090508151600381111561507757fe5b1461509c5761509360096007836000015160038111156121a757fe5b925050506113e3565b6150aa816020015185613a00565b60408301819052828260038111156150be57fe5b60038111156150c957fe5b90525060009050815160038111156150dd57fe5b146150f9576150936009600c836000015160038111156121a757fe5b615105600b5485613a00565b606083018190528282600381111561511957fe5b600381111561512457fe5b905250600090508151600381111561513857fe5b14615154576150936009600b836000015160038111156121a757fe5b61515e8585614dad565b604080820180516001600160a01b03881660008181526010602090815290859020928355600a54600190930192909255606080860151600b81905593518551928352928201899052818501929092529081019190915290517f13ed6866d4e1ee6da46f845c46d7e54120883d75c5ea9a2dacc1c4ca8984ab809181900360800190a1600095945050505050565b600080836151fe57506000905080612e68565b8383028385828161520b57fe5b041461521f57506002915060009050612e68565b600092509050612e68565b6000808261523e5750600190506000612e68565b600083858161524957fe5b04915091509250929050565b6000670de0b6b3a764000061526e84846000015161585d565b8161527557fe5b049392505050565b6000611a4a8383604051806040016040528060158152602001747375627472616374696f6e20756e646572666c6f7760581b81525061589f565b60006152c16159ee565b6152cb84846158f9565b90506118da816147ef565b6000611a4a8383604051806040016040528060118152602001706164646974696f6e206f766572666c6f7760781b815250615923565b60055460408051632fe3f38f60e11b81523060048201526001600160a01b0384811660248301528781166044830152868116606483015260848201869052915160009384938493911691635fc7e71e9160a48082019260209290919082900301818787803b15801561537d57600080fd5b505af1158015615391573d6000803e3d6000fd5b505050506040513d60208110156153a757600080fd5b5051905080156153cb576153be600360128361399a565b9250600091506157f59050565b6153d3613796565b600954146153e7576153be600a6016612a37565b6153ef613796565b846001600160a01b0316636c540baf6040518163ffffffff1660e01b815260040160206040518083038186803b15801561542857600080fd5b505afa15801561543c573d6000803e3d6000fd5b505050506040513d602081101561545257600080fd5b505114615465576153be600a6011612a37565b866001600160a01b0316866001600160a01b0316141561548b576153be60066017612a37565b8461549c576153be60076015612a37565b6000198514156154b2576153be60076014612a37565b6000806154c08989896143b3565b909250905081156154f0576154e18260108111156154da57fe5b6018612a37565b9450600093506157f592505050565b6005546040805163c488847b60e01b81523060048201526001600160a01b038981166024830152604482018590528251600094859492169263c488847b926064808301939192829003018186803b15801561554a57600080fd5b505afa15801561555e573d6000803e3d6000fd5b505050506040513d604081101561557457600080fd5b508051602090910151909250905081156155bf5760405162461bcd60e51b8152600401808060200182810382526033815260200180615d796033913960400191505060405180910390fd5b80886001600160a01b03166370a082318c6040518263ffffffff1660e01b815260040180826001600160a01b03166001600160a01b0316815260200191505060206040518083038186803b15801561561657600080fd5b505afa15801561562a573d6000803e3d6000fd5b505050506040513d602081101561564057600080fd5b50511015615695576040805162461bcd60e51b815260206004820152601860248201527f4c49515549444154455f5345495a455f544f4f5f4d5543480000000000000000604482015290519081900360640190fd5b60006001600160a01b0389163014156156bb576156b4308d8d85613a82565b9050615745565b6040805163b2a02ff160e01b81526001600160a01b038e811660048301528d81166024830152604482018590529151918b169163b2a02ff1916064808201926020929091908290030181600087803b15801561571657600080fd5b505af115801561572a573d6000803e3d6000fd5b505050506040513d602081101561574057600080fd5b505190505b801561578f576040805162461bcd60e51b81526020600482015260146024820152731d1bdad95b881cd95a5e9d5c994819985a5b195960621b604482015290519081900360640190fd5b604080516001600160a01b03808f168252808e1660208301528183018790528b1660608201526080810184905290517f298637f684da70674f26509b10f07ec2fbc77a335ab1e7d6215a4b2484d8bb529181900360a00190a16000975092955050505050505b94509492505050565b60006158086159ee565b60008061581d670de0b6b3a7640000876151eb565b9092509050600082600381111561583057fe5b1461584f57506040805160208101909152600081529092509050612e68565b61331d81866000015161473f565b6000611a4a83836040518060400160405280601781526020017f6d756c7469706c69636174696f6e206f766572666c6f77000000000000000000815250615978565b600081848411156158f15760405162461bcd60e51b81526020600482018181528351602484015283519092839260449091019190850190808383600083156112ac578181015183820152602001611294565b505050900390565b6159016159ee565b604051806020016040528061591a85600001518561585d565b90529392505050565b6000838301828582101561180b5760405162461bcd60e51b81526020600482018181528351602484015283519092839260449091019190850190808383600083156112ac578181015183820152602001611294565b6000831580615985575082155b1561599257506000611a4a565b8383028385828161599f57fe5b0414839061180b5760405162461bcd60e51b81526020600482018181528351602484015283519092839260449091019190850190808383600083156112ac578181015183820152602001611294565b6040518060200160405280600081525090565b828054600181600116156101000203166002900490600052602060002090601f016020900481019282601f10615a4257805160ff1916838001178555615a6f565b82800160010185558215615a6f579182015b82811115615a6f578251825591602001919060010190615a54565b50615a7b929150615b79565b5090565b6040805160e0810190915280600081526020016000815260200160008152602001600081526020016000815260200160008152602001600081525090565b604080516101208101909152806000815260200160008152602001600081526020016000815260200160008152602001600081526020016000815260200160008152602001600081525090565b6040805161010081019091528060008152602001600081526020016000815260200160008152602001600081526020016000815260200160008152602001600081525090565b604080516080810190915280600081526020016000815260200160008152602001600081525090565b61157b91905b80821115615a7b5760008155600101615b7f56fe6f6e6c792061646d696e206d617920696e697469616c697a6520746865206d61726b65746d61726b6574206d6179206f6e6c7920626520696e697469616c697a6564206f6e63654345726332303a3a7377656570546f6b656e3a2063616e206e6f7420737765657020756e6465726c79696e6720746f6b656e696e697469616c2065786368616e67652072617465206d7573742062652067726561746572207468616e207a65726f2e73657474696e6720696e7465726573742072617465206d6f64656c206661696c65646f6e6c79207468652061646d696e206d61792063616c6c205f72657369676e496d706c656d656e746174696f6e4d494e545f4e45575f4143434f554e545f42414c414e43455f43414c43554c4154494f4e5f4641494c4544626f72726f7742616c616e636553746f7265643a20626f72726f7742616c616e636553746f726564496e7465726e616c206661696c656452455041595f424f52524f575f4e45575f4143434f554e545f424f52524f575f42414c414e43455f43414c43554c4154494f4e5f4641494c4544ddf252ad1be2c89b69c2b068fc378daa952ba7f163c4a11628f55a4df523b3ef52455041595f424f52524f575f4e45575f544f54414c5f42414c414e43455f43414c43554c4154494f4e5f4641494c45444c49515549444154455f434f4d5054524f4c4c45525f43414c43554c4154455f414d4f554e545f5345495a455f4641494c454465786368616e67655261746553746f7265643a2065786368616e67655261746553746f726564496e7465726e616c206661696c65644d494e545f4e45575f544f54414c5f535550504c595f43414c43554c4154494f4e5f4641494c45446f6e65206f662072656465656d546f6b656e73496e206f722072656465656d416d6f756e74496e206d757374206265207a65726f72656475636520726573657276657320756e657870656374656420756e646572666c6f776f6e6c79207468652061646d696e206d61792063616c6c205f6265636f6d65496d706c656d656e746174696f6ea265627a7a723158205884cbbe9b869ab7eb4a9ab4b122c56449fc0d0fa7dc2232c770f556f61f46ff64736f6c63430005100032",
  "devdoc": {
    "author": "Citrus",
    "methods": {
      "_acceptAdmin()": {
        "details": "Admin function for pending admin to accept role and update admin",
        "return": "uint 0=success, otherwise a failure (see ErrorReporter.sol for details)"
      },
      "_addReserves(uint256)": {
        "params": {
          "addAmount": "The amount fo underlying token to add as reserves"
        },
        "return": "uint 0=success, otherwise a failure (see ErrorReporter.sol for details)"
      },
      "_becomeImplementation(bytes)": {
        "params": {
          "data": "The encoded bytes data for any initialization"
        }
      },
      "_reduceReserves(uint256)": {
        "params": {
          "reduceAmount": "Amount of reduction to reserves"
        },
        "return": "uint 0=success, otherwise a failure (see ErrorReporter.sol for details)"
      },
      "_setComptroller(address)": {
        "details": "Admin function to set a new comptroller",
        "return": "uint 0=success, otherwise a failure (see ErrorReporter.sol for details)"
      },
      "_setInterestRateModel(address)": {
        "details": "Admin function to accrue interest and update the interest rate model",
        "params": {
          "newInterestRateModel": "the new interest rate model to use"
        },
        "return": "uint 0=success, otherwise a failure (see ErrorReporter.sol for details)"
      },
      "_setPendingAdmin(address)": {
        "details": "Admin function to begin change of admin. The newPendingAdmin must call `_acceptAdmin` to finalize the transfer.",
        "params": {
          "newPendingAdmin": "New pending admin."
        },
        "return": "uint 0=success, otherwise a failure (see ErrorReporter.sol for details)"
      },
      "_setReserveFactor(uint256)": {
        "details": "Admin function to accrue interest and set a new reserve factor",
        "return": "uint 0=success, otherwise a failure (see ErrorReporter.sol for details)"
      },
      "accrueInterest()": {
        "details": "This calculates interest accrued from the last checkpointed block  up to the current block and writes new checkpoint to storage."
      },
      "allowance(address,address)": {
        "params": {
          "owner": "The address of the account which owns the tokens to be spent",
          "spender": "The address of the account which may transfer tokens"
        },
        "return": "The number of tokens allowed to be spent (-1 means infinite)"
      },
      "approve(address,uint256)": {
        "details": "This will overwrite the approval amount for `spender` and is subject to issues noted [here](https://eips.ethereum.org/EIPS/eip-20#approve)",
        "params": {
          "amount": "The number of tokens that are approved (-1 means infinite)",
          "spender": "The address of the account which may transfer tokens"
        },
        "return": "Whether or not the approval succeeded"
      },
      "balanceOf(address)": {
        "params": {
          "owner": "The address of the account to query"
        },
        "return": "The number of tokens owned by `owner`"
      },
      "balanceOfUnderlying(address)": {
        "details": "This also accrues interest in a transaction",
        "params": {
          "owner": "The address of the account to query"
        },
        "return": "The amount of underlying owned by `owner`"
      },
      "borrow(uint256)": {
        "params": {
          "borrowAmount": "The amount of the underlying asset to borrow"
        },
        "return": "uint 0=success, otherwise a failure (see ErrorReporter.sol for details)"
      },
      "borrowBalanceCurrent(address)": {
        "params": {
          "account": "The address whose balance should be calculated after updating borrowIndex"
        },
        "return": "The calculated balance"
      },
      "borrowBalanceStored(address)": {
        "params": {
          "account": "The address whose balance should be calculated"
        },
        "return": "The calculated balance"
      },
      "borrowNative(uint256)": {
        "params": {
          "borrowAmount": "The amount of the underlying asset to borrow"
        },
        "return": "uint 0=success, otherwise a failure (see ErrorReporter.sol for details)"
      },
      "borrowRatePerBlock()": {
        "return": "The borrow interest rate per block, scaled by 1e18"
      },
      "exchangeRateCurrent()": {
        "return": "Calculated exchange rate scaled by 1e18"
      },
      "exchangeRateStored()": {
        "details": "This function does not accrue interest before calculating the exchange rate",
        "return": "Calculated exchange rate scaled by 1e18"
      },
      "getAccountSnapshot(address)": {
        "details": "This is used by comptroller to more efficiently perform liquidity checks.",
        "params": {
          "account": "Address of the account to snapshot"
        },
        "return": "(possible error, token balance, borrow balance, exchange rate mantissa)"
      },
      "getCash()": {
        "return": "The quantity of underlying asset owned by this contract"
      },
      "initialize(address,address,address,uint256,string,string,uint8)": {
        "params": {
          "comptroller_": "The address of the Comptroller",
          "decimals_": "ERC-20 decimal precision of this token",
          "initialExchangeRateMantissa_": "The initial exchange rate, scaled by 1e18",
          "interestRateModel_": "The address of the interest rate model",
          "name_": "ERC-20 name of this token",
          "symbol_": "ERC-20 symbol of this token",
          "underlying_": "The address of the underlying asset"
        }
      },
      "initialize(address,address,uint256,string,string,uint8)": {
        "params": {
          "comptroller_": "The address of the Comptroller",
          "decimals_": "EIP-20 decimal precision of this token",
          "initialExchangeRateMantissa_": "The initial exchange rate, scaled by 1e18",
          "interestRateModel_": "The address of the interest rate model",
          "name_": "EIP-20 name of this token",
          "symbol_": "EIP-20 symbol of this token"
        }
      },
      "liquidateBorrow(address,uint256,address)": {
        "params": {
          "borrower": "The borrower of this cToken to be liquidated",
          "cTokenCollateral": "The market in which to seize collateral from the borrower",
          "repayAmount": "The amount of the underlying borrowed asset to repay"
        },
        "return": "uint 0=success, otherwise a failure (see ErrorReporter.sol for details)"
      },
      "mint(uint256)": {
        "details": "Accrues interest whether or not the operation succeeds, unless reverted",
        "params": {
          "mintAmount": "The amount of the underlying asset to supply"
        },
        "return": "uint 0=success, otherwise a failure (see ErrorReporter.sol for details)"
      },
      "mintNative()": {
        "details": "Accrues interest whether or not the operation succeeds, unless reverted",
        "return": "uint 0=success, otherwise a failure (see ErrorReporter.sol for details)"
      },
      "redeem(uint256)": {
        "details": "Accrues interest whether or not the operation succeeds, unless reverted",
        "params": {
          "redeemTokens": "The number of cTokens to redeem into underlying"
        },
        "return": "uint 0=success, otherwise a failure (see ErrorReporter.sol for details)"
      },
      "redeemNative(uint256)": {
        "details": "Accrues interest whether or not the operation succeeds, unless reverted",
        "params": {
          "redeemTokens": "The number of cTokens to redeem into underlying"
        },
        "return": "uint 0=success, otherwise a failure (see ErrorReporter.sol for details)"
      },
      "redeemUnderlying(uint256)": {
        "details": "Accrues interest whether or not the operation succeeds, unless reverted",
        "params": {
          "redeemAmount": "The amount of underlying to redeem"
        },
        "return": "uint 0=success, otherwise a failure (see ErrorReporter.sol for details)"
      },
      "redeemUnderlyingNative(uint256)": {
        "details": "Accrues interest whether or not the operation succeeds, unless reverted",
        "params": {
          "redeemAmount": "The amount of underlying to redeem"
        },
        "return": "uint 0=success, otherwise a failure (see ErrorReporter.sol for details)"
      },
      "repayBorrow(uint256)": {
        "params": {
          "repayAmount": "The amount to repay"
        },
        "return": "uint 0=success, otherwise a failure (see ErrorReporter.sol for details)"
      },
      "repayBorrowBehalf(address,uint256)": {
        "params": {
          "borrower": "the account with the debt being payed off",
          "repayAmount": "The amount to repay"
        },
        "return": "uint 0=success, otherwise a failure (see ErrorReporter.sol for details)"
      },
      "repayBorrowBehalfNative(address)": {
        "details": "Reverts upon any failure",
        "params": {
          "borrower": "the account with the debt being payed off"
        }
      },
      "repayBorrowNative()": {
        "details": "Reverts upon any failure"
      },
      "seize(address,address,uint256)": {
        "details": "Will fail unless called by another cToken during the process of liquidation. Its absolutely critical to use msg.sender as the borrowed cToken and not a parameter.",
        "params": {
          "borrower": "The account having collateral seized",
          "liquidator": "The account receiving seized collateral",
          "seizeTokens": "The number of cTokens to seize"
        },
        "return": "uint 0=success, otherwise a failure (see ErrorReporter.sol for details)"
      },
      "supplyRatePerBlock()": {
        "return": "The supply interest rate per block, scaled by 1e18"
      },
      "sweepToken(address)": {
        "params": {
          "token": "The address of the ERC-20 token to sweep"
        }
      },
      "totalBorrowsCurrent()": {
        "return": "The total borrows with interest"
      },
      "transfer(address,uint256)": {
        "params": {
          "amount": "The number of tokens to transfer",
          "dst": "The address of the destination account"
        },
        "return": "Whether or not the transfer succeeded"
      },
      "transferFrom(address,address,uint256)": {
        "params": {
          "amount": "The number of tokens to transfer",
          "dst": "The address of the destination account",
          "src": "The address of the source account"
        },
        "return": "Whether or not the transfer succeeded"
      }
    },
    "title": "Compound's CWrappedNativeDelegate Contract"
  },
  "userdoc": {
    "methods": {
      "_acceptAdmin()": {
        "notice": "Accepts transfer of admin rights. msg.sender must be pendingAdmin"
      },
      "_addReserves(uint256)": {
        "notice": "The sender adds to reserves."
      },
      "_becomeImplementation(bytes)": {
        "notice": "Called by the delegator on a delegate to initialize it for duty"
      },
      "_reduceReserves(uint256)": {
        "notice": "Accrues interest and reduces reserves by transferring to admin"
      },
      "_resignImplementation()": {
        "notice": "Called by the delegator on a delegate to forfeit its responsibility"
      },
      "_setComptroller(address)": {
        "notice": "Sets a new comptroller for the market"
      },
      "_setInterestRateModel(address)": {
        "notice": "accrues interest and updates the interest rate model using _setInterestRateModelFresh"
      },
      "_setPendingAdmin(address)": {
        "notice": "Begins transfer of admin rights. The newPendingAdmin must call `_acceptAdmin` to finalize the transfer."
      },
      "_setReserveFactor(uint256)": {
        "notice": "accrues interest and sets a new reserve factor for the protocol using _setReserveFactorFresh"
      },
      "accrueInterest()": {
        "notice": "Applies accrued interest to total borrows and reserves"
      },
      "allowance(address,address)": {
        "notice": "Get the current allowance from `owner` for `spender`"
      },
      "approve(address,uint256)": {
        "notice": "Approve `spender` to transfer up to `amount` from `src`"
      },
      "balanceOf(address)": {
        "notice": "Get the token balance of the `owner`"
      },
      "balanceOfUnderlying(address)": {
        "notice": "Get the underlying balance of the `owner`"
      },
      "borrow(uint256)": {
        "notice": "Sender borrows assets from the protocol to their own address"
      },
      "borrowBalanceCurrent(address)": {
        "notice": "Accrue interest to updated borrowIndex and then calculate account's borrow balance using the updated borrowIndex"
      },
      "borrowBalanceStored(address)": {
        "notice": "Return the borrow balance of account based on stored data"
      },
      "borrowNative(uint256)": {
        "notice": "Sender borrows assets from the protocol to their own address"
      },
      "borrowRatePerBlock()": {
        "notice": "Returns the current per-block borrow interest rate for this cToken"
      },
      "constructor": "Construct an empty delegate",
      "exchangeRateCurrent()": {
        "notice": "Accrue interest then return the up-to-date exchange rate"
      },
      "exchangeRateStored()": {
        "notice": "Calculates the exchange rate from the underlying to the CToken"
      },
      "getAccountSnapshot(address)": {
        "notice": "Get a snapshot of the account's balances, and the cached exchange rate"
      },
      "getCash()": {
        "notice": "Get cash balance of this cToken in the underlying asset"
      },
      "initialize(address,address,address,uint256,string,string,uint8)": {
        "notice": "Initialize the new money market"
      },
      "initialize(address,address,uint256,string,string,uint8)": {
        "notice": "Initialize the money market"
      },
      "liquidateBorrow(address,uint256,address)": {
        "notice": "The sender liquidates the borrowers collateral. The collateral seized is transferred to the liquidator."
      },
      "mint(uint256)": {
        "notice": "Sender supplies assets into the market and receives cTokens in exchange"
      },
      "mintNative()": {
        "notice": "Sender supplies assets into the market and receives cTokens in exchange"
      },
      "redeem(uint256)": {
        "notice": "Sender redeems cTokens in exchange for the underlying asset"
      },
      "redeemNative(uint256)": {
        "notice": "Sender redeems cTokens in exchange for the underlying asset"
      },
      "redeemUnderlying(uint256)": {
        "notice": "Sender redeems cTokens in exchange for a specified amount of underlying asset"
      },
      "redeemUnderlyingNative(uint256)": {
        "notice": "Sender redeems cTokens in exchange for a specified amount of underlying asset"
      },
      "repayBorrow(uint256)": {
        "notice": "Sender repays their own borrow"
      },
      "repayBorrowBehalf(address,uint256)": {
        "notice": "Sender repays a borrow belonging to borrower"
      },
      "repayBorrowBehalfNative(address)": {
        "notice": "Sender repays a borrow belonging to borrower"
      },
      "repayBorrowNative()": {
        "notice": "Sender repays their own borrow"
      },
      "seize(address,address,uint256)": {
        "notice": "Transfers collateral tokens (this market) to the liquidator."
      },
      "supplyRatePerBlock()": {
        "notice": "Returns the current per-block supply interest rate for this cToken"
      },
      "sweepToken(address)": {
        "notice": "A public function to sweep accidental ERC-20 transfers to this contract. Tokens are sent to admin (timelock)"
      },
      "totalBorrowsCurrent()": {
        "notice": "Returns the current total borrows plus accrued interest"
      },
      "transfer(address,uint256)": {
        "notice": "Transfer `amount` tokens from `msg.sender` to `dst`"
      },
      "transferFrom(address,address,uint256)": {
        "notice": "Transfer `amount` tokens from `src` to `dst`"
      }
    },
    "notice": "CTokens which wraps Wrapped Ether and are delegated to"
  },
  "storageLayout": {
    "storage": [
      {
        "astId": 6299,
        "contract": "contracts/CWrappedNativeDelegate.sol:CWrappedNativeDelegate",
        "label": "_notEntered",
        "offset": 0,
        "slot": "0",
        "type": "t_bool"
      },
      {
        "astId": 6301,
        "contract": "contracts/CWrappedNativeDelegate.sol:CWrappedNativeDelegate",
        "label": "name",
        "offset": 0,
        "slot": "1",
        "type": "t_string_storage"
      },
      {
        "astId": 6303,
        "contract": "contracts/CWrappedNativeDelegate.sol:CWrappedNativeDelegate",
        "label": "symbol",
        "offset": 0,
        "slot": "2",
        "type": "t_string_storage"
      },
      {
        "astId": 6305,
        "contract": "contracts/CWrappedNativeDelegate.sol:CWrappedNativeDelegate",
        "label": "decimals",
        "offset": 0,
        "slot": "3",
        "type": "t_uint8"
      },
      {
        "astId": 6313,
        "contract": "contracts/CWrappedNativeDelegate.sol:CWrappedNativeDelegate",
        "label": "admin",
        "offset": 1,
        "slot": "3",
        "type": "t_address_payable"
      },
      {
        "astId": 6315,
        "contract": "contracts/CWrappedNativeDelegate.sol:CWrappedNativeDelegate",
        "label": "pendingAdmin",
        "offset": 0,
        "slot": "4",
        "type": "t_address_payable"
      },
      {
        "astId": 6317,
        "contract": "contracts/CWrappedNativeDelegate.sol:CWrappedNativeDelegate",
        "label": "comptroller",
        "offset": 0,
        "slot": "5",
        "type": "t_contract(ComptrollerInterface)36234"
      },
      {
        "astId": 6319,
        "contract": "contracts/CWrappedNativeDelegate.sol:CWrappedNativeDelegate",
        "label": "interestRateModel",
        "offset": 0,
        "slot": "6",
        "type": "t_contract(InterestRateModel)40583"
      },
      {
        "astId": 6321,
        "contract": "contracts/CWrappedNativeDelegate.sol:CWrappedNativeDelegate",
        "label": "initialExchangeRateMantissa",
        "offset": 0,
        "slot": "7",
        "type": "t_uint256"
      },
      {
        "astId": 6323,
        "contract": "contracts/CWrappedNativeDelegate.sol:CWrappedNativeDelegate",
        "label": "reserveFactorMantissa",
        "offset": 0,
        "slot": "8",
        "type": "t_uint256"
      },
      {
        "astId": 6325,
        "contract": "contracts/CWrappedNativeDelegate.sol:CWrappedNativeDelegate",
        "label": "accrualBlockNumber",
        "offset": 0,
        "slot": "9",
        "type": "t_uint256"
      },
      {
        "astId": 6327,
        "contract": "contracts/CWrappedNativeDelegate.sol:CWrappedNativeDelegate",
        "label": "borrowIndex",
        "offset": 0,
        "slot": "10",
        "type": "t_uint256"
      },
      {
        "astId": 6329,
        "contract": "contracts/CWrappedNativeDelegate.sol:CWrappedNativeDelegate",
        "label": "totalBorrows",
        "offset": 0,
        "slot": "11",
        "type": "t_uint256"
      },
      {
        "astId": 6331,
        "contract": "contracts/CWrappedNativeDelegate.sol:CWrappedNativeDelegate",
        "label": "totalReserves",
        "offset": 0,
        "slot": "12",
        "type": "t_uint256"
      },
      {
        "astId": 6333,
        "contract": "contracts/CWrappedNativeDelegate.sol:CWrappedNativeDelegate",
        "label": "totalSupply",
        "offset": 0,
        "slot": "13",
        "type": "t_uint256"
      },
      {
        "astId": 6337,
        "contract": "contracts/CWrappedNativeDelegate.sol:CWrappedNativeDelegate",
        "label": "accountTokens",
        "offset": 0,
        "slot": "14",
        "type": "t_mapping(t_address,t_uint256)"
      },
      {
        "astId": 6343,
        "contract": "contracts/CWrappedNativeDelegate.sol:CWrappedNativeDelegate",
        "label": "transferAllowances",
        "offset": 0,
        "slot": "15",
        "type": "t_mapping(t_address,t_mapping(t_address,t_uint256))"
      },
      {
        "astId": 6352,
        "contract": "contracts/CWrappedNativeDelegate.sol:CWrappedNativeDelegate",
        "label": "accountBorrows",
        "offset": 0,
        "slot": "16",
        "type": "t_mapping(t_address,t_struct(BorrowSnapshot)6348_storage)"
      },
      {
        "astId": 6357,
        "contract": "contracts/CWrappedNativeDelegate.sol:CWrappedNativeDelegate",
        "label": "feeTaker",
        "offset": 0,
        "slot": "17",
        "type": "t_address_payable"
      },
      {
        "astId": 6747,
        "contract": "contracts/CWrappedNativeDelegate.sol:CWrappedNativeDelegate",
        "label": "shouldUseNative",
        "offset": 20,
        "slot": "17",
        "type": "t_bool"
      },
      {
        "astId": 6674,
        "contract": "contracts/CWrappedNativeDelegate.sol:CWrappedNativeDelegate",
        "label": "underlying",
        "offset": 0,
        "slot": "18",
        "type": "t_address"
      }
    ],
    "types": {
      "t_address": {
        "encoding": "inplace",
        "label": "address",
        "numberOfBytes": "20"
      },
      "t_address_payable": {
        "encoding": "inplace",
        "label": "address payable",
        "numberOfBytes": "20"
      },
      "t_bool": {
        "encoding": "inplace",
        "label": "bool",
        "numberOfBytes": "1"
      },
      "t_contract(ComptrollerInterface)36234": {
        "encoding": "inplace",
        "label": "contract ComptrollerInterface",
        "numberOfBytes": "20"
      },
      "t_contract(InterestRateModel)40583": {
        "encoding": "inplace",
        "label": "contract InterestRateModel",
        "numberOfBytes": "20"
      },
      "t_mapping(t_address,t_mapping(t_address,t_uint256))": {
        "encoding": "mapping",
        "key": "t_address",
        "label": "mapping(address => mapping(address => uint256))",
        "numberOfBytes": "32",
        "value": "t_mapping(t_address,t_uint256)"
      },
      "t_mapping(t_address,t_struct(BorrowSnapshot)6348_storage)": {
        "encoding": "mapping",
        "key": "t_address",
        "label": "mapping(address => struct CTokenStorage.BorrowSnapshot)",
        "numberOfBytes": "32",
        "value": "t_struct(BorrowSnapshot)6348_storage"
      },
      "t_mapping(t_address,t_uint256)": {
        "encoding": "mapping",
        "key": "t_address",
        "label": "mapping(address => uint256)",
        "numberOfBytes": "32",
        "value": "t_uint256"
      },
      "t_string_storage": {
        "encoding": "bytes",
        "label": "string",
        "numberOfBytes": "32"
      },
      "t_struct(BorrowSnapshot)6348_storage": {
        "encoding": "inplace",
        "label": "struct CTokenStorage.BorrowSnapshot",
        "members": [
          {
            "astId": 6345,
            "contract": "contracts/CWrappedNativeDelegate.sol:CWrappedNativeDelegate",
            "label": "principal",
            "offset": 0,
            "slot": "0",
            "type": "t_uint256"
          },
          {
            "astId": 6347,
            "contract": "contracts/CWrappedNativeDelegate.sol:CWrappedNativeDelegate",
            "label": "interestIndex",
            "offset": 0,
            "slot": "1",
            "type": "t_uint256"
          }
        ],
        "numberOfBytes": "64"
      },
      "t_uint256": {
        "encoding": "inplace",
        "label": "uint256",
        "numberOfBytes": "32"
      },
      "t_uint8": {
        "encoding": "inplace",
        "label": "uint8",
        "numberOfBytes": "1"
      }
    }
  }
}