{
  "address": "0x69D5B445cc4635DE5B64A5C0D2d302E405FD184c",
  "abi": [
    {
      "inputs": [],
      "payable": false,
      "stateMutability": "nonpayable",
      "type": "constructor"
    },
    {
      "anonymous": false,
      "inputs": [
        {
          "indexed": false,
          "internalType": "uint256",
          "name": "cashPrior",
          "type": "uint256"
        },
        {
          "indexed": false,
          "internalType": "uint256",
          "name": "interestAccumulated",
          "type": "uint256"
        },
        {
          "indexed": false,
          "internalType": "uint256",
          "name": "borrowIndex",
          "type": "uint256"
        },
        {
          "indexed": false,
          "internalType": "uint256",
          "name": "totalBorrows",
          "type": "uint256"
        }
      ],
      "name": "AccrueInterest",
      "type": "event"
    },
    {
      "anonymous": false,
      "inputs": [
        {
          "indexed": true,
          "internalType": "address",
          "name": "owner",
          "type": "address"
        },
        {
          "indexed": true,
          "internalType": "address",
          "name": "spender",
          "type": "address"
        },
        {
          "indexed": false,
          "internalType": "uint256",
          "name": "amount",
          "type": "uint256"
        }
      ],
      "name": "Approval",
      "type": "event"
    },
    {
      "anonymous": false,
      "inputs": [
        {
          "indexed": false,
          "internalType": "address",
          "name": "borrower",
          "type": "address"
        },
        {
          "indexed": false,
          "internalType": "uint256",
          "name": "borrowAmount",
          "type": "uint256"
        },
        {
          "indexed": false,
          "internalType": "uint256",
          "name": "accountBorrows",
          "type": "uint256"
        },
        {
          "indexed": false,
          "internalType": "uint256",
          "name": "totalBorrows",
          "type": "uint256"
        }
      ],
      "name": "Borrow",
      "type": "event"
    },
    {
      "anonymous": false,
      "inputs": [
        {
          "indexed": false,
          "internalType": "uint256",
          "name": "error",
          "type": "uint256"
        },
        {
          "indexed": false,
          "internalType": "uint256",
          "name": "info",
          "type": "uint256"
        },
        {
          "indexed": false,
          "internalType": "uint256",
          "name": "detail",
          "type": "uint256"
        }
      ],
      "name": "Failure",
      "type": "event"
    },
    {
      "anonymous": false,
      "inputs": [
        {
          "indexed": false,
          "internalType": "address",
          "name": "liquidator",
          "type": "address"
        },
        {
          "indexed": false,
          "internalType": "address",
          "name": "borrower",
          "type": "address"
        },
        {
          "indexed": false,
          "internalType": "uint256",
          "name": "repayAmount",
          "type": "uint256"
        },
        {
          "indexed": false,
          "internalType": "address",
          "name": "cTokenCollateral",
          "type": "address"
        },
        {
          "indexed": false,
          "internalType": "uint256",
          "name": "seizeTokens",
          "type": "uint256"
        }
      ],
      "name": "LiquidateBorrow",
      "type": "event"
    },
    {
      "anonymous": false,
      "inputs": [
        {
          "indexed": false,
          "internalType": "address",
          "name": "minter",
          "type": "address"
        },
        {
          "indexed": false,
          "internalType": "uint256",
          "name": "mintAmount",
          "type": "uint256"
        },
        {
          "indexed": false,
          "internalType": "uint256",
          "name": "mintTokens",
          "type": "uint256"
        }
      ],
      "name": "Mint",
      "type": "event"
    },
    {
      "anonymous": false,
      "inputs": [
        {
          "indexed": false,
          "internalType": "address",
          "name": "oldAdmin",
          "type": "address"
        },
        {
          "indexed": false,
          "internalType": "address",
          "name": "newAdmin",
          "type": "address"
        }
      ],
      "name": "NewAdmin",
      "type": "event"
    },
    {
      "anonymous": false,
      "inputs": [
        {
          "indexed": false,
          "internalType": "contract ComptrollerInterface",
          "name": "oldComptroller",
          "type": "address"
        },
        {
          "indexed": false,
          "internalType": "contract ComptrollerInterface",
          "name": "newComptroller",
          "type": "address"
        }
      ],
      "name": "NewComptroller",
      "type": "event"
    },
    {
      "anonymous": false,
      "inputs": [
        {
          "indexed": false,
          "internalType": "address",
          "name": "oldFeeTaker",
          "type": "address"
        },
        {
          "indexed": false,
          "internalType": "address",
          "name": "newFeeTaker",
          "type": "address"
        }
      ],
      "name": "NewFeeTaker",
      "type": "event"
    },
    {
      "anonymous": false,
      "inputs": [
        {
          "indexed": false,
          "internalType": "contract InterestRateModel",
          "name": "oldInterestRateModel",
          "type": "address"
        },
        {
          "indexed": false,
          "internalType": "contract InterestRateModel",
          "name": "newInterestRateModel",
          "type": "address"
        }
      ],
      "name": "NewMarketInterestRateModel",
      "type": "event"
    },
    {
      "anonymous": false,
      "inputs": [
        {
          "indexed": false,
          "internalType": "address",
          "name": "oldPendingAdmin",
          "type": "address"
        },
        {
          "indexed": false,
          "internalType": "address",
          "name": "newPendingAdmin",
          "type": "address"
        }
      ],
      "name": "NewPendingAdmin",
      "type": "event"
    },
    {
      "anonymous": false,
      "inputs": [
        {
          "indexed": false,
          "internalType": "uint256",
          "name": "oldReserveFactorMantissa",
          "type": "uint256"
        },
        {
          "indexed": false,
          "internalType": "uint256",
          "name": "newReserveFactorMantissa",
          "type": "uint256"
        }
      ],
      "name": "NewReserveFactor",
      "type": "event"
    },
    {
      "anonymous": false,
      "inputs": [
        {
          "indexed": false,
          "internalType": "address",
          "name": "redeemer",
          "type": "address"
        },
        {
          "indexed": false,
          "internalType": "uint256",
          "name": "redeemAmount",
          "type": "uint256"
        },
        {
          "indexed": false,
          "internalType": "uint256",
          "name": "redeemTokens",
          "type": "uint256"
        }
      ],
      "name": "Redeem",
      "type": "event"
    },
    {
      "anonymous": false,
      "inputs": [
        {
          "indexed": false,
          "internalType": "address",
          "name": "payer",
          "type": "address"
        },
        {
          "indexed": false,
          "internalType": "address",
          "name": "borrower",
          "type": "address"
        },
        {
          "indexed": false,
          "internalType": "uint256",
          "name": "repayAmount",
          "type": "uint256"
        },
        {
          "indexed": false,
          "internalType": "uint256",
          "name": "accountBorrows",
          "type": "uint256"
        },
        {
          "indexed": false,
          "internalType": "uint256",
          "name": "totalBorrows",
          "type": "uint256"
        }
      ],
      "name": "RepayBorrow",
      "type": "event"
    },
    {
      "anonymous": false,
      "inputs": [
        {
          "indexed": false,
          "internalType": "address",
          "name": "benefactor",
          "type": "address"
        },
        {
          "indexed": false,
          "internalType": "uint256",
          "name": "addAmount",
          "type": "uint256"
        },
        {
          "indexed": false,
          "internalType": "uint256",
          "name": "newTotalReserves",
          "type": "uint256"
        }
      ],
      "name": "ReservesAdded",
      "type": "event"
    },
    {
      "anonymous": false,
      "inputs": [
        {
          "indexed": false,
          "internalType": "address",
          "name": "admin",
          "type": "address"
        },
        {
          "indexed": false,
          "internalType": "uint256",
          "name": "reduceAmount",
          "type": "uint256"
        },
        {
          "indexed": false,
          "internalType": "uint256",
          "name": "newTotalReserves",
          "type": "uint256"
        }
      ],
      "name": "ReservesReduced",
      "type": "event"
    },
    {
      "anonymous": false,
      "inputs": [
        {
          "indexed": true,
          "internalType": "address",
          "name": "from",
          "type": "address"
        },
        {
          "indexed": true,
          "internalType": "address",
          "name": "to",
          "type": "address"
        },
        {
          "indexed": false,
          "internalType": "uint256",
          "name": "amount",
          "type": "uint256"
        }
      ],
      "name": "Transfer",
      "type": "event"
    },
    {
      "payable": true,
      "stateMutability": "payable",
      "type": "fallback"
    },
    {
      "constant": false,
      "inputs": [],
      "name": "_acceptAdmin",
      "outputs": [
        {
          "internalType": "uint256",
          "name": "",
          "type": "uint256"
        }
      ],
      "payable": false,
      "stateMutability": "nonpayable",
      "type": "function"
    },
    {
      "constant": false,
      "inputs": [
        {
          "internalType": "uint256",
          "name": "addAmount",
          "type": "uint256"
        }
      ],
      "name": "_addReserves",
      "outputs": [
        {
          "internalType": "uint256",
          "name": "",
          "type": "uint256"
        }
      ],
      "payable": false,
      "stateMutability": "nonpayable",
      "type": "function"
    },
    {
      "constant": false,
      "inputs": [
        {
          "internalType": "bytes",
          "name": "data",
          "type": "bytes"
        }
      ],
      "name": "_becomeImplementation",
      "outputs": [],
      "payable": false,
      "stateMutability": "nonpayable",
      "type": "function"
    },
    {
      "constant": false,
      "inputs": [
        {
          "internalType": "uint256",
          "name": "reduceAmount",
          "type": "uint256"
        }
      ],
      "name": "_reduceReserves",
      "outputs": [
        {
          "internalType": "uint256",
          "name": "",
          "type": "uint256"
        }
      ],
      "payable": false,
      "stateMutability": "nonpayable",
      "type": "function"
    },
    {
      "constant": false,
      "inputs": [],
      "name": "_resignImplementation",
      "outputs": [],
      "payable": false,
      "stateMutability": "nonpayable",
      "type": "function"
    },
    {
      "constant": false,
      "inputs": [
        {
          "internalType": "contract ComptrollerInterface",
          "name": "newComptroller",
          "type": "address"
        }
      ],
      "name": "_setComptroller",
      "outputs": [
        {
          "internalType": "uint256",
          "name": "",
          "type": "uint256"
        }
      ],
      "payable": false,
      "stateMutability": "nonpayable",
      "type": "function"
    },
    {
      "constant": false,
      "inputs": [
        {
          "internalType": "address payable",
          "name": "newFeeTaker",
          "type": "address"
        }
      ],
      "name": "_setFeeTaker",
      "outputs": [
        {
          "internalType": "uint256",
          "name": "",
          "type": "uint256"
        }
      ],
      "payable": false,
      "stateMutability": "nonpayable",
      "type": "function"
    },
    {
      "constant": false,
      "inputs": [
        {
          "internalType": "contract InterestRateModel",
          "name": "newInterestRateModel",
          "type": "address"
        }
      ],
      "name": "_setInterestRateModel",
      "outputs": [
        {
          "internalType": "uint256",
          "name": "",
          "type": "uint256"
        }
      ],
      "payable": false,
      "stateMutability": "nonpayable",
      "type": "function"
    },
    {
      "constant": false,
      "inputs": [
        {
          "internalType": "address payable",
          "name": "newPendingAdmin",
          "type": "address"
        }
      ],
      "name": "_setPendingAdmin",
      "outputs": [
        {
          "internalType": "uint256",
          "name": "",
          "type": "uint256"
        }
      ],
      "payable": false,
      "stateMutability": "nonpayable",
      "type": "function"
    },
    {
      "constant": false,
      "inputs": [
        {
          "internalType": "uint256",
          "name": "newReserveFactorMantissa",
          "type": "uint256"
        }
      ],
      "name": "_setReserveFactor",
      "outputs": [
        {
          "internalType": "uint256",
          "name": "",
          "type": "uint256"
        }
      ],
      "payable": false,
      "stateMutability": "nonpayable",
      "type": "function"
    },
    {
      "constant": true,
      "inputs": [],
      "name": "accrualBlockNumber",
      "outputs": [
        {
          "internalType": "uint256",
          "name": "",
          "type": "uint256"
        }
      ],
      "payable": false,
      "stateMutability": "view",
      "type": "function"
    },
    {
      "constant": false,
      "inputs": [],
      "name": "accrueInterest",
      "outputs": [
        {
          "internalType": "uint256",
          "name": "",
          "type": "uint256"
        }
      ],
      "payable": false,
      "stateMutability": "nonpayable",
      "type": "function"
    },
    {
      "constant": true,
      "inputs": [],
      "name": "admin",
      "outputs": [
        {
          "internalType": "address payable",
          "name": "",
          "type": "address"
        }
      ],
      "payable": false,
      "stateMutability": "view",
      "type": "function"
    },
    {
      "constant": true,
      "inputs": [
        {
          "internalType": "address",
          "name": "owner",
          "type": "address"
        },
        {
          "internalType": "address",
          "name": "spender",
          "type": "address"
        }
      ],
      "name": "allowance",
      "outputs": [
        {
          "internalType": "uint256",
          "name": "",
          "type": "uint256"
        }
      ],
      "payable": false,
      "stateMutability": "view",
      "type": "function"
    },
    {
      "constant": false,
      "inputs": [
        {
          "internalType": "address",
          "name": "spender",
          "type": "address"
        },
        {
          "internalType": "uint256",
          "name": "amount",
          "type": "uint256"
        }
      ],
      "name": "approve",
      "outputs": [
        {
          "internalType": "bool",
          "name": "",
          "type": "bool"
        }
      ],
      "payable": false,
      "stateMutability": "nonpayable",
      "type": "function"
    },
    {
      "constant": true,
      "inputs": [
        {
          "internalType": "address",
          "name": "owner",
          "type": "address"
        }
      ],
      "name": "balanceOf",
      "outputs": [
        {
          "internalType": "uint256",
          "name": "",
          "type": "uint256"
        }
      ],
      "payable": false,
      "stateMutability": "view",
      "type": "function"
    },
    {
      "constant": false,
      "inputs": [
        {
          "internalType": "address",
          "name": "owner",
          "type": "address"
        }
      ],
      "name": "balanceOfUnderlying",
      "outputs": [
        {
          "internalType": "uint256",
          "name": "",
          "type": "uint256"
        }
      ],
      "payable": false,
      "stateMutability": "nonpayable",
      "type": "function"
    },
    {
      "constant": false,
      "inputs": [
        {
          "internalType": "uint256",
          "name": "borrowAmount",
          "type": "uint256"
        }
      ],
      "name": "borrow",
      "outputs": [
        {
          "internalType": "uint256",
          "name": "",
          "type": "uint256"
        }
      ],
      "payable": false,
      "stateMutability": "nonpayable",
      "type": "function"
    },
    {
      "constant": false,
      "inputs": [
        {
          "internalType": "address",
          "name": "account",
          "type": "address"
        }
      ],
      "name": "borrowBalanceCurrent",
      "outputs": [
        {
          "internalType": "uint256",
          "name": "",
          "type": "uint256"
        }
      ],
      "payable": false,
      "stateMutability": "nonpayable",
      "type": "function"
    },
    {
      "constant": true,
      "inputs": [
        {
          "internalType": "address",
          "name": "account",
          "type": "address"
        }
      ],
      "name": "borrowBalanceStored",
      "outputs": [
        {
          "internalType": "uint256",
          "name": "",
          "type": "uint256"
        }
      ],
      "payable": false,
      "stateMutability": "view",
      "type": "function"
    },
    {
      "constant": true,
      "inputs": [],
      "name": "borrowIndex",
      "outputs": [
        {
          "internalType": "uint256",
          "name": "",
          "type": "uint256"
        }
      ],
      "payable": false,
      "stateMutability": "view",
      "type": "function"
    },
    {
      "constant": false,
      "inputs": [
        {
          "internalType": "uint256",
          "name": "borrowAmount",
          "type": "uint256"
        }
      ],
      "name": "borrowNative",
      "outputs": [
        {
          "internalType": "uint256",
          "name": "",
          "type": "uint256"
        }
      ],
      "payable": false,
      "stateMutability": "nonpayable",
      "type": "function"
    },
    {
      "constant": true,
      "inputs": [],
      "name": "borrowRatePerBlock",
      "outputs": [
        {
          "internalType": "uint256",
          "name": "",
          "type": "uint256"
        }
      ],
      "payable": false,
      "stateMutability": "view",
      "type": "function"
    },
    {
      "constant": true,
      "inputs": [],
      "name": "comptroller",
      "outputs": [
        {
          "internalType": "contract ComptrollerInterface",
          "name": "",
          "type": "address"
        }
      ],
      "payable": false,
      "stateMutability": "view",
      "type": "function"
    },
    {
      "constant": true,
      "inputs": [],
      "name": "decimals",
      "outputs": [
        {
          "internalType": "uint8",
          "name": "",
          "type": "uint8"
        }
      ],
      "payable": false,
      "stateMutability": "view",
      "type": "function"
    },
    {
      "constant": false,
      "inputs": [],
      "name": "exchangeRateCurrent",
      "outputs": [
        {
          "internalType": "uint256",
          "name": "",
          "type": "uint256"
        }
      ],
      "payable": false,
      "stateMutability": "nonpayable",
      "type": "function"
    },
    {
      "constant": true,
      "inputs": [],
      "name": "exchangeRateStored",
      "outputs": [
        {
          "internalType": "uint256",
          "name": "",
          "type": "uint256"
        }
      ],
      "payable": false,
      "stateMutability": "view",
      "type": "function"
    },
    {
      "constant": true,
      "inputs": [],
      "name": "feeTaker",
      "outputs": [
        {
          "internalType": "address payable",
          "name": "",
          "type": "address"
        }
      ],
      "payable": false,
      "stateMutability": "view",
      "type": "function"
    },
    {
      "constant": true,
      "inputs": [
        {
          "internalType": "address",
          "name": "account",
          "type": "address"
        }
      ],
      "name": "getAccountSnapshot",
      "outputs": [
        {
          "internalType": "uint256",
          "name": "",
          "type": "uint256"
        },
        {
          "internalType": "uint256",
          "name": "",
          "type": "uint256"
        },
        {
          "internalType": "uint256",
          "name": "",
          "type": "uint256"
        },
        {
          "internalType": "uint256",
          "name": "",
          "type": "uint256"
        }
      ],
      "payable": false,
      "stateMutability": "view",
      "type": "function"
    },
    {
      "constant": true,
      "inputs": [],
      "name": "getCash",
      "outputs": [
        {
          "internalType": "uint256",
          "name": "",
          "type": "uint256"
        }
      ],
      "payable": false,
      "stateMutability": "view",
      "type": "function"
    },
    {
      "constant": false,
      "inputs": [
        {
          "internalType": "address",
          "name": "underlying_",
          "type": "address"
        },
        {
          "internalType": "contract ComptrollerInterface",
          "name": "comptroller_",
          "type": "address"
        },
        {
          "internalType": "contract InterestRateModel",
          "name": "interestRateModel_",
          "type": "address"
        },
        {
          "internalType": "uint256",
          "name": "initialExchangeRateMantissa_",
          "type": "uint256"
        },
        {
          "internalType": "string",
          "name": "name_",
          "type": "string"
        },
        {
          "internalType": "string",
          "name": "symbol_",
          "type": "string"
        },
        {
          "internalType": "uint8",
          "name": "decimals_",
          "type": "uint8"
        }
      ],
      "name": "initialize",
      "outputs": [],
      "payable": false,
      "stateMutability": "nonpayable",
      "type": "function"
    },
    {
      "constant": false,
      "inputs": [
        {
          "internalType": "contract ComptrollerInterface",
          "name": "comptroller_",
          "type": "address"
        },
        {
          "internalType": "contract InterestRateModel",
          "name": "interestRateModel_",
          "type": "address"
        },
        {
          "internalType": "uint256",
          "name": "initialExchangeRateMantissa_",
          "type": "uint256"
        },
        {
          "internalType": "string",
          "name": "name_",
          "type": "string"
        },
        {
          "internalType": "string",
          "name": "symbol_",
          "type": "string"
        },
        {
          "internalType": "uint8",
          "name": "decimals_",
          "type": "uint8"
        }
      ],
      "name": "initialize",
      "outputs": [],
      "payable": false,
      "stateMutability": "nonpayable",
      "type": "function"
    },
    {
      "constant": true,
      "inputs": [],
      "name": "interestRateModel",
      "outputs": [
        {
          "internalType": "contract InterestRateModel",
          "name": "",
          "type": "address"
        }
      ],
      "payable": false,
      "stateMutability": "view",
      "type": "function"
    },
    {
      "constant": true,
      "inputs": [],
      "name": "isCToken",
      "outputs": [
        {
          "internalType": "bool",
          "name": "",
          "type": "bool"
        }
      ],
      "payable": false,
      "stateMutability": "view",
      "type": "function"
    },
    {
      "constant": false,
      "inputs": [
        {
          "internalType": "address",
          "name": "borrower",
          "type": "address"
        },
        {
          "internalType": "uint256",
          "name": "repayAmount",
          "type": "uint256"
        },
        {
          "internalType": "contract CTokenInterface",
          "name": "cTokenCollateral",
          "type": "address"
        }
      ],
      "name": "liquidateBorrow",
      "outputs": [
        {
          "internalType": "uint256",
          "name": "",
          "type": "uint256"
        }
      ],
      "payable": false,
      "stateMutability": "nonpayable",
      "type": "function"
    },
    {
      "constant": false,
      "inputs": [
        {
          "internalType": "uint256",
          "name": "mintAmount",
          "type": "uint256"
        }
      ],
      "name": "mint",
      "outputs": [
        {
          "internalType": "uint256",
          "name": "",
          "type": "uint256"
        }
      ],
      "payable": false,
      "stateMutability": "nonpayable",
      "type": "function"
    },
    {
      "constant": false,
      "inputs": [],
      "name": "mintNative",
      "outputs": [
        {
          "internalType": "uint256",
          "name": "",
          "type": "uint256"
        }
      ],
      "payable": true,
      "stateMutability": "payable",
      "type": "function"
    },
    {
      "constant": true,
      "inputs": [],
      "name": "name",
      "outputs": [
        {
          "internalType": "string",
          "name": "",
          "type": "string"
        }
      ],
      "payable": false,
      "stateMutability": "view",
      "type": "function"
    },
    {
      "constant": true,
      "inputs": [],
      "name": "pendingAdmin",
      "outputs": [
        {
          "internalType": "address payable",
          "name": "",
          "type": "address"
        }
      ],
      "payable": false,
      "stateMutability": "view",
      "type": "function"
    },
    {
      "constant": true,
      "inputs": [],
      "name": "protocolSeizeShareMantissa",
      "outputs": [
        {
          "internalType": "uint256",
          "name": "",
          "type": "uint256"
        }
      ],
      "payable": false,
      "stateMutability": "view",
      "type": "function"
    },
    {
      "constant": false,
      "inputs": [
        {
          "internalType": "uint256",
          "name": "redeemTokens",
          "type": "uint256"
        }
      ],
      "name": "redeem",
      "outputs": [
        {
          "internalType": "uint256",
          "name": "",
          "type": "uint256"
        }
      ],
      "payable": false,
      "stateMutability": "nonpayable",
      "type": "function"
    },
    {
      "constant": false,
      "inputs": [
        {
          "internalType": "uint256",
          "name": "redeemTokens",
          "type": "uint256"
        }
      ],
      "name": "redeemNative",
      "outputs": [
        {
          "internalType": "uint256",
          "name": "",
          "type": "uint256"
        }
      ],
      "payable": false,
      "stateMutability": "nonpayable",
      "type": "function"
    },
    {
      "constant": false,
      "inputs": [
        {
          "internalType": "uint256",
          "name": "redeemAmount",
          "type": "uint256"
        }
      ],
      "name": "redeemUnderlying",
      "outputs": [
        {
          "internalType": "uint256",
          "name": "",
          "type": "uint256"
        }
      ],
      "payable": false,
      "stateMutability": "nonpayable",
      "type": "function"
    },
    {
      "constant": false,
      "inputs": [
        {
          "internalType": "uint256",
          "name": "redeemAmount",
          "type": "uint256"
        }
      ],
      "name": "redeemUnderlyingNative",
      "outputs": [
        {
          "internalType": "uint256",
          "name": "",
          "type": "uint256"
        }
      ],
      "payable": false,
      "stateMutability": "nonpayable",
      "type": "function"
    },
    {
      "constant": false,
      "inputs": [
        {
          "internalType": "uint256",
          "name": "repayAmount",
          "type": "uint256"
        }
      ],
      "name": "repayBorrow",
      "outputs": [
        {
          "internalType": "uint256",
          "name": "",
          "type": "uint256"
        }
      ],
      "payable": false,
      "stateMutability": "nonpayable",
      "type": "function"
    },
    {
      "constant": false,
      "inputs": [
        {
          "internalType": "address",
          "name": "borrower",
          "type": "address"
        },
        {
          "internalType": "uint256",
          "name": "repayAmount",
          "type": "uint256"
        }
      ],
      "name": "repayBorrowBehalf",
      "outputs": [
        {
          "internalType": "uint256",
          "name": "",
          "type": "uint256"
        }
      ],
      "payable": false,
      "stateMutability": "nonpayable",
      "type": "function"
    },
    {
      "constant": false,
      "inputs": [
        {
          "internalType": "address",
          "name": "borrower",
          "type": "address"
        }
      ],
      "name": "repayBorrowBehalfNative",
      "outputs": [],
      "payable": true,
      "stateMutability": "payable",
      "type": "function"
    },
    {
      "constant": false,
      "inputs": [],
      "name": "repayBorrowNative",
      "outputs": [],
      "payable": true,
      "stateMutability": "payable",
      "type": "function"
    },
    {
      "constant": true,
      "inputs": [],
      "name": "reserveFactorMantissa",
      "outputs": [
        {
          "internalType": "uint256",
          "name": "",
          "type": "uint256"
        }
      ],
      "payable": false,
      "stateMutability": "view",
      "type": "function"
    },
    {
      "constant": false,
      "inputs": [
        {
          "internalType": "address",
          "name": "liquidator",
          "type": "address"
        },
        {
          "internalType": "address",
          "name": "borrower",
          "type": "address"
        },
        {
          "internalType": "uint256",
          "name": "seizeTokens",
          "type": "uint256"
        }
      ],
      "name": "seize",
      "outputs": [
        {
          "internalType": "uint256",
          "name": "",
          "type": "uint256"
        }
      ],
      "payable": false,
      "stateMutability": "nonpayable",
      "type": "function"
    },
    {
      "constant": true,
      "inputs": [],
      "name": "supplyRatePerBlock",
      "outputs": [
        {
          "internalType": "uint256",
          "name": "",
          "type": "uint256"
        }
      ],
      "payable": false,
      "stateMutability": "view",
      "type": "function"
    },
    {
      "constant": false,
      "inputs": [
        {
          "internalType": "contract EIP20NonStandardInterface",
          "name": "token",
          "type": "address"
        }
      ],
      "name": "sweepToken",
      "outputs": [],
      "payable": false,
      "stateMutability": "nonpayable",
      "type": "function"
    },
    {
      "constant": true,
      "inputs": [],
      "name": "symbol",
      "outputs": [
        {
          "internalType": "string",
          "name": "",
          "type": "string"
        }
      ],
      "payable": false,
      "stateMutability": "view",
      "type": "function"
    },
    {
      "constant": true,
      "inputs": [],
      "name": "totalBorrows",
      "outputs": [
        {
          "internalType": "uint256",
          "name": "",
          "type": "uint256"
        }
      ],
      "payable": false,
      "stateMutability": "view",
      "type": "function"
    },
    {
      "constant": false,
      "inputs": [],
      "name": "totalBorrowsCurrent",
      "outputs": [
        {
          "internalType": "uint256",
          "name": "",
          "type": "uint256"
        }
      ],
      "payable": false,
      "stateMutability": "nonpayable",
      "type": "function"
    },
    {
      "constant": true,
      "inputs": [],
      "name": "totalReserves",
      "outputs": [
        {
          "internalType": "uint256",
          "name": "",
          "type": "uint256"
        }
      ],
      "payable": false,
      "stateMutability": "view",
      "type": "function"
    },
    {
      "constant": true,
      "inputs": [],
      "name": "totalSupply",
      "outputs": [
        {
          "internalType": "uint256",
          "name": "",
          "type": "uint256"
        }
      ],
      "payable": false,
      "stateMutability": "view",
      "type": "function"
    },
    {
      "constant": false,
      "inputs": [
        {
          "internalType": "address",
          "name": "dst",
          "type": "address"
        },
        {
          "internalType": "uint256",
          "name": "amount",
          "type": "uint256"
        }
      ],
      "name": "transfer",
      "outputs": [
        {
          "internalType": "bool",
          "name": "",
          "type": "bool"
        }
      ],
      "payable": false,
      "stateMutability": "nonpayable",
      "type": "function"
    },
    {
      "constant": false,
      "inputs": [
        {
          "internalType": "address",
          "name": "src",
          "type": "address"
        },
        {
          "internalType": "address",
          "name": "dst",
          "type": "address"
        },
        {
          "internalType": "uint256",
          "name": "amount",
          "type": "uint256"
        }
      ],
      "name": "transferFrom",
      "outputs": [
        {
          "internalType": "bool",
          "name": "",
          "type": "bool"
        }
      ],
      "payable": false,
      "stateMutability": "nonpayable",
      "type": "function"
    },
    {
      "constant": true,
      "inputs": [],
      "name": "underlying",
      "outputs": [
        {
          "internalType": "address",
          "name": "",
          "type": "address"
        }
      ],
      "payable": false,
      "stateMutability": "view",
      "type": "function"
    }
  ],
  "transactionHash": "0x3bae78176c0a1df40903bccda6f32a1817044f8361b12d24311756ea9f2fcc78",
  "args": [],
  "solcInputHash": "3a81636df9bb88be9862017b69bde82d",
  "bytecode": "0x6080604052600160125534801561001557600080fd5b50615e2780620000266000396000f3fe6080604052600436106103975760003560e01c8063852a12e3116101dc578063c37f68e211610102578063e9c714f2116100a0578063f851a4401161006f578063f851a44014610fc6578063f8f9da2814610fdb578063fca7820b14610ff0578063fe9c44ae1461101a57610397565b8063e9c714f214610f26578063f2b3abbd14610f3b578063f3fdb15a14610f6e578063f5e3c46214610f8357610397565b8063db006a75116100dc578063db006a7514610e71578063dbf7692914610e9b578063dd62ed3e14610ec1578063dff7648414610efc57610397565b8063c37f68e214610dbb578063c5ead62214610e14578063c5ebeaec14610e4757610397565b8063a0712d681161017a578063ae9d70b011610149578063ae9d70b014610d1b578063b2a02ff114610d30578063b71d1a0c14610d73578063bd6d894d14610da657610397565b8063a0712d6814610c8e578063a6afed9514610cb8578063a9059cbb14610ccd578063aa5af0fd14610d0657610397565b80638f840ddd116101b65780638f840ddd14610ad657806395d89b4114610aeb57806395dd919314610b0057806399d8c1b414610b3357610397565b8063852a12e314610a7a578063884b934314610aa45780638d3f9c6214610ace57610397565b80633af9e669116102c15780635fe3b5671161025f5780636f307dc31161022e5780636f307dc314610a0857806370a0823114610a1d57806373acee9814610a50578063749f104414610a6557610397565b80635fe3b5671461099f578063601a0bf1146109b45780636752e702146109de5780636c540baf146109f357610397565b80634576b5db1161029b5780634576b5db1461087c57806347bd3718146108af5780634bf03edf146108c457806356e67728146108ee57610397565b80633af9e6691461080a5780633b1d21a21461083d5780633e9410101461085257610397565b8063182df0f51161033957806323b872dd1161030857806323b872dd146107325780632608f8181461077557806326782247146107ae578063313ce567146107df57610397565b8063182df0f51461057f5780631a31d465146105945780631be19560146106f7578063219f2fe71461072a57610397565b8063153ab50511610375578063153ab5051461050b578063173b99041461052257806317bfdfbc1461053757806318160ddd1461056a57610397565b806306fdde03146103f8578063095ea7b3146104825780630e752702146104cf575b60026012556013546001600160a01b03163314156103b4576103f1565b60006103bf3461102f565b5090506103ef816040518060400160405280600b81526020016a1b5a5b9d0819985a5b195960aa1b8152506110d7565b505b6001601255005b34801561040457600080fd5b5061040d6112d7565b6040805160208082528351818301528351919283929083019185019080838360005b8381101561044757818101518382015260200161042f565b50505050905090810190601f1680156104745780820380516001836020036101000a031916815260200191505b509250505060405180910390f35b34801561048e57600080fd5b506104bb600480360360408110156104a557600080fd5b506001600160a01b038135169060200135611364565b604080519115158252519081900360200190f35b3480156104db57600080fd5b506104f9600480360360208110156104f257600080fd5b50356113d1565b60408051918252519081900360200190f35b34801561051757600080fd5b506105206113e7565b005b34801561052e57600080fd5b506104f9611437565b34801561054357600080fd5b506104f96004803603602081101561055a57600080fd5b50356001600160a01b031661143d565b34801561057657600080fd5b506104f96114fd565b34801561058b57600080fd5b506104f9611503565b3480156105a057600080fd5b50610520600480360360e08110156105b757600080fd5b6001600160a01b03823581169260208101358216926040820135909216916060820135919081019060a081016080820135600160201b8111156105f957600080fd5b82018360208201111561060b57600080fd5b803590602001918460018302840111600160201b8311171561062c57600080fd5b91908080601f0160208091040260200160405190810160405280939291908181526020018383808284376000920191909152509295949360208101935035915050600160201b81111561067e57600080fd5b82018360208201111561069057600080fd5b803590602001918460018302840111600160201b831117156106b157600080fd5b91908080601f0160208091040260200160405190810160405280939291908181526020018383808284376000920191909152509295505050903560ff1691506115669050565b34801561070357600080fd5b506105206004803603602081101561071a57600080fd5b50356001600160a01b0316611605565b6104f9611741565b34801561073e57600080fd5b506104bb6004803603606081101561075557600080fd5b506001600160a01b0381358116916020810135909116906040013561175e565b34801561078157600080fd5b506104f96004803603604081101561079857600080fd5b506001600160a01b0381351690602001356117d0565b3480156107ba57600080fd5b506107c36117e6565b604080516001600160a01b039092168252519081900360200190f35b3480156107eb57600080fd5b506107f46117f5565b6040805160ff9092168252519081900360200190f35b34801561081657600080fd5b506104f96004803603602081101561082d57600080fd5b50356001600160a01b03166117fe565b34801561084957600080fd5b506104f96118b4565b34801561085e57600080fd5b506104f96004803603602081101561087557600080fd5b50356118c3565b34801561088857600080fd5b506104f96004803603602081101561089f57600080fd5b50356001600160a01b03166118ce565b3480156108bb57600080fd5b506104f9611a23565b3480156108d057600080fd5b506104f9600480360360208110156108e757600080fd5b5035611a29565b3480156108fa57600080fd5b506105206004803603602081101561091157600080fd5b810190602081018135600160201b81111561092b57600080fd5b82018360208201111561093d57600080fd5b803590602001918460018302840111600160201b8311171561095e57600080fd5b91908080601f016020809104026020016040519081016040528093929190818152602001838380828437600092019190915250929550611a44945050505050565b3480156109ab57600080fd5b506107c3611a95565b3480156109c057600080fd5b506104f9600480360360208110156109d757600080fd5b5035611aa4565b3480156109ea57600080fd5b506104f9611b3f565b3480156109ff57600080fd5b506104f9611b4a565b348015610a1457600080fd5b506107c3611b50565b348015610a2957600080fd5b506104f960048036036020811015610a4057600080fd5b50356001600160a01b0316611b5f565b348015610a5c57600080fd5b506104f9611b7a565b348015610a7157600080fd5b506107c3611c30565b348015610a8657600080fd5b506104f960048036036020811015610a9d57600080fd5b5035611c3f565b348015610ab057600080fd5b506104f960048036036020811015610ac757600080fd5b5035611c4a565b610520611c5a565b348015610ae257600080fd5b506104f9611ca9565b348015610af757600080fd5b5061040d611caf565b348015610b0c57600080fd5b506104f960048036036020811015610b2357600080fd5b50356001600160a01b0316611d07565b348015610b3f57600080fd5b50610520600480360360c0811015610b5657600080fd5b6001600160a01b03823581169260208101359091169160408201359190810190608081016060820135600160201b811115610b9057600080fd5b820183602082011115610ba257600080fd5b803590602001918460018302840111600160201b83111715610bc357600080fd5b91908080601f0160208091040260200160405190810160405280939291908181526020018383808284376000920191909152509295949360208101935035915050600160201b811115610c1557600080fd5b820183602082011115610c2757600080fd5b803590602001918460018302840111600160201b83111715610c4857600080fd5b91908080601f0160208091040260200160405190810160405280939291908181526020018383808284376000920191909152509295505050903560ff169150611d649050565b348015610c9a57600080fd5b506104f960048036036020811015610cb157600080fd5b5035611f4b565b348015610cc457600080fd5b506104f9611f57565b348015610cd957600080fd5b506104bb60048036036040811015610cf057600080fd5b506001600160a01b0381351690602001356122af565b348015610d1257600080fd5b506104f9612320565b348015610d2757600080fd5b506104f9612326565b348015610d3c57600080fd5b506104f960048036036060811015610d5357600080fd5b506001600160a01b038135811691602081013590911690604001356123c5565b348015610d7f57600080fd5b506104f960048036036020811015610d9657600080fd5b50356001600160a01b0316612436565b348015610db257600080fd5b506104f96124c2565b348015610dc757600080fd5b50610dee60048036036020811015610dde57600080fd5b50356001600160a01b031661257e565b604080519485526020850193909352838301919091526060830152519081900360800190f35b348015610e2057600080fd5b506104f960048036036020811015610e3757600080fd5b50356001600160a01b0316612613565b348015610e5357600080fd5b506104f960048036036020811015610e6a57600080fd5b503561269f565b348015610e7d57600080fd5b506104f960048036036020811015610e9457600080fd5b50356126aa565b61052060048036036020811015610eb157600080fd5b50356001600160a01b03166126b5565b348015610ecd57600080fd5b506104f960048036036040811015610ee457600080fd5b506001600160a01b0381358116916020013516612711565b348015610f0857600080fd5b506104f960048036036020811015610f1f57600080fd5b503561273c565b348015610f3257600080fd5b506104f961274c565b348015610f4757600080fd5b506104f960048036036020811015610f5e57600080fd5b50356001600160a01b031661284f565b348015610f7a57600080fd5b506107c3612889565b348015610f8f57600080fd5b506104f960048036036060811015610fa657600080fd5b506001600160a01b03813581169160208101359160409091013516612898565b348015610fd257600080fd5b506107c36128b0565b348015610fe757600080fd5b506104f96128c4565b348015610ffc57600080fd5b506104f96004803603602081101561101357600080fd5b5035612928565b34801561102657600080fd5b506104bb6129a6565b60008054819060ff16611076576040805162461bcd60e51b815260206004820152600a6024820152691c994b595b9d195c995960b21b604482015290519081900360640190fd5b6000805460ff19168155611088611f57565b905080156110b3576110a681601081111561109f57fe5b601e6129ab565b9250600091506110c39050565b6110bd3385612a11565b92509250505b6000805460ff191660011790559092909150565b816110e1576112d3565b606081516005016040519080825280601f01601f191660200182016040528015611112576020820181803883390190505b50905060005b82518110156111635782818151811061112d57fe5b602001015160f81c60f81b82828151811061114457fe5b60200101906001600160f81b031916908160001a905350600101611118565b8151600160fd1b9083908390811061117757fe5b60200101906001600160f81b031916908160001a905350602860f81b8282600101815181106111a257fe5b60200101906001600160f81b031916908160001a905350600a840460300160f81b8282600201815181106111d257fe5b60200101906001600160f81b031916908160001a905350600a840660300160f81b82826003018151811061120257fe5b60200101906001600160f81b031916908160001a905350602960f81b82826004018151811061122d57fe5b60200101906001600160f81b031916908160001a9053508184156112cf5760405162461bcd60e51b81526004018080602001828103825283818151815260200191508051906020019080838360005b8381101561129457818101518382015260200161127c565b50505050905090810190601f1680156112c15780820380516001836020036101000a031916815260200191505b509250505060405180910390fd5b5050505b5050565b60018054604080516020600284861615610100026000190190941693909304601f8101849004840282018401909252818152929183018282801561135c5780601f106113315761010080835404028352916020019161135c565b820191906000526020600020905b81548152906001019060200180831161133f57829003601f168201915b505050505081565b336000818152600f602090815260408083206001600160a01b03871680855290835281842086905581518681529151939493909284927f8c5be1e5ebec7d5bd14f71427d1e84f3dd0314c0f7b2291e5b200ac8c7c3b925929081900390910190a360019150505b92915050565b6000806113dd83612de3565b509150505b919050565b60035461010090046001600160a01b031633146114355760405162461bcd60e51b815260040180806020018281038252602d815260200180615bc4602d913960400191505060405180910390fd5b565b60085481565b6000805460ff16611482576040805162461bcd60e51b815260206004820152600a6024820152691c994b595b9d195c995960b21b604482015290519081900360640190fd5b6000805460ff19168155611494611f57565b146114df576040805162461bcd60e51b81526020600482015260166024820152751858d8dc9d59481a5b9d195c995cdd0819985a5b195960521b604482015290519081900360640190fd5b6114e882611d07565b90505b6000805460ff19166001179055919050565b600d5481565b6000806000611510612e65565b9092509050600082600381111561152357fe5b1461155f5760405162461bcd60e51b8152600401808060200182810382526035815260200180615d116035913960400191505060405180910390fd5b9150505b90565b611574868686868686611d64565b601380546001600160a01b0319166001600160a01b038981169190911791829055604080516318160ddd60e01b8152905192909116916318160ddd91600480820192602092909190829003018186803b1580156115d057600080fd5b505afa1580156115e4573d6000803e3d6000fd5b505050506040513d60208110156115fa57600080fd5b505050505050505050565b6013546001600160a01b03828116911614156116525760405162461bcd60e51b8152600401808060200182810382526032815260200180615b406032913960400191505060405180910390fd5b604080516370a0823160e01b815230600482015290516000916001600160a01b038416916370a0823191602480820192602092909190829003018186803b15801561169c57600080fd5b505afa1580156116b0573d6000803e3d6000fd5b505050506040513d60208110156116c657600080fd5b50516003546040805163a9059cbb60e01b81526101009092046001600160a01b03908116600484015260248301849052905192935084169163a9059cbb9160448082019260009290919082900301818387803b15801561172557600080fd5b505af1158015611739573d6000803e3d6000fd5b505050505050565b60026012556000806117523461102f565b50915050600160125590565b6000805460ff166117a3576040805162461bcd60e51b815260206004820152600a6024820152691c994b595b9d195c995960b21b604482015290519081900360640190fd5b6000805460ff191681556117b933868686612f14565b1490506000805460ff191660011790559392505050565b6000806117dd84846131a0565b50949350505050565b6004546001600160a01b031681565b60035460ff1681565b6000611808615953565b604051806020016040528061181b6124c2565b90526001600160a01b0384166000908152600e602052604081205491925090819061184790849061324b565b9092509050600082600381111561185a57fe5b146118ac576040805162461bcd60e51b815260206004820152601f60248201527f62616c616e636520636f756c64206e6f742062652063616c63756c6174656400604482015290519081900360640190fd5b949350505050565b60006118be61329e565b905090565b60006113cb8261331e565b60035460009061010090046001600160a01b031633146118fb576118f46001603f6129ab565b90506113e2565b60055460408051623f1ee960e11b815290516001600160a01b0392831692851691627e3dd2916004808301926020929190829003018186803b15801561194057600080fd5b505afa158015611954573d6000803e3d6000fd5b505050506040513d602081101561196a57600080fd5b50516119bd576040805162461bcd60e51b815260206004820152601c60248201527f6d61726b6572206d6574686f642072657475726e65642066616c736500000000604482015290519081900360640190fd5b600580546001600160a01b0319166001600160a01b03858116918217909255604080519284168352602083019190915280517f7ac369dbd14fa5ea3f473ed67cc9d598964a77501540ba6751eb0b3decf5870d9281900390910190a160005b9392505050565b600b5481565b60026012556000611a39826133b2565b600160125592915050565b60035461010090046001600160a01b03163314611a925760405162461bcd60e51b815260040180806020018281038252602d815260200180615dc6602d913960400191505060405180910390fd5b50565b6005546001600160a01b031681565b6000805460ff16611ae9576040805162461bcd60e51b815260206004820152600a6024820152691c994b595b9d195c995960b21b604482015290519081900360640190fd5b6000805460ff19168155611afb611f57565b90508015611b2157611b19816010811115611b1257fe5b60306129ab565b9150506114eb565b611b2a83613433565b9150506000805460ff19166001179055919050565b666379da05b6000081565b60095481565b6013546001600160a01b031681565b6001600160a01b03166000908152600e602052604090205490565b6000805460ff16611bbf576040805162461bcd60e51b815260206004820152600a6024820152691c994b595b9d195c995960b21b604482015290519081900360640190fd5b6000805460ff19168155611bd1611f57565b14611c1c576040805162461bcd60e51b81526020600482015260166024820152751858d8dc9d59481a5b9d195c995cdd0819985a5b195960521b604482015290519081900360640190fd5b50600b546000805460ff1916600117905590565b6011546001600160a01b031681565b60006113cb8261355d565b60026012556000611a39826135d7565b60026012556000611c6a34612de3565b509050611ca181604051806040016040528060128152602001711c995c185e509bdc9c9bddc819985a5b195960721b8152506110d7565b506001601255565b600c5481565b6002805460408051602060018416156101000260001901909316849004601f8101849004840282018401909252818152929183018282801561135c5780601f106113315761010080835404028352916020019161135c565b6000806000611d1584613656565b90925090506000826003811115611d2857fe5b14611a1c5760405162461bcd60e51b8152600401808060200182810382526037815260200180615c1c6037913960400191505060405180910390fd5b60035461010090046001600160a01b03163314611db25760405162461bcd60e51b8152600401808060200182810382526024815260200180615af96024913960400191505060405180910390fd5b600954158015611dc25750600a54155b611dfd5760405162461bcd60e51b8152600401808060200182810382526023815260200180615b1d6023913960400191505060405180910390fd5b600784905583611e3e5760405162461bcd60e51b8152600401808060200182810382526030815260200180615b726030913960400191505060405180910390fd5b6000611e49876118ce565b90508015611e9e576040805162461bcd60e51b815260206004820152601a60248201527f73657474696e6720636f6d7074726f6c6c6572206661696c6564000000000000604482015290519081900360640190fd5b611ea661370a565b600955670de0b6b3a7640000600a55611ebe8661370e565b90508015611efd5760405162461bcd60e51b8152600401808060200182810382526022815260200180615ba26022913960400191505060405180910390fd5b8351611f10906001906020870190615966565b508251611f24906002906020860190615966565b50506003805460ff90921660ff199283161790556000805490911660011790555050505050565b6000806113dd8361102f565b600080611f6261370a565b60095490915080821415611f7b57600092505050611563565b6000611f8561329e565b600b54600c54600a54600654604080516315f2405360e01b815260048101879052602481018690526044810185905290519596509394929391926000926001600160a01b03909216916315f24053916064808301926020929190829003018186803b158015611ff357600080fd5b505afa158015612007573d6000803e3d6000fd5b505050506040513d602081101561201d57600080fd5b5051905065048c2739500081111561207c576040805162461bcd60e51b815260206004820152601c60248201527f626f72726f772072617465206973206162737572646c79206869676800000000604482015290519081900360640190fd5b6000806120898989613883565b9092509050600082600381111561209c57fe5b146120ee576040805162461bcd60e51b815260206004820152601f60248201527f636f756c64206e6f742063616c63756c61746520626c6f636b2064656c746100604482015290519081900360640190fd5b6120f6615953565b60008060008061211460405180602001604052808a815250876138a6565b9097509450600087600381111561212757fe5b14612159576121446009600689600381111561213f57fe5b61390e565b9e505050505050505050505050505050611563565b612163858c61324b565b9097509350600087600381111561217657fe5b1461218e576121446009600189600381111561213f57fe5b612198848c613974565b909750925060008760038111156121ab57fe5b146121c3576121446009600489600381111561213f57fe5b6121de6040518060200160405280600854815250858c61399a565b909750915060008760038111156121f157fe5b14612209576121446009600589600381111561213f57fe5b612214858a8b61399a565b9097509050600087600381111561222757fe5b1461223f576121446009600389600381111561213f57fe5b60098e9055600a819055600b839055600c829055604080518d8152602081018690528082018390526060810185905290517f4dec04e750ca11537cabcd8a9eab06494de08da3735bc8871cd41250e190bc049181900360800190a160009e50505050505050505050505050505090565b6000805460ff166122f4576040805162461bcd60e51b815260206004820152600a6024820152691c994b595b9d195c995960b21b604482015290519081900360640190fd5b6000805460ff1916815561230a33338686612f14565b1490506000805460ff1916600117905592915050565b600a5481565b6006546000906001600160a01b031663b816881661234261329e565b600b54600c546008546040518563ffffffff1660e01b81526004018085815260200184815260200183815260200182815260200194505050505060206040518083038186803b15801561239457600080fd5b505afa1580156123a8573d6000803e3d6000fd5b505050506040513d60208110156123be57600080fd5b5051905090565b6000805460ff1661240a576040805162461bcd60e51b815260206004820152600a6024820152691c994b595b9d195c995960b21b604482015290519081900360640190fd5b6000805460ff19169055612420338585856139f6565b90506000805460ff191660011790559392505050565b60035460009061010090046001600160a01b0316331461245c576118f4600160456129ab565b600480546001600160a01b038481166001600160a01b0319831681179093556040805191909216808252602082019390935281517fca4f2f25d0898edd99413412fb94012f9e54ec8142f9b093e7720646a95b16a9929181900390910190a16000611a1c565b6000805460ff16612507576040805162461bcd60e51b815260206004820152600a6024820152691c994b595b9d195c995960b21b604482015290519081900360640190fd5b6000805460ff19168155612519611f57565b14612564576040805162461bcd60e51b81526020600482015260166024820152751858d8dc9d59481a5b9d195c995cdd0819985a5b195960521b604482015290519081900360640190fd5b61256c611503565b90506000805460ff1916600117905590565b6001600160a01b0381166000908152600e60205260408120548190819081908180806125a989613656565b9350905060008160038111156125bb57fe5b146125d95760095b97506000965086955085945061260c9350505050565b6125e1612e65565b9250905060008160038111156125f357fe5b146125ff5760096125c3565b5060009650919450925090505b9193509193565b60035460009061010090046001600160a01b03163314612639576118f4600160426129ab565b601180546001600160a01b038481166001600160a01b0319831681179093556040805191909216808252602082019390935281517fdff56ee631cd7f71a6f089efee2defca6b87ffb37f48c860490d92c360c96a81929181900390910190a16000611a1c565b60006113cb826135d7565b60006113cb826133b2565b600260125560006126c682346131a0565b509050612708816040518060400160405280601881526020017f7265706179426f72726f77426568616c66206661696c656400000000000000008152506110d7565b50506001601255565b6001600160a01b039182166000908152600f6020908152604080832093909416825291909152205490565b60026012556000611a398261355d565b6004546000906001600160a01b031633141580612767575033155b1561277f57612778600160006129ab565b9050611563565b60038054600480546001600160a01b03818116610100818102610100600160a81b0319871617968790556001600160a01b031990931690935560408051948390048216808652929095041660208401528351909391927ff9ffabca9c8276e99321725bcb43fb076a6c66a54b7f21c4e8146d8519b417dc92908290030190a1600454604080516001600160a01b038085168252909216602083015280517fca4f2f25d0898edd99413412fb94012f9e54ec8142f9b093e7720646a95b16a99281900390910190a160009250505090565b60008061285a611f57565b905080156128805761287881601081111561287157fe5b60406129ab565b9150506113e2565b611a1c8361370e565b6006546001600160a01b031681565b6000806128a6858585613dd0565b5095945050505050565b60035461010090046001600160a01b031681565b6006546000906001600160a01b03166315f240536128e061329e565b600b54600c546040518463ffffffff1660e01b815260040180848152602001838152602001828152602001935050505060206040518083038186803b15801561239457600080fd5b6000805460ff1661296d576040805162461bcd60e51b815260206004820152600a6024820152691c994b595b9d195c995960b21b604482015290519081900360640190fd5b6000805460ff1916815561297f611f57565b9050801561299d57611b1981601081111561299657fe5b60466129ab565b611b2a83613f02565b600181565b60007f45b96fe442630264581b197e84bbada861235052c5a1aadfff9ea4e40a969aa08360108111156129da57fe5b8360508111156129e657fe5b604080519283526020830191909152600082820152519081900360600190a1826010811115611a1c57fe5b60055460408051634ef4c3e160e01b81523060048201526001600160a01b03858116602483015260448201859052915160009384938493911691634ef4c3e19160648082019260209290919082900301818787803b158015612a7257600080fd5b505af1158015612a86573d6000803e3d6000fd5b505050506040513d6020811015612a9c57600080fd5b505190508015612ac057612ab36003601f8361390e565b925060009150612ddc9050565b612ac861370a565b60095414612adc57612ab3600a60226129ab565b612ae46159e4565b612aec612e65565b6040830181905260208301826003811115612b0357fe5b6003811115612b0e57fe5b9052506000905081602001516003811115612b2557fe5b14612b4f57612b41600960218360200151600381111561213f57fe5b935060009250612ddc915050565b612b598686613faa565b60c0820181905260408051602081018252908301518152612b7a9190614308565b6060830181905260208301826003811115612b9157fe5b6003811115612b9c57fe5b9052506000905081602001516003811115612bb357fe5b14612c05576040805162461bcd60e51b815260206004820181905260248201527f4d494e545f45584348414e47455f43414c43554c4154494f4e5f4641494c4544604482015290519081900360640190fd5b612c15600d548260600151613974565b6080830181905260208301826003811115612c2c57fe5b6003811115612c3757fe5b9052506000905081602001516003811115612c4e57fe5b14612c8a5760405162461bcd60e51b8152600401808060200182810382526028815260200180615d466028913960400191505060405180910390fd5b6001600160a01b0386166000908152600e60205260409020546060820151612cb29190613974565b60a0830181905260208301826003811115612cc957fe5b6003811115612cd457fe5b9052506000905081602001516003811115612ceb57fe5b14612d275760405162461bcd60e51b815260040180806020018281038252602b815260200180615bf1602b913960400191505060405180910390fd5b6080810151600d5560a08101516001600160a01b0387166000818152600e60209081526040918290209390935560c084015160608086015183519485529484019190915282820193909352517f4c209b5fc8ad50758f13e2e1088ba56a560dff690a1c6fef26394f4c03821c4f929181900390910190a1606081015160408051918252516001600160a01b038816913091600080516020615c8d8339815191529181900360200190a360c00151600093509150505b9250929050565b60008054819060ff16612e2a576040805162461bcd60e51b815260206004820152600a6024820152691c994b595b9d195c995960b21b604482015290519081900360640190fd5b6000805460ff19168155612e3c611f57565b90508015612e5a576110a6816010811115612e5357fe5b60366129ab565b6110bd33338661431f565b600d54600090819080612e8057505060075460009150612f10565b6000612e8a61329e565b90506000612e96615953565b6000612ea784600b54600c5461466d565b935090506000816003811115612eb957fe5b14612ece57955060009450612f109350505050565b612ed883866146ab565b925090506000816003811115612eea57fe5b14612eff57955060009450612f109350505050565b5051600095509350612f1092505050565b9091565b600554604080516317b9b84b60e31b81523060048201526001600160a01b03868116602483015285811660448301526064820185905291516000938493169163bdcdc25891608480830192602092919082900301818787803b158015612f7957600080fd5b505af1158015612f8d573d6000803e3d6000fd5b505050506040513d6020811015612fa357600080fd5b505190508015612fc257612fba6003604a8361390e565b9150506118ac565b836001600160a01b0316856001600160a01b03161415612fe857612fba6002604b6129ab565b60006001600160a01b038781169087161415613007575060001961302f565b506001600160a01b038086166000908152600f60209081526040808320938a16835292905220545b60008060008061303f8589613883565b9094509250600084600381111561305257fe5b14613070576130636009604b6129ab565b96505050505050506118ac565b6001600160a01b038a166000908152600e60205260409020546130939089613883565b909450915060008460038111156130a657fe5b146130b7576130636009604c6129ab565b6001600160a01b0389166000908152600e60205260409020546130da9089613974565b909450905060008460038111156130ed57fe5b146130fe576130636009604d6129ab565b6001600160a01b03808b166000908152600e6020526040808220859055918b168152208190556000198514613156576001600160a01b03808b166000908152600f60209081526040808320938f168352929052208390555b886001600160a01b03168a6001600160a01b0316600080516020615c8d8339815191528a6040518082815260200191505060405180910390a35060009a9950505050505050505050565b60008054819060ff166131e7576040805162461bcd60e51b815260206004820152600a6024820152691c994b595b9d195c995960b21b604482015290519081900360640190fd5b6000805460ff191681556131f9611f57565b905080156132245761321781601081111561321057fe5b60356129ab565b9250600091506132359050565b61322f33868661431f565b92509250505b6000805460ff1916600117905590939092509050565b6000806000613258615953565b61326286866138a6565b9092509050600082600381111561327557fe5b146132865750915060009050612ddc565b60006132918261475b565b9350935050509250929050565b601354604080516370a0823160e01b815230600482015290516000926001600160a01b03169182916370a0823191602480820192602092909190829003018186803b1580156132ec57600080fd5b505afa158015613300573d6000803e3d6000fd5b505050506040513d602081101561331657600080fd5b505191505090565b6000805460ff16613363576040805162461bcd60e51b815260206004820152600a6024820152691c994b595b9d195c995960b21b604482015290519081900360640190fd5b6000805460ff19168155613375611f57565b9050801561339357611b1981601081111561338c57fe5b604e6129ab565b61339c8361476a565b509150506000805460ff19166001179055919050565b6000805460ff166133f7576040805162461bcd60e51b815260206004820152600a6024820152691c994b595b9d195c995960b21b604482015290519081900360640190fd5b6000805460ff19168155613409611f57565b9050801561342757611b1981601081111561342057fe5b60276129ab565b611b2a33846000614852565b60115460009081906001600160a01b03163314801590613463575060035461010090046001600160a01b03163314155b1561347457612878600160316129ab565b61347c61370a565b6009541461349057612878600a60336129ab565b8261349961329e565b10156134ab57612878600e60326129ab565b600c548311156134c157612878600260346129ab565b50600c54828103908111156135075760405162461bcd60e51b8152600401808060200182810382526024815260200180615da26024913960400191505060405180910390fd5b600c8190556135163384614d19565b604080513381526020810185905280820183905290517f3bad0c59cf2f06e7314077049f48a93578cd16f5ef92329f1dab1420a99c177e9181900360600190a16000611a1c565b6000805460ff166135a2576040805162461bcd60e51b815260206004820152600a6024820152691c994b595b9d195c995960b21b604482015290519081900360640190fd5b6000805460ff191681556135b4611f57565b905080156135cb57611b1981601081111561342057fe5b611b2a33600085614852565b6000805460ff1661361c576040805162461bcd60e51b815260206004820152600a6024820152691c994b595b9d195c995960b21b604482015290519081900360640190fd5b6000805460ff1916815561362e611f57565b9050801561364c57611b1981601081111561364557fe5b60086129ab565b611b2a3384614ebc565b6001600160a01b03811660009081526010602052604081208054829182918291829161368d57506000945084935061370592505050565b61369d8160000154600a54615150565b909450925060008460038111156136b057fe5b146136c5575091935060009250613705915050565b6136d383826001015461518f565b909450915060008460038111156136e657fe5b146136fb575091935060009250613705915050565b5060009450925050505b915091565b4290565b600354600090819061010090046001600160a01b0316331461373657612878600160426129ab565b61373e61370a565b6009541461375257612878600a60416129ab565b600660009054906101000a90046001600160a01b03169050826001600160a01b0316632191f92a6040518163ffffffff1660e01b815260040160206040518083038186803b1580156137a357600080fd5b505afa1580156137b7573d6000803e3d6000fd5b505050506040513d60208110156137cd57600080fd5b5051613820576040805162461bcd60e51b815260206004820152601c60248201527f6d61726b6572206d6574686f642072657475726e65642066616c736500000000604482015290519081900360640190fd5b600680546001600160a01b0319166001600160a01b03858116918217909255604080519284168352602083019190915280517fedffc32e068c7c95dfd4bdfd5c4d939a084d6b11c4199eac8436ed234d72f9269281900390910190a16000611a1c565b60008083831161389a575060009050818303612ddc565b50600390506000612ddc565b60006138b0615953565b6000806138c1866000015186615150565b909250905060008260038111156138d457fe5b146138f357506040805160208101909152600081529092509050612ddc565b60408051602081019091529081526000969095509350505050565b60007f45b96fe442630264581b197e84bbada861235052c5a1aadfff9ea4e40a969aa084601081111561393d57fe5b84605081111561394957fe5b604080519283526020830191909152818101859052519081900360600190a18360108111156118ac57fe5b60008083830184811061398c57600092509050612ddc565b506002915060009050612ddc565b60008060006139a7615953565b6139b187876138a6565b909250905060008260038111156139c457fe5b146139d557509150600090506139ee565b6139e76139e18261475b565b86613974565b9350935050505b935093915050565b6005546040805163d02f735160e01b81523060048201526001600160a01b038781166024830152868116604483015285811660648301526084820185905291516000938493169163d02f73519160a480830192602092919082900301818787803b158015613a6357600080fd5b505af1158015613a77573d6000803e3d6000fd5b505050506040513d6020811015613a8d57600080fd5b505190508015613aa457612fba6003601b8361390e565b846001600160a01b0316846001600160a01b03161415613aca57612fba6006601c6129ab565b613ad2615a22565b6001600160a01b0385166000908152600e6020526040902054613af59085613883565b6020830181905282826003811115613b0957fe5b6003811115613b1457fe5b9052506000905081516003811115613b2857fe5b14613b4d57613b446009601a8360000151600381111561213f57fe5b925050506118ac565b613b6c846040518060200160405280666379da05b600008152506151ba565b60808201819052613b7e9085906151e2565b6060820152613b8b612e65565b60c0830181905282826003811115613b9f57fe5b6003811115613baa57fe5b9052506000905081516003811115613bbe57fe5b14613c10576040805162461bcd60e51b815260206004820152601860248201527f65786368616e67652072617465206d617468206572726f720000000000000000604482015290519081900360640190fd5b613c3060405180602001604052808360c00151815250826080015161521c565b60a08201819052600c54613c439161523b565b60e0820152600d546080820151613c5a91906151e2565b6101008201526001600160a01b0386166000908152600e60205260409020546060820151613c889190613974565b6040830181905282826003811115613c9c57fe5b6003811115613ca757fe5b9052506000905081516003811115613cbb57fe5b14613cd757613b44600960198360000151600381111561213f57fe5b60e0810151600c55610100810151600d556020808201516001600160a01b038088166000818152600e855260408082209490945583860151928b16808252908490209290925560608501518351908152925191939092600080516020615c8d833981519152929081900390910190a36080810151604080519182525130916001600160a01b03881691600080516020615c8d8339815191529181900360200190a360a081015160e082015160408051308152602081019390935282810191909152517fa91e67c5ea634cd43a12c5a482724b03de01e85ca68702a53d0c2f45cb7c1dc59181900360600190a16000979650505050505050565b60008054819060ff16613e17576040805162461bcd60e51b815260206004820152600a6024820152691c994b595b9d195c995960b21b604482015290519081900360640190fd5b6000805460ff19168155613e29611f57565b90508015613e5457613e47816010811115613e4057fe5b600f6129ab565b925060009150613eeb9050565b836001600160a01b031663a6afed956040518163ffffffff1660e01b8152600401602060405180830381600087803b158015613e8f57600080fd5b505af1158015613ea3573d6000803e3d6000fd5b505050506040513d6020811015613eb957600080fd5b505190508015613ed957613e47816010811115613ed257fe5b60106129ab565b613ee533878787615271565b92509250505b6000805460ff191660011790559094909350915050565b60035460009061010090046001600160a01b03163314613f28576118f4600160476129ab565b613f3061370a565b60095414613f44576118f4600a60486129ab565b670de0b6b3a7640000821115613f60576118f4600260496129ab565b6008805490839055604080518281526020810185905281517faaa68312e2ea9d50e16af5068410ab56e1a1fd06037b1a35664812c30f821460929181900390910190a16000611a1c565b6000600260125414156140bc57336001600160a01b03841614614006576040805162461bcd60e51b815260206004820152600f60248201526e0e6cadcc8cae440dad2e6dac2e8c6d608b1b604482015290519081900360640190fd5b81341461404b576040805162461bcd60e51b815260206004820152600e60248201526d0ecc2d8eaca40dad2e6dac2e8c6d60931b604482015290519081900360640190fd5b601360009054906101000a90046001600160a01b03166001600160a01b031663d0e30db0836040518263ffffffff1660e01b81526004016000604051808303818588803b15801561409b57600080fd5b505af11580156140af573d6000803e3d6000fd5b50505050508190506113cb565b601354604080516370a0823160e01b815230600482015290516001600160a01b039092169160009183916370a0823191602480820192602092909190829003018186803b15801561410c57600080fd5b505afa158015614120573d6000803e3d6000fd5b505050506040513d602081101561413657600080fd5b5051604080516323b872dd60e01b81526001600160a01b038881166004830152306024830152604482018890529151929350908416916323b872dd9160648082019260009290919082900301818387803b15801561419357600080fd5b505af11580156141a7573d6000803e3d6000fd5b5050505060003d600081146141c357602081146141cd57600080fd5b60001991506141d9565b60206000803e60005191505b508061422c576040805162461bcd60e51b815260206004820152601860248201527f544f4b454e5f5452414e534645525f494e5f4641494c45440000000000000000604482015290519081900360640190fd5b601354604080516370a0823160e01b815230600482015290516000926001600160a01b0316916370a08231916024808301926020929190829003018186803b15801561427757600080fd5b505afa15801561428b573d6000803e3d6000fd5b505050506040513d60208110156142a157600080fd5b50519050828110156142fa576040805162461bcd60e51b815260206004820152601a60248201527f544f4b454e5f5452414e534645525f494e5f4f564552464c4f57000000000000604482015290519081900360640190fd5b8281039450505050506113cb565b6000806000614315615953565b6132628686615763565b60055460408051631200453160e11b81523060048201526001600160a01b0386811660248301528581166044830152606482018590529151600093849384939116916324008a629160848082019260209290919082900301818787803b15801561438857600080fd5b505af115801561439c573d6000803e3d6000fd5b505050506040513d60208110156143b257600080fd5b5051905080156143d6576143c9600360388361390e565b9250600091506139ee9050565b6143de61370a565b600954146143f2576143c9600a60396129ab565b6143fa615a6f565b6001600160a01b038616600090815260106020526040902060010154606082015261442486613656565b608083018190526020830182600381111561443b57fe5b600381111561444657fe5b905250600090508160200151600381111561445d57fe5b1461448757614479600960378360200151600381111561213f57fe5b9350600092506139ee915050565b6000198514156144a057608081015160408201526144a8565b604081018590525b6144b6878260400151613faa565b60e0820181905260808201516144cb91613883565b60a08301819052602083018260038111156144e257fe5b60038111156144ed57fe5b905250600090508160200151600381111561450457fe5b146145405760405162461bcd60e51b815260040180806020018281038252603a815260200180615c53603a913960400191505060405180910390fd5b614550600b548260e00151613883565b60c083018190526020830182600381111561456757fe5b600381111561457257fe5b905250600090508160200151600381111561458957fe5b146145c55760405162461bcd60e51b8152600401808060200182810382526031815260200180615cad6031913960400191505060405180910390fd5b60a080820180516001600160a01b03808a16600081815260106020908152604091829020948555600a5460019095019490945560c0870151600b81905560e088015195518251948f16855294840192909252828101949094526060820192909252608081019190915290517f1a2a22cb034d26d1854bdc6666a5b91fe25efbbb5dcad3b0355478d6f5c362a1929181900390910190a160e00151600097909650945050505050565b60008060008061467d8787613974565b9092509050600082600381111561469057fe5b146146a157509150600090506139ee565b6139e78186613883565b60006146b5615953565b6000806146ca86670de0b6b3a7640000615150565b909250905060008260038111156146dd57fe5b146146fc57506040805160208101909152600081529092509050612ddc565b600080614709838861518f565b9092509050600082600381111561471c57fe5b1461473e57506040805160208101909152600081529094509250612ddc915050565b604080516020810190915290815260009890975095505050505050565b51670de0b6b3a7640000900490565b60008060008061477861370a565b600954146147975761478c600a604f6129ab565b935091506137059050565b6147a13386613faa565b905080600c54019150600c54821015614801576040805162461bcd60e51b815260206004820181905260248201527f61646420726573657276657320756e6578706563746564206f766572666c6f77604482015290519081900360640190fd5b600c829055604080513381526020810183905280820184905290517fa91e67c5ea634cd43a12c5a482724b03de01e85ca68702a53d0c2f45cb7c1dc59181900360600190a160009350915050915091565b600082158061485f575081155b61489a5760405162461bcd60e51b8152600401808060200182810382526034815260200180615d6e6034913960400191505060405180910390fd5b6148a26159e4565b6148aa612e65565b60408301819052602083018260038111156148c157fe5b60038111156148cc57fe5b90525060009050816020015160038111156148e357fe5b14614907576148ff6009602b8360200151600381111561213f57fe5b915050611a1c565b831561498857606081018490526040805160208101825290820151815261492e908561324b565b608083018190526020830182600381111561494557fe5b600381111561495057fe5b905250600090508160200151600381111561496757fe5b14614983576148ff600960298360200151600381111561213f57fe5b614a01565b6149a48360405180602001604052808460400151815250614308565b60608301819052602083018260038111156149bb57fe5b60038111156149c657fe5b90525060009050816020015160038111156149dd57fe5b146149f9576148ff6009602a8360200151600381111561213f57fe5b608081018390525b60055460608201516040805163eabe7d9160e01b81523060048201526001600160a01b03898116602483015260448201939093529051600093929092169163eabe7d919160648082019260209290919082900301818787803b158015614a6657600080fd5b505af1158015614a7a573d6000803e3d6000fd5b505050506040513d6020811015614a9057600080fd5b505190508015614ab057614aa7600360288361390e565b92505050611a1c565b614ab861370a565b60095414614acc57614aa7600a602c6129ab565b614adc600d548360600151613883565b60a0840181905260208401826003811115614af357fe5b6003811115614afe57fe5b9052506000905082602001516003811115614b1557fe5b14614b3157614aa76009602e8460200151600381111561213f57fe5b6001600160a01b0386166000908152600e60205260409020546060830151614b599190613883565b60c0840181905260208401826003811115614b7057fe5b6003811115614b7b57fe5b9052506000905082602001516003811115614b9257fe5b14614bae57614aa76009602d8460200151600381111561213f57fe5b8160800151614bbb61329e565b1015614bcd57614aa7600e602f6129ab565b614bdb868360800151614d19565b60a0820151600d5560c08201516001600160a01b0387166000818152600e6020908152604091829020939093556060850151815190815290513093600080516020615c8d833981519152928290030190a36080820151606080840151604080516001600160a01b038b168152602081019490945283810191909152517fe5b754fb1abb7f01b499791d0b820ae3b6af3424ac1c59768edb53f4ec31a9299281900390910190a160055460808301516060840151604080516351dff98960e01b81523060048201526001600160a01b038b81166024830152604482019490945260648101929092525191909216916351dff98991608480830192600092919082900301818387803b158015614cee57600080fd5b505af1158015614d02573d6000803e3d6000fd5b5060009250614d0f915050565b9695505050505050565b60026012541415614dc55760135460408051632e1a7d4d60e01b81526004810184905290516001600160a01b0390921691632e1a7d4d9160248082019260009290919082900301818387803b158015614d7157600080fd5b505af1158015614d85573d6000803e3d6000fd5b50506040516001600160a01b038516925083156108fc02915083906000818181858888f19350505050158015614dbf573d6000803e3d6000fd5b506112d3565b6013546040805163a9059cbb60e01b81526001600160a01b0385811660048301526024820185905291519190921691829163a9059cbb9160448082019260009290919082900301818387803b158015614e1d57600080fd5b505af1158015614e31573d6000803e3d6000fd5b5050505060003d60008114614e4d5760208114614e5757600080fd5b6000199150614e63565b60206000803e60005191505b5080614eb6576040805162461bcd60e51b815260206004820152601960248201527f544f4b454e5f5452414e534645525f4f55545f4641494c454400000000000000604482015290519081900360640190fd5b50505050565b6005546040805163368f515360e21b81523060048201526001600160a01b0385811660248301526044820185905291516000938493169163da3d454c91606480830192602092919082900301818787803b158015614f1957600080fd5b505af1158015614f2d573d6000803e3d6000fd5b505050506040513d6020811015614f4357600080fd5b505190508015614f6257614f5a6003600e8361390e565b9150506113cb565b614f6a61370a565b60095414614f7d57614f5a600a806129ab565b82614f8661329e565b1015614f9857614f5a600e60096129ab565b614fa0615ab5565b614fa985613656565b6020830181905282826003811115614fbd57fe5b6003811115614fc857fe5b9052506000905081516003811115614fdc57fe5b1461500157614ff8600960078360000151600381111561213f57fe5b925050506113cb565b61500f816020015185613974565b604083018190528282600381111561502357fe5b600381111561502e57fe5b905250600090508151600381111561504257fe5b1461505e57614ff86009600c8360000151600381111561213f57fe5b61506a600b5485613974565b606083018190528282600381111561507e57fe5b600381111561508957fe5b905250600090508151600381111561509d57fe5b146150b957614ff86009600b8360000151600381111561213f57fe5b6150c38585614d19565b604080820180516001600160a01b03881660008181526010602090815290859020928355600a54600190930192909255606080860151600b81905593518551928352928201899052818501929092529081019190915290517f13ed6866d4e1ee6da46f845c46d7e54120883d75c5ea9a2dacc1c4ca8984ab809181900360800190a1600095945050505050565b6000808361516357506000905080612ddc565b8383028385828161517057fe5b041461518457506002915060009050612ddc565b600092509050612ddc565b600080826151a35750600190506000612ddc565b60008385816151ae57fe5b04915091509250929050565b6000670de0b6b3a76400006151d38484600001516157c2565b816151da57fe5b049392505050565b6000611a1c8383604051806040016040528060158152602001747375627472616374696f6e20756e646572666c6f7760581b815250615804565b6000615226615953565b615230848461585e565b90506118ac8161475b565b6000611a1c8383604051806040016040528060118152602001706164646974696f6e206f766572666c6f7760781b815250615888565b60055460408051632fe3f38f60e11b81523060048201526001600160a01b0384811660248301528781166044830152868116606483015260848201869052915160009384938493911691635fc7e71e9160a48082019260209290919082900301818787803b1580156152e257600080fd5b505af11580156152f6573d6000803e3d6000fd5b505050506040513d602081101561530c57600080fd5b50519050801561533057615323600360128361390e565b92506000915061575a9050565b61533861370a565b6009541461534c57615323600a60166129ab565b61535461370a565b846001600160a01b0316636c540baf6040518163ffffffff1660e01b815260040160206040518083038186803b15801561538d57600080fd5b505afa1580156153a1573d6000803e3d6000fd5b505050506040513d60208110156153b757600080fd5b5051146153ca57615323600a60116129ab565b866001600160a01b0316866001600160a01b031614156153f057615323600660176129ab565b8461540157615323600760156129ab565b60001985141561541757615323600760146129ab565b60008061542589898961431f565b909250905081156154555761544682601081111561543f57fe5b60186129ab565b94506000935061575a92505050565b6005546040805163c488847b60e01b81523060048201526001600160a01b038981166024830152604482018590528251600094859492169263c488847b926064808301939192829003018186803b1580156154af57600080fd5b505afa1580156154c3573d6000803e3d6000fd5b505050506040513d60408110156154d957600080fd5b508051602090910151909250905081156155245760405162461bcd60e51b8152600401808060200182810382526033815260200180615cde6033913960400191505060405180910390fd5b80886001600160a01b03166370a082318c6040518263ffffffff1660e01b815260040180826001600160a01b03166001600160a01b0316815260200191505060206040518083038186803b15801561557b57600080fd5b505afa15801561558f573d6000803e3d6000fd5b505050506040513d60208110156155a557600080fd5b505110156155fa576040805162461bcd60e51b815260206004820152601860248201527f4c49515549444154455f5345495a455f544f4f5f4d5543480000000000000000604482015290519081900360640190fd5b60006001600160a01b03891630141561562057615619308d8d856139f6565b90506156aa565b6040805163b2a02ff160e01b81526001600160a01b038e811660048301528d81166024830152604482018590529151918b169163b2a02ff1916064808201926020929091908290030181600087803b15801561567b57600080fd5b505af115801561568f573d6000803e3d6000fd5b505050506040513d60208110156156a557600080fd5b505190505b80156156f4576040805162461bcd60e51b81526020600482015260146024820152731d1bdad95b881cd95a5e9d5c994819985a5b195960621b604482015290519081900360640190fd5b604080516001600160a01b03808f168252808e1660208301528183018790528b1660608201526080810184905290517f298637f684da70674f26509b10f07ec2fbc77a335ab1e7d6215a4b2484d8bb529181900360a00190a16000975092955050505050505b94509492505050565b600061576d615953565b600080615782670de0b6b3a764000087615150565b9092509050600082600381111561579557fe5b146157b457506040805160208101909152600081529092509050612ddc565b6132918186600001516146ab565b6000611a1c83836040518060400160405280601781526020017f6d756c7469706c69636174696f6e206f766572666c6f770000000000000000008152506158dd565b600081848411156158565760405162461bcd60e51b815260206004820181815283516024840152835190928392604490910191908501908083836000831561129457818101518382015260200161127c565b505050900390565b615866615953565b604051806020016040528061587f8560000151856157c2565b90529392505050565b600083830182858210156117dd5760405162461bcd60e51b815260206004820181815283516024840152835190928392604490910191908501908083836000831561129457818101518382015260200161127c565b60008315806158ea575082155b156158f757506000611a1c565b8383028385828161590457fe5b041483906117dd5760405162461bcd60e51b815260206004820181815283516024840152835190928392604490910191908501908083836000831561129457818101518382015260200161127c565b6040518060200160405280600081525090565b828054600181600116156101000203166002900490600052602060002090601f016020900481019282601f106159a757805160ff19168380011785556159d4565b828001600101855582156159d4579182015b828111156159d45782518255916020019190600101906159b9565b506159e0929150615ade565b5090565b6040805160e0810190915280600081526020016000815260200160008152602001600081526020016000815260200160008152602001600081525090565b604080516101208101909152806000815260200160008152602001600081526020016000815260200160008152602001600081526020016000815260200160008152602001600081525090565b6040805161010081019091528060008152602001600081526020016000815260200160008152602001600081526020016000815260200160008152602001600081525090565b604080516080810190915280600081526020016000815260200160008152602001600081525090565b61156391905b808211156159e05760008155600101615ae456fe6f6e6c792061646d696e206d617920696e697469616c697a6520746865206d61726b65746d61726b6574206d6179206f6e6c7920626520696e697469616c697a6564206f6e63654345726332303a3a7377656570546f6b656e3a2063616e206e6f7420737765657020756e6465726c79696e6720746f6b656e696e697469616c2065786368616e67652072617465206d7573742062652067726561746572207468616e207a65726f2e73657474696e6720696e7465726573742072617465206d6f64656c206661696c65646f6e6c79207468652061646d696e206d61792063616c6c205f72657369676e496d706c656d656e746174696f6e4d494e545f4e45575f4143434f554e545f42414c414e43455f43414c43554c4154494f4e5f4641494c4544626f72726f7742616c616e636553746f7265643a20626f72726f7742616c616e636553746f726564496e7465726e616c206661696c656452455041595f424f52524f575f4e45575f4143434f554e545f424f52524f575f42414c414e43455f43414c43554c4154494f4e5f4641494c4544ddf252ad1be2c89b69c2b068fc378daa952ba7f163c4a11628f55a4df523b3ef52455041595f424f52524f575f4e45575f544f54414c5f42414c414e43455f43414c43554c4154494f4e5f4641494c45444c49515549444154455f434f4d5054524f4c4c45525f43414c43554c4154455f414d4f554e545f5345495a455f4641494c454465786368616e67655261746553746f7265643a2065786368616e67655261746553746f726564496e7465726e616c206661696c65644d494e545f4e45575f544f54414c5f535550504c595f43414c43554c4154494f4e5f4641494c45446f6e65206f662072656465656d546f6b656e73496e206f722072656465656d416d6f756e74496e206d757374206265207a65726f72656475636520726573657276657320756e657870656374656420756e646572666c6f776f6e6c79207468652061646d696e206d61792063616c6c205f6265636f6d65496d706c656d656e746174696f6ea265627a7a723158208a4ff6e900dd61fcb558f2fefd36f809eb55546977da192a9c2b975ada099a8c64736f6c63430005100032",
  "devdoc": {
    "author": "Citrus",
    "methods": {
      "_acceptAdmin()": {
        "details": "Admin function for pending admin to accept role and update admin",
        "return": "uint 0=success, otherwise a failure (see ErrorReporter.sol for details)"
      },
      "_addReserves(uint256)": {
        "params": {
          "addAmount": "The amount fo underlying token to add as reserves"
        },
        "return": "uint 0=success, otherwise a failure (see ErrorReporter.sol for details)"
      },
      "_becomeImplementation(bytes)": {
        "params": {
          "data": "The encoded bytes data for any initialization"
        }
      },
      "_reduceReserves(uint256)": {
        "params": {
          "reduceAmount": "Amount of reduction to reserves"
        },
        "return": "uint 0=success, otherwise a failure (see ErrorReporter.sol for details)"
      },
      "_setComptroller(address)": {
        "details": "Admin function to set a new comptroller",
        "return": "uint 0=success, otherwise a failure (see ErrorReporter.sol for details)"
      },
      "_setInterestRateModel(address)": {
        "details": "Admin function to accrue interest and update the interest rate model",
        "params": {
          "newInterestRateModel": "the new interest rate model to use"
        },
        "return": "uint 0=success, otherwise a failure (see ErrorReporter.sol for details)"
      },
      "_setPendingAdmin(address)": {
        "details": "Admin function to begin change of admin. The newPendingAdmin must call `_acceptAdmin` to finalize the transfer.",
        "params": {
          "newPendingAdmin": "New pending admin."
        },
        "return": "uint 0=success, otherwise a failure (see ErrorReporter.sol for details)"
      },
      "_setReserveFactor(uint256)": {
        "details": "Admin function to accrue interest and set a new reserve factor",
        "return": "uint 0=success, otherwise a failure (see ErrorReporter.sol for details)"
      },
      "accrueInterest()": {
        "details": "This calculates interest accrued from the last checkpointed block  up to the current block and writes new checkpoint to storage."
      },
      "allowance(address,address)": {
        "params": {
          "owner": "The address of the account which owns the tokens to be spent",
          "spender": "The address of the account which may transfer tokens"
        },
        "return": "The number of tokens allowed to be spent (-1 means infinite)"
      },
      "approve(address,uint256)": {
        "details": "This will overwrite the approval amount for `spender` and is subject to issues noted [here](https://eips.ethereum.org/EIPS/eip-20#approve)",
        "params": {
          "amount": "The number of tokens that are approved (-1 means infinite)",
          "spender": "The address of the account which may transfer tokens"
        },
        "return": "Whether or not the approval succeeded"
      },
      "balanceOf(address)": {
        "params": {
          "owner": "The address of the account to query"
        },
        "return": "The number of tokens owned by `owner`"
      },
      "balanceOfUnderlying(address)": {
        "details": "This also accrues interest in a transaction",
        "params": {
          "owner": "The address of the account to query"
        },
        "return": "The amount of underlying owned by `owner`"
      },
      "borrow(uint256)": {
        "params": {
          "borrowAmount": "The amount of the underlying asset to borrow"
        },
        "return": "uint 0=success, otherwise a failure (see ErrorReporter.sol for details)"
      },
      "borrowBalanceCurrent(address)": {
        "params": {
          "account": "The address whose balance should be calculated after updating borrowIndex"
        },
        "return": "The calculated balance"
      },
      "borrowBalanceStored(address)": {
        "params": {
          "account": "The address whose balance should be calculated"
        },
        "return": "The calculated balance"
      },
      "borrowNative(uint256)": {
        "params": {
          "borrowAmount": "The amount of the underlying asset to borrow"
        },
        "return": "uint 0=success, otherwise a failure (see ErrorReporter.sol for details)"
      },
      "borrowRatePerBlock()": {
        "return": "The borrow interest rate per block, scaled by 1e18"
      },
      "exchangeRateCurrent()": {
        "return": "Calculated exchange rate scaled by 1e18"
      },
      "exchangeRateStored()": {
        "details": "This function does not accrue interest before calculating the exchange rate",
        "return": "Calculated exchange rate scaled by 1e18"
      },
      "getAccountSnapshot(address)": {
        "details": "This is used by comptroller to more efficiently perform liquidity checks.",
        "params": {
          "account": "Address of the account to snapshot"
        },
        "return": "(possible error, token balance, borrow balance, exchange rate mantissa)"
      },
      "getCash()": {
        "return": "The quantity of underlying asset owned by this contract"
      },
      "initialize(address,address,address,uint256,string,string,uint8)": {
        "params": {
          "comptroller_": "The address of the Comptroller",
          "decimals_": "ERC-20 decimal precision of this token",
          "initialExchangeRateMantissa_": "The initial exchange rate, scaled by 1e18",
          "interestRateModel_": "The address of the interest rate model",
          "name_": "ERC-20 name of this token",
          "symbol_": "ERC-20 symbol of this token",
          "underlying_": "The address of the underlying asset"
        }
      },
      "initialize(address,address,uint256,string,string,uint8)": {
        "params": {
          "comptroller_": "The address of the Comptroller",
          "decimals_": "EIP-20 decimal precision of this token",
          "initialExchangeRateMantissa_": "The initial exchange rate, scaled by 1e18",
          "interestRateModel_": "The address of the interest rate model",
          "name_": "EIP-20 name of this token",
          "symbol_": "EIP-20 symbol of this token"
        }
      },
      "liquidateBorrow(address,uint256,address)": {
        "params": {
          "borrower": "The borrower of this cToken to be liquidated",
          "cTokenCollateral": "The market in which to seize collateral from the borrower",
          "repayAmount": "The amount of the underlying borrowed asset to repay"
        },
        "return": "uint 0=success, otherwise a failure (see ErrorReporter.sol for details)"
      },
      "mint(uint256)": {
        "details": "Accrues interest whether or not the operation succeeds, unless reverted",
        "params": {
          "mintAmount": "The amount of the underlying asset to supply"
        },
        "return": "uint 0=success, otherwise a failure (see ErrorReporter.sol for details)"
      },
      "mintNative()": {
        "details": "Accrues interest whether or not the operation succeeds, unless reverted",
        "return": "uint 0=success, otherwise a failure (see ErrorReporter.sol for details)"
      },
      "redeem(uint256)": {
        "details": "Accrues interest whether or not the operation succeeds, unless reverted",
        "params": {
          "redeemTokens": "The number of cTokens to redeem into underlying"
        },
        "return": "uint 0=success, otherwise a failure (see ErrorReporter.sol for details)"
      },
      "redeemNative(uint256)": {
        "details": "Accrues interest whether or not the operation succeeds, unless reverted",
        "params": {
          "redeemTokens": "The number of cTokens to redeem into underlying"
        },
        "return": "uint 0=success, otherwise a failure (see ErrorReporter.sol for details)"
      },
      "redeemUnderlying(uint256)": {
        "details": "Accrues interest whether or not the operation succeeds, unless reverted",
        "params": {
          "redeemAmount": "The amount of underlying to redeem"
        },
        "return": "uint 0=success, otherwise a failure (see ErrorReporter.sol for details)"
      },
      "redeemUnderlyingNative(uint256)": {
        "details": "Accrues interest whether or not the operation succeeds, unless reverted",
        "params": {
          "redeemAmount": "The amount of underlying to redeem"
        },
        "return": "uint 0=success, otherwise a failure (see ErrorReporter.sol for details)"
      },
      "repayBorrow(uint256)": {
        "params": {
          "repayAmount": "The amount to repay"
        },
        "return": "uint 0=success, otherwise a failure (see ErrorReporter.sol for details)"
      },
      "repayBorrowBehalf(address,uint256)": {
        "params": {
          "borrower": "the account with the debt being payed off",
          "repayAmount": "The amount to repay"
        },
        "return": "uint 0=success, otherwise a failure (see ErrorReporter.sol for details)"
      },
      "repayBorrowBehalfNative(address)": {
        "details": "Reverts upon any failure",
        "params": {
          "borrower": "the account with the debt being payed off"
        }
      },
      "repayBorrowNative()": {
        "details": "Reverts upon any failure"
      },
      "seize(address,address,uint256)": {
        "details": "Will fail unless called by another cToken during the process of liquidation. Its absolutely critical to use msg.sender as the borrowed cToken and not a parameter.",
        "params": {
          "borrower": "The account having collateral seized",
          "liquidator": "The account receiving seized collateral",
          "seizeTokens": "The number of cTokens to seize"
        },
        "return": "uint 0=success, otherwise a failure (see ErrorReporter.sol for details)"
      },
      "supplyRatePerBlock()": {
        "return": "The supply interest rate per block, scaled by 1e18"
      },
      "sweepToken(address)": {
        "params": {
          "token": "The address of the ERC-20 token to sweep"
        }
      },
      "totalBorrowsCurrent()": {
        "return": "The total borrows with interest"
      },
      "transfer(address,uint256)": {
        "params": {
          "amount": "The number of tokens to transfer",
          "dst": "The address of the destination account"
        },
        "return": "Whether or not the transfer succeeded"
      },
      "transferFrom(address,address,uint256)": {
        "params": {
          "amount": "The number of tokens to transfer",
          "dst": "The address of the destination account",
          "src": "The address of the source account"
        },
        "return": "Whether or not the transfer succeeded"
      }
    },
    "title": "Compound's CWrappedNativeDelegate Contract"
  },
  "userdoc": {
    "methods": {
      "_acceptAdmin()": {
        "notice": "Accepts transfer of admin rights. msg.sender must be pendingAdmin"
      },
      "_addReserves(uint256)": {
        "notice": "The sender adds to reserves."
      },
      "_becomeImplementation(bytes)": {
        "notice": "Called by the delegator on a delegate to initialize it for duty"
      },
      "_reduceReserves(uint256)": {
        "notice": "Accrues interest and reduces reserves by transferring to admin"
      },
      "_resignImplementation()": {
        "notice": "Called by the delegator on a delegate to forfeit its responsibility"
      },
      "_setComptroller(address)": {
        "notice": "Sets a new comptroller for the market"
      },
      "_setInterestRateModel(address)": {
        "notice": "accrues interest and updates the interest rate model using _setInterestRateModelFresh"
      },
      "_setPendingAdmin(address)": {
        "notice": "Begins transfer of admin rights. The newPendingAdmin must call `_acceptAdmin` to finalize the transfer."
      },
      "_setReserveFactor(uint256)": {
        "notice": "accrues interest and sets a new reserve factor for the protocol using _setReserveFactorFresh"
      },
      "accrueInterest()": {
        "notice": "Applies accrued interest to total borrows and reserves"
      },
      "allowance(address,address)": {
        "notice": "Get the current allowance from `owner` for `spender`"
      },
      "approve(address,uint256)": {
        "notice": "Approve `spender` to transfer up to `amount` from `src`"
      },
      "balanceOf(address)": {
        "notice": "Get the token balance of the `owner`"
      },
      "balanceOfUnderlying(address)": {
        "notice": "Get the underlying balance of the `owner`"
      },
      "borrow(uint256)": {
        "notice": "Sender borrows assets from the protocol to their own address"
      },
      "borrowBalanceCurrent(address)": {
        "notice": "Accrue interest to updated borrowIndex and then calculate account's borrow balance using the updated borrowIndex"
      },
      "borrowBalanceStored(address)": {
        "notice": "Return the borrow balance of account based on stored data"
      },
      "borrowNative(uint256)": {
        "notice": "Sender borrows assets from the protocol to their own address"
      },
      "borrowRatePerBlock()": {
        "notice": "Returns the current per-block borrow interest rate for this cToken"
      },
      "constructor": "Construct an empty delegate",
      "exchangeRateCurrent()": {
        "notice": "Accrue interest then return the up-to-date exchange rate"
      },
      "exchangeRateStored()": {
        "notice": "Calculates the exchange rate from the underlying to the CToken"
      },
      "getAccountSnapshot(address)": {
        "notice": "Get a snapshot of the account's balances, and the cached exchange rate"
      },
      "getCash()": {
        "notice": "Get cash balance of this cToken in the underlying asset"
      },
      "initialize(address,address,address,uint256,string,string,uint8)": {
        "notice": "Initialize the new money market"
      },
      "initialize(address,address,uint256,string,string,uint8)": {
        "notice": "Initialize the money market"
      },
      "liquidateBorrow(address,uint256,address)": {
        "notice": "The sender liquidates the borrowers collateral. The collateral seized is transferred to the liquidator."
      },
      "mint(uint256)": {
        "notice": "Sender supplies assets into the market and receives cTokens in exchange"
      },
      "mintNative()": {
        "notice": "Sender supplies assets into the market and receives cTokens in exchange"
      },
      "redeem(uint256)": {
        "notice": "Sender redeems cTokens in exchange for the underlying asset"
      },
      "redeemNative(uint256)": {
        "notice": "Sender redeems cTokens in exchange for the underlying asset"
      },
      "redeemUnderlying(uint256)": {
        "notice": "Sender redeems cTokens in exchange for a specified amount of underlying asset"
      },
      "redeemUnderlyingNative(uint256)": {
        "notice": "Sender redeems cTokens in exchange for a specified amount of underlying asset"
      },
      "repayBorrow(uint256)": {
        "notice": "Sender repays their own borrow"
      },
      "repayBorrowBehalf(address,uint256)": {
        "notice": "Sender repays a borrow belonging to borrower"
      },
      "repayBorrowBehalfNative(address)": {
        "notice": "Sender repays a borrow belonging to borrower"
      },
      "repayBorrowNative()": {
        "notice": "Sender repays their own borrow"
      },
      "seize(address,address,uint256)": {
        "notice": "Transfers collateral tokens (this market) to the liquidator."
      },
      "supplyRatePerBlock()": {
        "notice": "Returns the current per-block supply interest rate for this cToken"
      },
      "sweepToken(address)": {
        "notice": "A public function to sweep accidental ERC-20 transfers to this contract. Tokens are sent to admin (timelock)"
      },
      "totalBorrowsCurrent()": {
        "notice": "Returns the current total borrows plus accrued interest"
      },
      "transfer(address,uint256)": {
        "notice": "Transfer `amount` tokens from `msg.sender` to `dst`"
      },
      "transferFrom(address,address,uint256)": {
        "notice": "Transfer `amount` tokens from `src` to `dst`"
      }
    },
    "notice": "CTokens which wraps Wrapped Ether and are delegated to"
  },
  "storageLayout": {
    "storage": [
      {
        "astId": 6299,
        "contract": "contracts/CWrappedNativeDelegate.sol:CWrappedNativeDelegate",
        "label": "_notEntered",
        "offset": 0,
        "slot": "0",
        "type": "t_bool"
      },
      {
        "astId": 6301,
        "contract": "contracts/CWrappedNativeDelegate.sol:CWrappedNativeDelegate",
        "label": "name",
        "offset": 0,
        "slot": "1",
        "type": "t_string_storage"
      },
      {
        "astId": 6303,
        "contract": "contracts/CWrappedNativeDelegate.sol:CWrappedNativeDelegate",
        "label": "symbol",
        "offset": 0,
        "slot": "2",
        "type": "t_string_storage"
      },
      {
        "astId": 6305,
        "contract": "contracts/CWrappedNativeDelegate.sol:CWrappedNativeDelegate",
        "label": "decimals",
        "offset": 0,
        "slot": "3",
        "type": "t_uint8"
      },
      {
        "astId": 6313,
        "contract": "contracts/CWrappedNativeDelegate.sol:CWrappedNativeDelegate",
        "label": "admin",
        "offset": 1,
        "slot": "3",
        "type": "t_address_payable"
      },
      {
        "astId": 6315,
        "contract": "contracts/CWrappedNativeDelegate.sol:CWrappedNativeDelegate",
        "label": "pendingAdmin",
        "offset": 0,
        "slot": "4",
        "type": "t_address_payable"
      },
      {
        "astId": 6317,
        "contract": "contracts/CWrappedNativeDelegate.sol:CWrappedNativeDelegate",
        "label": "comptroller",
        "offset": 0,
        "slot": "5",
        "type": "t_contract(ComptrollerInterface)36245"
      },
      {
        "astId": 6319,
        "contract": "contracts/CWrappedNativeDelegate.sol:CWrappedNativeDelegate",
        "label": "interestRateModel",
        "offset": 0,
        "slot": "6",
        "type": "t_contract(InterestRateModel)40627"
      },
      {
        "astId": 6321,
        "contract": "contracts/CWrappedNativeDelegate.sol:CWrappedNativeDelegate",
        "label": "initialExchangeRateMantissa",
        "offset": 0,
        "slot": "7",
        "type": "t_uint256"
      },
      {
        "astId": 6323,
        "contract": "contracts/CWrappedNativeDelegate.sol:CWrappedNativeDelegate",
        "label": "reserveFactorMantissa",
        "offset": 0,
        "slot": "8",
        "type": "t_uint256"
      },
      {
        "astId": 6325,
        "contract": "contracts/CWrappedNativeDelegate.sol:CWrappedNativeDelegate",
        "label": "accrualBlockNumber",
        "offset": 0,
        "slot": "9",
        "type": "t_uint256"
      },
      {
        "astId": 6327,
        "contract": "contracts/CWrappedNativeDelegate.sol:CWrappedNativeDelegate",
        "label": "borrowIndex",
        "offset": 0,
        "slot": "10",
        "type": "t_uint256"
      },
      {
        "astId": 6329,
        "contract": "contracts/CWrappedNativeDelegate.sol:CWrappedNativeDelegate",
        "label": "totalBorrows",
        "offset": 0,
        "slot": "11",
        "type": "t_uint256"
      },
      {
        "astId": 6331,
        "contract": "contracts/CWrappedNativeDelegate.sol:CWrappedNativeDelegate",
        "label": "totalReserves",
        "offset": 0,
        "slot": "12",
        "type": "t_uint256"
      },
      {
        "astId": 6333,
        "contract": "contracts/CWrappedNativeDelegate.sol:CWrappedNativeDelegate",
        "label": "totalSupply",
        "offset": 0,
        "slot": "13",
        "type": "t_uint256"
      },
      {
        "astId": 6337,
        "contract": "contracts/CWrappedNativeDelegate.sol:CWrappedNativeDelegate",
        "label": "accountTokens",
        "offset": 0,
        "slot": "14",
        "type": "t_mapping(t_address,t_uint256)"
      },
      {
        "astId": 6343,
        "contract": "contracts/CWrappedNativeDelegate.sol:CWrappedNativeDelegate",
        "label": "transferAllowances",
        "offset": 0,
        "slot": "15",
        "type": "t_mapping(t_address,t_mapping(t_address,t_uint256))"
      },
      {
        "astId": 6352,
        "contract": "contracts/CWrappedNativeDelegate.sol:CWrappedNativeDelegate",
        "label": "accountBorrows",
        "offset": 0,
        "slot": "16",
        "type": "t_mapping(t_address,t_struct(BorrowSnapshot)6348_storage)"
      },
      {
        "astId": 6357,
        "contract": "contracts/CWrappedNativeDelegate.sol:CWrappedNativeDelegate",
        "label": "feeTaker",
        "offset": 0,
        "slot": "17",
        "type": "t_address_payable"
      },
      {
        "astId": 6754,
        "contract": "contracts/CWrappedNativeDelegate.sol:CWrappedNativeDelegate",
        "label": "nativeStatus",
        "offset": 0,
        "slot": "18",
        "type": "t_uint256"
      },
      {
        "astId": 6674,
        "contract": "contracts/CWrappedNativeDelegate.sol:CWrappedNativeDelegate",
        "label": "underlying",
        "offset": 0,
        "slot": "19",
        "type": "t_address"
      }
    ],
    "types": {
      "t_address": {
        "encoding": "inplace",
        "label": "address",
        "numberOfBytes": "20"
      },
      "t_address_payable": {
        "encoding": "inplace",
        "label": "address payable",
        "numberOfBytes": "20"
      },
      "t_bool": {
        "encoding": "inplace",
        "label": "bool",
        "numberOfBytes": "1"
      },
      "t_contract(ComptrollerInterface)36245": {
        "encoding": "inplace",
        "label": "contract ComptrollerInterface",
        "numberOfBytes": "20"
      },
      "t_contract(InterestRateModel)40627": {
        "encoding": "inplace",
        "label": "contract InterestRateModel",
        "numberOfBytes": "20"
      },
      "t_mapping(t_address,t_mapping(t_address,t_uint256))": {
        "encoding": "mapping",
        "key": "t_address",
        "label": "mapping(address => mapping(address => uint256))",
        "numberOfBytes": "32",
        "value": "t_mapping(t_address,t_uint256)"
      },
      "t_mapping(t_address,t_struct(BorrowSnapshot)6348_storage)": {
        "encoding": "mapping",
        "key": "t_address",
        "label": "mapping(address => struct CTokenStorage.BorrowSnapshot)",
        "numberOfBytes": "32",
        "value": "t_struct(BorrowSnapshot)6348_storage"
      },
      "t_mapping(t_address,t_uint256)": {
        "encoding": "mapping",
        "key": "t_address",
        "label": "mapping(address => uint256)",
        "numberOfBytes": "32",
        "value": "t_uint256"
      },
      "t_string_storage": {
        "encoding": "bytes",
        "label": "string",
        "numberOfBytes": "32"
      },
      "t_struct(BorrowSnapshot)6348_storage": {
        "encoding": "inplace",
        "label": "struct CTokenStorage.BorrowSnapshot",
        "members": [
          {
            "astId": 6345,
            "contract": "contracts/CWrappedNativeDelegate.sol:CWrappedNativeDelegate",
            "label": "principal",
            "offset": 0,
            "slot": "0",
            "type": "t_uint256"
          },
          {
            "astId": 6347,
            "contract": "contracts/CWrappedNativeDelegate.sol:CWrappedNativeDelegate",
            "label": "interestIndex",
            "offset": 0,
            "slot": "1",
            "type": "t_uint256"
          }
        ],
        "numberOfBytes": "64"
      },
      "t_uint256": {
        "encoding": "inplace",
        "label": "uint256",
        "numberOfBytes": "32"
      },
      "t_uint8": {
        "encoding": "inplace",
        "label": "uint8",
        "numberOfBytes": "1"
      }
    }
  }
}