{
  "address": "0x686C022EF35a2e544334938Cd88C4E8a1568d8B8",
  "abi": [
    {
      "inputs": [
        {
          "internalType": "string",
          "name": "name_",
          "type": "string"
        },
        {
          "internalType": "string",
          "name": "symbol_",
          "type": "string"
        },
        {
          "internalType": "uint8",
          "name": "decimals_",
          "type": "uint8"
        }
      ],
      "payable": false,
      "stateMutability": "nonpayable",
      "type": "constructor"
    },
    {
      "anonymous": false,
      "inputs": [
        {
          "indexed": true,
          "internalType": "address",
          "name": "minter",
          "type": "address"
        }
      ],
      "name": "AddMinter",
      "type": "event"
    },
    {
      "anonymous": false,
      "inputs": [
        {
          "indexed": true,
          "internalType": "address",
          "name": "owner",
          "type": "address"
        },
        {
          "indexed": true,
          "internalType": "address",
          "name": "spender",
          "type": "address"
        },
        {
          "indexed": false,
          "internalType": "uint256",
          "name": "value",
          "type": "uint256"
        }
      ],
      "name": "Approval",
      "type": "event"
    },
    {
      "anonymous": false,
      "inputs": [
        {
          "indexed": true,
          "internalType": "address",
          "name": "newOperator",
          "type": "address"
        }
      ],
      "name": "ChangeOperator",
      "type": "event"
    },
    {
      "anonymous": false,
      "inputs": [
        {
          "indexed": true,
          "internalType": "address",
          "name": "minter",
          "type": "address"
        }
      ],
      "name": "RemoveMinter",
      "type": "event"
    },
    {
      "anonymous": false,
      "inputs": [
        {
          "indexed": true,
          "internalType": "address",
          "name": "from",
          "type": "address"
        },
        {
          "indexed": true,
          "internalType": "address",
          "name": "to",
          "type": "address"
        },
        {
          "indexed": false,
          "internalType": "uint256",
          "name": "value",
          "type": "uint256"
        }
      ],
      "name": "Transfer",
      "type": "event"
    },
    {
      "constant": true,
      "inputs": [],
      "name": "DOMAIN_SEPARATOR",
      "outputs": [
        {
          "internalType": "bytes32",
          "name": "",
          "type": "bytes32"
        }
      ],
      "payable": false,
      "stateMutability": "view",
      "type": "function"
    },
    {
      "constant": true,
      "inputs": [],
      "name": "PERMIT_TYPEHASH",
      "outputs": [
        {
          "internalType": "bytes32",
          "name": "",
          "type": "bytes32"
        }
      ],
      "payable": false,
      "stateMutability": "view",
      "type": "function"
    },
    {
      "constant": false,
      "inputs": [
        {
          "internalType": "address",
          "name": "minter_",
          "type": "address"
        }
      ],
      "name": "addMinter",
      "outputs": [],
      "payable": false,
      "stateMutability": "nonpayable",
      "type": "function"
    },
    {
      "constant": true,
      "inputs": [
        {
          "internalType": "address",
          "name": "",
          "type": "address"
        },
        {
          "internalType": "address",
          "name": "",
          "type": "address"
        }
      ],
      "name": "allowance",
      "outputs": [
        {
          "internalType": "uint256",
          "name": "",
          "type": "uint256"
        }
      ],
      "payable": false,
      "stateMutability": "view",
      "type": "function"
    },
    {
      "constant": false,
      "inputs": [
        {
          "internalType": "address",
          "name": "spender",
          "type": "address"
        },
        {
          "internalType": "uint256",
          "name": "value",
          "type": "uint256"
        }
      ],
      "name": "approve",
      "outputs": [
        {
          "internalType": "bool",
          "name": "",
          "type": "bool"
        }
      ],
      "payable": false,
      "stateMutability": "nonpayable",
      "type": "function"
    },
    {
      "constant": true,
      "inputs": [
        {
          "internalType": "address",
          "name": "",
          "type": "address"
        }
      ],
      "name": "balanceOf",
      "outputs": [
        {
          "internalType": "uint256",
          "name": "",
          "type": "uint256"
        }
      ],
      "payable": false,
      "stateMutability": "view",
      "type": "function"
    },
    {
      "constant": false,
      "inputs": [
        {
          "internalType": "uint256",
          "name": "amount",
          "type": "uint256"
        }
      ],
      "name": "burn",
      "outputs": [],
      "payable": false,
      "stateMutability": "nonpayable",
      "type": "function"
    },
    {
      "constant": false,
      "inputs": [
        {
          "internalType": "address",
          "name": "operator_",
          "type": "address"
        }
      ],
      "name": "changeOperator",
      "outputs": [],
      "payable": false,
      "stateMutability": "nonpayable",
      "type": "function"
    },
    {
      "constant": true,
      "inputs": [],
      "name": "decimals",
      "outputs": [
        {
          "internalType": "uint8",
          "name": "",
          "type": "uint8"
        }
      ],
      "payable": false,
      "stateMutability": "view",
      "type": "function"
    },
    {
      "constant": false,
      "inputs": [
        {
          "internalType": "address",
          "name": "to",
          "type": "address"
        },
        {
          "internalType": "uint256",
          "name": "amount",
          "type": "uint256"
        }
      ],
      "name": "mint",
      "outputs": [],
      "payable": false,
      "stateMutability": "nonpayable",
      "type": "function"
    },
    {
      "constant": true,
      "inputs": [
        {
          "internalType": "address",
          "name": "",
          "type": "address"
        }
      ],
      "name": "minters",
      "outputs": [
        {
          "internalType": "bool",
          "name": "",
          "type": "bool"
        }
      ],
      "payable": false,
      "stateMutability": "view",
      "type": "function"
    },
    {
      "constant": true,
      "inputs": [],
      "name": "name",
      "outputs": [
        {
          "internalType": "string",
          "name": "",
          "type": "string"
        }
      ],
      "payable": false,
      "stateMutability": "view",
      "type": "function"
    },
    {
      "constant": true,
      "inputs": [
        {
          "internalType": "address",
          "name": "",
          "type": "address"
        }
      ],
      "name": "nonces",
      "outputs": [
        {
          "internalType": "uint256",
          "name": "",
          "type": "uint256"
        }
      ],
      "payable": false,
      "stateMutability": "view",
      "type": "function"
    },
    {
      "constant": true,
      "inputs": [],
      "name": "operator",
      "outputs": [
        {
          "internalType": "address",
          "name": "",
          "type": "address"
        }
      ],
      "payable": false,
      "stateMutability": "view",
      "type": "function"
    },
    {
      "constant": false,
      "inputs": [
        {
          "internalType": "address",
          "name": "owner",
          "type": "address"
        },
        {
          "internalType": "address",
          "name": "spender",
          "type": "address"
        },
        {
          "internalType": "uint256",
          "name": "value",
          "type": "uint256"
        },
        {
          "internalType": "uint256",
          "name": "deadline",
          "type": "uint256"
        },
        {
          "internalType": "uint8",
          "name": "v",
          "type": "uint8"
        },
        {
          "internalType": "bytes32",
          "name": "r",
          "type": "bytes32"
        },
        {
          "internalType": "bytes32",
          "name": "s",
          "type": "bytes32"
        }
      ],
      "name": "permit",
      "outputs": [],
      "payable": false,
      "stateMutability": "nonpayable",
      "type": "function"
    },
    {
      "constant": false,
      "inputs": [
        {
          "internalType": "address",
          "name": "minter_",
          "type": "address"
        }
      ],
      "name": "removeMinter",
      "outputs": [],
      "payable": false,
      "stateMutability": "nonpayable",
      "type": "function"
    },
    {
      "constant": true,
      "inputs": [],
      "name": "symbol",
      "outputs": [
        {
          "internalType": "string",
          "name": "",
          "type": "string"
        }
      ],
      "payable": false,
      "stateMutability": "view",
      "type": "function"
    },
    {
      "constant": true,
      "inputs": [],
      "name": "totalSupply",
      "outputs": [
        {
          "internalType": "uint256",
          "name": "",
          "type": "uint256"
        }
      ],
      "payable": false,
      "stateMutability": "view",
      "type": "function"
    },
    {
      "constant": false,
      "inputs": [
        {
          "internalType": "address",
          "name": "to",
          "type": "address"
        },
        {
          "internalType": "uint256",
          "name": "value",
          "type": "uint256"
        }
      ],
      "name": "transfer",
      "outputs": [
        {
          "internalType": "bool",
          "name": "",
          "type": "bool"
        }
      ],
      "payable": false,
      "stateMutability": "nonpayable",
      "type": "function"
    },
    {
      "constant": false,
      "inputs": [
        {
          "internalType": "address",
          "name": "from",
          "type": "address"
        },
        {
          "internalType": "address",
          "name": "to",
          "type": "address"
        },
        {
          "internalType": "uint256",
          "name": "value",
          "type": "uint256"
        }
      ],
      "name": "transferFrom",
      "outputs": [
        {
          "internalType": "bool",
          "name": "",
          "type": "bool"
        }
      ],
      "payable": false,
      "stateMutability": "nonpayable",
      "type": "function"
    }
  ],
  "transactionHash": "0x463b871d0c330080a752444c1f5192b52687d505f980947063973ef0db2f33ac",
  "args": [
    "Dola USD Stablecoin",
    "DOLA",
    18
  ],
  "solcInputHash": "8296c2ba3734596e0a407e4521ac8241",
  "bytecode": "0x60806040523480156200001157600080fd5b50604051620012c5380380620012c5833981810160405260608110156200003757600080fd5b81019080805160405193929190846401000000008211156200005857600080fd5b9083019060208201858111156200006e57600080fd5b82516401000000008111828201881017156200008957600080fd5b82525081516020918201929091019080838360005b83811015620000b85781810151838201526020016200009e565b50505050905090810190601f168015620000e65780820380516001836020036101000a031916815260200191505b50604052602001805160405193929190846401000000008211156200010a57600080fd5b9083019060208201858111156200012057600080fd5b82516401000000008111828201881017156200013b57600080fd5b82525081516020918201929091019080838360005b838110156200016a57818101518382015260200162000150565b50505050905090810190601f168015620001985780820380516001836020036101000a031916815260200191505b506040526020908101518551909350620001b99250600091860190620002fa565b508151620001cf906001906020850190620002fa565b506002805460ff831660ff19909116179055600480546001600160a01b03191633179055604051469080605262001273823960520190506040518091039020600060405180828054600181600116156101000203166002900480156200026f5780601f106200024c5761010080835404028352918201916200026f565b820191906000526020600020905b8154815290600101906020018083116200025a575b505060408051918290038220828201825260018352603160f81b602093840152815180840196909652858201527fc89efdaa54c0f20c7adf612882df0950f5a951637e0307cdcb4c672f298b8bc6606086015260808501959095523060a0808601919091528551808603909101815260c090940190945250508051910120600855506200039f915050565b828054600181600116156101000203166002900490600052602060002090601f016020900481019282601f106200033d57805160ff19168380011785556200036d565b828001600101855582156200036d579182015b828111156200036d57825182559160200191906001019062000350565b506200037b9291506200037f565b5090565b6200039c91905b808211156200037b576000815560010162000386565b90565b610ec480620003af6000396000f3fe608060405234801561001057600080fd5b506004361061012c5760003560e01c806342966c68116100ad578063983b2d5611610071578063983b2d561461037b578063a9059cbb146103a1578063d505accf146103cd578063dd62ed3e1461041e578063f46eccc41461044c5761012c565b806342966c68146102e6578063570ca7351461030357806370a08231146103275780637ecebe001461034d57806395d89b41146103735761012c565b80633092afd5116100f45780633092afd51461026657806330adf81f1461028c578063313ce567146102945780633644e515146102b257806340c10f19146102ba5761012c565b806306394c9b1461013157806306fdde0314610159578063095ea7b3146101d657806318160ddd1461021657806323b872dd14610230575b600080fd5b6101576004803603602081101561014757600080fd5b50356001600160a01b0316610472565b005b61016161050b565b6040805160208082528351818301528351919283929083019185019080838360005b8381101561019b578181015183820152602001610183565b50505050905090810190601f1680156101c85780820380516001836020036101000a031916815260200191505b509250505060405180910390f35b610202600480360360408110156101ec57600080fd5b506001600160a01b038135169060200135610599565b604080519115158252519081900360200190f35b61021e6105af565b60408051918252519081900360200190f35b6102026004803603606081101561024657600080fd5b506001600160a01b038135811691602081013590911690604001356105b5565b6101576004803603602081101561027c57600080fd5b50356001600160a01b031661064f565b61021e6106e7565b61029c61070b565b6040805160ff9092168252519081900360200190f35b61021e610714565b610157600480360360408110156102d057600080fd5b506001600160a01b03813516906020013561071a565b610157600480360360208110156102fc57600080fd5b50356107a6565b61030b6107b3565b604080516001600160a01b039092168252519081900360200190f35b61021e6004803603602081101561033d57600080fd5b50356001600160a01b03166107c2565b61021e6004803603602081101561036357600080fd5b50356001600160a01b03166107d4565b6101616107e6565b6101576004803603602081101561039157600080fd5b50356001600160a01b0316610840565b610202600480360360408110156103b757600080fd5b506001600160a01b0381351690602001356108db565b610157600480360360e08110156103e357600080fd5b506001600160a01b03813581169160208101359091169060408101359060608101359060ff6080820135169060a08101359060c001356108e8565b61021e6004803603604081101561043457600080fd5b506001600160a01b0381358116916020013516610ad3565b6102026004803603602081101561046257600080fd5b50356001600160a01b0316610af0565b6004546001600160a01b031633146104c1576040805162461bcd60e51b815260206004820152600d60248201526c27a7262c9027a822a920aa27a960991b604482015290519081900360640190fd5b600480546001600160a01b0319166001600160a01b0383169081179091556040517f8eb831fe42156caaf4721a87ad40c6e662b893dbeee76d7a3ed2564a318b091c90600090a250565b6000805460408051602060026001851615610100026000190190941693909304601f810184900484028201840190925281815292918301828280156105915780601f1061056657610100808354040283529160200191610591565b820191906000526020600020905b81548152906001019060200180831161057457829003601f168201915b505050505081565b60006105a6338484610b05565b50600192915050565b60035481565b6001600160a01b03831660009081526006602090815260408083203384529091528120546000191461063a576001600160a01b0384166000908152600660209081526040808320338452909152902054610615908363ffffffff610b6716565b6001600160a01b03851660009081526006602090815260408083203384529091529020555b610645848484610bb0565b5060019392505050565b6004546001600160a01b0316331461069e576040805162461bcd60e51b815260206004820152600d60248201526c27a7262c9027a822a920aa27a960991b604482015290519081900360640190fd5b6001600160a01b038116600081815260076020526040808220805460ff19169055517f2f91b591fc56ac0917953ad01ec225524ee5ef0555213e4c8a9d8c9728ee7ffb9190a250565b7f6e71edae12b1b97f4d1f60370fef10105fa2faae0126114a169c64845d6126c981565b60025460ff1681565b60085481565b3360009081526007602052604090205460ff1615156001148061074757506004546001600160a01b031633145b610798576040805162461bcd60e51b815260206004820152601860248201527f4f4e4c59204d494e54455253204f52204f50455241544f520000000000000000604482015290519081900360640190fd5b6107a28282610c6a565b5050565b6107b03382610d01565b50565b6004546001600160a01b031681565b60056020526000908152604090205481565b60096020526000908152604090205481565b60018054604080516020600284861615610100026000190190941693909304601f810184900484028201840190925281815292918301828280156105915780601f1061056657610100808354040283529160200191610591565b6004546001600160a01b0316331461088f576040805162461bcd60e51b815260206004820152600d60248201526c27a7262c9027a822a920aa27a960991b604482015290519081900360640190fd5b6001600160a01b038116600081815260076020526040808220805460ff19166001179055517f16baa937b08d58713325f93ac58b8a9369a4359bbefb4957d6d9b402735722ab9190a250565b60006105a6338484610bb0565b42841015610927576040805162461bcd60e51b81526020600482015260076024820152661156141254915160ca1b604482015290519081900360640190fd5b6008546001600160a01b0380891660008181526009602090815260408083208054600180820190925582517f6e71edae12b1b97f4d1f60370fef10105fa2faae0126114a169c64845d6126c98186015280840196909652958d166060860152608085018c905260a085019590955260c08085018b90528151808603909101815260e08501825280519083012061190160f01b6101008601526101028501969096526101228085019690965280518085039096018652610142840180825286519683019690962095839052610162840180825286905260ff89166101828501526101a284018890526101c28401879052519193926101e280820193601f1981019281900390910190855afa158015610a42573d6000803e3d6000fd5b5050604051601f1901519150506001600160a01b03811615801590610a785750886001600160a01b0316816001600160a01b0316145b610abd576040805162461bcd60e51b8152602060048201526011602482015270494e56414c49445f5349474e415455524560781b604482015290519081900360640190fd5b610ac8898989610b05565b505050505050505050565b600660209081526000928352604080842090915290825290205481565b60076020526000908152604090205460ff1681565b6001600160a01b03808416600081815260066020908152604080832094871680845294825291829020859055815185815291517f8c5be1e5ebec7d5bd14f71427d1e84f3dd0314c0f7b2291e5b200ac8c7c3b9259281900390910190a3505050565b6000610ba983836040518060400160405280601f81526020017f536166654d6174683a207375627472616374696f6e20756e646572666c6f7700815250610d9e565b9392505050565b6001600160a01b038316600090815260056020526040902054610bd9908263ffffffff610b6716565b6001600160a01b038085166000908152600560205260408082209390935590841681522054610c0e908263ffffffff610e3516565b6001600160a01b0380841660008181526005602090815260409182902094909455805185815290519193928716927fddf252ad1be2c89b69c2b068fc378daa952ba7f163c4a11628f55a4df523b3ef92918290030190a3505050565b600354610c7d908263ffffffff610e3516565b6003556001600160a01b038216600090815260056020526040902054610ca9908263ffffffff610e3516565b6001600160a01b03831660008181526005602090815260408083209490945583518581529351929391927fddf252ad1be2c89b69c2b068fc378daa952ba7f163c4a11628f55a4df523b3ef9281900390910190a35050565b6001600160a01b038216600090815260056020526040902054610d2a908263ffffffff610b6716565b6001600160a01b038316600090815260056020526040902055600354610d56908263ffffffff610b6716565b6003556040805182815290516000916001600160a01b038516917fddf252ad1be2c89b69c2b068fc378daa952ba7f163c4a11628f55a4df523b3ef9181900360200190a35050565b60008184841115610e2d5760405162461bcd60e51b81526004018080602001828103825283818151815260200191508051906020019080838360005b83811015610df2578181015183820152602001610dda565b50505050905090810190601f168015610e1f5780820380516001836020036101000a031916815260200191505b509250505060405180910390fd5b505050900390565b600082820183811015610ba9576040805162461bcd60e51b815260206004820152601b60248201527f536166654d6174683a206164646974696f6e206f766572666c6f770000000000604482015290519081900360640190fdfea265627a7a72315820b216b24379c6f38984e0047cbf8b830ae2b8cdef292940855067848eb3aa2c4264736f6c63430005100032454950373132446f6d61696e28737472696e67206e616d652c737472696e672076657273696f6e2c75696e7432353620636861696e49642c6164647265737320766572696679696e67436f6e747261637429",
  "devdoc": {
    "methods": {}
  },
  "userdoc": {
    "methods": {}
  },
  "storageLayout": {
    "storage": [
      {
        "astId": 31028,
        "contract": "contracts/ERC20.sol:ERC20",
        "label": "name",
        "offset": 0,
        "slot": "0",
        "type": "t_string_storage"
      },
      {
        "astId": 31030,
        "contract": "contracts/ERC20.sol:ERC20",
        "label": "symbol",
        "offset": 0,
        "slot": "1",
        "type": "t_string_storage"
      },
      {
        "astId": 31032,
        "contract": "contracts/ERC20.sol:ERC20",
        "label": "decimals",
        "offset": 0,
        "slot": "2",
        "type": "t_uint8"
      },
      {
        "astId": 31034,
        "contract": "contracts/ERC20.sol:ERC20",
        "label": "totalSupply",
        "offset": 0,
        "slot": "3",
        "type": "t_uint256"
      },
      {
        "astId": 31036,
        "contract": "contracts/ERC20.sol:ERC20",
        "label": "operator",
        "offset": 0,
        "slot": "4",
        "type": "t_address"
      },
      {
        "astId": 31040,
        "contract": "contracts/ERC20.sol:ERC20",
        "label": "balanceOf",
        "offset": 0,
        "slot": "5",
        "type": "t_mapping(t_address,t_uint256)"
      },
      {
        "astId": 31046,
        "contract": "contracts/ERC20.sol:ERC20",
        "label": "allowance",
        "offset": 0,
        "slot": "6",
        "type": "t_mapping(t_address,t_mapping(t_address,t_uint256))"
      },
      {
        "astId": 31050,
        "contract": "contracts/ERC20.sol:ERC20",
        "label": "minters",
        "offset": 0,
        "slot": "7",
        "type": "t_mapping(t_address,t_bool)"
      },
      {
        "astId": 31052,
        "contract": "contracts/ERC20.sol:ERC20",
        "label": "DOMAIN_SEPARATOR",
        "offset": 0,
        "slot": "8",
        "type": "t_bytes32"
      },
      {
        "astId": 31059,
        "contract": "contracts/ERC20.sol:ERC20",
        "label": "nonces",
        "offset": 0,
        "slot": "9",
        "type": "t_mapping(t_address,t_uint256)"
      }
    ],
    "types": {
      "t_address": {
        "encoding": "inplace",
        "label": "address",
        "numberOfBytes": "20"
      },
      "t_bool": {
        "encoding": "inplace",
        "label": "bool",
        "numberOfBytes": "1"
      },
      "t_bytes32": {
        "encoding": "inplace",
        "label": "bytes32",
        "numberOfBytes": "32"
      },
      "t_mapping(t_address,t_bool)": {
        "encoding": "mapping",
        "key": "t_address",
        "label": "mapping(address => bool)",
        "numberOfBytes": "32",
        "value": "t_bool"
      },
      "t_mapping(t_address,t_mapping(t_address,t_uint256))": {
        "encoding": "mapping",
        "key": "t_address",
        "label": "mapping(address => mapping(address => uint256))",
        "numberOfBytes": "32",
        "value": "t_mapping(t_address,t_uint256)"
      },
      "t_mapping(t_address,t_uint256)": {
        "encoding": "mapping",
        "key": "t_address",
        "label": "mapping(address => uint256)",
        "numberOfBytes": "32",
        "value": "t_uint256"
      },
      "t_string_storage": {
        "encoding": "bytes",
        "label": "string",
        "numberOfBytes": "32"
      },
      "t_uint256": {
        "encoding": "inplace",
        "label": "uint256",
        "numberOfBytes": "32"
      },
      "t_uint8": {
        "encoding": "inplace",
        "label": "uint8",
        "numberOfBytes": "1"
      }
    }
  }
}