{
  "address": "0xADd25C6E213eA3747EC3742F53438349d5146e17",
  "abi": [
    {
      "inputs": [
        {
          "internalType": "contract CErc20",
          "name": "ctoken_",
          "type": "address"
        },
        {
          "internalType": "address",
          "name": "gov_",
          "type": "address"
        }
      ],
      "payable": false,
      "stateMutability": "nonpayable",
      "type": "constructor"
    },
    {
      "anonymous": false,
      "inputs": [
        {
          "indexed": false,
          "internalType": "uint256",
          "name": "amount",
          "type": "uint256"
        }
      ],
      "name": "Contraction",
      "type": "event"
    },
    {
      "anonymous": false,
      "inputs": [
        {
          "indexed": false,
          "internalType": "uint256",
          "name": "amount",
          "type": "uint256"
        }
      ],
      "name": "Expansion",
      "type": "event"
    },
    {
      "constant": true,
      "inputs": [],
      "name": "chair",
      "outputs": [
        {
          "internalType": "address",
          "name": "",
          "type": "address"
        }
      ],
      "payable": false,
      "stateMutability": "view",
      "type": "function"
    },
    {
      "constant": false,
      "inputs": [
        {
          "internalType": "address",
          "name": "newChair_",
          "type": "address"
        }
      ],
      "name": "changeChair",
      "outputs": [],
      "payable": false,
      "stateMutability": "nonpayable",
      "type": "function"
    },
    {
      "constant": false,
      "inputs": [
        {
          "internalType": "address",
          "name": "newGov_",
          "type": "address"
        }
      ],
      "name": "changeGov",
      "outputs": [],
      "payable": false,
      "stateMutability": "nonpayable",
      "type": "function"
    },
    {
      "constant": false,
      "inputs": [
        {
          "internalType": "uint256",
          "name": "amount",
          "type": "uint256"
        }
      ],
      "name": "contraction",
      "outputs": [],
      "payable": false,
      "stateMutability": "nonpayable",
      "type": "function"
    },
    {
      "constant": true,
      "inputs": [],
      "name": "ctoken",
      "outputs": [
        {
          "internalType": "contract CErc20",
          "name": "",
          "type": "address"
        }
      ],
      "payable": false,
      "stateMutability": "view",
      "type": "function"
    },
    {
      "constant": false,
      "inputs": [
        {
          "internalType": "uint256",
          "name": "amount",
          "type": "uint256"
        }
      ],
      "name": "expansion",
      "outputs": [],
      "payable": false,
      "stateMutability": "nonpayable",
      "type": "function"
    },
    {
      "constant": true,
      "inputs": [],
      "name": "gov",
      "outputs": [
        {
          "internalType": "address",
          "name": "",
          "type": "address"
        }
      ],
      "payable": false,
      "stateMutability": "view",
      "type": "function"
    },
    {
      "constant": false,
      "inputs": [],
      "name": "resign",
      "outputs": [],
      "payable": false,
      "stateMutability": "nonpayable",
      "type": "function"
    },
    {
      "constant": true,
      "inputs": [],
      "name": "supply",
      "outputs": [
        {
          "internalType": "uint256",
          "name": "",
          "type": "uint256"
        }
      ],
      "payable": false,
      "stateMutability": "view",
      "type": "function"
    },
    {
      "constant": false,
      "inputs": [],
      "name": "takeProfit",
      "outputs": [],
      "payable": false,
      "stateMutability": "nonpayable",
      "type": "function"
    },
    {
      "constant": true,
      "inputs": [],
      "name": "underlying",
      "outputs": [
        {
          "internalType": "contract ERC20",
          "name": "",
          "type": "address"
        }
      ],
      "payable": false,
      "stateMutability": "view",
      "type": "function"
    }
  ],
  "transactionHash": "0x36248678b1952b04533cfe214c8a02342d8b044a9b66795bce847ed151fa4c96",
  "args": [
    "0x1Ba216fd9A75e729Ce3861D1d8a4cD5d8dEA498a",
    "0x5656ab2fAe8522b8148478528DDa4ff89075f6E7"
  ],
  "solcInputHash": "8296c2ba3734596e0a407e4521ac8241",
  "bytecode": "0x608060405234801561001057600080fd5b50604051610bb9380380610bb98339818101604052604081101561003357600080fd5b508051602091820151600080546001600160a01b0319166001600160a01b03841690811790915560408051636f307dc360e01b81529051939492939192636f307dc392600480840193829003018186803b15801561009057600080fd5b505afa1580156100a4573d6000803e3d6000fd5b505050506040513d60208110156100ba57600080fd5b5051600180546001600160a01b0319166001600160a01b039283161790819055600080546040805163095ea7b360e01b81529185166004830152600019602483015251929093169263095ea7b39260448083019360209383900390910190829087803b15801561012957600080fd5b505af115801561013d573d6000803e3d6000fd5b505050506040513d602081101561015357600080fd5b505060028054336001600160a01b031991821617909155600380549091166001600160a01b039290921691909117905550610a26806101936000396000f3fe608060405234801561001057600080fd5b50600436106100a95760003560e01c806370c105781161007157806370c105781461011b578063a962ef1e14610123578063c002e56e14610149578063ccf3eb9f1461016f578063e1a611b714610177578063fdf893f514610194576100a9565b8063047fc9aa146100ae57806312d43a51146100c85780632720b22e146100ec57806369652fcf1461010b5780636f307dc314610113575b600080fd5b6100b661019c565b60408051918252519081900360200190f35b6100d06101a2565b604080516001600160a01b039092168252519081900360200190f35b6101096004803603602081101561010257600080fd5b50356101b1565b005b610109610374565b6100d06103d2565b6101096103e1565b6101096004803603602081101561013957600080fd5b50356001600160a01b03166105c3565b6101096004803603602081101561015f57600080fd5b50356001600160a01b031661062f565b6100d061069b565b6101096004803603602081101561018d57600080fd5b50356106aa565b6100d06108ad565b60045481565b6003546001600160a01b031681565b6002546001600160a01b031633146101fd576040805162461bcd60e51b815260206004820152600a60248201526927a7262c9021a420a4a960b11b604482015290519081900360640190fd5b600154604080516340c10f1960e01b81523060048201526024810184905290516001600160a01b03909216916340c10f199160448082019260009290919082900301818387803b15801561025057600080fd5b505af1158015610264573d6000803e3d6000fd5b5050600080546040805163140e25ad60e31b81526004810187905290516001600160a01b03909216945063a0712d6893506024808201936020939283900390910190829087803b1580156102b757600080fd5b505af11580156102cb573d6000803e3d6000fd5b505050506040513d60208110156102e157600080fd5b505115610328576040805162461bcd60e51b815260206004820152601060248201526f14dd5c1c1b1e5a5b99c819985a5b195960821b604482015290519081900360640190fd5b60045461033b908263ffffffff6108bc16565b6004556040805182815290517fdcc16fd18a808d877bcd9a09b544844b36ae8f0a4b222e317d7b777b2c18b0329181900360200190a150565b6002546001600160a01b031633146103c0576040805162461bcd60e51b815260206004820152600a60248201526927a7262c9021a420a4a960b11b604482015290519081900360640190fd5b600280546001600160a01b0319169055565b6001546001600160a01b031681565b6000805460408051633af9e66960e01b815230600482015290516001600160a01b0390921691633af9e6699160248082019260209290919082900301818787803b15801561042e57600080fd5b505af1158015610442573d6000803e3d6000fd5b505050506040513d602081101561045857600080fd5b505160045490915060009061047490839063ffffffff61091d16565b905080156105bf57600080546040805163852a12e360e01b81526004810185905290516001600160a01b039092169263852a12e3926024808401936020939083900390910190829087803b1580156104cb57600080fd5b505af11580156104df573d6000803e3d6000fd5b505050506040513d60208110156104f557600080fd5b505115610539576040805162461bcd60e51b815260206004820152600d60248201526c14995919595b4819985a5b1959609a1b604482015290519081900360640190fd5b6001546003546040805163a9059cbb60e01b81526001600160a01b039283166004820152602481018590529051919092169163a9059cbb9160448083019260209291908290030181600087803b15801561059257600080fd5b505af11580156105a6573d6000803e3d6000fd5b505050506040513d60208110156105bc57600080fd5b50505b5050565b6003546001600160a01b0316331461060d576040805162461bcd60e51b815260206004820152600860248201526727a7262c9023a7ab60c11b604482015290519081900360640190fd5b600380546001600160a01b0319166001600160a01b0392909216919091179055565b6003546001600160a01b03163314610679576040805162461bcd60e51b815260206004820152600860248201526727a7262c9023a7ab60c11b604482015290519081900360640190fd5b600280546001600160a01b0319166001600160a01b0392909216919091179055565b6000546001600160a01b031681565b6002546001600160a01b031633146106f6576040805162461bcd60e51b815260206004820152600a60248201526927a7262c9021a420a4a960b11b604482015290519081900360640190fd5b60045481111561073e576040805162461bcd60e51b815260206004820152600e60248201526d414d4f554e5420544f4f2042494760901b604482015290519081900360640190fd5b600080546040805163852a12e360e01b81526004810185905290516001600160a01b039092169263852a12e3926024808401936020939083900390910190829087803b15801561078d57600080fd5b505af11580156107a1573d6000803e3d6000fd5b505050506040513d60208110156107b757600080fd5b5051156107fb576040805162461bcd60e51b815260206004820152600d60248201526c14995919595b4819985a5b1959609a1b604482015290519081900360640190fd5b60015460408051630852cd8d60e31b81526004810184905290516001600160a01b03909216916342966c689160248082019260009290919082900301818387803b15801561084857600080fd5b505af115801561085c573d6000803e3d6000fd5b5050600454610874925090508263ffffffff61091d16565b6004556040805182815290517f32d275175c36fa468b3e61c6763f9488ff3c9be127e35e011cf4e04d602224ba9181900360200190a150565b6002546001600160a01b031681565b600082820183811015610916576040805162461bcd60e51b815260206004820152601b60248201527f536166654d6174683a206164646974696f6e206f766572666c6f770000000000604482015290519081900360640190fd5b9392505050565b600061091683836040518060400160405280601f81526020017f536166654d6174683a207375627472616374696f6e20756e646572666c6f7700815250600081848411156109e95760405162461bcd60e51b81526004018080602001828103825283818151815260200191508051906020019080838360005b838110156109ae578181015183820152602001610996565b50505050905090810190601f1680156109db5780820380516001836020036101000a031916815260200191505b509250505060405180910390fd5b50505090039056fea265627a7a7231582029fc7dbbec65d0803b2349f3ee2b612c9aa0c7014491174df0fa827d9fb5273664736f6c63430005100032",
  "devdoc": {
    "methods": {}
  },
  "userdoc": {
    "methods": {}
  },
  "storageLayout": {
    "storage": [
      {
        "astId": 33032,
        "contract": "contracts/Fed.sol:Fed",
        "label": "ctoken",
        "offset": 0,
        "slot": "0",
        "type": "t_contract(CErc20)1143"
      },
      {
        "astId": 33034,
        "contract": "contracts/Fed.sol:Fed",
        "label": "underlying",
        "offset": 0,
        "slot": "1",
        "type": "t_contract(ERC20)31544"
      },
      {
        "astId": 33036,
        "contract": "contracts/Fed.sol:Fed",
        "label": "chair",
        "offset": 0,
        "slot": "2",
        "type": "t_address"
      },
      {
        "astId": 33038,
        "contract": "contracts/Fed.sol:Fed",
        "label": "gov",
        "offset": 0,
        "slot": "3",
        "type": "t_address"
      },
      {
        "astId": 33040,
        "contract": "contracts/Fed.sol:Fed",
        "label": "supply",
        "offset": 0,
        "slot": "4",
        "type": "t_uint256"
      }
    ],
    "types": {
      "t_address": {
        "encoding": "inplace",
        "label": "address",
        "numberOfBytes": "20"
      },
      "t_contract(CErc20)1143": {
        "encoding": "inplace",
        "label": "contract CErc20",
        "numberOfBytes": "20"
      },
      "t_contract(ERC20)31544": {
        "encoding": "inplace",
        "label": "contract ERC20",
        "numberOfBytes": "20"
      },
      "t_uint256": {
        "encoding": "inplace",
        "label": "uint256",
        "numberOfBytes": "32"
      }
    }
  }
}