{
  "address": "0x1Dddfa9Fe7b16801840fF95Ed679a5E5984B80c7",
  "abi": [
    {
      "inputs": [],
      "payable": false,
      "stateMutability": "nonpayable",
      "type": "constructor"
    },
    {
      "anonymous": false,
      "inputs": [
        {
          "indexed": false,
          "internalType": "string",
          "name": "action",
          "type": "string"
        },
        {
          "indexed": false,
          "internalType": "bool",
          "name": "pauseState",
          "type": "bool"
        }
      ],
      "name": "ActionPaused",
      "type": "event"
    },
    {
      "anonymous": false,
      "inputs": [
        {
          "indexed": false,
          "internalType": "contract CToken",
          "name": "cToken",
          "type": "address"
        },
        {
          "indexed": false,
          "internalType": "string",
          "name": "action",
          "type": "string"
        },
        {
          "indexed": false,
          "internalType": "bool",
          "name": "pauseState",
          "type": "bool"
        }
      ],
      "name": "ActionPaused",
      "type": "event"
    },
    {
      "anonymous": false,
      "inputs": [
        {
          "indexed": false,
          "internalType": "address",
          "name": "recipient",
          "type": "address"
        },
        {
          "indexed": false,
          "internalType": "uint256",
          "name": "amount",
          "type": "uint256"
        }
      ],
      "name": "CompGranted",
      "type": "event"
    },
    {
      "anonymous": false,
      "inputs": [
        {
          "indexed": true,
          "internalType": "contract CToken",
          "name": "cToken",
          "type": "address"
        },
        {
          "indexed": false,
          "internalType": "uint256",
          "name": "newSpeed",
          "type": "uint256"
        }
      ],
      "name": "CompSpeedUpdated",
      "type": "event"
    },
    {
      "anonymous": false,
      "inputs": [
        {
          "indexed": true,
          "internalType": "address",
          "name": "contributor",
          "type": "address"
        },
        {
          "indexed": false,
          "internalType": "uint256",
          "name": "newSpeed",
          "type": "uint256"
        }
      ],
      "name": "ContributorCompSpeedUpdated",
      "type": "event"
    },
    {
      "anonymous": false,
      "inputs": [
        {
          "indexed": true,
          "internalType": "contract CToken",
          "name": "cToken",
          "type": "address"
        },
        {
          "indexed": true,
          "internalType": "address",
          "name": "borrower",
          "type": "address"
        },
        {
          "indexed": false,
          "internalType": "uint256",
          "name": "compDelta",
          "type": "uint256"
        },
        {
          "indexed": false,
          "internalType": "uint256",
          "name": "compBorrowIndex",
          "type": "uint256"
        }
      ],
      "name": "DistributedBorrowerComp",
      "type": "event"
    },
    {
      "anonymous": false,
      "inputs": [
        {
          "indexed": true,
          "internalType": "contract CToken",
          "name": "cToken",
          "type": "address"
        },
        {
          "indexed": true,
          "internalType": "address",
          "name": "supplier",
          "type": "address"
        },
        {
          "indexed": false,
          "internalType": "uint256",
          "name": "compDelta",
          "type": "uint256"
        },
        {
          "indexed": false,
          "internalType": "uint256",
          "name": "compSupplyIndex",
          "type": "uint256"
        }
      ],
      "name": "DistributedSupplierComp",
      "type": "event"
    },
    {
      "anonymous": false,
      "inputs": [
        {
          "indexed": false,
          "internalType": "uint256",
          "name": "error",
          "type": "uint256"
        },
        {
          "indexed": false,
          "internalType": "uint256",
          "name": "info",
          "type": "uint256"
        },
        {
          "indexed": false,
          "internalType": "uint256",
          "name": "detail",
          "type": "uint256"
        }
      ],
      "name": "Failure",
      "type": "event"
    },
    {
      "anonymous": false,
      "inputs": [
        {
          "indexed": false,
          "internalType": "contract CToken",
          "name": "cToken",
          "type": "address"
        },
        {
          "indexed": false,
          "internalType": "address",
          "name": "account",
          "type": "address"
        }
      ],
      "name": "MarketEntered",
      "type": "event"
    },
    {
      "anonymous": false,
      "inputs": [
        {
          "indexed": false,
          "internalType": "contract CToken",
          "name": "cToken",
          "type": "address"
        },
        {
          "indexed": false,
          "internalType": "address",
          "name": "account",
          "type": "address"
        }
      ],
      "name": "MarketExited",
      "type": "event"
    },
    {
      "anonymous": false,
      "inputs": [
        {
          "indexed": false,
          "internalType": "contract CToken",
          "name": "cToken",
          "type": "address"
        }
      ],
      "name": "MarketListed",
      "type": "event"
    },
    {
      "anonymous": false,
      "inputs": [
        {
          "indexed": true,
          "internalType": "contract CToken",
          "name": "cToken",
          "type": "address"
        },
        {
          "indexed": false,
          "internalType": "uint256",
          "name": "newBorrowCap",
          "type": "uint256"
        }
      ],
      "name": "NewBorrowCap",
      "type": "event"
    },
    {
      "anonymous": false,
      "inputs": [
        {
          "indexed": false,
          "internalType": "address",
          "name": "oldBorrowCapGuardian",
          "type": "address"
        },
        {
          "indexed": false,
          "internalType": "address",
          "name": "newBorrowCapGuardian",
          "type": "address"
        }
      ],
      "name": "NewBorrowCapGuardian",
      "type": "event"
    },
    {
      "anonymous": false,
      "inputs": [
        {
          "indexed": false,
          "internalType": "uint256",
          "name": "oldCloseFactorMantissa",
          "type": "uint256"
        },
        {
          "indexed": false,
          "internalType": "uint256",
          "name": "newCloseFactorMantissa",
          "type": "uint256"
        }
      ],
      "name": "NewCloseFactor",
      "type": "event"
    },
    {
      "anonymous": false,
      "inputs": [
        {
          "indexed": false,
          "internalType": "contract CToken",
          "name": "cToken",
          "type": "address"
        },
        {
          "indexed": false,
          "internalType": "uint256",
          "name": "oldCollateralFactorMantissa",
          "type": "uint256"
        },
        {
          "indexed": false,
          "internalType": "uint256",
          "name": "newCollateralFactorMantissa",
          "type": "uint256"
        }
      ],
      "name": "NewCollateralFactor",
      "type": "event"
    },
    {
      "anonymous": false,
      "inputs": [
        {
          "indexed": false,
          "internalType": "uint256",
          "name": "oldLiquidationIncentiveMantissa",
          "type": "uint256"
        },
        {
          "indexed": false,
          "internalType": "uint256",
          "name": "newLiquidationIncentiveMantissa",
          "type": "uint256"
        }
      ],
      "name": "NewLiquidationIncentive",
      "type": "event"
    },
    {
      "anonymous": false,
      "inputs": [
        {
          "indexed": false,
          "internalType": "address",
          "name": "oldPauseGuardian",
          "type": "address"
        },
        {
          "indexed": false,
          "internalType": "address",
          "name": "newPauseGuardian",
          "type": "address"
        }
      ],
      "name": "NewPauseGuardian",
      "type": "event"
    },
    {
      "anonymous": false,
      "inputs": [
        {
          "indexed": false,
          "internalType": "contract PriceOracle",
          "name": "oldPriceOracle",
          "type": "address"
        },
        {
          "indexed": false,
          "internalType": "contract PriceOracle",
          "name": "newPriceOracle",
          "type": "address"
        }
      ],
      "name": "NewPriceOracle",
      "type": "event"
    },
    {
      "constant": false,
      "inputs": [
        {
          "internalType": "contract Unitroller",
          "name": "unitroller",
          "type": "address"
        }
      ],
      "name": "_become",
      "outputs": [],
      "payable": false,
      "stateMutability": "nonpayable",
      "type": "function"
    },
    {
      "constant": true,
      "inputs": [],
      "name": "_borrowGuardianPaused",
      "outputs": [
        {
          "internalType": "bool",
          "name": "",
          "type": "bool"
        }
      ],
      "payable": false,
      "stateMutability": "view",
      "type": "function"
    },
    {
      "constant": false,
      "inputs": [
        {
          "internalType": "address",
          "name": "recipient",
          "type": "address"
        },
        {
          "internalType": "uint256",
          "name": "amount",
          "type": "uint256"
        }
      ],
      "name": "_grantComp",
      "outputs": [],
      "payable": false,
      "stateMutability": "nonpayable",
      "type": "function"
    },
    {
      "constant": true,
      "inputs": [],
      "name": "_mintGuardianPaused",
      "outputs": [
        {
          "internalType": "bool",
          "name": "",
          "type": "bool"
        }
      ],
      "payable": false,
      "stateMutability": "view",
      "type": "function"
    },
    {
      "constant": false,
      "inputs": [
        {
          "internalType": "address",
          "name": "newBorrowCapGuardian",
          "type": "address"
        }
      ],
      "name": "_setBorrowCapGuardian",
      "outputs": [],
      "payable": false,
      "stateMutability": "nonpayable",
      "type": "function"
    },
    {
      "constant": false,
      "inputs": [
        {
          "internalType": "contract CToken",
          "name": "cToken",
          "type": "address"
        },
        {
          "internalType": "bool",
          "name": "state",
          "type": "bool"
        }
      ],
      "name": "_setBorrowPaused",
      "outputs": [
        {
          "internalType": "bool",
          "name": "",
          "type": "bool"
        }
      ],
      "payable": false,
      "stateMutability": "nonpayable",
      "type": "function"
    },
    {
      "constant": false,
      "inputs": [
        {
          "internalType": "uint256",
          "name": "newCloseFactorMantissa",
          "type": "uint256"
        }
      ],
      "name": "_setCloseFactor",
      "outputs": [
        {
          "internalType": "uint256",
          "name": "",
          "type": "uint256"
        }
      ],
      "payable": false,
      "stateMutability": "nonpayable",
      "type": "function"
    },
    {
      "constant": false,
      "inputs": [
        {
          "internalType": "contract CToken",
          "name": "cToken",
          "type": "address"
        },
        {
          "internalType": "uint256",
          "name": "newCollateralFactorMantissa",
          "type": "uint256"
        }
      ],
      "name": "_setCollateralFactor",
      "outputs": [
        {
          "internalType": "uint256",
          "name": "",
          "type": "uint256"
        }
      ],
      "payable": false,
      "stateMutability": "nonpayable",
      "type": "function"
    },
    {
      "constant": false,
      "inputs": [
        {
          "internalType": "address",
          "name": "compAddress_",
          "type": "address"
        }
      ],
      "name": "_setCompAddress",
      "outputs": [],
      "payable": false,
      "stateMutability": "nonpayable",
      "type": "function"
    },
    {
      "constant": false,
      "inputs": [
        {
          "internalType": "contract CToken",
          "name": "cToken",
          "type": "address"
        },
        {
          "internalType": "uint256",
          "name": "compSpeed",
          "type": "uint256"
        }
      ],
      "name": "_setCompSpeed",
      "outputs": [],
      "payable": false,
      "stateMutability": "nonpayable",
      "type": "function"
    },
    {
      "constant": false,
      "inputs": [
        {
          "internalType": "address",
          "name": "contributor",
          "type": "address"
        },
        {
          "internalType": "uint256",
          "name": "compSpeed",
          "type": "uint256"
        }
      ],
      "name": "_setContributorCompSpeed",
      "outputs": [],
      "payable": false,
      "stateMutability": "nonpayable",
      "type": "function"
    },
    {
      "constant": false,
      "inputs": [
        {
          "internalType": "uint256",
          "name": "newLiquidationIncentiveMantissa",
          "type": "uint256"
        }
      ],
      "name": "_setLiquidationIncentive",
      "outputs": [
        {
          "internalType": "uint256",
          "name": "",
          "type": "uint256"
        }
      ],
      "payable": false,
      "stateMutability": "nonpayable",
      "type": "function"
    },
    {
      "constant": false,
      "inputs": [
        {
          "internalType": "contract CToken[]",
          "name": "cTokens",
          "type": "address[]"
        },
        {
          "internalType": "uint256[]",
          "name": "newBorrowCaps",
          "type": "uint256[]"
        }
      ],
      "name": "_setMarketBorrowCaps",
      "outputs": [],
      "payable": false,
      "stateMutability": "nonpayable",
      "type": "function"
    },
    {
      "constant": false,
      "inputs": [
        {
          "internalType": "contract CToken",
          "name": "cToken",
          "type": "address"
        },
        {
          "internalType": "bool",
          "name": "state",
          "type": "bool"
        }
      ],
      "name": "_setMintPaused",
      "outputs": [
        {
          "internalType": "bool",
          "name": "",
          "type": "bool"
        }
      ],
      "payable": false,
      "stateMutability": "nonpayable",
      "type": "function"
    },
    {
      "constant": false,
      "inputs": [
        {
          "internalType": "address",
          "name": "newPauseGuardian",
          "type": "address"
        }
      ],
      "name": "_setPauseGuardian",
      "outputs": [
        {
          "internalType": "uint256",
          "name": "",
          "type": "uint256"
        }
      ],
      "payable": false,
      "stateMutability": "nonpayable",
      "type": "function"
    },
    {
      "constant": false,
      "inputs": [
        {
          "internalType": "contract PriceOracle",
          "name": "newOracle",
          "type": "address"
        }
      ],
      "name": "_setPriceOracle",
      "outputs": [
        {
          "internalType": "uint256",
          "name": "",
          "type": "uint256"
        }
      ],
      "payable": false,
      "stateMutability": "nonpayable",
      "type": "function"
    },
    {
      "constant": false,
      "inputs": [
        {
          "internalType": "bool",
          "name": "state",
          "type": "bool"
        }
      ],
      "name": "_setSeizePaused",
      "outputs": [
        {
          "internalType": "bool",
          "name": "",
          "type": "bool"
        }
      ],
      "payable": false,
      "stateMutability": "nonpayable",
      "type": "function"
    },
    {
      "constant": false,
      "inputs": [
        {
          "internalType": "bool",
          "name": "state",
          "type": "bool"
        }
      ],
      "name": "_setTransferPaused",
      "outputs": [
        {
          "internalType": "bool",
          "name": "",
          "type": "bool"
        }
      ],
      "payable": false,
      "stateMutability": "nonpayable",
      "type": "function"
    },
    {
      "constant": false,
      "inputs": [
        {
          "internalType": "contract CToken",
          "name": "cToken",
          "type": "address"
        }
      ],
      "name": "_supportMarket",
      "outputs": [
        {
          "internalType": "uint256",
          "name": "",
          "type": "uint256"
        }
      ],
      "payable": false,
      "stateMutability": "nonpayable",
      "type": "function"
    },
    {
      "constant": true,
      "inputs": [
        {
          "internalType": "address",
          "name": "",
          "type": "address"
        },
        {
          "internalType": "uint256",
          "name": "",
          "type": "uint256"
        }
      ],
      "name": "accountAssets",
      "outputs": [
        {
          "internalType": "contract CToken",
          "name": "",
          "type": "address"
        }
      ],
      "payable": false,
      "stateMutability": "view",
      "type": "function"
    },
    {
      "constant": true,
      "inputs": [],
      "name": "admin",
      "outputs": [
        {
          "internalType": "address",
          "name": "",
          "type": "address"
        }
      ],
      "payable": false,
      "stateMutability": "view",
      "type": "function"
    },
    {
      "constant": true,
      "inputs": [
        {
          "internalType": "uint256",
          "name": "",
          "type": "uint256"
        }
      ],
      "name": "allMarkets",
      "outputs": [
        {
          "internalType": "contract CToken",
          "name": "",
          "type": "address"
        }
      ],
      "payable": false,
      "stateMutability": "view",
      "type": "function"
    },
    {
      "constant": false,
      "inputs": [
        {
          "internalType": "address",
          "name": "cToken",
          "type": "address"
        },
        {
          "internalType": "address",
          "name": "borrower",
          "type": "address"
        },
        {
          "internalType": "uint256",
          "name": "borrowAmount",
          "type": "uint256"
        }
      ],
      "name": "borrowAllowed",
      "outputs": [
        {
          "internalType": "uint256",
          "name": "",
          "type": "uint256"
        }
      ],
      "payable": false,
      "stateMutability": "nonpayable",
      "type": "function"
    },
    {
      "constant": true,
      "inputs": [],
      "name": "borrowCapGuardian",
      "outputs": [
        {
          "internalType": "address",
          "name": "",
          "type": "address"
        }
      ],
      "payable": false,
      "stateMutability": "view",
      "type": "function"
    },
    {
      "constant": true,
      "inputs": [
        {
          "internalType": "address",
          "name": "",
          "type": "address"
        }
      ],
      "name": "borrowCaps",
      "outputs": [
        {
          "internalType": "uint256",
          "name": "",
          "type": "uint256"
        }
      ],
      "payable": false,
      "stateMutability": "view",
      "type": "function"
    },
    {
      "constant": true,
      "inputs": [
        {
          "internalType": "address",
          "name": "",
          "type": "address"
        }
      ],
      "name": "borrowGuardianPaused",
      "outputs": [
        {
          "internalType": "bool",
          "name": "",
          "type": "bool"
        }
      ],
      "payable": false,
      "stateMutability": "view",
      "type": "function"
    },
    {
      "constant": false,
      "inputs": [
        {
          "internalType": "address",
          "name": "cToken",
          "type": "address"
        },
        {
          "internalType": "address",
          "name": "borrower",
          "type": "address"
        },
        {
          "internalType": "uint256",
          "name": "borrowAmount",
          "type": "uint256"
        }
      ],
      "name": "borrowVerify",
      "outputs": [],
      "payable": false,
      "stateMutability": "nonpayable",
      "type": "function"
    },
    {
      "constant": true,
      "inputs": [
        {
          "internalType": "address",
          "name": "account",
          "type": "address"
        },
        {
          "internalType": "contract CToken",
          "name": "cToken",
          "type": "address"
        }
      ],
      "name": "checkMembership",
      "outputs": [
        {
          "internalType": "bool",
          "name": "",
          "type": "bool"
        }
      ],
      "payable": false,
      "stateMutability": "view",
      "type": "function"
    },
    {
      "constant": false,
      "inputs": [
        {
          "internalType": "address",
          "name": "holder",
          "type": "address"
        },
        {
          "internalType": "contract CToken[]",
          "name": "cTokens",
          "type": "address[]"
        }
      ],
      "name": "claimComp",
      "outputs": [],
      "payable": false,
      "stateMutability": "nonpayable",
      "type": "function"
    },
    {
      "constant": false,
      "inputs": [
        {
          "internalType": "address[]",
          "name": "holders",
          "type": "address[]"
        },
        {
          "internalType": "contract CToken[]",
          "name": "cTokens",
          "type": "address[]"
        },
        {
          "internalType": "bool",
          "name": "borrowers",
          "type": "bool"
        },
        {
          "internalType": "bool",
          "name": "suppliers",
          "type": "bool"
        }
      ],
      "name": "claimComp",
      "outputs": [],
      "payable": false,
      "stateMutability": "nonpayable",
      "type": "function"
    },
    {
      "constant": false,
      "inputs": [
        {
          "internalType": "address",
          "name": "holder",
          "type": "address"
        }
      ],
      "name": "claimComp",
      "outputs": [],
      "payable": false,
      "stateMutability": "nonpayable",
      "type": "function"
    },
    {
      "constant": true,
      "inputs": [],
      "name": "closeFactorMantissa",
      "outputs": [
        {
          "internalType": "uint256",
          "name": "",
          "type": "uint256"
        }
      ],
      "payable": false,
      "stateMutability": "view",
      "type": "function"
    },
    {
      "constant": true,
      "inputs": [
        {
          "internalType": "address",
          "name": "",
          "type": "address"
        }
      ],
      "name": "compAccrued",
      "outputs": [
        {
          "internalType": "uint256",
          "name": "",
          "type": "uint256"
        }
      ],
      "payable": false,
      "stateMutability": "view",
      "type": "function"
    },
    {
      "constant": true,
      "inputs": [],
      "name": "compAddress",
      "outputs": [
        {
          "internalType": "address",
          "name": "",
          "type": "address"
        }
      ],
      "payable": false,
      "stateMutability": "view",
      "type": "function"
    },
    {
      "constant": true,
      "inputs": [
        {
          "internalType": "address",
          "name": "",
          "type": "address"
        }
      ],
      "name": "compBorrowState",
      "outputs": [
        {
          "internalType": "uint216",
          "name": "index",
          "type": "uint216"
        },
        {
          "internalType": "uint40",
          "name": "block",
          "type": "uint40"
        }
      ],
      "payable": false,
      "stateMutability": "view",
      "type": "function"
    },
    {
      "constant": true,
      "inputs": [
        {
          "internalType": "address",
          "name": "",
          "type": "address"
        },
        {
          "internalType": "address",
          "name": "",
          "type": "address"
        }
      ],
      "name": "compBorrowerIndex",
      "outputs": [
        {
          "internalType": "uint256",
          "name": "",
          "type": "uint256"
        }
      ],
      "payable": false,
      "stateMutability": "view",
      "type": "function"
    },
    {
      "constant": true,
      "inputs": [
        {
          "internalType": "address",
          "name": "",
          "type": "address"
        }
      ],
      "name": "compContributorSpeeds",
      "outputs": [
        {
          "internalType": "uint256",
          "name": "",
          "type": "uint256"
        }
      ],
      "payable": false,
      "stateMutability": "view",
      "type": "function"
    },
    {
      "constant": true,
      "inputs": [],
      "name": "compInitialIndex",
      "outputs": [
        {
          "internalType": "uint216",
          "name": "",
          "type": "uint216"
        }
      ],
      "payable": false,
      "stateMutability": "view",
      "type": "function"
    },
    {
      "constant": true,
      "inputs": [],
      "name": "compRate",
      "outputs": [
        {
          "internalType": "uint256",
          "name": "",
          "type": "uint256"
        }
      ],
      "payable": false,
      "stateMutability": "view",
      "type": "function"
    },
    {
      "constant": true,
      "inputs": [
        {
          "internalType": "address",
          "name": "",
          "type": "address"
        }
      ],
      "name": "compSpeeds",
      "outputs": [
        {
          "internalType": "uint256",
          "name": "",
          "type": "uint256"
        }
      ],
      "payable": false,
      "stateMutability": "view",
      "type": "function"
    },
    {
      "constant": true,
      "inputs": [
        {
          "internalType": "address",
          "name": "",
          "type": "address"
        },
        {
          "internalType": "address",
          "name": "",
          "type": "address"
        }
      ],
      "name": "compSupplierIndex",
      "outputs": [
        {
          "internalType": "uint256",
          "name": "",
          "type": "uint256"
        }
      ],
      "payable": false,
      "stateMutability": "view",
      "type": "function"
    },
    {
      "constant": true,
      "inputs": [
        {
          "internalType": "address",
          "name": "",
          "type": "address"
        }
      ],
      "name": "compSupplyState",
      "outputs": [
        {
          "internalType": "uint216",
          "name": "index",
          "type": "uint216"
        },
        {
          "internalType": "uint40",
          "name": "block",
          "type": "uint40"
        }
      ],
      "payable": false,
      "stateMutability": "view",
      "type": "function"
    },
    {
      "constant": true,
      "inputs": [],
      "name": "comptrollerImplementation",
      "outputs": [
        {
          "internalType": "address",
          "name": "",
          "type": "address"
        }
      ],
      "payable": false,
      "stateMutability": "view",
      "type": "function"
    },
    {
      "constant": false,
      "inputs": [
        {
          "internalType": "address[]",
          "name": "cTokens",
          "type": "address[]"
        }
      ],
      "name": "enterMarkets",
      "outputs": [
        {
          "internalType": "uint256[]",
          "name": "",
          "type": "uint256[]"
        }
      ],
      "payable": false,
      "stateMutability": "nonpayable",
      "type": "function"
    },
    {
      "constant": false,
      "inputs": [
        {
          "internalType": "address",
          "name": "cTokenAddress",
          "type": "address"
        }
      ],
      "name": "exitMarket",
      "outputs": [
        {
          "internalType": "uint256",
          "name": "",
          "type": "uint256"
        }
      ],
      "payable": false,
      "stateMutability": "nonpayable",
      "type": "function"
    },
    {
      "constant": true,
      "inputs": [
        {
          "internalType": "address",
          "name": "account",
          "type": "address"
        }
      ],
      "name": "getAccountLiquidity",
      "outputs": [
        {
          "internalType": "uint256",
          "name": "",
          "type": "uint256"
        },
        {
          "internalType": "uint256",
          "name": "",
          "type": "uint256"
        },
        {
          "internalType": "uint256",
          "name": "",
          "type": "uint256"
        }
      ],
      "payable": false,
      "stateMutability": "view",
      "type": "function"
    },
    {
      "constant": true,
      "inputs": [],
      "name": "getAllMarkets",
      "outputs": [
        {
          "internalType": "contract CToken[]",
          "name": "",
          "type": "address[]"
        }
      ],
      "payable": false,
      "stateMutability": "view",
      "type": "function"
    },
    {
      "constant": true,
      "inputs": [
        {
          "internalType": "address",
          "name": "account",
          "type": "address"
        }
      ],
      "name": "getAssetsIn",
      "outputs": [
        {
          "internalType": "contract CToken[]",
          "name": "",
          "type": "address[]"
        }
      ],
      "payable": false,
      "stateMutability": "view",
      "type": "function"
    },
    {
      "constant": true,
      "inputs": [],
      "name": "getBlockNumber",
      "outputs": [
        {
          "internalType": "uint256",
          "name": "",
          "type": "uint256"
        }
      ],
      "payable": false,
      "stateMutability": "view",
      "type": "function"
    },
    {
      "constant": true,
      "inputs": [],
      "name": "getCompAddress",
      "outputs": [
        {
          "internalType": "address",
          "name": "",
          "type": "address"
        }
      ],
      "payable": false,
      "stateMutability": "view",
      "type": "function"
    },
    {
      "constant": true,
      "inputs": [
        {
          "internalType": "address",
          "name": "account",
          "type": "address"
        },
        {
          "internalType": "address",
          "name": "cTokenModify",
          "type": "address"
        },
        {
          "internalType": "uint256",
          "name": "redeemTokens",
          "type": "uint256"
        },
        {
          "internalType": "uint256",
          "name": "borrowAmount",
          "type": "uint256"
        }
      ],
      "name": "getHypotheticalAccountLiquidity",
      "outputs": [
        {
          "internalType": "uint256",
          "name": "",
          "type": "uint256"
        },
        {
          "internalType": "uint256",
          "name": "",
          "type": "uint256"
        },
        {
          "internalType": "uint256",
          "name": "",
          "type": "uint256"
        }
      ],
      "payable": false,
      "stateMutability": "view",
      "type": "function"
    },
    {
      "constant": true,
      "inputs": [],
      "name": "isComptroller",
      "outputs": [
        {
          "internalType": "bool",
          "name": "",
          "type": "bool"
        }
      ],
      "payable": false,
      "stateMutability": "view",
      "type": "function"
    },
    {
      "constant": true,
      "inputs": [
        {
          "internalType": "contract CToken",
          "name": "cToken",
          "type": "address"
        }
      ],
      "name": "isDeprecated",
      "outputs": [
        {
          "internalType": "bool",
          "name": "",
          "type": "bool"
        }
      ],
      "payable": false,
      "stateMutability": "view",
      "type": "function"
    },
    {
      "constant": true,
      "inputs": [
        {
          "internalType": "address",
          "name": "",
          "type": "address"
        }
      ],
      "name": "lastContributorBlock",
      "outputs": [
        {
          "internalType": "uint256",
          "name": "",
          "type": "uint256"
        }
      ],
      "payable": false,
      "stateMutability": "view",
      "type": "function"
    },
    {
      "constant": false,
      "inputs": [
        {
          "internalType": "address",
          "name": "cTokenBorrowed",
          "type": "address"
        },
        {
          "internalType": "address",
          "name": "cTokenCollateral",
          "type": "address"
        },
        {
          "internalType": "address",
          "name": "liquidator",
          "type": "address"
        },
        {
          "internalType": "address",
          "name": "borrower",
          "type": "address"
        },
        {
          "internalType": "uint256",
          "name": "repayAmount",
          "type": "uint256"
        }
      ],
      "name": "liquidateBorrowAllowed",
      "outputs": [
        {
          "internalType": "uint256",
          "name": "",
          "type": "uint256"
        }
      ],
      "payable": false,
      "stateMutability": "nonpayable",
      "type": "function"
    },
    {
      "constant": false,
      "inputs": [
        {
          "internalType": "address",
          "name": "cTokenBorrowed",
          "type": "address"
        },
        {
          "internalType": "address",
          "name": "cTokenCollateral",
          "type": "address"
        },
        {
          "internalType": "address",
          "name": "liquidator",
          "type": "address"
        },
        {
          "internalType": "address",
          "name": "borrower",
          "type": "address"
        },
        {
          "internalType": "uint256",
          "name": "actualRepayAmount",
          "type": "uint256"
        },
        {
          "internalType": "uint256",
          "name": "seizeTokens",
          "type": "uint256"
        }
      ],
      "name": "liquidateBorrowVerify",
      "outputs": [],
      "payable": false,
      "stateMutability": "nonpayable",
      "type": "function"
    },
    {
      "constant": true,
      "inputs": [
        {
          "internalType": "address",
          "name": "cTokenBorrowed",
          "type": "address"
        },
        {
          "internalType": "address",
          "name": "cTokenCollateral",
          "type": "address"
        },
        {
          "internalType": "uint256",
          "name": "actualRepayAmount",
          "type": "uint256"
        }
      ],
      "name": "liquidateCalculateSeizeTokens",
      "outputs": [
        {
          "internalType": "uint256",
          "name": "",
          "type": "uint256"
        },
        {
          "internalType": "uint256",
          "name": "",
          "type": "uint256"
        }
      ],
      "payable": false,
      "stateMutability": "view",
      "type": "function"
    },
    {
      "constant": true,
      "inputs": [],
      "name": "liquidationIncentiveMantissa",
      "outputs": [
        {
          "internalType": "uint256",
          "name": "",
          "type": "uint256"
        }
      ],
      "payable": false,
      "stateMutability": "view",
      "type": "function"
    },
    {
      "constant": true,
      "inputs": [
        {
          "internalType": "address",
          "name": "",
          "type": "address"
        }
      ],
      "name": "markets",
      "outputs": [
        {
          "internalType": "bool",
          "name": "isListed",
          "type": "bool"
        },
        {
          "internalType": "uint256",
          "name": "collateralFactorMantissa",
          "type": "uint256"
        },
        {
          "internalType": "bool",
          "name": "isComped",
          "type": "bool"
        }
      ],
      "payable": false,
      "stateMutability": "view",
      "type": "function"
    },
    {
      "constant": true,
      "inputs": [],
      "name": "maxAssets",
      "outputs": [
        {
          "internalType": "uint256",
          "name": "",
          "type": "uint256"
        }
      ],
      "payable": false,
      "stateMutability": "view",
      "type": "function"
    },
    {
      "constant": false,
      "inputs": [
        {
          "internalType": "address",
          "name": "cToken",
          "type": "address"
        },
        {
          "internalType": "address",
          "name": "minter",
          "type": "address"
        },
        {
          "internalType": "uint256",
          "name": "mintAmount",
          "type": "uint256"
        }
      ],
      "name": "mintAllowed",
      "outputs": [
        {
          "internalType": "uint256",
          "name": "",
          "type": "uint256"
        }
      ],
      "payable": false,
      "stateMutability": "nonpayable",
      "type": "function"
    },
    {
      "constant": true,
      "inputs": [
        {
          "internalType": "address",
          "name": "",
          "type": "address"
        }
      ],
      "name": "mintGuardianPaused",
      "outputs": [
        {
          "internalType": "bool",
          "name": "",
          "type": "bool"
        }
      ],
      "payable": false,
      "stateMutability": "view",
      "type": "function"
    },
    {
      "constant": false,
      "inputs": [
        {
          "internalType": "address",
          "name": "cToken",
          "type": "address"
        },
        {
          "internalType": "address",
          "name": "minter",
          "type": "address"
        },
        {
          "internalType": "uint256",
          "name": "actualMintAmount",
          "type": "uint256"
        },
        {
          "internalType": "uint256",
          "name": "mintTokens",
          "type": "uint256"
        }
      ],
      "name": "mintVerify",
      "outputs": [],
      "payable": false,
      "stateMutability": "nonpayable",
      "type": "function"
    },
    {
      "constant": true,
      "inputs": [],
      "name": "oracle",
      "outputs": [
        {
          "internalType": "contract PriceOracle",
          "name": "",
          "type": "address"
        }
      ],
      "payable": false,
      "stateMutability": "view",
      "type": "function"
    },
    {
      "constant": true,
      "inputs": [],
      "name": "pauseGuardian",
      "outputs": [
        {
          "internalType": "address",
          "name": "",
          "type": "address"
        }
      ],
      "payable": false,
      "stateMutability": "view",
      "type": "function"
    },
    {
      "constant": true,
      "inputs": [],
      "name": "pendingAdmin",
      "outputs": [
        {
          "internalType": "address",
          "name": "",
          "type": "address"
        }
      ],
      "payable": false,
      "stateMutability": "view",
      "type": "function"
    },
    {
      "constant": true,
      "inputs": [],
      "name": "pendingComptrollerImplementation",
      "outputs": [
        {
          "internalType": "address",
          "name": "",
          "type": "address"
        }
      ],
      "payable": false,
      "stateMutability": "view",
      "type": "function"
    },
    {
      "constant": false,
      "inputs": [
        {
          "internalType": "address",
          "name": "cToken",
          "type": "address"
        },
        {
          "internalType": "address",
          "name": "redeemer",
          "type": "address"
        },
        {
          "internalType": "uint256",
          "name": "redeemTokens",
          "type": "uint256"
        }
      ],
      "name": "redeemAllowed",
      "outputs": [
        {
          "internalType": "uint256",
          "name": "",
          "type": "uint256"
        }
      ],
      "payable": false,
      "stateMutability": "nonpayable",
      "type": "function"
    },
    {
      "constant": false,
      "inputs": [
        {
          "internalType": "address",
          "name": "cToken",
          "type": "address"
        },
        {
          "internalType": "address",
          "name": "redeemer",
          "type": "address"
        },
        {
          "internalType": "uint256",
          "name": "redeemAmount",
          "type": "uint256"
        },
        {
          "internalType": "uint256",
          "name": "redeemTokens",
          "type": "uint256"
        }
      ],
      "name": "redeemVerify",
      "outputs": [],
      "payable": false,
      "stateMutability": "nonpayable",
      "type": "function"
    },
    {
      "constant": false,
      "inputs": [
        {
          "internalType": "address",
          "name": "cToken",
          "type": "address"
        },
        {
          "internalType": "address",
          "name": "payer",
          "type": "address"
        },
        {
          "internalType": "address",
          "name": "borrower",
          "type": "address"
        },
        {
          "internalType": "uint256",
          "name": "repayAmount",
          "type": "uint256"
        }
      ],
      "name": "repayBorrowAllowed",
      "outputs": [
        {
          "internalType": "uint256",
          "name": "",
          "type": "uint256"
        }
      ],
      "payable": false,
      "stateMutability": "nonpayable",
      "type": "function"
    },
    {
      "constant": false,
      "inputs": [
        {
          "internalType": "address",
          "name": "cToken",
          "type": "address"
        },
        {
          "internalType": "address",
          "name": "payer",
          "type": "address"
        },
        {
          "internalType": "address",
          "name": "borrower",
          "type": "address"
        },
        {
          "internalType": "uint256",
          "name": "actualRepayAmount",
          "type": "uint256"
        },
        {
          "internalType": "uint256",
          "name": "borrowerIndex",
          "type": "uint256"
        }
      ],
      "name": "repayBorrowVerify",
      "outputs": [],
      "payable": false,
      "stateMutability": "nonpayable",
      "type": "function"
    },
    {
      "constant": false,
      "inputs": [
        {
          "internalType": "address",
          "name": "cTokenCollateral",
          "type": "address"
        },
        {
          "internalType": "address",
          "name": "cTokenBorrowed",
          "type": "address"
        },
        {
          "internalType": "address",
          "name": "liquidator",
          "type": "address"
        },
        {
          "internalType": "address",
          "name": "borrower",
          "type": "address"
        },
        {
          "internalType": "uint256",
          "name": "seizeTokens",
          "type": "uint256"
        }
      ],
      "name": "seizeAllowed",
      "outputs": [
        {
          "internalType": "uint256",
          "name": "",
          "type": "uint256"
        }
      ],
      "payable": false,
      "stateMutability": "nonpayable",
      "type": "function"
    },
    {
      "constant": true,
      "inputs": [],
      "name": "seizeGuardianPaused",
      "outputs": [
        {
          "internalType": "bool",
          "name": "",
          "type": "bool"
        }
      ],
      "payable": false,
      "stateMutability": "view",
      "type": "function"
    },
    {
      "constant": false,
      "inputs": [
        {
          "internalType": "address",
          "name": "cTokenCollateral",
          "type": "address"
        },
        {
          "internalType": "address",
          "name": "cTokenBorrowed",
          "type": "address"
        },
        {
          "internalType": "address",
          "name": "liquidator",
          "type": "address"
        },
        {
          "internalType": "address",
          "name": "borrower",
          "type": "address"
        },
        {
          "internalType": "uint256",
          "name": "seizeTokens",
          "type": "uint256"
        }
      ],
      "name": "seizeVerify",
      "outputs": [],
      "payable": false,
      "stateMutability": "nonpayable",
      "type": "function"
    },
    {
      "constant": false,
      "inputs": [
        {
          "internalType": "address",
          "name": "cToken",
          "type": "address"
        },
        {
          "internalType": "address",
          "name": "src",
          "type": "address"
        },
        {
          "internalType": "address",
          "name": "dst",
          "type": "address"
        },
        {
          "internalType": "uint256",
          "name": "transferTokens",
          "type": "uint256"
        }
      ],
      "name": "transferAllowed",
      "outputs": [
        {
          "internalType": "uint256",
          "name": "",
          "type": "uint256"
        }
      ],
      "payable": false,
      "stateMutability": "nonpayable",
      "type": "function"
    },
    {
      "constant": true,
      "inputs": [],
      "name": "transferGuardianPaused",
      "outputs": [
        {
          "internalType": "bool",
          "name": "",
          "type": "bool"
        }
      ],
      "payable": false,
      "stateMutability": "view",
      "type": "function"
    },
    {
      "constant": false,
      "inputs": [
        {
          "internalType": "address",
          "name": "cToken",
          "type": "address"
        },
        {
          "internalType": "address",
          "name": "src",
          "type": "address"
        },
        {
          "internalType": "address",
          "name": "dst",
          "type": "address"
        },
        {
          "internalType": "uint256",
          "name": "transferTokens",
          "type": "uint256"
        }
      ],
      "name": "transferVerify",
      "outputs": [],
      "payable": false,
      "stateMutability": "nonpayable",
      "type": "function"
    },
    {
      "constant": false,
      "inputs": [
        {
          "internalType": "address",
          "name": "contributor",
          "type": "address"
        }
      ],
      "name": "updateContributorRewards",
      "outputs": [],
      "payable": false,
      "stateMutability": "nonpayable",
      "type": "function"
    }
  ],
  "transactionHash": "0xf0153b17a5ed6029d95ecdb2d9ae194c3d8a8af26d701eaa248f4c8d7223b5a4",
  "args": [],
  "solcInputHash": "3a81636df9bb88be9862017b69bde82d",
  "bytecode": "0x6080604052601980546001600160a01b03191673c00e94cb662c3520282e6f5717214004a7f2688817905534801561003657600080fd5b50600080546001600160a01b0319163317905561581f80620000596000396000f3fe608060405234801561001057600080fd5b50600436106104695760003560e01c8063731f0c2b1161024c578063b0772d0b11610146578063da3d454c116100c3578063e875544611610087578063e875544614611263578063e9af02921461126b578063eabe7d9114611291578063ede4edd0146112c7578063f851a440146112ed57610469565b8063da3d454c146111c5578063dce15449146111fb578063dcfbc0c714611227578063e4028eee1461122f578063e6653f3d1461125b57610469565b8063c29982381161010a578063c29982381461103b578063c488847b146110dc578063ca0af0431461112b578063cc7ebdc414611159578063d02f73511461117f57610469565b8063b0772d0b14610f9b578063b21be7fd14610fa3578063bb82aa5e14610fd1578063bdcdc25814610fd9578063bea6b8b81461101557610469565b8063929fe9a1116101d4578063a76b3fda11610198578063a76b3fda14610ecb578063a7f0e23114610ef1578063aa90075414610f15578063abfceffc14610f1d578063ac0b0bb714610f9357610469565b8063929fe9a114610e4157806394543c1514610e6f57806394b2294b14610e95578063986ab83814610e9d5780639d1b5a0a14610ec357610469565b80638435be461161021b5780638435be4614610d8657806387f7630314610dac5780638c57804e14610db45780638e8f294b14610dda5780638ebf636414610e2257610469565b8063731f0c2b14610d2a578063741b252514610d505780637d3ab61a14610d765780637dc0d1d014610d7e57610469565b806347ef3b3b116103685780635c778605116102e55780636810dfa6116102a95780636810dfa614610b075780636a56947e14610c335780636b79c38d14610c6f5780636d154ea514610cbe5780636d35bf9114610ce457610469565b80635c778605146109815780635ec88c79146109b75780635f5af1aa146109dd5780635fc7e71e14610a03578063607ef6c114610a4957610469565b80634fd42e171161032c5780634fd42e17146108b957806351dff989146108d657806352d84d1e1461091257806355ee1fe11461092f578063598ee1cb1461095557610469565b806347ef3b3b146107af5780634a584432146107fb5780634ada90af146108215780634e79238f146108295780634ef4c3e11461088357610469565b806326782247116103f65780633bcf7ec1116103ba5780633bcf7ec1146107095780633c94786f1461073757806341c728b91461073f57806342cbb15c1461077b578063434caf251461078357610469565b8063267822471461067357806327efe3cb1461067b5780632d70db78146106a7578063317b0b77146106c6578063391957d7146106e357610469565b80631d7b33d71161043d5780631d7b33d7146105915780631ededc91146105c957806321af45691461060b57806324008a621461062f57806324a3d6221461066b57610469565b80627e3dd21461046e57806318c882a51461048a5780631c3db2e0146104b85780631d504dc61461056b575b600080fd5b6104766112f5565b604080519115158252519081900360200190f35b610476600480360360408110156104a057600080fd5b506001600160a01b03813516906020013515156112fa565b610569600480360360408110156104ce57600080fd5b6001600160a01b038235169190810190604081016020820135600160201b8111156104f857600080fd5b82018360208201111561050a57600080fd5b803590602001918460208302840111600160201b8311171561052b57600080fd5b91908080602002602001604051908101604052809392919081815260200183836020028082843760009201919091525092955061149a945050505050565b005b6105696004803603602081101561058157600080fd5b50356001600160a01b03166114fc565b6105b7600480360360208110156105a757600080fd5b50356001600160a01b031661165b565b60408051918252519081900360200190f35b610569600480360360a08110156105df57600080fd5b506001600160a01b0381358116916020810135821691604082013516906060810135906080013561166d565b610613611674565b604080516001600160a01b039092168252519081900360200190f35b6105b76004803603608081101561064557600080fd5b506001600160a01b03813581169160208101358216916040820135169060600135611683565b61061361174a565b610613611759565b6105696004803603604081101561069157600080fd5b506001600160a01b038135169060200135611768565b610476600480360360208110156106bd57600080fd5b5035151561186b565b6105b7600480360360208110156106dc57600080fd5b50356119a5565b610569600480360360208110156106f957600080fd5b50356001600160a01b0316611a52565b6104766004803603604081101561071f57600080fd5b506001600160a01b0381351690602001351515611afe565b610476611c99565b6105696004803603608081101561075557600080fd5b506001600160a01b03813581169160208101359091169060408101359060600135611ca9565b6105b7611caf565b6105696004803603604081101561079957600080fd5b506001600160a01b038135169060200135611cb4565b610569600480360360c08110156107c557600080fd5b506001600160a01b0381358116916020810135821691604082013581169160608101359091169060808101359060a00135611d1b565b6105b76004803603602081101561081157600080fd5b50356001600160a01b0316611d23565b6105b7611d35565b6108656004803603608081101561083f57600080fd5b506001600160a01b03813581169160208101359091169060408101359060600135611d3b565b60408051938452602084019290925282820152519081900360600190f35b6105b76004803603606081101561089957600080fd5b506001600160a01b03813581169160208101359091169060400135611d75565b6105b7600480360360208110156108cf57600080fd5b5035611e1b565b610569600480360360808110156108ec57600080fd5b506001600160a01b03813581169160208101359091169060408101359060600135611e8b565b6106136004803603602081101561092857600080fd5b5035611edf565b6105b76004803603602081101561094557600080fd5b50356001600160a01b0316611f06565b6105696004803603604081101561096b57600080fd5b506001600160a01b038135169060200135611f8b565b6105696004803603606081101561099757600080fd5b506001600160a01b03813581169160208101359091169060400135612086565b610865600480360360208110156109cd57600080fd5b50356001600160a01b031661208b565b6105b7600480360360208110156109f357600080fd5b50356001600160a01b03166120c0565b6105b7600480360360a0811015610a1957600080fd5b506001600160a01b0381358116916020810135821691604082013581169160608101359091169060800135612144565b61056960048036036040811015610a5f57600080fd5b810190602081018135600160201b811115610a7957600080fd5b820183602082011115610a8b57600080fd5b803590602001918460208302840111600160201b83111715610aac57600080fd5b919390929091602081019035600160201b811115610ac957600080fd5b820183602082011115610adb57600080fd5b803590602001918460208302840111600160201b83111715610afc57600080fd5b5090925090506122fb565b61056960048036036080811015610b1d57600080fd5b810190602081018135600160201b811115610b3757600080fd5b820183602082011115610b4957600080fd5b803590602001918460208302840111600160201b83111715610b6a57600080fd5b9190808060200260200160405190810160405280939291908181526020018383602002808284376000920191909152509295949360208101935035915050600160201b811115610bb957600080fd5b820183602082011115610bcb57600080fd5b803590602001918460208302840111600160201b83111715610bec57600080fd5b91908080602002602001604051908101604052809392919081815260200183836020028082843760009201919091525092955050505080351515915060200135151561248b565b61056960048036036080811015610c4957600080fd5b506001600160a01b03813581169160208101358216916040820135169060600135611ca9565b610c9560048036036020811015610c8557600080fd5b50356001600160a01b03166126ce565b604080516001600160d81b03909316835264ffffffffff90911660208301528051918290030190f35b61047660048036036020811015610cd457600080fd5b50356001600160a01b03166126f9565b610569600480360360a0811015610cfa57600080fd5b506001600160a01b038135811691602081013582169160408201358116916060810135909116906080013561166d565b61047660048036036020811015610d4057600080fd5b50356001600160a01b031661270e565b61056960048036036020811015610d6657600080fd5b50356001600160a01b0316612723565b6106136127e6565b6106136127f5565b61056960048036036020811015610d9c57600080fd5b50356001600160a01b0316612804565b61047661287f565b610c9560048036036020811015610dca57600080fd5b50356001600160a01b031661288f565b610e0060048036036020811015610df057600080fd5b50356001600160a01b03166128ba565b6040805193151584526020840192909252151582820152519081900360600190f35b61047660048036036020811015610e3857600080fd5b503515156128e0565b61047660048036036040811015610e5757600080fd5b506001600160a01b0381358116916020013516612a19565b61047660048036036020811015610e8557600080fd5b50356001600160a01b0316612a4c565b6105b7612b0e565b6105b760048036036020811015610eb357600080fd5b50356001600160a01b0316612b14565b610613612b26565b6105b760048036036020811015610ee157600080fd5b50356001600160a01b0316612b35565b610ef9612c91565b604080516001600160d81b039092168252519081900360200190f35b6105b7612ca4565b610f4360048036036020811015610f3357600080fd5b50356001600160a01b0316612caa565b60408051602080825283518183015283519192839290830191858101910280838360005b83811015610f7f578181015183820152602001610f67565b505050509050019250505060405180910390f35b610476612d33565b610f43612d43565b6105b760048036036040811015610fb957600080fd5b506001600160a01b0381358116916020013516612da5565b610613612dc2565b6105b760048036036080811015610fef57600080fd5b506001600160a01b03813581169160208101358216916040820135169060600135612dd1565b6105b76004803603602081101561102b57600080fd5b50356001600160a01b0316612e61565b610f436004803603602081101561105157600080fd5b810190602081018135600160201b81111561106b57600080fd5b82018360208201111561107d57600080fd5b803590602001918460208302840111600160201b8311171561109e57600080fd5b919080806020026020016040519081016040528093929190818152602001838360200280828437600092019190915250929550612e73945050505050565b611112600480360360608110156110f257600080fd5b506001600160a01b03813581169160208101359091169060400135612f0a565b6040805192835260208301919091528051918290030190f35b6105b76004803603604081101561114157600080fd5b506001600160a01b0381358116916020013516613132565b6105b76004803603602081101561116f57600080fd5b50356001600160a01b031661314f565b6105b7600480360360a081101561119557600080fd5b506001600160a01b0381358116916020810135821691604082013581169160608101359091169060800135613161565b6105b7600480360360608110156111db57600080fd5b506001600160a01b03813581169160208101359091169060400135613315565b6106136004803603604081101561121157600080fd5b506001600160a01b0381351690602001356136ef565b610613613724565b6105b76004803603604081101561124557600080fd5b506001600160a01b038135169060200135613733565b6104766138e3565b6105b76138f3565b6105696004803603602081101561128157600080fd5b50356001600160a01b03166138f9565b6105b7600480360360608110156112a757600080fd5b506001600160a01b0381358116916020810135909116906040013561395d565b6105b7600480360360208110156112dd57600080fd5b50356001600160a01b0316613998565b610613613cab565b600181565b6001600160a01b03821660009081526009602052604081205460ff166113515760405162461bcd60e51b81526004018080602001828103825260288152602001806156ad6028913960400191505060405180910390fd5b600a546001600160a01b031633148061137457506000546001600160a01b031633145b6113af5760405162461bcd60e51b81526004018080602001828103825260278152602001806156fd6027913960400191505060405180910390fd5b6000546001600160a01b03163314806113ca57506001821515145b611414576040805162461bcd60e51b81526020600482015260166024820152756f6e6c792061646d696e2063616e20756e706175736560501b604482015290519081900360640190fd5b6001600160a01b0383166000818152600c6020908152604091829020805486151560ff199091168117909155825193845283830152606090830181905260069083015265426f72726f7760d01b6080830152517f71aec636243f9709bb0007ae15e9afb8150ab01716d75fd7573be5cc096e03b09181900360a00190a150805b92915050565b6040805160018082528183019092526060916020808301908038833901905050905082816000815181106114ca57fe5b60200260200101906001600160a01b031690816001600160a01b0316815250506114f7818360018061248b565b505050565b806001600160a01b031663f851a4406040518163ffffffff1660e01b815260040160206040518083038186803b15801561153557600080fd5b505afa158015611549573d6000803e3d6000fd5b505050506040513d602081101561155f57600080fd5b50516001600160a01b031633146115a75760405162461bcd60e51b81526004018080602001828103825260278152602001806157c46027913960400191505060405180910390fd5b806001600160a01b031663c1e803346040518163ffffffff1660e01b8152600401602060405180830381600087803b1580156115e257600080fd5b505af11580156115f6573d6000803e3d6000fd5b505050506040513d602081101561160c57600080fd5b505115611658576040805162461bcd60e51b815260206004820152601560248201527418da185b99d9481b9bdd08185d5d1a1bdc9a5e9959605a1b604482015290519081900360640190fd5b50565b600f6020526000908152604090205481565b5050505050565b6015546001600160a01b031681565b6001600160a01b03841660009081526009602052604081205460ff166116ab57506009611742565b6116b36155ed565b6040518060200160405280876001600160a01b031663aa5af0fd6040518163ffffffff1660e01b815260040160206040518083038186803b1580156116f757600080fd5b505afa15801561170b573d6000803e3d6000fd5b505050506040513d602081101561172157600080fd5b5051905290506117318682613cba565b61173c868583613f45565b60009150505b949350505050565b600a546001600160a01b031681565b6001546001600160a01b031681565b6117706140dc565b6117c1576040805162461bcd60e51b815260206004820152601960248201527f6f6e6c792061646d696e2063616e206772616e7420636f6d7000000000000000604482015290519081900360640190fd5b60006117cd8383614105565b90508015611822576040805162461bcd60e51b815260206004820152601b60248201527f696e73756666696369656e7420636f6d7020666f72206772616e740000000000604482015290519081900360640190fd5b604080516001600160a01b03851681526020810184905281517f98b2f82a3a07f223a0be64b3d0f47711c64dccd1feafb94aa28156b38cd9695c929181900390910190a1505050565b600a546000906001600160a01b031633148061189157506000546001600160a01b031633145b6118cc5760405162461bcd60e51b81526004018080602001828103825260278152602001806156fd6027913960400191505060405180910390fd5b6000546001600160a01b03163314806118e757506001821515145b611931576040805162461bcd60e51b81526020600482015260166024820152756f6e6c792061646d696e2063616e20756e706175736560501b604482015290519081900360640190fd5b600a8054831515600160b81b810260ff60b81b1990921691909117909155604080516020810192909252808252600582820152645365697a6560d81b6060830152517fef159d9a32b2472e32b098f954f3ce62d232939f1c207070b584df1814de2de09181900360800190a150805b919050565b600080546001600160a01b03163314611a05576040805162461bcd60e51b815260206004820152601f60248201527f6f6e6c792061646d696e2063616e2073657420636c6f736520666163746f7200604482015290519081900360640190fd5b6005805490839055604080518281526020810185905281517f3b9670cf975d26958e754b57098eaa2ac914d8d2a31b83257997b9f346110fd9929181900390910190a160005b9392505050565b6000546001600160a01b03163314611a9b5760405162461bcd60e51b81526004018080602001828103825260268152602001806157246026913960400191505060405180910390fd5b601580546001600160a01b038381166001600160a01b0319831681179093556040805191909216808252602082019390935281517feda98690e518e9a05f8ec6837663e188211b2da8f4906648b323f2c1d4434e29929181900390910190a15050565b6001600160a01b03821660009081526009602052604081205460ff16611b555760405162461bcd60e51b81526004018080602001828103825260288152602001806156ad6028913960400191505060405180910390fd5b600a546001600160a01b0316331480611b7857506000546001600160a01b031633145b611bb35760405162461bcd60e51b81526004018080602001828103825260278152602001806156fd6027913960400191505060405180910390fd5b6000546001600160a01b0316331480611bce57506001821515145b611c18576040805162461bcd60e51b81526020600482015260166024820152756f6e6c792061646d696e2063616e20756e706175736560501b604482015290519081900360640190fd5b6001600160a01b0383166000818152600b6020908152604091829020805486151560ff199091168117909155825193845283830152606090830181905260049083015263135a5b9d60e21b6080830152517f71aec636243f9709bb0007ae15e9afb8150ab01716d75fd7573be5cc096e03b09181900360a00190a150919050565b600a54600160a01b900460ff1681565b50505050565b425b90565b611cbc6140dc565b611d0d576040805162461bcd60e51b815260206004820152601d60248201527f6f6e6c792061646d696e2063616e2073657420636f6d70207370656564000000604482015290519081900360640190fd5b611d17828261423f565b5050565b505050505050565b60166020526000908152604090205481565b60065481565b600080600080600080611d508a8a8a8a6145c3565b925092509250826011811115611d6257fe5b95509093509150505b9450945094915050565b6001600160a01b0383166000908152600b602052604081205460ff1615611dd4576040805162461bcd60e51b815260206004820152600e60248201526d1b5a5b9d081a5cc81c185d5cd95960921b604482015290519081900360640190fd5b6001600160a01b03841660009081526009602052604090205460ff16611dfe5760095b9050611a4b565b611e07846148fb565b611e118484614b7c565b6000949350505050565b600080546001600160a01b03163314611e4157611e3a6001600b614d5b565b90506119a0565b6006805490839055604080518281526020810185905281517faeba5a6c40a8ac138134bff1aaa65debf25971188a58804bad717f82f0ec1316929181900390910190a16000611a4b565b80158015611e995750600082115b15611ca9576040805162461bcd60e51b815260206004820152601160248201527072656465656d546f6b656e73207a65726f60781b604482015290519081900360640190fd5b600d8181548110611eec57fe5b6000918252602090912001546001600160a01b0316905081565b600080546001600160a01b03163314611f2557611e3a60016010614d5b565b600480546001600160a01b038481166001600160a01b0319831681179093556040805191909216808252602082019390935281517fd52b2b9b7e9ee655fcb95d2e5b9e0c9f69e7ef2b8e9d2d0ea78402d576d22e22929181900390910190a16000611a4b565b611f936140dc565b611fe4576040805162461bcd60e51b815260206004820152601d60248201527f6f6e6c792061646d696e2063616e2073657420636f6d70207370656564000000604482015290519081900360640190fd5b611fed82612723565b80612010576001600160a01b038216600090815260186020526040812055612032565b612018611caf565b6001600160a01b0383166000908152601860205260409020555b6001600160a01b038216600081815260176020908152604091829020849055815184815291517f386537fa92edc3319af95f1f904dcf1900021e4f3f4e08169a577a09076e66b39281900390910190a25050565b6114f7565b6000806000806000806120a28760008060006145c3565b9250925092508260118111156120b457fe5b97919650945092505050565b600080546001600160a01b031633146120df57611e3a60016013614d5b565b600a80546001600160a01b038481166001600160a01b0319831617928390556040805192821680845293909116602083015280517f0613b6ee6a04f0d09f390e4d9318894b9f6ac7fd83897cd8d18896ba579c401e9281900390910190a16000611a4b565b6001600160a01b03851660009081526009602052604081205460ff16158061218557506001600160a01b03851660009081526009602052604090205460ff16155b156121945760095b90506122f2565b6000866001600160a01b03166395dd9193856040518263ffffffff1660e01b815260040180826001600160a01b03166001600160a01b0316815260200191505060206040518083038186803b1580156121ec57600080fd5b505afa158015612200573d6000803e3d6000fd5b505050506040513d602081101561221657600080fd5b5051905061222387612a4c565b1561226c57828110156122675760405162461bcd60e51b81526004018080602001828103825260288152602001806156d56028913960400191505060405180910390fd5b6122ec565b60008061227886614dc1565b9193509091506000905082601181111561228e57fe5b146122a95781601181111561229f57fe5b93505050506122f2565b806122b557600361229f565b60006122d1604051806020016040528060055481525085614de1565b9050808611156122e85760119450505050506122f2565b5050505b60009150505b95945050505050565b6000546001600160a01b031633148061231e57506015546001600160a01b031633145b6123595760405162461bcd60e51b815260040180806020018281038252603581526020018061576a6035913960400191505060405180910390fd5b8281811580159061236957508082145b6123aa576040805162461bcd60e51b815260206004820152600d60248201526c1a5b9d985b1a59081a5b9c1d5d609a1b604482015290519081900360640190fd5b60005b82811015612482578484828181106123c157fe5b90506020020135601660008989858181106123d857fe5b905060200201356001600160a01b03166001600160a01b03166001600160a01b031681526020019081526020016000208190555086868281811061241857fe5b905060200201356001600160a01b03166001600160a01b03167f6f1951b2aad10f3fc81b86d91105b413a5b3f847a34bbc5ce1904201b14438f686868481811061245e57fe5b905060200201356040518082815260200191505060405180910390a26001016123ad565b50505050505050565b60005b83518110156126305760008482815181106124a557fe5b6020908102919091018101516001600160a01b0381166000908152600990925260409091205490915060ff1661251a576040805162461bcd60e51b81526020600482015260156024820152741b585c9ad95d081b5d5cdd081899481b1a5cdd1959605a1b604482015290519081900360640190fd5b600184151514156125e05761252d6155ed565b6040518060200160405280836001600160a01b031663aa5af0fd6040518163ffffffff1660e01b815260040160206040518083038186803b15801561257157600080fd5b505afa158015612585573d6000803e3d6000fd5b505050506040513d602081101561259b57600080fd5b5051905290506125ab8282613cba565b60005b87518110156125dd576125d5838983815181106125c757fe5b602002602001015184613f45565b6001016125ae565b50505b60018315151415612627576125f4816148fb565b60005b86518110156126255761261d8288838151811061261057fe5b6020026020010151614b7c565b6001016125f7565b505b5060010161248e565b5060005b845181101561166d5761269285828151811061264c57fe5b60200260200101516014600088858151811061266457fe5b60200260200101516001600160a01b03166001600160a01b0316815260200190815260200160002054614105565b601460008784815181106126a257fe5b6020908102919091018101516001600160a01b0316825281019190915260400160002055600101612634565b6010602052600090815260409020546001600160d81b03811690600160d81b900464ffffffffff1682565b600c6020526000908152604090205460ff1681565b600b6020526000908152604090205460ff1681565b6001600160a01b03811660009081526017602052604081205490612745611caf565b6001600160a01b0384166000908152601860205260408120549192509061276d908390614e00565b905060008111801561277f5750600083115b15611ca95760006127908285614e3a565b6001600160a01b038616600090815260146020526040812054919250906127b79083614e7c565b6001600160a01b0387166000908152601460209081526040808320939093556018905220849055505050505050565b6019546001600160a01b031681565b6004546001600160a01b031681565b61280c6140dc565b61285d576040805162461bcd60e51b815260206004820152601f60248201527f6f6e6c792061646d696e2063616e2073657420636f6d70206164647265737300604482015290519081900360640190fd5b601980546001600160a01b0319166001600160a01b0392909216919091179055565b600a54600160b01b900460ff1681565b6011602052600090815260409020546001600160d81b03811690600160d81b900464ffffffffff1682565b60096020526000908152604090208054600182015460039092015460ff91821692911683565b600a546000906001600160a01b031633148061290657506000546001600160a01b031633145b6129415760405162461bcd60e51b81526004018080602001828103825260278152602001806156fd6027913960400191505060405180910390fd5b6000546001600160a01b031633148061295c57506001821515145b6129a6576040805162461bcd60e51b81526020600482015260166024820152756f6e6c792061646d696e2063616e20756e706175736560501b604482015290519081900360640190fd5b600a8054831515600160b01b810260ff60b01b1990921691909117909155604080516020810192909252808252600882820152672a3930b739b332b960c11b6060830152517fef159d9a32b2472e32b098f954f3ce62d232939f1c207070b584df1814de2de09181900360800190a15090565b6001600160a01b038082166000908152600960209081526040808320938616835260029093019052205460ff1692915050565b6001600160a01b038116600090815260096020526040812060010154158015612a9257506001600160a01b0382166000908152600c602052604090205460ff1615156001145b80156114945750816001600160a01b031663173b99046040518163ffffffff1660e01b815260040160206040518083038186803b158015612ad257600080fd5b505afa158015612ae6573d6000803e3d6000fd5b505050506040513d6020811015612afc57600080fd5b5051670de0b6b3a76400001492915050565b60075481565b60176020526000908152604090205481565b6019546001600160a01b031690565b600080546001600160a01b03163314612b5457611e3a60016012614d5b565b6001600160a01b03821660009081526009602052604090205460ff1615612b8157611e3a600a6011614d5b565b816001600160a01b031663fe9c44ae6040518163ffffffff1660e01b815260040160206040518083038186803b158015612bba57600080fd5b505afa158015612bce573d6000803e3d6000fd5b505050506040513d6020811015612be457600080fd5b5050604080516060810182526001808252600060208381018281528486018381526001600160a01b03891684526009909252949091209251835490151560ff19918216178455935191830191909155516003909101805491151591909216179055612c4e82614eb2565b604080516001600160a01b038416815290517fcf583bb0c569eb967f806b11601c4cb93c10310485c67add5f8362c2f212321f9181900360200190a16000611494565b6ec097ce7bc90715b34b9f100000000081565b600e5481565b60608060086000846001600160a01b03166001600160a01b03168152602001908152602001600020805480602002602001604051908101604052809291908181526020018280548015612d2657602002820191906000526020600020905b81546001600160a01b03168152600190910190602001808311612d08575b5093979650505050505050565b600a54600160b81b900460ff1681565b6060600d805480602002602001604051908101604052809291908181526020018280548015612d9b57602002820191906000526020600020905b81546001600160a01b03168152600190910190602001808311612d7d575b5050505050905090565b601260209081526000928352604080842090915290825290205481565b6002546001600160a01b031681565b600a54600090600160b01b900460ff1615612e28576040805162461bcd60e51b81526020600482015260126024820152711d1c985b9cd9995c881a5cc81c185d5cd95960721b604482015290519081900360640190fd5b6000612e35868685614f90565b90508015612e44579050611742565b612e4d866148fb565b612e578686614b7c565b61173c8685614b7c565b60186020526000908152604090205481565b6060600082519050606081604051908082528060200260200182016040528015612ea7578160200160208202803883390190505b50905060005b82811015612f02576000858281518110612ec357fe5b60200260200101519050612ed7813361503c565b6011811115612ee257fe5b838381518110612eee57fe5b602090810291909101015250600101612ead565b509392505050565b600480546040805163fc57d4df60e01b81526001600160a01b038781169482019490945290516000938493849391169163fc57d4df91602480820192602092909190829003018186803b158015612f6057600080fd5b505afa158015612f74573d6000803e3d6000fd5b505050506040513d6020811015612f8a57600080fd5b5051600480546040805163fc57d4df60e01b81526001600160a01b038a8116948201949094529051939450600093929091169163fc57d4df91602480820192602092909190829003018186803b158015612fe357600080fd5b505afa158015612ff7573d6000803e3d6000fd5b505050506040513d602081101561300d57600080fd5b5051905081158061301c575080155b1561303157600d93506000925061312a915050565b6000866001600160a01b031663182df0f56040518163ffffffff1660e01b815260040160206040518083038186803b15801561306c57600080fd5b505afa158015613080573d6000803e3d6000fd5b505050506040513d602081101561309657600080fd5b5051905060006130a46155ed565b6130ac6155ed565b6130b46155ed565b6130dc604051806020016040528060065481525060405180602001604052808a815250615132565b9250613104604051806020016040528088815250604051806020016040528088815250615132565b91506131108383615171565b905061311c818b614de1565b600099509750505050505050505b935093915050565b601360209081526000928352604080842090915290825290205481565b60146020526000908152604090205481565b600a54600090600160b81b900460ff16156131b5576040805162461bcd60e51b815260206004820152600f60248201526e1cd95a5e99481a5cc81c185d5cd959608a1b604482015290519081900360640190fd5b6001600160a01b03861660009081526009602052604090205460ff1615806131f657506001600160a01b03851660009081526009602052604090205460ff16155b1561320257600961218d565b846001600160a01b0316635fe3b5676040518163ffffffff1660e01b815260040160206040518083038186803b15801561323b57600080fd5b505afa15801561324f573d6000803e3d6000fd5b505050506040513d602081101561326557600080fd5b505160408051635fe3b56760e01b815290516001600160a01b0392831692891691635fe3b567916004808301926020929190829003018186803b1580156132ab57600080fd5b505afa1580156132bf573d6000803e3d6000fd5b505050506040513d60208110156132d557600080fd5b50516001600160a01b0316146132ec57600261218d565b6132f5866148fb565b6132ff8684614b7c565b6133098685614b7c565b60009695505050505050565b6001600160a01b0383166000908152600c602052604081205460ff1615613376576040805162461bcd60e51b815260206004820152601060248201526f189bdc9c9bddc81a5cc81c185d5cd95960821b604482015290519081900360640190fd5b6001600160a01b03841660009081526009602052604090205460ff1661339d576009611df7565b6001600160a01b038085166000908152600960209081526040808320938716835260029093019052205460ff1661348d57336001600160a01b03851614613423576040805162461bcd60e51b815260206004820152601560248201527439b2b73232b91036bab9ba1031329031aa37b5b2b760591b604482015290519081900360640190fd5b600061342f338561503c565b9050600081601181111561343f57fe5b146134585780601181111561345057fe5b915050611a4b565b6001600160a01b038086166000908152600960209081526040808320938816835260029093019052205460ff1661348b57fe5b505b600480546040805163fc57d4df60e01b81526001600160a01b03888116948201949094529051929091169163fc57d4df91602480820192602092909190829003018186803b1580156134de57600080fd5b505afa1580156134f2573d6000803e3d6000fd5b505050506040513d602081101561350857600080fd5b505161351557600d611df7565b6001600160a01b0384166000908152601660205260409020548015613602576000856001600160a01b03166347bd37186040518163ffffffff1660e01b815260040160206040518083038186803b15801561356f57600080fd5b505afa158015613583573d6000803e3d6000fd5b505050506040513d602081101561359957600080fd5b5051905060006135a98286614e7c565b90508281106135ff576040805162461bcd60e51b815260206004820152601960248201527f6d61726b657420626f72726f7720636170207265616368656400000000000000604482015290519081900360640190fd5b50505b60008061361286886000886145c3565b9193509091506000905082601181111561362857fe5b146136435781601181111561363957fe5b9350505050611a4b565b8015613650576004613639565b6136586155ed565b6040518060200160405280896001600160a01b031663aa5af0fd6040518163ffffffff1660e01b815260040160206040518083038186803b15801561369c57600080fd5b505afa1580156136b0573d6000803e3d6000fd5b505050506040513d60208110156136c657600080fd5b5051905290506136d68882613cba565b6136e1888883613f45565b600098975050505050505050565b6008602052816000526040600020818154811061370857fe5b6000918252602090912001546001600160a01b03169150829050565b6003546001600160a01b031681565b600080546001600160a01b031633146137595761375260016006614d5b565b9050611494565b6001600160a01b0383166000908152600960205260409020805460ff1661378e5761378660096007614d5b565b915050611494565b6137966155ed565b5060408051602081019091528381526137ad6155ed565b506040805160208101909152670c7d713b49da000081526137ce81836151ad565b156137e9576137df60066008614d5b565b9350505050611494565b84158015906138725750600480546040805163fc57d4df60e01b81526001600160a01b038a8116948201949094529051929091169163fc57d4df91602480820192602092909190829003018186803b15801561384457600080fd5b505afa158015613858573d6000803e3d6000fd5b505050506040513d602081101561386e57600080fd5b5051155b15613883576137df600d6009614d5b565b60018301805490869055604080516001600160a01b03891681526020810183905280820188905290517f70483e6592cd5182d45ac970e05bc62cdcc90e9d8ef2c2dbe686cf383bcd7fc59181900360600190a16000979650505050505050565b600a54600160a81b900460ff1681565b60055481565b61165881600d80548060200260200160405190810160405280929190818152602001828054801561395357602002820191906000526020600020905b81546001600160a01b03168152600190910190602001808311613935575b505050505061149a565b60008061396b858585614f90565b9050801561397a579050611a4b565b613983856148fb565b61398d8585614b7c565b600095945050505050565b6000808290506000806000836001600160a01b031663c37f68e2336040518263ffffffff1660e01b815260040180826001600160a01b03166001600160a01b0316815260200191505060806040518083038186803b1580156139f957600080fd5b505afa158015613a0d573d6000803e3d6000fd5b505050506040513d6080811015613a2357600080fd5b508051602082015160409092015190945090925090508215613a765760405162461bcd60e51b815260040180806020018281038252602581526020018061579f6025913960400191505060405180910390fd5b8015613a9357613a88600c6002614d5b565b9450505050506119a0565b6000613aa0873385614f90565b90508015613ac157613ab5600e6003836151b4565b955050505050506119a0565b6001600160a01b0385166000908152600960209081526040808320338452600281019092529091205460ff16613b0057600096505050505050506119a0565b3360009081526002820160209081526040808320805460ff191690556008825291829020805483518184028101840190945280845260609392830182828015613b7257602002820191906000526020600020905b81546001600160a01b03168152600190910190602001808311613b54575b5050835193945083925060009150505b82811015613bc757896001600160a01b0316848281518110613ba057fe5b60200260200101516001600160a01b03161415613bbf57809150613bc7565b600101613b82565b50818110613bd157fe5b336000908152600860205260409020805481906000198101908110613bf257fe5b9060005260206000200160009054906101000a90046001600160a01b0316818381548110613c1c57fe5b600091825260209091200180546001600160a01b0319166001600160a01b03929092169190911790558054613c55826000198301615600565b50604080516001600160a01b038c16815233602082015281517fe699a64c18b07ac5b7301aa273f36a2287239eb9501d81950672794afba29a0d929181900390910190a160009c9b505050505050505050505050565b6000546001600160a01b031681565b6001600160a01b0382166000908152601160209081526040808320600f9092528220549091613ce7611caf565b8354909150600090613d08908390600160d81b900464ffffffffff16614e00565b9050600081118015613d1a5750600083115b15613eea576000613d8f876001600160a01b03166347bd37186040518163ffffffff1660e01b815260040160206040518083038186803b158015613d5d57600080fd5b505afa158015613d71573d6000803e3d6000fd5b505050506040513d6020811015613d8757600080fd5b50518761521a565b90506000613d9d8386614e3a565b9050613da76155ed565b60008311613dc45760405180602001604052806000815250613dce565b613dce8284615238565b9050613dd86155ed565b604080516020810190915288546001600160d81b03168152613dfa908361526d565b90506040518060400160405280613e4a83600001516040518060400160405280601a81526020017f6e657720696e6465782065786365656473203231362062697473000000000000815250615292565b6001600160d81b03168152602001613e85886040518060400160405280601c815260200160008051602061574a83398151915281525061532c565b64ffffffffff9081169091526001600160a01b038c166000908152601160209081526040909120835181549490920151909216600160d81b026001600160d81b039182166001600160d81b0319909416939093171691909117905550611d1b92505050565b8015611d1b57613f1d826040518060400160405280601c815260200160008051602061574a83398151915281525061532c565b845464ffffffffff91909116600160d81b026001600160d81b03909116178455505050505050565b6001600160a01b0383166000908152601160205260409020613f656155ed565b50604080516020810190915281546001600160d81b03168152613f866155ed565b5060408051602080820183526001600160a01b0380891660009081526013835284812091891680825282845294812080548552865195909152915291909155805115611d1b57613fd46155ed565b613fde8383615383565b9050600061403b886001600160a01b03166395dd9193896040518263ffffffff1660e01b815260040180826001600160a01b03166001600160a01b0316815260200191505060206040518083038186803b158015613d5d57600080fd5b9050600061404982846153a8565b6001600160a01b038916600090815260146020526040812054919250906140709083614e7c565b6001600160a01b03808b166000818152601460209081526040918290208590558a5182518881529182015281519495509193928e16927f1fc3ecc087d8d2d15e23d0032af5a47059c3892d003d8e139fdcb6bb327c99a69281900390910190a350505050505050505050565b600080546001600160a01b031633148061410057506002546001600160a01b031633145b905090565b600080614110612b26565b604080516370a0823160e01b815230600482015290519192506000916001600160a01b038416916370a08231916024808301926020929190829003018186803b15801561415c57600080fd5b505afa158015614170573d6000803e3d6000fd5b505050506040513d602081101561418657600080fd5b5051905083158015906141995750808411155b1561423657816001600160a01b031663a9059cbb86866040518363ffffffff1660e01b815260040180836001600160a01b03166001600160a01b0316815260200182815260200192505050602060405180830381600087803b1580156141fe57600080fd5b505af1158015614212573d6000803e3d6000fd5b505050506040513d602081101561422857600080fd5b506000935061149492505050565b50919392505050565b6001600160a01b0382166000908152600f602052604090205480156142f3576142666155ed565b6040518060200160405280856001600160a01b031663aa5af0fd6040518163ffffffff1660e01b815260040160206040518083038186803b1580156142aa57600080fd5b505afa1580156142be573d6000803e3d6000fd5b505050506040513d60208110156142d457600080fd5b5051905290506142e3846148fb565b6142ed8482613cba565b50614567565b8115614567576001600160a01b0383166000908152600960205260409020805460ff16151560011461436c576040805162461bcd60e51b815260206004820152601960248201527f636f6d70206d61726b6574206973206e6f74206c697374656400000000000000604482015290519081900360640190fd5b6001600160a01b0384166000908152601060205260409020546001600160d81b03161580156143bf57506001600160a01b038416600090815260106020526040902054600160d81b900464ffffffffff16155b1561447d5760405180604001604052806ec097ce7bc90715b34b9f10000000006001600160d81b031681526020016144216143f8611caf565b6040518060400160405280601c815260200160008051602061574a83398151915281525061532c565b64ffffffffff9081169091526001600160a01b0386166000908152601060209081526040909120835181549490920151909216600160d81b026001600160d81b039182166001600160d81b031990941693909317169190911790555b6001600160a01b0384166000908152601160205260409020546001600160d81b03161580156144d057506001600160a01b038416600090815260116020526040902054600160d81b900464ffffffffff16155b156145655760405180604001604052806ec097ce7bc90715b34b9f10000000006001600160d81b031681526020016145096143f8611caf565b64ffffffffff9081169091526001600160a01b0386166000908152601160209081526040909120835181549490920151909216600160d81b026001600160d81b039182166001600160d81b031990941693909317169190911790555b505b8181146114f7576001600160a01b0383166000818152600f6020908152604091829020859055815185815291517f2ab93f65628379309f36cb125e90d7c902454a545c4f8b8cb0794af75c24b8079281900390910190a2505050565b60008060006145d0615624565b6001600160a01b0388166000908152600860209081526040808320805482518185028101850190935280835260609383018282801561463857602002820191906000526020600020905b81546001600160a01b0316815260019091019060200180831161461a575b50939450600093505050505b81518110156148bc57600082828151811061465b57fe5b60200260200101519050806001600160a01b031663c37f68e28d6040518263ffffffff1660e01b815260040180826001600160a01b03166001600160a01b0316815260200191505060806040518083038186803b1580156146bb57600080fd5b505afa1580156146cf573d6000803e3d6000fd5b505050506040513d60808110156146e557600080fd5b508051602082015160408084015160609485015160808b015293890193909352918701919091529350831561472a5750600f965060009550859450611d6b9350505050565b60408051602080820183526001600160a01b0380851660008181526009845285902060010154845260c08a01939093528351808301855260808a0151815260e08a015260048054855163fc57d4df60e01b815291820194909452935192169263fc57d4df9260248083019392829003018186803b1580156147aa57600080fd5b505afa1580156147be573d6000803e3d6000fd5b505050506040513d60208110156147d457600080fd5b505160a086018190526147f75750600d965060009550859450611d6b9350505050565b604080516020810190915260a0860151815261010086015260c085015160e08601516148319161482691615132565b866101000151615132565b61012086018190526040860151865161484b9291906153d7565b8552610100850151606086015160208701516148689291906153d7565b60208601526001600160a01b03818116908c1614156148b3576148958561012001518b87602001516153d7565b602086018190526101008601516148ad918b906153d7565b60208601525b50600101614644565b506020830151835111156148e25750506020810151905160009450039150829050611d6b565b5050805160209091015160009450849350039050611d6b565b6001600160a01b0381166000908152601060209081526040808320600f9092528220549091614928611caf565b8354909150600090614949908390600160d81b900464ffffffffff16614e00565b905060008111801561495b5750600083115b15614b22576000856001600160a01b03166318160ddd6040518163ffffffff1660e01b815260040160206040518083038186803b15801561499b57600080fd5b505afa1580156149af573d6000803e3d6000fd5b505050506040513d60208110156149c557600080fd5b5051905060006149d58386614e3a565b90506149df6155ed565b600083116149fc5760405180602001604052806000815250614a06565b614a068284615238565b9050614a106155ed565b604080516020810190915288546001600160d81b03168152614a32908361526d565b90506040518060400160405280614a8283600001516040518060400160405280601a81526020017f6e657720696e6465782065786365656473203231362062697473000000000000815250615292565b6001600160d81b03168152602001614abd886040518060400160405280601c815260200160008051602061574a83398151915281525061532c565b64ffffffffff9081169091526001600160a01b038b166000908152601060209081526040909120835181549490920151909216600160d81b026001600160d81b039182166001600160d81b031990941693909317169190911790555061166d92505050565b801561166d57614b55826040518060400160405280601c815260200160008051602061574a83398151915281525061532c565b845464ffffffffff91909116600160d81b026001600160d81b039091161784555050505050565b6001600160a01b0382166000908152601060205260409020614b9c6155ed565b50604080516020810190915281546001600160d81b03168152614bbd6155ed565b5060408051602080820183526001600160a01b03808816600090815260128352848120918816808252828452948120805485528651959091529152919091558051158015614c0b5750815115155b15614c23576ec097ce7bc90715b34b9f100000000081525b614c2b6155ed565b614c358383615383565b90506000866001600160a01b03166370a08231876040518263ffffffff1660e01b815260040180826001600160a01b03166001600160a01b0316815260200191505060206040518083038186803b158015614c8f57600080fd5b505afa158015614ca3573d6000803e3d6000fd5b505050506040513d6020811015614cb957600080fd5b505190506000614cc982846153a8565b6001600160a01b03881660009081526014602052604081205491925090614cf09083614e7c565b6001600160a01b03808a166000818152601460209081526040918290208590558a5182518881529182015281519495509193928d16927f2caecd17d02f56fa897705dcc740da2d237c373f70686f4e0d9bd3bf0400ea7a9281900390910190a3505050505050505050565b60007f45b96fe442630264581b197e84bbada861235052c5a1aadfff9ea4e40a969aa0836011811115614d8a57fe5b836013811115614d9657fe5b604080519283526020830191909152600082820152519081900360600190a1826011811115611a4b57fe5b6000806000614dd48460008060006145c3565b9250925092509193909250565b6000614deb6155ed565b614df584846153ff565b905061174281615420565b6000611a4b8383604051806040016040528060158152602001747375627472616374696f6e20756e646572666c6f7760581b81525061542f565b6000611a4b83836040518060400160405280601781526020017f6d756c7469706c69636174696f6e206f766572666c6f77000000000000000000815250615489565b6000611a4b8383604051806040016040528060118152602001706164646974696f6e206f766572666c6f7760781b815250615508565b60005b600d54811015614f3d57816001600160a01b0316600d8281548110614ed657fe5b6000918252602090912001546001600160a01b03161415614f35576040805162461bcd60e51b81526020600482015260146024820152731b585c9ad95d08185b1c9958591e48185919195960621b604482015290519081900360640190fd5b600101614eb5565b50600d80546001810182556000919091527fd7b6990105719101dabeb77144f2a3385c8033acd3af97e9423a695e81ad1eb50180546001600160a01b0319166001600160a01b0392909216919091179055565b6001600160a01b03831660009081526009602052604081205460ff16614fb7576009611df7565b6001600160a01b038085166000908152600960209081526040808320938716835260029093019052205460ff16614fef576000611df7565b600080614fff85878660006145c3565b9193509091506000905082601181111561501557fe5b1461502f5781601181111561502657fe5b92505050611a4b565b8015613309576004615026565b6001600160a01b0382166000908152600960205260408120805460ff16615067576009915050611494565b6001600160a01b038316600090815260028201602052604090205460ff16151560011415615099576000915050611494565b6001600160a01b0380841660008181526002840160209081526040808320805460ff19166001908117909155600883528184208054918201815584529282902090920180549489166001600160a01b031990951685179055815193845283019190915280517f3ab23ab0d51cccc0c3085aec51f99228625aa1a922b3a8ca89a26b0f2027a1a59281900390910190a15060009392505050565b61513a6155ed565b6040518060200160405280670de0b6b3a764000061516086600001518660000151614e3a565b8161516757fe5b0490529392505050565b6151796155ed565b60405180602001604052806151a461519d8660000151670de0b6b3a7640000614e3a565b855161555d565b90529392505050565b5190511090565b60007f45b96fe442630264581b197e84bbada861235052c5a1aadfff9ea4e40a969aa08460118111156151e357fe5b8460138111156151ef57fe5b604080519283526020830191909152818101859052519081900360600190a183601181111561174257fe5b6000611a4b61523184670de0b6b3a7640000614e3a565b835161555d565b6152406155ed565b60405180602001604052806151a4615267866ec097ce7bc90715b34b9f1000000000614e3a565b8561555d565b6152756155ed565b60405180602001604052806151a485600001518560000151614e7c565b600081600160d81b84106153245760405162461bcd60e51b81526004018080602001828103825283818151815260200191508051906020019080838360005b838110156152e95781810151838201526020016152d1565b50505050905090810190601f1680156153165780820380516001836020036101000a031916815260200191505b509250505060405180910390fd5b509192915050565b6000816501000000000084106153245760405162461bcd60e51b81526020600482018181528351602484015283519092839260449091019190850190808383600083156152e95781810151838201526020016152d1565b61538b6155ed565b60405180602001604052806151a485600001518560000151614e00565b60006ec097ce7bc90715b34b9f10000000006153c8848460000151614e3a565b816153cf57fe5b049392505050565b60006153e16155ed565b6153eb85856153ff565b90506122f26153f982615420565b84614e7c565b6154076155ed565b60405180602001604052806151a4856000015185614e3a565b51670de0b6b3a7640000900490565b600081848411156154815760405162461bcd60e51b81526020600482018181528351602484015283519092839260449091019190850190808383600083156152e95781810151838201526020016152d1565b505050900390565b6000831580615496575082155b156154a357506000611a4b565b838302838582816154b057fe5b041483906154ff5760405162461bcd60e51b81526020600482018181528351602484015283519092839260449091019190850190808383600083156152e95781810151838201526020016152d1565b50949350505050565b600083830182858210156154ff5760405162461bcd60e51b81526020600482018181528351602484015283519092839260449091019190850190808383600083156152e95781810151838201526020016152d1565b6000611a4b83836040518060400160405280600e81526020016d646976696465206279207a65726f60901b815250600081836155da5760405162461bcd60e51b81526020600482018181528351602484015283519092839260449091019190850190808383600083156152e95781810151838201526020016152d1565b508284816155e457fe5b04949350505050565b6040518060200160405280600081525090565b8154818355818111156114f7576000838152602090206114f791810190830161568e565b6040518061014001604052806000815260200160008152602001600081526020016000815260200160008152602001600081526020016156626155ed565b815260200161566f6155ed565b815260200161567c6155ed565b81526020016156896155ed565b905290565b611cb191905b808211156156a85760008155600101615694565b509056fe63616e6e6f742070617573652061206d61726b65742074686174206973206e6f74206c697374656443616e206e6f74207265706179206d6f7265207468616e2074686520746f74616c20626f72726f776f6e6c7920706175736520677561726469616e20616e642061646d696e2063616e2070617573656f6e6c792061646d696e2063616e2073657420626f72726f772063617020677561726469616e626c6f636b206e756d62657220657863656564732034302062697473000000006f6e6c792061646d696e206f7220626f72726f772063617020677561726469616e2063616e2073657420626f72726f772063617073657869744d61726b65743a206765744163636f756e74536e617073686f74206661696c65646f6e6c7920756e6974726f6c6c65722061646d696e2063616e206368616e676520627261696e73a265627a7a72315820afdd8de4f86503bf28284739e86c06bdd0cfa00bcc49ae283271e7c8e7ef13e664736f6c63430005100032",
  "devdoc": {
    "author": "Compound",
    "methods": {
      "_grantComp(address,uint256)": {
        "details": "Note: If there is not enough COMP, we do not perform the transfer all.",
        "params": {
          "amount": "The amount of COMP to (possibly) transfer",
          "recipient": "The address of the recipient to transfer COMP to"
        }
      },
      "_setBorrowCapGuardian(address)": {
        "params": {
          "newBorrowCapGuardian": "The address of the new Borrow Cap Guardian"
        }
      },
      "_setCloseFactor(uint256)": {
        "details": "Admin function to set closeFactor",
        "params": {
          "newCloseFactorMantissa": "New close factor, scaled by 1e18"
        },
        "return": "uint 0=success, otherwise a failure"
      },
      "_setCollateralFactor(address,uint256)": {
        "details": "Admin function to set per-market collateralFactor",
        "params": {
          "cToken": "The market to set the factor on",
          "newCollateralFactorMantissa": "The new collateral factor, scaled by 1e18"
        },
        "return": "uint 0=success, otherwise a failure. (See ErrorReporter for details)"
      },
      "_setCompSpeed(address,uint256)": {
        "params": {
          "cToken": "The market whose COMP speed to update",
          "compSpeed": "New COMP speed for market"
        }
      },
      "_setContributorCompSpeed(address,uint256)": {
        "params": {
          "compSpeed": "New COMP speed for contributor",
          "contributor": "The contributor whose COMP speed to update"
        }
      },
      "_setLiquidationIncentive(uint256)": {
        "details": "Admin function to set liquidationIncentive",
        "params": {
          "newLiquidationIncentiveMantissa": "New liquidationIncentive scaled by 1e18"
        },
        "return": "uint 0=success, otherwise a failure. (See ErrorReporter for details)"
      },
      "_setMarketBorrowCaps(address[],uint256[])": {
        "details": "Admin or borrowCapGuardian function to set the borrow caps. A borrow cap of 0 corresponds to unlimited borrowing.",
        "params": {
          "cTokens": "The addresses of the markets (tokens) to change the borrow caps for",
          "newBorrowCaps": "The new borrow cap values in underlying to be set. A value of 0 corresponds to unlimited borrowing."
        }
      },
      "_setPauseGuardian(address)": {
        "params": {
          "newPauseGuardian": "The address of the new Pause Guardian"
        },
        "return": "uint 0=success, otherwise a failure. (See enum Error for details)"
      },
      "_setPriceOracle(address)": {
        "details": "Admin function to set a new price oracle",
        "return": "uint 0=success, otherwise a failure (see ErrorReporter.sol for details)"
      },
      "_supportMarket(address)": {
        "details": "Admin function to set isListed and add support for the market",
        "params": {
          "cToken": "The address of the market (token) to list"
        },
        "return": "uint 0=success, otherwise a failure. (See enum Error for details)"
      },
      "borrowAllowed(address,address,uint256)": {
        "params": {
          "borrowAmount": "The amount of underlying the account would borrow",
          "borrower": "The account which would borrow the asset",
          "cToken": "The market to verify the borrow against"
        },
        "return": "0 if the borrow is allowed, otherwise a semi-opaque error code (See ErrorReporter.sol)"
      },
      "borrowVerify(address,address,uint256)": {
        "params": {
          "borrowAmount": "The amount of the underlying asset requested to borrow",
          "borrower": "The address borrowing the underlying",
          "cToken": "Asset whose underlying is being borrowed"
        }
      },
      "checkMembership(address,address)": {
        "params": {
          "account": "The address of the account to check",
          "cToken": "The cToken to check"
        },
        "return": "True if the account is in the asset, otherwise false."
      },
      "claimComp(address)": {
        "params": {
          "holder": "The address to claim COMP for"
        }
      },
      "claimComp(address,address[])": {
        "params": {
          "cTokens": "The list of markets to claim COMP in",
          "holder": "The address to claim COMP for"
        }
      },
      "claimComp(address[],address[],bool,bool)": {
        "params": {
          "borrowers": "Whether or not to claim COMP earned by borrowing",
          "cTokens": "The list of markets to claim COMP in",
          "holders": "The addresses to claim COMP for",
          "suppliers": "Whether or not to claim COMP earned by supplying"
        }
      },
      "enterMarkets(address[])": {
        "params": {
          "cTokens": "The list of addresses of the cToken markets to be enabled"
        },
        "return": "Success indicator for whether each corresponding market was entered"
      },
      "exitMarket(address)": {
        "details": "Sender must not have an outstanding borrow balance in the asset, or be providing necessary collateral for an outstanding borrow.",
        "params": {
          "cTokenAddress": "The address of the asset to be removed"
        },
        "return": "Whether or not the account successfully exited the market"
      },
      "getAccountLiquidity(address)": {
        "return": "(possible error code (semi-opaque), account liquidity in excess of collateral requirements,         account shortfall below collateral requirements)"
      },
      "getAllMarkets()": {
        "details": "The automatic getter may be used to access an individual market.",
        "return": "The list of market addresses"
      },
      "getAssetsIn(address)": {
        "params": {
          "account": "The address of the account to pull assets for"
        },
        "return": "A dynamic list with the assets the account has entered"
      },
      "getCompAddress()": {
        "return": "The address of COMP"
      },
      "getHypotheticalAccountLiquidity(address,address,uint256,uint256)": {
        "params": {
          "account": "The account to determine liquidity for",
          "borrowAmount": "The amount of underlying to hypothetically borrow",
          "cTokenModify": "The market to hypothetically redeem/borrow in",
          "redeemTokens": "The number of tokens to hypothetically redeem"
        },
        "return": "(possible error code (semi-opaque), hypothetical account liquidity in excess of collateral requirements,         hypothetical account shortfall below collateral requirements)"
      },
      "isDeprecated(address)": {
        "details": "All borrows in a deprecated cToken market can be immediately liquidated",
        "params": {
          "cToken": "The market to check if deprecated"
        }
      },
      "liquidateBorrowAllowed(address,address,address,address,uint256)": {
        "params": {
          "borrower": "The address of the borrower",
          "cTokenBorrowed": "Asset which was borrowed by the borrower",
          "cTokenCollateral": "Asset which was used as collateral and will be seized",
          "liquidator": "The address repaying the borrow and seizing the collateral",
          "repayAmount": "The amount of underlying being repaid"
        }
      },
      "liquidateBorrowVerify(address,address,address,address,uint256,uint256)": {
        "params": {
          "actualRepayAmount": "The amount of underlying being repaid",
          "borrower": "The address of the borrower",
          "cTokenBorrowed": "Asset which was borrowed by the borrower",
          "cTokenCollateral": "Asset which was used as collateral and will be seized",
          "liquidator": "The address repaying the borrow and seizing the collateral"
        }
      },
      "liquidateCalculateSeizeTokens(address,address,uint256)": {
        "details": "Used in liquidation (called in cToken.liquidateBorrowFresh)",
        "params": {
          "actualRepayAmount": "The amount of cTokenBorrowed underlying to convert into cTokenCollateral tokens",
          "cTokenBorrowed": "The address of the borrowed cToken",
          "cTokenCollateral": "The address of the collateral cToken"
        },
        "return": "(errorCode, number of cTokenCollateral tokens to be seized in a liquidation)"
      },
      "mintAllowed(address,address,uint256)": {
        "params": {
          "cToken": "The market to verify the mint against",
          "mintAmount": "The amount of underlying being supplied to the market in exchange for tokens",
          "minter": "The account which would get the minted tokens"
        },
        "return": "0 if the mint is allowed, otherwise a semi-opaque error code (See ErrorReporter.sol)"
      },
      "mintVerify(address,address,uint256,uint256)": {
        "params": {
          "actualMintAmount": "The amount of the underlying asset being minted",
          "cToken": "Asset being minted",
          "mintTokens": "The number of tokens being minted",
          "minter": "The address minting the tokens"
        }
      },
      "redeemAllowed(address,address,uint256)": {
        "params": {
          "cToken": "The market to verify the redeem against",
          "redeemTokens": "The number of cTokens to exchange for the underlying asset in the market",
          "redeemer": "The account which would redeem the tokens"
        },
        "return": "0 if the redeem is allowed, otherwise a semi-opaque error code (See ErrorReporter.sol)"
      },
      "redeemVerify(address,address,uint256,uint256)": {
        "params": {
          "cToken": "Asset being redeemed",
          "redeemAmount": "The amount of the underlying asset being redeemed",
          "redeemTokens": "The number of tokens being redeemed",
          "redeemer": "The address redeeming the tokens"
        }
      },
      "repayBorrowAllowed(address,address,address,uint256)": {
        "params": {
          "borrower": "The account which would borrowed the asset",
          "cToken": "The market to verify the repay against",
          "payer": "The account which would repay the asset",
          "repayAmount": "The amount of the underlying asset the account would repay"
        },
        "return": "0 if the repay is allowed, otherwise a semi-opaque error code (See ErrorReporter.sol)"
      },
      "repayBorrowVerify(address,address,address,uint256,uint256)": {
        "params": {
          "actualRepayAmount": "The amount of underlying being repaid",
          "borrower": "The address of the borrower",
          "cToken": "Asset being repaid",
          "payer": "The address repaying the borrow"
        }
      },
      "seizeAllowed(address,address,address,address,uint256)": {
        "params": {
          "borrower": "The address of the borrower",
          "cTokenBorrowed": "Asset which was borrowed by the borrower",
          "cTokenCollateral": "Asset which was used as collateral and will be seized",
          "liquidator": "The address repaying the borrow and seizing the collateral",
          "seizeTokens": "The number of collateral tokens to seize"
        }
      },
      "seizeVerify(address,address,address,address,uint256)": {
        "params": {
          "borrower": "The address of the borrower",
          "cTokenBorrowed": "Asset which was borrowed by the borrower",
          "cTokenCollateral": "Asset which was used as collateral and will be seized",
          "liquidator": "The address repaying the borrow and seizing the collateral",
          "seizeTokens": "The number of collateral tokens to seize"
        }
      },
      "transferAllowed(address,address,address,uint256)": {
        "params": {
          "cToken": "The market to verify the transfer against",
          "dst": "The account which receives the tokens",
          "src": "The account which sources the tokens",
          "transferTokens": "The number of cTokens to transfer"
        },
        "return": "0 if the transfer is allowed, otherwise a semi-opaque error code (See ErrorReporter.sol)"
      },
      "transferVerify(address,address,address,uint256)": {
        "params": {
          "cToken": "Asset being transferred",
          "dst": "The account which receives the tokens",
          "src": "The account which sources the tokens",
          "transferTokens": "The number of cTokens to transfer"
        }
      },
      "updateContributorRewards(address)": {
        "params": {
          "contributor": "The address to calculate contributor rewards for"
        }
      }
    },
    "title": "Compound's Comptroller Contract"
  },
  "userdoc": {
    "methods": {
      "_grantComp(address,uint256)": {
        "notice": "Transfer COMP to the recipient"
      },
      "_setBorrowCapGuardian(address)": {
        "notice": "Admin function to change the Borrow Cap Guardian"
      },
      "_setCloseFactor(uint256)": {
        "notice": "Sets the closeFactor used when liquidating borrows"
      },
      "_setCollateralFactor(address,uint256)": {
        "notice": "Sets the collateralFactor for a market"
      },
      "_setCompAddress(address)": {
        "notice": "Set comp address for incentive distribution"
      },
      "_setCompSpeed(address,uint256)": {
        "notice": "Set COMP speed for a single market"
      },
      "_setContributorCompSpeed(address,uint256)": {
        "notice": "Set COMP speed for a single contributor"
      },
      "_setLiquidationIncentive(uint256)": {
        "notice": "Sets liquidationIncentive"
      },
      "_setMarketBorrowCaps(address[],uint256[])": {
        "notice": "Set the given borrow caps for the given cToken markets. Borrowing that brings total borrows to or above borrow cap will revert."
      },
      "_setPauseGuardian(address)": {
        "notice": "Admin function to change the Pause Guardian"
      },
      "_setPriceOracle(address)": {
        "notice": "Sets a new price oracle for the comptroller"
      },
      "_supportMarket(address)": {
        "notice": "Add the market to the markets mapping and set it as listed"
      },
      "borrowAllowed(address,address,uint256)": {
        "notice": "Checks if the account should be allowed to borrow the underlying asset of the given market"
      },
      "borrowVerify(address,address,uint256)": {
        "notice": "Validates borrow and reverts on rejection. May emit logs."
      },
      "checkMembership(address,address)": {
        "notice": "Returns whether the given account is entered in the given asset"
      },
      "claimComp(address)": {
        "notice": "Claim all the comp accrued by holder in all markets"
      },
      "claimComp(address,address[])": {
        "notice": "Claim all the comp accrued by holder in the specified markets"
      },
      "claimComp(address[],address[],bool,bool)": {
        "notice": "Claim all comp accrued by the holders"
      },
      "enterMarkets(address[])": {
        "notice": "Add assets to be included in account liquidity calculation"
      },
      "exitMarket(address)": {
        "notice": "Removes asset from sender's account liquidity calculation"
      },
      "getAccountLiquidity(address)": {
        "notice": "Determine the current account liquidity wrt collateral requirements"
      },
      "getAllMarkets()": {
        "notice": "Return all of the markets"
      },
      "getAssetsIn(address)": {
        "notice": "Returns the assets an account has entered"
      },
      "getCompAddress()": {
        "notice": "Return the address of the COMP token"
      },
      "getHypotheticalAccountLiquidity(address,address,uint256,uint256)": {
        "notice": "Determine what the account liquidity would be if the given amounts were redeemed/borrowed"
      },
      "isDeprecated(address)": {
        "notice": "Returns true if the given cToken market has been deprecated"
      },
      "liquidateBorrowAllowed(address,address,address,address,uint256)": {
        "notice": "Checks if the liquidation should be allowed to occur"
      },
      "liquidateBorrowVerify(address,address,address,address,uint256,uint256)": {
        "notice": "Validates liquidateBorrow and reverts on rejection. May emit logs."
      },
      "liquidateCalculateSeizeTokens(address,address,uint256)": {
        "notice": "Calculate number of tokens of collateral asset to seize given an underlying amount"
      },
      "mintAllowed(address,address,uint256)": {
        "notice": "Checks if the account should be allowed to mint tokens in the given market"
      },
      "mintVerify(address,address,uint256,uint256)": {
        "notice": "Validates mint and reverts on rejection. May emit logs."
      },
      "redeemAllowed(address,address,uint256)": {
        "notice": "Checks if the account should be allowed to redeem tokens in the given market"
      },
      "redeemVerify(address,address,uint256,uint256)": {
        "notice": "Validates redeem and reverts on rejection. May emit logs."
      },
      "repayBorrowAllowed(address,address,address,uint256)": {
        "notice": "Checks if the account should be allowed to repay a borrow in the given market"
      },
      "repayBorrowVerify(address,address,address,uint256,uint256)": {
        "notice": "Validates repayBorrow and reverts on rejection. May emit logs."
      },
      "seizeAllowed(address,address,address,address,uint256)": {
        "notice": "Checks if the seizing of assets should be allowed to occur"
      },
      "seizeVerify(address,address,address,address,uint256)": {
        "notice": "Validates seize and reverts on rejection. May emit logs."
      },
      "transferAllowed(address,address,address,uint256)": {
        "notice": "Checks if the account should be allowed to transfer tokens in the given market"
      },
      "transferVerify(address,address,address,uint256)": {
        "notice": "Validates transfer and reverts on rejection. May emit logs."
      },
      "updateContributorRewards(address)": {
        "notice": "Calculate additional accrued COMP for a contributor since last accrual"
      }
    }
  },
  "storageLayout": {
    "storage": [
      {
        "astId": 36284,
        "contract": "contracts/Comptroller.sol:Comptroller",
        "label": "admin",
        "offset": 0,
        "slot": "0",
        "type": "t_address"
      },
      {
        "astId": 36286,
        "contract": "contracts/Comptroller.sol:Comptroller",
        "label": "pendingAdmin",
        "offset": 0,
        "slot": "1",
        "type": "t_address"
      },
      {
        "astId": 36288,
        "contract": "contracts/Comptroller.sol:Comptroller",
        "label": "comptrollerImplementation",
        "offset": 0,
        "slot": "2",
        "type": "t_address"
      },
      {
        "astId": 36290,
        "contract": "contracts/Comptroller.sol:Comptroller",
        "label": "pendingComptrollerImplementation",
        "offset": 0,
        "slot": "3",
        "type": "t_address"
      },
      {
        "astId": 36295,
        "contract": "contracts/Comptroller.sol:Comptroller",
        "label": "oracle",
        "offset": 0,
        "slot": "4",
        "type": "t_contract(PriceOracle)42472"
      },
      {
        "astId": 36297,
        "contract": "contracts/Comptroller.sol:Comptroller",
        "label": "closeFactorMantissa",
        "offset": 0,
        "slot": "5",
        "type": "t_uint256"
      },
      {
        "astId": 36299,
        "contract": "contracts/Comptroller.sol:Comptroller",
        "label": "liquidationIncentiveMantissa",
        "offset": 0,
        "slot": "6",
        "type": "t_uint256"
      },
      {
        "astId": 36301,
        "contract": "contracts/Comptroller.sol:Comptroller",
        "label": "maxAssets",
        "offset": 0,
        "slot": "7",
        "type": "t_uint256"
      },
      {
        "astId": 36306,
        "contract": "contracts/Comptroller.sol:Comptroller",
        "label": "accountAssets",
        "offset": 0,
        "slot": "8",
        "type": "t_mapping(t_address,t_array(t_contract(CToken)6292)dyn_storage)"
      },
      {
        "astId": 36324,
        "contract": "contracts/Comptroller.sol:Comptroller",
        "label": "markets",
        "offset": 0,
        "slot": "9",
        "type": "t_mapping(t_address,t_struct(Market)36320_storage)"
      },
      {
        "astId": 36326,
        "contract": "contracts/Comptroller.sol:Comptroller",
        "label": "pauseGuardian",
        "offset": 0,
        "slot": "10",
        "type": "t_address"
      },
      {
        "astId": 36328,
        "contract": "contracts/Comptroller.sol:Comptroller",
        "label": "_mintGuardianPaused",
        "offset": 20,
        "slot": "10",
        "type": "t_bool"
      },
      {
        "astId": 36330,
        "contract": "contracts/Comptroller.sol:Comptroller",
        "label": "_borrowGuardianPaused",
        "offset": 21,
        "slot": "10",
        "type": "t_bool"
      },
      {
        "astId": 36332,
        "contract": "contracts/Comptroller.sol:Comptroller",
        "label": "transferGuardianPaused",
        "offset": 22,
        "slot": "10",
        "type": "t_bool"
      },
      {
        "astId": 36334,
        "contract": "contracts/Comptroller.sol:Comptroller",
        "label": "seizeGuardianPaused",
        "offset": 23,
        "slot": "10",
        "type": "t_bool"
      },
      {
        "astId": 36338,
        "contract": "contracts/Comptroller.sol:Comptroller",
        "label": "mintGuardianPaused",
        "offset": 0,
        "slot": "11",
        "type": "t_mapping(t_address,t_bool)"
      },
      {
        "astId": 36342,
        "contract": "contracts/Comptroller.sol:Comptroller",
        "label": "borrowGuardianPaused",
        "offset": 0,
        "slot": "12",
        "type": "t_mapping(t_address,t_bool)"
      },
      {
        "astId": 36353,
        "contract": "contracts/Comptroller.sol:Comptroller",
        "label": "allMarkets",
        "offset": 0,
        "slot": "13",
        "type": "t_array(t_contract(CToken)6292)dyn_storage"
      },
      {
        "astId": 36355,
        "contract": "contracts/Comptroller.sol:Comptroller",
        "label": "compRate",
        "offset": 0,
        "slot": "14",
        "type": "t_uint256"
      },
      {
        "astId": 36359,
        "contract": "contracts/Comptroller.sol:Comptroller",
        "label": "compSpeeds",
        "offset": 0,
        "slot": "15",
        "type": "t_mapping(t_address,t_uint256)"
      },
      {
        "astId": 36363,
        "contract": "contracts/Comptroller.sol:Comptroller",
        "label": "compSupplyState",
        "offset": 0,
        "slot": "16",
        "type": "t_mapping(t_address,t_struct(CompMarketState)36350_storage)"
      },
      {
        "astId": 36367,
        "contract": "contracts/Comptroller.sol:Comptroller",
        "label": "compBorrowState",
        "offset": 0,
        "slot": "17",
        "type": "t_mapping(t_address,t_struct(CompMarketState)36350_storage)"
      },
      {
        "astId": 36373,
        "contract": "contracts/Comptroller.sol:Comptroller",
        "label": "compSupplierIndex",
        "offset": 0,
        "slot": "18",
        "type": "t_mapping(t_address,t_mapping(t_address,t_uint256))"
      },
      {
        "astId": 36379,
        "contract": "contracts/Comptroller.sol:Comptroller",
        "label": "compBorrowerIndex",
        "offset": 0,
        "slot": "19",
        "type": "t_mapping(t_address,t_mapping(t_address,t_uint256))"
      },
      {
        "astId": 36383,
        "contract": "contracts/Comptroller.sol:Comptroller",
        "label": "compAccrued",
        "offset": 0,
        "slot": "20",
        "type": "t_mapping(t_address,t_uint256)"
      },
      {
        "astId": 36388,
        "contract": "contracts/Comptroller.sol:Comptroller",
        "label": "borrowCapGuardian",
        "offset": 0,
        "slot": "21",
        "type": "t_address"
      },
      {
        "astId": 36392,
        "contract": "contracts/Comptroller.sol:Comptroller",
        "label": "borrowCaps",
        "offset": 0,
        "slot": "22",
        "type": "t_mapping(t_address,t_uint256)"
      },
      {
        "astId": 36399,
        "contract": "contracts/Comptroller.sol:Comptroller",
        "label": "compContributorSpeeds",
        "offset": 0,
        "slot": "23",
        "type": "t_mapping(t_address,t_uint256)"
      },
      {
        "astId": 36403,
        "contract": "contracts/Comptroller.sol:Comptroller",
        "label": "lastContributorBlock",
        "offset": 0,
        "slot": "24",
        "type": "t_mapping(t_address,t_uint256)"
      },
      {
        "astId": 36406,
        "contract": "contracts/Comptroller.sol:Comptroller",
        "label": "compAddress",
        "offset": 0,
        "slot": "25",
        "type": "t_address"
      }
    ],
    "types": {
      "t_address": {
        "encoding": "inplace",
        "label": "address",
        "numberOfBytes": "20"
      },
      "t_array(t_contract(CToken)6292)dyn_storage": {
        "base": "t_contract(CToken)6292",
        "encoding": "dynamic_array",
        "label": "contract CToken[]",
        "numberOfBytes": "32"
      },
      "t_bool": {
        "encoding": "inplace",
        "label": "bool",
        "numberOfBytes": "1"
      },
      "t_contract(CToken)6292": {
        "encoding": "inplace",
        "label": "contract CToken",
        "numberOfBytes": "20"
      },
      "t_contract(PriceOracle)42472": {
        "encoding": "inplace",
        "label": "contract PriceOracle",
        "numberOfBytes": "20"
      },
      "t_mapping(t_address,t_array(t_contract(CToken)6292)dyn_storage)": {
        "encoding": "mapping",
        "key": "t_address",
        "label": "mapping(address => contract CToken[])",
        "numberOfBytes": "32",
        "value": "t_array(t_contract(CToken)6292)dyn_storage"
      },
      "t_mapping(t_address,t_bool)": {
        "encoding": "mapping",
        "key": "t_address",
        "label": "mapping(address => bool)",
        "numberOfBytes": "32",
        "value": "t_bool"
      },
      "t_mapping(t_address,t_mapping(t_address,t_uint256))": {
        "encoding": "mapping",
        "key": "t_address",
        "label": "mapping(address => mapping(address => uint256))",
        "numberOfBytes": "32",
        "value": "t_mapping(t_address,t_uint256)"
      },
      "t_mapping(t_address,t_struct(CompMarketState)36350_storage)": {
        "encoding": "mapping",
        "key": "t_address",
        "label": "mapping(address => struct ComptrollerV3Storage.CompMarketState)",
        "numberOfBytes": "32",
        "value": "t_struct(CompMarketState)36350_storage"
      },
      "t_mapping(t_address,t_struct(Market)36320_storage)": {
        "encoding": "mapping",
        "key": "t_address",
        "label": "mapping(address => struct ComptrollerV2Storage.Market)",
        "numberOfBytes": "32",
        "value": "t_struct(Market)36320_storage"
      },
      "t_mapping(t_address,t_uint256)": {
        "encoding": "mapping",
        "key": "t_address",
        "label": "mapping(address => uint256)",
        "numberOfBytes": "32",
        "value": "t_uint256"
      },
      "t_struct(CompMarketState)36350_storage": {
        "encoding": "inplace",
        "label": "struct ComptrollerV3Storage.CompMarketState",
        "members": [
          {
            "astId": 36347,
            "contract": "contracts/Comptroller.sol:Comptroller",
            "label": "index",
            "offset": 0,
            "slot": "0",
            "type": "t_uint216"
          },
          {
            "astId": 36349,
            "contract": "contracts/Comptroller.sol:Comptroller",
            "label": "block",
            "offset": 27,
            "slot": "0",
            "type": "t_uint40"
          }
        ],
        "numberOfBytes": "32"
      },
      "t_struct(Market)36320_storage": {
        "encoding": "inplace",
        "label": "struct ComptrollerV2Storage.Market",
        "members": [
          {
            "astId": 36311,
            "contract": "contracts/Comptroller.sol:Comptroller",
            "label": "isListed",
            "offset": 0,
            "slot": "0",
            "type": "t_bool"
          },
          {
            "astId": 36313,
            "contract": "contracts/Comptroller.sol:Comptroller",
            "label": "collateralFactorMantissa",
            "offset": 0,
            "slot": "1",
            "type": "t_uint256"
          },
          {
            "astId": 36317,
            "contract": "contracts/Comptroller.sol:Comptroller",
            "label": "accountMembership",
            "offset": 0,
            "slot": "2",
            "type": "t_mapping(t_address,t_bool)"
          },
          {
            "astId": 36319,
            "contract": "contracts/Comptroller.sol:Comptroller",
            "label": "isComped",
            "offset": 0,
            "slot": "3",
            "type": "t_bool"
          }
        ],
        "numberOfBytes": "128"
      },
      "t_uint216": {
        "encoding": "inplace",
        "label": "uint216",
        "numberOfBytes": "27"
      },
      "t_uint256": {
        "encoding": "inplace",
        "label": "uint256",
        "numberOfBytes": "32"
      },
      "t_uint40": {
        "encoding": "inplace",
        "label": "uint40",
        "numberOfBytes": "5"
      }
    }
  }
}